{
	"Votaciones/votaciones.sol": {
		"votacion": {
			"abi": [
				{
					"inputs": [],
					"stateMutability": "nonpayable",
					"type": "constructor"
				},
				{
					"inputs": [],
					"name": "owner",
					"outputs": [
						{
							"internalType": "address",
							"name": "",
							"type": "address"
						}
					],
					"stateMutability": "view",
					"type": "function"
				}
			],
			"devdoc": {
				"kind": "dev",
				"methods": {},
				"version": 1
			},
			"evm": {
				"assembly": "    /* \"Votaciones/votaciones.sol\":102:396  contract votacion {\r... */\n  mstore(0x40, 0x80)\n    /* \"Votaciones/votaciones.sol\":204:263  constructor () public {\r... */\n  callvalue\n  dup1\n  iszero\n  tag_1\n  jumpi\n  0x00\n  dup1\n  revert\ntag_1:\n  pop\n    /* \"Votaciones/votaciones.sol\":245:255  msg.sender */\n  caller\n    /* \"Votaciones/votaciones.sol\":237:242  owner */\n  0x00\n  dup1\n    /* \"Votaciones/votaciones.sol\":237:255  owner = msg.sender */\n  0x0100\n  exp\n  dup2\n  sload\n  dup2\n  0xffffffffffffffffffffffffffffffffffffffff\n  mul\n  not\n  and\n  swap1\n  dup4\n  0xffffffffffffffffffffffffffffffffffffffff\n  and\n  mul\n  or\n  swap1\n  sstore\n  pop\n    /* \"Votaciones/votaciones.sol\":102:396  contract votacion {\r... */\n  dataSize(sub_0)\n  dup1\n  dataOffset(sub_0)\n  0x00\n  codecopy\n  0x00\n  return\nstop\n\nsub_0: assembly {\n        /* \"Votaciones/votaciones.sol\":102:396  contract votacion {\r... */\n      mstore(0x40, 0x80)\n      callvalue\n      dup1\n      iszero\n      tag_1\n      jumpi\n      0x00\n      dup1\n      revert\n    tag_1:\n      pop\n      jumpi(tag_2, lt(calldatasize, 0x04))\n      shr(0xe0, calldataload(0x00))\n      dup1\n      0x8da5cb5b\n      eq\n      tag_3\n      jumpi\n    tag_2:\n      0x00\n      dup1\n      revert\n        /* \"Votaciones/votaciones.sol\":175:195  address public owner */\n    tag_3:\n      tag_4\n      tag_5\n      jump\t// in\n    tag_4:\n      mload(0x40)\n      tag_6\n      swap2\n      swap1\n      tag_7\n      jump\t// in\n    tag_6:\n      mload(0x40)\n      dup1\n      swap2\n      sub\n      swap1\n      return\n    tag_5:\n      0x00\n      dup1\n      sload\n      swap1\n      0x0100\n      exp\n      swap1\n      div\n      0xffffffffffffffffffffffffffffffffffffffff\n      and\n      dup2\n      jump\t// out\n        /* \"--CODEGEN--\":5:118   */\n    tag_9:\n        /* \"--CODEGEN--\":88:112   */\n      tag_11\n        /* \"--CODEGEN--\":106:111   */\n      dup2\n        /* \"--CODEGEN--\":88:112   */\n      tag_12\n      jump\t// in\n    tag_11:\n        /* \"--CODEGEN--\":83:86   */\n      dup3\n        /* \"--CODEGEN--\":76:113   */\n      mstore\n        /* \"--CODEGEN--\":70:118   */\n      pop\n      pop\n      jump\t// out\n        /* \"--CODEGEN--\":125:347   */\n    tag_7:\n      0x00\n        /* \"--CODEGEN--\":252:254   */\n      0x20\n        /* \"--CODEGEN--\":241:250   */\n      dup3\n        /* \"--CODEGEN--\":237:255   */\n      add\n        /* \"--CODEGEN--\":229:255   */\n      swap1\n      pop\n        /* \"--CODEGEN--\":266:337   */\n      tag_14\n        /* \"--CODEGEN--\":334:335   */\n      0x00\n        /* \"--CODEGEN--\":323:332   */\n      dup4\n        /* \"--CODEGEN--\":319:336   */\n      add\n        /* \"--CODEGEN--\":310:316   */\n      dup5\n        /* \"--CODEGEN--\":266:337   */\n      tag_9\n      jump\t// in\n    tag_14:\n        /* \"--CODEGEN--\":223:347   */\n      swap3\n      swap2\n      pop\n      pop\n      jump\t// out\n        /* \"--CODEGEN--\":354:445   */\n    tag_12:\n      0x00\n        /* \"--CODEGEN--\":416:440   */\n      tag_16\n        /* \"--CODEGEN--\":434:439   */\n      dup3\n        /* \"--CODEGEN--\":416:440   */\n      tag_17\n      jump\t// in\n    tag_16:\n        /* \"--CODEGEN--\":405:440   */\n      swap1\n      pop\n        /* \"--CODEGEN--\":399:445   */\n      swap2\n      swap1\n      pop\n      jump\t// out\n        /* \"--CODEGEN--\":452:573   */\n    tag_17:\n      0x00\n        /* \"--CODEGEN--\":525:567   */\n      0xffffffffffffffffffffffffffffffffffffffff\n        /* \"--CODEGEN--\":518:523   */\n      dup3\n        /* \"--CODEGEN--\":514:568   */\n      and\n        /* \"--CODEGEN--\":503:568   */\n      swap1\n      pop\n        /* \"--CODEGEN--\":497:573   */\n      swap2\n      swap1\n      pop\n      jump\t// out\n\n    auxdata: 0xa26469706673582212204f433f4d1cbd5e5eb7427c9763301e51d89b8393aac7acb500ccb82305d91dcc64736f6c634300060c0033\n}\n",
				"bytecode": {
					"linkReferences": {},
					"object": "608060405234801561001057600080fd5b50336000806101000a81548173ffffffffffffffffffffffffffffffffffffffff021916908373ffffffffffffffffffffffffffffffffffffffff16021790555060f78061005f6000396000f3fe6080604052348015600f57600080fd5b506004361060285760003560e01c80638da5cb5b14602d575b600080fd5b60336047565b604051603e91906078565b60405180910390f35b60008054906101000a900473ffffffffffffffffffffffffffffffffffffffff1681565b6072816091565b82525050565b6000602082019050608b6000830184606b565b92915050565b6000609a8260a1565b9050919050565b600073ffffffffffffffffffffffffffffffffffffffff8216905091905056fea26469706673582212204f433f4d1cbd5e5eb7427c9763301e51d89b8393aac7acb500ccb82305d91dcc64736f6c634300060c0033",
					"opcodes": "PUSH1 0x80 PUSH1 0x40 MSTORE CALLVALUE DUP1 ISZERO PUSH2 0x10 JUMPI PUSH1 0x0 DUP1 REVERT JUMPDEST POP CALLER PUSH1 0x0 DUP1 PUSH2 0x100 EXP DUP2 SLOAD DUP2 PUSH20 0xFFFFFFFFFFFFFFFFFFFFFFFFFFFFFFFFFFFFFFFF MUL NOT AND SWAP1 DUP4 PUSH20 0xFFFFFFFFFFFFFFFFFFFFFFFFFFFFFFFFFFFFFFFF AND MUL OR SWAP1 SSTORE POP PUSH1 0xF7 DUP1 PUSH2 0x5F PUSH1 0x0 CODECOPY PUSH1 0x0 RETURN INVALID PUSH1 0x80 PUSH1 0x40 MSTORE CALLVALUE DUP1 ISZERO PUSH1 0xF JUMPI PUSH1 0x0 DUP1 REVERT JUMPDEST POP PUSH1 0x4 CALLDATASIZE LT PUSH1 0x28 JUMPI PUSH1 0x0 CALLDATALOAD PUSH1 0xE0 SHR DUP1 PUSH4 0x8DA5CB5B EQ PUSH1 0x2D JUMPI JUMPDEST PUSH1 0x0 DUP1 REVERT JUMPDEST PUSH1 0x33 PUSH1 0x47 JUMP JUMPDEST PUSH1 0x40 MLOAD PUSH1 0x3E SWAP2 SWAP1 PUSH1 0x78 JUMP JUMPDEST PUSH1 0x40 MLOAD DUP1 SWAP2 SUB SWAP1 RETURN JUMPDEST PUSH1 0x0 DUP1 SLOAD SWAP1 PUSH2 0x100 EXP SWAP1 DIV PUSH20 0xFFFFFFFFFFFFFFFFFFFFFFFFFFFFFFFFFFFFFFFF AND DUP2 JUMP JUMPDEST PUSH1 0x72 DUP2 PUSH1 0x91 JUMP JUMPDEST DUP3 MSTORE POP POP JUMP JUMPDEST PUSH1 0x0 PUSH1 0x20 DUP3 ADD SWAP1 POP PUSH1 0x8B PUSH1 0x0 DUP4 ADD DUP5 PUSH1 0x6B JUMP JUMPDEST SWAP3 SWAP2 POP POP JUMP JUMPDEST PUSH1 0x0 PUSH1 0x9A DUP3 PUSH1 0xA1 JUMP JUMPDEST SWAP1 POP SWAP2 SWAP1 POP JUMP JUMPDEST PUSH1 0x0 PUSH20 0xFFFFFFFFFFFFFFFFFFFFFFFFFFFFFFFFFFFFFFFF DUP3 AND SWAP1 POP SWAP2 SWAP1 POP JUMP INVALID LOG2 PUSH5 0x6970667358 0x22 SLT KECCAK256 0x4F NUMBER EXTCODEHASH 0x4D SHR 0xBD 0x5E 0x5E 0xB7 TIMESTAMP PUSH29 0x9763301E51D89B8393AAC7ACB500CCB82305D91DCC64736F6C63430006 0xC STOP CALLER "
				},
				"gasEstimates": {
					"creation": {
						"codeDepositCost": "49400",
						"executionCost": "20965",
						"totalCost": "70365"
					},
					"external": {
						"owner()": "1189"
					}
				},
				"methodIdentifiers": {
					"owner()": "8da5cb5b"
				}
			},
			"storageLayout": {
				"storage": [
					{
						"astId": 4,
						"contract": "Votaciones/votaciones.sol:votacion",
						"label": "owner",
						"offset": 0,
						"slot": "0",
						"type": "t_address"
					},
					{
						"astId": 17,
						"contract": "Votaciones/votaciones.sol:votacion",
						"label": "ID_Candidato",
						"offset": 0,
						"slot": "1",
						"type": "t_mapping(t_string_memory_ptr,t_bytes32)"
					}
				],
				"types": {
					"t_address": {
						"encoding": "inplace",
						"label": "address",
						"numberOfBytes": "20"
					},
					"t_bytes32": {
						"encoding": "inplace",
						"label": "bytes32",
						"numberOfBytes": "32"
					},
					"t_mapping(t_string_memory_ptr,t_bytes32)": {
						"encoding": "mapping",
						"key": "t_string_memory_ptr",
						"label": "mapping(string => bytes32)",
						"numberOfBytes": "32",
						"value": "t_bytes32"
					},
					"t_string_memory_ptr": {
						"encoding": "bytes",
						"label": "string",
						"numberOfBytes": "32"
					}
				}
			},
			"userdoc": {
				"kind": "user",
				"methods": {},
				"version": 1
			}
		}
	}
}