{
	"Votaciones/votaciones.sol": {
		"votacion": {
			"abi": [
				{
					"inputs": [],
					"stateMutability": "nonpayable",
					"type": "constructor"
				},
				{
					"inputs": [
						{
							"internalType": "string",
							"name": "_nombre",
							"type": "string"
						},
						{
							"internalType": "uint256",
							"name": "_edad",
							"type": "uint256"
						},
						{
							"internalType": "string",
							"name": "_ID",
							"type": "string"
						}
					],
					"name": "Representar",
					"outputs": [],
					"stateMutability": "nonpayable",
					"type": "function"
				},
				{
					"inputs": [],
					"name": "VerCandidatos",
					"outputs": [
						{
							"internalType": "string[]",
							"name": "",
							"type": "string[]"
						}
					],
					"stateMutability": "view",
					"type": "function"
				},
				{
					"inputs": [
						{
							"internalType": "string",
							"name": "_candidato",
							"type": "string"
						}
					],
					"name": "VerVotosCandidatos",
					"outputs": [
						{
							"internalType": "uint256",
							"name": "",
							"type": "uint256"
						}
					],
					"stateMutability": "view",
					"type": "function"
				},
				{
					"inputs": [
						{
							"internalType": "string",
							"name": "_candidato",
							"type": "string"
						}
					],
					"name": "Votar",
					"outputs": [],
					"stateMutability": "nonpayable",
					"type": "function"
				},
				{
					"inputs": [],
					"name": "owner",
					"outputs": [
						{
							"internalType": "address",
							"name": "",
							"type": "address"
						}
					],
					"stateMutability": "view",
					"type": "function"
				}
			],
			"devdoc": {
				"kind": "dev",
				"methods": {},
				"version": 1
			},
			"evm": {
				"assembly": "    /* \"Votaciones/votaciones.sol\":102:2082  contract votacion {\r... */\n  mstore(0x40, 0x80)\n    /* \"Votaciones/votaciones.sol\":619:678  constructor () public {\r... */\n  callvalue\n  dup1\n  iszero\n  tag_1\n  jumpi\n  0x00\n  dup1\n  revert\ntag_1:\n  pop\n    /* \"Votaciones/votaciones.sol\":660:670  msg.sender */\n  caller\n    /* \"Votaciones/votaciones.sol\":652:657  owner */\n  0x00\n  dup1\n    /* \"Votaciones/votaciones.sol\":652:670  owner = msg.sender */\n  0x0100\n  exp\n  dup2\n  sload\n  dup2\n  0xffffffffffffffffffffffffffffffffffffffff\n  mul\n  not\n  and\n  swap1\n  dup4\n  0xffffffffffffffffffffffffffffffffffffffff\n  and\n  mul\n  or\n  swap1\n  sstore\n  pop\n    /* \"Votaciones/votaciones.sol\":102:2082  contract votacion {\r... */\n  dataSize(sub_0)\n  dup1\n  dataOffset(sub_0)\n  0x00\n  codecopy\n  0x00\n  return\nstop\n\nsub_0: assembly {\n        /* \"Votaciones/votaciones.sol\":102:2082  contract votacion {\r... */\n      mstore(0x40, 0x80)\n      callvalue\n      dup1\n      iszero\n      tag_1\n      jumpi\n      0x00\n      dup1\n      revert\n    tag_1:\n      pop\n      jumpi(tag_2, lt(calldatasize, 0x04))\n      shr(0xe0, calldataload(0x00))\n      dup1\n      0x4c25de51\n      eq\n      tag_3\n      jumpi\n      dup1\n      0x8da5cb5b\n      eq\n      tag_4\n      jumpi\n      dup1\n      0xbfc2e938\n      eq\n      tag_5\n      jumpi\n      dup1\n      0xf01ca6b7\n      eq\n      tag_6\n      jumpi\n      dup1\n      0xfebe07dc\n      eq\n      tag_7\n      jumpi\n    tag_2:\n      0x00\n      dup1\n      revert\n        /* \"Votaciones/votaciones.sol\":1947:2079  function VerVotosCandidatos(string memory _candidato) public view returns(uint) {\r... */\n    tag_3:\n      tag_8\n      0x04\n      dup1\n      calldatasize\n      sub\n      dup2\n      add\n      swap1\n      tag_9\n      swap2\n      swap1\n      tag_10\n      jump\t// in\n    tag_9:\n      tag_11\n      jump\t// in\n    tag_8:\n      mload(0x40)\n      tag_12\n      swap2\n      swap1\n      tag_13\n      jump\t// in\n    tag_12:\n      mload(0x40)\n      dup1\n      swap2\n      sub\n      swap1\n      return\n        /* \"Votaciones/votaciones.sol\":175:195  address public owner */\n    tag_4:\n      tag_14\n      tag_15\n      jump\t// in\n    tag_14:\n      mload(0x40)\n      tag_16\n      swap2\n      swap1\n      tag_17\n      jump\t// in\n    tag_16:\n      mload(0x40)\n      dup1\n      swap2\n      sub\n      swap1\n      return\n        /* \"Votaciones/votaciones.sol\":1263:1361  function VerCandidatos() public view returns(string[] memory) {\r... */\n    tag_5:\n      tag_18\n      tag_19\n      jump\t// in\n    tag_18:\n      mload(0x40)\n      tag_20\n      swap2\n      swap1\n      tag_21\n      jump\t// in\n    tag_20:\n      mload(0x40)\n      dup1\n      swap2\n      sub\n      swap1\n      return\n        /* \"Votaciones/votaciones.sol\":748:1173  function Representar(string memory _nombre, uint _edad, string memory _ID) public {\r... */\n    tag_6:\n      tag_22\n      0x04\n      dup1\n      calldatasize\n      sub\n      dup2\n      add\n      swap1\n      tag_23\n      swap2\n      swap1\n      tag_24\n      jump\t// in\n    tag_23:\n      tag_25\n      jump\t// in\n    tag_22:\n      stop\n        /* \"Votaciones/votaciones.sol\":1408:1939  function Votar(string memory _candidato) public {\r... */\n    tag_7:\n      tag_26\n      0x04\n      dup1\n      calldatasize\n      sub\n      dup2\n      add\n      swap1\n      tag_27\n      swap2\n      swap1\n      tag_10\n      jump\t// in\n    tag_27:\n      tag_28\n      jump\t// in\n    tag_26:\n      stop\n        /* \"Votaciones/votaciones.sol\":1947:2079  function VerVotosCandidatos(string memory _candidato) public view returns(uint) {\r... */\n    tag_11:\n        /* \"Votaciones/votaciones.sol\":2021:2025  uint */\n      0x00\n        /* \"Votaciones/votaciones.sol\":2045:2059  VotosCandidato */\n      0x02\n        /* \"Votaciones/votaciones.sol\":2060:2070  _candidato */\n      dup3\n        /* \"Votaciones/votaciones.sol\":2045:2071  VotosCandidato[_candidato] */\n      mload(0x40)\n      tag_30\n      swap2\n      swap1\n      tag_31\n      jump\t// in\n    tag_30:\n      swap1\n      dup2\n      mstore\n      0x20\n      add\n      mload(0x40)\n      dup1\n      swap2\n      sub\n      swap1\n      keccak256\n      sload\n        /* \"Votaciones/votaciones.sol\":2038:2071  return VotosCandidato[_candidato] */\n      swap1\n      pop\n        /* \"Votaciones/votaciones.sol\":1947:2079  function VerVotosCandidatos(string memory _candidato) public view returns(uint) {\r... */\n      swap2\n      swap1\n      pop\n      jump\t// out\n        /* \"Votaciones/votaciones.sol\":175:195  address public owner */\n    tag_15:\n      0x00\n      dup1\n      sload\n      swap1\n      0x0100\n      exp\n      swap1\n      div\n      0xffffffffffffffffffffffffffffffffffffffff\n      and\n      dup2\n      jump\t// out\n        /* \"Votaciones/votaciones.sol\":1263:1361  function VerCandidatos() public view returns(string[] memory) {\r... */\n    tag_19:\n        /* \"Votaciones/votaciones.sol\":1308:1323  string[] memory */\n      0x60\n        /* \"Votaciones/votaciones.sol\":1343:1353  candidatos */\n      0x03\n        /* \"Votaciones/votaciones.sol\":1336:1353  return candidatos */\n      dup1\n      sload\n      dup1\n      0x20\n      mul\n      0x20\n      add\n      mload(0x40)\n      swap1\n      dup2\n      add\n      0x40\n      mstore\n      dup1\n      swap3\n      swap2\n      swap1\n      dup2\n      dup2\n      mstore\n      0x20\n      add\n      0x00\n      swap1\n    tag_33:\n      dup3\n      dup3\n      lt\n      iszero\n      tag_34\n      jumpi\n      dup4\n      dup3\n      swap1\n      0x00\n      mstore\n      keccak256(0x00, 0x20)\n      add\n      dup1\n      sload\n      0x01\n      dup2\n      0x01\n      and\n      iszero\n      0x0100\n      mul\n      sub\n      and\n      0x02\n      swap1\n      div\n      dup1\n      0x1f\n      add\n      0x20\n      dup1\n      swap2\n      div\n      mul\n      0x20\n      add\n      mload(0x40)\n      swap1\n      dup2\n      add\n      0x40\n      mstore\n      dup1\n      swap3\n      swap2\n      swap1\n      dup2\n      dup2\n      mstore\n      0x20\n      add\n      dup3\n      dup1\n      sload\n      0x01\n      dup2\n      0x01\n      and\n      iszero\n      0x0100\n      mul\n      sub\n      and\n      0x02\n      swap1\n      div\n      dup1\n      iszero\n      tag_36\n      jumpi\n      dup1\n      0x1f\n      lt\n      tag_37\n      jumpi\n      0x0100\n      dup1\n      dup4\n      sload\n      div\n      mul\n      dup4\n      mstore\n      swap2\n      0x20\n      add\n      swap2\n      jump(tag_36)\n    tag_37:\n      dup3\n      add\n      swap2\n      swap1\n      0x00\n      mstore\n      keccak256(0x00, 0x20)\n      swap1\n    tag_38:\n      dup2\n      sload\n      dup2\n      mstore\n      swap1\n      0x01\n      add\n      swap1\n      0x20\n      add\n      dup1\n      dup4\n      gt\n      tag_38\n      jumpi\n      dup3\n      swap1\n      sub\n      0x1f\n      and\n      dup3\n      add\n      swap2\n    tag_36:\n      pop\n      pop\n      pop\n      pop\n      pop\n      dup2\n      mstore\n      0x20\n      add\n      swap1\n      0x01\n      add\n      swap1\n      jump(tag_33)\n    tag_34:\n      pop\n      pop\n      pop\n      pop\n      swap1\n      pop\n        /* \"Votaciones/votaciones.sol\":1263:1361  function VerCandidatos() public view returns(string[] memory) {\r... */\n      swap1\n      jump\t// out\n        /* \"Votaciones/votaciones.sol\":748:1173  function Representar(string memory _nombre, uint _edad, string memory _ID) public {\r... */\n    tag_25:\n        /* \"Votaciones/votaciones.sol\":885:906  bytes32 hashCandidato */\n      0x00\n        /* \"Votaciones/votaciones.sol\":936:943  _nombre */\n      dup4\n        /* \"Votaciones/votaciones.sol\":945:950  _edad */\n      dup4\n        /* \"Votaciones/votaciones.sol\":952:955  _ID */\n      dup4\n        /* \"Votaciones/votaciones.sol\":919:956  abi.encodePacked(_nombre, _edad, _ID) */\n      add(0x20, mload(0x40))\n      tag_40\n      swap4\n      swap3\n      swap2\n      swap1\n      tag_41\n      jump\t// in\n    tag_40:\n      mload(0x40)\n      0x20\n      dup2\n      dup4\n      sub\n      sub\n      dup2\n      mstore\n      swap1\n      0x40\n      mstore\n        /* \"Votaciones/votaciones.sol\":909:957  keccak256(abi.encodePacked(_nombre, _edad, _ID)) */\n      dup1\n      mload\n      swap1\n      0x20\n      add\n      keccak256\n        /* \"Votaciones/votaciones.sol\":885:957  bytes32 hashCandidato = keccak256(abi.encodePacked(_nombre, _edad, _ID)) */\n      swap1\n      pop\n        /* \"Votaciones/votaciones.sol\":1068:1081  hashCandidato */\n      dup1\n        /* \"Votaciones/votaciones.sol\":1047:1056  Candidato */\n      0x01\n        /* \"Votaciones/votaciones.sol\":1057:1064  _nombre */\n      dup6\n        /* \"Votaciones/votaciones.sol\":1047:1065  Candidato[_nombre] */\n      mload(0x40)\n      tag_42\n      swap2\n      swap1\n      tag_31\n      jump\t// in\n    tag_42:\n      swap1\n      dup2\n      mstore\n      0x20\n      add\n      mload(0x40)\n      dup1\n      swap2\n      sub\n      swap1\n      keccak256\n        /* \"Votaciones/votaciones.sol\":1047:1081  Candidato[_nombre] = hashCandidato */\n      dup2\n      swap1\n      sstore\n      pop\n        /* \"Votaciones/votaciones.sol\":1141:1151  candidatos */\n      0x03\n        /* \"Votaciones/votaciones.sol\":1157:1164  _nombre */\n      dup5\n        /* \"Votaciones/votaciones.sol\":1141:1165  candidatos.push(_nombre) */\n      swap1\n      dup1\n      0x01\n      dup2\n      sload\n      add\n      dup1\n      dup3\n      sstore\n      dup1\n      swap2\n      pop\n      pop\n      0x01\n      swap1\n      sub\n      swap1\n      0x00\n      mstore\n      keccak256(0x00, 0x20)\n      add\n      0x00\n      swap1\n      swap2\n      swap1\n      swap2\n      swap1\n      swap2\n      pop\n      swap1\n      dup1\n      mload\n      swap1\n      0x20\n      add\n      swap1\n      tag_44\n      swap3\n      swap2\n      swap1\n      tag_45\n      jump\t// in\n    tag_44:\n      pop\n        /* \"Votaciones/votaciones.sol\":748:1173  function Representar(string memory _nombre, uint _edad, string memory _ID) public {\r... */\n      pop\n      pop\n      pop\n      pop\n      jump\t// out\n        /* \"Votaciones/votaciones.sol\":1408:1939  function Votar(string memory _candidato) public {\r... */\n    tag_28:\n        /* \"Votaciones/votaciones.sol\":1498:1518  bytes32 hash_votante */\n      0x00\n        /* \"Votaciones/votaciones.sol\":1548:1558  msg.sender */\n      caller\n        /* \"Votaciones/votaciones.sol\":1531:1559  abi.encodePacked(msg.sender) */\n      add(0x20, mload(0x40))\n      tag_47\n      swap2\n      swap1\n      tag_48\n      jump\t// in\n    tag_47:\n      mload(0x40)\n      0x20\n      dup2\n      dup4\n      sub\n      sub\n      dup2\n      mstore\n      swap1\n      0x40\n      mstore\n        /* \"Votaciones/votaciones.sol\":1521:1560  keccak256(abi.encodePacked(msg.sender)) */\n      dup1\n      mload\n      swap1\n      0x20\n      add\n      keccak256\n        /* \"Votaciones/votaciones.sol\":1498:1560  bytes32 hash_votante = keccak256(abi.encodePacked(msg.sender)) */\n      swap1\n      pop\n        /* \"Votaciones/votaciones.sol\":1620:1633  uint iterator */\n      0x00\n        /* \"Votaciones/votaciones.sol\":1616:1780  for(uint iterator = 0; iterator < votantes.length; iterator++) {\r... */\n    tag_49:\n        /* \"Votaciones/votaciones.sol\":1650:1658  votantes */\n      0x04\n        /* \"Votaciones/votaciones.sol\":1650:1665  votantes.length */\n      dup1\n      sload\n      swap1\n      pop\n        /* \"Votaciones/votaciones.sol\":1639:1647  iterator */\n      dup2\n        /* \"Votaciones/votaciones.sol\":1639:1665  iterator < votantes.length */\n      lt\n        /* \"Votaciones/votaciones.sol\":1616:1780  for(uint iterator = 0; iterator < votantes.length; iterator++) {\r... */\n      iszero\n      tag_50\n      jumpi\n        /* \"Votaciones/votaciones.sol\":1718:1726  votantes */\n      0x04\n        /* \"Votaciones/votaciones.sol\":1727:1735  iterator */\n      dup2\n        /* \"Votaciones/votaciones.sol\":1718:1736  votantes[iterator] */\n      dup2\n      sload\n      dup2\n      lt\n      tag_52\n      jumpi\n      invalid\n    tag_52:\n      swap1\n      0x00\n      mstore\n      keccak256(0x00, 0x20)\n      add\n      sload\n        /* \"Votaciones/votaciones.sol\":1702:1714  hash_votante */\n      dup3\n        /* \"Votaciones/votaciones.sol\":1702:1736  hash_votante != votantes[iterator] */\n      eq\n      iszero\n        /* \"Votaciones/votaciones.sol\":1694:1768  require(hash_votante != votantes[iterator], \"Ya se ha votado previamente\") */\n      tag_54\n      jumpi\n      mload(0x40)\n      0x08c379a000000000000000000000000000000000000000000000000000000000\n      dup2\n      mstore\n      0x04\n      add\n      tag_55\n      swap1\n      tag_56\n      jump\t// in\n    tag_55:\n      mload(0x40)\n      dup1\n      swap2\n      sub\n      swap1\n      revert\n    tag_54:\n        /* \"Votaciones/votaciones.sol\":1667:1677  iterator++ */\n      dup1\n      dup1\n      0x01\n      add\n      swap2\n      pop\n      pop\n        /* \"Votaciones/votaciones.sol\":1616:1780  for(uint iterator = 0; iterator < votantes.length; iterator++) {\r... */\n      jump(tag_49)\n    tag_50:\n      pop\n        /* \"Votaciones/votaciones.sol\":1827:1835  votantes */\n      0x04\n        /* \"Votaciones/votaciones.sol\":1841:1853  hash_votante */\n      dup2\n        /* \"Votaciones/votaciones.sol\":1827:1854  votantes.push(hash_votante) */\n      swap1\n      dup1\n      0x01\n      dup2\n      sload\n      add\n      dup1\n      dup3\n      sstore\n      dup1\n      swap2\n      pop\n      pop\n      0x01\n      swap1\n      sub\n      swap1\n      0x00\n      mstore\n      keccak256(0x00, 0x20)\n      add\n      0x00\n      swap1\n      swap2\n      swap1\n      swap2\n      swap1\n      swap2\n      pop\n      sstore\n        /* \"Votaciones/votaciones.sol\":1903:1917  VotosCandidato */\n      0x02\n        /* \"Votaciones/votaciones.sol\":1918:1928  _candidato */\n      dup3\n        /* \"Votaciones/votaciones.sol\":1903:1929  VotosCandidato[_candidato] */\n      mload(0x40)\n      tag_58\n      swap2\n      swap1\n      tag_31\n      jump\t// in\n    tag_58:\n      swap1\n      dup2\n      mstore\n      0x20\n      add\n      mload(0x40)\n      dup1\n      swap2\n      sub\n      swap1\n      keccak256\n      0x00\n        /* \"Votaciones/votaciones.sol\":1903:1931  VotosCandidato[_candidato]++ */\n      dup2\n      sload\n      dup1\n      swap3\n      swap2\n      swap1\n      0x01\n      add\n      swap2\n      swap1\n      pop\n      sstore\n      pop\n        /* \"Votaciones/votaciones.sol\":1408:1939  function Votar(string memory _candidato) public {\r... */\n      pop\n      pop\n      jump\t// out\n    tag_45:\n      dup3\n      dup1\n      sload\n      0x01\n      dup2\n      0x01\n      and\n      iszero\n      0x0100\n      mul\n      sub\n      and\n      0x02\n      swap1\n      div\n      swap1\n      0x00\n      mstore\n      keccak256(0x00, 0x20)\n      swap1\n      0x1f\n      add\n      0x20\n      swap1\n      div\n      dup2\n      add\n      swap3\n      dup3\n      0x1f\n      lt\n      tag_60\n      jumpi\n      dup1\n      mload\n      not(0xff)\n      and\n      dup4\n      dup1\n      add\n      or\n      dup6\n      sstore\n      jump(tag_59)\n    tag_60:\n      dup3\n      dup1\n      add\n      0x01\n      add\n      dup6\n      sstore\n      dup3\n      iszero\n      tag_59\n      jumpi\n      swap2\n      dup3\n      add\n    tag_61:\n      dup3\n      dup2\n      gt\n      iszero\n      tag_62\n      jumpi\n      dup3\n      mload\n      dup3\n      sstore\n      swap2\n      0x20\n      add\n      swap2\n      swap1\n      0x01\n      add\n      swap1\n      jump(tag_61)\n    tag_62:\n    tag_59:\n      pop\n      swap1\n      pop\n      tag_63\n      swap2\n      swap1\n      tag_64\n      jump\t// in\n    tag_63:\n      pop\n      swap1\n      jump\t// out\n    tag_64:\n    tag_65:\n      dup1\n      dup3\n      gt\n      iszero\n      tag_66\n      jumpi\n      0x00\n      dup2\n      0x00\n      swap1\n      sstore\n      pop\n      0x01\n      add\n      jump(tag_65)\n    tag_66:\n      pop\n      swap1\n      jump\t// out\n        /* \"--CODEGEN--\":6:448   */\n    tag_68:\n      0x00\n        /* \"--CODEGEN--\":108:111   */\n      dup3\n        /* \"--CODEGEN--\":101:105   */\n      0x1f\n        /* \"--CODEGEN--\":93:99   */\n      dup4\n        /* \"--CODEGEN--\":89:106   */\n      add\n        /* \"--CODEGEN--\":85:112   */\n      slt\n        /* \"--CODEGEN--\":75:77   */\n      tag_70\n      jumpi\n        /* \"--CODEGEN--\":126:127   */\n      0x00\n        /* \"--CODEGEN--\":123:124   */\n      dup1\n        /* \"--CODEGEN--\":116:128   */\n      revert\n        /* \"--CODEGEN--\":75:77   */\n    tag_70:\n        /* \"--CODEGEN--\":163:169   */\n      dup2\n        /* \"--CODEGEN--\":150:170   */\n      calldataload\n        /* \"--CODEGEN--\":185:250   */\n      tag_71\n        /* \"--CODEGEN--\":200:249   */\n      tag_72\n        /* \"--CODEGEN--\":242:248   */\n      dup3\n        /* \"--CODEGEN--\":200:249   */\n      tag_73\n      jump\t// in\n    tag_72:\n        /* \"--CODEGEN--\":185:250   */\n      tag_74\n      jump\t// in\n    tag_71:\n        /* \"--CODEGEN--\":176:250   */\n      swap2\n      pop\n        /* \"--CODEGEN--\":270:276   */\n      dup1\n        /* \"--CODEGEN--\":263:268   */\n      dup3\n        /* \"--CODEGEN--\":256:277   */\n      mstore\n        /* \"--CODEGEN--\":306:310   */\n      0x20\n        /* \"--CODEGEN--\":298:304   */\n      dup4\n        /* \"--CODEGEN--\":294:311   */\n      add\n        /* \"--CODEGEN--\":339:343   */\n      0x20\n        /* \"--CODEGEN--\":332:337   */\n      dup4\n        /* \"--CODEGEN--\":328:344   */\n      add\n        /* \"--CODEGEN--\":374:377   */\n      dup6\n        /* \"--CODEGEN--\":365:371   */\n      dup4\n        /* \"--CODEGEN--\":360:363   */\n      dup4\n        /* \"--CODEGEN--\":356:372   */\n      add\n        /* \"--CODEGEN--\":353:378   */\n      gt\n        /* \"--CODEGEN--\":350:352   */\n      iszero\n      tag_75\n      jumpi\n        /* \"--CODEGEN--\":391:392   */\n      0x00\n        /* \"--CODEGEN--\":388:389   */\n      dup1\n        /* \"--CODEGEN--\":381:393   */\n      revert\n        /* \"--CODEGEN--\":350:352   */\n    tag_75:\n        /* \"--CODEGEN--\":401:442   */\n      tag_76\n        /* \"--CODEGEN--\":435:441   */\n      dup4\n        /* \"--CODEGEN--\":430:433   */\n      dup3\n        /* \"--CODEGEN--\":425:428   */\n      dup5\n        /* \"--CODEGEN--\":401:442   */\n      tag_77\n      jump\t// in\n    tag_76:\n        /* \"--CODEGEN--\":68:448   */\n      pop\n      pop\n      pop\n      swap3\n      swap2\n      pop\n      pop\n      jump\t// out\n        /* \"--CODEGEN--\":456:586   */\n    tag_78:\n      0x00\n        /* \"--CODEGEN--\":536:542   */\n      dup2\n        /* \"--CODEGEN--\":523:543   */\n      calldataload\n        /* \"--CODEGEN--\":514:543   */\n      swap1\n      pop\n        /* \"--CODEGEN--\":548:581   */\n      tag_80\n        /* \"--CODEGEN--\":575:580   */\n      dup2\n        /* \"--CODEGEN--\":548:581   */\n      tag_81\n      jump\t// in\n    tag_80:\n        /* \"--CODEGEN--\":508:586   */\n      swap3\n      swap2\n      pop\n      pop\n      jump\t// out\n        /* \"--CODEGEN--\":593:940   */\n    tag_10:\n      0x00\n        /* \"--CODEGEN--\":707:709   */\n      0x20\n        /* \"--CODEGEN--\":695:704   */\n      dup3\n        /* \"--CODEGEN--\":686:693   */\n      dup5\n        /* \"--CODEGEN--\":682:705   */\n      sub\n        /* \"--CODEGEN--\":678:710   */\n      slt\n        /* \"--CODEGEN--\":675:677   */\n      iszero\n      tag_83\n      jumpi\n        /* \"--CODEGEN--\":723:724   */\n      0x00\n        /* \"--CODEGEN--\":720:721   */\n      dup1\n        /* \"--CODEGEN--\":713:725   */\n      revert\n        /* \"--CODEGEN--\":675:677   */\n    tag_83:\n        /* \"--CODEGEN--\":786:787   */\n      0x00\n        /* \"--CODEGEN--\":775:784   */\n      dup3\n        /* \"--CODEGEN--\":771:788   */\n      add\n        /* \"--CODEGEN--\":758:789   */\n      calldataload\n        /* \"--CODEGEN--\":809:827   */\n      0xffffffffffffffff\n        /* \"--CODEGEN--\":801:807   */\n      dup2\n        /* \"--CODEGEN--\":798:828   */\n      gt\n        /* \"--CODEGEN--\":795:797   */\n      iszero\n      tag_84\n      jumpi\n        /* \"--CODEGEN--\":841:842   */\n      0x00\n        /* \"--CODEGEN--\":838:839   */\n      dup1\n        /* \"--CODEGEN--\":831:843   */\n      revert\n        /* \"--CODEGEN--\":795:797   */\n    tag_84:\n        /* \"--CODEGEN--\":861:924   */\n      tag_85\n        /* \"--CODEGEN--\":916:923   */\n      dup5\n        /* \"--CODEGEN--\":907:913   */\n      dup3\n        /* \"--CODEGEN--\":896:905   */\n      dup6\n        /* \"--CODEGEN--\":892:914   */\n      add\n        /* \"--CODEGEN--\":861:924   */\n      tag_68\n      jump\t// in\n    tag_85:\n        /* \"--CODEGEN--\":851:924   */\n      swap2\n      pop\n        /* \"--CODEGEN--\":737:930   */\n      pop\n        /* \"--CODEGEN--\":669:940   */\n      swap3\n      swap2\n      pop\n      pop\n      jump\t// out\n        /* \"--CODEGEN--\":947:1650   */\n    tag_24:\n      0x00\n      dup1\n      0x00\n        /* \"--CODEGEN--\":1105:1107   */\n      0x60\n        /* \"--CODEGEN--\":1093:1102   */\n      dup5\n        /* \"--CODEGEN--\":1084:1091   */\n      dup7\n        /* \"--CODEGEN--\":1080:1103   */\n      sub\n        /* \"--CODEGEN--\":1076:1108   */\n      slt\n        /* \"--CODEGEN--\":1073:1075   */\n      iszero\n      tag_87\n      jumpi\n        /* \"--CODEGEN--\":1121:1122   */\n      0x00\n        /* \"--CODEGEN--\":1118:1119   */\n      dup1\n        /* \"--CODEGEN--\":1111:1123   */\n      revert\n        /* \"--CODEGEN--\":1073:1075   */\n    tag_87:\n        /* \"--CODEGEN--\":1184:1185   */\n      0x00\n        /* \"--CODEGEN--\":1173:1182   */\n      dup5\n        /* \"--CODEGEN--\":1169:1186   */\n      add\n        /* \"--CODEGEN--\":1156:1187   */\n      calldataload\n        /* \"--CODEGEN--\":1207:1225   */\n      0xffffffffffffffff\n        /* \"--CODEGEN--\":1199:1205   */\n      dup2\n        /* \"--CODEGEN--\":1196:1226   */\n      gt\n        /* \"--CODEGEN--\":1193:1195   */\n      iszero\n      tag_88\n      jumpi\n        /* \"--CODEGEN--\":1239:1240   */\n      0x00\n        /* \"--CODEGEN--\":1236:1237   */\n      dup1\n        /* \"--CODEGEN--\":1229:1241   */\n      revert\n        /* \"--CODEGEN--\":1193:1195   */\n    tag_88:\n        /* \"--CODEGEN--\":1259:1322   */\n      tag_89\n        /* \"--CODEGEN--\":1314:1321   */\n      dup7\n        /* \"--CODEGEN--\":1305:1311   */\n      dup3\n        /* \"--CODEGEN--\":1294:1303   */\n      dup8\n        /* \"--CODEGEN--\":1290:1312   */\n      add\n        /* \"--CODEGEN--\":1259:1322   */\n      tag_68\n      jump\t// in\n    tag_89:\n        /* \"--CODEGEN--\":1249:1322   */\n      swap4\n      pop\n        /* \"--CODEGEN--\":1135:1328   */\n      pop\n        /* \"--CODEGEN--\":1359:1361   */\n      0x20\n        /* \"--CODEGEN--\":1377:1430   */\n      tag_90\n        /* \"--CODEGEN--\":1422:1429   */\n      dup7\n        /* \"--CODEGEN--\":1413:1419   */\n      dup3\n        /* \"--CODEGEN--\":1402:1411   */\n      dup8\n        /* \"--CODEGEN--\":1398:1420   */\n      add\n        /* \"--CODEGEN--\":1377:1430   */\n      tag_78\n      jump\t// in\n    tag_90:\n        /* \"--CODEGEN--\":1367:1430   */\n      swap3\n      pop\n        /* \"--CODEGEN--\":1338:1436   */\n      pop\n        /* \"--CODEGEN--\":1495:1497   */\n      0x40\n        /* \"--CODEGEN--\":1484:1493   */\n      dup5\n        /* \"--CODEGEN--\":1480:1498   */\n      add\n        /* \"--CODEGEN--\":1467:1499   */\n      calldataload\n        /* \"--CODEGEN--\":1519:1537   */\n      0xffffffffffffffff\n        /* \"--CODEGEN--\":1511:1517   */\n      dup2\n        /* \"--CODEGEN--\":1508:1538   */\n      gt\n        /* \"--CODEGEN--\":1505:1507   */\n      iszero\n      tag_91\n      jumpi\n        /* \"--CODEGEN--\":1551:1552   */\n      0x00\n        /* \"--CODEGEN--\":1548:1549   */\n      dup1\n        /* \"--CODEGEN--\":1541:1553   */\n      revert\n        /* \"--CODEGEN--\":1505:1507   */\n    tag_91:\n        /* \"--CODEGEN--\":1571:1634   */\n      tag_92\n        /* \"--CODEGEN--\":1626:1633   */\n      dup7\n        /* \"--CODEGEN--\":1617:1623   */\n      dup3\n        /* \"--CODEGEN--\":1606:1615   */\n      dup8\n        /* \"--CODEGEN--\":1602:1624   */\n      add\n        /* \"--CODEGEN--\":1571:1634   */\n      tag_68\n      jump\t// in\n    tag_92:\n        /* \"--CODEGEN--\":1561:1634   */\n      swap2\n      pop\n        /* \"--CODEGEN--\":1446:1640   */\n      pop\n        /* \"--CODEGEN--\":1067:1650   */\n      swap3\n      pop\n      swap3\n      pop\n      swap3\n      jump\t// out\n        /* \"--CODEGEN--\":1658:1851   */\n    tag_93:\n      0x00\n        /* \"--CODEGEN--\":1779:1845   */\n      tag_95\n        /* \"--CODEGEN--\":1841:1844   */\n      dup4\n        /* \"--CODEGEN--\":1833:1839   */\n      dup4\n        /* \"--CODEGEN--\":1779:1845   */\n      tag_96\n      jump\t// in\n    tag_95:\n        /* \"--CODEGEN--\":1765:1845   */\n      swap1\n      pop\n        /* \"--CODEGEN--\":1758:1851   */\n      swap3\n      swap2\n      pop\n      pop\n      jump\t// out\n        /* \"--CODEGEN--\":1859:2043   */\n    tag_97:\n        /* \"--CODEGEN--\":1976:2037   */\n      tag_99\n        /* \"--CODEGEN--\":2004:2036   */\n      tag_100\n        /* \"--CODEGEN--\":2030:2035   */\n      dup3\n        /* \"--CODEGEN--\":2004:2036   */\n      tag_101\n      jump\t// in\n    tag_100:\n        /* \"--CODEGEN--\":1976:2037   */\n      tag_102\n      jump\t// in\n    tag_99:\n        /* \"--CODEGEN--\":1971:1974   */\n      dup3\n        /* \"--CODEGEN--\":1964:2038   */\n      mstore\n        /* \"--CODEGEN--\":1958:2043   */\n      pop\n      pop\n      jump\t// out\n        /* \"--CODEGEN--\":2050:2163   */\n    tag_103:\n        /* \"--CODEGEN--\":2133:2157   */\n      tag_105\n        /* \"--CODEGEN--\":2151:2156   */\n      dup2\n        /* \"--CODEGEN--\":2133:2157   */\n      tag_106\n      jump\t// in\n    tag_105:\n        /* \"--CODEGEN--\":2128:2131   */\n      dup3\n        /* \"--CODEGEN--\":2121:2158   */\n      mstore\n        /* \"--CODEGEN--\":2115:2163   */\n      pop\n      pop\n      jump\t// out\n        /* \"--CODEGEN--\":2199:3127   */\n    tag_107:\n      0x00\n        /* \"--CODEGEN--\":2364:2428   */\n      tag_109\n        /* \"--CODEGEN--\":2422:2427   */\n      dup3\n        /* \"--CODEGEN--\":2364:2428   */\n      tag_110\n      jump\t// in\n    tag_109:\n        /* \"--CODEGEN--\":2441:2537   */\n      tag_111\n        /* \"--CODEGEN--\":2530:2536   */\n      dup2\n        /* \"--CODEGEN--\":2525:2528   */\n      dup6\n        /* \"--CODEGEN--\":2441:2537   */\n      tag_112\n      jump\t// in\n    tag_111:\n        /* \"--CODEGEN--\":2434:2537   */\n      swap4\n      pop\n        /* \"--CODEGEN--\":2560:2563   */\n      dup4\n        /* \"--CODEGEN--\":2602:2606   */\n      0x20\n        /* \"--CODEGEN--\":2594:2600   */\n      dup3\n        /* \"--CODEGEN--\":2590:2607   */\n      mul\n        /* \"--CODEGEN--\":2585:2588   */\n      dup6\n        /* \"--CODEGEN--\":2581:2608   */\n      add\n        /* \"--CODEGEN--\":2629:2695   */\n      tag_113\n        /* \"--CODEGEN--\":2689:2694   */\n      dup6\n        /* \"--CODEGEN--\":2629:2695   */\n      tag_114\n      jump\t// in\n    tag_113:\n        /* \"--CODEGEN--\":2715:2722   */\n      dup1\n        /* \"--CODEGEN--\":2743:2744   */\n      0x00\n        /* \"--CODEGEN--\":2728:3088   */\n    tag_115:\n        /* \"--CODEGEN--\":2753:2759   */\n      dup6\n        /* \"--CODEGEN--\":2750:2751   */\n      dup2\n        /* \"--CODEGEN--\":2747:2760   */\n      lt\n        /* \"--CODEGEN--\":2728:3088   */\n      iszero\n      tag_117\n      jumpi\n        /* \"--CODEGEN--\":2815:2824   */\n      dup5\n        /* \"--CODEGEN--\":2809:2813   */\n      dup5\n        /* \"--CODEGEN--\":2805:2825   */\n      sub\n        /* \"--CODEGEN--\":2800:2803   */\n      dup10\n        /* \"--CODEGEN--\":2793:2826   */\n      mstore\n        /* \"--CODEGEN--\":2860:2866   */\n      dup2\n        /* \"--CODEGEN--\":2854:2867   */\n      mload\n        /* \"--CODEGEN--\":2882:2966   */\n      tag_118\n        /* \"--CODEGEN--\":2961:2965   */\n      dup6\n        /* \"--CODEGEN--\":2946:2959   */\n      dup3\n        /* \"--CODEGEN--\":2882:2966   */\n      tag_93\n      jump\t// in\n    tag_118:\n        /* \"--CODEGEN--\":2874:2966   */\n      swap5\n      pop\n        /* \"--CODEGEN--\":2983:3053   */\n      tag_119\n        /* \"--CODEGEN--\":3046:3052   */\n      dup4\n        /* \"--CODEGEN--\":2983:3053   */\n      tag_120\n      jump\t// in\n    tag_119:\n        /* \"--CODEGEN--\":2973:3053   */\n      swap3\n      pop\n        /* \"--CODEGEN--\":3076:3080   */\n      0x20\n        /* \"--CODEGEN--\":3071:3074   */\n      dup11\n        /* \"--CODEGEN--\":3067:3081   */\n      add\n        /* \"--CODEGEN--\":3060:3081   */\n      swap10\n      pop\n        /* \"--CODEGEN--\":2785:3088   */\n      pop\n        /* \"--CODEGEN--\":2775:2776   */\n      0x01\n        /* \"--CODEGEN--\":2772:2773   */\n      dup2\n        /* \"--CODEGEN--\":2768:2777   */\n      add\n        /* \"--CODEGEN--\":2763:2777   */\n      swap1\n      pop\n        /* \"--CODEGEN--\":2728:3088   */\n      jump(tag_115)\n    tag_117:\n        /* \"--CODEGEN--\":2732:2746   */\n      pop\n        /* \"--CODEGEN--\":3101:3105   */\n      dup3\n        /* \"--CODEGEN--\":3094:3105   */\n      swap8\n      pop\n        /* \"--CODEGEN--\":3118:3121   */\n      dup8\n        /* \"--CODEGEN--\":3111:3121   */\n      swap6\n      pop\n        /* \"--CODEGEN--\":2343:3127   */\n      pop\n      pop\n      pop\n      pop\n      pop\n      swap3\n      swap2\n      pop\n      pop\n      jump\t// out\n        /* \"--CODEGEN--\":3135:3462   */\n    tag_96:\n      0x00\n        /* \"--CODEGEN--\":3237:3276   */\n      tag_122\n        /* \"--CODEGEN--\":3270:3275   */\n      dup3\n        /* \"--CODEGEN--\":3237:3276   */\n      tag_123\n      jump\t// in\n    tag_122:\n        /* \"--CODEGEN--\":3288:3349   */\n      tag_124\n        /* \"--CODEGEN--\":3342:3348   */\n      dup2\n        /* \"--CODEGEN--\":3337:3340   */\n      dup6\n        /* \"--CODEGEN--\":3288:3349   */\n      tag_125\n      jump\t// in\n    tag_124:\n        /* \"--CODEGEN--\":3281:3349   */\n      swap4\n      pop\n        /* \"--CODEGEN--\":3354:3406   */\n      tag_126\n        /* \"--CODEGEN--\":3399:3405   */\n      dup2\n        /* \"--CODEGEN--\":3394:3397   */\n      dup6\n        /* \"--CODEGEN--\":3387:3391   */\n      0x20\n        /* \"--CODEGEN--\":3380:3385   */\n      dup7\n        /* \"--CODEGEN--\":3376:3392   */\n      add\n        /* \"--CODEGEN--\":3354:3406   */\n      tag_127\n      jump\t// in\n    tag_126:\n        /* \"--CODEGEN--\":3427:3456   */\n      tag_128\n        /* \"--CODEGEN--\":3449:3455   */\n      dup2\n        /* \"--CODEGEN--\":3427:3456   */\n      tag_129\n      jump\t// in\n    tag_128:\n        /* \"--CODEGEN--\":3422:3425   */\n      dup5\n        /* \"--CODEGEN--\":3418:3457   */\n      add\n        /* \"--CODEGEN--\":3411:3457   */\n      swap2\n      pop\n        /* \"--CODEGEN--\":3217:3462   */\n      pop\n      swap3\n      swap2\n      pop\n      pop\n      jump\t// out\n        /* \"--CODEGEN--\":3469:3829   */\n    tag_130:\n      0x00\n        /* \"--CODEGEN--\":3599:3638   */\n      tag_132\n        /* \"--CODEGEN--\":3632:3637   */\n      dup3\n        /* \"--CODEGEN--\":3599:3638   */\n      tag_123\n      jump\t// in\n    tag_132:\n        /* \"--CODEGEN--\":3650:3739   */\n      tag_133\n        /* \"--CODEGEN--\":3732:3738   */\n      dup2\n        /* \"--CODEGEN--\":3727:3730   */\n      dup6\n        /* \"--CODEGEN--\":3650:3739   */\n      tag_134\n      jump\t// in\n    tag_133:\n        /* \"--CODEGEN--\":3643:3739   */\n      swap4\n      pop\n        /* \"--CODEGEN--\":3744:3796   */\n      tag_135\n        /* \"--CODEGEN--\":3789:3795   */\n      dup2\n        /* \"--CODEGEN--\":3784:3787   */\n      dup6\n        /* \"--CODEGEN--\":3777:3781   */\n      0x20\n        /* \"--CODEGEN--\":3770:3775   */\n      dup7\n        /* \"--CODEGEN--\":3766:3782   */\n      add\n        /* \"--CODEGEN--\":3744:3796   */\n      tag_127\n      jump\t// in\n    tag_135:\n        /* \"--CODEGEN--\":3817:3823   */\n      dup1\n        /* \"--CODEGEN--\":3812:3815   */\n      dup5\n        /* \"--CODEGEN--\":3808:3824   */\n      add\n        /* \"--CODEGEN--\":3801:3824   */\n      swap2\n      pop\n        /* \"--CODEGEN--\":3579:3829   */\n      pop\n      swap3\n      swap2\n      pop\n      pop\n      jump\t// out\n        /* \"--CODEGEN--\":3837:4164   */\n    tag_136:\n      0x00\n        /* \"--CODEGEN--\":3997:4064   */\n      tag_138\n        /* \"--CODEGEN--\":4061:4063   */\n      0x1b\n        /* \"--CODEGEN--\":4056:4059   */\n      dup4\n        /* \"--CODEGEN--\":3997:4064   */\n      tag_139\n      jump\t// in\n    tag_138:\n        /* \"--CODEGEN--\":3990:4064   */\n      swap2\n      pop\n        /* \"--CODEGEN--\":4097:4126   */\n      0x596120736520686120766f7461646f207072657669616d656e74650000000000\n        /* \"--CODEGEN--\":4093:4094   */\n      0x00\n        /* \"--CODEGEN--\":4088:4091   */\n      dup4\n        /* \"--CODEGEN--\":4084:4095   */\n      add\n        /* \"--CODEGEN--\":4077:4127   */\n      mstore\n        /* \"--CODEGEN--\":4155:4157   */\n      0x20\n        /* \"--CODEGEN--\":4150:4153   */\n      dup3\n        /* \"--CODEGEN--\":4146:4158   */\n      add\n        /* \"--CODEGEN--\":4139:4158   */\n      swap1\n      pop\n        /* \"--CODEGEN--\":3983:4164   */\n      swap2\n      swap1\n      pop\n      jump\t// out\n        /* \"--CODEGEN--\":4172:4285   */\n    tag_140:\n        /* \"--CODEGEN--\":4255:4279   */\n      tag_142\n        /* \"--CODEGEN--\":4273:4278   */\n      dup2\n        /* \"--CODEGEN--\":4255:4279   */\n      tag_143\n      jump\t// in\n    tag_142:\n        /* \"--CODEGEN--\":4250:4253   */\n      dup3\n        /* \"--CODEGEN--\":4243:4280   */\n      mstore\n        /* \"--CODEGEN--\":4237:4285   */\n      pop\n      pop\n      jump\t// out\n        /* \"--CODEGEN--\":4292:4444   */\n    tag_144:\n        /* \"--CODEGEN--\":4393:4438   */\n      tag_146\n        /* \"--CODEGEN--\":4413:4437   */\n      tag_147\n        /* \"--CODEGEN--\":4431:4436   */\n      dup3\n        /* \"--CODEGEN--\":4413:4437   */\n      tag_143\n      jump\t// in\n    tag_147:\n        /* \"--CODEGEN--\":4393:4438   */\n      tag_148\n      jump\t// in\n    tag_146:\n        /* \"--CODEGEN--\":4388:4391   */\n      dup3\n        /* \"--CODEGEN--\":4381:4439   */\n      mstore\n        /* \"--CODEGEN--\":4375:4444   */\n      pop\n      pop\n      jump\t// out\n        /* \"--CODEGEN--\":4451:4736   */\n    tag_48:\n      0x00\n        /* \"--CODEGEN--\":4595:4686   */\n      tag_150\n        /* \"--CODEGEN--\":4682:4685   */\n      dup3\n        /* \"--CODEGEN--\":4673:4679   */\n      dup5\n        /* \"--CODEGEN--\":4595:4686   */\n      tag_97\n      jump\t// in\n    tag_150:\n        /* \"--CODEGEN--\":4708:4710   */\n      0x14\n        /* \"--CODEGEN--\":4703:4706   */\n      dup3\n        /* \"--CODEGEN--\":4699:4711   */\n      add\n        /* \"--CODEGEN--\":4692:4711   */\n      swap2\n      pop\n        /* \"--CODEGEN--\":4728:4731   */\n      dup2\n        /* \"--CODEGEN--\":4721:4731   */\n      swap1\n      pop\n        /* \"--CODEGEN--\":4583:4736   */\n      swap3\n      swap2\n      pop\n      pop\n      jump\t// out\n        /* \"--CODEGEN--\":4743:5018   */\n    tag_31:\n      0x00\n        /* \"--CODEGEN--\":4898:4993   */\n      tag_152\n        /* \"--CODEGEN--\":4989:4992   */\n      dup3\n        /* \"--CODEGEN--\":4980:4986   */\n      dup5\n        /* \"--CODEGEN--\":4898:4993   */\n      tag_130\n      jump\t// in\n    tag_152:\n        /* \"--CODEGEN--\":4891:4993   */\n      swap2\n      pop\n        /* \"--CODEGEN--\":5010:5013   */\n      dup2\n        /* \"--CODEGEN--\":5003:5013   */\n      swap1\n      pop\n        /* \"--CODEGEN--\":4879:5018   */\n      swap3\n      swap2\n      pop\n      pop\n      jump\t// out\n        /* \"--CODEGEN--\":5025:5600   */\n    tag_41:\n      0x00\n        /* \"--CODEGEN--\":5256:5351   */\n      tag_154\n        /* \"--CODEGEN--\":5347:5350   */\n      dup3\n        /* \"--CODEGEN--\":5338:5344   */\n      dup7\n        /* \"--CODEGEN--\":5256:5351   */\n      tag_130\n      jump\t// in\n    tag_154:\n        /* \"--CODEGEN--\":5249:5351   */\n      swap2\n      pop\n        /* \"--CODEGEN--\":5362:5437   */\n      tag_155\n        /* \"--CODEGEN--\":5433:5436   */\n      dup3\n        /* \"--CODEGEN--\":5424:5430   */\n      dup6\n        /* \"--CODEGEN--\":5362:5437   */\n      tag_144\n      jump\t// in\n    tag_155:\n        /* \"--CODEGEN--\":5459:5461   */\n      0x20\n        /* \"--CODEGEN--\":5454:5457   */\n      dup3\n        /* \"--CODEGEN--\":5450:5462   */\n      add\n        /* \"--CODEGEN--\":5443:5462   */\n      swap2\n      pop\n        /* \"--CODEGEN--\":5480:5575   */\n      tag_156\n        /* \"--CODEGEN--\":5571:5574   */\n      dup3\n        /* \"--CODEGEN--\":5562:5568   */\n      dup5\n        /* \"--CODEGEN--\":5480:5575   */\n      tag_130\n      jump\t// in\n    tag_156:\n        /* \"--CODEGEN--\":5473:5575   */\n      swap2\n      pop\n        /* \"--CODEGEN--\":5592:5595   */\n      dup2\n        /* \"--CODEGEN--\":5585:5595   */\n      swap1\n      pop\n        /* \"--CODEGEN--\":5237:5600   */\n      swap5\n      swap4\n      pop\n      pop\n      pop\n      pop\n      jump\t// out\n        /* \"--CODEGEN--\":5607:5829   */\n    tag_17:\n      0x00\n        /* \"--CODEGEN--\":5734:5736   */\n      0x20\n        /* \"--CODEGEN--\":5723:5732   */\n      dup3\n        /* \"--CODEGEN--\":5719:5737   */\n      add\n        /* \"--CODEGEN--\":5711:5737   */\n      swap1\n      pop\n        /* \"--CODEGEN--\":5748:5819   */\n      tag_158\n        /* \"--CODEGEN--\":5816:5817   */\n      0x00\n        /* \"--CODEGEN--\":5805:5814   */\n      dup4\n        /* \"--CODEGEN--\":5801:5818   */\n      add\n        /* \"--CODEGEN--\":5792:5798   */\n      dup5\n        /* \"--CODEGEN--\":5748:5819   */\n      tag_103\n      jump\t// in\n    tag_158:\n        /* \"--CODEGEN--\":5705:5829   */\n      swap3\n      swap2\n      pop\n      pop\n      jump\t// out\n        /* \"--CODEGEN--\":5836:6246   */\n    tag_21:\n      0x00\n        /* \"--CODEGEN--\":6033:6035   */\n      0x20\n        /* \"--CODEGEN--\":6022:6031   */\n      dup3\n        /* \"--CODEGEN--\":6018:6036   */\n      add\n        /* \"--CODEGEN--\":6010:6036   */\n      swap1\n      pop\n        /* \"--CODEGEN--\":6083:6092   */\n      dup2\n        /* \"--CODEGEN--\":6077:6081   */\n      dup2\n        /* \"--CODEGEN--\":6073:6093   */\n      sub\n        /* \"--CODEGEN--\":6069:6070   */\n      0x00\n        /* \"--CODEGEN--\":6058:6067   */\n      dup4\n        /* \"--CODEGEN--\":6054:6071   */\n      add\n        /* \"--CODEGEN--\":6047:6094   */\n      mstore\n        /* \"--CODEGEN--\":6108:6236   */\n      tag_160\n        /* \"--CODEGEN--\":6231:6235   */\n      dup2\n        /* \"--CODEGEN--\":6222:6228   */\n      dup5\n        /* \"--CODEGEN--\":6108:6236   */\n      tag_107\n      jump\t// in\n    tag_160:\n        /* \"--CODEGEN--\":6100:6236   */\n      swap1\n      pop\n        /* \"--CODEGEN--\":6004:6246   */\n      swap3\n      swap2\n      pop\n      pop\n      jump\t// out\n        /* \"--CODEGEN--\":6253:6669   */\n    tag_56:\n      0x00\n        /* \"--CODEGEN--\":6453:6455   */\n      0x20\n        /* \"--CODEGEN--\":6442:6451   */\n      dup3\n        /* \"--CODEGEN--\":6438:6456   */\n      add\n        /* \"--CODEGEN--\":6430:6456   */\n      swap1\n      pop\n        /* \"--CODEGEN--\":6503:6512   */\n      dup2\n        /* \"--CODEGEN--\":6497:6501   */\n      dup2\n        /* \"--CODEGEN--\":6493:6513   */\n      sub\n        /* \"--CODEGEN--\":6489:6490   */\n      0x00\n        /* \"--CODEGEN--\":6478:6487   */\n      dup4\n        /* \"--CODEGEN--\":6474:6491   */\n      add\n        /* \"--CODEGEN--\":6467:6514   */\n      mstore\n        /* \"--CODEGEN--\":6528:6659   */\n      tag_162\n        /* \"--CODEGEN--\":6654:6658   */\n      dup2\n        /* \"--CODEGEN--\":6528:6659   */\n      tag_136\n      jump\t// in\n    tag_162:\n        /* \"--CODEGEN--\":6520:6659   */\n      swap1\n      pop\n        /* \"--CODEGEN--\":6424:6669   */\n      swap2\n      swap1\n      pop\n      jump\t// out\n        /* \"--CODEGEN--\":6676:6898   */\n    tag_13:\n      0x00\n        /* \"--CODEGEN--\":6803:6805   */\n      0x20\n        /* \"--CODEGEN--\":6792:6801   */\n      dup3\n        /* \"--CODEGEN--\":6788:6806   */\n      add\n        /* \"--CODEGEN--\":6780:6806   */\n      swap1\n      pop\n        /* \"--CODEGEN--\":6817:6888   */\n      tag_164\n        /* \"--CODEGEN--\":6885:6886   */\n      0x00\n        /* \"--CODEGEN--\":6874:6883   */\n      dup4\n        /* \"--CODEGEN--\":6870:6887   */\n      add\n        /* \"--CODEGEN--\":6861:6867   */\n      dup5\n        /* \"--CODEGEN--\":6817:6888   */\n      tag_140\n      jump\t// in\n    tag_164:\n        /* \"--CODEGEN--\":6774:6898   */\n      swap3\n      swap2\n      pop\n      pop\n      jump\t// out\n        /* \"--CODEGEN--\":6905:7161   */\n    tag_74:\n      0x00\n        /* \"--CODEGEN--\":6967:6969   */\n      0x40\n        /* \"--CODEGEN--\":6961:6970   */\n      mload\n        /* \"--CODEGEN--\":6951:6970   */\n      swap1\n      pop\n        /* \"--CODEGEN--\":7005:7009   */\n      dup2\n        /* \"--CODEGEN--\":6997:7003   */\n      dup2\n        /* \"--CODEGEN--\":6993:7010   */\n      add\n        /* \"--CODEGEN--\":7104:7110   */\n      dup2\n        /* \"--CODEGEN--\":7092:7102   */\n      dup2\n        /* \"--CODEGEN--\":7089:7111   */\n      lt\n        /* \"--CODEGEN--\":7068:7086   */\n      0xffffffffffffffff\n        /* \"--CODEGEN--\":7056:7066   */\n      dup3\n        /* \"--CODEGEN--\":7053:7087   */\n      gt\n        /* \"--CODEGEN--\":7050:7112   */\n      or\n        /* \"--CODEGEN--\":7047:7049   */\n      iszero\n      tag_166\n      jumpi\n        /* \"--CODEGEN--\":7125:7126   */\n      0x00\n        /* \"--CODEGEN--\":7122:7123   */\n      dup1\n        /* \"--CODEGEN--\":7115:7127   */\n      revert\n        /* \"--CODEGEN--\":7047:7049   */\n    tag_166:\n        /* \"--CODEGEN--\":7145:7155   */\n      dup1\n        /* \"--CODEGEN--\":7141:7143   */\n      0x40\n        /* \"--CODEGEN--\":7134:7156   */\n      mstore\n        /* \"--CODEGEN--\":6945:7161   */\n      pop\n      swap2\n      swap1\n      pop\n      jump\t// out\n        /* \"--CODEGEN--\":7168:7490   */\n    tag_73:\n      0x00\n        /* \"--CODEGEN--\":7312:7330   */\n      0xffffffffffffffff\n        /* \"--CODEGEN--\":7304:7310   */\n      dup3\n        /* \"--CODEGEN--\":7301:7331   */\n      gt\n        /* \"--CODEGEN--\":7298:7300   */\n      iszero\n      tag_168\n      jumpi\n        /* \"--CODEGEN--\":7344:7345   */\n      0x00\n        /* \"--CODEGEN--\":7341:7342   */\n      dup1\n        /* \"--CODEGEN--\":7334:7346   */\n      revert\n        /* \"--CODEGEN--\":7298:7300   */\n    tag_168:\n        /* \"--CODEGEN--\":7411:7415   */\n      0x1f\n        /* \"--CODEGEN--\":7407:7416   */\n      not\n        /* \"--CODEGEN--\":7400:7404   */\n      0x1f\n        /* \"--CODEGEN--\":7392:7398   */\n      dup4\n        /* \"--CODEGEN--\":7388:7405   */\n      add\n        /* \"--CODEGEN--\":7384:7417   */\n      and\n        /* \"--CODEGEN--\":7376:7417   */\n      swap1\n      pop\n        /* \"--CODEGEN--\":7475:7479   */\n      0x20\n        /* \"--CODEGEN--\":7469:7473   */\n      dup2\n        /* \"--CODEGEN--\":7465:7480   */\n      add\n        /* \"--CODEGEN--\":7457:7480   */\n      swap1\n      pop\n        /* \"--CODEGEN--\":7235:7490   */\n      swap2\n      swap1\n      pop\n      jump\t// out\n        /* \"--CODEGEN--\":7497:7658   */\n    tag_114:\n      0x00\n        /* \"--CODEGEN--\":7593:7596   */\n      dup2\n        /* \"--CODEGEN--\":7585:7596   */\n      swap1\n      pop\n        /* \"--CODEGEN--\":7631:7635   */\n      0x20\n        /* \"--CODEGEN--\":7626:7629   */\n      dup3\n        /* \"--CODEGEN--\":7622:7636   */\n      add\n        /* \"--CODEGEN--\":7614:7636   */\n      swap1\n      pop\n        /* \"--CODEGEN--\":7579:7658   */\n      swap2\n      swap1\n      pop\n      jump\t// out\n        /* \"--CODEGEN--\":7665:7812   */\n    tag_110:\n      0x00\n        /* \"--CODEGEN--\":7784:7789   */\n      dup2\n        /* \"--CODEGEN--\":7778:7790   */\n      mload\n        /* \"--CODEGEN--\":7768:7790   */\n      swap1\n      pop\n        /* \"--CODEGEN--\":7749:7812   */\n      swap2\n      swap1\n      pop\n      jump\t// out\n        /* \"--CODEGEN--\":7819:7941   */\n    tag_123:\n      0x00\n        /* \"--CODEGEN--\":7913:7918   */\n      dup2\n        /* \"--CODEGEN--\":7907:7919   */\n      mload\n        /* \"--CODEGEN--\":7897:7919   */\n      swap1\n      pop\n        /* \"--CODEGEN--\":7878:7941   */\n      swap2\n      swap1\n      pop\n      jump\t// out\n        /* \"--CODEGEN--\":7948:8066   */\n    tag_120:\n      0x00\n        /* \"--CODEGEN--\":8056:8060   */\n      0x20\n        /* \"--CODEGEN--\":8051:8054   */\n      dup3\n        /* \"--CODEGEN--\":8047:8061   */\n      add\n        /* \"--CODEGEN--\":8039:8061   */\n      swap1\n      pop\n        /* \"--CODEGEN--\":8033:8066   */\n      swap2\n      swap1\n      pop\n      jump\t// out\n        /* \"--CODEGEN--\":8074:8262   */\n    tag_112:\n      0x00\n        /* \"--CODEGEN--\":8214:8220   */\n      dup3\n        /* \"--CODEGEN--\":8209:8212   */\n      dup3\n        /* \"--CODEGEN--\":8202:8221   */\n      mstore\n        /* \"--CODEGEN--\":8251:8255   */\n      0x20\n        /* \"--CODEGEN--\":8246:8249   */\n      dup3\n        /* \"--CODEGEN--\":8242:8256   */\n      add\n        /* \"--CODEGEN--\":8227:8256   */\n      swap1\n      pop\n        /* \"--CODEGEN--\":8195:8262   */\n      swap3\n      swap2\n      pop\n      pop\n      jump\t// out\n        /* \"--CODEGEN--\":8271:8424   */\n    tag_125:\n      0x00\n        /* \"--CODEGEN--\":8376:8382   */\n      dup3\n        /* \"--CODEGEN--\":8371:8374   */\n      dup3\n        /* \"--CODEGEN--\":8364:8383   */\n      mstore\n        /* \"--CODEGEN--\":8413:8417   */\n      0x20\n        /* \"--CODEGEN--\":8408:8411   */\n      dup3\n        /* \"--CODEGEN--\":8404:8418   */\n      add\n        /* \"--CODEGEN--\":8389:8418   */\n      swap1\n      pop\n        /* \"--CODEGEN--\":8357:8424   */\n      swap3\n      swap2\n      pop\n      pop\n      jump\t// out\n        /* \"--CODEGEN--\":8433:8596   */\n    tag_139:\n      0x00\n        /* \"--CODEGEN--\":8548:8554   */\n      dup3\n        /* \"--CODEGEN--\":8543:8546   */\n      dup3\n        /* \"--CODEGEN--\":8536:8555   */\n      mstore\n        /* \"--CODEGEN--\":8585:8589   */\n      0x20\n        /* \"--CODEGEN--\":8580:8583   */\n      dup3\n        /* \"--CODEGEN--\":8576:8590   */\n      add\n        /* \"--CODEGEN--\":8561:8590   */\n      swap1\n      pop\n        /* \"--CODEGEN--\":8529:8596   */\n      swap3\n      swap2\n      pop\n      pop\n      jump\t// out\n        /* \"--CODEGEN--\":8605:8750   */\n    tag_134:\n      0x00\n        /* \"--CODEGEN--\":8741:8744   */\n      dup2\n        /* \"--CODEGEN--\":8726:8744   */\n      swap1\n      pop\n        /* \"--CODEGEN--\":8719:8750   */\n      swap3\n      swap2\n      pop\n      pop\n      jump\t// out\n        /* \"--CODEGEN--\":8758:8849   */\n    tag_106:\n      0x00\n        /* \"--CODEGEN--\":8820:8844   */\n      tag_178\n        /* \"--CODEGEN--\":8838:8843   */\n      dup3\n        /* \"--CODEGEN--\":8820:8844   */\n      tag_179\n      jump\t// in\n    tag_178:\n        /* \"--CODEGEN--\":8809:8844   */\n      swap1\n      pop\n        /* \"--CODEGEN--\":8803:8849   */\n      swap2\n      swap1\n      pop\n      jump\t// out\n        /* \"--CODEGEN--\":8856:8955   */\n    tag_101:\n      0x00\n        /* \"--CODEGEN--\":8926:8950   */\n      tag_181\n        /* \"--CODEGEN--\":8944:8949   */\n      dup3\n        /* \"--CODEGEN--\":8926:8950   */\n      tag_179\n      jump\t// in\n    tag_181:\n        /* \"--CODEGEN--\":8915:8950   */\n      swap1\n      pop\n        /* \"--CODEGEN--\":8909:8955   */\n      swap2\n      swap1\n      pop\n      jump\t// out\n        /* \"--CODEGEN--\":8962:9083   */\n    tag_179:\n      0x00\n        /* \"--CODEGEN--\":9035:9077   */\n      0xffffffffffffffffffffffffffffffffffffffff\n        /* \"--CODEGEN--\":9028:9033   */\n      dup3\n        /* \"--CODEGEN--\":9024:9078   */\n      and\n        /* \"--CODEGEN--\":9013:9078   */\n      swap1\n      pop\n        /* \"--CODEGEN--\":9007:9083   */\n      swap2\n      swap1\n      pop\n      jump\t// out\n        /* \"--CODEGEN--\":9090:9162   */\n    tag_143:\n      0x00\n        /* \"--CODEGEN--\":9152:9157   */\n      dup2\n        /* \"--CODEGEN--\":9141:9157   */\n      swap1\n      pop\n        /* \"--CODEGEN--\":9135:9162   */\n      swap2\n      swap1\n      pop\n      jump\t// out\n        /* \"--CODEGEN--\":9170:9315   */\n    tag_77:\n        /* \"--CODEGEN--\":9251:9257   */\n      dup3\n        /* \"--CODEGEN--\":9246:9249   */\n      dup2\n        /* \"--CODEGEN--\":9241:9244   */\n      dup4\n        /* \"--CODEGEN--\":9228:9258   */\n      calldatacopy\n        /* \"--CODEGEN--\":9307:9308   */\n      0x00\n        /* \"--CODEGEN--\":9298:9304   */\n      dup4\n        /* \"--CODEGEN--\":9293:9296   */\n      dup4\n        /* \"--CODEGEN--\":9289:9305   */\n      add\n        /* \"--CODEGEN--\":9282:9309   */\n      mstore\n        /* \"--CODEGEN--\":9221:9315   */\n      pop\n      pop\n      pop\n      jump\t// out\n        /* \"--CODEGEN--\":9324:9592   */\n    tag_127:\n        /* \"--CODEGEN--\":9389:9390   */\n      0x00\n        /* \"--CODEGEN--\":9396:9497   */\n    tag_186:\n        /* \"--CODEGEN--\":9410:9416   */\n      dup4\n        /* \"--CODEGEN--\":9407:9408   */\n      dup2\n        /* \"--CODEGEN--\":9404:9417   */\n      lt\n        /* \"--CODEGEN--\":9396:9497   */\n      iszero\n      tag_188\n      jumpi\n        /* \"--CODEGEN--\":9486:9487   */\n      dup1\n        /* \"--CODEGEN--\":9481:9484   */\n      dup3\n        /* \"--CODEGEN--\":9477:9488   */\n      add\n        /* \"--CODEGEN--\":9471:9489   */\n      mload\n        /* \"--CODEGEN--\":9467:9468   */\n      dup2\n        /* \"--CODEGEN--\":9462:9465   */\n      dup5\n        /* \"--CODEGEN--\":9458:9469   */\n      add\n        /* \"--CODEGEN--\":9451:9490   */\n      mstore\n        /* \"--CODEGEN--\":9432:9434   */\n      0x20\n        /* \"--CODEGEN--\":9429:9430   */\n      dup2\n        /* \"--CODEGEN--\":9425:9435   */\n      add\n        /* \"--CODEGEN--\":9420:9435   */\n      swap1\n      pop\n        /* \"--CODEGEN--\":9396:9497   */\n      jump(tag_186)\n    tag_188:\n        /* \"--CODEGEN--\":9512:9518   */\n      dup4\n        /* \"--CODEGEN--\":9509:9510   */\n      dup2\n        /* \"--CODEGEN--\":9506:9519   */\n      gt\n        /* \"--CODEGEN--\":9503:9505   */\n      iszero\n      tag_189\n      jumpi\n        /* \"--CODEGEN--\":9577:9578   */\n      0x00\n        /* \"--CODEGEN--\":9568:9574   */\n      dup5\n        /* \"--CODEGEN--\":9563:9566   */\n      dup5\n        /* \"--CODEGEN--\":9559:9575   */\n      add\n        /* \"--CODEGEN--\":9552:9579   */\n      mstore\n        /* \"--CODEGEN--\":9503:9505   */\n    tag_189:\n        /* \"--CODEGEN--\":9373:9592   */\n      pop\n      pop\n      pop\n      pop\n      jump\t// out\n        /* \"--CODEGEN--\":9600:9703   */\n    tag_102:\n      0x00\n        /* \"--CODEGEN--\":9672:9698   */\n      tag_191\n        /* \"--CODEGEN--\":9692:9697   */\n      dup3\n        /* \"--CODEGEN--\":9672:9698   */\n      tag_192\n      jump\t// in\n    tag_191:\n        /* \"--CODEGEN--\":9661:9698   */\n      swap1\n      pop\n        /* \"--CODEGEN--\":9655:9703   */\n      swap2\n      swap1\n      pop\n      jump\t// out\n        /* \"--CODEGEN--\":9710:9799   */\n    tag_192:\n      0x00\n        /* \"--CODEGEN--\":9774:9794   */\n      tag_194\n        /* \"--CODEGEN--\":9788:9793   */\n      dup3\n        /* \"--CODEGEN--\":9774:9794   */\n      tag_195\n      jump\t// in\n    tag_194:\n        /* \"--CODEGEN--\":9763:9794   */\n      swap1\n      pop\n        /* \"--CODEGEN--\":9757:9799   */\n      swap2\n      swap1\n      pop\n      jump\t// out\n        /* \"--CODEGEN--\":9806:9880   */\n    tag_148:\n      0x00\n        /* \"--CODEGEN--\":9870:9875   */\n      dup2\n        /* \"--CODEGEN--\":9859:9875   */\n      swap1\n      pop\n        /* \"--CODEGEN--\":9853:9880   */\n      swap2\n      swap1\n      pop\n      jump\t// out\n        /* \"--CODEGEN--\":9887:9984   */\n    tag_129:\n      0x00\n        /* \"--CODEGEN--\":9975:9977   */\n      0x1f\n        /* \"--CODEGEN--\":9971:9978   */\n      not\n        /* \"--CODEGEN--\":9966:9968   */\n      0x1f\n        /* \"--CODEGEN--\":9959:9964   */\n      dup4\n        /* \"--CODEGEN--\":9955:9969   */\n      add\n        /* \"--CODEGEN--\":9951:9979   */\n      and\n        /* \"--CODEGEN--\":9941:9979   */\n      swap1\n      pop\n        /* \"--CODEGEN--\":9935:9984   */\n      swap2\n      swap1\n      pop\n      jump\t// out\n        /* \"--CODEGEN--\":9992:10086   */\n    tag_195:\n      0x00\n        /* \"--CODEGEN--\":10070:10075   */\n      dup2\n        /* \"--CODEGEN--\":10066:10068   */\n      0x60\n        /* \"--CODEGEN--\":10062:10076   */\n      shl\n        /* \"--CODEGEN--\":10040:10076   */\n      swap1\n      pop\n        /* \"--CODEGEN--\":10034:10086   */\n      swap2\n      swap1\n      pop\n      jump\t// out\n        /* \"--CODEGEN--\":10094:10211   */\n    tag_81:\n        /* \"--CODEGEN--\":10163:10187   */\n      tag_200\n        /* \"--CODEGEN--\":10181:10186   */\n      dup2\n        /* \"--CODEGEN--\":10163:10187   */\n      tag_143\n      jump\t// in\n    tag_200:\n        /* \"--CODEGEN--\":10156:10161   */\n      dup2\n        /* \"--CODEGEN--\":10153:10188   */\n      eq\n        /* \"--CODEGEN--\":10143:10145   */\n      tag_201\n      jumpi\n        /* \"--CODEGEN--\":10202:10203   */\n      0x00\n        /* \"--CODEGEN--\":10199:10200   */\n      dup1\n        /* \"--CODEGEN--\":10192:10204   */\n      revert\n        /* \"--CODEGEN--\":10143:10145   */\n    tag_201:\n        /* \"--CODEGEN--\":10137:10211   */\n      pop\n      jump\t// out\n\n    auxdata: 0xa2646970667358221220f0b5290516952292f5ed8ccdb838aa203de6dc1243e003b2063ab0fcbf8d830b64736f6c634300060c0033\n}\n",
				"bytecode": {
					"linkReferences": {},
					"object": "608060405234801561001057600080fd5b50336000806101000a81548173ffffffffffffffffffffffffffffffffffffffff021916908373ffffffffffffffffffffffffffffffffffffffff1602179055506109de806100606000396000f3fe608060405234801561001057600080fd5b50600436106100575760003560e01c80634c25de511461005c5780638da5cb5b1461008c578063bfc2e938146100aa578063f01ca6b7146100c8578063febe07dc146100e4575b600080fd5b610076600480360381019061007191906104cd565b610100565b60405161008391906107d0565b60405180910390f35b610094610128565b6040516100a19190610773565b60405180910390f35b6100b261014c565b6040516100bf919061078e565b60405180910390f35b6100e260048036038101906100dd919061050e565b610235565b005b6100fe60048036038101906100f991906104cd565b6102c9565b005b60006002826040516101129190610727565b9081526020016040518091039020549050919050565b60008054906101000a900473ffffffffffffffffffffffffffffffffffffffff1681565b60606003805480602002602001604051908101604052809291908181526020016000905b8282101561022c578382906000526020600020018054600181600116156101000203166002900480601f0160208091040260200160405190810160405280929190818152602001828054600181600116156101000203166002900480156102185780601f106101ed57610100808354040283529160200191610218565b820191906000526020600020905b8154815290600101906020018083116101fb57829003601f168201915b505050505081526020019060010190610170565b50505050905090565b600083838360405160200161024c9392919061073e565b604051602081830303815290604052805190602001209050806001856040516102759190610727565b9081526020016040518091039020819055506003849080600181540180825580915050600190039060005260206000200160009091909190915090805190602001906102c29291906103c7565b5050505050565b6000336040516020016102dc919061070c565b60405160208183030381529060405280519060200120905060005b60048054905081101561036b576004818154811061031157fe5b906000526020600020015482141561035e576040517f08c379a0000000000000000000000000000000000000000000000000000000008152600401610355906107b0565b60405180910390fd5b80806001019150506102f7565b5060048190806001815401808255809150506001900390600052602060002001600090919091909150556002826040516103a59190610727565b9081526020016040518091039020600081548092919060010191905055505050565b828054600181600116156101000203166002900490600052602060002090601f016020900481019282601f1061040857805160ff1916838001178555610436565b82800160010185558215610436579182015b8281111561043557825182559160200191906001019061041a565b5b5090506104439190610447565b5090565b5b80821115610460576000816000905550600101610448565b5090565b600082601f83011261047557600080fd5b813561048861048382610818565b6107eb565b915080825260208301602083018583830111156104a457600080fd5b6104af838284610903565b50505092915050565b6000813590506104c781610991565b92915050565b6000602082840312156104df57600080fd5b600082013567ffffffffffffffff8111156104f957600080fd5b61050584828501610464565b91505092915050565b60008060006060848603121561052357600080fd5b600084013567ffffffffffffffff81111561053d57600080fd5b61054986828701610464565b935050602061055a868287016104b8565b925050604084013567ffffffffffffffff81111561057757600080fd5b61058386828701610464565b9150509250925092565b6000610599838361063c565b905092915050565b6105b26105ad826108c7565b610945565b82525050565b6105c1816108b5565b82525050565b60006105d282610854565b6105dc8185610877565b9350836020820285016105ee85610844565b8060005b8581101561062a578484038952815161060b858261058d565b94506106168361086a565b925060208a019950506001810190506105f2565b50829750879550505050505092915050565b60006106478261085f565b6106518185610888565b9350610661818560208601610912565b61066a81610973565b840191505092915050565b60006106808261085f565b61068a81856108aa565b935061069a818560208601610912565b80840191505092915050565b60006106b3601b83610899565b91507f596120736520686120766f7461646f207072657669616d656e746500000000006000830152602082019050919050565b6106ef816108f9565b82525050565b610706610701826108f9565b610969565b82525050565b600061071882846105a1565b60148201915081905092915050565b60006107338284610675565b915081905092915050565b600061074a8286610675565b915061075682856106f5565b6020820191506107668284610675565b9150819050949350505050565b600060208201905061078860008301846105b8565b92915050565b600060208201905081810360008301526107a881846105c7565b905092915050565b600060208201905081810360008301526107c9816106a6565b9050919050565b60006020820190506107e560008301846106e6565b92915050565b6000604051905081810181811067ffffffffffffffff8211171561080e57600080fd5b8060405250919050565b600067ffffffffffffffff82111561082f57600080fd5b601f19601f8301169050602081019050919050565b6000819050602082019050919050565b600081519050919050565b600081519050919050565b6000602082019050919050565b600082825260208201905092915050565b600082825260208201905092915050565b600082825260208201905092915050565b600081905092915050565b60006108c0826108d9565b9050919050565b60006108d2826108d9565b9050919050565b600073ffffffffffffffffffffffffffffffffffffffff82169050919050565b6000819050919050565b82818337600083830152505050565b60005b83811015610930578082015181840152602081019050610915565b8381111561093f576000848401525b50505050565b600061095082610957565b9050919050565b600061096282610984565b9050919050565b6000819050919050565b6000601f19601f8301169050919050565b60008160601b9050919050565b61099a816108f9565b81146109a557600080fd5b5056fea2646970667358221220f0b5290516952292f5ed8ccdb838aa203de6dc1243e003b2063ab0fcbf8d830b64736f6c634300060c0033",
					"opcodes": "PUSH1 0x80 PUSH1 0x40 MSTORE CALLVALUE DUP1 ISZERO PUSH2 0x10 JUMPI PUSH1 0x0 DUP1 REVERT JUMPDEST POP CALLER PUSH1 0x0 DUP1 PUSH2 0x100 EXP DUP2 SLOAD DUP2 PUSH20 0xFFFFFFFFFFFFFFFFFFFFFFFFFFFFFFFFFFFFFFFF MUL NOT AND SWAP1 DUP4 PUSH20 0xFFFFFFFFFFFFFFFFFFFFFFFFFFFFFFFFFFFFFFFF AND MUL OR SWAP1 SSTORE POP PUSH2 0x9DE DUP1 PUSH2 0x60 PUSH1 0x0 CODECOPY PUSH1 0x0 RETURN INVALID PUSH1 0x80 PUSH1 0x40 MSTORE CALLVALUE DUP1 ISZERO PUSH2 0x10 JUMPI PUSH1 0x0 DUP1 REVERT JUMPDEST POP PUSH1 0x4 CALLDATASIZE LT PUSH2 0x57 JUMPI PUSH1 0x0 CALLDATALOAD PUSH1 0xE0 SHR DUP1 PUSH4 0x4C25DE51 EQ PUSH2 0x5C JUMPI DUP1 PUSH4 0x8DA5CB5B EQ PUSH2 0x8C JUMPI DUP1 PUSH4 0xBFC2E938 EQ PUSH2 0xAA JUMPI DUP1 PUSH4 0xF01CA6B7 EQ PUSH2 0xC8 JUMPI DUP1 PUSH4 0xFEBE07DC EQ PUSH2 0xE4 JUMPI JUMPDEST PUSH1 0x0 DUP1 REVERT JUMPDEST PUSH2 0x76 PUSH1 0x4 DUP1 CALLDATASIZE SUB DUP2 ADD SWAP1 PUSH2 0x71 SWAP2 SWAP1 PUSH2 0x4CD JUMP JUMPDEST PUSH2 0x100 JUMP JUMPDEST PUSH1 0x40 MLOAD PUSH2 0x83 SWAP2 SWAP1 PUSH2 0x7D0 JUMP JUMPDEST PUSH1 0x40 MLOAD DUP1 SWAP2 SUB SWAP1 RETURN JUMPDEST PUSH2 0x94 PUSH2 0x128 JUMP JUMPDEST PUSH1 0x40 MLOAD PUSH2 0xA1 SWAP2 SWAP1 PUSH2 0x773 JUMP JUMPDEST PUSH1 0x40 MLOAD DUP1 SWAP2 SUB SWAP1 RETURN JUMPDEST PUSH2 0xB2 PUSH2 0x14C JUMP JUMPDEST PUSH1 0x40 MLOAD PUSH2 0xBF SWAP2 SWAP1 PUSH2 0x78E JUMP JUMPDEST PUSH1 0x40 MLOAD DUP1 SWAP2 SUB SWAP1 RETURN JUMPDEST PUSH2 0xE2 PUSH1 0x4 DUP1 CALLDATASIZE SUB DUP2 ADD SWAP1 PUSH2 0xDD SWAP2 SWAP1 PUSH2 0x50E JUMP JUMPDEST PUSH2 0x235 JUMP JUMPDEST STOP JUMPDEST PUSH2 0xFE PUSH1 0x4 DUP1 CALLDATASIZE SUB DUP2 ADD SWAP1 PUSH2 0xF9 SWAP2 SWAP1 PUSH2 0x4CD JUMP JUMPDEST PUSH2 0x2C9 JUMP JUMPDEST STOP JUMPDEST PUSH1 0x0 PUSH1 0x2 DUP3 PUSH1 0x40 MLOAD PUSH2 0x112 SWAP2 SWAP1 PUSH2 0x727 JUMP JUMPDEST SWAP1 DUP2 MSTORE PUSH1 0x20 ADD PUSH1 0x40 MLOAD DUP1 SWAP2 SUB SWAP1 KECCAK256 SLOAD SWAP1 POP SWAP2 SWAP1 POP JUMP JUMPDEST PUSH1 0x0 DUP1 SLOAD SWAP1 PUSH2 0x100 EXP SWAP1 DIV PUSH20 0xFFFFFFFFFFFFFFFFFFFFFFFFFFFFFFFFFFFFFFFF AND DUP2 JUMP JUMPDEST PUSH1 0x60 PUSH1 0x3 DUP1 SLOAD DUP1 PUSH1 0x20 MUL PUSH1 0x20 ADD PUSH1 0x40 MLOAD SWAP1 DUP2 ADD PUSH1 0x40 MSTORE DUP1 SWAP3 SWAP2 SWAP1 DUP2 DUP2 MSTORE PUSH1 0x20 ADD PUSH1 0x0 SWAP1 JUMPDEST DUP3 DUP3 LT ISZERO PUSH2 0x22C JUMPI DUP4 DUP3 SWAP1 PUSH1 0x0 MSTORE PUSH1 0x20 PUSH1 0x0 KECCAK256 ADD DUP1 SLOAD PUSH1 0x1 DUP2 PUSH1 0x1 AND ISZERO PUSH2 0x100 MUL SUB AND PUSH1 0x2 SWAP1 DIV DUP1 PUSH1 0x1F ADD PUSH1 0x20 DUP1 SWAP2 DIV MUL PUSH1 0x20 ADD PUSH1 0x40 MLOAD SWAP1 DUP2 ADD PUSH1 0x40 MSTORE DUP1 SWAP3 SWAP2 SWAP1 DUP2 DUP2 MSTORE PUSH1 0x20 ADD DUP3 DUP1 SLOAD PUSH1 0x1 DUP2 PUSH1 0x1 AND ISZERO PUSH2 0x100 MUL SUB AND PUSH1 0x2 SWAP1 DIV DUP1 ISZERO PUSH2 0x218 JUMPI DUP1 PUSH1 0x1F LT PUSH2 0x1ED JUMPI PUSH2 0x100 DUP1 DUP4 SLOAD DIV MUL DUP4 MSTORE SWAP2 PUSH1 0x20 ADD SWAP2 PUSH2 0x218 JUMP JUMPDEST DUP3 ADD SWAP2 SWAP1 PUSH1 0x0 MSTORE PUSH1 0x20 PUSH1 0x0 KECCAK256 SWAP1 JUMPDEST DUP2 SLOAD DUP2 MSTORE SWAP1 PUSH1 0x1 ADD SWAP1 PUSH1 0x20 ADD DUP1 DUP4 GT PUSH2 0x1FB JUMPI DUP3 SWAP1 SUB PUSH1 0x1F AND DUP3 ADD SWAP2 JUMPDEST POP POP POP POP POP DUP2 MSTORE PUSH1 0x20 ADD SWAP1 PUSH1 0x1 ADD SWAP1 PUSH2 0x170 JUMP JUMPDEST POP POP POP POP SWAP1 POP SWAP1 JUMP JUMPDEST PUSH1 0x0 DUP4 DUP4 DUP4 PUSH1 0x40 MLOAD PUSH1 0x20 ADD PUSH2 0x24C SWAP4 SWAP3 SWAP2 SWAP1 PUSH2 0x73E JUMP JUMPDEST PUSH1 0x40 MLOAD PUSH1 0x20 DUP2 DUP4 SUB SUB DUP2 MSTORE SWAP1 PUSH1 0x40 MSTORE DUP1 MLOAD SWAP1 PUSH1 0x20 ADD KECCAK256 SWAP1 POP DUP1 PUSH1 0x1 DUP6 PUSH1 0x40 MLOAD PUSH2 0x275 SWAP2 SWAP1 PUSH2 0x727 JUMP JUMPDEST SWAP1 DUP2 MSTORE PUSH1 0x20 ADD PUSH1 0x40 MLOAD DUP1 SWAP2 SUB SWAP1 KECCAK256 DUP2 SWAP1 SSTORE POP PUSH1 0x3 DUP5 SWAP1 DUP1 PUSH1 0x1 DUP2 SLOAD ADD DUP1 DUP3 SSTORE DUP1 SWAP2 POP POP PUSH1 0x1 SWAP1 SUB SWAP1 PUSH1 0x0 MSTORE PUSH1 0x20 PUSH1 0x0 KECCAK256 ADD PUSH1 0x0 SWAP1 SWAP2 SWAP1 SWAP2 SWAP1 SWAP2 POP SWAP1 DUP1 MLOAD SWAP1 PUSH1 0x20 ADD SWAP1 PUSH2 0x2C2 SWAP3 SWAP2 SWAP1 PUSH2 0x3C7 JUMP JUMPDEST POP POP POP POP POP JUMP JUMPDEST PUSH1 0x0 CALLER PUSH1 0x40 MLOAD PUSH1 0x20 ADD PUSH2 0x2DC SWAP2 SWAP1 PUSH2 0x70C JUMP JUMPDEST PUSH1 0x40 MLOAD PUSH1 0x20 DUP2 DUP4 SUB SUB DUP2 MSTORE SWAP1 PUSH1 0x40 MSTORE DUP1 MLOAD SWAP1 PUSH1 0x20 ADD KECCAK256 SWAP1 POP PUSH1 0x0 JUMPDEST PUSH1 0x4 DUP1 SLOAD SWAP1 POP DUP2 LT ISZERO PUSH2 0x36B JUMPI PUSH1 0x4 DUP2 DUP2 SLOAD DUP2 LT PUSH2 0x311 JUMPI INVALID JUMPDEST SWAP1 PUSH1 0x0 MSTORE PUSH1 0x20 PUSH1 0x0 KECCAK256 ADD SLOAD DUP3 EQ ISZERO PUSH2 0x35E JUMPI PUSH1 0x40 MLOAD PUSH32 0x8C379A000000000000000000000000000000000000000000000000000000000 DUP2 MSTORE PUSH1 0x4 ADD PUSH2 0x355 SWAP1 PUSH2 0x7B0 JUMP JUMPDEST PUSH1 0x40 MLOAD DUP1 SWAP2 SUB SWAP1 REVERT JUMPDEST DUP1 DUP1 PUSH1 0x1 ADD SWAP2 POP POP PUSH2 0x2F7 JUMP JUMPDEST POP PUSH1 0x4 DUP2 SWAP1 DUP1 PUSH1 0x1 DUP2 SLOAD ADD DUP1 DUP3 SSTORE DUP1 SWAP2 POP POP PUSH1 0x1 SWAP1 SUB SWAP1 PUSH1 0x0 MSTORE PUSH1 0x20 PUSH1 0x0 KECCAK256 ADD PUSH1 0x0 SWAP1 SWAP2 SWAP1 SWAP2 SWAP1 SWAP2 POP SSTORE PUSH1 0x2 DUP3 PUSH1 0x40 MLOAD PUSH2 0x3A5 SWAP2 SWAP1 PUSH2 0x727 JUMP JUMPDEST SWAP1 DUP2 MSTORE PUSH1 0x20 ADD PUSH1 0x40 MLOAD DUP1 SWAP2 SUB SWAP1 KECCAK256 PUSH1 0x0 DUP2 SLOAD DUP1 SWAP3 SWAP2 SWAP1 PUSH1 0x1 ADD SWAP2 SWAP1 POP SSTORE POP POP POP JUMP JUMPDEST DUP3 DUP1 SLOAD PUSH1 0x1 DUP2 PUSH1 0x1 AND ISZERO PUSH2 0x100 MUL SUB AND PUSH1 0x2 SWAP1 DIV SWAP1 PUSH1 0x0 MSTORE PUSH1 0x20 PUSH1 0x0 KECCAK256 SWAP1 PUSH1 0x1F ADD PUSH1 0x20 SWAP1 DIV DUP2 ADD SWAP3 DUP3 PUSH1 0x1F LT PUSH2 0x408 JUMPI DUP1 MLOAD PUSH1 0xFF NOT AND DUP4 DUP1 ADD OR DUP6 SSTORE PUSH2 0x436 JUMP JUMPDEST DUP3 DUP1 ADD PUSH1 0x1 ADD DUP6 SSTORE DUP3 ISZERO PUSH2 0x436 JUMPI SWAP2 DUP3 ADD JUMPDEST DUP3 DUP2 GT ISZERO PUSH2 0x435 JUMPI DUP3 MLOAD DUP3 SSTORE SWAP2 PUSH1 0x20 ADD SWAP2 SWAP1 PUSH1 0x1 ADD SWAP1 PUSH2 0x41A JUMP JUMPDEST JUMPDEST POP SWAP1 POP PUSH2 0x443 SWAP2 SWAP1 PUSH2 0x447 JUMP JUMPDEST POP SWAP1 JUMP JUMPDEST JUMPDEST DUP1 DUP3 GT ISZERO PUSH2 0x460 JUMPI PUSH1 0x0 DUP2 PUSH1 0x0 SWAP1 SSTORE POP PUSH1 0x1 ADD PUSH2 0x448 JUMP JUMPDEST POP SWAP1 JUMP JUMPDEST PUSH1 0x0 DUP3 PUSH1 0x1F DUP4 ADD SLT PUSH2 0x475 JUMPI PUSH1 0x0 DUP1 REVERT JUMPDEST DUP2 CALLDATALOAD PUSH2 0x488 PUSH2 0x483 DUP3 PUSH2 0x818 JUMP JUMPDEST PUSH2 0x7EB JUMP JUMPDEST SWAP2 POP DUP1 DUP3 MSTORE PUSH1 0x20 DUP4 ADD PUSH1 0x20 DUP4 ADD DUP6 DUP4 DUP4 ADD GT ISZERO PUSH2 0x4A4 JUMPI PUSH1 0x0 DUP1 REVERT JUMPDEST PUSH2 0x4AF DUP4 DUP3 DUP5 PUSH2 0x903 JUMP JUMPDEST POP POP POP SWAP3 SWAP2 POP POP JUMP JUMPDEST PUSH1 0x0 DUP2 CALLDATALOAD SWAP1 POP PUSH2 0x4C7 DUP2 PUSH2 0x991 JUMP JUMPDEST SWAP3 SWAP2 POP POP JUMP JUMPDEST PUSH1 0x0 PUSH1 0x20 DUP3 DUP5 SUB SLT ISZERO PUSH2 0x4DF JUMPI PUSH1 0x0 DUP1 REVERT JUMPDEST PUSH1 0x0 DUP3 ADD CALLDATALOAD PUSH8 0xFFFFFFFFFFFFFFFF DUP2 GT ISZERO PUSH2 0x4F9 JUMPI PUSH1 0x0 DUP1 REVERT JUMPDEST PUSH2 0x505 DUP5 DUP3 DUP6 ADD PUSH2 0x464 JUMP JUMPDEST SWAP2 POP POP SWAP3 SWAP2 POP POP JUMP JUMPDEST PUSH1 0x0 DUP1 PUSH1 0x0 PUSH1 0x60 DUP5 DUP7 SUB SLT ISZERO PUSH2 0x523 JUMPI PUSH1 0x0 DUP1 REVERT JUMPDEST PUSH1 0x0 DUP5 ADD CALLDATALOAD PUSH8 0xFFFFFFFFFFFFFFFF DUP2 GT ISZERO PUSH2 0x53D JUMPI PUSH1 0x0 DUP1 REVERT JUMPDEST PUSH2 0x549 DUP7 DUP3 DUP8 ADD PUSH2 0x464 JUMP JUMPDEST SWAP4 POP POP PUSH1 0x20 PUSH2 0x55A DUP7 DUP3 DUP8 ADD PUSH2 0x4B8 JUMP JUMPDEST SWAP3 POP POP PUSH1 0x40 DUP5 ADD CALLDATALOAD PUSH8 0xFFFFFFFFFFFFFFFF DUP2 GT ISZERO PUSH2 0x577 JUMPI PUSH1 0x0 DUP1 REVERT JUMPDEST PUSH2 0x583 DUP7 DUP3 DUP8 ADD PUSH2 0x464 JUMP JUMPDEST SWAP2 POP POP SWAP3 POP SWAP3 POP SWAP3 JUMP JUMPDEST PUSH1 0x0 PUSH2 0x599 DUP4 DUP4 PUSH2 0x63C JUMP JUMPDEST SWAP1 POP SWAP3 SWAP2 POP POP JUMP JUMPDEST PUSH2 0x5B2 PUSH2 0x5AD DUP3 PUSH2 0x8C7 JUMP JUMPDEST PUSH2 0x945 JUMP JUMPDEST DUP3 MSTORE POP POP JUMP JUMPDEST PUSH2 0x5C1 DUP2 PUSH2 0x8B5 JUMP JUMPDEST DUP3 MSTORE POP POP JUMP JUMPDEST PUSH1 0x0 PUSH2 0x5D2 DUP3 PUSH2 0x854 JUMP JUMPDEST PUSH2 0x5DC DUP2 DUP6 PUSH2 0x877 JUMP JUMPDEST SWAP4 POP DUP4 PUSH1 0x20 DUP3 MUL DUP6 ADD PUSH2 0x5EE DUP6 PUSH2 0x844 JUMP JUMPDEST DUP1 PUSH1 0x0 JUMPDEST DUP6 DUP2 LT ISZERO PUSH2 0x62A JUMPI DUP5 DUP5 SUB DUP10 MSTORE DUP2 MLOAD PUSH2 0x60B DUP6 DUP3 PUSH2 0x58D JUMP JUMPDEST SWAP5 POP PUSH2 0x616 DUP4 PUSH2 0x86A JUMP JUMPDEST SWAP3 POP PUSH1 0x20 DUP11 ADD SWAP10 POP POP PUSH1 0x1 DUP2 ADD SWAP1 POP PUSH2 0x5F2 JUMP JUMPDEST POP DUP3 SWAP8 POP DUP8 SWAP6 POP POP POP POP POP POP SWAP3 SWAP2 POP POP JUMP JUMPDEST PUSH1 0x0 PUSH2 0x647 DUP3 PUSH2 0x85F JUMP JUMPDEST PUSH2 0x651 DUP2 DUP6 PUSH2 0x888 JUMP JUMPDEST SWAP4 POP PUSH2 0x661 DUP2 DUP6 PUSH1 0x20 DUP7 ADD PUSH2 0x912 JUMP JUMPDEST PUSH2 0x66A DUP2 PUSH2 0x973 JUMP JUMPDEST DUP5 ADD SWAP2 POP POP SWAP3 SWAP2 POP POP JUMP JUMPDEST PUSH1 0x0 PUSH2 0x680 DUP3 PUSH2 0x85F JUMP JUMPDEST PUSH2 0x68A DUP2 DUP6 PUSH2 0x8AA JUMP JUMPDEST SWAP4 POP PUSH2 0x69A DUP2 DUP6 PUSH1 0x20 DUP7 ADD PUSH2 0x912 JUMP JUMPDEST DUP1 DUP5 ADD SWAP2 POP POP SWAP3 SWAP2 POP POP JUMP JUMPDEST PUSH1 0x0 PUSH2 0x6B3 PUSH1 0x1B DUP4 PUSH2 0x899 JUMP JUMPDEST SWAP2 POP PUSH32 0x596120736520686120766F7461646F207072657669616D656E74650000000000 PUSH1 0x0 DUP4 ADD MSTORE PUSH1 0x20 DUP3 ADD SWAP1 POP SWAP2 SWAP1 POP JUMP JUMPDEST PUSH2 0x6EF DUP2 PUSH2 0x8F9 JUMP JUMPDEST DUP3 MSTORE POP POP JUMP JUMPDEST PUSH2 0x706 PUSH2 0x701 DUP3 PUSH2 0x8F9 JUMP JUMPDEST PUSH2 0x969 JUMP JUMPDEST DUP3 MSTORE POP POP JUMP JUMPDEST PUSH1 0x0 PUSH2 0x718 DUP3 DUP5 PUSH2 0x5A1 JUMP JUMPDEST PUSH1 0x14 DUP3 ADD SWAP2 POP DUP2 SWAP1 POP SWAP3 SWAP2 POP POP JUMP JUMPDEST PUSH1 0x0 PUSH2 0x733 DUP3 DUP5 PUSH2 0x675 JUMP JUMPDEST SWAP2 POP DUP2 SWAP1 POP SWAP3 SWAP2 POP POP JUMP JUMPDEST PUSH1 0x0 PUSH2 0x74A DUP3 DUP7 PUSH2 0x675 JUMP JUMPDEST SWAP2 POP PUSH2 0x756 DUP3 DUP6 PUSH2 0x6F5 JUMP JUMPDEST PUSH1 0x20 DUP3 ADD SWAP2 POP PUSH2 0x766 DUP3 DUP5 PUSH2 0x675 JUMP JUMPDEST SWAP2 POP DUP2 SWAP1 POP SWAP5 SWAP4 POP POP POP POP JUMP JUMPDEST PUSH1 0x0 PUSH1 0x20 DUP3 ADD SWAP1 POP PUSH2 0x788 PUSH1 0x0 DUP4 ADD DUP5 PUSH2 0x5B8 JUMP JUMPDEST SWAP3 SWAP2 POP POP JUMP JUMPDEST PUSH1 0x0 PUSH1 0x20 DUP3 ADD SWAP1 POP DUP2 DUP2 SUB PUSH1 0x0 DUP4 ADD MSTORE PUSH2 0x7A8 DUP2 DUP5 PUSH2 0x5C7 JUMP JUMPDEST SWAP1 POP SWAP3 SWAP2 POP POP JUMP JUMPDEST PUSH1 0x0 PUSH1 0x20 DUP3 ADD SWAP1 POP DUP2 DUP2 SUB PUSH1 0x0 DUP4 ADD MSTORE PUSH2 0x7C9 DUP2 PUSH2 0x6A6 JUMP JUMPDEST SWAP1 POP SWAP2 SWAP1 POP JUMP JUMPDEST PUSH1 0x0 PUSH1 0x20 DUP3 ADD SWAP1 POP PUSH2 0x7E5 PUSH1 0x0 DUP4 ADD DUP5 PUSH2 0x6E6 JUMP JUMPDEST SWAP3 SWAP2 POP POP JUMP JUMPDEST PUSH1 0x0 PUSH1 0x40 MLOAD SWAP1 POP DUP2 DUP2 ADD DUP2 DUP2 LT PUSH8 0xFFFFFFFFFFFFFFFF DUP3 GT OR ISZERO PUSH2 0x80E JUMPI PUSH1 0x0 DUP1 REVERT JUMPDEST DUP1 PUSH1 0x40 MSTORE POP SWAP2 SWAP1 POP JUMP JUMPDEST PUSH1 0x0 PUSH8 0xFFFFFFFFFFFFFFFF DUP3 GT ISZERO PUSH2 0x82F JUMPI PUSH1 0x0 DUP1 REVERT JUMPDEST PUSH1 0x1F NOT PUSH1 0x1F DUP4 ADD AND SWAP1 POP PUSH1 0x20 DUP2 ADD SWAP1 POP SWAP2 SWAP1 POP JUMP JUMPDEST PUSH1 0x0 DUP2 SWAP1 POP PUSH1 0x20 DUP3 ADD SWAP1 POP SWAP2 SWAP1 POP JUMP JUMPDEST PUSH1 0x0 DUP2 MLOAD SWAP1 POP SWAP2 SWAP1 POP JUMP JUMPDEST PUSH1 0x0 DUP2 MLOAD SWAP1 POP SWAP2 SWAP1 POP JUMP JUMPDEST PUSH1 0x0 PUSH1 0x20 DUP3 ADD SWAP1 POP SWAP2 SWAP1 POP JUMP JUMPDEST PUSH1 0x0 DUP3 DUP3 MSTORE PUSH1 0x20 DUP3 ADD SWAP1 POP SWAP3 SWAP2 POP POP JUMP JUMPDEST PUSH1 0x0 DUP3 DUP3 MSTORE PUSH1 0x20 DUP3 ADD SWAP1 POP SWAP3 SWAP2 POP POP JUMP JUMPDEST PUSH1 0x0 DUP3 DUP3 MSTORE PUSH1 0x20 DUP3 ADD SWAP1 POP SWAP3 SWAP2 POP POP JUMP JUMPDEST PUSH1 0x0 DUP2 SWAP1 POP SWAP3 SWAP2 POP POP JUMP JUMPDEST PUSH1 0x0 PUSH2 0x8C0 DUP3 PUSH2 0x8D9 JUMP JUMPDEST SWAP1 POP SWAP2 SWAP1 POP JUMP JUMPDEST PUSH1 0x0 PUSH2 0x8D2 DUP3 PUSH2 0x8D9 JUMP JUMPDEST SWAP1 POP SWAP2 SWAP1 POP JUMP JUMPDEST PUSH1 0x0 PUSH20 0xFFFFFFFFFFFFFFFFFFFFFFFFFFFFFFFFFFFFFFFF DUP3 AND SWAP1 POP SWAP2 SWAP1 POP JUMP JUMPDEST PUSH1 0x0 DUP2 SWAP1 POP SWAP2 SWAP1 POP JUMP JUMPDEST DUP3 DUP2 DUP4 CALLDATACOPY PUSH1 0x0 DUP4 DUP4 ADD MSTORE POP POP POP JUMP JUMPDEST PUSH1 0x0 JUMPDEST DUP4 DUP2 LT ISZERO PUSH2 0x930 JUMPI DUP1 DUP3 ADD MLOAD DUP2 DUP5 ADD MSTORE PUSH1 0x20 DUP2 ADD SWAP1 POP PUSH2 0x915 JUMP JUMPDEST DUP4 DUP2 GT ISZERO PUSH2 0x93F JUMPI PUSH1 0x0 DUP5 DUP5 ADD MSTORE JUMPDEST POP POP POP POP JUMP JUMPDEST PUSH1 0x0 PUSH2 0x950 DUP3 PUSH2 0x957 JUMP JUMPDEST SWAP1 POP SWAP2 SWAP1 POP JUMP JUMPDEST PUSH1 0x0 PUSH2 0x962 DUP3 PUSH2 0x984 JUMP JUMPDEST SWAP1 POP SWAP2 SWAP1 POP JUMP JUMPDEST PUSH1 0x0 DUP2 SWAP1 POP SWAP2 SWAP1 POP JUMP JUMPDEST PUSH1 0x0 PUSH1 0x1F NOT PUSH1 0x1F DUP4 ADD AND SWAP1 POP SWAP2 SWAP1 POP JUMP JUMPDEST PUSH1 0x0 DUP2 PUSH1 0x60 SHL SWAP1 POP SWAP2 SWAP1 POP JUMP JUMPDEST PUSH2 0x99A DUP2 PUSH2 0x8F9 JUMP JUMPDEST DUP2 EQ PUSH2 0x9A5 JUMPI PUSH1 0x0 DUP1 REVERT JUMPDEST POP JUMP INVALID LOG2 PUSH5 0x6970667358 0x22 SLT KECCAK256 CREATE 0xB5 0x29 SDIV AND SWAP6 0x22 SWAP3 CREATE2 0xED DUP13 0xCD 0xB8 CODESIZE 0xAA KECCAK256 RETURNDATASIZE 0xE6 0xDC SLT NUMBER 0xE0 SUB 0xB2 MOD GASPRICE 0xB0 0xFC 0xBF DUP14 DUP4 SIGNEXTEND PUSH5 0x736F6C6343 STOP MOD 0xC STOP CALLER "
				},
				"gasEstimates": {
					"creation": {
						"codeDepositCost": "505200",
						"executionCost": "21403",
						"totalCost": "526603"
					},
					"external": {
						"Representar(string,uint256,string)": "infinite",
						"VerCandidatos()": "infinite",
						"VerVotosCandidatos(string)": "infinite",
						"Votar(string)": "infinite",
						"owner()": "1211"
					}
				},
				"methodIdentifiers": {
					"Representar(string,uint256,string)": "f01ca6b7",
					"VerCandidatos()": "bfc2e938",
					"VerVotosCandidatos(string)": "4c25de51",
					"Votar(string)": "febe07dc",
					"owner()": "8da5cb5b"
				}
			},
			"storageLayout": {
				"storage": [
					{
						"astId": 4,
						"contract": "Votaciones/votaciones.sol:votacion",
						"label": "owner",
						"offset": 0,
						"slot": "0",
						"type": "t_address"
					},
					{
						"astId": 8,
						"contract": "Votaciones/votaciones.sol:votacion",
						"label": "Candidato",
						"offset": 0,
						"slot": "1",
						"type": "t_mapping(t_string_memory_ptr,t_bytes32)"
					},
					{
						"astId": 12,
						"contract": "Votaciones/votaciones.sol:votacion",
						"label": "VotosCandidato",
						"offset": 0,
						"slot": "2",
						"type": "t_mapping(t_string_memory_ptr,t_uint256)"
					},
					{
						"astId": 15,
						"contract": "Votaciones/votaciones.sol:votacion",
						"label": "candidatos",
						"offset": 0,
						"slot": "3",
						"type": "t_array(t_string_storage)dyn_storage"
					},
					{
						"astId": 18,
						"contract": "Votaciones/votaciones.sol:votacion",
						"label": "votantes",
						"offset": 0,
						"slot": "4",
						"type": "t_array(t_bytes32)dyn_storage"
					}
				],
				"types": {
					"t_address": {
						"encoding": "inplace",
						"label": "address",
						"numberOfBytes": "20"
					},
					"t_array(t_bytes32)dyn_storage": {
						"base": "t_bytes32",
						"encoding": "dynamic_array",
						"label": "bytes32[]",
						"numberOfBytes": "32"
					},
					"t_array(t_string_storage)dyn_storage": {
						"base": "t_string_storage",
						"encoding": "dynamic_array",
						"label": "string[]",
						"numberOfBytes": "32"
					},
					"t_bytes32": {
						"encoding": "inplace",
						"label": "bytes32",
						"numberOfBytes": "32"
					},
					"t_mapping(t_string_memory_ptr,t_bytes32)": {
						"encoding": "mapping",
						"key": "t_string_memory_ptr",
						"label": "mapping(string => bytes32)",
						"numberOfBytes": "32",
						"value": "t_bytes32"
					},
					"t_mapping(t_string_memory_ptr,t_uint256)": {
						"encoding": "mapping",
						"key": "t_string_memory_ptr",
						"label": "mapping(string => uint256)",
						"numberOfBytes": "32",
						"value": "t_uint256"
					},
					"t_string_memory_ptr": {
						"encoding": "bytes",
						"label": "string",
						"numberOfBytes": "32"
					},
					"t_string_storage": {
						"encoding": "bytes",
						"label": "string",
						"numberOfBytes": "32"
					},
					"t_uint256": {
						"encoding": "inplace",
						"label": "uint256",
						"numberOfBytes": "32"
					}
				}
			},
			"userdoc": {
				"kind": "user",
				"methods": {},
				"version": 1
			}
		}
	}
}