{
	"Votaciones/votaciones.sol": {
		"votacion": {
			"abi": [
				{
					"inputs": [],
					"stateMutability": "nonpayable",
					"type": "constructor"
				},
				{
					"inputs": [
						{
							"internalType": "string",
							"name": "_nombre",
							"type": "string"
						},
						{
							"internalType": "uint256",
							"name": "_edad",
							"type": "uint256"
						},
						{
							"internalType": "string",
							"name": "_ID",
							"type": "string"
						}
					],
					"name": "Representar",
					"outputs": [],
					"stateMutability": "nonpayable",
					"type": "function"
				},
				{
					"inputs": [],
					"name": "VerCandidatos",
					"outputs": [
						{
							"internalType": "string[]",
							"name": "",
							"type": "string[]"
						}
					],
					"stateMutability": "view",
					"type": "function"
				},
				{
					"inputs": [],
					"name": "VerResultados",
					"outputs": [
						{
							"internalType": "string",
							"name": "",
							"type": "string"
						}
					],
					"stateMutability": "view",
					"type": "function"
				},
				{
					"inputs": [
						{
							"internalType": "string",
							"name": "_candidato",
							"type": "string"
						}
					],
					"name": "VerVotosCandidatos",
					"outputs": [
						{
							"internalType": "uint256",
							"name": "",
							"type": "uint256"
						}
					],
					"stateMutability": "view",
					"type": "function"
				},
				{
					"inputs": [
						{
							"internalType": "string",
							"name": "_candidato",
							"type": "string"
						}
					],
					"name": "Votar",
					"outputs": [],
					"stateMutability": "nonpayable",
					"type": "function"
				},
				{
					"inputs": [],
					"name": "owner",
					"outputs": [
						{
							"internalType": "address",
							"name": "",
							"type": "address"
						}
					],
					"stateMutability": "view",
					"type": "function"
				}
			],
			"devdoc": {
				"kind": "dev",
				"methods": {},
				"version": 1
			},
			"evm": {
				"assembly": "    /* \"Votaciones/votaciones.sol\":102:3168  contract votacion {\r... */\n  mstore(0x40, 0x80)\n    /* \"Votaciones/votaciones.sol\":619:678  constructor () public {\r... */\n  callvalue\n  dup1\n  iszero\n  tag_1\n  jumpi\n  0x00\n  dup1\n  revert\ntag_1:\n  pop\n    /* \"Votaciones/votaciones.sol\":660:670  msg.sender */\n  caller\n    /* \"Votaciones/votaciones.sol\":652:657  owner */\n  0x00\n  dup1\n    /* \"Votaciones/votaciones.sol\":652:670  owner = msg.sender */\n  0x0100\n  exp\n  dup2\n  sload\n  dup2\n  0xffffffffffffffffffffffffffffffffffffffff\n  mul\n  not\n  and\n  swap1\n  dup4\n  0xffffffffffffffffffffffffffffffffffffffff\n  and\n  mul\n  or\n  swap1\n  sstore\n  pop\n    /* \"Votaciones/votaciones.sol\":102:3168  contract votacion {\r... */\n  dataSize(sub_0)\n  dup1\n  dataOffset(sub_0)\n  0x00\n  codecopy\n  0x00\n  return\nstop\n\nsub_0: assembly {\n        /* \"Votaciones/votaciones.sol\":102:3168  contract votacion {\r... */\n      mstore(0x40, 0x80)\n      callvalue\n      dup1\n      iszero\n      tag_1\n      jumpi\n      0x00\n      dup1\n      revert\n    tag_1:\n      pop\n      jumpi(tag_2, lt(calldatasize, 0x04))\n      shr(0xe0, calldataload(0x00))\n      dup1\n      0x4c25de51\n      eq\n      tag_3\n      jumpi\n      dup1\n      0x8da5cb5b\n      eq\n      tag_4\n      jumpi\n      dup1\n      0xbfc2e938\n      eq\n      tag_5\n      jumpi\n      dup1\n      0xe7bf56fa\n      eq\n      tag_6\n      jumpi\n      dup1\n      0xf01ca6b7\n      eq\n      tag_7\n      jumpi\n      dup1\n      0xfebe07dc\n      eq\n      tag_8\n      jumpi\n    tag_2:\n      0x00\n      dup1\n      revert\n        /* \"Votaciones/votaciones.sol\":1977:2109  function VerVotosCandidatos(string memory _candidato) public view returns(uint) {\r... */\n    tag_3:\n      tag_9\n      0x04\n      dup1\n      calldatasize\n      sub\n      dup2\n      add\n      swap1\n      tag_10\n      swap2\n      swap1\n      tag_11\n      jump\t// in\n    tag_10:\n      tag_12\n      jump\t// in\n    tag_9:\n      mload(0x40)\n      tag_13\n      swap2\n      swap1\n      tag_14\n      jump\t// in\n    tag_13:\n      mload(0x40)\n      dup1\n      swap2\n      sub\n      swap1\n      return\n        /* \"Votaciones/votaciones.sol\":175:195  address public owner */\n    tag_4:\n      tag_15\n      tag_16\n      jump\t// in\n    tag_15:\n      mload(0x40)\n      tag_17\n      swap2\n      swap1\n      tag_18\n      jump\t// in\n    tag_17:\n      mload(0x40)\n      dup1\n      swap2\n      sub\n      swap1\n      return\n        /* \"Votaciones/votaciones.sol\":1263:1361  function VerCandidatos() public view returns(string[] memory) {\r... */\n    tag_5:\n      tag_19\n      tag_20\n      jump\t// in\n    tag_19:\n      mload(0x40)\n      tag_21\n      swap2\n      swap1\n      tag_22\n      jump\t// in\n    tag_21:\n      mload(0x40)\n      dup1\n      swap2\n      sub\n      swap1\n      return\n        /* \"Votaciones/votaciones.sol\":2169:2542  function VerResultados() public view returns (string memory) {\r... */\n    tag_6:\n      tag_23\n      tag_24\n      jump\t// in\n    tag_23:\n      mload(0x40)\n      tag_25\n      swap2\n      swap1\n      tag_26\n      jump\t// in\n    tag_25:\n      mload(0x40)\n      dup1\n      swap2\n      sub\n      swap1\n      return\n        /* \"Votaciones/votaciones.sol\":748:1173  function Representar(string memory _nombre, uint _edad, string memory _ID) public {\r... */\n    tag_7:\n      tag_27\n      0x04\n      dup1\n      calldatasize\n      sub\n      dup2\n      add\n      swap1\n      tag_28\n      swap2\n      swap1\n      tag_29\n      jump\t// in\n    tag_28:\n      tag_30\n      jump\t// in\n    tag_27:\n      stop\n        /* \"Votaciones/votaciones.sol\":1408:1939  function Votar(string memory _candidato) public {\r... */\n    tag_8:\n      tag_31\n      0x04\n      dup1\n      calldatasize\n      sub\n      dup2\n      add\n      swap1\n      tag_32\n      swap2\n      swap1\n      tag_11\n      jump\t// in\n    tag_32:\n      tag_33\n      jump\t// in\n    tag_31:\n      stop\n        /* \"Votaciones/votaciones.sol\":1977:2109  function VerVotosCandidatos(string memory _candidato) public view returns(uint) {\r... */\n    tag_12:\n        /* \"Votaciones/votaciones.sol\":2051:2055  uint */\n      0x00\n        /* \"Votaciones/votaciones.sol\":2075:2089  VotosCandidato */\n      0x02\n        /* \"Votaciones/votaciones.sol\":2090:2100  _candidato */\n      dup3\n        /* \"Votaciones/votaciones.sol\":2075:2101  VotosCandidato[_candidato] */\n      mload(0x40)\n      tag_35\n      swap2\n      swap1\n      tag_36\n      jump\t// in\n    tag_35:\n      swap1\n      dup2\n      mstore\n      0x20\n      add\n      mload(0x40)\n      dup1\n      swap2\n      sub\n      swap1\n      keccak256\n      sload\n        /* \"Votaciones/votaciones.sol\":2068:2101  return VotosCandidato[_candidato] */\n      swap1\n      pop\n        /* \"Votaciones/votaciones.sol\":1977:2109  function VerVotosCandidatos(string memory _candidato) public view returns(uint) {\r... */\n      swap2\n      swap1\n      pop\n      jump\t// out\n        /* \"Votaciones/votaciones.sol\":175:195  address public owner */\n    tag_16:\n      0x00\n      dup1\n      sload\n      swap1\n      0x0100\n      exp\n      swap1\n      div\n      0xffffffffffffffffffffffffffffffffffffffff\n      and\n      dup2\n      jump\t// out\n        /* \"Votaciones/votaciones.sol\":1263:1361  function VerCandidatos() public view returns(string[] memory) {\r... */\n    tag_20:\n        /* \"Votaciones/votaciones.sol\":1308:1323  string[] memory */\n      0x60\n        /* \"Votaciones/votaciones.sol\":1343:1353  candidatos */\n      0x03\n        /* \"Votaciones/votaciones.sol\":1336:1353  return candidatos */\n      dup1\n      sload\n      dup1\n      0x20\n      mul\n      0x20\n      add\n      mload(0x40)\n      swap1\n      dup2\n      add\n      0x40\n      mstore\n      dup1\n      swap3\n      swap2\n      swap1\n      dup2\n      dup2\n      mstore\n      0x20\n      add\n      0x00\n      swap1\n    tag_38:\n      dup3\n      dup3\n      lt\n      iszero\n      tag_39\n      jumpi\n      dup4\n      dup3\n      swap1\n      0x00\n      mstore\n      keccak256(0x00, 0x20)\n      add\n      dup1\n      sload\n      0x01\n      dup2\n      0x01\n      and\n      iszero\n      0x0100\n      mul\n      sub\n      and\n      0x02\n      swap1\n      div\n      dup1\n      0x1f\n      add\n      0x20\n      dup1\n      swap2\n      div\n      mul\n      0x20\n      add\n      mload(0x40)\n      swap1\n      dup2\n      add\n      0x40\n      mstore\n      dup1\n      swap3\n      swap2\n      swap1\n      dup2\n      dup2\n      mstore\n      0x20\n      add\n      dup3\n      dup1\n      sload\n      0x01\n      dup2\n      0x01\n      and\n      iszero\n      0x0100\n      mul\n      sub\n      and\n      0x02\n      swap1\n      div\n      dup1\n      iszero\n      tag_41\n      jumpi\n      dup1\n      0x1f\n      lt\n      tag_42\n      jumpi\n      0x0100\n      dup1\n      dup4\n      sload\n      div\n      mul\n      dup4\n      mstore\n      swap2\n      0x20\n      add\n      swap2\n      jump(tag_41)\n    tag_42:\n      dup3\n      add\n      swap2\n      swap1\n      0x00\n      mstore\n      keccak256(0x00, 0x20)\n      swap1\n    tag_43:\n      dup2\n      sload\n      dup2\n      mstore\n      swap1\n      0x01\n      add\n      swap1\n      0x20\n      add\n      dup1\n      dup4\n      gt\n      tag_43\n      jumpi\n      dup3\n      swap1\n      sub\n      0x1f\n      and\n      dup3\n      add\n      swap2\n    tag_41:\n      pop\n      pop\n      pop\n      pop\n      pop\n      dup2\n      mstore\n      0x20\n      add\n      swap1\n      0x01\n      add\n      swap1\n      jump(tag_38)\n    tag_39:\n      pop\n      pop\n      pop\n      pop\n      swap1\n      pop\n        /* \"Votaciones/votaciones.sol\":1263:1361  function VerCandidatos() public view returns(string[] memory) {\r... */\n      swap1\n      jump\t// out\n        /* \"Votaciones/votaciones.sol\":2169:2542  function VerResultados() public view returns (string memory) {\r... */\n    tag_24:\n        /* \"Votaciones/votaciones.sol\":2215:2228  string memory */\n      0x60\n        /* \"Votaciones/votaciones.sol\":2279:2303  string memory resultados */\n      dup1\n        /* \"Votaciones/votaciones.sol\":2321:2334  uint iterator */\n      0x00\n        /* \"Votaciones/votaciones.sol\":2316:2535  for (uint iterator = 0; iterator < candidatos.length; iterator++) {\r... */\n    tag_45:\n        /* \"Votaciones/votaciones.sol\":2351:2361  candidatos */\n      0x03\n        /* \"Votaciones/votaciones.sol\":2351:2368  candidatos.length */\n      dup1\n      sload\n      swap1\n      pop\n        /* \"Votaciones/votaciones.sol\":2340:2348  iterator */\n      dup2\n        /* \"Votaciones/votaciones.sol\":2340:2368  iterator < candidatos.length */\n      lt\n        /* \"Votaciones/votaciones.sol\":2316:2535  for (uint iterator = 0; iterator < candidatos.length; iterator++) {\r... */\n      iszero\n      tag_46\n      jumpi\n        /* \"Votaciones/votaciones.sol\":2434:2444  resultados */\n      dup2\n        /* \"Votaciones/votaciones.sol\":2452:2462  candidatos */\n      0x03\n        /* \"Votaciones/votaciones.sol\":2463:2471  iterator */\n      dup3\n        /* \"Votaciones/votaciones.sol\":2452:2472  candidatos[iterator] */\n      dup2\n      sload\n      dup2\n      lt\n      tag_48\n      jumpi\n      invalid\n    tag_48:\n      swap1\n      0x00\n      mstore\n      keccak256(0x00, 0x20)\n      add\n        /* \"Votaciones/votaciones.sol\":2479:2493  VotosCandidato */\n      0x02\n        /* \"Votaciones/votaciones.sol\":2494:2504  candidatos */\n      0x03\n        /* \"Votaciones/votaciones.sol\":2505:2513  iterator */\n      dup5\n        /* \"Votaciones/votaciones.sol\":2494:2514  candidatos[iterator] */\n      dup2\n      sload\n      dup2\n      lt\n      tag_50\n      jumpi\n      invalid\n    tag_50:\n      swap1\n      0x00\n      mstore\n      keccak256(0x00, 0x20)\n      add\n        /* \"Votaciones/votaciones.sol\":2479:2515  VotosCandidato[candidatos[iterator]] */\n      mload(0x40)\n      tag_52\n      swap2\n      swap1\n      tag_53\n      jump\t// in\n    tag_52:\n      swap1\n      dup2\n      mstore\n      0x20\n      add\n      mload(0x40)\n      dup1\n      swap2\n      sub\n      swap1\n      keccak256\n      sload\n        /* \"Votaciones/votaciones.sol\":2417:2522  abi.encodePacked(resultados, \"| \", candidatos[iterator], \" \", VotosCandidato[candidatos[iterator]], \" |\") */\n      add(0x20, mload(0x40))\n      tag_54\n      swap4\n      swap3\n      swap2\n      swap1\n      tag_55\n      jump\t// in\n    tag_54:\n      mload(0x40)\n      0x20\n      dup2\n      dup4\n      sub\n      sub\n      dup2\n      mstore\n      swap1\n      0x40\n      mstore\n        /* \"Votaciones/votaciones.sol\":2397:2523  resultados = string(abi.encodePacked(resultados, \"| \", candidatos[iterator], \" \", VotosCandidato[candidatos[iterator]], \" |\")) */\n      swap2\n      pop\n        /* \"Votaciones/votaciones.sol\":2370:2380  iterator++ */\n      dup1\n      dup1\n      0x01\n      add\n      swap2\n      pop\n      pop\n        /* \"Votaciones/votaciones.sol\":2316:2535  for (uint iterator = 0; iterator < candidatos.length; iterator++) {\r... */\n      jump(tag_45)\n    tag_46:\n      pop\n        /* \"Votaciones/votaciones.sol\":2169:2542  function VerResultados() public view returns (string memory) {\r... */\n      pop\n      swap1\n      jump\t// out\n        /* \"Votaciones/votaciones.sol\":748:1173  function Representar(string memory _nombre, uint _edad, string memory _ID) public {\r... */\n    tag_30:\n        /* \"Votaciones/votaciones.sol\":885:906  bytes32 hashCandidato */\n      0x00\n        /* \"Votaciones/votaciones.sol\":936:943  _nombre */\n      dup4\n        /* \"Votaciones/votaciones.sol\":945:950  _edad */\n      dup4\n        /* \"Votaciones/votaciones.sol\":952:955  _ID */\n      dup4\n        /* \"Votaciones/votaciones.sol\":919:956  abi.encodePacked(_nombre, _edad, _ID) */\n      add(0x20, mload(0x40))\n      tag_57\n      swap4\n      swap3\n      swap2\n      swap1\n      tag_58\n      jump\t// in\n    tag_57:\n      mload(0x40)\n      0x20\n      dup2\n      dup4\n      sub\n      sub\n      dup2\n      mstore\n      swap1\n      0x40\n      mstore\n        /* \"Votaciones/votaciones.sol\":909:957  keccak256(abi.encodePacked(_nombre, _edad, _ID)) */\n      dup1\n      mload\n      swap1\n      0x20\n      add\n      keccak256\n        /* \"Votaciones/votaciones.sol\":885:957  bytes32 hashCandidato = keccak256(abi.encodePacked(_nombre, _edad, _ID)) */\n      swap1\n      pop\n        /* \"Votaciones/votaciones.sol\":1068:1081  hashCandidato */\n      dup1\n        /* \"Votaciones/votaciones.sol\":1047:1056  Candidato */\n      0x01\n        /* \"Votaciones/votaciones.sol\":1057:1064  _nombre */\n      dup6\n        /* \"Votaciones/votaciones.sol\":1047:1065  Candidato[_nombre] */\n      mload(0x40)\n      tag_59\n      swap2\n      swap1\n      tag_36\n      jump\t// in\n    tag_59:\n      swap1\n      dup2\n      mstore\n      0x20\n      add\n      mload(0x40)\n      dup1\n      swap2\n      sub\n      swap1\n      keccak256\n        /* \"Votaciones/votaciones.sol\":1047:1081  Candidato[_nombre] = hashCandidato */\n      dup2\n      swap1\n      sstore\n      pop\n        /* \"Votaciones/votaciones.sol\":1141:1151  candidatos */\n      0x03\n        /* \"Votaciones/votaciones.sol\":1157:1164  _nombre */\n      dup5\n        /* \"Votaciones/votaciones.sol\":1141:1165  candidatos.push(_nombre) */\n      swap1\n      dup1\n      0x01\n      dup2\n      sload\n      add\n      dup1\n      dup3\n      sstore\n      dup1\n      swap2\n      pop\n      pop\n      0x01\n      swap1\n      sub\n      swap1\n      0x00\n      mstore\n      keccak256(0x00, 0x20)\n      add\n      0x00\n      swap1\n      swap2\n      swap1\n      swap2\n      swap1\n      swap2\n      pop\n      swap1\n      dup1\n      mload\n      swap1\n      0x20\n      add\n      swap1\n      tag_61\n      swap3\n      swap2\n      swap1\n      tag_62\n      jump\t// in\n    tag_61:\n      pop\n        /* \"Votaciones/votaciones.sol\":748:1173  function Representar(string memory _nombre, uint _edad, string memory _ID) public {\r... */\n      pop\n      pop\n      pop\n      pop\n      jump\t// out\n        /* \"Votaciones/votaciones.sol\":1408:1939  function Votar(string memory _candidato) public {\r... */\n    tag_33:\n        /* \"Votaciones/votaciones.sol\":1498:1518  bytes32 hash_votante */\n      0x00\n        /* \"Votaciones/votaciones.sol\":1548:1558  msg.sender */\n      caller\n        /* \"Votaciones/votaciones.sol\":1531:1559  abi.encodePacked(msg.sender) */\n      add(0x20, mload(0x40))\n      tag_64\n      swap2\n      swap1\n      tag_65\n      jump\t// in\n    tag_64:\n      mload(0x40)\n      0x20\n      dup2\n      dup4\n      sub\n      sub\n      dup2\n      mstore\n      swap1\n      0x40\n      mstore\n        /* \"Votaciones/votaciones.sol\":1521:1560  keccak256(abi.encodePacked(msg.sender)) */\n      dup1\n      mload\n      swap1\n      0x20\n      add\n      keccak256\n        /* \"Votaciones/votaciones.sol\":1498:1560  bytes32 hash_votante = keccak256(abi.encodePacked(msg.sender)) */\n      swap1\n      pop\n        /* \"Votaciones/votaciones.sol\":1620:1633  uint iterator */\n      0x00\n        /* \"Votaciones/votaciones.sol\":1616:1780  for(uint iterator = 0; iterator < votantes.length; iterator++) {\r... */\n    tag_66:\n        /* \"Votaciones/votaciones.sol\":1650:1658  votantes */\n      0x04\n        /* \"Votaciones/votaciones.sol\":1650:1665  votantes.length */\n      dup1\n      sload\n      swap1\n      pop\n        /* \"Votaciones/votaciones.sol\":1639:1647  iterator */\n      dup2\n        /* \"Votaciones/votaciones.sol\":1639:1665  iterator < votantes.length */\n      lt\n        /* \"Votaciones/votaciones.sol\":1616:1780  for(uint iterator = 0; iterator < votantes.length; iterator++) {\r... */\n      iszero\n      tag_67\n      jumpi\n        /* \"Votaciones/votaciones.sol\":1718:1726  votantes */\n      0x04\n        /* \"Votaciones/votaciones.sol\":1727:1735  iterator */\n      dup2\n        /* \"Votaciones/votaciones.sol\":1718:1736  votantes[iterator] */\n      dup2\n      sload\n      dup2\n      lt\n      tag_69\n      jumpi\n      invalid\n    tag_69:\n      swap1\n      0x00\n      mstore\n      keccak256(0x00, 0x20)\n      add\n      sload\n        /* \"Votaciones/votaciones.sol\":1702:1714  hash_votante */\n      dup3\n        /* \"Votaciones/votaciones.sol\":1702:1736  hash_votante != votantes[iterator] */\n      eq\n      iszero\n        /* \"Votaciones/votaciones.sol\":1694:1768  require(hash_votante != votantes[iterator], \"Ya se ha votado previamente\") */\n      tag_71\n      jumpi\n      mload(0x40)\n      0x08c379a000000000000000000000000000000000000000000000000000000000\n      dup2\n      mstore\n      0x04\n      add\n      tag_72\n      swap1\n      tag_73\n      jump\t// in\n    tag_72:\n      mload(0x40)\n      dup1\n      swap2\n      sub\n      swap1\n      revert\n    tag_71:\n        /* \"Votaciones/votaciones.sol\":1667:1677  iterator++ */\n      dup1\n      dup1\n      0x01\n      add\n      swap2\n      pop\n      pop\n        /* \"Votaciones/votaciones.sol\":1616:1780  for(uint iterator = 0; iterator < votantes.length; iterator++) {\r... */\n      jump(tag_66)\n    tag_67:\n      pop\n        /* \"Votaciones/votaciones.sol\":1827:1835  votantes */\n      0x04\n        /* \"Votaciones/votaciones.sol\":1841:1853  hash_votante */\n      dup2\n        /* \"Votaciones/votaciones.sol\":1827:1854  votantes.push(hash_votante) */\n      swap1\n      dup1\n      0x01\n      dup2\n      sload\n      add\n      dup1\n      dup3\n      sstore\n      dup1\n      swap2\n      pop\n      pop\n      0x01\n      swap1\n      sub\n      swap1\n      0x00\n      mstore\n      keccak256(0x00, 0x20)\n      add\n      0x00\n      swap1\n      swap2\n      swap1\n      swap2\n      swap1\n      swap2\n      pop\n      sstore\n        /* \"Votaciones/votaciones.sol\":1903:1917  VotosCandidato */\n      0x02\n        /* \"Votaciones/votaciones.sol\":1918:1928  _candidato */\n      dup3\n        /* \"Votaciones/votaciones.sol\":1903:1929  VotosCandidato[_candidato] */\n      mload(0x40)\n      tag_75\n      swap2\n      swap1\n      tag_36\n      jump\t// in\n    tag_75:\n      swap1\n      dup2\n      mstore\n      0x20\n      add\n      mload(0x40)\n      dup1\n      swap2\n      sub\n      swap1\n      keccak256\n      0x00\n        /* \"Votaciones/votaciones.sol\":1903:1931  VotosCandidato[_candidato]++ */\n      dup2\n      sload\n      dup1\n      swap3\n      swap2\n      swap1\n      0x01\n      add\n      swap2\n      swap1\n      pop\n      sstore\n      pop\n        /* \"Votaciones/votaciones.sol\":1408:1939  function Votar(string memory _candidato) public {\r... */\n      pop\n      pop\n      jump\t// out\n    tag_62:\n      dup3\n      dup1\n      sload\n      0x01\n      dup2\n      0x01\n      and\n      iszero\n      0x0100\n      mul\n      sub\n      and\n      0x02\n      swap1\n      div\n      swap1\n      0x00\n      mstore\n      keccak256(0x00, 0x20)\n      swap1\n      0x1f\n      add\n      0x20\n      swap1\n      div\n      dup2\n      add\n      swap3\n      dup3\n      0x1f\n      lt\n      tag_77\n      jumpi\n      dup1\n      mload\n      not(0xff)\n      and\n      dup4\n      dup1\n      add\n      or\n      dup6\n      sstore\n      jump(tag_76)\n    tag_77:\n      dup3\n      dup1\n      add\n      0x01\n      add\n      dup6\n      sstore\n      dup3\n      iszero\n      tag_76\n      jumpi\n      swap2\n      dup3\n      add\n    tag_78:\n      dup3\n      dup2\n      gt\n      iszero\n      tag_79\n      jumpi\n      dup3\n      mload\n      dup3\n      sstore\n      swap2\n      0x20\n      add\n      swap2\n      swap1\n      0x01\n      add\n      swap1\n      jump(tag_78)\n    tag_79:\n    tag_76:\n      pop\n      swap1\n      pop\n      tag_80\n      swap2\n      swap1\n      tag_81\n      jump\t// in\n    tag_80:\n      pop\n      swap1\n      jump\t// out\n    tag_81:\n    tag_82:\n      dup1\n      dup3\n      gt\n      iszero\n      tag_83\n      jumpi\n      0x00\n      dup2\n      0x00\n      swap1\n      sstore\n      pop\n      0x01\n      add\n      jump(tag_82)\n    tag_83:\n      pop\n      swap1\n      jump\t// out\n        /* \"--CODEGEN--\":6:448   */\n    tag_85:\n      0x00\n        /* \"--CODEGEN--\":108:111   */\n      dup3\n        /* \"--CODEGEN--\":101:105   */\n      0x1f\n        /* \"--CODEGEN--\":93:99   */\n      dup4\n        /* \"--CODEGEN--\":89:106   */\n      add\n        /* \"--CODEGEN--\":85:112   */\n      slt\n        /* \"--CODEGEN--\":75:77   */\n      tag_87\n      jumpi\n        /* \"--CODEGEN--\":126:127   */\n      0x00\n        /* \"--CODEGEN--\":123:124   */\n      dup1\n        /* \"--CODEGEN--\":116:128   */\n      revert\n        /* \"--CODEGEN--\":75:77   */\n    tag_87:\n        /* \"--CODEGEN--\":163:169   */\n      dup2\n        /* \"--CODEGEN--\":150:170   */\n      calldataload\n        /* \"--CODEGEN--\":185:250   */\n      tag_88\n        /* \"--CODEGEN--\":200:249   */\n      tag_89\n        /* \"--CODEGEN--\":242:248   */\n      dup3\n        /* \"--CODEGEN--\":200:249   */\n      tag_90\n      jump\t// in\n    tag_89:\n        /* \"--CODEGEN--\":185:250   */\n      tag_91\n      jump\t// in\n    tag_88:\n        /* \"--CODEGEN--\":176:250   */\n      swap2\n      pop\n        /* \"--CODEGEN--\":270:276   */\n      dup1\n        /* \"--CODEGEN--\":263:268   */\n      dup3\n        /* \"--CODEGEN--\":256:277   */\n      mstore\n        /* \"--CODEGEN--\":306:310   */\n      0x20\n        /* \"--CODEGEN--\":298:304   */\n      dup4\n        /* \"--CODEGEN--\":294:311   */\n      add\n        /* \"--CODEGEN--\":339:343   */\n      0x20\n        /* \"--CODEGEN--\":332:337   */\n      dup4\n        /* \"--CODEGEN--\":328:344   */\n      add\n        /* \"--CODEGEN--\":374:377   */\n      dup6\n        /* \"--CODEGEN--\":365:371   */\n      dup4\n        /* \"--CODEGEN--\":360:363   */\n      dup4\n        /* \"--CODEGEN--\":356:372   */\n      add\n        /* \"--CODEGEN--\":353:378   */\n      gt\n        /* \"--CODEGEN--\":350:352   */\n      iszero\n      tag_92\n      jumpi\n        /* \"--CODEGEN--\":391:392   */\n      0x00\n        /* \"--CODEGEN--\":388:389   */\n      dup1\n        /* \"--CODEGEN--\":381:393   */\n      revert\n        /* \"--CODEGEN--\":350:352   */\n    tag_92:\n        /* \"--CODEGEN--\":401:442   */\n      tag_93\n        /* \"--CODEGEN--\":435:441   */\n      dup4\n        /* \"--CODEGEN--\":430:433   */\n      dup3\n        /* \"--CODEGEN--\":425:428   */\n      dup5\n        /* \"--CODEGEN--\":401:442   */\n      tag_94\n      jump\t// in\n    tag_93:\n        /* \"--CODEGEN--\":68:448   */\n      pop\n      pop\n      pop\n      swap3\n      swap2\n      pop\n      pop\n      jump\t// out\n        /* \"--CODEGEN--\":456:586   */\n    tag_95:\n      0x00\n        /* \"--CODEGEN--\":536:542   */\n      dup2\n        /* \"--CODEGEN--\":523:543   */\n      calldataload\n        /* \"--CODEGEN--\":514:543   */\n      swap1\n      pop\n        /* \"--CODEGEN--\":548:581   */\n      tag_97\n        /* \"--CODEGEN--\":575:580   */\n      dup2\n        /* \"--CODEGEN--\":548:581   */\n      tag_98\n      jump\t// in\n    tag_97:\n        /* \"--CODEGEN--\":508:586   */\n      swap3\n      swap2\n      pop\n      pop\n      jump\t// out\n        /* \"--CODEGEN--\":593:940   */\n    tag_11:\n      0x00\n        /* \"--CODEGEN--\":707:709   */\n      0x20\n        /* \"--CODEGEN--\":695:704   */\n      dup3\n        /* \"--CODEGEN--\":686:693   */\n      dup5\n        /* \"--CODEGEN--\":682:705   */\n      sub\n        /* \"--CODEGEN--\":678:710   */\n      slt\n        /* \"--CODEGEN--\":675:677   */\n      iszero\n      tag_100\n      jumpi\n        /* \"--CODEGEN--\":723:724   */\n      0x00\n        /* \"--CODEGEN--\":720:721   */\n      dup1\n        /* \"--CODEGEN--\":713:725   */\n      revert\n        /* \"--CODEGEN--\":675:677   */\n    tag_100:\n        /* \"--CODEGEN--\":786:787   */\n      0x00\n        /* \"--CODEGEN--\":775:784   */\n      dup3\n        /* \"--CODEGEN--\":771:788   */\n      add\n        /* \"--CODEGEN--\":758:789   */\n      calldataload\n        /* \"--CODEGEN--\":809:827   */\n      0xffffffffffffffff\n        /* \"--CODEGEN--\":801:807   */\n      dup2\n        /* \"--CODEGEN--\":798:828   */\n      gt\n        /* \"--CODEGEN--\":795:797   */\n      iszero\n      tag_101\n      jumpi\n        /* \"--CODEGEN--\":841:842   */\n      0x00\n        /* \"--CODEGEN--\":838:839   */\n      dup1\n        /* \"--CODEGEN--\":831:843   */\n      revert\n        /* \"--CODEGEN--\":795:797   */\n    tag_101:\n        /* \"--CODEGEN--\":861:924   */\n      tag_102\n        /* \"--CODEGEN--\":916:923   */\n      dup5\n        /* \"--CODEGEN--\":907:913   */\n      dup3\n        /* \"--CODEGEN--\":896:905   */\n      dup6\n        /* \"--CODEGEN--\":892:914   */\n      add\n        /* \"--CODEGEN--\":861:924   */\n      tag_85\n      jump\t// in\n    tag_102:\n        /* \"--CODEGEN--\":851:924   */\n      swap2\n      pop\n        /* \"--CODEGEN--\":737:930   */\n      pop\n        /* \"--CODEGEN--\":669:940   */\n      swap3\n      swap2\n      pop\n      pop\n      jump\t// out\n        /* \"--CODEGEN--\":947:1650   */\n    tag_29:\n      0x00\n      dup1\n      0x00\n        /* \"--CODEGEN--\":1105:1107   */\n      0x60\n        /* \"--CODEGEN--\":1093:1102   */\n      dup5\n        /* \"--CODEGEN--\":1084:1091   */\n      dup7\n        /* \"--CODEGEN--\":1080:1103   */\n      sub\n        /* \"--CODEGEN--\":1076:1108   */\n      slt\n        /* \"--CODEGEN--\":1073:1075   */\n      iszero\n      tag_104\n      jumpi\n        /* \"--CODEGEN--\":1121:1122   */\n      0x00\n        /* \"--CODEGEN--\":1118:1119   */\n      dup1\n        /* \"--CODEGEN--\":1111:1123   */\n      revert\n        /* \"--CODEGEN--\":1073:1075   */\n    tag_104:\n        /* \"--CODEGEN--\":1184:1185   */\n      0x00\n        /* \"--CODEGEN--\":1173:1182   */\n      dup5\n        /* \"--CODEGEN--\":1169:1186   */\n      add\n        /* \"--CODEGEN--\":1156:1187   */\n      calldataload\n        /* \"--CODEGEN--\":1207:1225   */\n      0xffffffffffffffff\n        /* \"--CODEGEN--\":1199:1205   */\n      dup2\n        /* \"--CODEGEN--\":1196:1226   */\n      gt\n        /* \"--CODEGEN--\":1193:1195   */\n      iszero\n      tag_105\n      jumpi\n        /* \"--CODEGEN--\":1239:1240   */\n      0x00\n        /* \"--CODEGEN--\":1236:1237   */\n      dup1\n        /* \"--CODEGEN--\":1229:1241   */\n      revert\n        /* \"--CODEGEN--\":1193:1195   */\n    tag_105:\n        /* \"--CODEGEN--\":1259:1322   */\n      tag_106\n        /* \"--CODEGEN--\":1314:1321   */\n      dup7\n        /* \"--CODEGEN--\":1305:1311   */\n      dup3\n        /* \"--CODEGEN--\":1294:1303   */\n      dup8\n        /* \"--CODEGEN--\":1290:1312   */\n      add\n        /* \"--CODEGEN--\":1259:1322   */\n      tag_85\n      jump\t// in\n    tag_106:\n        /* \"--CODEGEN--\":1249:1322   */\n      swap4\n      pop\n        /* \"--CODEGEN--\":1135:1328   */\n      pop\n        /* \"--CODEGEN--\":1359:1361   */\n      0x20\n        /* \"--CODEGEN--\":1377:1430   */\n      tag_107\n        /* \"--CODEGEN--\":1422:1429   */\n      dup7\n        /* \"--CODEGEN--\":1413:1419   */\n      dup3\n        /* \"--CODEGEN--\":1402:1411   */\n      dup8\n        /* \"--CODEGEN--\":1398:1420   */\n      add\n        /* \"--CODEGEN--\":1377:1430   */\n      tag_95\n      jump\t// in\n    tag_107:\n        /* \"--CODEGEN--\":1367:1430   */\n      swap3\n      pop\n        /* \"--CODEGEN--\":1338:1436   */\n      pop\n        /* \"--CODEGEN--\":1495:1497   */\n      0x40\n        /* \"--CODEGEN--\":1484:1493   */\n      dup5\n        /* \"--CODEGEN--\":1480:1498   */\n      add\n        /* \"--CODEGEN--\":1467:1499   */\n      calldataload\n        /* \"--CODEGEN--\":1519:1537   */\n      0xffffffffffffffff\n        /* \"--CODEGEN--\":1511:1517   */\n      dup2\n        /* \"--CODEGEN--\":1508:1538   */\n      gt\n        /* \"--CODEGEN--\":1505:1507   */\n      iszero\n      tag_108\n      jumpi\n        /* \"--CODEGEN--\":1551:1552   */\n      0x00\n        /* \"--CODEGEN--\":1548:1549   */\n      dup1\n        /* \"--CODEGEN--\":1541:1553   */\n      revert\n        /* \"--CODEGEN--\":1505:1507   */\n    tag_108:\n        /* \"--CODEGEN--\":1571:1634   */\n      tag_109\n        /* \"--CODEGEN--\":1626:1633   */\n      dup7\n        /* \"--CODEGEN--\":1617:1623   */\n      dup3\n        /* \"--CODEGEN--\":1606:1615   */\n      dup8\n        /* \"--CODEGEN--\":1602:1624   */\n      add\n        /* \"--CODEGEN--\":1571:1634   */\n      tag_85\n      jump\t// in\n    tag_109:\n        /* \"--CODEGEN--\":1561:1634   */\n      swap2\n      pop\n        /* \"--CODEGEN--\":1446:1640   */\n      pop\n        /* \"--CODEGEN--\":1067:1650   */\n      swap3\n      pop\n      swap3\n      pop\n      swap3\n      jump\t// out\n        /* \"--CODEGEN--\":1658:1851   */\n    tag_110:\n      0x00\n        /* \"--CODEGEN--\":1779:1845   */\n      tag_112\n        /* \"--CODEGEN--\":1841:1844   */\n      dup4\n        /* \"--CODEGEN--\":1833:1839   */\n      dup4\n        /* \"--CODEGEN--\":1779:1845   */\n      tag_113\n      jump\t// in\n    tag_112:\n        /* \"--CODEGEN--\":1765:1845   */\n      swap1\n      pop\n        /* \"--CODEGEN--\":1758:1851   */\n      swap3\n      swap2\n      pop\n      pop\n      jump\t// out\n        /* \"--CODEGEN--\":1859:2043   */\n    tag_114:\n        /* \"--CODEGEN--\":1976:2037   */\n      tag_116\n        /* \"--CODEGEN--\":2004:2036   */\n      tag_117\n        /* \"--CODEGEN--\":2030:2035   */\n      dup3\n        /* \"--CODEGEN--\":2004:2036   */\n      tag_118\n      jump\t// in\n    tag_117:\n        /* \"--CODEGEN--\":1976:2037   */\n      tag_119\n      jump\t// in\n    tag_116:\n        /* \"--CODEGEN--\":1971:1974   */\n      dup3\n        /* \"--CODEGEN--\":1964:2038   */\n      mstore\n        /* \"--CODEGEN--\":1958:2043   */\n      pop\n      pop\n      jump\t// out\n        /* \"--CODEGEN--\":2050:2163   */\n    tag_120:\n        /* \"--CODEGEN--\":2133:2157   */\n      tag_122\n        /* \"--CODEGEN--\":2151:2156   */\n      dup2\n        /* \"--CODEGEN--\":2133:2157   */\n      tag_123\n      jump\t// in\n    tag_122:\n        /* \"--CODEGEN--\":2128:2131   */\n      dup3\n        /* \"--CODEGEN--\":2121:2158   */\n      mstore\n        /* \"--CODEGEN--\":2115:2163   */\n      pop\n      pop\n      jump\t// out\n        /* \"--CODEGEN--\":2199:3127   */\n    tag_124:\n      0x00\n        /* \"--CODEGEN--\":2364:2428   */\n      tag_126\n        /* \"--CODEGEN--\":2422:2427   */\n      dup3\n        /* \"--CODEGEN--\":2364:2428   */\n      tag_127\n      jump\t// in\n    tag_126:\n        /* \"--CODEGEN--\":2441:2537   */\n      tag_128\n        /* \"--CODEGEN--\":2530:2536   */\n      dup2\n        /* \"--CODEGEN--\":2525:2528   */\n      dup6\n        /* \"--CODEGEN--\":2441:2537   */\n      tag_129\n      jump\t// in\n    tag_128:\n        /* \"--CODEGEN--\":2434:2537   */\n      swap4\n      pop\n        /* \"--CODEGEN--\":2560:2563   */\n      dup4\n        /* \"--CODEGEN--\":2602:2606   */\n      0x20\n        /* \"--CODEGEN--\":2594:2600   */\n      dup3\n        /* \"--CODEGEN--\":2590:2607   */\n      mul\n        /* \"--CODEGEN--\":2585:2588   */\n      dup6\n        /* \"--CODEGEN--\":2581:2608   */\n      add\n        /* \"--CODEGEN--\":2629:2695   */\n      tag_130\n        /* \"--CODEGEN--\":2689:2694   */\n      dup6\n        /* \"--CODEGEN--\":2629:2695   */\n      tag_131\n      jump\t// in\n    tag_130:\n        /* \"--CODEGEN--\":2715:2722   */\n      dup1\n        /* \"--CODEGEN--\":2743:2744   */\n      0x00\n        /* \"--CODEGEN--\":2728:3088   */\n    tag_132:\n        /* \"--CODEGEN--\":2753:2759   */\n      dup6\n        /* \"--CODEGEN--\":2750:2751   */\n      dup2\n        /* \"--CODEGEN--\":2747:2760   */\n      lt\n        /* \"--CODEGEN--\":2728:3088   */\n      iszero\n      tag_134\n      jumpi\n        /* \"--CODEGEN--\":2815:2824   */\n      dup5\n        /* \"--CODEGEN--\":2809:2813   */\n      dup5\n        /* \"--CODEGEN--\":2805:2825   */\n      sub\n        /* \"--CODEGEN--\":2800:2803   */\n      dup10\n        /* \"--CODEGEN--\":2793:2826   */\n      mstore\n        /* \"--CODEGEN--\":2860:2866   */\n      dup2\n        /* \"--CODEGEN--\":2854:2867   */\n      mload\n        /* \"--CODEGEN--\":2882:2966   */\n      tag_135\n        /* \"--CODEGEN--\":2961:2965   */\n      dup6\n        /* \"--CODEGEN--\":2946:2959   */\n      dup3\n        /* \"--CODEGEN--\":2882:2966   */\n      tag_110\n      jump\t// in\n    tag_135:\n        /* \"--CODEGEN--\":2874:2966   */\n      swap5\n      pop\n        /* \"--CODEGEN--\":2983:3053   */\n      tag_136\n        /* \"--CODEGEN--\":3046:3052   */\n      dup4\n        /* \"--CODEGEN--\":2983:3053   */\n      tag_137\n      jump\t// in\n    tag_136:\n        /* \"--CODEGEN--\":2973:3053   */\n      swap3\n      pop\n        /* \"--CODEGEN--\":3076:3080   */\n      0x20\n        /* \"--CODEGEN--\":3071:3074   */\n      dup11\n        /* \"--CODEGEN--\":3067:3081   */\n      add\n        /* \"--CODEGEN--\":3060:3081   */\n      swap10\n      pop\n        /* \"--CODEGEN--\":2785:3088   */\n      pop\n        /* \"--CODEGEN--\":2775:2776   */\n      0x01\n        /* \"--CODEGEN--\":2772:2773   */\n      dup2\n        /* \"--CODEGEN--\":2768:2777   */\n      add\n        /* \"--CODEGEN--\":2763:2777   */\n      swap1\n      pop\n        /* \"--CODEGEN--\":2728:3088   */\n      jump(tag_132)\n    tag_134:\n        /* \"--CODEGEN--\":2732:2746   */\n      pop\n        /* \"--CODEGEN--\":3101:3105   */\n      dup3\n        /* \"--CODEGEN--\":3094:3105   */\n      swap8\n      pop\n        /* \"--CODEGEN--\":3118:3121   */\n      dup8\n        /* \"--CODEGEN--\":3111:3121   */\n      swap6\n      pop\n        /* \"--CODEGEN--\":2343:3127   */\n      pop\n      pop\n      pop\n      pop\n      pop\n      swap3\n      swap2\n      pop\n      pop\n      jump\t// out\n        /* \"--CODEGEN--\":3135:3462   */\n    tag_113:\n      0x00\n        /* \"--CODEGEN--\":3237:3276   */\n      tag_139\n        /* \"--CODEGEN--\":3270:3275   */\n      dup3\n        /* \"--CODEGEN--\":3237:3276   */\n      tag_140\n      jump\t// in\n    tag_139:\n        /* \"--CODEGEN--\":3288:3349   */\n      tag_141\n        /* \"--CODEGEN--\":3342:3348   */\n      dup2\n        /* \"--CODEGEN--\":3337:3340   */\n      dup6\n        /* \"--CODEGEN--\":3288:3349   */\n      tag_142\n      jump\t// in\n    tag_141:\n        /* \"--CODEGEN--\":3281:3349   */\n      swap4\n      pop\n        /* \"--CODEGEN--\":3354:3406   */\n      tag_143\n        /* \"--CODEGEN--\":3399:3405   */\n      dup2\n        /* \"--CODEGEN--\":3394:3397   */\n      dup6\n        /* \"--CODEGEN--\":3387:3391   */\n      0x20\n        /* \"--CODEGEN--\":3380:3385   */\n      dup7\n        /* \"--CODEGEN--\":3376:3392   */\n      add\n        /* \"--CODEGEN--\":3354:3406   */\n      tag_144\n      jump\t// in\n    tag_143:\n        /* \"--CODEGEN--\":3427:3456   */\n      tag_145\n        /* \"--CODEGEN--\":3449:3455   */\n      dup2\n        /* \"--CODEGEN--\":3427:3456   */\n      tag_146\n      jump\t// in\n    tag_145:\n        /* \"--CODEGEN--\":3422:3425   */\n      dup5\n        /* \"--CODEGEN--\":3418:3457   */\n      add\n        /* \"--CODEGEN--\":3411:3457   */\n      swap2\n      pop\n        /* \"--CODEGEN--\":3217:3462   */\n      pop\n      swap3\n      swap2\n      pop\n      pop\n      jump\t// out\n        /* \"--CODEGEN--\":3469:3816   */\n    tag_147:\n      0x00\n        /* \"--CODEGEN--\":3581:3620   */\n      tag_149\n        /* \"--CODEGEN--\":3614:3619   */\n      dup3\n        /* \"--CODEGEN--\":3581:3620   */\n      tag_140\n      jump\t// in\n    tag_149:\n        /* \"--CODEGEN--\":3632:3703   */\n      tag_150\n        /* \"--CODEGEN--\":3696:3702   */\n      dup2\n        /* \"--CODEGEN--\":3691:3694   */\n      dup6\n        /* \"--CODEGEN--\":3632:3703   */\n      tag_151\n      jump\t// in\n    tag_150:\n        /* \"--CODEGEN--\":3625:3703   */\n      swap4\n      pop\n        /* \"--CODEGEN--\":3708:3760   */\n      tag_152\n        /* \"--CODEGEN--\":3753:3759   */\n      dup2\n        /* \"--CODEGEN--\":3748:3751   */\n      dup6\n        /* \"--CODEGEN--\":3741:3745   */\n      0x20\n        /* \"--CODEGEN--\":3734:3739   */\n      dup7\n        /* \"--CODEGEN--\":3730:3746   */\n      add\n        /* \"--CODEGEN--\":3708:3760   */\n      tag_144\n      jump\t// in\n    tag_152:\n        /* \"--CODEGEN--\":3781:3810   */\n      tag_153\n        /* \"--CODEGEN--\":3803:3809   */\n      dup2\n        /* \"--CODEGEN--\":3781:3810   */\n      tag_146\n      jump\t// in\n    tag_153:\n        /* \"--CODEGEN--\":3776:3779   */\n      dup5\n        /* \"--CODEGEN--\":3772:3811   */\n      add\n        /* \"--CODEGEN--\":3765:3811   */\n      swap2\n      pop\n        /* \"--CODEGEN--\":3561:3816   */\n      pop\n      swap3\n      swap2\n      pop\n      pop\n      jump\t// out\n        /* \"--CODEGEN--\":3823:4183   */\n    tag_154:\n      0x00\n        /* \"--CODEGEN--\":3953:3992   */\n      tag_156\n        /* \"--CODEGEN--\":3986:3991   */\n      dup3\n        /* \"--CODEGEN--\":3953:3992   */\n      tag_140\n      jump\t// in\n    tag_156:\n        /* \"--CODEGEN--\":4004:4093   */\n      tag_157\n        /* \"--CODEGEN--\":4086:4092   */\n      dup2\n        /* \"--CODEGEN--\":4081:4084   */\n      dup6\n        /* \"--CODEGEN--\":4004:4093   */\n      tag_158\n      jump\t// in\n    tag_157:\n        /* \"--CODEGEN--\":3997:4093   */\n      swap4\n      pop\n        /* \"--CODEGEN--\":4098:4150   */\n      tag_159\n        /* \"--CODEGEN--\":4143:4149   */\n      dup2\n        /* \"--CODEGEN--\":4138:4141   */\n      dup6\n        /* \"--CODEGEN--\":4131:4135   */\n      0x20\n        /* \"--CODEGEN--\":4124:4129   */\n      dup7\n        /* \"--CODEGEN--\":4120:4136   */\n      add\n        /* \"--CODEGEN--\":4098:4150   */\n      tag_144\n      jump\t// in\n    tag_159:\n        /* \"--CODEGEN--\":4171:4177   */\n      dup1\n        /* \"--CODEGEN--\":4166:4169   */\n      dup5\n        /* \"--CODEGEN--\":4162:4178   */\n      add\n        /* \"--CODEGEN--\":4155:4178   */\n      swap2\n      pop\n        /* \"--CODEGEN--\":3933:4183   */\n      pop\n      swap3\n      swap2\n      pop\n      pop\n      jump\t// out\n        /* \"--CODEGEN--\":4215:5099   */\n    tag_160:\n      0x00\n        /* \"--CODEGEN--\":4352:4357   */\n      dup2\n        /* \"--CODEGEN--\":4346:4358   */\n      sload\n        /* \"--CODEGEN--\":4386:4387   */\n      0x01\n        /* \"--CODEGEN--\":4375:4384   */\n      dup2\n        /* \"--CODEGEN--\":4371:4388   */\n      and\n        /* \"--CODEGEN--\":4399:4400   */\n      0x00\n        /* \"--CODEGEN--\":4394:4662   */\n      dup2\n      eq\n      tag_163\n      jumpi\n        /* \"--CODEGEN--\":4673:4674   */\n      0x01\n        /* \"--CODEGEN--\":4668:5093   */\n      dup2\n      eq\n      tag_164\n      jumpi\n        /* \"--CODEGEN--\":4364:5093   */\n      jump(tag_162)\n        /* \"--CODEGEN--\":4394:4662   */\n    tag_163:\n        /* \"--CODEGEN--\":4472:4476   */\n      0x7f\n        /* \"--CODEGEN--\":4468:4469   */\n      0x02\n        /* \"--CODEGEN--\":4457:4466   */\n      dup4\n        /* \"--CODEGEN--\":4453:4470   */\n      div\n        /* \"--CODEGEN--\":4449:4477   */\n      and\n        /* \"--CODEGEN--\":4491:4580   */\n      tag_165\n        /* \"--CODEGEN--\":4573:4579   */\n      dup2\n        /* \"--CODEGEN--\":4568:4571   */\n      dup8\n        /* \"--CODEGEN--\":4491:4580   */\n      tag_158\n      jump\t// in\n    tag_165:\n        /* \"--CODEGEN--\":4484:4580   */\n      swap6\n      pop\n        /* \"--CODEGEN--\":4618:4622   */\n      0xff\n        /* \"--CODEGEN--\":4614:4623   */\n      not\n        /* \"--CODEGEN--\":4603:4612   */\n      dup4\n        /* \"--CODEGEN--\":4599:4624   */\n      and\n        /* \"--CODEGEN--\":4594:4597   */\n      dup7\n        /* \"--CODEGEN--\":4587:4625   */\n      mstore\n        /* \"--CODEGEN--\":4648:4654   */\n      dup1\n        /* \"--CODEGEN--\":4643:4646   */\n      dup7\n        /* \"--CODEGEN--\":4639:4655   */\n      add\n        /* \"--CODEGEN--\":4632:4655   */\n      swap4\n      pop\n        /* \"--CODEGEN--\":4401:4662   */\n      pop\n        /* \"--CODEGEN--\":4394:4662   */\n      jump(tag_162)\n        /* \"--CODEGEN--\":4668:5093   */\n    tag_164:\n        /* \"--CODEGEN--\":4737:4738   */\n      0x02\n        /* \"--CODEGEN--\":4726:4735   */\n      dup3\n        /* \"--CODEGEN--\":4722:4739   */\n      div\n        /* \"--CODEGEN--\":4753:4842   */\n      tag_166\n        /* \"--CODEGEN--\":4835:4841   */\n      dup2\n        /* \"--CODEGEN--\":4830:4833   */\n      dup8\n        /* \"--CODEGEN--\":4753:4842   */\n      tag_158\n      jump\t// in\n    tag_166:\n        /* \"--CODEGEN--\":4746:4842   */\n      swap6\n      pop\n        /* \"--CODEGEN--\":4864:4902   */\n      tag_167\n        /* \"--CODEGEN--\":4896:4901   */\n      dup6\n        /* \"--CODEGEN--\":4864:4902   */\n      tag_168\n      jump\t// in\n    tag_167:\n        /* \"--CODEGEN--\":4918:4919   */\n      0x00\n        /* \"--CODEGEN--\":4926:5056   */\n    tag_169:\n        /* \"--CODEGEN--\":4940:4946   */\n      dup3\n        /* \"--CODEGEN--\":4937:4938   */\n      dup2\n        /* \"--CODEGEN--\":4934:4947   */\n      lt\n        /* \"--CODEGEN--\":4926:5056   */\n      iszero\n      tag_171\n      jumpi\n        /* \"--CODEGEN--\":5005:5012   */\n      dup2\n        /* \"--CODEGEN--\":4999:5013   */\n      sload\n        /* \"--CODEGEN--\":4995:4996   */\n      dup2\n        /* \"--CODEGEN--\":4990:4993   */\n      dup10\n        /* \"--CODEGEN--\":4986:4997   */\n      add\n        /* \"--CODEGEN--\":4979:5014   */\n      mstore\n        /* \"--CODEGEN--\":5046:5047   */\n      0x01\n        /* \"--CODEGEN--\":5037:5044   */\n      dup3\n        /* \"--CODEGEN--\":5033:5048   */\n      add\n        /* \"--CODEGEN--\":5022:5048   */\n      swap2\n      pop\n        /* \"--CODEGEN--\":4962:4966   */\n      0x20\n        /* \"--CODEGEN--\":4959:4960   */\n      dup2\n        /* \"--CODEGEN--\":4955:4967   */\n      add\n        /* \"--CODEGEN--\":4950:4967   */\n      swap1\n      pop\n        /* \"--CODEGEN--\":4926:5056   */\n      jump(tag_169)\n    tag_171:\n        /* \"--CODEGEN--\":5079:5085   */\n      dup3\n        /* \"--CODEGEN--\":5074:5077   */\n      dup9\n        /* \"--CODEGEN--\":5070:5086   */\n      add\n        /* \"--CODEGEN--\":5063:5086   */\n      swap6\n      pop\n        /* \"--CODEGEN--\":4675:5093   */\n      pop\n      pop\n      pop\n        /* \"--CODEGEN--\":4364:5093   */\n    tag_162:\n      pop\n        /* \"--CODEGEN--\":4322:5099   */\n      pop\n      swap3\n      swap2\n      pop\n      pop\n      jump\t// out\n        /* \"--CODEGEN--\":5108:5435   */\n    tag_172:\n      0x00\n        /* \"--CODEGEN--\":5268:5335   */\n      tag_174\n        /* \"--CODEGEN--\":5332:5334   */\n      0x1b\n        /* \"--CODEGEN--\":5327:5330   */\n      dup4\n        /* \"--CODEGEN--\":5268:5335   */\n      tag_151\n      jump\t// in\n    tag_174:\n        /* \"--CODEGEN--\":5261:5335   */\n      swap2\n      pop\n        /* \"--CODEGEN--\":5368:5397   */\n      0x596120736520686120766f7461646f207072657669616d656e74650000000000\n        /* \"--CODEGEN--\":5364:5365   */\n      0x00\n        /* \"--CODEGEN--\":5359:5362   */\n      dup4\n        /* \"--CODEGEN--\":5355:5366   */\n      add\n        /* \"--CODEGEN--\":5348:5398   */\n      mstore\n        /* \"--CODEGEN--\":5426:5428   */\n      0x20\n        /* \"--CODEGEN--\":5421:5424   */\n      dup3\n        /* \"--CODEGEN--\":5417:5429   */\n      add\n        /* \"--CODEGEN--\":5410:5429   */\n      swap1\n      pop\n        /* \"--CODEGEN--\":5254:5435   */\n      swap2\n      swap1\n      pop\n      jump\t// out\n        /* \"--CODEGEN--\":5444:5780   */\n    tag_175:\n      0x00\n        /* \"--CODEGEN--\":5622:5706   */\n      tag_177\n        /* \"--CODEGEN--\":5704:5705   */\n      0x02\n        /* \"--CODEGEN--\":5699:5702   */\n      dup4\n        /* \"--CODEGEN--\":5622:5706   */\n      tag_158\n      jump\t// in\n    tag_177:\n        /* \"--CODEGEN--\":5615:5706   */\n      swap2\n      pop\n        /* \"--CODEGEN--\":5739:5743   */\n      0x207c000000000000000000000000000000000000000000000000000000000000\n        /* \"--CODEGEN--\":5735:5736   */\n      0x00\n        /* \"--CODEGEN--\":5730:5733   */\n      dup4\n        /* \"--CODEGEN--\":5726:5737   */\n      add\n        /* \"--CODEGEN--\":5719:5744   */\n      mstore\n        /* \"--CODEGEN--\":5772:5773   */\n      0x02\n        /* \"--CODEGEN--\":5767:5770   */\n      dup3\n        /* \"--CODEGEN--\":5763:5774   */\n      add\n        /* \"--CODEGEN--\":5756:5774   */\n      swap1\n      pop\n        /* \"--CODEGEN--\":5608:5780   */\n      swap2\n      swap1\n      pop\n      jump\t// out\n        /* \"--CODEGEN--\":5789:6124   */\n    tag_178:\n      0x00\n        /* \"--CODEGEN--\":5967:6051   */\n      tag_180\n        /* \"--CODEGEN--\":6049:6050   */\n      0x01\n        /* \"--CODEGEN--\":6044:6047   */\n      dup4\n        /* \"--CODEGEN--\":5967:6051   */\n      tag_158\n      jump\t// in\n    tag_180:\n        /* \"--CODEGEN--\":5960:6051   */\n      swap2\n      pop\n        /* \"--CODEGEN--\":6084:6087   */\n      0x2000000000000000000000000000000000000000000000000000000000000000\n        /* \"--CODEGEN--\":6080:6081   */\n      0x00\n        /* \"--CODEGEN--\":6075:6078   */\n      dup4\n        /* \"--CODEGEN--\":6071:6082   */\n      add\n        /* \"--CODEGEN--\":6064:6088   */\n      mstore\n        /* \"--CODEGEN--\":6116:6117   */\n      0x01\n        /* \"--CODEGEN--\":6111:6114   */\n      dup3\n        /* \"--CODEGEN--\":6107:6118   */\n      add\n        /* \"--CODEGEN--\":6100:6118   */\n      swap1\n      pop\n        /* \"--CODEGEN--\":5953:6124   */\n      swap2\n      swap1\n      pop\n      jump\t// out\n        /* \"--CODEGEN--\":6133:6469   */\n    tag_181:\n      0x00\n        /* \"--CODEGEN--\":6311:6395   */\n      tag_183\n        /* \"--CODEGEN--\":6393:6394   */\n      0x02\n        /* \"--CODEGEN--\":6388:6391   */\n      dup4\n        /* \"--CODEGEN--\":6311:6395   */\n      tag_158\n      jump\t// in\n    tag_183:\n        /* \"--CODEGEN--\":6304:6395   */\n      swap2\n      pop\n        /* \"--CODEGEN--\":6428:6432   */\n      0x7c20000000000000000000000000000000000000000000000000000000000000\n        /* \"--CODEGEN--\":6424:6425   */\n      0x00\n        /* \"--CODEGEN--\":6419:6422   */\n      dup4\n        /* \"--CODEGEN--\":6415:6426   */\n      add\n        /* \"--CODEGEN--\":6408:6433   */\n      mstore\n        /* \"--CODEGEN--\":6461:6462   */\n      0x02\n        /* \"--CODEGEN--\":6456:6459   */\n      dup3\n        /* \"--CODEGEN--\":6452:6463   */\n      add\n        /* \"--CODEGEN--\":6445:6463   */\n      swap1\n      pop\n        /* \"--CODEGEN--\":6297:6469   */\n      swap2\n      swap1\n      pop\n      jump\t// out\n        /* \"--CODEGEN--\":6477:6590   */\n    tag_184:\n        /* \"--CODEGEN--\":6560:6584   */\n      tag_186\n        /* \"--CODEGEN--\":6578:6583   */\n      dup2\n        /* \"--CODEGEN--\":6560:6584   */\n      tag_187\n      jump\t// in\n    tag_186:\n        /* \"--CODEGEN--\":6555:6558   */\n      dup3\n        /* \"--CODEGEN--\":6548:6585   */\n      mstore\n        /* \"--CODEGEN--\":6542:6590   */\n      pop\n      pop\n      jump\t// out\n        /* \"--CODEGEN--\":6597:6749   */\n    tag_188:\n        /* \"--CODEGEN--\":6698:6743   */\n      tag_190\n        /* \"--CODEGEN--\":6718:6742   */\n      tag_191\n        /* \"--CODEGEN--\":6736:6741   */\n      dup3\n        /* \"--CODEGEN--\":6718:6742   */\n      tag_187\n      jump\t// in\n    tag_191:\n        /* \"--CODEGEN--\":6698:6743   */\n      tag_192\n      jump\t// in\n    tag_190:\n        /* \"--CODEGEN--\":6693:6696   */\n      dup3\n        /* \"--CODEGEN--\":6686:6744   */\n      mstore\n        /* \"--CODEGEN--\":6680:6749   */\n      pop\n      pop\n      jump\t// out\n        /* \"--CODEGEN--\":6756:7041   */\n    tag_65:\n      0x00\n        /* \"--CODEGEN--\":6900:6991   */\n      tag_194\n        /* \"--CODEGEN--\":6987:6990   */\n      dup3\n        /* \"--CODEGEN--\":6978:6984   */\n      dup5\n        /* \"--CODEGEN--\":6900:6991   */\n      tag_114\n      jump\t// in\n    tag_194:\n        /* \"--CODEGEN--\":7013:7015   */\n      0x14\n        /* \"--CODEGEN--\":7008:7011   */\n      dup3\n        /* \"--CODEGEN--\":7004:7016   */\n      add\n        /* \"--CODEGEN--\":6997:7016   */\n      swap2\n      pop\n        /* \"--CODEGEN--\":7033:7036   */\n      dup2\n        /* \"--CODEGEN--\":7026:7036   */\n      swap1\n      pop\n        /* \"--CODEGEN--\":6888:7041   */\n      swap3\n      swap2\n      pop\n      pop\n      jump\t// out\n        /* \"--CODEGEN--\":7048:7323   */\n    tag_36:\n      0x00\n        /* \"--CODEGEN--\":7203:7298   */\n      tag_196\n        /* \"--CODEGEN--\":7294:7297   */\n      dup3\n        /* \"--CODEGEN--\":7285:7291   */\n      dup5\n        /* \"--CODEGEN--\":7203:7298   */\n      tag_154\n      jump\t// in\n    tag_196:\n        /* \"--CODEGEN--\":7196:7298   */\n      swap2\n      pop\n        /* \"--CODEGEN--\":7315:7318   */\n      dup2\n        /* \"--CODEGEN--\":7308:7318   */\n      swap1\n      pop\n        /* \"--CODEGEN--\":7184:7323   */\n      swap3\n      swap2\n      pop\n      pop\n      jump\t// out\n        /* \"--CODEGEN--\":7330:8700   */\n    tag_55:\n      0x00\n        /* \"--CODEGEN--\":7861:7956   */\n      tag_198\n        /* \"--CODEGEN--\":7952:7955   */\n      dup3\n        /* \"--CODEGEN--\":7943:7949   */\n      dup7\n        /* \"--CODEGEN--\":7861:7956   */\n      tag_154\n      jump\t// in\n    tag_198:\n        /* \"--CODEGEN--\":7854:7956   */\n      swap2\n      pop\n        /* \"--CODEGEN--\":7974:8122   */\n      tag_199\n        /* \"--CODEGEN--\":8118:8121   */\n      dup3\n        /* \"--CODEGEN--\":7974:8122   */\n      tag_181\n      jump\t// in\n    tag_199:\n        /* \"--CODEGEN--\":7967:8122   */\n      swap2\n      pop\n        /* \"--CODEGEN--\":8140:8232   */\n      tag_200\n        /* \"--CODEGEN--\":8228:8231   */\n      dup3\n        /* \"--CODEGEN--\":8219:8225   */\n      dup6\n        /* \"--CODEGEN--\":8140:8232   */\n      tag_160\n      jump\t// in\n    tag_200:\n        /* \"--CODEGEN--\":8133:8232   */\n      swap2\n      pop\n        /* \"--CODEGEN--\":8250:8398   */\n      tag_201\n        /* \"--CODEGEN--\":8394:8397   */\n      dup3\n        /* \"--CODEGEN--\":8250:8398   */\n      tag_178\n      jump\t// in\n    tag_201:\n        /* \"--CODEGEN--\":8243:8398   */\n      swap2\n      pop\n        /* \"--CODEGEN--\":8409:8484   */\n      tag_202\n        /* \"--CODEGEN--\":8480:8483   */\n      dup3\n        /* \"--CODEGEN--\":8471:8477   */\n      dup5\n        /* \"--CODEGEN--\":8409:8484   */\n      tag_188\n      jump\t// in\n    tag_202:\n        /* \"--CODEGEN--\":8506:8508   */\n      0x20\n        /* \"--CODEGEN--\":8501:8504   */\n      dup3\n        /* \"--CODEGEN--\":8497:8509   */\n      add\n        /* \"--CODEGEN--\":8490:8509   */\n      swap2\n      pop\n        /* \"--CODEGEN--\":8527:8675   */\n      tag_203\n        /* \"--CODEGEN--\":8671:8674   */\n      dup3\n        /* \"--CODEGEN--\":8527:8675   */\n      tag_175\n      jump\t// in\n    tag_203:\n        /* \"--CODEGEN--\":8520:8675   */\n      swap2\n      pop\n        /* \"--CODEGEN--\":8692:8695   */\n      dup2\n        /* \"--CODEGEN--\":8685:8695   */\n      swap1\n      pop\n        /* \"--CODEGEN--\":7842:8700   */\n      swap5\n      swap4\n      pop\n      pop\n      pop\n      pop\n      jump\t// out\n        /* \"--CODEGEN--\":8707:9282   */\n    tag_58:\n      0x00\n        /* \"--CODEGEN--\":8938:9033   */\n      tag_205\n        /* \"--CODEGEN--\":9029:9032   */\n      dup3\n        /* \"--CODEGEN--\":9020:9026   */\n      dup7\n        /* \"--CODEGEN--\":8938:9033   */\n      tag_154\n      jump\t// in\n    tag_205:\n        /* \"--CODEGEN--\":8931:9033   */\n      swap2\n      pop\n        /* \"--CODEGEN--\":9044:9119   */\n      tag_206\n        /* \"--CODEGEN--\":9115:9118   */\n      dup3\n        /* \"--CODEGEN--\":9106:9112   */\n      dup6\n        /* \"--CODEGEN--\":9044:9119   */\n      tag_188\n      jump\t// in\n    tag_206:\n        /* \"--CODEGEN--\":9141:9143   */\n      0x20\n        /* \"--CODEGEN--\":9136:9139   */\n      dup3\n        /* \"--CODEGEN--\":9132:9144   */\n      add\n        /* \"--CODEGEN--\":9125:9144   */\n      swap2\n      pop\n        /* \"--CODEGEN--\":9162:9257   */\n      tag_207\n        /* \"--CODEGEN--\":9253:9256   */\n      dup3\n        /* \"--CODEGEN--\":9244:9250   */\n      dup5\n        /* \"--CODEGEN--\":9162:9257   */\n      tag_154\n      jump\t// in\n    tag_207:\n        /* \"--CODEGEN--\":9155:9257   */\n      swap2\n      pop\n        /* \"--CODEGEN--\":9274:9277   */\n      dup2\n        /* \"--CODEGEN--\":9267:9277   */\n      swap1\n      pop\n        /* \"--CODEGEN--\":8919:9282   */\n      swap5\n      swap4\n      pop\n      pop\n      pop\n      pop\n      jump\t// out\n        /* \"--CODEGEN--\":9289:9558   */\n    tag_53:\n      0x00\n        /* \"--CODEGEN--\":9441:9533   */\n      tag_209\n        /* \"--CODEGEN--\":9529:9532   */\n      dup3\n        /* \"--CODEGEN--\":9520:9526   */\n      dup5\n        /* \"--CODEGEN--\":9441:9533   */\n      tag_160\n      jump\t// in\n    tag_209:\n        /* \"--CODEGEN--\":9434:9533   */\n      swap2\n      pop\n        /* \"--CODEGEN--\":9550:9553   */\n      dup2\n        /* \"--CODEGEN--\":9543:9553   */\n      swap1\n      pop\n        /* \"--CODEGEN--\":9422:9558   */\n      swap3\n      swap2\n      pop\n      pop\n      jump\t// out\n        /* \"--CODEGEN--\":9565:9787   */\n    tag_18:\n      0x00\n        /* \"--CODEGEN--\":9692:9694   */\n      0x20\n        /* \"--CODEGEN--\":9681:9690   */\n      dup3\n        /* \"--CODEGEN--\":9677:9695   */\n      add\n        /* \"--CODEGEN--\":9669:9695   */\n      swap1\n      pop\n        /* \"--CODEGEN--\":9706:9777   */\n      tag_211\n        /* \"--CODEGEN--\":9774:9775   */\n      0x00\n        /* \"--CODEGEN--\":9763:9772   */\n      dup4\n        /* \"--CODEGEN--\":9759:9776   */\n      add\n        /* \"--CODEGEN--\":9750:9756   */\n      dup5\n        /* \"--CODEGEN--\":9706:9777   */\n      tag_120\n      jump\t// in\n    tag_211:\n        /* \"--CODEGEN--\":9663:9787   */\n      swap3\n      swap2\n      pop\n      pop\n      jump\t// out\n        /* \"--CODEGEN--\":9794:10204   */\n    tag_22:\n      0x00\n        /* \"--CODEGEN--\":9991:9993   */\n      0x20\n        /* \"--CODEGEN--\":9980:9989   */\n      dup3\n        /* \"--CODEGEN--\":9976:9994   */\n      add\n        /* \"--CODEGEN--\":9968:9994   */\n      swap1\n      pop\n        /* \"--CODEGEN--\":10041:10050   */\n      dup2\n        /* \"--CODEGEN--\":10035:10039   */\n      dup2\n        /* \"--CODEGEN--\":10031:10051   */\n      sub\n        /* \"--CODEGEN--\":10027:10028   */\n      0x00\n        /* \"--CODEGEN--\":10016:10025   */\n      dup4\n        /* \"--CODEGEN--\":10012:10029   */\n      add\n        /* \"--CODEGEN--\":10005:10052   */\n      mstore\n        /* \"--CODEGEN--\":10066:10194   */\n      tag_213\n        /* \"--CODEGEN--\":10189:10193   */\n      dup2\n        /* \"--CODEGEN--\":10180:10186   */\n      dup5\n        /* \"--CODEGEN--\":10066:10194   */\n      tag_124\n      jump\t// in\n    tag_213:\n        /* \"--CODEGEN--\":10058:10194   */\n      swap1\n      pop\n        /* \"--CODEGEN--\":9962:10204   */\n      swap3\n      swap2\n      pop\n      pop\n      jump\t// out\n        /* \"--CODEGEN--\":10211:10521   */\n    tag_26:\n      0x00\n        /* \"--CODEGEN--\":10358:10360   */\n      0x20\n        /* \"--CODEGEN--\":10347:10356   */\n      dup3\n        /* \"--CODEGEN--\":10343:10361   */\n      add\n        /* \"--CODEGEN--\":10335:10361   */\n      swap1\n      pop\n        /* \"--CODEGEN--\":10408:10417   */\n      dup2\n        /* \"--CODEGEN--\":10402:10406   */\n      dup2\n        /* \"--CODEGEN--\":10398:10418   */\n      sub\n        /* \"--CODEGEN--\":10394:10395   */\n      0x00\n        /* \"--CODEGEN--\":10383:10392   */\n      dup4\n        /* \"--CODEGEN--\":10379:10396   */\n      add\n        /* \"--CODEGEN--\":10372:10419   */\n      mstore\n        /* \"--CODEGEN--\":10433:10511   */\n      tag_215\n        /* \"--CODEGEN--\":10506:10510   */\n      dup2\n        /* \"--CODEGEN--\":10497:10503   */\n      dup5\n        /* \"--CODEGEN--\":10433:10511   */\n      tag_147\n      jump\t// in\n    tag_215:\n        /* \"--CODEGEN--\":10425:10511   */\n      swap1\n      pop\n        /* \"--CODEGEN--\":10329:10521   */\n      swap3\n      swap2\n      pop\n      pop\n      jump\t// out\n        /* \"--CODEGEN--\":10528:10944   */\n    tag_73:\n      0x00\n        /* \"--CODEGEN--\":10728:10730   */\n      0x20\n        /* \"--CODEGEN--\":10717:10726   */\n      dup3\n        /* \"--CODEGEN--\":10713:10731   */\n      add\n        /* \"--CODEGEN--\":10705:10731   */\n      swap1\n      pop\n        /* \"--CODEGEN--\":10778:10787   */\n      dup2\n        /* \"--CODEGEN--\":10772:10776   */\n      dup2\n        /* \"--CODEGEN--\":10768:10788   */\n      sub\n        /* \"--CODEGEN--\":10764:10765   */\n      0x00\n        /* \"--CODEGEN--\":10753:10762   */\n      dup4\n        /* \"--CODEGEN--\":10749:10766   */\n      add\n        /* \"--CODEGEN--\":10742:10789   */\n      mstore\n        /* \"--CODEGEN--\":10803:10934   */\n      tag_217\n        /* \"--CODEGEN--\":10929:10933   */\n      dup2\n        /* \"--CODEGEN--\":10803:10934   */\n      tag_172\n      jump\t// in\n    tag_217:\n        /* \"--CODEGEN--\":10795:10934   */\n      swap1\n      pop\n        /* \"--CODEGEN--\":10699:10944   */\n      swap2\n      swap1\n      pop\n      jump\t// out\n        /* \"--CODEGEN--\":10951:11173   */\n    tag_14:\n      0x00\n        /* \"--CODEGEN--\":11078:11080   */\n      0x20\n        /* \"--CODEGEN--\":11067:11076   */\n      dup3\n        /* \"--CODEGEN--\":11063:11081   */\n      add\n        /* \"--CODEGEN--\":11055:11081   */\n      swap1\n      pop\n        /* \"--CODEGEN--\":11092:11163   */\n      tag_219\n        /* \"--CODEGEN--\":11160:11161   */\n      0x00\n        /* \"--CODEGEN--\":11149:11158   */\n      dup4\n        /* \"--CODEGEN--\":11145:11162   */\n      add\n        /* \"--CODEGEN--\":11136:11142   */\n      dup5\n        /* \"--CODEGEN--\":11092:11163   */\n      tag_184\n      jump\t// in\n    tag_219:\n        /* \"--CODEGEN--\":11049:11173   */\n      swap3\n      swap2\n      pop\n      pop\n      jump\t// out\n        /* \"--CODEGEN--\":11180:11436   */\n    tag_91:\n      0x00\n        /* \"--CODEGEN--\":11242:11244   */\n      0x40\n        /* \"--CODEGEN--\":11236:11245   */\n      mload\n        /* \"--CODEGEN--\":11226:11245   */\n      swap1\n      pop\n        /* \"--CODEGEN--\":11280:11284   */\n      dup2\n        /* \"--CODEGEN--\":11272:11278   */\n      dup2\n        /* \"--CODEGEN--\":11268:11285   */\n      add\n        /* \"--CODEGEN--\":11379:11385   */\n      dup2\n        /* \"--CODEGEN--\":11367:11377   */\n      dup2\n        /* \"--CODEGEN--\":11364:11386   */\n      lt\n        /* \"--CODEGEN--\":11343:11361   */\n      0xffffffffffffffff\n        /* \"--CODEGEN--\":11331:11341   */\n      dup3\n        /* \"--CODEGEN--\":11328:11362   */\n      gt\n        /* \"--CODEGEN--\":11325:11387   */\n      or\n        /* \"--CODEGEN--\":11322:11324   */\n      iszero\n      tag_221\n      jumpi\n        /* \"--CODEGEN--\":11400:11401   */\n      0x00\n        /* \"--CODEGEN--\":11397:11398   */\n      dup1\n        /* \"--CODEGEN--\":11390:11402   */\n      revert\n        /* \"--CODEGEN--\":11322:11324   */\n    tag_221:\n        /* \"--CODEGEN--\":11420:11430   */\n      dup1\n        /* \"--CODEGEN--\":11416:11418   */\n      0x40\n        /* \"--CODEGEN--\":11409:11431   */\n      mstore\n        /* \"--CODEGEN--\":11220:11436   */\n      pop\n      swap2\n      swap1\n      pop\n      jump\t// out\n        /* \"--CODEGEN--\":11443:11765   */\n    tag_90:\n      0x00\n        /* \"--CODEGEN--\":11587:11605   */\n      0xffffffffffffffff\n        /* \"--CODEGEN--\":11579:11585   */\n      dup3\n        /* \"--CODEGEN--\":11576:11606   */\n      gt\n        /* \"--CODEGEN--\":11573:11575   */\n      iszero\n      tag_223\n      jumpi\n        /* \"--CODEGEN--\":11619:11620   */\n      0x00\n        /* \"--CODEGEN--\":11616:11617   */\n      dup1\n        /* \"--CODEGEN--\":11609:11621   */\n      revert\n        /* \"--CODEGEN--\":11573:11575   */\n    tag_223:\n        /* \"--CODEGEN--\":11686:11690   */\n      0x1f\n        /* \"--CODEGEN--\":11682:11691   */\n      not\n        /* \"--CODEGEN--\":11675:11679   */\n      0x1f\n        /* \"--CODEGEN--\":11667:11673   */\n      dup4\n        /* \"--CODEGEN--\":11663:11680   */\n      add\n        /* \"--CODEGEN--\":11659:11692   */\n      and\n        /* \"--CODEGEN--\":11651:11692   */\n      swap1\n      pop\n        /* \"--CODEGEN--\":11750:11754   */\n      0x20\n        /* \"--CODEGEN--\":11744:11748   */\n      dup2\n        /* \"--CODEGEN--\":11740:11755   */\n      add\n        /* \"--CODEGEN--\":11732:11755   */\n      swap1\n      pop\n        /* \"--CODEGEN--\":11510:11765   */\n      swap2\n      swap1\n      pop\n      jump\t// out\n        /* \"--CODEGEN--\":11772:11933   */\n    tag_131:\n      0x00\n        /* \"--CODEGEN--\":11868:11871   */\n      dup2\n        /* \"--CODEGEN--\":11860:11871   */\n      swap1\n      pop\n        /* \"--CODEGEN--\":11906:11910   */\n      0x20\n        /* \"--CODEGEN--\":11901:11904   */\n      dup3\n        /* \"--CODEGEN--\":11897:11911   */\n      add\n        /* \"--CODEGEN--\":11889:11911   */\n      swap1\n      pop\n        /* \"--CODEGEN--\":11854:11933   */\n      swap2\n      swap1\n      pop\n      jump\t// out\n        /* \"--CODEGEN--\":11940:12098   */\n    tag_168:\n      0x00\n        /* \"--CODEGEN--\":12008:12011   */\n      dup2\n        /* \"--CODEGEN--\":12000:12011   */\n      swap1\n      pop\n        /* \"--CODEGEN--\":12045:12048   */\n      dup2\n        /* \"--CODEGEN--\":12042:12043   */\n      0x00\n        /* \"--CODEGEN--\":12035:12049   */\n      mstore\n        /* \"--CODEGEN--\":12077:12081   */\n      0x20\n        /* \"--CODEGEN--\":12074:12075   */\n      0x00\n        /* \"--CODEGEN--\":12064:12082   */\n      keccak256\n        /* \"--CODEGEN--\":12056:12082   */\n      swap1\n      pop\n        /* \"--CODEGEN--\":11994:12098   */\n      swap2\n      swap1\n      pop\n      jump\t// out\n        /* \"--CODEGEN--\":12105:12252   */\n    tag_127:\n      0x00\n        /* \"--CODEGEN--\":12224:12229   */\n      dup2\n        /* \"--CODEGEN--\":12218:12230   */\n      mload\n        /* \"--CODEGEN--\":12208:12230   */\n      swap1\n      pop\n        /* \"--CODEGEN--\":12189:12252   */\n      swap2\n      swap1\n      pop\n      jump\t// out\n        /* \"--CODEGEN--\":12259:12381   */\n    tag_140:\n      0x00\n        /* \"--CODEGEN--\":12353:12358   */\n      dup2\n        /* \"--CODEGEN--\":12347:12359   */\n      mload\n        /* \"--CODEGEN--\":12337:12359   */\n      swap1\n      pop\n        /* \"--CODEGEN--\":12318:12381   */\n      swap2\n      swap1\n      pop\n      jump\t// out\n        /* \"--CODEGEN--\":12388:12506   */\n    tag_137:\n      0x00\n        /* \"--CODEGEN--\":12496:12500   */\n      0x20\n        /* \"--CODEGEN--\":12491:12494   */\n      dup3\n        /* \"--CODEGEN--\":12487:12501   */\n      add\n        /* \"--CODEGEN--\":12479:12501   */\n      swap1\n      pop\n        /* \"--CODEGEN--\":12473:12506   */\n      swap2\n      swap1\n      pop\n      jump\t// out\n        /* \"--CODEGEN--\":12514:12702   */\n    tag_129:\n      0x00\n        /* \"--CODEGEN--\":12654:12660   */\n      dup3\n        /* \"--CODEGEN--\":12649:12652   */\n      dup3\n        /* \"--CODEGEN--\":12642:12661   */\n      mstore\n        /* \"--CODEGEN--\":12691:12695   */\n      0x20\n        /* \"--CODEGEN--\":12686:12689   */\n      dup3\n        /* \"--CODEGEN--\":12682:12696   */\n      add\n        /* \"--CODEGEN--\":12667:12696   */\n      swap1\n      pop\n        /* \"--CODEGEN--\":12635:12702   */\n      swap3\n      swap2\n      pop\n      pop\n      jump\t// out\n        /* \"--CODEGEN--\":12711:12864   */\n    tag_142:\n      0x00\n        /* \"--CODEGEN--\":12816:12822   */\n      dup3\n        /* \"--CODEGEN--\":12811:12814   */\n      dup3\n        /* \"--CODEGEN--\":12804:12823   */\n      mstore\n        /* \"--CODEGEN--\":12853:12857   */\n      0x20\n        /* \"--CODEGEN--\":12848:12851   */\n      dup3\n        /* \"--CODEGEN--\":12844:12858   */\n      add\n        /* \"--CODEGEN--\":12829:12858   */\n      swap1\n      pop\n        /* \"--CODEGEN--\":12797:12864   */\n      swap3\n      swap2\n      pop\n      pop\n      jump\t// out\n        /* \"--CODEGEN--\":12873:13036   */\n    tag_151:\n      0x00\n        /* \"--CODEGEN--\":12988:12994   */\n      dup3\n        /* \"--CODEGEN--\":12983:12986   */\n      dup3\n        /* \"--CODEGEN--\":12976:12995   */\n      mstore\n        /* \"--CODEGEN--\":13025:13029   */\n      0x20\n        /* \"--CODEGEN--\":13020:13023   */\n      dup3\n        /* \"--CODEGEN--\":13016:13030   */\n      add\n        /* \"--CODEGEN--\":13001:13030   */\n      swap1\n      pop\n        /* \"--CODEGEN--\":12969:13036   */\n      swap3\n      swap2\n      pop\n      pop\n      jump\t// out\n        /* \"--CODEGEN--\":13045:13190   */\n    tag_158:\n      0x00\n        /* \"--CODEGEN--\":13181:13184   */\n      dup2\n        /* \"--CODEGEN--\":13166:13184   */\n      swap1\n      pop\n        /* \"--CODEGEN--\":13159:13190   */\n      swap3\n      swap2\n      pop\n      pop\n      jump\t// out\n        /* \"--CODEGEN--\":13198:13289   */\n    tag_123:\n      0x00\n        /* \"--CODEGEN--\":13260:13284   */\n      tag_234\n        /* \"--CODEGEN--\":13278:13283   */\n      dup3\n        /* \"--CODEGEN--\":13260:13284   */\n      tag_235\n      jump\t// in\n    tag_234:\n        /* \"--CODEGEN--\":13249:13284   */\n      swap1\n      pop\n        /* \"--CODEGEN--\":13243:13289   */\n      swap2\n      swap1\n      pop\n      jump\t// out\n        /* \"--CODEGEN--\":13296:13395   */\n    tag_118:\n      0x00\n        /* \"--CODEGEN--\":13366:13390   */\n      tag_237\n        /* \"--CODEGEN--\":13384:13389   */\n      dup3\n        /* \"--CODEGEN--\":13366:13390   */\n      tag_235\n      jump\t// in\n    tag_237:\n        /* \"--CODEGEN--\":13355:13390   */\n      swap1\n      pop\n        /* \"--CODEGEN--\":13349:13395   */\n      swap2\n      swap1\n      pop\n      jump\t// out\n        /* \"--CODEGEN--\":13402:13523   */\n    tag_235:\n      0x00\n        /* \"--CODEGEN--\":13475:13517   */\n      0xffffffffffffffffffffffffffffffffffffffff\n        /* \"--CODEGEN--\":13468:13473   */\n      dup3\n        /* \"--CODEGEN--\":13464:13518   */\n      and\n        /* \"--CODEGEN--\":13453:13518   */\n      swap1\n      pop\n        /* \"--CODEGEN--\":13447:13523   */\n      swap2\n      swap1\n      pop\n      jump\t// out\n        /* \"--CODEGEN--\":13530:13602   */\n    tag_187:\n      0x00\n        /* \"--CODEGEN--\":13592:13597   */\n      dup2\n        /* \"--CODEGEN--\":13581:13597   */\n      swap1\n      pop\n        /* \"--CODEGEN--\":13575:13602   */\n      swap2\n      swap1\n      pop\n      jump\t// out\n        /* \"--CODEGEN--\":13610:13755   */\n    tag_94:\n        /* \"--CODEGEN--\":13691:13697   */\n      dup3\n        /* \"--CODEGEN--\":13686:13689   */\n      dup2\n        /* \"--CODEGEN--\":13681:13684   */\n      dup4\n        /* \"--CODEGEN--\":13668:13698   */\n      calldatacopy\n        /* \"--CODEGEN--\":13747:13748   */\n      0x00\n        /* \"--CODEGEN--\":13738:13744   */\n      dup4\n        /* \"--CODEGEN--\":13733:13736   */\n      dup4\n        /* \"--CODEGEN--\":13729:13745   */\n      add\n        /* \"--CODEGEN--\":13722:13749   */\n      mstore\n        /* \"--CODEGEN--\":13661:13755   */\n      pop\n      pop\n      pop\n      jump\t// out\n        /* \"--CODEGEN--\":13764:14032   */\n    tag_144:\n        /* \"--CODEGEN--\":13829:13830   */\n      0x00\n        /* \"--CODEGEN--\":13836:13937   */\n    tag_242:\n        /* \"--CODEGEN--\":13850:13856   */\n      dup4\n        /* \"--CODEGEN--\":13847:13848   */\n      dup2\n        /* \"--CODEGEN--\":13844:13857   */\n      lt\n        /* \"--CODEGEN--\":13836:13937   */\n      iszero\n      tag_244\n      jumpi\n        /* \"--CODEGEN--\":13926:13927   */\n      dup1\n        /* \"--CODEGEN--\":13921:13924   */\n      dup3\n        /* \"--CODEGEN--\":13917:13928   */\n      add\n        /* \"--CODEGEN--\":13911:13929   */\n      mload\n        /* \"--CODEGEN--\":13907:13908   */\n      dup2\n        /* \"--CODEGEN--\":13902:13905   */\n      dup5\n        /* \"--CODEGEN--\":13898:13909   */\n      add\n        /* \"--CODEGEN--\":13891:13930   */\n      mstore\n        /* \"--CODEGEN--\":13872:13874   */\n      0x20\n        /* \"--CODEGEN--\":13869:13870   */\n      dup2\n        /* \"--CODEGEN--\":13865:13875   */\n      add\n        /* \"--CODEGEN--\":13860:13875   */\n      swap1\n      pop\n        /* \"--CODEGEN--\":13836:13937   */\n      jump(tag_242)\n    tag_244:\n        /* \"--CODEGEN--\":13952:13958   */\n      dup4\n        /* \"--CODEGEN--\":13949:13950   */\n      dup2\n        /* \"--CODEGEN--\":13946:13959   */\n      gt\n        /* \"--CODEGEN--\":13943:13945   */\n      iszero\n      tag_245\n      jumpi\n        /* \"--CODEGEN--\":14017:14018   */\n      0x00\n        /* \"--CODEGEN--\":14008:14014   */\n      dup5\n        /* \"--CODEGEN--\":14003:14006   */\n      dup5\n        /* \"--CODEGEN--\":13999:14015   */\n      add\n        /* \"--CODEGEN--\":13992:14019   */\n      mstore\n        /* \"--CODEGEN--\":13943:13945   */\n    tag_245:\n        /* \"--CODEGEN--\":13813:14032   */\n      pop\n      pop\n      pop\n      pop\n      jump\t// out\n        /* \"--CODEGEN--\":14040:14143   */\n    tag_119:\n      0x00\n        /* \"--CODEGEN--\":14112:14138   */\n      tag_247\n        /* \"--CODEGEN--\":14132:14137   */\n      dup3\n        /* \"--CODEGEN--\":14112:14138   */\n      tag_248\n      jump\t// in\n    tag_247:\n        /* \"--CODEGEN--\":14101:14138   */\n      swap1\n      pop\n        /* \"--CODEGEN--\":14095:14143   */\n      swap2\n      swap1\n      pop\n      jump\t// out\n        /* \"--CODEGEN--\":14150:14239   */\n    tag_248:\n      0x00\n        /* \"--CODEGEN--\":14214:14234   */\n      tag_250\n        /* \"--CODEGEN--\":14228:14233   */\n      dup3\n        /* \"--CODEGEN--\":14214:14234   */\n      tag_251\n      jump\t// in\n    tag_250:\n        /* \"--CODEGEN--\":14203:14234   */\n      swap1\n      pop\n        /* \"--CODEGEN--\":14197:14239   */\n      swap2\n      swap1\n      pop\n      jump\t// out\n        /* \"--CODEGEN--\":14246:14320   */\n    tag_192:\n      0x00\n        /* \"--CODEGEN--\":14310:14315   */\n      dup2\n        /* \"--CODEGEN--\":14299:14315   */\n      swap1\n      pop\n        /* \"--CODEGEN--\":14293:14320   */\n      swap2\n      swap1\n      pop\n      jump\t// out\n        /* \"--CODEGEN--\":14327:14424   */\n    tag_146:\n      0x00\n        /* \"--CODEGEN--\":14415:14417   */\n      0x1f\n        /* \"--CODEGEN--\":14411:14418   */\n      not\n        /* \"--CODEGEN--\":14406:14408   */\n      0x1f\n        /* \"--CODEGEN--\":14399:14404   */\n      dup4\n        /* \"--CODEGEN--\":14395:14409   */\n      add\n        /* \"--CODEGEN--\":14391:14419   */\n      and\n        /* \"--CODEGEN--\":14381:14419   */\n      swap1\n      pop\n        /* \"--CODEGEN--\":14375:14424   */\n      swap2\n      swap1\n      pop\n      jump\t// out\n        /* \"--CODEGEN--\":14432:14526   */\n    tag_251:\n      0x00\n        /* \"--CODEGEN--\":14510:14515   */\n      dup2\n        /* \"--CODEGEN--\":14506:14508   */\n      0x60\n        /* \"--CODEGEN--\":14502:14516   */\n      shl\n        /* \"--CODEGEN--\":14480:14516   */\n      swap1\n      pop\n        /* \"--CODEGEN--\":14474:14526   */\n      swap2\n      swap1\n      pop\n      jump\t// out\n        /* \"--CODEGEN--\":14534:14651   */\n    tag_98:\n        /* \"--CODEGEN--\":14603:14627   */\n      tag_256\n        /* \"--CODEGEN--\":14621:14626   */\n      dup2\n        /* \"--CODEGEN--\":14603:14627   */\n      tag_187\n      jump\t// in\n    tag_256:\n        /* \"--CODEGEN--\":14596:14601   */\n      dup2\n        /* \"--CODEGEN--\":14593:14628   */\n      eq\n        /* \"--CODEGEN--\":14583:14585   */\n      tag_257\n      jumpi\n        /* \"--CODEGEN--\":14642:14643   */\n      0x00\n        /* \"--CODEGEN--\":14639:14640   */\n      dup1\n        /* \"--CODEGEN--\":14632:14644   */\n      revert\n        /* \"--CODEGEN--\":14583:14585   */\n    tag_257:\n        /* \"--CODEGEN--\":14577:14651   */\n      pop\n      jump\t// out\n\n    auxdata: 0xa26469706673582212207e6dc9fbd8982ffe2bb811c0b3cfceafc7241401b64d6e683ea3907c49c7f85d64736f6c634300060c0033\n}\n",
				"bytecode": {
					"linkReferences": {},
					"object": "608060405234801561001057600080fd5b50336000806101000a81548173ffffffffffffffffffffffffffffffffffffffff021916908373ffffffffffffffffffffffffffffffffffffffff160217905550610cc7806100606000396000f3fe608060405234801561001057600080fd5b50600436106100625760003560e01c80634c25de51146100675780638da5cb5b14610097578063bfc2e938146100b5578063e7bf56fa146100d3578063f01ca6b7146100f1578063febe07dc1461010d575b600080fd5b610081600480360381019061007c919061058b565b610129565b60405161008e9190610aa4565b60405180910390f35b61009f610151565b6040516100ac9190610a25565b60405180910390f35b6100bd610175565b6040516100ca9190610a40565b60405180910390f35b6100db61025e565b6040516100e89190610a62565b60405180910390f35b61010b600480360381019061010691906105cc565b6102f3565b005b6101276004803603810190610122919061058b565b610387565b005b600060028260405161013b919061096c565b9081526020016040518091039020549050919050565b60008054906101000a900473ffffffffffffffffffffffffffffffffffffffff1681565b60606003805480602002602001604051908101604052809291908181526020016000905b82821015610255578382906000526020600020018054600181600116156101000203166002900480601f0160208091040260200160405190810160405280929190818152602001828054600181600116156101000203166002900480156102415780601f1061021657610100808354040283529160200191610241565b820191906000526020600020905b81548152906001019060200180831161022457829003601f168201915b505050505081526020019060010190610199565b50505050905090565b60608060005b6003805490508110156102ee57816003828154811061027f57fe5b9060005260206000200160026003848154811061029857fe5b906000526020600020016040516102af9190610a0e565b9081526020016040518091039020546040516020016102d093929190610983565b60405160208183030381529060405291508080600101915050610264565b505090565b600083838360405160200161030a939291906109d9565b60405160208183030381529060405280519060200120905080600185604051610333919061096c565b908152602001604051809103902081905550600384908060018154018082558091505060019003906000526020600020016000909190919091509080519060200190610380929190610485565b5050505050565b60003360405160200161039a9190610951565b60405160208183030381529060405280519060200120905060005b60048054905081101561042957600481815481106103cf57fe5b906000526020600020015482141561041c576040517f08c379a000000000000000000000000000000000000000000000000000000000815260040161041390610a84565b60405180910390fd5b80806001019150506103b5565b506004819080600181540180825580915050600190039060005260206000200160009091909190915055600282604051610463919061096c565b9081526020016040518091039020600081548092919060010191905055505050565b828054600181600116156101000203166002900490600052602060002090601f016020900481019282601f106104c657805160ff19168380011785556104f4565b828001600101855582156104f4579182015b828111156104f35782518255916020019190600101906104d8565b5b5090506105019190610505565b5090565b5b8082111561051e576000816000905550600101610506565b5090565b600082601f83011261053357600080fd5b813561054661054182610aec565b610abf565b9150808252602083016020830185838301111561056257600080fd5b61056d838284610bec565b50505092915050565b60008135905061058581610c7a565b92915050565b60006020828403121561059d57600080fd5b600082013567ffffffffffffffff8111156105b757600080fd5b6105c384828501610522565b91505092915050565b6000806000606084860312156105e157600080fd5b600084013567ffffffffffffffff8111156105fb57600080fd5b61060786828701610522565b935050602061061886828701610576565b925050604084013567ffffffffffffffff81111561063557600080fd5b61064186828701610522565b9150509250925092565b600061065783836106fa565b905092915050565b61067061066b82610bb0565b610c2e565b82525050565b61067f81610b9e565b82525050565b600061069082610b3d565b61069a8185610b60565b9350836020820285016106ac85610b18565b8060005b858110156106e857848403895281516106c9858261064b565b94506106d483610b53565b925060208a019950506001810190506106b0565b50829750879550505050505092915050565b600061070582610b48565b61070f8185610b71565b935061071f818560208601610bfb565b61072881610c5c565b840191505092915050565b600061073e82610b48565b6107488185610b82565b9350610758818560208601610bfb565b61076181610c5c565b840191505092915050565b600061077782610b48565b6107818185610b93565b9350610791818560208601610bfb565b80840191505092915050565b6000815460018116600081146107ba57600181146107df57610823565b607f60028304166107cb8187610b93565b955060ff1983168652808601935050610823565b600282046107ed8187610b93565b95506107f885610b28565b60005b8281101561081a578154818901526001820191506020810190506107fb565b82880195505050505b505092915050565b6000610838601b83610b82565b91507f596120736520686120766f7461646f207072657669616d656e746500000000006000830152602082019050919050565b6000610878600283610b93565b91507f207c0000000000000000000000000000000000000000000000000000000000006000830152600282019050919050565b60006108b8600183610b93565b91507f20000000000000000000000000000000000000000000000000000000000000006000830152600182019050919050565b60006108f8600283610b93565b91507f7c200000000000000000000000000000000000000000000000000000000000006000830152600282019050919050565b61093481610be2565b82525050565b61094b61094682610be2565b610c52565b82525050565b600061095d828461065f565b60148201915081905092915050565b6000610978828461076c565b915081905092915050565b600061098f828661076c565b915061099a826108eb565b91506109a6828561079d565b91506109b1826108ab565b91506109bd828461093a565b6020820191506109cc8261086b565b9150819050949350505050565b60006109e5828661076c565b91506109f1828561093a565b602082019150610a01828461076c565b9150819050949350505050565b6000610a1a828461079d565b915081905092915050565b6000602082019050610a3a6000830184610676565b92915050565b60006020820190508181036000830152610a5a8184610685565b905092915050565b60006020820190508181036000830152610a7c8184610733565b905092915050565b60006020820190508181036000830152610a9d8161082b565b9050919050565b6000602082019050610ab9600083018461092b565b92915050565b6000604051905081810181811067ffffffffffffffff82111715610ae257600080fd5b8060405250919050565b600067ffffffffffffffff821115610b0357600080fd5b601f19601f8301169050602081019050919050565b6000819050602082019050919050565b60008190508160005260206000209050919050565b600081519050919050565b600081519050919050565b6000602082019050919050565b600082825260208201905092915050565b600082825260208201905092915050565b600082825260208201905092915050565b600081905092915050565b6000610ba982610bc2565b9050919050565b6000610bbb82610bc2565b9050919050565b600073ffffffffffffffffffffffffffffffffffffffff82169050919050565b6000819050919050565b82818337600083830152505050565b60005b83811015610c19578082015181840152602081019050610bfe565b83811115610c28576000848401525b50505050565b6000610c3982610c40565b9050919050565b6000610c4b82610c6d565b9050919050565b6000819050919050565b6000601f19601f8301169050919050565b60008160601b9050919050565b610c8381610be2565b8114610c8e57600080fd5b5056fea26469706673582212207e6dc9fbd8982ffe2bb811c0b3cfceafc7241401b64d6e683ea3907c49c7f85d64736f6c634300060c0033",
					"opcodes": "PUSH1 0x80 PUSH1 0x40 MSTORE CALLVALUE DUP1 ISZERO PUSH2 0x10 JUMPI PUSH1 0x0 DUP1 REVERT JUMPDEST POP CALLER PUSH1 0x0 DUP1 PUSH2 0x100 EXP DUP2 SLOAD DUP2 PUSH20 0xFFFFFFFFFFFFFFFFFFFFFFFFFFFFFFFFFFFFFFFF MUL NOT AND SWAP1 DUP4 PUSH20 0xFFFFFFFFFFFFFFFFFFFFFFFFFFFFFFFFFFFFFFFF AND MUL OR SWAP1 SSTORE POP PUSH2 0xCC7 DUP1 PUSH2 0x60 PUSH1 0x0 CODECOPY PUSH1 0x0 RETURN INVALID PUSH1 0x80 PUSH1 0x40 MSTORE CALLVALUE DUP1 ISZERO PUSH2 0x10 JUMPI PUSH1 0x0 DUP1 REVERT JUMPDEST POP PUSH1 0x4 CALLDATASIZE LT PUSH2 0x62 JUMPI PUSH1 0x0 CALLDATALOAD PUSH1 0xE0 SHR DUP1 PUSH4 0x4C25DE51 EQ PUSH2 0x67 JUMPI DUP1 PUSH4 0x8DA5CB5B EQ PUSH2 0x97 JUMPI DUP1 PUSH4 0xBFC2E938 EQ PUSH2 0xB5 JUMPI DUP1 PUSH4 0xE7BF56FA EQ PUSH2 0xD3 JUMPI DUP1 PUSH4 0xF01CA6B7 EQ PUSH2 0xF1 JUMPI DUP1 PUSH4 0xFEBE07DC EQ PUSH2 0x10D JUMPI JUMPDEST PUSH1 0x0 DUP1 REVERT JUMPDEST PUSH2 0x81 PUSH1 0x4 DUP1 CALLDATASIZE SUB DUP2 ADD SWAP1 PUSH2 0x7C SWAP2 SWAP1 PUSH2 0x58B JUMP JUMPDEST PUSH2 0x129 JUMP JUMPDEST PUSH1 0x40 MLOAD PUSH2 0x8E SWAP2 SWAP1 PUSH2 0xAA4 JUMP JUMPDEST PUSH1 0x40 MLOAD DUP1 SWAP2 SUB SWAP1 RETURN JUMPDEST PUSH2 0x9F PUSH2 0x151 JUMP JUMPDEST PUSH1 0x40 MLOAD PUSH2 0xAC SWAP2 SWAP1 PUSH2 0xA25 JUMP JUMPDEST PUSH1 0x40 MLOAD DUP1 SWAP2 SUB SWAP1 RETURN JUMPDEST PUSH2 0xBD PUSH2 0x175 JUMP JUMPDEST PUSH1 0x40 MLOAD PUSH2 0xCA SWAP2 SWAP1 PUSH2 0xA40 JUMP JUMPDEST PUSH1 0x40 MLOAD DUP1 SWAP2 SUB SWAP1 RETURN JUMPDEST PUSH2 0xDB PUSH2 0x25E JUMP JUMPDEST PUSH1 0x40 MLOAD PUSH2 0xE8 SWAP2 SWAP1 PUSH2 0xA62 JUMP JUMPDEST PUSH1 0x40 MLOAD DUP1 SWAP2 SUB SWAP1 RETURN JUMPDEST PUSH2 0x10B PUSH1 0x4 DUP1 CALLDATASIZE SUB DUP2 ADD SWAP1 PUSH2 0x106 SWAP2 SWAP1 PUSH2 0x5CC JUMP JUMPDEST PUSH2 0x2F3 JUMP JUMPDEST STOP JUMPDEST PUSH2 0x127 PUSH1 0x4 DUP1 CALLDATASIZE SUB DUP2 ADD SWAP1 PUSH2 0x122 SWAP2 SWAP1 PUSH2 0x58B JUMP JUMPDEST PUSH2 0x387 JUMP JUMPDEST STOP JUMPDEST PUSH1 0x0 PUSH1 0x2 DUP3 PUSH1 0x40 MLOAD PUSH2 0x13B SWAP2 SWAP1 PUSH2 0x96C JUMP JUMPDEST SWAP1 DUP2 MSTORE PUSH1 0x20 ADD PUSH1 0x40 MLOAD DUP1 SWAP2 SUB SWAP1 KECCAK256 SLOAD SWAP1 POP SWAP2 SWAP1 POP JUMP JUMPDEST PUSH1 0x0 DUP1 SLOAD SWAP1 PUSH2 0x100 EXP SWAP1 DIV PUSH20 0xFFFFFFFFFFFFFFFFFFFFFFFFFFFFFFFFFFFFFFFF AND DUP2 JUMP JUMPDEST PUSH1 0x60 PUSH1 0x3 DUP1 SLOAD DUP1 PUSH1 0x20 MUL PUSH1 0x20 ADD PUSH1 0x40 MLOAD SWAP1 DUP2 ADD PUSH1 0x40 MSTORE DUP1 SWAP3 SWAP2 SWAP1 DUP2 DUP2 MSTORE PUSH1 0x20 ADD PUSH1 0x0 SWAP1 JUMPDEST DUP3 DUP3 LT ISZERO PUSH2 0x255 JUMPI DUP4 DUP3 SWAP1 PUSH1 0x0 MSTORE PUSH1 0x20 PUSH1 0x0 KECCAK256 ADD DUP1 SLOAD PUSH1 0x1 DUP2 PUSH1 0x1 AND ISZERO PUSH2 0x100 MUL SUB AND PUSH1 0x2 SWAP1 DIV DUP1 PUSH1 0x1F ADD PUSH1 0x20 DUP1 SWAP2 DIV MUL PUSH1 0x20 ADD PUSH1 0x40 MLOAD SWAP1 DUP2 ADD PUSH1 0x40 MSTORE DUP1 SWAP3 SWAP2 SWAP1 DUP2 DUP2 MSTORE PUSH1 0x20 ADD DUP3 DUP1 SLOAD PUSH1 0x1 DUP2 PUSH1 0x1 AND ISZERO PUSH2 0x100 MUL SUB AND PUSH1 0x2 SWAP1 DIV DUP1 ISZERO PUSH2 0x241 JUMPI DUP1 PUSH1 0x1F LT PUSH2 0x216 JUMPI PUSH2 0x100 DUP1 DUP4 SLOAD DIV MUL DUP4 MSTORE SWAP2 PUSH1 0x20 ADD SWAP2 PUSH2 0x241 JUMP JUMPDEST DUP3 ADD SWAP2 SWAP1 PUSH1 0x0 MSTORE PUSH1 0x20 PUSH1 0x0 KECCAK256 SWAP1 JUMPDEST DUP2 SLOAD DUP2 MSTORE SWAP1 PUSH1 0x1 ADD SWAP1 PUSH1 0x20 ADD DUP1 DUP4 GT PUSH2 0x224 JUMPI DUP3 SWAP1 SUB PUSH1 0x1F AND DUP3 ADD SWAP2 JUMPDEST POP POP POP POP POP DUP2 MSTORE PUSH1 0x20 ADD SWAP1 PUSH1 0x1 ADD SWAP1 PUSH2 0x199 JUMP JUMPDEST POP POP POP POP SWAP1 POP SWAP1 JUMP JUMPDEST PUSH1 0x60 DUP1 PUSH1 0x0 JUMPDEST PUSH1 0x3 DUP1 SLOAD SWAP1 POP DUP2 LT ISZERO PUSH2 0x2EE JUMPI DUP2 PUSH1 0x3 DUP3 DUP2 SLOAD DUP2 LT PUSH2 0x27F JUMPI INVALID JUMPDEST SWAP1 PUSH1 0x0 MSTORE PUSH1 0x20 PUSH1 0x0 KECCAK256 ADD PUSH1 0x2 PUSH1 0x3 DUP5 DUP2 SLOAD DUP2 LT PUSH2 0x298 JUMPI INVALID JUMPDEST SWAP1 PUSH1 0x0 MSTORE PUSH1 0x20 PUSH1 0x0 KECCAK256 ADD PUSH1 0x40 MLOAD PUSH2 0x2AF SWAP2 SWAP1 PUSH2 0xA0E JUMP JUMPDEST SWAP1 DUP2 MSTORE PUSH1 0x20 ADD PUSH1 0x40 MLOAD DUP1 SWAP2 SUB SWAP1 KECCAK256 SLOAD PUSH1 0x40 MLOAD PUSH1 0x20 ADD PUSH2 0x2D0 SWAP4 SWAP3 SWAP2 SWAP1 PUSH2 0x983 JUMP JUMPDEST PUSH1 0x40 MLOAD PUSH1 0x20 DUP2 DUP4 SUB SUB DUP2 MSTORE SWAP1 PUSH1 0x40 MSTORE SWAP2 POP DUP1 DUP1 PUSH1 0x1 ADD SWAP2 POP POP PUSH2 0x264 JUMP JUMPDEST POP POP SWAP1 JUMP JUMPDEST PUSH1 0x0 DUP4 DUP4 DUP4 PUSH1 0x40 MLOAD PUSH1 0x20 ADD PUSH2 0x30A SWAP4 SWAP3 SWAP2 SWAP1 PUSH2 0x9D9 JUMP JUMPDEST PUSH1 0x40 MLOAD PUSH1 0x20 DUP2 DUP4 SUB SUB DUP2 MSTORE SWAP1 PUSH1 0x40 MSTORE DUP1 MLOAD SWAP1 PUSH1 0x20 ADD KECCAK256 SWAP1 POP DUP1 PUSH1 0x1 DUP6 PUSH1 0x40 MLOAD PUSH2 0x333 SWAP2 SWAP1 PUSH2 0x96C JUMP JUMPDEST SWAP1 DUP2 MSTORE PUSH1 0x20 ADD PUSH1 0x40 MLOAD DUP1 SWAP2 SUB SWAP1 KECCAK256 DUP2 SWAP1 SSTORE POP PUSH1 0x3 DUP5 SWAP1 DUP1 PUSH1 0x1 DUP2 SLOAD ADD DUP1 DUP3 SSTORE DUP1 SWAP2 POP POP PUSH1 0x1 SWAP1 SUB SWAP1 PUSH1 0x0 MSTORE PUSH1 0x20 PUSH1 0x0 KECCAK256 ADD PUSH1 0x0 SWAP1 SWAP2 SWAP1 SWAP2 SWAP1 SWAP2 POP SWAP1 DUP1 MLOAD SWAP1 PUSH1 0x20 ADD SWAP1 PUSH2 0x380 SWAP3 SWAP2 SWAP1 PUSH2 0x485 JUMP JUMPDEST POP POP POP POP POP JUMP JUMPDEST PUSH1 0x0 CALLER PUSH1 0x40 MLOAD PUSH1 0x20 ADD PUSH2 0x39A SWAP2 SWAP1 PUSH2 0x951 JUMP JUMPDEST PUSH1 0x40 MLOAD PUSH1 0x20 DUP2 DUP4 SUB SUB DUP2 MSTORE SWAP1 PUSH1 0x40 MSTORE DUP1 MLOAD SWAP1 PUSH1 0x20 ADD KECCAK256 SWAP1 POP PUSH1 0x0 JUMPDEST PUSH1 0x4 DUP1 SLOAD SWAP1 POP DUP2 LT ISZERO PUSH2 0x429 JUMPI PUSH1 0x4 DUP2 DUP2 SLOAD DUP2 LT PUSH2 0x3CF JUMPI INVALID JUMPDEST SWAP1 PUSH1 0x0 MSTORE PUSH1 0x20 PUSH1 0x0 KECCAK256 ADD SLOAD DUP3 EQ ISZERO PUSH2 0x41C JUMPI PUSH1 0x40 MLOAD PUSH32 0x8C379A000000000000000000000000000000000000000000000000000000000 DUP2 MSTORE PUSH1 0x4 ADD PUSH2 0x413 SWAP1 PUSH2 0xA84 JUMP JUMPDEST PUSH1 0x40 MLOAD DUP1 SWAP2 SUB SWAP1 REVERT JUMPDEST DUP1 DUP1 PUSH1 0x1 ADD SWAP2 POP POP PUSH2 0x3B5 JUMP JUMPDEST POP PUSH1 0x4 DUP2 SWAP1 DUP1 PUSH1 0x1 DUP2 SLOAD ADD DUP1 DUP3 SSTORE DUP1 SWAP2 POP POP PUSH1 0x1 SWAP1 SUB SWAP1 PUSH1 0x0 MSTORE PUSH1 0x20 PUSH1 0x0 KECCAK256 ADD PUSH1 0x0 SWAP1 SWAP2 SWAP1 SWAP2 SWAP1 SWAP2 POP SSTORE PUSH1 0x2 DUP3 PUSH1 0x40 MLOAD PUSH2 0x463 SWAP2 SWAP1 PUSH2 0x96C JUMP JUMPDEST SWAP1 DUP2 MSTORE PUSH1 0x20 ADD PUSH1 0x40 MLOAD DUP1 SWAP2 SUB SWAP1 KECCAK256 PUSH1 0x0 DUP2 SLOAD DUP1 SWAP3 SWAP2 SWAP1 PUSH1 0x1 ADD SWAP2 SWAP1 POP SSTORE POP POP POP JUMP JUMPDEST DUP3 DUP1 SLOAD PUSH1 0x1 DUP2 PUSH1 0x1 AND ISZERO PUSH2 0x100 MUL SUB AND PUSH1 0x2 SWAP1 DIV SWAP1 PUSH1 0x0 MSTORE PUSH1 0x20 PUSH1 0x0 KECCAK256 SWAP1 PUSH1 0x1F ADD PUSH1 0x20 SWAP1 DIV DUP2 ADD SWAP3 DUP3 PUSH1 0x1F LT PUSH2 0x4C6 JUMPI DUP1 MLOAD PUSH1 0xFF NOT AND DUP4 DUP1 ADD OR DUP6 SSTORE PUSH2 0x4F4 JUMP JUMPDEST DUP3 DUP1 ADD PUSH1 0x1 ADD DUP6 SSTORE DUP3 ISZERO PUSH2 0x4F4 JUMPI SWAP2 DUP3 ADD JUMPDEST DUP3 DUP2 GT ISZERO PUSH2 0x4F3 JUMPI DUP3 MLOAD DUP3 SSTORE SWAP2 PUSH1 0x20 ADD SWAP2 SWAP1 PUSH1 0x1 ADD SWAP1 PUSH2 0x4D8 JUMP JUMPDEST JUMPDEST POP SWAP1 POP PUSH2 0x501 SWAP2 SWAP1 PUSH2 0x505 JUMP JUMPDEST POP SWAP1 JUMP JUMPDEST JUMPDEST DUP1 DUP3 GT ISZERO PUSH2 0x51E JUMPI PUSH1 0x0 DUP2 PUSH1 0x0 SWAP1 SSTORE POP PUSH1 0x1 ADD PUSH2 0x506 JUMP JUMPDEST POP SWAP1 JUMP JUMPDEST PUSH1 0x0 DUP3 PUSH1 0x1F DUP4 ADD SLT PUSH2 0x533 JUMPI PUSH1 0x0 DUP1 REVERT JUMPDEST DUP2 CALLDATALOAD PUSH2 0x546 PUSH2 0x541 DUP3 PUSH2 0xAEC JUMP JUMPDEST PUSH2 0xABF JUMP JUMPDEST SWAP2 POP DUP1 DUP3 MSTORE PUSH1 0x20 DUP4 ADD PUSH1 0x20 DUP4 ADD DUP6 DUP4 DUP4 ADD GT ISZERO PUSH2 0x562 JUMPI PUSH1 0x0 DUP1 REVERT JUMPDEST PUSH2 0x56D DUP4 DUP3 DUP5 PUSH2 0xBEC JUMP JUMPDEST POP POP POP SWAP3 SWAP2 POP POP JUMP JUMPDEST PUSH1 0x0 DUP2 CALLDATALOAD SWAP1 POP PUSH2 0x585 DUP2 PUSH2 0xC7A JUMP JUMPDEST SWAP3 SWAP2 POP POP JUMP JUMPDEST PUSH1 0x0 PUSH1 0x20 DUP3 DUP5 SUB SLT ISZERO PUSH2 0x59D JUMPI PUSH1 0x0 DUP1 REVERT JUMPDEST PUSH1 0x0 DUP3 ADD CALLDATALOAD PUSH8 0xFFFFFFFFFFFFFFFF DUP2 GT ISZERO PUSH2 0x5B7 JUMPI PUSH1 0x0 DUP1 REVERT JUMPDEST PUSH2 0x5C3 DUP5 DUP3 DUP6 ADD PUSH2 0x522 JUMP JUMPDEST SWAP2 POP POP SWAP3 SWAP2 POP POP JUMP JUMPDEST PUSH1 0x0 DUP1 PUSH1 0x0 PUSH1 0x60 DUP5 DUP7 SUB SLT ISZERO PUSH2 0x5E1 JUMPI PUSH1 0x0 DUP1 REVERT JUMPDEST PUSH1 0x0 DUP5 ADD CALLDATALOAD PUSH8 0xFFFFFFFFFFFFFFFF DUP2 GT ISZERO PUSH2 0x5FB JUMPI PUSH1 0x0 DUP1 REVERT JUMPDEST PUSH2 0x607 DUP7 DUP3 DUP8 ADD PUSH2 0x522 JUMP JUMPDEST SWAP4 POP POP PUSH1 0x20 PUSH2 0x618 DUP7 DUP3 DUP8 ADD PUSH2 0x576 JUMP JUMPDEST SWAP3 POP POP PUSH1 0x40 DUP5 ADD CALLDATALOAD PUSH8 0xFFFFFFFFFFFFFFFF DUP2 GT ISZERO PUSH2 0x635 JUMPI PUSH1 0x0 DUP1 REVERT JUMPDEST PUSH2 0x641 DUP7 DUP3 DUP8 ADD PUSH2 0x522 JUMP JUMPDEST SWAP2 POP POP SWAP3 POP SWAP3 POP SWAP3 JUMP JUMPDEST PUSH1 0x0 PUSH2 0x657 DUP4 DUP4 PUSH2 0x6FA JUMP JUMPDEST SWAP1 POP SWAP3 SWAP2 POP POP JUMP JUMPDEST PUSH2 0x670 PUSH2 0x66B DUP3 PUSH2 0xBB0 JUMP JUMPDEST PUSH2 0xC2E JUMP JUMPDEST DUP3 MSTORE POP POP JUMP JUMPDEST PUSH2 0x67F DUP2 PUSH2 0xB9E JUMP JUMPDEST DUP3 MSTORE POP POP JUMP JUMPDEST PUSH1 0x0 PUSH2 0x690 DUP3 PUSH2 0xB3D JUMP JUMPDEST PUSH2 0x69A DUP2 DUP6 PUSH2 0xB60 JUMP JUMPDEST SWAP4 POP DUP4 PUSH1 0x20 DUP3 MUL DUP6 ADD PUSH2 0x6AC DUP6 PUSH2 0xB18 JUMP JUMPDEST DUP1 PUSH1 0x0 JUMPDEST DUP6 DUP2 LT ISZERO PUSH2 0x6E8 JUMPI DUP5 DUP5 SUB DUP10 MSTORE DUP2 MLOAD PUSH2 0x6C9 DUP6 DUP3 PUSH2 0x64B JUMP JUMPDEST SWAP5 POP PUSH2 0x6D4 DUP4 PUSH2 0xB53 JUMP JUMPDEST SWAP3 POP PUSH1 0x20 DUP11 ADD SWAP10 POP POP PUSH1 0x1 DUP2 ADD SWAP1 POP PUSH2 0x6B0 JUMP JUMPDEST POP DUP3 SWAP8 POP DUP8 SWAP6 POP POP POP POP POP POP SWAP3 SWAP2 POP POP JUMP JUMPDEST PUSH1 0x0 PUSH2 0x705 DUP3 PUSH2 0xB48 JUMP JUMPDEST PUSH2 0x70F DUP2 DUP6 PUSH2 0xB71 JUMP JUMPDEST SWAP4 POP PUSH2 0x71F DUP2 DUP6 PUSH1 0x20 DUP7 ADD PUSH2 0xBFB JUMP JUMPDEST PUSH2 0x728 DUP2 PUSH2 0xC5C JUMP JUMPDEST DUP5 ADD SWAP2 POP POP SWAP3 SWAP2 POP POP JUMP JUMPDEST PUSH1 0x0 PUSH2 0x73E DUP3 PUSH2 0xB48 JUMP JUMPDEST PUSH2 0x748 DUP2 DUP6 PUSH2 0xB82 JUMP JUMPDEST SWAP4 POP PUSH2 0x758 DUP2 DUP6 PUSH1 0x20 DUP7 ADD PUSH2 0xBFB JUMP JUMPDEST PUSH2 0x761 DUP2 PUSH2 0xC5C JUMP JUMPDEST DUP5 ADD SWAP2 POP POP SWAP3 SWAP2 POP POP JUMP JUMPDEST PUSH1 0x0 PUSH2 0x777 DUP3 PUSH2 0xB48 JUMP JUMPDEST PUSH2 0x781 DUP2 DUP6 PUSH2 0xB93 JUMP JUMPDEST SWAP4 POP PUSH2 0x791 DUP2 DUP6 PUSH1 0x20 DUP7 ADD PUSH2 0xBFB JUMP JUMPDEST DUP1 DUP5 ADD SWAP2 POP POP SWAP3 SWAP2 POP POP JUMP JUMPDEST PUSH1 0x0 DUP2 SLOAD PUSH1 0x1 DUP2 AND PUSH1 0x0 DUP2 EQ PUSH2 0x7BA JUMPI PUSH1 0x1 DUP2 EQ PUSH2 0x7DF JUMPI PUSH2 0x823 JUMP JUMPDEST PUSH1 0x7F PUSH1 0x2 DUP4 DIV AND PUSH2 0x7CB DUP2 DUP8 PUSH2 0xB93 JUMP JUMPDEST SWAP6 POP PUSH1 0xFF NOT DUP4 AND DUP7 MSTORE DUP1 DUP7 ADD SWAP4 POP POP PUSH2 0x823 JUMP JUMPDEST PUSH1 0x2 DUP3 DIV PUSH2 0x7ED DUP2 DUP8 PUSH2 0xB93 JUMP JUMPDEST SWAP6 POP PUSH2 0x7F8 DUP6 PUSH2 0xB28 JUMP JUMPDEST PUSH1 0x0 JUMPDEST DUP3 DUP2 LT ISZERO PUSH2 0x81A JUMPI DUP2 SLOAD DUP2 DUP10 ADD MSTORE PUSH1 0x1 DUP3 ADD SWAP2 POP PUSH1 0x20 DUP2 ADD SWAP1 POP PUSH2 0x7FB JUMP JUMPDEST DUP3 DUP9 ADD SWAP6 POP POP POP POP JUMPDEST POP POP SWAP3 SWAP2 POP POP JUMP JUMPDEST PUSH1 0x0 PUSH2 0x838 PUSH1 0x1B DUP4 PUSH2 0xB82 JUMP JUMPDEST SWAP2 POP PUSH32 0x596120736520686120766F7461646F207072657669616D656E74650000000000 PUSH1 0x0 DUP4 ADD MSTORE PUSH1 0x20 DUP3 ADD SWAP1 POP SWAP2 SWAP1 POP JUMP JUMPDEST PUSH1 0x0 PUSH2 0x878 PUSH1 0x2 DUP4 PUSH2 0xB93 JUMP JUMPDEST SWAP2 POP PUSH32 0x207C000000000000000000000000000000000000000000000000000000000000 PUSH1 0x0 DUP4 ADD MSTORE PUSH1 0x2 DUP3 ADD SWAP1 POP SWAP2 SWAP1 POP JUMP JUMPDEST PUSH1 0x0 PUSH2 0x8B8 PUSH1 0x1 DUP4 PUSH2 0xB93 JUMP JUMPDEST SWAP2 POP PUSH32 0x2000000000000000000000000000000000000000000000000000000000000000 PUSH1 0x0 DUP4 ADD MSTORE PUSH1 0x1 DUP3 ADD SWAP1 POP SWAP2 SWAP1 POP JUMP JUMPDEST PUSH1 0x0 PUSH2 0x8F8 PUSH1 0x2 DUP4 PUSH2 0xB93 JUMP JUMPDEST SWAP2 POP PUSH32 0x7C20000000000000000000000000000000000000000000000000000000000000 PUSH1 0x0 DUP4 ADD MSTORE PUSH1 0x2 DUP3 ADD SWAP1 POP SWAP2 SWAP1 POP JUMP JUMPDEST PUSH2 0x934 DUP2 PUSH2 0xBE2 JUMP JUMPDEST DUP3 MSTORE POP POP JUMP JUMPDEST PUSH2 0x94B PUSH2 0x946 DUP3 PUSH2 0xBE2 JUMP JUMPDEST PUSH2 0xC52 JUMP JUMPDEST DUP3 MSTORE POP POP JUMP JUMPDEST PUSH1 0x0 PUSH2 0x95D DUP3 DUP5 PUSH2 0x65F JUMP JUMPDEST PUSH1 0x14 DUP3 ADD SWAP2 POP DUP2 SWAP1 POP SWAP3 SWAP2 POP POP JUMP JUMPDEST PUSH1 0x0 PUSH2 0x978 DUP3 DUP5 PUSH2 0x76C JUMP JUMPDEST SWAP2 POP DUP2 SWAP1 POP SWAP3 SWAP2 POP POP JUMP JUMPDEST PUSH1 0x0 PUSH2 0x98F DUP3 DUP7 PUSH2 0x76C JUMP JUMPDEST SWAP2 POP PUSH2 0x99A DUP3 PUSH2 0x8EB JUMP JUMPDEST SWAP2 POP PUSH2 0x9A6 DUP3 DUP6 PUSH2 0x79D JUMP JUMPDEST SWAP2 POP PUSH2 0x9B1 DUP3 PUSH2 0x8AB JUMP JUMPDEST SWAP2 POP PUSH2 0x9BD DUP3 DUP5 PUSH2 0x93A JUMP JUMPDEST PUSH1 0x20 DUP3 ADD SWAP2 POP PUSH2 0x9CC DUP3 PUSH2 0x86B JUMP JUMPDEST SWAP2 POP DUP2 SWAP1 POP SWAP5 SWAP4 POP POP POP POP JUMP JUMPDEST PUSH1 0x0 PUSH2 0x9E5 DUP3 DUP7 PUSH2 0x76C JUMP JUMPDEST SWAP2 POP PUSH2 0x9F1 DUP3 DUP6 PUSH2 0x93A JUMP JUMPDEST PUSH1 0x20 DUP3 ADD SWAP2 POP PUSH2 0xA01 DUP3 DUP5 PUSH2 0x76C JUMP JUMPDEST SWAP2 POP DUP2 SWAP1 POP SWAP5 SWAP4 POP POP POP POP JUMP JUMPDEST PUSH1 0x0 PUSH2 0xA1A DUP3 DUP5 PUSH2 0x79D JUMP JUMPDEST SWAP2 POP DUP2 SWAP1 POP SWAP3 SWAP2 POP POP JUMP JUMPDEST PUSH1 0x0 PUSH1 0x20 DUP3 ADD SWAP1 POP PUSH2 0xA3A PUSH1 0x0 DUP4 ADD DUP5 PUSH2 0x676 JUMP JUMPDEST SWAP3 SWAP2 POP POP JUMP JUMPDEST PUSH1 0x0 PUSH1 0x20 DUP3 ADD SWAP1 POP DUP2 DUP2 SUB PUSH1 0x0 DUP4 ADD MSTORE PUSH2 0xA5A DUP2 DUP5 PUSH2 0x685 JUMP JUMPDEST SWAP1 POP SWAP3 SWAP2 POP POP JUMP JUMPDEST PUSH1 0x0 PUSH1 0x20 DUP3 ADD SWAP1 POP DUP2 DUP2 SUB PUSH1 0x0 DUP4 ADD MSTORE PUSH2 0xA7C DUP2 DUP5 PUSH2 0x733 JUMP JUMPDEST SWAP1 POP SWAP3 SWAP2 POP POP JUMP JUMPDEST PUSH1 0x0 PUSH1 0x20 DUP3 ADD SWAP1 POP DUP2 DUP2 SUB PUSH1 0x0 DUP4 ADD MSTORE PUSH2 0xA9D DUP2 PUSH2 0x82B JUMP JUMPDEST SWAP1 POP SWAP2 SWAP1 POP JUMP JUMPDEST PUSH1 0x0 PUSH1 0x20 DUP3 ADD SWAP1 POP PUSH2 0xAB9 PUSH1 0x0 DUP4 ADD DUP5 PUSH2 0x92B JUMP JUMPDEST SWAP3 SWAP2 POP POP JUMP JUMPDEST PUSH1 0x0 PUSH1 0x40 MLOAD SWAP1 POP DUP2 DUP2 ADD DUP2 DUP2 LT PUSH8 0xFFFFFFFFFFFFFFFF DUP3 GT OR ISZERO PUSH2 0xAE2 JUMPI PUSH1 0x0 DUP1 REVERT JUMPDEST DUP1 PUSH1 0x40 MSTORE POP SWAP2 SWAP1 POP JUMP JUMPDEST PUSH1 0x0 PUSH8 0xFFFFFFFFFFFFFFFF DUP3 GT ISZERO PUSH2 0xB03 JUMPI PUSH1 0x0 DUP1 REVERT JUMPDEST PUSH1 0x1F NOT PUSH1 0x1F DUP4 ADD AND SWAP1 POP PUSH1 0x20 DUP2 ADD SWAP1 POP SWAP2 SWAP1 POP JUMP JUMPDEST PUSH1 0x0 DUP2 SWAP1 POP PUSH1 0x20 DUP3 ADD SWAP1 POP SWAP2 SWAP1 POP JUMP JUMPDEST PUSH1 0x0 DUP2 SWAP1 POP DUP2 PUSH1 0x0 MSTORE PUSH1 0x20 PUSH1 0x0 KECCAK256 SWAP1 POP SWAP2 SWAP1 POP JUMP JUMPDEST PUSH1 0x0 DUP2 MLOAD SWAP1 POP SWAP2 SWAP1 POP JUMP JUMPDEST PUSH1 0x0 DUP2 MLOAD SWAP1 POP SWAP2 SWAP1 POP JUMP JUMPDEST PUSH1 0x0 PUSH1 0x20 DUP3 ADD SWAP1 POP SWAP2 SWAP1 POP JUMP JUMPDEST PUSH1 0x0 DUP3 DUP3 MSTORE PUSH1 0x20 DUP3 ADD SWAP1 POP SWAP3 SWAP2 POP POP JUMP JUMPDEST PUSH1 0x0 DUP3 DUP3 MSTORE PUSH1 0x20 DUP3 ADD SWAP1 POP SWAP3 SWAP2 POP POP JUMP JUMPDEST PUSH1 0x0 DUP3 DUP3 MSTORE PUSH1 0x20 DUP3 ADD SWAP1 POP SWAP3 SWAP2 POP POP JUMP JUMPDEST PUSH1 0x0 DUP2 SWAP1 POP SWAP3 SWAP2 POP POP JUMP JUMPDEST PUSH1 0x0 PUSH2 0xBA9 DUP3 PUSH2 0xBC2 JUMP JUMPDEST SWAP1 POP SWAP2 SWAP1 POP JUMP JUMPDEST PUSH1 0x0 PUSH2 0xBBB DUP3 PUSH2 0xBC2 JUMP JUMPDEST SWAP1 POP SWAP2 SWAP1 POP JUMP JUMPDEST PUSH1 0x0 PUSH20 0xFFFFFFFFFFFFFFFFFFFFFFFFFFFFFFFFFFFFFFFF DUP3 AND SWAP1 POP SWAP2 SWAP1 POP JUMP JUMPDEST PUSH1 0x0 DUP2 SWAP1 POP SWAP2 SWAP1 POP JUMP JUMPDEST DUP3 DUP2 DUP4 CALLDATACOPY PUSH1 0x0 DUP4 DUP4 ADD MSTORE POP POP POP JUMP JUMPDEST PUSH1 0x0 JUMPDEST DUP4 DUP2 LT ISZERO PUSH2 0xC19 JUMPI DUP1 DUP3 ADD MLOAD DUP2 DUP5 ADD MSTORE PUSH1 0x20 DUP2 ADD SWAP1 POP PUSH2 0xBFE JUMP JUMPDEST DUP4 DUP2 GT ISZERO PUSH2 0xC28 JUMPI PUSH1 0x0 DUP5 DUP5 ADD MSTORE JUMPDEST POP POP POP POP JUMP JUMPDEST PUSH1 0x0 PUSH2 0xC39 DUP3 PUSH2 0xC40 JUMP JUMPDEST SWAP1 POP SWAP2 SWAP1 POP JUMP JUMPDEST PUSH1 0x0 PUSH2 0xC4B DUP3 PUSH2 0xC6D JUMP JUMPDEST SWAP1 POP SWAP2 SWAP1 POP JUMP JUMPDEST PUSH1 0x0 DUP2 SWAP1 POP SWAP2 SWAP1 POP JUMP JUMPDEST PUSH1 0x0 PUSH1 0x1F NOT PUSH1 0x1F DUP4 ADD AND SWAP1 POP SWAP2 SWAP1 POP JUMP JUMPDEST PUSH1 0x0 DUP2 PUSH1 0x60 SHL SWAP1 POP SWAP2 SWAP1 POP JUMP JUMPDEST PUSH2 0xC83 DUP2 PUSH2 0xBE2 JUMP JUMPDEST DUP2 EQ PUSH2 0xC8E JUMPI PUSH1 0x0 DUP1 REVERT JUMPDEST POP JUMP INVALID LOG2 PUSH5 0x6970667358 0x22 SLT KECCAK256 PUSH31 0x6DC9FBD8982FFE2BB811C0B3CFCEAFC7241401B64D6E683EA3907C49C7F85D PUSH5 0x736F6C6343 STOP MOD 0xC STOP CALLER "
				},
				"gasEstimates": {
					"creation": {
						"codeDepositCost": "654200",
						"executionCost": "21555",
						"totalCost": "675755"
					},
					"external": {
						"Representar(string,uint256,string)": "infinite",
						"VerCandidatos()": "infinite",
						"VerResultados()": "infinite",
						"VerVotosCandidatos(string)": "infinite",
						"Votar(string)": "infinite",
						"owner()": "1211"
					},
					"internal": {
						"uint2str(uint256)": "infinite"
					}
				},
				"methodIdentifiers": {
					"Representar(string,uint256,string)": "f01ca6b7",
					"VerCandidatos()": "bfc2e938",
					"VerResultados()": "e7bf56fa",
					"VerVotosCandidatos(string)": "4c25de51",
					"Votar(string)": "febe07dc",
					"owner()": "8da5cb5b"
				}
			},
			"storageLayout": {
				"storage": [
					{
						"astId": 4,
						"contract": "Votaciones/votaciones.sol:votacion",
						"label": "owner",
						"offset": 0,
						"slot": "0",
						"type": "t_address"
					},
					{
						"astId": 8,
						"contract": "Votaciones/votaciones.sol:votacion",
						"label": "Candidato",
						"offset": 0,
						"slot": "1",
						"type": "t_mapping(t_string_memory_ptr,t_bytes32)"
					},
					{
						"astId": 12,
						"contract": "Votaciones/votaciones.sol:votacion",
						"label": "VotosCandidato",
						"offset": 0,
						"slot": "2",
						"type": "t_mapping(t_string_memory_ptr,t_uint256)"
					},
					{
						"astId": 15,
						"contract": "Votaciones/votaciones.sol:votacion",
						"label": "candidatos",
						"offset": 0,
						"slot": "3",
						"type": "t_array(t_string_storage)dyn_storage"
					},
					{
						"astId": 18,
						"contract": "Votaciones/votaciones.sol:votacion",
						"label": "votantes",
						"offset": 0,
						"slot": "4",
						"type": "t_array(t_bytes32)dyn_storage"
					}
				],
				"types": {
					"t_address": {
						"encoding": "inplace",
						"label": "address",
						"numberOfBytes": "20"
					},
					"t_array(t_bytes32)dyn_storage": {
						"base": "t_bytes32",
						"encoding": "dynamic_array",
						"label": "bytes32[]",
						"numberOfBytes": "32"
					},
					"t_array(t_string_storage)dyn_storage": {
						"base": "t_string_storage",
						"encoding": "dynamic_array",
						"label": "string[]",
						"numberOfBytes": "32"
					},
					"t_bytes32": {
						"encoding": "inplace",
						"label": "bytes32",
						"numberOfBytes": "32"
					},
					"t_mapping(t_string_memory_ptr,t_bytes32)": {
						"encoding": "mapping",
						"key": "t_string_memory_ptr",
						"label": "mapping(string => bytes32)",
						"numberOfBytes": "32",
						"value": "t_bytes32"
					},
					"t_mapping(t_string_memory_ptr,t_uint256)": {
						"encoding": "mapping",
						"key": "t_string_memory_ptr",
						"label": "mapping(string => uint256)",
						"numberOfBytes": "32",
						"value": "t_uint256"
					},
					"t_string_memory_ptr": {
						"encoding": "bytes",
						"label": "string",
						"numberOfBytes": "32"
					},
					"t_string_storage": {
						"encoding": "bytes",
						"label": "string",
						"numberOfBytes": "32"
					},
					"t_uint256": {
						"encoding": "inplace",
						"label": "uint256",
						"numberOfBytes": "32"
					}
				}
			},
			"userdoc": {
				"kind": "user",
				"methods": {},
				"version": 1
			}
		}
	}
}