{
	"Votaciones/votaciones.sol": {
		"votacion": {
			"abi": [
				{
					"inputs": [],
					"stateMutability": "nonpayable",
					"type": "constructor"
				},
				{
					"inputs": [
						{
							"internalType": "string",
							"name": "_nombre",
							"type": "string"
						},
						{
							"internalType": "uint256",
							"name": "_edad",
							"type": "uint256"
						},
						{
							"internalType": "string",
							"name": "_ID",
							"type": "string"
						}
					],
					"name": "Representar",
					"outputs": [],
					"stateMutability": "nonpayable",
					"type": "function"
				},
				{
					"inputs": [],
					"name": "VerCandidatos",
					"outputs": [
						{
							"internalType": "string[]",
							"name": "",
							"type": "string[]"
						}
					],
					"stateMutability": "view",
					"type": "function"
				},
				{
					"inputs": [
						{
							"internalType": "string",
							"name": "_candidato",
							"type": "string"
						}
					],
					"name": "Votar",
					"outputs": [],
					"stateMutability": "nonpayable",
					"type": "function"
				},
				{
					"inputs": [],
					"name": "owner",
					"outputs": [
						{
							"internalType": "address",
							"name": "",
							"type": "address"
						}
					],
					"stateMutability": "view",
					"type": "function"
				}
			],
			"devdoc": {
				"kind": "dev",
				"methods": {},
				"version": 1
			},
			"evm": {
				"assembly": "    /* \"Votaciones/votaciones.sol\":102:1602  contract votacion {\r... */\n  mstore(0x40, 0x80)\n    /* \"Votaciones/votaciones.sol\":619:678  constructor () public {\r... */\n  callvalue\n  dup1\n  iszero\n  tag_1\n  jumpi\n  0x00\n  dup1\n  revert\ntag_1:\n  pop\n    /* \"Votaciones/votaciones.sol\":660:670  msg.sender */\n  caller\n    /* \"Votaciones/votaciones.sol\":652:657  owner */\n  0x00\n  dup1\n    /* \"Votaciones/votaciones.sol\":652:670  owner = msg.sender */\n  0x0100\n  exp\n  dup2\n  sload\n  dup2\n  0xffffffffffffffffffffffffffffffffffffffff\n  mul\n  not\n  and\n  swap1\n  dup4\n  0xffffffffffffffffffffffffffffffffffffffff\n  and\n  mul\n  or\n  swap1\n  sstore\n  pop\n    /* \"Votaciones/votaciones.sol\":102:1602  contract votacion {\r... */\n  dataSize(sub_0)\n  dup1\n  dataOffset(sub_0)\n  0x00\n  codecopy\n  0x00\n  return\nstop\n\nsub_0: assembly {\n        /* \"Votaciones/votaciones.sol\":102:1602  contract votacion {\r... */\n      mstore(0x40, 0x80)\n      callvalue\n      dup1\n      iszero\n      tag_1\n      jumpi\n      0x00\n      dup1\n      revert\n    tag_1:\n      pop\n      jumpi(tag_2, lt(calldatasize, 0x04))\n      shr(0xe0, calldataload(0x00))\n      dup1\n      0x8da5cb5b\n      eq\n      tag_3\n      jumpi\n      dup1\n      0xbfc2e938\n      eq\n      tag_4\n      jumpi\n      dup1\n      0xf01ca6b7\n      eq\n      tag_5\n      jumpi\n      dup1\n      0xfebe07dc\n      eq\n      tag_6\n      jumpi\n    tag_2:\n      0x00\n      dup1\n      revert\n        /* \"Votaciones/votaciones.sol\":175:195  address public owner */\n    tag_3:\n      tag_7\n      tag_8\n      jump\t// in\n    tag_7:\n      mload(0x40)\n      tag_9\n      swap2\n      swap1\n      tag_10\n      jump\t// in\n    tag_9:\n      mload(0x40)\n      dup1\n      swap2\n      sub\n      swap1\n      return\n        /* \"Votaciones/votaciones.sol\":1262:1360  function VerCandidatos() public view returns(string[] memory) {\r... */\n    tag_4:\n      tag_11\n      tag_12\n      jump\t// in\n    tag_11:\n      mload(0x40)\n      tag_13\n      swap2\n      swap1\n      tag_14\n      jump\t// in\n    tag_13:\n      mload(0x40)\n      dup1\n      swap2\n      sub\n      swap1\n      return\n        /* \"Votaciones/votaciones.sol\":748:1172  function Representar(string memory _nombre, uint _edad, string memory _ID) public {\r... */\n    tag_5:\n      tag_15\n      0x04\n      dup1\n      calldatasize\n      sub\n      dup2\n      add\n      swap1\n      tag_16\n      swap2\n      swap1\n      tag_17\n      jump\t// in\n    tag_16:\n      tag_18\n      jump\t// in\n    tag_15:\n      stop\n        /* \"Votaciones/votaciones.sol\":1407:1599  function Votar(string memory _candidato) public {\r... */\n    tag_6:\n      tag_19\n      0x04\n      dup1\n      calldatasize\n      sub\n      dup2\n      add\n      swap1\n      tag_20\n      swap2\n      swap1\n      tag_21\n      jump\t// in\n    tag_20:\n      tag_22\n      jump\t// in\n    tag_19:\n      stop\n        /* \"Votaciones/votaciones.sol\":175:195  address public owner */\n    tag_8:\n      0x00\n      dup1\n      sload\n      swap1\n      0x0100\n      exp\n      swap1\n      div\n      0xffffffffffffffffffffffffffffffffffffffff\n      and\n      dup2\n      jump\t// out\n        /* \"Votaciones/votaciones.sol\":1262:1360  function VerCandidatos() public view returns(string[] memory) {\r... */\n    tag_12:\n        /* \"Votaciones/votaciones.sol\":1307:1322  string[] memory */\n      0x60\n        /* \"Votaciones/votaciones.sol\":1342:1352  candidatos */\n      0x03\n        /* \"Votaciones/votaciones.sol\":1335:1352  return candidatos */\n      dup1\n      sload\n      dup1\n      0x20\n      mul\n      0x20\n      add\n      mload(0x40)\n      swap1\n      dup2\n      add\n      0x40\n      mstore\n      dup1\n      swap3\n      swap2\n      swap1\n      dup2\n      dup2\n      mstore\n      0x20\n      add\n      0x00\n      swap1\n    tag_24:\n      dup3\n      dup3\n      lt\n      iszero\n      tag_25\n      jumpi\n      dup4\n      dup3\n      swap1\n      0x00\n      mstore\n      keccak256(0x00, 0x20)\n      add\n      dup1\n      sload\n      0x01\n      dup2\n      0x01\n      and\n      iszero\n      0x0100\n      mul\n      sub\n      and\n      0x02\n      swap1\n      div\n      dup1\n      0x1f\n      add\n      0x20\n      dup1\n      swap2\n      div\n      mul\n      0x20\n      add\n      mload(0x40)\n      swap1\n      dup2\n      add\n      0x40\n      mstore\n      dup1\n      swap3\n      swap2\n      swap1\n      dup2\n      dup2\n      mstore\n      0x20\n      add\n      dup3\n      dup1\n      sload\n      0x01\n      dup2\n      0x01\n      and\n      iszero\n      0x0100\n      mul\n      sub\n      and\n      0x02\n      swap1\n      div\n      dup1\n      iszero\n      tag_27\n      jumpi\n      dup1\n      0x1f\n      lt\n      tag_28\n      jumpi\n      0x0100\n      dup1\n      dup4\n      sload\n      div\n      mul\n      dup4\n      mstore\n      swap2\n      0x20\n      add\n      swap2\n      jump(tag_27)\n    tag_28:\n      dup3\n      add\n      swap2\n      swap1\n      0x00\n      mstore\n      keccak256(0x00, 0x20)\n      swap1\n    tag_29:\n      dup2\n      sload\n      dup2\n      mstore\n      swap1\n      0x01\n      add\n      swap1\n      0x20\n      add\n      dup1\n      dup4\n      gt\n      tag_29\n      jumpi\n      dup3\n      swap1\n      sub\n      0x1f\n      and\n      dup3\n      add\n      swap2\n    tag_27:\n      pop\n      pop\n      pop\n      pop\n      pop\n      dup2\n      mstore\n      0x20\n      add\n      swap1\n      0x01\n      add\n      swap1\n      jump(tag_24)\n    tag_25:\n      pop\n      pop\n      pop\n      pop\n      swap1\n      pop\n        /* \"Votaciones/votaciones.sol\":1262:1360  function VerCandidatos() public view returns(string[] memory) {\r... */\n      swap1\n      jump\t// out\n        /* \"Votaciones/votaciones.sol\":748:1172  function Representar(string memory _nombre, uint _edad, string memory _ID) public {\r... */\n    tag_18:\n        /* \"Votaciones/votaciones.sol\":884:905  bytes32 hashCandidato */\n      0x00\n        /* \"Votaciones/votaciones.sol\":935:942  _nombre */\n      dup4\n        /* \"Votaciones/votaciones.sol\":944:949  _edad */\n      dup4\n        /* \"Votaciones/votaciones.sol\":951:954  _ID */\n      dup4\n        /* \"Votaciones/votaciones.sol\":918:955  abi.encodePacked(_nombre, _edad, _ID) */\n      add(0x20, mload(0x40))\n      tag_31\n      swap4\n      swap3\n      swap2\n      swap1\n      tag_32\n      jump\t// in\n    tag_31:\n      mload(0x40)\n      0x20\n      dup2\n      dup4\n      sub\n      sub\n      dup2\n      mstore\n      swap1\n      0x40\n      mstore\n        /* \"Votaciones/votaciones.sol\":908:956  keccak256(abi.encodePacked(_nombre, _edad, _ID)) */\n      dup1\n      mload\n      swap1\n      0x20\n      add\n      keccak256\n        /* \"Votaciones/votaciones.sol\":884:956  bytes32 hashCandidato = keccak256(abi.encodePacked(_nombre, _edad, _ID)) */\n      swap1\n      pop\n        /* \"Votaciones/votaciones.sol\":1067:1080  hashCandidato */\n      dup1\n        /* \"Votaciones/votaciones.sol\":1046:1055  Candidato */\n      0x01\n        /* \"Votaciones/votaciones.sol\":1056:1063  _nombre */\n      dup6\n        /* \"Votaciones/votaciones.sol\":1046:1064  Candidato[_nombre] */\n      mload(0x40)\n      tag_33\n      swap2\n      swap1\n      tag_34\n      jump\t// in\n    tag_33:\n      swap1\n      dup2\n      mstore\n      0x20\n      add\n      mload(0x40)\n      dup1\n      swap2\n      sub\n      swap1\n      keccak256\n        /* \"Votaciones/votaciones.sol\":1046:1080  Candidato[_nombre] = hashCandidato */\n      dup2\n      swap1\n      sstore\n      pop\n        /* \"Votaciones/votaciones.sol\":1140:1150  candidatos */\n      0x03\n        /* \"Votaciones/votaciones.sol\":1156:1163  _nombre */\n      dup5\n        /* \"Votaciones/votaciones.sol\":1140:1164  candidatos.push(_nombre) */\n      swap1\n      dup1\n      0x01\n      dup2\n      sload\n      add\n      dup1\n      dup3\n      sstore\n      dup1\n      swap2\n      pop\n      pop\n      0x01\n      swap1\n      sub\n      swap1\n      0x00\n      mstore\n      keccak256(0x00, 0x20)\n      add\n      0x00\n      swap1\n      swap2\n      swap1\n      swap2\n      swap1\n      swap2\n      pop\n      swap1\n      dup1\n      mload\n      swap1\n      0x20\n      add\n      swap1\n      tag_36\n      swap3\n      swap2\n      swap1\n      tag_37\n      jump\t// in\n    tag_36:\n      pop\n        /* \"Votaciones/votaciones.sol\":748:1172  function Representar(string memory _nombre, uint _edad, string memory _ID) public {\r... */\n      pop\n      pop\n      pop\n      pop\n      jump\t// out\n        /* \"Votaciones/votaciones.sol\":1407:1599  function Votar(string memory _candidato) public {\r... */\n    tag_22:\n        /* \"Votaciones/votaciones.sol\":1496:1516  bytes32 hash_votante */\n      0x00\n        /* \"Votaciones/votaciones.sol\":1546:1556  msg.sender */\n      caller\n        /* \"Votaciones/votaciones.sol\":1529:1557  abi.encodePacked(msg.sender) */\n      add(0x20, mload(0x40))\n      tag_39\n      swap2\n      swap1\n      tag_40\n      jump\t// in\n    tag_39:\n      mload(0x40)\n      0x20\n      dup2\n      dup4\n      sub\n      sub\n      dup2\n      mstore\n      swap1\n      0x40\n      mstore\n        /* \"Votaciones/votaciones.sol\":1519:1558  keccak256(abi.encodePacked(msg.sender)) */\n      dup1\n      mload\n      swap1\n      0x20\n      add\n      keccak256\n        /* \"Votaciones/votaciones.sol\":1496:1558  bytes32 hash_votante = keccak256(abi.encodePacked(msg.sender)) */\n      swap1\n      pop\n        /* \"Votaciones/votaciones.sol\":1407:1599  function Votar(string memory _candidato) public {\r... */\n      pop\n      pop\n      jump\t// out\n    tag_37:\n      dup3\n      dup1\n      sload\n      0x01\n      dup2\n      0x01\n      and\n      iszero\n      0x0100\n      mul\n      sub\n      and\n      0x02\n      swap1\n      div\n      swap1\n      0x00\n      mstore\n      keccak256(0x00, 0x20)\n      swap1\n      0x1f\n      add\n      0x20\n      swap1\n      div\n      dup2\n      add\n      swap3\n      dup3\n      0x1f\n      lt\n      tag_42\n      jumpi\n      dup1\n      mload\n      not(0xff)\n      and\n      dup4\n      dup1\n      add\n      or\n      dup6\n      sstore\n      jump(tag_41)\n    tag_42:\n      dup3\n      dup1\n      add\n      0x01\n      add\n      dup6\n      sstore\n      dup3\n      iszero\n      tag_41\n      jumpi\n      swap2\n      dup3\n      add\n    tag_43:\n      dup3\n      dup2\n      gt\n      iszero\n      tag_44\n      jumpi\n      dup3\n      mload\n      dup3\n      sstore\n      swap2\n      0x20\n      add\n      swap2\n      swap1\n      0x01\n      add\n      swap1\n      jump(tag_43)\n    tag_44:\n    tag_41:\n      pop\n      swap1\n      pop\n      tag_45\n      swap2\n      swap1\n      tag_46\n      jump\t// in\n    tag_45:\n      pop\n      swap1\n      jump\t// out\n    tag_46:\n    tag_47:\n      dup1\n      dup3\n      gt\n      iszero\n      tag_48\n      jumpi\n      0x00\n      dup2\n      0x00\n      swap1\n      sstore\n      pop\n      0x01\n      add\n      jump(tag_47)\n    tag_48:\n      pop\n      swap1\n      jump\t// out\n        /* \"--CODEGEN--\":6:448   */\n    tag_50:\n      0x00\n        /* \"--CODEGEN--\":108:111   */\n      dup3\n        /* \"--CODEGEN--\":101:105   */\n      0x1f\n        /* \"--CODEGEN--\":93:99   */\n      dup4\n        /* \"--CODEGEN--\":89:106   */\n      add\n        /* \"--CODEGEN--\":85:112   */\n      slt\n        /* \"--CODEGEN--\":75:77   */\n      tag_52\n      jumpi\n        /* \"--CODEGEN--\":126:127   */\n      0x00\n        /* \"--CODEGEN--\":123:124   */\n      dup1\n        /* \"--CODEGEN--\":116:128   */\n      revert\n        /* \"--CODEGEN--\":75:77   */\n    tag_52:\n        /* \"--CODEGEN--\":163:169   */\n      dup2\n        /* \"--CODEGEN--\":150:170   */\n      calldataload\n        /* \"--CODEGEN--\":185:250   */\n      tag_53\n        /* \"--CODEGEN--\":200:249   */\n      tag_54\n        /* \"--CODEGEN--\":242:248   */\n      dup3\n        /* \"--CODEGEN--\":200:249   */\n      tag_55\n      jump\t// in\n    tag_54:\n        /* \"--CODEGEN--\":185:250   */\n      tag_56\n      jump\t// in\n    tag_53:\n        /* \"--CODEGEN--\":176:250   */\n      swap2\n      pop\n        /* \"--CODEGEN--\":270:276   */\n      dup1\n        /* \"--CODEGEN--\":263:268   */\n      dup3\n        /* \"--CODEGEN--\":256:277   */\n      mstore\n        /* \"--CODEGEN--\":306:310   */\n      0x20\n        /* \"--CODEGEN--\":298:304   */\n      dup4\n        /* \"--CODEGEN--\":294:311   */\n      add\n        /* \"--CODEGEN--\":339:343   */\n      0x20\n        /* \"--CODEGEN--\":332:337   */\n      dup4\n        /* \"--CODEGEN--\":328:344   */\n      add\n        /* \"--CODEGEN--\":374:377   */\n      dup6\n        /* \"--CODEGEN--\":365:371   */\n      dup4\n        /* \"--CODEGEN--\":360:363   */\n      dup4\n        /* \"--CODEGEN--\":356:372   */\n      add\n        /* \"--CODEGEN--\":353:378   */\n      gt\n        /* \"--CODEGEN--\":350:352   */\n      iszero\n      tag_57\n      jumpi\n        /* \"--CODEGEN--\":391:392   */\n      0x00\n        /* \"--CODEGEN--\":388:389   */\n      dup1\n        /* \"--CODEGEN--\":381:393   */\n      revert\n        /* \"--CODEGEN--\":350:352   */\n    tag_57:\n        /* \"--CODEGEN--\":401:442   */\n      tag_58\n        /* \"--CODEGEN--\":435:441   */\n      dup4\n        /* \"--CODEGEN--\":430:433   */\n      dup3\n        /* \"--CODEGEN--\":425:428   */\n      dup5\n        /* \"--CODEGEN--\":401:442   */\n      tag_59\n      jump\t// in\n    tag_58:\n        /* \"--CODEGEN--\":68:448   */\n      pop\n      pop\n      pop\n      swap3\n      swap2\n      pop\n      pop\n      jump\t// out\n        /* \"--CODEGEN--\":456:586   */\n    tag_60:\n      0x00\n        /* \"--CODEGEN--\":536:542   */\n      dup2\n        /* \"--CODEGEN--\":523:543   */\n      calldataload\n        /* \"--CODEGEN--\":514:543   */\n      swap1\n      pop\n        /* \"--CODEGEN--\":548:581   */\n      tag_62\n        /* \"--CODEGEN--\":575:580   */\n      dup2\n        /* \"--CODEGEN--\":548:581   */\n      tag_63\n      jump\t// in\n    tag_62:\n        /* \"--CODEGEN--\":508:586   */\n      swap3\n      swap2\n      pop\n      pop\n      jump\t// out\n        /* \"--CODEGEN--\":593:940   */\n    tag_21:\n      0x00\n        /* \"--CODEGEN--\":707:709   */\n      0x20\n        /* \"--CODEGEN--\":695:704   */\n      dup3\n        /* \"--CODEGEN--\":686:693   */\n      dup5\n        /* \"--CODEGEN--\":682:705   */\n      sub\n        /* \"--CODEGEN--\":678:710   */\n      slt\n        /* \"--CODEGEN--\":675:677   */\n      iszero\n      tag_65\n      jumpi\n        /* \"--CODEGEN--\":723:724   */\n      0x00\n        /* \"--CODEGEN--\":720:721   */\n      dup1\n        /* \"--CODEGEN--\":713:725   */\n      revert\n        /* \"--CODEGEN--\":675:677   */\n    tag_65:\n        /* \"--CODEGEN--\":786:787   */\n      0x00\n        /* \"--CODEGEN--\":775:784   */\n      dup3\n        /* \"--CODEGEN--\":771:788   */\n      add\n        /* \"--CODEGEN--\":758:789   */\n      calldataload\n        /* \"--CODEGEN--\":809:827   */\n      0xffffffffffffffff\n        /* \"--CODEGEN--\":801:807   */\n      dup2\n        /* \"--CODEGEN--\":798:828   */\n      gt\n        /* \"--CODEGEN--\":795:797   */\n      iszero\n      tag_66\n      jumpi\n        /* \"--CODEGEN--\":841:842   */\n      0x00\n        /* \"--CODEGEN--\":838:839   */\n      dup1\n        /* \"--CODEGEN--\":831:843   */\n      revert\n        /* \"--CODEGEN--\":795:797   */\n    tag_66:\n        /* \"--CODEGEN--\":861:924   */\n      tag_67\n        /* \"--CODEGEN--\":916:923   */\n      dup5\n        /* \"--CODEGEN--\":907:913   */\n      dup3\n        /* \"--CODEGEN--\":896:905   */\n      dup6\n        /* \"--CODEGEN--\":892:914   */\n      add\n        /* \"--CODEGEN--\":861:924   */\n      tag_50\n      jump\t// in\n    tag_67:\n        /* \"--CODEGEN--\":851:924   */\n      swap2\n      pop\n        /* \"--CODEGEN--\":737:930   */\n      pop\n        /* \"--CODEGEN--\":669:940   */\n      swap3\n      swap2\n      pop\n      pop\n      jump\t// out\n        /* \"--CODEGEN--\":947:1650   */\n    tag_17:\n      0x00\n      dup1\n      0x00\n        /* \"--CODEGEN--\":1105:1107   */\n      0x60\n        /* \"--CODEGEN--\":1093:1102   */\n      dup5\n        /* \"--CODEGEN--\":1084:1091   */\n      dup7\n        /* \"--CODEGEN--\":1080:1103   */\n      sub\n        /* \"--CODEGEN--\":1076:1108   */\n      slt\n        /* \"--CODEGEN--\":1073:1075   */\n      iszero\n      tag_69\n      jumpi\n        /* \"--CODEGEN--\":1121:1122   */\n      0x00\n        /* \"--CODEGEN--\":1118:1119   */\n      dup1\n        /* \"--CODEGEN--\":1111:1123   */\n      revert\n        /* \"--CODEGEN--\":1073:1075   */\n    tag_69:\n        /* \"--CODEGEN--\":1184:1185   */\n      0x00\n        /* \"--CODEGEN--\":1173:1182   */\n      dup5\n        /* \"--CODEGEN--\":1169:1186   */\n      add\n        /* \"--CODEGEN--\":1156:1187   */\n      calldataload\n        /* \"--CODEGEN--\":1207:1225   */\n      0xffffffffffffffff\n        /* \"--CODEGEN--\":1199:1205   */\n      dup2\n        /* \"--CODEGEN--\":1196:1226   */\n      gt\n        /* \"--CODEGEN--\":1193:1195   */\n      iszero\n      tag_70\n      jumpi\n        /* \"--CODEGEN--\":1239:1240   */\n      0x00\n        /* \"--CODEGEN--\":1236:1237   */\n      dup1\n        /* \"--CODEGEN--\":1229:1241   */\n      revert\n        /* \"--CODEGEN--\":1193:1195   */\n    tag_70:\n        /* \"--CODEGEN--\":1259:1322   */\n      tag_71\n        /* \"--CODEGEN--\":1314:1321   */\n      dup7\n        /* \"--CODEGEN--\":1305:1311   */\n      dup3\n        /* \"--CODEGEN--\":1294:1303   */\n      dup8\n        /* \"--CODEGEN--\":1290:1312   */\n      add\n        /* \"--CODEGEN--\":1259:1322   */\n      tag_50\n      jump\t// in\n    tag_71:\n        /* \"--CODEGEN--\":1249:1322   */\n      swap4\n      pop\n        /* \"--CODEGEN--\":1135:1328   */\n      pop\n        /* \"--CODEGEN--\":1359:1361   */\n      0x20\n        /* \"--CODEGEN--\":1377:1430   */\n      tag_72\n        /* \"--CODEGEN--\":1422:1429   */\n      dup7\n        /* \"--CODEGEN--\":1413:1419   */\n      dup3\n        /* \"--CODEGEN--\":1402:1411   */\n      dup8\n        /* \"--CODEGEN--\":1398:1420   */\n      add\n        /* \"--CODEGEN--\":1377:1430   */\n      tag_60\n      jump\t// in\n    tag_72:\n        /* \"--CODEGEN--\":1367:1430   */\n      swap3\n      pop\n        /* \"--CODEGEN--\":1338:1436   */\n      pop\n        /* \"--CODEGEN--\":1495:1497   */\n      0x40\n        /* \"--CODEGEN--\":1484:1493   */\n      dup5\n        /* \"--CODEGEN--\":1480:1498   */\n      add\n        /* \"--CODEGEN--\":1467:1499   */\n      calldataload\n        /* \"--CODEGEN--\":1519:1537   */\n      0xffffffffffffffff\n        /* \"--CODEGEN--\":1511:1517   */\n      dup2\n        /* \"--CODEGEN--\":1508:1538   */\n      gt\n        /* \"--CODEGEN--\":1505:1507   */\n      iszero\n      tag_73\n      jumpi\n        /* \"--CODEGEN--\":1551:1552   */\n      0x00\n        /* \"--CODEGEN--\":1548:1549   */\n      dup1\n        /* \"--CODEGEN--\":1541:1553   */\n      revert\n        /* \"--CODEGEN--\":1505:1507   */\n    tag_73:\n        /* \"--CODEGEN--\":1571:1634   */\n      tag_74\n        /* \"--CODEGEN--\":1626:1633   */\n      dup7\n        /* \"--CODEGEN--\":1617:1623   */\n      dup3\n        /* \"--CODEGEN--\":1606:1615   */\n      dup8\n        /* \"--CODEGEN--\":1602:1624   */\n      add\n        /* \"--CODEGEN--\":1571:1634   */\n      tag_50\n      jump\t// in\n    tag_74:\n        /* \"--CODEGEN--\":1561:1634   */\n      swap2\n      pop\n        /* \"--CODEGEN--\":1446:1640   */\n      pop\n        /* \"--CODEGEN--\":1067:1650   */\n      swap3\n      pop\n      swap3\n      pop\n      swap3\n      jump\t// out\n        /* \"--CODEGEN--\":1658:1851   */\n    tag_75:\n      0x00\n        /* \"--CODEGEN--\":1779:1845   */\n      tag_77\n        /* \"--CODEGEN--\":1841:1844   */\n      dup4\n        /* \"--CODEGEN--\":1833:1839   */\n      dup4\n        /* \"--CODEGEN--\":1779:1845   */\n      tag_78\n      jump\t// in\n    tag_77:\n        /* \"--CODEGEN--\":1765:1845   */\n      swap1\n      pop\n        /* \"--CODEGEN--\":1758:1851   */\n      swap3\n      swap2\n      pop\n      pop\n      jump\t// out\n        /* \"--CODEGEN--\":1859:2043   */\n    tag_79:\n        /* \"--CODEGEN--\":1976:2037   */\n      tag_81\n        /* \"--CODEGEN--\":2004:2036   */\n      tag_82\n        /* \"--CODEGEN--\":2030:2035   */\n      dup3\n        /* \"--CODEGEN--\":2004:2036   */\n      tag_83\n      jump\t// in\n    tag_82:\n        /* \"--CODEGEN--\":1976:2037   */\n      tag_84\n      jump\t// in\n    tag_81:\n        /* \"--CODEGEN--\":1971:1974   */\n      dup3\n        /* \"--CODEGEN--\":1964:2038   */\n      mstore\n        /* \"--CODEGEN--\":1958:2043   */\n      pop\n      pop\n      jump\t// out\n        /* \"--CODEGEN--\":2050:2163   */\n    tag_85:\n        /* \"--CODEGEN--\":2133:2157   */\n      tag_87\n        /* \"--CODEGEN--\":2151:2156   */\n      dup2\n        /* \"--CODEGEN--\":2133:2157   */\n      tag_88\n      jump\t// in\n    tag_87:\n        /* \"--CODEGEN--\":2128:2131   */\n      dup3\n        /* \"--CODEGEN--\":2121:2158   */\n      mstore\n        /* \"--CODEGEN--\":2115:2163   */\n      pop\n      pop\n      jump\t// out\n        /* \"--CODEGEN--\":2199:3127   */\n    tag_89:\n      0x00\n        /* \"--CODEGEN--\":2364:2428   */\n      tag_91\n        /* \"--CODEGEN--\":2422:2427   */\n      dup3\n        /* \"--CODEGEN--\":2364:2428   */\n      tag_92\n      jump\t// in\n    tag_91:\n        /* \"--CODEGEN--\":2441:2537   */\n      tag_93\n        /* \"--CODEGEN--\":2530:2536   */\n      dup2\n        /* \"--CODEGEN--\":2525:2528   */\n      dup6\n        /* \"--CODEGEN--\":2441:2537   */\n      tag_94\n      jump\t// in\n    tag_93:\n        /* \"--CODEGEN--\":2434:2537   */\n      swap4\n      pop\n        /* \"--CODEGEN--\":2560:2563   */\n      dup4\n        /* \"--CODEGEN--\":2602:2606   */\n      0x20\n        /* \"--CODEGEN--\":2594:2600   */\n      dup3\n        /* \"--CODEGEN--\":2590:2607   */\n      mul\n        /* \"--CODEGEN--\":2585:2588   */\n      dup6\n        /* \"--CODEGEN--\":2581:2608   */\n      add\n        /* \"--CODEGEN--\":2629:2695   */\n      tag_95\n        /* \"--CODEGEN--\":2689:2694   */\n      dup6\n        /* \"--CODEGEN--\":2629:2695   */\n      tag_96\n      jump\t// in\n    tag_95:\n        /* \"--CODEGEN--\":2715:2722   */\n      dup1\n        /* \"--CODEGEN--\":2743:2744   */\n      0x00\n        /* \"--CODEGEN--\":2728:3088   */\n    tag_97:\n        /* \"--CODEGEN--\":2753:2759   */\n      dup6\n        /* \"--CODEGEN--\":2750:2751   */\n      dup2\n        /* \"--CODEGEN--\":2747:2760   */\n      lt\n        /* \"--CODEGEN--\":2728:3088   */\n      iszero\n      tag_99\n      jumpi\n        /* \"--CODEGEN--\":2815:2824   */\n      dup5\n        /* \"--CODEGEN--\":2809:2813   */\n      dup5\n        /* \"--CODEGEN--\":2805:2825   */\n      sub\n        /* \"--CODEGEN--\":2800:2803   */\n      dup10\n        /* \"--CODEGEN--\":2793:2826   */\n      mstore\n        /* \"--CODEGEN--\":2860:2866   */\n      dup2\n        /* \"--CODEGEN--\":2854:2867   */\n      mload\n        /* \"--CODEGEN--\":2882:2966   */\n      tag_100\n        /* \"--CODEGEN--\":2961:2965   */\n      dup6\n        /* \"--CODEGEN--\":2946:2959   */\n      dup3\n        /* \"--CODEGEN--\":2882:2966   */\n      tag_75\n      jump\t// in\n    tag_100:\n        /* \"--CODEGEN--\":2874:2966   */\n      swap5\n      pop\n        /* \"--CODEGEN--\":2983:3053   */\n      tag_101\n        /* \"--CODEGEN--\":3046:3052   */\n      dup4\n        /* \"--CODEGEN--\":2983:3053   */\n      tag_102\n      jump\t// in\n    tag_101:\n        /* \"--CODEGEN--\":2973:3053   */\n      swap3\n      pop\n        /* \"--CODEGEN--\":3076:3080   */\n      0x20\n        /* \"--CODEGEN--\":3071:3074   */\n      dup11\n        /* \"--CODEGEN--\":3067:3081   */\n      add\n        /* \"--CODEGEN--\":3060:3081   */\n      swap10\n      pop\n        /* \"--CODEGEN--\":2785:3088   */\n      pop\n        /* \"--CODEGEN--\":2775:2776   */\n      0x01\n        /* \"--CODEGEN--\":2772:2773   */\n      dup2\n        /* \"--CODEGEN--\":2768:2777   */\n      add\n        /* \"--CODEGEN--\":2763:2777   */\n      swap1\n      pop\n        /* \"--CODEGEN--\":2728:3088   */\n      jump(tag_97)\n    tag_99:\n        /* \"--CODEGEN--\":2732:2746   */\n      pop\n        /* \"--CODEGEN--\":3101:3105   */\n      dup3\n        /* \"--CODEGEN--\":3094:3105   */\n      swap8\n      pop\n        /* \"--CODEGEN--\":3118:3121   */\n      dup8\n        /* \"--CODEGEN--\":3111:3121   */\n      swap6\n      pop\n        /* \"--CODEGEN--\":2343:3127   */\n      pop\n      pop\n      pop\n      pop\n      pop\n      swap3\n      swap2\n      pop\n      pop\n      jump\t// out\n        /* \"--CODEGEN--\":3135:3462   */\n    tag_78:\n      0x00\n        /* \"--CODEGEN--\":3237:3276   */\n      tag_104\n        /* \"--CODEGEN--\":3270:3275   */\n      dup3\n        /* \"--CODEGEN--\":3237:3276   */\n      tag_105\n      jump\t// in\n    tag_104:\n        /* \"--CODEGEN--\":3288:3349   */\n      tag_106\n        /* \"--CODEGEN--\":3342:3348   */\n      dup2\n        /* \"--CODEGEN--\":3337:3340   */\n      dup6\n        /* \"--CODEGEN--\":3288:3349   */\n      tag_107\n      jump\t// in\n    tag_106:\n        /* \"--CODEGEN--\":3281:3349   */\n      swap4\n      pop\n        /* \"--CODEGEN--\":3354:3406   */\n      tag_108\n        /* \"--CODEGEN--\":3399:3405   */\n      dup2\n        /* \"--CODEGEN--\":3394:3397   */\n      dup6\n        /* \"--CODEGEN--\":3387:3391   */\n      0x20\n        /* \"--CODEGEN--\":3380:3385   */\n      dup7\n        /* \"--CODEGEN--\":3376:3392   */\n      add\n        /* \"--CODEGEN--\":3354:3406   */\n      tag_109\n      jump\t// in\n    tag_108:\n        /* \"--CODEGEN--\":3427:3456   */\n      tag_110\n        /* \"--CODEGEN--\":3449:3455   */\n      dup2\n        /* \"--CODEGEN--\":3427:3456   */\n      tag_111\n      jump\t// in\n    tag_110:\n        /* \"--CODEGEN--\":3422:3425   */\n      dup5\n        /* \"--CODEGEN--\":3418:3457   */\n      add\n        /* \"--CODEGEN--\":3411:3457   */\n      swap2\n      pop\n        /* \"--CODEGEN--\":3217:3462   */\n      pop\n      swap3\n      swap2\n      pop\n      pop\n      jump\t// out\n        /* \"--CODEGEN--\":3469:3829   */\n    tag_112:\n      0x00\n        /* \"--CODEGEN--\":3599:3638   */\n      tag_114\n        /* \"--CODEGEN--\":3632:3637   */\n      dup3\n        /* \"--CODEGEN--\":3599:3638   */\n      tag_105\n      jump\t// in\n    tag_114:\n        /* \"--CODEGEN--\":3650:3739   */\n      tag_115\n        /* \"--CODEGEN--\":3732:3738   */\n      dup2\n        /* \"--CODEGEN--\":3727:3730   */\n      dup6\n        /* \"--CODEGEN--\":3650:3739   */\n      tag_116\n      jump\t// in\n    tag_115:\n        /* \"--CODEGEN--\":3643:3739   */\n      swap4\n      pop\n        /* \"--CODEGEN--\":3744:3796   */\n      tag_117\n        /* \"--CODEGEN--\":3789:3795   */\n      dup2\n        /* \"--CODEGEN--\":3784:3787   */\n      dup6\n        /* \"--CODEGEN--\":3777:3781   */\n      0x20\n        /* \"--CODEGEN--\":3770:3775   */\n      dup7\n        /* \"--CODEGEN--\":3766:3782   */\n      add\n        /* \"--CODEGEN--\":3744:3796   */\n      tag_109\n      jump\t// in\n    tag_117:\n        /* \"--CODEGEN--\":3817:3823   */\n      dup1\n        /* \"--CODEGEN--\":3812:3815   */\n      dup5\n        /* \"--CODEGEN--\":3808:3824   */\n      add\n        /* \"--CODEGEN--\":3801:3824   */\n      swap2\n      pop\n        /* \"--CODEGEN--\":3579:3829   */\n      pop\n      swap3\n      swap2\n      pop\n      pop\n      jump\t// out\n        /* \"--CODEGEN--\":3836:3988   */\n    tag_118:\n        /* \"--CODEGEN--\":3937:3982   */\n      tag_120\n        /* \"--CODEGEN--\":3957:3981   */\n      tag_121\n        /* \"--CODEGEN--\":3975:3980   */\n      dup3\n        /* \"--CODEGEN--\":3957:3981   */\n      tag_122\n      jump\t// in\n    tag_121:\n        /* \"--CODEGEN--\":3937:3982   */\n      tag_123\n      jump\t// in\n    tag_120:\n        /* \"--CODEGEN--\":3932:3935   */\n      dup3\n        /* \"--CODEGEN--\":3925:3983   */\n      mstore\n        /* \"--CODEGEN--\":3919:3988   */\n      pop\n      pop\n      jump\t// out\n        /* \"--CODEGEN--\":3995:4280   */\n    tag_40:\n      0x00\n        /* \"--CODEGEN--\":4139:4230   */\n      tag_125\n        /* \"--CODEGEN--\":4226:4229   */\n      dup3\n        /* \"--CODEGEN--\":4217:4223   */\n      dup5\n        /* \"--CODEGEN--\":4139:4230   */\n      tag_79\n      jump\t// in\n    tag_125:\n        /* \"--CODEGEN--\":4252:4254   */\n      0x14\n        /* \"--CODEGEN--\":4247:4250   */\n      dup3\n        /* \"--CODEGEN--\":4243:4255   */\n      add\n        /* \"--CODEGEN--\":4236:4255   */\n      swap2\n      pop\n        /* \"--CODEGEN--\":4272:4275   */\n      dup2\n        /* \"--CODEGEN--\":4265:4275   */\n      swap1\n      pop\n        /* \"--CODEGEN--\":4127:4280   */\n      swap3\n      swap2\n      pop\n      pop\n      jump\t// out\n        /* \"--CODEGEN--\":4287:4562   */\n    tag_34:\n      0x00\n        /* \"--CODEGEN--\":4442:4537   */\n      tag_127\n        /* \"--CODEGEN--\":4533:4536   */\n      dup3\n        /* \"--CODEGEN--\":4524:4530   */\n      dup5\n        /* \"--CODEGEN--\":4442:4537   */\n      tag_112\n      jump\t// in\n    tag_127:\n        /* \"--CODEGEN--\":4435:4537   */\n      swap2\n      pop\n        /* \"--CODEGEN--\":4554:4557   */\n      dup2\n        /* \"--CODEGEN--\":4547:4557   */\n      swap1\n      pop\n        /* \"--CODEGEN--\":4423:4562   */\n      swap3\n      swap2\n      pop\n      pop\n      jump\t// out\n        /* \"--CODEGEN--\":4569:5144   */\n    tag_32:\n      0x00\n        /* \"--CODEGEN--\":4800:4895   */\n      tag_129\n        /* \"--CODEGEN--\":4891:4894   */\n      dup3\n        /* \"--CODEGEN--\":4882:4888   */\n      dup7\n        /* \"--CODEGEN--\":4800:4895   */\n      tag_112\n      jump\t// in\n    tag_129:\n        /* \"--CODEGEN--\":4793:4895   */\n      swap2\n      pop\n        /* \"--CODEGEN--\":4906:4981   */\n      tag_130\n        /* \"--CODEGEN--\":4977:4980   */\n      dup3\n        /* \"--CODEGEN--\":4968:4974   */\n      dup6\n        /* \"--CODEGEN--\":4906:4981   */\n      tag_118\n      jump\t// in\n    tag_130:\n        /* \"--CODEGEN--\":5003:5005   */\n      0x20\n        /* \"--CODEGEN--\":4998:5001   */\n      dup3\n        /* \"--CODEGEN--\":4994:5006   */\n      add\n        /* \"--CODEGEN--\":4987:5006   */\n      swap2\n      pop\n        /* \"--CODEGEN--\":5024:5119   */\n      tag_131\n        /* \"--CODEGEN--\":5115:5118   */\n      dup3\n        /* \"--CODEGEN--\":5106:5112   */\n      dup5\n        /* \"--CODEGEN--\":5024:5119   */\n      tag_112\n      jump\t// in\n    tag_131:\n        /* \"--CODEGEN--\":5017:5119   */\n      swap2\n      pop\n        /* \"--CODEGEN--\":5136:5139   */\n      dup2\n        /* \"--CODEGEN--\":5129:5139   */\n      swap1\n      pop\n        /* \"--CODEGEN--\":4781:5144   */\n      swap5\n      swap4\n      pop\n      pop\n      pop\n      pop\n      jump\t// out\n        /* \"--CODEGEN--\":5151:5373   */\n    tag_10:\n      0x00\n        /* \"--CODEGEN--\":5278:5280   */\n      0x20\n        /* \"--CODEGEN--\":5267:5276   */\n      dup3\n        /* \"--CODEGEN--\":5263:5281   */\n      add\n        /* \"--CODEGEN--\":5255:5281   */\n      swap1\n      pop\n        /* \"--CODEGEN--\":5292:5363   */\n      tag_133\n        /* \"--CODEGEN--\":5360:5361   */\n      0x00\n        /* \"--CODEGEN--\":5349:5358   */\n      dup4\n        /* \"--CODEGEN--\":5345:5362   */\n      add\n        /* \"--CODEGEN--\":5336:5342   */\n      dup5\n        /* \"--CODEGEN--\":5292:5363   */\n      tag_85\n      jump\t// in\n    tag_133:\n        /* \"--CODEGEN--\":5249:5373   */\n      swap3\n      swap2\n      pop\n      pop\n      jump\t// out\n        /* \"--CODEGEN--\":5380:5790   */\n    tag_14:\n      0x00\n        /* \"--CODEGEN--\":5577:5579   */\n      0x20\n        /* \"--CODEGEN--\":5566:5575   */\n      dup3\n        /* \"--CODEGEN--\":5562:5580   */\n      add\n        /* \"--CODEGEN--\":5554:5580   */\n      swap1\n      pop\n        /* \"--CODEGEN--\":5627:5636   */\n      dup2\n        /* \"--CODEGEN--\":5621:5625   */\n      dup2\n        /* \"--CODEGEN--\":5617:5637   */\n      sub\n        /* \"--CODEGEN--\":5613:5614   */\n      0x00\n        /* \"--CODEGEN--\":5602:5611   */\n      dup4\n        /* \"--CODEGEN--\":5598:5615   */\n      add\n        /* \"--CODEGEN--\":5591:5638   */\n      mstore\n        /* \"--CODEGEN--\":5652:5780   */\n      tag_135\n        /* \"--CODEGEN--\":5775:5779   */\n      dup2\n        /* \"--CODEGEN--\":5766:5772   */\n      dup5\n        /* \"--CODEGEN--\":5652:5780   */\n      tag_89\n      jump\t// in\n    tag_135:\n        /* \"--CODEGEN--\":5644:5780   */\n      swap1\n      pop\n        /* \"--CODEGEN--\":5548:5790   */\n      swap3\n      swap2\n      pop\n      pop\n      jump\t// out\n        /* \"--CODEGEN--\":5797:6053   */\n    tag_56:\n      0x00\n        /* \"--CODEGEN--\":5859:5861   */\n      0x40\n        /* \"--CODEGEN--\":5853:5862   */\n      mload\n        /* \"--CODEGEN--\":5843:5862   */\n      swap1\n      pop\n        /* \"--CODEGEN--\":5897:5901   */\n      dup2\n        /* \"--CODEGEN--\":5889:5895   */\n      dup2\n        /* \"--CODEGEN--\":5885:5902   */\n      add\n        /* \"--CODEGEN--\":5996:6002   */\n      dup2\n        /* \"--CODEGEN--\":5984:5994   */\n      dup2\n        /* \"--CODEGEN--\":5981:6003   */\n      lt\n        /* \"--CODEGEN--\":5960:5978   */\n      0xffffffffffffffff\n        /* \"--CODEGEN--\":5948:5958   */\n      dup3\n        /* \"--CODEGEN--\":5945:5979   */\n      gt\n        /* \"--CODEGEN--\":5942:6004   */\n      or\n        /* \"--CODEGEN--\":5939:5941   */\n      iszero\n      tag_137\n      jumpi\n        /* \"--CODEGEN--\":6017:6018   */\n      0x00\n        /* \"--CODEGEN--\":6014:6015   */\n      dup1\n        /* \"--CODEGEN--\":6007:6019   */\n      revert\n        /* \"--CODEGEN--\":5939:5941   */\n    tag_137:\n        /* \"--CODEGEN--\":6037:6047   */\n      dup1\n        /* \"--CODEGEN--\":6033:6035   */\n      0x40\n        /* \"--CODEGEN--\":6026:6048   */\n      mstore\n        /* \"--CODEGEN--\":5837:6053   */\n      pop\n      swap2\n      swap1\n      pop\n      jump\t// out\n        /* \"--CODEGEN--\":6060:6382   */\n    tag_55:\n      0x00\n        /* \"--CODEGEN--\":6204:6222   */\n      0xffffffffffffffff\n        /* \"--CODEGEN--\":6196:6202   */\n      dup3\n        /* \"--CODEGEN--\":6193:6223   */\n      gt\n        /* \"--CODEGEN--\":6190:6192   */\n      iszero\n      tag_139\n      jumpi\n        /* \"--CODEGEN--\":6236:6237   */\n      0x00\n        /* \"--CODEGEN--\":6233:6234   */\n      dup1\n        /* \"--CODEGEN--\":6226:6238   */\n      revert\n        /* \"--CODEGEN--\":6190:6192   */\n    tag_139:\n        /* \"--CODEGEN--\":6303:6307   */\n      0x1f\n        /* \"--CODEGEN--\":6299:6308   */\n      not\n        /* \"--CODEGEN--\":6292:6296   */\n      0x1f\n        /* \"--CODEGEN--\":6284:6290   */\n      dup4\n        /* \"--CODEGEN--\":6280:6297   */\n      add\n        /* \"--CODEGEN--\":6276:6309   */\n      and\n        /* \"--CODEGEN--\":6268:6309   */\n      swap1\n      pop\n        /* \"--CODEGEN--\":6367:6371   */\n      0x20\n        /* \"--CODEGEN--\":6361:6365   */\n      dup2\n        /* \"--CODEGEN--\":6357:6372   */\n      add\n        /* \"--CODEGEN--\":6349:6372   */\n      swap1\n      pop\n        /* \"--CODEGEN--\":6127:6382   */\n      swap2\n      swap1\n      pop\n      jump\t// out\n        /* \"--CODEGEN--\":6389:6550   */\n    tag_96:\n      0x00\n        /* \"--CODEGEN--\":6485:6488   */\n      dup2\n        /* \"--CODEGEN--\":6477:6488   */\n      swap1\n      pop\n        /* \"--CODEGEN--\":6523:6527   */\n      0x20\n        /* \"--CODEGEN--\":6518:6521   */\n      dup3\n        /* \"--CODEGEN--\":6514:6528   */\n      add\n        /* \"--CODEGEN--\":6506:6528   */\n      swap1\n      pop\n        /* \"--CODEGEN--\":6471:6550   */\n      swap2\n      swap1\n      pop\n      jump\t// out\n        /* \"--CODEGEN--\":6557:6704   */\n    tag_92:\n      0x00\n        /* \"--CODEGEN--\":6676:6681   */\n      dup2\n        /* \"--CODEGEN--\":6670:6682   */\n      mload\n        /* \"--CODEGEN--\":6660:6682   */\n      swap1\n      pop\n        /* \"--CODEGEN--\":6641:6704   */\n      swap2\n      swap1\n      pop\n      jump\t// out\n        /* \"--CODEGEN--\":6711:6833   */\n    tag_105:\n      0x00\n        /* \"--CODEGEN--\":6805:6810   */\n      dup2\n        /* \"--CODEGEN--\":6799:6811   */\n      mload\n        /* \"--CODEGEN--\":6789:6811   */\n      swap1\n      pop\n        /* \"--CODEGEN--\":6770:6833   */\n      swap2\n      swap1\n      pop\n      jump\t// out\n        /* \"--CODEGEN--\":6840:6958   */\n    tag_102:\n      0x00\n        /* \"--CODEGEN--\":6948:6952   */\n      0x20\n        /* \"--CODEGEN--\":6943:6946   */\n      dup3\n        /* \"--CODEGEN--\":6939:6953   */\n      add\n        /* \"--CODEGEN--\":6931:6953   */\n      swap1\n      pop\n        /* \"--CODEGEN--\":6925:6958   */\n      swap2\n      swap1\n      pop\n      jump\t// out\n        /* \"--CODEGEN--\":6966:7154   */\n    tag_94:\n      0x00\n        /* \"--CODEGEN--\":7106:7112   */\n      dup3\n        /* \"--CODEGEN--\":7101:7104   */\n      dup3\n        /* \"--CODEGEN--\":7094:7113   */\n      mstore\n        /* \"--CODEGEN--\":7143:7147   */\n      0x20\n        /* \"--CODEGEN--\":7138:7141   */\n      dup3\n        /* \"--CODEGEN--\":7134:7148   */\n      add\n        /* \"--CODEGEN--\":7119:7148   */\n      swap1\n      pop\n        /* \"--CODEGEN--\":7087:7154   */\n      swap3\n      swap2\n      pop\n      pop\n      jump\t// out\n        /* \"--CODEGEN--\":7163:7316   */\n    tag_107:\n      0x00\n        /* \"--CODEGEN--\":7268:7274   */\n      dup3\n        /* \"--CODEGEN--\":7263:7266   */\n      dup3\n        /* \"--CODEGEN--\":7256:7275   */\n      mstore\n        /* \"--CODEGEN--\":7305:7309   */\n      0x20\n        /* \"--CODEGEN--\":7300:7303   */\n      dup3\n        /* \"--CODEGEN--\":7296:7310   */\n      add\n        /* \"--CODEGEN--\":7281:7310   */\n      swap1\n      pop\n        /* \"--CODEGEN--\":7249:7316   */\n      swap3\n      swap2\n      pop\n      pop\n      jump\t// out\n        /* \"--CODEGEN--\":7325:7470   */\n    tag_116:\n      0x00\n        /* \"--CODEGEN--\":7461:7464   */\n      dup2\n        /* \"--CODEGEN--\":7446:7464   */\n      swap1\n      pop\n        /* \"--CODEGEN--\":7439:7470   */\n      swap3\n      swap2\n      pop\n      pop\n      jump\t// out\n        /* \"--CODEGEN--\":7478:7569   */\n    tag_88:\n      0x00\n        /* \"--CODEGEN--\":7540:7564   */\n      tag_148\n        /* \"--CODEGEN--\":7558:7563   */\n      dup3\n        /* \"--CODEGEN--\":7540:7564   */\n      tag_149\n      jump\t// in\n    tag_148:\n        /* \"--CODEGEN--\":7529:7564   */\n      swap1\n      pop\n        /* \"--CODEGEN--\":7523:7569   */\n      swap2\n      swap1\n      pop\n      jump\t// out\n        /* \"--CODEGEN--\":7576:7675   */\n    tag_83:\n      0x00\n        /* \"--CODEGEN--\":7646:7670   */\n      tag_151\n        /* \"--CODEGEN--\":7664:7669   */\n      dup3\n        /* \"--CODEGEN--\":7646:7670   */\n      tag_149\n      jump\t// in\n    tag_151:\n        /* \"--CODEGEN--\":7635:7670   */\n      swap1\n      pop\n        /* \"--CODEGEN--\":7629:7675   */\n      swap2\n      swap1\n      pop\n      jump\t// out\n        /* \"--CODEGEN--\":7682:7803   */\n    tag_149:\n      0x00\n        /* \"--CODEGEN--\":7755:7797   */\n      0xffffffffffffffffffffffffffffffffffffffff\n        /* \"--CODEGEN--\":7748:7753   */\n      dup3\n        /* \"--CODEGEN--\":7744:7798   */\n      and\n        /* \"--CODEGEN--\":7733:7798   */\n      swap1\n      pop\n        /* \"--CODEGEN--\":7727:7803   */\n      swap2\n      swap1\n      pop\n      jump\t// out\n        /* \"--CODEGEN--\":7810:7882   */\n    tag_122:\n      0x00\n        /* \"--CODEGEN--\":7872:7877   */\n      dup2\n        /* \"--CODEGEN--\":7861:7877   */\n      swap1\n      pop\n        /* \"--CODEGEN--\":7855:7882   */\n      swap2\n      swap1\n      pop\n      jump\t// out\n        /* \"--CODEGEN--\":7890:8035   */\n    tag_59:\n        /* \"--CODEGEN--\":7971:7977   */\n      dup3\n        /* \"--CODEGEN--\":7966:7969   */\n      dup2\n        /* \"--CODEGEN--\":7961:7964   */\n      dup4\n        /* \"--CODEGEN--\":7948:7978   */\n      calldatacopy\n        /* \"--CODEGEN--\":8027:8028   */\n      0x00\n        /* \"--CODEGEN--\":8018:8024   */\n      dup4\n        /* \"--CODEGEN--\":8013:8016   */\n      dup4\n        /* \"--CODEGEN--\":8009:8025   */\n      add\n        /* \"--CODEGEN--\":8002:8029   */\n      mstore\n        /* \"--CODEGEN--\":7941:8035   */\n      pop\n      pop\n      pop\n      jump\t// out\n        /* \"--CODEGEN--\":8044:8312   */\n    tag_109:\n        /* \"--CODEGEN--\":8109:8110   */\n      0x00\n        /* \"--CODEGEN--\":8116:8217   */\n    tag_156:\n        /* \"--CODEGEN--\":8130:8136   */\n      dup4\n        /* \"--CODEGEN--\":8127:8128   */\n      dup2\n        /* \"--CODEGEN--\":8124:8137   */\n      lt\n        /* \"--CODEGEN--\":8116:8217   */\n      iszero\n      tag_158\n      jumpi\n        /* \"--CODEGEN--\":8206:8207   */\n      dup1\n        /* \"--CODEGEN--\":8201:8204   */\n      dup3\n        /* \"--CODEGEN--\":8197:8208   */\n      add\n        /* \"--CODEGEN--\":8191:8209   */\n      mload\n        /* \"--CODEGEN--\":8187:8188   */\n      dup2\n        /* \"--CODEGEN--\":8182:8185   */\n      dup5\n        /* \"--CODEGEN--\":8178:8189   */\n      add\n        /* \"--CODEGEN--\":8171:8210   */\n      mstore\n        /* \"--CODEGEN--\":8152:8154   */\n      0x20\n        /* \"--CODEGEN--\":8149:8150   */\n      dup2\n        /* \"--CODEGEN--\":8145:8155   */\n      add\n        /* \"--CODEGEN--\":8140:8155   */\n      swap1\n      pop\n        /* \"--CODEGEN--\":8116:8217   */\n      jump(tag_156)\n    tag_158:\n        /* \"--CODEGEN--\":8232:8238   */\n      dup4\n        /* \"--CODEGEN--\":8229:8230   */\n      dup2\n        /* \"--CODEGEN--\":8226:8239   */\n      gt\n        /* \"--CODEGEN--\":8223:8225   */\n      iszero\n      tag_159\n      jumpi\n        /* \"--CODEGEN--\":8297:8298   */\n      0x00\n        /* \"--CODEGEN--\":8288:8294   */\n      dup5\n        /* \"--CODEGEN--\":8283:8286   */\n      dup5\n        /* \"--CODEGEN--\":8279:8295   */\n      add\n        /* \"--CODEGEN--\":8272:8299   */\n      mstore\n        /* \"--CODEGEN--\":8223:8225   */\n    tag_159:\n        /* \"--CODEGEN--\":8093:8312   */\n      pop\n      pop\n      pop\n      pop\n      jump\t// out\n        /* \"--CODEGEN--\":8320:8423   */\n    tag_84:\n      0x00\n        /* \"--CODEGEN--\":8392:8418   */\n      tag_161\n        /* \"--CODEGEN--\":8412:8417   */\n      dup3\n        /* \"--CODEGEN--\":8392:8418   */\n      tag_162\n      jump\t// in\n    tag_161:\n        /* \"--CODEGEN--\":8381:8418   */\n      swap1\n      pop\n        /* \"--CODEGEN--\":8375:8423   */\n      swap2\n      swap1\n      pop\n      jump\t// out\n        /* \"--CODEGEN--\":8430:8519   */\n    tag_162:\n      0x00\n        /* \"--CODEGEN--\":8494:8514   */\n      tag_164\n        /* \"--CODEGEN--\":8508:8513   */\n      dup3\n        /* \"--CODEGEN--\":8494:8514   */\n      tag_165\n      jump\t// in\n    tag_164:\n        /* \"--CODEGEN--\":8483:8514   */\n      swap1\n      pop\n        /* \"--CODEGEN--\":8477:8519   */\n      swap2\n      swap1\n      pop\n      jump\t// out\n        /* \"--CODEGEN--\":8526:8600   */\n    tag_123:\n      0x00\n        /* \"--CODEGEN--\":8590:8595   */\n      dup2\n        /* \"--CODEGEN--\":8579:8595   */\n      swap1\n      pop\n        /* \"--CODEGEN--\":8573:8600   */\n      swap2\n      swap1\n      pop\n      jump\t// out\n        /* \"--CODEGEN--\":8607:8704   */\n    tag_111:\n      0x00\n        /* \"--CODEGEN--\":8695:8697   */\n      0x1f\n        /* \"--CODEGEN--\":8691:8698   */\n      not\n        /* \"--CODEGEN--\":8686:8688   */\n      0x1f\n        /* \"--CODEGEN--\":8679:8684   */\n      dup4\n        /* \"--CODEGEN--\":8675:8689   */\n      add\n        /* \"--CODEGEN--\":8671:8699   */\n      and\n        /* \"--CODEGEN--\":8661:8699   */\n      swap1\n      pop\n        /* \"--CODEGEN--\":8655:8704   */\n      swap2\n      swap1\n      pop\n      jump\t// out\n        /* \"--CODEGEN--\":8712:8806   */\n    tag_165:\n      0x00\n        /* \"--CODEGEN--\":8790:8795   */\n      dup2\n        /* \"--CODEGEN--\":8786:8788   */\n      0x60\n        /* \"--CODEGEN--\":8782:8796   */\n      shl\n        /* \"--CODEGEN--\":8760:8796   */\n      swap1\n      pop\n        /* \"--CODEGEN--\":8754:8806   */\n      swap2\n      swap1\n      pop\n      jump\t// out\n        /* \"--CODEGEN--\":8814:8931   */\n    tag_63:\n        /* \"--CODEGEN--\":8883:8907   */\n      tag_170\n        /* \"--CODEGEN--\":8901:8906   */\n      dup2\n        /* \"--CODEGEN--\":8883:8907   */\n      tag_122\n      jump\t// in\n    tag_170:\n        /* \"--CODEGEN--\":8876:8881   */\n      dup2\n        /* \"--CODEGEN--\":8873:8908   */\n      eq\n        /* \"--CODEGEN--\":8863:8865   */\n      tag_171\n      jumpi\n        /* \"--CODEGEN--\":8922:8923   */\n      0x00\n        /* \"--CODEGEN--\":8919:8920   */\n      dup1\n        /* \"--CODEGEN--\":8912:8924   */\n      revert\n        /* \"--CODEGEN--\":8863:8865   */\n    tag_171:\n        /* \"--CODEGEN--\":8857:8931   */\n      pop\n      jump\t// out\n\n    auxdata: 0xa264697066735822122041c9c98c58c59c056328e700d39c4dcfa768b6ca3571d2be20e0de6aff87b5ed64736f6c634300060c0033\n}\n",
				"bytecode": {
					"linkReferences": {},
					"object": "608060405234801561001057600080fd5b50336000806101000a81548173ffffffffffffffffffffffffffffffffffffffff021916908373ffffffffffffffffffffffffffffffffffffffff160217905550610811806100606000396000f3fe608060405234801561001057600080fd5b506004361061004c5760003560e01c80638da5cb5b14610051578063bfc2e9381461006f578063f01ca6b71461008d578063febe07dc146100a9575b600080fd5b6100596100c5565b60405161006691906105f2565b60405180910390f35b6100776100e9565b604051610084919061060d565b60405180910390f35b6100a760048036038101906100a291906103dc565b6101d2565b005b6100c360048036038101906100be919061039b565b610266565b005b60008054906101000a900473ffffffffffffffffffffffffffffffffffffffff1681565b60606003805480602002602001604051908101604052809291908181526020016000905b828210156101c9578382906000526020600020018054600181600116156101000203166002900480601f0160208091040260200160405190810160405280929190818152602001828054600181600116156101000203166002900480156101b55780601f1061018a576101008083540402835291602001916101b5565b820191906000526020600020905b81548152906001019060200180831161019857829003601f168201915b50505050508152602001906001019061010d565b50505050905090565b60008383836040516020016101e9939291906105bd565b6040516020818303038152906040528051906020012090508060018560405161021291906105a6565b90815260200160405180910390208190555060038490806001815401808255809150506001900390600052602060002001600090919091909150908051906020019061025f929190610295565b5050505050565b600033604051602001610279919061058b565b6040516020818303038152906040528051906020012090505050565b828054600181600116156101000203166002900490600052602060002090601f016020900481019282601f106102d657805160ff1916838001178555610304565b82800160010185558215610304579182015b828111156103035782518255916020019190600101906102e8565b5b5090506103119190610315565b5090565b5b8082111561032e576000816000905550600101610316565b5090565b600082601f83011261034357600080fd5b81356103566103518261065c565b61062f565b9150808252602083016020830185838301111561037257600080fd5b61037d838284610736565b50505092915050565b600081359050610395816107c4565b92915050565b6000602082840312156103ad57600080fd5b600082013567ffffffffffffffff8111156103c757600080fd5b6103d384828501610332565b91505092915050565b6000806000606084860312156103f157600080fd5b600084013567ffffffffffffffff81111561040b57600080fd5b61041786828701610332565b935050602061042886828701610386565b925050604084013567ffffffffffffffff81111561044557600080fd5b61045186828701610332565b9150509250925092565b6000610467838361050a565b905092915050565b61048061047b826106fa565b610778565b82525050565b61048f816106e8565b82525050565b60006104a082610698565b6104aa81856106bb565b9350836020820285016104bc85610688565b8060005b858110156104f857848403895281516104d9858261045b565b94506104e4836106ae565b925060208a019950506001810190506104c0565b50829750879550505050505092915050565b6000610515826106a3565b61051f81856106cc565b935061052f818560208601610745565b610538816107a6565b840191505092915050565b600061054e826106a3565b61055881856106dd565b9350610568818560208601610745565b80840191505092915050565b6105856105808261072c565b61079c565b82525050565b6000610597828461046f565b60148201915081905092915050565b60006105b28284610543565b915081905092915050565b60006105c98286610543565b91506105d58285610574565b6020820191506105e58284610543565b9150819050949350505050565b60006020820190506106076000830184610486565b92915050565b600060208201905081810360008301526106278184610495565b905092915050565b6000604051905081810181811067ffffffffffffffff8211171561065257600080fd5b8060405250919050565b600067ffffffffffffffff82111561067357600080fd5b601f19601f8301169050602081019050919050565b6000819050602082019050919050565b600081519050919050565b600081519050919050565b6000602082019050919050565b600082825260208201905092915050565b600082825260208201905092915050565b600081905092915050565b60006106f38261070c565b9050919050565b60006107058261070c565b9050919050565b600073ffffffffffffffffffffffffffffffffffffffff82169050919050565b6000819050919050565b82818337600083830152505050565b60005b83811015610763578082015181840152602081019050610748565b83811115610772576000848401525b50505050565b60006107838261078a565b9050919050565b6000610795826107b7565b9050919050565b6000819050919050565b6000601f19601f8301169050919050565b60008160601b9050919050565b6107cd8161072c565b81146107d857600080fd5b5056fea264697066735822122041c9c98c58c59c056328e700d39c4dcfa768b6ca3571d2be20e0de6aff87b5ed64736f6c634300060c0033",
					"opcodes": "PUSH1 0x80 PUSH1 0x40 MSTORE CALLVALUE DUP1 ISZERO PUSH2 0x10 JUMPI PUSH1 0x0 DUP1 REVERT JUMPDEST POP CALLER PUSH1 0x0 DUP1 PUSH2 0x100 EXP DUP2 SLOAD DUP2 PUSH20 0xFFFFFFFFFFFFFFFFFFFFFFFFFFFFFFFFFFFFFFFF MUL NOT AND SWAP1 DUP4 PUSH20 0xFFFFFFFFFFFFFFFFFFFFFFFFFFFFFFFFFFFFFFFF AND MUL OR SWAP1 SSTORE POP PUSH2 0x811 DUP1 PUSH2 0x60 PUSH1 0x0 CODECOPY PUSH1 0x0 RETURN INVALID PUSH1 0x80 PUSH1 0x40 MSTORE CALLVALUE DUP1 ISZERO PUSH2 0x10 JUMPI PUSH1 0x0 DUP1 REVERT JUMPDEST POP PUSH1 0x4 CALLDATASIZE LT PUSH2 0x4C JUMPI PUSH1 0x0 CALLDATALOAD PUSH1 0xE0 SHR DUP1 PUSH4 0x8DA5CB5B EQ PUSH2 0x51 JUMPI DUP1 PUSH4 0xBFC2E938 EQ PUSH2 0x6F JUMPI DUP1 PUSH4 0xF01CA6B7 EQ PUSH2 0x8D JUMPI DUP1 PUSH4 0xFEBE07DC EQ PUSH2 0xA9 JUMPI JUMPDEST PUSH1 0x0 DUP1 REVERT JUMPDEST PUSH2 0x59 PUSH2 0xC5 JUMP JUMPDEST PUSH1 0x40 MLOAD PUSH2 0x66 SWAP2 SWAP1 PUSH2 0x5F2 JUMP JUMPDEST PUSH1 0x40 MLOAD DUP1 SWAP2 SUB SWAP1 RETURN JUMPDEST PUSH2 0x77 PUSH2 0xE9 JUMP JUMPDEST PUSH1 0x40 MLOAD PUSH2 0x84 SWAP2 SWAP1 PUSH2 0x60D JUMP JUMPDEST PUSH1 0x40 MLOAD DUP1 SWAP2 SUB SWAP1 RETURN JUMPDEST PUSH2 0xA7 PUSH1 0x4 DUP1 CALLDATASIZE SUB DUP2 ADD SWAP1 PUSH2 0xA2 SWAP2 SWAP1 PUSH2 0x3DC JUMP JUMPDEST PUSH2 0x1D2 JUMP JUMPDEST STOP JUMPDEST PUSH2 0xC3 PUSH1 0x4 DUP1 CALLDATASIZE SUB DUP2 ADD SWAP1 PUSH2 0xBE SWAP2 SWAP1 PUSH2 0x39B JUMP JUMPDEST PUSH2 0x266 JUMP JUMPDEST STOP JUMPDEST PUSH1 0x0 DUP1 SLOAD SWAP1 PUSH2 0x100 EXP SWAP1 DIV PUSH20 0xFFFFFFFFFFFFFFFFFFFFFFFFFFFFFFFFFFFFFFFF AND DUP2 JUMP JUMPDEST PUSH1 0x60 PUSH1 0x3 DUP1 SLOAD DUP1 PUSH1 0x20 MUL PUSH1 0x20 ADD PUSH1 0x40 MLOAD SWAP1 DUP2 ADD PUSH1 0x40 MSTORE DUP1 SWAP3 SWAP2 SWAP1 DUP2 DUP2 MSTORE PUSH1 0x20 ADD PUSH1 0x0 SWAP1 JUMPDEST DUP3 DUP3 LT ISZERO PUSH2 0x1C9 JUMPI DUP4 DUP3 SWAP1 PUSH1 0x0 MSTORE PUSH1 0x20 PUSH1 0x0 KECCAK256 ADD DUP1 SLOAD PUSH1 0x1 DUP2 PUSH1 0x1 AND ISZERO PUSH2 0x100 MUL SUB AND PUSH1 0x2 SWAP1 DIV DUP1 PUSH1 0x1F ADD PUSH1 0x20 DUP1 SWAP2 DIV MUL PUSH1 0x20 ADD PUSH1 0x40 MLOAD SWAP1 DUP2 ADD PUSH1 0x40 MSTORE DUP1 SWAP3 SWAP2 SWAP1 DUP2 DUP2 MSTORE PUSH1 0x20 ADD DUP3 DUP1 SLOAD PUSH1 0x1 DUP2 PUSH1 0x1 AND ISZERO PUSH2 0x100 MUL SUB AND PUSH1 0x2 SWAP1 DIV DUP1 ISZERO PUSH2 0x1B5 JUMPI DUP1 PUSH1 0x1F LT PUSH2 0x18A JUMPI PUSH2 0x100 DUP1 DUP4 SLOAD DIV MUL DUP4 MSTORE SWAP2 PUSH1 0x20 ADD SWAP2 PUSH2 0x1B5 JUMP JUMPDEST DUP3 ADD SWAP2 SWAP1 PUSH1 0x0 MSTORE PUSH1 0x20 PUSH1 0x0 KECCAK256 SWAP1 JUMPDEST DUP2 SLOAD DUP2 MSTORE SWAP1 PUSH1 0x1 ADD SWAP1 PUSH1 0x20 ADD DUP1 DUP4 GT PUSH2 0x198 JUMPI DUP3 SWAP1 SUB PUSH1 0x1F AND DUP3 ADD SWAP2 JUMPDEST POP POP POP POP POP DUP2 MSTORE PUSH1 0x20 ADD SWAP1 PUSH1 0x1 ADD SWAP1 PUSH2 0x10D JUMP JUMPDEST POP POP POP POP SWAP1 POP SWAP1 JUMP JUMPDEST PUSH1 0x0 DUP4 DUP4 DUP4 PUSH1 0x40 MLOAD PUSH1 0x20 ADD PUSH2 0x1E9 SWAP4 SWAP3 SWAP2 SWAP1 PUSH2 0x5BD JUMP JUMPDEST PUSH1 0x40 MLOAD PUSH1 0x20 DUP2 DUP4 SUB SUB DUP2 MSTORE SWAP1 PUSH1 0x40 MSTORE DUP1 MLOAD SWAP1 PUSH1 0x20 ADD KECCAK256 SWAP1 POP DUP1 PUSH1 0x1 DUP6 PUSH1 0x40 MLOAD PUSH2 0x212 SWAP2 SWAP1 PUSH2 0x5A6 JUMP JUMPDEST SWAP1 DUP2 MSTORE PUSH1 0x20 ADD PUSH1 0x40 MLOAD DUP1 SWAP2 SUB SWAP1 KECCAK256 DUP2 SWAP1 SSTORE POP PUSH1 0x3 DUP5 SWAP1 DUP1 PUSH1 0x1 DUP2 SLOAD ADD DUP1 DUP3 SSTORE DUP1 SWAP2 POP POP PUSH1 0x1 SWAP1 SUB SWAP1 PUSH1 0x0 MSTORE PUSH1 0x20 PUSH1 0x0 KECCAK256 ADD PUSH1 0x0 SWAP1 SWAP2 SWAP1 SWAP2 SWAP1 SWAP2 POP SWAP1 DUP1 MLOAD SWAP1 PUSH1 0x20 ADD SWAP1 PUSH2 0x25F SWAP3 SWAP2 SWAP1 PUSH2 0x295 JUMP JUMPDEST POP POP POP POP POP JUMP JUMPDEST PUSH1 0x0 CALLER PUSH1 0x40 MLOAD PUSH1 0x20 ADD PUSH2 0x279 SWAP2 SWAP1 PUSH2 0x58B JUMP JUMPDEST PUSH1 0x40 MLOAD PUSH1 0x20 DUP2 DUP4 SUB SUB DUP2 MSTORE SWAP1 PUSH1 0x40 MSTORE DUP1 MLOAD SWAP1 PUSH1 0x20 ADD KECCAK256 SWAP1 POP POP POP JUMP JUMPDEST DUP3 DUP1 SLOAD PUSH1 0x1 DUP2 PUSH1 0x1 AND ISZERO PUSH2 0x100 MUL SUB AND PUSH1 0x2 SWAP1 DIV SWAP1 PUSH1 0x0 MSTORE PUSH1 0x20 PUSH1 0x0 KECCAK256 SWAP1 PUSH1 0x1F ADD PUSH1 0x20 SWAP1 DIV DUP2 ADD SWAP3 DUP3 PUSH1 0x1F LT PUSH2 0x2D6 JUMPI DUP1 MLOAD PUSH1 0xFF NOT AND DUP4 DUP1 ADD OR DUP6 SSTORE PUSH2 0x304 JUMP JUMPDEST DUP3 DUP1 ADD PUSH1 0x1 ADD DUP6 SSTORE DUP3 ISZERO PUSH2 0x304 JUMPI SWAP2 DUP3 ADD JUMPDEST DUP3 DUP2 GT ISZERO PUSH2 0x303 JUMPI DUP3 MLOAD DUP3 SSTORE SWAP2 PUSH1 0x20 ADD SWAP2 SWAP1 PUSH1 0x1 ADD SWAP1 PUSH2 0x2E8 JUMP JUMPDEST JUMPDEST POP SWAP1 POP PUSH2 0x311 SWAP2 SWAP1 PUSH2 0x315 JUMP JUMPDEST POP SWAP1 JUMP JUMPDEST JUMPDEST DUP1 DUP3 GT ISZERO PUSH2 0x32E JUMPI PUSH1 0x0 DUP2 PUSH1 0x0 SWAP1 SSTORE POP PUSH1 0x1 ADD PUSH2 0x316 JUMP JUMPDEST POP SWAP1 JUMP JUMPDEST PUSH1 0x0 DUP3 PUSH1 0x1F DUP4 ADD SLT PUSH2 0x343 JUMPI PUSH1 0x0 DUP1 REVERT JUMPDEST DUP2 CALLDATALOAD PUSH2 0x356 PUSH2 0x351 DUP3 PUSH2 0x65C JUMP JUMPDEST PUSH2 0x62F JUMP JUMPDEST SWAP2 POP DUP1 DUP3 MSTORE PUSH1 0x20 DUP4 ADD PUSH1 0x20 DUP4 ADD DUP6 DUP4 DUP4 ADD GT ISZERO PUSH2 0x372 JUMPI PUSH1 0x0 DUP1 REVERT JUMPDEST PUSH2 0x37D DUP4 DUP3 DUP5 PUSH2 0x736 JUMP JUMPDEST POP POP POP SWAP3 SWAP2 POP POP JUMP JUMPDEST PUSH1 0x0 DUP2 CALLDATALOAD SWAP1 POP PUSH2 0x395 DUP2 PUSH2 0x7C4 JUMP JUMPDEST SWAP3 SWAP2 POP POP JUMP JUMPDEST PUSH1 0x0 PUSH1 0x20 DUP3 DUP5 SUB SLT ISZERO PUSH2 0x3AD JUMPI PUSH1 0x0 DUP1 REVERT JUMPDEST PUSH1 0x0 DUP3 ADD CALLDATALOAD PUSH8 0xFFFFFFFFFFFFFFFF DUP2 GT ISZERO PUSH2 0x3C7 JUMPI PUSH1 0x0 DUP1 REVERT JUMPDEST PUSH2 0x3D3 DUP5 DUP3 DUP6 ADD PUSH2 0x332 JUMP JUMPDEST SWAP2 POP POP SWAP3 SWAP2 POP POP JUMP JUMPDEST PUSH1 0x0 DUP1 PUSH1 0x0 PUSH1 0x60 DUP5 DUP7 SUB SLT ISZERO PUSH2 0x3F1 JUMPI PUSH1 0x0 DUP1 REVERT JUMPDEST PUSH1 0x0 DUP5 ADD CALLDATALOAD PUSH8 0xFFFFFFFFFFFFFFFF DUP2 GT ISZERO PUSH2 0x40B JUMPI PUSH1 0x0 DUP1 REVERT JUMPDEST PUSH2 0x417 DUP7 DUP3 DUP8 ADD PUSH2 0x332 JUMP JUMPDEST SWAP4 POP POP PUSH1 0x20 PUSH2 0x428 DUP7 DUP3 DUP8 ADD PUSH2 0x386 JUMP JUMPDEST SWAP3 POP POP PUSH1 0x40 DUP5 ADD CALLDATALOAD PUSH8 0xFFFFFFFFFFFFFFFF DUP2 GT ISZERO PUSH2 0x445 JUMPI PUSH1 0x0 DUP1 REVERT JUMPDEST PUSH2 0x451 DUP7 DUP3 DUP8 ADD PUSH2 0x332 JUMP JUMPDEST SWAP2 POP POP SWAP3 POP SWAP3 POP SWAP3 JUMP JUMPDEST PUSH1 0x0 PUSH2 0x467 DUP4 DUP4 PUSH2 0x50A JUMP JUMPDEST SWAP1 POP SWAP3 SWAP2 POP POP JUMP JUMPDEST PUSH2 0x480 PUSH2 0x47B DUP3 PUSH2 0x6FA JUMP JUMPDEST PUSH2 0x778 JUMP JUMPDEST DUP3 MSTORE POP POP JUMP JUMPDEST PUSH2 0x48F DUP2 PUSH2 0x6E8 JUMP JUMPDEST DUP3 MSTORE POP POP JUMP JUMPDEST PUSH1 0x0 PUSH2 0x4A0 DUP3 PUSH2 0x698 JUMP JUMPDEST PUSH2 0x4AA DUP2 DUP6 PUSH2 0x6BB JUMP JUMPDEST SWAP4 POP DUP4 PUSH1 0x20 DUP3 MUL DUP6 ADD PUSH2 0x4BC DUP6 PUSH2 0x688 JUMP JUMPDEST DUP1 PUSH1 0x0 JUMPDEST DUP6 DUP2 LT ISZERO PUSH2 0x4F8 JUMPI DUP5 DUP5 SUB DUP10 MSTORE DUP2 MLOAD PUSH2 0x4D9 DUP6 DUP3 PUSH2 0x45B JUMP JUMPDEST SWAP5 POP PUSH2 0x4E4 DUP4 PUSH2 0x6AE JUMP JUMPDEST SWAP3 POP PUSH1 0x20 DUP11 ADD SWAP10 POP POP PUSH1 0x1 DUP2 ADD SWAP1 POP PUSH2 0x4C0 JUMP JUMPDEST POP DUP3 SWAP8 POP DUP8 SWAP6 POP POP POP POP POP POP SWAP3 SWAP2 POP POP JUMP JUMPDEST PUSH1 0x0 PUSH2 0x515 DUP3 PUSH2 0x6A3 JUMP JUMPDEST PUSH2 0x51F DUP2 DUP6 PUSH2 0x6CC JUMP JUMPDEST SWAP4 POP PUSH2 0x52F DUP2 DUP6 PUSH1 0x20 DUP7 ADD PUSH2 0x745 JUMP JUMPDEST PUSH2 0x538 DUP2 PUSH2 0x7A6 JUMP JUMPDEST DUP5 ADD SWAP2 POP POP SWAP3 SWAP2 POP POP JUMP JUMPDEST PUSH1 0x0 PUSH2 0x54E DUP3 PUSH2 0x6A3 JUMP JUMPDEST PUSH2 0x558 DUP2 DUP6 PUSH2 0x6DD JUMP JUMPDEST SWAP4 POP PUSH2 0x568 DUP2 DUP6 PUSH1 0x20 DUP7 ADD PUSH2 0x745 JUMP JUMPDEST DUP1 DUP5 ADD SWAP2 POP POP SWAP3 SWAP2 POP POP JUMP JUMPDEST PUSH2 0x585 PUSH2 0x580 DUP3 PUSH2 0x72C JUMP JUMPDEST PUSH2 0x79C JUMP JUMPDEST DUP3 MSTORE POP POP JUMP JUMPDEST PUSH1 0x0 PUSH2 0x597 DUP3 DUP5 PUSH2 0x46F JUMP JUMPDEST PUSH1 0x14 DUP3 ADD SWAP2 POP DUP2 SWAP1 POP SWAP3 SWAP2 POP POP JUMP JUMPDEST PUSH1 0x0 PUSH2 0x5B2 DUP3 DUP5 PUSH2 0x543 JUMP JUMPDEST SWAP2 POP DUP2 SWAP1 POP SWAP3 SWAP2 POP POP JUMP JUMPDEST PUSH1 0x0 PUSH2 0x5C9 DUP3 DUP7 PUSH2 0x543 JUMP JUMPDEST SWAP2 POP PUSH2 0x5D5 DUP3 DUP6 PUSH2 0x574 JUMP JUMPDEST PUSH1 0x20 DUP3 ADD SWAP2 POP PUSH2 0x5E5 DUP3 DUP5 PUSH2 0x543 JUMP JUMPDEST SWAP2 POP DUP2 SWAP1 POP SWAP5 SWAP4 POP POP POP POP JUMP JUMPDEST PUSH1 0x0 PUSH1 0x20 DUP3 ADD SWAP1 POP PUSH2 0x607 PUSH1 0x0 DUP4 ADD DUP5 PUSH2 0x486 JUMP JUMPDEST SWAP3 SWAP2 POP POP JUMP JUMPDEST PUSH1 0x0 PUSH1 0x20 DUP3 ADD SWAP1 POP DUP2 DUP2 SUB PUSH1 0x0 DUP4 ADD MSTORE PUSH2 0x627 DUP2 DUP5 PUSH2 0x495 JUMP JUMPDEST SWAP1 POP SWAP3 SWAP2 POP POP JUMP JUMPDEST PUSH1 0x0 PUSH1 0x40 MLOAD SWAP1 POP DUP2 DUP2 ADD DUP2 DUP2 LT PUSH8 0xFFFFFFFFFFFFFFFF DUP3 GT OR ISZERO PUSH2 0x652 JUMPI PUSH1 0x0 DUP1 REVERT JUMPDEST DUP1 PUSH1 0x40 MSTORE POP SWAP2 SWAP1 POP JUMP JUMPDEST PUSH1 0x0 PUSH8 0xFFFFFFFFFFFFFFFF DUP3 GT ISZERO PUSH2 0x673 JUMPI PUSH1 0x0 DUP1 REVERT JUMPDEST PUSH1 0x1F NOT PUSH1 0x1F DUP4 ADD AND SWAP1 POP PUSH1 0x20 DUP2 ADD SWAP1 POP SWAP2 SWAP1 POP JUMP JUMPDEST PUSH1 0x0 DUP2 SWAP1 POP PUSH1 0x20 DUP3 ADD SWAP1 POP SWAP2 SWAP1 POP JUMP JUMPDEST PUSH1 0x0 DUP2 MLOAD SWAP1 POP SWAP2 SWAP1 POP JUMP JUMPDEST PUSH1 0x0 DUP2 MLOAD SWAP1 POP SWAP2 SWAP1 POP JUMP JUMPDEST PUSH1 0x0 PUSH1 0x20 DUP3 ADD SWAP1 POP SWAP2 SWAP1 POP JUMP JUMPDEST PUSH1 0x0 DUP3 DUP3 MSTORE PUSH1 0x20 DUP3 ADD SWAP1 POP SWAP3 SWAP2 POP POP JUMP JUMPDEST PUSH1 0x0 DUP3 DUP3 MSTORE PUSH1 0x20 DUP3 ADD SWAP1 POP SWAP3 SWAP2 POP POP JUMP JUMPDEST PUSH1 0x0 DUP2 SWAP1 POP SWAP3 SWAP2 POP POP JUMP JUMPDEST PUSH1 0x0 PUSH2 0x6F3 DUP3 PUSH2 0x70C JUMP JUMPDEST SWAP1 POP SWAP2 SWAP1 POP JUMP JUMPDEST PUSH1 0x0 PUSH2 0x705 DUP3 PUSH2 0x70C JUMP JUMPDEST SWAP1 POP SWAP2 SWAP1 POP JUMP JUMPDEST PUSH1 0x0 PUSH20 0xFFFFFFFFFFFFFFFFFFFFFFFFFFFFFFFFFFFFFFFF DUP3 AND SWAP1 POP SWAP2 SWAP1 POP JUMP JUMPDEST PUSH1 0x0 DUP2 SWAP1 POP SWAP2 SWAP1 POP JUMP JUMPDEST DUP3 DUP2 DUP4 CALLDATACOPY PUSH1 0x0 DUP4 DUP4 ADD MSTORE POP POP POP JUMP JUMPDEST PUSH1 0x0 JUMPDEST DUP4 DUP2 LT ISZERO PUSH2 0x763 JUMPI DUP1 DUP3 ADD MLOAD DUP2 DUP5 ADD MSTORE PUSH1 0x20 DUP2 ADD SWAP1 POP PUSH2 0x748 JUMP JUMPDEST DUP4 DUP2 GT ISZERO PUSH2 0x772 JUMPI PUSH1 0x0 DUP5 DUP5 ADD MSTORE JUMPDEST POP POP POP POP JUMP JUMPDEST PUSH1 0x0 PUSH2 0x783 DUP3 PUSH2 0x78A JUMP JUMPDEST SWAP1 POP SWAP2 SWAP1 POP JUMP JUMPDEST PUSH1 0x0 PUSH2 0x795 DUP3 PUSH2 0x7B7 JUMP JUMPDEST SWAP1 POP SWAP2 SWAP1 POP JUMP JUMPDEST PUSH1 0x0 DUP2 SWAP1 POP SWAP2 SWAP1 POP JUMP JUMPDEST PUSH1 0x0 PUSH1 0x1F NOT PUSH1 0x1F DUP4 ADD AND SWAP1 POP SWAP2 SWAP1 POP JUMP JUMPDEST PUSH1 0x0 DUP2 PUSH1 0x60 SHL SWAP1 POP SWAP2 SWAP1 POP JUMP JUMPDEST PUSH2 0x7CD DUP2 PUSH2 0x72C JUMP JUMPDEST DUP2 EQ PUSH2 0x7D8 JUMPI PUSH1 0x0 DUP1 REVERT JUMPDEST POP JUMP INVALID LOG2 PUSH5 0x6970667358 0x22 SLT KECCAK256 COINBASE 0xC9 0xC9 DUP13 PC 0xC5 SWAP13 SDIV PUSH4 0x28E700D3 SWAP13 0x4D 0xCF 0xA7 PUSH9 0xB6CA3571D2BE20E0DE PUSH11 0xFF87B5ED64736F6C634300 MOD 0xC STOP CALLER "
				},
				"gasEstimates": {
					"creation": {
						"codeDepositCost": "413000",
						"executionCost": "21315",
						"totalCost": "434315"
					},
					"external": {
						"Representar(string,uint256,string)": "infinite",
						"VerCandidatos()": "infinite",
						"Votar(string)": "infinite",
						"owner()": "1189"
					}
				},
				"methodIdentifiers": {
					"Representar(string,uint256,string)": "f01ca6b7",
					"VerCandidatos()": "bfc2e938",
					"Votar(string)": "febe07dc",
					"owner()": "8da5cb5b"
				}
			},
			"storageLayout": {
				"storage": [
					{
						"astId": 4,
						"contract": "Votaciones/votaciones.sol:votacion",
						"label": "owner",
						"offset": 0,
						"slot": "0",
						"type": "t_address"
					},
					{
						"astId": 8,
						"contract": "Votaciones/votaciones.sol:votacion",
						"label": "Candidato",
						"offset": 0,
						"slot": "1",
						"type": "t_mapping(t_string_memory_ptr,t_bytes32)"
					},
					{
						"astId": 12,
						"contract": "Votaciones/votaciones.sol:votacion",
						"label": "VotosCandidato",
						"offset": 0,
						"slot": "2",
						"type": "t_mapping(t_string_memory_ptr,t_uint256)"
					},
					{
						"astId": 15,
						"contract": "Votaciones/votaciones.sol:votacion",
						"label": "candidatos",
						"offset": 0,
						"slot": "3",
						"type": "t_array(t_string_storage)dyn_storage"
					},
					{
						"astId": 18,
						"contract": "Votaciones/votaciones.sol:votacion",
						"label": "votantes",
						"offset": 0,
						"slot": "4",
						"type": "t_array(t_bytes32)dyn_storage"
					}
				],
				"types": {
					"t_address": {
						"encoding": "inplace",
						"label": "address",
						"numberOfBytes": "20"
					},
					"t_array(t_bytes32)dyn_storage": {
						"base": "t_bytes32",
						"encoding": "dynamic_array",
						"label": "bytes32[]",
						"numberOfBytes": "32"
					},
					"t_array(t_string_storage)dyn_storage": {
						"base": "t_string_storage",
						"encoding": "dynamic_array",
						"label": "string[]",
						"numberOfBytes": "32"
					},
					"t_bytes32": {
						"encoding": "inplace",
						"label": "bytes32",
						"numberOfBytes": "32"
					},
					"t_mapping(t_string_memory_ptr,t_bytes32)": {
						"encoding": "mapping",
						"key": "t_string_memory_ptr",
						"label": "mapping(string => bytes32)",
						"numberOfBytes": "32",
						"value": "t_bytes32"
					},
					"t_mapping(t_string_memory_ptr,t_uint256)": {
						"encoding": "mapping",
						"key": "t_string_memory_ptr",
						"label": "mapping(string => uint256)",
						"numberOfBytes": "32",
						"value": "t_uint256"
					},
					"t_string_memory_ptr": {
						"encoding": "bytes",
						"label": "string",
						"numberOfBytes": "32"
					},
					"t_string_storage": {
						"encoding": "bytes",
						"label": "string",
						"numberOfBytes": "32"
					},
					"t_uint256": {
						"encoding": "inplace",
						"label": "uint256",
						"numberOfBytes": "32"
					}
				}
			},
			"userdoc": {
				"kind": "user",
				"methods": {},
				"version": 1
			}
		}
	}
}