{
	"Votaciones/votaciones.sol": {
		"votacion": {
			"abi": [
				{
					"inputs": [],
					"stateMutability": "nonpayable",
					"type": "constructor"
				},
				{
					"inputs": [],
					"name": "Ganador",
					"outputs": [
						{
							"internalType": "string",
							"name": "",
							"type": "string"
						}
					],
					"stateMutability": "view",
					"type": "function"
				},
				{
					"inputs": [
						{
							"internalType": "string",
							"name": "_nombre",
							"type": "string"
						},
						{
							"internalType": "uint256",
							"name": "_edad",
							"type": "uint256"
						},
						{
							"internalType": "string",
							"name": "_ID",
							"type": "string"
						}
					],
					"name": "Representar",
					"outputs": [],
					"stateMutability": "nonpayable",
					"type": "function"
				},
				{
					"inputs": [],
					"name": "VerCandidatos",
					"outputs": [
						{
							"internalType": "string[]",
							"name": "",
							"type": "string[]"
						}
					],
					"stateMutability": "view",
					"type": "function"
				},
				{
					"inputs": [],
					"name": "VerResultados",
					"outputs": [
						{
							"internalType": "string",
							"name": "",
							"type": "string"
						}
					],
					"stateMutability": "view",
					"type": "function"
				},
				{
					"inputs": [
						{
							"internalType": "string",
							"name": "_candidato",
							"type": "string"
						}
					],
					"name": "VerVotosCandidatos",
					"outputs": [
						{
							"internalType": "uint256",
							"name": "",
							"type": "uint256"
						}
					],
					"stateMutability": "view",
					"type": "function"
				},
				{
					"inputs": [
						{
							"internalType": "string",
							"name": "_candidato",
							"type": "string"
						}
					],
					"name": "Votar",
					"outputs": [],
					"stateMutability": "nonpayable",
					"type": "function"
				},
				{
					"inputs": [],
					"name": "owner",
					"outputs": [
						{
							"internalType": "address",
							"name": "",
							"type": "address"
						}
					],
					"stateMutability": "view",
					"type": "function"
				}
			],
			"devdoc": {
				"kind": "dev",
				"methods": {},
				"version": 1
			},
			"evm": {
				"assembly": "    /* \"Votaciones/votaciones.sol\":102:3582  contract votacion {\r... */\n  mstore(0x40, 0x80)\n    /* \"Votaciones/votaciones.sol\":619:678  constructor () public {\r... */\n  callvalue\n  dup1\n  iszero\n  tag_1\n  jumpi\n  0x00\n  dup1\n  revert\ntag_1:\n  pop\n    /* \"Votaciones/votaciones.sol\":660:670  msg.sender */\n  caller\n    /* \"Votaciones/votaciones.sol\":652:657  owner */\n  0x00\n  dup1\n    /* \"Votaciones/votaciones.sol\":652:670  owner = msg.sender */\n  0x0100\n  exp\n  dup2\n  sload\n  dup2\n  0xffffffffffffffffffffffffffffffffffffffff\n  mul\n  not\n  and\n  swap1\n  dup4\n  0xffffffffffffffffffffffffffffffffffffffff\n  and\n  mul\n  or\n  swap1\n  sstore\n  pop\n    /* \"Votaciones/votaciones.sol\":102:3582  contract votacion {\r... */\n  dataSize(sub_0)\n  dup1\n  dataOffset(sub_0)\n  0x00\n  codecopy\n  0x00\n  return\nstop\n\nsub_0: assembly {\n        /* \"Votaciones/votaciones.sol\":102:3582  contract votacion {\r... */\n      mstore(0x40, 0x80)\n      callvalue\n      dup1\n      iszero\n      tag_1\n      jumpi\n      0x00\n      dup1\n      revert\n    tag_1:\n      pop\n      jumpi(tag_2, lt(calldatasize, 0x04))\n      shr(0xe0, calldataload(0x00))\n      dup1\n      0xbfc2e938\n      gt\n      tag_10\n      jumpi\n      dup1\n      0xbfc2e938\n      eq\n      tag_6\n      jumpi\n      dup1\n      0xe7bf56fa\n      eq\n      tag_7\n      jumpi\n      dup1\n      0xf01ca6b7\n      eq\n      tag_8\n      jumpi\n      dup1\n      0xfebe07dc\n      eq\n      tag_9\n      jumpi\n      jump(tag_2)\n    tag_10:\n      dup1\n      0x4c25de51\n      eq\n      tag_3\n      jumpi\n      dup1\n      0x55911cc1\n      eq\n      tag_4\n      jumpi\n      dup1\n      0x8da5cb5b\n      eq\n      tag_5\n      jumpi\n    tag_2:\n      0x00\n      dup1\n      revert\n        /* \"Votaciones/votaciones.sol\":1977:2109  function VerVotosCandidatos(string memory _candidato) public view returns(uint) {\r... */\n    tag_3:\n      tag_11\n      0x04\n      dup1\n      calldatasize\n      sub\n      dup2\n      add\n      swap1\n      tag_12\n      swap2\n      swap1\n      tag_13\n      jump\t// in\n    tag_12:\n      tag_14\n      jump\t// in\n    tag_11:\n      mload(0x40)\n      tag_15\n      swap2\n      swap1\n      tag_16\n      jump\t// in\n    tag_15:\n      mload(0x40)\n      dup1\n      swap2\n      sub\n      swap1\n      return\n        /* \"Votaciones/votaciones.sol\":2748:2956  function Ganador() view public returns(string memory) {\r... */\n    tag_4:\n      tag_17\n      tag_18\n      jump\t// in\n    tag_17:\n      mload(0x40)\n      tag_19\n      swap2\n      swap1\n      tag_20\n      jump\t// in\n    tag_19:\n      mload(0x40)\n      dup1\n      swap2\n      sub\n      swap1\n      return\n        /* \"Votaciones/votaciones.sol\":175:195  address public owner */\n    tag_5:\n      tag_21\n      tag_22\n      jump\t// in\n    tag_21:\n      mload(0x40)\n      tag_23\n      swap2\n      swap1\n      tag_24\n      jump\t// in\n    tag_23:\n      mload(0x40)\n      dup1\n      swap2\n      sub\n      swap1\n      return\n        /* \"Votaciones/votaciones.sol\":1263:1361  function VerCandidatos() public view returns(string[] memory) {\r... */\n    tag_6:\n      tag_25\n      tag_26\n      jump\t// in\n    tag_25:\n      mload(0x40)\n      tag_27\n      swap2\n      swap1\n      tag_28\n      jump\t// in\n    tag_27:\n      mload(0x40)\n      dup1\n      swap2\n      sub\n      swap1\n      return\n        /* \"Votaciones/votaciones.sol\":2169:2710  function VerResultados() public view returns (string memory) {\r... */\n    tag_7:\n      tag_29\n      tag_30\n      jump\t// in\n    tag_29:\n      mload(0x40)\n      tag_31\n      swap2\n      swap1\n      tag_20\n      jump\t// in\n    tag_31:\n      mload(0x40)\n      dup1\n      swap2\n      sub\n      swap1\n      return\n        /* \"Votaciones/votaciones.sol\":748:1173  function Representar(string memory _nombre, uint _edad, string memory _ID) public {\r... */\n    tag_8:\n      tag_32\n      0x04\n      dup1\n      calldatasize\n      sub\n      dup2\n      add\n      swap1\n      tag_33\n      swap2\n      swap1\n      tag_34\n      jump\t// in\n    tag_33:\n      tag_35\n      jump\t// in\n    tag_32:\n      stop\n        /* \"Votaciones/votaciones.sol\":1408:1939  function Votar(string memory _candidato) public {\r... */\n    tag_9:\n      tag_36\n      0x04\n      dup1\n      calldatasize\n      sub\n      dup2\n      add\n      swap1\n      tag_37\n      swap2\n      swap1\n      tag_13\n      jump\t// in\n    tag_37:\n      tag_38\n      jump\t// in\n    tag_36:\n      stop\n        /* \"Votaciones/votaciones.sol\":1977:2109  function VerVotosCandidatos(string memory _candidato) public view returns(uint) {\r... */\n    tag_14:\n        /* \"Votaciones/votaciones.sol\":2051:2055  uint */\n      0x00\n        /* \"Votaciones/votaciones.sol\":2075:2089  VotosCandidato */\n      0x02\n        /* \"Votaciones/votaciones.sol\":2090:2100  _candidato */\n      dup3\n        /* \"Votaciones/votaciones.sol\":2075:2101  VotosCandidato[_candidato] */\n      mload(0x40)\n      tag_40\n      swap2\n      swap1\n      tag_41\n      jump\t// in\n    tag_40:\n      swap1\n      dup2\n      mstore\n      0x20\n      add\n      mload(0x40)\n      dup1\n      swap2\n      sub\n      swap1\n      keccak256\n      sload\n        /* \"Votaciones/votaciones.sol\":2068:2101  return VotosCandidato[_candidato] */\n      swap1\n      pop\n        /* \"Votaciones/votaciones.sol\":1977:2109  function VerVotosCandidatos(string memory _candidato) public view returns(uint) {\r... */\n      swap2\n      swap1\n      pop\n      jump\t// out\n        /* \"Votaciones/votaciones.sol\":2748:2956  function Ganador() view public returns(string memory) {\r... */\n    tag_18:\n        /* \"Votaciones/votaciones.sol\":2787:2800  string memory */\n      0x60\n        /* \"Votaciones/votaciones.sol\":2833:2854  string memory ganador */\n      dup1\n        /* \"Votaciones/votaciones.sol\":2857:2867  candidatos */\n      0x03\n        /* \"Votaciones/votaciones.sol\":2868:2869  0 */\n      0x00\n        /* \"Votaciones/votaciones.sol\":2857:2870  candidatos[0] */\n      dup2\n      sload\n      dup2\n      lt\n      tag_43\n      jumpi\n      invalid\n    tag_43:\n      swap1\n      0x00\n      mstore\n      keccak256(0x00, 0x20)\n      add\n        /* \"Votaciones/votaciones.sol\":2833:2870  string memory ganador = candidatos[0] */\n      dup1\n      sload\n      0x01\n      dup2\n      0x01\n      and\n      iszero\n      0x0100\n      mul\n      sub\n      and\n      0x02\n      swap1\n      div\n      dup1\n      0x1f\n      add\n      0x20\n      dup1\n      swap2\n      div\n      mul\n      0x20\n      add\n      mload(0x40)\n      swap1\n      dup2\n      add\n      0x40\n      mstore\n      dup1\n      swap3\n      swap2\n      swap1\n      dup2\n      dup2\n      mstore\n      0x20\n      add\n      dup3\n      dup1\n      sload\n      0x01\n      dup2\n      0x01\n      and\n      iszero\n      0x0100\n      mul\n      sub\n      and\n      0x02\n      swap1\n      div\n      dup1\n      iszero\n      tag_45\n      jumpi\n      dup1\n      0x1f\n      lt\n      tag_46\n      jumpi\n      0x0100\n      dup1\n      dup4\n      sload\n      div\n      mul\n      dup4\n      mstore\n      swap2\n      0x20\n      add\n      swap2\n      jump(tag_45)\n    tag_46:\n      dup3\n      add\n      swap2\n      swap1\n      0x00\n      mstore\n      keccak256(0x00, 0x20)\n      swap1\n    tag_47:\n      dup2\n      sload\n      dup2\n      mstore\n      swap1\n      0x01\n      add\n      swap1\n      0x20\n      add\n      dup1\n      dup4\n      gt\n      tag_47\n      jumpi\n      dup3\n      swap1\n      sub\n      0x1f\n      and\n      dup3\n      add\n      swap2\n    tag_45:\n      pop\n      pop\n      pop\n      pop\n      pop\n      swap1\n      pop\n        /* \"Votaciones/votaciones.sol\":2886:2899  uint iterator */\n      0x00\n        /* \"Votaciones/votaciones.sol\":2902:2903  1 */\n      0x01\n        /* \"Votaciones/votaciones.sol\":2886:2903  uint iterator = 1 */\n      swap1\n      pop\n        /* \"Votaciones/votaciones.sol\":2881:2949  for (uint iterator = 1; iterator < candidatos.length; iterator++) {} */\n    tag_48:\n        /* \"Votaciones/votaciones.sol\":2916:2926  candidatos */\n      0x03\n        /* \"Votaciones/votaciones.sol\":2916:2933  candidatos.length */\n      dup1\n      sload\n      swap1\n      pop\n        /* \"Votaciones/votaciones.sol\":2905:2913  iterator */\n      dup2\n        /* \"Votaciones/votaciones.sol\":2905:2933  iterator < candidatos.length */\n      lt\n        /* \"Votaciones/votaciones.sol\":2881:2949  for (uint iterator = 1; iterator < candidatos.length; iterator++) {} */\n      iszero\n      tag_49\n      jumpi\n        /* \"Votaciones/votaciones.sol\":2935:2945  iterator++ */\n      dup1\n      dup1\n      0x01\n      add\n      swap2\n      pop\n      pop\n        /* \"Votaciones/votaciones.sol\":2881:2949  for (uint iterator = 1; iterator < candidatos.length; iterator++) {} */\n      jump(tag_48)\n    tag_49:\n      pop\n        /* \"Votaciones/votaciones.sol\":2748:2956  function Ganador() view public returns(string memory) {\r... */\n      pop\n      swap1\n      jump\t// out\n        /* \"Votaciones/votaciones.sol\":175:195  address public owner */\n    tag_22:\n      0x00\n      dup1\n      sload\n      swap1\n      0x0100\n      exp\n      swap1\n      div\n      0xffffffffffffffffffffffffffffffffffffffff\n      and\n      dup2\n      jump\t// out\n        /* \"Votaciones/votaciones.sol\":1263:1361  function VerCandidatos() public view returns(string[] memory) {\r... */\n    tag_26:\n        /* \"Votaciones/votaciones.sol\":1308:1323  string[] memory */\n      0x60\n        /* \"Votaciones/votaciones.sol\":1343:1353  candidatos */\n      0x03\n        /* \"Votaciones/votaciones.sol\":1336:1353  return candidatos */\n      dup1\n      sload\n      dup1\n      0x20\n      mul\n      0x20\n      add\n      mload(0x40)\n      swap1\n      dup2\n      add\n      0x40\n      mstore\n      dup1\n      swap3\n      swap2\n      swap1\n      dup2\n      dup2\n      mstore\n      0x20\n      add\n      0x00\n      swap1\n    tag_52:\n      dup3\n      dup3\n      lt\n      iszero\n      tag_53\n      jumpi\n      dup4\n      dup3\n      swap1\n      0x00\n      mstore\n      keccak256(0x00, 0x20)\n      add\n      dup1\n      sload\n      0x01\n      dup2\n      0x01\n      and\n      iszero\n      0x0100\n      mul\n      sub\n      and\n      0x02\n      swap1\n      div\n      dup1\n      0x1f\n      add\n      0x20\n      dup1\n      swap2\n      div\n      mul\n      0x20\n      add\n      mload(0x40)\n      swap1\n      dup2\n      add\n      0x40\n      mstore\n      dup1\n      swap3\n      swap2\n      swap1\n      dup2\n      dup2\n      mstore\n      0x20\n      add\n      dup3\n      dup1\n      sload\n      0x01\n      dup2\n      0x01\n      and\n      iszero\n      0x0100\n      mul\n      sub\n      and\n      0x02\n      swap1\n      div\n      dup1\n      iszero\n      tag_55\n      jumpi\n      dup1\n      0x1f\n      lt\n      tag_56\n      jumpi\n      0x0100\n      dup1\n      dup4\n      sload\n      div\n      mul\n      dup4\n      mstore\n      swap2\n      0x20\n      add\n      swap2\n      jump(tag_55)\n    tag_56:\n      dup3\n      add\n      swap2\n      swap1\n      0x00\n      mstore\n      keccak256(0x00, 0x20)\n      swap1\n    tag_57:\n      dup2\n      sload\n      dup2\n      mstore\n      swap1\n      0x01\n      add\n      swap1\n      0x20\n      add\n      dup1\n      dup4\n      gt\n      tag_57\n      jumpi\n      dup3\n      swap1\n      sub\n      0x1f\n      and\n      dup3\n      add\n      swap2\n    tag_55:\n      pop\n      pop\n      pop\n      pop\n      pop\n      dup2\n      mstore\n      0x20\n      add\n      swap1\n      0x01\n      add\n      swap1\n      jump(tag_52)\n    tag_53:\n      pop\n      pop\n      pop\n      pop\n      swap1\n      pop\n        /* \"Votaciones/votaciones.sol\":1263:1361  function VerCandidatos() public view returns(string[] memory) {\r... */\n      swap1\n      jump\t// out\n        /* \"Votaciones/votaciones.sol\":2169:2710  function VerResultados() public view returns (string memory) {\r... */\n    tag_30:\n        /* \"Votaciones/votaciones.sol\":2215:2228  string memory */\n      0x60\n        /* \"Votaciones/votaciones.sol\":2279:2303  string memory resultados */\n      dup1\n        /* \"Votaciones/votaciones.sol\":2367:2380  uint iterator */\n      0x00\n        /* \"Votaciones/votaciones.sol\":2362:2673  for (uint iterator = 0; iterator < candidatos.length; iterator++) {\r... */\n    tag_59:\n        /* \"Votaciones/votaciones.sol\":2397:2407  candidatos */\n      0x03\n        /* \"Votaciones/votaciones.sol\":2397:2414  candidatos.length */\n      dup1\n      sload\n      swap1\n      pop\n        /* \"Votaciones/votaciones.sol\":2386:2394  iterator */\n      dup2\n        /* \"Votaciones/votaciones.sol\":2386:2414  iterator < candidatos.length */\n      lt\n        /* \"Votaciones/votaciones.sol\":2362:2673  for (uint iterator = 0; iterator < candidatos.length; iterator++) {\r... */\n      iszero\n      tag_60\n      jumpi\n        /* \"Votaciones/votaciones.sol\":2560:2570  resultados */\n      dup2\n        /* \"Votaciones/votaciones.sol\":2578:2588  candidatos */\n      0x03\n        /* \"Votaciones/votaciones.sol\":2589:2597  iterator */\n      dup3\n        /* \"Votaciones/votaciones.sol\":2578:2598  candidatos[iterator] */\n      dup2\n      sload\n      dup2\n      lt\n      tag_62\n      jumpi\n      invalid\n    tag_62:\n      swap1\n      0x00\n      mstore\n      keccak256(0x00, 0x20)\n      add\n        /* \"Votaciones/votaciones.sol\":2605:2651  uint2str(VotosCandidato[candidatos[iterator]]) */\n      tag_64\n        /* \"Votaciones/votaciones.sol\":2614:2628  VotosCandidato */\n      0x02\n        /* \"Votaciones/votaciones.sol\":2629:2639  candidatos */\n      0x03\n        /* \"Votaciones/votaciones.sol\":2640:2648  iterator */\n      dup6\n        /* \"Votaciones/votaciones.sol\":2629:2649  candidatos[iterator] */\n      dup2\n      sload\n      dup2\n      lt\n      tag_65\n      jumpi\n      invalid\n    tag_65:\n      swap1\n      0x00\n      mstore\n      keccak256(0x00, 0x20)\n      add\n        /* \"Votaciones/votaciones.sol\":2614:2650  VotosCandidato[candidatos[iterator]] */\n      mload(0x40)\n      tag_67\n      swap2\n      swap1\n      tag_68\n      jump\t// in\n    tag_67:\n      swap1\n      dup2\n      mstore\n      0x20\n      add\n      mload(0x40)\n      dup1\n      swap2\n      sub\n      swap1\n      keccak256\n      sload\n        /* \"Votaciones/votaciones.sol\":2605:2613  uint2str */\n      tag_69\n        /* \"Votaciones/votaciones.sol\":2605:2651  uint2str(VotosCandidato[candidatos[iterator]]) */\n      jump\t// in\n    tag_64:\n        /* \"Votaciones/votaciones.sol\":2543:2660  abi.encodePacked(resultados, \"| \", candidatos[iterator], \" \", uint2str(VotosCandidato[candidatos[iterator]]), \" |\\n\") */\n      add(0x20, mload(0x40))\n      tag_70\n      swap4\n      swap3\n      swap2\n      swap1\n      tag_71\n      jump\t// in\n    tag_70:\n      mload(0x40)\n      0x20\n      dup2\n      dup4\n      sub\n      sub\n      dup2\n      mstore\n      swap1\n      0x40\n      mstore\n        /* \"Votaciones/votaciones.sol\":2523:2661  resultados = string(abi.encodePacked(resultados, \"| \", candidatos[iterator], \" \", uint2str(VotosCandidato[candidatos[iterator]]), \" |\\n\")) */\n      swap2\n      pop\n        /* \"Votaciones/votaciones.sol\":2416:2426  iterator++ */\n      dup1\n      dup1\n      0x01\n      add\n      swap2\n      pop\n      pop\n        /* \"Votaciones/votaciones.sol\":2362:2673  for (uint iterator = 0; iterator < candidatos.length; iterator++) {\r... */\n      jump(tag_59)\n    tag_60:\n      pop\n        /* \"Votaciones/votaciones.sol\":2692:2702  resultados */\n      dup1\n        /* \"Votaciones/votaciones.sol\":2685:2702  return resultados */\n      swap2\n      pop\n      pop\n        /* \"Votaciones/votaciones.sol\":2169:2710  function VerResultados() public view returns (string memory) {\r... */\n      swap1\n      jump\t// out\n        /* \"Votaciones/votaciones.sol\":748:1173  function Representar(string memory _nombre, uint _edad, string memory _ID) public {\r... */\n    tag_35:\n        /* \"Votaciones/votaciones.sol\":885:906  bytes32 hashCandidato */\n      0x00\n        /* \"Votaciones/votaciones.sol\":936:943  _nombre */\n      dup4\n        /* \"Votaciones/votaciones.sol\":945:950  _edad */\n      dup4\n        /* \"Votaciones/votaciones.sol\":952:955  _ID */\n      dup4\n        /* \"Votaciones/votaciones.sol\":919:956  abi.encodePacked(_nombre, _edad, _ID) */\n      add(0x20, mload(0x40))\n      tag_73\n      swap4\n      swap3\n      swap2\n      swap1\n      tag_74\n      jump\t// in\n    tag_73:\n      mload(0x40)\n      0x20\n      dup2\n      dup4\n      sub\n      sub\n      dup2\n      mstore\n      swap1\n      0x40\n      mstore\n        /* \"Votaciones/votaciones.sol\":909:957  keccak256(abi.encodePacked(_nombre, _edad, _ID)) */\n      dup1\n      mload\n      swap1\n      0x20\n      add\n      keccak256\n        /* \"Votaciones/votaciones.sol\":885:957  bytes32 hashCandidato = keccak256(abi.encodePacked(_nombre, _edad, _ID)) */\n      swap1\n      pop\n        /* \"Votaciones/votaciones.sol\":1068:1081  hashCandidato */\n      dup1\n        /* \"Votaciones/votaciones.sol\":1047:1056  Candidato */\n      0x01\n        /* \"Votaciones/votaciones.sol\":1057:1064  _nombre */\n      dup6\n        /* \"Votaciones/votaciones.sol\":1047:1065  Candidato[_nombre] */\n      mload(0x40)\n      tag_75\n      swap2\n      swap1\n      tag_41\n      jump\t// in\n    tag_75:\n      swap1\n      dup2\n      mstore\n      0x20\n      add\n      mload(0x40)\n      dup1\n      swap2\n      sub\n      swap1\n      keccak256\n        /* \"Votaciones/votaciones.sol\":1047:1081  Candidato[_nombre] = hashCandidato */\n      dup2\n      swap1\n      sstore\n      pop\n        /* \"Votaciones/votaciones.sol\":1141:1151  candidatos */\n      0x03\n        /* \"Votaciones/votaciones.sol\":1157:1164  _nombre */\n      dup5\n        /* \"Votaciones/votaciones.sol\":1141:1165  candidatos.push(_nombre) */\n      swap1\n      dup1\n      0x01\n      dup2\n      sload\n      add\n      dup1\n      dup3\n      sstore\n      dup1\n      swap2\n      pop\n      pop\n      0x01\n      swap1\n      sub\n      swap1\n      0x00\n      mstore\n      keccak256(0x00, 0x20)\n      add\n      0x00\n      swap1\n      swap2\n      swap1\n      swap2\n      swap1\n      swap2\n      pop\n      swap1\n      dup1\n      mload\n      swap1\n      0x20\n      add\n      swap1\n      tag_77\n      swap3\n      swap2\n      swap1\n      tag_78\n      jump\t// in\n    tag_77:\n      pop\n        /* \"Votaciones/votaciones.sol\":748:1173  function Representar(string memory _nombre, uint _edad, string memory _ID) public {\r... */\n      pop\n      pop\n      pop\n      pop\n      jump\t// out\n        /* \"Votaciones/votaciones.sol\":1408:1939  function Votar(string memory _candidato) public {\r... */\n    tag_38:\n        /* \"Votaciones/votaciones.sol\":1498:1518  bytes32 hash_votante */\n      0x00\n        /* \"Votaciones/votaciones.sol\":1548:1558  msg.sender */\n      caller\n        /* \"Votaciones/votaciones.sol\":1531:1559  abi.encodePacked(msg.sender) */\n      add(0x20, mload(0x40))\n      tag_80\n      swap2\n      swap1\n      tag_81\n      jump\t// in\n    tag_80:\n      mload(0x40)\n      0x20\n      dup2\n      dup4\n      sub\n      sub\n      dup2\n      mstore\n      swap1\n      0x40\n      mstore\n        /* \"Votaciones/votaciones.sol\":1521:1560  keccak256(abi.encodePacked(msg.sender)) */\n      dup1\n      mload\n      swap1\n      0x20\n      add\n      keccak256\n        /* \"Votaciones/votaciones.sol\":1498:1560  bytes32 hash_votante = keccak256(abi.encodePacked(msg.sender)) */\n      swap1\n      pop\n        /* \"Votaciones/votaciones.sol\":1620:1633  uint iterator */\n      0x00\n        /* \"Votaciones/votaciones.sol\":1616:1780  for(uint iterator = 0; iterator < votantes.length; iterator++) {\r... */\n    tag_82:\n        /* \"Votaciones/votaciones.sol\":1650:1658  votantes */\n      0x04\n        /* \"Votaciones/votaciones.sol\":1650:1665  votantes.length */\n      dup1\n      sload\n      swap1\n      pop\n        /* \"Votaciones/votaciones.sol\":1639:1647  iterator */\n      dup2\n        /* \"Votaciones/votaciones.sol\":1639:1665  iterator < votantes.length */\n      lt\n        /* \"Votaciones/votaciones.sol\":1616:1780  for(uint iterator = 0; iterator < votantes.length; iterator++) {\r... */\n      iszero\n      tag_83\n      jumpi\n        /* \"Votaciones/votaciones.sol\":1718:1726  votantes */\n      0x04\n        /* \"Votaciones/votaciones.sol\":1727:1735  iterator */\n      dup2\n        /* \"Votaciones/votaciones.sol\":1718:1736  votantes[iterator] */\n      dup2\n      sload\n      dup2\n      lt\n      tag_85\n      jumpi\n      invalid\n    tag_85:\n      swap1\n      0x00\n      mstore\n      keccak256(0x00, 0x20)\n      add\n      sload\n        /* \"Votaciones/votaciones.sol\":1702:1714  hash_votante */\n      dup3\n        /* \"Votaciones/votaciones.sol\":1702:1736  hash_votante != votantes[iterator] */\n      eq\n      iszero\n        /* \"Votaciones/votaciones.sol\":1694:1768  require(hash_votante != votantes[iterator], \"Ya se ha votado previamente\") */\n      tag_87\n      jumpi\n      mload(0x40)\n      0x08c379a000000000000000000000000000000000000000000000000000000000\n      dup2\n      mstore\n      0x04\n      add\n      tag_88\n      swap1\n      tag_89\n      jump\t// in\n    tag_88:\n      mload(0x40)\n      dup1\n      swap2\n      sub\n      swap1\n      revert\n    tag_87:\n        /* \"Votaciones/votaciones.sol\":1667:1677  iterator++ */\n      dup1\n      dup1\n      0x01\n      add\n      swap2\n      pop\n      pop\n        /* \"Votaciones/votaciones.sol\":1616:1780  for(uint iterator = 0; iterator < votantes.length; iterator++) {\r... */\n      jump(tag_82)\n    tag_83:\n      pop\n        /* \"Votaciones/votaciones.sol\":1827:1835  votantes */\n      0x04\n        /* \"Votaciones/votaciones.sol\":1841:1853  hash_votante */\n      dup2\n        /* \"Votaciones/votaciones.sol\":1827:1854  votantes.push(hash_votante) */\n      swap1\n      dup1\n      0x01\n      dup2\n      sload\n      add\n      dup1\n      dup3\n      sstore\n      dup1\n      swap2\n      pop\n      pop\n      0x01\n      swap1\n      sub\n      swap1\n      0x00\n      mstore\n      keccak256(0x00, 0x20)\n      add\n      0x00\n      swap1\n      swap2\n      swap1\n      swap2\n      swap1\n      swap2\n      pop\n      sstore\n        /* \"Votaciones/votaciones.sol\":1903:1917  VotosCandidato */\n      0x02\n        /* \"Votaciones/votaciones.sol\":1918:1928  _candidato */\n      dup3\n        /* \"Votaciones/votaciones.sol\":1903:1929  VotosCandidato[_candidato] */\n      mload(0x40)\n      tag_91\n      swap2\n      swap1\n      tag_41\n      jump\t// in\n    tag_91:\n      swap1\n      dup2\n      mstore\n      0x20\n      add\n      mload(0x40)\n      dup1\n      swap2\n      sub\n      swap1\n      keccak256\n      0x00\n        /* \"Votaciones/votaciones.sol\":1903:1931  VotosCandidato[_candidato]++ */\n      dup2\n      sload\n      dup1\n      swap3\n      swap2\n      swap1\n      0x01\n      add\n      swap2\n      swap1\n      pop\n      sstore\n      pop\n        /* \"Votaciones/votaciones.sol\":1408:1939  function Votar(string memory _candidato) public {\r... */\n      pop\n      pop\n      jump\t// out\n        /* \"Votaciones/votaciones.sol\":3006:3579  function uint2str(uint _i) internal pure returns (string memory _uintAsString) {\r... */\n    tag_69:\n        /* \"Votaciones/votaciones.sol\":3056:3083  string memory _uintAsString */\n      0x60\n        /* \"Votaciones/votaciones.sol\":3106:3107  0 */\n      0x00\n        /* \"Votaciones/votaciones.sol\":3100:3102  _i */\n      dup3\n        /* \"Votaciones/votaciones.sol\":3100:3107  _i == 0 */\n      eq\n        /* \"Votaciones/votaciones.sol\":3096:3146  if (_i == 0) {\r... */\n      iszero\n      tag_93\n      jumpi\n        /* \"Votaciones/votaciones.sol\":3124:3134  return \"0\" */\n      mload(0x40)\n      dup1\n      0x40\n      add\n      0x40\n      mstore\n      dup1\n      0x01\n      dup2\n      mstore\n      0x20\n      add\n      0x3000000000000000000000000000000000000000000000000000000000000000\n      dup2\n      mstore\n      pop\n      swap1\n      pop\n      jump(tag_92)\n        /* \"Votaciones/votaciones.sol\":3096:3146  if (_i == 0) {\r... */\n    tag_93:\n        /* \"Votaciones/votaciones.sol\":3156:3162  uint j */\n      0x00\n        /* \"Votaciones/votaciones.sol\":3165:3167  _i */\n      dup3\n        /* \"Votaciones/votaciones.sol\":3156:3167  uint j = _i */\n      swap1\n      pop\n        /* \"Votaciones/votaciones.sol\":3178:3186  uint len */\n      0x00\n        /* \"Votaciones/votaciones.sol\":3197:3266  while (j != 0) {\r... */\n    tag_94:\n        /* \"Votaciones/votaciones.sol\":3209:3210  0 */\n      0x00\n        /* \"Votaciones/votaciones.sol\":3204:3205  j */\n      dup3\n        /* \"Votaciones/votaciones.sol\":3204:3210  j != 0 */\n      eq\n        /* \"Votaciones/votaciones.sol\":3197:3266  while (j != 0) {\r... */\n      tag_95\n      jumpi\n        /* \"Votaciones/votaciones.sol\":3227:3232  len++ */\n      dup1\n      dup1\n      0x01\n      add\n      swap2\n      pop\n      pop\n        /* \"Votaciones/votaciones.sol\":3252:3254  10 */\n      0x0a\n        /* \"Votaciones/votaciones.sol\":3247:3254  j /= 10 */\n      dup3\n      dup2\n      tag_96\n      jumpi\n      invalid\n    tag_96:\n      div\n      swap2\n      pop\n        /* \"Votaciones/votaciones.sol\":3197:3266  while (j != 0) {\r... */\n      jump(tag_94)\n    tag_95:\n        /* \"Votaciones/votaciones.sol\":3276:3293  bytes memory bstr */\n      0x60\n        /* \"Votaciones/votaciones.sol\":3306:3309  len */\n      dup2\n        /* \"Votaciones/votaciones.sol\":3296:3310  new bytes(len) */\n      0xffffffffffffffff\n      dup2\n      gt\n      dup1\n      iszero\n      tag_97\n      jumpi\n      0x00\n      dup1\n      revert\n    tag_97:\n      pop\n      mload(0x40)\n      swap1\n      dup1\n      dup3\n      mstore\n      dup1\n      0x1f\n      add\n      not(0x1f)\n      and\n      0x20\n      add\n      dup3\n      add\n      0x40\n      mstore\n      dup1\n      iszero\n      tag_98\n      jumpi\n      dup2\n      0x20\n      add\n      0x01\n      dup3\n      mul\n      dup1\n      calldatasize\n      dup4\n      calldatacopy\n      dup1\n      dup3\n      add\n      swap2\n      pop\n      pop\n      swap1\n      pop\n    tag_98:\n      pop\n        /* \"Votaciones/votaciones.sol\":3276:3310  bytes memory bstr = new bytes(len) */\n      swap1\n      pop\n        /* \"Votaciones/votaciones.sol\":3321:3327  uint k */\n      0x00\n        /* \"Votaciones/votaciones.sol\":3330:3333  len */\n      dup3\n        /* \"Votaciones/votaciones.sol\":3321:3333  uint k = len */\n      swap1\n      pop\n        /* \"Votaciones/votaciones.sol\":3344:3542  while (_i != 0) {\r... */\n    tag_99:\n        /* \"Votaciones/votaciones.sol\":3357:3358  0 */\n      0x00\n        /* \"Votaciones/votaciones.sol\":3351:3353  _i */\n      dup7\n        /* \"Votaciones/votaciones.sol\":3351:3358  _i != 0 */\n      eq\n        /* \"Votaciones/votaciones.sol\":3344:3542  while (_i != 0) {\r... */\n      tag_100\n      jumpi\n        /* \"Votaciones/votaciones.sol\":3381:3382  1 */\n      0x01\n        /* \"Votaciones/votaciones.sol\":3379:3380  k */\n      dup2\n        /* \"Votaciones/votaciones.sol\":3379:3382  k-1 */\n      sub\n        /* \"Votaciones/votaciones.sol\":3375:3382  k = k-1 */\n      swap1\n      pop\n        /* \"Votaciones/votaciones.sol\":3397:3407  uint8 temp */\n      0x00\n        /* \"Votaciones/votaciones.sol\":3437:3439  10 */\n      0x0a\n        /* \"Votaciones/votaciones.sol\":3432:3434  10 */\n      dup1\n        /* \"Votaciones/votaciones.sol\":3427:3429  _i */\n      dup9\n        /* \"Votaciones/votaciones.sol\":3427:3434  _i / 10 */\n      dup2\n      tag_101\n      jumpi\n      invalid\n    tag_101:\n      div\n        /* \"Votaciones/votaciones.sol\":3427:3439  _i / 10 * 10 */\n      mul\n        /* \"Votaciones/votaciones.sol\":3422:3424  _i */\n      dup8\n        /* \"Votaciones/votaciones.sol\":3422:3439  _i - _i / 10 * 10 */\n      sub\n        /* \"Votaciones/votaciones.sol\":3411:3413  48 */\n      0x30\n        /* \"Votaciones/votaciones.sol\":3411:3440  48 + uint8(_i - _i / 10 * 10) */\n      add\n        /* \"Votaciones/votaciones.sol\":3397:3441  uint8 temp = (48 + uint8(_i - _i / 10 * 10)) */\n      swap1\n      pop\n        /* \"Votaciones/votaciones.sol\":3456:3465  bytes1 b1 */\n      0x00\n        /* \"Votaciones/votaciones.sol\":3475:3479  temp */\n      dup2\n        /* \"Votaciones/votaciones.sol\":3468:3480  bytes1(temp) */\n      0xf8\n      shl\n        /* \"Votaciones/votaciones.sol\":3456:3480  bytes1 b1 = bytes1(temp) */\n      swap1\n      pop\n        /* \"Votaciones/votaciones.sol\":3505:3507  b1 */\n      dup1\n        /* \"Votaciones/votaciones.sol\":3495:3499  bstr */\n      dup5\n        /* \"Votaciones/votaciones.sol\":3500:3501  k */\n      dup5\n        /* \"Votaciones/votaciones.sol\":3495:3502  bstr[k] */\n      dup2\n      mload\n      dup2\n      lt\n      tag_102\n      jumpi\n      invalid\n    tag_102:\n      0x20\n      add\n      add\n        /* \"Votaciones/votaciones.sol\":3495:3507  bstr[k] = b1 */\n      swap1\n      not(0xffffffffffffffffffffffffffffffffffffffffffffffffffffffffffffff)\n      and\n      swap1\n      dup2\n      0x00\n      byte\n      swap1\n      mstore8\n      pop\n        /* \"Votaciones/votaciones.sol\":3528:3530  10 */\n      0x0a\n        /* \"Votaciones/votaciones.sol\":3522:3530  _i /= 10 */\n      dup9\n      dup2\n      tag_103\n      jumpi\n      invalid\n    tag_103:\n      div\n      swap8\n      pop\n        /* \"Votaciones/votaciones.sol\":3344:3542  while (_i != 0) {\r... */\n      pop\n      pop\n      jump(tag_99)\n    tag_100:\n        /* \"Votaciones/votaciones.sol\":3566:3570  bstr */\n      dup2\n        /* \"Votaciones/votaciones.sol\":3552:3571  return string(bstr) */\n      swap5\n      pop\n      pop\n      pop\n      pop\n      pop\n        /* \"Votaciones/votaciones.sol\":3006:3579  function uint2str(uint _i) internal pure returns (string memory _uintAsString) {\r... */\n    tag_92:\n      swap2\n      swap1\n      pop\n      jump\t// out\n    tag_78:\n      dup3\n      dup1\n      sload\n      0x01\n      dup2\n      0x01\n      and\n      iszero\n      0x0100\n      mul\n      sub\n      and\n      0x02\n      swap1\n      div\n      swap1\n      0x00\n      mstore\n      keccak256(0x00, 0x20)\n      swap1\n      0x1f\n      add\n      0x20\n      swap1\n      div\n      dup2\n      add\n      swap3\n      dup3\n      0x1f\n      lt\n      tag_105\n      jumpi\n      dup1\n      mload\n      not(0xff)\n      and\n      dup4\n      dup1\n      add\n      or\n      dup6\n      sstore\n      jump(tag_104)\n    tag_105:\n      dup3\n      dup1\n      add\n      0x01\n      add\n      dup6\n      sstore\n      dup3\n      iszero\n      tag_104\n      jumpi\n      swap2\n      dup3\n      add\n    tag_106:\n      dup3\n      dup2\n      gt\n      iszero\n      tag_107\n      jumpi\n      dup3\n      mload\n      dup3\n      sstore\n      swap2\n      0x20\n      add\n      swap2\n      swap1\n      0x01\n      add\n      swap1\n      jump(tag_106)\n    tag_107:\n    tag_104:\n      pop\n      swap1\n      pop\n      tag_108\n      swap2\n      swap1\n      tag_109\n      jump\t// in\n    tag_108:\n      pop\n      swap1\n      jump\t// out\n    tag_109:\n    tag_110:\n      dup1\n      dup3\n      gt\n      iszero\n      tag_111\n      jumpi\n      0x00\n      dup2\n      0x00\n      swap1\n      sstore\n      pop\n      0x01\n      add\n      jump(tag_110)\n    tag_111:\n      pop\n      swap1\n      jump\t// out\n        /* \"--CODEGEN--\":6:448   */\n    tag_113:\n      0x00\n        /* \"--CODEGEN--\":108:111   */\n      dup3\n        /* \"--CODEGEN--\":101:105   */\n      0x1f\n        /* \"--CODEGEN--\":93:99   */\n      dup4\n        /* \"--CODEGEN--\":89:106   */\n      add\n        /* \"--CODEGEN--\":85:112   */\n      slt\n        /* \"--CODEGEN--\":75:77   */\n      tag_115\n      jumpi\n        /* \"--CODEGEN--\":126:127   */\n      0x00\n        /* \"--CODEGEN--\":123:124   */\n      dup1\n        /* \"--CODEGEN--\":116:128   */\n      revert\n        /* \"--CODEGEN--\":75:77   */\n    tag_115:\n        /* \"--CODEGEN--\":163:169   */\n      dup2\n        /* \"--CODEGEN--\":150:170   */\n      calldataload\n        /* \"--CODEGEN--\":185:250   */\n      tag_116\n        /* \"--CODEGEN--\":200:249   */\n      tag_117\n        /* \"--CODEGEN--\":242:248   */\n      dup3\n        /* \"--CODEGEN--\":200:249   */\n      tag_118\n      jump\t// in\n    tag_117:\n        /* \"--CODEGEN--\":185:250   */\n      tag_119\n      jump\t// in\n    tag_116:\n        /* \"--CODEGEN--\":176:250   */\n      swap2\n      pop\n        /* \"--CODEGEN--\":270:276   */\n      dup1\n        /* \"--CODEGEN--\":263:268   */\n      dup3\n        /* \"--CODEGEN--\":256:277   */\n      mstore\n        /* \"--CODEGEN--\":306:310   */\n      0x20\n        /* \"--CODEGEN--\":298:304   */\n      dup4\n        /* \"--CODEGEN--\":294:311   */\n      add\n        /* \"--CODEGEN--\":339:343   */\n      0x20\n        /* \"--CODEGEN--\":332:337   */\n      dup4\n        /* \"--CODEGEN--\":328:344   */\n      add\n        /* \"--CODEGEN--\":374:377   */\n      dup6\n        /* \"--CODEGEN--\":365:371   */\n      dup4\n        /* \"--CODEGEN--\":360:363   */\n      dup4\n        /* \"--CODEGEN--\":356:372   */\n      add\n        /* \"--CODEGEN--\":353:378   */\n      gt\n        /* \"--CODEGEN--\":350:352   */\n      iszero\n      tag_120\n      jumpi\n        /* \"--CODEGEN--\":391:392   */\n      0x00\n        /* \"--CODEGEN--\":388:389   */\n      dup1\n        /* \"--CODEGEN--\":381:393   */\n      revert\n        /* \"--CODEGEN--\":350:352   */\n    tag_120:\n        /* \"--CODEGEN--\":401:442   */\n      tag_121\n        /* \"--CODEGEN--\":435:441   */\n      dup4\n        /* \"--CODEGEN--\":430:433   */\n      dup3\n        /* \"--CODEGEN--\":425:428   */\n      dup5\n        /* \"--CODEGEN--\":401:442   */\n      tag_122\n      jump\t// in\n    tag_121:\n        /* \"--CODEGEN--\":68:448   */\n      pop\n      pop\n      pop\n      swap3\n      swap2\n      pop\n      pop\n      jump\t// out\n        /* \"--CODEGEN--\":456:586   */\n    tag_123:\n      0x00\n        /* \"--CODEGEN--\":536:542   */\n      dup2\n        /* \"--CODEGEN--\":523:543   */\n      calldataload\n        /* \"--CODEGEN--\":514:543   */\n      swap1\n      pop\n        /* \"--CODEGEN--\":548:581   */\n      tag_125\n        /* \"--CODEGEN--\":575:580   */\n      dup2\n        /* \"--CODEGEN--\":548:581   */\n      tag_126\n      jump\t// in\n    tag_125:\n        /* \"--CODEGEN--\":508:586   */\n      swap3\n      swap2\n      pop\n      pop\n      jump\t// out\n        /* \"--CODEGEN--\":593:940   */\n    tag_13:\n      0x00\n        /* \"--CODEGEN--\":707:709   */\n      0x20\n        /* \"--CODEGEN--\":695:704   */\n      dup3\n        /* \"--CODEGEN--\":686:693   */\n      dup5\n        /* \"--CODEGEN--\":682:705   */\n      sub\n        /* \"--CODEGEN--\":678:710   */\n      slt\n        /* \"--CODEGEN--\":675:677   */\n      iszero\n      tag_128\n      jumpi\n        /* \"--CODEGEN--\":723:724   */\n      0x00\n        /* \"--CODEGEN--\":720:721   */\n      dup1\n        /* \"--CODEGEN--\":713:725   */\n      revert\n        /* \"--CODEGEN--\":675:677   */\n    tag_128:\n        /* \"--CODEGEN--\":786:787   */\n      0x00\n        /* \"--CODEGEN--\":775:784   */\n      dup3\n        /* \"--CODEGEN--\":771:788   */\n      add\n        /* \"--CODEGEN--\":758:789   */\n      calldataload\n        /* \"--CODEGEN--\":809:827   */\n      0xffffffffffffffff\n        /* \"--CODEGEN--\":801:807   */\n      dup2\n        /* \"--CODEGEN--\":798:828   */\n      gt\n        /* \"--CODEGEN--\":795:797   */\n      iszero\n      tag_129\n      jumpi\n        /* \"--CODEGEN--\":841:842   */\n      0x00\n        /* \"--CODEGEN--\":838:839   */\n      dup1\n        /* \"--CODEGEN--\":831:843   */\n      revert\n        /* \"--CODEGEN--\":795:797   */\n    tag_129:\n        /* \"--CODEGEN--\":861:924   */\n      tag_130\n        /* \"--CODEGEN--\":916:923   */\n      dup5\n        /* \"--CODEGEN--\":907:913   */\n      dup3\n        /* \"--CODEGEN--\":896:905   */\n      dup6\n        /* \"--CODEGEN--\":892:914   */\n      add\n        /* \"--CODEGEN--\":861:924   */\n      tag_113\n      jump\t// in\n    tag_130:\n        /* \"--CODEGEN--\":851:924   */\n      swap2\n      pop\n        /* \"--CODEGEN--\":737:930   */\n      pop\n        /* \"--CODEGEN--\":669:940   */\n      swap3\n      swap2\n      pop\n      pop\n      jump\t// out\n        /* \"--CODEGEN--\":947:1650   */\n    tag_34:\n      0x00\n      dup1\n      0x00\n        /* \"--CODEGEN--\":1105:1107   */\n      0x60\n        /* \"--CODEGEN--\":1093:1102   */\n      dup5\n        /* \"--CODEGEN--\":1084:1091   */\n      dup7\n        /* \"--CODEGEN--\":1080:1103   */\n      sub\n        /* \"--CODEGEN--\":1076:1108   */\n      slt\n        /* \"--CODEGEN--\":1073:1075   */\n      iszero\n      tag_132\n      jumpi\n        /* \"--CODEGEN--\":1121:1122   */\n      0x00\n        /* \"--CODEGEN--\":1118:1119   */\n      dup1\n        /* \"--CODEGEN--\":1111:1123   */\n      revert\n        /* \"--CODEGEN--\":1073:1075   */\n    tag_132:\n        /* \"--CODEGEN--\":1184:1185   */\n      0x00\n        /* \"--CODEGEN--\":1173:1182   */\n      dup5\n        /* \"--CODEGEN--\":1169:1186   */\n      add\n        /* \"--CODEGEN--\":1156:1187   */\n      calldataload\n        /* \"--CODEGEN--\":1207:1225   */\n      0xffffffffffffffff\n        /* \"--CODEGEN--\":1199:1205   */\n      dup2\n        /* \"--CODEGEN--\":1196:1226   */\n      gt\n        /* \"--CODEGEN--\":1193:1195   */\n      iszero\n      tag_133\n      jumpi\n        /* \"--CODEGEN--\":1239:1240   */\n      0x00\n        /* \"--CODEGEN--\":1236:1237   */\n      dup1\n        /* \"--CODEGEN--\":1229:1241   */\n      revert\n        /* \"--CODEGEN--\":1193:1195   */\n    tag_133:\n        /* \"--CODEGEN--\":1259:1322   */\n      tag_134\n        /* \"--CODEGEN--\":1314:1321   */\n      dup7\n        /* \"--CODEGEN--\":1305:1311   */\n      dup3\n        /* \"--CODEGEN--\":1294:1303   */\n      dup8\n        /* \"--CODEGEN--\":1290:1312   */\n      add\n        /* \"--CODEGEN--\":1259:1322   */\n      tag_113\n      jump\t// in\n    tag_134:\n        /* \"--CODEGEN--\":1249:1322   */\n      swap4\n      pop\n        /* \"--CODEGEN--\":1135:1328   */\n      pop\n        /* \"--CODEGEN--\":1359:1361   */\n      0x20\n        /* \"--CODEGEN--\":1377:1430   */\n      tag_135\n        /* \"--CODEGEN--\":1422:1429   */\n      dup7\n        /* \"--CODEGEN--\":1413:1419   */\n      dup3\n        /* \"--CODEGEN--\":1402:1411   */\n      dup8\n        /* \"--CODEGEN--\":1398:1420   */\n      add\n        /* \"--CODEGEN--\":1377:1430   */\n      tag_123\n      jump\t// in\n    tag_135:\n        /* \"--CODEGEN--\":1367:1430   */\n      swap3\n      pop\n        /* \"--CODEGEN--\":1338:1436   */\n      pop\n        /* \"--CODEGEN--\":1495:1497   */\n      0x40\n        /* \"--CODEGEN--\":1484:1493   */\n      dup5\n        /* \"--CODEGEN--\":1480:1498   */\n      add\n        /* \"--CODEGEN--\":1467:1499   */\n      calldataload\n        /* \"--CODEGEN--\":1519:1537   */\n      0xffffffffffffffff\n        /* \"--CODEGEN--\":1511:1517   */\n      dup2\n        /* \"--CODEGEN--\":1508:1538   */\n      gt\n        /* \"--CODEGEN--\":1505:1507   */\n      iszero\n      tag_136\n      jumpi\n        /* \"--CODEGEN--\":1551:1552   */\n      0x00\n        /* \"--CODEGEN--\":1548:1549   */\n      dup1\n        /* \"--CODEGEN--\":1541:1553   */\n      revert\n        /* \"--CODEGEN--\":1505:1507   */\n    tag_136:\n        /* \"--CODEGEN--\":1571:1634   */\n      tag_137\n        /* \"--CODEGEN--\":1626:1633   */\n      dup7\n        /* \"--CODEGEN--\":1617:1623   */\n      dup3\n        /* \"--CODEGEN--\":1606:1615   */\n      dup8\n        /* \"--CODEGEN--\":1602:1624   */\n      add\n        /* \"--CODEGEN--\":1571:1634   */\n      tag_113\n      jump\t// in\n    tag_137:\n        /* \"--CODEGEN--\":1561:1634   */\n      swap2\n      pop\n        /* \"--CODEGEN--\":1446:1640   */\n      pop\n        /* \"--CODEGEN--\":1067:1650   */\n      swap3\n      pop\n      swap3\n      pop\n      swap3\n      jump\t// out\n        /* \"--CODEGEN--\":1658:1851   */\n    tag_138:\n      0x00\n        /* \"--CODEGEN--\":1779:1845   */\n      tag_140\n        /* \"--CODEGEN--\":1841:1844   */\n      dup4\n        /* \"--CODEGEN--\":1833:1839   */\n      dup4\n        /* \"--CODEGEN--\":1779:1845   */\n      tag_141\n      jump\t// in\n    tag_140:\n        /* \"--CODEGEN--\":1765:1845   */\n      swap1\n      pop\n        /* \"--CODEGEN--\":1758:1851   */\n      swap3\n      swap2\n      pop\n      pop\n      jump\t// out\n        /* \"--CODEGEN--\":1859:2043   */\n    tag_142:\n        /* \"--CODEGEN--\":1976:2037   */\n      tag_144\n        /* \"--CODEGEN--\":2004:2036   */\n      tag_145\n        /* \"--CODEGEN--\":2030:2035   */\n      dup3\n        /* \"--CODEGEN--\":2004:2036   */\n      tag_146\n      jump\t// in\n    tag_145:\n        /* \"--CODEGEN--\":1976:2037   */\n      tag_147\n      jump\t// in\n    tag_144:\n        /* \"--CODEGEN--\":1971:1974   */\n      dup3\n        /* \"--CODEGEN--\":1964:2038   */\n      mstore\n        /* \"--CODEGEN--\":1958:2043   */\n      pop\n      pop\n      jump\t// out\n        /* \"--CODEGEN--\":2050:2163   */\n    tag_148:\n        /* \"--CODEGEN--\":2133:2157   */\n      tag_150\n        /* \"--CODEGEN--\":2151:2156   */\n      dup2\n        /* \"--CODEGEN--\":2133:2157   */\n      tag_151\n      jump\t// in\n    tag_150:\n        /* \"--CODEGEN--\":2128:2131   */\n      dup3\n        /* \"--CODEGEN--\":2121:2158   */\n      mstore\n        /* \"--CODEGEN--\":2115:2163   */\n      pop\n      pop\n      jump\t// out\n        /* \"--CODEGEN--\":2199:3127   */\n    tag_152:\n      0x00\n        /* \"--CODEGEN--\":2364:2428   */\n      tag_154\n        /* \"--CODEGEN--\":2422:2427   */\n      dup3\n        /* \"--CODEGEN--\":2364:2428   */\n      tag_155\n      jump\t// in\n    tag_154:\n        /* \"--CODEGEN--\":2441:2537   */\n      tag_156\n        /* \"--CODEGEN--\":2530:2536   */\n      dup2\n        /* \"--CODEGEN--\":2525:2528   */\n      dup6\n        /* \"--CODEGEN--\":2441:2537   */\n      tag_157\n      jump\t// in\n    tag_156:\n        /* \"--CODEGEN--\":2434:2537   */\n      swap4\n      pop\n        /* \"--CODEGEN--\":2560:2563   */\n      dup4\n        /* \"--CODEGEN--\":2602:2606   */\n      0x20\n        /* \"--CODEGEN--\":2594:2600   */\n      dup3\n        /* \"--CODEGEN--\":2590:2607   */\n      mul\n        /* \"--CODEGEN--\":2585:2588   */\n      dup6\n        /* \"--CODEGEN--\":2581:2608   */\n      add\n        /* \"--CODEGEN--\":2629:2695   */\n      tag_158\n        /* \"--CODEGEN--\":2689:2694   */\n      dup6\n        /* \"--CODEGEN--\":2629:2695   */\n      tag_159\n      jump\t// in\n    tag_158:\n        /* \"--CODEGEN--\":2715:2722   */\n      dup1\n        /* \"--CODEGEN--\":2743:2744   */\n      0x00\n        /* \"--CODEGEN--\":2728:3088   */\n    tag_160:\n        /* \"--CODEGEN--\":2753:2759   */\n      dup6\n        /* \"--CODEGEN--\":2750:2751   */\n      dup2\n        /* \"--CODEGEN--\":2747:2760   */\n      lt\n        /* \"--CODEGEN--\":2728:3088   */\n      iszero\n      tag_162\n      jumpi\n        /* \"--CODEGEN--\":2815:2824   */\n      dup5\n        /* \"--CODEGEN--\":2809:2813   */\n      dup5\n        /* \"--CODEGEN--\":2805:2825   */\n      sub\n        /* \"--CODEGEN--\":2800:2803   */\n      dup10\n        /* \"--CODEGEN--\":2793:2826   */\n      mstore\n        /* \"--CODEGEN--\":2860:2866   */\n      dup2\n        /* \"--CODEGEN--\":2854:2867   */\n      mload\n        /* \"--CODEGEN--\":2882:2966   */\n      tag_163\n        /* \"--CODEGEN--\":2961:2965   */\n      dup6\n        /* \"--CODEGEN--\":2946:2959   */\n      dup3\n        /* \"--CODEGEN--\":2882:2966   */\n      tag_138\n      jump\t// in\n    tag_163:\n        /* \"--CODEGEN--\":2874:2966   */\n      swap5\n      pop\n        /* \"--CODEGEN--\":2983:3053   */\n      tag_164\n        /* \"--CODEGEN--\":3046:3052   */\n      dup4\n        /* \"--CODEGEN--\":2983:3053   */\n      tag_165\n      jump\t// in\n    tag_164:\n        /* \"--CODEGEN--\":2973:3053   */\n      swap3\n      pop\n        /* \"--CODEGEN--\":3076:3080   */\n      0x20\n        /* \"--CODEGEN--\":3071:3074   */\n      dup11\n        /* \"--CODEGEN--\":3067:3081   */\n      add\n        /* \"--CODEGEN--\":3060:3081   */\n      swap10\n      pop\n        /* \"--CODEGEN--\":2785:3088   */\n      pop\n        /* \"--CODEGEN--\":2775:2776   */\n      0x01\n        /* \"--CODEGEN--\":2772:2773   */\n      dup2\n        /* \"--CODEGEN--\":2768:2777   */\n      add\n        /* \"--CODEGEN--\":2763:2777   */\n      swap1\n      pop\n        /* \"--CODEGEN--\":2728:3088   */\n      jump(tag_160)\n    tag_162:\n        /* \"--CODEGEN--\":2732:2746   */\n      pop\n        /* \"--CODEGEN--\":3101:3105   */\n      dup3\n        /* \"--CODEGEN--\":3094:3105   */\n      swap8\n      pop\n        /* \"--CODEGEN--\":3118:3121   */\n      dup8\n        /* \"--CODEGEN--\":3111:3121   */\n      swap6\n      pop\n        /* \"--CODEGEN--\":2343:3127   */\n      pop\n      pop\n      pop\n      pop\n      pop\n      swap3\n      swap2\n      pop\n      pop\n      jump\t// out\n        /* \"--CODEGEN--\":3135:3462   */\n    tag_141:\n      0x00\n        /* \"--CODEGEN--\":3237:3276   */\n      tag_167\n        /* \"--CODEGEN--\":3270:3275   */\n      dup3\n        /* \"--CODEGEN--\":3237:3276   */\n      tag_168\n      jump\t// in\n    tag_167:\n        /* \"--CODEGEN--\":3288:3349   */\n      tag_169\n        /* \"--CODEGEN--\":3342:3348   */\n      dup2\n        /* \"--CODEGEN--\":3337:3340   */\n      dup6\n        /* \"--CODEGEN--\":3288:3349   */\n      tag_170\n      jump\t// in\n    tag_169:\n        /* \"--CODEGEN--\":3281:3349   */\n      swap4\n      pop\n        /* \"--CODEGEN--\":3354:3406   */\n      tag_171\n        /* \"--CODEGEN--\":3399:3405   */\n      dup2\n        /* \"--CODEGEN--\":3394:3397   */\n      dup6\n        /* \"--CODEGEN--\":3387:3391   */\n      0x20\n        /* \"--CODEGEN--\":3380:3385   */\n      dup7\n        /* \"--CODEGEN--\":3376:3392   */\n      add\n        /* \"--CODEGEN--\":3354:3406   */\n      tag_172\n      jump\t// in\n    tag_171:\n        /* \"--CODEGEN--\":3427:3456   */\n      tag_173\n        /* \"--CODEGEN--\":3449:3455   */\n      dup2\n        /* \"--CODEGEN--\":3427:3456   */\n      tag_174\n      jump\t// in\n    tag_173:\n        /* \"--CODEGEN--\":3422:3425   */\n      dup5\n        /* \"--CODEGEN--\":3418:3457   */\n      add\n        /* \"--CODEGEN--\":3411:3457   */\n      swap2\n      pop\n        /* \"--CODEGEN--\":3217:3462   */\n      pop\n      swap3\n      swap2\n      pop\n      pop\n      jump\t// out\n        /* \"--CODEGEN--\":3469:3816   */\n    tag_175:\n      0x00\n        /* \"--CODEGEN--\":3581:3620   */\n      tag_177\n        /* \"--CODEGEN--\":3614:3619   */\n      dup3\n        /* \"--CODEGEN--\":3581:3620   */\n      tag_168\n      jump\t// in\n    tag_177:\n        /* \"--CODEGEN--\":3632:3703   */\n      tag_178\n        /* \"--CODEGEN--\":3696:3702   */\n      dup2\n        /* \"--CODEGEN--\":3691:3694   */\n      dup6\n        /* \"--CODEGEN--\":3632:3703   */\n      tag_179\n      jump\t// in\n    tag_178:\n        /* \"--CODEGEN--\":3625:3703   */\n      swap4\n      pop\n        /* \"--CODEGEN--\":3708:3760   */\n      tag_180\n        /* \"--CODEGEN--\":3753:3759   */\n      dup2\n        /* \"--CODEGEN--\":3748:3751   */\n      dup6\n        /* \"--CODEGEN--\":3741:3745   */\n      0x20\n        /* \"--CODEGEN--\":3734:3739   */\n      dup7\n        /* \"--CODEGEN--\":3730:3746   */\n      add\n        /* \"--CODEGEN--\":3708:3760   */\n      tag_172\n      jump\t// in\n    tag_180:\n        /* \"--CODEGEN--\":3781:3810   */\n      tag_181\n        /* \"--CODEGEN--\":3803:3809   */\n      dup2\n        /* \"--CODEGEN--\":3781:3810   */\n      tag_174\n      jump\t// in\n    tag_181:\n        /* \"--CODEGEN--\":3776:3779   */\n      dup5\n        /* \"--CODEGEN--\":3772:3811   */\n      add\n        /* \"--CODEGEN--\":3765:3811   */\n      swap2\n      pop\n        /* \"--CODEGEN--\":3561:3816   */\n      pop\n      swap3\n      swap2\n      pop\n      pop\n      jump\t// out\n        /* \"--CODEGEN--\":3823:4183   */\n    tag_182:\n      0x00\n        /* \"--CODEGEN--\":3953:3992   */\n      tag_184\n        /* \"--CODEGEN--\":3986:3991   */\n      dup3\n        /* \"--CODEGEN--\":3953:3992   */\n      tag_168\n      jump\t// in\n    tag_184:\n        /* \"--CODEGEN--\":4004:4093   */\n      tag_185\n        /* \"--CODEGEN--\":4086:4092   */\n      dup2\n        /* \"--CODEGEN--\":4081:4084   */\n      dup6\n        /* \"--CODEGEN--\":4004:4093   */\n      tag_186\n      jump\t// in\n    tag_185:\n        /* \"--CODEGEN--\":3997:4093   */\n      swap4\n      pop\n        /* \"--CODEGEN--\":4098:4150   */\n      tag_187\n        /* \"--CODEGEN--\":4143:4149   */\n      dup2\n        /* \"--CODEGEN--\":4138:4141   */\n      dup6\n        /* \"--CODEGEN--\":4131:4135   */\n      0x20\n        /* \"--CODEGEN--\":4124:4129   */\n      dup7\n        /* \"--CODEGEN--\":4120:4136   */\n      add\n        /* \"--CODEGEN--\":4098:4150   */\n      tag_172\n      jump\t// in\n    tag_187:\n        /* \"--CODEGEN--\":4171:4177   */\n      dup1\n        /* \"--CODEGEN--\":4166:4169   */\n      dup5\n        /* \"--CODEGEN--\":4162:4178   */\n      add\n        /* \"--CODEGEN--\":4155:4178   */\n      swap2\n      pop\n        /* \"--CODEGEN--\":3933:4183   */\n      pop\n      swap3\n      swap2\n      pop\n      pop\n      jump\t// out\n        /* \"--CODEGEN--\":4215:5099   */\n    tag_188:\n      0x00\n        /* \"--CODEGEN--\":4352:4357   */\n      dup2\n        /* \"--CODEGEN--\":4346:4358   */\n      sload\n        /* \"--CODEGEN--\":4386:4387   */\n      0x01\n        /* \"--CODEGEN--\":4375:4384   */\n      dup2\n        /* \"--CODEGEN--\":4371:4388   */\n      and\n        /* \"--CODEGEN--\":4399:4400   */\n      0x00\n        /* \"--CODEGEN--\":4394:4662   */\n      dup2\n      eq\n      tag_191\n      jumpi\n        /* \"--CODEGEN--\":4673:4674   */\n      0x01\n        /* \"--CODEGEN--\":4668:5093   */\n      dup2\n      eq\n      tag_192\n      jumpi\n        /* \"--CODEGEN--\":4364:5093   */\n      jump(tag_190)\n        /* \"--CODEGEN--\":4394:4662   */\n    tag_191:\n        /* \"--CODEGEN--\":4472:4476   */\n      0x7f\n        /* \"--CODEGEN--\":4468:4469   */\n      0x02\n        /* \"--CODEGEN--\":4457:4466   */\n      dup4\n        /* \"--CODEGEN--\":4453:4470   */\n      div\n        /* \"--CODEGEN--\":4449:4477   */\n      and\n        /* \"--CODEGEN--\":4491:4580   */\n      tag_193\n        /* \"--CODEGEN--\":4573:4579   */\n      dup2\n        /* \"--CODEGEN--\":4568:4571   */\n      dup8\n        /* \"--CODEGEN--\":4491:4580   */\n      tag_186\n      jump\t// in\n    tag_193:\n        /* \"--CODEGEN--\":4484:4580   */\n      swap6\n      pop\n        /* \"--CODEGEN--\":4618:4622   */\n      0xff\n        /* \"--CODEGEN--\":4614:4623   */\n      not\n        /* \"--CODEGEN--\":4603:4612   */\n      dup4\n        /* \"--CODEGEN--\":4599:4624   */\n      and\n        /* \"--CODEGEN--\":4594:4597   */\n      dup7\n        /* \"--CODEGEN--\":4587:4625   */\n      mstore\n        /* \"--CODEGEN--\":4648:4654   */\n      dup1\n        /* \"--CODEGEN--\":4643:4646   */\n      dup7\n        /* \"--CODEGEN--\":4639:4655   */\n      add\n        /* \"--CODEGEN--\":4632:4655   */\n      swap4\n      pop\n        /* \"--CODEGEN--\":4401:4662   */\n      pop\n        /* \"--CODEGEN--\":4394:4662   */\n      jump(tag_190)\n        /* \"--CODEGEN--\":4668:5093   */\n    tag_192:\n        /* \"--CODEGEN--\":4737:4738   */\n      0x02\n        /* \"--CODEGEN--\":4726:4735   */\n      dup3\n        /* \"--CODEGEN--\":4722:4739   */\n      div\n        /* \"--CODEGEN--\":4753:4842   */\n      tag_194\n        /* \"--CODEGEN--\":4835:4841   */\n      dup2\n        /* \"--CODEGEN--\":4830:4833   */\n      dup8\n        /* \"--CODEGEN--\":4753:4842   */\n      tag_186\n      jump\t// in\n    tag_194:\n        /* \"--CODEGEN--\":4746:4842   */\n      swap6\n      pop\n        /* \"--CODEGEN--\":4864:4902   */\n      tag_195\n        /* \"--CODEGEN--\":4896:4901   */\n      dup6\n        /* \"--CODEGEN--\":4864:4902   */\n      tag_196\n      jump\t// in\n    tag_195:\n        /* \"--CODEGEN--\":4918:4919   */\n      0x00\n        /* \"--CODEGEN--\":4926:5056   */\n    tag_197:\n        /* \"--CODEGEN--\":4940:4946   */\n      dup3\n        /* \"--CODEGEN--\":4937:4938   */\n      dup2\n        /* \"--CODEGEN--\":4934:4947   */\n      lt\n        /* \"--CODEGEN--\":4926:5056   */\n      iszero\n      tag_199\n      jumpi\n        /* \"--CODEGEN--\":5005:5012   */\n      dup2\n        /* \"--CODEGEN--\":4999:5013   */\n      sload\n        /* \"--CODEGEN--\":4995:4996   */\n      dup2\n        /* \"--CODEGEN--\":4990:4993   */\n      dup10\n        /* \"--CODEGEN--\":4986:4997   */\n      add\n        /* \"--CODEGEN--\":4979:5014   */\n      mstore\n        /* \"--CODEGEN--\":5046:5047   */\n      0x01\n        /* \"--CODEGEN--\":5037:5044   */\n      dup3\n        /* \"--CODEGEN--\":5033:5048   */\n      add\n        /* \"--CODEGEN--\":5022:5048   */\n      swap2\n      pop\n        /* \"--CODEGEN--\":4962:4966   */\n      0x20\n        /* \"--CODEGEN--\":4959:4960   */\n      dup2\n        /* \"--CODEGEN--\":4955:4967   */\n      add\n        /* \"--CODEGEN--\":4950:4967   */\n      swap1\n      pop\n        /* \"--CODEGEN--\":4926:5056   */\n      jump(tag_197)\n    tag_199:\n        /* \"--CODEGEN--\":5079:5085   */\n      dup3\n        /* \"--CODEGEN--\":5074:5077   */\n      dup9\n        /* \"--CODEGEN--\":5070:5086   */\n      add\n        /* \"--CODEGEN--\":5063:5086   */\n      swap6\n      pop\n        /* \"--CODEGEN--\":4675:5093   */\n      pop\n      pop\n      pop\n        /* \"--CODEGEN--\":4364:5093   */\n    tag_190:\n      pop\n        /* \"--CODEGEN--\":4322:5099   */\n      pop\n      swap3\n      swap2\n      pop\n      pop\n      jump\t// out\n        /* \"--CODEGEN--\":5108:5435   */\n    tag_200:\n      0x00\n        /* \"--CODEGEN--\":5268:5335   */\n      tag_202\n        /* \"--CODEGEN--\":5332:5334   */\n      0x1b\n        /* \"--CODEGEN--\":5327:5330   */\n      dup4\n        /* \"--CODEGEN--\":5268:5335   */\n      tag_179\n      jump\t// in\n    tag_202:\n        /* \"--CODEGEN--\":5261:5335   */\n      swap2\n      pop\n        /* \"--CODEGEN--\":5368:5397   */\n      0x596120736520686120766f7461646f207072657669616d656e74650000000000\n        /* \"--CODEGEN--\":5364:5365   */\n      0x00\n        /* \"--CODEGEN--\":5359:5362   */\n      dup4\n        /* \"--CODEGEN--\":5355:5366   */\n      add\n        /* \"--CODEGEN--\":5348:5398   */\n      mstore\n        /* \"--CODEGEN--\":5426:5428   */\n      0x20\n        /* \"--CODEGEN--\":5421:5424   */\n      dup3\n        /* \"--CODEGEN--\":5417:5429   */\n      add\n        /* \"--CODEGEN--\":5410:5429   */\n      swap1\n      pop\n        /* \"--CODEGEN--\":5254:5435   */\n      swap2\n      swap1\n      pop\n      jump\t// out\n        /* \"--CODEGEN--\":5444:5779   */\n    tag_203:\n      0x00\n        /* \"--CODEGEN--\":5622:5706   */\n      tag_205\n        /* \"--CODEGEN--\":5704:5705   */\n      0x01\n        /* \"--CODEGEN--\":5699:5702   */\n      dup4\n        /* \"--CODEGEN--\":5622:5706   */\n      tag_186\n      jump\t// in\n    tag_205:\n        /* \"--CODEGEN--\":5615:5706   */\n      swap2\n      pop\n        /* \"--CODEGEN--\":5739:5742   */\n      0x2000000000000000000000000000000000000000000000000000000000000000\n        /* \"--CODEGEN--\":5735:5736   */\n      0x00\n        /* \"--CODEGEN--\":5730:5733   */\n      dup4\n        /* \"--CODEGEN--\":5726:5737   */\n      add\n        /* \"--CODEGEN--\":5719:5743   */\n      mstore\n        /* \"--CODEGEN--\":5771:5772   */\n      0x01\n        /* \"--CODEGEN--\":5766:5769   */\n      dup3\n        /* \"--CODEGEN--\":5762:5773   */\n      add\n        /* \"--CODEGEN--\":5755:5773   */\n      swap1\n      pop\n        /* \"--CODEGEN--\":5608:5779   */\n      swap2\n      swap1\n      pop\n      jump\t// out\n        /* \"--CODEGEN--\":5788:6186   */\n    tag_206:\n      0x00\n        /* \"--CODEGEN--\":5966:6050   */\n      tag_208\n        /* \"--CODEGEN--\":6048:6049   */\n      0x03\n        /* \"--CODEGEN--\":6043:6046   */\n      dup4\n        /* \"--CODEGEN--\":5966:6050   */\n      tag_186\n      jump\t// in\n    tag_208:\n        /* \"--CODEGEN--\":5959:6050   */\n      swap2\n      pop\n        /* \"--CODEGEN--\":6083:6149   */\n      0x207c0a0000000000000000000000000000000000000000000000000000000000\n        /* \"--CODEGEN--\":6079:6080   */\n      0x00\n        /* \"--CODEGEN--\":6074:6077   */\n      dup4\n        /* \"--CODEGEN--\":6070:6081   */\n      add\n        /* \"--CODEGEN--\":6063:6150   */\n      mstore\n        /* \"--CODEGEN--\":6178:6179   */\n      0x03\n        /* \"--CODEGEN--\":6173:6176   */\n      dup3\n        /* \"--CODEGEN--\":6169:6180   */\n      add\n        /* \"--CODEGEN--\":6162:6180   */\n      swap1\n      pop\n        /* \"--CODEGEN--\":5952:6186   */\n      swap2\n      swap1\n      pop\n      jump\t// out\n        /* \"--CODEGEN--\":6195:6531   */\n    tag_209:\n      0x00\n        /* \"--CODEGEN--\":6373:6457   */\n      tag_211\n        /* \"--CODEGEN--\":6455:6456   */\n      0x02\n        /* \"--CODEGEN--\":6450:6453   */\n      dup4\n        /* \"--CODEGEN--\":6373:6457   */\n      tag_186\n      jump\t// in\n    tag_211:\n        /* \"--CODEGEN--\":6366:6457   */\n      swap2\n      pop\n        /* \"--CODEGEN--\":6490:6494   */\n      0x7c20000000000000000000000000000000000000000000000000000000000000\n        /* \"--CODEGEN--\":6486:6487   */\n      0x00\n        /* \"--CODEGEN--\":6481:6484   */\n      dup4\n        /* \"--CODEGEN--\":6477:6488   */\n      add\n        /* \"--CODEGEN--\":6470:6495   */\n      mstore\n        /* \"--CODEGEN--\":6523:6524   */\n      0x02\n        /* \"--CODEGEN--\":6518:6521   */\n      dup3\n        /* \"--CODEGEN--\":6514:6525   */\n      add\n        /* \"--CODEGEN--\":6507:6525   */\n      swap1\n      pop\n        /* \"--CODEGEN--\":6359:6531   */\n      swap2\n      swap1\n      pop\n      jump\t// out\n        /* \"--CODEGEN--\":6539:6652   */\n    tag_212:\n        /* \"--CODEGEN--\":6622:6646   */\n      tag_214\n        /* \"--CODEGEN--\":6640:6645   */\n      dup2\n        /* \"--CODEGEN--\":6622:6646   */\n      tag_215\n      jump\t// in\n    tag_214:\n        /* \"--CODEGEN--\":6617:6620   */\n      dup3\n        /* \"--CODEGEN--\":6610:6647   */\n      mstore\n        /* \"--CODEGEN--\":6604:6652   */\n      pop\n      pop\n      jump\t// out\n        /* \"--CODEGEN--\":6659:6811   */\n    tag_216:\n        /* \"--CODEGEN--\":6760:6805   */\n      tag_218\n        /* \"--CODEGEN--\":6780:6804   */\n      tag_219\n        /* \"--CODEGEN--\":6798:6803   */\n      dup3\n        /* \"--CODEGEN--\":6780:6804   */\n      tag_215\n      jump\t// in\n    tag_219:\n        /* \"--CODEGEN--\":6760:6805   */\n      tag_220\n      jump\t// in\n    tag_218:\n        /* \"--CODEGEN--\":6755:6758   */\n      dup3\n        /* \"--CODEGEN--\":6748:6806   */\n      mstore\n        /* \"--CODEGEN--\":6742:6811   */\n      pop\n      pop\n      jump\t// out\n        /* \"--CODEGEN--\":6818:7103   */\n    tag_81:\n      0x00\n        /* \"--CODEGEN--\":6962:7053   */\n      tag_222\n        /* \"--CODEGEN--\":7049:7052   */\n      dup3\n        /* \"--CODEGEN--\":7040:7046   */\n      dup5\n        /* \"--CODEGEN--\":6962:7053   */\n      tag_142\n      jump\t// in\n    tag_222:\n        /* \"--CODEGEN--\":7075:7077   */\n      0x14\n        /* \"--CODEGEN--\":7070:7073   */\n      dup3\n        /* \"--CODEGEN--\":7066:7078   */\n      add\n        /* \"--CODEGEN--\":7059:7078   */\n      swap2\n      pop\n        /* \"--CODEGEN--\":7095:7098   */\n      dup2\n        /* \"--CODEGEN--\":7088:7098   */\n      swap1\n      pop\n        /* \"--CODEGEN--\":6950:7103   */\n      swap3\n      swap2\n      pop\n      pop\n      jump\t// out\n        /* \"--CODEGEN--\":7110:7385   */\n    tag_41:\n      0x00\n        /* \"--CODEGEN--\":7265:7360   */\n      tag_224\n        /* \"--CODEGEN--\":7356:7359   */\n      dup3\n        /* \"--CODEGEN--\":7347:7353   */\n      dup5\n        /* \"--CODEGEN--\":7265:7360   */\n      tag_182\n      jump\t// in\n    tag_224:\n        /* \"--CODEGEN--\":7258:7360   */\n      swap2\n      pop\n        /* \"--CODEGEN--\":7377:7380   */\n      dup2\n        /* \"--CODEGEN--\":7370:7380   */\n      swap1\n      pop\n        /* \"--CODEGEN--\":7246:7385   */\n      swap3\n      swap2\n      pop\n      pop\n      jump\t// out\n        /* \"--CODEGEN--\":7392:8784   */\n    tag_71:\n      0x00\n        /* \"--CODEGEN--\":7943:8038   */\n      tag_226\n        /* \"--CODEGEN--\":8034:8037   */\n      dup3\n        /* \"--CODEGEN--\":8025:8031   */\n      dup7\n        /* \"--CODEGEN--\":7943:8038   */\n      tag_182\n      jump\t// in\n    tag_226:\n        /* \"--CODEGEN--\":7936:8038   */\n      swap2\n      pop\n        /* \"--CODEGEN--\":8056:8204   */\n      tag_227\n        /* \"--CODEGEN--\":8200:8203   */\n      dup3\n        /* \"--CODEGEN--\":8056:8204   */\n      tag_209\n      jump\t// in\n    tag_227:\n        /* \"--CODEGEN--\":8049:8204   */\n      swap2\n      pop\n        /* \"--CODEGEN--\":8222:8314   */\n      tag_228\n        /* \"--CODEGEN--\":8310:8313   */\n      dup3\n        /* \"--CODEGEN--\":8301:8307   */\n      dup6\n        /* \"--CODEGEN--\":8222:8314   */\n      tag_188\n      jump\t// in\n    tag_228:\n        /* \"--CODEGEN--\":8215:8314   */\n      swap2\n      pop\n        /* \"--CODEGEN--\":8332:8480   */\n      tag_229\n        /* \"--CODEGEN--\":8476:8479   */\n      dup3\n        /* \"--CODEGEN--\":8332:8480   */\n      tag_203\n      jump\t// in\n    tag_229:\n        /* \"--CODEGEN--\":8325:8480   */\n      swap2\n      pop\n        /* \"--CODEGEN--\":8498:8593   */\n      tag_230\n        /* \"--CODEGEN--\":8589:8592   */\n      dup3\n        /* \"--CODEGEN--\":8580:8586   */\n      dup5\n        /* \"--CODEGEN--\":8498:8593   */\n      tag_182\n      jump\t// in\n    tag_230:\n        /* \"--CODEGEN--\":8491:8593   */\n      swap2\n      pop\n        /* \"--CODEGEN--\":8611:8759   */\n      tag_231\n        /* \"--CODEGEN--\":8755:8758   */\n      dup3\n        /* \"--CODEGEN--\":8611:8759   */\n      tag_206\n      jump\t// in\n    tag_231:\n        /* \"--CODEGEN--\":8604:8759   */\n      swap2\n      pop\n        /* \"--CODEGEN--\":8776:8779   */\n      dup2\n        /* \"--CODEGEN--\":8769:8779   */\n      swap1\n      pop\n        /* \"--CODEGEN--\":7924:8784   */\n      swap5\n      swap4\n      pop\n      pop\n      pop\n      pop\n      jump\t// out\n        /* \"--CODEGEN--\":8791:9366   */\n    tag_74:\n      0x00\n        /* \"--CODEGEN--\":9022:9117   */\n      tag_233\n        /* \"--CODEGEN--\":9113:9116   */\n      dup3\n        /* \"--CODEGEN--\":9104:9110   */\n      dup7\n        /* \"--CODEGEN--\":9022:9117   */\n      tag_182\n      jump\t// in\n    tag_233:\n        /* \"--CODEGEN--\":9015:9117   */\n      swap2\n      pop\n        /* \"--CODEGEN--\":9128:9203   */\n      tag_234\n        /* \"--CODEGEN--\":9199:9202   */\n      dup3\n        /* \"--CODEGEN--\":9190:9196   */\n      dup6\n        /* \"--CODEGEN--\":9128:9203   */\n      tag_216\n      jump\t// in\n    tag_234:\n        /* \"--CODEGEN--\":9225:9227   */\n      0x20\n        /* \"--CODEGEN--\":9220:9223   */\n      dup3\n        /* \"--CODEGEN--\":9216:9228   */\n      add\n        /* \"--CODEGEN--\":9209:9228   */\n      swap2\n      pop\n        /* \"--CODEGEN--\":9246:9341   */\n      tag_235\n        /* \"--CODEGEN--\":9337:9340   */\n      dup3\n        /* \"--CODEGEN--\":9328:9334   */\n      dup5\n        /* \"--CODEGEN--\":9246:9341   */\n      tag_182\n      jump\t// in\n    tag_235:\n        /* \"--CODEGEN--\":9239:9341   */\n      swap2\n      pop\n        /* \"--CODEGEN--\":9358:9361   */\n      dup2\n        /* \"--CODEGEN--\":9351:9361   */\n      swap1\n      pop\n        /* \"--CODEGEN--\":9003:9366   */\n      swap5\n      swap4\n      pop\n      pop\n      pop\n      pop\n      jump\t// out\n        /* \"--CODEGEN--\":9373:9642   */\n    tag_68:\n      0x00\n        /* \"--CODEGEN--\":9525:9617   */\n      tag_237\n        /* \"--CODEGEN--\":9613:9616   */\n      dup3\n        /* \"--CODEGEN--\":9604:9610   */\n      dup5\n        /* \"--CODEGEN--\":9525:9617   */\n      tag_188\n      jump\t// in\n    tag_237:\n        /* \"--CODEGEN--\":9518:9617   */\n      swap2\n      pop\n        /* \"--CODEGEN--\":9634:9637   */\n      dup2\n        /* \"--CODEGEN--\":9627:9637   */\n      swap1\n      pop\n        /* \"--CODEGEN--\":9506:9642   */\n      swap3\n      swap2\n      pop\n      pop\n      jump\t// out\n        /* \"--CODEGEN--\":9649:9871   */\n    tag_24:\n      0x00\n        /* \"--CODEGEN--\":9776:9778   */\n      0x20\n        /* \"--CODEGEN--\":9765:9774   */\n      dup3\n        /* \"--CODEGEN--\":9761:9779   */\n      add\n        /* \"--CODEGEN--\":9753:9779   */\n      swap1\n      pop\n        /* \"--CODEGEN--\":9790:9861   */\n      tag_239\n        /* \"--CODEGEN--\":9858:9859   */\n      0x00\n        /* \"--CODEGEN--\":9847:9856   */\n      dup4\n        /* \"--CODEGEN--\":9843:9860   */\n      add\n        /* \"--CODEGEN--\":9834:9840   */\n      dup5\n        /* \"--CODEGEN--\":9790:9861   */\n      tag_148\n      jump\t// in\n    tag_239:\n        /* \"--CODEGEN--\":9747:9871   */\n      swap3\n      swap2\n      pop\n      pop\n      jump\t// out\n        /* \"--CODEGEN--\":9878:10288   */\n    tag_28:\n      0x00\n        /* \"--CODEGEN--\":10075:10077   */\n      0x20\n        /* \"--CODEGEN--\":10064:10073   */\n      dup3\n        /* \"--CODEGEN--\":10060:10078   */\n      add\n        /* \"--CODEGEN--\":10052:10078   */\n      swap1\n      pop\n        /* \"--CODEGEN--\":10125:10134   */\n      dup2\n        /* \"--CODEGEN--\":10119:10123   */\n      dup2\n        /* \"--CODEGEN--\":10115:10135   */\n      sub\n        /* \"--CODEGEN--\":10111:10112   */\n      0x00\n        /* \"--CODEGEN--\":10100:10109   */\n      dup4\n        /* \"--CODEGEN--\":10096:10113   */\n      add\n        /* \"--CODEGEN--\":10089:10136   */\n      mstore\n        /* \"--CODEGEN--\":10150:10278   */\n      tag_241\n        /* \"--CODEGEN--\":10273:10277   */\n      dup2\n        /* \"--CODEGEN--\":10264:10270   */\n      dup5\n        /* \"--CODEGEN--\":10150:10278   */\n      tag_152\n      jump\t// in\n    tag_241:\n        /* \"--CODEGEN--\":10142:10278   */\n      swap1\n      pop\n        /* \"--CODEGEN--\":10046:10288   */\n      swap3\n      swap2\n      pop\n      pop\n      jump\t// out\n        /* \"--CODEGEN--\":10295:10605   */\n    tag_20:\n      0x00\n        /* \"--CODEGEN--\":10442:10444   */\n      0x20\n        /* \"--CODEGEN--\":10431:10440   */\n      dup3\n        /* \"--CODEGEN--\":10427:10445   */\n      add\n        /* \"--CODEGEN--\":10419:10445   */\n      swap1\n      pop\n        /* \"--CODEGEN--\":10492:10501   */\n      dup2\n        /* \"--CODEGEN--\":10486:10490   */\n      dup2\n        /* \"--CODEGEN--\":10482:10502   */\n      sub\n        /* \"--CODEGEN--\":10478:10479   */\n      0x00\n        /* \"--CODEGEN--\":10467:10476   */\n      dup4\n        /* \"--CODEGEN--\":10463:10480   */\n      add\n        /* \"--CODEGEN--\":10456:10503   */\n      mstore\n        /* \"--CODEGEN--\":10517:10595   */\n      tag_243\n        /* \"--CODEGEN--\":10590:10594   */\n      dup2\n        /* \"--CODEGEN--\":10581:10587   */\n      dup5\n        /* \"--CODEGEN--\":10517:10595   */\n      tag_175\n      jump\t// in\n    tag_243:\n        /* \"--CODEGEN--\":10509:10595   */\n      swap1\n      pop\n        /* \"--CODEGEN--\":10413:10605   */\n      swap3\n      swap2\n      pop\n      pop\n      jump\t// out\n        /* \"--CODEGEN--\":10612:11028   */\n    tag_89:\n      0x00\n        /* \"--CODEGEN--\":10812:10814   */\n      0x20\n        /* \"--CODEGEN--\":10801:10810   */\n      dup3\n        /* \"--CODEGEN--\":10797:10815   */\n      add\n        /* \"--CODEGEN--\":10789:10815   */\n      swap1\n      pop\n        /* \"--CODEGEN--\":10862:10871   */\n      dup2\n        /* \"--CODEGEN--\":10856:10860   */\n      dup2\n        /* \"--CODEGEN--\":10852:10872   */\n      sub\n        /* \"--CODEGEN--\":10848:10849   */\n      0x00\n        /* \"--CODEGEN--\":10837:10846   */\n      dup4\n        /* \"--CODEGEN--\":10833:10850   */\n      add\n        /* \"--CODEGEN--\":10826:10873   */\n      mstore\n        /* \"--CODEGEN--\":10887:11018   */\n      tag_245\n        /* \"--CODEGEN--\":11013:11017   */\n      dup2\n        /* \"--CODEGEN--\":10887:11018   */\n      tag_200\n      jump\t// in\n    tag_245:\n        /* \"--CODEGEN--\":10879:11018   */\n      swap1\n      pop\n        /* \"--CODEGEN--\":10783:11028   */\n      swap2\n      swap1\n      pop\n      jump\t// out\n        /* \"--CODEGEN--\":11035:11257   */\n    tag_16:\n      0x00\n        /* \"--CODEGEN--\":11162:11164   */\n      0x20\n        /* \"--CODEGEN--\":11151:11160   */\n      dup3\n        /* \"--CODEGEN--\":11147:11165   */\n      add\n        /* \"--CODEGEN--\":11139:11165   */\n      swap1\n      pop\n        /* \"--CODEGEN--\":11176:11247   */\n      tag_247\n        /* \"--CODEGEN--\":11244:11245   */\n      0x00\n        /* \"--CODEGEN--\":11233:11242   */\n      dup4\n        /* \"--CODEGEN--\":11229:11246   */\n      add\n        /* \"--CODEGEN--\":11220:11226   */\n      dup5\n        /* \"--CODEGEN--\":11176:11247   */\n      tag_212\n      jump\t// in\n    tag_247:\n        /* \"--CODEGEN--\":11133:11257   */\n      swap3\n      swap2\n      pop\n      pop\n      jump\t// out\n        /* \"--CODEGEN--\":11264:11520   */\n    tag_119:\n      0x00\n        /* \"--CODEGEN--\":11326:11328   */\n      0x40\n        /* \"--CODEGEN--\":11320:11329   */\n      mload\n        /* \"--CODEGEN--\":11310:11329   */\n      swap1\n      pop\n        /* \"--CODEGEN--\":11364:11368   */\n      dup2\n        /* \"--CODEGEN--\":11356:11362   */\n      dup2\n        /* \"--CODEGEN--\":11352:11369   */\n      add\n        /* \"--CODEGEN--\":11463:11469   */\n      dup2\n        /* \"--CODEGEN--\":11451:11461   */\n      dup2\n        /* \"--CODEGEN--\":11448:11470   */\n      lt\n        /* \"--CODEGEN--\":11427:11445   */\n      0xffffffffffffffff\n        /* \"--CODEGEN--\":11415:11425   */\n      dup3\n        /* \"--CODEGEN--\":11412:11446   */\n      gt\n        /* \"--CODEGEN--\":11409:11471   */\n      or\n        /* \"--CODEGEN--\":11406:11408   */\n      iszero\n      tag_249\n      jumpi\n        /* \"--CODEGEN--\":11484:11485   */\n      0x00\n        /* \"--CODEGEN--\":11481:11482   */\n      dup1\n        /* \"--CODEGEN--\":11474:11486   */\n      revert\n        /* \"--CODEGEN--\":11406:11408   */\n    tag_249:\n        /* \"--CODEGEN--\":11504:11514   */\n      dup1\n        /* \"--CODEGEN--\":11500:11502   */\n      0x40\n        /* \"--CODEGEN--\":11493:11515   */\n      mstore\n        /* \"--CODEGEN--\":11304:11520   */\n      pop\n      swap2\n      swap1\n      pop\n      jump\t// out\n        /* \"--CODEGEN--\":11527:11849   */\n    tag_118:\n      0x00\n        /* \"--CODEGEN--\":11671:11689   */\n      0xffffffffffffffff\n        /* \"--CODEGEN--\":11663:11669   */\n      dup3\n        /* \"--CODEGEN--\":11660:11690   */\n      gt\n        /* \"--CODEGEN--\":11657:11659   */\n      iszero\n      tag_251\n      jumpi\n        /* \"--CODEGEN--\":11703:11704   */\n      0x00\n        /* \"--CODEGEN--\":11700:11701   */\n      dup1\n        /* \"--CODEGEN--\":11693:11705   */\n      revert\n        /* \"--CODEGEN--\":11657:11659   */\n    tag_251:\n        /* \"--CODEGEN--\":11770:11774   */\n      0x1f\n        /* \"--CODEGEN--\":11766:11775   */\n      not\n        /* \"--CODEGEN--\":11759:11763   */\n      0x1f\n        /* \"--CODEGEN--\":11751:11757   */\n      dup4\n        /* \"--CODEGEN--\":11747:11764   */\n      add\n        /* \"--CODEGEN--\":11743:11776   */\n      and\n        /* \"--CODEGEN--\":11735:11776   */\n      swap1\n      pop\n        /* \"--CODEGEN--\":11834:11838   */\n      0x20\n        /* \"--CODEGEN--\":11828:11832   */\n      dup2\n        /* \"--CODEGEN--\":11824:11839   */\n      add\n        /* \"--CODEGEN--\":11816:11839   */\n      swap1\n      pop\n        /* \"--CODEGEN--\":11594:11849   */\n      swap2\n      swap1\n      pop\n      jump\t// out\n        /* \"--CODEGEN--\":11856:12017   */\n    tag_159:\n      0x00\n        /* \"--CODEGEN--\":11952:11955   */\n      dup2\n        /* \"--CODEGEN--\":11944:11955   */\n      swap1\n      pop\n        /* \"--CODEGEN--\":11990:11994   */\n      0x20\n        /* \"--CODEGEN--\":11985:11988   */\n      dup3\n        /* \"--CODEGEN--\":11981:11995   */\n      add\n        /* \"--CODEGEN--\":11973:11995   */\n      swap1\n      pop\n        /* \"--CODEGEN--\":11938:12017   */\n      swap2\n      swap1\n      pop\n      jump\t// out\n        /* \"--CODEGEN--\":12024:12182   */\n    tag_196:\n      0x00\n        /* \"--CODEGEN--\":12092:12095   */\n      dup2\n        /* \"--CODEGEN--\":12084:12095   */\n      swap1\n      pop\n        /* \"--CODEGEN--\":12129:12132   */\n      dup2\n        /* \"--CODEGEN--\":12126:12127   */\n      0x00\n        /* \"--CODEGEN--\":12119:12133   */\n      mstore\n        /* \"--CODEGEN--\":12161:12165   */\n      0x20\n        /* \"--CODEGEN--\":12158:12159   */\n      0x00\n        /* \"--CODEGEN--\":12148:12166   */\n      keccak256\n        /* \"--CODEGEN--\":12140:12166   */\n      swap1\n      pop\n        /* \"--CODEGEN--\":12078:12182   */\n      swap2\n      swap1\n      pop\n      jump\t// out\n        /* \"--CODEGEN--\":12189:12336   */\n    tag_155:\n      0x00\n        /* \"--CODEGEN--\":12308:12313   */\n      dup2\n        /* \"--CODEGEN--\":12302:12314   */\n      mload\n        /* \"--CODEGEN--\":12292:12314   */\n      swap1\n      pop\n        /* \"--CODEGEN--\":12273:12336   */\n      swap2\n      swap1\n      pop\n      jump\t// out\n        /* \"--CODEGEN--\":12343:12465   */\n    tag_168:\n      0x00\n        /* \"--CODEGEN--\":12437:12442   */\n      dup2\n        /* \"--CODEGEN--\":12431:12443   */\n      mload\n        /* \"--CODEGEN--\":12421:12443   */\n      swap1\n      pop\n        /* \"--CODEGEN--\":12402:12465   */\n      swap2\n      swap1\n      pop\n      jump\t// out\n        /* \"--CODEGEN--\":12472:12590   */\n    tag_165:\n      0x00\n        /* \"--CODEGEN--\":12580:12584   */\n      0x20\n        /* \"--CODEGEN--\":12575:12578   */\n      dup3\n        /* \"--CODEGEN--\":12571:12585   */\n      add\n        /* \"--CODEGEN--\":12563:12585   */\n      swap1\n      pop\n        /* \"--CODEGEN--\":12557:12590   */\n      swap2\n      swap1\n      pop\n      jump\t// out\n        /* \"--CODEGEN--\":12598:12786   */\n    tag_157:\n      0x00\n        /* \"--CODEGEN--\":12738:12744   */\n      dup3\n        /* \"--CODEGEN--\":12733:12736   */\n      dup3\n        /* \"--CODEGEN--\":12726:12745   */\n      mstore\n        /* \"--CODEGEN--\":12775:12779   */\n      0x20\n        /* \"--CODEGEN--\":12770:12773   */\n      dup3\n        /* \"--CODEGEN--\":12766:12780   */\n      add\n        /* \"--CODEGEN--\":12751:12780   */\n      swap1\n      pop\n        /* \"--CODEGEN--\":12719:12786   */\n      swap3\n      swap2\n      pop\n      pop\n      jump\t// out\n        /* \"--CODEGEN--\":12795:12948   */\n    tag_170:\n      0x00\n        /* \"--CODEGEN--\":12900:12906   */\n      dup3\n        /* \"--CODEGEN--\":12895:12898   */\n      dup3\n        /* \"--CODEGEN--\":12888:12907   */\n      mstore\n        /* \"--CODEGEN--\":12937:12941   */\n      0x20\n        /* \"--CODEGEN--\":12932:12935   */\n      dup3\n        /* \"--CODEGEN--\":12928:12942   */\n      add\n        /* \"--CODEGEN--\":12913:12942   */\n      swap1\n      pop\n        /* \"--CODEGEN--\":12881:12948   */\n      swap3\n      swap2\n      pop\n      pop\n      jump\t// out\n        /* \"--CODEGEN--\":12957:13120   */\n    tag_179:\n      0x00\n        /* \"--CODEGEN--\":13072:13078   */\n      dup3\n        /* \"--CODEGEN--\":13067:13070   */\n      dup3\n        /* \"--CODEGEN--\":13060:13079   */\n      mstore\n        /* \"--CODEGEN--\":13109:13113   */\n      0x20\n        /* \"--CODEGEN--\":13104:13107   */\n      dup3\n        /* \"--CODEGEN--\":13100:13114   */\n      add\n        /* \"--CODEGEN--\":13085:13114   */\n      swap1\n      pop\n        /* \"--CODEGEN--\":13053:13120   */\n      swap3\n      swap2\n      pop\n      pop\n      jump\t// out\n        /* \"--CODEGEN--\":13129:13274   */\n    tag_186:\n      0x00\n        /* \"--CODEGEN--\":13265:13268   */\n      dup2\n        /* \"--CODEGEN--\":13250:13268   */\n      swap1\n      pop\n        /* \"--CODEGEN--\":13243:13274   */\n      swap3\n      swap2\n      pop\n      pop\n      jump\t// out\n        /* \"--CODEGEN--\":13282:13373   */\n    tag_151:\n      0x00\n        /* \"--CODEGEN--\":13344:13368   */\n      tag_262\n        /* \"--CODEGEN--\":13362:13367   */\n      dup3\n        /* \"--CODEGEN--\":13344:13368   */\n      tag_263\n      jump\t// in\n    tag_262:\n        /* \"--CODEGEN--\":13333:13368   */\n      swap1\n      pop\n        /* \"--CODEGEN--\":13327:13373   */\n      swap2\n      swap1\n      pop\n      jump\t// out\n        /* \"--CODEGEN--\":13380:13479   */\n    tag_146:\n      0x00\n        /* \"--CODEGEN--\":13450:13474   */\n      tag_265\n        /* \"--CODEGEN--\":13468:13473   */\n      dup3\n        /* \"--CODEGEN--\":13450:13474   */\n      tag_263\n      jump\t// in\n    tag_265:\n        /* \"--CODEGEN--\":13439:13474   */\n      swap1\n      pop\n        /* \"--CODEGEN--\":13433:13479   */\n      swap2\n      swap1\n      pop\n      jump\t// out\n        /* \"--CODEGEN--\":13486:13607   */\n    tag_263:\n      0x00\n        /* \"--CODEGEN--\":13559:13601   */\n      0xffffffffffffffffffffffffffffffffffffffff\n        /* \"--CODEGEN--\":13552:13557   */\n      dup3\n        /* \"--CODEGEN--\":13548:13602   */\n      and\n        /* \"--CODEGEN--\":13537:13602   */\n      swap1\n      pop\n        /* \"--CODEGEN--\":13531:13607   */\n      swap2\n      swap1\n      pop\n      jump\t// out\n        /* \"--CODEGEN--\":13614:13686   */\n    tag_215:\n      0x00\n        /* \"--CODEGEN--\":13676:13681   */\n      dup2\n        /* \"--CODEGEN--\":13665:13681   */\n      swap1\n      pop\n        /* \"--CODEGEN--\":13659:13686   */\n      swap2\n      swap1\n      pop\n      jump\t// out\n        /* \"--CODEGEN--\":13694:13839   */\n    tag_122:\n        /* \"--CODEGEN--\":13775:13781   */\n      dup3\n        /* \"--CODEGEN--\":13770:13773   */\n      dup2\n        /* \"--CODEGEN--\":13765:13768   */\n      dup4\n        /* \"--CODEGEN--\":13752:13782   */\n      calldatacopy\n        /* \"--CODEGEN--\":13831:13832   */\n      0x00\n        /* \"--CODEGEN--\":13822:13828   */\n      dup4\n        /* \"--CODEGEN--\":13817:13820   */\n      dup4\n        /* \"--CODEGEN--\":13813:13829   */\n      add\n        /* \"--CODEGEN--\":13806:13833   */\n      mstore\n        /* \"--CODEGEN--\":13745:13839   */\n      pop\n      pop\n      pop\n      jump\t// out\n        /* \"--CODEGEN--\":13848:14116   */\n    tag_172:\n        /* \"--CODEGEN--\":13913:13914   */\n      0x00\n        /* \"--CODEGEN--\":13920:14021   */\n    tag_270:\n        /* \"--CODEGEN--\":13934:13940   */\n      dup4\n        /* \"--CODEGEN--\":13931:13932   */\n      dup2\n        /* \"--CODEGEN--\":13928:13941   */\n      lt\n        /* \"--CODEGEN--\":13920:14021   */\n      iszero\n      tag_272\n      jumpi\n        /* \"--CODEGEN--\":14010:14011   */\n      dup1\n        /* \"--CODEGEN--\":14005:14008   */\n      dup3\n        /* \"--CODEGEN--\":14001:14012   */\n      add\n        /* \"--CODEGEN--\":13995:14013   */\n      mload\n        /* \"--CODEGEN--\":13991:13992   */\n      dup2\n        /* \"--CODEGEN--\":13986:13989   */\n      dup5\n        /* \"--CODEGEN--\":13982:13993   */\n      add\n        /* \"--CODEGEN--\":13975:14014   */\n      mstore\n        /* \"--CODEGEN--\":13956:13958   */\n      0x20\n        /* \"--CODEGEN--\":13953:13954   */\n      dup2\n        /* \"--CODEGEN--\":13949:13959   */\n      add\n        /* \"--CODEGEN--\":13944:13959   */\n      swap1\n      pop\n        /* \"--CODEGEN--\":13920:14021   */\n      jump(tag_270)\n    tag_272:\n        /* \"--CODEGEN--\":14036:14042   */\n      dup4\n        /* \"--CODEGEN--\":14033:14034   */\n      dup2\n        /* \"--CODEGEN--\":14030:14043   */\n      gt\n        /* \"--CODEGEN--\":14027:14029   */\n      iszero\n      tag_273\n      jumpi\n        /* \"--CODEGEN--\":14101:14102   */\n      0x00\n        /* \"--CODEGEN--\":14092:14098   */\n      dup5\n        /* \"--CODEGEN--\":14087:14090   */\n      dup5\n        /* \"--CODEGEN--\":14083:14099   */\n      add\n        /* \"--CODEGEN--\":14076:14103   */\n      mstore\n        /* \"--CODEGEN--\":14027:14029   */\n    tag_273:\n        /* \"--CODEGEN--\":13897:14116   */\n      pop\n      pop\n      pop\n      pop\n      jump\t// out\n        /* \"--CODEGEN--\":14124:14227   */\n    tag_147:\n      0x00\n        /* \"--CODEGEN--\":14196:14222   */\n      tag_275\n        /* \"--CODEGEN--\":14216:14221   */\n      dup3\n        /* \"--CODEGEN--\":14196:14222   */\n      tag_276\n      jump\t// in\n    tag_275:\n        /* \"--CODEGEN--\":14185:14222   */\n      swap1\n      pop\n        /* \"--CODEGEN--\":14179:14227   */\n      swap2\n      swap1\n      pop\n      jump\t// out\n        /* \"--CODEGEN--\":14234:14323   */\n    tag_276:\n      0x00\n        /* \"--CODEGEN--\":14298:14318   */\n      tag_278\n        /* \"--CODEGEN--\":14312:14317   */\n      dup3\n        /* \"--CODEGEN--\":14298:14318   */\n      tag_279\n      jump\t// in\n    tag_278:\n        /* \"--CODEGEN--\":14287:14318   */\n      swap1\n      pop\n        /* \"--CODEGEN--\":14281:14323   */\n      swap2\n      swap1\n      pop\n      jump\t// out\n        /* \"--CODEGEN--\":14330:14404   */\n    tag_220:\n      0x00\n        /* \"--CODEGEN--\":14394:14399   */\n      dup2\n        /* \"--CODEGEN--\":14383:14399   */\n      swap1\n      pop\n        /* \"--CODEGEN--\":14377:14404   */\n      swap2\n      swap1\n      pop\n      jump\t// out\n        /* \"--CODEGEN--\":14411:14508   */\n    tag_174:\n      0x00\n        /* \"--CODEGEN--\":14499:14501   */\n      0x1f\n        /* \"--CODEGEN--\":14495:14502   */\n      not\n        /* \"--CODEGEN--\":14490:14492   */\n      0x1f\n        /* \"--CODEGEN--\":14483:14488   */\n      dup4\n        /* \"--CODEGEN--\":14479:14493   */\n      add\n        /* \"--CODEGEN--\":14475:14503   */\n      and\n        /* \"--CODEGEN--\":14465:14503   */\n      swap1\n      pop\n        /* \"--CODEGEN--\":14459:14508   */\n      swap2\n      swap1\n      pop\n      jump\t// out\n        /* \"--CODEGEN--\":14516:14610   */\n    tag_279:\n      0x00\n        /* \"--CODEGEN--\":14594:14599   */\n      dup2\n        /* \"--CODEGEN--\":14590:14592   */\n      0x60\n        /* \"--CODEGEN--\":14586:14600   */\n      shl\n        /* \"--CODEGEN--\":14564:14600   */\n      swap1\n      pop\n        /* \"--CODEGEN--\":14558:14610   */\n      swap2\n      swap1\n      pop\n      jump\t// out\n        /* \"--CODEGEN--\":14618:14735   */\n    tag_126:\n        /* \"--CODEGEN--\":14687:14711   */\n      tag_284\n        /* \"--CODEGEN--\":14705:14710   */\n      dup2\n        /* \"--CODEGEN--\":14687:14711   */\n      tag_215\n      jump\t// in\n    tag_284:\n        /* \"--CODEGEN--\":14680:14685   */\n      dup2\n        /* \"--CODEGEN--\":14677:14712   */\n      eq\n        /* \"--CODEGEN--\":14667:14669   */\n      tag_285\n      jumpi\n        /* \"--CODEGEN--\":14726:14727   */\n      0x00\n        /* \"--CODEGEN--\":14723:14724   */\n      dup1\n        /* \"--CODEGEN--\":14716:14728   */\n      revert\n        /* \"--CODEGEN--\":14667:14669   */\n    tag_285:\n        /* \"--CODEGEN--\":14661:14735   */\n      pop\n      jump\t// out\n\n    auxdata: 0xa26469706673582212209804055684d834b61b915c436c946ca5d667c9c58951bfe42e0113898277267664736f6c634300060c0033\n}\n",
				"bytecode": {
					"linkReferences": {},
					"object": "608060405234801561001057600080fd5b50336000806101000a81548173ffffffffffffffffffffffffffffffffffffffff021916908373ffffffffffffffffffffffffffffffffffffffff160217905550610f33806100606000396000f3fe608060405234801561001057600080fd5b506004361061007d5760003560e01c8063bfc2e9381161005b578063bfc2e938146100ee578063e7bf56fa1461010c578063f01ca6b71461012a578063febe07dc146101465761007d565b80634c25de511461008257806355911cc1146100b25780638da5cb5b146100d0575b600080fd5b61009c600480360381019061009791906107fb565b610162565b6040516100a99190610d10565b60405180910390f35b6100ba61018a565b6040516100c79190610cce565b60405180910390f35b6100d8610266565b6040516100e59190610c91565b60405180910390f35b6100f661028a565b6040516101039190610cac565b60405180910390f35b610114610373565b6040516101219190610cce565b60405180910390f35b610144600480360381019061013f919061083c565b610413565b005b610160600480360381019061015b91906107fb565b6104a7565b005b60006002826040516101749190610bdc565b9081526020016040518091039020549050919050565b606080600360008154811061019b57fe5b906000526020600020018054600181600116156101000203166002900480601f0160208091040260200160405190810160405280929190818152602001828054600181600116156101000203166002900480156102395780601f1061020e57610100808354040283529160200191610239565b820191906000526020600020905b81548152906001019060200180831161021c57829003601f168201915b505050505090506000600190505b600380549050811015610261578080600101915050610247565b505090565b60008054906101000a900473ffffffffffffffffffffffffffffffffffffffff1681565b60606003805480602002602001604051908101604052809291908181526020016000905b8282101561036a578382906000526020600020018054600181600116156101000203166002900480601f0160208091040260200160405190810160405280929190818152602001828054600181600116156101000203166002900480156103565780601f1061032b57610100808354040283529160200191610356565b820191906000526020600020905b81548152906001019060200180831161033957829003601f168201915b5050505050815260200190600101906102ae565b50505050905090565b60608060005b60038054905081101561040b57816003828154811061039457fe5b906000526020600020016103db6002600385815481106103b057fe5b906000526020600020016040516103c79190610c7a565b9081526020016040518091039020546105a5565b6040516020016103ed93929190610bf3565b60405160208183030381529060405291508080600101915050610379565b508091505090565b600083838360405160200161042a93929190610c45565b604051602081830303815290604052805190602001209050806001856040516104539190610bdc565b9081526020016040518091039020819055506003849080600181540180825580915050600190039060005260206000200160009091909190915090805190602001906104a09291906106f5565b5050505050565b6000336040516020016104ba9190610bc1565b60405160208183030381529060405280519060200120905060005b60048054905081101561054957600481815481106104ef57fe5b906000526020600020015482141561053c576040517f08c379a000000000000000000000000000000000000000000000000000000000815260040161053390610cf0565b60405180910390fd5b80806001019150506104d5565b5060048190806001815401808255809150506001900390600052602060002001600090919091909150556002826040516105839190610bdc565b9081526020016040518091039020600081548092919060010191905055505050565b606060008214156105ed576040518060400160405280600181526020017f300000000000000000000000000000000000000000000000000000000000000081525090506106f0565b600082905060005b60008214610617578080600101915050600a828161060f57fe5b0491506105f5565b60608167ffffffffffffffff8111801561063057600080fd5b506040519080825280601f01601f1916602001820160405280156106635781602001600182028036833780820191505090505b50905060008290505b600086146106e8576001810390506000600a80888161068757fe5b04028703603001905060008160f81b9050808484815181106106a557fe5b60200101907effffffffffffffffffffffffffffffffffffffffffffffffffffffffffffff1916908160001a905350600a88816106de57fe5b049750505061066c565b819450505050505b919050565b828054600181600116156101000203166002900490600052602060002090601f016020900481019282601f1061073657805160ff1916838001178555610764565b82800160010185558215610764579182015b82811115610763578251825591602001919060010190610748565b5b5090506107719190610775565b5090565b5b8082111561078e576000816000905550600101610776565b5090565b600082601f8301126107a357600080fd5b81356107b66107b182610d58565b610d2b565b915080825260208301602083018583830111156107d257600080fd5b6107dd838284610e58565b50505092915050565b6000813590506107f581610ee6565b92915050565b60006020828403121561080d57600080fd5b600082013567ffffffffffffffff81111561082757600080fd5b61083384828501610792565b91505092915050565b60008060006060848603121561085157600080fd5b600084013567ffffffffffffffff81111561086b57600080fd5b61087786828701610792565b9350506020610888868287016107e6565b925050604084013567ffffffffffffffff8111156108a557600080fd5b6108b186828701610792565b9150509250925092565b60006108c7838361096a565b905092915050565b6108e06108db82610e1c565b610e9a565b82525050565b6108ef81610e0a565b82525050565b600061090082610da9565b61090a8185610dcc565b93508360208202850161091c85610d84565b8060005b85811015610958578484038952815161093985826108bb565b945061094483610dbf565b925060208a01995050600181019050610920565b50829750879550505050505092915050565b600061097582610db4565b61097f8185610ddd565b935061098f818560208601610e67565b61099881610ec8565b840191505092915050565b60006109ae82610db4565b6109b88185610dee565b93506109c8818560208601610e67565b6109d181610ec8565b840191505092915050565b60006109e782610db4565b6109f18185610dff565b9350610a01818560208601610e67565b80840191505092915050565b600081546001811660008114610a2a5760018114610a4f57610a93565b607f6002830416610a3b8187610dff565b955060ff1983168652808601935050610a93565b60028204610a5d8187610dff565b9550610a6885610d94565b60005b82811015610a8a57815481890152600182019150602081019050610a6b565b82880195505050505b505092915050565b6000610aa8601b83610dee565b91507f596120736520686120766f7461646f207072657669616d656e746500000000006000830152602082019050919050565b6000610ae8600183610dff565b91507f20000000000000000000000000000000000000000000000000000000000000006000830152600182019050919050565b6000610b28600383610dff565b91507f207c0a00000000000000000000000000000000000000000000000000000000006000830152600382019050919050565b6000610b68600283610dff565b91507f7c200000000000000000000000000000000000000000000000000000000000006000830152600282019050919050565b610ba481610e4e565b82525050565b610bbb610bb682610e4e565b610ebe565b82525050565b6000610bcd82846108cf565b60148201915081905092915050565b6000610be882846109dc565b915081905092915050565b6000610bff82866109dc565b9150610c0a82610b5b565b9150610c168285610a0d565b9150610c2182610adb565b9150610c2d82846109dc565b9150610c3882610b1b565b9150819050949350505050565b6000610c5182866109dc565b9150610c5d8285610baa565b602082019150610c6d82846109dc565b9150819050949350505050565b6000610c868284610a0d565b915081905092915050565b6000602082019050610ca660008301846108e6565b92915050565b60006020820190508181036000830152610cc681846108f5565b905092915050565b60006020820190508181036000830152610ce881846109a3565b905092915050565b60006020820190508181036000830152610d0981610a9b565b9050919050565b6000602082019050610d256000830184610b9b565b92915050565b6000604051905081810181811067ffffffffffffffff82111715610d4e57600080fd5b8060405250919050565b600067ffffffffffffffff821115610d6f57600080fd5b601f19601f8301169050602081019050919050565b6000819050602082019050919050565b60008190508160005260206000209050919050565b600081519050919050565b600081519050919050565b6000602082019050919050565b600082825260208201905092915050565b600082825260208201905092915050565b600082825260208201905092915050565b600081905092915050565b6000610e1582610e2e565b9050919050565b6000610e2782610e2e565b9050919050565b600073ffffffffffffffffffffffffffffffffffffffff82169050919050565b6000819050919050565b82818337600083830152505050565b60005b83811015610e85578082015181840152602081019050610e6a565b83811115610e94576000848401525b50505050565b6000610ea582610eac565b9050919050565b6000610eb782610ed9565b9050919050565b6000819050919050565b6000601f19601f8301169050919050565b60008160601b9050919050565b610eef81610e4e565b8114610efa57600080fd5b5056fea26469706673582212209804055684d834b61b915c436c946ca5d667c9c58951bfe42e0113898277267664736f6c634300060c0033",
					"opcodes": "PUSH1 0x80 PUSH1 0x40 MSTORE CALLVALUE DUP1 ISZERO PUSH2 0x10 JUMPI PUSH1 0x0 DUP1 REVERT JUMPDEST POP CALLER PUSH1 0x0 DUP1 PUSH2 0x100 EXP DUP2 SLOAD DUP2 PUSH20 0xFFFFFFFFFFFFFFFFFFFFFFFFFFFFFFFFFFFFFFFF MUL NOT AND SWAP1 DUP4 PUSH20 0xFFFFFFFFFFFFFFFFFFFFFFFFFFFFFFFFFFFFFFFF AND MUL OR SWAP1 SSTORE POP PUSH2 0xF33 DUP1 PUSH2 0x60 PUSH1 0x0 CODECOPY PUSH1 0x0 RETURN INVALID PUSH1 0x80 PUSH1 0x40 MSTORE CALLVALUE DUP1 ISZERO PUSH2 0x10 JUMPI PUSH1 0x0 DUP1 REVERT JUMPDEST POP PUSH1 0x4 CALLDATASIZE LT PUSH2 0x7D JUMPI PUSH1 0x0 CALLDATALOAD PUSH1 0xE0 SHR DUP1 PUSH4 0xBFC2E938 GT PUSH2 0x5B JUMPI DUP1 PUSH4 0xBFC2E938 EQ PUSH2 0xEE JUMPI DUP1 PUSH4 0xE7BF56FA EQ PUSH2 0x10C JUMPI DUP1 PUSH4 0xF01CA6B7 EQ PUSH2 0x12A JUMPI DUP1 PUSH4 0xFEBE07DC EQ PUSH2 0x146 JUMPI PUSH2 0x7D JUMP JUMPDEST DUP1 PUSH4 0x4C25DE51 EQ PUSH2 0x82 JUMPI DUP1 PUSH4 0x55911CC1 EQ PUSH2 0xB2 JUMPI DUP1 PUSH4 0x8DA5CB5B EQ PUSH2 0xD0 JUMPI JUMPDEST PUSH1 0x0 DUP1 REVERT JUMPDEST PUSH2 0x9C PUSH1 0x4 DUP1 CALLDATASIZE SUB DUP2 ADD SWAP1 PUSH2 0x97 SWAP2 SWAP1 PUSH2 0x7FB JUMP JUMPDEST PUSH2 0x162 JUMP JUMPDEST PUSH1 0x40 MLOAD PUSH2 0xA9 SWAP2 SWAP1 PUSH2 0xD10 JUMP JUMPDEST PUSH1 0x40 MLOAD DUP1 SWAP2 SUB SWAP1 RETURN JUMPDEST PUSH2 0xBA PUSH2 0x18A JUMP JUMPDEST PUSH1 0x40 MLOAD PUSH2 0xC7 SWAP2 SWAP1 PUSH2 0xCCE JUMP JUMPDEST PUSH1 0x40 MLOAD DUP1 SWAP2 SUB SWAP1 RETURN JUMPDEST PUSH2 0xD8 PUSH2 0x266 JUMP JUMPDEST PUSH1 0x40 MLOAD PUSH2 0xE5 SWAP2 SWAP1 PUSH2 0xC91 JUMP JUMPDEST PUSH1 0x40 MLOAD DUP1 SWAP2 SUB SWAP1 RETURN JUMPDEST PUSH2 0xF6 PUSH2 0x28A JUMP JUMPDEST PUSH1 0x40 MLOAD PUSH2 0x103 SWAP2 SWAP1 PUSH2 0xCAC JUMP JUMPDEST PUSH1 0x40 MLOAD DUP1 SWAP2 SUB SWAP1 RETURN JUMPDEST PUSH2 0x114 PUSH2 0x373 JUMP JUMPDEST PUSH1 0x40 MLOAD PUSH2 0x121 SWAP2 SWAP1 PUSH2 0xCCE JUMP JUMPDEST PUSH1 0x40 MLOAD DUP1 SWAP2 SUB SWAP1 RETURN JUMPDEST PUSH2 0x144 PUSH1 0x4 DUP1 CALLDATASIZE SUB DUP2 ADD SWAP1 PUSH2 0x13F SWAP2 SWAP1 PUSH2 0x83C JUMP JUMPDEST PUSH2 0x413 JUMP JUMPDEST STOP JUMPDEST PUSH2 0x160 PUSH1 0x4 DUP1 CALLDATASIZE SUB DUP2 ADD SWAP1 PUSH2 0x15B SWAP2 SWAP1 PUSH2 0x7FB JUMP JUMPDEST PUSH2 0x4A7 JUMP JUMPDEST STOP JUMPDEST PUSH1 0x0 PUSH1 0x2 DUP3 PUSH1 0x40 MLOAD PUSH2 0x174 SWAP2 SWAP1 PUSH2 0xBDC JUMP JUMPDEST SWAP1 DUP2 MSTORE PUSH1 0x20 ADD PUSH1 0x40 MLOAD DUP1 SWAP2 SUB SWAP1 KECCAK256 SLOAD SWAP1 POP SWAP2 SWAP1 POP JUMP JUMPDEST PUSH1 0x60 DUP1 PUSH1 0x3 PUSH1 0x0 DUP2 SLOAD DUP2 LT PUSH2 0x19B JUMPI INVALID JUMPDEST SWAP1 PUSH1 0x0 MSTORE PUSH1 0x20 PUSH1 0x0 KECCAK256 ADD DUP1 SLOAD PUSH1 0x1 DUP2 PUSH1 0x1 AND ISZERO PUSH2 0x100 MUL SUB AND PUSH1 0x2 SWAP1 DIV DUP1 PUSH1 0x1F ADD PUSH1 0x20 DUP1 SWAP2 DIV MUL PUSH1 0x20 ADD PUSH1 0x40 MLOAD SWAP1 DUP2 ADD PUSH1 0x40 MSTORE DUP1 SWAP3 SWAP2 SWAP1 DUP2 DUP2 MSTORE PUSH1 0x20 ADD DUP3 DUP1 SLOAD PUSH1 0x1 DUP2 PUSH1 0x1 AND ISZERO PUSH2 0x100 MUL SUB AND PUSH1 0x2 SWAP1 DIV DUP1 ISZERO PUSH2 0x239 JUMPI DUP1 PUSH1 0x1F LT PUSH2 0x20E JUMPI PUSH2 0x100 DUP1 DUP4 SLOAD DIV MUL DUP4 MSTORE SWAP2 PUSH1 0x20 ADD SWAP2 PUSH2 0x239 JUMP JUMPDEST DUP3 ADD SWAP2 SWAP1 PUSH1 0x0 MSTORE PUSH1 0x20 PUSH1 0x0 KECCAK256 SWAP1 JUMPDEST DUP2 SLOAD DUP2 MSTORE SWAP1 PUSH1 0x1 ADD SWAP1 PUSH1 0x20 ADD DUP1 DUP4 GT PUSH2 0x21C JUMPI DUP3 SWAP1 SUB PUSH1 0x1F AND DUP3 ADD SWAP2 JUMPDEST POP POP POP POP POP SWAP1 POP PUSH1 0x0 PUSH1 0x1 SWAP1 POP JUMPDEST PUSH1 0x3 DUP1 SLOAD SWAP1 POP DUP2 LT ISZERO PUSH2 0x261 JUMPI DUP1 DUP1 PUSH1 0x1 ADD SWAP2 POP POP PUSH2 0x247 JUMP JUMPDEST POP POP SWAP1 JUMP JUMPDEST PUSH1 0x0 DUP1 SLOAD SWAP1 PUSH2 0x100 EXP SWAP1 DIV PUSH20 0xFFFFFFFFFFFFFFFFFFFFFFFFFFFFFFFFFFFFFFFF AND DUP2 JUMP JUMPDEST PUSH1 0x60 PUSH1 0x3 DUP1 SLOAD DUP1 PUSH1 0x20 MUL PUSH1 0x20 ADD PUSH1 0x40 MLOAD SWAP1 DUP2 ADD PUSH1 0x40 MSTORE DUP1 SWAP3 SWAP2 SWAP1 DUP2 DUP2 MSTORE PUSH1 0x20 ADD PUSH1 0x0 SWAP1 JUMPDEST DUP3 DUP3 LT ISZERO PUSH2 0x36A JUMPI DUP4 DUP3 SWAP1 PUSH1 0x0 MSTORE PUSH1 0x20 PUSH1 0x0 KECCAK256 ADD DUP1 SLOAD PUSH1 0x1 DUP2 PUSH1 0x1 AND ISZERO PUSH2 0x100 MUL SUB AND PUSH1 0x2 SWAP1 DIV DUP1 PUSH1 0x1F ADD PUSH1 0x20 DUP1 SWAP2 DIV MUL PUSH1 0x20 ADD PUSH1 0x40 MLOAD SWAP1 DUP2 ADD PUSH1 0x40 MSTORE DUP1 SWAP3 SWAP2 SWAP1 DUP2 DUP2 MSTORE PUSH1 0x20 ADD DUP3 DUP1 SLOAD PUSH1 0x1 DUP2 PUSH1 0x1 AND ISZERO PUSH2 0x100 MUL SUB AND PUSH1 0x2 SWAP1 DIV DUP1 ISZERO PUSH2 0x356 JUMPI DUP1 PUSH1 0x1F LT PUSH2 0x32B JUMPI PUSH2 0x100 DUP1 DUP4 SLOAD DIV MUL DUP4 MSTORE SWAP2 PUSH1 0x20 ADD SWAP2 PUSH2 0x356 JUMP JUMPDEST DUP3 ADD SWAP2 SWAP1 PUSH1 0x0 MSTORE PUSH1 0x20 PUSH1 0x0 KECCAK256 SWAP1 JUMPDEST DUP2 SLOAD DUP2 MSTORE SWAP1 PUSH1 0x1 ADD SWAP1 PUSH1 0x20 ADD DUP1 DUP4 GT PUSH2 0x339 JUMPI DUP3 SWAP1 SUB PUSH1 0x1F AND DUP3 ADD SWAP2 JUMPDEST POP POP POP POP POP DUP2 MSTORE PUSH1 0x20 ADD SWAP1 PUSH1 0x1 ADD SWAP1 PUSH2 0x2AE JUMP JUMPDEST POP POP POP POP SWAP1 POP SWAP1 JUMP JUMPDEST PUSH1 0x60 DUP1 PUSH1 0x0 JUMPDEST PUSH1 0x3 DUP1 SLOAD SWAP1 POP DUP2 LT ISZERO PUSH2 0x40B JUMPI DUP2 PUSH1 0x3 DUP3 DUP2 SLOAD DUP2 LT PUSH2 0x394 JUMPI INVALID JUMPDEST SWAP1 PUSH1 0x0 MSTORE PUSH1 0x20 PUSH1 0x0 KECCAK256 ADD PUSH2 0x3DB PUSH1 0x2 PUSH1 0x3 DUP6 DUP2 SLOAD DUP2 LT PUSH2 0x3B0 JUMPI INVALID JUMPDEST SWAP1 PUSH1 0x0 MSTORE PUSH1 0x20 PUSH1 0x0 KECCAK256 ADD PUSH1 0x40 MLOAD PUSH2 0x3C7 SWAP2 SWAP1 PUSH2 0xC7A JUMP JUMPDEST SWAP1 DUP2 MSTORE PUSH1 0x20 ADD PUSH1 0x40 MLOAD DUP1 SWAP2 SUB SWAP1 KECCAK256 SLOAD PUSH2 0x5A5 JUMP JUMPDEST PUSH1 0x40 MLOAD PUSH1 0x20 ADD PUSH2 0x3ED SWAP4 SWAP3 SWAP2 SWAP1 PUSH2 0xBF3 JUMP JUMPDEST PUSH1 0x40 MLOAD PUSH1 0x20 DUP2 DUP4 SUB SUB DUP2 MSTORE SWAP1 PUSH1 0x40 MSTORE SWAP2 POP DUP1 DUP1 PUSH1 0x1 ADD SWAP2 POP POP PUSH2 0x379 JUMP JUMPDEST POP DUP1 SWAP2 POP POP SWAP1 JUMP JUMPDEST PUSH1 0x0 DUP4 DUP4 DUP4 PUSH1 0x40 MLOAD PUSH1 0x20 ADD PUSH2 0x42A SWAP4 SWAP3 SWAP2 SWAP1 PUSH2 0xC45 JUMP JUMPDEST PUSH1 0x40 MLOAD PUSH1 0x20 DUP2 DUP4 SUB SUB DUP2 MSTORE SWAP1 PUSH1 0x40 MSTORE DUP1 MLOAD SWAP1 PUSH1 0x20 ADD KECCAK256 SWAP1 POP DUP1 PUSH1 0x1 DUP6 PUSH1 0x40 MLOAD PUSH2 0x453 SWAP2 SWAP1 PUSH2 0xBDC JUMP JUMPDEST SWAP1 DUP2 MSTORE PUSH1 0x20 ADD PUSH1 0x40 MLOAD DUP1 SWAP2 SUB SWAP1 KECCAK256 DUP2 SWAP1 SSTORE POP PUSH1 0x3 DUP5 SWAP1 DUP1 PUSH1 0x1 DUP2 SLOAD ADD DUP1 DUP3 SSTORE DUP1 SWAP2 POP POP PUSH1 0x1 SWAP1 SUB SWAP1 PUSH1 0x0 MSTORE PUSH1 0x20 PUSH1 0x0 KECCAK256 ADD PUSH1 0x0 SWAP1 SWAP2 SWAP1 SWAP2 SWAP1 SWAP2 POP SWAP1 DUP1 MLOAD SWAP1 PUSH1 0x20 ADD SWAP1 PUSH2 0x4A0 SWAP3 SWAP2 SWAP1 PUSH2 0x6F5 JUMP JUMPDEST POP POP POP POP POP JUMP JUMPDEST PUSH1 0x0 CALLER PUSH1 0x40 MLOAD PUSH1 0x20 ADD PUSH2 0x4BA SWAP2 SWAP1 PUSH2 0xBC1 JUMP JUMPDEST PUSH1 0x40 MLOAD PUSH1 0x20 DUP2 DUP4 SUB SUB DUP2 MSTORE SWAP1 PUSH1 0x40 MSTORE DUP1 MLOAD SWAP1 PUSH1 0x20 ADD KECCAK256 SWAP1 POP PUSH1 0x0 JUMPDEST PUSH1 0x4 DUP1 SLOAD SWAP1 POP DUP2 LT ISZERO PUSH2 0x549 JUMPI PUSH1 0x4 DUP2 DUP2 SLOAD DUP2 LT PUSH2 0x4EF JUMPI INVALID JUMPDEST SWAP1 PUSH1 0x0 MSTORE PUSH1 0x20 PUSH1 0x0 KECCAK256 ADD SLOAD DUP3 EQ ISZERO PUSH2 0x53C JUMPI PUSH1 0x40 MLOAD PUSH32 0x8C379A000000000000000000000000000000000000000000000000000000000 DUP2 MSTORE PUSH1 0x4 ADD PUSH2 0x533 SWAP1 PUSH2 0xCF0 JUMP JUMPDEST PUSH1 0x40 MLOAD DUP1 SWAP2 SUB SWAP1 REVERT JUMPDEST DUP1 DUP1 PUSH1 0x1 ADD SWAP2 POP POP PUSH2 0x4D5 JUMP JUMPDEST POP PUSH1 0x4 DUP2 SWAP1 DUP1 PUSH1 0x1 DUP2 SLOAD ADD DUP1 DUP3 SSTORE DUP1 SWAP2 POP POP PUSH1 0x1 SWAP1 SUB SWAP1 PUSH1 0x0 MSTORE PUSH1 0x20 PUSH1 0x0 KECCAK256 ADD PUSH1 0x0 SWAP1 SWAP2 SWAP1 SWAP2 SWAP1 SWAP2 POP SSTORE PUSH1 0x2 DUP3 PUSH1 0x40 MLOAD PUSH2 0x583 SWAP2 SWAP1 PUSH2 0xBDC JUMP JUMPDEST SWAP1 DUP2 MSTORE PUSH1 0x20 ADD PUSH1 0x40 MLOAD DUP1 SWAP2 SUB SWAP1 KECCAK256 PUSH1 0x0 DUP2 SLOAD DUP1 SWAP3 SWAP2 SWAP1 PUSH1 0x1 ADD SWAP2 SWAP1 POP SSTORE POP POP POP JUMP JUMPDEST PUSH1 0x60 PUSH1 0x0 DUP3 EQ ISZERO PUSH2 0x5ED JUMPI PUSH1 0x40 MLOAD DUP1 PUSH1 0x40 ADD PUSH1 0x40 MSTORE DUP1 PUSH1 0x1 DUP2 MSTORE PUSH1 0x20 ADD PUSH32 0x3000000000000000000000000000000000000000000000000000000000000000 DUP2 MSTORE POP SWAP1 POP PUSH2 0x6F0 JUMP JUMPDEST PUSH1 0x0 DUP3 SWAP1 POP PUSH1 0x0 JUMPDEST PUSH1 0x0 DUP3 EQ PUSH2 0x617 JUMPI DUP1 DUP1 PUSH1 0x1 ADD SWAP2 POP POP PUSH1 0xA DUP3 DUP2 PUSH2 0x60F JUMPI INVALID JUMPDEST DIV SWAP2 POP PUSH2 0x5F5 JUMP JUMPDEST PUSH1 0x60 DUP2 PUSH8 0xFFFFFFFFFFFFFFFF DUP2 GT DUP1 ISZERO PUSH2 0x630 JUMPI PUSH1 0x0 DUP1 REVERT JUMPDEST POP PUSH1 0x40 MLOAD SWAP1 DUP1 DUP3 MSTORE DUP1 PUSH1 0x1F ADD PUSH1 0x1F NOT AND PUSH1 0x20 ADD DUP3 ADD PUSH1 0x40 MSTORE DUP1 ISZERO PUSH2 0x663 JUMPI DUP2 PUSH1 0x20 ADD PUSH1 0x1 DUP3 MUL DUP1 CALLDATASIZE DUP4 CALLDATACOPY DUP1 DUP3 ADD SWAP2 POP POP SWAP1 POP JUMPDEST POP SWAP1 POP PUSH1 0x0 DUP3 SWAP1 POP JUMPDEST PUSH1 0x0 DUP7 EQ PUSH2 0x6E8 JUMPI PUSH1 0x1 DUP2 SUB SWAP1 POP PUSH1 0x0 PUSH1 0xA DUP1 DUP9 DUP2 PUSH2 0x687 JUMPI INVALID JUMPDEST DIV MUL DUP8 SUB PUSH1 0x30 ADD SWAP1 POP PUSH1 0x0 DUP2 PUSH1 0xF8 SHL SWAP1 POP DUP1 DUP5 DUP5 DUP2 MLOAD DUP2 LT PUSH2 0x6A5 JUMPI INVALID JUMPDEST PUSH1 0x20 ADD ADD SWAP1 PUSH31 0xFFFFFFFFFFFFFFFFFFFFFFFFFFFFFFFFFFFFFFFFFFFFFFFFFFFFFFFFFFFFFF NOT AND SWAP1 DUP2 PUSH1 0x0 BYTE SWAP1 MSTORE8 POP PUSH1 0xA DUP9 DUP2 PUSH2 0x6DE JUMPI INVALID JUMPDEST DIV SWAP8 POP POP POP PUSH2 0x66C JUMP JUMPDEST DUP2 SWAP5 POP POP POP POP POP JUMPDEST SWAP2 SWAP1 POP JUMP JUMPDEST DUP3 DUP1 SLOAD PUSH1 0x1 DUP2 PUSH1 0x1 AND ISZERO PUSH2 0x100 MUL SUB AND PUSH1 0x2 SWAP1 DIV SWAP1 PUSH1 0x0 MSTORE PUSH1 0x20 PUSH1 0x0 KECCAK256 SWAP1 PUSH1 0x1F ADD PUSH1 0x20 SWAP1 DIV DUP2 ADD SWAP3 DUP3 PUSH1 0x1F LT PUSH2 0x736 JUMPI DUP1 MLOAD PUSH1 0xFF NOT AND DUP4 DUP1 ADD OR DUP6 SSTORE PUSH2 0x764 JUMP JUMPDEST DUP3 DUP1 ADD PUSH1 0x1 ADD DUP6 SSTORE DUP3 ISZERO PUSH2 0x764 JUMPI SWAP2 DUP3 ADD JUMPDEST DUP3 DUP2 GT ISZERO PUSH2 0x763 JUMPI DUP3 MLOAD DUP3 SSTORE SWAP2 PUSH1 0x20 ADD SWAP2 SWAP1 PUSH1 0x1 ADD SWAP1 PUSH2 0x748 JUMP JUMPDEST JUMPDEST POP SWAP1 POP PUSH2 0x771 SWAP2 SWAP1 PUSH2 0x775 JUMP JUMPDEST POP SWAP1 JUMP JUMPDEST JUMPDEST DUP1 DUP3 GT ISZERO PUSH2 0x78E JUMPI PUSH1 0x0 DUP2 PUSH1 0x0 SWAP1 SSTORE POP PUSH1 0x1 ADD PUSH2 0x776 JUMP JUMPDEST POP SWAP1 JUMP JUMPDEST PUSH1 0x0 DUP3 PUSH1 0x1F DUP4 ADD SLT PUSH2 0x7A3 JUMPI PUSH1 0x0 DUP1 REVERT JUMPDEST DUP2 CALLDATALOAD PUSH2 0x7B6 PUSH2 0x7B1 DUP3 PUSH2 0xD58 JUMP JUMPDEST PUSH2 0xD2B JUMP JUMPDEST SWAP2 POP DUP1 DUP3 MSTORE PUSH1 0x20 DUP4 ADD PUSH1 0x20 DUP4 ADD DUP6 DUP4 DUP4 ADD GT ISZERO PUSH2 0x7D2 JUMPI PUSH1 0x0 DUP1 REVERT JUMPDEST PUSH2 0x7DD DUP4 DUP3 DUP5 PUSH2 0xE58 JUMP JUMPDEST POP POP POP SWAP3 SWAP2 POP POP JUMP JUMPDEST PUSH1 0x0 DUP2 CALLDATALOAD SWAP1 POP PUSH2 0x7F5 DUP2 PUSH2 0xEE6 JUMP JUMPDEST SWAP3 SWAP2 POP POP JUMP JUMPDEST PUSH1 0x0 PUSH1 0x20 DUP3 DUP5 SUB SLT ISZERO PUSH2 0x80D JUMPI PUSH1 0x0 DUP1 REVERT JUMPDEST PUSH1 0x0 DUP3 ADD CALLDATALOAD PUSH8 0xFFFFFFFFFFFFFFFF DUP2 GT ISZERO PUSH2 0x827 JUMPI PUSH1 0x0 DUP1 REVERT JUMPDEST PUSH2 0x833 DUP5 DUP3 DUP6 ADD PUSH2 0x792 JUMP JUMPDEST SWAP2 POP POP SWAP3 SWAP2 POP POP JUMP JUMPDEST PUSH1 0x0 DUP1 PUSH1 0x0 PUSH1 0x60 DUP5 DUP7 SUB SLT ISZERO PUSH2 0x851 JUMPI PUSH1 0x0 DUP1 REVERT JUMPDEST PUSH1 0x0 DUP5 ADD CALLDATALOAD PUSH8 0xFFFFFFFFFFFFFFFF DUP2 GT ISZERO PUSH2 0x86B JUMPI PUSH1 0x0 DUP1 REVERT JUMPDEST PUSH2 0x877 DUP7 DUP3 DUP8 ADD PUSH2 0x792 JUMP JUMPDEST SWAP4 POP POP PUSH1 0x20 PUSH2 0x888 DUP7 DUP3 DUP8 ADD PUSH2 0x7E6 JUMP JUMPDEST SWAP3 POP POP PUSH1 0x40 DUP5 ADD CALLDATALOAD PUSH8 0xFFFFFFFFFFFFFFFF DUP2 GT ISZERO PUSH2 0x8A5 JUMPI PUSH1 0x0 DUP1 REVERT JUMPDEST PUSH2 0x8B1 DUP7 DUP3 DUP8 ADD PUSH2 0x792 JUMP JUMPDEST SWAP2 POP POP SWAP3 POP SWAP3 POP SWAP3 JUMP JUMPDEST PUSH1 0x0 PUSH2 0x8C7 DUP4 DUP4 PUSH2 0x96A JUMP JUMPDEST SWAP1 POP SWAP3 SWAP2 POP POP JUMP JUMPDEST PUSH2 0x8E0 PUSH2 0x8DB DUP3 PUSH2 0xE1C JUMP JUMPDEST PUSH2 0xE9A JUMP JUMPDEST DUP3 MSTORE POP POP JUMP JUMPDEST PUSH2 0x8EF DUP2 PUSH2 0xE0A JUMP JUMPDEST DUP3 MSTORE POP POP JUMP JUMPDEST PUSH1 0x0 PUSH2 0x900 DUP3 PUSH2 0xDA9 JUMP JUMPDEST PUSH2 0x90A DUP2 DUP6 PUSH2 0xDCC JUMP JUMPDEST SWAP4 POP DUP4 PUSH1 0x20 DUP3 MUL DUP6 ADD PUSH2 0x91C DUP6 PUSH2 0xD84 JUMP JUMPDEST DUP1 PUSH1 0x0 JUMPDEST DUP6 DUP2 LT ISZERO PUSH2 0x958 JUMPI DUP5 DUP5 SUB DUP10 MSTORE DUP2 MLOAD PUSH2 0x939 DUP6 DUP3 PUSH2 0x8BB JUMP JUMPDEST SWAP5 POP PUSH2 0x944 DUP4 PUSH2 0xDBF JUMP JUMPDEST SWAP3 POP PUSH1 0x20 DUP11 ADD SWAP10 POP POP PUSH1 0x1 DUP2 ADD SWAP1 POP PUSH2 0x920 JUMP JUMPDEST POP DUP3 SWAP8 POP DUP8 SWAP6 POP POP POP POP POP POP SWAP3 SWAP2 POP POP JUMP JUMPDEST PUSH1 0x0 PUSH2 0x975 DUP3 PUSH2 0xDB4 JUMP JUMPDEST PUSH2 0x97F DUP2 DUP6 PUSH2 0xDDD JUMP JUMPDEST SWAP4 POP PUSH2 0x98F DUP2 DUP6 PUSH1 0x20 DUP7 ADD PUSH2 0xE67 JUMP JUMPDEST PUSH2 0x998 DUP2 PUSH2 0xEC8 JUMP JUMPDEST DUP5 ADD SWAP2 POP POP SWAP3 SWAP2 POP POP JUMP JUMPDEST PUSH1 0x0 PUSH2 0x9AE DUP3 PUSH2 0xDB4 JUMP JUMPDEST PUSH2 0x9B8 DUP2 DUP6 PUSH2 0xDEE JUMP JUMPDEST SWAP4 POP PUSH2 0x9C8 DUP2 DUP6 PUSH1 0x20 DUP7 ADD PUSH2 0xE67 JUMP JUMPDEST PUSH2 0x9D1 DUP2 PUSH2 0xEC8 JUMP JUMPDEST DUP5 ADD SWAP2 POP POP SWAP3 SWAP2 POP POP JUMP JUMPDEST PUSH1 0x0 PUSH2 0x9E7 DUP3 PUSH2 0xDB4 JUMP JUMPDEST PUSH2 0x9F1 DUP2 DUP6 PUSH2 0xDFF JUMP JUMPDEST SWAP4 POP PUSH2 0xA01 DUP2 DUP6 PUSH1 0x20 DUP7 ADD PUSH2 0xE67 JUMP JUMPDEST DUP1 DUP5 ADD SWAP2 POP POP SWAP3 SWAP2 POP POP JUMP JUMPDEST PUSH1 0x0 DUP2 SLOAD PUSH1 0x1 DUP2 AND PUSH1 0x0 DUP2 EQ PUSH2 0xA2A JUMPI PUSH1 0x1 DUP2 EQ PUSH2 0xA4F JUMPI PUSH2 0xA93 JUMP JUMPDEST PUSH1 0x7F PUSH1 0x2 DUP4 DIV AND PUSH2 0xA3B DUP2 DUP8 PUSH2 0xDFF JUMP JUMPDEST SWAP6 POP PUSH1 0xFF NOT DUP4 AND DUP7 MSTORE DUP1 DUP7 ADD SWAP4 POP POP PUSH2 0xA93 JUMP JUMPDEST PUSH1 0x2 DUP3 DIV PUSH2 0xA5D DUP2 DUP8 PUSH2 0xDFF JUMP JUMPDEST SWAP6 POP PUSH2 0xA68 DUP6 PUSH2 0xD94 JUMP JUMPDEST PUSH1 0x0 JUMPDEST DUP3 DUP2 LT ISZERO PUSH2 0xA8A JUMPI DUP2 SLOAD DUP2 DUP10 ADD MSTORE PUSH1 0x1 DUP3 ADD SWAP2 POP PUSH1 0x20 DUP2 ADD SWAP1 POP PUSH2 0xA6B JUMP JUMPDEST DUP3 DUP9 ADD SWAP6 POP POP POP POP JUMPDEST POP POP SWAP3 SWAP2 POP POP JUMP JUMPDEST PUSH1 0x0 PUSH2 0xAA8 PUSH1 0x1B DUP4 PUSH2 0xDEE JUMP JUMPDEST SWAP2 POP PUSH32 0x596120736520686120766F7461646F207072657669616D656E74650000000000 PUSH1 0x0 DUP4 ADD MSTORE PUSH1 0x20 DUP3 ADD SWAP1 POP SWAP2 SWAP1 POP JUMP JUMPDEST PUSH1 0x0 PUSH2 0xAE8 PUSH1 0x1 DUP4 PUSH2 0xDFF JUMP JUMPDEST SWAP2 POP PUSH32 0x2000000000000000000000000000000000000000000000000000000000000000 PUSH1 0x0 DUP4 ADD MSTORE PUSH1 0x1 DUP3 ADD SWAP1 POP SWAP2 SWAP1 POP JUMP JUMPDEST PUSH1 0x0 PUSH2 0xB28 PUSH1 0x3 DUP4 PUSH2 0xDFF JUMP JUMPDEST SWAP2 POP PUSH32 0x207C0A0000000000000000000000000000000000000000000000000000000000 PUSH1 0x0 DUP4 ADD MSTORE PUSH1 0x3 DUP3 ADD SWAP1 POP SWAP2 SWAP1 POP JUMP JUMPDEST PUSH1 0x0 PUSH2 0xB68 PUSH1 0x2 DUP4 PUSH2 0xDFF JUMP JUMPDEST SWAP2 POP PUSH32 0x7C20000000000000000000000000000000000000000000000000000000000000 PUSH1 0x0 DUP4 ADD MSTORE PUSH1 0x2 DUP3 ADD SWAP1 POP SWAP2 SWAP1 POP JUMP JUMPDEST PUSH2 0xBA4 DUP2 PUSH2 0xE4E JUMP JUMPDEST DUP3 MSTORE POP POP JUMP JUMPDEST PUSH2 0xBBB PUSH2 0xBB6 DUP3 PUSH2 0xE4E JUMP JUMPDEST PUSH2 0xEBE JUMP JUMPDEST DUP3 MSTORE POP POP JUMP JUMPDEST PUSH1 0x0 PUSH2 0xBCD DUP3 DUP5 PUSH2 0x8CF JUMP JUMPDEST PUSH1 0x14 DUP3 ADD SWAP2 POP DUP2 SWAP1 POP SWAP3 SWAP2 POP POP JUMP JUMPDEST PUSH1 0x0 PUSH2 0xBE8 DUP3 DUP5 PUSH2 0x9DC JUMP JUMPDEST SWAP2 POP DUP2 SWAP1 POP SWAP3 SWAP2 POP POP JUMP JUMPDEST PUSH1 0x0 PUSH2 0xBFF DUP3 DUP7 PUSH2 0x9DC JUMP JUMPDEST SWAP2 POP PUSH2 0xC0A DUP3 PUSH2 0xB5B JUMP JUMPDEST SWAP2 POP PUSH2 0xC16 DUP3 DUP6 PUSH2 0xA0D JUMP JUMPDEST SWAP2 POP PUSH2 0xC21 DUP3 PUSH2 0xADB JUMP JUMPDEST SWAP2 POP PUSH2 0xC2D DUP3 DUP5 PUSH2 0x9DC JUMP JUMPDEST SWAP2 POP PUSH2 0xC38 DUP3 PUSH2 0xB1B JUMP JUMPDEST SWAP2 POP DUP2 SWAP1 POP SWAP5 SWAP4 POP POP POP POP JUMP JUMPDEST PUSH1 0x0 PUSH2 0xC51 DUP3 DUP7 PUSH2 0x9DC JUMP JUMPDEST SWAP2 POP PUSH2 0xC5D DUP3 DUP6 PUSH2 0xBAA JUMP JUMPDEST PUSH1 0x20 DUP3 ADD SWAP2 POP PUSH2 0xC6D DUP3 DUP5 PUSH2 0x9DC JUMP JUMPDEST SWAP2 POP DUP2 SWAP1 POP SWAP5 SWAP4 POP POP POP POP JUMP JUMPDEST PUSH1 0x0 PUSH2 0xC86 DUP3 DUP5 PUSH2 0xA0D JUMP JUMPDEST SWAP2 POP DUP2 SWAP1 POP SWAP3 SWAP2 POP POP JUMP JUMPDEST PUSH1 0x0 PUSH1 0x20 DUP3 ADD SWAP1 POP PUSH2 0xCA6 PUSH1 0x0 DUP4 ADD DUP5 PUSH2 0x8E6 JUMP JUMPDEST SWAP3 SWAP2 POP POP JUMP JUMPDEST PUSH1 0x0 PUSH1 0x20 DUP3 ADD SWAP1 POP DUP2 DUP2 SUB PUSH1 0x0 DUP4 ADD MSTORE PUSH2 0xCC6 DUP2 DUP5 PUSH2 0x8F5 JUMP JUMPDEST SWAP1 POP SWAP3 SWAP2 POP POP JUMP JUMPDEST PUSH1 0x0 PUSH1 0x20 DUP3 ADD SWAP1 POP DUP2 DUP2 SUB PUSH1 0x0 DUP4 ADD MSTORE PUSH2 0xCE8 DUP2 DUP5 PUSH2 0x9A3 JUMP JUMPDEST SWAP1 POP SWAP3 SWAP2 POP POP JUMP JUMPDEST PUSH1 0x0 PUSH1 0x20 DUP3 ADD SWAP1 POP DUP2 DUP2 SUB PUSH1 0x0 DUP4 ADD MSTORE PUSH2 0xD09 DUP2 PUSH2 0xA9B JUMP JUMPDEST SWAP1 POP SWAP2 SWAP1 POP JUMP JUMPDEST PUSH1 0x0 PUSH1 0x20 DUP3 ADD SWAP1 POP PUSH2 0xD25 PUSH1 0x0 DUP4 ADD DUP5 PUSH2 0xB9B JUMP JUMPDEST SWAP3 SWAP2 POP POP JUMP JUMPDEST PUSH1 0x0 PUSH1 0x40 MLOAD SWAP1 POP DUP2 DUP2 ADD DUP2 DUP2 LT PUSH8 0xFFFFFFFFFFFFFFFF DUP3 GT OR ISZERO PUSH2 0xD4E JUMPI PUSH1 0x0 DUP1 REVERT JUMPDEST DUP1 PUSH1 0x40 MSTORE POP SWAP2 SWAP1 POP JUMP JUMPDEST PUSH1 0x0 PUSH8 0xFFFFFFFFFFFFFFFF DUP3 GT ISZERO PUSH2 0xD6F JUMPI PUSH1 0x0 DUP1 REVERT JUMPDEST PUSH1 0x1F NOT PUSH1 0x1F DUP4 ADD AND SWAP1 POP PUSH1 0x20 DUP2 ADD SWAP1 POP SWAP2 SWAP1 POP JUMP JUMPDEST PUSH1 0x0 DUP2 SWAP1 POP PUSH1 0x20 DUP3 ADD SWAP1 POP SWAP2 SWAP1 POP JUMP JUMPDEST PUSH1 0x0 DUP2 SWAP1 POP DUP2 PUSH1 0x0 MSTORE PUSH1 0x20 PUSH1 0x0 KECCAK256 SWAP1 POP SWAP2 SWAP1 POP JUMP JUMPDEST PUSH1 0x0 DUP2 MLOAD SWAP1 POP SWAP2 SWAP1 POP JUMP JUMPDEST PUSH1 0x0 DUP2 MLOAD SWAP1 POP SWAP2 SWAP1 POP JUMP JUMPDEST PUSH1 0x0 PUSH1 0x20 DUP3 ADD SWAP1 POP SWAP2 SWAP1 POP JUMP JUMPDEST PUSH1 0x0 DUP3 DUP3 MSTORE PUSH1 0x20 DUP3 ADD SWAP1 POP SWAP3 SWAP2 POP POP JUMP JUMPDEST PUSH1 0x0 DUP3 DUP3 MSTORE PUSH1 0x20 DUP3 ADD SWAP1 POP SWAP3 SWAP2 POP POP JUMP JUMPDEST PUSH1 0x0 DUP3 DUP3 MSTORE PUSH1 0x20 DUP3 ADD SWAP1 POP SWAP3 SWAP2 POP POP JUMP JUMPDEST PUSH1 0x0 DUP2 SWAP1 POP SWAP3 SWAP2 POP POP JUMP JUMPDEST PUSH1 0x0 PUSH2 0xE15 DUP3 PUSH2 0xE2E JUMP JUMPDEST SWAP1 POP SWAP2 SWAP1 POP JUMP JUMPDEST PUSH1 0x0 PUSH2 0xE27 DUP3 PUSH2 0xE2E JUMP JUMPDEST SWAP1 POP SWAP2 SWAP1 POP JUMP JUMPDEST PUSH1 0x0 PUSH20 0xFFFFFFFFFFFFFFFFFFFFFFFFFFFFFFFFFFFFFFFF DUP3 AND SWAP1 POP SWAP2 SWAP1 POP JUMP JUMPDEST PUSH1 0x0 DUP2 SWAP1 POP SWAP2 SWAP1 POP JUMP JUMPDEST DUP3 DUP2 DUP4 CALLDATACOPY PUSH1 0x0 DUP4 DUP4 ADD MSTORE POP POP POP JUMP JUMPDEST PUSH1 0x0 JUMPDEST DUP4 DUP2 LT ISZERO PUSH2 0xE85 JUMPI DUP1 DUP3 ADD MLOAD DUP2 DUP5 ADD MSTORE PUSH1 0x20 DUP2 ADD SWAP1 POP PUSH2 0xE6A JUMP JUMPDEST DUP4 DUP2 GT ISZERO PUSH2 0xE94 JUMPI PUSH1 0x0 DUP5 DUP5 ADD MSTORE JUMPDEST POP POP POP POP JUMP JUMPDEST PUSH1 0x0 PUSH2 0xEA5 DUP3 PUSH2 0xEAC JUMP JUMPDEST SWAP1 POP SWAP2 SWAP1 POP JUMP JUMPDEST PUSH1 0x0 PUSH2 0xEB7 DUP3 PUSH2 0xED9 JUMP JUMPDEST SWAP1 POP SWAP2 SWAP1 POP JUMP JUMPDEST PUSH1 0x0 DUP2 SWAP1 POP SWAP2 SWAP1 POP JUMP JUMPDEST PUSH1 0x0 PUSH1 0x1F NOT PUSH1 0x1F DUP4 ADD AND SWAP1 POP SWAP2 SWAP1 POP JUMP JUMPDEST PUSH1 0x0 DUP2 PUSH1 0x60 SHL SWAP1 POP SWAP2 SWAP1 POP JUMP JUMPDEST PUSH2 0xEEF DUP2 PUSH2 0xE4E JUMP JUMPDEST DUP2 EQ PUSH2 0xEFA JUMPI PUSH1 0x0 DUP1 REVERT JUMPDEST POP JUMP INVALID LOG2 PUSH5 0x6970667358 0x22 SLT KECCAK256 SWAP9 DIV SDIV JUMP DUP5 0xD8 CALLVALUE 0xB6 SHL SWAP2 0x5C NUMBER PUSH13 0x946CA5D667C9C58951BFE42E01 SGT DUP10 DUP3 PUSH24 0x267664736F6C634300060C00330000000000000000000000 "
				},
				"gasEstimates": {
					"creation": {
						"codeDepositCost": "778200",
						"executionCost": "21678",
						"totalCost": "799878"
					},
					"external": {
						"Ganador()": "infinite",
						"Representar(string,uint256,string)": "infinite",
						"VerCandidatos()": "infinite",
						"VerResultados()": "infinite",
						"VerVotosCandidatos(string)": "infinite",
						"Votar(string)": "infinite",
						"owner()": "1256"
					},
					"internal": {
						"uint2str(uint256)": "infinite"
					}
				},
				"methodIdentifiers": {
					"Ganador()": "55911cc1",
					"Representar(string,uint256,string)": "f01ca6b7",
					"VerCandidatos()": "bfc2e938",
					"VerResultados()": "e7bf56fa",
					"VerVotosCandidatos(string)": "4c25de51",
					"Votar(string)": "febe07dc",
					"owner()": "8da5cb5b"
				}
			},
			"storageLayout": {
				"storage": [
					{
						"astId": 4,
						"contract": "Votaciones/votaciones.sol:votacion",
						"label": "owner",
						"offset": 0,
						"slot": "0",
						"type": "t_address"
					},
					{
						"astId": 8,
						"contract": "Votaciones/votaciones.sol:votacion",
						"label": "Candidato",
						"offset": 0,
						"slot": "1",
						"type": "t_mapping(t_string_memory_ptr,t_bytes32)"
					},
					{
						"astId": 12,
						"contract": "Votaciones/votaciones.sol:votacion",
						"label": "VotosCandidato",
						"offset": 0,
						"slot": "2",
						"type": "t_mapping(t_string_memory_ptr,t_uint256)"
					},
					{
						"astId": 15,
						"contract": "Votaciones/votaciones.sol:votacion",
						"label": "candidatos",
						"offset": 0,
						"slot": "3",
						"type": "t_array(t_string_storage)dyn_storage"
					},
					{
						"astId": 18,
						"contract": "Votaciones/votaciones.sol:votacion",
						"label": "votantes",
						"offset": 0,
						"slot": "4",
						"type": "t_array(t_bytes32)dyn_storage"
					}
				],
				"types": {
					"t_address": {
						"encoding": "inplace",
						"label": "address",
						"numberOfBytes": "20"
					},
					"t_array(t_bytes32)dyn_storage": {
						"base": "t_bytes32",
						"encoding": "dynamic_array",
						"label": "bytes32[]",
						"numberOfBytes": "32"
					},
					"t_array(t_string_storage)dyn_storage": {
						"base": "t_string_storage",
						"encoding": "dynamic_array",
						"label": "string[]",
						"numberOfBytes": "32"
					},
					"t_bytes32": {
						"encoding": "inplace",
						"label": "bytes32",
						"numberOfBytes": "32"
					},
					"t_mapping(t_string_memory_ptr,t_bytes32)": {
						"encoding": "mapping",
						"key": "t_string_memory_ptr",
						"label": "mapping(string => bytes32)",
						"numberOfBytes": "32",
						"value": "t_bytes32"
					},
					"t_mapping(t_string_memory_ptr,t_uint256)": {
						"encoding": "mapping",
						"key": "t_string_memory_ptr",
						"label": "mapping(string => uint256)",
						"numberOfBytes": "32",
						"value": "t_uint256"
					},
					"t_string_memory_ptr": {
						"encoding": "bytes",
						"label": "string",
						"numberOfBytes": "32"
					},
					"t_string_storage": {
						"encoding": "bytes",
						"label": "string",
						"numberOfBytes": "32"
					},
					"t_uint256": {
						"encoding": "inplace",
						"label": "uint256",
						"numberOfBytes": "32"
					}
				}
			},
			"userdoc": {
				"kind": "user",
				"methods": {},
				"version": 1
			}
		}
	}
}