{
	"Votaciones/votaciones.sol": {
		"votacion": {
			"abi": [
				{
					"inputs": [],
					"stateMutability": "nonpayable",
					"type": "constructor"
				},
				{
					"inputs": [
						{
							"internalType": "string",
							"name": "_nombre",
							"type": "string"
						},
						{
							"internalType": "uint256",
							"name": "_edad",
							"type": "uint256"
						},
						{
							"internalType": "string",
							"name": "_ID",
							"type": "string"
						}
					],
					"name": "Representar",
					"outputs": [],
					"stateMutability": "nonpayable",
					"type": "function"
				},
				{
					"inputs": [],
					"name": "VerCandidatos",
					"outputs": [
						{
							"internalType": "string[]",
							"name": "",
							"type": "string[]"
						}
					],
					"stateMutability": "view",
					"type": "function"
				},
				{
					"inputs": [],
					"name": "VerResultados",
					"outputs": [
						{
							"internalType": "string",
							"name": "",
							"type": "string"
						}
					],
					"stateMutability": "view",
					"type": "function"
				},
				{
					"inputs": [
						{
							"internalType": "string",
							"name": "_candidato",
							"type": "string"
						}
					],
					"name": "VerVotosCandidatos",
					"outputs": [
						{
							"internalType": "uint256",
							"name": "",
							"type": "uint256"
						}
					],
					"stateMutability": "view",
					"type": "function"
				},
				{
					"inputs": [
						{
							"internalType": "string",
							"name": "_candidato",
							"type": "string"
						}
					],
					"name": "Votar",
					"outputs": [],
					"stateMutability": "nonpayable",
					"type": "function"
				},
				{
					"inputs": [],
					"name": "owner",
					"outputs": [
						{
							"internalType": "address",
							"name": "",
							"type": "address"
						}
					],
					"stateMutability": "view",
					"type": "function"
				}
			],
			"devdoc": {
				"kind": "dev",
				"methods": {},
				"version": 1
			},
			"evm": {
				"assembly": "    /* \"Votaciones/votaciones.sol\":102:2308  contract votacion {\r... */\n  mstore(0x40, 0x80)\n    /* \"Votaciones/votaciones.sol\":619:678  constructor () public {\r... */\n  callvalue\n  dup1\n  iszero\n  tag_1\n  jumpi\n  0x00\n  dup1\n  revert\ntag_1:\n  pop\n    /* \"Votaciones/votaciones.sol\":660:670  msg.sender */\n  caller\n    /* \"Votaciones/votaciones.sol\":652:657  owner */\n  0x00\n  dup1\n    /* \"Votaciones/votaciones.sol\":652:670  owner = msg.sender */\n  0x0100\n  exp\n  dup2\n  sload\n  dup2\n  0xffffffffffffffffffffffffffffffffffffffff\n  mul\n  not\n  and\n  swap1\n  dup4\n  0xffffffffffffffffffffffffffffffffffffffff\n  and\n  mul\n  or\n  swap1\n  sstore\n  pop\n    /* \"Votaciones/votaciones.sol\":102:2308  contract votacion {\r... */\n  dataSize(sub_0)\n  dup1\n  dataOffset(sub_0)\n  0x00\n  codecopy\n  0x00\n  return\nstop\n\nsub_0: assembly {\n        /* \"Votaciones/votaciones.sol\":102:2308  contract votacion {\r... */\n      mstore(0x40, 0x80)\n      callvalue\n      dup1\n      iszero\n      tag_1\n      jumpi\n      0x00\n      dup1\n      revert\n    tag_1:\n      pop\n      jumpi(tag_2, lt(calldatasize, 0x04))\n      shr(0xe0, calldataload(0x00))\n      dup1\n      0x4c25de51\n      eq\n      tag_3\n      jumpi\n      dup1\n      0x8da5cb5b\n      eq\n      tag_4\n      jumpi\n      dup1\n      0xbfc2e938\n      eq\n      tag_5\n      jumpi\n      dup1\n      0xe7bf56fa\n      eq\n      tag_6\n      jumpi\n      dup1\n      0xf01ca6b7\n      eq\n      tag_7\n      jumpi\n      dup1\n      0xfebe07dc\n      eq\n      tag_8\n      jumpi\n    tag_2:\n      0x00\n      dup1\n      revert\n        /* \"Votaciones/votaciones.sol\":1977:2109  function VerVotosCandidatos(string memory _candidato) public view returns(uint) {\r... */\n    tag_3:\n      tag_9\n      0x04\n      dup1\n      calldatasize\n      sub\n      dup2\n      add\n      swap1\n      tag_10\n      swap2\n      swap1\n      tag_11\n      jump\t// in\n    tag_10:\n      tag_12\n      jump\t// in\n    tag_9:\n      mload(0x40)\n      tag_13\n      swap2\n      swap1\n      tag_14\n      jump\t// in\n    tag_13:\n      mload(0x40)\n      dup1\n      swap2\n      sub\n      swap1\n      return\n        /* \"Votaciones/votaciones.sol\":175:195  address public owner */\n    tag_4:\n      tag_15\n      tag_16\n      jump\t// in\n    tag_15:\n      mload(0x40)\n      tag_17\n      swap2\n      swap1\n      tag_18\n      jump\t// in\n    tag_17:\n      mload(0x40)\n      dup1\n      swap2\n      sub\n      swap1\n      return\n        /* \"Votaciones/votaciones.sol\":1263:1361  function VerCandidatos() public view returns(string[] memory) {\r... */\n    tag_5:\n      tag_19\n      tag_20\n      jump\t// in\n    tag_19:\n      mload(0x40)\n      tag_21\n      swap2\n      swap1\n      tag_22\n      jump\t// in\n    tag_21:\n      mload(0x40)\n      dup1\n      swap2\n      sub\n      swap1\n      return\n        /* \"Votaciones/votaciones.sol\":2169:2305  function VerResultados() public view returns (string memory) {\r... */\n    tag_6:\n      tag_23\n      tag_24\n      jump\t// in\n    tag_23:\n      mload(0x40)\n      tag_25\n      swap2\n      swap1\n      tag_26\n      jump\t// in\n    tag_25:\n      mload(0x40)\n      dup1\n      swap2\n      sub\n      swap1\n      return\n        /* \"Votaciones/votaciones.sol\":748:1173  function Representar(string memory _nombre, uint _edad, string memory _ID) public {\r... */\n    tag_7:\n      tag_27\n      0x04\n      dup1\n      calldatasize\n      sub\n      dup2\n      add\n      swap1\n      tag_28\n      swap2\n      swap1\n      tag_29\n      jump\t// in\n    tag_28:\n      tag_30\n      jump\t// in\n    tag_27:\n      stop\n        /* \"Votaciones/votaciones.sol\":1408:1939  function Votar(string memory _candidato) public {\r... */\n    tag_8:\n      tag_31\n      0x04\n      dup1\n      calldatasize\n      sub\n      dup2\n      add\n      swap1\n      tag_32\n      swap2\n      swap1\n      tag_11\n      jump\t// in\n    tag_32:\n      tag_33\n      jump\t// in\n    tag_31:\n      stop\n        /* \"Votaciones/votaciones.sol\":1977:2109  function VerVotosCandidatos(string memory _candidato) public view returns(uint) {\r... */\n    tag_12:\n        /* \"Votaciones/votaciones.sol\":2051:2055  uint */\n      0x00\n        /* \"Votaciones/votaciones.sol\":2075:2089  VotosCandidato */\n      0x02\n        /* \"Votaciones/votaciones.sol\":2090:2100  _candidato */\n      dup3\n        /* \"Votaciones/votaciones.sol\":2075:2101  VotosCandidato[_candidato] */\n      mload(0x40)\n      tag_35\n      swap2\n      swap1\n      tag_36\n      jump\t// in\n    tag_35:\n      swap1\n      dup2\n      mstore\n      0x20\n      add\n      mload(0x40)\n      dup1\n      swap2\n      sub\n      swap1\n      keccak256\n      sload\n        /* \"Votaciones/votaciones.sol\":2068:2101  return VotosCandidato[_candidato] */\n      swap1\n      pop\n        /* \"Votaciones/votaciones.sol\":1977:2109  function VerVotosCandidatos(string memory _candidato) public view returns(uint) {\r... */\n      swap2\n      swap1\n      pop\n      jump\t// out\n        /* \"Votaciones/votaciones.sol\":175:195  address public owner */\n    tag_16:\n      0x00\n      dup1\n      sload\n      swap1\n      0x0100\n      exp\n      swap1\n      div\n      0xffffffffffffffffffffffffffffffffffffffff\n      and\n      dup2\n      jump\t// out\n        /* \"Votaciones/votaciones.sol\":1263:1361  function VerCandidatos() public view returns(string[] memory) {\r... */\n    tag_20:\n        /* \"Votaciones/votaciones.sol\":1308:1323  string[] memory */\n      0x60\n        /* \"Votaciones/votaciones.sol\":1343:1353  candidatos */\n      0x03\n        /* \"Votaciones/votaciones.sol\":1336:1353  return candidatos */\n      dup1\n      sload\n      dup1\n      0x20\n      mul\n      0x20\n      add\n      mload(0x40)\n      swap1\n      dup2\n      add\n      0x40\n      mstore\n      dup1\n      swap3\n      swap2\n      swap1\n      dup2\n      dup2\n      mstore\n      0x20\n      add\n      0x00\n      swap1\n    tag_38:\n      dup3\n      dup3\n      lt\n      iszero\n      tag_39\n      jumpi\n      dup4\n      dup3\n      swap1\n      0x00\n      mstore\n      keccak256(0x00, 0x20)\n      add\n      dup1\n      sload\n      0x01\n      dup2\n      0x01\n      and\n      iszero\n      0x0100\n      mul\n      sub\n      and\n      0x02\n      swap1\n      div\n      dup1\n      0x1f\n      add\n      0x20\n      dup1\n      swap2\n      div\n      mul\n      0x20\n      add\n      mload(0x40)\n      swap1\n      dup2\n      add\n      0x40\n      mstore\n      dup1\n      swap3\n      swap2\n      swap1\n      dup2\n      dup2\n      mstore\n      0x20\n      add\n      dup3\n      dup1\n      sload\n      0x01\n      dup2\n      0x01\n      and\n      iszero\n      0x0100\n      mul\n      sub\n      and\n      0x02\n      swap1\n      div\n      dup1\n      iszero\n      tag_41\n      jumpi\n      dup1\n      0x1f\n      lt\n      tag_42\n      jumpi\n      0x0100\n      dup1\n      dup4\n      sload\n      div\n      mul\n      dup4\n      mstore\n      swap2\n      0x20\n      add\n      swap2\n      jump(tag_41)\n    tag_42:\n      dup3\n      add\n      swap2\n      swap1\n      0x00\n      mstore\n      keccak256(0x00, 0x20)\n      swap1\n    tag_43:\n      dup2\n      sload\n      dup2\n      mstore\n      swap1\n      0x01\n      add\n      swap1\n      0x20\n      add\n      dup1\n      dup4\n      gt\n      tag_43\n      jumpi\n      dup3\n      swap1\n      sub\n      0x1f\n      and\n      dup3\n      add\n      swap2\n    tag_41:\n      pop\n      pop\n      pop\n      pop\n      pop\n      dup2\n      mstore\n      0x20\n      add\n      swap1\n      0x01\n      add\n      swap1\n      jump(tag_38)\n    tag_39:\n      pop\n      pop\n      pop\n      pop\n      swap1\n      pop\n        /* \"Votaciones/votaciones.sol\":1263:1361  function VerCandidatos() public view returns(string[] memory) {\r... */\n      swap1\n      jump\t// out\n        /* \"Votaciones/votaciones.sol\":2169:2305  function VerResultados() public view returns (string memory) {\r... */\n    tag_24:\n        /* \"Votaciones/votaciones.sol\":2215:2228  string memory */\n      0x60\n        /* \"Votaciones/votaciones.sol\":2169:2305  function VerResultados() public view returns (string memory) {\r... */\n      swap1\n      jump\t// out\n        /* \"Votaciones/votaciones.sol\":748:1173  function Representar(string memory _nombre, uint _edad, string memory _ID) public {\r... */\n    tag_30:\n        /* \"Votaciones/votaciones.sol\":885:906  bytes32 hashCandidato */\n      0x00\n        /* \"Votaciones/votaciones.sol\":936:943  _nombre */\n      dup4\n        /* \"Votaciones/votaciones.sol\":945:950  _edad */\n      dup4\n        /* \"Votaciones/votaciones.sol\":952:955  _ID */\n      dup4\n        /* \"Votaciones/votaciones.sol\":919:956  abi.encodePacked(_nombre, _edad, _ID) */\n      add(0x20, mload(0x40))\n      tag_46\n      swap4\n      swap3\n      swap2\n      swap1\n      tag_47\n      jump\t// in\n    tag_46:\n      mload(0x40)\n      0x20\n      dup2\n      dup4\n      sub\n      sub\n      dup2\n      mstore\n      swap1\n      0x40\n      mstore\n        /* \"Votaciones/votaciones.sol\":909:957  keccak256(abi.encodePacked(_nombre, _edad, _ID)) */\n      dup1\n      mload\n      swap1\n      0x20\n      add\n      keccak256\n        /* \"Votaciones/votaciones.sol\":885:957  bytes32 hashCandidato = keccak256(abi.encodePacked(_nombre, _edad, _ID)) */\n      swap1\n      pop\n        /* \"Votaciones/votaciones.sol\":1068:1081  hashCandidato */\n      dup1\n        /* \"Votaciones/votaciones.sol\":1047:1056  Candidato */\n      0x01\n        /* \"Votaciones/votaciones.sol\":1057:1064  _nombre */\n      dup6\n        /* \"Votaciones/votaciones.sol\":1047:1065  Candidato[_nombre] */\n      mload(0x40)\n      tag_48\n      swap2\n      swap1\n      tag_36\n      jump\t// in\n    tag_48:\n      swap1\n      dup2\n      mstore\n      0x20\n      add\n      mload(0x40)\n      dup1\n      swap2\n      sub\n      swap1\n      keccak256\n        /* \"Votaciones/votaciones.sol\":1047:1081  Candidato[_nombre] = hashCandidato */\n      dup2\n      swap1\n      sstore\n      pop\n        /* \"Votaciones/votaciones.sol\":1141:1151  candidatos */\n      0x03\n        /* \"Votaciones/votaciones.sol\":1157:1164  _nombre */\n      dup5\n        /* \"Votaciones/votaciones.sol\":1141:1165  candidatos.push(_nombre) */\n      swap1\n      dup1\n      0x01\n      dup2\n      sload\n      add\n      dup1\n      dup3\n      sstore\n      dup1\n      swap2\n      pop\n      pop\n      0x01\n      swap1\n      sub\n      swap1\n      0x00\n      mstore\n      keccak256(0x00, 0x20)\n      add\n      0x00\n      swap1\n      swap2\n      swap1\n      swap2\n      swap1\n      swap2\n      pop\n      swap1\n      dup1\n      mload\n      swap1\n      0x20\n      add\n      swap1\n      tag_50\n      swap3\n      swap2\n      swap1\n      tag_51\n      jump\t// in\n    tag_50:\n      pop\n        /* \"Votaciones/votaciones.sol\":748:1173  function Representar(string memory _nombre, uint _edad, string memory _ID) public {\r... */\n      pop\n      pop\n      pop\n      pop\n      jump\t// out\n        /* \"Votaciones/votaciones.sol\":1408:1939  function Votar(string memory _candidato) public {\r... */\n    tag_33:\n        /* \"Votaciones/votaciones.sol\":1498:1518  bytes32 hash_votante */\n      0x00\n        /* \"Votaciones/votaciones.sol\":1548:1558  msg.sender */\n      caller\n        /* \"Votaciones/votaciones.sol\":1531:1559  abi.encodePacked(msg.sender) */\n      add(0x20, mload(0x40))\n      tag_53\n      swap2\n      swap1\n      tag_54\n      jump\t// in\n    tag_53:\n      mload(0x40)\n      0x20\n      dup2\n      dup4\n      sub\n      sub\n      dup2\n      mstore\n      swap1\n      0x40\n      mstore\n        /* \"Votaciones/votaciones.sol\":1521:1560  keccak256(abi.encodePacked(msg.sender)) */\n      dup1\n      mload\n      swap1\n      0x20\n      add\n      keccak256\n        /* \"Votaciones/votaciones.sol\":1498:1560  bytes32 hash_votante = keccak256(abi.encodePacked(msg.sender)) */\n      swap1\n      pop\n        /* \"Votaciones/votaciones.sol\":1620:1633  uint iterator */\n      0x00\n        /* \"Votaciones/votaciones.sol\":1616:1780  for(uint iterator = 0; iterator < votantes.length; iterator++) {\r... */\n    tag_55:\n        /* \"Votaciones/votaciones.sol\":1650:1658  votantes */\n      0x04\n        /* \"Votaciones/votaciones.sol\":1650:1665  votantes.length */\n      dup1\n      sload\n      swap1\n      pop\n        /* \"Votaciones/votaciones.sol\":1639:1647  iterator */\n      dup2\n        /* \"Votaciones/votaciones.sol\":1639:1665  iterator < votantes.length */\n      lt\n        /* \"Votaciones/votaciones.sol\":1616:1780  for(uint iterator = 0; iterator < votantes.length; iterator++) {\r... */\n      iszero\n      tag_56\n      jumpi\n        /* \"Votaciones/votaciones.sol\":1718:1726  votantes */\n      0x04\n        /* \"Votaciones/votaciones.sol\":1727:1735  iterator */\n      dup2\n        /* \"Votaciones/votaciones.sol\":1718:1736  votantes[iterator] */\n      dup2\n      sload\n      dup2\n      lt\n      tag_58\n      jumpi\n      invalid\n    tag_58:\n      swap1\n      0x00\n      mstore\n      keccak256(0x00, 0x20)\n      add\n      sload\n        /* \"Votaciones/votaciones.sol\":1702:1714  hash_votante */\n      dup3\n        /* \"Votaciones/votaciones.sol\":1702:1736  hash_votante != votantes[iterator] */\n      eq\n      iszero\n        /* \"Votaciones/votaciones.sol\":1694:1768  require(hash_votante != votantes[iterator], \"Ya se ha votado previamente\") */\n      tag_60\n      jumpi\n      mload(0x40)\n      0x08c379a000000000000000000000000000000000000000000000000000000000\n      dup2\n      mstore\n      0x04\n      add\n      tag_61\n      swap1\n      tag_62\n      jump\t// in\n    tag_61:\n      mload(0x40)\n      dup1\n      swap2\n      sub\n      swap1\n      revert\n    tag_60:\n        /* \"Votaciones/votaciones.sol\":1667:1677  iterator++ */\n      dup1\n      dup1\n      0x01\n      add\n      swap2\n      pop\n      pop\n        /* \"Votaciones/votaciones.sol\":1616:1780  for(uint iterator = 0; iterator < votantes.length; iterator++) {\r... */\n      jump(tag_55)\n    tag_56:\n      pop\n        /* \"Votaciones/votaciones.sol\":1827:1835  votantes */\n      0x04\n        /* \"Votaciones/votaciones.sol\":1841:1853  hash_votante */\n      dup2\n        /* \"Votaciones/votaciones.sol\":1827:1854  votantes.push(hash_votante) */\n      swap1\n      dup1\n      0x01\n      dup2\n      sload\n      add\n      dup1\n      dup3\n      sstore\n      dup1\n      swap2\n      pop\n      pop\n      0x01\n      swap1\n      sub\n      swap1\n      0x00\n      mstore\n      keccak256(0x00, 0x20)\n      add\n      0x00\n      swap1\n      swap2\n      swap1\n      swap2\n      swap1\n      swap2\n      pop\n      sstore\n        /* \"Votaciones/votaciones.sol\":1903:1917  VotosCandidato */\n      0x02\n        /* \"Votaciones/votaciones.sol\":1918:1928  _candidato */\n      dup3\n        /* \"Votaciones/votaciones.sol\":1903:1929  VotosCandidato[_candidato] */\n      mload(0x40)\n      tag_64\n      swap2\n      swap1\n      tag_36\n      jump\t// in\n    tag_64:\n      swap1\n      dup2\n      mstore\n      0x20\n      add\n      mload(0x40)\n      dup1\n      swap2\n      sub\n      swap1\n      keccak256\n      0x00\n        /* \"Votaciones/votaciones.sol\":1903:1931  VotosCandidato[_candidato]++ */\n      dup2\n      sload\n      dup1\n      swap3\n      swap2\n      swap1\n      0x01\n      add\n      swap2\n      swap1\n      pop\n      sstore\n      pop\n        /* \"Votaciones/votaciones.sol\":1408:1939  function Votar(string memory _candidato) public {\r... */\n      pop\n      pop\n      jump\t// out\n    tag_51:\n      dup3\n      dup1\n      sload\n      0x01\n      dup2\n      0x01\n      and\n      iszero\n      0x0100\n      mul\n      sub\n      and\n      0x02\n      swap1\n      div\n      swap1\n      0x00\n      mstore\n      keccak256(0x00, 0x20)\n      swap1\n      0x1f\n      add\n      0x20\n      swap1\n      div\n      dup2\n      add\n      swap3\n      dup3\n      0x1f\n      lt\n      tag_66\n      jumpi\n      dup1\n      mload\n      not(0xff)\n      and\n      dup4\n      dup1\n      add\n      or\n      dup6\n      sstore\n      jump(tag_65)\n    tag_66:\n      dup3\n      dup1\n      add\n      0x01\n      add\n      dup6\n      sstore\n      dup3\n      iszero\n      tag_65\n      jumpi\n      swap2\n      dup3\n      add\n    tag_67:\n      dup3\n      dup2\n      gt\n      iszero\n      tag_68\n      jumpi\n      dup3\n      mload\n      dup3\n      sstore\n      swap2\n      0x20\n      add\n      swap2\n      swap1\n      0x01\n      add\n      swap1\n      jump(tag_67)\n    tag_68:\n    tag_65:\n      pop\n      swap1\n      pop\n      tag_69\n      swap2\n      swap1\n      tag_70\n      jump\t// in\n    tag_69:\n      pop\n      swap1\n      jump\t// out\n    tag_70:\n    tag_71:\n      dup1\n      dup3\n      gt\n      iszero\n      tag_72\n      jumpi\n      0x00\n      dup2\n      0x00\n      swap1\n      sstore\n      pop\n      0x01\n      add\n      jump(tag_71)\n    tag_72:\n      pop\n      swap1\n      jump\t// out\n        /* \"--CODEGEN--\":6:448   */\n    tag_74:\n      0x00\n        /* \"--CODEGEN--\":108:111   */\n      dup3\n        /* \"--CODEGEN--\":101:105   */\n      0x1f\n        /* \"--CODEGEN--\":93:99   */\n      dup4\n        /* \"--CODEGEN--\":89:106   */\n      add\n        /* \"--CODEGEN--\":85:112   */\n      slt\n        /* \"--CODEGEN--\":75:77   */\n      tag_76\n      jumpi\n        /* \"--CODEGEN--\":126:127   */\n      0x00\n        /* \"--CODEGEN--\":123:124   */\n      dup1\n        /* \"--CODEGEN--\":116:128   */\n      revert\n        /* \"--CODEGEN--\":75:77   */\n    tag_76:\n        /* \"--CODEGEN--\":163:169   */\n      dup2\n        /* \"--CODEGEN--\":150:170   */\n      calldataload\n        /* \"--CODEGEN--\":185:250   */\n      tag_77\n        /* \"--CODEGEN--\":200:249   */\n      tag_78\n        /* \"--CODEGEN--\":242:248   */\n      dup3\n        /* \"--CODEGEN--\":200:249   */\n      tag_79\n      jump\t// in\n    tag_78:\n        /* \"--CODEGEN--\":185:250   */\n      tag_80\n      jump\t// in\n    tag_77:\n        /* \"--CODEGEN--\":176:250   */\n      swap2\n      pop\n        /* \"--CODEGEN--\":270:276   */\n      dup1\n        /* \"--CODEGEN--\":263:268   */\n      dup3\n        /* \"--CODEGEN--\":256:277   */\n      mstore\n        /* \"--CODEGEN--\":306:310   */\n      0x20\n        /* \"--CODEGEN--\":298:304   */\n      dup4\n        /* \"--CODEGEN--\":294:311   */\n      add\n        /* \"--CODEGEN--\":339:343   */\n      0x20\n        /* \"--CODEGEN--\":332:337   */\n      dup4\n        /* \"--CODEGEN--\":328:344   */\n      add\n        /* \"--CODEGEN--\":374:377   */\n      dup6\n        /* \"--CODEGEN--\":365:371   */\n      dup4\n        /* \"--CODEGEN--\":360:363   */\n      dup4\n        /* \"--CODEGEN--\":356:372   */\n      add\n        /* \"--CODEGEN--\":353:378   */\n      gt\n        /* \"--CODEGEN--\":350:352   */\n      iszero\n      tag_81\n      jumpi\n        /* \"--CODEGEN--\":391:392   */\n      0x00\n        /* \"--CODEGEN--\":388:389   */\n      dup1\n        /* \"--CODEGEN--\":381:393   */\n      revert\n        /* \"--CODEGEN--\":350:352   */\n    tag_81:\n        /* \"--CODEGEN--\":401:442   */\n      tag_82\n        /* \"--CODEGEN--\":435:441   */\n      dup4\n        /* \"--CODEGEN--\":430:433   */\n      dup3\n        /* \"--CODEGEN--\":425:428   */\n      dup5\n        /* \"--CODEGEN--\":401:442   */\n      tag_83\n      jump\t// in\n    tag_82:\n        /* \"--CODEGEN--\":68:448   */\n      pop\n      pop\n      pop\n      swap3\n      swap2\n      pop\n      pop\n      jump\t// out\n        /* \"--CODEGEN--\":456:586   */\n    tag_84:\n      0x00\n        /* \"--CODEGEN--\":536:542   */\n      dup2\n        /* \"--CODEGEN--\":523:543   */\n      calldataload\n        /* \"--CODEGEN--\":514:543   */\n      swap1\n      pop\n        /* \"--CODEGEN--\":548:581   */\n      tag_86\n        /* \"--CODEGEN--\":575:580   */\n      dup2\n        /* \"--CODEGEN--\":548:581   */\n      tag_87\n      jump\t// in\n    tag_86:\n        /* \"--CODEGEN--\":508:586   */\n      swap3\n      swap2\n      pop\n      pop\n      jump\t// out\n        /* \"--CODEGEN--\":593:940   */\n    tag_11:\n      0x00\n        /* \"--CODEGEN--\":707:709   */\n      0x20\n        /* \"--CODEGEN--\":695:704   */\n      dup3\n        /* \"--CODEGEN--\":686:693   */\n      dup5\n        /* \"--CODEGEN--\":682:705   */\n      sub\n        /* \"--CODEGEN--\":678:710   */\n      slt\n        /* \"--CODEGEN--\":675:677   */\n      iszero\n      tag_89\n      jumpi\n        /* \"--CODEGEN--\":723:724   */\n      0x00\n        /* \"--CODEGEN--\":720:721   */\n      dup1\n        /* \"--CODEGEN--\":713:725   */\n      revert\n        /* \"--CODEGEN--\":675:677   */\n    tag_89:\n        /* \"--CODEGEN--\":786:787   */\n      0x00\n        /* \"--CODEGEN--\":775:784   */\n      dup3\n        /* \"--CODEGEN--\":771:788   */\n      add\n        /* \"--CODEGEN--\":758:789   */\n      calldataload\n        /* \"--CODEGEN--\":809:827   */\n      0xffffffffffffffff\n        /* \"--CODEGEN--\":801:807   */\n      dup2\n        /* \"--CODEGEN--\":798:828   */\n      gt\n        /* \"--CODEGEN--\":795:797   */\n      iszero\n      tag_90\n      jumpi\n        /* \"--CODEGEN--\":841:842   */\n      0x00\n        /* \"--CODEGEN--\":838:839   */\n      dup1\n        /* \"--CODEGEN--\":831:843   */\n      revert\n        /* \"--CODEGEN--\":795:797   */\n    tag_90:\n        /* \"--CODEGEN--\":861:924   */\n      tag_91\n        /* \"--CODEGEN--\":916:923   */\n      dup5\n        /* \"--CODEGEN--\":907:913   */\n      dup3\n        /* \"--CODEGEN--\":896:905   */\n      dup6\n        /* \"--CODEGEN--\":892:914   */\n      add\n        /* \"--CODEGEN--\":861:924   */\n      tag_74\n      jump\t// in\n    tag_91:\n        /* \"--CODEGEN--\":851:924   */\n      swap2\n      pop\n        /* \"--CODEGEN--\":737:930   */\n      pop\n        /* \"--CODEGEN--\":669:940   */\n      swap3\n      swap2\n      pop\n      pop\n      jump\t// out\n        /* \"--CODEGEN--\":947:1650   */\n    tag_29:\n      0x00\n      dup1\n      0x00\n        /* \"--CODEGEN--\":1105:1107   */\n      0x60\n        /* \"--CODEGEN--\":1093:1102   */\n      dup5\n        /* \"--CODEGEN--\":1084:1091   */\n      dup7\n        /* \"--CODEGEN--\":1080:1103   */\n      sub\n        /* \"--CODEGEN--\":1076:1108   */\n      slt\n        /* \"--CODEGEN--\":1073:1075   */\n      iszero\n      tag_93\n      jumpi\n        /* \"--CODEGEN--\":1121:1122   */\n      0x00\n        /* \"--CODEGEN--\":1118:1119   */\n      dup1\n        /* \"--CODEGEN--\":1111:1123   */\n      revert\n        /* \"--CODEGEN--\":1073:1075   */\n    tag_93:\n        /* \"--CODEGEN--\":1184:1185   */\n      0x00\n        /* \"--CODEGEN--\":1173:1182   */\n      dup5\n        /* \"--CODEGEN--\":1169:1186   */\n      add\n        /* \"--CODEGEN--\":1156:1187   */\n      calldataload\n        /* \"--CODEGEN--\":1207:1225   */\n      0xffffffffffffffff\n        /* \"--CODEGEN--\":1199:1205   */\n      dup2\n        /* \"--CODEGEN--\":1196:1226   */\n      gt\n        /* \"--CODEGEN--\":1193:1195   */\n      iszero\n      tag_94\n      jumpi\n        /* \"--CODEGEN--\":1239:1240   */\n      0x00\n        /* \"--CODEGEN--\":1236:1237   */\n      dup1\n        /* \"--CODEGEN--\":1229:1241   */\n      revert\n        /* \"--CODEGEN--\":1193:1195   */\n    tag_94:\n        /* \"--CODEGEN--\":1259:1322   */\n      tag_95\n        /* \"--CODEGEN--\":1314:1321   */\n      dup7\n        /* \"--CODEGEN--\":1305:1311   */\n      dup3\n        /* \"--CODEGEN--\":1294:1303   */\n      dup8\n        /* \"--CODEGEN--\":1290:1312   */\n      add\n        /* \"--CODEGEN--\":1259:1322   */\n      tag_74\n      jump\t// in\n    tag_95:\n        /* \"--CODEGEN--\":1249:1322   */\n      swap4\n      pop\n        /* \"--CODEGEN--\":1135:1328   */\n      pop\n        /* \"--CODEGEN--\":1359:1361   */\n      0x20\n        /* \"--CODEGEN--\":1377:1430   */\n      tag_96\n        /* \"--CODEGEN--\":1422:1429   */\n      dup7\n        /* \"--CODEGEN--\":1413:1419   */\n      dup3\n        /* \"--CODEGEN--\":1402:1411   */\n      dup8\n        /* \"--CODEGEN--\":1398:1420   */\n      add\n        /* \"--CODEGEN--\":1377:1430   */\n      tag_84\n      jump\t// in\n    tag_96:\n        /* \"--CODEGEN--\":1367:1430   */\n      swap3\n      pop\n        /* \"--CODEGEN--\":1338:1436   */\n      pop\n        /* \"--CODEGEN--\":1495:1497   */\n      0x40\n        /* \"--CODEGEN--\":1484:1493   */\n      dup5\n        /* \"--CODEGEN--\":1480:1498   */\n      add\n        /* \"--CODEGEN--\":1467:1499   */\n      calldataload\n        /* \"--CODEGEN--\":1519:1537   */\n      0xffffffffffffffff\n        /* \"--CODEGEN--\":1511:1517   */\n      dup2\n        /* \"--CODEGEN--\":1508:1538   */\n      gt\n        /* \"--CODEGEN--\":1505:1507   */\n      iszero\n      tag_97\n      jumpi\n        /* \"--CODEGEN--\":1551:1552   */\n      0x00\n        /* \"--CODEGEN--\":1548:1549   */\n      dup1\n        /* \"--CODEGEN--\":1541:1553   */\n      revert\n        /* \"--CODEGEN--\":1505:1507   */\n    tag_97:\n        /* \"--CODEGEN--\":1571:1634   */\n      tag_98\n        /* \"--CODEGEN--\":1626:1633   */\n      dup7\n        /* \"--CODEGEN--\":1617:1623   */\n      dup3\n        /* \"--CODEGEN--\":1606:1615   */\n      dup8\n        /* \"--CODEGEN--\":1602:1624   */\n      add\n        /* \"--CODEGEN--\":1571:1634   */\n      tag_74\n      jump\t// in\n    tag_98:\n        /* \"--CODEGEN--\":1561:1634   */\n      swap2\n      pop\n        /* \"--CODEGEN--\":1446:1640   */\n      pop\n        /* \"--CODEGEN--\":1067:1650   */\n      swap3\n      pop\n      swap3\n      pop\n      swap3\n      jump\t// out\n        /* \"--CODEGEN--\":1658:1851   */\n    tag_99:\n      0x00\n        /* \"--CODEGEN--\":1779:1845   */\n      tag_101\n        /* \"--CODEGEN--\":1841:1844   */\n      dup4\n        /* \"--CODEGEN--\":1833:1839   */\n      dup4\n        /* \"--CODEGEN--\":1779:1845   */\n      tag_102\n      jump\t// in\n    tag_101:\n        /* \"--CODEGEN--\":1765:1845   */\n      swap1\n      pop\n        /* \"--CODEGEN--\":1758:1851   */\n      swap3\n      swap2\n      pop\n      pop\n      jump\t// out\n        /* \"--CODEGEN--\":1859:2043   */\n    tag_103:\n        /* \"--CODEGEN--\":1976:2037   */\n      tag_105\n        /* \"--CODEGEN--\":2004:2036   */\n      tag_106\n        /* \"--CODEGEN--\":2030:2035   */\n      dup3\n        /* \"--CODEGEN--\":2004:2036   */\n      tag_107\n      jump\t// in\n    tag_106:\n        /* \"--CODEGEN--\":1976:2037   */\n      tag_108\n      jump\t// in\n    tag_105:\n        /* \"--CODEGEN--\":1971:1974   */\n      dup3\n        /* \"--CODEGEN--\":1964:2038   */\n      mstore\n        /* \"--CODEGEN--\":1958:2043   */\n      pop\n      pop\n      jump\t// out\n        /* \"--CODEGEN--\":2050:2163   */\n    tag_109:\n        /* \"--CODEGEN--\":2133:2157   */\n      tag_111\n        /* \"--CODEGEN--\":2151:2156   */\n      dup2\n        /* \"--CODEGEN--\":2133:2157   */\n      tag_112\n      jump\t// in\n    tag_111:\n        /* \"--CODEGEN--\":2128:2131   */\n      dup3\n        /* \"--CODEGEN--\":2121:2158   */\n      mstore\n        /* \"--CODEGEN--\":2115:2163   */\n      pop\n      pop\n      jump\t// out\n        /* \"--CODEGEN--\":2199:3127   */\n    tag_113:\n      0x00\n        /* \"--CODEGEN--\":2364:2428   */\n      tag_115\n        /* \"--CODEGEN--\":2422:2427   */\n      dup3\n        /* \"--CODEGEN--\":2364:2428   */\n      tag_116\n      jump\t// in\n    tag_115:\n        /* \"--CODEGEN--\":2441:2537   */\n      tag_117\n        /* \"--CODEGEN--\":2530:2536   */\n      dup2\n        /* \"--CODEGEN--\":2525:2528   */\n      dup6\n        /* \"--CODEGEN--\":2441:2537   */\n      tag_118\n      jump\t// in\n    tag_117:\n        /* \"--CODEGEN--\":2434:2537   */\n      swap4\n      pop\n        /* \"--CODEGEN--\":2560:2563   */\n      dup4\n        /* \"--CODEGEN--\":2602:2606   */\n      0x20\n        /* \"--CODEGEN--\":2594:2600   */\n      dup3\n        /* \"--CODEGEN--\":2590:2607   */\n      mul\n        /* \"--CODEGEN--\":2585:2588   */\n      dup6\n        /* \"--CODEGEN--\":2581:2608   */\n      add\n        /* \"--CODEGEN--\":2629:2695   */\n      tag_119\n        /* \"--CODEGEN--\":2689:2694   */\n      dup6\n        /* \"--CODEGEN--\":2629:2695   */\n      tag_120\n      jump\t// in\n    tag_119:\n        /* \"--CODEGEN--\":2715:2722   */\n      dup1\n        /* \"--CODEGEN--\":2743:2744   */\n      0x00\n        /* \"--CODEGEN--\":2728:3088   */\n    tag_121:\n        /* \"--CODEGEN--\":2753:2759   */\n      dup6\n        /* \"--CODEGEN--\":2750:2751   */\n      dup2\n        /* \"--CODEGEN--\":2747:2760   */\n      lt\n        /* \"--CODEGEN--\":2728:3088   */\n      iszero\n      tag_123\n      jumpi\n        /* \"--CODEGEN--\":2815:2824   */\n      dup5\n        /* \"--CODEGEN--\":2809:2813   */\n      dup5\n        /* \"--CODEGEN--\":2805:2825   */\n      sub\n        /* \"--CODEGEN--\":2800:2803   */\n      dup10\n        /* \"--CODEGEN--\":2793:2826   */\n      mstore\n        /* \"--CODEGEN--\":2860:2866   */\n      dup2\n        /* \"--CODEGEN--\":2854:2867   */\n      mload\n        /* \"--CODEGEN--\":2882:2966   */\n      tag_124\n        /* \"--CODEGEN--\":2961:2965   */\n      dup6\n        /* \"--CODEGEN--\":2946:2959   */\n      dup3\n        /* \"--CODEGEN--\":2882:2966   */\n      tag_99\n      jump\t// in\n    tag_124:\n        /* \"--CODEGEN--\":2874:2966   */\n      swap5\n      pop\n        /* \"--CODEGEN--\":2983:3053   */\n      tag_125\n        /* \"--CODEGEN--\":3046:3052   */\n      dup4\n        /* \"--CODEGEN--\":2983:3053   */\n      tag_126\n      jump\t// in\n    tag_125:\n        /* \"--CODEGEN--\":2973:3053   */\n      swap3\n      pop\n        /* \"--CODEGEN--\":3076:3080   */\n      0x20\n        /* \"--CODEGEN--\":3071:3074   */\n      dup11\n        /* \"--CODEGEN--\":3067:3081   */\n      add\n        /* \"--CODEGEN--\":3060:3081   */\n      swap10\n      pop\n        /* \"--CODEGEN--\":2785:3088   */\n      pop\n        /* \"--CODEGEN--\":2775:2776   */\n      0x01\n        /* \"--CODEGEN--\":2772:2773   */\n      dup2\n        /* \"--CODEGEN--\":2768:2777   */\n      add\n        /* \"--CODEGEN--\":2763:2777   */\n      swap1\n      pop\n        /* \"--CODEGEN--\":2728:3088   */\n      jump(tag_121)\n    tag_123:\n        /* \"--CODEGEN--\":2732:2746   */\n      pop\n        /* \"--CODEGEN--\":3101:3105   */\n      dup3\n        /* \"--CODEGEN--\":3094:3105   */\n      swap8\n      pop\n        /* \"--CODEGEN--\":3118:3121   */\n      dup8\n        /* \"--CODEGEN--\":3111:3121   */\n      swap6\n      pop\n        /* \"--CODEGEN--\":2343:3127   */\n      pop\n      pop\n      pop\n      pop\n      pop\n      swap3\n      swap2\n      pop\n      pop\n      jump\t// out\n        /* \"--CODEGEN--\":3135:3462   */\n    tag_102:\n      0x00\n        /* \"--CODEGEN--\":3237:3276   */\n      tag_128\n        /* \"--CODEGEN--\":3270:3275   */\n      dup3\n        /* \"--CODEGEN--\":3237:3276   */\n      tag_129\n      jump\t// in\n    tag_128:\n        /* \"--CODEGEN--\":3288:3349   */\n      tag_130\n        /* \"--CODEGEN--\":3342:3348   */\n      dup2\n        /* \"--CODEGEN--\":3337:3340   */\n      dup6\n        /* \"--CODEGEN--\":3288:3349   */\n      tag_131\n      jump\t// in\n    tag_130:\n        /* \"--CODEGEN--\":3281:3349   */\n      swap4\n      pop\n        /* \"--CODEGEN--\":3354:3406   */\n      tag_132\n        /* \"--CODEGEN--\":3399:3405   */\n      dup2\n        /* \"--CODEGEN--\":3394:3397   */\n      dup6\n        /* \"--CODEGEN--\":3387:3391   */\n      0x20\n        /* \"--CODEGEN--\":3380:3385   */\n      dup7\n        /* \"--CODEGEN--\":3376:3392   */\n      add\n        /* \"--CODEGEN--\":3354:3406   */\n      tag_133\n      jump\t// in\n    tag_132:\n        /* \"--CODEGEN--\":3427:3456   */\n      tag_134\n        /* \"--CODEGEN--\":3449:3455   */\n      dup2\n        /* \"--CODEGEN--\":3427:3456   */\n      tag_135\n      jump\t// in\n    tag_134:\n        /* \"--CODEGEN--\":3422:3425   */\n      dup5\n        /* \"--CODEGEN--\":3418:3457   */\n      add\n        /* \"--CODEGEN--\":3411:3457   */\n      swap2\n      pop\n        /* \"--CODEGEN--\":3217:3462   */\n      pop\n      swap3\n      swap2\n      pop\n      pop\n      jump\t// out\n        /* \"--CODEGEN--\":3469:3816   */\n    tag_136:\n      0x00\n        /* \"--CODEGEN--\":3581:3620   */\n      tag_138\n        /* \"--CODEGEN--\":3614:3619   */\n      dup3\n        /* \"--CODEGEN--\":3581:3620   */\n      tag_129\n      jump\t// in\n    tag_138:\n        /* \"--CODEGEN--\":3632:3703   */\n      tag_139\n        /* \"--CODEGEN--\":3696:3702   */\n      dup2\n        /* \"--CODEGEN--\":3691:3694   */\n      dup6\n        /* \"--CODEGEN--\":3632:3703   */\n      tag_140\n      jump\t// in\n    tag_139:\n        /* \"--CODEGEN--\":3625:3703   */\n      swap4\n      pop\n        /* \"--CODEGEN--\":3708:3760   */\n      tag_141\n        /* \"--CODEGEN--\":3753:3759   */\n      dup2\n        /* \"--CODEGEN--\":3748:3751   */\n      dup6\n        /* \"--CODEGEN--\":3741:3745   */\n      0x20\n        /* \"--CODEGEN--\":3734:3739   */\n      dup7\n        /* \"--CODEGEN--\":3730:3746   */\n      add\n        /* \"--CODEGEN--\":3708:3760   */\n      tag_133\n      jump\t// in\n    tag_141:\n        /* \"--CODEGEN--\":3781:3810   */\n      tag_142\n        /* \"--CODEGEN--\":3803:3809   */\n      dup2\n        /* \"--CODEGEN--\":3781:3810   */\n      tag_135\n      jump\t// in\n    tag_142:\n        /* \"--CODEGEN--\":3776:3779   */\n      dup5\n        /* \"--CODEGEN--\":3772:3811   */\n      add\n        /* \"--CODEGEN--\":3765:3811   */\n      swap2\n      pop\n        /* \"--CODEGEN--\":3561:3816   */\n      pop\n      swap3\n      swap2\n      pop\n      pop\n      jump\t// out\n        /* \"--CODEGEN--\":3823:4183   */\n    tag_143:\n      0x00\n        /* \"--CODEGEN--\":3953:3992   */\n      tag_145\n        /* \"--CODEGEN--\":3986:3991   */\n      dup3\n        /* \"--CODEGEN--\":3953:3992   */\n      tag_129\n      jump\t// in\n    tag_145:\n        /* \"--CODEGEN--\":4004:4093   */\n      tag_146\n        /* \"--CODEGEN--\":4086:4092   */\n      dup2\n        /* \"--CODEGEN--\":4081:4084   */\n      dup6\n        /* \"--CODEGEN--\":4004:4093   */\n      tag_147\n      jump\t// in\n    tag_146:\n        /* \"--CODEGEN--\":3997:4093   */\n      swap4\n      pop\n        /* \"--CODEGEN--\":4098:4150   */\n      tag_148\n        /* \"--CODEGEN--\":4143:4149   */\n      dup2\n        /* \"--CODEGEN--\":4138:4141   */\n      dup6\n        /* \"--CODEGEN--\":4131:4135   */\n      0x20\n        /* \"--CODEGEN--\":4124:4129   */\n      dup7\n        /* \"--CODEGEN--\":4120:4136   */\n      add\n        /* \"--CODEGEN--\":4098:4150   */\n      tag_133\n      jump\t// in\n    tag_148:\n        /* \"--CODEGEN--\":4171:4177   */\n      dup1\n        /* \"--CODEGEN--\":4166:4169   */\n      dup5\n        /* \"--CODEGEN--\":4162:4178   */\n      add\n        /* \"--CODEGEN--\":4155:4178   */\n      swap2\n      pop\n        /* \"--CODEGEN--\":3933:4183   */\n      pop\n      swap3\n      swap2\n      pop\n      pop\n      jump\t// out\n        /* \"--CODEGEN--\":4191:4518   */\n    tag_149:\n      0x00\n        /* \"--CODEGEN--\":4351:4418   */\n      tag_151\n        /* \"--CODEGEN--\":4415:4417   */\n      0x1b\n        /* \"--CODEGEN--\":4410:4413   */\n      dup4\n        /* \"--CODEGEN--\":4351:4418   */\n      tag_140\n      jump\t// in\n    tag_151:\n        /* \"--CODEGEN--\":4344:4418   */\n      swap2\n      pop\n        /* \"--CODEGEN--\":4451:4480   */\n      0x596120736520686120766f7461646f207072657669616d656e74650000000000\n        /* \"--CODEGEN--\":4447:4448   */\n      0x00\n        /* \"--CODEGEN--\":4442:4445   */\n      dup4\n        /* \"--CODEGEN--\":4438:4449   */\n      add\n        /* \"--CODEGEN--\":4431:4481   */\n      mstore\n        /* \"--CODEGEN--\":4509:4511   */\n      0x20\n        /* \"--CODEGEN--\":4504:4507   */\n      dup3\n        /* \"--CODEGEN--\":4500:4512   */\n      add\n        /* \"--CODEGEN--\":4493:4512   */\n      swap1\n      pop\n        /* \"--CODEGEN--\":4337:4518   */\n      swap2\n      swap1\n      pop\n      jump\t// out\n        /* \"--CODEGEN--\":4526:4639   */\n    tag_152:\n        /* \"--CODEGEN--\":4609:4633   */\n      tag_154\n        /* \"--CODEGEN--\":4627:4632   */\n      dup2\n        /* \"--CODEGEN--\":4609:4633   */\n      tag_155\n      jump\t// in\n    tag_154:\n        /* \"--CODEGEN--\":4604:4607   */\n      dup3\n        /* \"--CODEGEN--\":4597:4634   */\n      mstore\n        /* \"--CODEGEN--\":4591:4639   */\n      pop\n      pop\n      jump\t// out\n        /* \"--CODEGEN--\":4646:4798   */\n    tag_156:\n        /* \"--CODEGEN--\":4747:4792   */\n      tag_158\n        /* \"--CODEGEN--\":4767:4791   */\n      tag_159\n        /* \"--CODEGEN--\":4785:4790   */\n      dup3\n        /* \"--CODEGEN--\":4767:4791   */\n      tag_155\n      jump\t// in\n    tag_159:\n        /* \"--CODEGEN--\":4747:4792   */\n      tag_160\n      jump\t// in\n    tag_158:\n        /* \"--CODEGEN--\":4742:4745   */\n      dup3\n        /* \"--CODEGEN--\":4735:4793   */\n      mstore\n        /* \"--CODEGEN--\":4729:4798   */\n      pop\n      pop\n      jump\t// out\n        /* \"--CODEGEN--\":4805:5090   */\n    tag_54:\n      0x00\n        /* \"--CODEGEN--\":4949:5040   */\n      tag_162\n        /* \"--CODEGEN--\":5036:5039   */\n      dup3\n        /* \"--CODEGEN--\":5027:5033   */\n      dup5\n        /* \"--CODEGEN--\":4949:5040   */\n      tag_103\n      jump\t// in\n    tag_162:\n        /* \"--CODEGEN--\":5062:5064   */\n      0x14\n        /* \"--CODEGEN--\":5057:5060   */\n      dup3\n        /* \"--CODEGEN--\":5053:5065   */\n      add\n        /* \"--CODEGEN--\":5046:5065   */\n      swap2\n      pop\n        /* \"--CODEGEN--\":5082:5085   */\n      dup2\n        /* \"--CODEGEN--\":5075:5085   */\n      swap1\n      pop\n        /* \"--CODEGEN--\":4937:5090   */\n      swap3\n      swap2\n      pop\n      pop\n      jump\t// out\n        /* \"--CODEGEN--\":5097:5372   */\n    tag_36:\n      0x00\n        /* \"--CODEGEN--\":5252:5347   */\n      tag_164\n        /* \"--CODEGEN--\":5343:5346   */\n      dup3\n        /* \"--CODEGEN--\":5334:5340   */\n      dup5\n        /* \"--CODEGEN--\":5252:5347   */\n      tag_143\n      jump\t// in\n    tag_164:\n        /* \"--CODEGEN--\":5245:5347   */\n      swap2\n      pop\n        /* \"--CODEGEN--\":5364:5367   */\n      dup2\n        /* \"--CODEGEN--\":5357:5367   */\n      swap1\n      pop\n        /* \"--CODEGEN--\":5233:5372   */\n      swap3\n      swap2\n      pop\n      pop\n      jump\t// out\n        /* \"--CODEGEN--\":5379:5954   */\n    tag_47:\n      0x00\n        /* \"--CODEGEN--\":5610:5705   */\n      tag_166\n        /* \"--CODEGEN--\":5701:5704   */\n      dup3\n        /* \"--CODEGEN--\":5692:5698   */\n      dup7\n        /* \"--CODEGEN--\":5610:5705   */\n      tag_143\n      jump\t// in\n    tag_166:\n        /* \"--CODEGEN--\":5603:5705   */\n      swap2\n      pop\n        /* \"--CODEGEN--\":5716:5791   */\n      tag_167\n        /* \"--CODEGEN--\":5787:5790   */\n      dup3\n        /* \"--CODEGEN--\":5778:5784   */\n      dup6\n        /* \"--CODEGEN--\":5716:5791   */\n      tag_156\n      jump\t// in\n    tag_167:\n        /* \"--CODEGEN--\":5813:5815   */\n      0x20\n        /* \"--CODEGEN--\":5808:5811   */\n      dup3\n        /* \"--CODEGEN--\":5804:5816   */\n      add\n        /* \"--CODEGEN--\":5797:5816   */\n      swap2\n      pop\n        /* \"--CODEGEN--\":5834:5929   */\n      tag_168\n        /* \"--CODEGEN--\":5925:5928   */\n      dup3\n        /* \"--CODEGEN--\":5916:5922   */\n      dup5\n        /* \"--CODEGEN--\":5834:5929   */\n      tag_143\n      jump\t// in\n    tag_168:\n        /* \"--CODEGEN--\":5827:5929   */\n      swap2\n      pop\n        /* \"--CODEGEN--\":5946:5949   */\n      dup2\n        /* \"--CODEGEN--\":5939:5949   */\n      swap1\n      pop\n        /* \"--CODEGEN--\":5591:5954   */\n      swap5\n      swap4\n      pop\n      pop\n      pop\n      pop\n      jump\t// out\n        /* \"--CODEGEN--\":5961:6183   */\n    tag_18:\n      0x00\n        /* \"--CODEGEN--\":6088:6090   */\n      0x20\n        /* \"--CODEGEN--\":6077:6086   */\n      dup3\n        /* \"--CODEGEN--\":6073:6091   */\n      add\n        /* \"--CODEGEN--\":6065:6091   */\n      swap1\n      pop\n        /* \"--CODEGEN--\":6102:6173   */\n      tag_170\n        /* \"--CODEGEN--\":6170:6171   */\n      0x00\n        /* \"--CODEGEN--\":6159:6168   */\n      dup4\n        /* \"--CODEGEN--\":6155:6172   */\n      add\n        /* \"--CODEGEN--\":6146:6152   */\n      dup5\n        /* \"--CODEGEN--\":6102:6173   */\n      tag_109\n      jump\t// in\n    tag_170:\n        /* \"--CODEGEN--\":6059:6183   */\n      swap3\n      swap2\n      pop\n      pop\n      jump\t// out\n        /* \"--CODEGEN--\":6190:6600   */\n    tag_22:\n      0x00\n        /* \"--CODEGEN--\":6387:6389   */\n      0x20\n        /* \"--CODEGEN--\":6376:6385   */\n      dup3\n        /* \"--CODEGEN--\":6372:6390   */\n      add\n        /* \"--CODEGEN--\":6364:6390   */\n      swap1\n      pop\n        /* \"--CODEGEN--\":6437:6446   */\n      dup2\n        /* \"--CODEGEN--\":6431:6435   */\n      dup2\n        /* \"--CODEGEN--\":6427:6447   */\n      sub\n        /* \"--CODEGEN--\":6423:6424   */\n      0x00\n        /* \"--CODEGEN--\":6412:6421   */\n      dup4\n        /* \"--CODEGEN--\":6408:6425   */\n      add\n        /* \"--CODEGEN--\":6401:6448   */\n      mstore\n        /* \"--CODEGEN--\":6462:6590   */\n      tag_172\n        /* \"--CODEGEN--\":6585:6589   */\n      dup2\n        /* \"--CODEGEN--\":6576:6582   */\n      dup5\n        /* \"--CODEGEN--\":6462:6590   */\n      tag_113\n      jump\t// in\n    tag_172:\n        /* \"--CODEGEN--\":6454:6590   */\n      swap1\n      pop\n        /* \"--CODEGEN--\":6358:6600   */\n      swap3\n      swap2\n      pop\n      pop\n      jump\t// out\n        /* \"--CODEGEN--\":6607:6917   */\n    tag_26:\n      0x00\n        /* \"--CODEGEN--\":6754:6756   */\n      0x20\n        /* \"--CODEGEN--\":6743:6752   */\n      dup3\n        /* \"--CODEGEN--\":6739:6757   */\n      add\n        /* \"--CODEGEN--\":6731:6757   */\n      swap1\n      pop\n        /* \"--CODEGEN--\":6804:6813   */\n      dup2\n        /* \"--CODEGEN--\":6798:6802   */\n      dup2\n        /* \"--CODEGEN--\":6794:6814   */\n      sub\n        /* \"--CODEGEN--\":6790:6791   */\n      0x00\n        /* \"--CODEGEN--\":6779:6788   */\n      dup4\n        /* \"--CODEGEN--\":6775:6792   */\n      add\n        /* \"--CODEGEN--\":6768:6815   */\n      mstore\n        /* \"--CODEGEN--\":6829:6907   */\n      tag_174\n        /* \"--CODEGEN--\":6902:6906   */\n      dup2\n        /* \"--CODEGEN--\":6893:6899   */\n      dup5\n        /* \"--CODEGEN--\":6829:6907   */\n      tag_136\n      jump\t// in\n    tag_174:\n        /* \"--CODEGEN--\":6821:6907   */\n      swap1\n      pop\n        /* \"--CODEGEN--\":6725:6917   */\n      swap3\n      swap2\n      pop\n      pop\n      jump\t// out\n        /* \"--CODEGEN--\":6924:7340   */\n    tag_62:\n      0x00\n        /* \"--CODEGEN--\":7124:7126   */\n      0x20\n        /* \"--CODEGEN--\":7113:7122   */\n      dup3\n        /* \"--CODEGEN--\":7109:7127   */\n      add\n        /* \"--CODEGEN--\":7101:7127   */\n      swap1\n      pop\n        /* \"--CODEGEN--\":7174:7183   */\n      dup2\n        /* \"--CODEGEN--\":7168:7172   */\n      dup2\n        /* \"--CODEGEN--\":7164:7184   */\n      sub\n        /* \"--CODEGEN--\":7160:7161   */\n      0x00\n        /* \"--CODEGEN--\":7149:7158   */\n      dup4\n        /* \"--CODEGEN--\":7145:7162   */\n      add\n        /* \"--CODEGEN--\":7138:7185   */\n      mstore\n        /* \"--CODEGEN--\":7199:7330   */\n      tag_176\n        /* \"--CODEGEN--\":7325:7329   */\n      dup2\n        /* \"--CODEGEN--\":7199:7330   */\n      tag_149\n      jump\t// in\n    tag_176:\n        /* \"--CODEGEN--\":7191:7330   */\n      swap1\n      pop\n        /* \"--CODEGEN--\":7095:7340   */\n      swap2\n      swap1\n      pop\n      jump\t// out\n        /* \"--CODEGEN--\":7347:7569   */\n    tag_14:\n      0x00\n        /* \"--CODEGEN--\":7474:7476   */\n      0x20\n        /* \"--CODEGEN--\":7463:7472   */\n      dup3\n        /* \"--CODEGEN--\":7459:7477   */\n      add\n        /* \"--CODEGEN--\":7451:7477   */\n      swap1\n      pop\n        /* \"--CODEGEN--\":7488:7559   */\n      tag_178\n        /* \"--CODEGEN--\":7556:7557   */\n      0x00\n        /* \"--CODEGEN--\":7545:7554   */\n      dup4\n        /* \"--CODEGEN--\":7541:7558   */\n      add\n        /* \"--CODEGEN--\":7532:7538   */\n      dup5\n        /* \"--CODEGEN--\":7488:7559   */\n      tag_152\n      jump\t// in\n    tag_178:\n        /* \"--CODEGEN--\":7445:7569   */\n      swap3\n      swap2\n      pop\n      pop\n      jump\t// out\n        /* \"--CODEGEN--\":7576:7832   */\n    tag_80:\n      0x00\n        /* \"--CODEGEN--\":7638:7640   */\n      0x40\n        /* \"--CODEGEN--\":7632:7641   */\n      mload\n        /* \"--CODEGEN--\":7622:7641   */\n      swap1\n      pop\n        /* \"--CODEGEN--\":7676:7680   */\n      dup2\n        /* \"--CODEGEN--\":7668:7674   */\n      dup2\n        /* \"--CODEGEN--\":7664:7681   */\n      add\n        /* \"--CODEGEN--\":7775:7781   */\n      dup2\n        /* \"--CODEGEN--\":7763:7773   */\n      dup2\n        /* \"--CODEGEN--\":7760:7782   */\n      lt\n        /* \"--CODEGEN--\":7739:7757   */\n      0xffffffffffffffff\n        /* \"--CODEGEN--\":7727:7737   */\n      dup3\n        /* \"--CODEGEN--\":7724:7758   */\n      gt\n        /* \"--CODEGEN--\":7721:7783   */\n      or\n        /* \"--CODEGEN--\":7718:7720   */\n      iszero\n      tag_180\n      jumpi\n        /* \"--CODEGEN--\":7796:7797   */\n      0x00\n        /* \"--CODEGEN--\":7793:7794   */\n      dup1\n        /* \"--CODEGEN--\":7786:7798   */\n      revert\n        /* \"--CODEGEN--\":7718:7720   */\n    tag_180:\n        /* \"--CODEGEN--\":7816:7826   */\n      dup1\n        /* \"--CODEGEN--\":7812:7814   */\n      0x40\n        /* \"--CODEGEN--\":7805:7827   */\n      mstore\n        /* \"--CODEGEN--\":7616:7832   */\n      pop\n      swap2\n      swap1\n      pop\n      jump\t// out\n        /* \"--CODEGEN--\":7839:8161   */\n    tag_79:\n      0x00\n        /* \"--CODEGEN--\":7983:8001   */\n      0xffffffffffffffff\n        /* \"--CODEGEN--\":7975:7981   */\n      dup3\n        /* \"--CODEGEN--\":7972:8002   */\n      gt\n        /* \"--CODEGEN--\":7969:7971   */\n      iszero\n      tag_182\n      jumpi\n        /* \"--CODEGEN--\":8015:8016   */\n      0x00\n        /* \"--CODEGEN--\":8012:8013   */\n      dup1\n        /* \"--CODEGEN--\":8005:8017   */\n      revert\n        /* \"--CODEGEN--\":7969:7971   */\n    tag_182:\n        /* \"--CODEGEN--\":8082:8086   */\n      0x1f\n        /* \"--CODEGEN--\":8078:8087   */\n      not\n        /* \"--CODEGEN--\":8071:8075   */\n      0x1f\n        /* \"--CODEGEN--\":8063:8069   */\n      dup4\n        /* \"--CODEGEN--\":8059:8076   */\n      add\n        /* \"--CODEGEN--\":8055:8088   */\n      and\n        /* \"--CODEGEN--\":8047:8088   */\n      swap1\n      pop\n        /* \"--CODEGEN--\":8146:8150   */\n      0x20\n        /* \"--CODEGEN--\":8140:8144   */\n      dup2\n        /* \"--CODEGEN--\":8136:8151   */\n      add\n        /* \"--CODEGEN--\":8128:8151   */\n      swap1\n      pop\n        /* \"--CODEGEN--\":7906:8161   */\n      swap2\n      swap1\n      pop\n      jump\t// out\n        /* \"--CODEGEN--\":8168:8329   */\n    tag_120:\n      0x00\n        /* \"--CODEGEN--\":8264:8267   */\n      dup2\n        /* \"--CODEGEN--\":8256:8267   */\n      swap1\n      pop\n        /* \"--CODEGEN--\":8302:8306   */\n      0x20\n        /* \"--CODEGEN--\":8297:8300   */\n      dup3\n        /* \"--CODEGEN--\":8293:8307   */\n      add\n        /* \"--CODEGEN--\":8285:8307   */\n      swap1\n      pop\n        /* \"--CODEGEN--\":8250:8329   */\n      swap2\n      swap1\n      pop\n      jump\t// out\n        /* \"--CODEGEN--\":8336:8483   */\n    tag_116:\n      0x00\n        /* \"--CODEGEN--\":8455:8460   */\n      dup2\n        /* \"--CODEGEN--\":8449:8461   */\n      mload\n        /* \"--CODEGEN--\":8439:8461   */\n      swap1\n      pop\n        /* \"--CODEGEN--\":8420:8483   */\n      swap2\n      swap1\n      pop\n      jump\t// out\n        /* \"--CODEGEN--\":8490:8612   */\n    tag_129:\n      0x00\n        /* \"--CODEGEN--\":8584:8589   */\n      dup2\n        /* \"--CODEGEN--\":8578:8590   */\n      mload\n        /* \"--CODEGEN--\":8568:8590   */\n      swap1\n      pop\n        /* \"--CODEGEN--\":8549:8612   */\n      swap2\n      swap1\n      pop\n      jump\t// out\n        /* \"--CODEGEN--\":8619:8737   */\n    tag_126:\n      0x00\n        /* \"--CODEGEN--\":8727:8731   */\n      0x20\n        /* \"--CODEGEN--\":8722:8725   */\n      dup3\n        /* \"--CODEGEN--\":8718:8732   */\n      add\n        /* \"--CODEGEN--\":8710:8732   */\n      swap1\n      pop\n        /* \"--CODEGEN--\":8704:8737   */\n      swap2\n      swap1\n      pop\n      jump\t// out\n        /* \"--CODEGEN--\":8745:8933   */\n    tag_118:\n      0x00\n        /* \"--CODEGEN--\":8885:8891   */\n      dup3\n        /* \"--CODEGEN--\":8880:8883   */\n      dup3\n        /* \"--CODEGEN--\":8873:8892   */\n      mstore\n        /* \"--CODEGEN--\":8922:8926   */\n      0x20\n        /* \"--CODEGEN--\":8917:8920   */\n      dup3\n        /* \"--CODEGEN--\":8913:8927   */\n      add\n        /* \"--CODEGEN--\":8898:8927   */\n      swap1\n      pop\n        /* \"--CODEGEN--\":8866:8933   */\n      swap3\n      swap2\n      pop\n      pop\n      jump\t// out\n        /* \"--CODEGEN--\":8942:9095   */\n    tag_131:\n      0x00\n        /* \"--CODEGEN--\":9047:9053   */\n      dup3\n        /* \"--CODEGEN--\":9042:9045   */\n      dup3\n        /* \"--CODEGEN--\":9035:9054   */\n      mstore\n        /* \"--CODEGEN--\":9084:9088   */\n      0x20\n        /* \"--CODEGEN--\":9079:9082   */\n      dup3\n        /* \"--CODEGEN--\":9075:9089   */\n      add\n        /* \"--CODEGEN--\":9060:9089   */\n      swap1\n      pop\n        /* \"--CODEGEN--\":9028:9095   */\n      swap3\n      swap2\n      pop\n      pop\n      jump\t// out\n        /* \"--CODEGEN--\":9104:9267   */\n    tag_140:\n      0x00\n        /* \"--CODEGEN--\":9219:9225   */\n      dup3\n        /* \"--CODEGEN--\":9214:9217   */\n      dup3\n        /* \"--CODEGEN--\":9207:9226   */\n      mstore\n        /* \"--CODEGEN--\":9256:9260   */\n      0x20\n        /* \"--CODEGEN--\":9251:9254   */\n      dup3\n        /* \"--CODEGEN--\":9247:9261   */\n      add\n        /* \"--CODEGEN--\":9232:9261   */\n      swap1\n      pop\n        /* \"--CODEGEN--\":9200:9267   */\n      swap3\n      swap2\n      pop\n      pop\n      jump\t// out\n        /* \"--CODEGEN--\":9276:9421   */\n    tag_147:\n      0x00\n        /* \"--CODEGEN--\":9412:9415   */\n      dup2\n        /* \"--CODEGEN--\":9397:9415   */\n      swap1\n      pop\n        /* \"--CODEGEN--\":9390:9421   */\n      swap3\n      swap2\n      pop\n      pop\n      jump\t// out\n        /* \"--CODEGEN--\":9429:9520   */\n    tag_112:\n      0x00\n        /* \"--CODEGEN--\":9491:9515   */\n      tag_192\n        /* \"--CODEGEN--\":9509:9514   */\n      dup3\n        /* \"--CODEGEN--\":9491:9515   */\n      tag_193\n      jump\t// in\n    tag_192:\n        /* \"--CODEGEN--\":9480:9515   */\n      swap1\n      pop\n        /* \"--CODEGEN--\":9474:9520   */\n      swap2\n      swap1\n      pop\n      jump\t// out\n        /* \"--CODEGEN--\":9527:9626   */\n    tag_107:\n      0x00\n        /* \"--CODEGEN--\":9597:9621   */\n      tag_195\n        /* \"--CODEGEN--\":9615:9620   */\n      dup3\n        /* \"--CODEGEN--\":9597:9621   */\n      tag_193\n      jump\t// in\n    tag_195:\n        /* \"--CODEGEN--\":9586:9621   */\n      swap1\n      pop\n        /* \"--CODEGEN--\":9580:9626   */\n      swap2\n      swap1\n      pop\n      jump\t// out\n        /* \"--CODEGEN--\":9633:9754   */\n    tag_193:\n      0x00\n        /* \"--CODEGEN--\":9706:9748   */\n      0xffffffffffffffffffffffffffffffffffffffff\n        /* \"--CODEGEN--\":9699:9704   */\n      dup3\n        /* \"--CODEGEN--\":9695:9749   */\n      and\n        /* \"--CODEGEN--\":9684:9749   */\n      swap1\n      pop\n        /* \"--CODEGEN--\":9678:9754   */\n      swap2\n      swap1\n      pop\n      jump\t// out\n        /* \"--CODEGEN--\":9761:9833   */\n    tag_155:\n      0x00\n        /* \"--CODEGEN--\":9823:9828   */\n      dup2\n        /* \"--CODEGEN--\":9812:9828   */\n      swap1\n      pop\n        /* \"--CODEGEN--\":9806:9833   */\n      swap2\n      swap1\n      pop\n      jump\t// out\n        /* \"--CODEGEN--\":9841:9986   */\n    tag_83:\n        /* \"--CODEGEN--\":9922:9928   */\n      dup3\n        /* \"--CODEGEN--\":9917:9920   */\n      dup2\n        /* \"--CODEGEN--\":9912:9915   */\n      dup4\n        /* \"--CODEGEN--\":9899:9929   */\n      calldatacopy\n        /* \"--CODEGEN--\":9978:9979   */\n      0x00\n        /* \"--CODEGEN--\":9969:9975   */\n      dup4\n        /* \"--CODEGEN--\":9964:9967   */\n      dup4\n        /* \"--CODEGEN--\":9960:9976   */\n      add\n        /* \"--CODEGEN--\":9953:9980   */\n      mstore\n        /* \"--CODEGEN--\":9892:9986   */\n      pop\n      pop\n      pop\n      jump\t// out\n        /* \"--CODEGEN--\":9995:10263   */\n    tag_133:\n        /* \"--CODEGEN--\":10060:10061   */\n      0x00\n        /* \"--CODEGEN--\":10067:10168   */\n    tag_200:\n        /* \"--CODEGEN--\":10081:10087   */\n      dup4\n        /* \"--CODEGEN--\":10078:10079   */\n      dup2\n        /* \"--CODEGEN--\":10075:10088   */\n      lt\n        /* \"--CODEGEN--\":10067:10168   */\n      iszero\n      tag_202\n      jumpi\n        /* \"--CODEGEN--\":10157:10158   */\n      dup1\n        /* \"--CODEGEN--\":10152:10155   */\n      dup3\n        /* \"--CODEGEN--\":10148:10159   */\n      add\n        /* \"--CODEGEN--\":10142:10160   */\n      mload\n        /* \"--CODEGEN--\":10138:10139   */\n      dup2\n        /* \"--CODEGEN--\":10133:10136   */\n      dup5\n        /* \"--CODEGEN--\":10129:10140   */\n      add\n        /* \"--CODEGEN--\":10122:10161   */\n      mstore\n        /* \"--CODEGEN--\":10103:10105   */\n      0x20\n        /* \"--CODEGEN--\":10100:10101   */\n      dup2\n        /* \"--CODEGEN--\":10096:10106   */\n      add\n        /* \"--CODEGEN--\":10091:10106   */\n      swap1\n      pop\n        /* \"--CODEGEN--\":10067:10168   */\n      jump(tag_200)\n    tag_202:\n        /* \"--CODEGEN--\":10183:10189   */\n      dup4\n        /* \"--CODEGEN--\":10180:10181   */\n      dup2\n        /* \"--CODEGEN--\":10177:10190   */\n      gt\n        /* \"--CODEGEN--\":10174:10176   */\n      iszero\n      tag_203\n      jumpi\n        /* \"--CODEGEN--\":10248:10249   */\n      0x00\n        /* \"--CODEGEN--\":10239:10245   */\n      dup5\n        /* \"--CODEGEN--\":10234:10237   */\n      dup5\n        /* \"--CODEGEN--\":10230:10246   */\n      add\n        /* \"--CODEGEN--\":10223:10250   */\n      mstore\n        /* \"--CODEGEN--\":10174:10176   */\n    tag_203:\n        /* \"--CODEGEN--\":10044:10263   */\n      pop\n      pop\n      pop\n      pop\n      jump\t// out\n        /* \"--CODEGEN--\":10271:10374   */\n    tag_108:\n      0x00\n        /* \"--CODEGEN--\":10343:10369   */\n      tag_205\n        /* \"--CODEGEN--\":10363:10368   */\n      dup3\n        /* \"--CODEGEN--\":10343:10369   */\n      tag_206\n      jump\t// in\n    tag_205:\n        /* \"--CODEGEN--\":10332:10369   */\n      swap1\n      pop\n        /* \"--CODEGEN--\":10326:10374   */\n      swap2\n      swap1\n      pop\n      jump\t// out\n        /* \"--CODEGEN--\":10381:10470   */\n    tag_206:\n      0x00\n        /* \"--CODEGEN--\":10445:10465   */\n      tag_208\n        /* \"--CODEGEN--\":10459:10464   */\n      dup3\n        /* \"--CODEGEN--\":10445:10465   */\n      tag_209\n      jump\t// in\n    tag_208:\n        /* \"--CODEGEN--\":10434:10465   */\n      swap1\n      pop\n        /* \"--CODEGEN--\":10428:10470   */\n      swap2\n      swap1\n      pop\n      jump\t// out\n        /* \"--CODEGEN--\":10477:10551   */\n    tag_160:\n      0x00\n        /* \"--CODEGEN--\":10541:10546   */\n      dup2\n        /* \"--CODEGEN--\":10530:10546   */\n      swap1\n      pop\n        /* \"--CODEGEN--\":10524:10551   */\n      swap2\n      swap1\n      pop\n      jump\t// out\n        /* \"--CODEGEN--\":10558:10655   */\n    tag_135:\n      0x00\n        /* \"--CODEGEN--\":10646:10648   */\n      0x1f\n        /* \"--CODEGEN--\":10642:10649   */\n      not\n        /* \"--CODEGEN--\":10637:10639   */\n      0x1f\n        /* \"--CODEGEN--\":10630:10635   */\n      dup4\n        /* \"--CODEGEN--\":10626:10640   */\n      add\n        /* \"--CODEGEN--\":10622:10650   */\n      and\n        /* \"--CODEGEN--\":10612:10650   */\n      swap1\n      pop\n        /* \"--CODEGEN--\":10606:10655   */\n      swap2\n      swap1\n      pop\n      jump\t// out\n        /* \"--CODEGEN--\":10663:10757   */\n    tag_209:\n      0x00\n        /* \"--CODEGEN--\":10741:10746   */\n      dup2\n        /* \"--CODEGEN--\":10737:10739   */\n      0x60\n        /* \"--CODEGEN--\":10733:10747   */\n      shl\n        /* \"--CODEGEN--\":10711:10747   */\n      swap1\n      pop\n        /* \"--CODEGEN--\":10705:10757   */\n      swap2\n      swap1\n      pop\n      jump\t// out\n        /* \"--CODEGEN--\":10765:10882   */\n    tag_87:\n        /* \"--CODEGEN--\":10834:10858   */\n      tag_214\n        /* \"--CODEGEN--\":10852:10857   */\n      dup2\n        /* \"--CODEGEN--\":10834:10858   */\n      tag_155\n      jump\t// in\n    tag_214:\n        /* \"--CODEGEN--\":10827:10832   */\n      dup2\n        /* \"--CODEGEN--\":10824:10859   */\n      eq\n        /* \"--CODEGEN--\":10814:10816   */\n      tag_215\n      jumpi\n        /* \"--CODEGEN--\":10873:10874   */\n      0x00\n        /* \"--CODEGEN--\":10870:10871   */\n      dup1\n        /* \"--CODEGEN--\":10863:10875   */\n      revert\n        /* \"--CODEGEN--\":10814:10816   */\n    tag_215:\n        /* \"--CODEGEN--\":10808:10882   */\n      pop\n      jump\t// out\n\n    auxdata: 0xa2646970667358221220482104644785463509131455a771111ae7fc75209c0351262d3589130da4e05864736f6c634300060c0033\n}\n",
				"bytecode": {
					"linkReferences": {},
					"object": "608060405234801561001057600080fd5b50336000806101000a81548173ffffffffffffffffffffffffffffffffffffffff021916908373ffffffffffffffffffffffffffffffffffffffff160217905550610a67806100606000396000f3fe608060405234801561001057600080fd5b50600436106100625760003560e01c80634c25de51146100675780638da5cb5b14610097578063bfc2e938146100b5578063e7bf56fa146100d3578063f01ca6b7146100f1578063febe07dc1461010d575b600080fd5b610081600480360381019061007c91906104fb565b610129565b60405161008e9190610859565b60405180910390f35b61009f610151565b6040516100ac91906107da565b60405180910390f35b6100bd610175565b6040516100ca91906107f5565b60405180910390f35b6100db61025e565b6040516100e89190610817565b60405180910390f35b61010b6004803603810190610106919061053c565b610263565b005b610127600480360381019061012291906104fb565b6102f7565b005b600060028260405161013b919061078e565b9081526020016040518091039020549050919050565b60008054906101000a900473ffffffffffffffffffffffffffffffffffffffff1681565b60606003805480602002602001604051908101604052809291908181526020016000905b82821015610255578382906000526020600020018054600181600116156101000203166002900480601f0160208091040260200160405190810160405280929190818152602001828054600181600116156101000203166002900480156102415780601f1061021657610100808354040283529160200191610241565b820191906000526020600020905b81548152906001019060200180831161022457829003601f168201915b505050505081526020019060010190610199565b50505050905090565b606090565b600083838360405160200161027a939291906107a5565b604051602081830303815290604052805190602001209050806001856040516102a3919061078e565b9081526020016040518091039020819055506003849080600181540180825580915050600190039060005260206000200160009091909190915090805190602001906102f09291906103f5565b5050505050565b60003360405160200161030a9190610773565b60405160208183030381529060405280519060200120905060005b600480549050811015610399576004818154811061033f57fe5b906000526020600020015482141561038c576040517f08c379a000000000000000000000000000000000000000000000000000000000815260040161038390610839565b60405180910390fd5b8080600101915050610325565b5060048190806001815401808255809150506001900390600052602060002001600090919091909150556002826040516103d3919061078e565b9081526020016040518091039020600081548092919060010191905055505050565b828054600181600116156101000203166002900490600052602060002090601f016020900481019282601f1061043657805160ff1916838001178555610464565b82800160010185558215610464579182015b82811115610463578251825591602001919060010190610448565b5b5090506104719190610475565b5090565b5b8082111561048e576000816000905550600101610476565b5090565b600082601f8301126104a357600080fd5b81356104b66104b1826108a1565b610874565b915080825260208301602083018583830111156104d257600080fd5b6104dd83828461098c565b50505092915050565b6000813590506104f581610a1a565b92915050565b60006020828403121561050d57600080fd5b600082013567ffffffffffffffff81111561052757600080fd5b61053384828501610492565b91505092915050565b60008060006060848603121561055157600080fd5b600084013567ffffffffffffffff81111561056b57600080fd5b61057786828701610492565b9350506020610588868287016104e6565b925050604084013567ffffffffffffffff8111156105a557600080fd5b6105b186828701610492565b9150509250925092565b60006105c7838361066a565b905092915050565b6105e06105db82610950565b6109ce565b82525050565b6105ef8161093e565b82525050565b6000610600826108dd565b61060a8185610900565b93508360208202850161061c856108cd565b8060005b85811015610658578484038952815161063985826105bb565b9450610644836108f3565b925060208a01995050600181019050610620565b50829750879550505050505092915050565b6000610675826108e8565b61067f8185610911565b935061068f81856020860161099b565b610698816109fc565b840191505092915050565b60006106ae826108e8565b6106b88185610922565b93506106c881856020860161099b565b6106d1816109fc565b840191505092915050565b60006106e7826108e8565b6106f18185610933565b935061070181856020860161099b565b80840191505092915050565b600061071a601b83610922565b91507f596120736520686120766f7461646f207072657669616d656e746500000000006000830152602082019050919050565b61075681610982565b82525050565b61076d61076882610982565b6109f2565b82525050565b600061077f82846105cf565b60148201915081905092915050565b600061079a82846106dc565b915081905092915050565b60006107b182866106dc565b91506107bd828561075c565b6020820191506107cd82846106dc565b9150819050949350505050565b60006020820190506107ef60008301846105e6565b92915050565b6000602082019050818103600083015261080f81846105f5565b905092915050565b6000602082019050818103600083015261083181846106a3565b905092915050565b600060208201905081810360008301526108528161070d565b9050919050565b600060208201905061086e600083018461074d565b92915050565b6000604051905081810181811067ffffffffffffffff8211171561089757600080fd5b8060405250919050565b600067ffffffffffffffff8211156108b857600080fd5b601f19601f8301169050602081019050919050565b6000819050602082019050919050565b600081519050919050565b600081519050919050565b6000602082019050919050565b600082825260208201905092915050565b600082825260208201905092915050565b600082825260208201905092915050565b600081905092915050565b600061094982610962565b9050919050565b600061095b82610962565b9050919050565b600073ffffffffffffffffffffffffffffffffffffffff82169050919050565b6000819050919050565b82818337600083830152505050565b60005b838110156109b957808201518184015260208101905061099e565b838111156109c8576000848401525b50505050565b60006109d9826109e0565b9050919050565b60006109eb82610a0d565b9050919050565b6000819050919050565b6000601f19601f8301169050919050565b60008160601b9050919050565b610a2381610982565b8114610a2e57600080fd5b5056fea2646970667358221220482104644785463509131455a771111ae7fc75209c0351262d3589130da4e05864736f6c634300060c0033",
					"opcodes": "PUSH1 0x80 PUSH1 0x40 MSTORE CALLVALUE DUP1 ISZERO PUSH2 0x10 JUMPI PUSH1 0x0 DUP1 REVERT JUMPDEST POP CALLER PUSH1 0x0 DUP1 PUSH2 0x100 EXP DUP2 SLOAD DUP2 PUSH20 0xFFFFFFFFFFFFFFFFFFFFFFFFFFFFFFFFFFFFFFFF MUL NOT AND SWAP1 DUP4 PUSH20 0xFFFFFFFFFFFFFFFFFFFFFFFFFFFFFFFFFFFFFFFF AND MUL OR SWAP1 SSTORE POP PUSH2 0xA67 DUP1 PUSH2 0x60 PUSH1 0x0 CODECOPY PUSH1 0x0 RETURN INVALID PUSH1 0x80 PUSH1 0x40 MSTORE CALLVALUE DUP1 ISZERO PUSH2 0x10 JUMPI PUSH1 0x0 DUP1 REVERT JUMPDEST POP PUSH1 0x4 CALLDATASIZE LT PUSH2 0x62 JUMPI PUSH1 0x0 CALLDATALOAD PUSH1 0xE0 SHR DUP1 PUSH4 0x4C25DE51 EQ PUSH2 0x67 JUMPI DUP1 PUSH4 0x8DA5CB5B EQ PUSH2 0x97 JUMPI DUP1 PUSH4 0xBFC2E938 EQ PUSH2 0xB5 JUMPI DUP1 PUSH4 0xE7BF56FA EQ PUSH2 0xD3 JUMPI DUP1 PUSH4 0xF01CA6B7 EQ PUSH2 0xF1 JUMPI DUP1 PUSH4 0xFEBE07DC EQ PUSH2 0x10D JUMPI JUMPDEST PUSH1 0x0 DUP1 REVERT JUMPDEST PUSH2 0x81 PUSH1 0x4 DUP1 CALLDATASIZE SUB DUP2 ADD SWAP1 PUSH2 0x7C SWAP2 SWAP1 PUSH2 0x4FB JUMP JUMPDEST PUSH2 0x129 JUMP JUMPDEST PUSH1 0x40 MLOAD PUSH2 0x8E SWAP2 SWAP1 PUSH2 0x859 JUMP JUMPDEST PUSH1 0x40 MLOAD DUP1 SWAP2 SUB SWAP1 RETURN JUMPDEST PUSH2 0x9F PUSH2 0x151 JUMP JUMPDEST PUSH1 0x40 MLOAD PUSH2 0xAC SWAP2 SWAP1 PUSH2 0x7DA JUMP JUMPDEST PUSH1 0x40 MLOAD DUP1 SWAP2 SUB SWAP1 RETURN JUMPDEST PUSH2 0xBD PUSH2 0x175 JUMP JUMPDEST PUSH1 0x40 MLOAD PUSH2 0xCA SWAP2 SWAP1 PUSH2 0x7F5 JUMP JUMPDEST PUSH1 0x40 MLOAD DUP1 SWAP2 SUB SWAP1 RETURN JUMPDEST PUSH2 0xDB PUSH2 0x25E JUMP JUMPDEST PUSH1 0x40 MLOAD PUSH2 0xE8 SWAP2 SWAP1 PUSH2 0x817 JUMP JUMPDEST PUSH1 0x40 MLOAD DUP1 SWAP2 SUB SWAP1 RETURN JUMPDEST PUSH2 0x10B PUSH1 0x4 DUP1 CALLDATASIZE SUB DUP2 ADD SWAP1 PUSH2 0x106 SWAP2 SWAP1 PUSH2 0x53C JUMP JUMPDEST PUSH2 0x263 JUMP JUMPDEST STOP JUMPDEST PUSH2 0x127 PUSH1 0x4 DUP1 CALLDATASIZE SUB DUP2 ADD SWAP1 PUSH2 0x122 SWAP2 SWAP1 PUSH2 0x4FB JUMP JUMPDEST PUSH2 0x2F7 JUMP JUMPDEST STOP JUMPDEST PUSH1 0x0 PUSH1 0x2 DUP3 PUSH1 0x40 MLOAD PUSH2 0x13B SWAP2 SWAP1 PUSH2 0x78E JUMP JUMPDEST SWAP1 DUP2 MSTORE PUSH1 0x20 ADD PUSH1 0x40 MLOAD DUP1 SWAP2 SUB SWAP1 KECCAK256 SLOAD SWAP1 POP SWAP2 SWAP1 POP JUMP JUMPDEST PUSH1 0x0 DUP1 SLOAD SWAP1 PUSH2 0x100 EXP SWAP1 DIV PUSH20 0xFFFFFFFFFFFFFFFFFFFFFFFFFFFFFFFFFFFFFFFF AND DUP2 JUMP JUMPDEST PUSH1 0x60 PUSH1 0x3 DUP1 SLOAD DUP1 PUSH1 0x20 MUL PUSH1 0x20 ADD PUSH1 0x40 MLOAD SWAP1 DUP2 ADD PUSH1 0x40 MSTORE DUP1 SWAP3 SWAP2 SWAP1 DUP2 DUP2 MSTORE PUSH1 0x20 ADD PUSH1 0x0 SWAP1 JUMPDEST DUP3 DUP3 LT ISZERO PUSH2 0x255 JUMPI DUP4 DUP3 SWAP1 PUSH1 0x0 MSTORE PUSH1 0x20 PUSH1 0x0 KECCAK256 ADD DUP1 SLOAD PUSH1 0x1 DUP2 PUSH1 0x1 AND ISZERO PUSH2 0x100 MUL SUB AND PUSH1 0x2 SWAP1 DIV DUP1 PUSH1 0x1F ADD PUSH1 0x20 DUP1 SWAP2 DIV MUL PUSH1 0x20 ADD PUSH1 0x40 MLOAD SWAP1 DUP2 ADD PUSH1 0x40 MSTORE DUP1 SWAP3 SWAP2 SWAP1 DUP2 DUP2 MSTORE PUSH1 0x20 ADD DUP3 DUP1 SLOAD PUSH1 0x1 DUP2 PUSH1 0x1 AND ISZERO PUSH2 0x100 MUL SUB AND PUSH1 0x2 SWAP1 DIV DUP1 ISZERO PUSH2 0x241 JUMPI DUP1 PUSH1 0x1F LT PUSH2 0x216 JUMPI PUSH2 0x100 DUP1 DUP4 SLOAD DIV MUL DUP4 MSTORE SWAP2 PUSH1 0x20 ADD SWAP2 PUSH2 0x241 JUMP JUMPDEST DUP3 ADD SWAP2 SWAP1 PUSH1 0x0 MSTORE PUSH1 0x20 PUSH1 0x0 KECCAK256 SWAP1 JUMPDEST DUP2 SLOAD DUP2 MSTORE SWAP1 PUSH1 0x1 ADD SWAP1 PUSH1 0x20 ADD DUP1 DUP4 GT PUSH2 0x224 JUMPI DUP3 SWAP1 SUB PUSH1 0x1F AND DUP3 ADD SWAP2 JUMPDEST POP POP POP POP POP DUP2 MSTORE PUSH1 0x20 ADD SWAP1 PUSH1 0x1 ADD SWAP1 PUSH2 0x199 JUMP JUMPDEST POP POP POP POP SWAP1 POP SWAP1 JUMP JUMPDEST PUSH1 0x60 SWAP1 JUMP JUMPDEST PUSH1 0x0 DUP4 DUP4 DUP4 PUSH1 0x40 MLOAD PUSH1 0x20 ADD PUSH2 0x27A SWAP4 SWAP3 SWAP2 SWAP1 PUSH2 0x7A5 JUMP JUMPDEST PUSH1 0x40 MLOAD PUSH1 0x20 DUP2 DUP4 SUB SUB DUP2 MSTORE SWAP1 PUSH1 0x40 MSTORE DUP1 MLOAD SWAP1 PUSH1 0x20 ADD KECCAK256 SWAP1 POP DUP1 PUSH1 0x1 DUP6 PUSH1 0x40 MLOAD PUSH2 0x2A3 SWAP2 SWAP1 PUSH2 0x78E JUMP JUMPDEST SWAP1 DUP2 MSTORE PUSH1 0x20 ADD PUSH1 0x40 MLOAD DUP1 SWAP2 SUB SWAP1 KECCAK256 DUP2 SWAP1 SSTORE POP PUSH1 0x3 DUP5 SWAP1 DUP1 PUSH1 0x1 DUP2 SLOAD ADD DUP1 DUP3 SSTORE DUP1 SWAP2 POP POP PUSH1 0x1 SWAP1 SUB SWAP1 PUSH1 0x0 MSTORE PUSH1 0x20 PUSH1 0x0 KECCAK256 ADD PUSH1 0x0 SWAP1 SWAP2 SWAP1 SWAP2 SWAP1 SWAP2 POP SWAP1 DUP1 MLOAD SWAP1 PUSH1 0x20 ADD SWAP1 PUSH2 0x2F0 SWAP3 SWAP2 SWAP1 PUSH2 0x3F5 JUMP JUMPDEST POP POP POP POP POP JUMP JUMPDEST PUSH1 0x0 CALLER PUSH1 0x40 MLOAD PUSH1 0x20 ADD PUSH2 0x30A SWAP2 SWAP1 PUSH2 0x773 JUMP JUMPDEST PUSH1 0x40 MLOAD PUSH1 0x20 DUP2 DUP4 SUB SUB DUP2 MSTORE SWAP1 PUSH1 0x40 MSTORE DUP1 MLOAD SWAP1 PUSH1 0x20 ADD KECCAK256 SWAP1 POP PUSH1 0x0 JUMPDEST PUSH1 0x4 DUP1 SLOAD SWAP1 POP DUP2 LT ISZERO PUSH2 0x399 JUMPI PUSH1 0x4 DUP2 DUP2 SLOAD DUP2 LT PUSH2 0x33F JUMPI INVALID JUMPDEST SWAP1 PUSH1 0x0 MSTORE PUSH1 0x20 PUSH1 0x0 KECCAK256 ADD SLOAD DUP3 EQ ISZERO PUSH2 0x38C JUMPI PUSH1 0x40 MLOAD PUSH32 0x8C379A000000000000000000000000000000000000000000000000000000000 DUP2 MSTORE PUSH1 0x4 ADD PUSH2 0x383 SWAP1 PUSH2 0x839 JUMP JUMPDEST PUSH1 0x40 MLOAD DUP1 SWAP2 SUB SWAP1 REVERT JUMPDEST DUP1 DUP1 PUSH1 0x1 ADD SWAP2 POP POP PUSH2 0x325 JUMP JUMPDEST POP PUSH1 0x4 DUP2 SWAP1 DUP1 PUSH1 0x1 DUP2 SLOAD ADD DUP1 DUP3 SSTORE DUP1 SWAP2 POP POP PUSH1 0x1 SWAP1 SUB SWAP1 PUSH1 0x0 MSTORE PUSH1 0x20 PUSH1 0x0 KECCAK256 ADD PUSH1 0x0 SWAP1 SWAP2 SWAP1 SWAP2 SWAP1 SWAP2 POP SSTORE PUSH1 0x2 DUP3 PUSH1 0x40 MLOAD PUSH2 0x3D3 SWAP2 SWAP1 PUSH2 0x78E JUMP JUMPDEST SWAP1 DUP2 MSTORE PUSH1 0x20 ADD PUSH1 0x40 MLOAD DUP1 SWAP2 SUB SWAP1 KECCAK256 PUSH1 0x0 DUP2 SLOAD DUP1 SWAP3 SWAP2 SWAP1 PUSH1 0x1 ADD SWAP2 SWAP1 POP SSTORE POP POP POP JUMP JUMPDEST DUP3 DUP1 SLOAD PUSH1 0x1 DUP2 PUSH1 0x1 AND ISZERO PUSH2 0x100 MUL SUB AND PUSH1 0x2 SWAP1 DIV SWAP1 PUSH1 0x0 MSTORE PUSH1 0x20 PUSH1 0x0 KECCAK256 SWAP1 PUSH1 0x1F ADD PUSH1 0x20 SWAP1 DIV DUP2 ADD SWAP3 DUP3 PUSH1 0x1F LT PUSH2 0x436 JUMPI DUP1 MLOAD PUSH1 0xFF NOT AND DUP4 DUP1 ADD OR DUP6 SSTORE PUSH2 0x464 JUMP JUMPDEST DUP3 DUP1 ADD PUSH1 0x1 ADD DUP6 SSTORE DUP3 ISZERO PUSH2 0x464 JUMPI SWAP2 DUP3 ADD JUMPDEST DUP3 DUP2 GT ISZERO PUSH2 0x463 JUMPI DUP3 MLOAD DUP3 SSTORE SWAP2 PUSH1 0x20 ADD SWAP2 SWAP1 PUSH1 0x1 ADD SWAP1 PUSH2 0x448 JUMP JUMPDEST JUMPDEST POP SWAP1 POP PUSH2 0x471 SWAP2 SWAP1 PUSH2 0x475 JUMP JUMPDEST POP SWAP1 JUMP JUMPDEST JUMPDEST DUP1 DUP3 GT ISZERO PUSH2 0x48E JUMPI PUSH1 0x0 DUP2 PUSH1 0x0 SWAP1 SSTORE POP PUSH1 0x1 ADD PUSH2 0x476 JUMP JUMPDEST POP SWAP1 JUMP JUMPDEST PUSH1 0x0 DUP3 PUSH1 0x1F DUP4 ADD SLT PUSH2 0x4A3 JUMPI PUSH1 0x0 DUP1 REVERT JUMPDEST DUP2 CALLDATALOAD PUSH2 0x4B6 PUSH2 0x4B1 DUP3 PUSH2 0x8A1 JUMP JUMPDEST PUSH2 0x874 JUMP JUMPDEST SWAP2 POP DUP1 DUP3 MSTORE PUSH1 0x20 DUP4 ADD PUSH1 0x20 DUP4 ADD DUP6 DUP4 DUP4 ADD GT ISZERO PUSH2 0x4D2 JUMPI PUSH1 0x0 DUP1 REVERT JUMPDEST PUSH2 0x4DD DUP4 DUP3 DUP5 PUSH2 0x98C JUMP JUMPDEST POP POP POP SWAP3 SWAP2 POP POP JUMP JUMPDEST PUSH1 0x0 DUP2 CALLDATALOAD SWAP1 POP PUSH2 0x4F5 DUP2 PUSH2 0xA1A JUMP JUMPDEST SWAP3 SWAP2 POP POP JUMP JUMPDEST PUSH1 0x0 PUSH1 0x20 DUP3 DUP5 SUB SLT ISZERO PUSH2 0x50D JUMPI PUSH1 0x0 DUP1 REVERT JUMPDEST PUSH1 0x0 DUP3 ADD CALLDATALOAD PUSH8 0xFFFFFFFFFFFFFFFF DUP2 GT ISZERO PUSH2 0x527 JUMPI PUSH1 0x0 DUP1 REVERT JUMPDEST PUSH2 0x533 DUP5 DUP3 DUP6 ADD PUSH2 0x492 JUMP JUMPDEST SWAP2 POP POP SWAP3 SWAP2 POP POP JUMP JUMPDEST PUSH1 0x0 DUP1 PUSH1 0x0 PUSH1 0x60 DUP5 DUP7 SUB SLT ISZERO PUSH2 0x551 JUMPI PUSH1 0x0 DUP1 REVERT JUMPDEST PUSH1 0x0 DUP5 ADD CALLDATALOAD PUSH8 0xFFFFFFFFFFFFFFFF DUP2 GT ISZERO PUSH2 0x56B JUMPI PUSH1 0x0 DUP1 REVERT JUMPDEST PUSH2 0x577 DUP7 DUP3 DUP8 ADD PUSH2 0x492 JUMP JUMPDEST SWAP4 POP POP PUSH1 0x20 PUSH2 0x588 DUP7 DUP3 DUP8 ADD PUSH2 0x4E6 JUMP JUMPDEST SWAP3 POP POP PUSH1 0x40 DUP5 ADD CALLDATALOAD PUSH8 0xFFFFFFFFFFFFFFFF DUP2 GT ISZERO PUSH2 0x5A5 JUMPI PUSH1 0x0 DUP1 REVERT JUMPDEST PUSH2 0x5B1 DUP7 DUP3 DUP8 ADD PUSH2 0x492 JUMP JUMPDEST SWAP2 POP POP SWAP3 POP SWAP3 POP SWAP3 JUMP JUMPDEST PUSH1 0x0 PUSH2 0x5C7 DUP4 DUP4 PUSH2 0x66A JUMP JUMPDEST SWAP1 POP SWAP3 SWAP2 POP POP JUMP JUMPDEST PUSH2 0x5E0 PUSH2 0x5DB DUP3 PUSH2 0x950 JUMP JUMPDEST PUSH2 0x9CE JUMP JUMPDEST DUP3 MSTORE POP POP JUMP JUMPDEST PUSH2 0x5EF DUP2 PUSH2 0x93E JUMP JUMPDEST DUP3 MSTORE POP POP JUMP JUMPDEST PUSH1 0x0 PUSH2 0x600 DUP3 PUSH2 0x8DD JUMP JUMPDEST PUSH2 0x60A DUP2 DUP6 PUSH2 0x900 JUMP JUMPDEST SWAP4 POP DUP4 PUSH1 0x20 DUP3 MUL DUP6 ADD PUSH2 0x61C DUP6 PUSH2 0x8CD JUMP JUMPDEST DUP1 PUSH1 0x0 JUMPDEST DUP6 DUP2 LT ISZERO PUSH2 0x658 JUMPI DUP5 DUP5 SUB DUP10 MSTORE DUP2 MLOAD PUSH2 0x639 DUP6 DUP3 PUSH2 0x5BB JUMP JUMPDEST SWAP5 POP PUSH2 0x644 DUP4 PUSH2 0x8F3 JUMP JUMPDEST SWAP3 POP PUSH1 0x20 DUP11 ADD SWAP10 POP POP PUSH1 0x1 DUP2 ADD SWAP1 POP PUSH2 0x620 JUMP JUMPDEST POP DUP3 SWAP8 POP DUP8 SWAP6 POP POP POP POP POP POP SWAP3 SWAP2 POP POP JUMP JUMPDEST PUSH1 0x0 PUSH2 0x675 DUP3 PUSH2 0x8E8 JUMP JUMPDEST PUSH2 0x67F DUP2 DUP6 PUSH2 0x911 JUMP JUMPDEST SWAP4 POP PUSH2 0x68F DUP2 DUP6 PUSH1 0x20 DUP7 ADD PUSH2 0x99B JUMP JUMPDEST PUSH2 0x698 DUP2 PUSH2 0x9FC JUMP JUMPDEST DUP5 ADD SWAP2 POP POP SWAP3 SWAP2 POP POP JUMP JUMPDEST PUSH1 0x0 PUSH2 0x6AE DUP3 PUSH2 0x8E8 JUMP JUMPDEST PUSH2 0x6B8 DUP2 DUP6 PUSH2 0x922 JUMP JUMPDEST SWAP4 POP PUSH2 0x6C8 DUP2 DUP6 PUSH1 0x20 DUP7 ADD PUSH2 0x99B JUMP JUMPDEST PUSH2 0x6D1 DUP2 PUSH2 0x9FC JUMP JUMPDEST DUP5 ADD SWAP2 POP POP SWAP3 SWAP2 POP POP JUMP JUMPDEST PUSH1 0x0 PUSH2 0x6E7 DUP3 PUSH2 0x8E8 JUMP JUMPDEST PUSH2 0x6F1 DUP2 DUP6 PUSH2 0x933 JUMP JUMPDEST SWAP4 POP PUSH2 0x701 DUP2 DUP6 PUSH1 0x20 DUP7 ADD PUSH2 0x99B JUMP JUMPDEST DUP1 DUP5 ADD SWAP2 POP POP SWAP3 SWAP2 POP POP JUMP JUMPDEST PUSH1 0x0 PUSH2 0x71A PUSH1 0x1B DUP4 PUSH2 0x922 JUMP JUMPDEST SWAP2 POP PUSH32 0x596120736520686120766F7461646F207072657669616D656E74650000000000 PUSH1 0x0 DUP4 ADD MSTORE PUSH1 0x20 DUP3 ADD SWAP1 POP SWAP2 SWAP1 POP JUMP JUMPDEST PUSH2 0x756 DUP2 PUSH2 0x982 JUMP JUMPDEST DUP3 MSTORE POP POP JUMP JUMPDEST PUSH2 0x76D PUSH2 0x768 DUP3 PUSH2 0x982 JUMP JUMPDEST PUSH2 0x9F2 JUMP JUMPDEST DUP3 MSTORE POP POP JUMP JUMPDEST PUSH1 0x0 PUSH2 0x77F DUP3 DUP5 PUSH2 0x5CF JUMP JUMPDEST PUSH1 0x14 DUP3 ADD SWAP2 POP DUP2 SWAP1 POP SWAP3 SWAP2 POP POP JUMP JUMPDEST PUSH1 0x0 PUSH2 0x79A DUP3 DUP5 PUSH2 0x6DC JUMP JUMPDEST SWAP2 POP DUP2 SWAP1 POP SWAP3 SWAP2 POP POP JUMP JUMPDEST PUSH1 0x0 PUSH2 0x7B1 DUP3 DUP7 PUSH2 0x6DC JUMP JUMPDEST SWAP2 POP PUSH2 0x7BD DUP3 DUP6 PUSH2 0x75C JUMP JUMPDEST PUSH1 0x20 DUP3 ADD SWAP2 POP PUSH2 0x7CD DUP3 DUP5 PUSH2 0x6DC JUMP JUMPDEST SWAP2 POP DUP2 SWAP1 POP SWAP5 SWAP4 POP POP POP POP JUMP JUMPDEST PUSH1 0x0 PUSH1 0x20 DUP3 ADD SWAP1 POP PUSH2 0x7EF PUSH1 0x0 DUP4 ADD DUP5 PUSH2 0x5E6 JUMP JUMPDEST SWAP3 SWAP2 POP POP JUMP JUMPDEST PUSH1 0x0 PUSH1 0x20 DUP3 ADD SWAP1 POP DUP2 DUP2 SUB PUSH1 0x0 DUP4 ADD MSTORE PUSH2 0x80F DUP2 DUP5 PUSH2 0x5F5 JUMP JUMPDEST SWAP1 POP SWAP3 SWAP2 POP POP JUMP JUMPDEST PUSH1 0x0 PUSH1 0x20 DUP3 ADD SWAP1 POP DUP2 DUP2 SUB PUSH1 0x0 DUP4 ADD MSTORE PUSH2 0x831 DUP2 DUP5 PUSH2 0x6A3 JUMP JUMPDEST SWAP1 POP SWAP3 SWAP2 POP POP JUMP JUMPDEST PUSH1 0x0 PUSH1 0x20 DUP3 ADD SWAP1 POP DUP2 DUP2 SUB PUSH1 0x0 DUP4 ADD MSTORE PUSH2 0x852 DUP2 PUSH2 0x70D JUMP JUMPDEST SWAP1 POP SWAP2 SWAP1 POP JUMP JUMPDEST PUSH1 0x0 PUSH1 0x20 DUP3 ADD SWAP1 POP PUSH2 0x86E PUSH1 0x0 DUP4 ADD DUP5 PUSH2 0x74D JUMP JUMPDEST SWAP3 SWAP2 POP POP JUMP JUMPDEST PUSH1 0x0 PUSH1 0x40 MLOAD SWAP1 POP DUP2 DUP2 ADD DUP2 DUP2 LT PUSH8 0xFFFFFFFFFFFFFFFF DUP3 GT OR ISZERO PUSH2 0x897 JUMPI PUSH1 0x0 DUP1 REVERT JUMPDEST DUP1 PUSH1 0x40 MSTORE POP SWAP2 SWAP1 POP JUMP JUMPDEST PUSH1 0x0 PUSH8 0xFFFFFFFFFFFFFFFF DUP3 GT ISZERO PUSH2 0x8B8 JUMPI PUSH1 0x0 DUP1 REVERT JUMPDEST PUSH1 0x1F NOT PUSH1 0x1F DUP4 ADD AND SWAP1 POP PUSH1 0x20 DUP2 ADD SWAP1 POP SWAP2 SWAP1 POP JUMP JUMPDEST PUSH1 0x0 DUP2 SWAP1 POP PUSH1 0x20 DUP3 ADD SWAP1 POP SWAP2 SWAP1 POP JUMP JUMPDEST PUSH1 0x0 DUP2 MLOAD SWAP1 POP SWAP2 SWAP1 POP JUMP JUMPDEST PUSH1 0x0 DUP2 MLOAD SWAP1 POP SWAP2 SWAP1 POP JUMP JUMPDEST PUSH1 0x0 PUSH1 0x20 DUP3 ADD SWAP1 POP SWAP2 SWAP1 POP JUMP JUMPDEST PUSH1 0x0 DUP3 DUP3 MSTORE PUSH1 0x20 DUP3 ADD SWAP1 POP SWAP3 SWAP2 POP POP JUMP JUMPDEST PUSH1 0x0 DUP3 DUP3 MSTORE PUSH1 0x20 DUP3 ADD SWAP1 POP SWAP3 SWAP2 POP POP JUMP JUMPDEST PUSH1 0x0 DUP3 DUP3 MSTORE PUSH1 0x20 DUP3 ADD SWAP1 POP SWAP3 SWAP2 POP POP JUMP JUMPDEST PUSH1 0x0 DUP2 SWAP1 POP SWAP3 SWAP2 POP POP JUMP JUMPDEST PUSH1 0x0 PUSH2 0x949 DUP3 PUSH2 0x962 JUMP JUMPDEST SWAP1 POP SWAP2 SWAP1 POP JUMP JUMPDEST PUSH1 0x0 PUSH2 0x95B DUP3 PUSH2 0x962 JUMP JUMPDEST SWAP1 POP SWAP2 SWAP1 POP JUMP JUMPDEST PUSH1 0x0 PUSH20 0xFFFFFFFFFFFFFFFFFFFFFFFFFFFFFFFFFFFFFFFF DUP3 AND SWAP1 POP SWAP2 SWAP1 POP JUMP JUMPDEST PUSH1 0x0 DUP2 SWAP1 POP SWAP2 SWAP1 POP JUMP JUMPDEST DUP3 DUP2 DUP4 CALLDATACOPY PUSH1 0x0 DUP4 DUP4 ADD MSTORE POP POP POP JUMP JUMPDEST PUSH1 0x0 JUMPDEST DUP4 DUP2 LT ISZERO PUSH2 0x9B9 JUMPI DUP1 DUP3 ADD MLOAD DUP2 DUP5 ADD MSTORE PUSH1 0x20 DUP2 ADD SWAP1 POP PUSH2 0x99E JUMP JUMPDEST DUP4 DUP2 GT ISZERO PUSH2 0x9C8 JUMPI PUSH1 0x0 DUP5 DUP5 ADD MSTORE JUMPDEST POP POP POP POP JUMP JUMPDEST PUSH1 0x0 PUSH2 0x9D9 DUP3 PUSH2 0x9E0 JUMP JUMPDEST SWAP1 POP SWAP2 SWAP1 POP JUMP JUMPDEST PUSH1 0x0 PUSH2 0x9EB DUP3 PUSH2 0xA0D JUMP JUMPDEST SWAP1 POP SWAP2 SWAP1 POP JUMP JUMPDEST PUSH1 0x0 DUP2 SWAP1 POP SWAP2 SWAP1 POP JUMP JUMPDEST PUSH1 0x0 PUSH1 0x1F NOT PUSH1 0x1F DUP4 ADD AND SWAP1 POP SWAP2 SWAP1 POP JUMP JUMPDEST PUSH1 0x0 DUP2 PUSH1 0x60 SHL SWAP1 POP SWAP2 SWAP1 POP JUMP JUMPDEST PUSH2 0xA23 DUP2 PUSH2 0x982 JUMP JUMPDEST DUP2 EQ PUSH2 0xA2E JUMPI PUSH1 0x0 DUP1 REVERT JUMPDEST POP JUMP INVALID LOG2 PUSH5 0x6970667358 0x22 SLT KECCAK256 0x48 0x21 DIV PUSH5 0x4785463509 SGT EQ SSTORE 0xA7 PUSH18 0x111AE7FC75209C0351262D3589130DA4E058 PUSH5 0x736F6C6343 STOP MOD 0xC STOP CALLER "
				},
				"gasEstimates": {
					"creation": {
						"codeDepositCost": "532600",
						"executionCost": "21434",
						"totalCost": "554034"
					},
					"external": {
						"Representar(string,uint256,string)": "infinite",
						"VerCandidatos()": "infinite",
						"VerResultados()": "infinite",
						"VerVotosCandidatos(string)": "infinite",
						"Votar(string)": "infinite",
						"owner()": "1211"
					}
				},
				"methodIdentifiers": {
					"Representar(string,uint256,string)": "f01ca6b7",
					"VerCandidatos()": "bfc2e938",
					"VerResultados()": "e7bf56fa",
					"VerVotosCandidatos(string)": "4c25de51",
					"Votar(string)": "febe07dc",
					"owner()": "8da5cb5b"
				}
			},
			"storageLayout": {
				"storage": [
					{
						"astId": 4,
						"contract": "Votaciones/votaciones.sol:votacion",
						"label": "owner",
						"offset": 0,
						"slot": "0",
						"type": "t_address"
					},
					{
						"astId": 8,
						"contract": "Votaciones/votaciones.sol:votacion",
						"label": "Candidato",
						"offset": 0,
						"slot": "1",
						"type": "t_mapping(t_string_memory_ptr,t_bytes32)"
					},
					{
						"astId": 12,
						"contract": "Votaciones/votaciones.sol:votacion",
						"label": "VotosCandidato",
						"offset": 0,
						"slot": "2",
						"type": "t_mapping(t_string_memory_ptr,t_uint256)"
					},
					{
						"astId": 15,
						"contract": "Votaciones/votaciones.sol:votacion",
						"label": "candidatos",
						"offset": 0,
						"slot": "3",
						"type": "t_array(t_string_storage)dyn_storage"
					},
					{
						"astId": 18,
						"contract": "Votaciones/votaciones.sol:votacion",
						"label": "votantes",
						"offset": 0,
						"slot": "4",
						"type": "t_array(t_bytes32)dyn_storage"
					}
				],
				"types": {
					"t_address": {
						"encoding": "inplace",
						"label": "address",
						"numberOfBytes": "20"
					},
					"t_array(t_bytes32)dyn_storage": {
						"base": "t_bytes32",
						"encoding": "dynamic_array",
						"label": "bytes32[]",
						"numberOfBytes": "32"
					},
					"t_array(t_string_storage)dyn_storage": {
						"base": "t_string_storage",
						"encoding": "dynamic_array",
						"label": "string[]",
						"numberOfBytes": "32"
					},
					"t_bytes32": {
						"encoding": "inplace",
						"label": "bytes32",
						"numberOfBytes": "32"
					},
					"t_mapping(t_string_memory_ptr,t_bytes32)": {
						"encoding": "mapping",
						"key": "t_string_memory_ptr",
						"label": "mapping(string => bytes32)",
						"numberOfBytes": "32",
						"value": "t_bytes32"
					},
					"t_mapping(t_string_memory_ptr,t_uint256)": {
						"encoding": "mapping",
						"key": "t_string_memory_ptr",
						"label": "mapping(string => uint256)",
						"numberOfBytes": "32",
						"value": "t_uint256"
					},
					"t_string_memory_ptr": {
						"encoding": "bytes",
						"label": "string",
						"numberOfBytes": "32"
					},
					"t_string_storage": {
						"encoding": "bytes",
						"label": "string",
						"numberOfBytes": "32"
					},
					"t_uint256": {
						"encoding": "inplace",
						"label": "uint256",
						"numberOfBytes": "32"
					}
				}
			},
			"userdoc": {
				"kind": "user",
				"methods": {},
				"version": 1
			}
		}
	}
}