{
	"Votaciones/votaciones.sol": {
		"votacion": {
			"abi": [
				{
					"inputs": [],
					"stateMutability": "nonpayable",
					"type": "constructor"
				},
				{
					"inputs": [
						{
							"internalType": "string",
							"name": "_nombre",
							"type": "string"
						},
						{
							"internalType": "uint256",
							"name": "_edad",
							"type": "uint256"
						}
					],
					"name": "Representar",
					"outputs": [],
					"stateMutability": "nonpayable",
					"type": "function"
				},
				{
					"inputs": [],
					"name": "owner",
					"outputs": [
						{
							"internalType": "address",
							"name": "",
							"type": "address"
						}
					],
					"stateMutability": "view",
					"type": "function"
				}
			],
			"devdoc": {
				"kind": "dev",
				"methods": {},
				"version": 1
			},
			"evm": {
				"assembly": "    /* \"Votaciones/votaciones.sol\":102:764  contract votacion {\r... */\n  mstore(0x40, 0x80)\n    /* \"Votaciones/votaciones.sol\":204:263  constructor () public {\r... */\n  callvalue\n  dup1\n  iszero\n  tag_1\n  jumpi\n  0x00\n  dup1\n  revert\ntag_1:\n  pop\n    /* \"Votaciones/votaciones.sol\":245:255  msg.sender */\n  caller\n    /* \"Votaciones/votaciones.sol\":237:242  owner */\n  0x00\n  dup1\n    /* \"Votaciones/votaciones.sol\":237:255  owner = msg.sender */\n  0x0100\n  exp\n  dup2\n  sload\n  dup2\n  0xffffffffffffffffffffffffffffffffffffffff\n  mul\n  not\n  and\n  swap1\n  dup4\n  0xffffffffffffffffffffffffffffffffffffffff\n  and\n  mul\n  or\n  swap1\n  sstore\n  pop\n    /* \"Votaciones/votaciones.sol\":102:764  contract votacion {\r... */\n  dataSize(sub_0)\n  dup1\n  dataOffset(sub_0)\n  0x00\n  codecopy\n  0x00\n  return\nstop\n\nsub_0: assembly {\n        /* \"Votaciones/votaciones.sol\":102:764  contract votacion {\r... */\n      mstore(0x40, 0x80)\n      callvalue\n      dup1\n      iszero\n      tag_1\n      jumpi\n      0x00\n      dup1\n      revert\n    tag_1:\n      pop\n      jumpi(tag_2, lt(calldatasize, 0x04))\n      shr(0xe0, calldataload(0x00))\n      dup1\n      0x8da5cb5b\n      eq\n      tag_3\n      jumpi\n      dup1\n      0xa36b0ab0\n      eq\n      tag_4\n      jumpi\n    tag_2:\n      0x00\n      dup1\n      revert\n        /* \"Votaciones/votaciones.sol\":175:195  address public owner */\n    tag_3:\n      tag_5\n      tag_6\n      jump\t// in\n    tag_5:\n      mload(0x40)\n      tag_7\n      swap2\n      swap1\n      tag_8\n      jump\t// in\n    tag_7:\n      mload(0x40)\n      dup1\n      swap2\n      sub\n      swap1\n      return\n        /* \"Votaciones/votaciones.sol\":688:761  function Representar(string memory _nombre, uint _edad) public {\r... */\n    tag_4:\n      tag_9\n      0x04\n      dup1\n      calldatasize\n      sub\n      dup2\n      add\n      swap1\n      tag_10\n      swap2\n      swap1\n      tag_11\n      jump\t// in\n    tag_10:\n      tag_12\n      jump\t// in\n    tag_9:\n      stop\n        /* \"Votaciones/votaciones.sol\":175:195  address public owner */\n    tag_6:\n      0x00\n      dup1\n      sload\n      swap1\n      0x0100\n      exp\n      swap1\n      div\n      0xffffffffffffffffffffffffffffffffffffffff\n      and\n      dup2\n      jump\t// out\n        /* \"Votaciones/votaciones.sol\":688:761  function Representar(string memory _nombre, uint _edad) public {\r... */\n    tag_12:\n      pop\n      pop\n      jump\t// out\n        /* \"--CODEGEN--\":6:448   */\n    tag_15:\n      0x00\n        /* \"--CODEGEN--\":108:111   */\n      dup3\n        /* \"--CODEGEN--\":101:105   */\n      0x1f\n        /* \"--CODEGEN--\":93:99   */\n      dup4\n        /* \"--CODEGEN--\":89:106   */\n      add\n        /* \"--CODEGEN--\":85:112   */\n      slt\n        /* \"--CODEGEN--\":75:77   */\n      tag_17\n      jumpi\n        /* \"--CODEGEN--\":126:127   */\n      0x00\n        /* \"--CODEGEN--\":123:124   */\n      dup1\n        /* \"--CODEGEN--\":116:128   */\n      revert\n        /* \"--CODEGEN--\":75:77   */\n    tag_17:\n        /* \"--CODEGEN--\":163:169   */\n      dup2\n        /* \"--CODEGEN--\":150:170   */\n      calldataload\n        /* \"--CODEGEN--\":185:250   */\n      tag_18\n        /* \"--CODEGEN--\":200:249   */\n      tag_19\n        /* \"--CODEGEN--\":242:248   */\n      dup3\n        /* \"--CODEGEN--\":200:249   */\n      tag_20\n      jump\t// in\n    tag_19:\n        /* \"--CODEGEN--\":185:250   */\n      tag_21\n      jump\t// in\n    tag_18:\n        /* \"--CODEGEN--\":176:250   */\n      swap2\n      pop\n        /* \"--CODEGEN--\":270:276   */\n      dup1\n        /* \"--CODEGEN--\":263:268   */\n      dup3\n        /* \"--CODEGEN--\":256:277   */\n      mstore\n        /* \"--CODEGEN--\":306:310   */\n      0x20\n        /* \"--CODEGEN--\":298:304   */\n      dup4\n        /* \"--CODEGEN--\":294:311   */\n      add\n        /* \"--CODEGEN--\":339:343   */\n      0x20\n        /* \"--CODEGEN--\":332:337   */\n      dup4\n        /* \"--CODEGEN--\":328:344   */\n      add\n        /* \"--CODEGEN--\":374:377   */\n      dup6\n        /* \"--CODEGEN--\":365:371   */\n      dup4\n        /* \"--CODEGEN--\":360:363   */\n      dup4\n        /* \"--CODEGEN--\":356:372   */\n      add\n        /* \"--CODEGEN--\":353:378   */\n      gt\n        /* \"--CODEGEN--\":350:352   */\n      iszero\n      tag_22\n      jumpi\n        /* \"--CODEGEN--\":391:392   */\n      0x00\n        /* \"--CODEGEN--\":388:389   */\n      dup1\n        /* \"--CODEGEN--\":381:393   */\n      revert\n        /* \"--CODEGEN--\":350:352   */\n    tag_22:\n        /* \"--CODEGEN--\":401:442   */\n      tag_23\n        /* \"--CODEGEN--\":435:441   */\n      dup4\n        /* \"--CODEGEN--\":430:433   */\n      dup3\n        /* \"--CODEGEN--\":425:428   */\n      dup5\n        /* \"--CODEGEN--\":401:442   */\n      tag_24\n      jump\t// in\n    tag_23:\n        /* \"--CODEGEN--\":68:448   */\n      pop\n      pop\n      pop\n      swap3\n      swap2\n      pop\n      pop\n      jump\t// out\n        /* \"--CODEGEN--\":456:586   */\n    tag_25:\n      0x00\n        /* \"--CODEGEN--\":536:542   */\n      dup2\n        /* \"--CODEGEN--\":523:543   */\n      calldataload\n        /* \"--CODEGEN--\":514:543   */\n      swap1\n      pop\n        /* \"--CODEGEN--\":548:581   */\n      tag_27\n        /* \"--CODEGEN--\":575:580   */\n      dup2\n        /* \"--CODEGEN--\":548:581   */\n      tag_28\n      jump\t// in\n    tag_27:\n        /* \"--CODEGEN--\":508:586   */\n      swap3\n      swap2\n      pop\n      pop\n      jump\t// out\n        /* \"--CODEGEN--\":593:1065   */\n    tag_11:\n      0x00\n      dup1\n        /* \"--CODEGEN--\":724:726   */\n      0x40\n        /* \"--CODEGEN--\":712:721   */\n      dup4\n        /* \"--CODEGEN--\":703:710   */\n      dup6\n        /* \"--CODEGEN--\":699:722   */\n      sub\n        /* \"--CODEGEN--\":695:727   */\n      slt\n        /* \"--CODEGEN--\":692:694   */\n      iszero\n      tag_30\n      jumpi\n        /* \"--CODEGEN--\":740:741   */\n      0x00\n        /* \"--CODEGEN--\":737:738   */\n      dup1\n        /* \"--CODEGEN--\":730:742   */\n      revert\n        /* \"--CODEGEN--\":692:694   */\n    tag_30:\n        /* \"--CODEGEN--\":803:804   */\n      0x00\n        /* \"--CODEGEN--\":792:801   */\n      dup4\n        /* \"--CODEGEN--\":788:805   */\n      add\n        /* \"--CODEGEN--\":775:806   */\n      calldataload\n        /* \"--CODEGEN--\":826:844   */\n      0xffffffffffffffff\n        /* \"--CODEGEN--\":818:824   */\n      dup2\n        /* \"--CODEGEN--\":815:845   */\n      gt\n        /* \"--CODEGEN--\":812:814   */\n      iszero\n      tag_31\n      jumpi\n        /* \"--CODEGEN--\":858:859   */\n      0x00\n        /* \"--CODEGEN--\":855:856   */\n      dup1\n        /* \"--CODEGEN--\":848:860   */\n      revert\n        /* \"--CODEGEN--\":812:814   */\n    tag_31:\n        /* \"--CODEGEN--\":878:941   */\n      tag_32\n        /* \"--CODEGEN--\":933:940   */\n      dup6\n        /* \"--CODEGEN--\":924:930   */\n      dup3\n        /* \"--CODEGEN--\":913:922   */\n      dup7\n        /* \"--CODEGEN--\":909:931   */\n      add\n        /* \"--CODEGEN--\":878:941   */\n      tag_15\n      jump\t// in\n    tag_32:\n        /* \"--CODEGEN--\":868:941   */\n      swap3\n      pop\n        /* \"--CODEGEN--\":754:947   */\n      pop\n        /* \"--CODEGEN--\":978:980   */\n      0x20\n        /* \"--CODEGEN--\":996:1049   */\n      tag_33\n        /* \"--CODEGEN--\":1041:1048   */\n      dup6\n        /* \"--CODEGEN--\":1032:1038   */\n      dup3\n        /* \"--CODEGEN--\":1021:1030   */\n      dup7\n        /* \"--CODEGEN--\":1017:1039   */\n      add\n        /* \"--CODEGEN--\":996:1049   */\n      tag_25\n      jump\t// in\n    tag_33:\n        /* \"--CODEGEN--\":986:1049   */\n      swap2\n      pop\n        /* \"--CODEGEN--\":957:1055   */\n      pop\n        /* \"--CODEGEN--\":686:1065   */\n      swap3\n      pop\n      swap3\n      swap1\n      pop\n      jump\t// out\n        /* \"--CODEGEN--\":1072:1185   */\n    tag_34:\n        /* \"--CODEGEN--\":1155:1179   */\n      tag_36\n        /* \"--CODEGEN--\":1173:1178   */\n      dup2\n        /* \"--CODEGEN--\":1155:1179   */\n      tag_37\n      jump\t// in\n    tag_36:\n        /* \"--CODEGEN--\":1150:1153   */\n      dup3\n        /* \"--CODEGEN--\":1143:1180   */\n      mstore\n        /* \"--CODEGEN--\":1137:1185   */\n      pop\n      pop\n      jump\t// out\n        /* \"--CODEGEN--\":1192:1414   */\n    tag_8:\n      0x00\n        /* \"--CODEGEN--\":1319:1321   */\n      0x20\n        /* \"--CODEGEN--\":1308:1317   */\n      dup3\n        /* \"--CODEGEN--\":1304:1322   */\n      add\n        /* \"--CODEGEN--\":1296:1322   */\n      swap1\n      pop\n        /* \"--CODEGEN--\":1333:1404   */\n      tag_39\n        /* \"--CODEGEN--\":1401:1402   */\n      0x00\n        /* \"--CODEGEN--\":1390:1399   */\n      dup4\n        /* \"--CODEGEN--\":1386:1403   */\n      add\n        /* \"--CODEGEN--\":1377:1383   */\n      dup5\n        /* \"--CODEGEN--\":1333:1404   */\n      tag_34\n      jump\t// in\n    tag_39:\n        /* \"--CODEGEN--\":1290:1414   */\n      swap3\n      swap2\n      pop\n      pop\n      jump\t// out\n        /* \"--CODEGEN--\":1421:1677   */\n    tag_21:\n      0x00\n        /* \"--CODEGEN--\":1483:1485   */\n      0x40\n        /* \"--CODEGEN--\":1477:1486   */\n      mload\n        /* \"--CODEGEN--\":1467:1486   */\n      swap1\n      pop\n        /* \"--CODEGEN--\":1521:1525   */\n      dup2\n        /* \"--CODEGEN--\":1513:1519   */\n      dup2\n        /* \"--CODEGEN--\":1509:1526   */\n      add\n        /* \"--CODEGEN--\":1620:1626   */\n      dup2\n        /* \"--CODEGEN--\":1608:1618   */\n      dup2\n        /* \"--CODEGEN--\":1605:1627   */\n      lt\n        /* \"--CODEGEN--\":1584:1602   */\n      0xffffffffffffffff\n        /* \"--CODEGEN--\":1572:1582   */\n      dup3\n        /* \"--CODEGEN--\":1569:1603   */\n      gt\n        /* \"--CODEGEN--\":1566:1628   */\n      or\n        /* \"--CODEGEN--\":1563:1565   */\n      iszero\n      tag_41\n      jumpi\n        /* \"--CODEGEN--\":1641:1642   */\n      0x00\n        /* \"--CODEGEN--\":1638:1639   */\n      dup1\n        /* \"--CODEGEN--\":1631:1643   */\n      revert\n        /* \"--CODEGEN--\":1563:1565   */\n    tag_41:\n        /* \"--CODEGEN--\":1661:1671   */\n      dup1\n        /* \"--CODEGEN--\":1657:1659   */\n      0x40\n        /* \"--CODEGEN--\":1650:1672   */\n      mstore\n        /* \"--CODEGEN--\":1461:1677   */\n      pop\n      swap2\n      swap1\n      pop\n      jump\t// out\n        /* \"--CODEGEN--\":1684:2006   */\n    tag_20:\n      0x00\n        /* \"--CODEGEN--\":1828:1846   */\n      0xffffffffffffffff\n        /* \"--CODEGEN--\":1820:1826   */\n      dup3\n        /* \"--CODEGEN--\":1817:1847   */\n      gt\n        /* \"--CODEGEN--\":1814:1816   */\n      iszero\n      tag_43\n      jumpi\n        /* \"--CODEGEN--\":1860:1861   */\n      0x00\n        /* \"--CODEGEN--\":1857:1858   */\n      dup1\n        /* \"--CODEGEN--\":1850:1862   */\n      revert\n        /* \"--CODEGEN--\":1814:1816   */\n    tag_43:\n        /* \"--CODEGEN--\":1927:1931   */\n      0x1f\n        /* \"--CODEGEN--\":1923:1932   */\n      not\n        /* \"--CODEGEN--\":1916:1920   */\n      0x1f\n        /* \"--CODEGEN--\":1908:1914   */\n      dup4\n        /* \"--CODEGEN--\":1904:1921   */\n      add\n        /* \"--CODEGEN--\":1900:1933   */\n      and\n        /* \"--CODEGEN--\":1892:1933   */\n      swap1\n      pop\n        /* \"--CODEGEN--\":1991:1995   */\n      0x20\n        /* \"--CODEGEN--\":1985:1989   */\n      dup2\n        /* \"--CODEGEN--\":1981:1996   */\n      add\n        /* \"--CODEGEN--\":1973:1996   */\n      swap1\n      pop\n        /* \"--CODEGEN--\":1751:2006   */\n      swap2\n      swap1\n      pop\n      jump\t// out\n        /* \"--CODEGEN--\":2013:2104   */\n    tag_37:\n      0x00\n        /* \"--CODEGEN--\":2075:2099   */\n      tag_45\n        /* \"--CODEGEN--\":2093:2098   */\n      dup3\n        /* \"--CODEGEN--\":2075:2099   */\n      tag_46\n      jump\t// in\n    tag_45:\n        /* \"--CODEGEN--\":2064:2099   */\n      swap1\n      pop\n        /* \"--CODEGEN--\":2058:2104   */\n      swap2\n      swap1\n      pop\n      jump\t// out\n        /* \"--CODEGEN--\":2111:2232   */\n    tag_46:\n      0x00\n        /* \"--CODEGEN--\":2184:2226   */\n      0xffffffffffffffffffffffffffffffffffffffff\n        /* \"--CODEGEN--\":2177:2182   */\n      dup3\n        /* \"--CODEGEN--\":2173:2227   */\n      and\n        /* \"--CODEGEN--\":2162:2227   */\n      swap1\n      pop\n        /* \"--CODEGEN--\":2156:2232   */\n      swap2\n      swap1\n      pop\n      jump\t// out\n        /* \"--CODEGEN--\":2239:2311   */\n    tag_48:\n      0x00\n        /* \"--CODEGEN--\":2301:2306   */\n      dup2\n        /* \"--CODEGEN--\":2290:2306   */\n      swap1\n      pop\n        /* \"--CODEGEN--\":2284:2311   */\n      swap2\n      swap1\n      pop\n      jump\t// out\n        /* \"--CODEGEN--\":2319:2464   */\n    tag_24:\n        /* \"--CODEGEN--\":2400:2406   */\n      dup3\n        /* \"--CODEGEN--\":2395:2398   */\n      dup2\n        /* \"--CODEGEN--\":2390:2393   */\n      dup4\n        /* \"--CODEGEN--\":2377:2407   */\n      calldatacopy\n        /* \"--CODEGEN--\":2456:2457   */\n      0x00\n        /* \"--CODEGEN--\":2447:2453   */\n      dup4\n        /* \"--CODEGEN--\":2442:2445   */\n      dup4\n        /* \"--CODEGEN--\":2438:2454   */\n      add\n        /* \"--CODEGEN--\":2431:2458   */\n      mstore\n        /* \"--CODEGEN--\":2370:2464   */\n      pop\n      pop\n      pop\n      jump\t// out\n        /* \"--CODEGEN--\":2472:2589   */\n    tag_28:\n        /* \"--CODEGEN--\":2541:2565   */\n      tag_52\n        /* \"--CODEGEN--\":2559:2564   */\n      dup2\n        /* \"--CODEGEN--\":2541:2565   */\n      tag_48\n      jump\t// in\n    tag_52:\n        /* \"--CODEGEN--\":2534:2539   */\n      dup2\n        /* \"--CODEGEN--\":2531:2566   */\n      eq\n        /* \"--CODEGEN--\":2521:2523   */\n      tag_53\n      jumpi\n        /* \"--CODEGEN--\":2580:2581   */\n      0x00\n        /* \"--CODEGEN--\":2577:2578   */\n      dup1\n        /* \"--CODEGEN--\":2570:2582   */\n      revert\n        /* \"--CODEGEN--\":2521:2523   */\n    tag_53:\n        /* \"--CODEGEN--\":2515:2589   */\n      pop\n      jump\t// out\n\n    auxdata: 0xa2646970667358221220d0aeeda87a34b8aabbd1b142863130d3a1b887d4561177a3964bb91df118e82664736f6c634300060c0033\n}\n",
				"bytecode": {
					"linkReferences": {},
					"object": "608060405234801561001057600080fd5b50336000806101000a81548173ffffffffffffffffffffffffffffffffffffffff021916908373ffffffffffffffffffffffffffffffffffffffff160217905550610275806100606000396000f3fe608060405234801561001057600080fd5b50600436106100365760003560e01c80638da5cb5b1461003b578063a36b0ab014610059575b600080fd5b610043610075565b6040516100509190610169565b60405180910390f35b610073600480360381019061006e9190610106565b610099565b005b60008054906101000a900473ffffffffffffffffffffffffffffffffffffffff1681565b5050565b600082601f8301126100ae57600080fd5b81356100c16100bc826101b1565b610184565b915080825260208301602083018583830111156100dd57600080fd5b6100e8838284610219565b50505092915050565b60008135905061010081610228565b92915050565b6000806040838503121561011957600080fd5b600083013567ffffffffffffffff81111561013357600080fd5b61013f8582860161009d565b9250506020610150858286016100f1565b9150509250929050565b610163816101dd565b82525050565b600060208201905061017e600083018461015a565b92915050565b6000604051905081810181811067ffffffffffffffff821117156101a757600080fd5b8060405250919050565b600067ffffffffffffffff8211156101c857600080fd5b601f19601f8301169050602081019050919050565b60006101e8826101ef565b9050919050565b600073ffffffffffffffffffffffffffffffffffffffff82169050919050565b6000819050919050565b82818337600083830152505050565b6102318161020f565b811461023c57600080fd5b5056fea2646970667358221220d0aeeda87a34b8aabbd1b142863130d3a1b887d4561177a3964bb91df118e82664736f6c634300060c0033",
					"opcodes": "PUSH1 0x80 PUSH1 0x40 MSTORE CALLVALUE DUP1 ISZERO PUSH2 0x10 JUMPI PUSH1 0x0 DUP1 REVERT JUMPDEST POP CALLER PUSH1 0x0 DUP1 PUSH2 0x100 EXP DUP2 SLOAD DUP2 PUSH20 0xFFFFFFFFFFFFFFFFFFFFFFFFFFFFFFFFFFFFFFFF MUL NOT AND SWAP1 DUP4 PUSH20 0xFFFFFFFFFFFFFFFFFFFFFFFFFFFFFFFFFFFFFFFF AND MUL OR SWAP1 SSTORE POP PUSH2 0x275 DUP1 PUSH2 0x60 PUSH1 0x0 CODECOPY PUSH1 0x0 RETURN INVALID PUSH1 0x80 PUSH1 0x40 MSTORE CALLVALUE DUP1 ISZERO PUSH2 0x10 JUMPI PUSH1 0x0 DUP1 REVERT JUMPDEST POP PUSH1 0x4 CALLDATASIZE LT PUSH2 0x36 JUMPI PUSH1 0x0 CALLDATALOAD PUSH1 0xE0 SHR DUP1 PUSH4 0x8DA5CB5B EQ PUSH2 0x3B JUMPI DUP1 PUSH4 0xA36B0AB0 EQ PUSH2 0x59 JUMPI JUMPDEST PUSH1 0x0 DUP1 REVERT JUMPDEST PUSH2 0x43 PUSH2 0x75 JUMP JUMPDEST PUSH1 0x40 MLOAD PUSH2 0x50 SWAP2 SWAP1 PUSH2 0x169 JUMP JUMPDEST PUSH1 0x40 MLOAD DUP1 SWAP2 SUB SWAP1 RETURN JUMPDEST PUSH2 0x73 PUSH1 0x4 DUP1 CALLDATASIZE SUB DUP2 ADD SWAP1 PUSH2 0x6E SWAP2 SWAP1 PUSH2 0x106 JUMP JUMPDEST PUSH2 0x99 JUMP JUMPDEST STOP JUMPDEST PUSH1 0x0 DUP1 SLOAD SWAP1 PUSH2 0x100 EXP SWAP1 DIV PUSH20 0xFFFFFFFFFFFFFFFFFFFFFFFFFFFFFFFFFFFFFFFF AND DUP2 JUMP JUMPDEST POP POP JUMP JUMPDEST PUSH1 0x0 DUP3 PUSH1 0x1F DUP4 ADD SLT PUSH2 0xAE JUMPI PUSH1 0x0 DUP1 REVERT JUMPDEST DUP2 CALLDATALOAD PUSH2 0xC1 PUSH2 0xBC DUP3 PUSH2 0x1B1 JUMP JUMPDEST PUSH2 0x184 JUMP JUMPDEST SWAP2 POP DUP1 DUP3 MSTORE PUSH1 0x20 DUP4 ADD PUSH1 0x20 DUP4 ADD DUP6 DUP4 DUP4 ADD GT ISZERO PUSH2 0xDD JUMPI PUSH1 0x0 DUP1 REVERT JUMPDEST PUSH2 0xE8 DUP4 DUP3 DUP5 PUSH2 0x219 JUMP JUMPDEST POP POP POP SWAP3 SWAP2 POP POP JUMP JUMPDEST PUSH1 0x0 DUP2 CALLDATALOAD SWAP1 POP PUSH2 0x100 DUP2 PUSH2 0x228 JUMP JUMPDEST SWAP3 SWAP2 POP POP JUMP JUMPDEST PUSH1 0x0 DUP1 PUSH1 0x40 DUP4 DUP6 SUB SLT ISZERO PUSH2 0x119 JUMPI PUSH1 0x0 DUP1 REVERT JUMPDEST PUSH1 0x0 DUP4 ADD CALLDATALOAD PUSH8 0xFFFFFFFFFFFFFFFF DUP2 GT ISZERO PUSH2 0x133 JUMPI PUSH1 0x0 DUP1 REVERT JUMPDEST PUSH2 0x13F DUP6 DUP3 DUP7 ADD PUSH2 0x9D JUMP JUMPDEST SWAP3 POP POP PUSH1 0x20 PUSH2 0x150 DUP6 DUP3 DUP7 ADD PUSH2 0xF1 JUMP JUMPDEST SWAP2 POP POP SWAP3 POP SWAP3 SWAP1 POP JUMP JUMPDEST PUSH2 0x163 DUP2 PUSH2 0x1DD JUMP JUMPDEST DUP3 MSTORE POP POP JUMP JUMPDEST PUSH1 0x0 PUSH1 0x20 DUP3 ADD SWAP1 POP PUSH2 0x17E PUSH1 0x0 DUP4 ADD DUP5 PUSH2 0x15A JUMP JUMPDEST SWAP3 SWAP2 POP POP JUMP JUMPDEST PUSH1 0x0 PUSH1 0x40 MLOAD SWAP1 POP DUP2 DUP2 ADD DUP2 DUP2 LT PUSH8 0xFFFFFFFFFFFFFFFF DUP3 GT OR ISZERO PUSH2 0x1A7 JUMPI PUSH1 0x0 DUP1 REVERT JUMPDEST DUP1 PUSH1 0x40 MSTORE POP SWAP2 SWAP1 POP JUMP JUMPDEST PUSH1 0x0 PUSH8 0xFFFFFFFFFFFFFFFF DUP3 GT ISZERO PUSH2 0x1C8 JUMPI PUSH1 0x0 DUP1 REVERT JUMPDEST PUSH1 0x1F NOT PUSH1 0x1F DUP4 ADD AND SWAP1 POP PUSH1 0x20 DUP2 ADD SWAP1 POP SWAP2 SWAP1 POP JUMP JUMPDEST PUSH1 0x0 PUSH2 0x1E8 DUP3 PUSH2 0x1EF JUMP JUMPDEST SWAP1 POP SWAP2 SWAP1 POP JUMP JUMPDEST PUSH1 0x0 PUSH20 0xFFFFFFFFFFFFFFFFFFFFFFFFFFFFFFFFFFFFFFFF DUP3 AND SWAP1 POP SWAP2 SWAP1 POP JUMP JUMPDEST PUSH1 0x0 DUP2 SWAP1 POP SWAP2 SWAP1 POP JUMP JUMPDEST DUP3 DUP2 DUP4 CALLDATACOPY PUSH1 0x0 DUP4 DUP4 ADD MSTORE POP POP POP JUMP JUMPDEST PUSH2 0x231 DUP2 PUSH2 0x20F JUMP JUMPDEST DUP2 EQ PUSH2 0x23C JUMPI PUSH1 0x0 DUP1 REVERT JUMPDEST POP JUMP INVALID LOG2 PUSH5 0x6970667358 0x22 SLT KECCAK256 0xD0 0xAE 0xED 0xA8 PUSH27 0x34B8AABBD1B142863130D3A1B887D4561177A3964BB91DF118E826 PUSH5 0x736F6C6343 STOP MOD 0xC STOP CALLER "
				},
				"gasEstimates": {
					"creation": {
						"codeDepositCost": "125800",
						"executionCost": "21037",
						"totalCost": "146837"
					},
					"external": {
						"Representar(string,uint256)": "infinite",
						"owner()": "1189"
					}
				},
				"methodIdentifiers": {
					"Representar(string,uint256)": "a36b0ab0",
					"owner()": "8da5cb5b"
				}
			},
			"storageLayout": {
				"storage": [
					{
						"astId": 4,
						"contract": "Votaciones/votaciones.sol:votacion",
						"label": "owner",
						"offset": 0,
						"slot": "0",
						"type": "t_address"
					},
					{
						"astId": 17,
						"contract": "Votaciones/votaciones.sol:votacion",
						"label": "IDCandidato",
						"offset": 0,
						"slot": "1",
						"type": "t_mapping(t_string_memory_ptr,t_bytes32)"
					},
					{
						"astId": 21,
						"contract": "Votaciones/votaciones.sol:votacion",
						"label": "VotosCandidato",
						"offset": 0,
						"slot": "2",
						"type": "t_mapping(t_string_memory_ptr,t_uint256)"
					},
					{
						"astId": 24,
						"contract": "Votaciones/votaciones.sol:votacion",
						"label": "candidatos",
						"offset": 0,
						"slot": "3",
						"type": "t_array(t_string_storage)dyn_storage"
					},
					{
						"astId": 27,
						"contract": "Votaciones/votaciones.sol:votacion",
						"label": "votantes",
						"offset": 0,
						"slot": "4",
						"type": "t_array(t_bytes32)dyn_storage"
					}
				],
				"types": {
					"t_address": {
						"encoding": "inplace",
						"label": "address",
						"numberOfBytes": "20"
					},
					"t_array(t_bytes32)dyn_storage": {
						"base": "t_bytes32",
						"encoding": "dynamic_array",
						"label": "bytes32[]",
						"numberOfBytes": "32"
					},
					"t_array(t_string_storage)dyn_storage": {
						"base": "t_string_storage",
						"encoding": "dynamic_array",
						"label": "string[]",
						"numberOfBytes": "32"
					},
					"t_bytes32": {
						"encoding": "inplace",
						"label": "bytes32",
						"numberOfBytes": "32"
					},
					"t_mapping(t_string_memory_ptr,t_bytes32)": {
						"encoding": "mapping",
						"key": "t_string_memory_ptr",
						"label": "mapping(string => bytes32)",
						"numberOfBytes": "32",
						"value": "t_bytes32"
					},
					"t_mapping(t_string_memory_ptr,t_uint256)": {
						"encoding": "mapping",
						"key": "t_string_memory_ptr",
						"label": "mapping(string => uint256)",
						"numberOfBytes": "32",
						"value": "t_uint256"
					},
					"t_string_memory_ptr": {
						"encoding": "bytes",
						"label": "string",
						"numberOfBytes": "32"
					},
					"t_string_storage": {
						"encoding": "bytes",
						"label": "string",
						"numberOfBytes": "32"
					},
					"t_uint256": {
						"encoding": "inplace",
						"label": "uint256",
						"numberOfBytes": "32"
					}
				}
			},
			"userdoc": {
				"kind": "user",
				"methods": {},
				"version": 1
			}
		}
	}
}