{
	"Votaciones/votaciones.sol": {
		"votacion": {
			"abi": [
				{
					"inputs": [],
					"stateMutability": "nonpayable",
					"type": "constructor"
				},
				{
					"inputs": [
						{
							"internalType": "string",
							"name": "_nombre",
							"type": "string"
						},
						{
							"internalType": "uint256",
							"name": "_edad",
							"type": "uint256"
						},
						{
							"internalType": "string",
							"name": "_ID",
							"type": "string"
						}
					],
					"name": "Representar",
					"outputs": [],
					"stateMutability": "nonpayable",
					"type": "function"
				},
				{
					"inputs": [],
					"name": "VerCandidatos",
					"outputs": [
						{
							"internalType": "string[]",
							"name": "",
							"type": "string[]"
						}
					],
					"stateMutability": "view",
					"type": "function"
				},
				{
					"inputs": [],
					"name": "owner",
					"outputs": [
						{
							"internalType": "address",
							"name": "",
							"type": "address"
						}
					],
					"stateMutability": "view",
					"type": "function"
				}
			],
			"devdoc": {
				"kind": "dev",
				"methods": {},
				"version": 1
			},
			"evm": {
				"assembly": "    /* \"Votaciones/votaciones.sol\":102:1247  contract votacion {\r... */\n  mstore(0x40, 0x80)\n    /* \"Votaciones/votaciones.sol\":619:678  constructor () public {\r... */\n  callvalue\n  dup1\n  iszero\n  tag_1\n  jumpi\n  0x00\n  dup1\n  revert\ntag_1:\n  pop\n    /* \"Votaciones/votaciones.sol\":660:670  msg.sender */\n  caller\n    /* \"Votaciones/votaciones.sol\":652:657  owner */\n  0x00\n  dup1\n    /* \"Votaciones/votaciones.sol\":652:670  owner = msg.sender */\n  0x0100\n  exp\n  dup2\n  sload\n  dup2\n  0xffffffffffffffffffffffffffffffffffffffff\n  mul\n  not\n  and\n  swap1\n  dup4\n  0xffffffffffffffffffffffffffffffffffffffff\n  and\n  mul\n  or\n  swap1\n  sstore\n  pop\n    /* \"Votaciones/votaciones.sol\":102:1247  contract votacion {\r... */\n  dataSize(sub_0)\n  dup1\n  dataOffset(sub_0)\n  0x00\n  codecopy\n  0x00\n  return\nstop\n\nsub_0: assembly {\n        /* \"Votaciones/votaciones.sol\":102:1247  contract votacion {\r... */\n      mstore(0x40, 0x80)\n      callvalue\n      dup1\n      iszero\n      tag_1\n      jumpi\n      0x00\n      dup1\n      revert\n    tag_1:\n      pop\n      jumpi(tag_2, lt(calldatasize, 0x04))\n      shr(0xe0, calldataload(0x00))\n      dup1\n      0x8da5cb5b\n      eq\n      tag_3\n      jumpi\n      dup1\n      0xbfc2e938\n      eq\n      tag_4\n      jumpi\n      dup1\n      0xf01ca6b7\n      eq\n      tag_5\n      jumpi\n    tag_2:\n      0x00\n      dup1\n      revert\n        /* \"Votaciones/votaciones.sol\":175:195  address public owner */\n    tag_3:\n      tag_6\n      tag_7\n      jump\t// in\n    tag_6:\n      mload(0x40)\n      tag_8\n      swap2\n      swap1\n      tag_9\n      jump\t// in\n    tag_8:\n      mload(0x40)\n      dup1\n      swap2\n      sub\n      swap1\n      return\n        /* \"Votaciones/votaciones.sol\":1180:1244  function VerCandidatos() public view returns(string[] memory) {} */\n    tag_4:\n      tag_10\n      tag_11\n      jump\t// in\n    tag_10:\n      mload(0x40)\n      tag_12\n      swap2\n      swap1\n      tag_13\n      jump\t// in\n    tag_12:\n      mload(0x40)\n      dup1\n      swap2\n      sub\n      swap1\n      return\n        /* \"Votaciones/votaciones.sol\":748:1172  function Representar(string memory _nombre, uint _edad, string memory _ID) public {\r... */\n    tag_5:\n      tag_14\n      0x04\n      dup1\n      calldatasize\n      sub\n      dup2\n      add\n      swap1\n      tag_15\n      swap2\n      swap1\n      tag_16\n      jump\t// in\n    tag_15:\n      tag_17\n      jump\t// in\n    tag_14:\n      stop\n        /* \"Votaciones/votaciones.sol\":175:195  address public owner */\n    tag_7:\n      0x00\n      dup1\n      sload\n      swap1\n      0x0100\n      exp\n      swap1\n      div\n      0xffffffffffffffffffffffffffffffffffffffff\n      and\n      dup2\n      jump\t// out\n        /* \"Votaciones/votaciones.sol\":1180:1244  function VerCandidatos() public view returns(string[] memory) {} */\n    tag_11:\n        /* \"Votaciones/votaciones.sol\":1225:1240  string[] memory */\n      0x60\n        /* \"Votaciones/votaciones.sol\":1180:1244  function VerCandidatos() public view returns(string[] memory) {} */\n      swap1\n      jump\t// out\n        /* \"Votaciones/votaciones.sol\":748:1172  function Representar(string memory _nombre, uint _edad, string memory _ID) public {\r... */\n    tag_17:\n        /* \"Votaciones/votaciones.sol\":884:905  bytes32 hashCandidato */\n      0x00\n        /* \"Votaciones/votaciones.sol\":935:942  _nombre */\n      dup4\n        /* \"Votaciones/votaciones.sol\":944:949  _edad */\n      dup4\n        /* \"Votaciones/votaciones.sol\":951:954  _ID */\n      dup4\n        /* \"Votaciones/votaciones.sol\":918:955  abi.encodePacked(_nombre, _edad, _ID) */\n      add(0x20, mload(0x40))\n      tag_20\n      swap4\n      swap3\n      swap2\n      swap1\n      tag_21\n      jump\t// in\n    tag_20:\n      mload(0x40)\n      0x20\n      dup2\n      dup4\n      sub\n      sub\n      dup2\n      mstore\n      swap1\n      0x40\n      mstore\n        /* \"Votaciones/votaciones.sol\":908:956  keccak256(abi.encodePacked(_nombre, _edad, _ID)) */\n      dup1\n      mload\n      swap1\n      0x20\n      add\n      keccak256\n        /* \"Votaciones/votaciones.sol\":884:956  bytes32 hashCandidato = keccak256(abi.encodePacked(_nombre, _edad, _ID)) */\n      swap1\n      pop\n        /* \"Votaciones/votaciones.sol\":1067:1080  hashCandidato */\n      dup1\n        /* \"Votaciones/votaciones.sol\":1046:1055  Candidato */\n      0x01\n        /* \"Votaciones/votaciones.sol\":1056:1063  _nombre */\n      dup6\n        /* \"Votaciones/votaciones.sol\":1046:1064  Candidato[_nombre] */\n      mload(0x40)\n      tag_22\n      swap2\n      swap1\n      tag_23\n      jump\t// in\n    tag_22:\n      swap1\n      dup2\n      mstore\n      0x20\n      add\n      mload(0x40)\n      dup1\n      swap2\n      sub\n      swap1\n      keccak256\n        /* \"Votaciones/votaciones.sol\":1046:1080  Candidato[_nombre] = hashCandidato */\n      dup2\n      swap1\n      sstore\n      pop\n        /* \"Votaciones/votaciones.sol\":1140:1150  candidatos */\n      0x03\n        /* \"Votaciones/votaciones.sol\":1156:1163  _nombre */\n      dup5\n        /* \"Votaciones/votaciones.sol\":1140:1164  candidatos.push(_nombre) */\n      swap1\n      dup1\n      0x01\n      dup2\n      sload\n      add\n      dup1\n      dup3\n      sstore\n      dup1\n      swap2\n      pop\n      pop\n      0x01\n      swap1\n      sub\n      swap1\n      0x00\n      mstore\n      keccak256(0x00, 0x20)\n      add\n      0x00\n      swap1\n      swap2\n      swap1\n      swap2\n      swap1\n      swap2\n      pop\n      swap1\n      dup1\n      mload\n      swap1\n      0x20\n      add\n      swap1\n      tag_25\n      swap3\n      swap2\n      swap1\n      tag_26\n      jump\t// in\n    tag_25:\n      pop\n        /* \"Votaciones/votaciones.sol\":748:1172  function Representar(string memory _nombre, uint _edad, string memory _ID) public {\r... */\n      pop\n      pop\n      pop\n      pop\n      jump\t// out\n    tag_26:\n      dup3\n      dup1\n      sload\n      0x01\n      dup2\n      0x01\n      and\n      iszero\n      0x0100\n      mul\n      sub\n      and\n      0x02\n      swap1\n      div\n      swap1\n      0x00\n      mstore\n      keccak256(0x00, 0x20)\n      swap1\n      0x1f\n      add\n      0x20\n      swap1\n      div\n      dup2\n      add\n      swap3\n      dup3\n      0x1f\n      lt\n      tag_28\n      jumpi\n      dup1\n      mload\n      not(0xff)\n      and\n      dup4\n      dup1\n      add\n      or\n      dup6\n      sstore\n      jump(tag_27)\n    tag_28:\n      dup3\n      dup1\n      add\n      0x01\n      add\n      dup6\n      sstore\n      dup3\n      iszero\n      tag_27\n      jumpi\n      swap2\n      dup3\n      add\n    tag_29:\n      dup3\n      dup2\n      gt\n      iszero\n      tag_30\n      jumpi\n      dup3\n      mload\n      dup3\n      sstore\n      swap2\n      0x20\n      add\n      swap2\n      swap1\n      0x01\n      add\n      swap1\n      jump(tag_29)\n    tag_30:\n    tag_27:\n      pop\n      swap1\n      pop\n      tag_31\n      swap2\n      swap1\n      tag_32\n      jump\t// in\n    tag_31:\n      pop\n      swap1\n      jump\t// out\n    tag_32:\n    tag_33:\n      dup1\n      dup3\n      gt\n      iszero\n      tag_34\n      jumpi\n      0x00\n      dup2\n      0x00\n      swap1\n      sstore\n      pop\n      0x01\n      add\n      jump(tag_33)\n    tag_34:\n      pop\n      swap1\n      jump\t// out\n        /* \"--CODEGEN--\":6:448   */\n    tag_36:\n      0x00\n        /* \"--CODEGEN--\":108:111   */\n      dup3\n        /* \"--CODEGEN--\":101:105   */\n      0x1f\n        /* \"--CODEGEN--\":93:99   */\n      dup4\n        /* \"--CODEGEN--\":89:106   */\n      add\n        /* \"--CODEGEN--\":85:112   */\n      slt\n        /* \"--CODEGEN--\":75:77   */\n      tag_38\n      jumpi\n        /* \"--CODEGEN--\":126:127   */\n      0x00\n        /* \"--CODEGEN--\":123:124   */\n      dup1\n        /* \"--CODEGEN--\":116:128   */\n      revert\n        /* \"--CODEGEN--\":75:77   */\n    tag_38:\n        /* \"--CODEGEN--\":163:169   */\n      dup2\n        /* \"--CODEGEN--\":150:170   */\n      calldataload\n        /* \"--CODEGEN--\":185:250   */\n      tag_39\n        /* \"--CODEGEN--\":200:249   */\n      tag_40\n        /* \"--CODEGEN--\":242:248   */\n      dup3\n        /* \"--CODEGEN--\":200:249   */\n      tag_41\n      jump\t// in\n    tag_40:\n        /* \"--CODEGEN--\":185:250   */\n      tag_42\n      jump\t// in\n    tag_39:\n        /* \"--CODEGEN--\":176:250   */\n      swap2\n      pop\n        /* \"--CODEGEN--\":270:276   */\n      dup1\n        /* \"--CODEGEN--\":263:268   */\n      dup3\n        /* \"--CODEGEN--\":256:277   */\n      mstore\n        /* \"--CODEGEN--\":306:310   */\n      0x20\n        /* \"--CODEGEN--\":298:304   */\n      dup4\n        /* \"--CODEGEN--\":294:311   */\n      add\n        /* \"--CODEGEN--\":339:343   */\n      0x20\n        /* \"--CODEGEN--\":332:337   */\n      dup4\n        /* \"--CODEGEN--\":328:344   */\n      add\n        /* \"--CODEGEN--\":374:377   */\n      dup6\n        /* \"--CODEGEN--\":365:371   */\n      dup4\n        /* \"--CODEGEN--\":360:363   */\n      dup4\n        /* \"--CODEGEN--\":356:372   */\n      add\n        /* \"--CODEGEN--\":353:378   */\n      gt\n        /* \"--CODEGEN--\":350:352   */\n      iszero\n      tag_43\n      jumpi\n        /* \"--CODEGEN--\":391:392   */\n      0x00\n        /* \"--CODEGEN--\":388:389   */\n      dup1\n        /* \"--CODEGEN--\":381:393   */\n      revert\n        /* \"--CODEGEN--\":350:352   */\n    tag_43:\n        /* \"--CODEGEN--\":401:442   */\n      tag_44\n        /* \"--CODEGEN--\":435:441   */\n      dup4\n        /* \"--CODEGEN--\":430:433   */\n      dup3\n        /* \"--CODEGEN--\":425:428   */\n      dup5\n        /* \"--CODEGEN--\":401:442   */\n      tag_45\n      jump\t// in\n    tag_44:\n        /* \"--CODEGEN--\":68:448   */\n      pop\n      pop\n      pop\n      swap3\n      swap2\n      pop\n      pop\n      jump\t// out\n        /* \"--CODEGEN--\":456:586   */\n    tag_46:\n      0x00\n        /* \"--CODEGEN--\":536:542   */\n      dup2\n        /* \"--CODEGEN--\":523:543   */\n      calldataload\n        /* \"--CODEGEN--\":514:543   */\n      swap1\n      pop\n        /* \"--CODEGEN--\":548:581   */\n      tag_48\n        /* \"--CODEGEN--\":575:580   */\n      dup2\n        /* \"--CODEGEN--\":548:581   */\n      tag_49\n      jump\t// in\n    tag_48:\n        /* \"--CODEGEN--\":508:586   */\n      swap3\n      swap2\n      pop\n      pop\n      jump\t// out\n        /* \"--CODEGEN--\":593:1296   */\n    tag_16:\n      0x00\n      dup1\n      0x00\n        /* \"--CODEGEN--\":751:753   */\n      0x60\n        /* \"--CODEGEN--\":739:748   */\n      dup5\n        /* \"--CODEGEN--\":730:737   */\n      dup7\n        /* \"--CODEGEN--\":726:749   */\n      sub\n        /* \"--CODEGEN--\":722:754   */\n      slt\n        /* \"--CODEGEN--\":719:721   */\n      iszero\n      tag_51\n      jumpi\n        /* \"--CODEGEN--\":767:768   */\n      0x00\n        /* \"--CODEGEN--\":764:765   */\n      dup1\n        /* \"--CODEGEN--\":757:769   */\n      revert\n        /* \"--CODEGEN--\":719:721   */\n    tag_51:\n        /* \"--CODEGEN--\":830:831   */\n      0x00\n        /* \"--CODEGEN--\":819:828   */\n      dup5\n        /* \"--CODEGEN--\":815:832   */\n      add\n        /* \"--CODEGEN--\":802:833   */\n      calldataload\n        /* \"--CODEGEN--\":853:871   */\n      0xffffffffffffffff\n        /* \"--CODEGEN--\":845:851   */\n      dup2\n        /* \"--CODEGEN--\":842:872   */\n      gt\n        /* \"--CODEGEN--\":839:841   */\n      iszero\n      tag_52\n      jumpi\n        /* \"--CODEGEN--\":885:886   */\n      0x00\n        /* \"--CODEGEN--\":882:883   */\n      dup1\n        /* \"--CODEGEN--\":875:887   */\n      revert\n        /* \"--CODEGEN--\":839:841   */\n    tag_52:\n        /* \"--CODEGEN--\":905:968   */\n      tag_53\n        /* \"--CODEGEN--\":960:967   */\n      dup7\n        /* \"--CODEGEN--\":951:957   */\n      dup3\n        /* \"--CODEGEN--\":940:949   */\n      dup8\n        /* \"--CODEGEN--\":936:958   */\n      add\n        /* \"--CODEGEN--\":905:968   */\n      tag_36\n      jump\t// in\n    tag_53:\n        /* \"--CODEGEN--\":895:968   */\n      swap4\n      pop\n        /* \"--CODEGEN--\":781:974   */\n      pop\n        /* \"--CODEGEN--\":1005:1007   */\n      0x20\n        /* \"--CODEGEN--\":1023:1076   */\n      tag_54\n        /* \"--CODEGEN--\":1068:1075   */\n      dup7\n        /* \"--CODEGEN--\":1059:1065   */\n      dup3\n        /* \"--CODEGEN--\":1048:1057   */\n      dup8\n        /* \"--CODEGEN--\":1044:1066   */\n      add\n        /* \"--CODEGEN--\":1023:1076   */\n      tag_46\n      jump\t// in\n    tag_54:\n        /* \"--CODEGEN--\":1013:1076   */\n      swap3\n      pop\n        /* \"--CODEGEN--\":984:1082   */\n      pop\n        /* \"--CODEGEN--\":1141:1143   */\n      0x40\n        /* \"--CODEGEN--\":1130:1139   */\n      dup5\n        /* \"--CODEGEN--\":1126:1144   */\n      add\n        /* \"--CODEGEN--\":1113:1145   */\n      calldataload\n        /* \"--CODEGEN--\":1165:1183   */\n      0xffffffffffffffff\n        /* \"--CODEGEN--\":1157:1163   */\n      dup2\n        /* \"--CODEGEN--\":1154:1184   */\n      gt\n        /* \"--CODEGEN--\":1151:1153   */\n      iszero\n      tag_55\n      jumpi\n        /* \"--CODEGEN--\":1197:1198   */\n      0x00\n        /* \"--CODEGEN--\":1194:1195   */\n      dup1\n        /* \"--CODEGEN--\":1187:1199   */\n      revert\n        /* \"--CODEGEN--\":1151:1153   */\n    tag_55:\n        /* \"--CODEGEN--\":1217:1280   */\n      tag_56\n        /* \"--CODEGEN--\":1272:1279   */\n      dup7\n        /* \"--CODEGEN--\":1263:1269   */\n      dup3\n        /* \"--CODEGEN--\":1252:1261   */\n      dup8\n        /* \"--CODEGEN--\":1248:1270   */\n      add\n        /* \"--CODEGEN--\":1217:1280   */\n      tag_36\n      jump\t// in\n    tag_56:\n        /* \"--CODEGEN--\":1207:1280   */\n      swap2\n      pop\n        /* \"--CODEGEN--\":1092:1286   */\n      pop\n        /* \"--CODEGEN--\":713:1296   */\n      swap3\n      pop\n      swap3\n      pop\n      swap3\n      jump\t// out\n        /* \"--CODEGEN--\":1304:1497   */\n    tag_57:\n      0x00\n        /* \"--CODEGEN--\":1425:1491   */\n      tag_59\n        /* \"--CODEGEN--\":1487:1490   */\n      dup4\n        /* \"--CODEGEN--\":1479:1485   */\n      dup4\n        /* \"--CODEGEN--\":1425:1491   */\n      tag_60\n      jump\t// in\n    tag_59:\n        /* \"--CODEGEN--\":1411:1491   */\n      swap1\n      pop\n        /* \"--CODEGEN--\":1404:1497   */\n      swap3\n      swap2\n      pop\n      pop\n      jump\t// out\n        /* \"--CODEGEN--\":1505:1618   */\n    tag_61:\n        /* \"--CODEGEN--\":1588:1612   */\n      tag_63\n        /* \"--CODEGEN--\":1606:1611   */\n      dup2\n        /* \"--CODEGEN--\":1588:1612   */\n      tag_64\n      jump\t// in\n    tag_63:\n        /* \"--CODEGEN--\":1583:1586   */\n      dup3\n        /* \"--CODEGEN--\":1576:1613   */\n      mstore\n        /* \"--CODEGEN--\":1570:1618   */\n      pop\n      pop\n      jump\t// out\n        /* \"--CODEGEN--\":1654:2582   */\n    tag_65:\n      0x00\n        /* \"--CODEGEN--\":1819:1883   */\n      tag_67\n        /* \"--CODEGEN--\":1877:1882   */\n      dup3\n        /* \"--CODEGEN--\":1819:1883   */\n      tag_68\n      jump\t// in\n    tag_67:\n        /* \"--CODEGEN--\":1896:1992   */\n      tag_69\n        /* \"--CODEGEN--\":1985:1991   */\n      dup2\n        /* \"--CODEGEN--\":1980:1983   */\n      dup6\n        /* \"--CODEGEN--\":1896:1992   */\n      tag_70\n      jump\t// in\n    tag_69:\n        /* \"--CODEGEN--\":1889:1992   */\n      swap4\n      pop\n        /* \"--CODEGEN--\":2015:2018   */\n      dup4\n        /* \"--CODEGEN--\":2057:2061   */\n      0x20\n        /* \"--CODEGEN--\":2049:2055   */\n      dup3\n        /* \"--CODEGEN--\":2045:2062   */\n      mul\n        /* \"--CODEGEN--\":2040:2043   */\n      dup6\n        /* \"--CODEGEN--\":2036:2063   */\n      add\n        /* \"--CODEGEN--\":2084:2150   */\n      tag_71\n        /* \"--CODEGEN--\":2144:2149   */\n      dup6\n        /* \"--CODEGEN--\":2084:2150   */\n      tag_72\n      jump\t// in\n    tag_71:\n        /* \"--CODEGEN--\":2170:2177   */\n      dup1\n        /* \"--CODEGEN--\":2198:2199   */\n      0x00\n        /* \"--CODEGEN--\":2183:2543   */\n    tag_73:\n        /* \"--CODEGEN--\":2208:2214   */\n      dup6\n        /* \"--CODEGEN--\":2205:2206   */\n      dup2\n        /* \"--CODEGEN--\":2202:2215   */\n      lt\n        /* \"--CODEGEN--\":2183:2543   */\n      iszero\n      tag_75\n      jumpi\n        /* \"--CODEGEN--\":2270:2279   */\n      dup5\n        /* \"--CODEGEN--\":2264:2268   */\n      dup5\n        /* \"--CODEGEN--\":2260:2280   */\n      sub\n        /* \"--CODEGEN--\":2255:2258   */\n      dup10\n        /* \"--CODEGEN--\":2248:2281   */\n      mstore\n        /* \"--CODEGEN--\":2315:2321   */\n      dup2\n        /* \"--CODEGEN--\":2309:2322   */\n      mload\n        /* \"--CODEGEN--\":2337:2421   */\n      tag_76\n        /* \"--CODEGEN--\":2416:2420   */\n      dup6\n        /* \"--CODEGEN--\":2401:2414   */\n      dup3\n        /* \"--CODEGEN--\":2337:2421   */\n      tag_57\n      jump\t// in\n    tag_76:\n        /* \"--CODEGEN--\":2329:2421   */\n      swap5\n      pop\n        /* \"--CODEGEN--\":2438:2508   */\n      tag_77\n        /* \"--CODEGEN--\":2501:2507   */\n      dup4\n        /* \"--CODEGEN--\":2438:2508   */\n      tag_78\n      jump\t// in\n    tag_77:\n        /* \"--CODEGEN--\":2428:2508   */\n      swap3\n      pop\n        /* \"--CODEGEN--\":2531:2535   */\n      0x20\n        /* \"--CODEGEN--\":2526:2529   */\n      dup11\n        /* \"--CODEGEN--\":2522:2536   */\n      add\n        /* \"--CODEGEN--\":2515:2536   */\n      swap10\n      pop\n        /* \"--CODEGEN--\":2240:2543   */\n      pop\n        /* \"--CODEGEN--\":2230:2231   */\n      0x01\n        /* \"--CODEGEN--\":2227:2228   */\n      dup2\n        /* \"--CODEGEN--\":2223:2232   */\n      add\n        /* \"--CODEGEN--\":2218:2232   */\n      swap1\n      pop\n        /* \"--CODEGEN--\":2183:2543   */\n      jump(tag_73)\n    tag_75:\n        /* \"--CODEGEN--\":2187:2201   */\n      pop\n        /* \"--CODEGEN--\":2556:2560   */\n      dup3\n        /* \"--CODEGEN--\":2549:2560   */\n      swap8\n      pop\n        /* \"--CODEGEN--\":2573:2576   */\n      dup8\n        /* \"--CODEGEN--\":2566:2576   */\n      swap6\n      pop\n        /* \"--CODEGEN--\":1798:2582   */\n      pop\n      pop\n      pop\n      pop\n      pop\n      swap3\n      swap2\n      pop\n      pop\n      jump\t// out\n        /* \"--CODEGEN--\":2590:2917   */\n    tag_60:\n      0x00\n        /* \"--CODEGEN--\":2692:2731   */\n      tag_80\n        /* \"--CODEGEN--\":2725:2730   */\n      dup3\n        /* \"--CODEGEN--\":2692:2731   */\n      tag_81\n      jump\t// in\n    tag_80:\n        /* \"--CODEGEN--\":2743:2804   */\n      tag_82\n        /* \"--CODEGEN--\":2797:2803   */\n      dup2\n        /* \"--CODEGEN--\":2792:2795   */\n      dup6\n        /* \"--CODEGEN--\":2743:2804   */\n      tag_83\n      jump\t// in\n    tag_82:\n        /* \"--CODEGEN--\":2736:2804   */\n      swap4\n      pop\n        /* \"--CODEGEN--\":2809:2861   */\n      tag_84\n        /* \"--CODEGEN--\":2854:2860   */\n      dup2\n        /* \"--CODEGEN--\":2849:2852   */\n      dup6\n        /* \"--CODEGEN--\":2842:2846   */\n      0x20\n        /* \"--CODEGEN--\":2835:2840   */\n      dup7\n        /* \"--CODEGEN--\":2831:2847   */\n      add\n        /* \"--CODEGEN--\":2809:2861   */\n      tag_85\n      jump\t// in\n    tag_84:\n        /* \"--CODEGEN--\":2882:2911   */\n      tag_86\n        /* \"--CODEGEN--\":2904:2910   */\n      dup2\n        /* \"--CODEGEN--\":2882:2911   */\n      tag_87\n      jump\t// in\n    tag_86:\n        /* \"--CODEGEN--\":2877:2880   */\n      dup5\n        /* \"--CODEGEN--\":2873:2912   */\n      add\n        /* \"--CODEGEN--\":2866:2912   */\n      swap2\n      pop\n        /* \"--CODEGEN--\":2672:2917   */\n      pop\n      swap3\n      swap2\n      pop\n      pop\n      jump\t// out\n        /* \"--CODEGEN--\":2924:3284   */\n    tag_88:\n      0x00\n        /* \"--CODEGEN--\":3054:3093   */\n      tag_90\n        /* \"--CODEGEN--\":3087:3092   */\n      dup3\n        /* \"--CODEGEN--\":3054:3093   */\n      tag_81\n      jump\t// in\n    tag_90:\n        /* \"--CODEGEN--\":3105:3194   */\n      tag_91\n        /* \"--CODEGEN--\":3187:3193   */\n      dup2\n        /* \"--CODEGEN--\":3182:3185   */\n      dup6\n        /* \"--CODEGEN--\":3105:3194   */\n      tag_92\n      jump\t// in\n    tag_91:\n        /* \"--CODEGEN--\":3098:3194   */\n      swap4\n      pop\n        /* \"--CODEGEN--\":3199:3251   */\n      tag_93\n        /* \"--CODEGEN--\":3244:3250   */\n      dup2\n        /* \"--CODEGEN--\":3239:3242   */\n      dup6\n        /* \"--CODEGEN--\":3232:3236   */\n      0x20\n        /* \"--CODEGEN--\":3225:3230   */\n      dup7\n        /* \"--CODEGEN--\":3221:3237   */\n      add\n        /* \"--CODEGEN--\":3199:3251   */\n      tag_85\n      jump\t// in\n    tag_93:\n        /* \"--CODEGEN--\":3272:3278   */\n      dup1\n        /* \"--CODEGEN--\":3267:3270   */\n      dup5\n        /* \"--CODEGEN--\":3263:3279   */\n      add\n        /* \"--CODEGEN--\":3256:3279   */\n      swap2\n      pop\n        /* \"--CODEGEN--\":3034:3284   */\n      pop\n      swap3\n      swap2\n      pop\n      pop\n      jump\t// out\n        /* \"--CODEGEN--\":3291:3443   */\n    tag_94:\n        /* \"--CODEGEN--\":3392:3437   */\n      tag_96\n        /* \"--CODEGEN--\":3412:3436   */\n      tag_97\n        /* \"--CODEGEN--\":3430:3435   */\n      dup3\n        /* \"--CODEGEN--\":3412:3436   */\n      tag_98\n      jump\t// in\n    tag_97:\n        /* \"--CODEGEN--\":3392:3437   */\n      tag_99\n      jump\t// in\n    tag_96:\n        /* \"--CODEGEN--\":3387:3390   */\n      dup3\n        /* \"--CODEGEN--\":3380:3438   */\n      mstore\n        /* \"--CODEGEN--\":3374:3443   */\n      pop\n      pop\n      jump\t// out\n        /* \"--CODEGEN--\":3450:3725   */\n    tag_23:\n      0x00\n        /* \"--CODEGEN--\":3605:3700   */\n      tag_101\n        /* \"--CODEGEN--\":3696:3699   */\n      dup3\n        /* \"--CODEGEN--\":3687:3693   */\n      dup5\n        /* \"--CODEGEN--\":3605:3700   */\n      tag_88\n      jump\t// in\n    tag_101:\n        /* \"--CODEGEN--\":3598:3700   */\n      swap2\n      pop\n        /* \"--CODEGEN--\":3717:3720   */\n      dup2\n        /* \"--CODEGEN--\":3710:3720   */\n      swap1\n      pop\n        /* \"--CODEGEN--\":3586:3725   */\n      swap3\n      swap2\n      pop\n      pop\n      jump\t// out\n        /* \"--CODEGEN--\":3732:4307   */\n    tag_21:\n      0x00\n        /* \"--CODEGEN--\":3963:4058   */\n      tag_103\n        /* \"--CODEGEN--\":4054:4057   */\n      dup3\n        /* \"--CODEGEN--\":4045:4051   */\n      dup7\n        /* \"--CODEGEN--\":3963:4058   */\n      tag_88\n      jump\t// in\n    tag_103:\n        /* \"--CODEGEN--\":3956:4058   */\n      swap2\n      pop\n        /* \"--CODEGEN--\":4069:4144   */\n      tag_104\n        /* \"--CODEGEN--\":4140:4143   */\n      dup3\n        /* \"--CODEGEN--\":4131:4137   */\n      dup6\n        /* \"--CODEGEN--\":4069:4144   */\n      tag_94\n      jump\t// in\n    tag_104:\n        /* \"--CODEGEN--\":4166:4168   */\n      0x20\n        /* \"--CODEGEN--\":4161:4164   */\n      dup3\n        /* \"--CODEGEN--\":4157:4169   */\n      add\n        /* \"--CODEGEN--\":4150:4169   */\n      swap2\n      pop\n        /* \"--CODEGEN--\":4187:4282   */\n      tag_105\n        /* \"--CODEGEN--\":4278:4281   */\n      dup3\n        /* \"--CODEGEN--\":4269:4275   */\n      dup5\n        /* \"--CODEGEN--\":4187:4282   */\n      tag_88\n      jump\t// in\n    tag_105:\n        /* \"--CODEGEN--\":4180:4282   */\n      swap2\n      pop\n        /* \"--CODEGEN--\":4299:4302   */\n      dup2\n        /* \"--CODEGEN--\":4292:4302   */\n      swap1\n      pop\n        /* \"--CODEGEN--\":3944:4307   */\n      swap5\n      swap4\n      pop\n      pop\n      pop\n      pop\n      jump\t// out\n        /* \"--CODEGEN--\":4314:4536   */\n    tag_9:\n      0x00\n        /* \"--CODEGEN--\":4441:4443   */\n      0x20\n        /* \"--CODEGEN--\":4430:4439   */\n      dup3\n        /* \"--CODEGEN--\":4426:4444   */\n      add\n        /* \"--CODEGEN--\":4418:4444   */\n      swap1\n      pop\n        /* \"--CODEGEN--\":4455:4526   */\n      tag_107\n        /* \"--CODEGEN--\":4523:4524   */\n      0x00\n        /* \"--CODEGEN--\":4512:4521   */\n      dup4\n        /* \"--CODEGEN--\":4508:4525   */\n      add\n        /* \"--CODEGEN--\":4499:4505   */\n      dup5\n        /* \"--CODEGEN--\":4455:4526   */\n      tag_61\n      jump\t// in\n    tag_107:\n        /* \"--CODEGEN--\":4412:4536   */\n      swap3\n      swap2\n      pop\n      pop\n      jump\t// out\n        /* \"--CODEGEN--\":4543:4953   */\n    tag_13:\n      0x00\n        /* \"--CODEGEN--\":4740:4742   */\n      0x20\n        /* \"--CODEGEN--\":4729:4738   */\n      dup3\n        /* \"--CODEGEN--\":4725:4743   */\n      add\n        /* \"--CODEGEN--\":4717:4743   */\n      swap1\n      pop\n        /* \"--CODEGEN--\":4790:4799   */\n      dup2\n        /* \"--CODEGEN--\":4784:4788   */\n      dup2\n        /* \"--CODEGEN--\":4780:4800   */\n      sub\n        /* \"--CODEGEN--\":4776:4777   */\n      0x00\n        /* \"--CODEGEN--\":4765:4774   */\n      dup4\n        /* \"--CODEGEN--\":4761:4778   */\n      add\n        /* \"--CODEGEN--\":4754:4801   */\n      mstore\n        /* \"--CODEGEN--\":4815:4943   */\n      tag_109\n        /* \"--CODEGEN--\":4938:4942   */\n      dup2\n        /* \"--CODEGEN--\":4929:4935   */\n      dup5\n        /* \"--CODEGEN--\":4815:4943   */\n      tag_65\n      jump\t// in\n    tag_109:\n        /* \"--CODEGEN--\":4807:4943   */\n      swap1\n      pop\n        /* \"--CODEGEN--\":4711:4953   */\n      swap3\n      swap2\n      pop\n      pop\n      jump\t// out\n        /* \"--CODEGEN--\":4960:5216   */\n    tag_42:\n      0x00\n        /* \"--CODEGEN--\":5022:5024   */\n      0x40\n        /* \"--CODEGEN--\":5016:5025   */\n      mload\n        /* \"--CODEGEN--\":5006:5025   */\n      swap1\n      pop\n        /* \"--CODEGEN--\":5060:5064   */\n      dup2\n        /* \"--CODEGEN--\":5052:5058   */\n      dup2\n        /* \"--CODEGEN--\":5048:5065   */\n      add\n        /* \"--CODEGEN--\":5159:5165   */\n      dup2\n        /* \"--CODEGEN--\":5147:5157   */\n      dup2\n        /* \"--CODEGEN--\":5144:5166   */\n      lt\n        /* \"--CODEGEN--\":5123:5141   */\n      0xffffffffffffffff\n        /* \"--CODEGEN--\":5111:5121   */\n      dup3\n        /* \"--CODEGEN--\":5108:5142   */\n      gt\n        /* \"--CODEGEN--\":5105:5167   */\n      or\n        /* \"--CODEGEN--\":5102:5104   */\n      iszero\n      tag_111\n      jumpi\n        /* \"--CODEGEN--\":5180:5181   */\n      0x00\n        /* \"--CODEGEN--\":5177:5178   */\n      dup1\n        /* \"--CODEGEN--\":5170:5182   */\n      revert\n        /* \"--CODEGEN--\":5102:5104   */\n    tag_111:\n        /* \"--CODEGEN--\":5200:5210   */\n      dup1\n        /* \"--CODEGEN--\":5196:5198   */\n      0x40\n        /* \"--CODEGEN--\":5189:5211   */\n      mstore\n        /* \"--CODEGEN--\":5000:5216   */\n      pop\n      swap2\n      swap1\n      pop\n      jump\t// out\n        /* \"--CODEGEN--\":5223:5545   */\n    tag_41:\n      0x00\n        /* \"--CODEGEN--\":5367:5385   */\n      0xffffffffffffffff\n        /* \"--CODEGEN--\":5359:5365   */\n      dup3\n        /* \"--CODEGEN--\":5356:5386   */\n      gt\n        /* \"--CODEGEN--\":5353:5355   */\n      iszero\n      tag_113\n      jumpi\n        /* \"--CODEGEN--\":5399:5400   */\n      0x00\n        /* \"--CODEGEN--\":5396:5397   */\n      dup1\n        /* \"--CODEGEN--\":5389:5401   */\n      revert\n        /* \"--CODEGEN--\":5353:5355   */\n    tag_113:\n        /* \"--CODEGEN--\":5466:5470   */\n      0x1f\n        /* \"--CODEGEN--\":5462:5471   */\n      not\n        /* \"--CODEGEN--\":5455:5459   */\n      0x1f\n        /* \"--CODEGEN--\":5447:5453   */\n      dup4\n        /* \"--CODEGEN--\":5443:5460   */\n      add\n        /* \"--CODEGEN--\":5439:5472   */\n      and\n        /* \"--CODEGEN--\":5431:5472   */\n      swap1\n      pop\n        /* \"--CODEGEN--\":5530:5534   */\n      0x20\n        /* \"--CODEGEN--\":5524:5528   */\n      dup2\n        /* \"--CODEGEN--\":5520:5535   */\n      add\n        /* \"--CODEGEN--\":5512:5535   */\n      swap1\n      pop\n        /* \"--CODEGEN--\":5290:5545   */\n      swap2\n      swap1\n      pop\n      jump\t// out\n        /* \"--CODEGEN--\":5552:5713   */\n    tag_72:\n      0x00\n        /* \"--CODEGEN--\":5648:5651   */\n      dup2\n        /* \"--CODEGEN--\":5640:5651   */\n      swap1\n      pop\n        /* \"--CODEGEN--\":5686:5690   */\n      0x20\n        /* \"--CODEGEN--\":5681:5684   */\n      dup3\n        /* \"--CODEGEN--\":5677:5691   */\n      add\n        /* \"--CODEGEN--\":5669:5691   */\n      swap1\n      pop\n        /* \"--CODEGEN--\":5634:5713   */\n      swap2\n      swap1\n      pop\n      jump\t// out\n        /* \"--CODEGEN--\":5720:5867   */\n    tag_68:\n      0x00\n        /* \"--CODEGEN--\":5839:5844   */\n      dup2\n        /* \"--CODEGEN--\":5833:5845   */\n      mload\n        /* \"--CODEGEN--\":5823:5845   */\n      swap1\n      pop\n        /* \"--CODEGEN--\":5804:5867   */\n      swap2\n      swap1\n      pop\n      jump\t// out\n        /* \"--CODEGEN--\":5874:5996   */\n    tag_81:\n      0x00\n        /* \"--CODEGEN--\":5968:5973   */\n      dup2\n        /* \"--CODEGEN--\":5962:5974   */\n      mload\n        /* \"--CODEGEN--\":5952:5974   */\n      swap1\n      pop\n        /* \"--CODEGEN--\":5933:5996   */\n      swap2\n      swap1\n      pop\n      jump\t// out\n        /* \"--CODEGEN--\":6003:6121   */\n    tag_78:\n      0x00\n        /* \"--CODEGEN--\":6111:6115   */\n      0x20\n        /* \"--CODEGEN--\":6106:6109   */\n      dup3\n        /* \"--CODEGEN--\":6102:6116   */\n      add\n        /* \"--CODEGEN--\":6094:6116   */\n      swap1\n      pop\n        /* \"--CODEGEN--\":6088:6121   */\n      swap2\n      swap1\n      pop\n      jump\t// out\n        /* \"--CODEGEN--\":6129:6317   */\n    tag_70:\n      0x00\n        /* \"--CODEGEN--\":6269:6275   */\n      dup3\n        /* \"--CODEGEN--\":6264:6267   */\n      dup3\n        /* \"--CODEGEN--\":6257:6276   */\n      mstore\n        /* \"--CODEGEN--\":6306:6310   */\n      0x20\n        /* \"--CODEGEN--\":6301:6304   */\n      dup3\n        /* \"--CODEGEN--\":6297:6311   */\n      add\n        /* \"--CODEGEN--\":6282:6311   */\n      swap1\n      pop\n        /* \"--CODEGEN--\":6250:6317   */\n      swap3\n      swap2\n      pop\n      pop\n      jump\t// out\n        /* \"--CODEGEN--\":6326:6479   */\n    tag_83:\n      0x00\n        /* \"--CODEGEN--\":6431:6437   */\n      dup3\n        /* \"--CODEGEN--\":6426:6429   */\n      dup3\n        /* \"--CODEGEN--\":6419:6438   */\n      mstore\n        /* \"--CODEGEN--\":6468:6472   */\n      0x20\n        /* \"--CODEGEN--\":6463:6466   */\n      dup3\n        /* \"--CODEGEN--\":6459:6473   */\n      add\n        /* \"--CODEGEN--\":6444:6473   */\n      swap1\n      pop\n        /* \"--CODEGEN--\":6412:6479   */\n      swap3\n      swap2\n      pop\n      pop\n      jump\t// out\n        /* \"--CODEGEN--\":6488:6633   */\n    tag_92:\n      0x00\n        /* \"--CODEGEN--\":6624:6627   */\n      dup2\n        /* \"--CODEGEN--\":6609:6627   */\n      swap1\n      pop\n        /* \"--CODEGEN--\":6602:6633   */\n      swap3\n      swap2\n      pop\n      pop\n      jump\t// out\n        /* \"--CODEGEN--\":6641:6732   */\n    tag_64:\n      0x00\n        /* \"--CODEGEN--\":6703:6727   */\n      tag_122\n        /* \"--CODEGEN--\":6721:6726   */\n      dup3\n        /* \"--CODEGEN--\":6703:6727   */\n      tag_123\n      jump\t// in\n    tag_122:\n        /* \"--CODEGEN--\":6692:6727   */\n      swap1\n      pop\n        /* \"--CODEGEN--\":6686:6732   */\n      swap2\n      swap1\n      pop\n      jump\t// out\n        /* \"--CODEGEN--\":6739:6860   */\n    tag_123:\n      0x00\n        /* \"--CODEGEN--\":6812:6854   */\n      0xffffffffffffffffffffffffffffffffffffffff\n        /* \"--CODEGEN--\":6805:6810   */\n      dup3\n        /* \"--CODEGEN--\":6801:6855   */\n      and\n        /* \"--CODEGEN--\":6790:6855   */\n      swap1\n      pop\n        /* \"--CODEGEN--\":6784:6860   */\n      swap2\n      swap1\n      pop\n      jump\t// out\n        /* \"--CODEGEN--\":6867:6939   */\n    tag_98:\n      0x00\n        /* \"--CODEGEN--\":6929:6934   */\n      dup2\n        /* \"--CODEGEN--\":6918:6934   */\n      swap1\n      pop\n        /* \"--CODEGEN--\":6912:6939   */\n      swap2\n      swap1\n      pop\n      jump\t// out\n        /* \"--CODEGEN--\":6947:7092   */\n    tag_45:\n        /* \"--CODEGEN--\":7028:7034   */\n      dup3\n        /* \"--CODEGEN--\":7023:7026   */\n      dup2\n        /* \"--CODEGEN--\":7018:7021   */\n      dup4\n        /* \"--CODEGEN--\":7005:7035   */\n      calldatacopy\n        /* \"--CODEGEN--\":7084:7085   */\n      0x00\n        /* \"--CODEGEN--\":7075:7081   */\n      dup4\n        /* \"--CODEGEN--\":7070:7073   */\n      dup4\n        /* \"--CODEGEN--\":7066:7082   */\n      add\n        /* \"--CODEGEN--\":7059:7086   */\n      mstore\n        /* \"--CODEGEN--\":6998:7092   */\n      pop\n      pop\n      pop\n      jump\t// out\n        /* \"--CODEGEN--\":7101:7369   */\n    tag_85:\n        /* \"--CODEGEN--\":7166:7167   */\n      0x00\n        /* \"--CODEGEN--\":7173:7274   */\n    tag_128:\n        /* \"--CODEGEN--\":7187:7193   */\n      dup4\n        /* \"--CODEGEN--\":7184:7185   */\n      dup2\n        /* \"--CODEGEN--\":7181:7194   */\n      lt\n        /* \"--CODEGEN--\":7173:7274   */\n      iszero\n      tag_130\n      jumpi\n        /* \"--CODEGEN--\":7263:7264   */\n      dup1\n        /* \"--CODEGEN--\":7258:7261   */\n      dup3\n        /* \"--CODEGEN--\":7254:7265   */\n      add\n        /* \"--CODEGEN--\":7248:7266   */\n      mload\n        /* \"--CODEGEN--\":7244:7245   */\n      dup2\n        /* \"--CODEGEN--\":7239:7242   */\n      dup5\n        /* \"--CODEGEN--\":7235:7246   */\n      add\n        /* \"--CODEGEN--\":7228:7267   */\n      mstore\n        /* \"--CODEGEN--\":7209:7211   */\n      0x20\n        /* \"--CODEGEN--\":7206:7207   */\n      dup2\n        /* \"--CODEGEN--\":7202:7212   */\n      add\n        /* \"--CODEGEN--\":7197:7212   */\n      swap1\n      pop\n        /* \"--CODEGEN--\":7173:7274   */\n      jump(tag_128)\n    tag_130:\n        /* \"--CODEGEN--\":7289:7295   */\n      dup4\n        /* \"--CODEGEN--\":7286:7287   */\n      dup2\n        /* \"--CODEGEN--\":7283:7296   */\n      gt\n        /* \"--CODEGEN--\":7280:7282   */\n      iszero\n      tag_131\n      jumpi\n        /* \"--CODEGEN--\":7354:7355   */\n      0x00\n        /* \"--CODEGEN--\":7345:7351   */\n      dup5\n        /* \"--CODEGEN--\":7340:7343   */\n      dup5\n        /* \"--CODEGEN--\":7336:7352   */\n      add\n        /* \"--CODEGEN--\":7329:7356   */\n      mstore\n        /* \"--CODEGEN--\":7280:7282   */\n    tag_131:\n        /* \"--CODEGEN--\":7150:7369   */\n      pop\n      pop\n      pop\n      pop\n      jump\t// out\n        /* \"--CODEGEN--\":7377:7451   */\n    tag_99:\n      0x00\n        /* \"--CODEGEN--\":7441:7446   */\n      dup2\n        /* \"--CODEGEN--\":7430:7446   */\n      swap1\n      pop\n        /* \"--CODEGEN--\":7424:7451   */\n      swap2\n      swap1\n      pop\n      jump\t// out\n        /* \"--CODEGEN--\":7458:7555   */\n    tag_87:\n      0x00\n        /* \"--CODEGEN--\":7546:7548   */\n      0x1f\n        /* \"--CODEGEN--\":7542:7549   */\n      not\n        /* \"--CODEGEN--\":7537:7539   */\n      0x1f\n        /* \"--CODEGEN--\":7530:7535   */\n      dup4\n        /* \"--CODEGEN--\":7526:7540   */\n      add\n        /* \"--CODEGEN--\":7522:7550   */\n      and\n        /* \"--CODEGEN--\":7512:7550   */\n      swap1\n      pop\n        /* \"--CODEGEN--\":7506:7555   */\n      swap2\n      swap1\n      pop\n      jump\t// out\n        /* \"--CODEGEN--\":7563:7680   */\n    tag_49:\n        /* \"--CODEGEN--\":7632:7656   */\n      tag_135\n        /* \"--CODEGEN--\":7650:7655   */\n      dup2\n        /* \"--CODEGEN--\":7632:7656   */\n      tag_98\n      jump\t// in\n    tag_135:\n        /* \"--CODEGEN--\":7625:7630   */\n      dup2\n        /* \"--CODEGEN--\":7622:7657   */\n      eq\n        /* \"--CODEGEN--\":7612:7614   */\n      tag_136\n      jumpi\n        /* \"--CODEGEN--\":7671:7672   */\n      0x00\n        /* \"--CODEGEN--\":7668:7669   */\n      dup1\n        /* \"--CODEGEN--\":7661:7673   */\n      revert\n        /* \"--CODEGEN--\":7612:7614   */\n    tag_136:\n        /* \"--CODEGEN--\":7606:7680   */\n      pop\n      jump\t// out\n\n    auxdata: 0xa2646970667358221220fc6f5bd072f78c6577e1b85441ca15a881de81af33c93975bb264e8d0e035de064736f6c634300060c0033\n}\n",
				"bytecode": {
					"linkReferences": {},
					"object": "608060405234801561001057600080fd5b50336000806101000a81548173ffffffffffffffffffffffffffffffffffffffff021916908373ffffffffffffffffffffffffffffffffffffffff160217905550610621806100606000396000f3fe608060405234801561001057600080fd5b50600436106100415760003560e01c80638da5cb5b14610046578063bfc2e93814610064578063f01ca6b714610082575b600080fd5b61004e61009e565b60405161005b9190610445565b60405180910390f35b61006c6100c2565b6040516100799190610460565b60405180910390f35b61009c60048036038101906100979190610261565b6100c7565b005b60008054906101000a900473ffffffffffffffffffffffffffffffffffffffff1681565b606090565b60008383836040516020016100de93929190610410565b6040516020818303038152906040528051906020012090508060018560405161010791906103f9565b90815260200160405180910390208190555060038490806001815401808255809150506001900390600052602060002001600090919091909150908051906020019061015492919061015b565b5050505050565b828054600181600116156101000203166002900490600052602060002090601f016020900481019282601f1061019c57805160ff19168380011785556101ca565b828001600101855582156101ca579182015b828111156101c95782518255916020019190600101906101ae565b5b5090506101d791906101db565b5090565b5b808211156101f45760008160009055506001016101dc565b5090565b600082601f83011261020957600080fd5b813561021c610217826104af565b610482565b9150808252602083016020830185838301111561023857600080fd5b610243838284610577565b50505092915050565b60008135905061025b816105d4565b92915050565b60008060006060848603121561027657600080fd5b600084013567ffffffffffffffff81111561029057600080fd5b61029c868287016101f8565b93505060206102ad8682870161024c565b925050604084013567ffffffffffffffff8111156102ca57600080fd5b6102d6868287016101f8565b9150509250925092565b60006102ec8383610378565b905092915050565b6102fd8161053b565b82525050565b600061030e826104eb565b610318818561050e565b93508360208202850161032a856104db565b8060005b85811015610366578484038952815161034785826102e0565b945061035283610501565b925060208a0199505060018101905061032e565b50829750879550505050505092915050565b6000610383826104f6565b61038d818561051f565b935061039d818560208601610586565b6103a6816105c3565b840191505092915050565b60006103bc826104f6565b6103c68185610530565b93506103d6818560208601610586565b80840191505092915050565b6103f36103ee8261056d565b6105b9565b82525050565b600061040582846103b1565b915081905092915050565b600061041c82866103b1565b915061042882856103e2565b60208201915061043882846103b1565b9150819050949350505050565b600060208201905061045a60008301846102f4565b92915050565b6000602082019050818103600083015261047a8184610303565b905092915050565b6000604051905081810181811067ffffffffffffffff821117156104a557600080fd5b8060405250919050565b600067ffffffffffffffff8211156104c657600080fd5b601f19601f8301169050602081019050919050565b6000819050602082019050919050565b600081519050919050565b600081519050919050565b6000602082019050919050565b600082825260208201905092915050565b600082825260208201905092915050565b600081905092915050565b60006105468261054d565b9050919050565b600073ffffffffffffffffffffffffffffffffffffffff82169050919050565b6000819050919050565b82818337600083830152505050565b60005b838110156105a4578082015181840152602081019050610589565b838111156105b3576000848401525b50505050565b6000819050919050565b6000601f19601f8301169050919050565b6105dd8161056d565b81146105e857600080fd5b5056fea2646970667358221220fc6f5bd072f78c6577e1b85441ca15a881de81af33c93975bb264e8d0e035de064736f6c634300060c0033",
					"opcodes": "PUSH1 0x80 PUSH1 0x40 MSTORE CALLVALUE DUP1 ISZERO PUSH2 0x10 JUMPI PUSH1 0x0 DUP1 REVERT JUMPDEST POP CALLER PUSH1 0x0 DUP1 PUSH2 0x100 EXP DUP2 SLOAD DUP2 PUSH20 0xFFFFFFFFFFFFFFFFFFFFFFFFFFFFFFFFFFFFFFFF MUL NOT AND SWAP1 DUP4 PUSH20 0xFFFFFFFFFFFFFFFFFFFFFFFFFFFFFFFFFFFFFFFF AND MUL OR SWAP1 SSTORE POP PUSH2 0x621 DUP1 PUSH2 0x60 PUSH1 0x0 CODECOPY PUSH1 0x0 RETURN INVALID PUSH1 0x80 PUSH1 0x40 MSTORE CALLVALUE DUP1 ISZERO PUSH2 0x10 JUMPI PUSH1 0x0 DUP1 REVERT JUMPDEST POP PUSH1 0x4 CALLDATASIZE LT PUSH2 0x41 JUMPI PUSH1 0x0 CALLDATALOAD PUSH1 0xE0 SHR DUP1 PUSH4 0x8DA5CB5B EQ PUSH2 0x46 JUMPI DUP1 PUSH4 0xBFC2E938 EQ PUSH2 0x64 JUMPI DUP1 PUSH4 0xF01CA6B7 EQ PUSH2 0x82 JUMPI JUMPDEST PUSH1 0x0 DUP1 REVERT JUMPDEST PUSH2 0x4E PUSH2 0x9E JUMP JUMPDEST PUSH1 0x40 MLOAD PUSH2 0x5B SWAP2 SWAP1 PUSH2 0x445 JUMP JUMPDEST PUSH1 0x40 MLOAD DUP1 SWAP2 SUB SWAP1 RETURN JUMPDEST PUSH2 0x6C PUSH2 0xC2 JUMP JUMPDEST PUSH1 0x40 MLOAD PUSH2 0x79 SWAP2 SWAP1 PUSH2 0x460 JUMP JUMPDEST PUSH1 0x40 MLOAD DUP1 SWAP2 SUB SWAP1 RETURN JUMPDEST PUSH2 0x9C PUSH1 0x4 DUP1 CALLDATASIZE SUB DUP2 ADD SWAP1 PUSH2 0x97 SWAP2 SWAP1 PUSH2 0x261 JUMP JUMPDEST PUSH2 0xC7 JUMP JUMPDEST STOP JUMPDEST PUSH1 0x0 DUP1 SLOAD SWAP1 PUSH2 0x100 EXP SWAP1 DIV PUSH20 0xFFFFFFFFFFFFFFFFFFFFFFFFFFFFFFFFFFFFFFFF AND DUP2 JUMP JUMPDEST PUSH1 0x60 SWAP1 JUMP JUMPDEST PUSH1 0x0 DUP4 DUP4 DUP4 PUSH1 0x40 MLOAD PUSH1 0x20 ADD PUSH2 0xDE SWAP4 SWAP3 SWAP2 SWAP1 PUSH2 0x410 JUMP JUMPDEST PUSH1 0x40 MLOAD PUSH1 0x20 DUP2 DUP4 SUB SUB DUP2 MSTORE SWAP1 PUSH1 0x40 MSTORE DUP1 MLOAD SWAP1 PUSH1 0x20 ADD KECCAK256 SWAP1 POP DUP1 PUSH1 0x1 DUP6 PUSH1 0x40 MLOAD PUSH2 0x107 SWAP2 SWAP1 PUSH2 0x3F9 JUMP JUMPDEST SWAP1 DUP2 MSTORE PUSH1 0x20 ADD PUSH1 0x40 MLOAD DUP1 SWAP2 SUB SWAP1 KECCAK256 DUP2 SWAP1 SSTORE POP PUSH1 0x3 DUP5 SWAP1 DUP1 PUSH1 0x1 DUP2 SLOAD ADD DUP1 DUP3 SSTORE DUP1 SWAP2 POP POP PUSH1 0x1 SWAP1 SUB SWAP1 PUSH1 0x0 MSTORE PUSH1 0x20 PUSH1 0x0 KECCAK256 ADD PUSH1 0x0 SWAP1 SWAP2 SWAP1 SWAP2 SWAP1 SWAP2 POP SWAP1 DUP1 MLOAD SWAP1 PUSH1 0x20 ADD SWAP1 PUSH2 0x154 SWAP3 SWAP2 SWAP1 PUSH2 0x15B JUMP JUMPDEST POP POP POP POP POP JUMP JUMPDEST DUP3 DUP1 SLOAD PUSH1 0x1 DUP2 PUSH1 0x1 AND ISZERO PUSH2 0x100 MUL SUB AND PUSH1 0x2 SWAP1 DIV SWAP1 PUSH1 0x0 MSTORE PUSH1 0x20 PUSH1 0x0 KECCAK256 SWAP1 PUSH1 0x1F ADD PUSH1 0x20 SWAP1 DIV DUP2 ADD SWAP3 DUP3 PUSH1 0x1F LT PUSH2 0x19C JUMPI DUP1 MLOAD PUSH1 0xFF NOT AND DUP4 DUP1 ADD OR DUP6 SSTORE PUSH2 0x1CA JUMP JUMPDEST DUP3 DUP1 ADD PUSH1 0x1 ADD DUP6 SSTORE DUP3 ISZERO PUSH2 0x1CA JUMPI SWAP2 DUP3 ADD JUMPDEST DUP3 DUP2 GT ISZERO PUSH2 0x1C9 JUMPI DUP3 MLOAD DUP3 SSTORE SWAP2 PUSH1 0x20 ADD SWAP2 SWAP1 PUSH1 0x1 ADD SWAP1 PUSH2 0x1AE JUMP JUMPDEST JUMPDEST POP SWAP1 POP PUSH2 0x1D7 SWAP2 SWAP1 PUSH2 0x1DB JUMP JUMPDEST POP SWAP1 JUMP JUMPDEST JUMPDEST DUP1 DUP3 GT ISZERO PUSH2 0x1F4 JUMPI PUSH1 0x0 DUP2 PUSH1 0x0 SWAP1 SSTORE POP PUSH1 0x1 ADD PUSH2 0x1DC JUMP JUMPDEST POP SWAP1 JUMP JUMPDEST PUSH1 0x0 DUP3 PUSH1 0x1F DUP4 ADD SLT PUSH2 0x209 JUMPI PUSH1 0x0 DUP1 REVERT JUMPDEST DUP2 CALLDATALOAD PUSH2 0x21C PUSH2 0x217 DUP3 PUSH2 0x4AF JUMP JUMPDEST PUSH2 0x482 JUMP JUMPDEST SWAP2 POP DUP1 DUP3 MSTORE PUSH1 0x20 DUP4 ADD PUSH1 0x20 DUP4 ADD DUP6 DUP4 DUP4 ADD GT ISZERO PUSH2 0x238 JUMPI PUSH1 0x0 DUP1 REVERT JUMPDEST PUSH2 0x243 DUP4 DUP3 DUP5 PUSH2 0x577 JUMP JUMPDEST POP POP POP SWAP3 SWAP2 POP POP JUMP JUMPDEST PUSH1 0x0 DUP2 CALLDATALOAD SWAP1 POP PUSH2 0x25B DUP2 PUSH2 0x5D4 JUMP JUMPDEST SWAP3 SWAP2 POP POP JUMP JUMPDEST PUSH1 0x0 DUP1 PUSH1 0x0 PUSH1 0x60 DUP5 DUP7 SUB SLT ISZERO PUSH2 0x276 JUMPI PUSH1 0x0 DUP1 REVERT JUMPDEST PUSH1 0x0 DUP5 ADD CALLDATALOAD PUSH8 0xFFFFFFFFFFFFFFFF DUP2 GT ISZERO PUSH2 0x290 JUMPI PUSH1 0x0 DUP1 REVERT JUMPDEST PUSH2 0x29C DUP7 DUP3 DUP8 ADD PUSH2 0x1F8 JUMP JUMPDEST SWAP4 POP POP PUSH1 0x20 PUSH2 0x2AD DUP7 DUP3 DUP8 ADD PUSH2 0x24C JUMP JUMPDEST SWAP3 POP POP PUSH1 0x40 DUP5 ADD CALLDATALOAD PUSH8 0xFFFFFFFFFFFFFFFF DUP2 GT ISZERO PUSH2 0x2CA JUMPI PUSH1 0x0 DUP1 REVERT JUMPDEST PUSH2 0x2D6 DUP7 DUP3 DUP8 ADD PUSH2 0x1F8 JUMP JUMPDEST SWAP2 POP POP SWAP3 POP SWAP3 POP SWAP3 JUMP JUMPDEST PUSH1 0x0 PUSH2 0x2EC DUP4 DUP4 PUSH2 0x378 JUMP JUMPDEST SWAP1 POP SWAP3 SWAP2 POP POP JUMP JUMPDEST PUSH2 0x2FD DUP2 PUSH2 0x53B JUMP JUMPDEST DUP3 MSTORE POP POP JUMP JUMPDEST PUSH1 0x0 PUSH2 0x30E DUP3 PUSH2 0x4EB JUMP JUMPDEST PUSH2 0x318 DUP2 DUP6 PUSH2 0x50E JUMP JUMPDEST SWAP4 POP DUP4 PUSH1 0x20 DUP3 MUL DUP6 ADD PUSH2 0x32A DUP6 PUSH2 0x4DB JUMP JUMPDEST DUP1 PUSH1 0x0 JUMPDEST DUP6 DUP2 LT ISZERO PUSH2 0x366 JUMPI DUP5 DUP5 SUB DUP10 MSTORE DUP2 MLOAD PUSH2 0x347 DUP6 DUP3 PUSH2 0x2E0 JUMP JUMPDEST SWAP5 POP PUSH2 0x352 DUP4 PUSH2 0x501 JUMP JUMPDEST SWAP3 POP PUSH1 0x20 DUP11 ADD SWAP10 POP POP PUSH1 0x1 DUP2 ADD SWAP1 POP PUSH2 0x32E JUMP JUMPDEST POP DUP3 SWAP8 POP DUP8 SWAP6 POP POP POP POP POP POP SWAP3 SWAP2 POP POP JUMP JUMPDEST PUSH1 0x0 PUSH2 0x383 DUP3 PUSH2 0x4F6 JUMP JUMPDEST PUSH2 0x38D DUP2 DUP6 PUSH2 0x51F JUMP JUMPDEST SWAP4 POP PUSH2 0x39D DUP2 DUP6 PUSH1 0x20 DUP7 ADD PUSH2 0x586 JUMP JUMPDEST PUSH2 0x3A6 DUP2 PUSH2 0x5C3 JUMP JUMPDEST DUP5 ADD SWAP2 POP POP SWAP3 SWAP2 POP POP JUMP JUMPDEST PUSH1 0x0 PUSH2 0x3BC DUP3 PUSH2 0x4F6 JUMP JUMPDEST PUSH2 0x3C6 DUP2 DUP6 PUSH2 0x530 JUMP JUMPDEST SWAP4 POP PUSH2 0x3D6 DUP2 DUP6 PUSH1 0x20 DUP7 ADD PUSH2 0x586 JUMP JUMPDEST DUP1 DUP5 ADD SWAP2 POP POP SWAP3 SWAP2 POP POP JUMP JUMPDEST PUSH2 0x3F3 PUSH2 0x3EE DUP3 PUSH2 0x56D JUMP JUMPDEST PUSH2 0x5B9 JUMP JUMPDEST DUP3 MSTORE POP POP JUMP JUMPDEST PUSH1 0x0 PUSH2 0x405 DUP3 DUP5 PUSH2 0x3B1 JUMP JUMPDEST SWAP2 POP DUP2 SWAP1 POP SWAP3 SWAP2 POP POP JUMP JUMPDEST PUSH1 0x0 PUSH2 0x41C DUP3 DUP7 PUSH2 0x3B1 JUMP JUMPDEST SWAP2 POP PUSH2 0x428 DUP3 DUP6 PUSH2 0x3E2 JUMP JUMPDEST PUSH1 0x20 DUP3 ADD SWAP2 POP PUSH2 0x438 DUP3 DUP5 PUSH2 0x3B1 JUMP JUMPDEST SWAP2 POP DUP2 SWAP1 POP SWAP5 SWAP4 POP POP POP POP JUMP JUMPDEST PUSH1 0x0 PUSH1 0x20 DUP3 ADD SWAP1 POP PUSH2 0x45A PUSH1 0x0 DUP4 ADD DUP5 PUSH2 0x2F4 JUMP JUMPDEST SWAP3 SWAP2 POP POP JUMP JUMPDEST PUSH1 0x0 PUSH1 0x20 DUP3 ADD SWAP1 POP DUP2 DUP2 SUB PUSH1 0x0 DUP4 ADD MSTORE PUSH2 0x47A DUP2 DUP5 PUSH2 0x303 JUMP JUMPDEST SWAP1 POP SWAP3 SWAP2 POP POP JUMP JUMPDEST PUSH1 0x0 PUSH1 0x40 MLOAD SWAP1 POP DUP2 DUP2 ADD DUP2 DUP2 LT PUSH8 0xFFFFFFFFFFFFFFFF DUP3 GT OR ISZERO PUSH2 0x4A5 JUMPI PUSH1 0x0 DUP1 REVERT JUMPDEST DUP1 PUSH1 0x40 MSTORE POP SWAP2 SWAP1 POP JUMP JUMPDEST PUSH1 0x0 PUSH8 0xFFFFFFFFFFFFFFFF DUP3 GT ISZERO PUSH2 0x4C6 JUMPI PUSH1 0x0 DUP1 REVERT JUMPDEST PUSH1 0x1F NOT PUSH1 0x1F DUP4 ADD AND SWAP1 POP PUSH1 0x20 DUP2 ADD SWAP1 POP SWAP2 SWAP1 POP JUMP JUMPDEST PUSH1 0x0 DUP2 SWAP1 POP PUSH1 0x20 DUP3 ADD SWAP1 POP SWAP2 SWAP1 POP JUMP JUMPDEST PUSH1 0x0 DUP2 MLOAD SWAP1 POP SWAP2 SWAP1 POP JUMP JUMPDEST PUSH1 0x0 DUP2 MLOAD SWAP1 POP SWAP2 SWAP1 POP JUMP JUMPDEST PUSH1 0x0 PUSH1 0x20 DUP3 ADD SWAP1 POP SWAP2 SWAP1 POP JUMP JUMPDEST PUSH1 0x0 DUP3 DUP3 MSTORE PUSH1 0x20 DUP3 ADD SWAP1 POP SWAP3 SWAP2 POP POP JUMP JUMPDEST PUSH1 0x0 DUP3 DUP3 MSTORE PUSH1 0x20 DUP3 ADD SWAP1 POP SWAP3 SWAP2 POP POP JUMP JUMPDEST PUSH1 0x0 DUP2 SWAP1 POP SWAP3 SWAP2 POP POP JUMP JUMPDEST PUSH1 0x0 PUSH2 0x546 DUP3 PUSH2 0x54D JUMP JUMPDEST SWAP1 POP SWAP2 SWAP1 POP JUMP JUMPDEST PUSH1 0x0 PUSH20 0xFFFFFFFFFFFFFFFFFFFFFFFFFFFFFFFFFFFFFFFF DUP3 AND SWAP1 POP SWAP2 SWAP1 POP JUMP JUMPDEST PUSH1 0x0 DUP2 SWAP1 POP SWAP2 SWAP1 POP JUMP JUMPDEST DUP3 DUP2 DUP4 CALLDATACOPY PUSH1 0x0 DUP4 DUP4 ADD MSTORE POP POP POP JUMP JUMPDEST PUSH1 0x0 JUMPDEST DUP4 DUP2 LT ISZERO PUSH2 0x5A4 JUMPI DUP1 DUP3 ADD MLOAD DUP2 DUP5 ADD MSTORE PUSH1 0x20 DUP2 ADD SWAP1 POP PUSH2 0x589 JUMP JUMPDEST DUP4 DUP2 GT ISZERO PUSH2 0x5B3 JUMPI PUSH1 0x0 DUP5 DUP5 ADD MSTORE JUMPDEST POP POP POP POP JUMP JUMPDEST PUSH1 0x0 DUP2 SWAP1 POP SWAP2 SWAP1 POP JUMP JUMPDEST PUSH1 0x0 PUSH1 0x1F NOT PUSH1 0x1F DUP4 ADD AND SWAP1 POP SWAP2 SWAP1 POP JUMP JUMPDEST PUSH2 0x5DD DUP2 PUSH2 0x56D JUMP JUMPDEST DUP2 EQ PUSH2 0x5E8 JUMPI PUSH1 0x0 DUP1 REVERT JUMPDEST POP JUMP INVALID LOG2 PUSH5 0x6970667358 0x22 SLT KECCAK256 0xFC PUSH16 0x5BD072F78C6577E1B85441CA15A881DE DUP2 0xAF CALLER 0xC9 CODECOPY PUSH22 0xBB264E8D0E035DE064736F6C634300060C0033000000 "
				},
				"gasEstimates": {
					"creation": {
						"codeDepositCost": "313800",
						"executionCost": "21221",
						"totalCost": "335021"
					},
					"external": {
						"Representar(string,uint256,string)": "infinite",
						"VerCandidatos()": "infinite",
						"owner()": "1189"
					}
				},
				"methodIdentifiers": {
					"Representar(string,uint256,string)": "f01ca6b7",
					"VerCandidatos()": "bfc2e938",
					"owner()": "8da5cb5b"
				}
			},
			"storageLayout": {
				"storage": [
					{
						"astId": 4,
						"contract": "Votaciones/votaciones.sol:votacion",
						"label": "owner",
						"offset": 0,
						"slot": "0",
						"type": "t_address"
					},
					{
						"astId": 8,
						"contract": "Votaciones/votaciones.sol:votacion",
						"label": "Candidato",
						"offset": 0,
						"slot": "1",
						"type": "t_mapping(t_string_memory_ptr,t_bytes32)"
					},
					{
						"astId": 12,
						"contract": "Votaciones/votaciones.sol:votacion",
						"label": "VotosCandidato",
						"offset": 0,
						"slot": "2",
						"type": "t_mapping(t_string_memory_ptr,t_uint256)"
					},
					{
						"astId": 15,
						"contract": "Votaciones/votaciones.sol:votacion",
						"label": "candidatos",
						"offset": 0,
						"slot": "3",
						"type": "t_array(t_string_storage)dyn_storage"
					},
					{
						"astId": 18,
						"contract": "Votaciones/votaciones.sol:votacion",
						"label": "votantes",
						"offset": 0,
						"slot": "4",
						"type": "t_array(t_bytes32)dyn_storage"
					}
				],
				"types": {
					"t_address": {
						"encoding": "inplace",
						"label": "address",
						"numberOfBytes": "20"
					},
					"t_array(t_bytes32)dyn_storage": {
						"base": "t_bytes32",
						"encoding": "dynamic_array",
						"label": "bytes32[]",
						"numberOfBytes": "32"
					},
					"t_array(t_string_storage)dyn_storage": {
						"base": "t_string_storage",
						"encoding": "dynamic_array",
						"label": "string[]",
						"numberOfBytes": "32"
					},
					"t_bytes32": {
						"encoding": "inplace",
						"label": "bytes32",
						"numberOfBytes": "32"
					},
					"t_mapping(t_string_memory_ptr,t_bytes32)": {
						"encoding": "mapping",
						"key": "t_string_memory_ptr",
						"label": "mapping(string => bytes32)",
						"numberOfBytes": "32",
						"value": "t_bytes32"
					},
					"t_mapping(t_string_memory_ptr,t_uint256)": {
						"encoding": "mapping",
						"key": "t_string_memory_ptr",
						"label": "mapping(string => uint256)",
						"numberOfBytes": "32",
						"value": "t_uint256"
					},
					"t_string_memory_ptr": {
						"encoding": "bytes",
						"label": "string",
						"numberOfBytes": "32"
					},
					"t_string_storage": {
						"encoding": "bytes",
						"label": "string",
						"numberOfBytes": "32"
					},
					"t_uint256": {
						"encoding": "inplace",
						"label": "uint256",
						"numberOfBytes": "32"
					}
				}
			},
			"userdoc": {
				"kind": "user",
				"methods": {},
				"version": 1
			}
		}
	}
}