{
	"Votaciones/votaciones.sol": {
		"votacion": {
			"abi": [
				{
					"inputs": [],
					"stateMutability": "nonpayable",
					"type": "constructor"
				},
				{
					"inputs": [
						{
							"internalType": "string",
							"name": "_nombre",
							"type": "string"
						}
					],
					"name": "Representar",
					"outputs": [],
					"stateMutability": "nonpayable",
					"type": "function"
				},
				{
					"inputs": [],
					"name": "owner",
					"outputs": [
						{
							"internalType": "address",
							"name": "",
							"type": "address"
						}
					],
					"stateMutability": "view",
					"type": "function"
				}
			],
			"devdoc": {
				"kind": "dev",
				"methods": {},
				"version": 1
			},
			"evm": {
				"assembly": "    /* \"Votaciones/votaciones.sol\":102:752  contract votacion {\r... */\n  mstore(0x40, 0x80)\n    /* \"Votaciones/votaciones.sol\":204:263  constructor () public {\r... */\n  callvalue\n  dup1\n  iszero\n  tag_1\n  jumpi\n  0x00\n  dup1\n  revert\ntag_1:\n  pop\n    /* \"Votaciones/votaciones.sol\":245:255  msg.sender */\n  caller\n    /* \"Votaciones/votaciones.sol\":237:242  owner */\n  0x00\n  dup1\n    /* \"Votaciones/votaciones.sol\":237:255  owner = msg.sender */\n  0x0100\n  exp\n  dup2\n  sload\n  dup2\n  0xffffffffffffffffffffffffffffffffffffffff\n  mul\n  not\n  and\n  swap1\n  dup4\n  0xffffffffffffffffffffffffffffffffffffffff\n  and\n  mul\n  or\n  swap1\n  sstore\n  pop\n    /* \"Votaciones/votaciones.sol\":102:752  contract votacion {\r... */\n  dataSize(sub_0)\n  dup1\n  dataOffset(sub_0)\n  0x00\n  codecopy\n  0x00\n  return\nstop\n\nsub_0: assembly {\n        /* \"Votaciones/votaciones.sol\":102:752  contract votacion {\r... */\n      mstore(0x40, 0x80)\n      callvalue\n      dup1\n      iszero\n      tag_1\n      jumpi\n      0x00\n      dup1\n      revert\n    tag_1:\n      pop\n      jumpi(tag_2, lt(calldatasize, 0x04))\n      shr(0xe0, calldataload(0x00))\n      dup1\n      0x2ca8c422\n      eq\n      tag_3\n      jumpi\n      dup1\n      0x8da5cb5b\n      eq\n      tag_4\n      jumpi\n    tag_2:\n      0x00\n      dup1\n      revert\n        /* \"Votaciones/votaciones.sol\":688:749  function Representar(string memory _nombre) public {\r... */\n    tag_3:\n      tag_5\n      0x04\n      dup1\n      calldatasize\n      sub\n      dup2\n      add\n      swap1\n      tag_6\n      swap2\n      swap1\n      tag_7\n      jump\t// in\n    tag_6:\n      tag_8\n      jump\t// in\n    tag_5:\n      stop\n        /* \"Votaciones/votaciones.sol\":175:195  address public owner */\n    tag_4:\n      tag_9\n      tag_10\n      jump\t// in\n    tag_9:\n      mload(0x40)\n      tag_11\n      swap2\n      swap1\n      tag_12\n      jump\t// in\n    tag_11:\n      mload(0x40)\n      dup1\n      swap2\n      sub\n      swap1\n      return\n        /* \"Votaciones/votaciones.sol\":688:749  function Representar(string memory _nombre) public {\r... */\n    tag_8:\n      pop\n      jump\t// out\n        /* \"Votaciones/votaciones.sol\":175:195  address public owner */\n    tag_10:\n      0x00\n      dup1\n      sload\n      swap1\n      0x0100\n      exp\n      swap1\n      div\n      0xffffffffffffffffffffffffffffffffffffffff\n      and\n      dup2\n      jump\t// out\n        /* \"--CODEGEN--\":6:448   */\n    tag_15:\n      0x00\n        /* \"--CODEGEN--\":108:111   */\n      dup3\n        /* \"--CODEGEN--\":101:105   */\n      0x1f\n        /* \"--CODEGEN--\":93:99   */\n      dup4\n        /* \"--CODEGEN--\":89:106   */\n      add\n        /* \"--CODEGEN--\":85:112   */\n      slt\n        /* \"--CODEGEN--\":75:77   */\n      tag_17\n      jumpi\n        /* \"--CODEGEN--\":126:127   */\n      0x00\n        /* \"--CODEGEN--\":123:124   */\n      dup1\n        /* \"--CODEGEN--\":116:128   */\n      revert\n        /* \"--CODEGEN--\":75:77   */\n    tag_17:\n        /* \"--CODEGEN--\":163:169   */\n      dup2\n        /* \"--CODEGEN--\":150:170   */\n      calldataload\n        /* \"--CODEGEN--\":185:250   */\n      tag_18\n        /* \"--CODEGEN--\":200:249   */\n      tag_19\n        /* \"--CODEGEN--\":242:248   */\n      dup3\n        /* \"--CODEGEN--\":200:249   */\n      tag_20\n      jump\t// in\n    tag_19:\n        /* \"--CODEGEN--\":185:250   */\n      tag_21\n      jump\t// in\n    tag_18:\n        /* \"--CODEGEN--\":176:250   */\n      swap2\n      pop\n        /* \"--CODEGEN--\":270:276   */\n      dup1\n        /* \"--CODEGEN--\":263:268   */\n      dup3\n        /* \"--CODEGEN--\":256:277   */\n      mstore\n        /* \"--CODEGEN--\":306:310   */\n      0x20\n        /* \"--CODEGEN--\":298:304   */\n      dup4\n        /* \"--CODEGEN--\":294:311   */\n      add\n        /* \"--CODEGEN--\":339:343   */\n      0x20\n        /* \"--CODEGEN--\":332:337   */\n      dup4\n        /* \"--CODEGEN--\":328:344   */\n      add\n        /* \"--CODEGEN--\":374:377   */\n      dup6\n        /* \"--CODEGEN--\":365:371   */\n      dup4\n        /* \"--CODEGEN--\":360:363   */\n      dup4\n        /* \"--CODEGEN--\":356:372   */\n      add\n        /* \"--CODEGEN--\":353:378   */\n      gt\n        /* \"--CODEGEN--\":350:352   */\n      iszero\n      tag_22\n      jumpi\n        /* \"--CODEGEN--\":391:392   */\n      0x00\n        /* \"--CODEGEN--\":388:389   */\n      dup1\n        /* \"--CODEGEN--\":381:393   */\n      revert\n        /* \"--CODEGEN--\":350:352   */\n    tag_22:\n        /* \"--CODEGEN--\":401:442   */\n      tag_23\n        /* \"--CODEGEN--\":435:441   */\n      dup4\n        /* \"--CODEGEN--\":430:433   */\n      dup3\n        /* \"--CODEGEN--\":425:428   */\n      dup5\n        /* \"--CODEGEN--\":401:442   */\n      tag_24\n      jump\t// in\n    tag_23:\n        /* \"--CODEGEN--\":68:448   */\n      pop\n      pop\n      pop\n      swap3\n      swap2\n      pop\n      pop\n      jump\t// out\n        /* \"--CODEGEN--\":456:803   */\n    tag_7:\n      0x00\n        /* \"--CODEGEN--\":570:572   */\n      0x20\n        /* \"--CODEGEN--\":558:567   */\n      dup3\n        /* \"--CODEGEN--\":549:556   */\n      dup5\n        /* \"--CODEGEN--\":545:568   */\n      sub\n        /* \"--CODEGEN--\":541:573   */\n      slt\n        /* \"--CODEGEN--\":538:540   */\n      iszero\n      tag_26\n      jumpi\n        /* \"--CODEGEN--\":586:587   */\n      0x00\n        /* \"--CODEGEN--\":583:584   */\n      dup1\n        /* \"--CODEGEN--\":576:588   */\n      revert\n        /* \"--CODEGEN--\":538:540   */\n    tag_26:\n        /* \"--CODEGEN--\":649:650   */\n      0x00\n        /* \"--CODEGEN--\":638:647   */\n      dup3\n        /* \"--CODEGEN--\":634:651   */\n      add\n        /* \"--CODEGEN--\":621:652   */\n      calldataload\n        /* \"--CODEGEN--\":672:690   */\n      0xffffffffffffffff\n        /* \"--CODEGEN--\":664:670   */\n      dup2\n        /* \"--CODEGEN--\":661:691   */\n      gt\n        /* \"--CODEGEN--\":658:660   */\n      iszero\n      tag_27\n      jumpi\n        /* \"--CODEGEN--\":704:705   */\n      0x00\n        /* \"--CODEGEN--\":701:702   */\n      dup1\n        /* \"--CODEGEN--\":694:706   */\n      revert\n        /* \"--CODEGEN--\":658:660   */\n    tag_27:\n        /* \"--CODEGEN--\":724:787   */\n      tag_28\n        /* \"--CODEGEN--\":779:786   */\n      dup5\n        /* \"--CODEGEN--\":770:776   */\n      dup3\n        /* \"--CODEGEN--\":759:768   */\n      dup6\n        /* \"--CODEGEN--\":755:777   */\n      add\n        /* \"--CODEGEN--\":724:787   */\n      tag_15\n      jump\t// in\n    tag_28:\n        /* \"--CODEGEN--\":714:787   */\n      swap2\n      pop\n        /* \"--CODEGEN--\":600:793   */\n      pop\n        /* \"--CODEGEN--\":532:803   */\n      swap3\n      swap2\n      pop\n      pop\n      jump\t// out\n        /* \"--CODEGEN--\":810:923   */\n    tag_29:\n        /* \"--CODEGEN--\":893:917   */\n      tag_31\n        /* \"--CODEGEN--\":911:916   */\n      dup2\n        /* \"--CODEGEN--\":893:917   */\n      tag_32\n      jump\t// in\n    tag_31:\n        /* \"--CODEGEN--\":888:891   */\n      dup3\n        /* \"--CODEGEN--\":881:918   */\n      mstore\n        /* \"--CODEGEN--\":875:923   */\n      pop\n      pop\n      jump\t// out\n        /* \"--CODEGEN--\":930:1152   */\n    tag_12:\n      0x00\n        /* \"--CODEGEN--\":1057:1059   */\n      0x20\n        /* \"--CODEGEN--\":1046:1055   */\n      dup3\n        /* \"--CODEGEN--\":1042:1060   */\n      add\n        /* \"--CODEGEN--\":1034:1060   */\n      swap1\n      pop\n        /* \"--CODEGEN--\":1071:1142   */\n      tag_34\n        /* \"--CODEGEN--\":1139:1140   */\n      0x00\n        /* \"--CODEGEN--\":1128:1137   */\n      dup4\n        /* \"--CODEGEN--\":1124:1141   */\n      add\n        /* \"--CODEGEN--\":1115:1121   */\n      dup5\n        /* \"--CODEGEN--\":1071:1142   */\n      tag_29\n      jump\t// in\n    tag_34:\n        /* \"--CODEGEN--\":1028:1152   */\n      swap3\n      swap2\n      pop\n      pop\n      jump\t// out\n        /* \"--CODEGEN--\":1159:1415   */\n    tag_21:\n      0x00\n        /* \"--CODEGEN--\":1221:1223   */\n      0x40\n        /* \"--CODEGEN--\":1215:1224   */\n      mload\n        /* \"--CODEGEN--\":1205:1224   */\n      swap1\n      pop\n        /* \"--CODEGEN--\":1259:1263   */\n      dup2\n        /* \"--CODEGEN--\":1251:1257   */\n      dup2\n        /* \"--CODEGEN--\":1247:1264   */\n      add\n        /* \"--CODEGEN--\":1358:1364   */\n      dup2\n        /* \"--CODEGEN--\":1346:1356   */\n      dup2\n        /* \"--CODEGEN--\":1343:1365   */\n      lt\n        /* \"--CODEGEN--\":1322:1340   */\n      0xffffffffffffffff\n        /* \"--CODEGEN--\":1310:1320   */\n      dup3\n        /* \"--CODEGEN--\":1307:1341   */\n      gt\n        /* \"--CODEGEN--\":1304:1366   */\n      or\n        /* \"--CODEGEN--\":1301:1303   */\n      iszero\n      tag_36\n      jumpi\n        /* \"--CODEGEN--\":1379:1380   */\n      0x00\n        /* \"--CODEGEN--\":1376:1377   */\n      dup1\n        /* \"--CODEGEN--\":1369:1381   */\n      revert\n        /* \"--CODEGEN--\":1301:1303   */\n    tag_36:\n        /* \"--CODEGEN--\":1399:1409   */\n      dup1\n        /* \"--CODEGEN--\":1395:1397   */\n      0x40\n        /* \"--CODEGEN--\":1388:1410   */\n      mstore\n        /* \"--CODEGEN--\":1199:1415   */\n      pop\n      swap2\n      swap1\n      pop\n      jump\t// out\n        /* \"--CODEGEN--\":1422:1744   */\n    tag_20:\n      0x00\n        /* \"--CODEGEN--\":1566:1584   */\n      0xffffffffffffffff\n        /* \"--CODEGEN--\":1558:1564   */\n      dup3\n        /* \"--CODEGEN--\":1555:1585   */\n      gt\n        /* \"--CODEGEN--\":1552:1554   */\n      iszero\n      tag_38\n      jumpi\n        /* \"--CODEGEN--\":1598:1599   */\n      0x00\n        /* \"--CODEGEN--\":1595:1596   */\n      dup1\n        /* \"--CODEGEN--\":1588:1600   */\n      revert\n        /* \"--CODEGEN--\":1552:1554   */\n    tag_38:\n        /* \"--CODEGEN--\":1665:1669   */\n      0x1f\n        /* \"--CODEGEN--\":1661:1670   */\n      not\n        /* \"--CODEGEN--\":1654:1658   */\n      0x1f\n        /* \"--CODEGEN--\":1646:1652   */\n      dup4\n        /* \"--CODEGEN--\":1642:1659   */\n      add\n        /* \"--CODEGEN--\":1638:1671   */\n      and\n        /* \"--CODEGEN--\":1630:1671   */\n      swap1\n      pop\n        /* \"--CODEGEN--\":1729:1733   */\n      0x20\n        /* \"--CODEGEN--\":1723:1727   */\n      dup2\n        /* \"--CODEGEN--\":1719:1734   */\n      add\n        /* \"--CODEGEN--\":1711:1734   */\n      swap1\n      pop\n        /* \"--CODEGEN--\":1489:1744   */\n      swap2\n      swap1\n      pop\n      jump\t// out\n        /* \"--CODEGEN--\":1751:1842   */\n    tag_32:\n      0x00\n        /* \"--CODEGEN--\":1813:1837   */\n      tag_40\n        /* \"--CODEGEN--\":1831:1836   */\n      dup3\n        /* \"--CODEGEN--\":1813:1837   */\n      tag_41\n      jump\t// in\n    tag_40:\n        /* \"--CODEGEN--\":1802:1837   */\n      swap1\n      pop\n        /* \"--CODEGEN--\":1796:1842   */\n      swap2\n      swap1\n      pop\n      jump\t// out\n        /* \"--CODEGEN--\":1849:1970   */\n    tag_41:\n      0x00\n        /* \"--CODEGEN--\":1922:1964   */\n      0xffffffffffffffffffffffffffffffffffffffff\n        /* \"--CODEGEN--\":1915:1920   */\n      dup3\n        /* \"--CODEGEN--\":1911:1965   */\n      and\n        /* \"--CODEGEN--\":1900:1965   */\n      swap1\n      pop\n        /* \"--CODEGEN--\":1894:1970   */\n      swap2\n      swap1\n      pop\n      jump\t// out\n        /* \"--CODEGEN--\":1978:2123   */\n    tag_24:\n        /* \"--CODEGEN--\":2059:2065   */\n      dup3\n        /* \"--CODEGEN--\":2054:2057   */\n      dup2\n        /* \"--CODEGEN--\":2049:2052   */\n      dup4\n        /* \"--CODEGEN--\":2036:2066   */\n      calldatacopy\n        /* \"--CODEGEN--\":2115:2116   */\n      0x00\n        /* \"--CODEGEN--\":2106:2112   */\n      dup4\n        /* \"--CODEGEN--\":2101:2104   */\n      dup4\n        /* \"--CODEGEN--\":2097:2113   */\n      add\n        /* \"--CODEGEN--\":2090:2117   */\n      mstore\n        /* \"--CODEGEN--\":2029:2123   */\n      pop\n      pop\n      pop\n      jump\t// out\n\n    auxdata: 0xa264697066735822122024edf5016e11abb343940cdd94292f0eafc70254c0d82880f4912eb6e1a562ce64736f6c634300060c0033\n}\n",
				"bytecode": {
					"linkReferences": {},
					"object": "608060405234801561001057600080fd5b50336000806101000a81548173ffffffffffffffffffffffffffffffffffffffff021916908373ffffffffffffffffffffffffffffffffffffffff16021790555061022b806100606000396000f3fe608060405234801561001057600080fd5b50600436106100365760003560e01c80632ca8c4221461003b5780638da5cb5b14610057575b600080fd5b610055600480360381019061005091906100f0565b610075565b005b61005f610078565b60405161006c9190610140565b60405180910390f35b50565b60008054906101000a900473ffffffffffffffffffffffffffffffffffffffff1681565b600082601f8301126100ad57600080fd5b81356100c06100bb82610188565b61015b565b915080825260208301602083018583830111156100dc57600080fd5b6100e78382846101e6565b50505092915050565b60006020828403121561010257600080fd5b600082013567ffffffffffffffff81111561011c57600080fd5b6101288482850161009c565b91505092915050565b61013a816101b4565b82525050565b60006020820190506101556000830184610131565b92915050565b6000604051905081810181811067ffffffffffffffff8211171561017e57600080fd5b8060405250919050565b600067ffffffffffffffff82111561019f57600080fd5b601f19601f8301169050602081019050919050565b60006101bf826101c6565b9050919050565b600073ffffffffffffffffffffffffffffffffffffffff82169050919050565b8281833760008383015250505056fea264697066735822122024edf5016e11abb343940cdd94292f0eafc70254c0d82880f4912eb6e1a562ce64736f6c634300060c0033",
					"opcodes": "PUSH1 0x80 PUSH1 0x40 MSTORE CALLVALUE DUP1 ISZERO PUSH2 0x10 JUMPI PUSH1 0x0 DUP1 REVERT JUMPDEST POP CALLER PUSH1 0x0 DUP1 PUSH2 0x100 EXP DUP2 SLOAD DUP2 PUSH20 0xFFFFFFFFFFFFFFFFFFFFFFFFFFFFFFFFFFFFFFFF MUL NOT AND SWAP1 DUP4 PUSH20 0xFFFFFFFFFFFFFFFFFFFFFFFFFFFFFFFFFFFFFFFF AND MUL OR SWAP1 SSTORE POP PUSH2 0x22B DUP1 PUSH2 0x60 PUSH1 0x0 CODECOPY PUSH1 0x0 RETURN INVALID PUSH1 0x80 PUSH1 0x40 MSTORE CALLVALUE DUP1 ISZERO PUSH2 0x10 JUMPI PUSH1 0x0 DUP1 REVERT JUMPDEST POP PUSH1 0x4 CALLDATASIZE LT PUSH2 0x36 JUMPI PUSH1 0x0 CALLDATALOAD PUSH1 0xE0 SHR DUP1 PUSH4 0x2CA8C422 EQ PUSH2 0x3B JUMPI DUP1 PUSH4 0x8DA5CB5B EQ PUSH2 0x57 JUMPI JUMPDEST PUSH1 0x0 DUP1 REVERT JUMPDEST PUSH2 0x55 PUSH1 0x4 DUP1 CALLDATASIZE SUB DUP2 ADD SWAP1 PUSH2 0x50 SWAP2 SWAP1 PUSH2 0xF0 JUMP JUMPDEST PUSH2 0x75 JUMP JUMPDEST STOP JUMPDEST PUSH2 0x5F PUSH2 0x78 JUMP JUMPDEST PUSH1 0x40 MLOAD PUSH2 0x6C SWAP2 SWAP1 PUSH2 0x140 JUMP JUMPDEST PUSH1 0x40 MLOAD DUP1 SWAP2 SUB SWAP1 RETURN JUMPDEST POP JUMP JUMPDEST PUSH1 0x0 DUP1 SLOAD SWAP1 PUSH2 0x100 EXP SWAP1 DIV PUSH20 0xFFFFFFFFFFFFFFFFFFFFFFFFFFFFFFFFFFFFFFFF AND DUP2 JUMP JUMPDEST PUSH1 0x0 DUP3 PUSH1 0x1F DUP4 ADD SLT PUSH2 0xAD JUMPI PUSH1 0x0 DUP1 REVERT JUMPDEST DUP2 CALLDATALOAD PUSH2 0xC0 PUSH2 0xBB DUP3 PUSH2 0x188 JUMP JUMPDEST PUSH2 0x15B JUMP JUMPDEST SWAP2 POP DUP1 DUP3 MSTORE PUSH1 0x20 DUP4 ADD PUSH1 0x20 DUP4 ADD DUP6 DUP4 DUP4 ADD GT ISZERO PUSH2 0xDC JUMPI PUSH1 0x0 DUP1 REVERT JUMPDEST PUSH2 0xE7 DUP4 DUP3 DUP5 PUSH2 0x1E6 JUMP JUMPDEST POP POP POP SWAP3 SWAP2 POP POP JUMP JUMPDEST PUSH1 0x0 PUSH1 0x20 DUP3 DUP5 SUB SLT ISZERO PUSH2 0x102 JUMPI PUSH1 0x0 DUP1 REVERT JUMPDEST PUSH1 0x0 DUP3 ADD CALLDATALOAD PUSH8 0xFFFFFFFFFFFFFFFF DUP2 GT ISZERO PUSH2 0x11C JUMPI PUSH1 0x0 DUP1 REVERT JUMPDEST PUSH2 0x128 DUP5 DUP3 DUP6 ADD PUSH2 0x9C JUMP JUMPDEST SWAP2 POP POP SWAP3 SWAP2 POP POP JUMP JUMPDEST PUSH2 0x13A DUP2 PUSH2 0x1B4 JUMP JUMPDEST DUP3 MSTORE POP POP JUMP JUMPDEST PUSH1 0x0 PUSH1 0x20 DUP3 ADD SWAP1 POP PUSH2 0x155 PUSH1 0x0 DUP4 ADD DUP5 PUSH2 0x131 JUMP JUMPDEST SWAP3 SWAP2 POP POP JUMP JUMPDEST PUSH1 0x0 PUSH1 0x40 MLOAD SWAP1 POP DUP2 DUP2 ADD DUP2 DUP2 LT PUSH8 0xFFFFFFFFFFFFFFFF DUP3 GT OR ISZERO PUSH2 0x17E JUMPI PUSH1 0x0 DUP1 REVERT JUMPDEST DUP1 PUSH1 0x40 MSTORE POP SWAP2 SWAP1 POP JUMP JUMPDEST PUSH1 0x0 PUSH8 0xFFFFFFFFFFFFFFFF DUP3 GT ISZERO PUSH2 0x19F JUMPI PUSH1 0x0 DUP1 REVERT JUMPDEST PUSH1 0x1F NOT PUSH1 0x1F DUP4 ADD AND SWAP1 POP PUSH1 0x20 DUP2 ADD SWAP1 POP SWAP2 SWAP1 POP JUMP JUMPDEST PUSH1 0x0 PUSH2 0x1BF DUP3 PUSH2 0x1C6 JUMP JUMPDEST SWAP1 POP SWAP2 SWAP1 POP JUMP JUMPDEST PUSH1 0x0 PUSH20 0xFFFFFFFFFFFFFFFFFFFFFFFFFFFFFFFFFFFFFFFF DUP3 AND SWAP1 POP SWAP2 SWAP1 POP JUMP JUMPDEST DUP3 DUP2 DUP4 CALLDATACOPY PUSH1 0x0 DUP4 DUP4 ADD MSTORE POP POP POP JUMP INVALID LOG2 PUSH5 0x6970667358 0x22 SLT KECCAK256 0x24 0xED CREATE2 ADD PUSH15 0x11ABB343940CDD94292F0EAFC70254 0xC0 0xD8 0x28 DUP1 DELEGATECALL SWAP2 0x2E 0xB6 0xE1 0xA5 PUSH3 0xCE6473 PUSH16 0x6C634300060C00330000000000000000 "
				},
				"gasEstimates": {
					"creation": {
						"codeDepositCost": "111000",
						"executionCost": "21025",
						"totalCost": "132025"
					},
					"external": {
						"Representar(string)": "infinite",
						"owner()": "1211"
					}
				},
				"methodIdentifiers": {
					"Representar(string)": "2ca8c422",
					"owner()": "8da5cb5b"
				}
			},
			"storageLayout": {
				"storage": [
					{
						"astId": 4,
						"contract": "Votaciones/votaciones.sol:votacion",
						"label": "owner",
						"offset": 0,
						"slot": "0",
						"type": "t_address"
					},
					{
						"astId": 17,
						"contract": "Votaciones/votaciones.sol:votacion",
						"label": "IDCandidato",
						"offset": 0,
						"slot": "1",
						"type": "t_mapping(t_string_memory_ptr,t_bytes32)"
					},
					{
						"astId": 21,
						"contract": "Votaciones/votaciones.sol:votacion",
						"label": "VotosCandidato",
						"offset": 0,
						"slot": "2",
						"type": "t_mapping(t_string_memory_ptr,t_uint256)"
					},
					{
						"astId": 24,
						"contract": "Votaciones/votaciones.sol:votacion",
						"label": "candidatos",
						"offset": 0,
						"slot": "3",
						"type": "t_array(t_string_storage)dyn_storage"
					},
					{
						"astId": 27,
						"contract": "Votaciones/votaciones.sol:votacion",
						"label": "votantes",
						"offset": 0,
						"slot": "4",
						"type": "t_array(t_bytes32)dyn_storage"
					}
				],
				"types": {
					"t_address": {
						"encoding": "inplace",
						"label": "address",
						"numberOfBytes": "20"
					},
					"t_array(t_bytes32)dyn_storage": {
						"base": "t_bytes32",
						"encoding": "dynamic_array",
						"label": "bytes32[]",
						"numberOfBytes": "32"
					},
					"t_array(t_string_storage)dyn_storage": {
						"base": "t_string_storage",
						"encoding": "dynamic_array",
						"label": "string[]",
						"numberOfBytes": "32"
					},
					"t_bytes32": {
						"encoding": "inplace",
						"label": "bytes32",
						"numberOfBytes": "32"
					},
					"t_mapping(t_string_memory_ptr,t_bytes32)": {
						"encoding": "mapping",
						"key": "t_string_memory_ptr",
						"label": "mapping(string => bytes32)",
						"numberOfBytes": "32",
						"value": "t_bytes32"
					},
					"t_mapping(t_string_memory_ptr,t_uint256)": {
						"encoding": "mapping",
						"key": "t_string_memory_ptr",
						"label": "mapping(string => uint256)",
						"numberOfBytes": "32",
						"value": "t_uint256"
					},
					"t_string_memory_ptr": {
						"encoding": "bytes",
						"label": "string",
						"numberOfBytes": "32"
					},
					"t_string_storage": {
						"encoding": "bytes",
						"label": "string",
						"numberOfBytes": "32"
					},
					"t_uint256": {
						"encoding": "inplace",
						"label": "uint256",
						"numberOfBytes": "32"
					}
				}
			},
			"userdoc": {
				"kind": "user",
				"methods": {},
				"version": 1
			}
		}
	}
}