{
	"Votaciones/votaciones.sol": {
		"votacion": {
			"abi": [
				{
					"inputs": [],
					"stateMutability": "nonpayable",
					"type": "constructor"
				},
				{
					"inputs": [
						{
							"internalType": "string",
							"name": "_nombre",
							"type": "string"
						},
						{
							"internalType": "uint256",
							"name": "_edad",
							"type": "uint256"
						},
						{
							"internalType": "string",
							"name": "_ID",
							"type": "string"
						}
					],
					"name": "Representar",
					"outputs": [],
					"stateMutability": "nonpayable",
					"type": "function"
				},
				{
					"inputs": [],
					"name": "owner",
					"outputs": [
						{
							"internalType": "address",
							"name": "",
							"type": "address"
						}
					],
					"stateMutability": "view",
					"type": "function"
				}
			],
			"devdoc": {
				"kind": "dev",
				"methods": {},
				"version": 1
			},
			"evm": {
				"assembly": "    /* \"Votaciones/votaciones.sol\":102:1101  contract votacion {\r... */\n  mstore(0x40, 0x80)\n    /* \"Votaciones/votaciones.sol\":204:263  constructor () public {\r... */\n  callvalue\n  dup1\n  iszero\n  tag_1\n  jumpi\n  0x00\n  dup1\n  revert\ntag_1:\n  pop\n    /* \"Votaciones/votaciones.sol\":245:255  msg.sender */\n  caller\n    /* \"Votaciones/votaciones.sol\":237:242  owner */\n  0x00\n  dup1\n    /* \"Votaciones/votaciones.sol\":237:255  owner = msg.sender */\n  0x0100\n  exp\n  dup2\n  sload\n  dup2\n  0xffffffffffffffffffffffffffffffffffffffff\n  mul\n  not\n  and\n  swap1\n  dup4\n  0xffffffffffffffffffffffffffffffffffffffff\n  and\n  mul\n  or\n  swap1\n  sstore\n  pop\n    /* \"Votaciones/votaciones.sol\":102:1101  contract votacion {\r... */\n  dataSize(sub_0)\n  dup1\n  dataOffset(sub_0)\n  0x00\n  codecopy\n  0x00\n  return\nstop\n\nsub_0: assembly {\n        /* \"Votaciones/votaciones.sol\":102:1101  contract votacion {\r... */\n      mstore(0x40, 0x80)\n      callvalue\n      dup1\n      iszero\n      tag_1\n      jumpi\n      0x00\n      dup1\n      revert\n    tag_1:\n      pop\n      jumpi(tag_2, lt(calldatasize, 0x04))\n      shr(0xe0, calldataload(0x00))\n      dup1\n      0x8da5cb5b\n      eq\n      tag_3\n      jumpi\n      dup1\n      0xf01ca6b7\n      eq\n      tag_4\n      jumpi\n    tag_2:\n      0x00\n      dup1\n      revert\n        /* \"Votaciones/votaciones.sol\":175:195  address public owner */\n    tag_3:\n      tag_5\n      tag_6\n      jump\t// in\n    tag_5:\n      mload(0x40)\n      tag_7\n      swap2\n      swap1\n      tag_8\n      jump\t// in\n    tag_7:\n      mload(0x40)\n      dup1\n      swap2\n      sub\n      swap1\n      return\n        /* \"Votaciones/votaciones.sol\":748:1098  function Representar(string memory _nombre, uint _edad, string memory _ID) public {\r... */\n    tag_4:\n      tag_9\n      0x04\n      dup1\n      calldatasize\n      sub\n      dup2\n      add\n      swap1\n      tag_10\n      swap2\n      swap1\n      tag_11\n      jump\t// in\n    tag_10:\n      tag_12\n      jump\t// in\n    tag_9:\n      stop\n        /* \"Votaciones/votaciones.sol\":175:195  address public owner */\n    tag_6:\n      0x00\n      dup1\n      sload\n      swap1\n      0x0100\n      exp\n      swap1\n      div\n      0xffffffffffffffffffffffffffffffffffffffff\n      and\n      dup2\n      jump\t// out\n        /* \"Votaciones/votaciones.sol\":748:1098  function Representar(string memory _nombre, uint _edad, string memory _ID) public {\r... */\n    tag_12:\n        /* \"Votaciones/votaciones.sol\":884:905  bytes32 hashCandidato */\n      0x00\n        /* \"Votaciones/votaciones.sol\":935:942  _nombre */\n      dup4\n        /* \"Votaciones/votaciones.sol\":944:949  _edad */\n      dup4\n        /* \"Votaciones/votaciones.sol\":951:954  _ID */\n      dup4\n        /* \"Votaciones/votaciones.sol\":918:955  abi.encodePacked(_nombre, _edad, _ID) */\n      add(0x20, mload(0x40))\n      tag_14\n      swap4\n      swap3\n      swap2\n      swap1\n      tag_15\n      jump\t// in\n    tag_14:\n      mload(0x40)\n      0x20\n      dup2\n      dup4\n      sub\n      sub\n      dup2\n      mstore\n      swap1\n      0x40\n      mstore\n        /* \"Votaciones/votaciones.sol\":908:956  keccak256(abi.encodePacked(_nombre, _edad, _ID)) */\n      dup1\n      mload\n      swap1\n      0x20\n      add\n      keccak256\n        /* \"Votaciones/votaciones.sol\":884:956  bytes32 hashCandidato = keccak256(abi.encodePacked(_nombre, _edad, _ID)) */\n      swap1\n      pop\n        /* \"Votaciones/votaciones.sol\":1067:1080  hashCandidato */\n      dup1\n        /* \"Votaciones/votaciones.sol\":1046:1055  Candidato */\n      0x01\n        /* \"Votaciones/votaciones.sol\":1056:1063  _nombre */\n      dup6\n        /* \"Votaciones/votaciones.sol\":1046:1064  Candidato[_nombre] */\n      mload(0x40)\n      tag_16\n      swap2\n      swap1\n      tag_17\n      jump\t// in\n    tag_16:\n      swap1\n      dup2\n      mstore\n      0x20\n      add\n      mload(0x40)\n      dup1\n      swap2\n      sub\n      swap1\n      keccak256\n        /* \"Votaciones/votaciones.sol\":1046:1080  Candidato[_nombre] = hashCandidato */\n      dup2\n      swap1\n      sstore\n      pop\n        /* \"Votaciones/votaciones.sol\":748:1098  function Representar(string memory _nombre, uint _edad, string memory _ID) public {\r... */\n      pop\n      pop\n      pop\n      pop\n      jump\t// out\n        /* \"--CODEGEN--\":6:448   */\n    tag_19:\n      0x00\n        /* \"--CODEGEN--\":108:111   */\n      dup3\n        /* \"--CODEGEN--\":101:105   */\n      0x1f\n        /* \"--CODEGEN--\":93:99   */\n      dup4\n        /* \"--CODEGEN--\":89:106   */\n      add\n        /* \"--CODEGEN--\":85:112   */\n      slt\n        /* \"--CODEGEN--\":75:77   */\n      tag_21\n      jumpi\n        /* \"--CODEGEN--\":126:127   */\n      0x00\n        /* \"--CODEGEN--\":123:124   */\n      dup1\n        /* \"--CODEGEN--\":116:128   */\n      revert\n        /* \"--CODEGEN--\":75:77   */\n    tag_21:\n        /* \"--CODEGEN--\":163:169   */\n      dup2\n        /* \"--CODEGEN--\":150:170   */\n      calldataload\n        /* \"--CODEGEN--\":185:250   */\n      tag_22\n        /* \"--CODEGEN--\":200:249   */\n      tag_23\n        /* \"--CODEGEN--\":242:248   */\n      dup3\n        /* \"--CODEGEN--\":200:249   */\n      tag_24\n      jump\t// in\n    tag_23:\n        /* \"--CODEGEN--\":185:250   */\n      tag_25\n      jump\t// in\n    tag_22:\n        /* \"--CODEGEN--\":176:250   */\n      swap2\n      pop\n        /* \"--CODEGEN--\":270:276   */\n      dup1\n        /* \"--CODEGEN--\":263:268   */\n      dup3\n        /* \"--CODEGEN--\":256:277   */\n      mstore\n        /* \"--CODEGEN--\":306:310   */\n      0x20\n        /* \"--CODEGEN--\":298:304   */\n      dup4\n        /* \"--CODEGEN--\":294:311   */\n      add\n        /* \"--CODEGEN--\":339:343   */\n      0x20\n        /* \"--CODEGEN--\":332:337   */\n      dup4\n        /* \"--CODEGEN--\":328:344   */\n      add\n        /* \"--CODEGEN--\":374:377   */\n      dup6\n        /* \"--CODEGEN--\":365:371   */\n      dup4\n        /* \"--CODEGEN--\":360:363   */\n      dup4\n        /* \"--CODEGEN--\":356:372   */\n      add\n        /* \"--CODEGEN--\":353:378   */\n      gt\n        /* \"--CODEGEN--\":350:352   */\n      iszero\n      tag_26\n      jumpi\n        /* \"--CODEGEN--\":391:392   */\n      0x00\n        /* \"--CODEGEN--\":388:389   */\n      dup1\n        /* \"--CODEGEN--\":381:393   */\n      revert\n        /* \"--CODEGEN--\":350:352   */\n    tag_26:\n        /* \"--CODEGEN--\":401:442   */\n      tag_27\n        /* \"--CODEGEN--\":435:441   */\n      dup4\n        /* \"--CODEGEN--\":430:433   */\n      dup3\n        /* \"--CODEGEN--\":425:428   */\n      dup5\n        /* \"--CODEGEN--\":401:442   */\n      tag_28\n      jump\t// in\n    tag_27:\n        /* \"--CODEGEN--\":68:448   */\n      pop\n      pop\n      pop\n      swap3\n      swap2\n      pop\n      pop\n      jump\t// out\n        /* \"--CODEGEN--\":456:586   */\n    tag_29:\n      0x00\n        /* \"--CODEGEN--\":536:542   */\n      dup2\n        /* \"--CODEGEN--\":523:543   */\n      calldataload\n        /* \"--CODEGEN--\":514:543   */\n      swap1\n      pop\n        /* \"--CODEGEN--\":548:581   */\n      tag_31\n        /* \"--CODEGEN--\":575:580   */\n      dup2\n        /* \"--CODEGEN--\":548:581   */\n      tag_32\n      jump\t// in\n    tag_31:\n        /* \"--CODEGEN--\":508:586   */\n      swap3\n      swap2\n      pop\n      pop\n      jump\t// out\n        /* \"--CODEGEN--\":593:1296   */\n    tag_11:\n      0x00\n      dup1\n      0x00\n        /* \"--CODEGEN--\":751:753   */\n      0x60\n        /* \"--CODEGEN--\":739:748   */\n      dup5\n        /* \"--CODEGEN--\":730:737   */\n      dup7\n        /* \"--CODEGEN--\":726:749   */\n      sub\n        /* \"--CODEGEN--\":722:754   */\n      slt\n        /* \"--CODEGEN--\":719:721   */\n      iszero\n      tag_34\n      jumpi\n        /* \"--CODEGEN--\":767:768   */\n      0x00\n        /* \"--CODEGEN--\":764:765   */\n      dup1\n        /* \"--CODEGEN--\":757:769   */\n      revert\n        /* \"--CODEGEN--\":719:721   */\n    tag_34:\n        /* \"--CODEGEN--\":830:831   */\n      0x00\n        /* \"--CODEGEN--\":819:828   */\n      dup5\n        /* \"--CODEGEN--\":815:832   */\n      add\n        /* \"--CODEGEN--\":802:833   */\n      calldataload\n        /* \"--CODEGEN--\":853:871   */\n      0xffffffffffffffff\n        /* \"--CODEGEN--\":845:851   */\n      dup2\n        /* \"--CODEGEN--\":842:872   */\n      gt\n        /* \"--CODEGEN--\":839:841   */\n      iszero\n      tag_35\n      jumpi\n        /* \"--CODEGEN--\":885:886   */\n      0x00\n        /* \"--CODEGEN--\":882:883   */\n      dup1\n        /* \"--CODEGEN--\":875:887   */\n      revert\n        /* \"--CODEGEN--\":839:841   */\n    tag_35:\n        /* \"--CODEGEN--\":905:968   */\n      tag_36\n        /* \"--CODEGEN--\":960:967   */\n      dup7\n        /* \"--CODEGEN--\":951:957   */\n      dup3\n        /* \"--CODEGEN--\":940:949   */\n      dup8\n        /* \"--CODEGEN--\":936:958   */\n      add\n        /* \"--CODEGEN--\":905:968   */\n      tag_19\n      jump\t// in\n    tag_36:\n        /* \"--CODEGEN--\":895:968   */\n      swap4\n      pop\n        /* \"--CODEGEN--\":781:974   */\n      pop\n        /* \"--CODEGEN--\":1005:1007   */\n      0x20\n        /* \"--CODEGEN--\":1023:1076   */\n      tag_37\n        /* \"--CODEGEN--\":1068:1075   */\n      dup7\n        /* \"--CODEGEN--\":1059:1065   */\n      dup3\n        /* \"--CODEGEN--\":1048:1057   */\n      dup8\n        /* \"--CODEGEN--\":1044:1066   */\n      add\n        /* \"--CODEGEN--\":1023:1076   */\n      tag_29\n      jump\t// in\n    tag_37:\n        /* \"--CODEGEN--\":1013:1076   */\n      swap3\n      pop\n        /* \"--CODEGEN--\":984:1082   */\n      pop\n        /* \"--CODEGEN--\":1141:1143   */\n      0x40\n        /* \"--CODEGEN--\":1130:1139   */\n      dup5\n        /* \"--CODEGEN--\":1126:1144   */\n      add\n        /* \"--CODEGEN--\":1113:1145   */\n      calldataload\n        /* \"--CODEGEN--\":1165:1183   */\n      0xffffffffffffffff\n        /* \"--CODEGEN--\":1157:1163   */\n      dup2\n        /* \"--CODEGEN--\":1154:1184   */\n      gt\n        /* \"--CODEGEN--\":1151:1153   */\n      iszero\n      tag_38\n      jumpi\n        /* \"--CODEGEN--\":1197:1198   */\n      0x00\n        /* \"--CODEGEN--\":1194:1195   */\n      dup1\n        /* \"--CODEGEN--\":1187:1199   */\n      revert\n        /* \"--CODEGEN--\":1151:1153   */\n    tag_38:\n        /* \"--CODEGEN--\":1217:1280   */\n      tag_39\n        /* \"--CODEGEN--\":1272:1279   */\n      dup7\n        /* \"--CODEGEN--\":1263:1269   */\n      dup3\n        /* \"--CODEGEN--\":1252:1261   */\n      dup8\n        /* \"--CODEGEN--\":1248:1270   */\n      add\n        /* \"--CODEGEN--\":1217:1280   */\n      tag_19\n      jump\t// in\n    tag_39:\n        /* \"--CODEGEN--\":1207:1280   */\n      swap2\n      pop\n        /* \"--CODEGEN--\":1092:1286   */\n      pop\n        /* \"--CODEGEN--\":713:1296   */\n      swap3\n      pop\n      swap3\n      pop\n      swap3\n      jump\t// out\n        /* \"--CODEGEN--\":1303:1416   */\n    tag_40:\n        /* \"--CODEGEN--\":1386:1410   */\n      tag_42\n        /* \"--CODEGEN--\":1404:1409   */\n      dup2\n        /* \"--CODEGEN--\":1386:1410   */\n      tag_43\n      jump\t// in\n    tag_42:\n        /* \"--CODEGEN--\":1381:1384   */\n      dup3\n        /* \"--CODEGEN--\":1374:1411   */\n      mstore\n        /* \"--CODEGEN--\":1368:1416   */\n      pop\n      pop\n      jump\t// out\n        /* \"--CODEGEN--\":1423:1783   */\n    tag_44:\n      0x00\n        /* \"--CODEGEN--\":1553:1592   */\n      tag_46\n        /* \"--CODEGEN--\":1586:1591   */\n      dup3\n        /* \"--CODEGEN--\":1553:1592   */\n      tag_47\n      jump\t// in\n    tag_46:\n        /* \"--CODEGEN--\":1604:1693   */\n      tag_48\n        /* \"--CODEGEN--\":1686:1692   */\n      dup2\n        /* \"--CODEGEN--\":1681:1684   */\n      dup6\n        /* \"--CODEGEN--\":1604:1693   */\n      tag_49\n      jump\t// in\n    tag_48:\n        /* \"--CODEGEN--\":1597:1693   */\n      swap4\n      pop\n        /* \"--CODEGEN--\":1698:1750   */\n      tag_50\n        /* \"--CODEGEN--\":1743:1749   */\n      dup2\n        /* \"--CODEGEN--\":1738:1741   */\n      dup6\n        /* \"--CODEGEN--\":1731:1735   */\n      0x20\n        /* \"--CODEGEN--\":1724:1729   */\n      dup7\n        /* \"--CODEGEN--\":1720:1736   */\n      add\n        /* \"--CODEGEN--\":1698:1750   */\n      tag_51\n      jump\t// in\n    tag_50:\n        /* \"--CODEGEN--\":1771:1777   */\n      dup1\n        /* \"--CODEGEN--\":1766:1769   */\n      dup5\n        /* \"--CODEGEN--\":1762:1778   */\n      add\n        /* \"--CODEGEN--\":1755:1778   */\n      swap2\n      pop\n        /* \"--CODEGEN--\":1533:1783   */\n      pop\n      swap3\n      swap2\n      pop\n      pop\n      jump\t// out\n        /* \"--CODEGEN--\":1790:1942   */\n    tag_52:\n        /* \"--CODEGEN--\":1891:1936   */\n      tag_54\n        /* \"--CODEGEN--\":1911:1935   */\n      tag_55\n        /* \"--CODEGEN--\":1929:1934   */\n      dup3\n        /* \"--CODEGEN--\":1911:1935   */\n      tag_56\n      jump\t// in\n    tag_55:\n        /* \"--CODEGEN--\":1891:1936   */\n      tag_57\n      jump\t// in\n    tag_54:\n        /* \"--CODEGEN--\":1886:1889   */\n      dup3\n        /* \"--CODEGEN--\":1879:1937   */\n      mstore\n        /* \"--CODEGEN--\":1873:1942   */\n      pop\n      pop\n      jump\t// out\n        /* \"--CODEGEN--\":1949:2224   */\n    tag_17:\n      0x00\n        /* \"--CODEGEN--\":2104:2199   */\n      tag_59\n        /* \"--CODEGEN--\":2195:2198   */\n      dup3\n        /* \"--CODEGEN--\":2186:2192   */\n      dup5\n        /* \"--CODEGEN--\":2104:2199   */\n      tag_44\n      jump\t// in\n    tag_59:\n        /* \"--CODEGEN--\":2097:2199   */\n      swap2\n      pop\n        /* \"--CODEGEN--\":2216:2219   */\n      dup2\n        /* \"--CODEGEN--\":2209:2219   */\n      swap1\n      pop\n        /* \"--CODEGEN--\":2085:2224   */\n      swap3\n      swap2\n      pop\n      pop\n      jump\t// out\n        /* \"--CODEGEN--\":2231:2806   */\n    tag_15:\n      0x00\n        /* \"--CODEGEN--\":2462:2557   */\n      tag_61\n        /* \"--CODEGEN--\":2553:2556   */\n      dup3\n        /* \"--CODEGEN--\":2544:2550   */\n      dup7\n        /* \"--CODEGEN--\":2462:2557   */\n      tag_44\n      jump\t// in\n    tag_61:\n        /* \"--CODEGEN--\":2455:2557   */\n      swap2\n      pop\n        /* \"--CODEGEN--\":2568:2643   */\n      tag_62\n        /* \"--CODEGEN--\":2639:2642   */\n      dup3\n        /* \"--CODEGEN--\":2630:2636   */\n      dup6\n        /* \"--CODEGEN--\":2568:2643   */\n      tag_52\n      jump\t// in\n    tag_62:\n        /* \"--CODEGEN--\":2665:2667   */\n      0x20\n        /* \"--CODEGEN--\":2660:2663   */\n      dup3\n        /* \"--CODEGEN--\":2656:2668   */\n      add\n        /* \"--CODEGEN--\":2649:2668   */\n      swap2\n      pop\n        /* \"--CODEGEN--\":2686:2781   */\n      tag_63\n        /* \"--CODEGEN--\":2777:2780   */\n      dup3\n        /* \"--CODEGEN--\":2768:2774   */\n      dup5\n        /* \"--CODEGEN--\":2686:2781   */\n      tag_44\n      jump\t// in\n    tag_63:\n        /* \"--CODEGEN--\":2679:2781   */\n      swap2\n      pop\n        /* \"--CODEGEN--\":2798:2801   */\n      dup2\n        /* \"--CODEGEN--\":2791:2801   */\n      swap1\n      pop\n        /* \"--CODEGEN--\":2443:2806   */\n      swap5\n      swap4\n      pop\n      pop\n      pop\n      pop\n      jump\t// out\n        /* \"--CODEGEN--\":2813:3035   */\n    tag_8:\n      0x00\n        /* \"--CODEGEN--\":2940:2942   */\n      0x20\n        /* \"--CODEGEN--\":2929:2938   */\n      dup3\n        /* \"--CODEGEN--\":2925:2943   */\n      add\n        /* \"--CODEGEN--\":2917:2943   */\n      swap1\n      pop\n        /* \"--CODEGEN--\":2954:3025   */\n      tag_65\n        /* \"--CODEGEN--\":3022:3023   */\n      0x00\n        /* \"--CODEGEN--\":3011:3020   */\n      dup4\n        /* \"--CODEGEN--\":3007:3024   */\n      add\n        /* \"--CODEGEN--\":2998:3004   */\n      dup5\n        /* \"--CODEGEN--\":2954:3025   */\n      tag_40\n      jump\t// in\n    tag_65:\n        /* \"--CODEGEN--\":2911:3035   */\n      swap3\n      swap2\n      pop\n      pop\n      jump\t// out\n        /* \"--CODEGEN--\":3042:3298   */\n    tag_25:\n      0x00\n        /* \"--CODEGEN--\":3104:3106   */\n      0x40\n        /* \"--CODEGEN--\":3098:3107   */\n      mload\n        /* \"--CODEGEN--\":3088:3107   */\n      swap1\n      pop\n        /* \"--CODEGEN--\":3142:3146   */\n      dup2\n        /* \"--CODEGEN--\":3134:3140   */\n      dup2\n        /* \"--CODEGEN--\":3130:3147   */\n      add\n        /* \"--CODEGEN--\":3241:3247   */\n      dup2\n        /* \"--CODEGEN--\":3229:3239   */\n      dup2\n        /* \"--CODEGEN--\":3226:3248   */\n      lt\n        /* \"--CODEGEN--\":3205:3223   */\n      0xffffffffffffffff\n        /* \"--CODEGEN--\":3193:3203   */\n      dup3\n        /* \"--CODEGEN--\":3190:3224   */\n      gt\n        /* \"--CODEGEN--\":3187:3249   */\n      or\n        /* \"--CODEGEN--\":3184:3186   */\n      iszero\n      tag_67\n      jumpi\n        /* \"--CODEGEN--\":3262:3263   */\n      0x00\n        /* \"--CODEGEN--\":3259:3260   */\n      dup1\n        /* \"--CODEGEN--\":3252:3264   */\n      revert\n        /* \"--CODEGEN--\":3184:3186   */\n    tag_67:\n        /* \"--CODEGEN--\":3282:3292   */\n      dup1\n        /* \"--CODEGEN--\":3278:3280   */\n      0x40\n        /* \"--CODEGEN--\":3271:3293   */\n      mstore\n        /* \"--CODEGEN--\":3082:3298   */\n      pop\n      swap2\n      swap1\n      pop\n      jump\t// out\n        /* \"--CODEGEN--\":3305:3627   */\n    tag_24:\n      0x00\n        /* \"--CODEGEN--\":3449:3467   */\n      0xffffffffffffffff\n        /* \"--CODEGEN--\":3441:3447   */\n      dup3\n        /* \"--CODEGEN--\":3438:3468   */\n      gt\n        /* \"--CODEGEN--\":3435:3437   */\n      iszero\n      tag_69\n      jumpi\n        /* \"--CODEGEN--\":3481:3482   */\n      0x00\n        /* \"--CODEGEN--\":3478:3479   */\n      dup1\n        /* \"--CODEGEN--\":3471:3483   */\n      revert\n        /* \"--CODEGEN--\":3435:3437   */\n    tag_69:\n        /* \"--CODEGEN--\":3548:3552   */\n      0x1f\n        /* \"--CODEGEN--\":3544:3553   */\n      not\n        /* \"--CODEGEN--\":3537:3541   */\n      0x1f\n        /* \"--CODEGEN--\":3529:3535   */\n      dup4\n        /* \"--CODEGEN--\":3525:3542   */\n      add\n        /* \"--CODEGEN--\":3521:3554   */\n      and\n        /* \"--CODEGEN--\":3513:3554   */\n      swap1\n      pop\n        /* \"--CODEGEN--\":3612:3616   */\n      0x20\n        /* \"--CODEGEN--\":3606:3610   */\n      dup2\n        /* \"--CODEGEN--\":3602:3617   */\n      add\n        /* \"--CODEGEN--\":3594:3617   */\n      swap1\n      pop\n        /* \"--CODEGEN--\":3372:3627   */\n      swap2\n      swap1\n      pop\n      jump\t// out\n        /* \"--CODEGEN--\":3634:3756   */\n    tag_47:\n      0x00\n        /* \"--CODEGEN--\":3728:3733   */\n      dup2\n        /* \"--CODEGEN--\":3722:3734   */\n      mload\n        /* \"--CODEGEN--\":3712:3734   */\n      swap1\n      pop\n        /* \"--CODEGEN--\":3693:3756   */\n      swap2\n      swap1\n      pop\n      jump\t// out\n        /* \"--CODEGEN--\":3764:3909   */\n    tag_49:\n      0x00\n        /* \"--CODEGEN--\":3900:3903   */\n      dup2\n        /* \"--CODEGEN--\":3885:3903   */\n      swap1\n      pop\n        /* \"--CODEGEN--\":3878:3909   */\n      swap3\n      swap2\n      pop\n      pop\n      jump\t// out\n        /* \"--CODEGEN--\":3917:4008   */\n    tag_43:\n      0x00\n        /* \"--CODEGEN--\":3979:4003   */\n      tag_73\n        /* \"--CODEGEN--\":3997:4002   */\n      dup3\n        /* \"--CODEGEN--\":3979:4003   */\n      tag_74\n      jump\t// in\n    tag_73:\n        /* \"--CODEGEN--\":3968:4003   */\n      swap1\n      pop\n        /* \"--CODEGEN--\":3962:4008   */\n      swap2\n      swap1\n      pop\n      jump\t// out\n        /* \"--CODEGEN--\":4015:4136   */\n    tag_74:\n      0x00\n        /* \"--CODEGEN--\":4088:4130   */\n      0xffffffffffffffffffffffffffffffffffffffff\n        /* \"--CODEGEN--\":4081:4086   */\n      dup3\n        /* \"--CODEGEN--\":4077:4131   */\n      and\n        /* \"--CODEGEN--\":4066:4131   */\n      swap1\n      pop\n        /* \"--CODEGEN--\":4060:4136   */\n      swap2\n      swap1\n      pop\n      jump\t// out\n        /* \"--CODEGEN--\":4143:4215   */\n    tag_56:\n      0x00\n        /* \"--CODEGEN--\":4205:4210   */\n      dup2\n        /* \"--CODEGEN--\":4194:4210   */\n      swap1\n      pop\n        /* \"--CODEGEN--\":4188:4215   */\n      swap2\n      swap1\n      pop\n      jump\t// out\n        /* \"--CODEGEN--\":4223:4368   */\n    tag_28:\n        /* \"--CODEGEN--\":4304:4310   */\n      dup3\n        /* \"--CODEGEN--\":4299:4302   */\n      dup2\n        /* \"--CODEGEN--\":4294:4297   */\n      dup4\n        /* \"--CODEGEN--\":4281:4311   */\n      calldatacopy\n        /* \"--CODEGEN--\":4360:4361   */\n      0x00\n        /* \"--CODEGEN--\":4351:4357   */\n      dup4\n        /* \"--CODEGEN--\":4346:4349   */\n      dup4\n        /* \"--CODEGEN--\":4342:4358   */\n      add\n        /* \"--CODEGEN--\":4335:4362   */\n      mstore\n        /* \"--CODEGEN--\":4274:4368   */\n      pop\n      pop\n      pop\n      jump\t// out\n        /* \"--CODEGEN--\":4377:4645   */\n    tag_51:\n        /* \"--CODEGEN--\":4442:4443   */\n      0x00\n        /* \"--CODEGEN--\":4449:4550   */\n    tag_79:\n        /* \"--CODEGEN--\":4463:4469   */\n      dup4\n        /* \"--CODEGEN--\":4460:4461   */\n      dup2\n        /* \"--CODEGEN--\":4457:4470   */\n      lt\n        /* \"--CODEGEN--\":4449:4550   */\n      iszero\n      tag_81\n      jumpi\n        /* \"--CODEGEN--\":4539:4540   */\n      dup1\n        /* \"--CODEGEN--\":4534:4537   */\n      dup3\n        /* \"--CODEGEN--\":4530:4541   */\n      add\n        /* \"--CODEGEN--\":4524:4542   */\n      mload\n        /* \"--CODEGEN--\":4520:4521   */\n      dup2\n        /* \"--CODEGEN--\":4515:4518   */\n      dup5\n        /* \"--CODEGEN--\":4511:4522   */\n      add\n        /* \"--CODEGEN--\":4504:4543   */\n      mstore\n        /* \"--CODEGEN--\":4485:4487   */\n      0x20\n        /* \"--CODEGEN--\":4482:4483   */\n      dup2\n        /* \"--CODEGEN--\":4478:4488   */\n      add\n        /* \"--CODEGEN--\":4473:4488   */\n      swap1\n      pop\n        /* \"--CODEGEN--\":4449:4550   */\n      jump(tag_79)\n    tag_81:\n        /* \"--CODEGEN--\":4565:4571   */\n      dup4\n        /* \"--CODEGEN--\":4562:4563   */\n      dup2\n        /* \"--CODEGEN--\":4559:4572   */\n      gt\n        /* \"--CODEGEN--\":4556:4558   */\n      iszero\n      tag_82\n      jumpi\n        /* \"--CODEGEN--\":4630:4631   */\n      0x00\n        /* \"--CODEGEN--\":4621:4627   */\n      dup5\n        /* \"--CODEGEN--\":4616:4619   */\n      dup5\n        /* \"--CODEGEN--\":4612:4628   */\n      add\n        /* \"--CODEGEN--\":4605:4632   */\n      mstore\n        /* \"--CODEGEN--\":4556:4558   */\n    tag_82:\n        /* \"--CODEGEN--\":4426:4645   */\n      pop\n      pop\n      pop\n      pop\n      jump\t// out\n        /* \"--CODEGEN--\":4653:4727   */\n    tag_57:\n      0x00\n        /* \"--CODEGEN--\":4717:4722   */\n      dup2\n        /* \"--CODEGEN--\":4706:4722   */\n      swap1\n      pop\n        /* \"--CODEGEN--\":4700:4727   */\n      swap2\n      swap1\n      pop\n      jump\t// out\n        /* \"--CODEGEN--\":4734:4851   */\n    tag_32:\n        /* \"--CODEGEN--\":4803:4827   */\n      tag_85\n        /* \"--CODEGEN--\":4821:4826   */\n      dup2\n        /* \"--CODEGEN--\":4803:4827   */\n      tag_56\n      jump\t// in\n    tag_85:\n        /* \"--CODEGEN--\":4796:4801   */\n      dup2\n        /* \"--CODEGEN--\":4793:4828   */\n      eq\n        /* \"--CODEGEN--\":4783:4785   */\n      tag_86\n      jumpi\n        /* \"--CODEGEN--\":4842:4843   */\n      0x00\n        /* \"--CODEGEN--\":4839:4840   */\n      dup1\n        /* \"--CODEGEN--\":4832:4844   */\n      revert\n        /* \"--CODEGEN--\":4783:4785   */\n    tag_86:\n        /* \"--CODEGEN--\":4777:4851   */\n      pop\n      jump\t// out\n\n    auxdata: 0xa2646970667358221220baa33c66ba9dd53b991a98bbf937f30023c58cff73b9ebec9a9566e497de03d564736f6c634300060c0033\n}\n",
				"bytecode": {
					"linkReferences": {},
					"object": "608060405234801561001057600080fd5b50336000806101000a81548173ffffffffffffffffffffffffffffffffffffffff021916908373ffffffffffffffffffffffffffffffffffffffff1602179055506103db806100606000396000f3fe608060405234801561001057600080fd5b50600436106100365760003560e01c80638da5cb5b1461003b578063f01ca6b714610059575b600080fd5b610043610075565b604051610050919061027c565b60405180910390f35b610073600480360381019061006e919061015a565b610099565b005b60008054906101000a900473ffffffffffffffffffffffffffffffffffffffff1681565b60008383836040516020016100b093929190610247565b604051602081830303815290604052805190602001209050806001856040516100d99190610230565b90815260200160405180910390208190555050505050565b600082601f83011261010257600080fd5b8135610115610110826102c4565b610297565b9150808252602083016020830185838301111561013157600080fd5b61013c838284610342565b50505092915050565b6000813590506101548161038e565b92915050565b60008060006060848603121561016f57600080fd5b600084013567ffffffffffffffff81111561018957600080fd5b610195868287016100f1565b93505060206101a686828701610145565b925050604084013567ffffffffffffffff8111156101c357600080fd5b6101cf868287016100f1565b9150509250925092565b6101e281610306565b82525050565b60006101f3826102f0565b6101fd81856102fb565b935061020d818560208601610351565b80840191505092915050565b61022a61022582610338565b610384565b82525050565b600061023c82846101e8565b915081905092915050565b600061025382866101e8565b915061025f8285610219565b60208201915061026f82846101e8565b9150819050949350505050565b600060208201905061029160008301846101d9565b92915050565b6000604051905081810181811067ffffffffffffffff821117156102ba57600080fd5b8060405250919050565b600067ffffffffffffffff8211156102db57600080fd5b601f19601f8301169050602081019050919050565b600081519050919050565b600081905092915050565b600061031182610318565b9050919050565b600073ffffffffffffffffffffffffffffffffffffffff82169050919050565b6000819050919050565b82818337600083830152505050565b60005b8381101561036f578082015181840152602081019050610354565b8381111561037e576000848401525b50505050565b6000819050919050565b61039781610338565b81146103a257600080fd5b5056fea2646970667358221220baa33c66ba9dd53b991a98bbf937f30023c58cff73b9ebec9a9566e497de03d564736f6c634300060c0033",
					"opcodes": "PUSH1 0x80 PUSH1 0x40 MSTORE CALLVALUE DUP1 ISZERO PUSH2 0x10 JUMPI PUSH1 0x0 DUP1 REVERT JUMPDEST POP CALLER PUSH1 0x0 DUP1 PUSH2 0x100 EXP DUP2 SLOAD DUP2 PUSH20 0xFFFFFFFFFFFFFFFFFFFFFFFFFFFFFFFFFFFFFFFF MUL NOT AND SWAP1 DUP4 PUSH20 0xFFFFFFFFFFFFFFFFFFFFFFFFFFFFFFFFFFFFFFFF AND MUL OR SWAP1 SSTORE POP PUSH2 0x3DB DUP1 PUSH2 0x60 PUSH1 0x0 CODECOPY PUSH1 0x0 RETURN INVALID PUSH1 0x80 PUSH1 0x40 MSTORE CALLVALUE DUP1 ISZERO PUSH2 0x10 JUMPI PUSH1 0x0 DUP1 REVERT JUMPDEST POP PUSH1 0x4 CALLDATASIZE LT PUSH2 0x36 JUMPI PUSH1 0x0 CALLDATALOAD PUSH1 0xE0 SHR DUP1 PUSH4 0x8DA5CB5B EQ PUSH2 0x3B JUMPI DUP1 PUSH4 0xF01CA6B7 EQ PUSH2 0x59 JUMPI JUMPDEST PUSH1 0x0 DUP1 REVERT JUMPDEST PUSH2 0x43 PUSH2 0x75 JUMP JUMPDEST PUSH1 0x40 MLOAD PUSH2 0x50 SWAP2 SWAP1 PUSH2 0x27C JUMP JUMPDEST PUSH1 0x40 MLOAD DUP1 SWAP2 SUB SWAP1 RETURN JUMPDEST PUSH2 0x73 PUSH1 0x4 DUP1 CALLDATASIZE SUB DUP2 ADD SWAP1 PUSH2 0x6E SWAP2 SWAP1 PUSH2 0x15A JUMP JUMPDEST PUSH2 0x99 JUMP JUMPDEST STOP JUMPDEST PUSH1 0x0 DUP1 SLOAD SWAP1 PUSH2 0x100 EXP SWAP1 DIV PUSH20 0xFFFFFFFFFFFFFFFFFFFFFFFFFFFFFFFFFFFFFFFF AND DUP2 JUMP JUMPDEST PUSH1 0x0 DUP4 DUP4 DUP4 PUSH1 0x40 MLOAD PUSH1 0x20 ADD PUSH2 0xB0 SWAP4 SWAP3 SWAP2 SWAP1 PUSH2 0x247 JUMP JUMPDEST PUSH1 0x40 MLOAD PUSH1 0x20 DUP2 DUP4 SUB SUB DUP2 MSTORE SWAP1 PUSH1 0x40 MSTORE DUP1 MLOAD SWAP1 PUSH1 0x20 ADD KECCAK256 SWAP1 POP DUP1 PUSH1 0x1 DUP6 PUSH1 0x40 MLOAD PUSH2 0xD9 SWAP2 SWAP1 PUSH2 0x230 JUMP JUMPDEST SWAP1 DUP2 MSTORE PUSH1 0x20 ADD PUSH1 0x40 MLOAD DUP1 SWAP2 SUB SWAP1 KECCAK256 DUP2 SWAP1 SSTORE POP POP POP POP POP JUMP JUMPDEST PUSH1 0x0 DUP3 PUSH1 0x1F DUP4 ADD SLT PUSH2 0x102 JUMPI PUSH1 0x0 DUP1 REVERT JUMPDEST DUP2 CALLDATALOAD PUSH2 0x115 PUSH2 0x110 DUP3 PUSH2 0x2C4 JUMP JUMPDEST PUSH2 0x297 JUMP JUMPDEST SWAP2 POP DUP1 DUP3 MSTORE PUSH1 0x20 DUP4 ADD PUSH1 0x20 DUP4 ADD DUP6 DUP4 DUP4 ADD GT ISZERO PUSH2 0x131 JUMPI PUSH1 0x0 DUP1 REVERT JUMPDEST PUSH2 0x13C DUP4 DUP3 DUP5 PUSH2 0x342 JUMP JUMPDEST POP POP POP SWAP3 SWAP2 POP POP JUMP JUMPDEST PUSH1 0x0 DUP2 CALLDATALOAD SWAP1 POP PUSH2 0x154 DUP2 PUSH2 0x38E JUMP JUMPDEST SWAP3 SWAP2 POP POP JUMP JUMPDEST PUSH1 0x0 DUP1 PUSH1 0x0 PUSH1 0x60 DUP5 DUP7 SUB SLT ISZERO PUSH2 0x16F JUMPI PUSH1 0x0 DUP1 REVERT JUMPDEST PUSH1 0x0 DUP5 ADD CALLDATALOAD PUSH8 0xFFFFFFFFFFFFFFFF DUP2 GT ISZERO PUSH2 0x189 JUMPI PUSH1 0x0 DUP1 REVERT JUMPDEST PUSH2 0x195 DUP7 DUP3 DUP8 ADD PUSH2 0xF1 JUMP JUMPDEST SWAP4 POP POP PUSH1 0x20 PUSH2 0x1A6 DUP7 DUP3 DUP8 ADD PUSH2 0x145 JUMP JUMPDEST SWAP3 POP POP PUSH1 0x40 DUP5 ADD CALLDATALOAD PUSH8 0xFFFFFFFFFFFFFFFF DUP2 GT ISZERO PUSH2 0x1C3 JUMPI PUSH1 0x0 DUP1 REVERT JUMPDEST PUSH2 0x1CF DUP7 DUP3 DUP8 ADD PUSH2 0xF1 JUMP JUMPDEST SWAP2 POP POP SWAP3 POP SWAP3 POP SWAP3 JUMP JUMPDEST PUSH2 0x1E2 DUP2 PUSH2 0x306 JUMP JUMPDEST DUP3 MSTORE POP POP JUMP JUMPDEST PUSH1 0x0 PUSH2 0x1F3 DUP3 PUSH2 0x2F0 JUMP JUMPDEST PUSH2 0x1FD DUP2 DUP6 PUSH2 0x2FB JUMP JUMPDEST SWAP4 POP PUSH2 0x20D DUP2 DUP6 PUSH1 0x20 DUP7 ADD PUSH2 0x351 JUMP JUMPDEST DUP1 DUP5 ADD SWAP2 POP POP SWAP3 SWAP2 POP POP JUMP JUMPDEST PUSH2 0x22A PUSH2 0x225 DUP3 PUSH2 0x338 JUMP JUMPDEST PUSH2 0x384 JUMP JUMPDEST DUP3 MSTORE POP POP JUMP JUMPDEST PUSH1 0x0 PUSH2 0x23C DUP3 DUP5 PUSH2 0x1E8 JUMP JUMPDEST SWAP2 POP DUP2 SWAP1 POP SWAP3 SWAP2 POP POP JUMP JUMPDEST PUSH1 0x0 PUSH2 0x253 DUP3 DUP7 PUSH2 0x1E8 JUMP JUMPDEST SWAP2 POP PUSH2 0x25F DUP3 DUP6 PUSH2 0x219 JUMP JUMPDEST PUSH1 0x20 DUP3 ADD SWAP2 POP PUSH2 0x26F DUP3 DUP5 PUSH2 0x1E8 JUMP JUMPDEST SWAP2 POP DUP2 SWAP1 POP SWAP5 SWAP4 POP POP POP POP JUMP JUMPDEST PUSH1 0x0 PUSH1 0x20 DUP3 ADD SWAP1 POP PUSH2 0x291 PUSH1 0x0 DUP4 ADD DUP5 PUSH2 0x1D9 JUMP JUMPDEST SWAP3 SWAP2 POP POP JUMP JUMPDEST PUSH1 0x0 PUSH1 0x40 MLOAD SWAP1 POP DUP2 DUP2 ADD DUP2 DUP2 LT PUSH8 0xFFFFFFFFFFFFFFFF DUP3 GT OR ISZERO PUSH2 0x2BA JUMPI PUSH1 0x0 DUP1 REVERT JUMPDEST DUP1 PUSH1 0x40 MSTORE POP SWAP2 SWAP1 POP JUMP JUMPDEST PUSH1 0x0 PUSH8 0xFFFFFFFFFFFFFFFF DUP3 GT ISZERO PUSH2 0x2DB JUMPI PUSH1 0x0 DUP1 REVERT JUMPDEST PUSH1 0x1F NOT PUSH1 0x1F DUP4 ADD AND SWAP1 POP PUSH1 0x20 DUP2 ADD SWAP1 POP SWAP2 SWAP1 POP JUMP JUMPDEST PUSH1 0x0 DUP2 MLOAD SWAP1 POP SWAP2 SWAP1 POP JUMP JUMPDEST PUSH1 0x0 DUP2 SWAP1 POP SWAP3 SWAP2 POP POP JUMP JUMPDEST PUSH1 0x0 PUSH2 0x311 DUP3 PUSH2 0x318 JUMP JUMPDEST SWAP1 POP SWAP2 SWAP1 POP JUMP JUMPDEST PUSH1 0x0 PUSH20 0xFFFFFFFFFFFFFFFFFFFFFFFFFFFFFFFFFFFFFFFF DUP3 AND SWAP1 POP SWAP2 SWAP1 POP JUMP JUMPDEST PUSH1 0x0 DUP2 SWAP1 POP SWAP2 SWAP1 POP JUMP JUMPDEST DUP3 DUP2 DUP4 CALLDATACOPY PUSH1 0x0 DUP4 DUP4 ADD MSTORE POP POP POP JUMP JUMPDEST PUSH1 0x0 JUMPDEST DUP4 DUP2 LT ISZERO PUSH2 0x36F JUMPI DUP1 DUP3 ADD MLOAD DUP2 DUP5 ADD MSTORE PUSH1 0x20 DUP2 ADD SWAP1 POP PUSH2 0x354 JUMP JUMPDEST DUP4 DUP2 GT ISZERO PUSH2 0x37E JUMPI PUSH1 0x0 DUP5 DUP5 ADD MSTORE JUMPDEST POP POP POP POP JUMP JUMPDEST PUSH1 0x0 DUP2 SWAP1 POP SWAP2 SWAP1 POP JUMP JUMPDEST PUSH2 0x397 DUP2 PUSH2 0x338 JUMP JUMPDEST DUP2 EQ PUSH2 0x3A2 JUMPI PUSH1 0x0 DUP1 REVERT JUMPDEST POP JUMP INVALID LOG2 PUSH5 0x6970667358 0x22 SLT KECCAK256 0xBA LOG3 EXTCODECOPY PUSH7 0xBA9DD53B991A98 0xBB 0xF9 CALLDATACOPY RETURN STOP 0x23 0xC5 DUP13 SELFDESTRUCT PUSH20 0xB9EBEC9A9566E497DE03D564736F6C634300060C STOP CALLER "
				},
				"gasEstimates": {
					"creation": {
						"codeDepositCost": "197400",
						"executionCost": "21104",
						"totalCost": "218504"
					},
					"external": {
						"Representar(string,uint256,string)": "infinite",
						"owner()": "1189"
					}
				},
				"methodIdentifiers": {
					"Representar(string,uint256,string)": "f01ca6b7",
					"owner()": "8da5cb5b"
				}
			},
			"storageLayout": {
				"storage": [
					{
						"astId": 4,
						"contract": "Votaciones/votaciones.sol:votacion",
						"label": "owner",
						"offset": 0,
						"slot": "0",
						"type": "t_address"
					},
					{
						"astId": 17,
						"contract": "Votaciones/votaciones.sol:votacion",
						"label": "Candidato",
						"offset": 0,
						"slot": "1",
						"type": "t_mapping(t_string_memory_ptr,t_bytes32)"
					},
					{
						"astId": 21,
						"contract": "Votaciones/votaciones.sol:votacion",
						"label": "VotosCandidato",
						"offset": 0,
						"slot": "2",
						"type": "t_mapping(t_string_memory_ptr,t_uint256)"
					},
					{
						"astId": 24,
						"contract": "Votaciones/votaciones.sol:votacion",
						"label": "candidatos",
						"offset": 0,
						"slot": "3",
						"type": "t_array(t_string_storage)dyn_storage"
					},
					{
						"astId": 27,
						"contract": "Votaciones/votaciones.sol:votacion",
						"label": "votantes",
						"offset": 0,
						"slot": "4",
						"type": "t_array(t_bytes32)dyn_storage"
					}
				],
				"types": {
					"t_address": {
						"encoding": "inplace",
						"label": "address",
						"numberOfBytes": "20"
					},
					"t_array(t_bytes32)dyn_storage": {
						"base": "t_bytes32",
						"encoding": "dynamic_array",
						"label": "bytes32[]",
						"numberOfBytes": "32"
					},
					"t_array(t_string_storage)dyn_storage": {
						"base": "t_string_storage",
						"encoding": "dynamic_array",
						"label": "string[]",
						"numberOfBytes": "32"
					},
					"t_bytes32": {
						"encoding": "inplace",
						"label": "bytes32",
						"numberOfBytes": "32"
					},
					"t_mapping(t_string_memory_ptr,t_bytes32)": {
						"encoding": "mapping",
						"key": "t_string_memory_ptr",
						"label": "mapping(string => bytes32)",
						"numberOfBytes": "32",
						"value": "t_bytes32"
					},
					"t_mapping(t_string_memory_ptr,t_uint256)": {
						"encoding": "mapping",
						"key": "t_string_memory_ptr",
						"label": "mapping(string => uint256)",
						"numberOfBytes": "32",
						"value": "t_uint256"
					},
					"t_string_memory_ptr": {
						"encoding": "bytes",
						"label": "string",
						"numberOfBytes": "32"
					},
					"t_string_storage": {
						"encoding": "bytes",
						"label": "string",
						"numberOfBytes": "32"
					},
					"t_uint256": {
						"encoding": "inplace",
						"label": "uint256",
						"numberOfBytes": "32"
					}
				}
			},
			"userdoc": {
				"kind": "user",
				"methods": {},
				"version": 1
			}
		}
	}
}