{
	"Votaciones/votaciones.sol": {
		"votacion": {
			"abi": [
				{
					"inputs": [],
					"stateMutability": "nonpayable",
					"type": "constructor"
				},
				{
					"inputs": [
						{
							"internalType": "string",
							"name": "_nombre",
							"type": "string"
						},
						{
							"internalType": "uint256",
							"name": "_edad",
							"type": "uint256"
						},
						{
							"internalType": "string",
							"name": "_ID",
							"type": "string"
						}
					],
					"name": "Representar",
					"outputs": [],
					"stateMutability": "nonpayable",
					"type": "function"
				},
				{
					"inputs": [],
					"name": "VerCandidatos",
					"outputs": [
						{
							"internalType": "string[]",
							"name": "",
							"type": "string[]"
						}
					],
					"stateMutability": "view",
					"type": "function"
				},
				{
					"inputs": [
						{
							"internalType": "string",
							"name": "_candidato",
							"type": "string"
						}
					],
					"name": "Votar",
					"outputs": [],
					"stateMutability": "nonpayable",
					"type": "function"
				},
				{
					"inputs": [],
					"name": "owner",
					"outputs": [
						{
							"internalType": "address",
							"name": "",
							"type": "address"
						}
					],
					"stateMutability": "view",
					"type": "function"
				}
			],
			"devdoc": {
				"kind": "dev",
				"methods": {},
				"version": 1
			},
			"evm": {
				"assembly": "    /* \"Votaciones/votaciones.sol\":102:1463  contract votacion {\r... */\n  mstore(0x40, 0x80)\n    /* \"Votaciones/votaciones.sol\":619:678  constructor () public {\r... */\n  callvalue\n  dup1\n  iszero\n  tag_1\n  jumpi\n  0x00\n  dup1\n  revert\ntag_1:\n  pop\n    /* \"Votaciones/votaciones.sol\":660:670  msg.sender */\n  caller\n    /* \"Votaciones/votaciones.sol\":652:657  owner */\n  0x00\n  dup1\n    /* \"Votaciones/votaciones.sol\":652:670  owner = msg.sender */\n  0x0100\n  exp\n  dup2\n  sload\n  dup2\n  0xffffffffffffffffffffffffffffffffffffffff\n  mul\n  not\n  and\n  swap1\n  dup4\n  0xffffffffffffffffffffffffffffffffffffffff\n  and\n  mul\n  or\n  swap1\n  sstore\n  pop\n    /* \"Votaciones/votaciones.sol\":102:1463  contract votacion {\r... */\n  dataSize(sub_0)\n  dup1\n  dataOffset(sub_0)\n  0x00\n  codecopy\n  0x00\n  return\nstop\n\nsub_0: assembly {\n        /* \"Votaciones/votaciones.sol\":102:1463  contract votacion {\r... */\n      mstore(0x40, 0x80)\n      callvalue\n      dup1\n      iszero\n      tag_1\n      jumpi\n      0x00\n      dup1\n      revert\n    tag_1:\n      pop\n      jumpi(tag_2, lt(calldatasize, 0x04))\n      shr(0xe0, calldataload(0x00))\n      dup1\n      0x8da5cb5b\n      eq\n      tag_3\n      jumpi\n      dup1\n      0xbfc2e938\n      eq\n      tag_4\n      jumpi\n      dup1\n      0xf01ca6b7\n      eq\n      tag_5\n      jumpi\n      dup1\n      0xfebe07dc\n      eq\n      tag_6\n      jumpi\n    tag_2:\n      0x00\n      dup1\n      revert\n        /* \"Votaciones/votaciones.sol\":175:195  address public owner */\n    tag_3:\n      tag_7\n      tag_8\n      jump\t// in\n    tag_7:\n      mload(0x40)\n      tag_9\n      swap2\n      swap1\n      tag_10\n      jump\t// in\n    tag_9:\n      mload(0x40)\n      dup1\n      swap2\n      sub\n      swap1\n      return\n        /* \"Votaciones/votaciones.sol\":1262:1360  function VerCandidatos() public view returns(string[] memory) {\r... */\n    tag_4:\n      tag_11\n      tag_12\n      jump\t// in\n    tag_11:\n      mload(0x40)\n      tag_13\n      swap2\n      swap1\n      tag_14\n      jump\t// in\n    tag_13:\n      mload(0x40)\n      dup1\n      swap2\n      sub\n      swap1\n      return\n        /* \"Votaciones/votaciones.sol\":748:1172  function Representar(string memory _nombre, uint _edad, string memory _ID) public {\r... */\n    tag_5:\n      tag_15\n      0x04\n      dup1\n      calldatasize\n      sub\n      dup2\n      add\n      swap1\n      tag_16\n      swap2\n      swap1\n      tag_17\n      jump\t// in\n    tag_16:\n      tag_18\n      jump\t// in\n    tag_15:\n      stop\n        /* \"Votaciones/votaciones.sol\":1402:1460  function Votar(string memory _candidato) public {\r... */\n    tag_6:\n      tag_19\n      0x04\n      dup1\n      calldatasize\n      sub\n      dup2\n      add\n      swap1\n      tag_20\n      swap2\n      swap1\n      tag_21\n      jump\t// in\n    tag_20:\n      tag_22\n      jump\t// in\n    tag_19:\n      stop\n        /* \"Votaciones/votaciones.sol\":175:195  address public owner */\n    tag_8:\n      0x00\n      dup1\n      sload\n      swap1\n      0x0100\n      exp\n      swap1\n      div\n      0xffffffffffffffffffffffffffffffffffffffff\n      and\n      dup2\n      jump\t// out\n        /* \"Votaciones/votaciones.sol\":1262:1360  function VerCandidatos() public view returns(string[] memory) {\r... */\n    tag_12:\n        /* \"Votaciones/votaciones.sol\":1307:1322  string[] memory */\n      0x60\n        /* \"Votaciones/votaciones.sol\":1342:1352  candidatos */\n      0x03\n        /* \"Votaciones/votaciones.sol\":1335:1352  return candidatos */\n      dup1\n      sload\n      dup1\n      0x20\n      mul\n      0x20\n      add\n      mload(0x40)\n      swap1\n      dup2\n      add\n      0x40\n      mstore\n      dup1\n      swap3\n      swap2\n      swap1\n      dup2\n      dup2\n      mstore\n      0x20\n      add\n      0x00\n      swap1\n    tag_24:\n      dup3\n      dup3\n      lt\n      iszero\n      tag_25\n      jumpi\n      dup4\n      dup3\n      swap1\n      0x00\n      mstore\n      keccak256(0x00, 0x20)\n      add\n      dup1\n      sload\n      0x01\n      dup2\n      0x01\n      and\n      iszero\n      0x0100\n      mul\n      sub\n      and\n      0x02\n      swap1\n      div\n      dup1\n      0x1f\n      add\n      0x20\n      dup1\n      swap2\n      div\n      mul\n      0x20\n      add\n      mload(0x40)\n      swap1\n      dup2\n      add\n      0x40\n      mstore\n      dup1\n      swap3\n      swap2\n      swap1\n      dup2\n      dup2\n      mstore\n      0x20\n      add\n      dup3\n      dup1\n      sload\n      0x01\n      dup2\n      0x01\n      and\n      iszero\n      0x0100\n      mul\n      sub\n      and\n      0x02\n      swap1\n      div\n      dup1\n      iszero\n      tag_27\n      jumpi\n      dup1\n      0x1f\n      lt\n      tag_28\n      jumpi\n      0x0100\n      dup1\n      dup4\n      sload\n      div\n      mul\n      dup4\n      mstore\n      swap2\n      0x20\n      add\n      swap2\n      jump(tag_27)\n    tag_28:\n      dup3\n      add\n      swap2\n      swap1\n      0x00\n      mstore\n      keccak256(0x00, 0x20)\n      swap1\n    tag_29:\n      dup2\n      sload\n      dup2\n      mstore\n      swap1\n      0x01\n      add\n      swap1\n      0x20\n      add\n      dup1\n      dup4\n      gt\n      tag_29\n      jumpi\n      dup3\n      swap1\n      sub\n      0x1f\n      and\n      dup3\n      add\n      swap2\n    tag_27:\n      pop\n      pop\n      pop\n      pop\n      pop\n      dup2\n      mstore\n      0x20\n      add\n      swap1\n      0x01\n      add\n      swap1\n      jump(tag_24)\n    tag_25:\n      pop\n      pop\n      pop\n      pop\n      swap1\n      pop\n        /* \"Votaciones/votaciones.sol\":1262:1360  function VerCandidatos() public view returns(string[] memory) {\r... */\n      swap1\n      jump\t// out\n        /* \"Votaciones/votaciones.sol\":748:1172  function Representar(string memory _nombre, uint _edad, string memory _ID) public {\r... */\n    tag_18:\n        /* \"Votaciones/votaciones.sol\":884:905  bytes32 hashCandidato */\n      0x00\n        /* \"Votaciones/votaciones.sol\":935:942  _nombre */\n      dup4\n        /* \"Votaciones/votaciones.sol\":944:949  _edad */\n      dup4\n        /* \"Votaciones/votaciones.sol\":951:954  _ID */\n      dup4\n        /* \"Votaciones/votaciones.sol\":918:955  abi.encodePacked(_nombre, _edad, _ID) */\n      add(0x20, mload(0x40))\n      tag_31\n      swap4\n      swap3\n      swap2\n      swap1\n      tag_32\n      jump\t// in\n    tag_31:\n      mload(0x40)\n      0x20\n      dup2\n      dup4\n      sub\n      sub\n      dup2\n      mstore\n      swap1\n      0x40\n      mstore\n        /* \"Votaciones/votaciones.sol\":908:956  keccak256(abi.encodePacked(_nombre, _edad, _ID)) */\n      dup1\n      mload\n      swap1\n      0x20\n      add\n      keccak256\n        /* \"Votaciones/votaciones.sol\":884:956  bytes32 hashCandidato = keccak256(abi.encodePacked(_nombre, _edad, _ID)) */\n      swap1\n      pop\n        /* \"Votaciones/votaciones.sol\":1067:1080  hashCandidato */\n      dup1\n        /* \"Votaciones/votaciones.sol\":1046:1055  Candidato */\n      0x01\n        /* \"Votaciones/votaciones.sol\":1056:1063  _nombre */\n      dup6\n        /* \"Votaciones/votaciones.sol\":1046:1064  Candidato[_nombre] */\n      mload(0x40)\n      tag_33\n      swap2\n      swap1\n      tag_34\n      jump\t// in\n    tag_33:\n      swap1\n      dup2\n      mstore\n      0x20\n      add\n      mload(0x40)\n      dup1\n      swap2\n      sub\n      swap1\n      keccak256\n        /* \"Votaciones/votaciones.sol\":1046:1080  Candidato[_nombre] = hashCandidato */\n      dup2\n      swap1\n      sstore\n      pop\n        /* \"Votaciones/votaciones.sol\":1140:1150  candidatos */\n      0x03\n        /* \"Votaciones/votaciones.sol\":1156:1163  _nombre */\n      dup5\n        /* \"Votaciones/votaciones.sol\":1140:1164  candidatos.push(_nombre) */\n      swap1\n      dup1\n      0x01\n      dup2\n      sload\n      add\n      dup1\n      dup3\n      sstore\n      dup1\n      swap2\n      pop\n      pop\n      0x01\n      swap1\n      sub\n      swap1\n      0x00\n      mstore\n      keccak256(0x00, 0x20)\n      add\n      0x00\n      swap1\n      swap2\n      swap1\n      swap2\n      swap1\n      swap2\n      pop\n      swap1\n      dup1\n      mload\n      swap1\n      0x20\n      add\n      swap1\n      tag_36\n      swap3\n      swap2\n      swap1\n      tag_37\n      jump\t// in\n    tag_36:\n      pop\n        /* \"Votaciones/votaciones.sol\":748:1172  function Representar(string memory _nombre, uint _edad, string memory _ID) public {\r... */\n      pop\n      pop\n      pop\n      pop\n      jump\t// out\n        /* \"Votaciones/votaciones.sol\":1402:1460  function Votar(string memory _candidato) public {\r... */\n    tag_22:\n      pop\n      jump\t// out\n    tag_37:\n      dup3\n      dup1\n      sload\n      0x01\n      dup2\n      0x01\n      and\n      iszero\n      0x0100\n      mul\n      sub\n      and\n      0x02\n      swap1\n      div\n      swap1\n      0x00\n      mstore\n      keccak256(0x00, 0x20)\n      swap1\n      0x1f\n      add\n      0x20\n      swap1\n      div\n      dup2\n      add\n      swap3\n      dup3\n      0x1f\n      lt\n      tag_40\n      jumpi\n      dup1\n      mload\n      not(0xff)\n      and\n      dup4\n      dup1\n      add\n      or\n      dup6\n      sstore\n      jump(tag_39)\n    tag_40:\n      dup3\n      dup1\n      add\n      0x01\n      add\n      dup6\n      sstore\n      dup3\n      iszero\n      tag_39\n      jumpi\n      swap2\n      dup3\n      add\n    tag_41:\n      dup3\n      dup2\n      gt\n      iszero\n      tag_42\n      jumpi\n      dup3\n      mload\n      dup3\n      sstore\n      swap2\n      0x20\n      add\n      swap2\n      swap1\n      0x01\n      add\n      swap1\n      jump(tag_41)\n    tag_42:\n    tag_39:\n      pop\n      swap1\n      pop\n      tag_43\n      swap2\n      swap1\n      tag_44\n      jump\t// in\n    tag_43:\n      pop\n      swap1\n      jump\t// out\n    tag_44:\n    tag_45:\n      dup1\n      dup3\n      gt\n      iszero\n      tag_46\n      jumpi\n      0x00\n      dup2\n      0x00\n      swap1\n      sstore\n      pop\n      0x01\n      add\n      jump(tag_45)\n    tag_46:\n      pop\n      swap1\n      jump\t// out\n        /* \"--CODEGEN--\":6:448   */\n    tag_48:\n      0x00\n        /* \"--CODEGEN--\":108:111   */\n      dup3\n        /* \"--CODEGEN--\":101:105   */\n      0x1f\n        /* \"--CODEGEN--\":93:99   */\n      dup4\n        /* \"--CODEGEN--\":89:106   */\n      add\n        /* \"--CODEGEN--\":85:112   */\n      slt\n        /* \"--CODEGEN--\":75:77   */\n      tag_50\n      jumpi\n        /* \"--CODEGEN--\":126:127   */\n      0x00\n        /* \"--CODEGEN--\":123:124   */\n      dup1\n        /* \"--CODEGEN--\":116:128   */\n      revert\n        /* \"--CODEGEN--\":75:77   */\n    tag_50:\n        /* \"--CODEGEN--\":163:169   */\n      dup2\n        /* \"--CODEGEN--\":150:170   */\n      calldataload\n        /* \"--CODEGEN--\":185:250   */\n      tag_51\n        /* \"--CODEGEN--\":200:249   */\n      tag_52\n        /* \"--CODEGEN--\":242:248   */\n      dup3\n        /* \"--CODEGEN--\":200:249   */\n      tag_53\n      jump\t// in\n    tag_52:\n        /* \"--CODEGEN--\":185:250   */\n      tag_54\n      jump\t// in\n    tag_51:\n        /* \"--CODEGEN--\":176:250   */\n      swap2\n      pop\n        /* \"--CODEGEN--\":270:276   */\n      dup1\n        /* \"--CODEGEN--\":263:268   */\n      dup3\n        /* \"--CODEGEN--\":256:277   */\n      mstore\n        /* \"--CODEGEN--\":306:310   */\n      0x20\n        /* \"--CODEGEN--\":298:304   */\n      dup4\n        /* \"--CODEGEN--\":294:311   */\n      add\n        /* \"--CODEGEN--\":339:343   */\n      0x20\n        /* \"--CODEGEN--\":332:337   */\n      dup4\n        /* \"--CODEGEN--\":328:344   */\n      add\n        /* \"--CODEGEN--\":374:377   */\n      dup6\n        /* \"--CODEGEN--\":365:371   */\n      dup4\n        /* \"--CODEGEN--\":360:363   */\n      dup4\n        /* \"--CODEGEN--\":356:372   */\n      add\n        /* \"--CODEGEN--\":353:378   */\n      gt\n        /* \"--CODEGEN--\":350:352   */\n      iszero\n      tag_55\n      jumpi\n        /* \"--CODEGEN--\":391:392   */\n      0x00\n        /* \"--CODEGEN--\":388:389   */\n      dup1\n        /* \"--CODEGEN--\":381:393   */\n      revert\n        /* \"--CODEGEN--\":350:352   */\n    tag_55:\n        /* \"--CODEGEN--\":401:442   */\n      tag_56\n        /* \"--CODEGEN--\":435:441   */\n      dup4\n        /* \"--CODEGEN--\":430:433   */\n      dup3\n        /* \"--CODEGEN--\":425:428   */\n      dup5\n        /* \"--CODEGEN--\":401:442   */\n      tag_57\n      jump\t// in\n    tag_56:\n        /* \"--CODEGEN--\":68:448   */\n      pop\n      pop\n      pop\n      swap3\n      swap2\n      pop\n      pop\n      jump\t// out\n        /* \"--CODEGEN--\":456:586   */\n    tag_58:\n      0x00\n        /* \"--CODEGEN--\":536:542   */\n      dup2\n        /* \"--CODEGEN--\":523:543   */\n      calldataload\n        /* \"--CODEGEN--\":514:543   */\n      swap1\n      pop\n        /* \"--CODEGEN--\":548:581   */\n      tag_60\n        /* \"--CODEGEN--\":575:580   */\n      dup2\n        /* \"--CODEGEN--\":548:581   */\n      tag_61\n      jump\t// in\n    tag_60:\n        /* \"--CODEGEN--\":508:586   */\n      swap3\n      swap2\n      pop\n      pop\n      jump\t// out\n        /* \"--CODEGEN--\":593:940   */\n    tag_21:\n      0x00\n        /* \"--CODEGEN--\":707:709   */\n      0x20\n        /* \"--CODEGEN--\":695:704   */\n      dup3\n        /* \"--CODEGEN--\":686:693   */\n      dup5\n        /* \"--CODEGEN--\":682:705   */\n      sub\n        /* \"--CODEGEN--\":678:710   */\n      slt\n        /* \"--CODEGEN--\":675:677   */\n      iszero\n      tag_63\n      jumpi\n        /* \"--CODEGEN--\":723:724   */\n      0x00\n        /* \"--CODEGEN--\":720:721   */\n      dup1\n        /* \"--CODEGEN--\":713:725   */\n      revert\n        /* \"--CODEGEN--\":675:677   */\n    tag_63:\n        /* \"--CODEGEN--\":786:787   */\n      0x00\n        /* \"--CODEGEN--\":775:784   */\n      dup3\n        /* \"--CODEGEN--\":771:788   */\n      add\n        /* \"--CODEGEN--\":758:789   */\n      calldataload\n        /* \"--CODEGEN--\":809:827   */\n      0xffffffffffffffff\n        /* \"--CODEGEN--\":801:807   */\n      dup2\n        /* \"--CODEGEN--\":798:828   */\n      gt\n        /* \"--CODEGEN--\":795:797   */\n      iszero\n      tag_64\n      jumpi\n        /* \"--CODEGEN--\":841:842   */\n      0x00\n        /* \"--CODEGEN--\":838:839   */\n      dup1\n        /* \"--CODEGEN--\":831:843   */\n      revert\n        /* \"--CODEGEN--\":795:797   */\n    tag_64:\n        /* \"--CODEGEN--\":861:924   */\n      tag_65\n        /* \"--CODEGEN--\":916:923   */\n      dup5\n        /* \"--CODEGEN--\":907:913   */\n      dup3\n        /* \"--CODEGEN--\":896:905   */\n      dup6\n        /* \"--CODEGEN--\":892:914   */\n      add\n        /* \"--CODEGEN--\":861:924   */\n      tag_48\n      jump\t// in\n    tag_65:\n        /* \"--CODEGEN--\":851:924   */\n      swap2\n      pop\n        /* \"--CODEGEN--\":737:930   */\n      pop\n        /* \"--CODEGEN--\":669:940   */\n      swap3\n      swap2\n      pop\n      pop\n      jump\t// out\n        /* \"--CODEGEN--\":947:1650   */\n    tag_17:\n      0x00\n      dup1\n      0x00\n        /* \"--CODEGEN--\":1105:1107   */\n      0x60\n        /* \"--CODEGEN--\":1093:1102   */\n      dup5\n        /* \"--CODEGEN--\":1084:1091   */\n      dup7\n        /* \"--CODEGEN--\":1080:1103   */\n      sub\n        /* \"--CODEGEN--\":1076:1108   */\n      slt\n        /* \"--CODEGEN--\":1073:1075   */\n      iszero\n      tag_67\n      jumpi\n        /* \"--CODEGEN--\":1121:1122   */\n      0x00\n        /* \"--CODEGEN--\":1118:1119   */\n      dup1\n        /* \"--CODEGEN--\":1111:1123   */\n      revert\n        /* \"--CODEGEN--\":1073:1075   */\n    tag_67:\n        /* \"--CODEGEN--\":1184:1185   */\n      0x00\n        /* \"--CODEGEN--\":1173:1182   */\n      dup5\n        /* \"--CODEGEN--\":1169:1186   */\n      add\n        /* \"--CODEGEN--\":1156:1187   */\n      calldataload\n        /* \"--CODEGEN--\":1207:1225   */\n      0xffffffffffffffff\n        /* \"--CODEGEN--\":1199:1205   */\n      dup2\n        /* \"--CODEGEN--\":1196:1226   */\n      gt\n        /* \"--CODEGEN--\":1193:1195   */\n      iszero\n      tag_68\n      jumpi\n        /* \"--CODEGEN--\":1239:1240   */\n      0x00\n        /* \"--CODEGEN--\":1236:1237   */\n      dup1\n        /* \"--CODEGEN--\":1229:1241   */\n      revert\n        /* \"--CODEGEN--\":1193:1195   */\n    tag_68:\n        /* \"--CODEGEN--\":1259:1322   */\n      tag_69\n        /* \"--CODEGEN--\":1314:1321   */\n      dup7\n        /* \"--CODEGEN--\":1305:1311   */\n      dup3\n        /* \"--CODEGEN--\":1294:1303   */\n      dup8\n        /* \"--CODEGEN--\":1290:1312   */\n      add\n        /* \"--CODEGEN--\":1259:1322   */\n      tag_48\n      jump\t// in\n    tag_69:\n        /* \"--CODEGEN--\":1249:1322   */\n      swap4\n      pop\n        /* \"--CODEGEN--\":1135:1328   */\n      pop\n        /* \"--CODEGEN--\":1359:1361   */\n      0x20\n        /* \"--CODEGEN--\":1377:1430   */\n      tag_70\n        /* \"--CODEGEN--\":1422:1429   */\n      dup7\n        /* \"--CODEGEN--\":1413:1419   */\n      dup3\n        /* \"--CODEGEN--\":1402:1411   */\n      dup8\n        /* \"--CODEGEN--\":1398:1420   */\n      add\n        /* \"--CODEGEN--\":1377:1430   */\n      tag_58\n      jump\t// in\n    tag_70:\n        /* \"--CODEGEN--\":1367:1430   */\n      swap3\n      pop\n        /* \"--CODEGEN--\":1338:1436   */\n      pop\n        /* \"--CODEGEN--\":1495:1497   */\n      0x40\n        /* \"--CODEGEN--\":1484:1493   */\n      dup5\n        /* \"--CODEGEN--\":1480:1498   */\n      add\n        /* \"--CODEGEN--\":1467:1499   */\n      calldataload\n        /* \"--CODEGEN--\":1519:1537   */\n      0xffffffffffffffff\n        /* \"--CODEGEN--\":1511:1517   */\n      dup2\n        /* \"--CODEGEN--\":1508:1538   */\n      gt\n        /* \"--CODEGEN--\":1505:1507   */\n      iszero\n      tag_71\n      jumpi\n        /* \"--CODEGEN--\":1551:1552   */\n      0x00\n        /* \"--CODEGEN--\":1548:1549   */\n      dup1\n        /* \"--CODEGEN--\":1541:1553   */\n      revert\n        /* \"--CODEGEN--\":1505:1507   */\n    tag_71:\n        /* \"--CODEGEN--\":1571:1634   */\n      tag_72\n        /* \"--CODEGEN--\":1626:1633   */\n      dup7\n        /* \"--CODEGEN--\":1617:1623   */\n      dup3\n        /* \"--CODEGEN--\":1606:1615   */\n      dup8\n        /* \"--CODEGEN--\":1602:1624   */\n      add\n        /* \"--CODEGEN--\":1571:1634   */\n      tag_48\n      jump\t// in\n    tag_72:\n        /* \"--CODEGEN--\":1561:1634   */\n      swap2\n      pop\n        /* \"--CODEGEN--\":1446:1640   */\n      pop\n        /* \"--CODEGEN--\":1067:1650   */\n      swap3\n      pop\n      swap3\n      pop\n      swap3\n      jump\t// out\n        /* \"--CODEGEN--\":1658:1851   */\n    tag_73:\n      0x00\n        /* \"--CODEGEN--\":1779:1845   */\n      tag_75\n        /* \"--CODEGEN--\":1841:1844   */\n      dup4\n        /* \"--CODEGEN--\":1833:1839   */\n      dup4\n        /* \"--CODEGEN--\":1779:1845   */\n      tag_76\n      jump\t// in\n    tag_75:\n        /* \"--CODEGEN--\":1765:1845   */\n      swap1\n      pop\n        /* \"--CODEGEN--\":1758:1851   */\n      swap3\n      swap2\n      pop\n      pop\n      jump\t// out\n        /* \"--CODEGEN--\":1859:1972   */\n    tag_77:\n        /* \"--CODEGEN--\":1942:1966   */\n      tag_79\n        /* \"--CODEGEN--\":1960:1965   */\n      dup2\n        /* \"--CODEGEN--\":1942:1966   */\n      tag_80\n      jump\t// in\n    tag_79:\n        /* \"--CODEGEN--\":1937:1940   */\n      dup3\n        /* \"--CODEGEN--\":1930:1967   */\n      mstore\n        /* \"--CODEGEN--\":1924:1972   */\n      pop\n      pop\n      jump\t// out\n        /* \"--CODEGEN--\":2008:2936   */\n    tag_81:\n      0x00\n        /* \"--CODEGEN--\":2173:2237   */\n      tag_83\n        /* \"--CODEGEN--\":2231:2236   */\n      dup3\n        /* \"--CODEGEN--\":2173:2237   */\n      tag_84\n      jump\t// in\n    tag_83:\n        /* \"--CODEGEN--\":2250:2346   */\n      tag_85\n        /* \"--CODEGEN--\":2339:2345   */\n      dup2\n        /* \"--CODEGEN--\":2334:2337   */\n      dup6\n        /* \"--CODEGEN--\":2250:2346   */\n      tag_86\n      jump\t// in\n    tag_85:\n        /* \"--CODEGEN--\":2243:2346   */\n      swap4\n      pop\n        /* \"--CODEGEN--\":2369:2372   */\n      dup4\n        /* \"--CODEGEN--\":2411:2415   */\n      0x20\n        /* \"--CODEGEN--\":2403:2409   */\n      dup3\n        /* \"--CODEGEN--\":2399:2416   */\n      mul\n        /* \"--CODEGEN--\":2394:2397   */\n      dup6\n        /* \"--CODEGEN--\":2390:2417   */\n      add\n        /* \"--CODEGEN--\":2438:2504   */\n      tag_87\n        /* \"--CODEGEN--\":2498:2503   */\n      dup6\n        /* \"--CODEGEN--\":2438:2504   */\n      tag_88\n      jump\t// in\n    tag_87:\n        /* \"--CODEGEN--\":2524:2531   */\n      dup1\n        /* \"--CODEGEN--\":2552:2553   */\n      0x00\n        /* \"--CODEGEN--\":2537:2897   */\n    tag_89:\n        /* \"--CODEGEN--\":2562:2568   */\n      dup6\n        /* \"--CODEGEN--\":2559:2560   */\n      dup2\n        /* \"--CODEGEN--\":2556:2569   */\n      lt\n        /* \"--CODEGEN--\":2537:2897   */\n      iszero\n      tag_91\n      jumpi\n        /* \"--CODEGEN--\":2624:2633   */\n      dup5\n        /* \"--CODEGEN--\":2618:2622   */\n      dup5\n        /* \"--CODEGEN--\":2614:2634   */\n      sub\n        /* \"--CODEGEN--\":2609:2612   */\n      dup10\n        /* \"--CODEGEN--\":2602:2635   */\n      mstore\n        /* \"--CODEGEN--\":2669:2675   */\n      dup2\n        /* \"--CODEGEN--\":2663:2676   */\n      mload\n        /* \"--CODEGEN--\":2691:2775   */\n      tag_92\n        /* \"--CODEGEN--\":2770:2774   */\n      dup6\n        /* \"--CODEGEN--\":2755:2768   */\n      dup3\n        /* \"--CODEGEN--\":2691:2775   */\n      tag_73\n      jump\t// in\n    tag_92:\n        /* \"--CODEGEN--\":2683:2775   */\n      swap5\n      pop\n        /* \"--CODEGEN--\":2792:2862   */\n      tag_93\n        /* \"--CODEGEN--\":2855:2861   */\n      dup4\n        /* \"--CODEGEN--\":2792:2862   */\n      tag_94\n      jump\t// in\n    tag_93:\n        /* \"--CODEGEN--\":2782:2862   */\n      swap3\n      pop\n        /* \"--CODEGEN--\":2885:2889   */\n      0x20\n        /* \"--CODEGEN--\":2880:2883   */\n      dup11\n        /* \"--CODEGEN--\":2876:2890   */\n      add\n        /* \"--CODEGEN--\":2869:2890   */\n      swap10\n      pop\n        /* \"--CODEGEN--\":2594:2897   */\n      pop\n        /* \"--CODEGEN--\":2584:2585   */\n      0x01\n        /* \"--CODEGEN--\":2581:2582   */\n      dup2\n        /* \"--CODEGEN--\":2577:2586   */\n      add\n        /* \"--CODEGEN--\":2572:2586   */\n      swap1\n      pop\n        /* \"--CODEGEN--\":2537:2897   */\n      jump(tag_89)\n    tag_91:\n        /* \"--CODEGEN--\":2541:2555   */\n      pop\n        /* \"--CODEGEN--\":2910:2914   */\n      dup3\n        /* \"--CODEGEN--\":2903:2914   */\n      swap8\n      pop\n        /* \"--CODEGEN--\":2927:2930   */\n      dup8\n        /* \"--CODEGEN--\":2920:2930   */\n      swap6\n      pop\n        /* \"--CODEGEN--\":2152:2936   */\n      pop\n      pop\n      pop\n      pop\n      pop\n      swap3\n      swap2\n      pop\n      pop\n      jump\t// out\n        /* \"--CODEGEN--\":2944:3271   */\n    tag_76:\n      0x00\n        /* \"--CODEGEN--\":3046:3085   */\n      tag_96\n        /* \"--CODEGEN--\":3079:3084   */\n      dup3\n        /* \"--CODEGEN--\":3046:3085   */\n      tag_97\n      jump\t// in\n    tag_96:\n        /* \"--CODEGEN--\":3097:3158   */\n      tag_98\n        /* \"--CODEGEN--\":3151:3157   */\n      dup2\n        /* \"--CODEGEN--\":3146:3149   */\n      dup6\n        /* \"--CODEGEN--\":3097:3158   */\n      tag_99\n      jump\t// in\n    tag_98:\n        /* \"--CODEGEN--\":3090:3158   */\n      swap4\n      pop\n        /* \"--CODEGEN--\":3163:3215   */\n      tag_100\n        /* \"--CODEGEN--\":3208:3214   */\n      dup2\n        /* \"--CODEGEN--\":3203:3206   */\n      dup6\n        /* \"--CODEGEN--\":3196:3200   */\n      0x20\n        /* \"--CODEGEN--\":3189:3194   */\n      dup7\n        /* \"--CODEGEN--\":3185:3201   */\n      add\n        /* \"--CODEGEN--\":3163:3215   */\n      tag_101\n      jump\t// in\n    tag_100:\n        /* \"--CODEGEN--\":3236:3265   */\n      tag_102\n        /* \"--CODEGEN--\":3258:3264   */\n      dup2\n        /* \"--CODEGEN--\":3236:3265   */\n      tag_103\n      jump\t// in\n    tag_102:\n        /* \"--CODEGEN--\":3231:3234   */\n      dup5\n        /* \"--CODEGEN--\":3227:3266   */\n      add\n        /* \"--CODEGEN--\":3220:3266   */\n      swap2\n      pop\n        /* \"--CODEGEN--\":3026:3271   */\n      pop\n      swap3\n      swap2\n      pop\n      pop\n      jump\t// out\n        /* \"--CODEGEN--\":3278:3638   */\n    tag_104:\n      0x00\n        /* \"--CODEGEN--\":3408:3447   */\n      tag_106\n        /* \"--CODEGEN--\":3441:3446   */\n      dup3\n        /* \"--CODEGEN--\":3408:3447   */\n      tag_97\n      jump\t// in\n    tag_106:\n        /* \"--CODEGEN--\":3459:3548   */\n      tag_107\n        /* \"--CODEGEN--\":3541:3547   */\n      dup2\n        /* \"--CODEGEN--\":3536:3539   */\n      dup6\n        /* \"--CODEGEN--\":3459:3548   */\n      tag_108\n      jump\t// in\n    tag_107:\n        /* \"--CODEGEN--\":3452:3548   */\n      swap4\n      pop\n        /* \"--CODEGEN--\":3553:3605   */\n      tag_109\n        /* \"--CODEGEN--\":3598:3604   */\n      dup2\n        /* \"--CODEGEN--\":3593:3596   */\n      dup6\n        /* \"--CODEGEN--\":3586:3590   */\n      0x20\n        /* \"--CODEGEN--\":3579:3584   */\n      dup7\n        /* \"--CODEGEN--\":3575:3591   */\n      add\n        /* \"--CODEGEN--\":3553:3605   */\n      tag_101\n      jump\t// in\n    tag_109:\n        /* \"--CODEGEN--\":3626:3632   */\n      dup1\n        /* \"--CODEGEN--\":3621:3624   */\n      dup5\n        /* \"--CODEGEN--\":3617:3633   */\n      add\n        /* \"--CODEGEN--\":3610:3633   */\n      swap2\n      pop\n        /* \"--CODEGEN--\":3388:3638   */\n      pop\n      swap3\n      swap2\n      pop\n      pop\n      jump\t// out\n        /* \"--CODEGEN--\":3645:3797   */\n    tag_110:\n        /* \"--CODEGEN--\":3746:3791   */\n      tag_112\n        /* \"--CODEGEN--\":3766:3790   */\n      tag_113\n        /* \"--CODEGEN--\":3784:3789   */\n      dup3\n        /* \"--CODEGEN--\":3766:3790   */\n      tag_114\n      jump\t// in\n    tag_113:\n        /* \"--CODEGEN--\":3746:3791   */\n      tag_115\n      jump\t// in\n    tag_112:\n        /* \"--CODEGEN--\":3741:3744   */\n      dup3\n        /* \"--CODEGEN--\":3734:3792   */\n      mstore\n        /* \"--CODEGEN--\":3728:3797   */\n      pop\n      pop\n      jump\t// out\n        /* \"--CODEGEN--\":3804:4079   */\n    tag_34:\n      0x00\n        /* \"--CODEGEN--\":3959:4054   */\n      tag_117\n        /* \"--CODEGEN--\":4050:4053   */\n      dup3\n        /* \"--CODEGEN--\":4041:4047   */\n      dup5\n        /* \"--CODEGEN--\":3959:4054   */\n      tag_104\n      jump\t// in\n    tag_117:\n        /* \"--CODEGEN--\":3952:4054   */\n      swap2\n      pop\n        /* \"--CODEGEN--\":4071:4074   */\n      dup2\n        /* \"--CODEGEN--\":4064:4074   */\n      swap1\n      pop\n        /* \"--CODEGEN--\":3940:4079   */\n      swap3\n      swap2\n      pop\n      pop\n      jump\t// out\n        /* \"--CODEGEN--\":4086:4661   */\n    tag_32:\n      0x00\n        /* \"--CODEGEN--\":4317:4412   */\n      tag_119\n        /* \"--CODEGEN--\":4408:4411   */\n      dup3\n        /* \"--CODEGEN--\":4399:4405   */\n      dup7\n        /* \"--CODEGEN--\":4317:4412   */\n      tag_104\n      jump\t// in\n    tag_119:\n        /* \"--CODEGEN--\":4310:4412   */\n      swap2\n      pop\n        /* \"--CODEGEN--\":4423:4498   */\n      tag_120\n        /* \"--CODEGEN--\":4494:4497   */\n      dup3\n        /* \"--CODEGEN--\":4485:4491   */\n      dup6\n        /* \"--CODEGEN--\":4423:4498   */\n      tag_110\n      jump\t// in\n    tag_120:\n        /* \"--CODEGEN--\":4520:4522   */\n      0x20\n        /* \"--CODEGEN--\":4515:4518   */\n      dup3\n        /* \"--CODEGEN--\":4511:4523   */\n      add\n        /* \"--CODEGEN--\":4504:4523   */\n      swap2\n      pop\n        /* \"--CODEGEN--\":4541:4636   */\n      tag_121\n        /* \"--CODEGEN--\":4632:4635   */\n      dup3\n        /* \"--CODEGEN--\":4623:4629   */\n      dup5\n        /* \"--CODEGEN--\":4541:4636   */\n      tag_104\n      jump\t// in\n    tag_121:\n        /* \"--CODEGEN--\":4534:4636   */\n      swap2\n      pop\n        /* \"--CODEGEN--\":4653:4656   */\n      dup2\n        /* \"--CODEGEN--\":4646:4656   */\n      swap1\n      pop\n        /* \"--CODEGEN--\":4298:4661   */\n      swap5\n      swap4\n      pop\n      pop\n      pop\n      pop\n      jump\t// out\n        /* \"--CODEGEN--\":4668:4890   */\n    tag_10:\n      0x00\n        /* \"--CODEGEN--\":4795:4797   */\n      0x20\n        /* \"--CODEGEN--\":4784:4793   */\n      dup3\n        /* \"--CODEGEN--\":4780:4798   */\n      add\n        /* \"--CODEGEN--\":4772:4798   */\n      swap1\n      pop\n        /* \"--CODEGEN--\":4809:4880   */\n      tag_123\n        /* \"--CODEGEN--\":4877:4878   */\n      0x00\n        /* \"--CODEGEN--\":4866:4875   */\n      dup4\n        /* \"--CODEGEN--\":4862:4879   */\n      add\n        /* \"--CODEGEN--\":4853:4859   */\n      dup5\n        /* \"--CODEGEN--\":4809:4880   */\n      tag_77\n      jump\t// in\n    tag_123:\n        /* \"--CODEGEN--\":4766:4890   */\n      swap3\n      swap2\n      pop\n      pop\n      jump\t// out\n        /* \"--CODEGEN--\":4897:5307   */\n    tag_14:\n      0x00\n        /* \"--CODEGEN--\":5094:5096   */\n      0x20\n        /* \"--CODEGEN--\":5083:5092   */\n      dup3\n        /* \"--CODEGEN--\":5079:5097   */\n      add\n        /* \"--CODEGEN--\":5071:5097   */\n      swap1\n      pop\n        /* \"--CODEGEN--\":5144:5153   */\n      dup2\n        /* \"--CODEGEN--\":5138:5142   */\n      dup2\n        /* \"--CODEGEN--\":5134:5154   */\n      sub\n        /* \"--CODEGEN--\":5130:5131   */\n      0x00\n        /* \"--CODEGEN--\":5119:5128   */\n      dup4\n        /* \"--CODEGEN--\":5115:5132   */\n      add\n        /* \"--CODEGEN--\":5108:5155   */\n      mstore\n        /* \"--CODEGEN--\":5169:5297   */\n      tag_125\n        /* \"--CODEGEN--\":5292:5296   */\n      dup2\n        /* \"--CODEGEN--\":5283:5289   */\n      dup5\n        /* \"--CODEGEN--\":5169:5297   */\n      tag_81\n      jump\t// in\n    tag_125:\n        /* \"--CODEGEN--\":5161:5297   */\n      swap1\n      pop\n        /* \"--CODEGEN--\":5065:5307   */\n      swap3\n      swap2\n      pop\n      pop\n      jump\t// out\n        /* \"--CODEGEN--\":5314:5570   */\n    tag_54:\n      0x00\n        /* \"--CODEGEN--\":5376:5378   */\n      0x40\n        /* \"--CODEGEN--\":5370:5379   */\n      mload\n        /* \"--CODEGEN--\":5360:5379   */\n      swap1\n      pop\n        /* \"--CODEGEN--\":5414:5418   */\n      dup2\n        /* \"--CODEGEN--\":5406:5412   */\n      dup2\n        /* \"--CODEGEN--\":5402:5419   */\n      add\n        /* \"--CODEGEN--\":5513:5519   */\n      dup2\n        /* \"--CODEGEN--\":5501:5511   */\n      dup2\n        /* \"--CODEGEN--\":5498:5520   */\n      lt\n        /* \"--CODEGEN--\":5477:5495   */\n      0xffffffffffffffff\n        /* \"--CODEGEN--\":5465:5475   */\n      dup3\n        /* \"--CODEGEN--\":5462:5496   */\n      gt\n        /* \"--CODEGEN--\":5459:5521   */\n      or\n        /* \"--CODEGEN--\":5456:5458   */\n      iszero\n      tag_127\n      jumpi\n        /* \"--CODEGEN--\":5534:5535   */\n      0x00\n        /* \"--CODEGEN--\":5531:5532   */\n      dup1\n        /* \"--CODEGEN--\":5524:5536   */\n      revert\n        /* \"--CODEGEN--\":5456:5458   */\n    tag_127:\n        /* \"--CODEGEN--\":5554:5564   */\n      dup1\n        /* \"--CODEGEN--\":5550:5552   */\n      0x40\n        /* \"--CODEGEN--\":5543:5565   */\n      mstore\n        /* \"--CODEGEN--\":5354:5570   */\n      pop\n      swap2\n      swap1\n      pop\n      jump\t// out\n        /* \"--CODEGEN--\":5577:5899   */\n    tag_53:\n      0x00\n        /* \"--CODEGEN--\":5721:5739   */\n      0xffffffffffffffff\n        /* \"--CODEGEN--\":5713:5719   */\n      dup3\n        /* \"--CODEGEN--\":5710:5740   */\n      gt\n        /* \"--CODEGEN--\":5707:5709   */\n      iszero\n      tag_129\n      jumpi\n        /* \"--CODEGEN--\":5753:5754   */\n      0x00\n        /* \"--CODEGEN--\":5750:5751   */\n      dup1\n        /* \"--CODEGEN--\":5743:5755   */\n      revert\n        /* \"--CODEGEN--\":5707:5709   */\n    tag_129:\n        /* \"--CODEGEN--\":5820:5824   */\n      0x1f\n        /* \"--CODEGEN--\":5816:5825   */\n      not\n        /* \"--CODEGEN--\":5809:5813   */\n      0x1f\n        /* \"--CODEGEN--\":5801:5807   */\n      dup4\n        /* \"--CODEGEN--\":5797:5814   */\n      add\n        /* \"--CODEGEN--\":5793:5826   */\n      and\n        /* \"--CODEGEN--\":5785:5826   */\n      swap1\n      pop\n        /* \"--CODEGEN--\":5884:5888   */\n      0x20\n        /* \"--CODEGEN--\":5878:5882   */\n      dup2\n        /* \"--CODEGEN--\":5874:5889   */\n      add\n        /* \"--CODEGEN--\":5866:5889   */\n      swap1\n      pop\n        /* \"--CODEGEN--\":5644:5899   */\n      swap2\n      swap1\n      pop\n      jump\t// out\n        /* \"--CODEGEN--\":5906:6067   */\n    tag_88:\n      0x00\n        /* \"--CODEGEN--\":6002:6005   */\n      dup2\n        /* \"--CODEGEN--\":5994:6005   */\n      swap1\n      pop\n        /* \"--CODEGEN--\":6040:6044   */\n      0x20\n        /* \"--CODEGEN--\":6035:6038   */\n      dup3\n        /* \"--CODEGEN--\":6031:6045   */\n      add\n        /* \"--CODEGEN--\":6023:6045   */\n      swap1\n      pop\n        /* \"--CODEGEN--\":5988:6067   */\n      swap2\n      swap1\n      pop\n      jump\t// out\n        /* \"--CODEGEN--\":6074:6221   */\n    tag_84:\n      0x00\n        /* \"--CODEGEN--\":6193:6198   */\n      dup2\n        /* \"--CODEGEN--\":6187:6199   */\n      mload\n        /* \"--CODEGEN--\":6177:6199   */\n      swap1\n      pop\n        /* \"--CODEGEN--\":6158:6221   */\n      swap2\n      swap1\n      pop\n      jump\t// out\n        /* \"--CODEGEN--\":6228:6350   */\n    tag_97:\n      0x00\n        /* \"--CODEGEN--\":6322:6327   */\n      dup2\n        /* \"--CODEGEN--\":6316:6328   */\n      mload\n        /* \"--CODEGEN--\":6306:6328   */\n      swap1\n      pop\n        /* \"--CODEGEN--\":6287:6350   */\n      swap2\n      swap1\n      pop\n      jump\t// out\n        /* \"--CODEGEN--\":6357:6475   */\n    tag_94:\n      0x00\n        /* \"--CODEGEN--\":6465:6469   */\n      0x20\n        /* \"--CODEGEN--\":6460:6463   */\n      dup3\n        /* \"--CODEGEN--\":6456:6470   */\n      add\n        /* \"--CODEGEN--\":6448:6470   */\n      swap1\n      pop\n        /* \"--CODEGEN--\":6442:6475   */\n      swap2\n      swap1\n      pop\n      jump\t// out\n        /* \"--CODEGEN--\":6483:6671   */\n    tag_86:\n      0x00\n        /* \"--CODEGEN--\":6623:6629   */\n      dup3\n        /* \"--CODEGEN--\":6618:6621   */\n      dup3\n        /* \"--CODEGEN--\":6611:6630   */\n      mstore\n        /* \"--CODEGEN--\":6660:6664   */\n      0x20\n        /* \"--CODEGEN--\":6655:6658   */\n      dup3\n        /* \"--CODEGEN--\":6651:6665   */\n      add\n        /* \"--CODEGEN--\":6636:6665   */\n      swap1\n      pop\n        /* \"--CODEGEN--\":6604:6671   */\n      swap3\n      swap2\n      pop\n      pop\n      jump\t// out\n        /* \"--CODEGEN--\":6680:6833   */\n    tag_99:\n      0x00\n        /* \"--CODEGEN--\":6785:6791   */\n      dup3\n        /* \"--CODEGEN--\":6780:6783   */\n      dup3\n        /* \"--CODEGEN--\":6773:6792   */\n      mstore\n        /* \"--CODEGEN--\":6822:6826   */\n      0x20\n        /* \"--CODEGEN--\":6817:6820   */\n      dup3\n        /* \"--CODEGEN--\":6813:6827   */\n      add\n        /* \"--CODEGEN--\":6798:6827   */\n      swap1\n      pop\n        /* \"--CODEGEN--\":6766:6833   */\n      swap3\n      swap2\n      pop\n      pop\n      jump\t// out\n        /* \"--CODEGEN--\":6842:6987   */\n    tag_108:\n      0x00\n        /* \"--CODEGEN--\":6978:6981   */\n      dup2\n        /* \"--CODEGEN--\":6963:6981   */\n      swap1\n      pop\n        /* \"--CODEGEN--\":6956:6987   */\n      swap3\n      swap2\n      pop\n      pop\n      jump\t// out\n        /* \"--CODEGEN--\":6995:7086   */\n    tag_80:\n      0x00\n        /* \"--CODEGEN--\":7057:7081   */\n      tag_138\n        /* \"--CODEGEN--\":7075:7080   */\n      dup3\n        /* \"--CODEGEN--\":7057:7081   */\n      tag_139\n      jump\t// in\n    tag_138:\n        /* \"--CODEGEN--\":7046:7081   */\n      swap1\n      pop\n        /* \"--CODEGEN--\":7040:7086   */\n      swap2\n      swap1\n      pop\n      jump\t// out\n        /* \"--CODEGEN--\":7093:7214   */\n    tag_139:\n      0x00\n        /* \"--CODEGEN--\":7166:7208   */\n      0xffffffffffffffffffffffffffffffffffffffff\n        /* \"--CODEGEN--\":7159:7164   */\n      dup3\n        /* \"--CODEGEN--\":7155:7209   */\n      and\n        /* \"--CODEGEN--\":7144:7209   */\n      swap1\n      pop\n        /* \"--CODEGEN--\":7138:7214   */\n      swap2\n      swap1\n      pop\n      jump\t// out\n        /* \"--CODEGEN--\":7221:7293   */\n    tag_114:\n      0x00\n        /* \"--CODEGEN--\":7283:7288   */\n      dup2\n        /* \"--CODEGEN--\":7272:7288   */\n      swap1\n      pop\n        /* \"--CODEGEN--\":7266:7293   */\n      swap2\n      swap1\n      pop\n      jump\t// out\n        /* \"--CODEGEN--\":7301:7446   */\n    tag_57:\n        /* \"--CODEGEN--\":7382:7388   */\n      dup3\n        /* \"--CODEGEN--\":7377:7380   */\n      dup2\n        /* \"--CODEGEN--\":7372:7375   */\n      dup4\n        /* \"--CODEGEN--\":7359:7389   */\n      calldatacopy\n        /* \"--CODEGEN--\":7438:7439   */\n      0x00\n        /* \"--CODEGEN--\":7429:7435   */\n      dup4\n        /* \"--CODEGEN--\":7424:7427   */\n      dup4\n        /* \"--CODEGEN--\":7420:7436   */\n      add\n        /* \"--CODEGEN--\":7413:7440   */\n      mstore\n        /* \"--CODEGEN--\":7352:7446   */\n      pop\n      pop\n      pop\n      jump\t// out\n        /* \"--CODEGEN--\":7455:7723   */\n    tag_101:\n        /* \"--CODEGEN--\":7520:7521   */\n      0x00\n        /* \"--CODEGEN--\":7527:7628   */\n    tag_144:\n        /* \"--CODEGEN--\":7541:7547   */\n      dup4\n        /* \"--CODEGEN--\":7538:7539   */\n      dup2\n        /* \"--CODEGEN--\":7535:7548   */\n      lt\n        /* \"--CODEGEN--\":7527:7628   */\n      iszero\n      tag_146\n      jumpi\n        /* \"--CODEGEN--\":7617:7618   */\n      dup1\n        /* \"--CODEGEN--\":7612:7615   */\n      dup3\n        /* \"--CODEGEN--\":7608:7619   */\n      add\n        /* \"--CODEGEN--\":7602:7620   */\n      mload\n        /* \"--CODEGEN--\":7598:7599   */\n      dup2\n        /* \"--CODEGEN--\":7593:7596   */\n      dup5\n        /* \"--CODEGEN--\":7589:7600   */\n      add\n        /* \"--CODEGEN--\":7582:7621   */\n      mstore\n        /* \"--CODEGEN--\":7563:7565   */\n      0x20\n        /* \"--CODEGEN--\":7560:7561   */\n      dup2\n        /* \"--CODEGEN--\":7556:7566   */\n      add\n        /* \"--CODEGEN--\":7551:7566   */\n      swap1\n      pop\n        /* \"--CODEGEN--\":7527:7628   */\n      jump(tag_144)\n    tag_146:\n        /* \"--CODEGEN--\":7643:7649   */\n      dup4\n        /* \"--CODEGEN--\":7640:7641   */\n      dup2\n        /* \"--CODEGEN--\":7637:7650   */\n      gt\n        /* \"--CODEGEN--\":7634:7636   */\n      iszero\n      tag_147\n      jumpi\n        /* \"--CODEGEN--\":7708:7709   */\n      0x00\n        /* \"--CODEGEN--\":7699:7705   */\n      dup5\n        /* \"--CODEGEN--\":7694:7697   */\n      dup5\n        /* \"--CODEGEN--\":7690:7706   */\n      add\n        /* \"--CODEGEN--\":7683:7710   */\n      mstore\n        /* \"--CODEGEN--\":7634:7636   */\n    tag_147:\n        /* \"--CODEGEN--\":7504:7723   */\n      pop\n      pop\n      pop\n      pop\n      jump\t// out\n        /* \"--CODEGEN--\":7731:7805   */\n    tag_115:\n      0x00\n        /* \"--CODEGEN--\":7795:7800   */\n      dup2\n        /* \"--CODEGEN--\":7784:7800   */\n      swap1\n      pop\n        /* \"--CODEGEN--\":7778:7805   */\n      swap2\n      swap1\n      pop\n      jump\t// out\n        /* \"--CODEGEN--\":7812:7909   */\n    tag_103:\n      0x00\n        /* \"--CODEGEN--\":7900:7902   */\n      0x1f\n        /* \"--CODEGEN--\":7896:7903   */\n      not\n        /* \"--CODEGEN--\":7891:7893   */\n      0x1f\n        /* \"--CODEGEN--\":7884:7889   */\n      dup4\n        /* \"--CODEGEN--\":7880:7894   */\n      add\n        /* \"--CODEGEN--\":7876:7904   */\n      and\n        /* \"--CODEGEN--\":7866:7904   */\n      swap1\n      pop\n        /* \"--CODEGEN--\":7860:7909   */\n      swap2\n      swap1\n      pop\n      jump\t// out\n        /* \"--CODEGEN--\":7917:8034   */\n    tag_61:\n        /* \"--CODEGEN--\":7986:8010   */\n      tag_151\n        /* \"--CODEGEN--\":8004:8009   */\n      dup2\n        /* \"--CODEGEN--\":7986:8010   */\n      tag_114\n      jump\t// in\n    tag_151:\n        /* \"--CODEGEN--\":7979:7984   */\n      dup2\n        /* \"--CODEGEN--\":7976:8011   */\n      eq\n        /* \"--CODEGEN--\":7966:7968   */\n      tag_152\n      jumpi\n        /* \"--CODEGEN--\":8025:8026   */\n      0x00\n        /* \"--CODEGEN--\":8022:8023   */\n      dup1\n        /* \"--CODEGEN--\":8015:8027   */\n      revert\n        /* \"--CODEGEN--\":7966:7968   */\n    tag_152:\n        /* \"--CODEGEN--\":7960:8034   */\n      pop\n      jump\t// out\n\n    auxdata: 0xa2646970667358221220af09c6d52ad120fd3d17f158af127d2dd3c71f87c9c80750f6f0ac343fd6970564736f6c634300060c0033\n}\n",
				"bytecode": {
					"linkReferences": {},
					"object": "608060405234801561001057600080fd5b50336000806101000a81548173ffffffffffffffffffffffffffffffffffffffff021916908373ffffffffffffffffffffffffffffffffffffffff160217905550610770806100606000396000f3fe608060405234801561001057600080fd5b506004361061004c5760003560e01c80638da5cb5b14610051578063bfc2e9381461006f578063f01ca6b71461008d578063febe07dc146100a9575b600080fd5b6100596100c5565b6040516100669190610594565b60405180910390f35b6100776100e9565b60405161008491906105af565b60405180910390f35b6100a760048036038101906100a291906103b0565b6101d2565b005b6100c360048036038101906100be919061036f565b610266565b005b60008054906101000a900473ffffffffffffffffffffffffffffffffffffffff1681565b60606003805480602002602001604051908101604052809291908181526020016000905b828210156101c9578382906000526020600020018054600181600116156101000203166002900480601f0160208091040260200160405190810160405280929190818152602001828054600181600116156101000203166002900480156101b55780601f1061018a576101008083540402835291602001916101b5565b820191906000526020600020905b81548152906001019060200180831161019857829003601f168201915b50505050508152602001906001019061010d565b50505050905090565b60008383836040516020016101e99392919061055f565b604051602081830303815290604052805190602001209050806001856040516102129190610548565b90815260200160405180910390208190555060038490806001815401808255809150506001900390600052602060002001600090919091909150908051906020019061025f929190610269565b5050505050565b50565b828054600181600116156101000203166002900490600052602060002090601f016020900481019282601f106102aa57805160ff19168380011785556102d8565b828001600101855582156102d8579182015b828111156102d75782518255916020019190600101906102bc565b5b5090506102e591906102e9565b5090565b5b808211156103025760008160009055506001016102ea565b5090565b600082601f83011261031757600080fd5b813561032a610325826105fe565b6105d1565b9150808252602083016020830185838301111561034657600080fd5b6103518382846106c6565b50505092915050565b60008135905061036981610723565b92915050565b60006020828403121561038157600080fd5b600082013567ffffffffffffffff81111561039b57600080fd5b6103a784828501610306565b91505092915050565b6000806000606084860312156103c557600080fd5b600084013567ffffffffffffffff8111156103df57600080fd5b6103eb86828701610306565b93505060206103fc8682870161035a565b925050604084013567ffffffffffffffff81111561041957600080fd5b61042586828701610306565b9150509250925092565b600061043b83836104c7565b905092915050565b61044c8161068a565b82525050565b600061045d8261063a565b610467818561065d565b9350836020820285016104798561062a565b8060005b858110156104b55784840389528151610496858261042f565b94506104a183610650565b925060208a0199505060018101905061047d565b50829750879550505050505092915050565b60006104d282610645565b6104dc818561066e565b93506104ec8185602086016106d5565b6104f581610712565b840191505092915050565b600061050b82610645565b610515818561067f565b93506105258185602086016106d5565b80840191505092915050565b61054261053d826106bc565b610708565b82525050565b60006105548284610500565b915081905092915050565b600061056b8286610500565b91506105778285610531565b6020820191506105878284610500565b9150819050949350505050565b60006020820190506105a96000830184610443565b92915050565b600060208201905081810360008301526105c98184610452565b905092915050565b6000604051905081810181811067ffffffffffffffff821117156105f457600080fd5b8060405250919050565b600067ffffffffffffffff82111561061557600080fd5b601f19601f8301169050602081019050919050565b6000819050602082019050919050565b600081519050919050565b600081519050919050565b6000602082019050919050565b600082825260208201905092915050565b600082825260208201905092915050565b600081905092915050565b60006106958261069c565b9050919050565b600073ffffffffffffffffffffffffffffffffffffffff82169050919050565b6000819050919050565b82818337600083830152505050565b60005b838110156106f35780820151818401526020810190506106d8565b83811115610702576000848401525b50505050565b6000819050919050565b6000601f19601f8301169050919050565b61072c816106bc565b811461073757600080fd5b5056fea2646970667358221220af09c6d52ad120fd3d17f158af127d2dd3c71f87c9c80750f6f0ac343fd6970564736f6c634300060c0033",
					"opcodes": "PUSH1 0x80 PUSH1 0x40 MSTORE CALLVALUE DUP1 ISZERO PUSH2 0x10 JUMPI PUSH1 0x0 DUP1 REVERT JUMPDEST POP CALLER PUSH1 0x0 DUP1 PUSH2 0x100 EXP DUP2 SLOAD DUP2 PUSH20 0xFFFFFFFFFFFFFFFFFFFFFFFFFFFFFFFFFFFFFFFF MUL NOT AND SWAP1 DUP4 PUSH20 0xFFFFFFFFFFFFFFFFFFFFFFFFFFFFFFFFFFFFFFFF AND MUL OR SWAP1 SSTORE POP PUSH2 0x770 DUP1 PUSH2 0x60 PUSH1 0x0 CODECOPY PUSH1 0x0 RETURN INVALID PUSH1 0x80 PUSH1 0x40 MSTORE CALLVALUE DUP1 ISZERO PUSH2 0x10 JUMPI PUSH1 0x0 DUP1 REVERT JUMPDEST POP PUSH1 0x4 CALLDATASIZE LT PUSH2 0x4C JUMPI PUSH1 0x0 CALLDATALOAD PUSH1 0xE0 SHR DUP1 PUSH4 0x8DA5CB5B EQ PUSH2 0x51 JUMPI DUP1 PUSH4 0xBFC2E938 EQ PUSH2 0x6F JUMPI DUP1 PUSH4 0xF01CA6B7 EQ PUSH2 0x8D JUMPI DUP1 PUSH4 0xFEBE07DC EQ PUSH2 0xA9 JUMPI JUMPDEST PUSH1 0x0 DUP1 REVERT JUMPDEST PUSH2 0x59 PUSH2 0xC5 JUMP JUMPDEST PUSH1 0x40 MLOAD PUSH2 0x66 SWAP2 SWAP1 PUSH2 0x594 JUMP JUMPDEST PUSH1 0x40 MLOAD DUP1 SWAP2 SUB SWAP1 RETURN JUMPDEST PUSH2 0x77 PUSH2 0xE9 JUMP JUMPDEST PUSH1 0x40 MLOAD PUSH2 0x84 SWAP2 SWAP1 PUSH2 0x5AF JUMP JUMPDEST PUSH1 0x40 MLOAD DUP1 SWAP2 SUB SWAP1 RETURN JUMPDEST PUSH2 0xA7 PUSH1 0x4 DUP1 CALLDATASIZE SUB DUP2 ADD SWAP1 PUSH2 0xA2 SWAP2 SWAP1 PUSH2 0x3B0 JUMP JUMPDEST PUSH2 0x1D2 JUMP JUMPDEST STOP JUMPDEST PUSH2 0xC3 PUSH1 0x4 DUP1 CALLDATASIZE SUB DUP2 ADD SWAP1 PUSH2 0xBE SWAP2 SWAP1 PUSH2 0x36F JUMP JUMPDEST PUSH2 0x266 JUMP JUMPDEST STOP JUMPDEST PUSH1 0x0 DUP1 SLOAD SWAP1 PUSH2 0x100 EXP SWAP1 DIV PUSH20 0xFFFFFFFFFFFFFFFFFFFFFFFFFFFFFFFFFFFFFFFF AND DUP2 JUMP JUMPDEST PUSH1 0x60 PUSH1 0x3 DUP1 SLOAD DUP1 PUSH1 0x20 MUL PUSH1 0x20 ADD PUSH1 0x40 MLOAD SWAP1 DUP2 ADD PUSH1 0x40 MSTORE DUP1 SWAP3 SWAP2 SWAP1 DUP2 DUP2 MSTORE PUSH1 0x20 ADD PUSH1 0x0 SWAP1 JUMPDEST DUP3 DUP3 LT ISZERO PUSH2 0x1C9 JUMPI DUP4 DUP3 SWAP1 PUSH1 0x0 MSTORE PUSH1 0x20 PUSH1 0x0 KECCAK256 ADD DUP1 SLOAD PUSH1 0x1 DUP2 PUSH1 0x1 AND ISZERO PUSH2 0x100 MUL SUB AND PUSH1 0x2 SWAP1 DIV DUP1 PUSH1 0x1F ADD PUSH1 0x20 DUP1 SWAP2 DIV MUL PUSH1 0x20 ADD PUSH1 0x40 MLOAD SWAP1 DUP2 ADD PUSH1 0x40 MSTORE DUP1 SWAP3 SWAP2 SWAP1 DUP2 DUP2 MSTORE PUSH1 0x20 ADD DUP3 DUP1 SLOAD PUSH1 0x1 DUP2 PUSH1 0x1 AND ISZERO PUSH2 0x100 MUL SUB AND PUSH1 0x2 SWAP1 DIV DUP1 ISZERO PUSH2 0x1B5 JUMPI DUP1 PUSH1 0x1F LT PUSH2 0x18A JUMPI PUSH2 0x100 DUP1 DUP4 SLOAD DIV MUL DUP4 MSTORE SWAP2 PUSH1 0x20 ADD SWAP2 PUSH2 0x1B5 JUMP JUMPDEST DUP3 ADD SWAP2 SWAP1 PUSH1 0x0 MSTORE PUSH1 0x20 PUSH1 0x0 KECCAK256 SWAP1 JUMPDEST DUP2 SLOAD DUP2 MSTORE SWAP1 PUSH1 0x1 ADD SWAP1 PUSH1 0x20 ADD DUP1 DUP4 GT PUSH2 0x198 JUMPI DUP3 SWAP1 SUB PUSH1 0x1F AND DUP3 ADD SWAP2 JUMPDEST POP POP POP POP POP DUP2 MSTORE PUSH1 0x20 ADD SWAP1 PUSH1 0x1 ADD SWAP1 PUSH2 0x10D JUMP JUMPDEST POP POP POP POP SWAP1 POP SWAP1 JUMP JUMPDEST PUSH1 0x0 DUP4 DUP4 DUP4 PUSH1 0x40 MLOAD PUSH1 0x20 ADD PUSH2 0x1E9 SWAP4 SWAP3 SWAP2 SWAP1 PUSH2 0x55F JUMP JUMPDEST PUSH1 0x40 MLOAD PUSH1 0x20 DUP2 DUP4 SUB SUB DUP2 MSTORE SWAP1 PUSH1 0x40 MSTORE DUP1 MLOAD SWAP1 PUSH1 0x20 ADD KECCAK256 SWAP1 POP DUP1 PUSH1 0x1 DUP6 PUSH1 0x40 MLOAD PUSH2 0x212 SWAP2 SWAP1 PUSH2 0x548 JUMP JUMPDEST SWAP1 DUP2 MSTORE PUSH1 0x20 ADD PUSH1 0x40 MLOAD DUP1 SWAP2 SUB SWAP1 KECCAK256 DUP2 SWAP1 SSTORE POP PUSH1 0x3 DUP5 SWAP1 DUP1 PUSH1 0x1 DUP2 SLOAD ADD DUP1 DUP3 SSTORE DUP1 SWAP2 POP POP PUSH1 0x1 SWAP1 SUB SWAP1 PUSH1 0x0 MSTORE PUSH1 0x20 PUSH1 0x0 KECCAK256 ADD PUSH1 0x0 SWAP1 SWAP2 SWAP1 SWAP2 SWAP1 SWAP2 POP SWAP1 DUP1 MLOAD SWAP1 PUSH1 0x20 ADD SWAP1 PUSH2 0x25F SWAP3 SWAP2 SWAP1 PUSH2 0x269 JUMP JUMPDEST POP POP POP POP POP JUMP JUMPDEST POP JUMP JUMPDEST DUP3 DUP1 SLOAD PUSH1 0x1 DUP2 PUSH1 0x1 AND ISZERO PUSH2 0x100 MUL SUB AND PUSH1 0x2 SWAP1 DIV SWAP1 PUSH1 0x0 MSTORE PUSH1 0x20 PUSH1 0x0 KECCAK256 SWAP1 PUSH1 0x1F ADD PUSH1 0x20 SWAP1 DIV DUP2 ADD SWAP3 DUP3 PUSH1 0x1F LT PUSH2 0x2AA JUMPI DUP1 MLOAD PUSH1 0xFF NOT AND DUP4 DUP1 ADD OR DUP6 SSTORE PUSH2 0x2D8 JUMP JUMPDEST DUP3 DUP1 ADD PUSH1 0x1 ADD DUP6 SSTORE DUP3 ISZERO PUSH2 0x2D8 JUMPI SWAP2 DUP3 ADD JUMPDEST DUP3 DUP2 GT ISZERO PUSH2 0x2D7 JUMPI DUP3 MLOAD DUP3 SSTORE SWAP2 PUSH1 0x20 ADD SWAP2 SWAP1 PUSH1 0x1 ADD SWAP1 PUSH2 0x2BC JUMP JUMPDEST JUMPDEST POP SWAP1 POP PUSH2 0x2E5 SWAP2 SWAP1 PUSH2 0x2E9 JUMP JUMPDEST POP SWAP1 JUMP JUMPDEST JUMPDEST DUP1 DUP3 GT ISZERO PUSH2 0x302 JUMPI PUSH1 0x0 DUP2 PUSH1 0x0 SWAP1 SSTORE POP PUSH1 0x1 ADD PUSH2 0x2EA JUMP JUMPDEST POP SWAP1 JUMP JUMPDEST PUSH1 0x0 DUP3 PUSH1 0x1F DUP4 ADD SLT PUSH2 0x317 JUMPI PUSH1 0x0 DUP1 REVERT JUMPDEST DUP2 CALLDATALOAD PUSH2 0x32A PUSH2 0x325 DUP3 PUSH2 0x5FE JUMP JUMPDEST PUSH2 0x5D1 JUMP JUMPDEST SWAP2 POP DUP1 DUP3 MSTORE PUSH1 0x20 DUP4 ADD PUSH1 0x20 DUP4 ADD DUP6 DUP4 DUP4 ADD GT ISZERO PUSH2 0x346 JUMPI PUSH1 0x0 DUP1 REVERT JUMPDEST PUSH2 0x351 DUP4 DUP3 DUP5 PUSH2 0x6C6 JUMP JUMPDEST POP POP POP SWAP3 SWAP2 POP POP JUMP JUMPDEST PUSH1 0x0 DUP2 CALLDATALOAD SWAP1 POP PUSH2 0x369 DUP2 PUSH2 0x723 JUMP JUMPDEST SWAP3 SWAP2 POP POP JUMP JUMPDEST PUSH1 0x0 PUSH1 0x20 DUP3 DUP5 SUB SLT ISZERO PUSH2 0x381 JUMPI PUSH1 0x0 DUP1 REVERT JUMPDEST PUSH1 0x0 DUP3 ADD CALLDATALOAD PUSH8 0xFFFFFFFFFFFFFFFF DUP2 GT ISZERO PUSH2 0x39B JUMPI PUSH1 0x0 DUP1 REVERT JUMPDEST PUSH2 0x3A7 DUP5 DUP3 DUP6 ADD PUSH2 0x306 JUMP JUMPDEST SWAP2 POP POP SWAP3 SWAP2 POP POP JUMP JUMPDEST PUSH1 0x0 DUP1 PUSH1 0x0 PUSH1 0x60 DUP5 DUP7 SUB SLT ISZERO PUSH2 0x3C5 JUMPI PUSH1 0x0 DUP1 REVERT JUMPDEST PUSH1 0x0 DUP5 ADD CALLDATALOAD PUSH8 0xFFFFFFFFFFFFFFFF DUP2 GT ISZERO PUSH2 0x3DF JUMPI PUSH1 0x0 DUP1 REVERT JUMPDEST PUSH2 0x3EB DUP7 DUP3 DUP8 ADD PUSH2 0x306 JUMP JUMPDEST SWAP4 POP POP PUSH1 0x20 PUSH2 0x3FC DUP7 DUP3 DUP8 ADD PUSH2 0x35A JUMP JUMPDEST SWAP3 POP POP PUSH1 0x40 DUP5 ADD CALLDATALOAD PUSH8 0xFFFFFFFFFFFFFFFF DUP2 GT ISZERO PUSH2 0x419 JUMPI PUSH1 0x0 DUP1 REVERT JUMPDEST PUSH2 0x425 DUP7 DUP3 DUP8 ADD PUSH2 0x306 JUMP JUMPDEST SWAP2 POP POP SWAP3 POP SWAP3 POP SWAP3 JUMP JUMPDEST PUSH1 0x0 PUSH2 0x43B DUP4 DUP4 PUSH2 0x4C7 JUMP JUMPDEST SWAP1 POP SWAP3 SWAP2 POP POP JUMP JUMPDEST PUSH2 0x44C DUP2 PUSH2 0x68A JUMP JUMPDEST DUP3 MSTORE POP POP JUMP JUMPDEST PUSH1 0x0 PUSH2 0x45D DUP3 PUSH2 0x63A JUMP JUMPDEST PUSH2 0x467 DUP2 DUP6 PUSH2 0x65D JUMP JUMPDEST SWAP4 POP DUP4 PUSH1 0x20 DUP3 MUL DUP6 ADD PUSH2 0x479 DUP6 PUSH2 0x62A JUMP JUMPDEST DUP1 PUSH1 0x0 JUMPDEST DUP6 DUP2 LT ISZERO PUSH2 0x4B5 JUMPI DUP5 DUP5 SUB DUP10 MSTORE DUP2 MLOAD PUSH2 0x496 DUP6 DUP3 PUSH2 0x42F JUMP JUMPDEST SWAP5 POP PUSH2 0x4A1 DUP4 PUSH2 0x650 JUMP JUMPDEST SWAP3 POP PUSH1 0x20 DUP11 ADD SWAP10 POP POP PUSH1 0x1 DUP2 ADD SWAP1 POP PUSH2 0x47D JUMP JUMPDEST POP DUP3 SWAP8 POP DUP8 SWAP6 POP POP POP POP POP POP SWAP3 SWAP2 POP POP JUMP JUMPDEST PUSH1 0x0 PUSH2 0x4D2 DUP3 PUSH2 0x645 JUMP JUMPDEST PUSH2 0x4DC DUP2 DUP6 PUSH2 0x66E JUMP JUMPDEST SWAP4 POP PUSH2 0x4EC DUP2 DUP6 PUSH1 0x20 DUP7 ADD PUSH2 0x6D5 JUMP JUMPDEST PUSH2 0x4F5 DUP2 PUSH2 0x712 JUMP JUMPDEST DUP5 ADD SWAP2 POP POP SWAP3 SWAP2 POP POP JUMP JUMPDEST PUSH1 0x0 PUSH2 0x50B DUP3 PUSH2 0x645 JUMP JUMPDEST PUSH2 0x515 DUP2 DUP6 PUSH2 0x67F JUMP JUMPDEST SWAP4 POP PUSH2 0x525 DUP2 DUP6 PUSH1 0x20 DUP7 ADD PUSH2 0x6D5 JUMP JUMPDEST DUP1 DUP5 ADD SWAP2 POP POP SWAP3 SWAP2 POP POP JUMP JUMPDEST PUSH2 0x542 PUSH2 0x53D DUP3 PUSH2 0x6BC JUMP JUMPDEST PUSH2 0x708 JUMP JUMPDEST DUP3 MSTORE POP POP JUMP JUMPDEST PUSH1 0x0 PUSH2 0x554 DUP3 DUP5 PUSH2 0x500 JUMP JUMPDEST SWAP2 POP DUP2 SWAP1 POP SWAP3 SWAP2 POP POP JUMP JUMPDEST PUSH1 0x0 PUSH2 0x56B DUP3 DUP7 PUSH2 0x500 JUMP JUMPDEST SWAP2 POP PUSH2 0x577 DUP3 DUP6 PUSH2 0x531 JUMP JUMPDEST PUSH1 0x20 DUP3 ADD SWAP2 POP PUSH2 0x587 DUP3 DUP5 PUSH2 0x500 JUMP JUMPDEST SWAP2 POP DUP2 SWAP1 POP SWAP5 SWAP4 POP POP POP POP JUMP JUMPDEST PUSH1 0x0 PUSH1 0x20 DUP3 ADD SWAP1 POP PUSH2 0x5A9 PUSH1 0x0 DUP4 ADD DUP5 PUSH2 0x443 JUMP JUMPDEST SWAP3 SWAP2 POP POP JUMP JUMPDEST PUSH1 0x0 PUSH1 0x20 DUP3 ADD SWAP1 POP DUP2 DUP2 SUB PUSH1 0x0 DUP4 ADD MSTORE PUSH2 0x5C9 DUP2 DUP5 PUSH2 0x452 JUMP JUMPDEST SWAP1 POP SWAP3 SWAP2 POP POP JUMP JUMPDEST PUSH1 0x0 PUSH1 0x40 MLOAD SWAP1 POP DUP2 DUP2 ADD DUP2 DUP2 LT PUSH8 0xFFFFFFFFFFFFFFFF DUP3 GT OR ISZERO PUSH2 0x5F4 JUMPI PUSH1 0x0 DUP1 REVERT JUMPDEST DUP1 PUSH1 0x40 MSTORE POP SWAP2 SWAP1 POP JUMP JUMPDEST PUSH1 0x0 PUSH8 0xFFFFFFFFFFFFFFFF DUP3 GT ISZERO PUSH2 0x615 JUMPI PUSH1 0x0 DUP1 REVERT JUMPDEST PUSH1 0x1F NOT PUSH1 0x1F DUP4 ADD AND SWAP1 POP PUSH1 0x20 DUP2 ADD SWAP1 POP SWAP2 SWAP1 POP JUMP JUMPDEST PUSH1 0x0 DUP2 SWAP1 POP PUSH1 0x20 DUP3 ADD SWAP1 POP SWAP2 SWAP1 POP JUMP JUMPDEST PUSH1 0x0 DUP2 MLOAD SWAP1 POP SWAP2 SWAP1 POP JUMP JUMPDEST PUSH1 0x0 DUP2 MLOAD SWAP1 POP SWAP2 SWAP1 POP JUMP JUMPDEST PUSH1 0x0 PUSH1 0x20 DUP3 ADD SWAP1 POP SWAP2 SWAP1 POP JUMP JUMPDEST PUSH1 0x0 DUP3 DUP3 MSTORE PUSH1 0x20 DUP3 ADD SWAP1 POP SWAP3 SWAP2 POP POP JUMP JUMPDEST PUSH1 0x0 DUP3 DUP3 MSTORE PUSH1 0x20 DUP3 ADD SWAP1 POP SWAP3 SWAP2 POP POP JUMP JUMPDEST PUSH1 0x0 DUP2 SWAP1 POP SWAP3 SWAP2 POP POP JUMP JUMPDEST PUSH1 0x0 PUSH2 0x695 DUP3 PUSH2 0x69C JUMP JUMPDEST SWAP1 POP SWAP2 SWAP1 POP JUMP JUMPDEST PUSH1 0x0 PUSH20 0xFFFFFFFFFFFFFFFFFFFFFFFFFFFFFFFFFFFFFFFF DUP3 AND SWAP1 POP SWAP2 SWAP1 POP JUMP JUMPDEST PUSH1 0x0 DUP2 SWAP1 POP SWAP2 SWAP1 POP JUMP JUMPDEST DUP3 DUP2 DUP4 CALLDATACOPY PUSH1 0x0 DUP4 DUP4 ADD MSTORE POP POP POP JUMP JUMPDEST PUSH1 0x0 JUMPDEST DUP4 DUP2 LT ISZERO PUSH2 0x6F3 JUMPI DUP1 DUP3 ADD MLOAD DUP2 DUP5 ADD MSTORE PUSH1 0x20 DUP2 ADD SWAP1 POP PUSH2 0x6D8 JUMP JUMPDEST DUP4 DUP2 GT ISZERO PUSH2 0x702 JUMPI PUSH1 0x0 DUP5 DUP5 ADD MSTORE JUMPDEST POP POP POP POP JUMP JUMPDEST PUSH1 0x0 DUP2 SWAP1 POP SWAP2 SWAP1 POP JUMP JUMPDEST PUSH1 0x0 PUSH1 0x1F NOT PUSH1 0x1F DUP4 ADD AND SWAP1 POP SWAP2 SWAP1 POP JUMP JUMPDEST PUSH2 0x72C DUP2 PUSH2 0x6BC JUMP JUMPDEST DUP2 EQ PUSH2 0x737 JUMPI PUSH1 0x0 DUP1 REVERT JUMPDEST POP JUMP INVALID LOG2 PUSH5 0x6970667358 0x22 SLT KECCAK256 0xAF MULMOD 0xC6 0xD5 0x2A 0xD1 KECCAK256 REVERT RETURNDATASIZE OR CALL PC 0xAF SLT PUSH30 0x2DD3C71F87C9C80750F6F0AC343FD6970564736F6C634300060C00330000 "
				},
				"gasEstimates": {
					"creation": {
						"codeDepositCost": "380800",
						"executionCost": "21284",
						"totalCost": "402084"
					},
					"external": {
						"Representar(string,uint256,string)": "infinite",
						"VerCandidatos()": "infinite",
						"Votar(string)": "infinite",
						"owner()": "1189"
					}
				},
				"methodIdentifiers": {
					"Representar(string,uint256,string)": "f01ca6b7",
					"VerCandidatos()": "bfc2e938",
					"Votar(string)": "febe07dc",
					"owner()": "8da5cb5b"
				}
			},
			"storageLayout": {
				"storage": [
					{
						"astId": 4,
						"contract": "Votaciones/votaciones.sol:votacion",
						"label": "owner",
						"offset": 0,
						"slot": "0",
						"type": "t_address"
					},
					{
						"astId": 8,
						"contract": "Votaciones/votaciones.sol:votacion",
						"label": "Candidato",
						"offset": 0,
						"slot": "1",
						"type": "t_mapping(t_string_memory_ptr,t_bytes32)"
					},
					{
						"astId": 12,
						"contract": "Votaciones/votaciones.sol:votacion",
						"label": "VotosCandidato",
						"offset": 0,
						"slot": "2",
						"type": "t_mapping(t_string_memory_ptr,t_uint256)"
					},
					{
						"astId": 15,
						"contract": "Votaciones/votaciones.sol:votacion",
						"label": "candidatos",
						"offset": 0,
						"slot": "3",
						"type": "t_array(t_string_storage)dyn_storage"
					},
					{
						"astId": 18,
						"contract": "Votaciones/votaciones.sol:votacion",
						"label": "votantes",
						"offset": 0,
						"slot": "4",
						"type": "t_array(t_bytes32)dyn_storage"
					}
				],
				"types": {
					"t_address": {
						"encoding": "inplace",
						"label": "address",
						"numberOfBytes": "20"
					},
					"t_array(t_bytes32)dyn_storage": {
						"base": "t_bytes32",
						"encoding": "dynamic_array",
						"label": "bytes32[]",
						"numberOfBytes": "32"
					},
					"t_array(t_string_storage)dyn_storage": {
						"base": "t_string_storage",
						"encoding": "dynamic_array",
						"label": "string[]",
						"numberOfBytes": "32"
					},
					"t_bytes32": {
						"encoding": "inplace",
						"label": "bytes32",
						"numberOfBytes": "32"
					},
					"t_mapping(t_string_memory_ptr,t_bytes32)": {
						"encoding": "mapping",
						"key": "t_string_memory_ptr",
						"label": "mapping(string => bytes32)",
						"numberOfBytes": "32",
						"value": "t_bytes32"
					},
					"t_mapping(t_string_memory_ptr,t_uint256)": {
						"encoding": "mapping",
						"key": "t_string_memory_ptr",
						"label": "mapping(string => uint256)",
						"numberOfBytes": "32",
						"value": "t_uint256"
					},
					"t_string_memory_ptr": {
						"encoding": "bytes",
						"label": "string",
						"numberOfBytes": "32"
					},
					"t_string_storage": {
						"encoding": "bytes",
						"label": "string",
						"numberOfBytes": "32"
					},
					"t_uint256": {
						"encoding": "inplace",
						"label": "uint256",
						"numberOfBytes": "32"
					}
				}
			},
			"userdoc": {
				"kind": "user",
				"methods": {},
				"version": 1
			}
		}
	}
}