{
	"data": {
		"bytecode": {
			"linkReferences": {},
			"object": "60806040523480156200001157600080fd5b506103e86040516200002390620000d3565b6200002f9190620000f2565b604051809103906000f0801580156200004c573d6000803e3d6000fd5b506000806101000a81548173ffffffffffffffffffffffffffffffffffffffff021916908373ffffffffffffffffffffffffffffffffffffffff16021790555033600160006101000a81548173ffffffffffffffffffffffffffffffffffffffff021916908373ffffffffffffffffffffffffffffffffffffffff1602179055506200012d565b61109d806200266783390190565b620000ec8162000119565b82525050565b6000602082019050620001096000830184620000e1565b92915050565b6000819050919050565b600062000126826200010f565b9050919050565b61252a806200013d6000396000f3fe6080604052600436106100dd5760003560e01c80639a3174a01161007f578063ce8f2f3811610059578063ce8f2f3814610277578063d00df296146102b4578063e33f34a0146102f3578063f77740911461031e576100dd565b80639a3174a0146101fa578063a209415914610225578063a9862fab1461024e576100dd565b80632076b56c116100bb5780632076b56c146101525780636b8f8e151461017b5780637c1b38bf146101a65780638da5cb5b146101cf576100dd565b806312b91846146100e25780631890154c1461010b5780631fccb33c14610127575b600080fd5b3480156100ee57600080fd5b506101096004803603810190610104919061186b565b61033a565b005b61012560048036038101906101209190611900565b6106f7565b005b34801561013357600080fd5b5061013c610843565b60405161014991906120e0565b60405180910390f35b34801561015e57600080fd5b50610179600480360381019061017491906118ac565b6108f0565b005b34801561018757600080fd5b50610190610a81565b60405161019d91906120be565b60405180910390f35b3480156101b257600080fd5b506101cd60048036038101906101c89190611900565b610ba7565b005b3480156101db57600080fd5b506101e4610cc7565b6040516101f19190612043565b60405180910390f35b34801561020657600080fd5b5061020f610ced565b60405161021c91906122d2565b60405180910390f35b34801561023157600080fd5b5061024c6004803603810190610247919061186b565b610d9e565b005b34801561025a57600080fd5b506102756004803603810190610270919061186b565b61101f565b005b34801561028357600080fd5b5061029e60048036038101906102999190611819565b6112a0565b6040516102ab91906122d2565b60405180910390f35b3480156102c057600080fd5b506102db60048036038101906102d6919061186b565b6112be565b6040516102ea93929190612132565b60405180910390f35b3480156102ff57600080fd5b506103086113a3565b60405161031591906122d2565b60405180910390f35b61033860048036038101906103339190611900565b611454565b005b60008060005b6004805490508110156106b1578360405160200161035e9190611fb0565b604051602081830303815290604052805190602001206004828154811061038157fe5b9060005260206000200160405160200161039b9190611ff6565b6040516020818303038152906040528051906020012014156106a457600192506003600482815481106103ca57fe5b906000526020600020016040516103e19190611ff6565b908152602001604051809103902060020160009054906101000a900460ff161561065e57600191506104116113a3565b60036004838154811061042057fe5b906000526020600020016040516104379190611ff6565b908152602001604051809103902060010154111561048a576040517f08c379a0000000000000000000000000000000000000000000000000000000008152600401610481906121b2565b60405180910390fd5b60008054906101000a900473ffffffffffffffffffffffffffffffffffffffff1673ffffffffffffffffffffffffffffffffffffffff1663ef91046033306003600486815481106104d757fe5b906000526020600020016040516104ee9190611ff6565b9081526020016040518091039020600101546040518463ffffffff1660e01b815260040161051e9392919061205e565b602060405180830381600087803b15801561053857600080fd5b505af115801561054c573d6000803e3d6000fd5b505050506040513d601f19601f820116820180604052508101906105709190611842565b50600560003373ffffffffffffffffffffffffffffffffffffffff1673ffffffffffffffffffffffffffffffffffffffff168152602001908152602001600020600482815481106105bd57fe5b9060005260206000200190806001815401808255809150506001900390600052602060002001600090919091909150908054600181600116156101000203166002900461060b92919061164d565b507fc13b0c39e701b0f41dde2e972f3e98e53fa01e6bc45ef606ddc7522a8e354f2d6004828154811061063a57fe5b906000526020600020016040516106519190612170565b60405180910390a161069f565b8161069e576040517f08c379a0000000000000000000000000000000000000000000000000000000008152600401610695906121d2565b60405180910390fd5b5b6106b1565b8080600101915050610340565b50816106f2576040517f08c379a00000000000000000000000000000000000000000000000000000000081526004016106e990612192565b60405180910390fd5b505050565b806107006113a3565b1015610741576040517f08c379a0000000000000000000000000000000000000000000000000000000008152600401610738906121b2565b60405180910390fd5b60008054906101000a900473ffffffffffffffffffffffffffffffffffffffff1673ffffffffffffffffffffffffffffffffffffffff1663ef9104603330846040518463ffffffff1660e01b815260040161079e9392919061205e565b602060405180830381600087803b1580156107b857600080fd5b505af11580156107cc573d6000803e3d6000fd5b505050506040513d601f19601f820116820180604052508101906107f09190611842565b503373ffffffffffffffffffffffffffffffffffffffff166108fc61081483611639565b9081150290604051600060405180830381858888f1935050505015801561083f573d6000803e3d6000fd5b5050565b60608060005b6004805490508110156108e85760036004828154811061086557fe5b9060005260206000200160405161087c9190611ff6565b908152602001604051809103902060020160009054906101000a900460ff16156108db5781600482815481106108ae57fe5b906000526020600020016040516020016108c9929190611fc7565b60405160208183030381529060405291505b8080600101915050610849565b508091505090565b33600160009054906101000a900473ffffffffffffffffffffffffffffffffffffffff1673ffffffffffffffffffffffffffffffffffffffff168173ffffffffffffffffffffffffffffffffffffffff1614610981576040517f08c379a000000000000000000000000000000000000000000000000000000000815260040161097890612272565b60405180910390fd5b6040518060600160405280848152602001838152602001600115158152506003846040516109af9190611fb0565b908152602001604051809103902060008201518160000190805190602001906109d99291906116d4565b506020820151816001015560408201518160020160006101000a81548160ff021916908315150217905550905050600483908060018154018082558091505060019003906000526020600020016000909190919091509080519060200190610a429291906116d4565b507ffc9ecd7a6c2ca96d38526a0b9cc22f2474ff8e596dd348edaab06be905ebe3788383604051610a74929190612102565b60405180910390a1505050565b6060600560003373ffffffffffffffffffffffffffffffffffffffff1673ffffffffffffffffffffffffffffffffffffffff168152602001908152602001600020805480602002602001604051908101604052809291908181526020016000905b82821015610b9e578382906000526020600020018054600181600116156101000203166002900480601f016020809104026020016040519081016040528092919081815260200182805460018160011615610100020316600290048015610b8a5780601f10610b5f57610100808354040283529160200191610b8a565b820191906000526020600020905b815481529060010190602001808311610b6d57829003601f168201915b505050505081526020019060010190610ae2565b50505050905090565b33600160009054906101000a900473ffffffffffffffffffffffffffffffffffffffff1673ffffffffffffffffffffffffffffffffffffffff168173ffffffffffffffffffffffffffffffffffffffff1614610c38576040517f08c379a0000000000000000000000000000000000000000000000000000000008152600401610c2f90612272565b60405180910390fd5b60008054906101000a900473ffffffffffffffffffffffffffffffffffffffff1673ffffffffffffffffffffffffffffffffffffffff16631d43cc98836040518263ffffffff1660e01b8152600401610c9191906122d2565b600060405180830381600087803b158015610cab57600080fd5b505af1158015610cbf573d6000803e3d6000fd5b505050505050565b600160009054906101000a900473ffffffffffffffffffffffffffffffffffffffff1681565b60008060009054906101000a900473ffffffffffffffffffffffffffffffffffffffff1673ffffffffffffffffffffffffffffffffffffffff166370a08231306040518263ffffffff1660e01b8152600401610d49919061200d565b60206040518083038186803b158015610d6157600080fd5b505afa158015610d75573d6000803e3d6000fd5b505050506040513d601f19601f82011682018060405250810190610d999190611929565b905090565b33600160009054906101000a900473ffffffffffffffffffffffffffffffffffffffff1673ffffffffffffffffffffffffffffffffffffffff168173ffffffffffffffffffffffffffffffffffffffff1614610e2f576040517f08c379a0000000000000000000000000000000000000000000000000000000008152600401610e2690612272565b60405180910390fd5b6000805b600480549050811015610fa25783604051602001610e519190611fb0565b6040516020818303038152906040528051906020012060048281548110610e7457fe5b90600052602060002001604051602001610e8e9190611ff6565b604051602081830303815290604052805190602001201415610f955760019150600384604051610ebe9190611fb0565b908152602001604051809103902060020160009054906101000a900460ff1615610f21576000600385604051610ef49190611fb0565b908152602001604051809103902060020160006101000a81548160ff021916908315150217905550610f90565b600384604051610f319190611fb0565b908152602001604051809103902060020160009054906101000a900460ff16610f8f576040517f08c379a0000000000000000000000000000000000000000000000000000000008152600401610f8690612232565b60405180910390fd5b5b610fa2565b8080600101915050610e33565b5080610fe3576040517f08c379a0000000000000000000000000000000000000000000000000000000008152600401610fda90612292565b60405180910390fd5b7f24ba6c881728980191398db8dcfd8ed4f6aeb1c08df349d63f3b85075f3e86dd8360405161101291906120e0565b60405180910390a1505050565b33600160009054906101000a900473ffffffffffffffffffffffffffffffffffffffff1673ffffffffffffffffffffffffffffffffffffffff168173ffffffffffffffffffffffffffffffffffffffff16146110b0576040517f08c379a00000000000000000000000000000000000000000000000000000000081526004016110a790612272565b60405180910390fd5b6000805b60048054905081101561122357836040516020016110d29190611fb0565b60405160208183030381529060405280519060200120600482815481106110f557fe5b9060005260206000200160405160200161110f9190611ff6565b604051602081830303815290604052805190602001201415611216576001915060038460405161113f9190611fb0565b908152602001604051809103902060020160009054906101000a900460ff166111a15760016003856040516111749190611fb0565b908152602001604051809103902060020160006101000a81548160ff021916908315150217905550611211565b6003846040516111b19190611fb0565b908152602001604051809103902060020160009054906101000a900460ff1615611210576040517f08c379a000000000000000000000000000000000000000000000000000000000815260040161120790612252565b60405180910390fd5b5b611223565b80806001019150506110b4565b5080611264576040517f08c379a000000000000000000000000000000000000000000000000000000000815260040161125b906122b2565b60405180910390fd5b7f93bf52a97553b4b909dc0c898ca0af225afa4b2926e6d4f002f1470287662fc18360405161129391906120e0565b60405180910390a1505050565b60026020528060005260406000206000915090508060000154905081565b600381805160208101820180518482526020830160208501208183528095505050505050600091509050806000018054600181600116156101000203166002900480601f0160208091040260200160405190810160405280929190818152602001828054600181600116156101000203166002900480156113805780601f1061135557610100808354040283529160200191611380565b820191906000526020600020905b81548152906001019060200180831161136357829003601f168201915b5050505050908060010154908060020160009054906101000a900460ff16905083565b60008060009054906101000a900473ffffffffffffffffffffffffffffffffffffffff1673ffffffffffffffffffffffffffffffffffffffff166370a08231336040518263ffffffff1660e01b81526004016113ff9190612028565b60206040518083038186803b15801561141757600080fd5b505afa15801561142b573d6000803e3d6000fd5b505050506040513d601f19601f8201168201806040525081019061144f9190611929565b905090565b600061145f82611639565b9050803410156114a4576040517f08c379a000000000000000000000000000000000000000000000000000000000815260040161149b906121f2565b60405180910390fd5b816114ad610ced565b10156114ee576040517f08c379a00000000000000000000000000000000000000000000000000000000081526004016114e590612212565b60405180910390fd5b3373ffffffffffffffffffffffffffffffffffffffff166108fc8234039081150290604051600060405180830381858888f19350505050158015611536573d6000803e3d6000fd5b5060008054906101000a900473ffffffffffffffffffffffffffffffffffffffff1673ffffffffffffffffffffffffffffffffffffffff1663a9059cbb33846040518363ffffffff1660e01b8152600401611592929190612095565b602060405180830381600087803b1580156115ac57600080fd5b505af11580156115c0573d6000803e3d6000fd5b505050506040513d601f19601f820116820180604052508101906115e49190611842565b5081600260003373ffffffffffffffffffffffffffffffffffffffff1673ffffffffffffffffffffffffffffffffffffffff168152602001908152602001600020600001600082825401925050819055505050565b6000670de0b6b3a764000082029050919050565b828054600181600116156101000203166002900490600052602060002090601f016020900481019282601f1061168657805485556116c3565b828001600101855582156116c357600052602060002091601f016020900482015b828111156116c25782548255916001019190600101906116a7565b5b5090506116d09190611754565b5090565b828054600181600116156101000203166002900490600052602060002090601f016020900481019282601f1061171557805160ff1916838001178555611743565b82800160010185558215611743579182015b82811115611742578251825591602001919060010190611727565b5b5090506117509190611754565b5090565b5b8082111561176d576000816000905550600101611755565b5090565b600081359050611780816124af565b92915050565b600081519050611795816124c6565b92915050565b600082601f8301126117ac57600080fd5b81356117bf6117ba8261231a565b6122ed565b915080825260208301602083018583830111156117db57600080fd5b6117e683828461245c565b50505092915050565b6000813590506117fe816124dd565b92915050565b600081519050611813816124dd565b92915050565b60006020828403121561182b57600080fd5b600061183984828501611771565b91505092915050565b60006020828403121561185457600080fd5b600061186284828501611786565b91505092915050565b60006020828403121561187d57600080fd5b600082013567ffffffffffffffff81111561189757600080fd5b6118a38482850161179b565b91505092915050565b600080604083850312156118bf57600080fd5b600083013567ffffffffffffffff8111156118d957600080fd5b6118e58582860161179b565b92505060206118f6858286016117ef565b9150509250929050565b60006020828403121561191257600080fd5b6000611920848285016117ef565b91505092915050565b60006020828403121561193b57600080fd5b600061194984828501611804565b91505092915050565b600061195e8383611a17565b905092915050565b61196f81612426565b82525050565b61197e816123de565b82525050565b61198d816123cc565b82525050565b600061199e8261236b565b6119a8818561238e565b9350836020820285016119ba85612346565b8060005b858110156119f657848403895281516119d78582611952565b94506119e283612381565b925060208a019950506001810190506119be565b50829750879550505050505092915050565b611a11816123f0565b82525050565b6000611a2282612376565b611a2c818561239f565b9350611a3c81856020860161246b565b611a458161249e565b840191505092915050565b6000611a5b82612376565b611a6581856123b0565b9350611a7581856020860161246b565b611a7e8161249e565b840191505092915050565b6000611a9482612376565b611a9e81856123c1565b9350611aae81856020860161246b565b80840191505092915050565b600081546001811660008114611ad75760018114611afd57611b41565b607f6002830416611ae881876123b0565b955060ff198316865260208601935050611b41565b60028204611b0b81876123b0565b9550611b1685612356565b60005b82811015611b3857815481890152600182019150602081019050611b19565b80880195505050505b505092915050565b600081546001811660008114611b665760018114611b8b57611bcf565b607f6002830416611b7781876123c1565b955060ff1983168652808601935050611bcf565b60028204611b9981876123c1565b9550611ba485612356565b60005b82811015611bc657815481890152600182019150602081019050611ba7565b82880195505050505b505092915050565b6000611be46023836123b0565b91507f4c6120617472616363696f6e20656e20637565737469c3b36e206e6f2065786960008301527f73746500000000000000000000000000000000000000000000000000000000006020830152604082019050919050565b6000611c4a6003836123c1565b91507f207c2000000000000000000000000000000000000000000000000000000000006000830152600382019050919050565b6000611c8a6014836123b0565b91507f546f6b656e7320696e737566696369656e7465730000000000000000000000006000830152602082019050919050565b6000611cca6033836123b0565b91507f4c6120617472616363696f6e20656e206375657374696f6e206e6f207365206560008301527f6e6375656e74726120646973706f6e69626c65000000000000000000000000006020830152604082019050919050565b6000611d30601e836123b0565b91507f43616e746964616420646520657468657220696e737566696369656e746500006000830152602082019050919050565b6000611d706020836123b0565b91507f43616e746964616420646520746f6b656e7320696e737566696369656e7465736000830152602082019050919050565b6000611db0603b836123b0565b91507f4e6f207365207075656465206461722064652062616a61206120756e6120617460008301527f72616363696f6e2071756520796120657374612064652062616a6100000000006020830152604082019050919050565b6000611e166040836123b0565b91507f4e6f2073652070756564652064617220646520616c7461206120756e6120617460008301527f72616363696f6e207175652079612065737461206461646120646520616c74616020830152604082019050919050565b6000611e7c602c836123b0565b91507f4e6f207469656e6573207065726d69736f207061726120656a6563757461722060008301527f657374612061636369c3b36e00000000000000000000000000000000000000006020830152604082019050919050565b6000611ee26035836123b0565b91507f4e6f207365207075656465206461722064652062616a61206120756e6120617460008301527f72616363696f6e20717565206e6f2065786973746100000000000000000000006020830152604082019050919050565b6000611f486035836123b0565b91507f4e6f2073652070756564652064617220646520616c7461206120756e6120617460008301527f72616363696f6e20717565206e6f2065786973746100000000000000000000006020830152604082019050919050565b611faa8161241c565b82525050565b6000611fbc8284611a89565b915081905092915050565b6000611fd38285611a89565b9150611fde82611c3d565b9150611fea8284611b49565b91508190509392505050565b60006120028284611b49565b915081905092915050565b60006020820190506120226000830184611984565b92915050565b600060208201905061203d6000830184611966565b92915050565b60006020820190506120586000830184611975565b92915050565b60006060820190506120736000830186611966565b6120806020830185611984565b61208d6040830184611fa1565b949350505050565b60006040820190506120aa6000830185611966565b6120b76020830184611fa1565b9392505050565b600060208201905081810360008301526120d88184611993565b905092915050565b600060208201905081810360008301526120fa8184611a50565b905092915050565b6000604082019050818103600083015261211c8185611a50565b905061212b6020830184611fa1565b9392505050565b6000606082019050818103600083015261214c8186611a50565b905061215b6020830185611fa1565b6121686040830184611a08565b949350505050565b6000602082019050818103600083015261218a8184611aba565b905092915050565b600060208201905081810360008301526121ab81611bd7565b9050919050565b600060208201905081810360008301526121cb81611c7d565b9050919050565b600060208201905081810360008301526121eb81611cbd565b9050919050565b6000602082019050818103600083015261220b81611d23565b9050919050565b6000602082019050818103600083015261222b81611d63565b9050919050565b6000602082019050818103600083015261224b81611da3565b9050919050565b6000602082019050818103600083015261226b81611e09565b9050919050565b6000602082019050818103600083015261228b81611e6f565b9050919050565b600060208201905081810360008301526122ab81611ed5565b9050919050565b600060208201905081810360008301526122cb81611f3b565b9050919050565b60006020820190506122e76000830184611fa1565b92915050565b6000604051905081810181811067ffffffffffffffff8211171561231057600080fd5b8060405250919050565b600067ffffffffffffffff82111561233157600080fd5b601f19601f8301169050602081019050919050565b6000819050602082019050919050565b60008190508160005260206000209050919050565b600081519050919050565b600081519050919050565b6000602082019050919050565b600082825260208201905092915050565b600082825260208201905092915050565b600082825260208201905092915050565b600081905092915050565b60006123d7826123fc565b9050919050565b60006123e9826123fc565b9050919050565b60008115159050919050565b600073ffffffffffffffffffffffffffffffffffffffff82169050919050565b6000819050919050565b600061243182612438565b9050919050565b60006124438261244a565b9050919050565b6000612455826123fc565b9050919050565b82818337600083830152505050565b60005b8381101561248957808201518184015260208101905061246e565b83811115612498576000848401525b50505050565b6000601f19601f8301169050919050565b6124b8816123cc565b81146124c357600080fd5b50565b6124cf816123f0565b81146124da57600080fd5b50565b6124e68161241c565b81146124f157600080fd5b5056fea26469706673582212208ce723e11c5dc9e44ca47520097cc2c8de241c64e6067e896c40b31066fef03a64736f6c634300060c0033608060405234801561001057600080fd5b5060405161109d38038061109d83398181016040528101906100329190610099565b806002819055506002546000803373ffffffffffffffffffffffffffffffffffffffff1673ffffffffffffffffffffffffffffffffffffffff16815260200190815260200160002081905550506100e3565b600081519050610093816100cc565b92915050565b6000602082840312156100ab57600080fd5b60006100b984828501610084565b91505092915050565b6000819050919050565b6100d5816100c2565b81146100e057600080fd5b50565b610fab806100f26000396000f3fe608060405234801561001057600080fd5b50600436106100a95760003560e01c8063313ce56711610071578063313ce5671461016657806370a082311461018457806395d89b41146101b4578063a9059cbb146101d2578063dd62ed3e14610202578063ef91046014610232576100a9565b806306fdde03146100ae578063095ea7b3146100cc57806318160ddd146100fc5780631d43cc981461011a57806323b872dd14610136575b600080fd5b6100b6610262565b6040516100c39190610e3a565b60405180910390f35b6100e660048036038101906100e19190610d54565b61029b565b6040516100f39190610e1f565b60405180910390f35b61010461038d565b6040516101119190610e5c565b60405180910390f35b610134600480360381019061012f9190610d90565b610397565b005b610150600480360381019061014b9190610d05565b6103f6565b60405161015d9190610e1f565b60405180910390f35b61016e610771565b60405161017b9190610e77565b60405180910390f35b61019e60048036038101906101999190610ca0565b610776565b6040516101ab9190610e5c565b60405180910390f35b6101bc6107be565b6040516101c99190610e3a565b60405180910390f35b6101ec60048036038101906101e79190610d54565b6107f7565b6040516101f99190610e1f565b60405180910390f35b61021c60048036038101906102179190610cc9565b6109d9565b6040516102299190610e5c565b60405180910390f35b61024c60048036038101906102479190610d05565b610a60565b6040516102599190610e1f565b60405180910390f35b6040518060400160405280600c81526020017f4552433230414b414c75676f000000000000000000000000000000000000000081525081565b600081600160003373ffffffffffffffffffffffffffffffffffffffff1673ffffffffffffffffffffffffffffffffffffffff16815260200190815260200160002060008573ffffffffffffffffffffffffffffffffffffffff1673ffffffffffffffffffffffffffffffffffffffff168152602001908152602001600020819055508273ffffffffffffffffffffffffffffffffffffffff163373ffffffffffffffffffffffffffffffffffffffff167f8c5be1e5ebec7d5bd14f71427d1e84f3dd0314c0f7b2291e5b200ac8c7c3b9258460405161037b9190610e5c565b60405180910390a36001905092915050565b6000600254905090565b80600260008282540192505081905550806000803373ffffffffffffffffffffffffffffffffffffffff1673ffffffffffffffffffffffffffffffffffffffff1681526020019081526020016000206000828254019250508190555050565b6000816000808673ffffffffffffffffffffffffffffffffffffffff1673ffffffffffffffffffffffffffffffffffffffff16815260200190815260200160002054101561044357600080fd5b81600160008673ffffffffffffffffffffffffffffffffffffffff1673ffffffffffffffffffffffffffffffffffffffff16815260200190815260200160002060003373ffffffffffffffffffffffffffffffffffffffff1673ffffffffffffffffffffffffffffffffffffffff1681526020019081526020016000205410156104cc57600080fd5b61051d826000808773ffffffffffffffffffffffffffffffffffffffff1673ffffffffffffffffffffffffffffffffffffffff16815260200190815260200160002054610c4390919063ffffffff16565b6000808673ffffffffffffffffffffffffffffffffffffffff1673ffffffffffffffffffffffffffffffffffffffff168152602001908152602001600020819055506105ee82600160008773ffffffffffffffffffffffffffffffffffffffff1673ffffffffffffffffffffffffffffffffffffffff16815260200190815260200160002060003373ffffffffffffffffffffffffffffffffffffffff1673ffffffffffffffffffffffffffffffffffffffff16815260200190815260200160002054610c4390919063ffffffff16565b600160008673ffffffffffffffffffffffffffffffffffffffff1673ffffffffffffffffffffffffffffffffffffffff16815260200190815260200160002060003373ffffffffffffffffffffffffffffffffffffffff1673ffffffffffffffffffffffffffffffffffffffff168152602001908152602001600020819055506106bf826000808673ffffffffffffffffffffffffffffffffffffffff1673ffffffffffffffffffffffffffffffffffffffff16815260200190815260200160002054610c5a90919063ffffffff16565b6000808573ffffffffffffffffffffffffffffffffffffffff1673ffffffffffffffffffffffffffffffffffffffff168152602001908152602001600020819055508273ffffffffffffffffffffffffffffffffffffffff168473ffffffffffffffffffffffffffffffffffffffff167fddf252ad1be2c89b69c2b068fc378daa952ba7f163c4a11628f55a4df523b3ef8460405161075e9190610e5c565b60405180910390a3600190509392505050565b601281565b60008060008373ffffffffffffffffffffffffffffffffffffffff1673ffffffffffffffffffffffffffffffffffffffff168152602001908152602001600020549050919050565b6040518060400160405280600381526020017f414b41000000000000000000000000000000000000000000000000000000000081525081565b60008060003373ffffffffffffffffffffffffffffffffffffffff1673ffffffffffffffffffffffffffffffffffffffff1681526020019081526020016000205482111561084457600080fd5b610895826000803373ffffffffffffffffffffffffffffffffffffffff1673ffffffffffffffffffffffffffffffffffffffff16815260200190815260200160002054610c4390919063ffffffff16565b6000803373ffffffffffffffffffffffffffffffffffffffff1673ffffffffffffffffffffffffffffffffffffffff16815260200190815260200160002081905550610928826000808673ffffffffffffffffffffffffffffffffffffffff1673ffffffffffffffffffffffffffffffffffffffff16815260200190815260200160002054610c5a90919063ffffffff16565b6000808573ffffffffffffffffffffffffffffffffffffffff1673ffffffffffffffffffffffffffffffffffffffff168152602001908152602001600020819055508273ffffffffffffffffffffffffffffffffffffffff163373ffffffffffffffffffffffffffffffffffffffff167fddf252ad1be2c89b69c2b068fc378daa952ba7f163c4a11628f55a4df523b3ef846040516109c79190610e5c565b60405180910390a36001905092915050565b6000600160008473ffffffffffffffffffffffffffffffffffffffff1673ffffffffffffffffffffffffffffffffffffffff16815260200190815260200160002060008373ffffffffffffffffffffffffffffffffffffffff1673ffffffffffffffffffffffffffffffffffffffff16815260200190815260200160002054905092915050565b60008060008573ffffffffffffffffffffffffffffffffffffffff1673ffffffffffffffffffffffffffffffffffffffff16815260200190815260200160002054821115610aad57600080fd5b610afe826000808773ffffffffffffffffffffffffffffffffffffffff1673ffffffffffffffffffffffffffffffffffffffff16815260200190815260200160002054610c4390919063ffffffff16565b6000808673ffffffffffffffffffffffffffffffffffffffff1673ffffffffffffffffffffffffffffffffffffffff16815260200190815260200160002081905550610b91826000808673ffffffffffffffffffffffffffffffffffffffff1673ffffffffffffffffffffffffffffffffffffffff16815260200190815260200160002054610c5a90919063ffffffff16565b6000808573ffffffffffffffffffffffffffffffffffffffff1673ffffffffffffffffffffffffffffffffffffffff168152602001908152602001600020819055508273ffffffffffffffffffffffffffffffffffffffff168473ffffffffffffffffffffffffffffffffffffffff167fddf252ad1be2c89b69c2b068fc378daa952ba7f163c4a11628f55a4df523b3ef84604051610c309190610e5c565b60405180910390a3600190509392505050565b600082821115610c4f57fe5b818303905092915050565b600080828401905083811015610c6c57fe5b8091505092915050565b600081359050610c8581610f47565b92915050565b600081359050610c9a81610f5e565b92915050565b600060208284031215610cb257600080fd5b6000610cc084828501610c76565b91505092915050565b60008060408385031215610cdc57600080fd5b6000610cea85828601610c76565b9250506020610cfb85828601610c76565b9150509250929050565b600080600060608486031215610d1a57600080fd5b6000610d2886828701610c76565b9350506020610d3986828701610c76565b9250506040610d4a86828701610c8b565b9150509250925092565b60008060408385031215610d6757600080fd5b6000610d7585828601610c76565b9250506020610d8685828601610c8b565b9150509250929050565b600060208284031215610da257600080fd5b6000610db084828501610c8b565b91505092915050565b610dc281610ec0565b82525050565b6000610dd382610e92565b610ddd8185610e9d565b9350610ded818560208601610f03565b610df681610f36565b840191505092915050565b610e0a81610eec565b82525050565b610e1981610ef6565b82525050565b6000602082019050610e346000830184610db9565b92915050565b60006020820190508181036000830152610e548184610dc8565b905092915050565b6000602082019050610e716000830184610e01565b92915050565b6000602082019050610e8c6000830184610e10565b92915050565b600081519050919050565b600082825260208201905092915050565b6000610eb982610ecc565b9050919050565b60008115159050919050565b600073ffffffffffffffffffffffffffffffffffffffff82169050919050565b6000819050919050565b600060ff82169050919050565b60005b83811015610f21578082015181840152602081019050610f06565b83811115610f30576000848401525b50505050565b6000601f19601f8301169050919050565b610f5081610eae565b8114610f5b57600080fd5b50565b610f6781610eec565b8114610f7257600080fd5b5056fea2646970667358221220d1e3d3c3f77fad064f586602821a970a7535e4415a8535037271b3c5fe61c0a364736f6c634300060c0033",
			"opcodes": "PUSH1 0x80 PUSH1 0x40 MSTORE CALLVALUE DUP1 ISZERO PUSH3 0x11 JUMPI PUSH1 0x0 DUP1 REVERT JUMPDEST POP PUSH2 0x3E8 PUSH1 0x40 MLOAD PUSH3 0x23 SWAP1 PUSH3 0xD3 JUMP JUMPDEST PUSH3 0x2F SWAP2 SWAP1 PUSH3 0xF2 JUMP JUMPDEST PUSH1 0x40 MLOAD DUP1 SWAP2 SUB SWAP1 PUSH1 0x0 CREATE DUP1 ISZERO DUP1 ISZERO PUSH3 0x4C JUMPI RETURNDATASIZE PUSH1 0x0 DUP1 RETURNDATACOPY RETURNDATASIZE PUSH1 0x0 REVERT JUMPDEST POP PUSH1 0x0 DUP1 PUSH2 0x100 EXP DUP2 SLOAD DUP2 PUSH20 0xFFFFFFFFFFFFFFFFFFFFFFFFFFFFFFFFFFFFFFFF MUL NOT AND SWAP1 DUP4 PUSH20 0xFFFFFFFFFFFFFFFFFFFFFFFFFFFFFFFFFFFFFFFF AND MUL OR SWAP1 SSTORE POP CALLER PUSH1 0x1 PUSH1 0x0 PUSH2 0x100 EXP DUP2 SLOAD DUP2 PUSH20 0xFFFFFFFFFFFFFFFFFFFFFFFFFFFFFFFFFFFFFFFF MUL NOT AND SWAP1 DUP4 PUSH20 0xFFFFFFFFFFFFFFFFFFFFFFFFFFFFFFFFFFFFFFFF AND MUL OR SWAP1 SSTORE POP PUSH3 0x12D JUMP JUMPDEST PUSH2 0x109D DUP1 PUSH3 0x2667 DUP4 CODECOPY ADD SWAP1 JUMP JUMPDEST PUSH3 0xEC DUP2 PUSH3 0x119 JUMP JUMPDEST DUP3 MSTORE POP POP JUMP JUMPDEST PUSH1 0x0 PUSH1 0x20 DUP3 ADD SWAP1 POP PUSH3 0x109 PUSH1 0x0 DUP4 ADD DUP5 PUSH3 0xE1 JUMP JUMPDEST SWAP3 SWAP2 POP POP JUMP JUMPDEST PUSH1 0x0 DUP2 SWAP1 POP SWAP2 SWAP1 POP JUMP JUMPDEST PUSH1 0x0 PUSH3 0x126 DUP3 PUSH3 0x10F JUMP JUMPDEST SWAP1 POP SWAP2 SWAP1 POP JUMP JUMPDEST PUSH2 0x252A DUP1 PUSH3 0x13D PUSH1 0x0 CODECOPY PUSH1 0x0 RETURN INVALID PUSH1 0x80 PUSH1 0x40 MSTORE PUSH1 0x4 CALLDATASIZE LT PUSH2 0xDD JUMPI PUSH1 0x0 CALLDATALOAD PUSH1 0xE0 SHR DUP1 PUSH4 0x9A3174A0 GT PUSH2 0x7F JUMPI DUP1 PUSH4 0xCE8F2F38 GT PUSH2 0x59 JUMPI DUP1 PUSH4 0xCE8F2F38 EQ PUSH2 0x277 JUMPI DUP1 PUSH4 0xD00DF296 EQ PUSH2 0x2B4 JUMPI DUP1 PUSH4 0xE33F34A0 EQ PUSH2 0x2F3 JUMPI DUP1 PUSH4 0xF7774091 EQ PUSH2 0x31E JUMPI PUSH2 0xDD JUMP JUMPDEST DUP1 PUSH4 0x9A3174A0 EQ PUSH2 0x1FA JUMPI DUP1 PUSH4 0xA2094159 EQ PUSH2 0x225 JUMPI DUP1 PUSH4 0xA9862FAB EQ PUSH2 0x24E JUMPI PUSH2 0xDD JUMP JUMPDEST DUP1 PUSH4 0x2076B56C GT PUSH2 0xBB JUMPI DUP1 PUSH4 0x2076B56C EQ PUSH2 0x152 JUMPI DUP1 PUSH4 0x6B8F8E15 EQ PUSH2 0x17B JUMPI DUP1 PUSH4 0x7C1B38BF EQ PUSH2 0x1A6 JUMPI DUP1 PUSH4 0x8DA5CB5B EQ PUSH2 0x1CF JUMPI PUSH2 0xDD JUMP JUMPDEST DUP1 PUSH4 0x12B91846 EQ PUSH2 0xE2 JUMPI DUP1 PUSH4 0x1890154C EQ PUSH2 0x10B JUMPI DUP1 PUSH4 0x1FCCB33C EQ PUSH2 0x127 JUMPI JUMPDEST PUSH1 0x0 DUP1 REVERT JUMPDEST CALLVALUE DUP1 ISZERO PUSH2 0xEE JUMPI PUSH1 0x0 DUP1 REVERT JUMPDEST POP PUSH2 0x109 PUSH1 0x4 DUP1 CALLDATASIZE SUB DUP2 ADD SWAP1 PUSH2 0x104 SWAP2 SWAP1 PUSH2 0x186B JUMP JUMPDEST PUSH2 0x33A JUMP JUMPDEST STOP JUMPDEST PUSH2 0x125 PUSH1 0x4 DUP1 CALLDATASIZE SUB DUP2 ADD SWAP1 PUSH2 0x120 SWAP2 SWAP1 PUSH2 0x1900 JUMP JUMPDEST PUSH2 0x6F7 JUMP JUMPDEST STOP JUMPDEST CALLVALUE DUP1 ISZERO PUSH2 0x133 JUMPI PUSH1 0x0 DUP1 REVERT JUMPDEST POP PUSH2 0x13C PUSH2 0x843 JUMP JUMPDEST PUSH1 0x40 MLOAD PUSH2 0x149 SWAP2 SWAP1 PUSH2 0x20E0 JUMP JUMPDEST PUSH1 0x40 MLOAD DUP1 SWAP2 SUB SWAP1 RETURN JUMPDEST CALLVALUE DUP1 ISZERO PUSH2 0x15E JUMPI PUSH1 0x0 DUP1 REVERT JUMPDEST POP PUSH2 0x179 PUSH1 0x4 DUP1 CALLDATASIZE SUB DUP2 ADD SWAP1 PUSH2 0x174 SWAP2 SWAP1 PUSH2 0x18AC JUMP JUMPDEST PUSH2 0x8F0 JUMP JUMPDEST STOP JUMPDEST CALLVALUE DUP1 ISZERO PUSH2 0x187 JUMPI PUSH1 0x0 DUP1 REVERT JUMPDEST POP PUSH2 0x190 PUSH2 0xA81 JUMP JUMPDEST PUSH1 0x40 MLOAD PUSH2 0x19D SWAP2 SWAP1 PUSH2 0x20BE JUMP JUMPDEST PUSH1 0x40 MLOAD DUP1 SWAP2 SUB SWAP1 RETURN JUMPDEST CALLVALUE DUP1 ISZERO PUSH2 0x1B2 JUMPI PUSH1 0x0 DUP1 REVERT JUMPDEST POP PUSH2 0x1CD PUSH1 0x4 DUP1 CALLDATASIZE SUB DUP2 ADD SWAP1 PUSH2 0x1C8 SWAP2 SWAP1 PUSH2 0x1900 JUMP JUMPDEST PUSH2 0xBA7 JUMP JUMPDEST STOP JUMPDEST CALLVALUE DUP1 ISZERO PUSH2 0x1DB JUMPI PUSH1 0x0 DUP1 REVERT JUMPDEST POP PUSH2 0x1E4 PUSH2 0xCC7 JUMP JUMPDEST PUSH1 0x40 MLOAD PUSH2 0x1F1 SWAP2 SWAP1 PUSH2 0x2043 JUMP JUMPDEST PUSH1 0x40 MLOAD DUP1 SWAP2 SUB SWAP1 RETURN JUMPDEST CALLVALUE DUP1 ISZERO PUSH2 0x206 JUMPI PUSH1 0x0 DUP1 REVERT JUMPDEST POP PUSH2 0x20F PUSH2 0xCED JUMP JUMPDEST PUSH1 0x40 MLOAD PUSH2 0x21C SWAP2 SWAP1 PUSH2 0x22D2 JUMP JUMPDEST PUSH1 0x40 MLOAD DUP1 SWAP2 SUB SWAP1 RETURN JUMPDEST CALLVALUE DUP1 ISZERO PUSH2 0x231 JUMPI PUSH1 0x0 DUP1 REVERT JUMPDEST POP PUSH2 0x24C PUSH1 0x4 DUP1 CALLDATASIZE SUB DUP2 ADD SWAP1 PUSH2 0x247 SWAP2 SWAP1 PUSH2 0x186B JUMP JUMPDEST PUSH2 0xD9E JUMP JUMPDEST STOP JUMPDEST CALLVALUE DUP1 ISZERO PUSH2 0x25A JUMPI PUSH1 0x0 DUP1 REVERT JUMPDEST POP PUSH2 0x275 PUSH1 0x4 DUP1 CALLDATASIZE SUB DUP2 ADD SWAP1 PUSH2 0x270 SWAP2 SWAP1 PUSH2 0x186B JUMP JUMPDEST PUSH2 0x101F JUMP JUMPDEST STOP JUMPDEST CALLVALUE DUP1 ISZERO PUSH2 0x283 JUMPI PUSH1 0x0 DUP1 REVERT JUMPDEST POP PUSH2 0x29E PUSH1 0x4 DUP1 CALLDATASIZE SUB DUP2 ADD SWAP1 PUSH2 0x299 SWAP2 SWAP1 PUSH2 0x1819 JUMP JUMPDEST PUSH2 0x12A0 JUMP JUMPDEST PUSH1 0x40 MLOAD PUSH2 0x2AB SWAP2 SWAP1 PUSH2 0x22D2 JUMP JUMPDEST PUSH1 0x40 MLOAD DUP1 SWAP2 SUB SWAP1 RETURN JUMPDEST CALLVALUE DUP1 ISZERO PUSH2 0x2C0 JUMPI PUSH1 0x0 DUP1 REVERT JUMPDEST POP PUSH2 0x2DB PUSH1 0x4 DUP1 CALLDATASIZE SUB DUP2 ADD SWAP1 PUSH2 0x2D6 SWAP2 SWAP1 PUSH2 0x186B JUMP JUMPDEST PUSH2 0x12BE JUMP JUMPDEST PUSH1 0x40 MLOAD PUSH2 0x2EA SWAP4 SWAP3 SWAP2 SWAP1 PUSH2 0x2132 JUMP JUMPDEST PUSH1 0x40 MLOAD DUP1 SWAP2 SUB SWAP1 RETURN JUMPDEST CALLVALUE DUP1 ISZERO PUSH2 0x2FF JUMPI PUSH1 0x0 DUP1 REVERT JUMPDEST POP PUSH2 0x308 PUSH2 0x13A3 JUMP JUMPDEST PUSH1 0x40 MLOAD PUSH2 0x315 SWAP2 SWAP1 PUSH2 0x22D2 JUMP JUMPDEST PUSH1 0x40 MLOAD DUP1 SWAP2 SUB SWAP1 RETURN JUMPDEST PUSH2 0x338 PUSH1 0x4 DUP1 CALLDATASIZE SUB DUP2 ADD SWAP1 PUSH2 0x333 SWAP2 SWAP1 PUSH2 0x1900 JUMP JUMPDEST PUSH2 0x1454 JUMP JUMPDEST STOP JUMPDEST PUSH1 0x0 DUP1 PUSH1 0x0 JUMPDEST PUSH1 0x4 DUP1 SLOAD SWAP1 POP DUP2 LT ISZERO PUSH2 0x6B1 JUMPI DUP4 PUSH1 0x40 MLOAD PUSH1 0x20 ADD PUSH2 0x35E SWAP2 SWAP1 PUSH2 0x1FB0 JUMP JUMPDEST PUSH1 0x40 MLOAD PUSH1 0x20 DUP2 DUP4 SUB SUB DUP2 MSTORE SWAP1 PUSH1 0x40 MSTORE DUP1 MLOAD SWAP1 PUSH1 0x20 ADD KECCAK256 PUSH1 0x4 DUP3 DUP2 SLOAD DUP2 LT PUSH2 0x381 JUMPI INVALID JUMPDEST SWAP1 PUSH1 0x0 MSTORE PUSH1 0x20 PUSH1 0x0 KECCAK256 ADD PUSH1 0x40 MLOAD PUSH1 0x20 ADD PUSH2 0x39B SWAP2 SWAP1 PUSH2 0x1FF6 JUMP JUMPDEST PUSH1 0x40 MLOAD PUSH1 0x20 DUP2 DUP4 SUB SUB DUP2 MSTORE SWAP1 PUSH1 0x40 MSTORE DUP1 MLOAD SWAP1 PUSH1 0x20 ADD KECCAK256 EQ ISZERO PUSH2 0x6A4 JUMPI PUSH1 0x1 SWAP3 POP PUSH1 0x3 PUSH1 0x4 DUP3 DUP2 SLOAD DUP2 LT PUSH2 0x3CA JUMPI INVALID JUMPDEST SWAP1 PUSH1 0x0 MSTORE PUSH1 0x20 PUSH1 0x0 KECCAK256 ADD PUSH1 0x40 MLOAD PUSH2 0x3E1 SWAP2 SWAP1 PUSH2 0x1FF6 JUMP JUMPDEST SWAP1 DUP2 MSTORE PUSH1 0x20 ADD PUSH1 0x40 MLOAD DUP1 SWAP2 SUB SWAP1 KECCAK256 PUSH1 0x2 ADD PUSH1 0x0 SWAP1 SLOAD SWAP1 PUSH2 0x100 EXP SWAP1 DIV PUSH1 0xFF AND ISZERO PUSH2 0x65E JUMPI PUSH1 0x1 SWAP2 POP PUSH2 0x411 PUSH2 0x13A3 JUMP JUMPDEST PUSH1 0x3 PUSH1 0x4 DUP4 DUP2 SLOAD DUP2 LT PUSH2 0x420 JUMPI INVALID JUMPDEST SWAP1 PUSH1 0x0 MSTORE PUSH1 0x20 PUSH1 0x0 KECCAK256 ADD PUSH1 0x40 MLOAD PUSH2 0x437 SWAP2 SWAP1 PUSH2 0x1FF6 JUMP JUMPDEST SWAP1 DUP2 MSTORE PUSH1 0x20 ADD PUSH1 0x40 MLOAD DUP1 SWAP2 SUB SWAP1 KECCAK256 PUSH1 0x1 ADD SLOAD GT ISZERO PUSH2 0x48A JUMPI PUSH1 0x40 MLOAD PUSH32 0x8C379A000000000000000000000000000000000000000000000000000000000 DUP2 MSTORE PUSH1 0x4 ADD PUSH2 0x481 SWAP1 PUSH2 0x21B2 JUMP JUMPDEST PUSH1 0x40 MLOAD DUP1 SWAP2 SUB SWAP1 REVERT JUMPDEST PUSH1 0x0 DUP1 SLOAD SWAP1 PUSH2 0x100 EXP SWAP1 DIV PUSH20 0xFFFFFFFFFFFFFFFFFFFFFFFFFFFFFFFFFFFFFFFF AND PUSH20 0xFFFFFFFFFFFFFFFFFFFFFFFFFFFFFFFFFFFFFFFF AND PUSH4 0xEF910460 CALLER ADDRESS PUSH1 0x3 PUSH1 0x4 DUP7 DUP2 SLOAD DUP2 LT PUSH2 0x4D7 JUMPI INVALID JUMPDEST SWAP1 PUSH1 0x0 MSTORE PUSH1 0x20 PUSH1 0x0 KECCAK256 ADD PUSH1 0x40 MLOAD PUSH2 0x4EE SWAP2 SWAP1 PUSH2 0x1FF6 JUMP JUMPDEST SWAP1 DUP2 MSTORE PUSH1 0x20 ADD PUSH1 0x40 MLOAD DUP1 SWAP2 SUB SWAP1 KECCAK256 PUSH1 0x1 ADD SLOAD PUSH1 0x40 MLOAD DUP5 PUSH4 0xFFFFFFFF AND PUSH1 0xE0 SHL DUP2 MSTORE PUSH1 0x4 ADD PUSH2 0x51E SWAP4 SWAP3 SWAP2 SWAP1 PUSH2 0x205E JUMP JUMPDEST PUSH1 0x20 PUSH1 0x40 MLOAD DUP1 DUP4 SUB DUP2 PUSH1 0x0 DUP8 DUP1 EXTCODESIZE ISZERO DUP1 ISZERO PUSH2 0x538 JUMPI PUSH1 0x0 DUP1 REVERT JUMPDEST POP GAS CALL ISZERO DUP1 ISZERO PUSH2 0x54C JUMPI RETURNDATASIZE PUSH1 0x0 DUP1 RETURNDATACOPY RETURNDATASIZE PUSH1 0x0 REVERT JUMPDEST POP POP POP POP PUSH1 0x40 MLOAD RETURNDATASIZE PUSH1 0x1F NOT PUSH1 0x1F DUP3 ADD AND DUP3 ADD DUP1 PUSH1 0x40 MSTORE POP DUP2 ADD SWAP1 PUSH2 0x570 SWAP2 SWAP1 PUSH2 0x1842 JUMP JUMPDEST POP PUSH1 0x5 PUSH1 0x0 CALLER PUSH20 0xFFFFFFFFFFFFFFFFFFFFFFFFFFFFFFFFFFFFFFFF AND PUSH20 0xFFFFFFFFFFFFFFFFFFFFFFFFFFFFFFFFFFFFFFFF AND DUP2 MSTORE PUSH1 0x20 ADD SWAP1 DUP2 MSTORE PUSH1 0x20 ADD PUSH1 0x0 KECCAK256 PUSH1 0x4 DUP3 DUP2 SLOAD DUP2 LT PUSH2 0x5BD JUMPI INVALID JUMPDEST SWAP1 PUSH1 0x0 MSTORE PUSH1 0x20 PUSH1 0x0 KECCAK256 ADD SWAP1 DUP1 PUSH1 0x1 DUP2 SLOAD ADD DUP1 DUP3 SSTORE DUP1 SWAP2 POP POP PUSH1 0x1 SWAP1 SUB SWAP1 PUSH1 0x0 MSTORE PUSH1 0x20 PUSH1 0x0 KECCAK256 ADD PUSH1 0x0 SWAP1 SWAP2 SWAP1 SWAP2 SWAP1 SWAP2 POP SWAP1 DUP1 SLOAD PUSH1 0x1 DUP2 PUSH1 0x1 AND ISZERO PUSH2 0x100 MUL SUB AND PUSH1 0x2 SWAP1 DIV PUSH2 0x60B SWAP3 SWAP2 SWAP1 PUSH2 0x164D JUMP JUMPDEST POP PUSH32 0xC13B0C39E701B0F41DDE2E972F3E98E53FA01E6BC45EF606DDC7522A8E354F2D PUSH1 0x4 DUP3 DUP2 SLOAD DUP2 LT PUSH2 0x63A JUMPI INVALID JUMPDEST SWAP1 PUSH1 0x0 MSTORE PUSH1 0x20 PUSH1 0x0 KECCAK256 ADD PUSH1 0x40 MLOAD PUSH2 0x651 SWAP2 SWAP1 PUSH2 0x2170 JUMP JUMPDEST PUSH1 0x40 MLOAD DUP1 SWAP2 SUB SWAP1 LOG1 PUSH2 0x69F JUMP JUMPDEST DUP2 PUSH2 0x69E JUMPI PUSH1 0x40 MLOAD PUSH32 0x8C379A000000000000000000000000000000000000000000000000000000000 DUP2 MSTORE PUSH1 0x4 ADD PUSH2 0x695 SWAP1 PUSH2 0x21D2 JUMP JUMPDEST PUSH1 0x40 MLOAD DUP1 SWAP2 SUB SWAP1 REVERT JUMPDEST JUMPDEST PUSH2 0x6B1 JUMP JUMPDEST DUP1 DUP1 PUSH1 0x1 ADD SWAP2 POP POP PUSH2 0x340 JUMP JUMPDEST POP DUP2 PUSH2 0x6F2 JUMPI PUSH1 0x40 MLOAD PUSH32 0x8C379A000000000000000000000000000000000000000000000000000000000 DUP2 MSTORE PUSH1 0x4 ADD PUSH2 0x6E9 SWAP1 PUSH2 0x2192 JUMP JUMPDEST PUSH1 0x40 MLOAD DUP1 SWAP2 SUB SWAP1 REVERT JUMPDEST POP POP POP JUMP JUMPDEST DUP1 PUSH2 0x700 PUSH2 0x13A3 JUMP JUMPDEST LT ISZERO PUSH2 0x741 JUMPI PUSH1 0x40 MLOAD PUSH32 0x8C379A000000000000000000000000000000000000000000000000000000000 DUP2 MSTORE PUSH1 0x4 ADD PUSH2 0x738 SWAP1 PUSH2 0x21B2 JUMP JUMPDEST PUSH1 0x40 MLOAD DUP1 SWAP2 SUB SWAP1 REVERT JUMPDEST PUSH1 0x0 DUP1 SLOAD SWAP1 PUSH2 0x100 EXP SWAP1 DIV PUSH20 0xFFFFFFFFFFFFFFFFFFFFFFFFFFFFFFFFFFFFFFFF AND PUSH20 0xFFFFFFFFFFFFFFFFFFFFFFFFFFFFFFFFFFFFFFFF AND PUSH4 0xEF910460 CALLER ADDRESS DUP5 PUSH1 0x40 MLOAD DUP5 PUSH4 0xFFFFFFFF AND PUSH1 0xE0 SHL DUP2 MSTORE PUSH1 0x4 ADD PUSH2 0x79E SWAP4 SWAP3 SWAP2 SWAP1 PUSH2 0x205E JUMP JUMPDEST PUSH1 0x20 PUSH1 0x40 MLOAD DUP1 DUP4 SUB DUP2 PUSH1 0x0 DUP8 DUP1 EXTCODESIZE ISZERO DUP1 ISZERO PUSH2 0x7B8 JUMPI PUSH1 0x0 DUP1 REVERT JUMPDEST POP GAS CALL ISZERO DUP1 ISZERO PUSH2 0x7CC JUMPI RETURNDATASIZE PUSH1 0x0 DUP1 RETURNDATACOPY RETURNDATASIZE PUSH1 0x0 REVERT JUMPDEST POP POP POP POP PUSH1 0x40 MLOAD RETURNDATASIZE PUSH1 0x1F NOT PUSH1 0x1F DUP3 ADD AND DUP3 ADD DUP1 PUSH1 0x40 MSTORE POP DUP2 ADD SWAP1 PUSH2 0x7F0 SWAP2 SWAP1 PUSH2 0x1842 JUMP JUMPDEST POP CALLER PUSH20 0xFFFFFFFFFFFFFFFFFFFFFFFFFFFFFFFFFFFFFFFF AND PUSH2 0x8FC PUSH2 0x814 DUP4 PUSH2 0x1639 JUMP JUMPDEST SWAP1 DUP2 ISZERO MUL SWAP1 PUSH1 0x40 MLOAD PUSH1 0x0 PUSH1 0x40 MLOAD DUP1 DUP4 SUB DUP2 DUP6 DUP9 DUP9 CALL SWAP4 POP POP POP POP ISZERO DUP1 ISZERO PUSH2 0x83F JUMPI RETURNDATASIZE PUSH1 0x0 DUP1 RETURNDATACOPY RETURNDATASIZE PUSH1 0x0 REVERT JUMPDEST POP POP JUMP JUMPDEST PUSH1 0x60 DUP1 PUSH1 0x0 JUMPDEST PUSH1 0x4 DUP1 SLOAD SWAP1 POP DUP2 LT ISZERO PUSH2 0x8E8 JUMPI PUSH1 0x3 PUSH1 0x4 DUP3 DUP2 SLOAD DUP2 LT PUSH2 0x865 JUMPI INVALID JUMPDEST SWAP1 PUSH1 0x0 MSTORE PUSH1 0x20 PUSH1 0x0 KECCAK256 ADD PUSH1 0x40 MLOAD PUSH2 0x87C SWAP2 SWAP1 PUSH2 0x1FF6 JUMP JUMPDEST SWAP1 DUP2 MSTORE PUSH1 0x20 ADD PUSH1 0x40 MLOAD DUP1 SWAP2 SUB SWAP1 KECCAK256 PUSH1 0x2 ADD PUSH1 0x0 SWAP1 SLOAD SWAP1 PUSH2 0x100 EXP SWAP1 DIV PUSH1 0xFF AND ISZERO PUSH2 0x8DB JUMPI DUP2 PUSH1 0x4 DUP3 DUP2 SLOAD DUP2 LT PUSH2 0x8AE JUMPI INVALID JUMPDEST SWAP1 PUSH1 0x0 MSTORE PUSH1 0x20 PUSH1 0x0 KECCAK256 ADD PUSH1 0x40 MLOAD PUSH1 0x20 ADD PUSH2 0x8C9 SWAP3 SWAP2 SWAP1 PUSH2 0x1FC7 JUMP JUMPDEST PUSH1 0x40 MLOAD PUSH1 0x20 DUP2 DUP4 SUB SUB DUP2 MSTORE SWAP1 PUSH1 0x40 MSTORE SWAP2 POP JUMPDEST DUP1 DUP1 PUSH1 0x1 ADD SWAP2 POP POP PUSH2 0x849 JUMP JUMPDEST POP DUP1 SWAP2 POP POP SWAP1 JUMP JUMPDEST CALLER PUSH1 0x1 PUSH1 0x0 SWAP1 SLOAD SWAP1 PUSH2 0x100 EXP SWAP1 DIV PUSH20 0xFFFFFFFFFFFFFFFFFFFFFFFFFFFFFFFFFFFFFFFF AND PUSH20 0xFFFFFFFFFFFFFFFFFFFFFFFFFFFFFFFFFFFFFFFF AND DUP2 PUSH20 0xFFFFFFFFFFFFFFFFFFFFFFFFFFFFFFFFFFFFFFFF AND EQ PUSH2 0x981 JUMPI PUSH1 0x40 MLOAD PUSH32 0x8C379A000000000000000000000000000000000000000000000000000000000 DUP2 MSTORE PUSH1 0x4 ADD PUSH2 0x978 SWAP1 PUSH2 0x2272 JUMP JUMPDEST PUSH1 0x40 MLOAD DUP1 SWAP2 SUB SWAP1 REVERT JUMPDEST PUSH1 0x40 MLOAD DUP1 PUSH1 0x60 ADD PUSH1 0x40 MSTORE DUP1 DUP5 DUP2 MSTORE PUSH1 0x20 ADD DUP4 DUP2 MSTORE PUSH1 0x20 ADD PUSH1 0x1 ISZERO ISZERO DUP2 MSTORE POP PUSH1 0x3 DUP5 PUSH1 0x40 MLOAD PUSH2 0x9AF SWAP2 SWAP1 PUSH2 0x1FB0 JUMP JUMPDEST SWAP1 DUP2 MSTORE PUSH1 0x20 ADD PUSH1 0x40 MLOAD DUP1 SWAP2 SUB SWAP1 KECCAK256 PUSH1 0x0 DUP3 ADD MLOAD DUP2 PUSH1 0x0 ADD SWAP1 DUP1 MLOAD SWAP1 PUSH1 0x20 ADD SWAP1 PUSH2 0x9D9 SWAP3 SWAP2 SWAP1 PUSH2 0x16D4 JUMP JUMPDEST POP PUSH1 0x20 DUP3 ADD MLOAD DUP2 PUSH1 0x1 ADD SSTORE PUSH1 0x40 DUP3 ADD MLOAD DUP2 PUSH1 0x2 ADD PUSH1 0x0 PUSH2 0x100 EXP DUP2 SLOAD DUP2 PUSH1 0xFF MUL NOT AND SWAP1 DUP4 ISZERO ISZERO MUL OR SWAP1 SSTORE POP SWAP1 POP POP PUSH1 0x4 DUP4 SWAP1 DUP1 PUSH1 0x1 DUP2 SLOAD ADD DUP1 DUP3 SSTORE DUP1 SWAP2 POP POP PUSH1 0x1 SWAP1 SUB SWAP1 PUSH1 0x0 MSTORE PUSH1 0x20 PUSH1 0x0 KECCAK256 ADD PUSH1 0x0 SWAP1 SWAP2 SWAP1 SWAP2 SWAP1 SWAP2 POP SWAP1 DUP1 MLOAD SWAP1 PUSH1 0x20 ADD SWAP1 PUSH2 0xA42 SWAP3 SWAP2 SWAP1 PUSH2 0x16D4 JUMP JUMPDEST POP PUSH32 0xFC9ECD7A6C2CA96D38526A0B9CC22F2474FF8E596DD348EDAAB06BE905EBE378 DUP4 DUP4 PUSH1 0x40 MLOAD PUSH2 0xA74 SWAP3 SWAP2 SWAP1 PUSH2 0x2102 JUMP JUMPDEST PUSH1 0x40 MLOAD DUP1 SWAP2 SUB SWAP1 LOG1 POP POP POP JUMP JUMPDEST PUSH1 0x60 PUSH1 0x5 PUSH1 0x0 CALLER PUSH20 0xFFFFFFFFFFFFFFFFFFFFFFFFFFFFFFFFFFFFFFFF AND PUSH20 0xFFFFFFFFFFFFFFFFFFFFFFFFFFFFFFFFFFFFFFFF AND DUP2 MSTORE PUSH1 0x20 ADD SWAP1 DUP2 MSTORE PUSH1 0x20 ADD PUSH1 0x0 KECCAK256 DUP1 SLOAD DUP1 PUSH1 0x20 MUL PUSH1 0x20 ADD PUSH1 0x40 MLOAD SWAP1 DUP2 ADD PUSH1 0x40 MSTORE DUP1 SWAP3 SWAP2 SWAP1 DUP2 DUP2 MSTORE PUSH1 0x20 ADD PUSH1 0x0 SWAP1 JUMPDEST DUP3 DUP3 LT ISZERO PUSH2 0xB9E JUMPI DUP4 DUP3 SWAP1 PUSH1 0x0 MSTORE PUSH1 0x20 PUSH1 0x0 KECCAK256 ADD DUP1 SLOAD PUSH1 0x1 DUP2 PUSH1 0x1 AND ISZERO PUSH2 0x100 MUL SUB AND PUSH1 0x2 SWAP1 DIV DUP1 PUSH1 0x1F ADD PUSH1 0x20 DUP1 SWAP2 DIV MUL PUSH1 0x20 ADD PUSH1 0x40 MLOAD SWAP1 DUP2 ADD PUSH1 0x40 MSTORE DUP1 SWAP3 SWAP2 SWAP1 DUP2 DUP2 MSTORE PUSH1 0x20 ADD DUP3 DUP1 SLOAD PUSH1 0x1 DUP2 PUSH1 0x1 AND ISZERO PUSH2 0x100 MUL SUB AND PUSH1 0x2 SWAP1 DIV DUP1 ISZERO PUSH2 0xB8A JUMPI DUP1 PUSH1 0x1F LT PUSH2 0xB5F JUMPI PUSH2 0x100 DUP1 DUP4 SLOAD DIV MUL DUP4 MSTORE SWAP2 PUSH1 0x20 ADD SWAP2 PUSH2 0xB8A JUMP JUMPDEST DUP3 ADD SWAP2 SWAP1 PUSH1 0x0 MSTORE PUSH1 0x20 PUSH1 0x0 KECCAK256 SWAP1 JUMPDEST DUP2 SLOAD DUP2 MSTORE SWAP1 PUSH1 0x1 ADD SWAP1 PUSH1 0x20 ADD DUP1 DUP4 GT PUSH2 0xB6D JUMPI DUP3 SWAP1 SUB PUSH1 0x1F AND DUP3 ADD SWAP2 JUMPDEST POP POP POP POP POP DUP2 MSTORE PUSH1 0x20 ADD SWAP1 PUSH1 0x1 ADD SWAP1 PUSH2 0xAE2 JUMP JUMPDEST POP POP POP POP SWAP1 POP SWAP1 JUMP JUMPDEST CALLER PUSH1 0x1 PUSH1 0x0 SWAP1 SLOAD SWAP1 PUSH2 0x100 EXP SWAP1 DIV PUSH20 0xFFFFFFFFFFFFFFFFFFFFFFFFFFFFFFFFFFFFFFFF AND PUSH20 0xFFFFFFFFFFFFFFFFFFFFFFFFFFFFFFFFFFFFFFFF AND DUP2 PUSH20 0xFFFFFFFFFFFFFFFFFFFFFFFFFFFFFFFFFFFFFFFF AND EQ PUSH2 0xC38 JUMPI PUSH1 0x40 MLOAD PUSH32 0x8C379A000000000000000000000000000000000000000000000000000000000 DUP2 MSTORE PUSH1 0x4 ADD PUSH2 0xC2F SWAP1 PUSH2 0x2272 JUMP JUMPDEST PUSH1 0x40 MLOAD DUP1 SWAP2 SUB SWAP1 REVERT JUMPDEST PUSH1 0x0 DUP1 SLOAD SWAP1 PUSH2 0x100 EXP SWAP1 DIV PUSH20 0xFFFFFFFFFFFFFFFFFFFFFFFFFFFFFFFFFFFFFFFF AND PUSH20 0xFFFFFFFFFFFFFFFFFFFFFFFFFFFFFFFFFFFFFFFF AND PUSH4 0x1D43CC98 DUP4 PUSH1 0x40 MLOAD DUP3 PUSH4 0xFFFFFFFF AND PUSH1 0xE0 SHL DUP2 MSTORE PUSH1 0x4 ADD PUSH2 0xC91 SWAP2 SWAP1 PUSH2 0x22D2 JUMP JUMPDEST PUSH1 0x0 PUSH1 0x40 MLOAD DUP1 DUP4 SUB DUP2 PUSH1 0x0 DUP8 DUP1 EXTCODESIZE ISZERO DUP1 ISZERO PUSH2 0xCAB JUMPI PUSH1 0x0 DUP1 REVERT JUMPDEST POP GAS CALL ISZERO DUP1 ISZERO PUSH2 0xCBF JUMPI RETURNDATASIZE PUSH1 0x0 DUP1 RETURNDATACOPY RETURNDATASIZE PUSH1 0x0 REVERT JUMPDEST POP POP POP POP POP POP JUMP JUMPDEST PUSH1 0x1 PUSH1 0x0 SWAP1 SLOAD SWAP1 PUSH2 0x100 EXP SWAP1 DIV PUSH20 0xFFFFFFFFFFFFFFFFFFFFFFFFFFFFFFFFFFFFFFFF AND DUP2 JUMP JUMPDEST PUSH1 0x0 DUP1 PUSH1 0x0 SWAP1 SLOAD SWAP1 PUSH2 0x100 EXP SWAP1 DIV PUSH20 0xFFFFFFFFFFFFFFFFFFFFFFFFFFFFFFFFFFFFFFFF AND PUSH20 0xFFFFFFFFFFFFFFFFFFFFFFFFFFFFFFFFFFFFFFFF AND PUSH4 0x70A08231 ADDRESS PUSH1 0x40 MLOAD DUP3 PUSH4 0xFFFFFFFF AND PUSH1 0xE0 SHL DUP2 MSTORE PUSH1 0x4 ADD PUSH2 0xD49 SWAP2 SWAP1 PUSH2 0x200D JUMP JUMPDEST PUSH1 0x20 PUSH1 0x40 MLOAD DUP1 DUP4 SUB DUP2 DUP7 DUP1 EXTCODESIZE ISZERO DUP1 ISZERO PUSH2 0xD61 JUMPI PUSH1 0x0 DUP1 REVERT JUMPDEST POP GAS STATICCALL ISZERO DUP1 ISZERO PUSH2 0xD75 JUMPI RETURNDATASIZE PUSH1 0x0 DUP1 RETURNDATACOPY RETURNDATASIZE PUSH1 0x0 REVERT JUMPDEST POP POP POP POP PUSH1 0x40 MLOAD RETURNDATASIZE PUSH1 0x1F NOT PUSH1 0x1F DUP3 ADD AND DUP3 ADD DUP1 PUSH1 0x40 MSTORE POP DUP2 ADD SWAP1 PUSH2 0xD99 SWAP2 SWAP1 PUSH2 0x1929 JUMP JUMPDEST SWAP1 POP SWAP1 JUMP JUMPDEST CALLER PUSH1 0x1 PUSH1 0x0 SWAP1 SLOAD SWAP1 PUSH2 0x100 EXP SWAP1 DIV PUSH20 0xFFFFFFFFFFFFFFFFFFFFFFFFFFFFFFFFFFFFFFFF AND PUSH20 0xFFFFFFFFFFFFFFFFFFFFFFFFFFFFFFFFFFFFFFFF AND DUP2 PUSH20 0xFFFFFFFFFFFFFFFFFFFFFFFFFFFFFFFFFFFFFFFF AND EQ PUSH2 0xE2F JUMPI PUSH1 0x40 MLOAD PUSH32 0x8C379A000000000000000000000000000000000000000000000000000000000 DUP2 MSTORE PUSH1 0x4 ADD PUSH2 0xE26 SWAP1 PUSH2 0x2272 JUMP JUMPDEST PUSH1 0x40 MLOAD DUP1 SWAP2 SUB SWAP1 REVERT JUMPDEST PUSH1 0x0 DUP1 JUMPDEST PUSH1 0x4 DUP1 SLOAD SWAP1 POP DUP2 LT ISZERO PUSH2 0xFA2 JUMPI DUP4 PUSH1 0x40 MLOAD PUSH1 0x20 ADD PUSH2 0xE51 SWAP2 SWAP1 PUSH2 0x1FB0 JUMP JUMPDEST PUSH1 0x40 MLOAD PUSH1 0x20 DUP2 DUP4 SUB SUB DUP2 MSTORE SWAP1 PUSH1 0x40 MSTORE DUP1 MLOAD SWAP1 PUSH1 0x20 ADD KECCAK256 PUSH1 0x4 DUP3 DUP2 SLOAD DUP2 LT PUSH2 0xE74 JUMPI INVALID JUMPDEST SWAP1 PUSH1 0x0 MSTORE PUSH1 0x20 PUSH1 0x0 KECCAK256 ADD PUSH1 0x40 MLOAD PUSH1 0x20 ADD PUSH2 0xE8E SWAP2 SWAP1 PUSH2 0x1FF6 JUMP JUMPDEST PUSH1 0x40 MLOAD PUSH1 0x20 DUP2 DUP4 SUB SUB DUP2 MSTORE SWAP1 PUSH1 0x40 MSTORE DUP1 MLOAD SWAP1 PUSH1 0x20 ADD KECCAK256 EQ ISZERO PUSH2 0xF95 JUMPI PUSH1 0x1 SWAP2 POP PUSH1 0x3 DUP5 PUSH1 0x40 MLOAD PUSH2 0xEBE SWAP2 SWAP1 PUSH2 0x1FB0 JUMP JUMPDEST SWAP1 DUP2 MSTORE PUSH1 0x20 ADD PUSH1 0x40 MLOAD DUP1 SWAP2 SUB SWAP1 KECCAK256 PUSH1 0x2 ADD PUSH1 0x0 SWAP1 SLOAD SWAP1 PUSH2 0x100 EXP SWAP1 DIV PUSH1 0xFF AND ISZERO PUSH2 0xF21 JUMPI PUSH1 0x0 PUSH1 0x3 DUP6 PUSH1 0x40 MLOAD PUSH2 0xEF4 SWAP2 SWAP1 PUSH2 0x1FB0 JUMP JUMPDEST SWAP1 DUP2 MSTORE PUSH1 0x20 ADD PUSH1 0x40 MLOAD DUP1 SWAP2 SUB SWAP1 KECCAK256 PUSH1 0x2 ADD PUSH1 0x0 PUSH2 0x100 EXP DUP2 SLOAD DUP2 PUSH1 0xFF MUL NOT AND SWAP1 DUP4 ISZERO ISZERO MUL OR SWAP1 SSTORE POP PUSH2 0xF90 JUMP JUMPDEST PUSH1 0x3 DUP5 PUSH1 0x40 MLOAD PUSH2 0xF31 SWAP2 SWAP1 PUSH2 0x1FB0 JUMP JUMPDEST SWAP1 DUP2 MSTORE PUSH1 0x20 ADD PUSH1 0x40 MLOAD DUP1 SWAP2 SUB SWAP1 KECCAK256 PUSH1 0x2 ADD PUSH1 0x0 SWAP1 SLOAD SWAP1 PUSH2 0x100 EXP SWAP1 DIV PUSH1 0xFF AND PUSH2 0xF8F JUMPI PUSH1 0x40 MLOAD PUSH32 0x8C379A000000000000000000000000000000000000000000000000000000000 DUP2 MSTORE PUSH1 0x4 ADD PUSH2 0xF86 SWAP1 PUSH2 0x2232 JUMP JUMPDEST PUSH1 0x40 MLOAD DUP1 SWAP2 SUB SWAP1 REVERT JUMPDEST JUMPDEST PUSH2 0xFA2 JUMP JUMPDEST DUP1 DUP1 PUSH1 0x1 ADD SWAP2 POP POP PUSH2 0xE33 JUMP JUMPDEST POP DUP1 PUSH2 0xFE3 JUMPI PUSH1 0x40 MLOAD PUSH32 0x8C379A000000000000000000000000000000000000000000000000000000000 DUP2 MSTORE PUSH1 0x4 ADD PUSH2 0xFDA SWAP1 PUSH2 0x2292 JUMP JUMPDEST PUSH1 0x40 MLOAD DUP1 SWAP2 SUB SWAP1 REVERT JUMPDEST PUSH32 0x24BA6C881728980191398DB8DCFD8ED4F6AEB1C08DF349D63F3B85075F3E86DD DUP4 PUSH1 0x40 MLOAD PUSH2 0x1012 SWAP2 SWAP1 PUSH2 0x20E0 JUMP JUMPDEST PUSH1 0x40 MLOAD DUP1 SWAP2 SUB SWAP1 LOG1 POP POP POP JUMP JUMPDEST CALLER PUSH1 0x1 PUSH1 0x0 SWAP1 SLOAD SWAP1 PUSH2 0x100 EXP SWAP1 DIV PUSH20 0xFFFFFFFFFFFFFFFFFFFFFFFFFFFFFFFFFFFFFFFF AND PUSH20 0xFFFFFFFFFFFFFFFFFFFFFFFFFFFFFFFFFFFFFFFF AND DUP2 PUSH20 0xFFFFFFFFFFFFFFFFFFFFFFFFFFFFFFFFFFFFFFFF AND EQ PUSH2 0x10B0 JUMPI PUSH1 0x40 MLOAD PUSH32 0x8C379A000000000000000000000000000000000000000000000000000000000 DUP2 MSTORE PUSH1 0x4 ADD PUSH2 0x10A7 SWAP1 PUSH2 0x2272 JUMP JUMPDEST PUSH1 0x40 MLOAD DUP1 SWAP2 SUB SWAP1 REVERT JUMPDEST PUSH1 0x0 DUP1 JUMPDEST PUSH1 0x4 DUP1 SLOAD SWAP1 POP DUP2 LT ISZERO PUSH2 0x1223 JUMPI DUP4 PUSH1 0x40 MLOAD PUSH1 0x20 ADD PUSH2 0x10D2 SWAP2 SWAP1 PUSH2 0x1FB0 JUMP JUMPDEST PUSH1 0x40 MLOAD PUSH1 0x20 DUP2 DUP4 SUB SUB DUP2 MSTORE SWAP1 PUSH1 0x40 MSTORE DUP1 MLOAD SWAP1 PUSH1 0x20 ADD KECCAK256 PUSH1 0x4 DUP3 DUP2 SLOAD DUP2 LT PUSH2 0x10F5 JUMPI INVALID JUMPDEST SWAP1 PUSH1 0x0 MSTORE PUSH1 0x20 PUSH1 0x0 KECCAK256 ADD PUSH1 0x40 MLOAD PUSH1 0x20 ADD PUSH2 0x110F SWAP2 SWAP1 PUSH2 0x1FF6 JUMP JUMPDEST PUSH1 0x40 MLOAD PUSH1 0x20 DUP2 DUP4 SUB SUB DUP2 MSTORE SWAP1 PUSH1 0x40 MSTORE DUP1 MLOAD SWAP1 PUSH1 0x20 ADD KECCAK256 EQ ISZERO PUSH2 0x1216 JUMPI PUSH1 0x1 SWAP2 POP PUSH1 0x3 DUP5 PUSH1 0x40 MLOAD PUSH2 0x113F SWAP2 SWAP1 PUSH2 0x1FB0 JUMP JUMPDEST SWAP1 DUP2 MSTORE PUSH1 0x20 ADD PUSH1 0x40 MLOAD DUP1 SWAP2 SUB SWAP1 KECCAK256 PUSH1 0x2 ADD PUSH1 0x0 SWAP1 SLOAD SWAP1 PUSH2 0x100 EXP SWAP1 DIV PUSH1 0xFF AND PUSH2 0x11A1 JUMPI PUSH1 0x1 PUSH1 0x3 DUP6 PUSH1 0x40 MLOAD PUSH2 0x1174 SWAP2 SWAP1 PUSH2 0x1FB0 JUMP JUMPDEST SWAP1 DUP2 MSTORE PUSH1 0x20 ADD PUSH1 0x40 MLOAD DUP1 SWAP2 SUB SWAP1 KECCAK256 PUSH1 0x2 ADD PUSH1 0x0 PUSH2 0x100 EXP DUP2 SLOAD DUP2 PUSH1 0xFF MUL NOT AND SWAP1 DUP4 ISZERO ISZERO MUL OR SWAP1 SSTORE POP PUSH2 0x1211 JUMP JUMPDEST PUSH1 0x3 DUP5 PUSH1 0x40 MLOAD PUSH2 0x11B1 SWAP2 SWAP1 PUSH2 0x1FB0 JUMP JUMPDEST SWAP1 DUP2 MSTORE PUSH1 0x20 ADD PUSH1 0x40 MLOAD DUP1 SWAP2 SUB SWAP1 KECCAK256 PUSH1 0x2 ADD PUSH1 0x0 SWAP1 SLOAD SWAP1 PUSH2 0x100 EXP SWAP1 DIV PUSH1 0xFF AND ISZERO PUSH2 0x1210 JUMPI PUSH1 0x40 MLOAD PUSH32 0x8C379A000000000000000000000000000000000000000000000000000000000 DUP2 MSTORE PUSH1 0x4 ADD PUSH2 0x1207 SWAP1 PUSH2 0x2252 JUMP JUMPDEST PUSH1 0x40 MLOAD DUP1 SWAP2 SUB SWAP1 REVERT JUMPDEST JUMPDEST PUSH2 0x1223 JUMP JUMPDEST DUP1 DUP1 PUSH1 0x1 ADD SWAP2 POP POP PUSH2 0x10B4 JUMP JUMPDEST POP DUP1 PUSH2 0x1264 JUMPI PUSH1 0x40 MLOAD PUSH32 0x8C379A000000000000000000000000000000000000000000000000000000000 DUP2 MSTORE PUSH1 0x4 ADD PUSH2 0x125B SWAP1 PUSH2 0x22B2 JUMP JUMPDEST PUSH1 0x40 MLOAD DUP1 SWAP2 SUB SWAP1 REVERT JUMPDEST PUSH32 0x93BF52A97553B4B909DC0C898CA0AF225AFA4B2926E6D4F002F1470287662FC1 DUP4 PUSH1 0x40 MLOAD PUSH2 0x1293 SWAP2 SWAP1 PUSH2 0x20E0 JUMP JUMPDEST PUSH1 0x40 MLOAD DUP1 SWAP2 SUB SWAP1 LOG1 POP POP POP JUMP JUMPDEST PUSH1 0x2 PUSH1 0x20 MSTORE DUP1 PUSH1 0x0 MSTORE PUSH1 0x40 PUSH1 0x0 KECCAK256 PUSH1 0x0 SWAP2 POP SWAP1 POP DUP1 PUSH1 0x0 ADD SLOAD SWAP1 POP DUP2 JUMP JUMPDEST PUSH1 0x3 DUP2 DUP1 MLOAD PUSH1 0x20 DUP2 ADD DUP3 ADD DUP1 MLOAD DUP5 DUP3 MSTORE PUSH1 0x20 DUP4 ADD PUSH1 0x20 DUP6 ADD KECCAK256 DUP2 DUP4 MSTORE DUP1 SWAP6 POP POP POP POP POP POP PUSH1 0x0 SWAP2 POP SWAP1 POP DUP1 PUSH1 0x0 ADD DUP1 SLOAD PUSH1 0x1 DUP2 PUSH1 0x1 AND ISZERO PUSH2 0x100 MUL SUB AND PUSH1 0x2 SWAP1 DIV DUP1 PUSH1 0x1F ADD PUSH1 0x20 DUP1 SWAP2 DIV MUL PUSH1 0x20 ADD PUSH1 0x40 MLOAD SWAP1 DUP2 ADD PUSH1 0x40 MSTORE DUP1 SWAP3 SWAP2 SWAP1 DUP2 DUP2 MSTORE PUSH1 0x20 ADD DUP3 DUP1 SLOAD PUSH1 0x1 DUP2 PUSH1 0x1 AND ISZERO PUSH2 0x100 MUL SUB AND PUSH1 0x2 SWAP1 DIV DUP1 ISZERO PUSH2 0x1380 JUMPI DUP1 PUSH1 0x1F LT PUSH2 0x1355 JUMPI PUSH2 0x100 DUP1 DUP4 SLOAD DIV MUL DUP4 MSTORE SWAP2 PUSH1 0x20 ADD SWAP2 PUSH2 0x1380 JUMP JUMPDEST DUP3 ADD SWAP2 SWAP1 PUSH1 0x0 MSTORE PUSH1 0x20 PUSH1 0x0 KECCAK256 SWAP1 JUMPDEST DUP2 SLOAD DUP2 MSTORE SWAP1 PUSH1 0x1 ADD SWAP1 PUSH1 0x20 ADD DUP1 DUP4 GT PUSH2 0x1363 JUMPI DUP3 SWAP1 SUB PUSH1 0x1F AND DUP3 ADD SWAP2 JUMPDEST POP POP POP POP POP SWAP1 DUP1 PUSH1 0x1 ADD SLOAD SWAP1 DUP1 PUSH1 0x2 ADD PUSH1 0x0 SWAP1 SLOAD SWAP1 PUSH2 0x100 EXP SWAP1 DIV PUSH1 0xFF AND SWAP1 POP DUP4 JUMP JUMPDEST PUSH1 0x0 DUP1 PUSH1 0x0 SWAP1 SLOAD SWAP1 PUSH2 0x100 EXP SWAP1 DIV PUSH20 0xFFFFFFFFFFFFFFFFFFFFFFFFFFFFFFFFFFFFFFFF AND PUSH20 0xFFFFFFFFFFFFFFFFFFFFFFFFFFFFFFFFFFFFFFFF AND PUSH4 0x70A08231 CALLER PUSH1 0x40 MLOAD DUP3 PUSH4 0xFFFFFFFF AND PUSH1 0xE0 SHL DUP2 MSTORE PUSH1 0x4 ADD PUSH2 0x13FF SWAP2 SWAP1 PUSH2 0x2028 JUMP JUMPDEST PUSH1 0x20 PUSH1 0x40 MLOAD DUP1 DUP4 SUB DUP2 DUP7 DUP1 EXTCODESIZE ISZERO DUP1 ISZERO PUSH2 0x1417 JUMPI PUSH1 0x0 DUP1 REVERT JUMPDEST POP GAS STATICCALL ISZERO DUP1 ISZERO PUSH2 0x142B JUMPI RETURNDATASIZE PUSH1 0x0 DUP1 RETURNDATACOPY RETURNDATASIZE PUSH1 0x0 REVERT JUMPDEST POP POP POP POP PUSH1 0x40 MLOAD RETURNDATASIZE PUSH1 0x1F NOT PUSH1 0x1F DUP3 ADD AND DUP3 ADD DUP1 PUSH1 0x40 MSTORE POP DUP2 ADD SWAP1 PUSH2 0x144F SWAP2 SWAP1 PUSH2 0x1929 JUMP JUMPDEST SWAP1 POP SWAP1 JUMP JUMPDEST PUSH1 0x0 PUSH2 0x145F DUP3 PUSH2 0x1639 JUMP JUMPDEST SWAP1 POP DUP1 CALLVALUE LT ISZERO PUSH2 0x14A4 JUMPI PUSH1 0x40 MLOAD PUSH32 0x8C379A000000000000000000000000000000000000000000000000000000000 DUP2 MSTORE PUSH1 0x4 ADD PUSH2 0x149B SWAP1 PUSH2 0x21F2 JUMP JUMPDEST PUSH1 0x40 MLOAD DUP1 SWAP2 SUB SWAP1 REVERT JUMPDEST DUP2 PUSH2 0x14AD PUSH2 0xCED JUMP JUMPDEST LT ISZERO PUSH2 0x14EE JUMPI PUSH1 0x40 MLOAD PUSH32 0x8C379A000000000000000000000000000000000000000000000000000000000 DUP2 MSTORE PUSH1 0x4 ADD PUSH2 0x14E5 SWAP1 PUSH2 0x2212 JUMP JUMPDEST PUSH1 0x40 MLOAD DUP1 SWAP2 SUB SWAP1 REVERT JUMPDEST CALLER PUSH20 0xFFFFFFFFFFFFFFFFFFFFFFFFFFFFFFFFFFFFFFFF AND PUSH2 0x8FC DUP3 CALLVALUE SUB SWAP1 DUP2 ISZERO MUL SWAP1 PUSH1 0x40 MLOAD PUSH1 0x0 PUSH1 0x40 MLOAD DUP1 DUP4 SUB DUP2 DUP6 DUP9 DUP9 CALL SWAP4 POP POP POP POP ISZERO DUP1 ISZERO PUSH2 0x1536 JUMPI RETURNDATASIZE PUSH1 0x0 DUP1 RETURNDATACOPY RETURNDATASIZE PUSH1 0x0 REVERT JUMPDEST POP PUSH1 0x0 DUP1 SLOAD SWAP1 PUSH2 0x100 EXP SWAP1 DIV PUSH20 0xFFFFFFFFFFFFFFFFFFFFFFFFFFFFFFFFFFFFFFFF AND PUSH20 0xFFFFFFFFFFFFFFFFFFFFFFFFFFFFFFFFFFFFFFFF AND PUSH4 0xA9059CBB CALLER DUP5 PUSH1 0x40 MLOAD DUP4 PUSH4 0xFFFFFFFF AND PUSH1 0xE0 SHL DUP2 MSTORE PUSH1 0x4 ADD PUSH2 0x1592 SWAP3 SWAP2 SWAP1 PUSH2 0x2095 JUMP JUMPDEST PUSH1 0x20 PUSH1 0x40 MLOAD DUP1 DUP4 SUB DUP2 PUSH1 0x0 DUP8 DUP1 EXTCODESIZE ISZERO DUP1 ISZERO PUSH2 0x15AC JUMPI PUSH1 0x0 DUP1 REVERT JUMPDEST POP GAS CALL ISZERO DUP1 ISZERO PUSH2 0x15C0 JUMPI RETURNDATASIZE PUSH1 0x0 DUP1 RETURNDATACOPY RETURNDATASIZE PUSH1 0x0 REVERT JUMPDEST POP POP POP POP PUSH1 0x40 MLOAD RETURNDATASIZE PUSH1 0x1F NOT PUSH1 0x1F DUP3 ADD AND DUP3 ADD DUP1 PUSH1 0x40 MSTORE POP DUP2 ADD SWAP1 PUSH2 0x15E4 SWAP2 SWAP1 PUSH2 0x1842 JUMP JUMPDEST POP DUP2 PUSH1 0x2 PUSH1 0x0 CALLER PUSH20 0xFFFFFFFFFFFFFFFFFFFFFFFFFFFFFFFFFFFFFFFF AND PUSH20 0xFFFFFFFFFFFFFFFFFFFFFFFFFFFFFFFFFFFFFFFF AND DUP2 MSTORE PUSH1 0x20 ADD SWAP1 DUP2 MSTORE PUSH1 0x20 ADD PUSH1 0x0 KECCAK256 PUSH1 0x0 ADD PUSH1 0x0 DUP3 DUP3 SLOAD ADD SWAP3 POP POP DUP2 SWAP1 SSTORE POP POP POP JUMP JUMPDEST PUSH1 0x0 PUSH8 0xDE0B6B3A7640000 DUP3 MUL SWAP1 POP SWAP2 SWAP1 POP JUMP JUMPDEST DUP3 DUP1 SLOAD PUSH1 0x1 DUP2 PUSH1 0x1 AND ISZERO PUSH2 0x100 MUL SUB AND PUSH1 0x2 SWAP1 DIV SWAP1 PUSH1 0x0 MSTORE PUSH1 0x20 PUSH1 0x0 KECCAK256 SWAP1 PUSH1 0x1F ADD PUSH1 0x20 SWAP1 DIV DUP2 ADD SWAP3 DUP3 PUSH1 0x1F LT PUSH2 0x1686 JUMPI DUP1 SLOAD DUP6 SSTORE PUSH2 0x16C3 JUMP JUMPDEST DUP3 DUP1 ADD PUSH1 0x1 ADD DUP6 SSTORE DUP3 ISZERO PUSH2 0x16C3 JUMPI PUSH1 0x0 MSTORE PUSH1 0x20 PUSH1 0x0 KECCAK256 SWAP2 PUSH1 0x1F ADD PUSH1 0x20 SWAP1 DIV DUP3 ADD JUMPDEST DUP3 DUP2 GT ISZERO PUSH2 0x16C2 JUMPI DUP3 SLOAD DUP3 SSTORE SWAP2 PUSH1 0x1 ADD SWAP2 SWAP1 PUSH1 0x1 ADD SWAP1 PUSH2 0x16A7 JUMP JUMPDEST JUMPDEST POP SWAP1 POP PUSH2 0x16D0 SWAP2 SWAP1 PUSH2 0x1754 JUMP JUMPDEST POP SWAP1 JUMP JUMPDEST DUP3 DUP1 SLOAD PUSH1 0x1 DUP2 PUSH1 0x1 AND ISZERO PUSH2 0x100 MUL SUB AND PUSH1 0x2 SWAP1 DIV SWAP1 PUSH1 0x0 MSTORE PUSH1 0x20 PUSH1 0x0 KECCAK256 SWAP1 PUSH1 0x1F ADD PUSH1 0x20 SWAP1 DIV DUP2 ADD SWAP3 DUP3 PUSH1 0x1F LT PUSH2 0x1715 JUMPI DUP1 MLOAD PUSH1 0xFF NOT AND DUP4 DUP1 ADD OR DUP6 SSTORE PUSH2 0x1743 JUMP JUMPDEST DUP3 DUP1 ADD PUSH1 0x1 ADD DUP6 SSTORE DUP3 ISZERO PUSH2 0x1743 JUMPI SWAP2 DUP3 ADD JUMPDEST DUP3 DUP2 GT ISZERO PUSH2 0x1742 JUMPI DUP3 MLOAD DUP3 SSTORE SWAP2 PUSH1 0x20 ADD SWAP2 SWAP1 PUSH1 0x1 ADD SWAP1 PUSH2 0x1727 JUMP JUMPDEST JUMPDEST POP SWAP1 POP PUSH2 0x1750 SWAP2 SWAP1 PUSH2 0x1754 JUMP JUMPDEST POP SWAP1 JUMP JUMPDEST JUMPDEST DUP1 DUP3 GT ISZERO PUSH2 0x176D JUMPI PUSH1 0x0 DUP2 PUSH1 0x0 SWAP1 SSTORE POP PUSH1 0x1 ADD PUSH2 0x1755 JUMP JUMPDEST POP SWAP1 JUMP JUMPDEST PUSH1 0x0 DUP2 CALLDATALOAD SWAP1 POP PUSH2 0x1780 DUP2 PUSH2 0x24AF JUMP JUMPDEST SWAP3 SWAP2 POP POP JUMP JUMPDEST PUSH1 0x0 DUP2 MLOAD SWAP1 POP PUSH2 0x1795 DUP2 PUSH2 0x24C6 JUMP JUMPDEST SWAP3 SWAP2 POP POP JUMP JUMPDEST PUSH1 0x0 DUP3 PUSH1 0x1F DUP4 ADD SLT PUSH2 0x17AC JUMPI PUSH1 0x0 DUP1 REVERT JUMPDEST DUP2 CALLDATALOAD PUSH2 0x17BF PUSH2 0x17BA DUP3 PUSH2 0x231A JUMP JUMPDEST PUSH2 0x22ED JUMP JUMPDEST SWAP2 POP DUP1 DUP3 MSTORE PUSH1 0x20 DUP4 ADD PUSH1 0x20 DUP4 ADD DUP6 DUP4 DUP4 ADD GT ISZERO PUSH2 0x17DB JUMPI PUSH1 0x0 DUP1 REVERT JUMPDEST PUSH2 0x17E6 DUP4 DUP3 DUP5 PUSH2 0x245C JUMP JUMPDEST POP POP POP SWAP3 SWAP2 POP POP JUMP JUMPDEST PUSH1 0x0 DUP2 CALLDATALOAD SWAP1 POP PUSH2 0x17FE DUP2 PUSH2 0x24DD JUMP JUMPDEST SWAP3 SWAP2 POP POP JUMP JUMPDEST PUSH1 0x0 DUP2 MLOAD SWAP1 POP PUSH2 0x1813 DUP2 PUSH2 0x24DD JUMP JUMPDEST SWAP3 SWAP2 POP POP JUMP JUMPDEST PUSH1 0x0 PUSH1 0x20 DUP3 DUP5 SUB SLT ISZERO PUSH2 0x182B JUMPI PUSH1 0x0 DUP1 REVERT JUMPDEST PUSH1 0x0 PUSH2 0x1839 DUP5 DUP3 DUP6 ADD PUSH2 0x1771 JUMP JUMPDEST SWAP2 POP POP SWAP3 SWAP2 POP POP JUMP JUMPDEST PUSH1 0x0 PUSH1 0x20 DUP3 DUP5 SUB SLT ISZERO PUSH2 0x1854 JUMPI PUSH1 0x0 DUP1 REVERT JUMPDEST PUSH1 0x0 PUSH2 0x1862 DUP5 DUP3 DUP6 ADD PUSH2 0x1786 JUMP JUMPDEST SWAP2 POP POP SWAP3 SWAP2 POP POP JUMP JUMPDEST PUSH1 0x0 PUSH1 0x20 DUP3 DUP5 SUB SLT ISZERO PUSH2 0x187D JUMPI PUSH1 0x0 DUP1 REVERT JUMPDEST PUSH1 0x0 DUP3 ADD CALLDATALOAD PUSH8 0xFFFFFFFFFFFFFFFF DUP2 GT ISZERO PUSH2 0x1897 JUMPI PUSH1 0x0 DUP1 REVERT JUMPDEST PUSH2 0x18A3 DUP5 DUP3 DUP6 ADD PUSH2 0x179B JUMP JUMPDEST SWAP2 POP POP SWAP3 SWAP2 POP POP JUMP JUMPDEST PUSH1 0x0 DUP1 PUSH1 0x40 DUP4 DUP6 SUB SLT ISZERO PUSH2 0x18BF JUMPI PUSH1 0x0 DUP1 REVERT JUMPDEST PUSH1 0x0 DUP4 ADD CALLDATALOAD PUSH8 0xFFFFFFFFFFFFFFFF DUP2 GT ISZERO PUSH2 0x18D9 JUMPI PUSH1 0x0 DUP1 REVERT JUMPDEST PUSH2 0x18E5 DUP6 DUP3 DUP7 ADD PUSH2 0x179B JUMP JUMPDEST SWAP3 POP POP PUSH1 0x20 PUSH2 0x18F6 DUP6 DUP3 DUP7 ADD PUSH2 0x17EF JUMP JUMPDEST SWAP2 POP POP SWAP3 POP SWAP3 SWAP1 POP JUMP JUMPDEST PUSH1 0x0 PUSH1 0x20 DUP3 DUP5 SUB SLT ISZERO PUSH2 0x1912 JUMPI PUSH1 0x0 DUP1 REVERT JUMPDEST PUSH1 0x0 PUSH2 0x1920 DUP5 DUP3 DUP6 ADD PUSH2 0x17EF JUMP JUMPDEST SWAP2 POP POP SWAP3 SWAP2 POP POP JUMP JUMPDEST PUSH1 0x0 PUSH1 0x20 DUP3 DUP5 SUB SLT ISZERO PUSH2 0x193B JUMPI PUSH1 0x0 DUP1 REVERT JUMPDEST PUSH1 0x0 PUSH2 0x1949 DUP5 DUP3 DUP6 ADD PUSH2 0x1804 JUMP JUMPDEST SWAP2 POP POP SWAP3 SWAP2 POP POP JUMP JUMPDEST PUSH1 0x0 PUSH2 0x195E DUP4 DUP4 PUSH2 0x1A17 JUMP JUMPDEST SWAP1 POP SWAP3 SWAP2 POP POP JUMP JUMPDEST PUSH2 0x196F DUP2 PUSH2 0x2426 JUMP JUMPDEST DUP3 MSTORE POP POP JUMP JUMPDEST PUSH2 0x197E DUP2 PUSH2 0x23DE JUMP JUMPDEST DUP3 MSTORE POP POP JUMP JUMPDEST PUSH2 0x198D DUP2 PUSH2 0x23CC JUMP JUMPDEST DUP3 MSTORE POP POP JUMP JUMPDEST PUSH1 0x0 PUSH2 0x199E DUP3 PUSH2 0x236B JUMP JUMPDEST PUSH2 0x19A8 DUP2 DUP6 PUSH2 0x238E JUMP JUMPDEST SWAP4 POP DUP4 PUSH1 0x20 DUP3 MUL DUP6 ADD PUSH2 0x19BA DUP6 PUSH2 0x2346 JUMP JUMPDEST DUP1 PUSH1 0x0 JUMPDEST DUP6 DUP2 LT ISZERO PUSH2 0x19F6 JUMPI DUP5 DUP5 SUB DUP10 MSTORE DUP2 MLOAD PUSH2 0x19D7 DUP6 DUP3 PUSH2 0x1952 JUMP JUMPDEST SWAP5 POP PUSH2 0x19E2 DUP4 PUSH2 0x2381 JUMP JUMPDEST SWAP3 POP PUSH1 0x20 DUP11 ADD SWAP10 POP POP PUSH1 0x1 DUP2 ADD SWAP1 POP PUSH2 0x19BE JUMP JUMPDEST POP DUP3 SWAP8 POP DUP8 SWAP6 POP POP POP POP POP POP SWAP3 SWAP2 POP POP JUMP JUMPDEST PUSH2 0x1A11 DUP2 PUSH2 0x23F0 JUMP JUMPDEST DUP3 MSTORE POP POP JUMP JUMPDEST PUSH1 0x0 PUSH2 0x1A22 DUP3 PUSH2 0x2376 JUMP JUMPDEST PUSH2 0x1A2C DUP2 DUP6 PUSH2 0x239F JUMP JUMPDEST SWAP4 POP PUSH2 0x1A3C DUP2 DUP6 PUSH1 0x20 DUP7 ADD PUSH2 0x246B JUMP JUMPDEST PUSH2 0x1A45 DUP2 PUSH2 0x249E JUMP JUMPDEST DUP5 ADD SWAP2 POP POP SWAP3 SWAP2 POP POP JUMP JUMPDEST PUSH1 0x0 PUSH2 0x1A5B DUP3 PUSH2 0x2376 JUMP JUMPDEST PUSH2 0x1A65 DUP2 DUP6 PUSH2 0x23B0 JUMP JUMPDEST SWAP4 POP PUSH2 0x1A75 DUP2 DUP6 PUSH1 0x20 DUP7 ADD PUSH2 0x246B JUMP JUMPDEST PUSH2 0x1A7E DUP2 PUSH2 0x249E JUMP JUMPDEST DUP5 ADD SWAP2 POP POP SWAP3 SWAP2 POP POP JUMP JUMPDEST PUSH1 0x0 PUSH2 0x1A94 DUP3 PUSH2 0x2376 JUMP JUMPDEST PUSH2 0x1A9E DUP2 DUP6 PUSH2 0x23C1 JUMP JUMPDEST SWAP4 POP PUSH2 0x1AAE DUP2 DUP6 PUSH1 0x20 DUP7 ADD PUSH2 0x246B JUMP JUMPDEST DUP1 DUP5 ADD SWAP2 POP POP SWAP3 SWAP2 POP POP JUMP JUMPDEST PUSH1 0x0 DUP2 SLOAD PUSH1 0x1 DUP2 AND PUSH1 0x0 DUP2 EQ PUSH2 0x1AD7 JUMPI PUSH1 0x1 DUP2 EQ PUSH2 0x1AFD JUMPI PUSH2 0x1B41 JUMP JUMPDEST PUSH1 0x7F PUSH1 0x2 DUP4 DIV AND PUSH2 0x1AE8 DUP2 DUP8 PUSH2 0x23B0 JUMP JUMPDEST SWAP6 POP PUSH1 0xFF NOT DUP4 AND DUP7 MSTORE PUSH1 0x20 DUP7 ADD SWAP4 POP POP PUSH2 0x1B41 JUMP JUMPDEST PUSH1 0x2 DUP3 DIV PUSH2 0x1B0B DUP2 DUP8 PUSH2 0x23B0 JUMP JUMPDEST SWAP6 POP PUSH2 0x1B16 DUP6 PUSH2 0x2356 JUMP JUMPDEST PUSH1 0x0 JUMPDEST DUP3 DUP2 LT ISZERO PUSH2 0x1B38 JUMPI DUP2 SLOAD DUP2 DUP10 ADD MSTORE PUSH1 0x1 DUP3 ADD SWAP2 POP PUSH1 0x20 DUP2 ADD SWAP1 POP PUSH2 0x1B19 JUMP JUMPDEST DUP1 DUP9 ADD SWAP6 POP POP POP POP JUMPDEST POP POP SWAP3 SWAP2 POP POP JUMP JUMPDEST PUSH1 0x0 DUP2 SLOAD PUSH1 0x1 DUP2 AND PUSH1 0x0 DUP2 EQ PUSH2 0x1B66 JUMPI PUSH1 0x1 DUP2 EQ PUSH2 0x1B8B JUMPI PUSH2 0x1BCF JUMP JUMPDEST PUSH1 0x7F PUSH1 0x2 DUP4 DIV AND PUSH2 0x1B77 DUP2 DUP8 PUSH2 0x23C1 JUMP JUMPDEST SWAP6 POP PUSH1 0xFF NOT DUP4 AND DUP7 MSTORE DUP1 DUP7 ADD SWAP4 POP POP PUSH2 0x1BCF JUMP JUMPDEST PUSH1 0x2 DUP3 DIV PUSH2 0x1B99 DUP2 DUP8 PUSH2 0x23C1 JUMP JUMPDEST SWAP6 POP PUSH2 0x1BA4 DUP6 PUSH2 0x2356 JUMP JUMPDEST PUSH1 0x0 JUMPDEST DUP3 DUP2 LT ISZERO PUSH2 0x1BC6 JUMPI DUP2 SLOAD DUP2 DUP10 ADD MSTORE PUSH1 0x1 DUP3 ADD SWAP2 POP PUSH1 0x20 DUP2 ADD SWAP1 POP PUSH2 0x1BA7 JUMP JUMPDEST DUP3 DUP9 ADD SWAP6 POP POP POP POP JUMPDEST POP POP SWAP3 SWAP2 POP POP JUMP JUMPDEST PUSH1 0x0 PUSH2 0x1BE4 PUSH1 0x23 DUP4 PUSH2 0x23B0 JUMP JUMPDEST SWAP2 POP PUSH32 0x4C6120617472616363696F6E20656E20637565737469C3B36E206E6F20657869 PUSH1 0x0 DUP4 ADD MSTORE PUSH32 0x7374650000000000000000000000000000000000000000000000000000000000 PUSH1 0x20 DUP4 ADD MSTORE PUSH1 0x40 DUP3 ADD SWAP1 POP SWAP2 SWAP1 POP JUMP JUMPDEST PUSH1 0x0 PUSH2 0x1C4A PUSH1 0x3 DUP4 PUSH2 0x23C1 JUMP JUMPDEST SWAP2 POP PUSH32 0x207C200000000000000000000000000000000000000000000000000000000000 PUSH1 0x0 DUP4 ADD MSTORE PUSH1 0x3 DUP3 ADD SWAP1 POP SWAP2 SWAP1 POP JUMP JUMPDEST PUSH1 0x0 PUSH2 0x1C8A PUSH1 0x14 DUP4 PUSH2 0x23B0 JUMP JUMPDEST SWAP2 POP PUSH32 0x546F6B656E7320696E737566696369656E746573000000000000000000000000 PUSH1 0x0 DUP4 ADD MSTORE PUSH1 0x20 DUP3 ADD SWAP1 POP SWAP2 SWAP1 POP JUMP JUMPDEST PUSH1 0x0 PUSH2 0x1CCA PUSH1 0x33 DUP4 PUSH2 0x23B0 JUMP JUMPDEST SWAP2 POP PUSH32 0x4C6120617472616363696F6E20656E206375657374696F6E206E6F2073652065 PUSH1 0x0 DUP4 ADD MSTORE PUSH32 0x6E6375656E74726120646973706F6E69626C6500000000000000000000000000 PUSH1 0x20 DUP4 ADD MSTORE PUSH1 0x40 DUP3 ADD SWAP1 POP SWAP2 SWAP1 POP JUMP JUMPDEST PUSH1 0x0 PUSH2 0x1D30 PUSH1 0x1E DUP4 PUSH2 0x23B0 JUMP JUMPDEST SWAP2 POP PUSH32 0x43616E746964616420646520657468657220696E737566696369656E74650000 PUSH1 0x0 DUP4 ADD MSTORE PUSH1 0x20 DUP3 ADD SWAP1 POP SWAP2 SWAP1 POP JUMP JUMPDEST PUSH1 0x0 PUSH2 0x1D70 PUSH1 0x20 DUP4 PUSH2 0x23B0 JUMP JUMPDEST SWAP2 POP PUSH32 0x43616E746964616420646520746F6B656E7320696E737566696369656E746573 PUSH1 0x0 DUP4 ADD MSTORE PUSH1 0x20 DUP3 ADD SWAP1 POP SWAP2 SWAP1 POP JUMP JUMPDEST PUSH1 0x0 PUSH2 0x1DB0 PUSH1 0x3B DUP4 PUSH2 0x23B0 JUMP JUMPDEST SWAP2 POP PUSH32 0x4E6F207365207075656465206461722064652062616A61206120756E61206174 PUSH1 0x0 DUP4 ADD MSTORE PUSH32 0x72616363696F6E2071756520796120657374612064652062616A610000000000 PUSH1 0x20 DUP4 ADD MSTORE PUSH1 0x40 DUP3 ADD SWAP1 POP SWAP2 SWAP1 POP JUMP JUMPDEST PUSH1 0x0 PUSH2 0x1E16 PUSH1 0x40 DUP4 PUSH2 0x23B0 JUMP JUMPDEST SWAP2 POP PUSH32 0x4E6F2073652070756564652064617220646520616C7461206120756E61206174 PUSH1 0x0 DUP4 ADD MSTORE PUSH32 0x72616363696F6E207175652079612065737461206461646120646520616C7461 PUSH1 0x20 DUP4 ADD MSTORE PUSH1 0x40 DUP3 ADD SWAP1 POP SWAP2 SWAP1 POP JUMP JUMPDEST PUSH1 0x0 PUSH2 0x1E7C PUSH1 0x2C DUP4 PUSH2 0x23B0 JUMP JUMPDEST SWAP2 POP PUSH32 0x4E6F207469656E6573207065726D69736F207061726120656A65637574617220 PUSH1 0x0 DUP4 ADD MSTORE PUSH32 0x657374612061636369C3B36E0000000000000000000000000000000000000000 PUSH1 0x20 DUP4 ADD MSTORE PUSH1 0x40 DUP3 ADD SWAP1 POP SWAP2 SWAP1 POP JUMP JUMPDEST PUSH1 0x0 PUSH2 0x1EE2 PUSH1 0x35 DUP4 PUSH2 0x23B0 JUMP JUMPDEST SWAP2 POP PUSH32 0x4E6F207365207075656465206461722064652062616A61206120756E61206174 PUSH1 0x0 DUP4 ADD MSTORE PUSH32 0x72616363696F6E20717565206E6F206578697374610000000000000000000000 PUSH1 0x20 DUP4 ADD MSTORE PUSH1 0x40 DUP3 ADD SWAP1 POP SWAP2 SWAP1 POP JUMP JUMPDEST PUSH1 0x0 PUSH2 0x1F48 PUSH1 0x35 DUP4 PUSH2 0x23B0 JUMP JUMPDEST SWAP2 POP PUSH32 0x4E6F2073652070756564652064617220646520616C7461206120756E61206174 PUSH1 0x0 DUP4 ADD MSTORE PUSH32 0x72616363696F6E20717565206E6F206578697374610000000000000000000000 PUSH1 0x20 DUP4 ADD MSTORE PUSH1 0x40 DUP3 ADD SWAP1 POP SWAP2 SWAP1 POP JUMP JUMPDEST PUSH2 0x1FAA DUP2 PUSH2 0x241C JUMP JUMPDEST DUP3 MSTORE POP POP JUMP JUMPDEST PUSH1 0x0 PUSH2 0x1FBC DUP3 DUP5 PUSH2 0x1A89 JUMP JUMPDEST SWAP2 POP DUP2 SWAP1 POP SWAP3 SWAP2 POP POP JUMP JUMPDEST PUSH1 0x0 PUSH2 0x1FD3 DUP3 DUP6 PUSH2 0x1A89 JUMP JUMPDEST SWAP2 POP PUSH2 0x1FDE DUP3 PUSH2 0x1C3D JUMP JUMPDEST SWAP2 POP PUSH2 0x1FEA DUP3 DUP5 PUSH2 0x1B49 JUMP JUMPDEST SWAP2 POP DUP2 SWAP1 POP SWAP4 SWAP3 POP POP POP JUMP JUMPDEST PUSH1 0x0 PUSH2 0x2002 DUP3 DUP5 PUSH2 0x1B49 JUMP JUMPDEST SWAP2 POP DUP2 SWAP1 POP SWAP3 SWAP2 POP POP JUMP JUMPDEST PUSH1 0x0 PUSH1 0x20 DUP3 ADD SWAP1 POP PUSH2 0x2022 PUSH1 0x0 DUP4 ADD DUP5 PUSH2 0x1984 JUMP JUMPDEST SWAP3 SWAP2 POP POP JUMP JUMPDEST PUSH1 0x0 PUSH1 0x20 DUP3 ADD SWAP1 POP PUSH2 0x203D PUSH1 0x0 DUP4 ADD DUP5 PUSH2 0x1966 JUMP JUMPDEST SWAP3 SWAP2 POP POP JUMP JUMPDEST PUSH1 0x0 PUSH1 0x20 DUP3 ADD SWAP1 POP PUSH2 0x2058 PUSH1 0x0 DUP4 ADD DUP5 PUSH2 0x1975 JUMP JUMPDEST SWAP3 SWAP2 POP POP JUMP JUMPDEST PUSH1 0x0 PUSH1 0x60 DUP3 ADD SWAP1 POP PUSH2 0x2073 PUSH1 0x0 DUP4 ADD DUP7 PUSH2 0x1966 JUMP JUMPDEST PUSH2 0x2080 PUSH1 0x20 DUP4 ADD DUP6 PUSH2 0x1984 JUMP JUMPDEST PUSH2 0x208D PUSH1 0x40 DUP4 ADD DUP5 PUSH2 0x1FA1 JUMP JUMPDEST SWAP5 SWAP4 POP POP POP POP JUMP JUMPDEST PUSH1 0x0 PUSH1 0x40 DUP3 ADD SWAP1 POP PUSH2 0x20AA PUSH1 0x0 DUP4 ADD DUP6 PUSH2 0x1966 JUMP JUMPDEST PUSH2 0x20B7 PUSH1 0x20 DUP4 ADD DUP5 PUSH2 0x1FA1 JUMP JUMPDEST SWAP4 SWAP3 POP POP POP JUMP JUMPDEST PUSH1 0x0 PUSH1 0x20 DUP3 ADD SWAP1 POP DUP2 DUP2 SUB PUSH1 0x0 DUP4 ADD MSTORE PUSH2 0x20D8 DUP2 DUP5 PUSH2 0x1993 JUMP JUMPDEST SWAP1 POP SWAP3 SWAP2 POP POP JUMP JUMPDEST PUSH1 0x0 PUSH1 0x20 DUP3 ADD SWAP1 POP DUP2 DUP2 SUB PUSH1 0x0 DUP4 ADD MSTORE PUSH2 0x20FA DUP2 DUP5 PUSH2 0x1A50 JUMP JUMPDEST SWAP1 POP SWAP3 SWAP2 POP POP JUMP JUMPDEST PUSH1 0x0 PUSH1 0x40 DUP3 ADD SWAP1 POP DUP2 DUP2 SUB PUSH1 0x0 DUP4 ADD MSTORE PUSH2 0x211C DUP2 DUP6 PUSH2 0x1A50 JUMP JUMPDEST SWAP1 POP PUSH2 0x212B PUSH1 0x20 DUP4 ADD DUP5 PUSH2 0x1FA1 JUMP JUMPDEST SWAP4 SWAP3 POP POP POP JUMP JUMPDEST PUSH1 0x0 PUSH1 0x60 DUP3 ADD SWAP1 POP DUP2 DUP2 SUB PUSH1 0x0 DUP4 ADD MSTORE PUSH2 0x214C DUP2 DUP7 PUSH2 0x1A50 JUMP JUMPDEST SWAP1 POP PUSH2 0x215B PUSH1 0x20 DUP4 ADD DUP6 PUSH2 0x1FA1 JUMP JUMPDEST PUSH2 0x2168 PUSH1 0x40 DUP4 ADD DUP5 PUSH2 0x1A08 JUMP JUMPDEST SWAP5 SWAP4 POP POP POP POP JUMP JUMPDEST PUSH1 0x0 PUSH1 0x20 DUP3 ADD SWAP1 POP DUP2 DUP2 SUB PUSH1 0x0 DUP4 ADD MSTORE PUSH2 0x218A DUP2 DUP5 PUSH2 0x1ABA JUMP JUMPDEST SWAP1 POP SWAP3 SWAP2 POP POP JUMP JUMPDEST PUSH1 0x0 PUSH1 0x20 DUP3 ADD SWAP1 POP DUP2 DUP2 SUB PUSH1 0x0 DUP4 ADD MSTORE PUSH2 0x21AB DUP2 PUSH2 0x1BD7 JUMP JUMPDEST SWAP1 POP SWAP2 SWAP1 POP JUMP JUMPDEST PUSH1 0x0 PUSH1 0x20 DUP3 ADD SWAP1 POP DUP2 DUP2 SUB PUSH1 0x0 DUP4 ADD MSTORE PUSH2 0x21CB DUP2 PUSH2 0x1C7D JUMP JUMPDEST SWAP1 POP SWAP2 SWAP1 POP JUMP JUMPDEST PUSH1 0x0 PUSH1 0x20 DUP3 ADD SWAP1 POP DUP2 DUP2 SUB PUSH1 0x0 DUP4 ADD MSTORE PUSH2 0x21EB DUP2 PUSH2 0x1CBD JUMP JUMPDEST SWAP1 POP SWAP2 SWAP1 POP JUMP JUMPDEST PUSH1 0x0 PUSH1 0x20 DUP3 ADD SWAP1 POP DUP2 DUP2 SUB PUSH1 0x0 DUP4 ADD MSTORE PUSH2 0x220B DUP2 PUSH2 0x1D23 JUMP JUMPDEST SWAP1 POP SWAP2 SWAP1 POP JUMP JUMPDEST PUSH1 0x0 PUSH1 0x20 DUP3 ADD SWAP1 POP DUP2 DUP2 SUB PUSH1 0x0 DUP4 ADD MSTORE PUSH2 0x222B DUP2 PUSH2 0x1D63 JUMP JUMPDEST SWAP1 POP SWAP2 SWAP1 POP JUMP JUMPDEST PUSH1 0x0 PUSH1 0x20 DUP3 ADD SWAP1 POP DUP2 DUP2 SUB PUSH1 0x0 DUP4 ADD MSTORE PUSH2 0x224B DUP2 PUSH2 0x1DA3 JUMP JUMPDEST SWAP1 POP SWAP2 SWAP1 POP JUMP JUMPDEST PUSH1 0x0 PUSH1 0x20 DUP3 ADD SWAP1 POP DUP2 DUP2 SUB PUSH1 0x0 DUP4 ADD MSTORE PUSH2 0x226B DUP2 PUSH2 0x1E09 JUMP JUMPDEST SWAP1 POP SWAP2 SWAP1 POP JUMP JUMPDEST PUSH1 0x0 PUSH1 0x20 DUP3 ADD SWAP1 POP DUP2 DUP2 SUB PUSH1 0x0 DUP4 ADD MSTORE PUSH2 0x228B DUP2 PUSH2 0x1E6F JUMP JUMPDEST SWAP1 POP SWAP2 SWAP1 POP JUMP JUMPDEST PUSH1 0x0 PUSH1 0x20 DUP3 ADD SWAP1 POP DUP2 DUP2 SUB PUSH1 0x0 DUP4 ADD MSTORE PUSH2 0x22AB DUP2 PUSH2 0x1ED5 JUMP JUMPDEST SWAP1 POP SWAP2 SWAP1 POP JUMP JUMPDEST PUSH1 0x0 PUSH1 0x20 DUP3 ADD SWAP1 POP DUP2 DUP2 SUB PUSH1 0x0 DUP4 ADD MSTORE PUSH2 0x22CB DUP2 PUSH2 0x1F3B JUMP JUMPDEST SWAP1 POP SWAP2 SWAP1 POP JUMP JUMPDEST PUSH1 0x0 PUSH1 0x20 DUP3 ADD SWAP1 POP PUSH2 0x22E7 PUSH1 0x0 DUP4 ADD DUP5 PUSH2 0x1FA1 JUMP JUMPDEST SWAP3 SWAP2 POP POP JUMP JUMPDEST PUSH1 0x0 PUSH1 0x40 MLOAD SWAP1 POP DUP2 DUP2 ADD DUP2 DUP2 LT PUSH8 0xFFFFFFFFFFFFFFFF DUP3 GT OR ISZERO PUSH2 0x2310 JUMPI PUSH1 0x0 DUP1 REVERT JUMPDEST DUP1 PUSH1 0x40 MSTORE POP SWAP2 SWAP1 POP JUMP JUMPDEST PUSH1 0x0 PUSH8 0xFFFFFFFFFFFFFFFF DUP3 GT ISZERO PUSH2 0x2331 JUMPI PUSH1 0x0 DUP1 REVERT JUMPDEST PUSH1 0x1F NOT PUSH1 0x1F DUP4 ADD AND SWAP1 POP PUSH1 0x20 DUP2 ADD SWAP1 POP SWAP2 SWAP1 POP JUMP JUMPDEST PUSH1 0x0 DUP2 SWAP1 POP PUSH1 0x20 DUP3 ADD SWAP1 POP SWAP2 SWAP1 POP JUMP JUMPDEST PUSH1 0x0 DUP2 SWAP1 POP DUP2 PUSH1 0x0 MSTORE PUSH1 0x20 PUSH1 0x0 KECCAK256 SWAP1 POP SWAP2 SWAP1 POP JUMP JUMPDEST PUSH1 0x0 DUP2 MLOAD SWAP1 POP SWAP2 SWAP1 POP JUMP JUMPDEST PUSH1 0x0 DUP2 MLOAD SWAP1 POP SWAP2 SWAP1 POP JUMP JUMPDEST PUSH1 0x0 PUSH1 0x20 DUP3 ADD SWAP1 POP SWAP2 SWAP1 POP JUMP JUMPDEST PUSH1 0x0 DUP3 DUP3 MSTORE PUSH1 0x20 DUP3 ADD SWAP1 POP SWAP3 SWAP2 POP POP JUMP JUMPDEST PUSH1 0x0 DUP3 DUP3 MSTORE PUSH1 0x20 DUP3 ADD SWAP1 POP SWAP3 SWAP2 POP POP JUMP JUMPDEST PUSH1 0x0 DUP3 DUP3 MSTORE PUSH1 0x20 DUP3 ADD SWAP1 POP SWAP3 SWAP2 POP POP JUMP JUMPDEST PUSH1 0x0 DUP2 SWAP1 POP SWAP3 SWAP2 POP POP JUMP JUMPDEST PUSH1 0x0 PUSH2 0x23D7 DUP3 PUSH2 0x23FC JUMP JUMPDEST SWAP1 POP SWAP2 SWAP1 POP JUMP JUMPDEST PUSH1 0x0 PUSH2 0x23E9 DUP3 PUSH2 0x23FC JUMP JUMPDEST SWAP1 POP SWAP2 SWAP1 POP JUMP JUMPDEST PUSH1 0x0 DUP2 ISZERO ISZERO SWAP1 POP SWAP2 SWAP1 POP JUMP JUMPDEST PUSH1 0x0 PUSH20 0xFFFFFFFFFFFFFFFFFFFFFFFFFFFFFFFFFFFFFFFF DUP3 AND SWAP1 POP SWAP2 SWAP1 POP JUMP JUMPDEST PUSH1 0x0 DUP2 SWAP1 POP SWAP2 SWAP1 POP JUMP JUMPDEST PUSH1 0x0 PUSH2 0x2431 DUP3 PUSH2 0x2438 JUMP JUMPDEST SWAP1 POP SWAP2 SWAP1 POP JUMP JUMPDEST PUSH1 0x0 PUSH2 0x2443 DUP3 PUSH2 0x244A JUMP JUMPDEST SWAP1 POP SWAP2 SWAP1 POP JUMP JUMPDEST PUSH1 0x0 PUSH2 0x2455 DUP3 PUSH2 0x23FC JUMP JUMPDEST SWAP1 POP SWAP2 SWAP1 POP JUMP JUMPDEST DUP3 DUP2 DUP4 CALLDATACOPY PUSH1 0x0 DUP4 DUP4 ADD MSTORE POP POP POP JUMP JUMPDEST PUSH1 0x0 JUMPDEST DUP4 DUP2 LT ISZERO PUSH2 0x2489 JUMPI DUP1 DUP3 ADD MLOAD DUP2 DUP5 ADD MSTORE PUSH1 0x20 DUP2 ADD SWAP1 POP PUSH2 0x246E JUMP JUMPDEST DUP4 DUP2 GT ISZERO PUSH2 0x2498 JUMPI PUSH1 0x0 DUP5 DUP5 ADD MSTORE JUMPDEST POP POP POP POP JUMP JUMPDEST PUSH1 0x0 PUSH1 0x1F NOT PUSH1 0x1F DUP4 ADD AND SWAP1 POP SWAP2 SWAP1 POP JUMP JUMPDEST PUSH2 0x24B8 DUP2 PUSH2 0x23CC JUMP JUMPDEST DUP2 EQ PUSH2 0x24C3 JUMPI PUSH1 0x0 DUP1 REVERT JUMPDEST POP JUMP JUMPDEST PUSH2 0x24CF DUP2 PUSH2 0x23F0 JUMP JUMPDEST DUP2 EQ PUSH2 0x24DA JUMPI PUSH1 0x0 DUP1 REVERT JUMPDEST POP JUMP JUMPDEST PUSH2 0x24E6 DUP2 PUSH2 0x241C JUMP JUMPDEST DUP2 EQ PUSH2 0x24F1 JUMPI PUSH1 0x0 DUP1 REVERT JUMPDEST POP JUMP INVALID LOG2 PUSH5 0x6970667358 0x22 SLT KECCAK256 DUP13 0xE7 0x23 0xE1 SHR 0x5D 0xC9 0xE4 0x4C LOG4 PUSH22 0x20097CC2C8DE241C64E6067E896C40B31066FEF03A64 PUSH20 0x6F6C634300060C00336080604052348015610010 JUMPI PUSH1 0x0 DUP1 REVERT JUMPDEST POP PUSH1 0x40 MLOAD PUSH2 0x109D CODESIZE SUB DUP1 PUSH2 0x109D DUP4 CODECOPY DUP2 DUP2 ADD PUSH1 0x40 MSTORE DUP2 ADD SWAP1 PUSH2 0x32 SWAP2 SWAP1 PUSH2 0x99 JUMP JUMPDEST DUP1 PUSH1 0x2 DUP2 SWAP1 SSTORE POP PUSH1 0x2 SLOAD PUSH1 0x0 DUP1 CALLER PUSH20 0xFFFFFFFFFFFFFFFFFFFFFFFFFFFFFFFFFFFFFFFF AND PUSH20 0xFFFFFFFFFFFFFFFFFFFFFFFFFFFFFFFFFFFFFFFF AND DUP2 MSTORE PUSH1 0x20 ADD SWAP1 DUP2 MSTORE PUSH1 0x20 ADD PUSH1 0x0 KECCAK256 DUP2 SWAP1 SSTORE POP POP PUSH2 0xE3 JUMP JUMPDEST PUSH1 0x0 DUP2 MLOAD SWAP1 POP PUSH2 0x93 DUP2 PUSH2 0xCC JUMP JUMPDEST SWAP3 SWAP2 POP POP JUMP JUMPDEST PUSH1 0x0 PUSH1 0x20 DUP3 DUP5 SUB SLT ISZERO PUSH2 0xAB JUMPI PUSH1 0x0 DUP1 REVERT JUMPDEST PUSH1 0x0 PUSH2 0xB9 DUP5 DUP3 DUP6 ADD PUSH2 0x84 JUMP JUMPDEST SWAP2 POP POP SWAP3 SWAP2 POP POP JUMP JUMPDEST PUSH1 0x0 DUP2 SWAP1 POP SWAP2 SWAP1 POP JUMP JUMPDEST PUSH2 0xD5 DUP2 PUSH2 0xC2 JUMP JUMPDEST DUP2 EQ PUSH2 0xE0 JUMPI PUSH1 0x0 DUP1 REVERT JUMPDEST POP JUMP JUMPDEST PUSH2 0xFAB DUP1 PUSH2 0xF2 PUSH1 0x0 CODECOPY PUSH1 0x0 RETURN INVALID PUSH1 0x80 PUSH1 0x40 MSTORE CALLVALUE DUP1 ISZERO PUSH2 0x10 JUMPI PUSH1 0x0 DUP1 REVERT JUMPDEST POP PUSH1 0x4 CALLDATASIZE LT PUSH2 0xA9 JUMPI PUSH1 0x0 CALLDATALOAD PUSH1 0xE0 SHR DUP1 PUSH4 0x313CE567 GT PUSH2 0x71 JUMPI DUP1 PUSH4 0x313CE567 EQ PUSH2 0x166 JUMPI DUP1 PUSH4 0x70A08231 EQ PUSH2 0x184 JUMPI DUP1 PUSH4 0x95D89B41 EQ PUSH2 0x1B4 JUMPI DUP1 PUSH4 0xA9059CBB EQ PUSH2 0x1D2 JUMPI DUP1 PUSH4 0xDD62ED3E EQ PUSH2 0x202 JUMPI DUP1 PUSH4 0xEF910460 EQ PUSH2 0x232 JUMPI PUSH2 0xA9 JUMP JUMPDEST DUP1 PUSH4 0x6FDDE03 EQ PUSH2 0xAE JUMPI DUP1 PUSH4 0x95EA7B3 EQ PUSH2 0xCC JUMPI DUP1 PUSH4 0x18160DDD EQ PUSH2 0xFC JUMPI DUP1 PUSH4 0x1D43CC98 EQ PUSH2 0x11A JUMPI DUP1 PUSH4 0x23B872DD EQ PUSH2 0x136 JUMPI JUMPDEST PUSH1 0x0 DUP1 REVERT JUMPDEST PUSH2 0xB6 PUSH2 0x262 JUMP JUMPDEST PUSH1 0x40 MLOAD PUSH2 0xC3 SWAP2 SWAP1 PUSH2 0xE3A JUMP JUMPDEST PUSH1 0x40 MLOAD DUP1 SWAP2 SUB SWAP1 RETURN JUMPDEST PUSH2 0xE6 PUSH1 0x4 DUP1 CALLDATASIZE SUB DUP2 ADD SWAP1 PUSH2 0xE1 SWAP2 SWAP1 PUSH2 0xD54 JUMP JUMPDEST PUSH2 0x29B JUMP JUMPDEST PUSH1 0x40 MLOAD PUSH2 0xF3 SWAP2 SWAP1 PUSH2 0xE1F JUMP JUMPDEST PUSH1 0x40 MLOAD DUP1 SWAP2 SUB SWAP1 RETURN JUMPDEST PUSH2 0x104 PUSH2 0x38D JUMP JUMPDEST PUSH1 0x40 MLOAD PUSH2 0x111 SWAP2 SWAP1 PUSH2 0xE5C JUMP JUMPDEST PUSH1 0x40 MLOAD DUP1 SWAP2 SUB SWAP1 RETURN JUMPDEST PUSH2 0x134 PUSH1 0x4 DUP1 CALLDATASIZE SUB DUP2 ADD SWAP1 PUSH2 0x12F SWAP2 SWAP1 PUSH2 0xD90 JUMP JUMPDEST PUSH2 0x397 JUMP JUMPDEST STOP JUMPDEST PUSH2 0x150 PUSH1 0x4 DUP1 CALLDATASIZE SUB DUP2 ADD SWAP1 PUSH2 0x14B SWAP2 SWAP1 PUSH2 0xD05 JUMP JUMPDEST PUSH2 0x3F6 JUMP JUMPDEST PUSH1 0x40 MLOAD PUSH2 0x15D SWAP2 SWAP1 PUSH2 0xE1F JUMP JUMPDEST PUSH1 0x40 MLOAD DUP1 SWAP2 SUB SWAP1 RETURN JUMPDEST PUSH2 0x16E PUSH2 0x771 JUMP JUMPDEST PUSH1 0x40 MLOAD PUSH2 0x17B SWAP2 SWAP1 PUSH2 0xE77 JUMP JUMPDEST PUSH1 0x40 MLOAD DUP1 SWAP2 SUB SWAP1 RETURN JUMPDEST PUSH2 0x19E PUSH1 0x4 DUP1 CALLDATASIZE SUB DUP2 ADD SWAP1 PUSH2 0x199 SWAP2 SWAP1 PUSH2 0xCA0 JUMP JUMPDEST PUSH2 0x776 JUMP JUMPDEST PUSH1 0x40 MLOAD PUSH2 0x1AB SWAP2 SWAP1 PUSH2 0xE5C JUMP JUMPDEST PUSH1 0x40 MLOAD DUP1 SWAP2 SUB SWAP1 RETURN JUMPDEST PUSH2 0x1BC PUSH2 0x7BE JUMP JUMPDEST PUSH1 0x40 MLOAD PUSH2 0x1C9 SWAP2 SWAP1 PUSH2 0xE3A JUMP JUMPDEST PUSH1 0x40 MLOAD DUP1 SWAP2 SUB SWAP1 RETURN JUMPDEST PUSH2 0x1EC PUSH1 0x4 DUP1 CALLDATASIZE SUB DUP2 ADD SWAP1 PUSH2 0x1E7 SWAP2 SWAP1 PUSH2 0xD54 JUMP JUMPDEST PUSH2 0x7F7 JUMP JUMPDEST PUSH1 0x40 MLOAD PUSH2 0x1F9 SWAP2 SWAP1 PUSH2 0xE1F JUMP JUMPDEST PUSH1 0x40 MLOAD DUP1 SWAP2 SUB SWAP1 RETURN JUMPDEST PUSH2 0x21C PUSH1 0x4 DUP1 CALLDATASIZE SUB DUP2 ADD SWAP1 PUSH2 0x217 SWAP2 SWAP1 PUSH2 0xCC9 JUMP JUMPDEST PUSH2 0x9D9 JUMP JUMPDEST PUSH1 0x40 MLOAD PUSH2 0x229 SWAP2 SWAP1 PUSH2 0xE5C JUMP JUMPDEST PUSH1 0x40 MLOAD DUP1 SWAP2 SUB SWAP1 RETURN JUMPDEST PUSH2 0x24C PUSH1 0x4 DUP1 CALLDATASIZE SUB DUP2 ADD SWAP1 PUSH2 0x247 SWAP2 SWAP1 PUSH2 0xD05 JUMP JUMPDEST PUSH2 0xA60 JUMP JUMPDEST PUSH1 0x40 MLOAD PUSH2 0x259 SWAP2 SWAP1 PUSH2 0xE1F JUMP JUMPDEST PUSH1 0x40 MLOAD DUP1 SWAP2 SUB SWAP1 RETURN JUMPDEST PUSH1 0x40 MLOAD DUP1 PUSH1 0x40 ADD PUSH1 0x40 MSTORE DUP1 PUSH1 0xC DUP2 MSTORE PUSH1 0x20 ADD PUSH32 0x4552433230414B414C75676F0000000000000000000000000000000000000000 DUP2 MSTORE POP DUP2 JUMP JUMPDEST PUSH1 0x0 DUP2 PUSH1 0x1 PUSH1 0x0 CALLER PUSH20 0xFFFFFFFFFFFFFFFFFFFFFFFFFFFFFFFFFFFFFFFF AND PUSH20 0xFFFFFFFFFFFFFFFFFFFFFFFFFFFFFFFFFFFFFFFF AND DUP2 MSTORE PUSH1 0x20 ADD SWAP1 DUP2 MSTORE PUSH1 0x20 ADD PUSH1 0x0 KECCAK256 PUSH1 0x0 DUP6 PUSH20 0xFFFFFFFFFFFFFFFFFFFFFFFFFFFFFFFFFFFFFFFF AND PUSH20 0xFFFFFFFFFFFFFFFFFFFFFFFFFFFFFFFFFFFFFFFF AND DUP2 MSTORE PUSH1 0x20 ADD SWAP1 DUP2 MSTORE PUSH1 0x20 ADD PUSH1 0x0 KECCAK256 DUP2 SWAP1 SSTORE POP DUP3 PUSH20 0xFFFFFFFFFFFFFFFFFFFFFFFFFFFFFFFFFFFFFFFF AND CALLER PUSH20 0xFFFFFFFFFFFFFFFFFFFFFFFFFFFFFFFFFFFFFFFF AND PUSH32 0x8C5BE1E5EBEC7D5BD14F71427D1E84F3DD0314C0F7B2291E5B200AC8C7C3B925 DUP5 PUSH1 0x40 MLOAD PUSH2 0x37B SWAP2 SWAP1 PUSH2 0xE5C JUMP JUMPDEST PUSH1 0x40 MLOAD DUP1 SWAP2 SUB SWAP1 LOG3 PUSH1 0x1 SWAP1 POP SWAP3 SWAP2 POP POP JUMP JUMPDEST PUSH1 0x0 PUSH1 0x2 SLOAD SWAP1 POP SWAP1 JUMP JUMPDEST DUP1 PUSH1 0x2 PUSH1 0x0 DUP3 DUP3 SLOAD ADD SWAP3 POP POP DUP2 SWAP1 SSTORE POP DUP1 PUSH1 0x0 DUP1 CALLER PUSH20 0xFFFFFFFFFFFFFFFFFFFFFFFFFFFFFFFFFFFFFFFF AND PUSH20 0xFFFFFFFFFFFFFFFFFFFFFFFFFFFFFFFFFFFFFFFF AND DUP2 MSTORE PUSH1 0x20 ADD SWAP1 DUP2 MSTORE PUSH1 0x20 ADD PUSH1 0x0 KECCAK256 PUSH1 0x0 DUP3 DUP3 SLOAD ADD SWAP3 POP POP DUP2 SWAP1 SSTORE POP POP JUMP JUMPDEST PUSH1 0x0 DUP2 PUSH1 0x0 DUP1 DUP7 PUSH20 0xFFFFFFFFFFFFFFFFFFFFFFFFFFFFFFFFFFFFFFFF AND PUSH20 0xFFFFFFFFFFFFFFFFFFFFFFFFFFFFFFFFFFFFFFFF AND DUP2 MSTORE PUSH1 0x20 ADD SWAP1 DUP2 MSTORE PUSH1 0x20 ADD PUSH1 0x0 KECCAK256 SLOAD LT ISZERO PUSH2 0x443 JUMPI PUSH1 0x0 DUP1 REVERT JUMPDEST DUP2 PUSH1 0x1 PUSH1 0x0 DUP7 PUSH20 0xFFFFFFFFFFFFFFFFFFFFFFFFFFFFFFFFFFFFFFFF AND PUSH20 0xFFFFFFFFFFFFFFFFFFFFFFFFFFFFFFFFFFFFFFFF AND DUP2 MSTORE PUSH1 0x20 ADD SWAP1 DUP2 MSTORE PUSH1 0x20 ADD PUSH1 0x0 KECCAK256 PUSH1 0x0 CALLER PUSH20 0xFFFFFFFFFFFFFFFFFFFFFFFFFFFFFFFFFFFFFFFF AND PUSH20 0xFFFFFFFFFFFFFFFFFFFFFFFFFFFFFFFFFFFFFFFF AND DUP2 MSTORE PUSH1 0x20 ADD SWAP1 DUP2 MSTORE PUSH1 0x20 ADD PUSH1 0x0 KECCAK256 SLOAD LT ISZERO PUSH2 0x4CC JUMPI PUSH1 0x0 DUP1 REVERT JUMPDEST PUSH2 0x51D DUP3 PUSH1 0x0 DUP1 DUP8 PUSH20 0xFFFFFFFFFFFFFFFFFFFFFFFFFFFFFFFFFFFFFFFF AND PUSH20 0xFFFFFFFFFFFFFFFFFFFFFFFFFFFFFFFFFFFFFFFF AND DUP2 MSTORE PUSH1 0x20 ADD SWAP1 DUP2 MSTORE PUSH1 0x20 ADD PUSH1 0x0 KECCAK256 SLOAD PUSH2 0xC43 SWAP1 SWAP2 SWAP1 PUSH4 0xFFFFFFFF AND JUMP JUMPDEST PUSH1 0x0 DUP1 DUP7 PUSH20 0xFFFFFFFFFFFFFFFFFFFFFFFFFFFFFFFFFFFFFFFF AND PUSH20 0xFFFFFFFFFFFFFFFFFFFFFFFFFFFFFFFFFFFFFFFF AND DUP2 MSTORE PUSH1 0x20 ADD SWAP1 DUP2 MSTORE PUSH1 0x20 ADD PUSH1 0x0 KECCAK256 DUP2 SWAP1 SSTORE POP PUSH2 0x5EE DUP3 PUSH1 0x1 PUSH1 0x0 DUP8 PUSH20 0xFFFFFFFFFFFFFFFFFFFFFFFFFFFFFFFFFFFFFFFF AND PUSH20 0xFFFFFFFFFFFFFFFFFFFFFFFFFFFFFFFFFFFFFFFF AND DUP2 MSTORE PUSH1 0x20 ADD SWAP1 DUP2 MSTORE PUSH1 0x20 ADD PUSH1 0x0 KECCAK256 PUSH1 0x0 CALLER PUSH20 0xFFFFFFFFFFFFFFFFFFFFFFFFFFFFFFFFFFFFFFFF AND PUSH20 0xFFFFFFFFFFFFFFFFFFFFFFFFFFFFFFFFFFFFFFFF AND DUP2 MSTORE PUSH1 0x20 ADD SWAP1 DUP2 MSTORE PUSH1 0x20 ADD PUSH1 0x0 KECCAK256 SLOAD PUSH2 0xC43 SWAP1 SWAP2 SWAP1 PUSH4 0xFFFFFFFF AND JUMP JUMPDEST PUSH1 0x1 PUSH1 0x0 DUP7 PUSH20 0xFFFFFFFFFFFFFFFFFFFFFFFFFFFFFFFFFFFFFFFF AND PUSH20 0xFFFFFFFFFFFFFFFFFFFFFFFFFFFFFFFFFFFFFFFF AND DUP2 MSTORE PUSH1 0x20 ADD SWAP1 DUP2 MSTORE PUSH1 0x20 ADD PUSH1 0x0 KECCAK256 PUSH1 0x0 CALLER PUSH20 0xFFFFFFFFFFFFFFFFFFFFFFFFFFFFFFFFFFFFFFFF AND PUSH20 0xFFFFFFFFFFFFFFFFFFFFFFFFFFFFFFFFFFFFFFFF AND DUP2 MSTORE PUSH1 0x20 ADD SWAP1 DUP2 MSTORE PUSH1 0x20 ADD PUSH1 0x0 KECCAK256 DUP2 SWAP1 SSTORE POP PUSH2 0x6BF DUP3 PUSH1 0x0 DUP1 DUP7 PUSH20 0xFFFFFFFFFFFFFFFFFFFFFFFFFFFFFFFFFFFFFFFF AND PUSH20 0xFFFFFFFFFFFFFFFFFFFFFFFFFFFFFFFFFFFFFFFF AND DUP2 MSTORE PUSH1 0x20 ADD SWAP1 DUP2 MSTORE PUSH1 0x20 ADD PUSH1 0x0 KECCAK256 SLOAD PUSH2 0xC5A SWAP1 SWAP2 SWAP1 PUSH4 0xFFFFFFFF AND JUMP JUMPDEST PUSH1 0x0 DUP1 DUP6 PUSH20 0xFFFFFFFFFFFFFFFFFFFFFFFFFFFFFFFFFFFFFFFF AND PUSH20 0xFFFFFFFFFFFFFFFFFFFFFFFFFFFFFFFFFFFFFFFF AND DUP2 MSTORE PUSH1 0x20 ADD SWAP1 DUP2 MSTORE PUSH1 0x20 ADD PUSH1 0x0 KECCAK256 DUP2 SWAP1 SSTORE POP DUP3 PUSH20 0xFFFFFFFFFFFFFFFFFFFFFFFFFFFFFFFFFFFFFFFF AND DUP5 PUSH20 0xFFFFFFFFFFFFFFFFFFFFFFFFFFFFFFFFFFFFFFFF AND PUSH32 0xDDF252AD1BE2C89B69C2B068FC378DAA952BA7F163C4A11628F55A4DF523B3EF DUP5 PUSH1 0x40 MLOAD PUSH2 0x75E SWAP2 SWAP1 PUSH2 0xE5C JUMP JUMPDEST PUSH1 0x40 MLOAD DUP1 SWAP2 SUB SWAP1 LOG3 PUSH1 0x1 SWAP1 POP SWAP4 SWAP3 POP POP POP JUMP JUMPDEST PUSH1 0x12 DUP2 JUMP JUMPDEST PUSH1 0x0 DUP1 PUSH1 0x0 DUP4 PUSH20 0xFFFFFFFFFFFFFFFFFFFFFFFFFFFFFFFFFFFFFFFF AND PUSH20 0xFFFFFFFFFFFFFFFFFFFFFFFFFFFFFFFFFFFFFFFF AND DUP2 MSTORE PUSH1 0x20 ADD SWAP1 DUP2 MSTORE PUSH1 0x20 ADD PUSH1 0x0 KECCAK256 SLOAD SWAP1 POP SWAP2 SWAP1 POP JUMP JUMPDEST PUSH1 0x40 MLOAD DUP1 PUSH1 0x40 ADD PUSH1 0x40 MSTORE DUP1 PUSH1 0x3 DUP2 MSTORE PUSH1 0x20 ADD PUSH32 0x414B410000000000000000000000000000000000000000000000000000000000 DUP2 MSTORE POP DUP2 JUMP JUMPDEST PUSH1 0x0 DUP1 PUSH1 0x0 CALLER PUSH20 0xFFFFFFFFFFFFFFFFFFFFFFFFFFFFFFFFFFFFFFFF AND PUSH20 0xFFFFFFFFFFFFFFFFFFFFFFFFFFFFFFFFFFFFFFFF AND DUP2 MSTORE PUSH1 0x20 ADD SWAP1 DUP2 MSTORE PUSH1 0x20 ADD PUSH1 0x0 KECCAK256 SLOAD DUP3 GT ISZERO PUSH2 0x844 JUMPI PUSH1 0x0 DUP1 REVERT JUMPDEST PUSH2 0x895 DUP3 PUSH1 0x0 DUP1 CALLER PUSH20 0xFFFFFFFFFFFFFFFFFFFFFFFFFFFFFFFFFFFFFFFF AND PUSH20 0xFFFFFFFFFFFFFFFFFFFFFFFFFFFFFFFFFFFFFFFF AND DUP2 MSTORE PUSH1 0x20 ADD SWAP1 DUP2 MSTORE PUSH1 0x20 ADD PUSH1 0x0 KECCAK256 SLOAD PUSH2 0xC43 SWAP1 SWAP2 SWAP1 PUSH4 0xFFFFFFFF AND JUMP JUMPDEST PUSH1 0x0 DUP1 CALLER PUSH20 0xFFFFFFFFFFFFFFFFFFFFFFFFFFFFFFFFFFFFFFFF AND PUSH20 0xFFFFFFFFFFFFFFFFFFFFFFFFFFFFFFFFFFFFFFFF AND DUP2 MSTORE PUSH1 0x20 ADD SWAP1 DUP2 MSTORE PUSH1 0x20 ADD PUSH1 0x0 KECCAK256 DUP2 SWAP1 SSTORE POP PUSH2 0x928 DUP3 PUSH1 0x0 DUP1 DUP7 PUSH20 0xFFFFFFFFFFFFFFFFFFFFFFFFFFFFFFFFFFFFFFFF AND PUSH20 0xFFFFFFFFFFFFFFFFFFFFFFFFFFFFFFFFFFFFFFFF AND DUP2 MSTORE PUSH1 0x20 ADD SWAP1 DUP2 MSTORE PUSH1 0x20 ADD PUSH1 0x0 KECCAK256 SLOAD PUSH2 0xC5A SWAP1 SWAP2 SWAP1 PUSH4 0xFFFFFFFF AND JUMP JUMPDEST PUSH1 0x0 DUP1 DUP6 PUSH20 0xFFFFFFFFFFFFFFFFFFFFFFFFFFFFFFFFFFFFFFFF AND PUSH20 0xFFFFFFFFFFFFFFFFFFFFFFFFFFFFFFFFFFFFFFFF AND DUP2 MSTORE PUSH1 0x20 ADD SWAP1 DUP2 MSTORE PUSH1 0x20 ADD PUSH1 0x0 KECCAK256 DUP2 SWAP1 SSTORE POP DUP3 PUSH20 0xFFFFFFFFFFFFFFFFFFFFFFFFFFFFFFFFFFFFFFFF AND CALLER PUSH20 0xFFFFFFFFFFFFFFFFFFFFFFFFFFFFFFFFFFFFFFFF AND PUSH32 0xDDF252AD1BE2C89B69C2B068FC378DAA952BA7F163C4A11628F55A4DF523B3EF DUP5 PUSH1 0x40 MLOAD PUSH2 0x9C7 SWAP2 SWAP1 PUSH2 0xE5C JUMP JUMPDEST PUSH1 0x40 MLOAD DUP1 SWAP2 SUB SWAP1 LOG3 PUSH1 0x1 SWAP1 POP SWAP3 SWAP2 POP POP JUMP JUMPDEST PUSH1 0x0 PUSH1 0x1 PUSH1 0x0 DUP5 PUSH20 0xFFFFFFFFFFFFFFFFFFFFFFFFFFFFFFFFFFFFFFFF AND PUSH20 0xFFFFFFFFFFFFFFFFFFFFFFFFFFFFFFFFFFFFFFFF AND DUP2 MSTORE PUSH1 0x20 ADD SWAP1 DUP2 MSTORE PUSH1 0x20 ADD PUSH1 0x0 KECCAK256 PUSH1 0x0 DUP4 PUSH20 0xFFFFFFFFFFFFFFFFFFFFFFFFFFFFFFFFFFFFFFFF AND PUSH20 0xFFFFFFFFFFFFFFFFFFFFFFFFFFFFFFFFFFFFFFFF AND DUP2 MSTORE PUSH1 0x20 ADD SWAP1 DUP2 MSTORE PUSH1 0x20 ADD PUSH1 0x0 KECCAK256 SLOAD SWAP1 POP SWAP3 SWAP2 POP POP JUMP JUMPDEST PUSH1 0x0 DUP1 PUSH1 0x0 DUP6 PUSH20 0xFFFFFFFFFFFFFFFFFFFFFFFFFFFFFFFFFFFFFFFF AND PUSH20 0xFFFFFFFFFFFFFFFFFFFFFFFFFFFFFFFFFFFFFFFF AND DUP2 MSTORE PUSH1 0x20 ADD SWAP1 DUP2 MSTORE PUSH1 0x20 ADD PUSH1 0x0 KECCAK256 SLOAD DUP3 GT ISZERO PUSH2 0xAAD JUMPI PUSH1 0x0 DUP1 REVERT JUMPDEST PUSH2 0xAFE DUP3 PUSH1 0x0 DUP1 DUP8 PUSH20 0xFFFFFFFFFFFFFFFFFFFFFFFFFFFFFFFFFFFFFFFF AND PUSH20 0xFFFFFFFFFFFFFFFFFFFFFFFFFFFFFFFFFFFFFFFF AND DUP2 MSTORE PUSH1 0x20 ADD SWAP1 DUP2 MSTORE PUSH1 0x20 ADD PUSH1 0x0 KECCAK256 SLOAD PUSH2 0xC43 SWAP1 SWAP2 SWAP1 PUSH4 0xFFFFFFFF AND JUMP JUMPDEST PUSH1 0x0 DUP1 DUP7 PUSH20 0xFFFFFFFFFFFFFFFFFFFFFFFFFFFFFFFFFFFFFFFF AND PUSH20 0xFFFFFFFFFFFFFFFFFFFFFFFFFFFFFFFFFFFFFFFF AND DUP2 MSTORE PUSH1 0x20 ADD SWAP1 DUP2 MSTORE PUSH1 0x20 ADD PUSH1 0x0 KECCAK256 DUP2 SWAP1 SSTORE POP PUSH2 0xB91 DUP3 PUSH1 0x0 DUP1 DUP7 PUSH20 0xFFFFFFFFFFFFFFFFFFFFFFFFFFFFFFFFFFFFFFFF AND PUSH20 0xFFFFFFFFFFFFFFFFFFFFFFFFFFFFFFFFFFFFFFFF AND DUP2 MSTORE PUSH1 0x20 ADD SWAP1 DUP2 MSTORE PUSH1 0x20 ADD PUSH1 0x0 KECCAK256 SLOAD PUSH2 0xC5A SWAP1 SWAP2 SWAP1 PUSH4 0xFFFFFFFF AND JUMP JUMPDEST PUSH1 0x0 DUP1 DUP6 PUSH20 0xFFFFFFFFFFFFFFFFFFFFFFFFFFFFFFFFFFFFFFFF AND PUSH20 0xFFFFFFFFFFFFFFFFFFFFFFFFFFFFFFFFFFFFFFFF AND DUP2 MSTORE PUSH1 0x20 ADD SWAP1 DUP2 MSTORE PUSH1 0x20 ADD PUSH1 0x0 KECCAK256 DUP2 SWAP1 SSTORE POP DUP3 PUSH20 0xFFFFFFFFFFFFFFFFFFFFFFFFFFFFFFFFFFFFFFFF AND DUP5 PUSH20 0xFFFFFFFFFFFFFFFFFFFFFFFFFFFFFFFFFFFFFFFF AND PUSH32 0xDDF252AD1BE2C89B69C2B068FC378DAA952BA7F163C4A11628F55A4DF523B3EF DUP5 PUSH1 0x40 MLOAD PUSH2 0xC30 SWAP2 SWAP1 PUSH2 0xE5C JUMP JUMPDEST PUSH1 0x40 MLOAD DUP1 SWAP2 SUB SWAP1 LOG3 PUSH1 0x1 SWAP1 POP SWAP4 SWAP3 POP POP POP JUMP JUMPDEST PUSH1 0x0 DUP3 DUP3 GT ISZERO PUSH2 0xC4F JUMPI INVALID JUMPDEST DUP2 DUP4 SUB SWAP1 POP SWAP3 SWAP2 POP POP JUMP JUMPDEST PUSH1 0x0 DUP1 DUP3 DUP5 ADD SWAP1 POP DUP4 DUP2 LT ISZERO PUSH2 0xC6C JUMPI INVALID JUMPDEST DUP1 SWAP2 POP POP SWAP3 SWAP2 POP POP JUMP JUMPDEST PUSH1 0x0 DUP2 CALLDATALOAD SWAP1 POP PUSH2 0xC85 DUP2 PUSH2 0xF47 JUMP JUMPDEST SWAP3 SWAP2 POP POP JUMP JUMPDEST PUSH1 0x0 DUP2 CALLDATALOAD SWAP1 POP PUSH2 0xC9A DUP2 PUSH2 0xF5E JUMP JUMPDEST SWAP3 SWAP2 POP POP JUMP JUMPDEST PUSH1 0x0 PUSH1 0x20 DUP3 DUP5 SUB SLT ISZERO PUSH2 0xCB2 JUMPI PUSH1 0x0 DUP1 REVERT JUMPDEST PUSH1 0x0 PUSH2 0xCC0 DUP5 DUP3 DUP6 ADD PUSH2 0xC76 JUMP JUMPDEST SWAP2 POP POP SWAP3 SWAP2 POP POP JUMP JUMPDEST PUSH1 0x0 DUP1 PUSH1 0x40 DUP4 DUP6 SUB SLT ISZERO PUSH2 0xCDC JUMPI PUSH1 0x0 DUP1 REVERT JUMPDEST PUSH1 0x0 PUSH2 0xCEA DUP6 DUP3 DUP7 ADD PUSH2 0xC76 JUMP JUMPDEST SWAP3 POP POP PUSH1 0x20 PUSH2 0xCFB DUP6 DUP3 DUP7 ADD PUSH2 0xC76 JUMP JUMPDEST SWAP2 POP POP SWAP3 POP SWAP3 SWAP1 POP JUMP JUMPDEST PUSH1 0x0 DUP1 PUSH1 0x0 PUSH1 0x60 DUP5 DUP7 SUB SLT ISZERO PUSH2 0xD1A JUMPI PUSH1 0x0 DUP1 REVERT JUMPDEST PUSH1 0x0 PUSH2 0xD28 DUP7 DUP3 DUP8 ADD PUSH2 0xC76 JUMP JUMPDEST SWAP4 POP POP PUSH1 0x20 PUSH2 0xD39 DUP7 DUP3 DUP8 ADD PUSH2 0xC76 JUMP JUMPDEST SWAP3 POP POP PUSH1 0x40 PUSH2 0xD4A DUP7 DUP3 DUP8 ADD PUSH2 0xC8B JUMP JUMPDEST SWAP2 POP POP SWAP3 POP SWAP3 POP SWAP3 JUMP JUMPDEST PUSH1 0x0 DUP1 PUSH1 0x40 DUP4 DUP6 SUB SLT ISZERO PUSH2 0xD67 JUMPI PUSH1 0x0 DUP1 REVERT JUMPDEST PUSH1 0x0 PUSH2 0xD75 DUP6 DUP3 DUP7 ADD PUSH2 0xC76 JUMP JUMPDEST SWAP3 POP POP PUSH1 0x20 PUSH2 0xD86 DUP6 DUP3 DUP7 ADD PUSH2 0xC8B JUMP JUMPDEST SWAP2 POP POP SWAP3 POP SWAP3 SWAP1 POP JUMP JUMPDEST PUSH1 0x0 PUSH1 0x20 DUP3 DUP5 SUB SLT ISZERO PUSH2 0xDA2 JUMPI PUSH1 0x0 DUP1 REVERT JUMPDEST PUSH1 0x0 PUSH2 0xDB0 DUP5 DUP3 DUP6 ADD PUSH2 0xC8B JUMP JUMPDEST SWAP2 POP POP SWAP3 SWAP2 POP POP JUMP JUMPDEST PUSH2 0xDC2 DUP2 PUSH2 0xEC0 JUMP JUMPDEST DUP3 MSTORE POP POP JUMP JUMPDEST PUSH1 0x0 PUSH2 0xDD3 DUP3 PUSH2 0xE92 JUMP JUMPDEST PUSH2 0xDDD DUP2 DUP6 PUSH2 0xE9D JUMP JUMPDEST SWAP4 POP PUSH2 0xDED DUP2 DUP6 PUSH1 0x20 DUP7 ADD PUSH2 0xF03 JUMP JUMPDEST PUSH2 0xDF6 DUP2 PUSH2 0xF36 JUMP JUMPDEST DUP5 ADD SWAP2 POP POP SWAP3 SWAP2 POP POP JUMP JUMPDEST PUSH2 0xE0A DUP2 PUSH2 0xEEC JUMP JUMPDEST DUP3 MSTORE POP POP JUMP JUMPDEST PUSH2 0xE19 DUP2 PUSH2 0xEF6 JUMP JUMPDEST DUP3 MSTORE POP POP JUMP JUMPDEST PUSH1 0x0 PUSH1 0x20 DUP3 ADD SWAP1 POP PUSH2 0xE34 PUSH1 0x0 DUP4 ADD DUP5 PUSH2 0xDB9 JUMP JUMPDEST SWAP3 SWAP2 POP POP JUMP JUMPDEST PUSH1 0x0 PUSH1 0x20 DUP3 ADD SWAP1 POP DUP2 DUP2 SUB PUSH1 0x0 DUP4 ADD MSTORE PUSH2 0xE54 DUP2 DUP5 PUSH2 0xDC8 JUMP JUMPDEST SWAP1 POP SWAP3 SWAP2 POP POP JUMP JUMPDEST PUSH1 0x0 PUSH1 0x20 DUP3 ADD SWAP1 POP PUSH2 0xE71 PUSH1 0x0 DUP4 ADD DUP5 PUSH2 0xE01 JUMP JUMPDEST SWAP3 SWAP2 POP POP JUMP JUMPDEST PUSH1 0x0 PUSH1 0x20 DUP3 ADD SWAP1 POP PUSH2 0xE8C PUSH1 0x0 DUP4 ADD DUP5 PUSH2 0xE10 JUMP JUMPDEST SWAP3 SWAP2 POP POP JUMP JUMPDEST PUSH1 0x0 DUP2 MLOAD SWAP1 POP SWAP2 SWAP1 POP JUMP JUMPDEST PUSH1 0x0 DUP3 DUP3 MSTORE PUSH1 0x20 DUP3 ADD SWAP1 POP SWAP3 SWAP2 POP POP JUMP JUMPDEST PUSH1 0x0 PUSH2 0xEB9 DUP3 PUSH2 0xECC JUMP JUMPDEST SWAP1 POP SWAP2 SWAP1 POP JUMP JUMPDEST PUSH1 0x0 DUP2 ISZERO ISZERO SWAP1 POP SWAP2 SWAP1 POP JUMP JUMPDEST PUSH1 0x0 PUSH20 0xFFFFFFFFFFFFFFFFFFFFFFFFFFFFFFFFFFFFFFFF DUP3 AND SWAP1 POP SWAP2 SWAP1 POP JUMP JUMPDEST PUSH1 0x0 DUP2 SWAP1 POP SWAP2 SWAP1 POP JUMP JUMPDEST PUSH1 0x0 PUSH1 0xFF DUP3 AND SWAP1 POP SWAP2 SWAP1 POP JUMP JUMPDEST PUSH1 0x0 JUMPDEST DUP4 DUP2 LT ISZERO PUSH2 0xF21 JUMPI DUP1 DUP3 ADD MLOAD DUP2 DUP5 ADD MSTORE PUSH1 0x20 DUP2 ADD SWAP1 POP PUSH2 0xF06 JUMP JUMPDEST DUP4 DUP2 GT ISZERO PUSH2 0xF30 JUMPI PUSH1 0x0 DUP5 DUP5 ADD MSTORE JUMPDEST POP POP POP POP JUMP JUMPDEST PUSH1 0x0 PUSH1 0x1F NOT PUSH1 0x1F DUP4 ADD AND SWAP1 POP SWAP2 SWAP1 POP JUMP JUMPDEST PUSH2 0xF50 DUP2 PUSH2 0xEAE JUMP JUMPDEST DUP2 EQ PUSH2 0xF5B JUMPI PUSH1 0x0 DUP1 REVERT JUMPDEST POP JUMP JUMPDEST PUSH2 0xF67 DUP2 PUSH2 0xEEC JUMP JUMPDEST DUP2 EQ PUSH2 0xF72 JUMPI PUSH1 0x0 DUP1 REVERT JUMPDEST POP JUMP INVALID LOG2 PUSH5 0x6970667358 0x22 SLT KECCAK256 0xD1 0xE3 0xD3 0xC3 0xF7 PUSH32 0xAD064F586602821A970A7535E4415A8535037271B3C5FE61C0A364736F6C6343 STOP MOD 0xC STOP CALLER "
		},
		"gasEstimates": {
			"creation": {
				"codeDepositCost": "1902800",
				"executionCost": "infinite",
				"totalCost": "infinite"
			},
			"external": {
				"AtraccionesDisponibles()": "infinite",
				"BajarAtraccion(string)": "infinite",
				"BalanceOf()": "infinite",
				"Clientes(address)": "1550",
				"CompraTokens(uint256)": "infinite",
				"DevolverTokens(uint256)": "infinite",
				"GenerarTokens(uint256)": "infinite",
				"Historial()": "infinite",
				"MappingAtracciones(string)": "infinite",
				"MisTokens()": "infinite",
				"NuevaAtraccion(string,uint256)": "infinite",
				"SubirAtraccion(string)": "infinite",
				"SubirseAtraccion(string)": "infinite",
				"owner()": "1303"
			},
			"internal": {
				"PrecioTokens(uint256)": "36"
			}
		},
		"methodIdentifiers": {
			"AtraccionesDisponibles()": "1fccb33c",
			"BajarAtraccion(string)": "a2094159",
			"BalanceOf()": "9a3174a0",
			"Clientes(address)": "ce8f2f38",
			"CompraTokens(uint256)": "f7774091",
			"DevolverTokens(uint256)": "1890154c",
			"GenerarTokens(uint256)": "7c1b38bf",
			"Historial()": "6b8f8e15",
			"MappingAtracciones(string)": "d00df296",
			"MisTokens()": "e33f34a0",
			"NuevaAtraccion(string,uint256)": "2076b56c",
			"SubirAtraccion(string)": "a9862fab",
			"SubirseAtraccion(string)": "12b91846",
			"owner()": "8da5cb5b"
		}
	},
	"abi": [
		{
			"inputs": [],
			"stateMutability": "nonpayable",
			"type": "constructor"
		},
		{
			"anonymous": false,
			"inputs": [
				{
					"indexed": false,
					"internalType": "string",
					"name": "",
					"type": "string"
				}
			],
			"name": "baja_atraccion",
			"type": "event"
		},
		{
			"anonymous": false,
			"inputs": [
				{
					"indexed": false,
					"internalType": "string",
					"name": "",
					"type": "string"
				}
			],
			"name": "disfruta_atraccion",
			"type": "event"
		},
		{
			"anonymous": false,
			"inputs": [
				{
					"indexed": false,
					"internalType": "string",
					"name": "",
					"type": "string"
				},
				{
					"indexed": false,
					"internalType": "uint256",
					"name": "",
					"type": "uint256"
				}
			],
			"name": "nueva_atraccion",
			"type": "event"
		},
		{
			"anonymous": false,
			"inputs": [
				{
					"indexed": false,
					"internalType": "string",
					"name": "",
					"type": "string"
				}
			],
			"name": "subir_atraccion",
			"type": "event"
		},
		{
			"inputs": [],
			"name": "AtraccionesDisponibles",
			"outputs": [
				{
					"internalType": "string",
					"name": "",
					"type": "string"
				}
			],
			"stateMutability": "view",
			"type": "function"
		},
		{
			"inputs": [
				{
					"internalType": "string",
					"name": "_nombreAtraccion",
					"type": "string"
				}
			],
			"name": "BajarAtraccion",
			"outputs": [],
			"stateMutability": "nonpayable",
			"type": "function"
		},
		{
			"inputs": [],
			"name": "BalanceOf",
			"outputs": [
				{
					"internalType": "uint256",
					"name": "",
					"type": "uint256"
				}
			],
			"stateMutability": "view",
			"type": "function"
		},
		{
			"inputs": [
				{
					"internalType": "address",
					"name": "",
					"type": "address"
				}
			],
			"name": "Clientes",
			"outputs": [
				{
					"internalType": "uint256",
					"name": "token_comprado",
					"type": "uint256"
				}
			],
			"stateMutability": "view",
			"type": "function"
		},
		{
			"inputs": [
				{
					"internalType": "uint256",
					"name": "_numTokens",
					"type": "uint256"
				}
			],
			"name": "CompraTokens",
			"outputs": [],
			"stateMutability": "payable",
			"type": "function"
		},
		{
			"inputs": [
				{
					"internalType": "uint256",
					"name": "_numTokens",
					"type": "uint256"
				}
			],
			"name": "DevolverTokens",
			"outputs": [],
			"stateMutability": "payable",
			"type": "function"
		},
		{
			"inputs": [
				{
					"internalType": "uint256",
					"name": "_numTokens",
					"type": "uint256"
				}
			],
			"name": "GenerarTokens",
			"outputs": [],
			"stateMutability": "nonpayable",
			"type": "function"
		},
		{
			"inputs": [],
			"name": "Historial",
			"outputs": [
				{
					"internalType": "string[]",
					"name": "",
					"type": "string[]"
				}
			],
			"stateMutability": "view",
			"type": "function"
		},
		{
			"inputs": [
				{
					"internalType": "string",
					"name": "",
					"type": "string"
				}
			],
			"name": "MappingAtracciones",
			"outputs": [
				{
					"internalType": "string",
					"name": "nombre",
					"type": "string"
				},
				{
					"internalType": "uint256",
					"name": "precio",
					"type": "uint256"
				},
				{
					"internalType": "bool",
					"name": "estado",
					"type": "bool"
				}
			],
			"stateMutability": "view",
			"type": "function"
		},
		{
			"inputs": [],
			"name": "MisTokens",
			"outputs": [
				{
					"internalType": "uint256",
					"name": "",
					"type": "uint256"
				}
			],
			"stateMutability": "view",
			"type": "function"
		},
		{
			"inputs": [
				{
					"internalType": "string",
					"name": "_nombreAtraccion",
					"type": "string"
				},
				{
					"internalType": "uint256",
					"name": "_precio",
					"type": "uint256"
				}
			],
			"name": "NuevaAtraccion",
			"outputs": [],
			"stateMutability": "nonpayable",
			"type": "function"
		},
		{
			"inputs": [
				{
					"internalType": "string",
					"name": "_nombreAtraccion",
					"type": "string"
				}
			],
			"name": "SubirAtraccion",
			"outputs": [],
			"stateMutability": "nonpayable",
			"type": "function"
		},
		{
			"inputs": [
				{
					"internalType": "string",
					"name": "_nombreAtraccion",
					"type": "string"
				}
			],
			"name": "SubirseAtraccion",
			"outputs": [],
			"stateMutability": "nonpayable",
			"type": "function"
		},
		{
			"inputs": [],
			"name": "owner",
			"outputs": [
				{
					"internalType": "address payable",
					"name": "",
					"type": "address"
				}
			],
			"stateMutability": "view",
			"type": "function"
		}
	]
}