{
	"Disney/disney.sol": {
		"Disney": {
			"abi": [
				{
					"inputs": [],
					"stateMutability": "nonpayable",
					"type": "constructor"
				},
				{
					"anonymous": false,
					"inputs": [
						{
							"indexed": false,
							"internalType": "string",
							"name": "",
							"type": "string"
						}
					],
					"name": "baja_atraccion",
					"type": "event"
				},
				{
					"anonymous": false,
					"inputs": [
						{
							"indexed": false,
							"internalType": "string",
							"name": "",
							"type": "string"
						}
					],
					"name": "disfruta_atraccion",
					"type": "event"
				},
				{
					"anonymous": false,
					"inputs": [
						{
							"indexed": false,
							"internalType": "string",
							"name": "",
							"type": "string"
						},
						{
							"indexed": false,
							"internalType": "uint256",
							"name": "",
							"type": "uint256"
						}
					],
					"name": "nueva_atraccion",
					"type": "event"
				},
				{
					"anonymous": false,
					"inputs": [
						{
							"indexed": false,
							"internalType": "string",
							"name": "",
							"type": "string"
						}
					],
					"name": "subir_atraccion",
					"type": "event"
				},
				{
					"inputs": [],
					"name": "AtraccionesDisponibles",
					"outputs": [
						{
							"internalType": "string",
							"name": "",
							"type": "string"
						}
					],
					"stateMutability": "view",
					"type": "function"
				},
				{
					"inputs": [
						{
							"internalType": "string",
							"name": "_nombreAtraccion",
							"type": "string"
						}
					],
					"name": "BajarAtraccion",
					"outputs": [],
					"stateMutability": "nonpayable",
					"type": "function"
				},
				{
					"inputs": [],
					"name": "BalanceOf",
					"outputs": [
						{
							"internalType": "uint256",
							"name": "",
							"type": "uint256"
						}
					],
					"stateMutability": "view",
					"type": "function"
				},
				{
					"inputs": [
						{
							"internalType": "address",
							"name": "",
							"type": "address"
						}
					],
					"name": "Clientes",
					"outputs": [
						{
							"internalType": "uint256",
							"name": "token_comprado",
							"type": "uint256"
						}
					],
					"stateMutability": "view",
					"type": "function"
				},
				{
					"inputs": [
						{
							"internalType": "uint256",
							"name": "_numTokens",
							"type": "uint256"
						}
					],
					"name": "CompraTokens",
					"outputs": [],
					"stateMutability": "payable",
					"type": "function"
				},
				{
					"inputs": [
						{
							"internalType": "uint256",
							"name": "_numTokens",
							"type": "uint256"
						}
					],
					"name": "DevolverTokens",
					"outputs": [],
					"stateMutability": "payable",
					"type": "function"
				},
				{
					"inputs": [
						{
							"internalType": "uint256",
							"name": "_numTokens",
							"type": "uint256"
						}
					],
					"name": "GenerarTokens",
					"outputs": [],
					"stateMutability": "nonpayable",
					"type": "function"
				},
				{
					"inputs": [],
					"name": "Historial",
					"outputs": [
						{
							"internalType": "string[]",
							"name": "",
							"type": "string[]"
						}
					],
					"stateMutability": "view",
					"type": "function"
				},
				{
					"inputs": [
						{
							"internalType": "string",
							"name": "",
							"type": "string"
						}
					],
					"name": "MappingAtracciones",
					"outputs": [
						{
							"internalType": "string",
							"name": "nombre",
							"type": "string"
						},
						{
							"internalType": "uint256",
							"name": "precio",
							"type": "uint256"
						},
						{
							"internalType": "bool",
							"name": "estado",
							"type": "bool"
						}
					],
					"stateMutability": "view",
					"type": "function"
				},
				{
					"inputs": [],
					"name": "MisTokens",
					"outputs": [
						{
							"internalType": "uint256",
							"name": "",
							"type": "uint256"
						}
					],
					"stateMutability": "view",
					"type": "function"
				},
				{
					"inputs": [
						{
							"internalType": "string",
							"name": "_nombreAtraccion",
							"type": "string"
						},
						{
							"internalType": "uint256",
							"name": "_precio",
							"type": "uint256"
						}
					],
					"name": "NuevaAtraccion",
					"outputs": [],
					"stateMutability": "nonpayable",
					"type": "function"
				},
				{
					"inputs": [
						{
							"internalType": "string",
							"name": "_nombreAtraccion",
							"type": "string"
						}
					],
					"name": "SubirAtraccion",
					"outputs": [],
					"stateMutability": "nonpayable",
					"type": "function"
				},
				{
					"inputs": [
						{
							"internalType": "string",
							"name": "_nombreAtraccion",
							"type": "string"
						}
					],
					"name": "SubirseAtraccion",
					"outputs": [],
					"stateMutability": "nonpayable",
					"type": "function"
				},
				{
					"inputs": [],
					"name": "owner",
					"outputs": [
						{
							"internalType": "address payable",
							"name": "",
							"type": "address"
						}
					],
					"stateMutability": "view",
					"type": "function"
				}
			],
			"devdoc": {
				"kind": "dev",
				"methods": {},
				"version": 1
			},
			"evm": {
				"assembly": "    /* \"Disney/disney.sol\":124:8332  contract Disney {\r... */\n  mstore(0x40, 0x80)\n    /* \"Disney/disney.sol\":634:731  constructor() public {\r... */\n  callvalue\n  dup1\n  iszero\n  tag_1\n  jumpi\n  0x00\n  dup1\n  revert\ntag_1:\n  pop\n    /* \"Disney/disney.sol\":689:693  1000 */\n  0x03e8\n    /* \"Disney/disney.sol\":674:694  new ERC20Basic(1000) */\n  mload(0x40)\n  tag_4\n  swap1\n  tag_5\n  jump\t// in\ntag_4:\n  tag_6\n  swap2\n  swap1\n  tag_7\n  jump\t// in\ntag_6:\n  mload(0x40)\n  dup1\n  swap2\n  sub\n  swap1\n  0x00\n  create\n  dup1\n  iszero\n  dup1\n  iszero\n  tag_8\n  jumpi\n  returndatasize\n  0x00\n  dup1\n  returndatacopy\n  revert(0x00, returndatasize)\ntag_8:\n  pop\n    /* \"Disney/disney.sol\":666:671  token */\n  0x00\n  dup1\n    /* \"Disney/disney.sol\":666:694  token = new ERC20Basic(1000) */\n  0x0100\n  exp\n  dup2\n  sload\n  dup2\n  0xffffffffffffffffffffffffffffffffffffffff\n  mul\n  not\n  and\n  swap1\n  dup4\n  0xffffffffffffffffffffffffffffffffffffffff\n  and\n  mul\n  or\n  swap1\n  sstore\n  pop\n    /* \"Disney/disney.sol\":713:723  msg.sender */\n  caller\n    /* \"Disney/disney.sol\":705:710  owner */\n  0x01\n  0x00\n    /* \"Disney/disney.sol\":705:723  owner = msg.sender */\n  0x0100\n  exp\n  dup2\n  sload\n  dup2\n  0xffffffffffffffffffffffffffffffffffffffff\n  mul\n  not\n  and\n  swap1\n  dup4\n  0xffffffffffffffffffffffffffffffffffffffff\n  and\n  mul\n  or\n  swap1\n  sstore\n  pop\n    /* \"Disney/disney.sol\":124:8332  contract Disney {\r... */\n  jump(tag_9)\ntag_5:\n  dataSize(sub_1)\n  dup1\n  dataOffset(sub_1)\n  dup4\n  codecopy\n  add\n  swap1\n  jump\t// out\n    /* \"--CODEGEN--\":5:153   */\ntag_11:\n    /* \"--CODEGEN--\":99:147   */\n  tag_13\n    /* \"--CODEGEN--\":141:146   */\n  dup2\n    /* \"--CODEGEN--\":99:147   */\n  tag_14\n  jump\t// in\ntag_13:\n    /* \"--CODEGEN--\":94:97   */\n  dup3\n    /* \"--CODEGEN--\":87:148   */\n  mstore\n    /* \"--CODEGEN--\":81:153   */\n  pop\n  pop\n  jump\t// out\n    /* \"--CODEGEN--\":160:404   */\ntag_7:\n  0x00\n    /* \"--CODEGEN--\":298:300   */\n  0x20\n    /* \"--CODEGEN--\":287:296   */\n  dup3\n    /* \"--CODEGEN--\":283:301   */\n  add\n    /* \"--CODEGEN--\":275:301   */\n  swap1\n  pop\n    /* \"--CODEGEN--\":312:394   */\n  tag_16\n    /* \"--CODEGEN--\":391:392   */\n  0x00\n    /* \"--CODEGEN--\":380:389   */\n  dup4\n    /* \"--CODEGEN--\":376:393   */\n  add\n    /* \"--CODEGEN--\":367:373   */\n  dup5\n    /* \"--CODEGEN--\":312:394   */\n  tag_11\n  jump\t// in\ntag_16:\n    /* \"--CODEGEN--\":269:404   */\n  swap3\n  swap2\n  pop\n  pop\n  jump\t// out\n    /* \"--CODEGEN--\":411:483   */\ntag_17:\n  0x00\n    /* \"--CODEGEN--\":473:478   */\n  dup2\n    /* \"--CODEGEN--\":462:478   */\n  swap1\n  pop\n    /* \"--CODEGEN--\":456:483   */\n  swap2\n  swap1\n  pop\n  jump\t// out\n    /* \"--CODEGEN--\":490:609   */\ntag_14:\n  0x00\n    /* \"--CODEGEN--\":580:604   */\n  tag_20\n    /* \"--CODEGEN--\":598:603   */\n  dup3\n    /* \"--CODEGEN--\":580:604   */\n  tag_17\n  jump\t// in\ntag_20:\n    /* \"--CODEGEN--\":567:604   */\n  swap1\n  pop\n    /* \"--CODEGEN--\":561:609   */\n  swap2\n  swap1\n  pop\n  jump\t// out\n    /* \"Disney/disney.sol\":124:8332  contract Disney {\r... */\ntag_9:\n  dataSize(sub_0)\n  dup1\n  dataOffset(sub_0)\n  0x00\n  codecopy\n  0x00\n  return\nstop\n\nsub_0: assembly {\n        /* \"Disney/disney.sol\":124:8332  contract Disney {\r... */\n      mstore(0x40, 0x80)\n      jumpi(tag_1, lt(calldatasize, 0x04))\n      shr(0xe0, calldataload(0x00))\n      dup1\n      0x9a3174a0\n      gt\n      tag_16\n      jumpi\n      dup1\n      0xce8f2f38\n      gt\n      tag_17\n      jumpi\n      dup1\n      0xce8f2f38\n      eq\n      tag_12\n      jumpi\n      dup1\n      0xd00df296\n      eq\n      tag_13\n      jumpi\n      dup1\n      0xe33f34a0\n      eq\n      tag_14\n      jumpi\n      dup1\n      0xf7774091\n      eq\n      tag_15\n      jumpi\n      jump(tag_1)\n    tag_17:\n      dup1\n      0x9a3174a0\n      eq\n      tag_9\n      jumpi\n      dup1\n      0xa2094159\n      eq\n      tag_10\n      jumpi\n      dup1\n      0xa9862fab\n      eq\n      tag_11\n      jumpi\n      jump(tag_1)\n    tag_16:\n      dup1\n      0x2076b56c\n      gt\n      tag_18\n      jumpi\n      dup1\n      0x2076b56c\n      eq\n      tag_5\n      jumpi\n      dup1\n      0x6b8f8e15\n      eq\n      tag_6\n      jumpi\n      dup1\n      0x7c1b38bf\n      eq\n      tag_7\n      jumpi\n      dup1\n      0x8da5cb5b\n      eq\n      tag_8\n      jumpi\n      jump(tag_1)\n    tag_18:\n      dup1\n      0x12b91846\n      eq\n      tag_2\n      jumpi\n      dup1\n      0x1890154c\n      eq\n      tag_3\n      jumpi\n      dup1\n      0x1fccb33c\n      eq\n      tag_4\n      jumpi\n    tag_1:\n      0x00\n      dup1\n      revert\n        /* \"Disney/disney.sol\":6314:7956  function SubirseAtraccion(string memory _nombreAtraccion) public {\r... */\n    tag_2:\n      callvalue\n      dup1\n      iszero\n      tag_19\n      jumpi\n      0x00\n      dup1\n      revert\n    tag_19:\n      pop\n      tag_20\n      0x04\n      dup1\n      calldatasize\n      sub\n      dup2\n      add\n      swap1\n      tag_21\n      swap2\n      swap1\n      tag_22\n      jump\t// in\n    tag_21:\n      tag_23\n      jump\t// in\n    tag_20:\n      stop\n        /* \"Disney/disney.sol\":8136:8329  function DevolverTokens(uint _numTokens) public payable {\r... */\n    tag_3:\n      tag_24\n      0x04\n      dup1\n      calldatasize\n      sub\n      dup2\n      add\n      swap1\n      tag_25\n      swap2\n      swap1\n      tag_26\n      jump\t// in\n    tag_25:\n      tag_27\n      jump\t// in\n    tag_24:\n      stop\n        /* \"Disney/disney.sol\":5869:6252  function AtraccionesDisponibles() public view returns (string memory) {\r... */\n    tag_4:\n      callvalue\n      dup1\n      iszero\n      tag_28\n      jumpi\n      0x00\n      dup1\n      revert\n    tag_28:\n      pop\n      tag_29\n      tag_30\n      jump\t// in\n    tag_29:\n      mload(0x40)\n      tag_31\n      swap2\n      swap1\n      tag_32\n      jump\t// in\n    tag_31:\n      mload(0x40)\n      dup1\n      swap2\n      sub\n      swap1\n      return\n        /* \"Disney/disney.sol\":3320:3747  function NuevaAtraccion(string memory _nombreAtraccion, uint _precio) public Unicamente(msg.sender) {\r... */\n    tag_5:\n      callvalue\n      dup1\n      iszero\n      tag_33\n      jumpi\n      0x00\n      dup1\n      revert\n    tag_33:\n      pop\n      tag_34\n      0x04\n      dup1\n      calldatasize\n      sub\n      dup2\n      add\n      swap1\n      tag_35\n      swap2\n      swap1\n      tag_36\n      jump\t// in\n    tag_35:\n      tag_37\n      jump\t// in\n    tag_34:\n      stop\n        /* \"Disney/disney.sol\":8014:8128  function Historial () public view returns (string[] memory) {\r... */\n    tag_6:\n      callvalue\n      dup1\n      iszero\n      tag_38\n      jumpi\n      0x00\n      dup1\n      revert\n    tag_38:\n      pop\n      tag_39\n      tag_40\n      jump\t// in\n    tag_39:\n      mload(0x40)\n      tag_41\n      swap2\n      swap1\n      tag_42\n      jump\t// in\n    tag_41:\n      mload(0x40)\n      dup1\n      swap2\n      sub\n      swap1\n      return\n        /* \"Disney/disney.sol\":2257:2384  function GenerarTokens (uint _numTokens) public Unicamente(msg.sender) {\r... */\n    tag_7:\n      callvalue\n      dup1\n      iszero\n      tag_43\n      jumpi\n      0x00\n      dup1\n      revert\n    tag_43:\n      pop\n      tag_44\n      0x04\n      dup1\n      calldatasize\n      sub\n      dup2\n      add\n      swap1\n      tag_45\n      swap2\n      swap1\n      tag_26\n      jump\t// in\n    tag_45:\n      tag_46\n      jump\t// in\n    tag_44:\n      stop\n        /* \"Disney/disney.sol\":369:397  address payable public owner */\n    tag_8:\n      callvalue\n      dup1\n      iszero\n      tag_47\n      jumpi\n      0x00\n      dup1\n      revert\n    tag_47:\n      pop\n      tag_48\n      tag_49\n      jump\t// in\n    tag_48:\n      mload(0x40)\n      tag_50\n      swap2\n      swap1\n      tag_51\n      jump\t// in\n    tag_50:\n      mload(0x40)\n      dup1\n      swap2\n      sub\n      swap1\n      return\n        /* \"Disney/disney.sol\":1937:2041  function BalanceOf() public view returns (uint) {\r... */\n    tag_9:\n      callvalue\n      dup1\n      iszero\n      tag_52\n      jumpi\n      0x00\n      dup1\n      revert\n    tag_52:\n      pop\n      tag_53\n      tag_54\n      jump\t// in\n    tag_53:\n      mload(0x40)\n      tag_55\n      swap2\n      swap1\n      tag_56\n      jump\t// in\n    tag_55:\n      mload(0x40)\n      dup1\n      swap2\n      sub\n      swap1\n      return\n        /* \"Disney/disney.sol\":3789:4772  function BajarAtraccion (string memory _nombreAtraccion) public Unicamente(msg.sender) {\r... */\n    tag_10:\n      callvalue\n      dup1\n      iszero\n      tag_57\n      jumpi\n      0x00\n      dup1\n      revert\n    tag_57:\n      pop\n      tag_58\n      0x04\n      dup1\n      calldatasize\n      sub\n      dup2\n      add\n      swap1\n      tag_59\n      swap2\n      swap1\n      tag_22\n      jump\t// in\n    tag_59:\n      tag_60\n      jump\t// in\n    tag_58:\n      stop\n        /* \"Disney/disney.sol\":4818:5816  function SubirAtraccion (string memory _nombreAtraccion) public Unicamente(msg.sender) {\r... */\n    tag_11:\n      callvalue\n      dup1\n      iszero\n      tag_61\n      jumpi\n      0x00\n      dup1\n      revert\n    tag_61:\n      pop\n      tag_62\n      0x04\n      dup1\n      calldatasize\n      sub\n      dup2\n      add\n      swap1\n      tag_63\n      swap2\n      swap1\n      tag_22\n      jump\t// in\n    tag_63:\n      tag_64\n      jump\t// in\n    tag_62:\n      stop\n        /* \"Disney/disney.sol\":581:625  mapping (address => cliente) public Clientes */\n    tag_12:\n      callvalue\n      dup1\n      iszero\n      tag_65\n      jumpi\n      0x00\n      dup1\n      revert\n    tag_65:\n      pop\n      tag_66\n      0x04\n      dup1\n      calldatasize\n      sub\n      dup2\n      add\n      swap1\n      tag_67\n      swap2\n      swap1\n      tag_68\n      jump\t// in\n    tag_67:\n      tag_69\n      jump\t// in\n    tag_66:\n      mload(0x40)\n      tag_70\n      swap2\n      swap1\n      tag_56\n      jump\t// in\n    tag_70:\n      mload(0x40)\n      dup1\n      swap2\n      sub\n      swap1\n      return\n        /* \"Disney/disney.sol\":3066:3121  mapping (string => atraccion) public MappingAtracciones */\n    tag_13:\n      callvalue\n      dup1\n      iszero\n      tag_71\n      jumpi\n      0x00\n      dup1\n      revert\n    tag_71:\n      pop\n      tag_72\n      0x04\n      dup1\n      calldatasize\n      sub\n      dup2\n      add\n      swap1\n      tag_73\n      swap2\n      swap1\n      tag_22\n      jump\t// in\n    tag_73:\n      tag_74\n      jump\t// in\n    tag_72:\n      mload(0x40)\n      tag_75\n      swap4\n      swap3\n      swap2\n      swap1\n      tag_76\n      jump\t// in\n    tag_75:\n      mload(0x40)\n      dup1\n      swap2\n      sub\n      swap1\n      return\n        /* \"Disney/disney.sol\":2088:2190  function MisTokens() public view returns(uint) {\r... */\n    tag_14:\n      callvalue\n      dup1\n      iszero\n      tag_77\n      jumpi\n      0x00\n      dup1\n      revert\n    tag_77:\n      pop\n      tag_78\n      tag_79\n      jump\t// in\n    tag_78:\n      mload(0x40)\n      tag_80\n      swap2\n      swap1\n      tag_56\n      jump\t// in\n    tag_80:\n      mload(0x40)\n      dup1\n      swap2\n      sub\n      swap1\n      return\n        /* \"Disney/disney.sol\":1114:1887  function CompraTokens(uint _numTokens) public payable {\r... */\n    tag_15:\n      tag_81\n      0x04\n      dup1\n      calldatasize\n      sub\n      dup2\n      add\n      swap1\n      tag_82\n      swap2\n      swap1\n      tag_26\n      jump\t// in\n    tag_82:\n      tag_83\n      jump\t// in\n    tag_81:\n      stop\n        /* \"Disney/disney.sol\":6314:7956  function SubirseAtraccion(string memory _nombreAtraccion) public {\r... */\n    tag_23:\n        /* \"Disney/disney.sol\":6447:6467  bool atraccionExiste */\n      0x00\n        /* \"Disney/disney.sol\":6486:6510  bool atraccionDisponible */\n      dup1\n        /* \"Disney/disney.sol\":6575:6581  uint i */\n      0x00\n        /* \"Disney/disney.sol\":6570:7832  for (uint i = 0; i < Atracciones.length; i++) {\r... */\n    tag_85:\n        /* \"Disney/disney.sol\":6591:6602  Atracciones */\n      0x04\n        /* \"Disney/disney.sol\":6591:6609  Atracciones.length */\n      dup1\n      sload\n      swap1\n      pop\n        /* \"Disney/disney.sol\":6587:6588  i */\n      dup2\n        /* \"Disney/disney.sol\":6587:6609  i < Atracciones.length */\n      lt\n        /* \"Disney/disney.sol\":6570:7832  for (uint i = 0; i < Atracciones.length; i++) {\r... */\n      iszero\n      tag_86\n      jumpi\n        /* \"Disney/disney.sol\":6750:6766  _nombreAtraccion */\n      dup4\n        /* \"Disney/disney.sol\":6733:6767  abi.encodePacked(_nombreAtraccion) */\n      add(0x20, mload(0x40))\n      tag_88\n      swap2\n      swap1\n      tag_89\n      jump\t// in\n    tag_88:\n      mload(0x40)\n      0x20\n      dup2\n      dup4\n      sub\n      sub\n      dup2\n      mstore\n      swap1\n      0x40\n      mstore\n        /* \"Disney/disney.sol\":6723:6768  keccak256(abi.encodePacked(_nombreAtraccion)) */\n      dup1\n      mload\n      swap1\n      0x20\n      add\n      keccak256\n        /* \"Disney/disney.sol\":6703:6714  Atracciones */\n      0x04\n        /* \"Disney/disney.sol\":6715:6716  i */\n      dup3\n        /* \"Disney/disney.sol\":6703:6717  Atracciones[i] */\n      dup2\n      sload\n      dup2\n      lt\n      tag_90\n      jumpi\n      invalid\n    tag_90:\n      swap1\n      0x00\n      mstore\n      keccak256(0x00, 0x20)\n      add\n        /* \"Disney/disney.sol\":6686:6718  abi.encodePacked(Atracciones[i]) */\n      add(0x20, mload(0x40))\n      tag_92\n      swap2\n      swap1\n      tag_93\n      jump\t// in\n    tag_92:\n      mload(0x40)\n      0x20\n      dup2\n      dup4\n      sub\n      sub\n      dup2\n      mstore\n      swap1\n      0x40\n      mstore\n        /* \"Disney/disney.sol\":6676:6719  keccak256(abi.encodePacked(Atracciones[i])) */\n      dup1\n      mload\n      swap1\n      0x20\n      add\n      keccak256\n        /* \"Disney/disney.sol\":6676:6768  keccak256(abi.encodePacked(Atracciones[i])) == keccak256(abi.encodePacked(_nombreAtraccion)) */\n      eq\n        /* \"Disney/disney.sol\":6672:7821  if (keccak256(abi.encodePacked(Atracciones[i])) == keccak256(abi.encodePacked(_nombreAtraccion))) {\r... */\n      iszero\n      tag_94\n      jumpi\n        /* \"Disney/disney.sol\":6807:6811  true */\n      0x01\n        /* \"Disney/disney.sol\":6789:6811  atraccionExiste = true */\n      swap3\n      pop\n        /* \"Disney/disney.sol\":6887:6905  MappingAtracciones */\n      0x03\n        /* \"Disney/disney.sol\":6906:6917  Atracciones */\n      0x04\n        /* \"Disney/disney.sol\":6918:6919  i */\n      dup3\n        /* \"Disney/disney.sol\":6906:6920  Atracciones[i] */\n      dup2\n      sload\n      dup2\n      lt\n      tag_95\n      jumpi\n      invalid\n    tag_95:\n      swap1\n      0x00\n      mstore\n      keccak256(0x00, 0x20)\n      add\n        /* \"Disney/disney.sol\":6887:6921  MappingAtracciones[Atracciones[i]] */\n      mload(0x40)\n      tag_97\n      swap2\n      swap1\n      tag_93\n      jump\t// in\n    tag_97:\n      swap1\n      dup2\n      mstore\n      0x20\n      add\n      mload(0x40)\n      dup1\n      swap2\n      sub\n      swap1\n      keccak256\n        /* \"Disney/disney.sol\":6887:6928  MappingAtracciones[Atracciones[i]].estado */\n      0x02\n      add\n      0x00\n      swap1\n      sload\n      swap1\n      0x0100\n      exp\n      swap1\n      div\n      0xff\n      and\n        /* \"Disney/disney.sol\":6883:7782  if (MappingAtracciones[Atracciones[i]].estado) {\r... */\n      iszero\n      tag_98\n      jumpi\n        /* \"Disney/disney.sol\":6975:6979  true */\n      0x01\n        /* \"Disney/disney.sol\":6953:6979  atraccionDisponible = true */\n      swap2\n      pop\n        /* \"Disney/disney.sol\":7134:7145  MisTokens() */\n      tag_99\n        /* \"Disney/disney.sol\":7134:7143  MisTokens */\n      tag_79\n        /* \"Disney/disney.sol\":7134:7145  MisTokens() */\n      jump\t// in\n    tag_99:\n        /* \"Disney/disney.sol\":7089:7107  MappingAtracciones */\n      0x03\n        /* \"Disney/disney.sol\":7108:7119  Atracciones */\n      0x04\n        /* \"Disney/disney.sol\":7120:7121  i */\n      dup4\n        /* \"Disney/disney.sol\":7108:7122  Atracciones[i] */\n      dup2\n      sload\n      dup2\n      lt\n      tag_100\n      jumpi\n      invalid\n    tag_100:\n      swap1\n      0x00\n      mstore\n      keccak256(0x00, 0x20)\n      add\n        /* \"Disney/disney.sol\":7089:7123  MappingAtracciones[Atracciones[i]] */\n      mload(0x40)\n      tag_102\n      swap2\n      swap1\n      tag_93\n      jump\t// in\n    tag_102:\n      swap1\n      dup2\n      mstore\n      0x20\n      add\n      mload(0x40)\n      dup1\n      swap2\n      sub\n      swap1\n      keccak256\n        /* \"Disney/disney.sol\":7089:7130  MappingAtracciones[Atracciones[i]].precio */\n      0x01\n      add\n      sload\n        /* \"Disney/disney.sol\":7089:7145  MappingAtracciones[Atracciones[i]].precio <= MisTokens() */\n      gt\n      iszero\n        /* \"Disney/disney.sol\":7080:7170  require (MappingAtracciones[Atracciones[i]].precio <= MisTokens(), \"Tokens insuficientes\") */\n      tag_103\n      jumpi\n      mload(0x40)\n      0x08c379a000000000000000000000000000000000000000000000000000000000\n      dup2\n      mstore\n      0x04\n      add\n      tag_104\n      swap1\n      tag_105\n      jump\t// in\n    tag_104:\n      mload(0x40)\n      dup1\n      swap2\n      sub\n      swap1\n      revert\n    tag_103:\n        /* \"Disney/disney.sol\":7255:7260  token */\n      0x00\n      dup1\n      sload\n      swap1\n      0x0100\n      exp\n      swap1\n      div\n      0xffffffffffffffffffffffffffffffffffffffff\n      and\n        /* \"Disney/disney.sol\":7255:7276  token.transfer_Disney */\n      0xffffffffffffffffffffffffffffffffffffffff\n      and\n      0xef910460\n        /* \"Disney/disney.sol\":7277:7287  msg.sender */\n      caller\n        /* \"Disney/disney.sol\":7297:7301  this */\n      address\n        /* \"Disney/disney.sol\":7304:7322  MappingAtracciones */\n      0x03\n        /* \"Disney/disney.sol\":7323:7334  Atracciones */\n      0x04\n        /* \"Disney/disney.sol\":7335:7336  i */\n      dup7\n        /* \"Disney/disney.sol\":7323:7337  Atracciones[i] */\n      dup2\n      sload\n      dup2\n      lt\n      tag_106\n      jumpi\n      invalid\n    tag_106:\n      swap1\n      0x00\n      mstore\n      keccak256(0x00, 0x20)\n      add\n        /* \"Disney/disney.sol\":7304:7338  MappingAtracciones[Atracciones[i]] */\n      mload(0x40)\n      tag_108\n      swap2\n      swap1\n      tag_93\n      jump\t// in\n    tag_108:\n      swap1\n      dup2\n      mstore\n      0x20\n      add\n      mload(0x40)\n      dup1\n      swap2\n      sub\n      swap1\n      keccak256\n        /* \"Disney/disney.sol\":7304:7345  MappingAtracciones[Atracciones[i]].precio */\n      0x01\n      add\n      sload\n        /* \"Disney/disney.sol\":7255:7346  token.transfer_Disney(msg.sender, address(this), MappingAtracciones[Atracciones[i]].precio) */\n      mload(0x40)\n      dup5\n      0xffffffff\n      and\n      0xe0\n      shl\n      dup2\n      mstore\n      0x04\n      add\n      tag_109\n      swap4\n      swap3\n      swap2\n      swap1\n      tag_110\n      jump\t// in\n    tag_109:\n      0x20\n      mload(0x40)\n      dup1\n      dup4\n      sub\n      dup2\n      0x00\n      dup8\n      dup1\n      extcodesize\n      iszero\n      dup1\n      iszero\n      tag_111\n      jumpi\n      0x00\n      dup1\n      revert\n    tag_111:\n      pop\n      gas\n      call\n      iszero\n      dup1\n      iszero\n      tag_113\n      jumpi\n      returndatasize\n      0x00\n      dup1\n      returndatacopy\n      revert(0x00, returndatasize)\n    tag_113:\n      pop\n      pop\n      pop\n      pop\n      mload(0x40)\n      returndatasize\n      not(0x1f)\n      0x1f\n      dup3\n      add\n      and\n      dup3\n      add\n      dup1\n      0x40\n      mstore\n      pop\n      dup2\n      add\n      swap1\n      tag_114\n      swap2\n      swap1\n      tag_115\n      jump\t// in\n    tag_114:\n      pop\n        /* \"Disney/disney.sol\":7421:7437  HistorialCliente */\n      0x05\n        /* \"Disney/disney.sol\":7421:7449  HistorialCliente[msg.sender] */\n      0x00\n        /* \"Disney/disney.sol\":7438:7448  msg.sender */\n      caller\n        /* \"Disney/disney.sol\":7421:7449  HistorialCliente[msg.sender] */\n      0xffffffffffffffffffffffffffffffffffffffff\n      and\n      0xffffffffffffffffffffffffffffffffffffffff\n      and\n      dup2\n      mstore\n      0x20\n      add\n      swap1\n      dup2\n      mstore\n      0x20\n      add\n      0x00\n      keccak256\n        /* \"Disney/disney.sol\":7455:7466  Atracciones */\n      0x04\n        /* \"Disney/disney.sol\":7467:7468  i */\n      dup3\n        /* \"Disney/disney.sol\":7455:7469  Atracciones[i] */\n      dup2\n      sload\n      dup2\n      lt\n      tag_116\n      jumpi\n      invalid\n    tag_116:\n      swap1\n      0x00\n      mstore\n      keccak256(0x00, 0x20)\n      add\n        /* \"Disney/disney.sol\":7421:7470  HistorialCliente[msg.sender].push(Atracciones[i]) */\n      swap1\n      dup1\n      0x01\n      dup2\n      sload\n      add\n      dup1\n      dup3\n      sstore\n      dup1\n      swap2\n      pop\n      pop\n      0x01\n      swap1\n      sub\n      swap1\n      0x00\n      mstore\n      keccak256(0x00, 0x20)\n      add\n      0x00\n      swap1\n      swap2\n      swap1\n      swap2\n      swap1\n      swap2\n      pop\n      swap1\n      dup1\n      sload\n      0x01\n      dup2\n      0x01\n      and\n      iszero\n      0x0100\n      mul\n      sub\n      and\n      0x02\n      swap1\n      div\n      tag_119\n      swap3\n      swap2\n      swap1\n      tag_120\n      jump\t// in\n    tag_119:\n      pop\n        /* \"Disney/disney.sol\":7541:7575  disfruta_atraccion(Atracciones[i]) */\n      0xc13b0c39e701b0f41dde2e972f3e98e53fa01e6bc45ef606ddc7522a8e354f2d\n        /* \"Disney/disney.sol\":7560:7571  Atracciones */\n      0x04\n        /* \"Disney/disney.sol\":7572:7573  i */\n      dup3\n        /* \"Disney/disney.sol\":7560:7574  Atracciones[i] */\n      dup2\n      sload\n      dup2\n      lt\n      tag_121\n      jumpi\n      invalid\n    tag_121:\n      swap1\n      0x00\n      mstore\n      keccak256(0x00, 0x20)\n      add\n        /* \"Disney/disney.sol\":7541:7575  disfruta_atraccion(Atracciones[i]) */\n      mload(0x40)\n      tag_123\n      swap2\n      swap1\n      tag_124\n      jump\t// in\n    tag_123:\n      mload(0x40)\n      dup1\n      swap2\n      sub\n      swap1\n      log1\n        /* \"Disney/disney.sol\":6883:7782  if (MappingAtracciones[Atracciones[i]].estado) {\r... */\n      jump(tag_125)\n    tag_98:\n        /* \"Disney/disney.sol\":7687:7706  atraccionDisponible */\n      dup2\n        /* \"Disney/disney.sol\":7679:7762  require(atraccionDisponible, \"La atraccion en cuestion no se encuentra disponible\") */\n      tag_126\n      jumpi\n      mload(0x40)\n      0x08c379a000000000000000000000000000000000000000000000000000000000\n      dup2\n      mstore\n      0x04\n      add\n      tag_127\n      swap1\n      tag_128\n      jump\t// in\n    tag_127:\n      mload(0x40)\n      dup1\n      swap2\n      sub\n      swap1\n      revert\n    tag_126:\n        /* \"Disney/disney.sol\":6883:7782  if (MappingAtracciones[Atracciones[i]].estado) {\r... */\n    tag_125:\n        /* \"Disney/disney.sol\":7800:7805  break */\n      jump(tag_86)\n        /* \"Disney/disney.sol\":6672:7821  if (keccak256(abi.encodePacked(Atracciones[i])) == keccak256(abi.encodePacked(_nombreAtraccion))) {\r... */\n    tag_94:\n        /* \"Disney/disney.sol\":6611:6614  i++ */\n      dup1\n      dup1\n      0x01\n      add\n      swap2\n      pop\n      pop\n        /* \"Disney/disney.sol\":6570:7832  for (uint i = 0; i < Atracciones.length; i++) {\r... */\n      jump(tag_85)\n    tag_86:\n      pop\n        /* \"Disney/disney.sol\":7893:7908  atraccionExiste */\n      dup2\n        /* \"Disney/disney.sol\":7885:7948  require(atraccionExiste, \"La atraccion en cuestión no existe\") */\n      tag_129\n      jumpi\n      mload(0x40)\n      0x08c379a000000000000000000000000000000000000000000000000000000000\n      dup2\n      mstore\n      0x04\n      add\n      tag_130\n      swap1\n      tag_131\n      jump\t// in\n    tag_130:\n      mload(0x40)\n      dup1\n      swap2\n      sub\n      swap1\n      revert\n    tag_129:\n        /* \"Disney/disney.sol\":6314:7956  function SubirseAtraccion(string memory _nombreAtraccion) public {\r... */\n      pop\n      pop\n      pop\n      jump\t// out\n        /* \"Disney/disney.sol\":8136:8329  function DevolverTokens(uint _numTokens) public payable {\r... */\n    tag_27:\n        /* \"Disney/disney.sol\":8278:8288  _numTokens */\n      dup1\n        /* \"Disney/disney.sol\":8263:8274  MisTokens() */\n      tag_133\n        /* \"Disney/disney.sol\":8263:8272  MisTokens */\n      tag_79\n        /* \"Disney/disney.sol\":8263:8274  MisTokens() */\n      jump\t// in\n    tag_133:\n        /* \"Disney/disney.sol\":8263:8288  MisTokens() >= _numTokens */\n      lt\n      iszero\n        /* \"Disney/disney.sol\":8255:8319  require(MisTokens() >= _numTokens, \"No hay tokens que devolver\") */\n      tag_134\n      jumpi\n      mload(0x40)\n      0x08c379a000000000000000000000000000000000000000000000000000000000\n      dup2\n      mstore\n      0x04\n      add\n      tag_135\n      swap1\n      tag_136\n      jump\t// in\n    tag_135:\n      mload(0x40)\n      dup1\n      swap2\n      sub\n      swap1\n      revert\n    tag_134:\n        /* \"Disney/disney.sol\":8136:8329  function DevolverTokens(uint _numTokens) public payable {\r... */\n      pop\n      jump\t// out\n        /* \"Disney/disney.sol\":5869:6252  function AtraccionesDisponibles() public view returns (string memory) {\r... */\n    tag_30:\n        /* \"Disney/disney.sol\":5924:5937  string memory */\n      0x60\n        /* \"Disney/disney.sol\":5950:5975  string memory disponibles */\n      dup1\n        /* \"Disney/disney.sol\":5991:5997  uint i */\n      0x00\n        /* \"Disney/disney.sol\":5986:6214  for (uint i = 0; i < Atracciones.length; i++) {\r... */\n    tag_138:\n        /* \"Disney/disney.sol\":6007:6018  Atracciones */\n      0x04\n        /* \"Disney/disney.sol\":6007:6025  Atracciones.length */\n      dup1\n      sload\n      swap1\n      pop\n        /* \"Disney/disney.sol\":6003:6004  i */\n      dup2\n        /* \"Disney/disney.sol\":6003:6025  i < Atracciones.length */\n      lt\n        /* \"Disney/disney.sol\":5986:6214  for (uint i = 0; i < Atracciones.length; i++) {\r... */\n      iszero\n      tag_139\n      jumpi\n        /* \"Disney/disney.sol\":6051:6069  MappingAtracciones */\n      0x03\n        /* \"Disney/disney.sol\":6070:6081  Atracciones */\n      0x04\n        /* \"Disney/disney.sol\":6082:6083  i */\n      dup3\n        /* \"Disney/disney.sol\":6070:6084  Atracciones[i] */\n      dup2\n      sload\n      dup2\n      lt\n      tag_141\n      jumpi\n      invalid\n    tag_141:\n      swap1\n      0x00\n      mstore\n      keccak256(0x00, 0x20)\n      add\n        /* \"Disney/disney.sol\":6051:6085  MappingAtracciones[Atracciones[i]] */\n      mload(0x40)\n      tag_143\n      swap2\n      swap1\n      tag_93\n      jump\t// in\n    tag_143:\n      swap1\n      dup2\n      mstore\n      0x20\n      add\n      mload(0x40)\n      dup1\n      swap2\n      sub\n      swap1\n      keccak256\n        /* \"Disney/disney.sol\":6051:6092  MappingAtracciones[Atracciones[i]].estado */\n      0x02\n      add\n      0x00\n      swap1\n      sload\n      swap1\n      0x0100\n      exp\n      swap1\n      div\n      0xff\n      and\n        /* \"Disney/disney.sol\":6047:6203  if (MappingAtracciones[Atracciones[i]].estado) {\r... */\n      iszero\n      tag_144\n      jumpi\n        /* \"Disney/disney.sol\":6151:6162  disponibles */\n      dup2\n        /* \"Disney/disney.sol\":6171:6182  Atracciones */\n      0x04\n        /* \"Disney/disney.sol\":6183:6184  i */\n      dup3\n        /* \"Disney/disney.sol\":6171:6185  Atracciones[i] */\n      dup2\n      sload\n      dup2\n      lt\n      tag_145\n      jumpi\n      invalid\n    tag_145:\n      swap1\n      0x00\n      mstore\n      keccak256(0x00, 0x20)\n      add\n        /* \"Disney/disney.sol\":6134:6186  abi.encodePacked(disponibles, \" | \", Atracciones[i]) */\n      add(0x20, mload(0x40))\n      tag_147\n      swap3\n      swap2\n      swap1\n      tag_148\n      jump\t// in\n    tag_147:\n      mload(0x40)\n      0x20\n      dup2\n      dup4\n      sub\n      sub\n      dup2\n      mstore\n      swap1\n      0x40\n      mstore\n        /* \"Disney/disney.sol\":6113:6187  disponibles = string(abi.encodePacked(disponibles, \" | \", Atracciones[i])) */\n      swap2\n      pop\n        /* \"Disney/disney.sol\":6047:6203  if (MappingAtracciones[Atracciones[i]].estado) {\r... */\n    tag_144:\n        /* \"Disney/disney.sol\":6027:6030  i++ */\n      dup1\n      dup1\n      0x01\n      add\n      swap2\n      pop\n      pop\n        /* \"Disney/disney.sol\":5986:6214  for (uint i = 0; i < Atracciones.length; i++) {\r... */\n      jump(tag_138)\n    tag_139:\n      pop\n        /* \"Disney/disney.sol\":6233:6244  disponibles */\n      dup1\n        /* \"Disney/disney.sol\":6226:6244  return disponibles */\n      swap2\n      pop\n      pop\n        /* \"Disney/disney.sol\":5869:6252  function AtraccionesDisponibles() public view returns (string memory) {\r... */\n      swap1\n      jump\t// out\n        /* \"Disney/disney.sol\":3320:3747  function NuevaAtraccion(string memory _nombreAtraccion, uint _precio) public Unicamente(msg.sender) {\r... */\n    tag_37:\n        /* \"Disney/disney.sol\":3408:3418  msg.sender */\n      caller\n        /* \"Disney/disney.sol\":2513:2518  owner */\n      0x01\n      0x00\n      swap1\n      sload\n      swap1\n      0x0100\n      exp\n      swap1\n      div\n      0xffffffffffffffffffffffffffffffffffffffff\n      and\n        /* \"Disney/disney.sol\":2499:2518  _direccion == owner */\n      0xffffffffffffffffffffffffffffffffffffffff\n      and\n        /* \"Disney/disney.sol\":2499:2509  _direccion */\n      dup2\n        /* \"Disney/disney.sol\":2499:2518  _direccion == owner */\n      0xffffffffffffffffffffffffffffffffffffffff\n      and\n      eq\n        /* \"Disney/disney.sol\":2490:2567  require( _direccion == owner, \"No tienes permiso para ejecutar esta acción\") */\n      tag_150\n      jumpi\n      mload(0x40)\n      0x08c379a000000000000000000000000000000000000000000000000000000000\n      dup2\n      mstore\n      0x04\n      add\n      tag_151\n      swap1\n      tag_152\n      jump\t// in\n    tag_151:\n      mload(0x40)\n      dup1\n      swap2\n      sub\n      swap1\n      revert\n    tag_150:\n        /* \"Disney/disney.sol\":3508:3550  atraccion(_nombreAtraccion, _precio, true) */\n      mload(0x40)\n      dup1\n      0x60\n      add\n      0x40\n      mstore\n      dup1\n        /* \"Disney/disney.sol\":3518:3534  _nombreAtraccion */\n      dup5\n        /* \"Disney/disney.sol\":3508:3550  atraccion(_nombreAtraccion, _precio, true) */\n      dup2\n      mstore\n      0x20\n      add\n        /* \"Disney/disney.sol\":3536:3543  _precio */\n      dup4\n        /* \"Disney/disney.sol\":3508:3550  atraccion(_nombreAtraccion, _precio, true) */\n      dup2\n      mstore\n      0x20\n      add\n        /* \"Disney/disney.sol\":3545:3549  true */\n      0x01\n        /* \"Disney/disney.sol\":3508:3550  atraccion(_nombreAtraccion, _precio, true) */\n      iszero\n      iszero\n      dup2\n      mstore\n      pop\n        /* \"Disney/disney.sol\":3469:3487  MappingAtracciones */\n      0x03\n        /* \"Disney/disney.sol\":3488:3504  _nombreAtraccion */\n      dup5\n        /* \"Disney/disney.sol\":3469:3505  MappingAtracciones[_nombreAtraccion] */\n      mload(0x40)\n      tag_154\n      swap2\n      swap1\n      tag_89\n      jump\t// in\n    tag_154:\n      swap1\n      dup2\n      mstore\n      0x20\n      add\n      mload(0x40)\n      dup1\n      swap2\n      sub\n      swap1\n      keccak256\n        /* \"Disney/disney.sol\":3469:3550  MappingAtracciones[_nombreAtraccion] = atraccion(_nombreAtraccion, _precio, true) */\n      0x00\n      dup3\n      add\n      mload\n      dup2\n      0x00\n      add\n      swap1\n      dup1\n      mload\n      swap1\n      0x20\n      add\n      swap1\n      tag_155\n      swap3\n      swap2\n      swap1\n      tag_156\n      jump\t// in\n    tag_155:\n      pop\n      0x20\n      dup3\n      add\n      mload\n      dup2\n      0x01\n      add\n      sstore\n      0x40\n      dup3\n      add\n      mload\n      dup2\n      0x02\n      add\n      exp(0x0100, 0x00)\n      dup2\n      sload\n      dup2\n      0xff\n      mul\n      not\n      and\n      swap1\n      dup4\n      iszero\n      iszero\n      mul\n      or\n      swap1\n      sstore\n      pop\n      swap1\n      pop\n      pop\n        /* \"Disney/disney.sol\":3593:3604  Atracciones */\n      0x04\n        /* \"Disney/disney.sol\":3610:3626  _nombreAtraccion */\n      dup4\n        /* \"Disney/disney.sol\":3593:3627  Atracciones.push(_nombreAtraccion) */\n      swap1\n      dup1\n      0x01\n      dup2\n      sload\n      add\n      dup1\n      dup3\n      sstore\n      dup1\n      swap2\n      pop\n      pop\n      0x01\n      swap1\n      sub\n      swap1\n      0x00\n      mstore\n      keccak256(0x00, 0x20)\n      add\n      0x00\n      swap1\n      swap2\n      swap1\n      swap2\n      swap1\n      swap2\n      pop\n      swap1\n      dup1\n      mload\n      swap1\n      0x20\n      add\n      swap1\n      tag_158\n      swap3\n      swap2\n      swap1\n      tag_156\n      jump\t// in\n    tag_158:\n      pop\n        /* \"Disney/disney.sol\":3697:3739  nueva_atraccion(_nombreAtraccion, _precio) */\n      0xfc9ecd7a6c2ca96d38526a0b9cc22f2474ff8e596dd348edaab06be905ebe378\n        /* \"Disney/disney.sol\":3713:3729  _nombreAtraccion */\n      dup4\n        /* \"Disney/disney.sol\":3731:3738  _precio */\n      dup4\n        /* \"Disney/disney.sol\":3697:3739  nueva_atraccion(_nombreAtraccion, _precio) */\n      mload(0x40)\n      tag_159\n      swap3\n      swap2\n      swap1\n      tag_160\n      jump\t// in\n    tag_159:\n      mload(0x40)\n      dup1\n      swap2\n      sub\n      swap1\n      log1\n        /* \"Disney/disney.sol\":3320:3747  function NuevaAtraccion(string memory _nombreAtraccion, uint _precio) public Unicamente(msg.sender) {\r... */\n      pop\n      pop\n      pop\n      jump\t// out\n        /* \"Disney/disney.sol\":8014:8128  function Historial () public view returns (string[] memory) {\r... */\n    tag_40:\n        /* \"Disney/disney.sol\":8057:8072  string[] memory */\n      0x60\n        /* \"Disney/disney.sol\":8092:8108  HistorialCliente */\n      0x05\n        /* \"Disney/disney.sol\":8092:8120  HistorialCliente[msg.sender] */\n      0x00\n        /* \"Disney/disney.sol\":8109:8119  msg.sender */\n      caller\n        /* \"Disney/disney.sol\":8092:8120  HistorialCliente[msg.sender] */\n      0xffffffffffffffffffffffffffffffffffffffff\n      and\n      0xffffffffffffffffffffffffffffffffffffffff\n      and\n      dup2\n      mstore\n      0x20\n      add\n      swap1\n      dup2\n      mstore\n      0x20\n      add\n      0x00\n      keccak256\n        /* \"Disney/disney.sol\":8085:8120  return HistorialCliente[msg.sender] */\n      dup1\n      sload\n      dup1\n      0x20\n      mul\n      0x20\n      add\n      mload(0x40)\n      swap1\n      dup2\n      add\n      0x40\n      mstore\n      dup1\n      swap3\n      swap2\n      swap1\n      dup2\n      dup2\n      mstore\n      0x20\n      add\n      0x00\n      swap1\n    tag_162:\n      dup3\n      dup3\n      lt\n      iszero\n      tag_163\n      jumpi\n      dup4\n      dup3\n      swap1\n      0x00\n      mstore\n      keccak256(0x00, 0x20)\n      add\n      dup1\n      sload\n      0x01\n      dup2\n      0x01\n      and\n      iszero\n      0x0100\n      mul\n      sub\n      and\n      0x02\n      swap1\n      div\n      dup1\n      0x1f\n      add\n      0x20\n      dup1\n      swap2\n      div\n      mul\n      0x20\n      add\n      mload(0x40)\n      swap1\n      dup2\n      add\n      0x40\n      mstore\n      dup1\n      swap3\n      swap2\n      swap1\n      dup2\n      dup2\n      mstore\n      0x20\n      add\n      dup3\n      dup1\n      sload\n      0x01\n      dup2\n      0x01\n      and\n      iszero\n      0x0100\n      mul\n      sub\n      and\n      0x02\n      swap1\n      div\n      dup1\n      iszero\n      tag_165\n      jumpi\n      dup1\n      0x1f\n      lt\n      tag_166\n      jumpi\n      0x0100\n      dup1\n      dup4\n      sload\n      div\n      mul\n      dup4\n      mstore\n      swap2\n      0x20\n      add\n      swap2\n      jump(tag_165)\n    tag_166:\n      dup3\n      add\n      swap2\n      swap1\n      0x00\n      mstore\n      keccak256(0x00, 0x20)\n      swap1\n    tag_167:\n      dup2\n      sload\n      dup2\n      mstore\n      swap1\n      0x01\n      add\n      swap1\n      0x20\n      add\n      dup1\n      dup4\n      gt\n      tag_167\n      jumpi\n      dup3\n      swap1\n      sub\n      0x1f\n      and\n      dup3\n      add\n      swap2\n    tag_165:\n      pop\n      pop\n      pop\n      pop\n      pop\n      dup2\n      mstore\n      0x20\n      add\n      swap1\n      0x01\n      add\n      swap1\n      jump(tag_162)\n    tag_163:\n      pop\n      pop\n      pop\n      pop\n      swap1\n      pop\n        /* \"Disney/disney.sol\":8014:8128  function Historial () public view returns (string[] memory) {\r... */\n      swap1\n      jump\t// out\n        /* \"Disney/disney.sol\":2257:2384  function GenerarTokens (uint _numTokens) public Unicamente(msg.sender) {\r... */\n    tag_46:\n        /* \"Disney/disney.sol\":2316:2326  msg.sender */\n      caller\n        /* \"Disney/disney.sol\":2513:2518  owner */\n      0x01\n      0x00\n      swap1\n      sload\n      swap1\n      0x0100\n      exp\n      swap1\n      div\n      0xffffffffffffffffffffffffffffffffffffffff\n      and\n        /* \"Disney/disney.sol\":2499:2518  _direccion == owner */\n      0xffffffffffffffffffffffffffffffffffffffff\n      and\n        /* \"Disney/disney.sol\":2499:2509  _direccion */\n      dup2\n        /* \"Disney/disney.sol\":2499:2518  _direccion == owner */\n      0xffffffffffffffffffffffffffffffffffffffff\n      and\n      eq\n        /* \"Disney/disney.sol\":2490:2567  require( _direccion == owner, \"No tienes permiso para ejecutar esta acción\") */\n      tag_169\n      jumpi\n      mload(0x40)\n      0x08c379a000000000000000000000000000000000000000000000000000000000\n      dup2\n      mstore\n      0x04\n      add\n      tag_170\n      swap1\n      tag_152\n      jump\t// in\n    tag_170:\n      mload(0x40)\n      dup1\n      swap2\n      sub\n      swap1\n      revert\n    tag_169:\n        /* \"Disney/disney.sol\":2339:2344  token */\n      0x00\n      dup1\n      sload\n      swap1\n      0x0100\n      exp\n      swap1\n      div\n      0xffffffffffffffffffffffffffffffffffffffff\n      and\n        /* \"Disney/disney.sol\":2339:2364  token.increaseTotalSupply */\n      0xffffffffffffffffffffffffffffffffffffffff\n      and\n      0x1d43cc98\n        /* \"Disney/disney.sol\":2365:2375  _numTokens */\n      dup4\n        /* \"Disney/disney.sol\":2339:2376  token.increaseTotalSupply(_numTokens) */\n      mload(0x40)\n      dup3\n      0xffffffff\n      and\n      0xe0\n      shl\n      dup2\n      mstore\n      0x04\n      add\n      tag_172\n      swap2\n      swap1\n      tag_56\n      jump\t// in\n    tag_172:\n      0x00\n      mload(0x40)\n      dup1\n      dup4\n      sub\n      dup2\n      0x00\n      dup8\n      dup1\n      extcodesize\n      iszero\n      dup1\n      iszero\n      tag_173\n      jumpi\n      0x00\n      dup1\n      revert\n    tag_173:\n      pop\n      gas\n      call\n      iszero\n      dup1\n      iszero\n      tag_175\n      jumpi\n      returndatasize\n      0x00\n      dup1\n      returndatacopy\n      revert(0x00, returndatasize)\n    tag_175:\n      pop\n      pop\n      pop\n      pop\n        /* \"Disney/disney.sol\":2257:2384  function GenerarTokens (uint _numTokens) public Unicamente(msg.sender) {\r... */\n      pop\n      pop\n      jump\t// out\n        /* \"Disney/disney.sol\":369:397  address payable public owner */\n    tag_49:\n      0x01\n      0x00\n      swap1\n      sload\n      swap1\n      0x0100\n      exp\n      swap1\n      div\n      0xffffffffffffffffffffffffffffffffffffffff\n      and\n      dup2\n      jump\t// out\n        /* \"Disney/disney.sol\":1937:2041  function BalanceOf() public view returns (uint) {\r... */\n    tag_54:\n        /* \"Disney/disney.sol\":1979:1983  uint */\n      0x00\n        /* \"Disney/disney.sol\":2003:2008  token */\n      dup1\n      0x00\n      swap1\n      sload\n      swap1\n      0x0100\n      exp\n      swap1\n      div\n      0xffffffffffffffffffffffffffffffffffffffff\n      and\n        /* \"Disney/disney.sol\":2003:2018  token.balanceOf */\n      0xffffffffffffffffffffffffffffffffffffffff\n      and\n      0x70a08231\n        /* \"Disney/disney.sol\":2027:2031  this */\n      address\n        /* \"Disney/disney.sol\":2003:2033  token.balanceOf(address(this)) */\n      mload(0x40)\n      dup3\n      0xffffffff\n      and\n      0xe0\n      shl\n      dup2\n      mstore\n      0x04\n      add\n      tag_177\n      swap2\n      swap1\n      tag_178\n      jump\t// in\n    tag_177:\n      0x20\n      mload(0x40)\n      dup1\n      dup4\n      sub\n      dup2\n      dup7\n      dup1\n      extcodesize\n      iszero\n      dup1\n      iszero\n      tag_179\n      jumpi\n      0x00\n      dup1\n      revert\n    tag_179:\n      pop\n      gas\n      staticcall\n      iszero\n      dup1\n      iszero\n      tag_181\n      jumpi\n      returndatasize\n      0x00\n      dup1\n      returndatacopy\n      revert(0x00, returndatasize)\n    tag_181:\n      pop\n      pop\n      pop\n      pop\n      mload(0x40)\n      returndatasize\n      not(0x1f)\n      0x1f\n      dup3\n      add\n      and\n      dup3\n      add\n      dup1\n      0x40\n      mstore\n      pop\n      dup2\n      add\n      swap1\n      tag_182\n      swap2\n      swap1\n      tag_183\n      jump\t// in\n    tag_182:\n        /* \"Disney/disney.sol\":1996:2033  return token.balanceOf(address(this)) */\n      swap1\n      pop\n        /* \"Disney/disney.sol\":1937:2041  function BalanceOf() public view returns (uint) {\r... */\n      swap1\n      jump\t// out\n        /* \"Disney/disney.sol\":3789:4772  function BajarAtraccion (string memory _nombreAtraccion) public Unicamente(msg.sender) {\r... */\n    tag_60:\n        /* \"Disney/disney.sol\":3864:3874  msg.sender */\n      caller\n        /* \"Disney/disney.sol\":2513:2518  owner */\n      0x01\n      0x00\n      swap1\n      sload\n      swap1\n      0x0100\n      exp\n      swap1\n      div\n      0xffffffffffffffffffffffffffffffffffffffff\n      and\n        /* \"Disney/disney.sol\":2499:2518  _direccion == owner */\n      0xffffffffffffffffffffffffffffffffffffffff\n      and\n        /* \"Disney/disney.sol\":2499:2509  _direccion */\n      dup2\n        /* \"Disney/disney.sol\":2499:2518  _direccion == owner */\n      0xffffffffffffffffffffffffffffffffffffffff\n      and\n      eq\n        /* \"Disney/disney.sol\":2490:2567  require( _direccion == owner, \"No tienes permiso para ejecutar esta acción\") */\n      tag_185\n      jumpi\n      mload(0x40)\n      0x08c379a000000000000000000000000000000000000000000000000000000000\n      dup2\n      mstore\n      0x04\n      add\n      tag_186\n      swap1\n      tag_152\n      jump\t// in\n    tag_186:\n      mload(0x40)\n      dup1\n      swap2\n      sub\n      swap1\n      revert\n    tag_185:\n        /* \"Disney/disney.sol\":3887:3896  bool alta */\n      0x00\n        /* \"Disney/disney.sol\":3982:3988  uint i */\n      dup1\n        /* \"Disney/disney.sol\":3977:4603  for (uint i = 0; i < Atracciones.length; i++) {\r... */\n    tag_188:\n        /* \"Disney/disney.sol\":3998:4009  Atracciones */\n      0x04\n        /* \"Disney/disney.sol\":3998:4016  Atracciones.length */\n      dup1\n      sload\n      swap1\n      pop\n        /* \"Disney/disney.sol\":3994:3995  i */\n      dup2\n        /* \"Disney/disney.sol\":3994:4016  i < Atracciones.length */\n      lt\n        /* \"Disney/disney.sol\":3977:4603  for (uint i = 0; i < Atracciones.length; i++) {\r... */\n      iszero\n      tag_189\n      jumpi\n        /* \"Disney/disney.sol\":4116:4132  _nombreAtraccion */\n      dup4\n        /* \"Disney/disney.sol\":4099:4133  abi.encodePacked(_nombreAtraccion) */\n      add(0x20, mload(0x40))\n      tag_191\n      swap2\n      swap1\n      tag_89\n      jump\t// in\n    tag_191:\n      mload(0x40)\n      0x20\n      dup2\n      dup4\n      sub\n      sub\n      dup2\n      mstore\n      swap1\n      0x40\n      mstore\n        /* \"Disney/disney.sol\":4089:4134  keccak256(abi.encodePacked(_nombreAtraccion)) */\n      dup1\n      mload\n      swap1\n      0x20\n      add\n      keccak256\n        /* \"Disney/disney.sol\":4069:4080  Atracciones */\n      0x04\n        /* \"Disney/disney.sol\":4081:4082  i */\n      dup3\n        /* \"Disney/disney.sol\":4069:4083  Atracciones[i] */\n      dup2\n      sload\n      dup2\n      lt\n      tag_192\n      jumpi\n      invalid\n    tag_192:\n      swap1\n      0x00\n      mstore\n      keccak256(0x00, 0x20)\n      add\n        /* \"Disney/disney.sol\":4052:4084  abi.encodePacked(Atracciones[i]) */\n      add(0x20, mload(0x40))\n      tag_194\n      swap2\n      swap1\n      tag_93\n      jump\t// in\n    tag_194:\n      mload(0x40)\n      0x20\n      dup2\n      dup4\n      sub\n      sub\n      dup2\n      mstore\n      swap1\n      0x40\n      mstore\n        /* \"Disney/disney.sol\":4042:4085  keccak256(abi.encodePacked(Atracciones[i])) */\n      dup1\n      mload\n      swap1\n      0x20\n      add\n      keccak256\n        /* \"Disney/disney.sol\":4042:4134  keccak256(abi.encodePacked(Atracciones[i])) == keccak256(abi.encodePacked(_nombreAtraccion)) */\n      eq\n        /* \"Disney/disney.sol\":4038:4592  if (keccak256(abi.encodePacked(Atracciones[i])) == keccak256(abi.encodePacked(_nombreAtraccion))) {\r... */\n      iszero\n      tag_195\n      jumpi\n        /* \"Disney/disney.sol\":4162:4166  true */\n      0x01\n        /* \"Disney/disney.sol\":4155:4166  alta = true */\n      swap2\n      pop\n        /* \"Disney/disney.sol\":4189:4207  MappingAtracciones */\n      0x03\n        /* \"Disney/disney.sol\":4208:4224  _nombreAtraccion */\n      dup5\n        /* \"Disney/disney.sol\":4189:4225  MappingAtracciones[_nombreAtraccion] */\n      mload(0x40)\n      tag_196\n      swap2\n      swap1\n      tag_89\n      jump\t// in\n    tag_196:\n      swap1\n      dup2\n      mstore\n      0x20\n      add\n      mload(0x40)\n      dup1\n      swap2\n      sub\n      swap1\n      keccak256\n        /* \"Disney/disney.sol\":4189:4232  MappingAtracciones[_nombreAtraccion].estado */\n      0x02\n      add\n      0x00\n      swap1\n      sload\n      swap1\n      0x0100\n      exp\n      swap1\n      div\n      0xff\n      and\n        /* \"Disney/disney.sol\":4185:4553  if (MappingAtracciones[_nombreAtraccion].estado) {\r... */\n      iszero\n      tag_197\n      jumpi\n        /* \"Disney/disney.sol\":4364:4369  false */\n      0x00\n        /* \"Disney/disney.sol\":4318:4336  MappingAtracciones */\n      0x03\n        /* \"Disney/disney.sol\":4337:4353  _nombreAtraccion */\n      dup6\n        /* \"Disney/disney.sol\":4318:4354  MappingAtracciones[_nombreAtraccion] */\n      mload(0x40)\n      tag_198\n      swap2\n      swap1\n      tag_89\n      jump\t// in\n    tag_198:\n      swap1\n      dup2\n      mstore\n      0x20\n      add\n      mload(0x40)\n      dup1\n      swap2\n      sub\n      swap1\n      keccak256\n        /* \"Disney/disney.sol\":4318:4361  MappingAtracciones[_nombreAtraccion].estado */\n      0x02\n      add\n      0x00\n        /* \"Disney/disney.sol\":4318:4369  MappingAtracciones[_nombreAtraccion].estado = false */\n      0x0100\n      exp\n      dup2\n      sload\n      dup2\n      0xff\n      mul\n      not\n      and\n      swap1\n      dup4\n      iszero\n      iszero\n      mul\n      or\n      swap1\n      sstore\n      pop\n        /* \"Disney/disney.sol\":4185:4553  if (MappingAtracciones[_nombreAtraccion].estado) {\r... */\n      jump(tag_199)\n    tag_197:\n        /* \"Disney/disney.sol\":4426:4444  MappingAtracciones */\n      0x03\n        /* \"Disney/disney.sol\":4445:4461  _nombreAtraccion */\n      dup5\n        /* \"Disney/disney.sol\":4426:4462  MappingAtracciones[_nombreAtraccion] */\n      mload(0x40)\n      tag_200\n      swap2\n      swap1\n      tag_89\n      jump\t// in\n    tag_200:\n      swap1\n      dup2\n      mstore\n      0x20\n      add\n      mload(0x40)\n      dup1\n      swap2\n      sub\n      swap1\n      keccak256\n        /* \"Disney/disney.sol\":4426:4469  MappingAtracciones[_nombreAtraccion].estado */\n      0x02\n      add\n      0x00\n      swap1\n      sload\n      swap1\n      0x0100\n      exp\n      swap1\n      div\n      0xff\n      and\n        /* \"Disney/disney.sol\":4418:4533  require(MappingAtracciones[_nombreAtraccion].estado, \"No se puede dar de baja a una atraccion que ya esta de baja\") */\n      tag_201\n      jumpi\n      mload(0x40)\n      0x08c379a000000000000000000000000000000000000000000000000000000000\n      dup2\n      mstore\n      0x04\n      add\n      tag_202\n      swap1\n      tag_203\n      jump\t// in\n    tag_202:\n      mload(0x40)\n      dup1\n      swap2\n      sub\n      swap1\n      revert\n    tag_201:\n        /* \"Disney/disney.sol\":4185:4553  if (MappingAtracciones[_nombreAtraccion].estado) {\r... */\n    tag_199:\n        /* \"Disney/disney.sol\":4571:4576  break */\n      jump(tag_189)\n        /* \"Disney/disney.sol\":4038:4592  if (keccak256(abi.encodePacked(Atracciones[i])) == keccak256(abi.encodePacked(_nombreAtraccion))) {\r... */\n    tag_195:\n        /* \"Disney/disney.sol\":4018:4021  i++ */\n      dup1\n      dup1\n      0x01\n      add\n      swap2\n      pop\n      pop\n        /* \"Disney/disney.sol\":3977:4603  for (uint i = 0; i < Atracciones.length; i++) {\r... */\n      jump(tag_188)\n    tag_189:\n      pop\n        /* \"Disney/disney.sol\":4621:4625  alta */\n      dup1\n        /* \"Disney/disney.sol\":4613:4683  require(alta, \"No se puede dar de baja a una atraccion que no exista\") */\n      tag_204\n      jumpi\n      mload(0x40)\n      0x08c379a000000000000000000000000000000000000000000000000000000000\n      dup2\n      mstore\n      0x04\n      add\n      tag_205\n      swap1\n      tag_206\n      jump\t// in\n    tag_205:\n      mload(0x40)\n      dup1\n      swap2\n      sub\n      swap1\n      revert\n    tag_204:\n        /* \"Disney/disney.sol\":4732:4764  baja_atraccion(_nombreAtraccion) */\n      0x24ba6c881728980191398db8dcfd8ed4f6aeb1c08df349d63f3b85075f3e86dd\n        /* \"Disney/disney.sol\":4747:4763  _nombreAtraccion */\n      dup4\n        /* \"Disney/disney.sol\":4732:4764  baja_atraccion(_nombreAtraccion) */\n      mload(0x40)\n      tag_207\n      swap2\n      swap1\n      tag_32\n      jump\t// in\n    tag_207:\n      mload(0x40)\n      dup1\n      swap2\n      sub\n      swap1\n      log1\n        /* \"Disney/disney.sol\":2578:2579  _ */\n      pop\n        /* \"Disney/disney.sol\":3789:4772  function BajarAtraccion (string memory _nombreAtraccion) public Unicamente(msg.sender) {\r... */\n      pop\n      pop\n      jump\t// out\n        /* \"Disney/disney.sol\":4818:5816  function SubirAtraccion (string memory _nombreAtraccion) public Unicamente(msg.sender) {\r... */\n    tag_64:\n        /* \"Disney/disney.sol\":4893:4903  msg.sender */\n      caller\n        /* \"Disney/disney.sol\":2513:2518  owner */\n      0x01\n      0x00\n      swap1\n      sload\n      swap1\n      0x0100\n      exp\n      swap1\n      div\n      0xffffffffffffffffffffffffffffffffffffffff\n      and\n        /* \"Disney/disney.sol\":2499:2518  _direccion == owner */\n      0xffffffffffffffffffffffffffffffffffffffff\n      and\n        /* \"Disney/disney.sol\":2499:2509  _direccion */\n      dup2\n        /* \"Disney/disney.sol\":2499:2518  _direccion == owner */\n      0xffffffffffffffffffffffffffffffffffffffff\n      and\n      eq\n        /* \"Disney/disney.sol\":2490:2567  require( _direccion == owner, \"No tienes permiso para ejecutar esta acción\") */\n      tag_209\n      jumpi\n      mload(0x40)\n      0x08c379a000000000000000000000000000000000000000000000000000000000\n      dup2\n      mstore\n      0x04\n      add\n      tag_210\n      swap1\n      tag_152\n      jump\t// in\n    tag_210:\n      mload(0x40)\n      dup1\n      swap2\n      sub\n      swap1\n      revert\n    tag_209:\n        /* \"Disney/disney.sol\":4916:4925  bool alta */\n      0x00\n        /* \"Disney/disney.sol\":5011:5017  uint i */\n      dup1\n        /* \"Disney/disney.sol\":5006:5638  for (uint i = 0; i < Atracciones.length; i++) {\r... */\n    tag_212:\n        /* \"Disney/disney.sol\":5027:5038  Atracciones */\n      0x04\n        /* \"Disney/disney.sol\":5027:5045  Atracciones.length */\n      dup1\n      sload\n      swap1\n      pop\n        /* \"Disney/disney.sol\":5023:5024  i */\n      dup2\n        /* \"Disney/disney.sol\":5023:5045  i < Atracciones.length */\n      lt\n        /* \"Disney/disney.sol\":5006:5638  for (uint i = 0; i < Atracciones.length; i++) {\r... */\n      iszero\n      tag_213\n      jumpi\n        /* \"Disney/disney.sol\":5145:5161  _nombreAtraccion */\n      dup4\n        /* \"Disney/disney.sol\":5128:5162  abi.encodePacked(_nombreAtraccion) */\n      add(0x20, mload(0x40))\n      tag_215\n      swap2\n      swap1\n      tag_89\n      jump\t// in\n    tag_215:\n      mload(0x40)\n      0x20\n      dup2\n      dup4\n      sub\n      sub\n      dup2\n      mstore\n      swap1\n      0x40\n      mstore\n        /* \"Disney/disney.sol\":5118:5163  keccak256(abi.encodePacked(_nombreAtraccion)) */\n      dup1\n      mload\n      swap1\n      0x20\n      add\n      keccak256\n        /* \"Disney/disney.sol\":5098:5109  Atracciones */\n      0x04\n        /* \"Disney/disney.sol\":5110:5111  i */\n      dup3\n        /* \"Disney/disney.sol\":5098:5112  Atracciones[i] */\n      dup2\n      sload\n      dup2\n      lt\n      tag_216\n      jumpi\n      invalid\n    tag_216:\n      swap1\n      0x00\n      mstore\n      keccak256(0x00, 0x20)\n      add\n        /* \"Disney/disney.sol\":5081:5113  abi.encodePacked(Atracciones[i]) */\n      add(0x20, mload(0x40))\n      tag_218\n      swap2\n      swap1\n      tag_93\n      jump\t// in\n    tag_218:\n      mload(0x40)\n      0x20\n      dup2\n      dup4\n      sub\n      sub\n      dup2\n      mstore\n      swap1\n      0x40\n      mstore\n        /* \"Disney/disney.sol\":5071:5114  keccak256(abi.encodePacked(Atracciones[i])) */\n      dup1\n      mload\n      swap1\n      0x20\n      add\n      keccak256\n        /* \"Disney/disney.sol\":5071:5163  keccak256(abi.encodePacked(Atracciones[i])) == keccak256(abi.encodePacked(_nombreAtraccion)) */\n      eq\n        /* \"Disney/disney.sol\":5067:5627  if (keccak256(abi.encodePacked(Atracciones[i])) == keccak256(abi.encodePacked(_nombreAtraccion))) {\r... */\n      iszero\n      tag_219\n      jumpi\n        /* \"Disney/disney.sol\":5191:5195  true */\n      0x01\n        /* \"Disney/disney.sol\":5184:5195  alta = true */\n      swap2\n      pop\n        /* \"Disney/disney.sol\":5219:5237  MappingAtracciones */\n      0x03\n        /* \"Disney/disney.sol\":5238:5254  _nombreAtraccion */\n      dup5\n        /* \"Disney/disney.sol\":5219:5255  MappingAtracciones[_nombreAtraccion] */\n      mload(0x40)\n      tag_220\n      swap2\n      swap1\n      tag_89\n      jump\t// in\n    tag_220:\n      swap1\n      dup2\n      mstore\n      0x20\n      add\n      mload(0x40)\n      dup1\n      swap2\n      sub\n      swap1\n      keccak256\n        /* \"Disney/disney.sol\":5219:5262  MappingAtracciones[_nombreAtraccion].estado */\n      0x02\n      add\n      0x00\n      swap1\n      sload\n      swap1\n      0x0100\n      exp\n      swap1\n      div\n      0xff\n      and\n        /* \"Disney/disney.sol\":5214:5588  if (!MappingAtracciones[_nombreAtraccion].estado) {\r... */\n      tag_221\n      jumpi\n        /* \"Disney/disney.sol\":5394:5398  true */\n      0x01\n        /* \"Disney/disney.sol\":5348:5366  MappingAtracciones */\n      0x03\n        /* \"Disney/disney.sol\":5367:5383  _nombreAtraccion */\n      dup6\n        /* \"Disney/disney.sol\":5348:5384  MappingAtracciones[_nombreAtraccion] */\n      mload(0x40)\n      tag_222\n      swap2\n      swap1\n      tag_89\n      jump\t// in\n    tag_222:\n      swap1\n      dup2\n      mstore\n      0x20\n      add\n      mload(0x40)\n      dup1\n      swap2\n      sub\n      swap1\n      keccak256\n        /* \"Disney/disney.sol\":5348:5391  MappingAtracciones[_nombreAtraccion].estado */\n      0x02\n      add\n      0x00\n        /* \"Disney/disney.sol\":5348:5398  MappingAtracciones[_nombreAtraccion].estado = true */\n      0x0100\n      exp\n      dup2\n      sload\n      dup2\n      0xff\n      mul\n      not\n      and\n      swap1\n      dup4\n      iszero\n      iszero\n      mul\n      or\n      swap1\n      sstore\n      pop\n        /* \"Disney/disney.sol\":5214:5588  if (!MappingAtracciones[_nombreAtraccion].estado) {\r... */\n      jump(tag_223)\n    tag_221:\n        /* \"Disney/disney.sol\":5456:5474  MappingAtracciones */\n      0x03\n        /* \"Disney/disney.sol\":5475:5491  _nombreAtraccion */\n      dup5\n        /* \"Disney/disney.sol\":5456:5492  MappingAtracciones[_nombreAtraccion] */\n      mload(0x40)\n      tag_224\n      swap2\n      swap1\n      tag_89\n      jump\t// in\n    tag_224:\n      swap1\n      dup2\n      mstore\n      0x20\n      add\n      mload(0x40)\n      dup1\n      swap2\n      sub\n      swap1\n      keccak256\n        /* \"Disney/disney.sol\":5456:5499  MappingAtracciones[_nombreAtraccion].estado */\n      0x02\n      add\n      0x00\n      swap1\n      sload\n      swap1\n      0x0100\n      exp\n      swap1\n      div\n      0xff\n      and\n        /* \"Disney/disney.sol\":5455:5499  !MappingAtracciones[_nombreAtraccion].estado */\n      iszero\n        /* \"Disney/disney.sol\":5447:5568  require(!MappingAtracciones[_nombreAtraccion].estado, \"No se puede dar de alta a una atraccion que ya esta dada de alta\") */\n      tag_225\n      jumpi\n      mload(0x40)\n      0x08c379a000000000000000000000000000000000000000000000000000000000\n      dup2\n      mstore\n      0x04\n      add\n      tag_226\n      swap1\n      tag_227\n      jump\t// in\n    tag_226:\n      mload(0x40)\n      dup1\n      swap2\n      sub\n      swap1\n      revert\n    tag_225:\n        /* \"Disney/disney.sol\":5214:5588  if (!MappingAtracciones[_nombreAtraccion].estado) {\r... */\n    tag_223:\n        /* \"Disney/disney.sol\":5606:5611  break */\n      jump(tag_213)\n        /* \"Disney/disney.sol\":5067:5627  if (keccak256(abi.encodePacked(Atracciones[i])) == keccak256(abi.encodePacked(_nombreAtraccion))) {\r... */\n    tag_219:\n        /* \"Disney/disney.sol\":5047:5050  i++ */\n      dup1\n      dup1\n      0x01\n      add\n      swap2\n      pop\n      pop\n        /* \"Disney/disney.sol\":5006:5638  for (uint i = 0; i < Atracciones.length; i++) {\r... */\n      jump(tag_212)\n    tag_213:\n      pop\n        /* \"Disney/disney.sol\":5656:5660  alta */\n      dup1\n        /* \"Disney/disney.sol\":5648:5718  require(alta, \"No se puede dar de alta a una atraccion que no exista\") */\n      tag_228\n      jumpi\n      mload(0x40)\n      0x08c379a000000000000000000000000000000000000000000000000000000000\n      dup2\n      mstore\n      0x04\n      add\n      tag_229\n      swap1\n      tag_230\n      jump\t// in\n    tag_229:\n      mload(0x40)\n      dup1\n      swap2\n      sub\n      swap1\n      revert\n    tag_228:\n        /* \"Disney/disney.sol\":5775:5808  subir_atraccion(_nombreAtraccion) */\n      0x93bf52a97553b4b909dc0c898ca0af225afa4b2926e6d4f002f1470287662fc1\n        /* \"Disney/disney.sol\":5791:5807  _nombreAtraccion */\n      dup4\n        /* \"Disney/disney.sol\":5775:5808  subir_atraccion(_nombreAtraccion) */\n      mload(0x40)\n      tag_231\n      swap2\n      swap1\n      tag_32\n      jump\t// in\n    tag_231:\n      mload(0x40)\n      dup1\n      swap2\n      sub\n      swap1\n      log1\n        /* \"Disney/disney.sol\":2578:2579  _ */\n      pop\n        /* \"Disney/disney.sol\":4818:5816  function SubirAtraccion (string memory _nombreAtraccion) public Unicamente(msg.sender) {\r... */\n      pop\n      pop\n      jump\t// out\n        /* \"Disney/disney.sol\":581:625  mapping (address => cliente) public Clientes */\n    tag_69:\n      mstore(0x20, 0x02)\n      dup1\n      0x00\n      mstore\n      keccak256(0x00, 0x40)\n      0x00\n      swap2\n      pop\n      swap1\n      pop\n      dup1\n      0x00\n      add\n      sload\n      swap1\n      pop\n      dup2\n      jump\t// out\n        /* \"Disney/disney.sol\":3066:3121  mapping (string => atraccion) public MappingAtracciones */\n    tag_74:\n      0x03\n      dup2\n      dup1\n      mload\n      0x20\n      dup2\n      add\n      dup3\n      add\n      dup1\n      mload\n      dup5\n      dup3\n      mstore\n      0x20\n      dup4\n      add\n      0x20\n      dup6\n      add\n      keccak256\n      dup2\n      dup4\n      mstore\n      dup1\n      swap6\n      pop\n      pop\n      pop\n      pop\n      pop\n      pop\n      0x00\n      swap2\n      pop\n      swap1\n      pop\n      dup1\n      0x00\n      add\n      dup1\n      sload\n      0x01\n      dup2\n      0x01\n      and\n      iszero\n      0x0100\n      mul\n      sub\n      and\n      0x02\n      swap1\n      div\n      dup1\n      0x1f\n      add\n      0x20\n      dup1\n      swap2\n      div\n      mul\n      0x20\n      add\n      mload(0x40)\n      swap1\n      dup2\n      add\n      0x40\n      mstore\n      dup1\n      swap3\n      swap2\n      swap1\n      dup2\n      dup2\n      mstore\n      0x20\n      add\n      dup3\n      dup1\n      sload\n      0x01\n      dup2\n      0x01\n      and\n      iszero\n      0x0100\n      mul\n      sub\n      and\n      0x02\n      swap1\n      div\n      dup1\n      iszero\n      tag_232\n      jumpi\n      dup1\n      0x1f\n      lt\n      tag_233\n      jumpi\n      0x0100\n      dup1\n      dup4\n      sload\n      div\n      mul\n      dup4\n      mstore\n      swap2\n      0x20\n      add\n      swap2\n      jump(tag_232)\n    tag_233:\n      dup3\n      add\n      swap2\n      swap1\n      0x00\n      mstore\n      keccak256(0x00, 0x20)\n      swap1\n    tag_234:\n      dup2\n      sload\n      dup2\n      mstore\n      swap1\n      0x01\n      add\n      swap1\n      0x20\n      add\n      dup1\n      dup4\n      gt\n      tag_234\n      jumpi\n      dup3\n      swap1\n      sub\n      0x1f\n      and\n      dup3\n      add\n      swap2\n    tag_232:\n      pop\n      pop\n      pop\n      pop\n      pop\n      swap1\n      dup1\n      0x01\n      add\n      sload\n      swap1\n      dup1\n      0x02\n      add\n      0x00\n      swap1\n      sload\n      swap1\n      0x0100\n      exp\n      swap1\n      div\n      0xff\n      and\n      swap1\n      pop\n      dup4\n      jump\t// out\n        /* \"Disney/disney.sol\":2088:2190  function MisTokens() public view returns(uint) {\r... */\n    tag_79:\n        /* \"Disney/disney.sol\":2129:2133  uint */\n      0x00\n        /* \"Disney/disney.sol\":2155:2160  token */\n      dup1\n      0x00\n      swap1\n      sload\n      swap1\n      0x0100\n      exp\n      swap1\n      div\n      0xffffffffffffffffffffffffffffffffffffffff\n      and\n        /* \"Disney/disney.sol\":2155:2170  token.balanceOf */\n      0xffffffffffffffffffffffffffffffffffffffff\n      and\n      0x70a08231\n        /* \"Disney/disney.sol\":2171:2181  msg.sender */\n      caller\n        /* \"Disney/disney.sol\":2155:2182  token.balanceOf(msg.sender) */\n      mload(0x40)\n      dup3\n      0xffffffff\n      and\n      0xe0\n      shl\n      dup2\n      mstore\n      0x04\n      add\n      tag_236\n      swap2\n      swap1\n      tag_237\n      jump\t// in\n    tag_236:\n      0x20\n      mload(0x40)\n      dup1\n      dup4\n      sub\n      dup2\n      dup7\n      dup1\n      extcodesize\n      iszero\n      dup1\n      iszero\n      tag_238\n      jumpi\n      0x00\n      dup1\n      revert\n    tag_238:\n      pop\n      gas\n      staticcall\n      iszero\n      dup1\n      iszero\n      tag_240\n      jumpi\n      returndatasize\n      0x00\n      dup1\n      returndatacopy\n      revert(0x00, returndatasize)\n    tag_240:\n      pop\n      pop\n      pop\n      pop\n      mload(0x40)\n      returndatasize\n      not(0x1f)\n      0x1f\n      dup3\n      add\n      and\n      dup3\n      add\n      dup1\n      0x40\n      mstore\n      pop\n      dup2\n      add\n      swap1\n      tag_241\n      swap2\n      swap1\n      tag_183\n      jump\t// in\n    tag_241:\n        /* \"Disney/disney.sol\":2148:2182  return token.balanceOf(msg.sender) */\n      swap1\n      pop\n        /* \"Disney/disney.sol\":2088:2190  function MisTokens() public view returns(uint) {\r... */\n      swap1\n      jump\t// out\n        /* \"Disney/disney.sol\":1114:1887  function CompraTokens(uint _numTokens) public payable {\r... */\n    tag_83:\n        /* \"Disney/disney.sol\":1233:1243  uint coste */\n      0x00\n        /* \"Disney/disney.sol\":1246:1270  PrecioTokens(_numTokens) */\n      tag_243\n        /* \"Disney/disney.sol\":1259:1269  _numTokens */\n      dup3\n        /* \"Disney/disney.sol\":1246:1258  PrecioTokens */\n      tag_244\n        /* \"Disney/disney.sol\":1246:1270  PrecioTokens(_numTokens) */\n      jump\t// in\n    tag_243:\n        /* \"Disney/disney.sol\":1233:1270  uint coste = PrecioTokens(_numTokens) */\n      swap1\n      pop\n        /* \"Disney/disney.sol\":1362:1367  coste */\n      dup1\n        /* \"Disney/disney.sol\":1349:1358  msg.value */\n      callvalue\n        /* \"Disney/disney.sol\":1349:1367  msg.value >= coste */\n      lt\n      iszero\n        /* \"Disney/disney.sol\":1340:1402  require (msg.value >= coste, \"Cantidad de ether insuficiente\") */\n      tag_245\n      jumpi\n      mload(0x40)\n      0x08c379a000000000000000000000000000000000000000000000000000000000\n      dup2\n      mstore\n      0x04\n      add\n      tag_246\n      swap1\n      tag_247\n      jump\t// in\n    tag_246:\n      mload(0x40)\n      dup1\n      swap2\n      sub\n      swap1\n      revert\n    tag_245:\n        /* \"Disney/disney.sol\":1511:1521  _numTokens */\n      dup2\n        /* \"Disney/disney.sol\":1496:1507  BalanceOf() */\n      tag_248\n        /* \"Disney/disney.sol\":1496:1505  BalanceOf */\n      tag_54\n        /* \"Disney/disney.sol\":1496:1507  BalanceOf() */\n      jump\t// in\n    tag_248:\n        /* \"Disney/disney.sol\":1496:1521  BalanceOf() >= _numTokens */\n      lt\n      iszero\n        /* \"Disney/disney.sol\":1487:1558  require (BalanceOf() >= _numTokens, \"Cantidad de tokens insuficientes\") */\n      tag_249\n      jumpi\n      mload(0x40)\n      0x08c379a000000000000000000000000000000000000000000000000000000000\n      dup2\n      mstore\n      0x04\n      add\n      tag_250\n      swap1\n      tag_251\n      jump\t// in\n    tag_250:\n      mload(0x40)\n      dup1\n      swap2\n      sub\n      swap1\n      revert\n    tag_249:\n        /* \"Disney/disney.sol\":1625:1635  msg.sender */\n      caller\n        /* \"Disney/disney.sol\":1625:1644  msg.sender.transfer */\n      0xffffffffffffffffffffffffffffffffffffffff\n      and\n        /* \"Disney/disney.sol\":1625:1663  msg.sender.transfer(msg.value - coste) */\n      0x08fc\n        /* \"Disney/disney.sol\":1657:1662  coste */\n      dup3\n        /* \"Disney/disney.sol\":1645:1654  msg.value */\n      callvalue\n        /* \"Disney/disney.sol\":1645:1662  msg.value - coste */\n      sub\n        /* \"Disney/disney.sol\":1625:1663  msg.sender.transfer(msg.value - coste) */\n      swap1\n      dup2\n      iszero\n      mul\n      swap1\n      mload(0x40)\n      0x00\n      mload(0x40)\n      dup1\n      dup4\n      sub\n      dup2\n      dup6\n      dup9\n      dup9\n      call\n      swap4\n      pop\n      pop\n      pop\n      pop\n      iszero\n      dup1\n      iszero\n      tag_253\n      jumpi\n      returndatasize\n      0x00\n      dup1\n      returndatacopy\n      revert(0x00, returndatasize)\n    tag_253:\n      pop\n        /* \"Disney/disney.sol\":1718:1723  token */\n      0x00\n      dup1\n      sload\n      swap1\n      0x0100\n      exp\n      swap1\n      div\n      0xffffffffffffffffffffffffffffffffffffffff\n      and\n        /* \"Disney/disney.sol\":1718:1732  token.transfer */\n      0xffffffffffffffffffffffffffffffffffffffff\n      and\n      0xa9059cbb\n        /* \"Disney/disney.sol\":1733:1743  msg.sender */\n      caller\n        /* \"Disney/disney.sol\":1745:1755  _numTokens */\n      dup5\n        /* \"Disney/disney.sol\":1718:1756  token.transfer(msg.sender, _numTokens) */\n      mload(0x40)\n      dup4\n      0xffffffff\n      and\n      0xe0\n      shl\n      dup2\n      mstore\n      0x04\n      add\n      tag_254\n      swap3\n      swap2\n      swap1\n      tag_255\n      jump\t// in\n    tag_254:\n      0x20\n      mload(0x40)\n      dup1\n      dup4\n      sub\n      dup2\n      0x00\n      dup8\n      dup1\n      extcodesize\n      iszero\n      dup1\n      iszero\n      tag_256\n      jumpi\n      0x00\n      dup1\n      revert\n    tag_256:\n      pop\n      gas\n      call\n      iszero\n      dup1\n      iszero\n      tag_258\n      jumpi\n      returndatasize\n      0x00\n      dup1\n      returndatacopy\n      revert(0x00, returndatasize)\n    tag_258:\n      pop\n      pop\n      pop\n      pop\n      mload(0x40)\n      returndatasize\n      not(0x1f)\n      0x1f\n      dup3\n      add\n      and\n      dup3\n      add\n      dup1\n      0x40\n      mstore\n      pop\n      dup2\n      add\n      swap1\n      tag_259\n      swap2\n      swap1\n      tag_115\n      jump\t// in\n    tag_259:\n      pop\n        /* \"Disney/disney.sol\":1869:1879  _numTokens */\n      dup2\n        /* \"Disney/disney.sol\":1830:1838  Clientes */\n      0x02\n        /* \"Disney/disney.sol\":1830:1850  Clientes[msg.sender] */\n      0x00\n        /* \"Disney/disney.sol\":1839:1849  msg.sender */\n      caller\n        /* \"Disney/disney.sol\":1830:1850  Clientes[msg.sender] */\n      0xffffffffffffffffffffffffffffffffffffffff\n      and\n      0xffffffffffffffffffffffffffffffffffffffff\n      and\n      dup2\n      mstore\n      0x20\n      add\n      swap1\n      dup2\n      mstore\n      0x20\n      add\n      0x00\n      keccak256\n        /* \"Disney/disney.sol\":1830:1865  Clientes[msg.sender].token_comprado */\n      0x00\n      add\n      0x00\n        /* \"Disney/disney.sol\":1830:1879  Clientes[msg.sender].token_comprado += _numTokens */\n      dup3\n      dup3\n      sload\n      add\n      swap3\n      pop\n      pop\n      dup2\n      swap1\n      sstore\n      pop\n        /* \"Disney/disney.sol\":1114:1887  function CompraTokens(uint _numTokens) public payable {\r... */\n      pop\n      pop\n      jump\t// out\n        /* \"Disney/disney.sol\":919:1060  function PrecioTokens(uint _numTokens) internal pure returns (uint) {\r... */\n    tag_244:\n        /* \"Disney/disney.sol\":981:985  uint */\n      0x00\n        /* \"Disney/disney.sol\":1044:1051  1 ether */\n      0x0de0b6b3a7640000\n        /* \"Disney/disney.sol\":1030:1040  _numTokens */\n      dup3\n        /* \"Disney/disney.sol\":1030:1052  _numTokens * (1 ether) */\n      mul\n        /* \"Disney/disney.sol\":1023:1052  return _numTokens * (1 ether) */\n      swap1\n      pop\n        /* \"Disney/disney.sol\":919:1060  function PrecioTokens(uint _numTokens) internal pure returns (uint) {\r... */\n      swap2\n      swap1\n      pop\n      jump\t// out\n    tag_120:\n      dup3\n      dup1\n      sload\n      0x01\n      dup2\n      0x01\n      and\n      iszero\n      0x0100\n      mul\n      sub\n      and\n      0x02\n      swap1\n      div\n      swap1\n      0x00\n      mstore\n      keccak256(0x00, 0x20)\n      swap1\n      0x1f\n      add\n      0x20\n      swap1\n      div\n      dup2\n      add\n      swap3\n      dup3\n      0x1f\n      lt\n      tag_262\n      jumpi\n      dup1\n      sload\n      dup6\n      sstore\n      jump(tag_261)\n    tag_262:\n      dup3\n      dup1\n      add\n      0x01\n      add\n      dup6\n      sstore\n      dup3\n      iszero\n      tag_261\n      jumpi\n      0x00\n      mstore\n      keccak256(0x00, 0x20)\n      swap2\n      0x1f\n      add\n      0x20\n      swap1\n      div\n      dup3\n      add\n    tag_263:\n      dup3\n      dup2\n      gt\n      iszero\n      tag_264\n      jumpi\n      dup3\n      sload\n      dup3\n      sstore\n      swap2\n      0x01\n      add\n      swap2\n      swap1\n      0x01\n      add\n      swap1\n      jump(tag_263)\n    tag_264:\n    tag_261:\n      pop\n      swap1\n      pop\n      tag_265\n      swap2\n      swap1\n      tag_266\n      jump\t// in\n    tag_265:\n      pop\n      swap1\n      jump\t// out\n    tag_156:\n      dup3\n      dup1\n      sload\n      0x01\n      dup2\n      0x01\n      and\n      iszero\n      0x0100\n      mul\n      sub\n      and\n      0x02\n      swap1\n      div\n      swap1\n      0x00\n      mstore\n      keccak256(0x00, 0x20)\n      swap1\n      0x1f\n      add\n      0x20\n      swap1\n      div\n      dup2\n      add\n      swap3\n      dup3\n      0x1f\n      lt\n      tag_268\n      jumpi\n      dup1\n      mload\n      not(0xff)\n      and\n      dup4\n      dup1\n      add\n      or\n      dup6\n      sstore\n      jump(tag_267)\n    tag_268:\n      dup3\n      dup1\n      add\n      0x01\n      add\n      dup6\n      sstore\n      dup3\n      iszero\n      tag_267\n      jumpi\n      swap2\n      dup3\n      add\n    tag_269:\n      dup3\n      dup2\n      gt\n      iszero\n      tag_270\n      jumpi\n      dup3\n      mload\n      dup3\n      sstore\n      swap2\n      0x20\n      add\n      swap2\n      swap1\n      0x01\n      add\n      swap1\n      jump(tag_269)\n    tag_270:\n    tag_267:\n      pop\n      swap1\n      pop\n      tag_271\n      swap2\n      swap1\n      tag_266\n      jump\t// in\n    tag_271:\n      pop\n      swap1\n      jump\t// out\n    tag_266:\n    tag_272:\n      dup1\n      dup3\n      gt\n      iszero\n      tag_273\n      jumpi\n      0x00\n      dup2\n      0x00\n      swap1\n      sstore\n      pop\n      0x01\n      add\n      jump(tag_272)\n    tag_273:\n      pop\n      swap1\n      jump\t// out\n        /* \"--CODEGEN--\":5:135   */\n    tag_275:\n      0x00\n        /* \"--CODEGEN--\":85:91   */\n      dup2\n        /* \"--CODEGEN--\":72:92   */\n      calldataload\n        /* \"--CODEGEN--\":63:92   */\n      swap1\n      pop\n        /* \"--CODEGEN--\":97:130   */\n      tag_277\n        /* \"--CODEGEN--\":124:129   */\n      dup2\n        /* \"--CODEGEN--\":97:130   */\n      tag_278\n      jump\t// in\n    tag_277:\n        /* \"--CODEGEN--\":57:135   */\n      swap3\n      swap2\n      pop\n      pop\n      jump\t// out\n        /* \"--CODEGEN--\":142:270   */\n    tag_279:\n      0x00\n        /* \"--CODEGEN--\":223:229   */\n      dup2\n        /* \"--CODEGEN--\":217:230   */\n      mload\n        /* \"--CODEGEN--\":208:230   */\n      swap1\n      pop\n        /* \"--CODEGEN--\":235:265   */\n      tag_281\n        /* \"--CODEGEN--\":259:264   */\n      dup2\n        /* \"--CODEGEN--\":235:265   */\n      tag_282\n      jump\t// in\n    tag_281:\n        /* \"--CODEGEN--\":202:270   */\n      swap3\n      swap2\n      pop\n      pop\n      jump\t// out\n        /* \"--CODEGEN--\":278:720   */\n    tag_283:\n      0x00\n        /* \"--CODEGEN--\":380:383   */\n      dup3\n        /* \"--CODEGEN--\":373:377   */\n      0x1f\n        /* \"--CODEGEN--\":365:371   */\n      dup4\n        /* \"--CODEGEN--\":361:378   */\n      add\n        /* \"--CODEGEN--\":357:384   */\n      slt\n        /* \"--CODEGEN--\":347:349   */\n      tag_285\n      jumpi\n        /* \"--CODEGEN--\":398:399   */\n      0x00\n        /* \"--CODEGEN--\":395:396   */\n      dup1\n        /* \"--CODEGEN--\":388:400   */\n      revert\n        /* \"--CODEGEN--\":347:349   */\n    tag_285:\n        /* \"--CODEGEN--\":435:441   */\n      dup2\n        /* \"--CODEGEN--\":422:442   */\n      calldataload\n        /* \"--CODEGEN--\":457:522   */\n      tag_286\n        /* \"--CODEGEN--\":472:521   */\n      tag_287\n        /* \"--CODEGEN--\":514:520   */\n      dup3\n        /* \"--CODEGEN--\":472:521   */\n      tag_288\n      jump\t// in\n    tag_287:\n        /* \"--CODEGEN--\":457:522   */\n      tag_289\n      jump\t// in\n    tag_286:\n        /* \"--CODEGEN--\":448:522   */\n      swap2\n      pop\n        /* \"--CODEGEN--\":542:548   */\n      dup1\n        /* \"--CODEGEN--\":535:540   */\n      dup3\n        /* \"--CODEGEN--\":528:549   */\n      mstore\n        /* \"--CODEGEN--\":578:582   */\n      0x20\n        /* \"--CODEGEN--\":570:576   */\n      dup4\n        /* \"--CODEGEN--\":566:583   */\n      add\n        /* \"--CODEGEN--\":611:615   */\n      0x20\n        /* \"--CODEGEN--\":604:609   */\n      dup4\n        /* \"--CODEGEN--\":600:616   */\n      add\n        /* \"--CODEGEN--\":646:649   */\n      dup6\n        /* \"--CODEGEN--\":637:643   */\n      dup4\n        /* \"--CODEGEN--\":632:635   */\n      dup4\n        /* \"--CODEGEN--\":628:644   */\n      add\n        /* \"--CODEGEN--\":625:650   */\n      gt\n        /* \"--CODEGEN--\":622:624   */\n      iszero\n      tag_290\n      jumpi\n        /* \"--CODEGEN--\":663:664   */\n      0x00\n        /* \"--CODEGEN--\":660:661   */\n      dup1\n        /* \"--CODEGEN--\":653:665   */\n      revert\n        /* \"--CODEGEN--\":622:624   */\n    tag_290:\n        /* \"--CODEGEN--\":673:714   */\n      tag_291\n        /* \"--CODEGEN--\":707:713   */\n      dup4\n        /* \"--CODEGEN--\":702:705   */\n      dup3\n        /* \"--CODEGEN--\":697:700   */\n      dup5\n        /* \"--CODEGEN--\":673:714   */\n      tag_292\n      jump\t// in\n    tag_291:\n        /* \"--CODEGEN--\":340:720   */\n      pop\n      pop\n      pop\n      swap3\n      swap2\n      pop\n      pop\n      jump\t// out\n        /* \"--CODEGEN--\":728:858   */\n    tag_293:\n      0x00\n        /* \"--CODEGEN--\":808:814   */\n      dup2\n        /* \"--CODEGEN--\":795:815   */\n      calldataload\n        /* \"--CODEGEN--\":786:815   */\n      swap1\n      pop\n        /* \"--CODEGEN--\":820:853   */\n      tag_295\n        /* \"--CODEGEN--\":847:852   */\n      dup2\n        /* \"--CODEGEN--\":820:853   */\n      tag_296\n      jump\t// in\n    tag_295:\n        /* \"--CODEGEN--\":780:858   */\n      swap3\n      swap2\n      pop\n      pop\n      jump\t// out\n        /* \"--CODEGEN--\":865:999   */\n    tag_297:\n      0x00\n        /* \"--CODEGEN--\":949:955   */\n      dup2\n        /* \"--CODEGEN--\":943:956   */\n      mload\n        /* \"--CODEGEN--\":934:956   */\n      swap1\n      pop\n        /* \"--CODEGEN--\":961:994   */\n      tag_299\n        /* \"--CODEGEN--\":988:993   */\n      dup2\n        /* \"--CODEGEN--\":961:994   */\n      tag_296\n      jump\t// in\n    tag_299:\n        /* \"--CODEGEN--\":928:999   */\n      swap3\n      swap2\n      pop\n      pop\n      jump\t// out\n        /* \"--CODEGEN--\":1006:1247   */\n    tag_68:\n      0x00\n        /* \"--CODEGEN--\":1110:1112   */\n      0x20\n        /* \"--CODEGEN--\":1098:1107   */\n      dup3\n        /* \"--CODEGEN--\":1089:1096   */\n      dup5\n        /* \"--CODEGEN--\":1085:1108   */\n      sub\n        /* \"--CODEGEN--\":1081:1113   */\n      slt\n        /* \"--CODEGEN--\":1078:1080   */\n      iszero\n      tag_301\n      jumpi\n        /* \"--CODEGEN--\":1126:1127   */\n      0x00\n        /* \"--CODEGEN--\":1123:1124   */\n      dup1\n        /* \"--CODEGEN--\":1116:1128   */\n      revert\n        /* \"--CODEGEN--\":1078:1080   */\n    tag_301:\n        /* \"--CODEGEN--\":1161:1162   */\n      0x00\n        /* \"--CODEGEN--\":1178:1231   */\n      tag_302\n        /* \"--CODEGEN--\":1223:1230   */\n      dup5\n        /* \"--CODEGEN--\":1214:1220   */\n      dup3\n        /* \"--CODEGEN--\":1203:1212   */\n      dup6\n        /* \"--CODEGEN--\":1199:1221   */\n      add\n        /* \"--CODEGEN--\":1178:1231   */\n      tag_275\n      jump\t// in\n    tag_302:\n        /* \"--CODEGEN--\":1168:1231   */\n      swap2\n      pop\n        /* \"--CODEGEN--\":1140:1237   */\n      pop\n        /* \"--CODEGEN--\":1072:1247   */\n      swap3\n      swap2\n      pop\n      pop\n      jump\t// out\n        /* \"--CODEGEN--\":1254:1511   */\n    tag_115:\n      0x00\n        /* \"--CODEGEN--\":1366:1368   */\n      0x20\n        /* \"--CODEGEN--\":1354:1363   */\n      dup3\n        /* \"--CODEGEN--\":1345:1352   */\n      dup5\n        /* \"--CODEGEN--\":1341:1364   */\n      sub\n        /* \"--CODEGEN--\":1337:1369   */\n      slt\n        /* \"--CODEGEN--\":1334:1336   */\n      iszero\n      tag_304\n      jumpi\n        /* \"--CODEGEN--\":1382:1383   */\n      0x00\n        /* \"--CODEGEN--\":1379:1380   */\n      dup1\n        /* \"--CODEGEN--\":1372:1384   */\n      revert\n        /* \"--CODEGEN--\":1334:1336   */\n    tag_304:\n        /* \"--CODEGEN--\":1417:1418   */\n      0x00\n        /* \"--CODEGEN--\":1434:1495   */\n      tag_305\n        /* \"--CODEGEN--\":1487:1494   */\n      dup5\n        /* \"--CODEGEN--\":1478:1484   */\n      dup3\n        /* \"--CODEGEN--\":1467:1476   */\n      dup6\n        /* \"--CODEGEN--\":1463:1485   */\n      add\n        /* \"--CODEGEN--\":1434:1495   */\n      tag_279\n      jump\t// in\n    tag_305:\n        /* \"--CODEGEN--\":1424:1495   */\n      swap2\n      pop\n        /* \"--CODEGEN--\":1396:1501   */\n      pop\n        /* \"--CODEGEN--\":1328:1511   */\n      swap3\n      swap2\n      pop\n      pop\n      jump\t// out\n        /* \"--CODEGEN--\":1518:1865   */\n    tag_22:\n      0x00\n        /* \"--CODEGEN--\":1632:1634   */\n      0x20\n        /* \"--CODEGEN--\":1620:1629   */\n      dup3\n        /* \"--CODEGEN--\":1611:1618   */\n      dup5\n        /* \"--CODEGEN--\":1607:1630   */\n      sub\n        /* \"--CODEGEN--\":1603:1635   */\n      slt\n        /* \"--CODEGEN--\":1600:1602   */\n      iszero\n      tag_307\n      jumpi\n        /* \"--CODEGEN--\":1648:1649   */\n      0x00\n        /* \"--CODEGEN--\":1645:1646   */\n      dup1\n        /* \"--CODEGEN--\":1638:1650   */\n      revert\n        /* \"--CODEGEN--\":1600:1602   */\n    tag_307:\n        /* \"--CODEGEN--\":1711:1712   */\n      0x00\n        /* \"--CODEGEN--\":1700:1709   */\n      dup3\n        /* \"--CODEGEN--\":1696:1713   */\n      add\n        /* \"--CODEGEN--\":1683:1714   */\n      calldataload\n        /* \"--CODEGEN--\":1734:1752   */\n      0xffffffffffffffff\n        /* \"--CODEGEN--\":1726:1732   */\n      dup2\n        /* \"--CODEGEN--\":1723:1753   */\n      gt\n        /* \"--CODEGEN--\":1720:1722   */\n      iszero\n      tag_308\n      jumpi\n        /* \"--CODEGEN--\":1766:1767   */\n      0x00\n        /* \"--CODEGEN--\":1763:1764   */\n      dup1\n        /* \"--CODEGEN--\":1756:1768   */\n      revert\n        /* \"--CODEGEN--\":1720:1722   */\n    tag_308:\n        /* \"--CODEGEN--\":1786:1849   */\n      tag_309\n        /* \"--CODEGEN--\":1841:1848   */\n      dup5\n        /* \"--CODEGEN--\":1832:1838   */\n      dup3\n        /* \"--CODEGEN--\":1821:1830   */\n      dup6\n        /* \"--CODEGEN--\":1817:1839   */\n      add\n        /* \"--CODEGEN--\":1786:1849   */\n      tag_283\n      jump\t// in\n    tag_309:\n        /* \"--CODEGEN--\":1776:1849   */\n      swap2\n      pop\n        /* \"--CODEGEN--\":1662:1855   */\n      pop\n        /* \"--CODEGEN--\":1594:1865   */\n      swap3\n      swap2\n      pop\n      pop\n      jump\t// out\n        /* \"--CODEGEN--\":1872:2344   */\n    tag_36:\n      0x00\n      dup1\n        /* \"--CODEGEN--\":2003:2005   */\n      0x40\n        /* \"--CODEGEN--\":1991:2000   */\n      dup4\n        /* \"--CODEGEN--\":1982:1989   */\n      dup6\n        /* \"--CODEGEN--\":1978:2001   */\n      sub\n        /* \"--CODEGEN--\":1974:2006   */\n      slt\n        /* \"--CODEGEN--\":1971:1973   */\n      iszero\n      tag_311\n      jumpi\n        /* \"--CODEGEN--\":2019:2020   */\n      0x00\n        /* \"--CODEGEN--\":2016:2017   */\n      dup1\n        /* \"--CODEGEN--\":2009:2021   */\n      revert\n        /* \"--CODEGEN--\":1971:1973   */\n    tag_311:\n        /* \"--CODEGEN--\":2082:2083   */\n      0x00\n        /* \"--CODEGEN--\":2071:2080   */\n      dup4\n        /* \"--CODEGEN--\":2067:2084   */\n      add\n        /* \"--CODEGEN--\":2054:2085   */\n      calldataload\n        /* \"--CODEGEN--\":2105:2123   */\n      0xffffffffffffffff\n        /* \"--CODEGEN--\":2097:2103   */\n      dup2\n        /* \"--CODEGEN--\":2094:2124   */\n      gt\n        /* \"--CODEGEN--\":2091:2093   */\n      iszero\n      tag_312\n      jumpi\n        /* \"--CODEGEN--\":2137:2138   */\n      0x00\n        /* \"--CODEGEN--\":2134:2135   */\n      dup1\n        /* \"--CODEGEN--\":2127:2139   */\n      revert\n        /* \"--CODEGEN--\":2091:2093   */\n    tag_312:\n        /* \"--CODEGEN--\":2157:2220   */\n      tag_313\n        /* \"--CODEGEN--\":2212:2219   */\n      dup6\n        /* \"--CODEGEN--\":2203:2209   */\n      dup3\n        /* \"--CODEGEN--\":2192:2201   */\n      dup7\n        /* \"--CODEGEN--\":2188:2210   */\n      add\n        /* \"--CODEGEN--\":2157:2220   */\n      tag_283\n      jump\t// in\n    tag_313:\n        /* \"--CODEGEN--\":2147:2220   */\n      swap3\n      pop\n        /* \"--CODEGEN--\":2033:2226   */\n      pop\n        /* \"--CODEGEN--\":2257:2259   */\n      0x20\n        /* \"--CODEGEN--\":2275:2328   */\n      tag_314\n        /* \"--CODEGEN--\":2320:2327   */\n      dup6\n        /* \"--CODEGEN--\":2311:2317   */\n      dup3\n        /* \"--CODEGEN--\":2300:2309   */\n      dup7\n        /* \"--CODEGEN--\":2296:2318   */\n      add\n        /* \"--CODEGEN--\":2275:2328   */\n      tag_293\n      jump\t// in\n    tag_314:\n        /* \"--CODEGEN--\":2265:2328   */\n      swap2\n      pop\n        /* \"--CODEGEN--\":2236:2334   */\n      pop\n        /* \"--CODEGEN--\":1965:2344   */\n      swap3\n      pop\n      swap3\n      swap1\n      pop\n      jump\t// out\n        /* \"--CODEGEN--\":2351:2592   */\n    tag_26:\n      0x00\n        /* \"--CODEGEN--\":2455:2457   */\n      0x20\n        /* \"--CODEGEN--\":2443:2452   */\n      dup3\n        /* \"--CODEGEN--\":2434:2441   */\n      dup5\n        /* \"--CODEGEN--\":2430:2453   */\n      sub\n        /* \"--CODEGEN--\":2426:2458   */\n      slt\n        /* \"--CODEGEN--\":2423:2425   */\n      iszero\n      tag_316\n      jumpi\n        /* \"--CODEGEN--\":2471:2472   */\n      0x00\n        /* \"--CODEGEN--\":2468:2469   */\n      dup1\n        /* \"--CODEGEN--\":2461:2473   */\n      revert\n        /* \"--CODEGEN--\":2423:2425   */\n    tag_316:\n        /* \"--CODEGEN--\":2506:2507   */\n      0x00\n        /* \"--CODEGEN--\":2523:2576   */\n      tag_317\n        /* \"--CODEGEN--\":2568:2575   */\n      dup5\n        /* \"--CODEGEN--\":2559:2565   */\n      dup3\n        /* \"--CODEGEN--\":2548:2557   */\n      dup6\n        /* \"--CODEGEN--\":2544:2566   */\n      add\n        /* \"--CODEGEN--\":2523:2576   */\n      tag_293\n      jump\t// in\n    tag_317:\n        /* \"--CODEGEN--\":2513:2576   */\n      swap2\n      pop\n        /* \"--CODEGEN--\":2485:2582   */\n      pop\n        /* \"--CODEGEN--\":2417:2592   */\n      swap3\n      swap2\n      pop\n      pop\n      jump\t// out\n        /* \"--CODEGEN--\":2599:2862   */\n    tag_183:\n      0x00\n        /* \"--CODEGEN--\":2714:2716   */\n      0x20\n        /* \"--CODEGEN--\":2702:2711   */\n      dup3\n        /* \"--CODEGEN--\":2693:2700   */\n      dup5\n        /* \"--CODEGEN--\":2689:2712   */\n      sub\n        /* \"--CODEGEN--\":2685:2717   */\n      slt\n        /* \"--CODEGEN--\":2682:2684   */\n      iszero\n      tag_319\n      jumpi\n        /* \"--CODEGEN--\":2730:2731   */\n      0x00\n        /* \"--CODEGEN--\":2727:2728   */\n      dup1\n        /* \"--CODEGEN--\":2720:2732   */\n      revert\n        /* \"--CODEGEN--\":2682:2684   */\n    tag_319:\n        /* \"--CODEGEN--\":2765:2766   */\n      0x00\n        /* \"--CODEGEN--\":2782:2846   */\n      tag_320\n        /* \"--CODEGEN--\":2838:2845   */\n      dup5\n        /* \"--CODEGEN--\":2829:2835   */\n      dup3\n        /* \"--CODEGEN--\":2818:2827   */\n      dup6\n        /* \"--CODEGEN--\":2814:2836   */\n      add\n        /* \"--CODEGEN--\":2782:2846   */\n      tag_297\n      jump\t// in\n    tag_320:\n        /* \"--CODEGEN--\":2772:2846   */\n      swap2\n      pop\n        /* \"--CODEGEN--\":2744:2852   */\n      pop\n        /* \"--CODEGEN--\":2676:2862   */\n      swap3\n      swap2\n      pop\n      pop\n      jump\t// out\n        /* \"--CODEGEN--\":2870:3063   */\n    tag_321:\n      0x00\n        /* \"--CODEGEN--\":2991:3057   */\n      tag_323\n        /* \"--CODEGEN--\":3053:3056   */\n      dup4\n        /* \"--CODEGEN--\":3045:3051   */\n      dup4\n        /* \"--CODEGEN--\":2991:3057   */\n      tag_324\n      jump\t// in\n    tag_323:\n        /* \"--CODEGEN--\":2977:3057   */\n      swap1\n      pop\n        /* \"--CODEGEN--\":2970:3063   */\n      swap3\n      swap2\n      pop\n      pop\n      jump\t// out\n        /* \"--CODEGEN--\":3071:3213   */\n    tag_325:\n        /* \"--CODEGEN--\":3162:3207   */\n      tag_327\n        /* \"--CODEGEN--\":3201:3206   */\n      dup2\n        /* \"--CODEGEN--\":3162:3207   */\n      tag_328\n      jump\t// in\n    tag_327:\n        /* \"--CODEGEN--\":3157:3160   */\n      dup3\n        /* \"--CODEGEN--\":3150:3208   */\n      mstore\n        /* \"--CODEGEN--\":3144:3213   */\n      pop\n      pop\n      jump\t// out\n        /* \"--CODEGEN--\":3220:3357   */\n    tag_329:\n        /* \"--CODEGEN--\":3319:3351   */\n      tag_331\n        /* \"--CODEGEN--\":3345:3350   */\n      dup2\n        /* \"--CODEGEN--\":3319:3351   */\n      tag_332\n      jump\t// in\n    tag_331:\n        /* \"--CODEGEN--\":3314:3317   */\n      dup3\n        /* \"--CODEGEN--\":3307:3352   */\n      mstore\n        /* \"--CODEGEN--\":3301:3357   */\n      pop\n      pop\n      jump\t// out\n        /* \"--CODEGEN--\":3364:3477   */\n    tag_333:\n        /* \"--CODEGEN--\":3447:3471   */\n      tag_335\n        /* \"--CODEGEN--\":3465:3470   */\n      dup2\n        /* \"--CODEGEN--\":3447:3471   */\n      tag_336\n      jump\t// in\n    tag_335:\n        /* \"--CODEGEN--\":3442:3445   */\n      dup3\n        /* \"--CODEGEN--\":3435:3472   */\n      mstore\n        /* \"--CODEGEN--\":3429:3477   */\n      pop\n      pop\n      jump\t// out\n        /* \"--CODEGEN--\":3513:4441   */\n    tag_337:\n      0x00\n        /* \"--CODEGEN--\":3678:3742   */\n      tag_339\n        /* \"--CODEGEN--\":3736:3741   */\n      dup3\n        /* \"--CODEGEN--\":3678:3742   */\n      tag_340\n      jump\t// in\n    tag_339:\n        /* \"--CODEGEN--\":3755:3851   */\n      tag_341\n        /* \"--CODEGEN--\":3844:3850   */\n      dup2\n        /* \"--CODEGEN--\":3839:3842   */\n      dup6\n        /* \"--CODEGEN--\":3755:3851   */\n      tag_342\n      jump\t// in\n    tag_341:\n        /* \"--CODEGEN--\":3748:3851   */\n      swap4\n      pop\n        /* \"--CODEGEN--\":3874:3877   */\n      dup4\n        /* \"--CODEGEN--\":3916:3920   */\n      0x20\n        /* \"--CODEGEN--\":3908:3914   */\n      dup3\n        /* \"--CODEGEN--\":3904:3921   */\n      mul\n        /* \"--CODEGEN--\":3899:3902   */\n      dup6\n        /* \"--CODEGEN--\":3895:3922   */\n      add\n        /* \"--CODEGEN--\":3943:4009   */\n      tag_343\n        /* \"--CODEGEN--\":4003:4008   */\n      dup6\n        /* \"--CODEGEN--\":3943:4009   */\n      tag_344\n      jump\t// in\n    tag_343:\n        /* \"--CODEGEN--\":4029:4036   */\n      dup1\n        /* \"--CODEGEN--\":4057:4058   */\n      0x00\n        /* \"--CODEGEN--\":4042:4402   */\n    tag_345:\n        /* \"--CODEGEN--\":4067:4073   */\n      dup6\n        /* \"--CODEGEN--\":4064:4065   */\n      dup2\n        /* \"--CODEGEN--\":4061:4074   */\n      lt\n        /* \"--CODEGEN--\":4042:4402   */\n      iszero\n      tag_347\n      jumpi\n        /* \"--CODEGEN--\":4129:4138   */\n      dup5\n        /* \"--CODEGEN--\":4123:4127   */\n      dup5\n        /* \"--CODEGEN--\":4119:4139   */\n      sub\n        /* \"--CODEGEN--\":4114:4117   */\n      dup10\n        /* \"--CODEGEN--\":4107:4140   */\n      mstore\n        /* \"--CODEGEN--\":4174:4180   */\n      dup2\n        /* \"--CODEGEN--\":4168:4181   */\n      mload\n        /* \"--CODEGEN--\":4196:4280   */\n      tag_348\n        /* \"--CODEGEN--\":4275:4279   */\n      dup6\n        /* \"--CODEGEN--\":4260:4273   */\n      dup3\n        /* \"--CODEGEN--\":4196:4280   */\n      tag_321\n      jump\t// in\n    tag_348:\n        /* \"--CODEGEN--\":4188:4280   */\n      swap5\n      pop\n        /* \"--CODEGEN--\":4297:4367   */\n      tag_349\n        /* \"--CODEGEN--\":4360:4366   */\n      dup4\n        /* \"--CODEGEN--\":4297:4367   */\n      tag_350\n      jump\t// in\n    tag_349:\n        /* \"--CODEGEN--\":4287:4367   */\n      swap3\n      pop\n        /* \"--CODEGEN--\":4390:4394   */\n      0x20\n        /* \"--CODEGEN--\":4385:4388   */\n      dup11\n        /* \"--CODEGEN--\":4381:4395   */\n      add\n        /* \"--CODEGEN--\":4374:4395   */\n      swap10\n      pop\n        /* \"--CODEGEN--\":4099:4402   */\n      pop\n        /* \"--CODEGEN--\":4089:4090   */\n      0x01\n        /* \"--CODEGEN--\":4086:4087   */\n      dup2\n        /* \"--CODEGEN--\":4082:4091   */\n      add\n        /* \"--CODEGEN--\":4077:4091   */\n      swap1\n      pop\n        /* \"--CODEGEN--\":4042:4402   */\n      jump(tag_345)\n    tag_347:\n        /* \"--CODEGEN--\":4046:4060   */\n      pop\n        /* \"--CODEGEN--\":4415:4419   */\n      dup3\n        /* \"--CODEGEN--\":4408:4419   */\n      swap8\n      pop\n        /* \"--CODEGEN--\":4432:4435   */\n      dup8\n        /* \"--CODEGEN--\":4425:4435   */\n      swap6\n      pop\n        /* \"--CODEGEN--\":3657:4441   */\n      pop\n      pop\n      pop\n      pop\n      pop\n      swap3\n      swap2\n      pop\n      pop\n      jump\t// out\n        /* \"--CODEGEN--\":4449:4553   */\n    tag_351:\n        /* \"--CODEGEN--\":4526:4547   */\n      tag_353\n        /* \"--CODEGEN--\":4541:4546   */\n      dup2\n        /* \"--CODEGEN--\":4526:4547   */\n      tag_354\n      jump\t// in\n    tag_353:\n        /* \"--CODEGEN--\":4521:4524   */\n      dup3\n        /* \"--CODEGEN--\":4514:4548   */\n      mstore\n        /* \"--CODEGEN--\":4508:4553   */\n      pop\n      pop\n      jump\t// out\n        /* \"--CODEGEN--\":4560:4887   */\n    tag_324:\n      0x00\n        /* \"--CODEGEN--\":4662:4701   */\n      tag_356\n        /* \"--CODEGEN--\":4695:4700   */\n      dup3\n        /* \"--CODEGEN--\":4662:4701   */\n      tag_357\n      jump\t// in\n    tag_356:\n        /* \"--CODEGEN--\":4713:4774   */\n      tag_358\n        /* \"--CODEGEN--\":4767:4773   */\n      dup2\n        /* \"--CODEGEN--\":4762:4765   */\n      dup6\n        /* \"--CODEGEN--\":4713:4774   */\n      tag_359\n      jump\t// in\n    tag_358:\n        /* \"--CODEGEN--\":4706:4774   */\n      swap4\n      pop\n        /* \"--CODEGEN--\":4779:4831   */\n      tag_360\n        /* \"--CODEGEN--\":4824:4830   */\n      dup2\n        /* \"--CODEGEN--\":4819:4822   */\n      dup6\n        /* \"--CODEGEN--\":4812:4816   */\n      0x20\n        /* \"--CODEGEN--\":4805:4810   */\n      dup7\n        /* \"--CODEGEN--\":4801:4817   */\n      add\n        /* \"--CODEGEN--\":4779:4831   */\n      tag_361\n      jump\t// in\n    tag_360:\n        /* \"--CODEGEN--\":4852:4881   */\n      tag_362\n        /* \"--CODEGEN--\":4874:4880   */\n      dup2\n        /* \"--CODEGEN--\":4852:4881   */\n      tag_363\n      jump\t// in\n    tag_362:\n        /* \"--CODEGEN--\":4847:4850   */\n      dup5\n        /* \"--CODEGEN--\":4843:4882   */\n      add\n        /* \"--CODEGEN--\":4836:4882   */\n      swap2\n      pop\n        /* \"--CODEGEN--\":4642:4887   */\n      pop\n      swap3\n      swap2\n      pop\n      pop\n      jump\t// out\n        /* \"--CODEGEN--\":4894:5241   */\n    tag_364:\n      0x00\n        /* \"--CODEGEN--\":5006:5045   */\n      tag_366\n        /* \"--CODEGEN--\":5039:5044   */\n      dup3\n        /* \"--CODEGEN--\":5006:5045   */\n      tag_357\n      jump\t// in\n    tag_366:\n        /* \"--CODEGEN--\":5057:5128   */\n      tag_367\n        /* \"--CODEGEN--\":5121:5127   */\n      dup2\n        /* \"--CODEGEN--\":5116:5119   */\n      dup6\n        /* \"--CODEGEN--\":5057:5128   */\n      tag_368\n      jump\t// in\n    tag_367:\n        /* \"--CODEGEN--\":5050:5128   */\n      swap4\n      pop\n        /* \"--CODEGEN--\":5133:5185   */\n      tag_369\n        /* \"--CODEGEN--\":5178:5184   */\n      dup2\n        /* \"--CODEGEN--\":5173:5176   */\n      dup6\n        /* \"--CODEGEN--\":5166:5170   */\n      0x20\n        /* \"--CODEGEN--\":5159:5164   */\n      dup7\n        /* \"--CODEGEN--\":5155:5171   */\n      add\n        /* \"--CODEGEN--\":5133:5185   */\n      tag_361\n      jump\t// in\n    tag_369:\n        /* \"--CODEGEN--\":5206:5235   */\n      tag_370\n        /* \"--CODEGEN--\":5228:5234   */\n      dup2\n        /* \"--CODEGEN--\":5206:5235   */\n      tag_363\n      jump\t// in\n    tag_370:\n        /* \"--CODEGEN--\":5201:5204   */\n      dup5\n        /* \"--CODEGEN--\":5197:5236   */\n      add\n        /* \"--CODEGEN--\":5190:5236   */\n      swap2\n      pop\n        /* \"--CODEGEN--\":4986:5241   */\n      pop\n      swap3\n      swap2\n      pop\n      pop\n      jump\t// out\n        /* \"--CODEGEN--\":5248:5608   */\n    tag_371:\n      0x00\n        /* \"--CODEGEN--\":5378:5417   */\n      tag_373\n        /* \"--CODEGEN--\":5411:5416   */\n      dup3\n        /* \"--CODEGEN--\":5378:5417   */\n      tag_357\n      jump\t// in\n    tag_373:\n        /* \"--CODEGEN--\":5429:5518   */\n      tag_374\n        /* \"--CODEGEN--\":5511:5517   */\n      dup2\n        /* \"--CODEGEN--\":5506:5509   */\n      dup6\n        /* \"--CODEGEN--\":5429:5518   */\n      tag_375\n      jump\t// in\n    tag_374:\n        /* \"--CODEGEN--\":5422:5518   */\n      swap4\n      pop\n        /* \"--CODEGEN--\":5523:5575   */\n      tag_376\n        /* \"--CODEGEN--\":5568:5574   */\n      dup2\n        /* \"--CODEGEN--\":5563:5566   */\n      dup6\n        /* \"--CODEGEN--\":5556:5560   */\n      0x20\n        /* \"--CODEGEN--\":5549:5554   */\n      dup7\n        /* \"--CODEGEN--\":5545:5561   */\n      add\n        /* \"--CODEGEN--\":5523:5575   */\n      tag_361\n      jump\t// in\n    tag_376:\n        /* \"--CODEGEN--\":5596:5602   */\n      dup1\n        /* \"--CODEGEN--\":5591:5594   */\n      dup5\n        /* \"--CODEGEN--\":5587:5603   */\n      add\n        /* \"--CODEGEN--\":5580:5603   */\n      swap2\n      pop\n        /* \"--CODEGEN--\":5358:5608   */\n      pop\n      swap3\n      swap2\n      pop\n      pop\n      jump\t// out\n        /* \"--CODEGEN--\":5640:6463   */\n    tag_377:\n      0x00\n        /* \"--CODEGEN--\":5759:5764   */\n      dup2\n        /* \"--CODEGEN--\":5753:5765   */\n      sload\n        /* \"--CODEGEN--\":5793:5794   */\n      0x01\n        /* \"--CODEGEN--\":5782:5791   */\n      dup2\n        /* \"--CODEGEN--\":5778:5795   */\n      and\n        /* \"--CODEGEN--\":5806:5807   */\n      0x00\n        /* \"--CODEGEN--\":5801:6049   */\n      dup2\n      eq\n      tag_380\n      jumpi\n        /* \"--CODEGEN--\":6060:6061   */\n      0x01\n        /* \"--CODEGEN--\":6055:6457   */\n      dup2\n      eq\n      tag_381\n      jumpi\n        /* \"--CODEGEN--\":5771:6457   */\n      jump(tag_379)\n        /* \"--CODEGEN--\":5801:6049   */\n    tag_380:\n        /* \"--CODEGEN--\":5879:5883   */\n      0x7f\n        /* \"--CODEGEN--\":5875:5876   */\n      0x02\n        /* \"--CODEGEN--\":5864:5873   */\n      dup4\n        /* \"--CODEGEN--\":5860:5877   */\n      div\n        /* \"--CODEGEN--\":5856:5884   */\n      and\n        /* \"--CODEGEN--\":5898:5969   */\n      tag_382\n        /* \"--CODEGEN--\":5962:5968   */\n      dup2\n        /* \"--CODEGEN--\":5957:5960   */\n      dup8\n        /* \"--CODEGEN--\":5898:5969   */\n      tag_368\n      jump\t// in\n    tag_382:\n        /* \"--CODEGEN--\":5891:5969   */\n      swap6\n      pop\n        /* \"--CODEGEN--\":6007:6011   */\n      0xff\n        /* \"--CODEGEN--\":6003:6012   */\n      not\n        /* \"--CODEGEN--\":5992:6001   */\n      dup4\n        /* \"--CODEGEN--\":5988:6013   */\n      and\n        /* \"--CODEGEN--\":5983:5986   */\n      dup7\n        /* \"--CODEGEN--\":5976:6014   */\n      mstore\n        /* \"--CODEGEN--\":6037:6041   */\n      0x20\n        /* \"--CODEGEN--\":6032:6035   */\n      dup7\n        /* \"--CODEGEN--\":6028:6042   */\n      add\n        /* \"--CODEGEN--\":6021:6042   */\n      swap4\n      pop\n        /* \"--CODEGEN--\":5808:6049   */\n      pop\n        /* \"--CODEGEN--\":5801:6049   */\n      jump(tag_379)\n        /* \"--CODEGEN--\":6055:6457   */\n    tag_381:\n        /* \"--CODEGEN--\":6124:6125   */\n      0x02\n        /* \"--CODEGEN--\":6113:6122   */\n      dup3\n        /* \"--CODEGEN--\":6109:6126   */\n      div\n        /* \"--CODEGEN--\":6140:6211   */\n      tag_383\n        /* \"--CODEGEN--\":6204:6210   */\n      dup2\n        /* \"--CODEGEN--\":6199:6202   */\n      dup8\n        /* \"--CODEGEN--\":6140:6211   */\n      tag_368\n      jump\t// in\n    tag_383:\n        /* \"--CODEGEN--\":6133:6211   */\n      swap6\n      pop\n        /* \"--CODEGEN--\":6233:6271   */\n      tag_384\n        /* \"--CODEGEN--\":6265:6270   */\n      dup6\n        /* \"--CODEGEN--\":6233:6271   */\n      tag_385\n      jump\t// in\n    tag_384:\n        /* \"--CODEGEN--\":6287:6288   */\n      0x00\n        /* \"--CODEGEN--\":6295:6425   */\n    tag_386:\n        /* \"--CODEGEN--\":6309:6315   */\n      dup3\n        /* \"--CODEGEN--\":6306:6307   */\n      dup2\n        /* \"--CODEGEN--\":6303:6316   */\n      lt\n        /* \"--CODEGEN--\":6295:6425   */\n      iszero\n      tag_388\n      jumpi\n        /* \"--CODEGEN--\":6374:6381   */\n      dup2\n        /* \"--CODEGEN--\":6368:6382   */\n      sload\n        /* \"--CODEGEN--\":6364:6365   */\n      dup2\n        /* \"--CODEGEN--\":6359:6362   */\n      dup10\n        /* \"--CODEGEN--\":6355:6366   */\n      add\n        /* \"--CODEGEN--\":6348:6383   */\n      mstore\n        /* \"--CODEGEN--\":6415:6416   */\n      0x01\n        /* \"--CODEGEN--\":6406:6413   */\n      dup3\n        /* \"--CODEGEN--\":6402:6417   */\n      add\n        /* \"--CODEGEN--\":6391:6417   */\n      swap2\n      pop\n        /* \"--CODEGEN--\":6331:6335   */\n      0x20\n        /* \"--CODEGEN--\":6328:6329   */\n      dup2\n        /* \"--CODEGEN--\":6324:6336   */\n      add\n        /* \"--CODEGEN--\":6319:6336   */\n      swap1\n      pop\n        /* \"--CODEGEN--\":6295:6425   */\n      jump(tag_386)\n    tag_388:\n        /* \"--CODEGEN--\":6448:6449   */\n      dup1\n        /* \"--CODEGEN--\":6443:6446   */\n      dup9\n        /* \"--CODEGEN--\":6439:6450   */\n      add\n        /* \"--CODEGEN--\":6432:6450   */\n      swap6\n      pop\n        /* \"--CODEGEN--\":6062:6457   */\n      pop\n      pop\n      pop\n        /* \"--CODEGEN--\":5771:6457   */\n    tag_379:\n      pop\n        /* \"--CODEGEN--\":5729:6463   */\n      pop\n      swap3\n      swap2\n      pop\n      pop\n      jump\t// out\n        /* \"--CODEGEN--\":6496:7380   */\n    tag_389:\n      0x00\n        /* \"--CODEGEN--\":6633:6638   */\n      dup2\n        /* \"--CODEGEN--\":6627:6639   */\n      sload\n        /* \"--CODEGEN--\":6667:6668   */\n      0x01\n        /* \"--CODEGEN--\":6656:6665   */\n      dup2\n        /* \"--CODEGEN--\":6652:6669   */\n      and\n        /* \"--CODEGEN--\":6680:6681   */\n      0x00\n        /* \"--CODEGEN--\":6675:6943   */\n      dup2\n      eq\n      tag_392\n      jumpi\n        /* \"--CODEGEN--\":6954:6955   */\n      0x01\n        /* \"--CODEGEN--\":6949:7374   */\n      dup2\n      eq\n      tag_393\n      jumpi\n        /* \"--CODEGEN--\":6645:7374   */\n      jump(tag_391)\n        /* \"--CODEGEN--\":6675:6943   */\n    tag_392:\n        /* \"--CODEGEN--\":6753:6757   */\n      0x7f\n        /* \"--CODEGEN--\":6749:6750   */\n      0x02\n        /* \"--CODEGEN--\":6738:6747   */\n      dup4\n        /* \"--CODEGEN--\":6734:6751   */\n      div\n        /* \"--CODEGEN--\":6730:6758   */\n      and\n        /* \"--CODEGEN--\":6772:6861   */\n      tag_394\n        /* \"--CODEGEN--\":6854:6860   */\n      dup2\n        /* \"--CODEGEN--\":6849:6852   */\n      dup8\n        /* \"--CODEGEN--\":6772:6861   */\n      tag_375\n      jump\t// in\n    tag_394:\n        /* \"--CODEGEN--\":6765:6861   */\n      swap6\n      pop\n        /* \"--CODEGEN--\":6899:6903   */\n      0xff\n        /* \"--CODEGEN--\":6895:6904   */\n      not\n        /* \"--CODEGEN--\":6884:6893   */\n      dup4\n        /* \"--CODEGEN--\":6880:6905   */\n      and\n        /* \"--CODEGEN--\":6875:6878   */\n      dup7\n        /* \"--CODEGEN--\":6868:6906   */\n      mstore\n        /* \"--CODEGEN--\":6929:6935   */\n      dup1\n        /* \"--CODEGEN--\":6924:6927   */\n      dup7\n        /* \"--CODEGEN--\":6920:6936   */\n      add\n        /* \"--CODEGEN--\":6913:6936   */\n      swap4\n      pop\n        /* \"--CODEGEN--\":6682:6943   */\n      pop\n        /* \"--CODEGEN--\":6675:6943   */\n      jump(tag_391)\n        /* \"--CODEGEN--\":6949:7374   */\n    tag_393:\n        /* \"--CODEGEN--\":7018:7019   */\n      0x02\n        /* \"--CODEGEN--\":7007:7016   */\n      dup3\n        /* \"--CODEGEN--\":7003:7020   */\n      div\n        /* \"--CODEGEN--\":7034:7123   */\n      tag_395\n        /* \"--CODEGEN--\":7116:7122   */\n      dup2\n        /* \"--CODEGEN--\":7111:7114   */\n      dup8\n        /* \"--CODEGEN--\":7034:7123   */\n      tag_375\n      jump\t// in\n    tag_395:\n        /* \"--CODEGEN--\":7027:7123   */\n      swap6\n      pop\n        /* \"--CODEGEN--\":7145:7183   */\n      tag_396\n        /* \"--CODEGEN--\":7177:7182   */\n      dup6\n        /* \"--CODEGEN--\":7145:7183   */\n      tag_385\n      jump\t// in\n    tag_396:\n        /* \"--CODEGEN--\":7199:7200   */\n      0x00\n        /* \"--CODEGEN--\":7207:7337   */\n    tag_397:\n        /* \"--CODEGEN--\":7221:7227   */\n      dup3\n        /* \"--CODEGEN--\":7218:7219   */\n      dup2\n        /* \"--CODEGEN--\":7215:7228   */\n      lt\n        /* \"--CODEGEN--\":7207:7337   */\n      iszero\n      tag_399\n      jumpi\n        /* \"--CODEGEN--\":7286:7293   */\n      dup2\n        /* \"--CODEGEN--\":7280:7294   */\n      sload\n        /* \"--CODEGEN--\":7276:7277   */\n      dup2\n        /* \"--CODEGEN--\":7271:7274   */\n      dup10\n        /* \"--CODEGEN--\":7267:7278   */\n      add\n        /* \"--CODEGEN--\":7260:7295   */\n      mstore\n        /* \"--CODEGEN--\":7327:7328   */\n      0x01\n        /* \"--CODEGEN--\":7318:7325   */\n      dup3\n        /* \"--CODEGEN--\":7314:7329   */\n      add\n        /* \"--CODEGEN--\":7303:7329   */\n      swap2\n      pop\n        /* \"--CODEGEN--\":7243:7247   */\n      0x20\n        /* \"--CODEGEN--\":7240:7241   */\n      dup2\n        /* \"--CODEGEN--\":7236:7248   */\n      add\n        /* \"--CODEGEN--\":7231:7248   */\n      swap1\n      pop\n        /* \"--CODEGEN--\":7207:7337   */\n      jump(tag_397)\n    tag_399:\n        /* \"--CODEGEN--\":7360:7366   */\n      dup3\n        /* \"--CODEGEN--\":7355:7358   */\n      dup9\n        /* \"--CODEGEN--\":7351:7367   */\n      add\n        /* \"--CODEGEN--\":7344:7367   */\n      swap6\n      pop\n        /* \"--CODEGEN--\":6956:7374   */\n      pop\n      pop\n      pop\n        /* \"--CODEGEN--\":6645:7374   */\n    tag_391:\n      pop\n        /* \"--CODEGEN--\":6603:7380   */\n      pop\n      swap3\n      swap2\n      pop\n      pop\n      jump\t// out\n        /* \"--CODEGEN--\":7389:7793   */\n    tag_400:\n      0x00\n        /* \"--CODEGEN--\":7549:7616   */\n      tag_402\n        /* \"--CODEGEN--\":7613:7615   */\n      0x23\n        /* \"--CODEGEN--\":7608:7611   */\n      dup4\n        /* \"--CODEGEN--\":7549:7616   */\n      tag_368\n      jump\t// in\n    tag_402:\n        /* \"--CODEGEN--\":7542:7616   */\n      swap2\n      pop\n        /* \"--CODEGEN--\":7649:7715   */\n      0x4c6120617472616363696f6e20656e20637565737469c3b36e206e6f20657869\n        /* \"--CODEGEN--\":7645:7646   */\n      0x00\n        /* \"--CODEGEN--\":7640:7643   */\n      dup4\n        /* \"--CODEGEN--\":7636:7647   */\n      add\n        /* \"--CODEGEN--\":7629:7716   */\n      mstore\n        /* \"--CODEGEN--\":7750:7755   */\n      0x7374650000000000000000000000000000000000000000000000000000000000\n        /* \"--CODEGEN--\":7745:7747   */\n      0x20\n        /* \"--CODEGEN--\":7740:7743   */\n      dup4\n        /* \"--CODEGEN--\":7736:7748   */\n      add\n        /* \"--CODEGEN--\":7729:7756   */\n      mstore\n        /* \"--CODEGEN--\":7784:7786   */\n      0x40\n        /* \"--CODEGEN--\":7779:7782   */\n      dup3\n        /* \"--CODEGEN--\":7775:7787   */\n      add\n        /* \"--CODEGEN--\":7768:7787   */\n      swap1\n      pop\n        /* \"--CODEGEN--\":7535:7793   */\n      swap2\n      swap1\n      pop\n      jump\t// out\n        /* \"--CODEGEN--\":7802:8128   */\n    tag_403:\n      0x00\n        /* \"--CODEGEN--\":7962:8029   */\n      tag_405\n        /* \"--CODEGEN--\":8026:8028   */\n      0x1a\n        /* \"--CODEGEN--\":8021:8024   */\n      dup4\n        /* \"--CODEGEN--\":7962:8029   */\n      tag_368\n      jump\t// in\n    tag_405:\n        /* \"--CODEGEN--\":7955:8029   */\n      swap2\n      pop\n        /* \"--CODEGEN--\":8062:8090   */\n      0x4e6f2068617920746f6b656e7320717565206465766f6c766572000000000000\n        /* \"--CODEGEN--\":8058:8059   */\n      0x00\n        /* \"--CODEGEN--\":8053:8056   */\n      dup4\n        /* \"--CODEGEN--\":8049:8060   */\n      add\n        /* \"--CODEGEN--\":8042:8091   */\n      mstore\n        /* \"--CODEGEN--\":8119:8121   */\n      0x20\n        /* \"--CODEGEN--\":8114:8117   */\n      dup3\n        /* \"--CODEGEN--\":8110:8122   */\n      add\n        /* \"--CODEGEN--\":8103:8122   */\n      swap1\n      pop\n        /* \"--CODEGEN--\":7948:8128   */\n      swap2\n      swap1\n      pop\n      jump\t// out\n        /* \"--CODEGEN--\":8137:8474   */\n    tag_406:\n      0x00\n        /* \"--CODEGEN--\":8315:8399   */\n      tag_408\n        /* \"--CODEGEN--\":8397:8398   */\n      0x03\n        /* \"--CODEGEN--\":8392:8395   */\n      dup4\n        /* \"--CODEGEN--\":8315:8399   */\n      tag_375\n      jump\t// in\n    tag_408:\n        /* \"--CODEGEN--\":8308:8399   */\n      swap2\n      pop\n        /* \"--CODEGEN--\":8432:8437   */\n      0x207c200000000000000000000000000000000000000000000000000000000000\n        /* \"--CODEGEN--\":8428:8429   */\n      0x00\n        /* \"--CODEGEN--\":8423:8426   */\n      dup4\n        /* \"--CODEGEN--\":8419:8430   */\n      add\n        /* \"--CODEGEN--\":8412:8438   */\n      mstore\n        /* \"--CODEGEN--\":8466:8467   */\n      0x03\n        /* \"--CODEGEN--\":8461:8464   */\n      dup3\n        /* \"--CODEGEN--\":8457:8468   */\n      add\n        /* \"--CODEGEN--\":8450:8468   */\n      swap1\n      pop\n        /* \"--CODEGEN--\":8301:8474   */\n      swap2\n      swap1\n      pop\n      jump\t// out\n        /* \"--CODEGEN--\":8483:8803   */\n    tag_409:\n      0x00\n        /* \"--CODEGEN--\":8643:8710   */\n      tag_411\n        /* \"--CODEGEN--\":8707:8709   */\n      0x14\n        /* \"--CODEGEN--\":8702:8705   */\n      dup4\n        /* \"--CODEGEN--\":8643:8710   */\n      tag_368\n      jump\t// in\n    tag_411:\n        /* \"--CODEGEN--\":8636:8710   */\n      swap2\n      pop\n        /* \"--CODEGEN--\":8743:8765   */\n      0x546f6b656e7320696e737566696369656e746573000000000000000000000000\n        /* \"--CODEGEN--\":8739:8740   */\n      0x00\n        /* \"--CODEGEN--\":8734:8737   */\n      dup4\n        /* \"--CODEGEN--\":8730:8741   */\n      add\n        /* \"--CODEGEN--\":8723:8766   */\n      mstore\n        /* \"--CODEGEN--\":8794:8796   */\n      0x20\n        /* \"--CODEGEN--\":8789:8792   */\n      dup3\n        /* \"--CODEGEN--\":8785:8797   */\n      add\n        /* \"--CODEGEN--\":8778:8797   */\n      swap1\n      pop\n        /* \"--CODEGEN--\":8629:8803   */\n      swap2\n      swap1\n      pop\n      jump\t// out\n        /* \"--CODEGEN--\":8812:9200   */\n    tag_412:\n      0x00\n        /* \"--CODEGEN--\":8972:9039   */\n      tag_414\n        /* \"--CODEGEN--\":9036:9038   */\n      0x33\n        /* \"--CODEGEN--\":9031:9034   */\n      dup4\n        /* \"--CODEGEN--\":8972:9039   */\n      tag_368\n      jump\t// in\n    tag_414:\n        /* \"--CODEGEN--\":8965:9039   */\n      swap2\n      pop\n        /* \"--CODEGEN--\":9072:9106   */\n      0x4c6120617472616363696f6e20656e206375657374696f6e206e6f2073652065\n        /* \"--CODEGEN--\":9068:9069   */\n      0x00\n        /* \"--CODEGEN--\":9063:9066   */\n      dup4\n        /* \"--CODEGEN--\":9059:9070   */\n      add\n        /* \"--CODEGEN--\":9052:9107   */\n      mstore\n        /* \"--CODEGEN--\":9141:9162   */\n      0x6e6375656e74726120646973706f6e69626c6500000000000000000000000000\n        /* \"--CODEGEN--\":9136:9138   */\n      0x20\n        /* \"--CODEGEN--\":9131:9134   */\n      dup4\n        /* \"--CODEGEN--\":9127:9139   */\n      add\n        /* \"--CODEGEN--\":9120:9163   */\n      mstore\n        /* \"--CODEGEN--\":9191:9193   */\n      0x40\n        /* \"--CODEGEN--\":9186:9189   */\n      dup3\n        /* \"--CODEGEN--\":9182:9194   */\n      add\n        /* \"--CODEGEN--\":9175:9194   */\n      swap1\n      pop\n        /* \"--CODEGEN--\":8958:9200   */\n      swap2\n      swap1\n      pop\n      jump\t// out\n        /* \"--CODEGEN--\":9209:9539   */\n    tag_415:\n      0x00\n        /* \"--CODEGEN--\":9369:9436   */\n      tag_417\n        /* \"--CODEGEN--\":9433:9435   */\n      0x1e\n        /* \"--CODEGEN--\":9428:9431   */\n      dup4\n        /* \"--CODEGEN--\":9369:9436   */\n      tag_368\n      jump\t// in\n    tag_417:\n        /* \"--CODEGEN--\":9362:9436   */\n      swap2\n      pop\n        /* \"--CODEGEN--\":9469:9501   */\n      0x43616e746964616420646520657468657220696e737566696369656e74650000\n        /* \"--CODEGEN--\":9465:9466   */\n      0x00\n        /* \"--CODEGEN--\":9460:9463   */\n      dup4\n        /* \"--CODEGEN--\":9456:9467   */\n      add\n        /* \"--CODEGEN--\":9449:9502   */\n      mstore\n        /* \"--CODEGEN--\":9530:9532   */\n      0x20\n        /* \"--CODEGEN--\":9525:9528   */\n      dup3\n        /* \"--CODEGEN--\":9521:9533   */\n      add\n        /* \"--CODEGEN--\":9514:9533   */\n      swap1\n      pop\n        /* \"--CODEGEN--\":9355:9539   */\n      swap2\n      swap1\n      pop\n      jump\t// out\n        /* \"--CODEGEN--\":9548:9880   */\n    tag_418:\n      0x00\n        /* \"--CODEGEN--\":9708:9775   */\n      tag_420\n        /* \"--CODEGEN--\":9772:9774   */\n      0x20\n        /* \"--CODEGEN--\":9767:9770   */\n      dup4\n        /* \"--CODEGEN--\":9708:9775   */\n      tag_368\n      jump\t// in\n    tag_420:\n        /* \"--CODEGEN--\":9701:9775   */\n      swap2\n      pop\n        /* \"--CODEGEN--\":9808:9842   */\n      0x43616e746964616420646520746f6b656e7320696e737566696369656e746573\n        /* \"--CODEGEN--\":9804:9805   */\n      0x00\n        /* \"--CODEGEN--\":9799:9802   */\n      dup4\n        /* \"--CODEGEN--\":9795:9806   */\n      add\n        /* \"--CODEGEN--\":9788:9843   */\n      mstore\n        /* \"--CODEGEN--\":9871:9873   */\n      0x20\n        /* \"--CODEGEN--\":9866:9869   */\n      dup3\n        /* \"--CODEGEN--\":9862:9874   */\n      add\n        /* \"--CODEGEN--\":9855:9874   */\n      swap1\n      pop\n        /* \"--CODEGEN--\":9694:9880   */\n      swap2\n      swap1\n      pop\n      jump\t// out\n        /* \"--CODEGEN--\":9889:10285   */\n    tag_421:\n      0x00\n        /* \"--CODEGEN--\":10049:10116   */\n      tag_423\n        /* \"--CODEGEN--\":10113:10115   */\n      0x3b\n        /* \"--CODEGEN--\":10108:10111   */\n      dup4\n        /* \"--CODEGEN--\":10049:10116   */\n      tag_368\n      jump\t// in\n    tag_423:\n        /* \"--CODEGEN--\":10042:10116   */\n      swap2\n      pop\n        /* \"--CODEGEN--\":10149:10183   */\n      0x4e6f207365207075656465206461722064652062616a61206120756e61206174\n        /* \"--CODEGEN--\":10145:10146   */\n      0x00\n        /* \"--CODEGEN--\":10140:10143   */\n      dup4\n        /* \"--CODEGEN--\":10136:10147   */\n      add\n        /* \"--CODEGEN--\":10129:10184   */\n      mstore\n        /* \"--CODEGEN--\":10218:10247   */\n      0x72616363696f6e2071756520796120657374612064652062616a610000000000\n        /* \"--CODEGEN--\":10213:10215   */\n      0x20\n        /* \"--CODEGEN--\":10208:10211   */\n      dup4\n        /* \"--CODEGEN--\":10204:10216   */\n      add\n        /* \"--CODEGEN--\":10197:10248   */\n      mstore\n        /* \"--CODEGEN--\":10276:10278   */\n      0x40\n        /* \"--CODEGEN--\":10271:10274   */\n      dup3\n        /* \"--CODEGEN--\":10267:10279   */\n      add\n        /* \"--CODEGEN--\":10260:10279   */\n      swap1\n      pop\n        /* \"--CODEGEN--\":10035:10285   */\n      swap2\n      swap1\n      pop\n      jump\t// out\n        /* \"--CODEGEN--\":10294:10695   */\n    tag_424:\n      0x00\n        /* \"--CODEGEN--\":10454:10521   */\n      tag_426\n        /* \"--CODEGEN--\":10518:10520   */\n      0x40\n        /* \"--CODEGEN--\":10513:10516   */\n      dup4\n        /* \"--CODEGEN--\":10454:10521   */\n      tag_368\n      jump\t// in\n    tag_426:\n        /* \"--CODEGEN--\":10447:10521   */\n      swap2\n      pop\n        /* \"--CODEGEN--\":10554:10588   */\n      0x4e6f2073652070756564652064617220646520616c7461206120756e61206174\n        /* \"--CODEGEN--\":10550:10551   */\n      0x00\n        /* \"--CODEGEN--\":10545:10548   */\n      dup4\n        /* \"--CODEGEN--\":10541:10552   */\n      add\n        /* \"--CODEGEN--\":10534:10589   */\n      mstore\n        /* \"--CODEGEN--\":10623:10657   */\n      0x72616363696f6e207175652079612065737461206461646120646520616c7461\n        /* \"--CODEGEN--\":10618:10620   */\n      0x20\n        /* \"--CODEGEN--\":10613:10616   */\n      dup4\n        /* \"--CODEGEN--\":10609:10621   */\n      add\n        /* \"--CODEGEN--\":10602:10658   */\n      mstore\n        /* \"--CODEGEN--\":10686:10688   */\n      0x40\n        /* \"--CODEGEN--\":10681:10684   */\n      dup3\n        /* \"--CODEGEN--\":10677:10689   */\n      add\n        /* \"--CODEGEN--\":10670:10689   */\n      swap1\n      pop\n        /* \"--CODEGEN--\":10440:10695   */\n      swap2\n      swap1\n      pop\n      jump\t// out\n        /* \"--CODEGEN--\":10704:11137   */\n    tag_427:\n      0x00\n        /* \"--CODEGEN--\":10864:10931   */\n      tag_429\n        /* \"--CODEGEN--\":10928:10930   */\n      0x2c\n        /* \"--CODEGEN--\":10923:10926   */\n      dup4\n        /* \"--CODEGEN--\":10864:10931   */\n      tag_368\n      jump\t// in\n    tag_429:\n        /* \"--CODEGEN--\":10857:10931   */\n      swap2\n      pop\n        /* \"--CODEGEN--\":10964:10998   */\n      0x4e6f207469656e6573207065726d69736f207061726120656a65637574617220\n        /* \"--CODEGEN--\":10960:10961   */\n      0x00\n        /* \"--CODEGEN--\":10955:10958   */\n      dup4\n        /* \"--CODEGEN--\":10951:10962   */\n      add\n        /* \"--CODEGEN--\":10944:10999   */\n      mstore\n        /* \"--CODEGEN--\":11033:11099   */\n      0x657374612061636369c3b36e0000000000000000000000000000000000000000\n        /* \"--CODEGEN--\":11028:11030   */\n      0x20\n        /* \"--CODEGEN--\":11023:11026   */\n      dup4\n        /* \"--CODEGEN--\":11019:11031   */\n      add\n        /* \"--CODEGEN--\":11012:11100   */\n      mstore\n        /* \"--CODEGEN--\":11128:11130   */\n      0x40\n        /* \"--CODEGEN--\":11123:11126   */\n      dup3\n        /* \"--CODEGEN--\":11119:11131   */\n      add\n        /* \"--CODEGEN--\":11112:11131   */\n      swap1\n      pop\n        /* \"--CODEGEN--\":10850:11137   */\n      swap2\n      swap1\n      pop\n      jump\t// out\n        /* \"--CODEGEN--\":11146:11536   */\n    tag_430:\n      0x00\n        /* \"--CODEGEN--\":11306:11373   */\n      tag_432\n        /* \"--CODEGEN--\":11370:11372   */\n      0x35\n        /* \"--CODEGEN--\":11365:11368   */\n      dup4\n        /* \"--CODEGEN--\":11306:11373   */\n      tag_368\n      jump\t// in\n    tag_432:\n        /* \"--CODEGEN--\":11299:11373   */\n      swap2\n      pop\n        /* \"--CODEGEN--\":11406:11440   */\n      0x4e6f207365207075656465206461722064652062616a61206120756e61206174\n        /* \"--CODEGEN--\":11402:11403   */\n      0x00\n        /* \"--CODEGEN--\":11397:11400   */\n      dup4\n        /* \"--CODEGEN--\":11393:11404   */\n      add\n        /* \"--CODEGEN--\":11386:11441   */\n      mstore\n        /* \"--CODEGEN--\":11475:11498   */\n      0x72616363696f6e20717565206e6f206578697374610000000000000000000000\n        /* \"--CODEGEN--\":11470:11472   */\n      0x20\n        /* \"--CODEGEN--\":11465:11468   */\n      dup4\n        /* \"--CODEGEN--\":11461:11473   */\n      add\n        /* \"--CODEGEN--\":11454:11499   */\n      mstore\n        /* \"--CODEGEN--\":11527:11529   */\n      0x40\n        /* \"--CODEGEN--\":11522:11525   */\n      dup3\n        /* \"--CODEGEN--\":11518:11530   */\n      add\n        /* \"--CODEGEN--\":11511:11530   */\n      swap1\n      pop\n        /* \"--CODEGEN--\":11292:11536   */\n      swap2\n      swap1\n      pop\n      jump\t// out\n        /* \"--CODEGEN--\":11545:11935   */\n    tag_433:\n      0x00\n        /* \"--CODEGEN--\":11705:11772   */\n      tag_435\n        /* \"--CODEGEN--\":11769:11771   */\n      0x35\n        /* \"--CODEGEN--\":11764:11767   */\n      dup4\n        /* \"--CODEGEN--\":11705:11772   */\n      tag_368\n      jump\t// in\n    tag_435:\n        /* \"--CODEGEN--\":11698:11772   */\n      swap2\n      pop\n        /* \"--CODEGEN--\":11805:11839   */\n      0x4e6f2073652070756564652064617220646520616c7461206120756e61206174\n        /* \"--CODEGEN--\":11801:11802   */\n      0x00\n        /* \"--CODEGEN--\":11796:11799   */\n      dup4\n        /* \"--CODEGEN--\":11792:11803   */\n      add\n        /* \"--CODEGEN--\":11785:11840   */\n      mstore\n        /* \"--CODEGEN--\":11874:11897   */\n      0x72616363696f6e20717565206e6f206578697374610000000000000000000000\n        /* \"--CODEGEN--\":11869:11871   */\n      0x20\n        /* \"--CODEGEN--\":11864:11867   */\n      dup4\n        /* \"--CODEGEN--\":11860:11872   */\n      add\n        /* \"--CODEGEN--\":11853:11898   */\n      mstore\n        /* \"--CODEGEN--\":11926:11928   */\n      0x40\n        /* \"--CODEGEN--\":11921:11924   */\n      dup3\n        /* \"--CODEGEN--\":11917:11929   */\n      add\n        /* \"--CODEGEN--\":11910:11929   */\n      swap1\n      pop\n        /* \"--CODEGEN--\":11691:11935   */\n      swap2\n      swap1\n      pop\n      jump\t// out\n        /* \"--CODEGEN--\":11943:12056   */\n    tag_436:\n        /* \"--CODEGEN--\":12026:12050   */\n      tag_438\n        /* \"--CODEGEN--\":12044:12049   */\n      dup2\n        /* \"--CODEGEN--\":12026:12050   */\n      tag_439\n      jump\t// in\n    tag_438:\n        /* \"--CODEGEN--\":12021:12024   */\n      dup3\n        /* \"--CODEGEN--\":12014:12051   */\n      mstore\n        /* \"--CODEGEN--\":12008:12056   */\n      pop\n      pop\n      jump\t// out\n        /* \"--CODEGEN--\":12063:12338   */\n    tag_89:\n      0x00\n        /* \"--CODEGEN--\":12218:12313   */\n      tag_441\n        /* \"--CODEGEN--\":12309:12312   */\n      dup3\n        /* \"--CODEGEN--\":12300:12306   */\n      dup5\n        /* \"--CODEGEN--\":12218:12313   */\n      tag_371\n      jump\t// in\n    tag_441:\n        /* \"--CODEGEN--\":12211:12313   */\n      swap2\n      pop\n        /* \"--CODEGEN--\":12330:12333   */\n      dup2\n        /* \"--CODEGEN--\":12323:12333   */\n      swap1\n      pop\n        /* \"--CODEGEN--\":12199:12338   */\n      swap3\n      swap2\n      pop\n      pop\n      jump\t// out\n        /* \"--CODEGEN--\":12345:13042   */\n    tag_148:\n      0x00\n        /* \"--CODEGEN--\":12646:12741   */\n      tag_443\n        /* \"--CODEGEN--\":12737:12740   */\n      dup3\n        /* \"--CODEGEN--\":12728:12734   */\n      dup6\n        /* \"--CODEGEN--\":12646:12741   */\n      tag_371\n      jump\t// in\n    tag_443:\n        /* \"--CODEGEN--\":12639:12741   */\n      swap2\n      pop\n        /* \"--CODEGEN--\":12759:12907   */\n      tag_444\n        /* \"--CODEGEN--\":12903:12906   */\n      dup3\n        /* \"--CODEGEN--\":12759:12907   */\n      tag_406\n      jump\t// in\n    tag_444:\n        /* \"--CODEGEN--\":12752:12907   */\n      swap2\n      pop\n        /* \"--CODEGEN--\":12925:13017   */\n      tag_445\n        /* \"--CODEGEN--\":13013:13016   */\n      dup3\n        /* \"--CODEGEN--\":13004:13010   */\n      dup5\n        /* \"--CODEGEN--\":12925:13017   */\n      tag_389\n      jump\t// in\n    tag_445:\n        /* \"--CODEGEN--\":12918:13017   */\n      swap2\n      pop\n        /* \"--CODEGEN--\":13034:13037   */\n      dup2\n        /* \"--CODEGEN--\":13027:13037   */\n      swap1\n      pop\n        /* \"--CODEGEN--\":12627:13042   */\n      swap4\n      swap3\n      pop\n      pop\n      pop\n      jump\t// out\n        /* \"--CODEGEN--\":13049:13318   */\n    tag_93:\n      0x00\n        /* \"--CODEGEN--\":13201:13293   */\n      tag_447\n        /* \"--CODEGEN--\":13289:13292   */\n      dup3\n        /* \"--CODEGEN--\":13280:13286   */\n      dup5\n        /* \"--CODEGEN--\":13201:13293   */\n      tag_389\n      jump\t// in\n    tag_447:\n        /* \"--CODEGEN--\":13194:13293   */\n      swap2\n      pop\n        /* \"--CODEGEN--\":13310:13313   */\n      dup2\n        /* \"--CODEGEN--\":13303:13313   */\n      swap1\n      pop\n        /* \"--CODEGEN--\":13182:13318   */\n      swap3\n      swap2\n      pop\n      pop\n      jump\t// out\n        /* \"--CODEGEN--\":13325:13547   */\n    tag_178:\n      0x00\n        /* \"--CODEGEN--\":13452:13454   */\n      0x20\n        /* \"--CODEGEN--\":13441:13450   */\n      dup3\n        /* \"--CODEGEN--\":13437:13455   */\n      add\n        /* \"--CODEGEN--\":13429:13455   */\n      swap1\n      pop\n        /* \"--CODEGEN--\":13466:13537   */\n      tag_449\n        /* \"--CODEGEN--\":13534:13535   */\n      0x00\n        /* \"--CODEGEN--\":13523:13532   */\n      dup4\n        /* \"--CODEGEN--\":13519:13536   */\n      add\n        /* \"--CODEGEN--\":13510:13516   */\n      dup5\n        /* \"--CODEGEN--\":13466:13537   */\n      tag_333\n      jump\t// in\n    tag_449:\n        /* \"--CODEGEN--\":13423:13547   */\n      swap3\n      swap2\n      pop\n      pop\n      jump\t// out\n        /* \"--CODEGEN--\":13554:13792   */\n    tag_237:\n      0x00\n        /* \"--CODEGEN--\":13689:13691   */\n      0x20\n        /* \"--CODEGEN--\":13678:13687   */\n      dup3\n        /* \"--CODEGEN--\":13674:13692   */\n      add\n        /* \"--CODEGEN--\":13666:13692   */\n      swap1\n      pop\n        /* \"--CODEGEN--\":13703:13782   */\n      tag_451\n        /* \"--CODEGEN--\":13779:13780   */\n      0x00\n        /* \"--CODEGEN--\":13768:13777   */\n      dup4\n        /* \"--CODEGEN--\":13764:13781   */\n      add\n        /* \"--CODEGEN--\":13755:13761   */\n      dup5\n        /* \"--CODEGEN--\":13703:13782   */\n      tag_325\n      jump\t// in\n    tag_451:\n        /* \"--CODEGEN--\":13660:13792   */\n      swap3\n      swap2\n      pop\n      pop\n      jump\t// out\n        /* \"--CODEGEN--\":13799:14053   */\n    tag_51:\n      0x00\n        /* \"--CODEGEN--\":13942:13944   */\n      0x20\n        /* \"--CODEGEN--\":13931:13940   */\n      dup3\n        /* \"--CODEGEN--\":13927:13945   */\n      add\n        /* \"--CODEGEN--\":13919:13945   */\n      swap1\n      pop\n        /* \"--CODEGEN--\":13956:14043   */\n      tag_453\n        /* \"--CODEGEN--\":14040:14041   */\n      0x00\n        /* \"--CODEGEN--\":14029:14038   */\n      dup4\n        /* \"--CODEGEN--\":14025:14042   */\n      add\n        /* \"--CODEGEN--\":14016:14022   */\n      dup5\n        /* \"--CODEGEN--\":13956:14043   */\n      tag_329\n      jump\t// in\n    tag_453:\n        /* \"--CODEGEN--\":13913:14053   */\n      swap3\n      swap2\n      pop\n      pop\n      jump\t// out\n        /* \"--CODEGEN--\":14060:14520   */\n    tag_110:\n      0x00\n        /* \"--CODEGEN--\":14251:14253   */\n      0x60\n        /* \"--CODEGEN--\":14240:14249   */\n      dup3\n        /* \"--CODEGEN--\":14236:14254   */\n      add\n        /* \"--CODEGEN--\":14228:14254   */\n      swap1\n      pop\n        /* \"--CODEGEN--\":14265:14344   */\n      tag_455\n        /* \"--CODEGEN--\":14341:14342   */\n      0x00\n        /* \"--CODEGEN--\":14330:14339   */\n      dup4\n        /* \"--CODEGEN--\":14326:14343   */\n      add\n        /* \"--CODEGEN--\":14317:14323   */\n      dup7\n        /* \"--CODEGEN--\":14265:14344   */\n      tag_325\n      jump\t// in\n    tag_455:\n        /* \"--CODEGEN--\":14355:14427   */\n      tag_456\n        /* \"--CODEGEN--\":14423:14425   */\n      0x20\n        /* \"--CODEGEN--\":14412:14421   */\n      dup4\n        /* \"--CODEGEN--\":14408:14426   */\n      add\n        /* \"--CODEGEN--\":14399:14405   */\n      dup6\n        /* \"--CODEGEN--\":14355:14427   */\n      tag_333\n      jump\t// in\n    tag_456:\n        /* \"--CODEGEN--\":14438:14510   */\n      tag_457\n        /* \"--CODEGEN--\":14506:14508   */\n      0x40\n        /* \"--CODEGEN--\":14495:14504   */\n      dup4\n        /* \"--CODEGEN--\":14491:14509   */\n      add\n        /* \"--CODEGEN--\":14482:14488   */\n      dup5\n        /* \"--CODEGEN--\":14438:14510   */\n      tag_436\n      jump\t// in\n    tag_457:\n        /* \"--CODEGEN--\":14222:14520   */\n      swap5\n      swap4\n      pop\n      pop\n      pop\n      pop\n      jump\t// out\n        /* \"--CODEGEN--\":14527:14876   */\n    tag_255:\n      0x00\n        /* \"--CODEGEN--\":14690:14692   */\n      0x40\n        /* \"--CODEGEN--\":14679:14688   */\n      dup3\n        /* \"--CODEGEN--\":14675:14693   */\n      add\n        /* \"--CODEGEN--\":14667:14693   */\n      swap1\n      pop\n        /* \"--CODEGEN--\":14704:14783   */\n      tag_459\n        /* \"--CODEGEN--\":14780:14781   */\n      0x00\n        /* \"--CODEGEN--\":14769:14778   */\n      dup4\n        /* \"--CODEGEN--\":14765:14782   */\n      add\n        /* \"--CODEGEN--\":14756:14762   */\n      dup6\n        /* \"--CODEGEN--\":14704:14783   */\n      tag_325\n      jump\t// in\n    tag_459:\n        /* \"--CODEGEN--\":14794:14866   */\n      tag_460\n        /* \"--CODEGEN--\":14862:14864   */\n      0x20\n        /* \"--CODEGEN--\":14851:14860   */\n      dup4\n        /* \"--CODEGEN--\":14847:14865   */\n      add\n        /* \"--CODEGEN--\":14838:14844   */\n      dup5\n        /* \"--CODEGEN--\":14794:14866   */\n      tag_436\n      jump\t// in\n    tag_460:\n        /* \"--CODEGEN--\":14661:14876   */\n      swap4\n      swap3\n      pop\n      pop\n      pop\n      jump\t// out\n        /* \"--CODEGEN--\":14883:15293   */\n    tag_42:\n      0x00\n        /* \"--CODEGEN--\":15080:15082   */\n      0x20\n        /* \"--CODEGEN--\":15069:15078   */\n      dup3\n        /* \"--CODEGEN--\":15065:15083   */\n      add\n        /* \"--CODEGEN--\":15057:15083   */\n      swap1\n      pop\n        /* \"--CODEGEN--\":15130:15139   */\n      dup2\n        /* \"--CODEGEN--\":15124:15128   */\n      dup2\n        /* \"--CODEGEN--\":15120:15140   */\n      sub\n        /* \"--CODEGEN--\":15116:15117   */\n      0x00\n        /* \"--CODEGEN--\":15105:15114   */\n      dup4\n        /* \"--CODEGEN--\":15101:15118   */\n      add\n        /* \"--CODEGEN--\":15094:15141   */\n      mstore\n        /* \"--CODEGEN--\":15155:15283   */\n      tag_462\n        /* \"--CODEGEN--\":15278:15282   */\n      dup2\n        /* \"--CODEGEN--\":15269:15275   */\n      dup5\n        /* \"--CODEGEN--\":15155:15283   */\n      tag_337\n      jump\t// in\n    tag_462:\n        /* \"--CODEGEN--\":15147:15283   */\n      swap1\n      pop\n        /* \"--CODEGEN--\":15051:15293   */\n      swap3\n      swap2\n      pop\n      pop\n      jump\t// out\n        /* \"--CODEGEN--\":15300:15610   */\n    tag_32:\n      0x00\n        /* \"--CODEGEN--\":15447:15449   */\n      0x20\n        /* \"--CODEGEN--\":15436:15445   */\n      dup3\n        /* \"--CODEGEN--\":15432:15450   */\n      add\n        /* \"--CODEGEN--\":15424:15450   */\n      swap1\n      pop\n        /* \"--CODEGEN--\":15497:15506   */\n      dup2\n        /* \"--CODEGEN--\":15491:15495   */\n      dup2\n        /* \"--CODEGEN--\":15487:15507   */\n      sub\n        /* \"--CODEGEN--\":15483:15484   */\n      0x00\n        /* \"--CODEGEN--\":15472:15481   */\n      dup4\n        /* \"--CODEGEN--\":15468:15485   */\n      add\n        /* \"--CODEGEN--\":15461:15508   */\n      mstore\n        /* \"--CODEGEN--\":15522:15600   */\n      tag_464\n        /* \"--CODEGEN--\":15595:15599   */\n      dup2\n        /* \"--CODEGEN--\":15586:15592   */\n      dup5\n        /* \"--CODEGEN--\":15522:15600   */\n      tag_364\n      jump\t// in\n    tag_464:\n        /* \"--CODEGEN--\":15514:15600   */\n      swap1\n      pop\n        /* \"--CODEGEN--\":15418:15610   */\n      swap3\n      swap2\n      pop\n      pop\n      jump\t// out\n        /* \"--CODEGEN--\":15617:16038   */\n    tag_160:\n      0x00\n        /* \"--CODEGEN--\":15792:15794   */\n      0x40\n        /* \"--CODEGEN--\":15781:15790   */\n      dup3\n        /* \"--CODEGEN--\":15777:15795   */\n      add\n        /* \"--CODEGEN--\":15769:15795   */\n      swap1\n      pop\n        /* \"--CODEGEN--\":15842:15851   */\n      dup2\n        /* \"--CODEGEN--\":15836:15840   */\n      dup2\n        /* \"--CODEGEN--\":15832:15852   */\n      sub\n        /* \"--CODEGEN--\":15828:15829   */\n      0x00\n        /* \"--CODEGEN--\":15817:15826   */\n      dup4\n        /* \"--CODEGEN--\":15813:15830   */\n      add\n        /* \"--CODEGEN--\":15806:15853   */\n      mstore\n        /* \"--CODEGEN--\":15867:15945   */\n      tag_466\n        /* \"--CODEGEN--\":15940:15944   */\n      dup2\n        /* \"--CODEGEN--\":15931:15937   */\n      dup6\n        /* \"--CODEGEN--\":15867:15945   */\n      tag_364\n      jump\t// in\n    tag_466:\n        /* \"--CODEGEN--\":15859:15945   */\n      swap1\n      pop\n        /* \"--CODEGEN--\":15956:16028   */\n      tag_467\n        /* \"--CODEGEN--\":16024:16026   */\n      0x20\n        /* \"--CODEGEN--\":16013:16022   */\n      dup4\n        /* \"--CODEGEN--\":16009:16027   */\n      add\n        /* \"--CODEGEN--\":16000:16006   */\n      dup5\n        /* \"--CODEGEN--\":15956:16028   */\n      tag_436\n      jump\t// in\n    tag_467:\n        /* \"--CODEGEN--\":15763:16038   */\n      swap4\n      swap3\n      pop\n      pop\n      pop\n      jump\t// out\n        /* \"--CODEGEN--\":16045:16565   */\n    tag_76:\n      0x00\n        /* \"--CODEGEN--\":16242:16244   */\n      0x60\n        /* \"--CODEGEN--\":16231:16240   */\n      dup3\n        /* \"--CODEGEN--\":16227:16245   */\n      add\n        /* \"--CODEGEN--\":16219:16245   */\n      swap1\n      pop\n        /* \"--CODEGEN--\":16292:16301   */\n      dup2\n        /* \"--CODEGEN--\":16286:16290   */\n      dup2\n        /* \"--CODEGEN--\":16282:16302   */\n      sub\n        /* \"--CODEGEN--\":16278:16279   */\n      0x00\n        /* \"--CODEGEN--\":16267:16276   */\n      dup4\n        /* \"--CODEGEN--\":16263:16280   */\n      add\n        /* \"--CODEGEN--\":16256:16303   */\n      mstore\n        /* \"--CODEGEN--\":16317:16395   */\n      tag_469\n        /* \"--CODEGEN--\":16390:16394   */\n      dup2\n        /* \"--CODEGEN--\":16381:16387   */\n      dup7\n        /* \"--CODEGEN--\":16317:16395   */\n      tag_364\n      jump\t// in\n    tag_469:\n        /* \"--CODEGEN--\":16309:16395   */\n      swap1\n      pop\n        /* \"--CODEGEN--\":16406:16478   */\n      tag_470\n        /* \"--CODEGEN--\":16474:16476   */\n      0x20\n        /* \"--CODEGEN--\":16463:16472   */\n      dup4\n        /* \"--CODEGEN--\":16459:16477   */\n      add\n        /* \"--CODEGEN--\":16450:16456   */\n      dup6\n        /* \"--CODEGEN--\":16406:16478   */\n      tag_436\n      jump\t// in\n    tag_470:\n        /* \"--CODEGEN--\":16489:16555   */\n      tag_471\n        /* \"--CODEGEN--\":16551:16553   */\n      0x40\n        /* \"--CODEGEN--\":16540:16549   */\n      dup4\n        /* \"--CODEGEN--\":16536:16554   */\n      add\n        /* \"--CODEGEN--\":16527:16533   */\n      dup5\n        /* \"--CODEGEN--\":16489:16555   */\n      tag_351\n      jump\t// in\n    tag_471:\n        /* \"--CODEGEN--\":16213:16565   */\n      swap5\n      swap4\n      pop\n      pop\n      pop\n      pop\n      jump\t// out\n        /* \"--CODEGEN--\":16572:16876   */\n    tag_124:\n      0x00\n        /* \"--CODEGEN--\":16716:16718   */\n      0x20\n        /* \"--CODEGEN--\":16705:16714   */\n      dup3\n        /* \"--CODEGEN--\":16701:16719   */\n      add\n        /* \"--CODEGEN--\":16693:16719   */\n      swap1\n      pop\n        /* \"--CODEGEN--\":16766:16775   */\n      dup2\n        /* \"--CODEGEN--\":16760:16764   */\n      dup2\n        /* \"--CODEGEN--\":16756:16776   */\n      sub\n        /* \"--CODEGEN--\":16752:16753   */\n      0x00\n        /* \"--CODEGEN--\":16741:16750   */\n      dup4\n        /* \"--CODEGEN--\":16737:16754   */\n      add\n        /* \"--CODEGEN--\":16730:16777   */\n      mstore\n        /* \"--CODEGEN--\":16791:16866   */\n      tag_473\n        /* \"--CODEGEN--\":16861:16865   */\n      dup2\n        /* \"--CODEGEN--\":16852:16858   */\n      dup5\n        /* \"--CODEGEN--\":16791:16866   */\n      tag_377\n      jump\t// in\n    tag_473:\n        /* \"--CODEGEN--\":16783:16866   */\n      swap1\n      pop\n        /* \"--CODEGEN--\":16687:16876   */\n      swap3\n      swap2\n      pop\n      pop\n      jump\t// out\n        /* \"--CODEGEN--\":16883:17299   */\n    tag_131:\n      0x00\n        /* \"--CODEGEN--\":17083:17085   */\n      0x20\n        /* \"--CODEGEN--\":17072:17081   */\n      dup3\n        /* \"--CODEGEN--\":17068:17086   */\n      add\n        /* \"--CODEGEN--\":17060:17086   */\n      swap1\n      pop\n        /* \"--CODEGEN--\":17133:17142   */\n      dup2\n        /* \"--CODEGEN--\":17127:17131   */\n      dup2\n        /* \"--CODEGEN--\":17123:17143   */\n      sub\n        /* \"--CODEGEN--\":17119:17120   */\n      0x00\n        /* \"--CODEGEN--\":17108:17117   */\n      dup4\n        /* \"--CODEGEN--\":17104:17121   */\n      add\n        /* \"--CODEGEN--\":17097:17144   */\n      mstore\n        /* \"--CODEGEN--\":17158:17289   */\n      tag_475\n        /* \"--CODEGEN--\":17284:17288   */\n      dup2\n        /* \"--CODEGEN--\":17158:17289   */\n      tag_400\n      jump\t// in\n    tag_475:\n        /* \"--CODEGEN--\":17150:17289   */\n      swap1\n      pop\n        /* \"--CODEGEN--\":17054:17299   */\n      swap2\n      swap1\n      pop\n      jump\t// out\n        /* \"--CODEGEN--\":17306:17722   */\n    tag_136:\n      0x00\n        /* \"--CODEGEN--\":17506:17508   */\n      0x20\n        /* \"--CODEGEN--\":17495:17504   */\n      dup3\n        /* \"--CODEGEN--\":17491:17509   */\n      add\n        /* \"--CODEGEN--\":17483:17509   */\n      swap1\n      pop\n        /* \"--CODEGEN--\":17556:17565   */\n      dup2\n        /* \"--CODEGEN--\":17550:17554   */\n      dup2\n        /* \"--CODEGEN--\":17546:17566   */\n      sub\n        /* \"--CODEGEN--\":17542:17543   */\n      0x00\n        /* \"--CODEGEN--\":17531:17540   */\n      dup4\n        /* \"--CODEGEN--\":17527:17544   */\n      add\n        /* \"--CODEGEN--\":17520:17567   */\n      mstore\n        /* \"--CODEGEN--\":17581:17712   */\n      tag_477\n        /* \"--CODEGEN--\":17707:17711   */\n      dup2\n        /* \"--CODEGEN--\":17581:17712   */\n      tag_403\n      jump\t// in\n    tag_477:\n        /* \"--CODEGEN--\":17573:17712   */\n      swap1\n      pop\n        /* \"--CODEGEN--\":17477:17722   */\n      swap2\n      swap1\n      pop\n      jump\t// out\n        /* \"--CODEGEN--\":17729:18145   */\n    tag_105:\n      0x00\n        /* \"--CODEGEN--\":17929:17931   */\n      0x20\n        /* \"--CODEGEN--\":17918:17927   */\n      dup3\n        /* \"--CODEGEN--\":17914:17932   */\n      add\n        /* \"--CODEGEN--\":17906:17932   */\n      swap1\n      pop\n        /* \"--CODEGEN--\":17979:17988   */\n      dup2\n        /* \"--CODEGEN--\":17973:17977   */\n      dup2\n        /* \"--CODEGEN--\":17969:17989   */\n      sub\n        /* \"--CODEGEN--\":17965:17966   */\n      0x00\n        /* \"--CODEGEN--\":17954:17963   */\n      dup4\n        /* \"--CODEGEN--\":17950:17967   */\n      add\n        /* \"--CODEGEN--\":17943:17990   */\n      mstore\n        /* \"--CODEGEN--\":18004:18135   */\n      tag_479\n        /* \"--CODEGEN--\":18130:18134   */\n      dup2\n        /* \"--CODEGEN--\":18004:18135   */\n      tag_409\n      jump\t// in\n    tag_479:\n        /* \"--CODEGEN--\":17996:18135   */\n      swap1\n      pop\n        /* \"--CODEGEN--\":17900:18145   */\n      swap2\n      swap1\n      pop\n      jump\t// out\n        /* \"--CODEGEN--\":18152:18568   */\n    tag_128:\n      0x00\n        /* \"--CODEGEN--\":18352:18354   */\n      0x20\n        /* \"--CODEGEN--\":18341:18350   */\n      dup3\n        /* \"--CODEGEN--\":18337:18355   */\n      add\n        /* \"--CODEGEN--\":18329:18355   */\n      swap1\n      pop\n        /* \"--CODEGEN--\":18402:18411   */\n      dup2\n        /* \"--CODEGEN--\":18396:18400   */\n      dup2\n        /* \"--CODEGEN--\":18392:18412   */\n      sub\n        /* \"--CODEGEN--\":18388:18389   */\n      0x00\n        /* \"--CODEGEN--\":18377:18386   */\n      dup4\n        /* \"--CODEGEN--\":18373:18390   */\n      add\n        /* \"--CODEGEN--\":18366:18413   */\n      mstore\n        /* \"--CODEGEN--\":18427:18558   */\n      tag_481\n        /* \"--CODEGEN--\":18553:18557   */\n      dup2\n        /* \"--CODEGEN--\":18427:18558   */\n      tag_412\n      jump\t// in\n    tag_481:\n        /* \"--CODEGEN--\":18419:18558   */\n      swap1\n      pop\n        /* \"--CODEGEN--\":18323:18568   */\n      swap2\n      swap1\n      pop\n      jump\t// out\n        /* \"--CODEGEN--\":18575:18991   */\n    tag_247:\n      0x00\n        /* \"--CODEGEN--\":18775:18777   */\n      0x20\n        /* \"--CODEGEN--\":18764:18773   */\n      dup3\n        /* \"--CODEGEN--\":18760:18778   */\n      add\n        /* \"--CODEGEN--\":18752:18778   */\n      swap1\n      pop\n        /* \"--CODEGEN--\":18825:18834   */\n      dup2\n        /* \"--CODEGEN--\":18819:18823   */\n      dup2\n        /* \"--CODEGEN--\":18815:18835   */\n      sub\n        /* \"--CODEGEN--\":18811:18812   */\n      0x00\n        /* \"--CODEGEN--\":18800:18809   */\n      dup4\n        /* \"--CODEGEN--\":18796:18813   */\n      add\n        /* \"--CODEGEN--\":18789:18836   */\n      mstore\n        /* \"--CODEGEN--\":18850:18981   */\n      tag_483\n        /* \"--CODEGEN--\":18976:18980   */\n      dup2\n        /* \"--CODEGEN--\":18850:18981   */\n      tag_415\n      jump\t// in\n    tag_483:\n        /* \"--CODEGEN--\":18842:18981   */\n      swap1\n      pop\n        /* \"--CODEGEN--\":18746:18991   */\n      swap2\n      swap1\n      pop\n      jump\t// out\n        /* \"--CODEGEN--\":18998:19414   */\n    tag_251:\n      0x00\n        /* \"--CODEGEN--\":19198:19200   */\n      0x20\n        /* \"--CODEGEN--\":19187:19196   */\n      dup3\n        /* \"--CODEGEN--\":19183:19201   */\n      add\n        /* \"--CODEGEN--\":19175:19201   */\n      swap1\n      pop\n        /* \"--CODEGEN--\":19248:19257   */\n      dup2\n        /* \"--CODEGEN--\":19242:19246   */\n      dup2\n        /* \"--CODEGEN--\":19238:19258   */\n      sub\n        /* \"--CODEGEN--\":19234:19235   */\n      0x00\n        /* \"--CODEGEN--\":19223:19232   */\n      dup4\n        /* \"--CODEGEN--\":19219:19236   */\n      add\n        /* \"--CODEGEN--\":19212:19259   */\n      mstore\n        /* \"--CODEGEN--\":19273:19404   */\n      tag_485\n        /* \"--CODEGEN--\":19399:19403   */\n      dup2\n        /* \"--CODEGEN--\":19273:19404   */\n      tag_418\n      jump\t// in\n    tag_485:\n        /* \"--CODEGEN--\":19265:19404   */\n      swap1\n      pop\n        /* \"--CODEGEN--\":19169:19414   */\n      swap2\n      swap1\n      pop\n      jump\t// out\n        /* \"--CODEGEN--\":19421:19837   */\n    tag_203:\n      0x00\n        /* \"--CODEGEN--\":19621:19623   */\n      0x20\n        /* \"--CODEGEN--\":19610:19619   */\n      dup3\n        /* \"--CODEGEN--\":19606:19624   */\n      add\n        /* \"--CODEGEN--\":19598:19624   */\n      swap1\n      pop\n        /* \"--CODEGEN--\":19671:19680   */\n      dup2\n        /* \"--CODEGEN--\":19665:19669   */\n      dup2\n        /* \"--CODEGEN--\":19661:19681   */\n      sub\n        /* \"--CODEGEN--\":19657:19658   */\n      0x00\n        /* \"--CODEGEN--\":19646:19655   */\n      dup4\n        /* \"--CODEGEN--\":19642:19659   */\n      add\n        /* \"--CODEGEN--\":19635:19682   */\n      mstore\n        /* \"--CODEGEN--\":19696:19827   */\n      tag_487\n        /* \"--CODEGEN--\":19822:19826   */\n      dup2\n        /* \"--CODEGEN--\":19696:19827   */\n      tag_421\n      jump\t// in\n    tag_487:\n        /* \"--CODEGEN--\":19688:19827   */\n      swap1\n      pop\n        /* \"--CODEGEN--\":19592:19837   */\n      swap2\n      swap1\n      pop\n      jump\t// out\n        /* \"--CODEGEN--\":19844:20260   */\n    tag_227:\n      0x00\n        /* \"--CODEGEN--\":20044:20046   */\n      0x20\n        /* \"--CODEGEN--\":20033:20042   */\n      dup3\n        /* \"--CODEGEN--\":20029:20047   */\n      add\n        /* \"--CODEGEN--\":20021:20047   */\n      swap1\n      pop\n        /* \"--CODEGEN--\":20094:20103   */\n      dup2\n        /* \"--CODEGEN--\":20088:20092   */\n      dup2\n        /* \"--CODEGEN--\":20084:20104   */\n      sub\n        /* \"--CODEGEN--\":20080:20081   */\n      0x00\n        /* \"--CODEGEN--\":20069:20078   */\n      dup4\n        /* \"--CODEGEN--\":20065:20082   */\n      add\n        /* \"--CODEGEN--\":20058:20105   */\n      mstore\n        /* \"--CODEGEN--\":20119:20250   */\n      tag_489\n        /* \"--CODEGEN--\":20245:20249   */\n      dup2\n        /* \"--CODEGEN--\":20119:20250   */\n      tag_424\n      jump\t// in\n    tag_489:\n        /* \"--CODEGEN--\":20111:20250   */\n      swap1\n      pop\n        /* \"--CODEGEN--\":20015:20260   */\n      swap2\n      swap1\n      pop\n      jump\t// out\n        /* \"--CODEGEN--\":20267:20683   */\n    tag_152:\n      0x00\n        /* \"--CODEGEN--\":20467:20469   */\n      0x20\n        /* \"--CODEGEN--\":20456:20465   */\n      dup3\n        /* \"--CODEGEN--\":20452:20470   */\n      add\n        /* \"--CODEGEN--\":20444:20470   */\n      swap1\n      pop\n        /* \"--CODEGEN--\":20517:20526   */\n      dup2\n        /* \"--CODEGEN--\":20511:20515   */\n      dup2\n        /* \"--CODEGEN--\":20507:20527   */\n      sub\n        /* \"--CODEGEN--\":20503:20504   */\n      0x00\n        /* \"--CODEGEN--\":20492:20501   */\n      dup4\n        /* \"--CODEGEN--\":20488:20505   */\n      add\n        /* \"--CODEGEN--\":20481:20528   */\n      mstore\n        /* \"--CODEGEN--\":20542:20673   */\n      tag_491\n        /* \"--CODEGEN--\":20668:20672   */\n      dup2\n        /* \"--CODEGEN--\":20542:20673   */\n      tag_427\n      jump\t// in\n    tag_491:\n        /* \"--CODEGEN--\":20534:20673   */\n      swap1\n      pop\n        /* \"--CODEGEN--\":20438:20683   */\n      swap2\n      swap1\n      pop\n      jump\t// out\n        /* \"--CODEGEN--\":20690:21106   */\n    tag_206:\n      0x00\n        /* \"--CODEGEN--\":20890:20892   */\n      0x20\n        /* \"--CODEGEN--\":20879:20888   */\n      dup3\n        /* \"--CODEGEN--\":20875:20893   */\n      add\n        /* \"--CODEGEN--\":20867:20893   */\n      swap1\n      pop\n        /* \"--CODEGEN--\":20940:20949   */\n      dup2\n        /* \"--CODEGEN--\":20934:20938   */\n      dup2\n        /* \"--CODEGEN--\":20930:20950   */\n      sub\n        /* \"--CODEGEN--\":20926:20927   */\n      0x00\n        /* \"--CODEGEN--\":20915:20924   */\n      dup4\n        /* \"--CODEGEN--\":20911:20928   */\n      add\n        /* \"--CODEGEN--\":20904:20951   */\n      mstore\n        /* \"--CODEGEN--\":20965:21096   */\n      tag_493\n        /* \"--CODEGEN--\":21091:21095   */\n      dup2\n        /* \"--CODEGEN--\":20965:21096   */\n      tag_430\n      jump\t// in\n    tag_493:\n        /* \"--CODEGEN--\":20957:21096   */\n      swap1\n      pop\n        /* \"--CODEGEN--\":20861:21106   */\n      swap2\n      swap1\n      pop\n      jump\t// out\n        /* \"--CODEGEN--\":21113:21529   */\n    tag_230:\n      0x00\n        /* \"--CODEGEN--\":21313:21315   */\n      0x20\n        /* \"--CODEGEN--\":21302:21311   */\n      dup3\n        /* \"--CODEGEN--\":21298:21316   */\n      add\n        /* \"--CODEGEN--\":21290:21316   */\n      swap1\n      pop\n        /* \"--CODEGEN--\":21363:21372   */\n      dup2\n        /* \"--CODEGEN--\":21357:21361   */\n      dup2\n        /* \"--CODEGEN--\":21353:21373   */\n      sub\n        /* \"--CODEGEN--\":21349:21350   */\n      0x00\n        /* \"--CODEGEN--\":21338:21347   */\n      dup4\n        /* \"--CODEGEN--\":21334:21351   */\n      add\n        /* \"--CODEGEN--\":21327:21374   */\n      mstore\n        /* \"--CODEGEN--\":21388:21519   */\n      tag_495\n        /* \"--CODEGEN--\":21514:21518   */\n      dup2\n        /* \"--CODEGEN--\":21388:21519   */\n      tag_433\n      jump\t// in\n    tag_495:\n        /* \"--CODEGEN--\":21380:21519   */\n      swap1\n      pop\n        /* \"--CODEGEN--\":21284:21529   */\n      swap2\n      swap1\n      pop\n      jump\t// out\n        /* \"--CODEGEN--\":21536:21758   */\n    tag_56:\n      0x00\n        /* \"--CODEGEN--\":21663:21665   */\n      0x20\n        /* \"--CODEGEN--\":21652:21661   */\n      dup3\n        /* \"--CODEGEN--\":21648:21666   */\n      add\n        /* \"--CODEGEN--\":21640:21666   */\n      swap1\n      pop\n        /* \"--CODEGEN--\":21677:21748   */\n      tag_497\n        /* \"--CODEGEN--\":21745:21746   */\n      0x00\n        /* \"--CODEGEN--\":21734:21743   */\n      dup4\n        /* \"--CODEGEN--\":21730:21747   */\n      add\n        /* \"--CODEGEN--\":21721:21727   */\n      dup5\n        /* \"--CODEGEN--\":21677:21748   */\n      tag_436\n      jump\t// in\n    tag_497:\n        /* \"--CODEGEN--\":21634:21758   */\n      swap3\n      swap2\n      pop\n      pop\n      jump\t// out\n        /* \"--CODEGEN--\":21765:22021   */\n    tag_289:\n      0x00\n        /* \"--CODEGEN--\":21827:21829   */\n      0x40\n        /* \"--CODEGEN--\":21821:21830   */\n      mload\n        /* \"--CODEGEN--\":21811:21830   */\n      swap1\n      pop\n        /* \"--CODEGEN--\":21865:21869   */\n      dup2\n        /* \"--CODEGEN--\":21857:21863   */\n      dup2\n        /* \"--CODEGEN--\":21853:21870   */\n      add\n        /* \"--CODEGEN--\":21964:21970   */\n      dup2\n        /* \"--CODEGEN--\":21952:21962   */\n      dup2\n        /* \"--CODEGEN--\":21949:21971   */\n      lt\n        /* \"--CODEGEN--\":21928:21946   */\n      0xffffffffffffffff\n        /* \"--CODEGEN--\":21916:21926   */\n      dup3\n        /* \"--CODEGEN--\":21913:21947   */\n      gt\n        /* \"--CODEGEN--\":21910:21972   */\n      or\n        /* \"--CODEGEN--\":21907:21909   */\n      iszero\n      tag_499\n      jumpi\n        /* \"--CODEGEN--\":21985:21986   */\n      0x00\n        /* \"--CODEGEN--\":21982:21983   */\n      dup1\n        /* \"--CODEGEN--\":21975:21987   */\n      revert\n        /* \"--CODEGEN--\":21907:21909   */\n    tag_499:\n        /* \"--CODEGEN--\":22005:22015   */\n      dup1\n        /* \"--CODEGEN--\":22001:22003   */\n      0x40\n        /* \"--CODEGEN--\":21994:22016   */\n      mstore\n        /* \"--CODEGEN--\":21805:22021   */\n      pop\n      swap2\n      swap1\n      pop\n      jump\t// out\n        /* \"--CODEGEN--\":22028:22350   */\n    tag_288:\n      0x00\n        /* \"--CODEGEN--\":22172:22190   */\n      0xffffffffffffffff\n        /* \"--CODEGEN--\":22164:22170   */\n      dup3\n        /* \"--CODEGEN--\":22161:22191   */\n      gt\n        /* \"--CODEGEN--\":22158:22160   */\n      iszero\n      tag_501\n      jumpi\n        /* \"--CODEGEN--\":22204:22205   */\n      0x00\n        /* \"--CODEGEN--\":22201:22202   */\n      dup1\n        /* \"--CODEGEN--\":22194:22206   */\n      revert\n        /* \"--CODEGEN--\":22158:22160   */\n    tag_501:\n        /* \"--CODEGEN--\":22271:22275   */\n      0x1f\n        /* \"--CODEGEN--\":22267:22276   */\n      not\n        /* \"--CODEGEN--\":22260:22264   */\n      0x1f\n        /* \"--CODEGEN--\":22252:22258   */\n      dup4\n        /* \"--CODEGEN--\":22248:22265   */\n      add\n        /* \"--CODEGEN--\":22244:22277   */\n      and\n        /* \"--CODEGEN--\":22236:22277   */\n      swap1\n      pop\n        /* \"--CODEGEN--\":22335:22339   */\n      0x20\n        /* \"--CODEGEN--\":22329:22333   */\n      dup2\n        /* \"--CODEGEN--\":22325:22340   */\n      add\n        /* \"--CODEGEN--\":22317:22340   */\n      swap1\n      pop\n        /* \"--CODEGEN--\":22095:22350   */\n      swap2\n      swap1\n      pop\n      jump\t// out\n        /* \"--CODEGEN--\":22357:22518   */\n    tag_344:\n      0x00\n        /* \"--CODEGEN--\":22453:22456   */\n      dup2\n        /* \"--CODEGEN--\":22445:22456   */\n      swap1\n      pop\n        /* \"--CODEGEN--\":22491:22495   */\n      0x20\n        /* \"--CODEGEN--\":22486:22489   */\n      dup3\n        /* \"--CODEGEN--\":22482:22496   */\n      add\n        /* \"--CODEGEN--\":22474:22496   */\n      swap1\n      pop\n        /* \"--CODEGEN--\":22439:22518   */\n      swap2\n      swap1\n      pop\n      jump\t// out\n        /* \"--CODEGEN--\":22525:22683   */\n    tag_385:\n      0x00\n        /* \"--CODEGEN--\":22593:22596   */\n      dup2\n        /* \"--CODEGEN--\":22585:22596   */\n      swap1\n      pop\n        /* \"--CODEGEN--\":22630:22633   */\n      dup2\n        /* \"--CODEGEN--\":22627:22628   */\n      0x00\n        /* \"--CODEGEN--\":22620:22634   */\n      mstore\n        /* \"--CODEGEN--\":22662:22666   */\n      0x20\n        /* \"--CODEGEN--\":22659:22660   */\n      0x00\n        /* \"--CODEGEN--\":22649:22667   */\n      keccak256\n        /* \"--CODEGEN--\":22641:22667   */\n      swap1\n      pop\n        /* \"--CODEGEN--\":22579:22683   */\n      swap2\n      swap1\n      pop\n      jump\t// out\n        /* \"--CODEGEN--\":22690:22837   */\n    tag_340:\n      0x00\n        /* \"--CODEGEN--\":22809:22814   */\n      dup2\n        /* \"--CODEGEN--\":22803:22815   */\n      mload\n        /* \"--CODEGEN--\":22793:22815   */\n      swap1\n      pop\n        /* \"--CODEGEN--\":22774:22837   */\n      swap2\n      swap1\n      pop\n      jump\t// out\n        /* \"--CODEGEN--\":22844:22966   */\n    tag_357:\n      0x00\n        /* \"--CODEGEN--\":22938:22943   */\n      dup2\n        /* \"--CODEGEN--\":22932:22944   */\n      mload\n        /* \"--CODEGEN--\":22922:22944   */\n      swap1\n      pop\n        /* \"--CODEGEN--\":22903:22966   */\n      swap2\n      swap1\n      pop\n      jump\t// out\n        /* \"--CODEGEN--\":22973:23091   */\n    tag_350:\n      0x00\n        /* \"--CODEGEN--\":23081:23085   */\n      0x20\n        /* \"--CODEGEN--\":23076:23079   */\n      dup3\n        /* \"--CODEGEN--\":23072:23086   */\n      add\n        /* \"--CODEGEN--\":23064:23086   */\n      swap1\n      pop\n        /* \"--CODEGEN--\":23058:23091   */\n      swap2\n      swap1\n      pop\n      jump\t// out\n        /* \"--CODEGEN--\":23099:23287   */\n    tag_342:\n      0x00\n        /* \"--CODEGEN--\":23239:23245   */\n      dup3\n        /* \"--CODEGEN--\":23234:23237   */\n      dup3\n        /* \"--CODEGEN--\":23227:23246   */\n      mstore\n        /* \"--CODEGEN--\":23276:23280   */\n      0x20\n        /* \"--CODEGEN--\":23271:23274   */\n      dup3\n        /* \"--CODEGEN--\":23267:23281   */\n      add\n        /* \"--CODEGEN--\":23252:23281   */\n      swap1\n      pop\n        /* \"--CODEGEN--\":23220:23287   */\n      swap3\n      swap2\n      pop\n      pop\n      jump\t// out\n        /* \"--CODEGEN--\":23296:23449   */\n    tag_359:\n      0x00\n        /* \"--CODEGEN--\":23401:23407   */\n      dup3\n        /* \"--CODEGEN--\":23396:23399   */\n      dup3\n        /* \"--CODEGEN--\":23389:23408   */\n      mstore\n        /* \"--CODEGEN--\":23438:23442   */\n      0x20\n        /* \"--CODEGEN--\":23433:23436   */\n      dup3\n        /* \"--CODEGEN--\":23429:23443   */\n      add\n        /* \"--CODEGEN--\":23414:23443   */\n      swap1\n      pop\n        /* \"--CODEGEN--\":23382:23449   */\n      swap3\n      swap2\n      pop\n      pop\n      jump\t// out\n        /* \"--CODEGEN--\":23458:23621   */\n    tag_368:\n      0x00\n        /* \"--CODEGEN--\":23573:23579   */\n      dup3\n        /* \"--CODEGEN--\":23568:23571   */\n      dup3\n        /* \"--CODEGEN--\":23561:23580   */\n      mstore\n        /* \"--CODEGEN--\":23610:23614   */\n      0x20\n        /* \"--CODEGEN--\":23605:23608   */\n      dup3\n        /* \"--CODEGEN--\":23601:23615   */\n      add\n        /* \"--CODEGEN--\":23586:23615   */\n      swap1\n      pop\n        /* \"--CODEGEN--\":23554:23621   */\n      swap3\n      swap2\n      pop\n      pop\n      jump\t// out\n        /* \"--CODEGEN--\":23630:23775   */\n    tag_375:\n      0x00\n        /* \"--CODEGEN--\":23766:23769   */\n      dup2\n        /* \"--CODEGEN--\":23751:23769   */\n      swap1\n      pop\n        /* \"--CODEGEN--\":23744:23775   */\n      swap3\n      swap2\n      pop\n      pop\n      jump\t// out\n        /* \"--CODEGEN--\":23783:23874   */\n    tag_336:\n      0x00\n        /* \"--CODEGEN--\":23845:23869   */\n      tag_512\n        /* \"--CODEGEN--\":23863:23868   */\n      dup3\n        /* \"--CODEGEN--\":23845:23869   */\n      tag_513\n      jump\t// in\n    tag_512:\n        /* \"--CODEGEN--\":23834:23869   */\n      swap1\n      pop\n        /* \"--CODEGEN--\":23828:23874   */\n      swap2\n      swap1\n      pop\n      jump\t// out\n        /* \"--CODEGEN--\":23881:23980   */\n    tag_332:\n      0x00\n        /* \"--CODEGEN--\":23951:23975   */\n      tag_515\n        /* \"--CODEGEN--\":23969:23974   */\n      dup3\n        /* \"--CODEGEN--\":23951:23975   */\n      tag_513\n      jump\t// in\n    tag_515:\n        /* \"--CODEGEN--\":23940:23975   */\n      swap1\n      pop\n        /* \"--CODEGEN--\":23934:23980   */\n      swap2\n      swap1\n      pop\n      jump\t// out\n        /* \"--CODEGEN--\":23987:24072   */\n    tag_354:\n      0x00\n        /* \"--CODEGEN--\":24060:24065   */\n      dup2\n        /* \"--CODEGEN--\":24053:24066   */\n      iszero\n        /* \"--CODEGEN--\":24046:24067   */\n      iszero\n        /* \"--CODEGEN--\":24035:24067   */\n      swap1\n      pop\n        /* \"--CODEGEN--\":24029:24072   */\n      swap2\n      swap1\n      pop\n      jump\t// out\n        /* \"--CODEGEN--\":24079:24200   */\n    tag_513:\n      0x00\n        /* \"--CODEGEN--\":24152:24194   */\n      0xffffffffffffffffffffffffffffffffffffffff\n        /* \"--CODEGEN--\":24145:24150   */\n      dup3\n        /* \"--CODEGEN--\":24141:24195   */\n      and\n        /* \"--CODEGEN--\":24130:24195   */\n      swap1\n      pop\n        /* \"--CODEGEN--\":24124:24200   */\n      swap2\n      swap1\n      pop\n      jump\t// out\n        /* \"--CODEGEN--\":24207:24279   */\n    tag_439:\n      0x00\n        /* \"--CODEGEN--\":24269:24274   */\n      dup2\n        /* \"--CODEGEN--\":24258:24274   */\n      swap1\n      pop\n        /* \"--CODEGEN--\":24252:24279   */\n      swap2\n      swap1\n      pop\n      jump\t// out\n        /* \"--CODEGEN--\":24286:24415   */\n    tag_328:\n      0x00\n        /* \"--CODEGEN--\":24373:24410   */\n      tag_520\n        /* \"--CODEGEN--\":24404:24409   */\n      dup3\n        /* \"--CODEGEN--\":24373:24410   */\n      tag_521\n      jump\t// in\n    tag_520:\n        /* \"--CODEGEN--\":24360:24410   */\n      swap1\n      pop\n        /* \"--CODEGEN--\":24354:24415   */\n      swap2\n      swap1\n      pop\n      jump\t// out\n        /* \"--CODEGEN--\":24422:24543   */\n    tag_521:\n      0x00\n        /* \"--CODEGEN--\":24501:24538   */\n      tag_523\n        /* \"--CODEGEN--\":24532:24537   */\n      dup3\n        /* \"--CODEGEN--\":24501:24538   */\n      tag_524\n      jump\t// in\n    tag_523:\n        /* \"--CODEGEN--\":24488:24538   */\n      swap1\n      pop\n        /* \"--CODEGEN--\":24482:24543   */\n      swap2\n      swap1\n      pop\n      jump\t// out\n        /* \"--CODEGEN--\":24550:24658   */\n    tag_524:\n      0x00\n        /* \"--CODEGEN--\":24629:24653   */\n      tag_526\n        /* \"--CODEGEN--\":24647:24652   */\n      dup3\n        /* \"--CODEGEN--\":24629:24653   */\n      tag_513\n      jump\t// in\n    tag_526:\n        /* \"--CODEGEN--\":24616:24653   */\n      swap1\n      pop\n        /* \"--CODEGEN--\":24610:24658   */\n      swap2\n      swap1\n      pop\n      jump\t// out\n        /* \"--CODEGEN--\":24666:24811   */\n    tag_292:\n        /* \"--CODEGEN--\":24747:24753   */\n      dup3\n        /* \"--CODEGEN--\":24742:24745   */\n      dup2\n        /* \"--CODEGEN--\":24737:24740   */\n      dup4\n        /* \"--CODEGEN--\":24724:24754   */\n      calldatacopy\n        /* \"--CODEGEN--\":24803:24804   */\n      0x00\n        /* \"--CODEGEN--\":24794:24800   */\n      dup4\n        /* \"--CODEGEN--\":24789:24792   */\n      dup4\n        /* \"--CODEGEN--\":24785:24801   */\n      add\n        /* \"--CODEGEN--\":24778:24805   */\n      mstore\n        /* \"--CODEGEN--\":24717:24811   */\n      pop\n      pop\n      pop\n      jump\t// out\n        /* \"--CODEGEN--\":24820:25088   */\n    tag_361:\n        /* \"--CODEGEN--\":24885:24886   */\n      0x00\n        /* \"--CODEGEN--\":24892:24993   */\n    tag_529:\n        /* \"--CODEGEN--\":24906:24912   */\n      dup4\n        /* \"--CODEGEN--\":24903:24904   */\n      dup2\n        /* \"--CODEGEN--\":24900:24913   */\n      lt\n        /* \"--CODEGEN--\":24892:24993   */\n      iszero\n      tag_531\n      jumpi\n        /* \"--CODEGEN--\":24982:24983   */\n      dup1\n        /* \"--CODEGEN--\":24977:24980   */\n      dup3\n        /* \"--CODEGEN--\":24973:24984   */\n      add\n        /* \"--CODEGEN--\":24967:24985   */\n      mload\n        /* \"--CODEGEN--\":24963:24964   */\n      dup2\n        /* \"--CODEGEN--\":24958:24961   */\n      dup5\n        /* \"--CODEGEN--\":24954:24965   */\n      add\n        /* \"--CODEGEN--\":24947:24986   */\n      mstore\n        /* \"--CODEGEN--\":24928:24930   */\n      0x20\n        /* \"--CODEGEN--\":24925:24926   */\n      dup2\n        /* \"--CODEGEN--\":24921:24931   */\n      add\n        /* \"--CODEGEN--\":24916:24931   */\n      swap1\n      pop\n        /* \"--CODEGEN--\":24892:24993   */\n      jump(tag_529)\n    tag_531:\n        /* \"--CODEGEN--\":25008:25014   */\n      dup4\n        /* \"--CODEGEN--\":25005:25006   */\n      dup2\n        /* \"--CODEGEN--\":25002:25015   */\n      gt\n        /* \"--CODEGEN--\":24999:25001   */\n      iszero\n      tag_532\n      jumpi\n        /* \"--CODEGEN--\":25073:25074   */\n      0x00\n        /* \"--CODEGEN--\":25064:25070   */\n      dup5\n        /* \"--CODEGEN--\":25059:25062   */\n      dup5\n        /* \"--CODEGEN--\":25055:25071   */\n      add\n        /* \"--CODEGEN--\":25048:25075   */\n      mstore\n        /* \"--CODEGEN--\":24999:25001   */\n    tag_532:\n        /* \"--CODEGEN--\":24869:25088   */\n      pop\n      pop\n      pop\n      pop\n      jump\t// out\n        /* \"--CODEGEN--\":25096:25193   */\n    tag_363:\n      0x00\n        /* \"--CODEGEN--\":25184:25186   */\n      0x1f\n        /* \"--CODEGEN--\":25180:25187   */\n      not\n        /* \"--CODEGEN--\":25175:25177   */\n      0x1f\n        /* \"--CODEGEN--\":25168:25173   */\n      dup4\n        /* \"--CODEGEN--\":25164:25178   */\n      add\n        /* \"--CODEGEN--\":25160:25188   */\n      and\n        /* \"--CODEGEN--\":25150:25188   */\n      swap1\n      pop\n        /* \"--CODEGEN--\":25144:25193   */\n      swap2\n      swap1\n      pop\n      jump\t// out\n        /* \"--CODEGEN--\":25201:25318   */\n    tag_278:\n        /* \"--CODEGEN--\":25270:25294   */\n      tag_535\n        /* \"--CODEGEN--\":25288:25293   */\n      dup2\n        /* \"--CODEGEN--\":25270:25294   */\n      tag_336\n      jump\t// in\n    tag_535:\n        /* \"--CODEGEN--\":25263:25268   */\n      dup2\n        /* \"--CODEGEN--\":25260:25295   */\n      eq\n        /* \"--CODEGEN--\":25250:25252   */\n      tag_536\n      jumpi\n        /* \"--CODEGEN--\":25309:25310   */\n      0x00\n        /* \"--CODEGEN--\":25306:25307   */\n      dup1\n        /* \"--CODEGEN--\":25299:25311   */\n      revert\n        /* \"--CODEGEN--\":25250:25252   */\n    tag_536:\n        /* \"--CODEGEN--\":25244:25318   */\n      pop\n      jump\t// out\n        /* \"--CODEGEN--\":25325:25436   */\n    tag_282:\n        /* \"--CODEGEN--\":25391:25412   */\n      tag_538\n        /* \"--CODEGEN--\":25406:25411   */\n      dup2\n        /* \"--CODEGEN--\":25391:25412   */\n      tag_354\n      jump\t// in\n    tag_538:\n        /* \"--CODEGEN--\":25384:25389   */\n      dup2\n        /* \"--CODEGEN--\":25381:25413   */\n      eq\n        /* \"--CODEGEN--\":25371:25373   */\n      tag_539\n      jumpi\n        /* \"--CODEGEN--\":25427:25428   */\n      0x00\n        /* \"--CODEGEN--\":25424:25425   */\n      dup1\n        /* \"--CODEGEN--\":25417:25429   */\n      revert\n        /* \"--CODEGEN--\":25371:25373   */\n    tag_539:\n        /* \"--CODEGEN--\":25365:25436   */\n      pop\n      jump\t// out\n        /* \"--CODEGEN--\":25443:25560   */\n    tag_296:\n        /* \"--CODEGEN--\":25512:25536   */\n      tag_541\n        /* \"--CODEGEN--\":25530:25535   */\n      dup2\n        /* \"--CODEGEN--\":25512:25536   */\n      tag_439\n      jump\t// in\n    tag_541:\n        /* \"--CODEGEN--\":25505:25510   */\n      dup2\n        /* \"--CODEGEN--\":25502:25537   */\n      eq\n        /* \"--CODEGEN--\":25492:25494   */\n      tag_542\n      jumpi\n        /* \"--CODEGEN--\":25551:25552   */\n      0x00\n        /* \"--CODEGEN--\":25548:25549   */\n      dup1\n        /* \"--CODEGEN--\":25541:25553   */\n      revert\n        /* \"--CODEGEN--\":25492:25494   */\n    tag_542:\n        /* \"--CODEGEN--\":25486:25560   */\n      pop\n      jump\t// out\n\n    auxdata: 0xa2646970667358221220d9e5586d680f557669f309902f4741bbe3c469a19337dfe94aa09edd095e4f0f64736f6c634300060c0033\n}\n\nsub_1: assembly {\n        /* \"Disney/ERC20.sol\":1639:4341  contract ERC20Basic is IERC20 {\r... */\n      mstore(0x40, 0x80)\n        /* \"Disney/ERC20.sol\":1983:2119  constructor (uint256 initialSupply) public {\r... */\n      callvalue\n      dup1\n      iszero\n      tag_1\n      jumpi\n      0x00\n      dup1\n      revert\n    tag_1:\n      pop\n      mload(0x40)\n      sub(codesize, bytecodeSize)\n      dup1\n      bytecodeSize\n      dup4\n      codecopy\n      dup2\n      dup2\n      add\n      0x40\n      mstore\n      dup2\n      add\n      swap1\n      tag_2\n      swap2\n      swap1\n      tag_3\n      jump\t// in\n    tag_2:\n        /* \"Disney/ERC20.sol\":2052:2065  initialSupply */\n      dup1\n        /* \"Disney/ERC20.sol\":2037:2049  totalSupply_ */\n      0x02\n        /* \"Disney/ERC20.sol\":2037:2065  totalSupply_ = initialSupply */\n      dup2\n      swap1\n      sstore\n      pop\n        /* \"Disney/ERC20.sol\":2099:2111  totalSupply_ */\n      sload(0x02)\n        /* \"Disney/ERC20.sol\":2076:2084  balances */\n      0x00\n        /* \"Disney/ERC20.sol\":2076:2096  balances[msg.sender] */\n      dup1\n        /* \"Disney/ERC20.sol\":2085:2095  msg.sender */\n      caller\n        /* \"Disney/ERC20.sol\":2076:2096  balances[msg.sender] */\n      0xffffffffffffffffffffffffffffffffffffffff\n      and\n      0xffffffffffffffffffffffffffffffffffffffff\n      and\n      dup2\n      mstore\n      0x20\n      add\n      swap1\n      dup2\n      mstore\n      0x20\n      add\n      0x00\n      keccak256\n        /* \"Disney/ERC20.sol\":2076:2111  balances[msg.sender] = totalSupply_ */\n      dup2\n      swap1\n      sstore\n      pop\n        /* \"Disney/ERC20.sol\":1983:2119  constructor (uint256 initialSupply) public {\r... */\n      pop\n        /* \"Disney/ERC20.sol\":1639:4341  contract ERC20Basic is IERC20 {\r... */\n      jump(tag_6)\n        /* \"--CODEGEN--\":5:139   */\n    tag_8:\n      0x00\n        /* \"--CODEGEN--\":89:95   */\n      dup2\n        /* \"--CODEGEN--\":83:96   */\n      mload\n        /* \"--CODEGEN--\":74:96   */\n      swap1\n      pop\n        /* \"--CODEGEN--\":101:134   */\n      tag_10\n        /* \"--CODEGEN--\":128:133   */\n      dup2\n        /* \"--CODEGEN--\":101:134   */\n      tag_11\n      jump\t// in\n    tag_10:\n        /* \"--CODEGEN--\":68:139   */\n      swap3\n      swap2\n      pop\n      pop\n      jump\t// out\n        /* \"--CODEGEN--\":146:409   */\n    tag_3:\n      0x00\n        /* \"--CODEGEN--\":261:263   */\n      0x20\n        /* \"--CODEGEN--\":249:258   */\n      dup3\n        /* \"--CODEGEN--\":240:247   */\n      dup5\n        /* \"--CODEGEN--\":236:259   */\n      sub\n        /* \"--CODEGEN--\":232:264   */\n      slt\n        /* \"--CODEGEN--\":229:231   */\n      iszero\n      tag_13\n      jumpi\n        /* \"--CODEGEN--\":277:278   */\n      0x00\n        /* \"--CODEGEN--\":274:275   */\n      dup1\n        /* \"--CODEGEN--\":267:279   */\n      revert\n        /* \"--CODEGEN--\":229:231   */\n    tag_13:\n        /* \"--CODEGEN--\":312:313   */\n      0x00\n        /* \"--CODEGEN--\":329:393   */\n      tag_14\n        /* \"--CODEGEN--\":385:392   */\n      dup5\n        /* \"--CODEGEN--\":376:382   */\n      dup3\n        /* \"--CODEGEN--\":365:374   */\n      dup6\n        /* \"--CODEGEN--\":361:383   */\n      add\n        /* \"--CODEGEN--\":329:393   */\n      tag_8\n      jump\t// in\n    tag_14:\n        /* \"--CODEGEN--\":319:393   */\n      swap2\n      pop\n        /* \"--CODEGEN--\":291:399   */\n      pop\n        /* \"--CODEGEN--\":223:409   */\n      swap3\n      swap2\n      pop\n      pop\n      jump\t// out\n        /* \"--CODEGEN--\":416:488   */\n    tag_15:\n      0x00\n        /* \"--CODEGEN--\":478:483   */\n      dup2\n        /* \"--CODEGEN--\":467:483   */\n      swap1\n      pop\n        /* \"--CODEGEN--\":461:488   */\n      swap2\n      swap1\n      pop\n      jump\t// out\n        /* \"--CODEGEN--\":495:612   */\n    tag_11:\n        /* \"--CODEGEN--\":564:588   */\n      tag_18\n        /* \"--CODEGEN--\":582:587   */\n      dup2\n        /* \"--CODEGEN--\":564:588   */\n      tag_15\n      jump\t// in\n    tag_18:\n        /* \"--CODEGEN--\":557:562   */\n      dup2\n        /* \"--CODEGEN--\":554:589   */\n      eq\n        /* \"--CODEGEN--\":544:546   */\n      tag_19\n      jumpi\n        /* \"--CODEGEN--\":603:604   */\n      0x00\n        /* \"--CODEGEN--\":600:601   */\n      dup1\n        /* \"--CODEGEN--\":593:605   */\n      revert\n        /* \"--CODEGEN--\":544:546   */\n    tag_19:\n        /* \"--CODEGEN--\":538:612   */\n      pop\n      jump\t// out\n        /* \"Disney/ERC20.sol\":1639:4341  contract ERC20Basic is IERC20 {\r... */\n    tag_6:\n      dataSize(sub_0)\n      dup1\n      dataOffset(sub_0)\n      0x00\n      codecopy\n      0x00\n      return\n    stop\n\n    sub_0: assembly {\n            /* \"Disney/ERC20.sol\":1639:4341  contract ERC20Basic is IERC20 {\r... */\n          mstore(0x40, 0x80)\n          callvalue\n          dup1\n          iszero\n          tag_1\n          jumpi\n          0x00\n          dup1\n          revert\n        tag_1:\n          pop\n          jumpi(tag_2, lt(calldatasize, 0x04))\n          shr(0xe0, calldataload(0x00))\n          dup1\n          0x313ce567\n          gt\n          tag_14\n          jumpi\n          dup1\n          0x313ce567\n          eq\n          tag_8\n          jumpi\n          dup1\n          0x70a08231\n          eq\n          tag_9\n          jumpi\n          dup1\n          0x95d89b41\n          eq\n          tag_10\n          jumpi\n          dup1\n          0xa9059cbb\n          eq\n          tag_11\n          jumpi\n          dup1\n          0xdd62ed3e\n          eq\n          tag_12\n          jumpi\n          dup1\n          0xef910460\n          eq\n          tag_13\n          jumpi\n          jump(tag_2)\n        tag_14:\n          dup1\n          0x06fdde03\n          eq\n          tag_3\n          jumpi\n          dup1\n          0x095ea7b3\n          eq\n          tag_4\n          jumpi\n          dup1\n          0x18160ddd\n          eq\n          tag_5\n          jumpi\n          dup1\n          0x1d43cc98\n          eq\n          tag_6\n          jumpi\n          dup1\n          0x23b872dd\n          eq\n          tag_7\n          jumpi\n        tag_2:\n          0x00\n          dup1\n          revert\n            /* \"Disney/ERC20.sol\":1713:1757  string public constant name = \"ERC20AKALugo\" */\n        tag_3:\n          tag_15\n          tag_16\n          jump\t// in\n        tag_15:\n          mload(0x40)\n          tag_17\n          swap2\n          swap1\n          tag_18\n          jump\t// in\n        tag_17:\n          mload(0x40)\n          dup1\n          swap2\n          sub\n          swap1\n          return\n            /* \"Disney/ERC20.sol\":3608:3837  function approve(address spender, uint numTokens) public override returns(bool) {\r... */\n        tag_4:\n          tag_19\n          0x04\n          dup1\n          calldatasize\n          sub\n          dup2\n          add\n          swap1\n          tag_20\n          swap2\n          swap1\n          tag_21\n          jump\t// in\n        tag_20:\n          tag_22\n          jump\t// in\n        tag_19:\n          mload(0x40)\n          tag_23\n          swap2\n          swap1\n          tag_24\n          jump\t// in\n        tag_23:\n          mload(0x40)\n          dup1\n          swap2\n          sub\n          swap1\n          return\n            /* \"Disney/ERC20.sol\":2292:2391  function totalSupply() public override view returns(uint256) {\r... */\n        tag_5:\n          tag_25\n          tag_26\n          jump\t// in\n        tag_25:\n          mload(0x40)\n          tag_27\n          swap2\n          swap1\n          tag_28\n          jump\t// in\n        tag_27:\n          mload(0x40)\n          dup1\n          swap2\n          sub\n          swap1\n          return\n            /* \"Disney/ERC20.sol\":2399:2557  function increaseTotalSupply(uint newTokensAmount) public {\r... */\n        tag_6:\n          tag_29\n          0x04\n          dup1\n          calldatasize\n          sub\n          dup2\n          add\n          swap1\n          tag_30\n          swap2\n          swap1\n          tag_31\n          jump\t// in\n        tag_30:\n          tag_32\n          jump\t// in\n        tag_29:\n          stop\n            /* \"Disney/ERC20.sol\":3845:4338  function transferFrom(address owner, address buyer, uint256 numTokens) public override returns(bool) {\r... */\n        tag_7:\n          tag_33\n          0x04\n          dup1\n          calldatasize\n          sub\n          dup2\n          add\n          swap1\n          tag_34\n          swap2\n          swap1\n          tag_35\n          jump\t// in\n        tag_34:\n          tag_36\n          jump\t// in\n        tag_33:\n          mload(0x40)\n          tag_37\n          swap2\n          swap1\n          tag_24\n          jump\t// in\n        tag_37:\n          mload(0x40)\n          dup1\n          swap2\n          sub\n          swap1\n          return\n            /* \"Disney/ERC20.sol\":1808:1843  uint8 public constant decimals = 18 */\n        tag_8:\n          tag_38\n          tag_39\n          jump\t// in\n        tag_38:\n          mload(0x40)\n          tag_40\n          swap2\n          swap1\n          tag_41\n          jump\t// in\n        tag_40:\n          mload(0x40)\n          dup1\n          swap2\n          sub\n          swap1\n          return\n            /* \"Disney/ERC20.sol\":2565:2683  function balanceOf(address account) public override view returns (uint256) {\r... */\n        tag_9:\n          tag_42\n          0x04\n          dup1\n          calldatasize\n          sub\n          dup2\n          add\n          swap1\n          tag_43\n          swap2\n          swap1\n          tag_44\n          jump\t// in\n        tag_43:\n          tag_45\n          jump\t// in\n        tag_42:\n          mload(0x40)\n          tag_46\n          swap2\n          swap1\n          tag_28\n          jump\t// in\n        tag_46:\n          mload(0x40)\n          dup1\n          swap2\n          sub\n          swap1\n          return\n            /* \"Disney/ERC20.sol\":1764:1801  string public constant symbol = \"AKA\" */\n        tag_10:\n          tag_47\n          tag_48\n          jump\t// in\n        tag_47:\n          mload(0x40)\n          tag_49\n          swap2\n          swap1\n          tag_18\n          jump\t// in\n        tag_49:\n          mload(0x40)\n          dup1\n          swap2\n          sub\n          swap1\n          return\n            /* \"Disney/ERC20.sol\":2838:3209  function transfer(address recipient, uint256 numTokens) public override returns(bool) {\r... */\n        tag_11:\n          tag_50\n          0x04\n          dup1\n          calldatasize\n          sub\n          dup2\n          add\n          swap1\n          tag_51\n          swap2\n          swap1\n          tag_21\n          jump\t// in\n        tag_51:\n          tag_52\n          jump\t// in\n        tag_50:\n          mload(0x40)\n          tag_53\n          swap2\n          swap1\n          tag_24\n          jump\t// in\n        tag_53:\n          mload(0x40)\n          dup1\n          swap2\n          sub\n          swap1\n          return\n            /* \"Disney/ERC20.sol\":2691:2830  function allowance(address owner, address spender) public override view returns (uint256) {\r... */\n        tag_12:\n          tag_54\n          0x04\n          dup1\n          calldatasize\n          sub\n          dup2\n          add\n          swap1\n          tag_55\n          swap2\n          swap1\n          tag_56\n          jump\t// in\n        tag_55:\n          tag_57\n          jump\t// in\n        tag_54:\n          mload(0x40)\n          tag_58\n          swap2\n          swap1\n          tag_28\n          jump\t// in\n        tag_58:\n          mload(0x40)\n          dup1\n          swap2\n          sub\n          swap1\n          return\n            /* \"Disney/ERC20.sol\":3217:3600  function transfer_Disney(address cliente, address recipient, uint256 numTokens) public override returns(bool) {\r... */\n        tag_13:\n          tag_59\n          0x04\n          dup1\n          calldatasize\n          sub\n          dup2\n          add\n          swap1\n          tag_60\n          swap2\n          swap1\n          tag_35\n          jump\t// in\n        tag_60:\n          tag_61\n          jump\t// in\n        tag_59:\n          mload(0x40)\n          tag_62\n          swap2\n          swap1\n          tag_24\n          jump\t// in\n        tag_62:\n          mload(0x40)\n          dup1\n          swap2\n          sub\n          swap1\n          return\n            /* \"Disney/ERC20.sol\":1713:1757  string public constant name = \"ERC20AKALugo\" */\n        tag_16:\n          mload(0x40)\n          dup1\n          0x40\n          add\n          0x40\n          mstore\n          dup1\n          0x0c\n          dup2\n          mstore\n          0x20\n          add\n          0x4552433230414b414c75676f0000000000000000000000000000000000000000\n          dup2\n          mstore\n          pop\n          dup2\n          jump\t// out\n            /* \"Disney/ERC20.sol\":3608:3837  function approve(address spender, uint numTokens) public override returns(bool) {\r... */\n        tag_22:\n            /* \"Disney/ERC20.sol\":3682:3686  bool */\n          0x00\n            /* \"Disney/ERC20.sol\":3740:3749  numTokens */\n          dup2\n            /* \"Disney/ERC20.sol\":3709:3716  allowed */\n          0x01\n            /* \"Disney/ERC20.sol\":3709:3728  allowed[msg.sender] */\n          0x00\n            /* \"Disney/ERC20.sol\":3717:3727  msg.sender */\n          caller\n            /* \"Disney/ERC20.sol\":3709:3728  allowed[msg.sender] */\n          0xffffffffffffffffffffffffffffffffffffffff\n          and\n          0xffffffffffffffffffffffffffffffffffffffff\n          and\n          dup2\n          mstore\n          0x20\n          add\n          swap1\n          dup2\n          mstore\n          0x20\n          add\n          0x00\n          keccak256\n            /* \"Disney/ERC20.sol\":3709:3737  allowed[msg.sender][spender] */\n          0x00\n            /* \"Disney/ERC20.sol\":3729:3736  spender */\n          dup6\n            /* \"Disney/ERC20.sol\":3709:3737  allowed[msg.sender][spender] */\n          0xffffffffffffffffffffffffffffffffffffffff\n          and\n          0xffffffffffffffffffffffffffffffffffffffff\n          and\n          dup2\n          mstore\n          0x20\n          add\n          swap1\n          dup2\n          mstore\n          0x20\n          add\n          0x00\n          keccak256\n            /* \"Disney/ERC20.sol\":3709:3749  allowed[msg.sender][spender] = numTokens */\n          dup2\n          swap1\n          sstore\n          pop\n            /* \"Disney/ERC20.sol\":3786:3793  spender */\n          dup3\n            /* \"Disney/ERC20.sol\":3765:3805  Approval(msg.sender, spender, numTokens) */\n          0xffffffffffffffffffffffffffffffffffffffff\n          and\n            /* \"Disney/ERC20.sol\":3774:3784  msg.sender */\n          caller\n            /* \"Disney/ERC20.sol\":3765:3805  Approval(msg.sender, spender, numTokens) */\n          0xffffffffffffffffffffffffffffffffffffffff\n          and\n          0x8c5be1e5ebec7d5bd14f71427d1e84f3dd0314c0f7b2291e5b200ac8c7c3b925\n            /* \"Disney/ERC20.sol\":3795:3804  numTokens */\n          dup5\n            /* \"Disney/ERC20.sol\":3765:3805  Approval(msg.sender, spender, numTokens) */\n          mload(0x40)\n          tag_64\n          swap2\n          swap1\n          tag_28\n          jump\t// in\n        tag_64:\n          mload(0x40)\n          dup1\n          swap2\n          sub\n          swap1\n          log3\n            /* \"Disney/ERC20.sol\":3825:3829  true */\n          0x01\n            /* \"Disney/ERC20.sol\":3818:3829  return true */\n          swap1\n          pop\n            /* \"Disney/ERC20.sol\":3608:3837  function approve(address spender, uint numTokens) public override returns(bool) {\r... */\n          swap3\n          swap2\n          pop\n          pop\n          jump\t// out\n            /* \"Disney/ERC20.sol\":2292:2391  function totalSupply() public override view returns(uint256) {\r... */\n        tag_26:\n            /* \"Disney/ERC20.sol\":2344:2351  uint256 */\n          0x00\n            /* \"Disney/ERC20.sol\":2371:2383  totalSupply_ */\n          sload(0x02)\n            /* \"Disney/ERC20.sol\":2364:2383  return totalSupply_ */\n          swap1\n          pop\n            /* \"Disney/ERC20.sol\":2292:2391  function totalSupply() public override view returns(uint256) {\r... */\n          swap1\n          jump\t// out\n            /* \"Disney/ERC20.sol\":2399:2557  function increaseTotalSupply(uint newTokensAmount) public {\r... */\n        tag_32:\n            /* \"Disney/ERC20.sol\":2484:2499  newTokensAmount */\n          dup1\n            /* \"Disney/ERC20.sol\":2468:2480  totalSupply_ */\n          0x02\n          0x00\n            /* \"Disney/ERC20.sol\":2468:2499  totalSupply_ += newTokensAmount */\n          dup3\n          dup3\n          sload\n          add\n          swap3\n          pop\n          pop\n          dup2\n          swap1\n          sstore\n          pop\n            /* \"Disney/ERC20.sol\":2534:2549  newTokensAmount */\n          dup1\n            /* \"Disney/ERC20.sol\":2510:2518  balances */\n          0x00\n            /* \"Disney/ERC20.sol\":2510:2530  balances[msg.sender] */\n          dup1\n            /* \"Disney/ERC20.sol\":2519:2529  msg.sender */\n          caller\n            /* \"Disney/ERC20.sol\":2510:2530  balances[msg.sender] */\n          0xffffffffffffffffffffffffffffffffffffffff\n          and\n          0xffffffffffffffffffffffffffffffffffffffff\n          and\n          dup2\n          mstore\n          0x20\n          add\n          swap1\n          dup2\n          mstore\n          0x20\n          add\n          0x00\n          keccak256\n          0x00\n            /* \"Disney/ERC20.sol\":2510:2549  balances[msg.sender] += newTokensAmount */\n          dup3\n          dup3\n          sload\n          add\n          swap3\n          pop\n          pop\n          dup2\n          swap1\n          sstore\n          pop\n            /* \"Disney/ERC20.sol\":2399:2557  function increaseTotalSupply(uint newTokensAmount) public {\r... */\n          pop\n          jump\t// out\n            /* \"Disney/ERC20.sol\":3845:4338  function transferFrom(address owner, address buyer, uint256 numTokens) public override returns(bool) {\r... */\n        tag_36:\n            /* \"Disney/ERC20.sol\":3940:3944  bool */\n          0x00\n            /* \"Disney/ERC20.sol\":3985:3994  numTokens */\n          dup2\n            /* \"Disney/ERC20.sol\":3966:3974  balances */\n          0x00\n            /* \"Disney/ERC20.sol\":3966:3981  balances[owner] */\n          dup1\n            /* \"Disney/ERC20.sol\":3975:3980  owner */\n          dup7\n            /* \"Disney/ERC20.sol\":3966:3981  balances[owner] */\n          0xffffffffffffffffffffffffffffffffffffffff\n          and\n          0xffffffffffffffffffffffffffffffffffffffff\n          and\n          dup2\n          mstore\n          0x20\n          add\n          swap1\n          dup2\n          mstore\n          0x20\n          add\n          0x00\n          keccak256\n          sload\n            /* \"Disney/ERC20.sol\":3966:3994  balances[owner] >= numTokens */\n          lt\n          iszero\n            /* \"Disney/ERC20.sol\":3957:3995  require (balances[owner] >= numTokens) */\n          tag_68\n          jumpi\n          0x00\n          dup1\n          revert\n        tag_68:\n            /* \"Disney/ERC20.sol\":4045:4054  numTokens */\n          dup2\n            /* \"Disney/ERC20.sol\":4015:4022  allowed */\n          0x01\n            /* \"Disney/ERC20.sol\":4015:4029  allowed[owner] */\n          0x00\n            /* \"Disney/ERC20.sol\":4023:4028  owner */\n          dup7\n            /* \"Disney/ERC20.sol\":4015:4029  allowed[owner] */\n          0xffffffffffffffffffffffffffffffffffffffff\n          and\n          0xffffffffffffffffffffffffffffffffffffffff\n          and\n          dup2\n          mstore\n          0x20\n          add\n          swap1\n          dup2\n          mstore\n          0x20\n          add\n          0x00\n          keccak256\n            /* \"Disney/ERC20.sol\":4015:4041  allowed[owner][msg.sender] */\n          0x00\n            /* \"Disney/ERC20.sol\":4030:4040  msg.sender */\n          caller\n            /* \"Disney/ERC20.sol\":4015:4041  allowed[owner][msg.sender] */\n          0xffffffffffffffffffffffffffffffffffffffff\n          and\n          0xffffffffffffffffffffffffffffffffffffffff\n          and\n          dup2\n          mstore\n          0x20\n          add\n          swap1\n          dup2\n          mstore\n          0x20\n          add\n          0x00\n          keccak256\n          sload\n            /* \"Disney/ERC20.sol\":4015:4054  allowed[owner][msg.sender] >= numTokens */\n          lt\n          iszero\n            /* \"Disney/ERC20.sol\":4006:4055  require (allowed[owner][msg.sender] >= numTokens) */\n          tag_69\n          jumpi\n          0x00\n          dup1\n          revert\n        tag_69:\n            /* \"Disney/ERC20.sol\":4086:4116  balances[owner].sub(numTokens) */\n          tag_70\n            /* \"Disney/ERC20.sol\":4106:4115  numTokens */\n          dup3\n            /* \"Disney/ERC20.sol\":4086:4094  balances */\n          0x00\n            /* \"Disney/ERC20.sol\":4086:4101  balances[owner] */\n          dup1\n            /* \"Disney/ERC20.sol\":4095:4100  owner */\n          dup8\n            /* \"Disney/ERC20.sol\":4086:4101  balances[owner] */\n          0xffffffffffffffffffffffffffffffffffffffff\n          and\n          0xffffffffffffffffffffffffffffffffffffffff\n          and\n          dup2\n          mstore\n          0x20\n          add\n          swap1\n          dup2\n          mstore\n          0x20\n          add\n          0x00\n          keccak256\n          sload\n            /* \"Disney/ERC20.sol\":4086:4105  balances[owner].sub */\n          tag_71\n          swap1\n            /* \"Disney/ERC20.sol\":4086:4116  balances[owner].sub(numTokens) */\n          swap2\n          swap1\n          0xffffffff\n          and\n          jump\t// in\n        tag_70:\n            /* \"Disney/ERC20.sol\":4068:4076  balances */\n          0x00\n            /* \"Disney/ERC20.sol\":4068:4083  balances[owner] */\n          dup1\n            /* \"Disney/ERC20.sol\":4077:4082  owner */\n          dup7\n            /* \"Disney/ERC20.sol\":4068:4083  balances[owner] */\n          0xffffffffffffffffffffffffffffffffffffffff\n          and\n          0xffffffffffffffffffffffffffffffffffffffff\n          and\n          dup2\n          mstore\n          0x20\n          add\n          swap1\n          dup2\n          mstore\n          0x20\n          add\n          0x00\n          keccak256\n            /* \"Disney/ERC20.sol\":4068:4116  balances[owner] = balances[owner].sub(numTokens) */\n          dup2\n          swap1\n          sstore\n          pop\n            /* \"Disney/ERC20.sol\":4156:4197  allowed[owner][msg.sender].sub(numTokens) */\n          tag_72\n            /* \"Disney/ERC20.sol\":4187:4196  numTokens */\n          dup3\n            /* \"Disney/ERC20.sol\":4156:4163  allowed */\n          0x01\n            /* \"Disney/ERC20.sol\":4156:4170  allowed[owner] */\n          0x00\n            /* \"Disney/ERC20.sol\":4164:4169  owner */\n          dup8\n            /* \"Disney/ERC20.sol\":4156:4170  allowed[owner] */\n          0xffffffffffffffffffffffffffffffffffffffff\n          and\n          0xffffffffffffffffffffffffffffffffffffffff\n          and\n          dup2\n          mstore\n          0x20\n          add\n          swap1\n          dup2\n          mstore\n          0x20\n          add\n          0x00\n          keccak256\n            /* \"Disney/ERC20.sol\":4156:4182  allowed[owner][msg.sender] */\n          0x00\n            /* \"Disney/ERC20.sol\":4171:4181  msg.sender */\n          caller\n            /* \"Disney/ERC20.sol\":4156:4182  allowed[owner][msg.sender] */\n          0xffffffffffffffffffffffffffffffffffffffff\n          and\n          0xffffffffffffffffffffffffffffffffffffffff\n          and\n          dup2\n          mstore\n          0x20\n          add\n          swap1\n          dup2\n          mstore\n          0x20\n          add\n          0x00\n          keccak256\n          sload\n            /* \"Disney/ERC20.sol\":4156:4186  allowed[owner][msg.sender].sub */\n          tag_71\n          swap1\n            /* \"Disney/ERC20.sol\":4156:4197  allowed[owner][msg.sender].sub(numTokens) */\n          swap2\n          swap1\n          0xffffffff\n          and\n          jump\t// in\n        tag_72:\n            /* \"Disney/ERC20.sol\":4127:4134  allowed */\n          0x01\n            /* \"Disney/ERC20.sol\":4127:4141  allowed[owner] */\n          0x00\n            /* \"Disney/ERC20.sol\":4135:4140  owner */\n          dup7\n            /* \"Disney/ERC20.sol\":4127:4141  allowed[owner] */\n          0xffffffffffffffffffffffffffffffffffffffff\n          and\n          0xffffffffffffffffffffffffffffffffffffffff\n          and\n          dup2\n          mstore\n          0x20\n          add\n          swap1\n          dup2\n          mstore\n          0x20\n          add\n          0x00\n          keccak256\n            /* \"Disney/ERC20.sol\":4127:4153  allowed[owner][msg.sender] */\n          0x00\n            /* \"Disney/ERC20.sol\":4142:4152  msg.sender */\n          caller\n            /* \"Disney/ERC20.sol\":4127:4153  allowed[owner][msg.sender] */\n          0xffffffffffffffffffffffffffffffffffffffff\n          and\n          0xffffffffffffffffffffffffffffffffffffffff\n          and\n          dup2\n          mstore\n          0x20\n          add\n          swap1\n          dup2\n          mstore\n          0x20\n          add\n          0x00\n          keccak256\n            /* \"Disney/ERC20.sol\":4127:4197  allowed[owner][msg.sender] = allowed[owner][msg.sender].sub(numTokens) */\n          dup2\n          swap1\n          sstore\n          pop\n            /* \"Disney/ERC20.sol\":4226:4256  balances[buyer].add(numTokens) */\n          tag_73\n            /* \"Disney/ERC20.sol\":4246:4255  numTokens */\n          dup3\n            /* \"Disney/ERC20.sol\":4226:4234  balances */\n          0x00\n            /* \"Disney/ERC20.sol\":4226:4241  balances[buyer] */\n          dup1\n            /* \"Disney/ERC20.sol\":4235:4240  buyer */\n          dup7\n            /* \"Disney/ERC20.sol\":4226:4241  balances[buyer] */\n          0xffffffffffffffffffffffffffffffffffffffff\n          and\n          0xffffffffffffffffffffffffffffffffffffffff\n          and\n          dup2\n          mstore\n          0x20\n          add\n          swap1\n          dup2\n          mstore\n          0x20\n          add\n          0x00\n          keccak256\n          sload\n            /* \"Disney/ERC20.sol\":4226:4245  balances[buyer].add */\n          tag_74\n          swap1\n            /* \"Disney/ERC20.sol\":4226:4256  balances[buyer].add(numTokens) */\n          swap2\n          swap1\n          0xffffffff\n          and\n          jump\t// in\n        tag_73:\n            /* \"Disney/ERC20.sol\":4208:4216  balances */\n          0x00\n            /* \"Disney/ERC20.sol\":4208:4223  balances[buyer] */\n          dup1\n            /* \"Disney/ERC20.sol\":4217:4222  buyer */\n          dup6\n            /* \"Disney/ERC20.sol\":4208:4223  balances[buyer] */\n          0xffffffffffffffffffffffffffffffffffffffff\n          and\n          0xffffffffffffffffffffffffffffffffffffffff\n          and\n          dup2\n          mstore\n          0x20\n          add\n          swap1\n          dup2\n          mstore\n          0x20\n          add\n          0x00\n          keccak256\n            /* \"Disney/ERC20.sol\":4208:4256  balances[buyer] = balances[buyer].add(numTokens) */\n          dup2\n          swap1\n          sstore\n          pop\n            /* \"Disney/ERC20.sol\":4290:4295  buyer */\n          dup3\n            /* \"Disney/ERC20.sol\":4274:4307  Transfer(owner, buyer, numTokens) */\n          0xffffffffffffffffffffffffffffffffffffffff\n          and\n            /* \"Disney/ERC20.sol\":4283:4288  owner */\n          dup5\n            /* \"Disney/ERC20.sol\":4274:4307  Transfer(owner, buyer, numTokens) */\n          0xffffffffffffffffffffffffffffffffffffffff\n          and\n          0xddf252ad1be2c89b69c2b068fc378daa952ba7f163c4a11628f55a4df523b3ef\n            /* \"Disney/ERC20.sol\":4297:4306  numTokens */\n          dup5\n            /* \"Disney/ERC20.sol\":4274:4307  Transfer(owner, buyer, numTokens) */\n          mload(0x40)\n          tag_75\n          swap2\n          swap1\n          tag_28\n          jump\t// in\n        tag_75:\n          mload(0x40)\n          dup1\n          swap2\n          sub\n          swap1\n          log3\n            /* \"Disney/ERC20.sol\":4326:4330  true */\n          0x01\n            /* \"Disney/ERC20.sol\":4319:4330  return true */\n          swap1\n          pop\n            /* \"Disney/ERC20.sol\":3845:4338  function transferFrom(address owner, address buyer, uint256 numTokens) public override returns(bool) {\r... */\n          swap4\n          swap3\n          pop\n          pop\n          pop\n          jump\t// out\n            /* \"Disney/ERC20.sol\":1808:1843  uint8 public constant decimals = 18 */\n        tag_39:\n            /* \"Disney/ERC20.sol\":1841:1843  18 */\n          0x12\n            /* \"Disney/ERC20.sol\":1808:1843  uint8 public constant decimals = 18 */\n          dup2\n          jump\t// out\n            /* \"Disney/ERC20.sol\":2565:2683  function balanceOf(address account) public override view returns (uint256) {\r... */\n        tag_45:\n            /* \"Disney/ERC20.sol\":2631:2638  uint256 */\n          0x00\n            /* \"Disney/ERC20.sol\":2658:2666  balances */\n          dup1\n            /* \"Disney/ERC20.sol\":2658:2675  balances[account] */\n          0x00\n            /* \"Disney/ERC20.sol\":2667:2674  account */\n          dup4\n            /* \"Disney/ERC20.sol\":2658:2675  balances[account] */\n          0xffffffffffffffffffffffffffffffffffffffff\n          and\n          0xffffffffffffffffffffffffffffffffffffffff\n          and\n          dup2\n          mstore\n          0x20\n          add\n          swap1\n          dup2\n          mstore\n          0x20\n          add\n          0x00\n          keccak256\n          sload\n            /* \"Disney/ERC20.sol\":2651:2675  return balances[account] */\n          swap1\n          pop\n            /* \"Disney/ERC20.sol\":2565:2683  function balanceOf(address account) public override view returns (uint256) {\r... */\n          swap2\n          swap1\n          pop\n          jump\t// out\n            /* \"Disney/ERC20.sol\":1764:1801  string public constant symbol = \"AKA\" */\n        tag_48:\n          mload(0x40)\n          dup1\n          0x40\n          add\n          0x40\n          mstore\n          dup1\n          0x03\n          dup2\n          mstore\n          0x20\n          add\n          0x414b410000000000000000000000000000000000000000000000000000000000\n          dup2\n          mstore\n          pop\n          dup2\n          jump\t// out\n            /* \"Disney/ERC20.sol\":2838:3209  function transfer(address recipient, uint256 numTokens) public override returns(bool) {\r... */\n        tag_52:\n            /* \"Disney/ERC20.sol\":2918:2922  bool */\n          0x00\n            /* \"Disney/ERC20.sol\":2957:2965  balances */\n          dup1\n            /* \"Disney/ERC20.sol\":2957:2977  balances[msg.sender] */\n          0x00\n            /* \"Disney/ERC20.sol\":2966:2976  msg.sender */\n          caller\n            /* \"Disney/ERC20.sol\":2957:2977  balances[msg.sender] */\n          0xffffffffffffffffffffffffffffffffffffffff\n          and\n          0xffffffffffffffffffffffffffffffffffffffff\n          and\n          dup2\n          mstore\n          0x20\n          add\n          swap1\n          dup2\n          mstore\n          0x20\n          add\n          0x00\n          keccak256\n          sload\n            /* \"Disney/ERC20.sol\":2944:2953  numTokens */\n          dup3\n            /* \"Disney/ERC20.sol\":2944:2977  numTokens <= balances[msg.sender] */\n          gt\n          iszero\n            /* \"Disney/ERC20.sol\":2935:2978  require (numTokens <= balances[msg.sender]) */\n          tag_78\n          jumpi\n          0x00\n          dup1\n          revert\n        tag_78:\n            /* \"Disney/ERC20.sol\":3014:3049  balances[msg.sender].sub(numTokens) */\n          tag_79\n            /* \"Disney/ERC20.sol\":3039:3048  numTokens */\n          dup3\n            /* \"Disney/ERC20.sol\":3014:3022  balances */\n          0x00\n            /* \"Disney/ERC20.sol\":3014:3034  balances[msg.sender] */\n          dup1\n            /* \"Disney/ERC20.sol\":3023:3033  msg.sender */\n          caller\n            /* \"Disney/ERC20.sol\":3014:3034  balances[msg.sender] */\n          0xffffffffffffffffffffffffffffffffffffffff\n          and\n          0xffffffffffffffffffffffffffffffffffffffff\n          and\n          dup2\n          mstore\n          0x20\n          add\n          swap1\n          dup2\n          mstore\n          0x20\n          add\n          0x00\n          keccak256\n          sload\n            /* \"Disney/ERC20.sol\":3014:3038  balances[msg.sender].sub */\n          tag_71\n          swap1\n            /* \"Disney/ERC20.sol\":3014:3049  balances[msg.sender].sub(numTokens) */\n          swap2\n          swap1\n          0xffffffff\n          and\n          jump\t// in\n        tag_79:\n            /* \"Disney/ERC20.sol\":2991:2999  balances */\n          0x00\n            /* \"Disney/ERC20.sol\":2991:3011  balances[msg.sender] */\n          dup1\n            /* \"Disney/ERC20.sol\":3000:3010  msg.sender */\n          caller\n            /* \"Disney/ERC20.sol\":2991:3011  balances[msg.sender] */\n          0xffffffffffffffffffffffffffffffffffffffff\n          and\n          0xffffffffffffffffffffffffffffffffffffffff\n          and\n          dup2\n          mstore\n          0x20\n          add\n          swap1\n          dup2\n          mstore\n          0x20\n          add\n          0x00\n          keccak256\n            /* \"Disney/ERC20.sol\":2991:3049  balances[msg.sender] = balances[msg.sender].sub(numTokens) */\n          dup2\n          swap1\n          sstore\n          pop\n            /* \"Disney/ERC20.sol\":3083:3117  balances[recipient].add(numTokens) */\n          tag_80\n            /* \"Disney/ERC20.sol\":3107:3116  numTokens */\n          dup3\n            /* \"Disney/ERC20.sol\":3083:3091  balances */\n          0x00\n            /* \"Disney/ERC20.sol\":3083:3102  balances[recipient] */\n          dup1\n            /* \"Disney/ERC20.sol\":3092:3101  recipient */\n          dup7\n            /* \"Disney/ERC20.sol\":3083:3102  balances[recipient] */\n          0xffffffffffffffffffffffffffffffffffffffff\n          and\n          0xffffffffffffffffffffffffffffffffffffffff\n          and\n          dup2\n          mstore\n          0x20\n          add\n          swap1\n          dup2\n          mstore\n          0x20\n          add\n          0x00\n          keccak256\n          sload\n            /* \"Disney/ERC20.sol\":3083:3106  balances[recipient].add */\n          tag_74\n          swap1\n            /* \"Disney/ERC20.sol\":3083:3117  balances[recipient].add(numTokens) */\n          swap2\n          swap1\n          0xffffffff\n          and\n          jump\t// in\n        tag_80:\n            /* \"Disney/ERC20.sol\":3061:3069  balances */\n          0x00\n            /* \"Disney/ERC20.sol\":3061:3080  balances[recipient] */\n          dup1\n            /* \"Disney/ERC20.sol\":3070:3079  recipient */\n          dup6\n            /* \"Disney/ERC20.sol\":3061:3080  balances[recipient] */\n          0xffffffffffffffffffffffffffffffffffffffff\n          and\n          0xffffffffffffffffffffffffffffffffffffffff\n          and\n          dup2\n          mstore\n          0x20\n          add\n          swap1\n          dup2\n          mstore\n          0x20\n          add\n          0x00\n          keccak256\n            /* \"Disney/ERC20.sol\":3061:3117  balances[recipient] = balances[recipient].add(numTokens) */\n          dup2\n          swap1\n          sstore\n          pop\n            /* \"Disney/ERC20.sol\":3156:3165  recipient */\n          dup3\n            /* \"Disney/ERC20.sol\":3135:3177  Transfer(msg.sender, recipient, numTokens) */\n          0xffffffffffffffffffffffffffffffffffffffff\n          and\n            /* \"Disney/ERC20.sol\":3144:3154  msg.sender */\n          caller\n            /* \"Disney/ERC20.sol\":3135:3177  Transfer(msg.sender, recipient, numTokens) */\n          0xffffffffffffffffffffffffffffffffffffffff\n          and\n          0xddf252ad1be2c89b69c2b068fc378daa952ba7f163c4a11628f55a4df523b3ef\n            /* \"Disney/ERC20.sol\":3167:3176  numTokens */\n          dup5\n            /* \"Disney/ERC20.sol\":3135:3177  Transfer(msg.sender, recipient, numTokens) */\n          mload(0x40)\n          tag_81\n          swap2\n          swap1\n          tag_28\n          jump\t// in\n        tag_81:\n          mload(0x40)\n          dup1\n          swap2\n          sub\n          swap1\n          log3\n            /* \"Disney/ERC20.sol\":3197:3201  true */\n          0x01\n            /* \"Disney/ERC20.sol\":3190:3201  return true */\n          swap1\n          pop\n            /* \"Disney/ERC20.sol\":2838:3209  function transfer(address recipient, uint256 numTokens) public override returns(bool) {\r... */\n          swap3\n          swap2\n          pop\n          pop\n          jump\t// out\n            /* \"Disney/ERC20.sol\":2691:2830  function allowance(address owner, address spender) public override view returns (uint256) {\r... */\n        tag_57:\n            /* \"Disney/ERC20.sol\":2772:2779  uint256 */\n          0x00\n            /* \"Disney/ERC20.sol\":2799:2806  allowed */\n          0x01\n            /* \"Disney/ERC20.sol\":2799:2813  allowed[owner] */\n          0x00\n            /* \"Disney/ERC20.sol\":2807:2812  owner */\n          dup5\n            /* \"Disney/ERC20.sol\":2799:2813  allowed[owner] */\n          0xffffffffffffffffffffffffffffffffffffffff\n          and\n          0xffffffffffffffffffffffffffffffffffffffff\n          and\n          dup2\n          mstore\n          0x20\n          add\n          swap1\n          dup2\n          mstore\n          0x20\n          add\n          0x00\n          keccak256\n            /* \"Disney/ERC20.sol\":2799:2822  allowed[owner][spender] */\n          0x00\n            /* \"Disney/ERC20.sol\":2814:2821  spender */\n          dup4\n            /* \"Disney/ERC20.sol\":2799:2822  allowed[owner][spender] */\n          0xffffffffffffffffffffffffffffffffffffffff\n          and\n          0xffffffffffffffffffffffffffffffffffffffff\n          and\n          dup2\n          mstore\n          0x20\n          add\n          swap1\n          dup2\n          mstore\n          0x20\n          add\n          0x00\n          keccak256\n          sload\n            /* \"Disney/ERC20.sol\":2792:2822  return allowed[owner][spender] */\n          swap1\n          pop\n            /* \"Disney/ERC20.sol\":2691:2830  function allowance(address owner, address spender) public override view returns (uint256) {\r... */\n          swap3\n          swap2\n          pop\n          pop\n          jump\t// out\n            /* \"Disney/ERC20.sol\":3217:3600  function transfer_Disney(address cliente, address recipient, uint256 numTokens) public override returns(bool) {\r... */\n        tag_61:\n            /* \"Disney/ERC20.sol\":3321:3325  bool */\n          0x00\n            /* \"Disney/ERC20.sol\":3360:3368  balances */\n          dup1\n            /* \"Disney/ERC20.sol\":3360:3377  balances[cliente] */\n          0x00\n            /* \"Disney/ERC20.sol\":3369:3376  cliente */\n          dup6\n            /* \"Disney/ERC20.sol\":3360:3377  balances[cliente] */\n          0xffffffffffffffffffffffffffffffffffffffff\n          and\n          0xffffffffffffffffffffffffffffffffffffffff\n          and\n          dup2\n          mstore\n          0x20\n          add\n          swap1\n          dup2\n          mstore\n          0x20\n          add\n          0x00\n          keccak256\n          sload\n            /* \"Disney/ERC20.sol\":3347:3356  numTokens */\n          dup3\n            /* \"Disney/ERC20.sol\":3347:3377  numTokens <= balances[cliente] */\n          gt\n          iszero\n            /* \"Disney/ERC20.sol\":3338:3378  require (numTokens <= balances[cliente]) */\n          tag_84\n          jumpi\n          0x00\n          dup1\n          revert\n        tag_84:\n            /* \"Disney/ERC20.sol\":3411:3443  balances[cliente].sub(numTokens) */\n          tag_85\n            /* \"Disney/ERC20.sol\":3433:3442  numTokens */\n          dup3\n            /* \"Disney/ERC20.sol\":3411:3419  balances */\n          0x00\n            /* \"Disney/ERC20.sol\":3411:3428  balances[cliente] */\n          dup1\n            /* \"Disney/ERC20.sol\":3420:3427  cliente */\n          dup8\n            /* \"Disney/ERC20.sol\":3411:3428  balances[cliente] */\n          0xffffffffffffffffffffffffffffffffffffffff\n          and\n          0xffffffffffffffffffffffffffffffffffffffff\n          and\n          dup2\n          mstore\n          0x20\n          add\n          swap1\n          dup2\n          mstore\n          0x20\n          add\n          0x00\n          keccak256\n          sload\n            /* \"Disney/ERC20.sol\":3411:3432  balances[cliente].sub */\n          tag_71\n          swap1\n            /* \"Disney/ERC20.sol\":3411:3443  balances[cliente].sub(numTokens) */\n          swap2\n          swap1\n          0xffffffff\n          and\n          jump\t// in\n        tag_85:\n            /* \"Disney/ERC20.sol\":3391:3399  balances */\n          0x00\n            /* \"Disney/ERC20.sol\":3391:3408  balances[cliente] */\n          dup1\n            /* \"Disney/ERC20.sol\":3400:3407  cliente */\n          dup7\n            /* \"Disney/ERC20.sol\":3391:3408  balances[cliente] */\n          0xffffffffffffffffffffffffffffffffffffffff\n          and\n          0xffffffffffffffffffffffffffffffffffffffff\n          and\n          dup2\n          mstore\n          0x20\n          add\n          swap1\n          dup2\n          mstore\n          0x20\n          add\n          0x00\n          keccak256\n            /* \"Disney/ERC20.sol\":3391:3443  balances[cliente] = balances[cliente].sub(numTokens) */\n          dup2\n          swap1\n          sstore\n          pop\n            /* \"Disney/ERC20.sol\":3477:3511  balances[recipient].add(numTokens) */\n          tag_86\n            /* \"Disney/ERC20.sol\":3501:3510  numTokens */\n          dup3\n            /* \"Disney/ERC20.sol\":3477:3485  balances */\n          0x00\n            /* \"Disney/ERC20.sol\":3477:3496  balances[recipient] */\n          dup1\n            /* \"Disney/ERC20.sol\":3486:3495  recipient */\n          dup7\n            /* \"Disney/ERC20.sol\":3477:3496  balances[recipient] */\n          0xffffffffffffffffffffffffffffffffffffffff\n          and\n          0xffffffffffffffffffffffffffffffffffffffff\n          and\n          dup2\n          mstore\n          0x20\n          add\n          swap1\n          dup2\n          mstore\n          0x20\n          add\n          0x00\n          keccak256\n          sload\n            /* \"Disney/ERC20.sol\":3477:3500  balances[recipient].add */\n          tag_74\n          swap1\n            /* \"Disney/ERC20.sol\":3477:3511  balances[recipient].add(numTokens) */\n          swap2\n          swap1\n          0xffffffff\n          and\n          jump\t// in\n        tag_86:\n            /* \"Disney/ERC20.sol\":3455:3463  balances */\n          0x00\n            /* \"Disney/ERC20.sol\":3455:3474  balances[recipient] */\n          dup1\n            /* \"Disney/ERC20.sol\":3464:3473  recipient */\n          dup6\n            /* \"Disney/ERC20.sol\":3455:3474  balances[recipient] */\n          0xffffffffffffffffffffffffffffffffffffffff\n          and\n          0xffffffffffffffffffffffffffffffffffffffff\n          and\n          dup2\n          mstore\n          0x20\n          add\n          swap1\n          dup2\n          mstore\n          0x20\n          add\n          0x00\n          keccak256\n            /* \"Disney/ERC20.sol\":3455:3511  balances[recipient] = balances[recipient].add(numTokens) */\n          dup2\n          swap1\n          sstore\n          pop\n            /* \"Disney/ERC20.sol\":3547:3556  recipient */\n          dup3\n            /* \"Disney/ERC20.sol\":3529:3568  Transfer(cliente, recipient, numTokens) */\n          0xffffffffffffffffffffffffffffffffffffffff\n          and\n            /* \"Disney/ERC20.sol\":3538:3545  cliente */\n          dup5\n            /* \"Disney/ERC20.sol\":3529:3568  Transfer(cliente, recipient, numTokens) */\n          0xffffffffffffffffffffffffffffffffffffffff\n          and\n          0xddf252ad1be2c89b69c2b068fc378daa952ba7f163c4a11628f55a4df523b3ef\n            /* \"Disney/ERC20.sol\":3558:3567  numTokens */\n          dup5\n            /* \"Disney/ERC20.sol\":3529:3568  Transfer(cliente, recipient, numTokens) */\n          mload(0x40)\n          tag_87\n          swap2\n          swap1\n          tag_28\n          jump\t// in\n        tag_87:\n          mload(0x40)\n          dup1\n          swap2\n          sub\n          swap1\n          log3\n            /* \"Disney/ERC20.sol\":3588:3592  true */\n          0x01\n            /* \"Disney/ERC20.sol\":3581:3592  return true */\n          swap1\n          pop\n            /* \"Disney/ERC20.sol\":3217:3600  function transfer_Disney(address cliente, address recipient, uint256 numTokens) public override returns(bool) {\r... */\n          swap4\n          swap3\n          pop\n          pop\n          pop\n          jump\t// out\n            /* \"Disney/SafeMath.sol\":318:437  function sub(uint256 a, uint256 b) internal pure returns (uint256) {\r... */\n        tag_71:\n            /* \"Disney/SafeMath.sol\":376:383  uint256 */\n          0x00\n            /* \"Disney/SafeMath.sol\":406:407  a */\n          dup3\n            /* \"Disney/SafeMath.sol\":401:402  b */\n          dup3\n            /* \"Disney/SafeMath.sol\":401:407  b <= a */\n          gt\n          iszero\n            /* \"Disney/SafeMath.sol\":394:408  assert(b <= a) */\n          tag_89\n          jumpi\n          invalid\n        tag_89:\n            /* \"Disney/SafeMath.sol\":428:429  b */\n          dup2\n            /* \"Disney/SafeMath.sol\":424:425  a */\n          dup4\n            /* \"Disney/SafeMath.sol\":424:429  a - b */\n          sub\n            /* \"Disney/SafeMath.sol\":417:429  return a - b */\n          swap1\n          pop\n            /* \"Disney/SafeMath.sol\":318:437  function sub(uint256 a, uint256 b) internal pure returns (uint256) {\r... */\n          swap3\n          swap2\n          pop\n          pop\n          jump\t// out\n            /* \"Disney/SafeMath.sol\":463:604  function add(uint256 a, uint256 b) internal pure returns (uint256) {\r... */\n        tag_74:\n            /* \"Disney/SafeMath.sol\":521:528  uint256 */\n          0x00\n            /* \"Disney/SafeMath.sol\":539:548  uint256 c */\n          dup1\n            /* \"Disney/SafeMath.sol\":555:556  b */\n          dup3\n            /* \"Disney/SafeMath.sol\":551:552  a */\n          dup5\n            /* \"Disney/SafeMath.sol\":551:556  a + b */\n          add\n            /* \"Disney/SafeMath.sol\":539:556  uint256 c = a + b */\n          swap1\n          pop\n            /* \"Disney/SafeMath.sol\":577:578  a */\n          dup4\n            /* \"Disney/SafeMath.sol\":572:573  c */\n          dup2\n            /* \"Disney/SafeMath.sol\":572:578  c >= a */\n          lt\n          iszero\n            /* \"Disney/SafeMath.sol\":565:579  assert(c >= a) */\n          tag_91\n          jumpi\n          invalid\n        tag_91:\n            /* \"Disney/SafeMath.sol\":595:596  c */\n          dup1\n            /* \"Disney/SafeMath.sol\":588:596  return c */\n          swap2\n          pop\n          pop\n            /* \"Disney/SafeMath.sol\":463:604  function add(uint256 a, uint256 b) internal pure returns (uint256) {\r... */\n          swap3\n          swap2\n          pop\n          pop\n          jump\t// out\n            /* \"--CODEGEN--\":5:135   */\n        tag_93:\n          0x00\n            /* \"--CODEGEN--\":85:91   */\n          dup2\n            /* \"--CODEGEN--\":72:92   */\n          calldataload\n            /* \"--CODEGEN--\":63:92   */\n          swap1\n          pop\n            /* \"--CODEGEN--\":97:130   */\n          tag_95\n            /* \"--CODEGEN--\":124:129   */\n          dup2\n            /* \"--CODEGEN--\":97:130   */\n          tag_96\n          jump\t// in\n        tag_95:\n            /* \"--CODEGEN--\":57:135   */\n          swap3\n          swap2\n          pop\n          pop\n          jump\t// out\n            /* \"--CODEGEN--\":142:272   */\n        tag_97:\n          0x00\n            /* \"--CODEGEN--\":222:228   */\n          dup2\n            /* \"--CODEGEN--\":209:229   */\n          calldataload\n            /* \"--CODEGEN--\":200:229   */\n          swap1\n          pop\n            /* \"--CODEGEN--\":234:267   */\n          tag_99\n            /* \"--CODEGEN--\":261:266   */\n          dup2\n            /* \"--CODEGEN--\":234:267   */\n          tag_100\n          jump\t// in\n        tag_99:\n            /* \"--CODEGEN--\":194:272   */\n          swap3\n          swap2\n          pop\n          pop\n          jump\t// out\n            /* \"--CODEGEN--\":279:520   */\n        tag_44:\n          0x00\n            /* \"--CODEGEN--\":383:385   */\n          0x20\n            /* \"--CODEGEN--\":371:380   */\n          dup3\n            /* \"--CODEGEN--\":362:369   */\n          dup5\n            /* \"--CODEGEN--\":358:381   */\n          sub\n            /* \"--CODEGEN--\":354:386   */\n          slt\n            /* \"--CODEGEN--\":351:353   */\n          iszero\n          tag_102\n          jumpi\n            /* \"--CODEGEN--\":399:400   */\n          0x00\n            /* \"--CODEGEN--\":396:397   */\n          dup1\n            /* \"--CODEGEN--\":389:401   */\n          revert\n            /* \"--CODEGEN--\":351:353   */\n        tag_102:\n            /* \"--CODEGEN--\":434:435   */\n          0x00\n            /* \"--CODEGEN--\":451:504   */\n          tag_103\n            /* \"--CODEGEN--\":496:503   */\n          dup5\n            /* \"--CODEGEN--\":487:493   */\n          dup3\n            /* \"--CODEGEN--\":476:485   */\n          dup6\n            /* \"--CODEGEN--\":472:494   */\n          add\n            /* \"--CODEGEN--\":451:504   */\n          tag_93\n          jump\t// in\n        tag_103:\n            /* \"--CODEGEN--\":441:504   */\n          swap2\n          pop\n            /* \"--CODEGEN--\":413:510   */\n          pop\n            /* \"--CODEGEN--\":345:520   */\n          swap3\n          swap2\n          pop\n          pop\n          jump\t// out\n            /* \"--CODEGEN--\":527:893   */\n        tag_56:\n          0x00\n          dup1\n            /* \"--CODEGEN--\":648:650   */\n          0x40\n            /* \"--CODEGEN--\":636:645   */\n          dup4\n            /* \"--CODEGEN--\":627:634   */\n          dup6\n            /* \"--CODEGEN--\":623:646   */\n          sub\n            /* \"--CODEGEN--\":619:651   */\n          slt\n            /* \"--CODEGEN--\":616:618   */\n          iszero\n          tag_105\n          jumpi\n            /* \"--CODEGEN--\":664:665   */\n          0x00\n            /* \"--CODEGEN--\":661:662   */\n          dup1\n            /* \"--CODEGEN--\":654:666   */\n          revert\n            /* \"--CODEGEN--\":616:618   */\n        tag_105:\n            /* \"--CODEGEN--\":699:700   */\n          0x00\n            /* \"--CODEGEN--\":716:769   */\n          tag_106\n            /* \"--CODEGEN--\":761:768   */\n          dup6\n            /* \"--CODEGEN--\":752:758   */\n          dup3\n            /* \"--CODEGEN--\":741:750   */\n          dup7\n            /* \"--CODEGEN--\":737:759   */\n          add\n            /* \"--CODEGEN--\":716:769   */\n          tag_93\n          jump\t// in\n        tag_106:\n            /* \"--CODEGEN--\":706:769   */\n          swap3\n          pop\n            /* \"--CODEGEN--\":678:775   */\n          pop\n            /* \"--CODEGEN--\":806:808   */\n          0x20\n            /* \"--CODEGEN--\":824:877   */\n          tag_107\n            /* \"--CODEGEN--\":869:876   */\n          dup6\n            /* \"--CODEGEN--\":860:866   */\n          dup3\n            /* \"--CODEGEN--\":849:858   */\n          dup7\n            /* \"--CODEGEN--\":845:867   */\n          add\n            /* \"--CODEGEN--\":824:877   */\n          tag_93\n          jump\t// in\n        tag_107:\n            /* \"--CODEGEN--\":814:877   */\n          swap2\n          pop\n            /* \"--CODEGEN--\":785:883   */\n          pop\n            /* \"--CODEGEN--\":610:893   */\n          swap3\n          pop\n          swap3\n          swap1\n          pop\n          jump\t// out\n            /* \"--CODEGEN--\":900:1391   */\n        tag_35:\n          0x00\n          dup1\n          0x00\n            /* \"--CODEGEN--\":1038:1040   */\n          0x60\n            /* \"--CODEGEN--\":1026:1035   */\n          dup5\n            /* \"--CODEGEN--\":1017:1024   */\n          dup7\n            /* \"--CODEGEN--\":1013:1036   */\n          sub\n            /* \"--CODEGEN--\":1009:1041   */\n          slt\n            /* \"--CODEGEN--\":1006:1008   */\n          iszero\n          tag_109\n          jumpi\n            /* \"--CODEGEN--\":1054:1055   */\n          0x00\n            /* \"--CODEGEN--\":1051:1052   */\n          dup1\n            /* \"--CODEGEN--\":1044:1056   */\n          revert\n            /* \"--CODEGEN--\":1006:1008   */\n        tag_109:\n            /* \"--CODEGEN--\":1089:1090   */\n          0x00\n            /* \"--CODEGEN--\":1106:1159   */\n          tag_110\n            /* \"--CODEGEN--\":1151:1158   */\n          dup7\n            /* \"--CODEGEN--\":1142:1148   */\n          dup3\n            /* \"--CODEGEN--\":1131:1140   */\n          dup8\n            /* \"--CODEGEN--\":1127:1149   */\n          add\n            /* \"--CODEGEN--\":1106:1159   */\n          tag_93\n          jump\t// in\n        tag_110:\n            /* \"--CODEGEN--\":1096:1159   */\n          swap4\n          pop\n            /* \"--CODEGEN--\":1068:1165   */\n          pop\n            /* \"--CODEGEN--\":1196:1198   */\n          0x20\n            /* \"--CODEGEN--\":1214:1267   */\n          tag_111\n            /* \"--CODEGEN--\":1259:1266   */\n          dup7\n            /* \"--CODEGEN--\":1250:1256   */\n          dup3\n            /* \"--CODEGEN--\":1239:1248   */\n          dup8\n            /* \"--CODEGEN--\":1235:1257   */\n          add\n            /* \"--CODEGEN--\":1214:1267   */\n          tag_93\n          jump\t// in\n        tag_111:\n            /* \"--CODEGEN--\":1204:1267   */\n          swap3\n          pop\n            /* \"--CODEGEN--\":1175:1273   */\n          pop\n            /* \"--CODEGEN--\":1304:1306   */\n          0x40\n            /* \"--CODEGEN--\":1322:1375   */\n          tag_112\n            /* \"--CODEGEN--\":1367:1374   */\n          dup7\n            /* \"--CODEGEN--\":1358:1364   */\n          dup3\n            /* \"--CODEGEN--\":1347:1356   */\n          dup8\n            /* \"--CODEGEN--\":1343:1365   */\n          add\n            /* \"--CODEGEN--\":1322:1375   */\n          tag_97\n          jump\t// in\n        tag_112:\n            /* \"--CODEGEN--\":1312:1375   */\n          swap2\n          pop\n            /* \"--CODEGEN--\":1283:1381   */\n          pop\n            /* \"--CODEGEN--\":1000:1391   */\n          swap3\n          pop\n          swap3\n          pop\n          swap3\n          jump\t// out\n            /* \"--CODEGEN--\":1398:1764   */\n        tag_21:\n          0x00\n          dup1\n            /* \"--CODEGEN--\":1519:1521   */\n          0x40\n            /* \"--CODEGEN--\":1507:1516   */\n          dup4\n            /* \"--CODEGEN--\":1498:1505   */\n          dup6\n            /* \"--CODEGEN--\":1494:1517   */\n          sub\n            /* \"--CODEGEN--\":1490:1522   */\n          slt\n            /* \"--CODEGEN--\":1487:1489   */\n          iszero\n          tag_114\n          jumpi\n            /* \"--CODEGEN--\":1535:1536   */\n          0x00\n            /* \"--CODEGEN--\":1532:1533   */\n          dup1\n            /* \"--CODEGEN--\":1525:1537   */\n          revert\n            /* \"--CODEGEN--\":1487:1489   */\n        tag_114:\n            /* \"--CODEGEN--\":1570:1571   */\n          0x00\n            /* \"--CODEGEN--\":1587:1640   */\n          tag_115\n            /* \"--CODEGEN--\":1632:1639   */\n          dup6\n            /* \"--CODEGEN--\":1623:1629   */\n          dup3\n            /* \"--CODEGEN--\":1612:1621   */\n          dup7\n            /* \"--CODEGEN--\":1608:1630   */\n          add\n            /* \"--CODEGEN--\":1587:1640   */\n          tag_93\n          jump\t// in\n        tag_115:\n            /* \"--CODEGEN--\":1577:1640   */\n          swap3\n          pop\n            /* \"--CODEGEN--\":1549:1646   */\n          pop\n            /* \"--CODEGEN--\":1677:1679   */\n          0x20\n            /* \"--CODEGEN--\":1695:1748   */\n          tag_116\n            /* \"--CODEGEN--\":1740:1747   */\n          dup6\n            /* \"--CODEGEN--\":1731:1737   */\n          dup3\n            /* \"--CODEGEN--\":1720:1729   */\n          dup7\n            /* \"--CODEGEN--\":1716:1738   */\n          add\n            /* \"--CODEGEN--\":1695:1748   */\n          tag_97\n          jump\t// in\n        tag_116:\n            /* \"--CODEGEN--\":1685:1748   */\n          swap2\n          pop\n            /* \"--CODEGEN--\":1656:1754   */\n          pop\n            /* \"--CODEGEN--\":1481:1764   */\n          swap3\n          pop\n          swap3\n          swap1\n          pop\n          jump\t// out\n            /* \"--CODEGEN--\":1771:2012   */\n        tag_31:\n          0x00\n            /* \"--CODEGEN--\":1875:1877   */\n          0x20\n            /* \"--CODEGEN--\":1863:1872   */\n          dup3\n            /* \"--CODEGEN--\":1854:1861   */\n          dup5\n            /* \"--CODEGEN--\":1850:1873   */\n          sub\n            /* \"--CODEGEN--\":1846:1878   */\n          slt\n            /* \"--CODEGEN--\":1843:1845   */\n          iszero\n          tag_118\n          jumpi\n            /* \"--CODEGEN--\":1891:1892   */\n          0x00\n            /* \"--CODEGEN--\":1888:1889   */\n          dup1\n            /* \"--CODEGEN--\":1881:1893   */\n          revert\n            /* \"--CODEGEN--\":1843:1845   */\n        tag_118:\n            /* \"--CODEGEN--\":1926:1927   */\n          0x00\n            /* \"--CODEGEN--\":1943:1996   */\n          tag_119\n            /* \"--CODEGEN--\":1988:1995   */\n          dup5\n            /* \"--CODEGEN--\":1979:1985   */\n          dup3\n            /* \"--CODEGEN--\":1968:1977   */\n          dup6\n            /* \"--CODEGEN--\":1964:1986   */\n          add\n            /* \"--CODEGEN--\":1943:1996   */\n          tag_97\n          jump\t// in\n        tag_119:\n            /* \"--CODEGEN--\":1933:1996   */\n          swap2\n          pop\n            /* \"--CODEGEN--\":1905:2002   */\n          pop\n            /* \"--CODEGEN--\":1837:2012   */\n          swap3\n          swap2\n          pop\n          pop\n          jump\t// out\n            /* \"--CODEGEN--\":2019:2123   */\n        tag_120:\n            /* \"--CODEGEN--\":2096:2117   */\n          tag_122\n            /* \"--CODEGEN--\":2111:2116   */\n          dup2\n            /* \"--CODEGEN--\":2096:2117   */\n          tag_123\n          jump\t// in\n        tag_122:\n            /* \"--CODEGEN--\":2091:2094   */\n          dup3\n            /* \"--CODEGEN--\":2084:2118   */\n          mstore\n            /* \"--CODEGEN--\":2078:2123   */\n          pop\n          pop\n          jump\t// out\n            /* \"--CODEGEN--\":2130:2477   */\n        tag_124:\n          0x00\n            /* \"--CODEGEN--\":2242:2281   */\n          tag_126\n            /* \"--CODEGEN--\":2275:2280   */\n          dup3\n            /* \"--CODEGEN--\":2242:2281   */\n          tag_127\n          jump\t// in\n        tag_126:\n            /* \"--CODEGEN--\":2293:2364   */\n          tag_128\n            /* \"--CODEGEN--\":2357:2363   */\n          dup2\n            /* \"--CODEGEN--\":2352:2355   */\n          dup6\n            /* \"--CODEGEN--\":2293:2364   */\n          tag_129\n          jump\t// in\n        tag_128:\n            /* \"--CODEGEN--\":2286:2364   */\n          swap4\n          pop\n            /* \"--CODEGEN--\":2369:2421   */\n          tag_130\n            /* \"--CODEGEN--\":2414:2420   */\n          dup2\n            /* \"--CODEGEN--\":2409:2412   */\n          dup6\n            /* \"--CODEGEN--\":2402:2406   */\n          0x20\n            /* \"--CODEGEN--\":2395:2400   */\n          dup7\n            /* \"--CODEGEN--\":2391:2407   */\n          add\n            /* \"--CODEGEN--\":2369:2421   */\n          tag_131\n          jump\t// in\n        tag_130:\n            /* \"--CODEGEN--\":2442:2471   */\n          tag_132\n            /* \"--CODEGEN--\":2464:2470   */\n          dup2\n            /* \"--CODEGEN--\":2442:2471   */\n          tag_133\n          jump\t// in\n        tag_132:\n            /* \"--CODEGEN--\":2437:2440   */\n          dup5\n            /* \"--CODEGEN--\":2433:2472   */\n          add\n            /* \"--CODEGEN--\":2426:2472   */\n          swap2\n          pop\n            /* \"--CODEGEN--\":2222:2477   */\n          pop\n          swap3\n          swap2\n          pop\n          pop\n          jump\t// out\n            /* \"--CODEGEN--\":2484:2597   */\n        tag_134:\n            /* \"--CODEGEN--\":2567:2591   */\n          tag_136\n            /* \"--CODEGEN--\":2585:2590   */\n          dup2\n            /* \"--CODEGEN--\":2567:2591   */\n          tag_137\n          jump\t// in\n        tag_136:\n            /* \"--CODEGEN--\":2562:2565   */\n          dup3\n            /* \"--CODEGEN--\":2555:2592   */\n          mstore\n            /* \"--CODEGEN--\":2549:2597   */\n          pop\n          pop\n          jump\t// out\n            /* \"--CODEGEN--\":2604:2711   */\n        tag_138:\n            /* \"--CODEGEN--\":2683:2705   */\n          tag_140\n            /* \"--CODEGEN--\":2699:2704   */\n          dup2\n            /* \"--CODEGEN--\":2683:2705   */\n          tag_141\n          jump\t// in\n        tag_140:\n            /* \"--CODEGEN--\":2678:2681   */\n          dup3\n            /* \"--CODEGEN--\":2671:2706   */\n          mstore\n            /* \"--CODEGEN--\":2665:2711   */\n          pop\n          pop\n          jump\t// out\n            /* \"--CODEGEN--\":2718:2928   */\n        tag_24:\n          0x00\n            /* \"--CODEGEN--\":2839:2841   */\n          0x20\n            /* \"--CODEGEN--\":2828:2837   */\n          dup3\n            /* \"--CODEGEN--\":2824:2842   */\n          add\n            /* \"--CODEGEN--\":2816:2842   */\n          swap1\n          pop\n            /* \"--CODEGEN--\":2853:2918   */\n          tag_143\n            /* \"--CODEGEN--\":2915:2916   */\n          0x00\n            /* \"--CODEGEN--\":2904:2913   */\n          dup4\n            /* \"--CODEGEN--\":2900:2917   */\n          add\n            /* \"--CODEGEN--\":2891:2897   */\n          dup5\n            /* \"--CODEGEN--\":2853:2918   */\n          tag_120\n          jump\t// in\n        tag_143:\n            /* \"--CODEGEN--\":2810:2928   */\n          swap3\n          swap2\n          pop\n          pop\n          jump\t// out\n            /* \"--CODEGEN--\":2935:3245   */\n        tag_18:\n          0x00\n            /* \"--CODEGEN--\":3082:3084   */\n          0x20\n            /* \"--CODEGEN--\":3071:3080   */\n          dup3\n            /* \"--CODEGEN--\":3067:3085   */\n          add\n            /* \"--CODEGEN--\":3059:3085   */\n          swap1\n          pop\n            /* \"--CODEGEN--\":3132:3141   */\n          dup2\n            /* \"--CODEGEN--\":3126:3130   */\n          dup2\n            /* \"--CODEGEN--\":3122:3142   */\n          sub\n            /* \"--CODEGEN--\":3118:3119   */\n          0x00\n            /* \"--CODEGEN--\":3107:3116   */\n          dup4\n            /* \"--CODEGEN--\":3103:3120   */\n          add\n            /* \"--CODEGEN--\":3096:3143   */\n          mstore\n            /* \"--CODEGEN--\":3157:3235   */\n          tag_145\n            /* \"--CODEGEN--\":3230:3234   */\n          dup2\n            /* \"--CODEGEN--\":3221:3227   */\n          dup5\n            /* \"--CODEGEN--\":3157:3235   */\n          tag_124\n          jump\t// in\n        tag_145:\n            /* \"--CODEGEN--\":3149:3235   */\n          swap1\n          pop\n            /* \"--CODEGEN--\":3053:3245   */\n          swap3\n          swap2\n          pop\n          pop\n          jump\t// out\n            /* \"--CODEGEN--\":3252:3474   */\n        tag_28:\n          0x00\n            /* \"--CODEGEN--\":3379:3381   */\n          0x20\n            /* \"--CODEGEN--\":3368:3377   */\n          dup3\n            /* \"--CODEGEN--\":3364:3382   */\n          add\n            /* \"--CODEGEN--\":3356:3382   */\n          swap1\n          pop\n            /* \"--CODEGEN--\":3393:3464   */\n          tag_147\n            /* \"--CODEGEN--\":3461:3462   */\n          0x00\n            /* \"--CODEGEN--\":3450:3459   */\n          dup4\n            /* \"--CODEGEN--\":3446:3463   */\n          add\n            /* \"--CODEGEN--\":3437:3443   */\n          dup5\n            /* \"--CODEGEN--\":3393:3464   */\n          tag_134\n          jump\t// in\n        tag_147:\n            /* \"--CODEGEN--\":3350:3474   */\n          swap3\n          swap2\n          pop\n          pop\n          jump\t// out\n            /* \"--CODEGEN--\":3481:3695   */\n        tag_41:\n          0x00\n            /* \"--CODEGEN--\":3604:3606   */\n          0x20\n            /* \"--CODEGEN--\":3593:3602   */\n          dup3\n            /* \"--CODEGEN--\":3589:3607   */\n          add\n            /* \"--CODEGEN--\":3581:3607   */\n          swap1\n          pop\n            /* \"--CODEGEN--\":3618:3685   */\n          tag_149\n            /* \"--CODEGEN--\":3682:3683   */\n          0x00\n            /* \"--CODEGEN--\":3671:3680   */\n          dup4\n            /* \"--CODEGEN--\":3667:3684   */\n          add\n            /* \"--CODEGEN--\":3658:3664   */\n          dup5\n            /* \"--CODEGEN--\":3618:3685   */\n          tag_138\n          jump\t// in\n        tag_149:\n            /* \"--CODEGEN--\":3575:3695   */\n          swap3\n          swap2\n          pop\n          pop\n          jump\t// out\n            /* \"--CODEGEN--\":3702:3824   */\n        tag_127:\n          0x00\n            /* \"--CODEGEN--\":3796:3801   */\n          dup2\n            /* \"--CODEGEN--\":3790:3802   */\n          mload\n            /* \"--CODEGEN--\":3780:3802   */\n          swap1\n          pop\n            /* \"--CODEGEN--\":3761:3824   */\n          swap2\n          swap1\n          pop\n          jump\t// out\n            /* \"--CODEGEN--\":3832:3995   */\n        tag_129:\n          0x00\n            /* \"--CODEGEN--\":3947:3953   */\n          dup3\n            /* \"--CODEGEN--\":3942:3945   */\n          dup3\n            /* \"--CODEGEN--\":3935:3954   */\n          mstore\n            /* \"--CODEGEN--\":3984:3988   */\n          0x20\n            /* \"--CODEGEN--\":3979:3982   */\n          dup3\n            /* \"--CODEGEN--\":3975:3989   */\n          add\n            /* \"--CODEGEN--\":3960:3989   */\n          swap1\n          pop\n            /* \"--CODEGEN--\":3928:3995   */\n          swap3\n          swap2\n          pop\n          pop\n          jump\t// out\n            /* \"--CODEGEN--\":4003:4094   */\n        tag_152:\n          0x00\n            /* \"--CODEGEN--\":4065:4089   */\n          tag_154\n            /* \"--CODEGEN--\":4083:4088   */\n          dup3\n            /* \"--CODEGEN--\":4065:4089   */\n          tag_155\n          jump\t// in\n        tag_154:\n            /* \"--CODEGEN--\":4054:4089   */\n          swap1\n          pop\n            /* \"--CODEGEN--\":4048:4094   */\n          swap2\n          swap1\n          pop\n          jump\t// out\n            /* \"--CODEGEN--\":4101:4186   */\n        tag_123:\n          0x00\n            /* \"--CODEGEN--\":4174:4179   */\n          dup2\n            /* \"--CODEGEN--\":4167:4180   */\n          iszero\n            /* \"--CODEGEN--\":4160:4181   */\n          iszero\n            /* \"--CODEGEN--\":4149:4181   */\n          swap1\n          pop\n            /* \"--CODEGEN--\":4143:4186   */\n          swap2\n          swap1\n          pop\n          jump\t// out\n            /* \"--CODEGEN--\":4193:4314   */\n        tag_155:\n          0x00\n            /* \"--CODEGEN--\":4266:4308   */\n          0xffffffffffffffffffffffffffffffffffffffff\n            /* \"--CODEGEN--\":4259:4264   */\n          dup3\n            /* \"--CODEGEN--\":4255:4309   */\n          and\n            /* \"--CODEGEN--\":4244:4309   */\n          swap1\n          pop\n            /* \"--CODEGEN--\":4238:4314   */\n          swap2\n          swap1\n          pop\n          jump\t// out\n            /* \"--CODEGEN--\":4321:4393   */\n        tag_137:\n          0x00\n            /* \"--CODEGEN--\":4383:4388   */\n          dup2\n            /* \"--CODEGEN--\":4372:4388   */\n          swap1\n          pop\n            /* \"--CODEGEN--\":4366:4393   */\n          swap2\n          swap1\n          pop\n          jump\t// out\n            /* \"--CODEGEN--\":4400:4481   */\n        tag_141:\n          0x00\n            /* \"--CODEGEN--\":4471:4475   */\n          0xff\n            /* \"--CODEGEN--\":4464:4469   */\n          dup3\n            /* \"--CODEGEN--\":4460:4476   */\n          and\n            /* \"--CODEGEN--\":4449:4476   */\n          swap1\n          pop\n            /* \"--CODEGEN--\":4443:4481   */\n          swap2\n          swap1\n          pop\n          jump\t// out\n            /* \"--CODEGEN--\":4489:4757   */\n        tag_131:\n            /* \"--CODEGEN--\":4554:4555   */\n          0x00\n            /* \"--CODEGEN--\":4561:4662   */\n        tag_161:\n            /* \"--CODEGEN--\":4575:4581   */\n          dup4\n            /* \"--CODEGEN--\":4572:4573   */\n          dup2\n            /* \"--CODEGEN--\":4569:4582   */\n          lt\n            /* \"--CODEGEN--\":4561:4662   */\n          iszero\n          tag_163\n          jumpi\n            /* \"--CODEGEN--\":4651:4652   */\n          dup1\n            /* \"--CODEGEN--\":4646:4649   */\n          dup3\n            /* \"--CODEGEN--\":4642:4653   */\n          add\n            /* \"--CODEGEN--\":4636:4654   */\n          mload\n            /* \"--CODEGEN--\":4632:4633   */\n          dup2\n            /* \"--CODEGEN--\":4627:4630   */\n          dup5\n            /* \"--CODEGEN--\":4623:4634   */\n          add\n            /* \"--CODEGEN--\":4616:4655   */\n          mstore\n            /* \"--CODEGEN--\":4597:4599   */\n          0x20\n            /* \"--CODEGEN--\":4594:4595   */\n          dup2\n            /* \"--CODEGEN--\":4590:4600   */\n          add\n            /* \"--CODEGEN--\":4585:4600   */\n          swap1\n          pop\n            /* \"--CODEGEN--\":4561:4662   */\n          jump(tag_161)\n        tag_163:\n            /* \"--CODEGEN--\":4677:4683   */\n          dup4\n            /* \"--CODEGEN--\":4674:4675   */\n          dup2\n            /* \"--CODEGEN--\":4671:4684   */\n          gt\n            /* \"--CODEGEN--\":4668:4670   */\n          iszero\n          tag_164\n          jumpi\n            /* \"--CODEGEN--\":4742:4743   */\n          0x00\n            /* \"--CODEGEN--\":4733:4739   */\n          dup5\n            /* \"--CODEGEN--\":4728:4731   */\n          dup5\n            /* \"--CODEGEN--\":4724:4740   */\n          add\n            /* \"--CODEGEN--\":4717:4744   */\n          mstore\n            /* \"--CODEGEN--\":4668:4670   */\n        tag_164:\n            /* \"--CODEGEN--\":4538:4757   */\n          pop\n          pop\n          pop\n          pop\n          jump\t// out\n            /* \"--CODEGEN--\":4765:4862   */\n        tag_133:\n          0x00\n            /* \"--CODEGEN--\":4853:4855   */\n          0x1f\n            /* \"--CODEGEN--\":4849:4856   */\n          not\n            /* \"--CODEGEN--\":4844:4846   */\n          0x1f\n            /* \"--CODEGEN--\":4837:4842   */\n          dup4\n            /* \"--CODEGEN--\":4833:4847   */\n          add\n            /* \"--CODEGEN--\":4829:4857   */\n          and\n            /* \"--CODEGEN--\":4819:4857   */\n          swap1\n          pop\n            /* \"--CODEGEN--\":4813:4862   */\n          swap2\n          swap1\n          pop\n          jump\t// out\n            /* \"--CODEGEN--\":4870:4987   */\n        tag_96:\n            /* \"--CODEGEN--\":4939:4963   */\n          tag_167\n            /* \"--CODEGEN--\":4957:4962   */\n          dup2\n            /* \"--CODEGEN--\":4939:4963   */\n          tag_152\n          jump\t// in\n        tag_167:\n            /* \"--CODEGEN--\":4932:4937   */\n          dup2\n            /* \"--CODEGEN--\":4929:4964   */\n          eq\n            /* \"--CODEGEN--\":4919:4921   */\n          tag_168\n          jumpi\n            /* \"--CODEGEN--\":4978:4979   */\n          0x00\n            /* \"--CODEGEN--\":4975:4976   */\n          dup1\n            /* \"--CODEGEN--\":4968:4980   */\n          revert\n            /* \"--CODEGEN--\":4919:4921   */\n        tag_168:\n            /* \"--CODEGEN--\":4913:4987   */\n          pop\n          jump\t// out\n            /* \"--CODEGEN--\":4994:5111   */\n        tag_100:\n            /* \"--CODEGEN--\":5063:5087   */\n          tag_170\n            /* \"--CODEGEN--\":5081:5086   */\n          dup2\n            /* \"--CODEGEN--\":5063:5087   */\n          tag_137\n          jump\t// in\n        tag_170:\n            /* \"--CODEGEN--\":5056:5061   */\n          dup2\n            /* \"--CODEGEN--\":5053:5088   */\n          eq\n            /* \"--CODEGEN--\":5043:5045   */\n          tag_171\n          jumpi\n            /* \"--CODEGEN--\":5102:5103   */\n          0x00\n            /* \"--CODEGEN--\":5099:5100   */\n          dup1\n            /* \"--CODEGEN--\":5092:5104   */\n          revert\n            /* \"--CODEGEN--\":5043:5045   */\n        tag_171:\n            /* \"--CODEGEN--\":5037:5111   */\n          pop\n          jump\t// out\n\n        auxdata: 0xa2646970667358221220532c3aa8b922c20767af62dc097402ad230508a242d27769011d941905abc92364736f6c634300060c0033\n    }\n}\n",
				"bytecode": {
					"linkReferences": {},
					"object": "60806040523480156200001157600080fd5b506103e86040516200002390620000d3565b6200002f9190620000f2565b604051809103906000f0801580156200004c573d6000803e3d6000fd5b506000806101000a81548173ffffffffffffffffffffffffffffffffffffffff021916908373ffffffffffffffffffffffffffffffffffffffff16021790555033600160006101000a81548173ffffffffffffffffffffffffffffffffffffffff021916908373ffffffffffffffffffffffffffffffffffffffff1602179055506200012d565b61109d80620025c883390190565b620000ec8162000119565b82525050565b6000602082019050620001096000830184620000e1565b92915050565b6000819050919050565b600062000126826200010f565b9050919050565b61248b806200013d6000396000f3fe6080604052600436106100dd5760003560e01c80639a3174a01161007f578063ce8f2f3811610059578063ce8f2f3814610277578063d00df296146102b4578063e33f34a0146102f3578063f77740911461031e576100dd565b80639a3174a0146101fa578063a209415914610225578063a9862fab1461024e576100dd565b80632076b56c116100bb5780632076b56c146101525780636b8f8e151461017b5780637c1b38bf146101a65780638da5cb5b146101cf576100dd565b806312b91846146100e25780631890154c1461010b5780631fccb33c14610127575b600080fd5b3480156100ee57600080fd5b506101096004803603810190610104919061176c565b61033a565b005b61012560048036038101906101209190611801565b6106f7565b005b34801561013357600080fd5b5061013c610744565b6040516101499190612021565b60405180910390f35b34801561015e57600080fd5b50610179600480360381019061017491906117ad565b6107f1565b005b34801561018757600080fd5b50610190610982565b60405161019d9190611fff565b60405180910390f35b3480156101b257600080fd5b506101cd60048036038101906101c89190611801565b610aa8565b005b3480156101db57600080fd5b506101e4610bc8565b6040516101f19190611f84565b60405180910390f35b34801561020657600080fd5b5061020f610bee565b60405161021c9190612233565b60405180910390f35b34801561023157600080fd5b5061024c6004803603810190610247919061176c565b610c9f565b005b34801561025a57600080fd5b506102756004803603810190610270919061176c565b610f20565b005b34801561028357600080fd5b5061029e6004803603810190610299919061171a565b6111a1565b6040516102ab9190612233565b60405180910390f35b3480156102c057600080fd5b506102db60048036038101906102d6919061176c565b6111bf565b6040516102ea93929190612073565b60405180910390f35b3480156102ff57600080fd5b506103086112a4565b6040516103159190612233565b60405180910390f35b61033860048036038101906103339190611801565b611355565b005b60008060005b6004805490508110156106b1578360405160200161035e9190611ef1565b604051602081830303815290604052805190602001206004828154811061038157fe5b9060005260206000200160405160200161039b9190611f37565b6040516020818303038152906040528051906020012014156106a457600192506003600482815481106103ca57fe5b906000526020600020016040516103e19190611f37565b908152602001604051809103902060020160009054906101000a900460ff161561065e57600191506104116112a4565b60036004838154811061042057fe5b906000526020600020016040516104379190611f37565b908152602001604051809103902060010154111561048a576040517f08c379a000000000000000000000000000000000000000000000000000000000815260040161048190612113565b60405180910390fd5b60008054906101000a900473ffffffffffffffffffffffffffffffffffffffff1673ffffffffffffffffffffffffffffffffffffffff1663ef91046033306003600486815481106104d757fe5b906000526020600020016040516104ee9190611f37565b9081526020016040518091039020600101546040518463ffffffff1660e01b815260040161051e93929190611f9f565b602060405180830381600087803b15801561053857600080fd5b505af115801561054c573d6000803e3d6000fd5b505050506040513d601f19601f820116820180604052508101906105709190611743565b50600560003373ffffffffffffffffffffffffffffffffffffffff1673ffffffffffffffffffffffffffffffffffffffff168152602001908152602001600020600482815481106105bd57fe5b9060005260206000200190806001815401808255809150506001900390600052602060002001600090919091909150908054600181600116156101000203166002900461060b92919061154e565b507fc13b0c39e701b0f41dde2e972f3e98e53fa01e6bc45ef606ddc7522a8e354f2d6004828154811061063a57fe5b9060005260206000200160405161065191906120b1565b60405180910390a161069f565b8161069e576040517f08c379a000000000000000000000000000000000000000000000000000000000815260040161069590612133565b60405180910390fd5b5b6106b1565b8080600101915050610340565b50816106f2576040517f08c379a00000000000000000000000000000000000000000000000000000000081526004016106e9906120d3565b60405180910390fd5b505050565b806107006112a4565b1015610741576040517f08c379a0000000000000000000000000000000000000000000000000000000008152600401610738906120f3565b60405180910390fd5b50565b60608060005b6004805490508110156107e95760036004828154811061076657fe5b9060005260206000200160405161077d9190611f37565b908152602001604051809103902060020160009054906101000a900460ff16156107dc5781600482815481106107af57fe5b906000526020600020016040516020016107ca929190611f08565b60405160208183030381529060405291505b808060010191505061074a565b508091505090565b33600160009054906101000a900473ffffffffffffffffffffffffffffffffffffffff1673ffffffffffffffffffffffffffffffffffffffff168173ffffffffffffffffffffffffffffffffffffffff1614610882576040517f08c379a0000000000000000000000000000000000000000000000000000000008152600401610879906121d3565b60405180910390fd5b6040518060600160405280848152602001838152602001600115158152506003846040516108b09190611ef1565b908152602001604051809103902060008201518160000190805190602001906108da9291906115d5565b506020820151816001015560408201518160020160006101000a81548160ff0219169083151502179055509050506004839080600181540180825580915050600190039060005260206000200160009091909190915090805190602001906109439291906115d5565b507ffc9ecd7a6c2ca96d38526a0b9cc22f2474ff8e596dd348edaab06be905ebe3788383604051610975929190612043565b60405180910390a1505050565b6060600560003373ffffffffffffffffffffffffffffffffffffffff1673ffffffffffffffffffffffffffffffffffffffff168152602001908152602001600020805480602002602001604051908101604052809291908181526020016000905b82821015610a9f578382906000526020600020018054600181600116156101000203166002900480601f016020809104026020016040519081016040528092919081815260200182805460018160011615610100020316600290048015610a8b5780601f10610a6057610100808354040283529160200191610a8b565b820191906000526020600020905b815481529060010190602001808311610a6e57829003601f168201915b5050505050815260200190600101906109e3565b50505050905090565b33600160009054906101000a900473ffffffffffffffffffffffffffffffffffffffff1673ffffffffffffffffffffffffffffffffffffffff168173ffffffffffffffffffffffffffffffffffffffff1614610b39576040517f08c379a0000000000000000000000000000000000000000000000000000000008152600401610b30906121d3565b60405180910390fd5b60008054906101000a900473ffffffffffffffffffffffffffffffffffffffff1673ffffffffffffffffffffffffffffffffffffffff16631d43cc98836040518263ffffffff1660e01b8152600401610b929190612233565b600060405180830381600087803b158015610bac57600080fd5b505af1158015610bc0573d6000803e3d6000fd5b505050505050565b600160009054906101000a900473ffffffffffffffffffffffffffffffffffffffff1681565b60008060009054906101000a900473ffffffffffffffffffffffffffffffffffffffff1673ffffffffffffffffffffffffffffffffffffffff166370a08231306040518263ffffffff1660e01b8152600401610c4a9190611f4e565b60206040518083038186803b158015610c6257600080fd5b505afa158015610c76573d6000803e3d6000fd5b505050506040513d601f19601f82011682018060405250810190610c9a919061182a565b905090565b33600160009054906101000a900473ffffffffffffffffffffffffffffffffffffffff1673ffffffffffffffffffffffffffffffffffffffff168173ffffffffffffffffffffffffffffffffffffffff1614610d30576040517f08c379a0000000000000000000000000000000000000000000000000000000008152600401610d27906121d3565b60405180910390fd5b6000805b600480549050811015610ea35783604051602001610d529190611ef1565b6040516020818303038152906040528051906020012060048281548110610d7557fe5b90600052602060002001604051602001610d8f9190611f37565b604051602081830303815290604052805190602001201415610e965760019150600384604051610dbf9190611ef1565b908152602001604051809103902060020160009054906101000a900460ff1615610e22576000600385604051610df59190611ef1565b908152602001604051809103902060020160006101000a81548160ff021916908315150217905550610e91565b600384604051610e329190611ef1565b908152602001604051809103902060020160009054906101000a900460ff16610e90576040517f08c379a0000000000000000000000000000000000000000000000000000000008152600401610e8790612193565b60405180910390fd5b5b610ea3565b8080600101915050610d34565b5080610ee4576040517f08c379a0000000000000000000000000000000000000000000000000000000008152600401610edb906121f3565b60405180910390fd5b7f24ba6c881728980191398db8dcfd8ed4f6aeb1c08df349d63f3b85075f3e86dd83604051610f139190612021565b60405180910390a1505050565b33600160009054906101000a900473ffffffffffffffffffffffffffffffffffffffff1673ffffffffffffffffffffffffffffffffffffffff168173ffffffffffffffffffffffffffffffffffffffff1614610fb1576040517f08c379a0000000000000000000000000000000000000000000000000000000008152600401610fa8906121d3565b60405180910390fd5b6000805b6004805490508110156111245783604051602001610fd39190611ef1565b6040516020818303038152906040528051906020012060048281548110610ff657fe5b906000526020600020016040516020016110109190611f37565b60405160208183030381529060405280519060200120141561111757600191506003846040516110409190611ef1565b908152602001604051809103902060020160009054906101000a900460ff166110a25760016003856040516110759190611ef1565b908152602001604051809103902060020160006101000a81548160ff021916908315150217905550611112565b6003846040516110b29190611ef1565b908152602001604051809103902060020160009054906101000a900460ff1615611111576040517f08c379a0000000000000000000000000000000000000000000000000000000008152600401611108906121b3565b60405180910390fd5b5b611124565b8080600101915050610fb5565b5080611165576040517f08c379a000000000000000000000000000000000000000000000000000000000815260040161115c90612213565b60405180910390fd5b7f93bf52a97553b4b909dc0c898ca0af225afa4b2926e6d4f002f1470287662fc1836040516111949190612021565b60405180910390a1505050565b60026020528060005260406000206000915090508060000154905081565b600381805160208101820180518482526020830160208501208183528095505050505050600091509050806000018054600181600116156101000203166002900480601f0160208091040260200160405190810160405280929190818152602001828054600181600116156101000203166002900480156112815780601f1061125657610100808354040283529160200191611281565b820191906000526020600020905b81548152906001019060200180831161126457829003601f168201915b5050505050908060010154908060020160009054906101000a900460ff16905083565b60008060009054906101000a900473ffffffffffffffffffffffffffffffffffffffff1673ffffffffffffffffffffffffffffffffffffffff166370a08231336040518263ffffffff1660e01b81526004016113009190611f69565b60206040518083038186803b15801561131857600080fd5b505afa15801561132c573d6000803e3d6000fd5b505050506040513d601f19601f82011682018060405250810190611350919061182a565b905090565b60006113608261153a565b9050803410156113a5576040517f08c379a000000000000000000000000000000000000000000000000000000000815260040161139c90612153565b60405180910390fd5b816113ae610bee565b10156113ef576040517f08c379a00000000000000000000000000000000000000000000000000000000081526004016113e690612173565b60405180910390fd5b3373ffffffffffffffffffffffffffffffffffffffff166108fc8234039081150290604051600060405180830381858888f19350505050158015611437573d6000803e3d6000fd5b5060008054906101000a900473ffffffffffffffffffffffffffffffffffffffff1673ffffffffffffffffffffffffffffffffffffffff1663a9059cbb33846040518363ffffffff1660e01b8152600401611493929190611fd6565b602060405180830381600087803b1580156114ad57600080fd5b505af11580156114c1573d6000803e3d6000fd5b505050506040513d601f19601f820116820180604052508101906114e59190611743565b5081600260003373ffffffffffffffffffffffffffffffffffffffff1673ffffffffffffffffffffffffffffffffffffffff168152602001908152602001600020600001600082825401925050819055505050565b6000670de0b6b3a764000082029050919050565b828054600181600116156101000203166002900490600052602060002090601f016020900481019282601f1061158757805485556115c4565b828001600101855582156115c457600052602060002091601f016020900482015b828111156115c35782548255916001019190600101906115a8565b5b5090506115d19190611655565b5090565b828054600181600116156101000203166002900490600052602060002090601f016020900481019282601f1061161657805160ff1916838001178555611644565b82800160010185558215611644579182015b82811115611643578251825591602001919060010190611628565b5b5090506116519190611655565b5090565b5b8082111561166e576000816000905550600101611656565b5090565b60008135905061168181612410565b92915050565b60008151905061169681612427565b92915050565b600082601f8301126116ad57600080fd5b81356116c06116bb8261227b565b61224e565b915080825260208301602083018583830111156116dc57600080fd5b6116e78382846123bd565b50505092915050565b6000813590506116ff8161243e565b92915050565b6000815190506117148161243e565b92915050565b60006020828403121561172c57600080fd5b600061173a84828501611672565b91505092915050565b60006020828403121561175557600080fd5b600061176384828501611687565b91505092915050565b60006020828403121561177e57600080fd5b600082013567ffffffffffffffff81111561179857600080fd5b6117a48482850161169c565b91505092915050565b600080604083850312156117c057600080fd5b600083013567ffffffffffffffff8111156117da57600080fd5b6117e68582860161169c565b92505060206117f7858286016116f0565b9150509250929050565b60006020828403121561181357600080fd5b6000611821848285016116f0565b91505092915050565b60006020828403121561183c57600080fd5b600061184a84828501611705565b91505092915050565b600061185f8383611918565b905092915050565b61187081612387565b82525050565b61187f8161233f565b82525050565b61188e8161232d565b82525050565b600061189f826122cc565b6118a981856122ef565b9350836020820285016118bb856122a7565b8060005b858110156118f757848403895281516118d88582611853565b94506118e3836122e2565b925060208a019950506001810190506118bf565b50829750879550505050505092915050565b61191281612351565b82525050565b6000611923826122d7565b61192d8185612300565b935061193d8185602086016123cc565b611946816123ff565b840191505092915050565b600061195c826122d7565b6119668185612311565b93506119768185602086016123cc565b61197f816123ff565b840191505092915050565b6000611995826122d7565b61199f8185612322565b93506119af8185602086016123cc565b80840191505092915050565b6000815460018116600081146119d857600181146119fe57611a42565b607f60028304166119e98187612311565b955060ff198316865260208601935050611a42565b60028204611a0c8187612311565b9550611a17856122b7565b60005b82811015611a3957815481890152600182019150602081019050611a1a565b80880195505050505b505092915050565b600081546001811660008114611a675760018114611a8c57611ad0565b607f6002830416611a788187612322565b955060ff1983168652808601935050611ad0565b60028204611a9a8187612322565b9550611aa5856122b7565b60005b82811015611ac757815481890152600182019150602081019050611aa8565b82880195505050505b505092915050565b6000611ae5602383612311565b91507f4c6120617472616363696f6e20656e20637565737469c3b36e206e6f2065786960008301527f73746500000000000000000000000000000000000000000000000000000000006020830152604082019050919050565b6000611b4b601a83612311565b91507f4e6f2068617920746f6b656e7320717565206465766f6c7665720000000000006000830152602082019050919050565b6000611b8b600383612322565b91507f207c2000000000000000000000000000000000000000000000000000000000006000830152600382019050919050565b6000611bcb601483612311565b91507f546f6b656e7320696e737566696369656e7465730000000000000000000000006000830152602082019050919050565b6000611c0b603383612311565b91507f4c6120617472616363696f6e20656e206375657374696f6e206e6f207365206560008301527f6e6375656e74726120646973706f6e69626c65000000000000000000000000006020830152604082019050919050565b6000611c71601e83612311565b91507f43616e746964616420646520657468657220696e737566696369656e746500006000830152602082019050919050565b6000611cb1602083612311565b91507f43616e746964616420646520746f6b656e7320696e737566696369656e7465736000830152602082019050919050565b6000611cf1603b83612311565b91507f4e6f207365207075656465206461722064652062616a61206120756e6120617460008301527f72616363696f6e2071756520796120657374612064652062616a6100000000006020830152604082019050919050565b6000611d57604083612311565b91507f4e6f2073652070756564652064617220646520616c7461206120756e6120617460008301527f72616363696f6e207175652079612065737461206461646120646520616c74616020830152604082019050919050565b6000611dbd602c83612311565b91507f4e6f207469656e6573207065726d69736f207061726120656a6563757461722060008301527f657374612061636369c3b36e00000000000000000000000000000000000000006020830152604082019050919050565b6000611e23603583612311565b91507f4e6f207365207075656465206461722064652062616a61206120756e6120617460008301527f72616363696f6e20717565206e6f2065786973746100000000000000000000006020830152604082019050919050565b6000611e89603583612311565b91507f4e6f2073652070756564652064617220646520616c7461206120756e6120617460008301527f72616363696f6e20717565206e6f2065786973746100000000000000000000006020830152604082019050919050565b611eeb8161237d565b82525050565b6000611efd828461198a565b915081905092915050565b6000611f14828561198a565b9150611f1f82611b7e565b9150611f2b8284611a4a565b91508190509392505050565b6000611f438284611a4a565b915081905092915050565b6000602082019050611f636000830184611885565b92915050565b6000602082019050611f7e6000830184611867565b92915050565b6000602082019050611f996000830184611876565b92915050565b6000606082019050611fb46000830186611867565b611fc16020830185611885565b611fce6040830184611ee2565b949350505050565b6000604082019050611feb6000830185611867565b611ff86020830184611ee2565b9392505050565b600060208201905081810360008301526120198184611894565b905092915050565b6000602082019050818103600083015261203b8184611951565b905092915050565b6000604082019050818103600083015261205d8185611951565b905061206c6020830184611ee2565b9392505050565b6000606082019050818103600083015261208d8186611951565b905061209c6020830185611ee2565b6120a96040830184611909565b949350505050565b600060208201905081810360008301526120cb81846119bb565b905092915050565b600060208201905081810360008301526120ec81611ad8565b9050919050565b6000602082019050818103600083015261210c81611b3e565b9050919050565b6000602082019050818103600083015261212c81611bbe565b9050919050565b6000602082019050818103600083015261214c81611bfe565b9050919050565b6000602082019050818103600083015261216c81611c64565b9050919050565b6000602082019050818103600083015261218c81611ca4565b9050919050565b600060208201905081810360008301526121ac81611ce4565b9050919050565b600060208201905081810360008301526121cc81611d4a565b9050919050565b600060208201905081810360008301526121ec81611db0565b9050919050565b6000602082019050818103600083015261220c81611e16565b9050919050565b6000602082019050818103600083015261222c81611e7c565b9050919050565b60006020820190506122486000830184611ee2565b92915050565b6000604051905081810181811067ffffffffffffffff8211171561227157600080fd5b8060405250919050565b600067ffffffffffffffff82111561229257600080fd5b601f19601f8301169050602081019050919050565b6000819050602082019050919050565b60008190508160005260206000209050919050565b600081519050919050565b600081519050919050565b6000602082019050919050565b600082825260208201905092915050565b600082825260208201905092915050565b600082825260208201905092915050565b600081905092915050565b60006123388261235d565b9050919050565b600061234a8261235d565b9050919050565b60008115159050919050565b600073ffffffffffffffffffffffffffffffffffffffff82169050919050565b6000819050919050565b600061239282612399565b9050919050565b60006123a4826123ab565b9050919050565b60006123b68261235d565b9050919050565b82818337600083830152505050565b60005b838110156123ea5780820151818401526020810190506123cf565b838111156123f9576000848401525b50505050565b6000601f19601f8301169050919050565b6124198161232d565b811461242457600080fd5b50565b61243081612351565b811461243b57600080fd5b50565b6124478161237d565b811461245257600080fd5b5056fea2646970667358221220d9e5586d680f557669f309902f4741bbe3c469a19337dfe94aa09edd095e4f0f64736f6c634300060c0033608060405234801561001057600080fd5b5060405161109d38038061109d83398181016040528101906100329190610099565b806002819055506002546000803373ffffffffffffffffffffffffffffffffffffffff1673ffffffffffffffffffffffffffffffffffffffff16815260200190815260200160002081905550506100e3565b600081519050610093816100cc565b92915050565b6000602082840312156100ab57600080fd5b60006100b984828501610084565b91505092915050565b6000819050919050565b6100d5816100c2565b81146100e057600080fd5b50565b610fab806100f26000396000f3fe608060405234801561001057600080fd5b50600436106100a95760003560e01c8063313ce56711610071578063313ce5671461016657806370a082311461018457806395d89b41146101b4578063a9059cbb146101d2578063dd62ed3e14610202578063ef91046014610232576100a9565b806306fdde03146100ae578063095ea7b3146100cc57806318160ddd146100fc5780631d43cc981461011a57806323b872dd14610136575b600080fd5b6100b6610262565b6040516100c39190610e3a565b60405180910390f35b6100e660048036038101906100e19190610d54565b61029b565b6040516100f39190610e1f565b60405180910390f35b61010461038d565b6040516101119190610e5c565b60405180910390f35b610134600480360381019061012f9190610d90565b610397565b005b610150600480360381019061014b9190610d05565b6103f6565b60405161015d9190610e1f565b60405180910390f35b61016e610771565b60405161017b9190610e77565b60405180910390f35b61019e60048036038101906101999190610ca0565b610776565b6040516101ab9190610e5c565b60405180910390f35b6101bc6107be565b6040516101c99190610e3a565b60405180910390f35b6101ec60048036038101906101e79190610d54565b6107f7565b6040516101f99190610e1f565b60405180910390f35b61021c60048036038101906102179190610cc9565b6109d9565b6040516102299190610e5c565b60405180910390f35b61024c60048036038101906102479190610d05565b610a60565b6040516102599190610e1f565b60405180910390f35b6040518060400160405280600c81526020017f4552433230414b414c75676f000000000000000000000000000000000000000081525081565b600081600160003373ffffffffffffffffffffffffffffffffffffffff1673ffffffffffffffffffffffffffffffffffffffff16815260200190815260200160002060008573ffffffffffffffffffffffffffffffffffffffff1673ffffffffffffffffffffffffffffffffffffffff168152602001908152602001600020819055508273ffffffffffffffffffffffffffffffffffffffff163373ffffffffffffffffffffffffffffffffffffffff167f8c5be1e5ebec7d5bd14f71427d1e84f3dd0314c0f7b2291e5b200ac8c7c3b9258460405161037b9190610e5c565b60405180910390a36001905092915050565b6000600254905090565b80600260008282540192505081905550806000803373ffffffffffffffffffffffffffffffffffffffff1673ffffffffffffffffffffffffffffffffffffffff1681526020019081526020016000206000828254019250508190555050565b6000816000808673ffffffffffffffffffffffffffffffffffffffff1673ffffffffffffffffffffffffffffffffffffffff16815260200190815260200160002054101561044357600080fd5b81600160008673ffffffffffffffffffffffffffffffffffffffff1673ffffffffffffffffffffffffffffffffffffffff16815260200190815260200160002060003373ffffffffffffffffffffffffffffffffffffffff1673ffffffffffffffffffffffffffffffffffffffff1681526020019081526020016000205410156104cc57600080fd5b61051d826000808773ffffffffffffffffffffffffffffffffffffffff1673ffffffffffffffffffffffffffffffffffffffff16815260200190815260200160002054610c4390919063ffffffff16565b6000808673ffffffffffffffffffffffffffffffffffffffff1673ffffffffffffffffffffffffffffffffffffffff168152602001908152602001600020819055506105ee82600160008773ffffffffffffffffffffffffffffffffffffffff1673ffffffffffffffffffffffffffffffffffffffff16815260200190815260200160002060003373ffffffffffffffffffffffffffffffffffffffff1673ffffffffffffffffffffffffffffffffffffffff16815260200190815260200160002054610c4390919063ffffffff16565b600160008673ffffffffffffffffffffffffffffffffffffffff1673ffffffffffffffffffffffffffffffffffffffff16815260200190815260200160002060003373ffffffffffffffffffffffffffffffffffffffff1673ffffffffffffffffffffffffffffffffffffffff168152602001908152602001600020819055506106bf826000808673ffffffffffffffffffffffffffffffffffffffff1673ffffffffffffffffffffffffffffffffffffffff16815260200190815260200160002054610c5a90919063ffffffff16565b6000808573ffffffffffffffffffffffffffffffffffffffff1673ffffffffffffffffffffffffffffffffffffffff168152602001908152602001600020819055508273ffffffffffffffffffffffffffffffffffffffff168473ffffffffffffffffffffffffffffffffffffffff167fddf252ad1be2c89b69c2b068fc378daa952ba7f163c4a11628f55a4df523b3ef8460405161075e9190610e5c565b60405180910390a3600190509392505050565b601281565b60008060008373ffffffffffffffffffffffffffffffffffffffff1673ffffffffffffffffffffffffffffffffffffffff168152602001908152602001600020549050919050565b6040518060400160405280600381526020017f414b41000000000000000000000000000000000000000000000000000000000081525081565b60008060003373ffffffffffffffffffffffffffffffffffffffff1673ffffffffffffffffffffffffffffffffffffffff1681526020019081526020016000205482111561084457600080fd5b610895826000803373ffffffffffffffffffffffffffffffffffffffff1673ffffffffffffffffffffffffffffffffffffffff16815260200190815260200160002054610c4390919063ffffffff16565b6000803373ffffffffffffffffffffffffffffffffffffffff1673ffffffffffffffffffffffffffffffffffffffff16815260200190815260200160002081905550610928826000808673ffffffffffffffffffffffffffffffffffffffff1673ffffffffffffffffffffffffffffffffffffffff16815260200190815260200160002054610c5a90919063ffffffff16565b6000808573ffffffffffffffffffffffffffffffffffffffff1673ffffffffffffffffffffffffffffffffffffffff168152602001908152602001600020819055508273ffffffffffffffffffffffffffffffffffffffff163373ffffffffffffffffffffffffffffffffffffffff167fddf252ad1be2c89b69c2b068fc378daa952ba7f163c4a11628f55a4df523b3ef846040516109c79190610e5c565b60405180910390a36001905092915050565b6000600160008473ffffffffffffffffffffffffffffffffffffffff1673ffffffffffffffffffffffffffffffffffffffff16815260200190815260200160002060008373ffffffffffffffffffffffffffffffffffffffff1673ffffffffffffffffffffffffffffffffffffffff16815260200190815260200160002054905092915050565b60008060008573ffffffffffffffffffffffffffffffffffffffff1673ffffffffffffffffffffffffffffffffffffffff16815260200190815260200160002054821115610aad57600080fd5b610afe826000808773ffffffffffffffffffffffffffffffffffffffff1673ffffffffffffffffffffffffffffffffffffffff16815260200190815260200160002054610c4390919063ffffffff16565b6000808673ffffffffffffffffffffffffffffffffffffffff1673ffffffffffffffffffffffffffffffffffffffff16815260200190815260200160002081905550610b91826000808673ffffffffffffffffffffffffffffffffffffffff1673ffffffffffffffffffffffffffffffffffffffff16815260200190815260200160002054610c5a90919063ffffffff16565b6000808573ffffffffffffffffffffffffffffffffffffffff1673ffffffffffffffffffffffffffffffffffffffff168152602001908152602001600020819055508273ffffffffffffffffffffffffffffffffffffffff168473ffffffffffffffffffffffffffffffffffffffff167fddf252ad1be2c89b69c2b068fc378daa952ba7f163c4a11628f55a4df523b3ef84604051610c309190610e5c565b60405180910390a3600190509392505050565b600082821115610c4f57fe5b818303905092915050565b600080828401905083811015610c6c57fe5b8091505092915050565b600081359050610c8581610f47565b92915050565b600081359050610c9a81610f5e565b92915050565b600060208284031215610cb257600080fd5b6000610cc084828501610c76565b91505092915050565b60008060408385031215610cdc57600080fd5b6000610cea85828601610c76565b9250506020610cfb85828601610c76565b9150509250929050565b600080600060608486031215610d1a57600080fd5b6000610d2886828701610c76565b9350506020610d3986828701610c76565b9250506040610d4a86828701610c8b565b9150509250925092565b60008060408385031215610d6757600080fd5b6000610d7585828601610c76565b9250506020610d8685828601610c8b565b9150509250929050565b600060208284031215610da257600080fd5b6000610db084828501610c8b565b91505092915050565b610dc281610ec0565b82525050565b6000610dd382610e92565b610ddd8185610e9d565b9350610ded818560208601610f03565b610df681610f36565b840191505092915050565b610e0a81610eec565b82525050565b610e1981610ef6565b82525050565b6000602082019050610e346000830184610db9565b92915050565b60006020820190508181036000830152610e548184610dc8565b905092915050565b6000602082019050610e716000830184610e01565b92915050565b6000602082019050610e8c6000830184610e10565b92915050565b600081519050919050565b600082825260208201905092915050565b6000610eb982610ecc565b9050919050565b60008115159050919050565b600073ffffffffffffffffffffffffffffffffffffffff82169050919050565b6000819050919050565b600060ff82169050919050565b60005b83811015610f21578082015181840152602081019050610f06565b83811115610f30576000848401525b50505050565b6000601f19601f8301169050919050565b610f5081610eae565b8114610f5b57600080fd5b50565b610f6781610eec565b8114610f7257600080fd5b5056fea2646970667358221220532c3aa8b922c20767af62dc097402ad230508a242d27769011d941905abc92364736f6c634300060c0033",
					"opcodes": "PUSH1 0x80 PUSH1 0x40 MSTORE CALLVALUE DUP1 ISZERO PUSH3 0x11 JUMPI PUSH1 0x0 DUP1 REVERT JUMPDEST POP PUSH2 0x3E8 PUSH1 0x40 MLOAD PUSH3 0x23 SWAP1 PUSH3 0xD3 JUMP JUMPDEST PUSH3 0x2F SWAP2 SWAP1 PUSH3 0xF2 JUMP JUMPDEST PUSH1 0x40 MLOAD DUP1 SWAP2 SUB SWAP1 PUSH1 0x0 CREATE DUP1 ISZERO DUP1 ISZERO PUSH3 0x4C JUMPI RETURNDATASIZE PUSH1 0x0 DUP1 RETURNDATACOPY RETURNDATASIZE PUSH1 0x0 REVERT JUMPDEST POP PUSH1 0x0 DUP1 PUSH2 0x100 EXP DUP2 SLOAD DUP2 PUSH20 0xFFFFFFFFFFFFFFFFFFFFFFFFFFFFFFFFFFFFFFFF MUL NOT AND SWAP1 DUP4 PUSH20 0xFFFFFFFFFFFFFFFFFFFFFFFFFFFFFFFFFFFFFFFF AND MUL OR SWAP1 SSTORE POP CALLER PUSH1 0x1 PUSH1 0x0 PUSH2 0x100 EXP DUP2 SLOAD DUP2 PUSH20 0xFFFFFFFFFFFFFFFFFFFFFFFFFFFFFFFFFFFFFFFF MUL NOT AND SWAP1 DUP4 PUSH20 0xFFFFFFFFFFFFFFFFFFFFFFFFFFFFFFFFFFFFFFFF AND MUL OR SWAP1 SSTORE POP PUSH3 0x12D JUMP JUMPDEST PUSH2 0x109D DUP1 PUSH3 0x25C8 DUP4 CODECOPY ADD SWAP1 JUMP JUMPDEST PUSH3 0xEC DUP2 PUSH3 0x119 JUMP JUMPDEST DUP3 MSTORE POP POP JUMP JUMPDEST PUSH1 0x0 PUSH1 0x20 DUP3 ADD SWAP1 POP PUSH3 0x109 PUSH1 0x0 DUP4 ADD DUP5 PUSH3 0xE1 JUMP JUMPDEST SWAP3 SWAP2 POP POP JUMP JUMPDEST PUSH1 0x0 DUP2 SWAP1 POP SWAP2 SWAP1 POP JUMP JUMPDEST PUSH1 0x0 PUSH3 0x126 DUP3 PUSH3 0x10F JUMP JUMPDEST SWAP1 POP SWAP2 SWAP1 POP JUMP JUMPDEST PUSH2 0x248B DUP1 PUSH3 0x13D PUSH1 0x0 CODECOPY PUSH1 0x0 RETURN INVALID PUSH1 0x80 PUSH1 0x40 MSTORE PUSH1 0x4 CALLDATASIZE LT PUSH2 0xDD JUMPI PUSH1 0x0 CALLDATALOAD PUSH1 0xE0 SHR DUP1 PUSH4 0x9A3174A0 GT PUSH2 0x7F JUMPI DUP1 PUSH4 0xCE8F2F38 GT PUSH2 0x59 JUMPI DUP1 PUSH4 0xCE8F2F38 EQ PUSH2 0x277 JUMPI DUP1 PUSH4 0xD00DF296 EQ PUSH2 0x2B4 JUMPI DUP1 PUSH4 0xE33F34A0 EQ PUSH2 0x2F3 JUMPI DUP1 PUSH4 0xF7774091 EQ PUSH2 0x31E JUMPI PUSH2 0xDD JUMP JUMPDEST DUP1 PUSH4 0x9A3174A0 EQ PUSH2 0x1FA JUMPI DUP1 PUSH4 0xA2094159 EQ PUSH2 0x225 JUMPI DUP1 PUSH4 0xA9862FAB EQ PUSH2 0x24E JUMPI PUSH2 0xDD JUMP JUMPDEST DUP1 PUSH4 0x2076B56C GT PUSH2 0xBB JUMPI DUP1 PUSH4 0x2076B56C EQ PUSH2 0x152 JUMPI DUP1 PUSH4 0x6B8F8E15 EQ PUSH2 0x17B JUMPI DUP1 PUSH4 0x7C1B38BF EQ PUSH2 0x1A6 JUMPI DUP1 PUSH4 0x8DA5CB5B EQ PUSH2 0x1CF JUMPI PUSH2 0xDD JUMP JUMPDEST DUP1 PUSH4 0x12B91846 EQ PUSH2 0xE2 JUMPI DUP1 PUSH4 0x1890154C EQ PUSH2 0x10B JUMPI DUP1 PUSH4 0x1FCCB33C EQ PUSH2 0x127 JUMPI JUMPDEST PUSH1 0x0 DUP1 REVERT JUMPDEST CALLVALUE DUP1 ISZERO PUSH2 0xEE JUMPI PUSH1 0x0 DUP1 REVERT JUMPDEST POP PUSH2 0x109 PUSH1 0x4 DUP1 CALLDATASIZE SUB DUP2 ADD SWAP1 PUSH2 0x104 SWAP2 SWAP1 PUSH2 0x176C JUMP JUMPDEST PUSH2 0x33A JUMP JUMPDEST STOP JUMPDEST PUSH2 0x125 PUSH1 0x4 DUP1 CALLDATASIZE SUB DUP2 ADD SWAP1 PUSH2 0x120 SWAP2 SWAP1 PUSH2 0x1801 JUMP JUMPDEST PUSH2 0x6F7 JUMP JUMPDEST STOP JUMPDEST CALLVALUE DUP1 ISZERO PUSH2 0x133 JUMPI PUSH1 0x0 DUP1 REVERT JUMPDEST POP PUSH2 0x13C PUSH2 0x744 JUMP JUMPDEST PUSH1 0x40 MLOAD PUSH2 0x149 SWAP2 SWAP1 PUSH2 0x2021 JUMP JUMPDEST PUSH1 0x40 MLOAD DUP1 SWAP2 SUB SWAP1 RETURN JUMPDEST CALLVALUE DUP1 ISZERO PUSH2 0x15E JUMPI PUSH1 0x0 DUP1 REVERT JUMPDEST POP PUSH2 0x179 PUSH1 0x4 DUP1 CALLDATASIZE SUB DUP2 ADD SWAP1 PUSH2 0x174 SWAP2 SWAP1 PUSH2 0x17AD JUMP JUMPDEST PUSH2 0x7F1 JUMP JUMPDEST STOP JUMPDEST CALLVALUE DUP1 ISZERO PUSH2 0x187 JUMPI PUSH1 0x0 DUP1 REVERT JUMPDEST POP PUSH2 0x190 PUSH2 0x982 JUMP JUMPDEST PUSH1 0x40 MLOAD PUSH2 0x19D SWAP2 SWAP1 PUSH2 0x1FFF JUMP JUMPDEST PUSH1 0x40 MLOAD DUP1 SWAP2 SUB SWAP1 RETURN JUMPDEST CALLVALUE DUP1 ISZERO PUSH2 0x1B2 JUMPI PUSH1 0x0 DUP1 REVERT JUMPDEST POP PUSH2 0x1CD PUSH1 0x4 DUP1 CALLDATASIZE SUB DUP2 ADD SWAP1 PUSH2 0x1C8 SWAP2 SWAP1 PUSH2 0x1801 JUMP JUMPDEST PUSH2 0xAA8 JUMP JUMPDEST STOP JUMPDEST CALLVALUE DUP1 ISZERO PUSH2 0x1DB JUMPI PUSH1 0x0 DUP1 REVERT JUMPDEST POP PUSH2 0x1E4 PUSH2 0xBC8 JUMP JUMPDEST PUSH1 0x40 MLOAD PUSH2 0x1F1 SWAP2 SWAP1 PUSH2 0x1F84 JUMP JUMPDEST PUSH1 0x40 MLOAD DUP1 SWAP2 SUB SWAP1 RETURN JUMPDEST CALLVALUE DUP1 ISZERO PUSH2 0x206 JUMPI PUSH1 0x0 DUP1 REVERT JUMPDEST POP PUSH2 0x20F PUSH2 0xBEE JUMP JUMPDEST PUSH1 0x40 MLOAD PUSH2 0x21C SWAP2 SWAP1 PUSH2 0x2233 JUMP JUMPDEST PUSH1 0x40 MLOAD DUP1 SWAP2 SUB SWAP1 RETURN JUMPDEST CALLVALUE DUP1 ISZERO PUSH2 0x231 JUMPI PUSH1 0x0 DUP1 REVERT JUMPDEST POP PUSH2 0x24C PUSH1 0x4 DUP1 CALLDATASIZE SUB DUP2 ADD SWAP1 PUSH2 0x247 SWAP2 SWAP1 PUSH2 0x176C JUMP JUMPDEST PUSH2 0xC9F JUMP JUMPDEST STOP JUMPDEST CALLVALUE DUP1 ISZERO PUSH2 0x25A JUMPI PUSH1 0x0 DUP1 REVERT JUMPDEST POP PUSH2 0x275 PUSH1 0x4 DUP1 CALLDATASIZE SUB DUP2 ADD SWAP1 PUSH2 0x270 SWAP2 SWAP1 PUSH2 0x176C JUMP JUMPDEST PUSH2 0xF20 JUMP JUMPDEST STOP JUMPDEST CALLVALUE DUP1 ISZERO PUSH2 0x283 JUMPI PUSH1 0x0 DUP1 REVERT JUMPDEST POP PUSH2 0x29E PUSH1 0x4 DUP1 CALLDATASIZE SUB DUP2 ADD SWAP1 PUSH2 0x299 SWAP2 SWAP1 PUSH2 0x171A JUMP JUMPDEST PUSH2 0x11A1 JUMP JUMPDEST PUSH1 0x40 MLOAD PUSH2 0x2AB SWAP2 SWAP1 PUSH2 0x2233 JUMP JUMPDEST PUSH1 0x40 MLOAD DUP1 SWAP2 SUB SWAP1 RETURN JUMPDEST CALLVALUE DUP1 ISZERO PUSH2 0x2C0 JUMPI PUSH1 0x0 DUP1 REVERT JUMPDEST POP PUSH2 0x2DB PUSH1 0x4 DUP1 CALLDATASIZE SUB DUP2 ADD SWAP1 PUSH2 0x2D6 SWAP2 SWAP1 PUSH2 0x176C JUMP JUMPDEST PUSH2 0x11BF JUMP JUMPDEST PUSH1 0x40 MLOAD PUSH2 0x2EA SWAP4 SWAP3 SWAP2 SWAP1 PUSH2 0x2073 JUMP JUMPDEST PUSH1 0x40 MLOAD DUP1 SWAP2 SUB SWAP1 RETURN JUMPDEST CALLVALUE DUP1 ISZERO PUSH2 0x2FF JUMPI PUSH1 0x0 DUP1 REVERT JUMPDEST POP PUSH2 0x308 PUSH2 0x12A4 JUMP JUMPDEST PUSH1 0x40 MLOAD PUSH2 0x315 SWAP2 SWAP1 PUSH2 0x2233 JUMP JUMPDEST PUSH1 0x40 MLOAD DUP1 SWAP2 SUB SWAP1 RETURN JUMPDEST PUSH2 0x338 PUSH1 0x4 DUP1 CALLDATASIZE SUB DUP2 ADD SWAP1 PUSH2 0x333 SWAP2 SWAP1 PUSH2 0x1801 JUMP JUMPDEST PUSH2 0x1355 JUMP JUMPDEST STOP JUMPDEST PUSH1 0x0 DUP1 PUSH1 0x0 JUMPDEST PUSH1 0x4 DUP1 SLOAD SWAP1 POP DUP2 LT ISZERO PUSH2 0x6B1 JUMPI DUP4 PUSH1 0x40 MLOAD PUSH1 0x20 ADD PUSH2 0x35E SWAP2 SWAP1 PUSH2 0x1EF1 JUMP JUMPDEST PUSH1 0x40 MLOAD PUSH1 0x20 DUP2 DUP4 SUB SUB DUP2 MSTORE SWAP1 PUSH1 0x40 MSTORE DUP1 MLOAD SWAP1 PUSH1 0x20 ADD KECCAK256 PUSH1 0x4 DUP3 DUP2 SLOAD DUP2 LT PUSH2 0x381 JUMPI INVALID JUMPDEST SWAP1 PUSH1 0x0 MSTORE PUSH1 0x20 PUSH1 0x0 KECCAK256 ADD PUSH1 0x40 MLOAD PUSH1 0x20 ADD PUSH2 0x39B SWAP2 SWAP1 PUSH2 0x1F37 JUMP JUMPDEST PUSH1 0x40 MLOAD PUSH1 0x20 DUP2 DUP4 SUB SUB DUP2 MSTORE SWAP1 PUSH1 0x40 MSTORE DUP1 MLOAD SWAP1 PUSH1 0x20 ADD KECCAK256 EQ ISZERO PUSH2 0x6A4 JUMPI PUSH1 0x1 SWAP3 POP PUSH1 0x3 PUSH1 0x4 DUP3 DUP2 SLOAD DUP2 LT PUSH2 0x3CA JUMPI INVALID JUMPDEST SWAP1 PUSH1 0x0 MSTORE PUSH1 0x20 PUSH1 0x0 KECCAK256 ADD PUSH1 0x40 MLOAD PUSH2 0x3E1 SWAP2 SWAP1 PUSH2 0x1F37 JUMP JUMPDEST SWAP1 DUP2 MSTORE PUSH1 0x20 ADD PUSH1 0x40 MLOAD DUP1 SWAP2 SUB SWAP1 KECCAK256 PUSH1 0x2 ADD PUSH1 0x0 SWAP1 SLOAD SWAP1 PUSH2 0x100 EXP SWAP1 DIV PUSH1 0xFF AND ISZERO PUSH2 0x65E JUMPI PUSH1 0x1 SWAP2 POP PUSH2 0x411 PUSH2 0x12A4 JUMP JUMPDEST PUSH1 0x3 PUSH1 0x4 DUP4 DUP2 SLOAD DUP2 LT PUSH2 0x420 JUMPI INVALID JUMPDEST SWAP1 PUSH1 0x0 MSTORE PUSH1 0x20 PUSH1 0x0 KECCAK256 ADD PUSH1 0x40 MLOAD PUSH2 0x437 SWAP2 SWAP1 PUSH2 0x1F37 JUMP JUMPDEST SWAP1 DUP2 MSTORE PUSH1 0x20 ADD PUSH1 0x40 MLOAD DUP1 SWAP2 SUB SWAP1 KECCAK256 PUSH1 0x1 ADD SLOAD GT ISZERO PUSH2 0x48A JUMPI PUSH1 0x40 MLOAD PUSH32 0x8C379A000000000000000000000000000000000000000000000000000000000 DUP2 MSTORE PUSH1 0x4 ADD PUSH2 0x481 SWAP1 PUSH2 0x2113 JUMP JUMPDEST PUSH1 0x40 MLOAD DUP1 SWAP2 SUB SWAP1 REVERT JUMPDEST PUSH1 0x0 DUP1 SLOAD SWAP1 PUSH2 0x100 EXP SWAP1 DIV PUSH20 0xFFFFFFFFFFFFFFFFFFFFFFFFFFFFFFFFFFFFFFFF AND PUSH20 0xFFFFFFFFFFFFFFFFFFFFFFFFFFFFFFFFFFFFFFFF AND PUSH4 0xEF910460 CALLER ADDRESS PUSH1 0x3 PUSH1 0x4 DUP7 DUP2 SLOAD DUP2 LT PUSH2 0x4D7 JUMPI INVALID JUMPDEST SWAP1 PUSH1 0x0 MSTORE PUSH1 0x20 PUSH1 0x0 KECCAK256 ADD PUSH1 0x40 MLOAD PUSH2 0x4EE SWAP2 SWAP1 PUSH2 0x1F37 JUMP JUMPDEST SWAP1 DUP2 MSTORE PUSH1 0x20 ADD PUSH1 0x40 MLOAD DUP1 SWAP2 SUB SWAP1 KECCAK256 PUSH1 0x1 ADD SLOAD PUSH1 0x40 MLOAD DUP5 PUSH4 0xFFFFFFFF AND PUSH1 0xE0 SHL DUP2 MSTORE PUSH1 0x4 ADD PUSH2 0x51E SWAP4 SWAP3 SWAP2 SWAP1 PUSH2 0x1F9F JUMP JUMPDEST PUSH1 0x20 PUSH1 0x40 MLOAD DUP1 DUP4 SUB DUP2 PUSH1 0x0 DUP8 DUP1 EXTCODESIZE ISZERO DUP1 ISZERO PUSH2 0x538 JUMPI PUSH1 0x0 DUP1 REVERT JUMPDEST POP GAS CALL ISZERO DUP1 ISZERO PUSH2 0x54C JUMPI RETURNDATASIZE PUSH1 0x0 DUP1 RETURNDATACOPY RETURNDATASIZE PUSH1 0x0 REVERT JUMPDEST POP POP POP POP PUSH1 0x40 MLOAD RETURNDATASIZE PUSH1 0x1F NOT PUSH1 0x1F DUP3 ADD AND DUP3 ADD DUP1 PUSH1 0x40 MSTORE POP DUP2 ADD SWAP1 PUSH2 0x570 SWAP2 SWAP1 PUSH2 0x1743 JUMP JUMPDEST POP PUSH1 0x5 PUSH1 0x0 CALLER PUSH20 0xFFFFFFFFFFFFFFFFFFFFFFFFFFFFFFFFFFFFFFFF AND PUSH20 0xFFFFFFFFFFFFFFFFFFFFFFFFFFFFFFFFFFFFFFFF AND DUP2 MSTORE PUSH1 0x20 ADD SWAP1 DUP2 MSTORE PUSH1 0x20 ADD PUSH1 0x0 KECCAK256 PUSH1 0x4 DUP3 DUP2 SLOAD DUP2 LT PUSH2 0x5BD JUMPI INVALID JUMPDEST SWAP1 PUSH1 0x0 MSTORE PUSH1 0x20 PUSH1 0x0 KECCAK256 ADD SWAP1 DUP1 PUSH1 0x1 DUP2 SLOAD ADD DUP1 DUP3 SSTORE DUP1 SWAP2 POP POP PUSH1 0x1 SWAP1 SUB SWAP1 PUSH1 0x0 MSTORE PUSH1 0x20 PUSH1 0x0 KECCAK256 ADD PUSH1 0x0 SWAP1 SWAP2 SWAP1 SWAP2 SWAP1 SWAP2 POP SWAP1 DUP1 SLOAD PUSH1 0x1 DUP2 PUSH1 0x1 AND ISZERO PUSH2 0x100 MUL SUB AND PUSH1 0x2 SWAP1 DIV PUSH2 0x60B SWAP3 SWAP2 SWAP1 PUSH2 0x154E JUMP JUMPDEST POP PUSH32 0xC13B0C39E701B0F41DDE2E972F3E98E53FA01E6BC45EF606DDC7522A8E354F2D PUSH1 0x4 DUP3 DUP2 SLOAD DUP2 LT PUSH2 0x63A JUMPI INVALID JUMPDEST SWAP1 PUSH1 0x0 MSTORE PUSH1 0x20 PUSH1 0x0 KECCAK256 ADD PUSH1 0x40 MLOAD PUSH2 0x651 SWAP2 SWAP1 PUSH2 0x20B1 JUMP JUMPDEST PUSH1 0x40 MLOAD DUP1 SWAP2 SUB SWAP1 LOG1 PUSH2 0x69F JUMP JUMPDEST DUP2 PUSH2 0x69E JUMPI PUSH1 0x40 MLOAD PUSH32 0x8C379A000000000000000000000000000000000000000000000000000000000 DUP2 MSTORE PUSH1 0x4 ADD PUSH2 0x695 SWAP1 PUSH2 0x2133 JUMP JUMPDEST PUSH1 0x40 MLOAD DUP1 SWAP2 SUB SWAP1 REVERT JUMPDEST JUMPDEST PUSH2 0x6B1 JUMP JUMPDEST DUP1 DUP1 PUSH1 0x1 ADD SWAP2 POP POP PUSH2 0x340 JUMP JUMPDEST POP DUP2 PUSH2 0x6F2 JUMPI PUSH1 0x40 MLOAD PUSH32 0x8C379A000000000000000000000000000000000000000000000000000000000 DUP2 MSTORE PUSH1 0x4 ADD PUSH2 0x6E9 SWAP1 PUSH2 0x20D3 JUMP JUMPDEST PUSH1 0x40 MLOAD DUP1 SWAP2 SUB SWAP1 REVERT JUMPDEST POP POP POP JUMP JUMPDEST DUP1 PUSH2 0x700 PUSH2 0x12A4 JUMP JUMPDEST LT ISZERO PUSH2 0x741 JUMPI PUSH1 0x40 MLOAD PUSH32 0x8C379A000000000000000000000000000000000000000000000000000000000 DUP2 MSTORE PUSH1 0x4 ADD PUSH2 0x738 SWAP1 PUSH2 0x20F3 JUMP JUMPDEST PUSH1 0x40 MLOAD DUP1 SWAP2 SUB SWAP1 REVERT JUMPDEST POP JUMP JUMPDEST PUSH1 0x60 DUP1 PUSH1 0x0 JUMPDEST PUSH1 0x4 DUP1 SLOAD SWAP1 POP DUP2 LT ISZERO PUSH2 0x7E9 JUMPI PUSH1 0x3 PUSH1 0x4 DUP3 DUP2 SLOAD DUP2 LT PUSH2 0x766 JUMPI INVALID JUMPDEST SWAP1 PUSH1 0x0 MSTORE PUSH1 0x20 PUSH1 0x0 KECCAK256 ADD PUSH1 0x40 MLOAD PUSH2 0x77D SWAP2 SWAP1 PUSH2 0x1F37 JUMP JUMPDEST SWAP1 DUP2 MSTORE PUSH1 0x20 ADD PUSH1 0x40 MLOAD DUP1 SWAP2 SUB SWAP1 KECCAK256 PUSH1 0x2 ADD PUSH1 0x0 SWAP1 SLOAD SWAP1 PUSH2 0x100 EXP SWAP1 DIV PUSH1 0xFF AND ISZERO PUSH2 0x7DC JUMPI DUP2 PUSH1 0x4 DUP3 DUP2 SLOAD DUP2 LT PUSH2 0x7AF JUMPI INVALID JUMPDEST SWAP1 PUSH1 0x0 MSTORE PUSH1 0x20 PUSH1 0x0 KECCAK256 ADD PUSH1 0x40 MLOAD PUSH1 0x20 ADD PUSH2 0x7CA SWAP3 SWAP2 SWAP1 PUSH2 0x1F08 JUMP JUMPDEST PUSH1 0x40 MLOAD PUSH1 0x20 DUP2 DUP4 SUB SUB DUP2 MSTORE SWAP1 PUSH1 0x40 MSTORE SWAP2 POP JUMPDEST DUP1 DUP1 PUSH1 0x1 ADD SWAP2 POP POP PUSH2 0x74A JUMP JUMPDEST POP DUP1 SWAP2 POP POP SWAP1 JUMP JUMPDEST CALLER PUSH1 0x1 PUSH1 0x0 SWAP1 SLOAD SWAP1 PUSH2 0x100 EXP SWAP1 DIV PUSH20 0xFFFFFFFFFFFFFFFFFFFFFFFFFFFFFFFFFFFFFFFF AND PUSH20 0xFFFFFFFFFFFFFFFFFFFFFFFFFFFFFFFFFFFFFFFF AND DUP2 PUSH20 0xFFFFFFFFFFFFFFFFFFFFFFFFFFFFFFFFFFFFFFFF AND EQ PUSH2 0x882 JUMPI PUSH1 0x40 MLOAD PUSH32 0x8C379A000000000000000000000000000000000000000000000000000000000 DUP2 MSTORE PUSH1 0x4 ADD PUSH2 0x879 SWAP1 PUSH2 0x21D3 JUMP JUMPDEST PUSH1 0x40 MLOAD DUP1 SWAP2 SUB SWAP1 REVERT JUMPDEST PUSH1 0x40 MLOAD DUP1 PUSH1 0x60 ADD PUSH1 0x40 MSTORE DUP1 DUP5 DUP2 MSTORE PUSH1 0x20 ADD DUP4 DUP2 MSTORE PUSH1 0x20 ADD PUSH1 0x1 ISZERO ISZERO DUP2 MSTORE POP PUSH1 0x3 DUP5 PUSH1 0x40 MLOAD PUSH2 0x8B0 SWAP2 SWAP1 PUSH2 0x1EF1 JUMP JUMPDEST SWAP1 DUP2 MSTORE PUSH1 0x20 ADD PUSH1 0x40 MLOAD DUP1 SWAP2 SUB SWAP1 KECCAK256 PUSH1 0x0 DUP3 ADD MLOAD DUP2 PUSH1 0x0 ADD SWAP1 DUP1 MLOAD SWAP1 PUSH1 0x20 ADD SWAP1 PUSH2 0x8DA SWAP3 SWAP2 SWAP1 PUSH2 0x15D5 JUMP JUMPDEST POP PUSH1 0x20 DUP3 ADD MLOAD DUP2 PUSH1 0x1 ADD SSTORE PUSH1 0x40 DUP3 ADD MLOAD DUP2 PUSH1 0x2 ADD PUSH1 0x0 PUSH2 0x100 EXP DUP2 SLOAD DUP2 PUSH1 0xFF MUL NOT AND SWAP1 DUP4 ISZERO ISZERO MUL OR SWAP1 SSTORE POP SWAP1 POP POP PUSH1 0x4 DUP4 SWAP1 DUP1 PUSH1 0x1 DUP2 SLOAD ADD DUP1 DUP3 SSTORE DUP1 SWAP2 POP POP PUSH1 0x1 SWAP1 SUB SWAP1 PUSH1 0x0 MSTORE PUSH1 0x20 PUSH1 0x0 KECCAK256 ADD PUSH1 0x0 SWAP1 SWAP2 SWAP1 SWAP2 SWAP1 SWAP2 POP SWAP1 DUP1 MLOAD SWAP1 PUSH1 0x20 ADD SWAP1 PUSH2 0x943 SWAP3 SWAP2 SWAP1 PUSH2 0x15D5 JUMP JUMPDEST POP PUSH32 0xFC9ECD7A6C2CA96D38526A0B9CC22F2474FF8E596DD348EDAAB06BE905EBE378 DUP4 DUP4 PUSH1 0x40 MLOAD PUSH2 0x975 SWAP3 SWAP2 SWAP1 PUSH2 0x2043 JUMP JUMPDEST PUSH1 0x40 MLOAD DUP1 SWAP2 SUB SWAP1 LOG1 POP POP POP JUMP JUMPDEST PUSH1 0x60 PUSH1 0x5 PUSH1 0x0 CALLER PUSH20 0xFFFFFFFFFFFFFFFFFFFFFFFFFFFFFFFFFFFFFFFF AND PUSH20 0xFFFFFFFFFFFFFFFFFFFFFFFFFFFFFFFFFFFFFFFF AND DUP2 MSTORE PUSH1 0x20 ADD SWAP1 DUP2 MSTORE PUSH1 0x20 ADD PUSH1 0x0 KECCAK256 DUP1 SLOAD DUP1 PUSH1 0x20 MUL PUSH1 0x20 ADD PUSH1 0x40 MLOAD SWAP1 DUP2 ADD PUSH1 0x40 MSTORE DUP1 SWAP3 SWAP2 SWAP1 DUP2 DUP2 MSTORE PUSH1 0x20 ADD PUSH1 0x0 SWAP1 JUMPDEST DUP3 DUP3 LT ISZERO PUSH2 0xA9F JUMPI DUP4 DUP3 SWAP1 PUSH1 0x0 MSTORE PUSH1 0x20 PUSH1 0x0 KECCAK256 ADD DUP1 SLOAD PUSH1 0x1 DUP2 PUSH1 0x1 AND ISZERO PUSH2 0x100 MUL SUB AND PUSH1 0x2 SWAP1 DIV DUP1 PUSH1 0x1F ADD PUSH1 0x20 DUP1 SWAP2 DIV MUL PUSH1 0x20 ADD PUSH1 0x40 MLOAD SWAP1 DUP2 ADD PUSH1 0x40 MSTORE DUP1 SWAP3 SWAP2 SWAP1 DUP2 DUP2 MSTORE PUSH1 0x20 ADD DUP3 DUP1 SLOAD PUSH1 0x1 DUP2 PUSH1 0x1 AND ISZERO PUSH2 0x100 MUL SUB AND PUSH1 0x2 SWAP1 DIV DUP1 ISZERO PUSH2 0xA8B JUMPI DUP1 PUSH1 0x1F LT PUSH2 0xA60 JUMPI PUSH2 0x100 DUP1 DUP4 SLOAD DIV MUL DUP4 MSTORE SWAP2 PUSH1 0x20 ADD SWAP2 PUSH2 0xA8B JUMP JUMPDEST DUP3 ADD SWAP2 SWAP1 PUSH1 0x0 MSTORE PUSH1 0x20 PUSH1 0x0 KECCAK256 SWAP1 JUMPDEST DUP2 SLOAD DUP2 MSTORE SWAP1 PUSH1 0x1 ADD SWAP1 PUSH1 0x20 ADD DUP1 DUP4 GT PUSH2 0xA6E JUMPI DUP3 SWAP1 SUB PUSH1 0x1F AND DUP3 ADD SWAP2 JUMPDEST POP POP POP POP POP DUP2 MSTORE PUSH1 0x20 ADD SWAP1 PUSH1 0x1 ADD SWAP1 PUSH2 0x9E3 JUMP JUMPDEST POP POP POP POP SWAP1 POP SWAP1 JUMP JUMPDEST CALLER PUSH1 0x1 PUSH1 0x0 SWAP1 SLOAD SWAP1 PUSH2 0x100 EXP SWAP1 DIV PUSH20 0xFFFFFFFFFFFFFFFFFFFFFFFFFFFFFFFFFFFFFFFF AND PUSH20 0xFFFFFFFFFFFFFFFFFFFFFFFFFFFFFFFFFFFFFFFF AND DUP2 PUSH20 0xFFFFFFFFFFFFFFFFFFFFFFFFFFFFFFFFFFFFFFFF AND EQ PUSH2 0xB39 JUMPI PUSH1 0x40 MLOAD PUSH32 0x8C379A000000000000000000000000000000000000000000000000000000000 DUP2 MSTORE PUSH1 0x4 ADD PUSH2 0xB30 SWAP1 PUSH2 0x21D3 JUMP JUMPDEST PUSH1 0x40 MLOAD DUP1 SWAP2 SUB SWAP1 REVERT JUMPDEST PUSH1 0x0 DUP1 SLOAD SWAP1 PUSH2 0x100 EXP SWAP1 DIV PUSH20 0xFFFFFFFFFFFFFFFFFFFFFFFFFFFFFFFFFFFFFFFF AND PUSH20 0xFFFFFFFFFFFFFFFFFFFFFFFFFFFFFFFFFFFFFFFF AND PUSH4 0x1D43CC98 DUP4 PUSH1 0x40 MLOAD DUP3 PUSH4 0xFFFFFFFF AND PUSH1 0xE0 SHL DUP2 MSTORE PUSH1 0x4 ADD PUSH2 0xB92 SWAP2 SWAP1 PUSH2 0x2233 JUMP JUMPDEST PUSH1 0x0 PUSH1 0x40 MLOAD DUP1 DUP4 SUB DUP2 PUSH1 0x0 DUP8 DUP1 EXTCODESIZE ISZERO DUP1 ISZERO PUSH2 0xBAC JUMPI PUSH1 0x0 DUP1 REVERT JUMPDEST POP GAS CALL ISZERO DUP1 ISZERO PUSH2 0xBC0 JUMPI RETURNDATASIZE PUSH1 0x0 DUP1 RETURNDATACOPY RETURNDATASIZE PUSH1 0x0 REVERT JUMPDEST POP POP POP POP POP POP JUMP JUMPDEST PUSH1 0x1 PUSH1 0x0 SWAP1 SLOAD SWAP1 PUSH2 0x100 EXP SWAP1 DIV PUSH20 0xFFFFFFFFFFFFFFFFFFFFFFFFFFFFFFFFFFFFFFFF AND DUP2 JUMP JUMPDEST PUSH1 0x0 DUP1 PUSH1 0x0 SWAP1 SLOAD SWAP1 PUSH2 0x100 EXP SWAP1 DIV PUSH20 0xFFFFFFFFFFFFFFFFFFFFFFFFFFFFFFFFFFFFFFFF AND PUSH20 0xFFFFFFFFFFFFFFFFFFFFFFFFFFFFFFFFFFFFFFFF AND PUSH4 0x70A08231 ADDRESS PUSH1 0x40 MLOAD DUP3 PUSH4 0xFFFFFFFF AND PUSH1 0xE0 SHL DUP2 MSTORE PUSH1 0x4 ADD PUSH2 0xC4A SWAP2 SWAP1 PUSH2 0x1F4E JUMP JUMPDEST PUSH1 0x20 PUSH1 0x40 MLOAD DUP1 DUP4 SUB DUP2 DUP7 DUP1 EXTCODESIZE ISZERO DUP1 ISZERO PUSH2 0xC62 JUMPI PUSH1 0x0 DUP1 REVERT JUMPDEST POP GAS STATICCALL ISZERO DUP1 ISZERO PUSH2 0xC76 JUMPI RETURNDATASIZE PUSH1 0x0 DUP1 RETURNDATACOPY RETURNDATASIZE PUSH1 0x0 REVERT JUMPDEST POP POP POP POP PUSH1 0x40 MLOAD RETURNDATASIZE PUSH1 0x1F NOT PUSH1 0x1F DUP3 ADD AND DUP3 ADD DUP1 PUSH1 0x40 MSTORE POP DUP2 ADD SWAP1 PUSH2 0xC9A SWAP2 SWAP1 PUSH2 0x182A JUMP JUMPDEST SWAP1 POP SWAP1 JUMP JUMPDEST CALLER PUSH1 0x1 PUSH1 0x0 SWAP1 SLOAD SWAP1 PUSH2 0x100 EXP SWAP1 DIV PUSH20 0xFFFFFFFFFFFFFFFFFFFFFFFFFFFFFFFFFFFFFFFF AND PUSH20 0xFFFFFFFFFFFFFFFFFFFFFFFFFFFFFFFFFFFFFFFF AND DUP2 PUSH20 0xFFFFFFFFFFFFFFFFFFFFFFFFFFFFFFFFFFFFFFFF AND EQ PUSH2 0xD30 JUMPI PUSH1 0x40 MLOAD PUSH32 0x8C379A000000000000000000000000000000000000000000000000000000000 DUP2 MSTORE PUSH1 0x4 ADD PUSH2 0xD27 SWAP1 PUSH2 0x21D3 JUMP JUMPDEST PUSH1 0x40 MLOAD DUP1 SWAP2 SUB SWAP1 REVERT JUMPDEST PUSH1 0x0 DUP1 JUMPDEST PUSH1 0x4 DUP1 SLOAD SWAP1 POP DUP2 LT ISZERO PUSH2 0xEA3 JUMPI DUP4 PUSH1 0x40 MLOAD PUSH1 0x20 ADD PUSH2 0xD52 SWAP2 SWAP1 PUSH2 0x1EF1 JUMP JUMPDEST PUSH1 0x40 MLOAD PUSH1 0x20 DUP2 DUP4 SUB SUB DUP2 MSTORE SWAP1 PUSH1 0x40 MSTORE DUP1 MLOAD SWAP1 PUSH1 0x20 ADD KECCAK256 PUSH1 0x4 DUP3 DUP2 SLOAD DUP2 LT PUSH2 0xD75 JUMPI INVALID JUMPDEST SWAP1 PUSH1 0x0 MSTORE PUSH1 0x20 PUSH1 0x0 KECCAK256 ADD PUSH1 0x40 MLOAD PUSH1 0x20 ADD PUSH2 0xD8F SWAP2 SWAP1 PUSH2 0x1F37 JUMP JUMPDEST PUSH1 0x40 MLOAD PUSH1 0x20 DUP2 DUP4 SUB SUB DUP2 MSTORE SWAP1 PUSH1 0x40 MSTORE DUP1 MLOAD SWAP1 PUSH1 0x20 ADD KECCAK256 EQ ISZERO PUSH2 0xE96 JUMPI PUSH1 0x1 SWAP2 POP PUSH1 0x3 DUP5 PUSH1 0x40 MLOAD PUSH2 0xDBF SWAP2 SWAP1 PUSH2 0x1EF1 JUMP JUMPDEST SWAP1 DUP2 MSTORE PUSH1 0x20 ADD PUSH1 0x40 MLOAD DUP1 SWAP2 SUB SWAP1 KECCAK256 PUSH1 0x2 ADD PUSH1 0x0 SWAP1 SLOAD SWAP1 PUSH2 0x100 EXP SWAP1 DIV PUSH1 0xFF AND ISZERO PUSH2 0xE22 JUMPI PUSH1 0x0 PUSH1 0x3 DUP6 PUSH1 0x40 MLOAD PUSH2 0xDF5 SWAP2 SWAP1 PUSH2 0x1EF1 JUMP JUMPDEST SWAP1 DUP2 MSTORE PUSH1 0x20 ADD PUSH1 0x40 MLOAD DUP1 SWAP2 SUB SWAP1 KECCAK256 PUSH1 0x2 ADD PUSH1 0x0 PUSH2 0x100 EXP DUP2 SLOAD DUP2 PUSH1 0xFF MUL NOT AND SWAP1 DUP4 ISZERO ISZERO MUL OR SWAP1 SSTORE POP PUSH2 0xE91 JUMP JUMPDEST PUSH1 0x3 DUP5 PUSH1 0x40 MLOAD PUSH2 0xE32 SWAP2 SWAP1 PUSH2 0x1EF1 JUMP JUMPDEST SWAP1 DUP2 MSTORE PUSH1 0x20 ADD PUSH1 0x40 MLOAD DUP1 SWAP2 SUB SWAP1 KECCAK256 PUSH1 0x2 ADD PUSH1 0x0 SWAP1 SLOAD SWAP1 PUSH2 0x100 EXP SWAP1 DIV PUSH1 0xFF AND PUSH2 0xE90 JUMPI PUSH1 0x40 MLOAD PUSH32 0x8C379A000000000000000000000000000000000000000000000000000000000 DUP2 MSTORE PUSH1 0x4 ADD PUSH2 0xE87 SWAP1 PUSH2 0x2193 JUMP JUMPDEST PUSH1 0x40 MLOAD DUP1 SWAP2 SUB SWAP1 REVERT JUMPDEST JUMPDEST PUSH2 0xEA3 JUMP JUMPDEST DUP1 DUP1 PUSH1 0x1 ADD SWAP2 POP POP PUSH2 0xD34 JUMP JUMPDEST POP DUP1 PUSH2 0xEE4 JUMPI PUSH1 0x40 MLOAD PUSH32 0x8C379A000000000000000000000000000000000000000000000000000000000 DUP2 MSTORE PUSH1 0x4 ADD PUSH2 0xEDB SWAP1 PUSH2 0x21F3 JUMP JUMPDEST PUSH1 0x40 MLOAD DUP1 SWAP2 SUB SWAP1 REVERT JUMPDEST PUSH32 0x24BA6C881728980191398DB8DCFD8ED4F6AEB1C08DF349D63F3B85075F3E86DD DUP4 PUSH1 0x40 MLOAD PUSH2 0xF13 SWAP2 SWAP1 PUSH2 0x2021 JUMP JUMPDEST PUSH1 0x40 MLOAD DUP1 SWAP2 SUB SWAP1 LOG1 POP POP POP JUMP JUMPDEST CALLER PUSH1 0x1 PUSH1 0x0 SWAP1 SLOAD SWAP1 PUSH2 0x100 EXP SWAP1 DIV PUSH20 0xFFFFFFFFFFFFFFFFFFFFFFFFFFFFFFFFFFFFFFFF AND PUSH20 0xFFFFFFFFFFFFFFFFFFFFFFFFFFFFFFFFFFFFFFFF AND DUP2 PUSH20 0xFFFFFFFFFFFFFFFFFFFFFFFFFFFFFFFFFFFFFFFF AND EQ PUSH2 0xFB1 JUMPI PUSH1 0x40 MLOAD PUSH32 0x8C379A000000000000000000000000000000000000000000000000000000000 DUP2 MSTORE PUSH1 0x4 ADD PUSH2 0xFA8 SWAP1 PUSH2 0x21D3 JUMP JUMPDEST PUSH1 0x40 MLOAD DUP1 SWAP2 SUB SWAP1 REVERT JUMPDEST PUSH1 0x0 DUP1 JUMPDEST PUSH1 0x4 DUP1 SLOAD SWAP1 POP DUP2 LT ISZERO PUSH2 0x1124 JUMPI DUP4 PUSH1 0x40 MLOAD PUSH1 0x20 ADD PUSH2 0xFD3 SWAP2 SWAP1 PUSH2 0x1EF1 JUMP JUMPDEST PUSH1 0x40 MLOAD PUSH1 0x20 DUP2 DUP4 SUB SUB DUP2 MSTORE SWAP1 PUSH1 0x40 MSTORE DUP1 MLOAD SWAP1 PUSH1 0x20 ADD KECCAK256 PUSH1 0x4 DUP3 DUP2 SLOAD DUP2 LT PUSH2 0xFF6 JUMPI INVALID JUMPDEST SWAP1 PUSH1 0x0 MSTORE PUSH1 0x20 PUSH1 0x0 KECCAK256 ADD PUSH1 0x40 MLOAD PUSH1 0x20 ADD PUSH2 0x1010 SWAP2 SWAP1 PUSH2 0x1F37 JUMP JUMPDEST PUSH1 0x40 MLOAD PUSH1 0x20 DUP2 DUP4 SUB SUB DUP2 MSTORE SWAP1 PUSH1 0x40 MSTORE DUP1 MLOAD SWAP1 PUSH1 0x20 ADD KECCAK256 EQ ISZERO PUSH2 0x1117 JUMPI PUSH1 0x1 SWAP2 POP PUSH1 0x3 DUP5 PUSH1 0x40 MLOAD PUSH2 0x1040 SWAP2 SWAP1 PUSH2 0x1EF1 JUMP JUMPDEST SWAP1 DUP2 MSTORE PUSH1 0x20 ADD PUSH1 0x40 MLOAD DUP1 SWAP2 SUB SWAP1 KECCAK256 PUSH1 0x2 ADD PUSH1 0x0 SWAP1 SLOAD SWAP1 PUSH2 0x100 EXP SWAP1 DIV PUSH1 0xFF AND PUSH2 0x10A2 JUMPI PUSH1 0x1 PUSH1 0x3 DUP6 PUSH1 0x40 MLOAD PUSH2 0x1075 SWAP2 SWAP1 PUSH2 0x1EF1 JUMP JUMPDEST SWAP1 DUP2 MSTORE PUSH1 0x20 ADD PUSH1 0x40 MLOAD DUP1 SWAP2 SUB SWAP1 KECCAK256 PUSH1 0x2 ADD PUSH1 0x0 PUSH2 0x100 EXP DUP2 SLOAD DUP2 PUSH1 0xFF MUL NOT AND SWAP1 DUP4 ISZERO ISZERO MUL OR SWAP1 SSTORE POP PUSH2 0x1112 JUMP JUMPDEST PUSH1 0x3 DUP5 PUSH1 0x40 MLOAD PUSH2 0x10B2 SWAP2 SWAP1 PUSH2 0x1EF1 JUMP JUMPDEST SWAP1 DUP2 MSTORE PUSH1 0x20 ADD PUSH1 0x40 MLOAD DUP1 SWAP2 SUB SWAP1 KECCAK256 PUSH1 0x2 ADD PUSH1 0x0 SWAP1 SLOAD SWAP1 PUSH2 0x100 EXP SWAP1 DIV PUSH1 0xFF AND ISZERO PUSH2 0x1111 JUMPI PUSH1 0x40 MLOAD PUSH32 0x8C379A000000000000000000000000000000000000000000000000000000000 DUP2 MSTORE PUSH1 0x4 ADD PUSH2 0x1108 SWAP1 PUSH2 0x21B3 JUMP JUMPDEST PUSH1 0x40 MLOAD DUP1 SWAP2 SUB SWAP1 REVERT JUMPDEST JUMPDEST PUSH2 0x1124 JUMP JUMPDEST DUP1 DUP1 PUSH1 0x1 ADD SWAP2 POP POP PUSH2 0xFB5 JUMP JUMPDEST POP DUP1 PUSH2 0x1165 JUMPI PUSH1 0x40 MLOAD PUSH32 0x8C379A000000000000000000000000000000000000000000000000000000000 DUP2 MSTORE PUSH1 0x4 ADD PUSH2 0x115C SWAP1 PUSH2 0x2213 JUMP JUMPDEST PUSH1 0x40 MLOAD DUP1 SWAP2 SUB SWAP1 REVERT JUMPDEST PUSH32 0x93BF52A97553B4B909DC0C898CA0AF225AFA4B2926E6D4F002F1470287662FC1 DUP4 PUSH1 0x40 MLOAD PUSH2 0x1194 SWAP2 SWAP1 PUSH2 0x2021 JUMP JUMPDEST PUSH1 0x40 MLOAD DUP1 SWAP2 SUB SWAP1 LOG1 POP POP POP JUMP JUMPDEST PUSH1 0x2 PUSH1 0x20 MSTORE DUP1 PUSH1 0x0 MSTORE PUSH1 0x40 PUSH1 0x0 KECCAK256 PUSH1 0x0 SWAP2 POP SWAP1 POP DUP1 PUSH1 0x0 ADD SLOAD SWAP1 POP DUP2 JUMP JUMPDEST PUSH1 0x3 DUP2 DUP1 MLOAD PUSH1 0x20 DUP2 ADD DUP3 ADD DUP1 MLOAD DUP5 DUP3 MSTORE PUSH1 0x20 DUP4 ADD PUSH1 0x20 DUP6 ADD KECCAK256 DUP2 DUP4 MSTORE DUP1 SWAP6 POP POP POP POP POP POP PUSH1 0x0 SWAP2 POP SWAP1 POP DUP1 PUSH1 0x0 ADD DUP1 SLOAD PUSH1 0x1 DUP2 PUSH1 0x1 AND ISZERO PUSH2 0x100 MUL SUB AND PUSH1 0x2 SWAP1 DIV DUP1 PUSH1 0x1F ADD PUSH1 0x20 DUP1 SWAP2 DIV MUL PUSH1 0x20 ADD PUSH1 0x40 MLOAD SWAP1 DUP2 ADD PUSH1 0x40 MSTORE DUP1 SWAP3 SWAP2 SWAP1 DUP2 DUP2 MSTORE PUSH1 0x20 ADD DUP3 DUP1 SLOAD PUSH1 0x1 DUP2 PUSH1 0x1 AND ISZERO PUSH2 0x100 MUL SUB AND PUSH1 0x2 SWAP1 DIV DUP1 ISZERO PUSH2 0x1281 JUMPI DUP1 PUSH1 0x1F LT PUSH2 0x1256 JUMPI PUSH2 0x100 DUP1 DUP4 SLOAD DIV MUL DUP4 MSTORE SWAP2 PUSH1 0x20 ADD SWAP2 PUSH2 0x1281 JUMP JUMPDEST DUP3 ADD SWAP2 SWAP1 PUSH1 0x0 MSTORE PUSH1 0x20 PUSH1 0x0 KECCAK256 SWAP1 JUMPDEST DUP2 SLOAD DUP2 MSTORE SWAP1 PUSH1 0x1 ADD SWAP1 PUSH1 0x20 ADD DUP1 DUP4 GT PUSH2 0x1264 JUMPI DUP3 SWAP1 SUB PUSH1 0x1F AND DUP3 ADD SWAP2 JUMPDEST POP POP POP POP POP SWAP1 DUP1 PUSH1 0x1 ADD SLOAD SWAP1 DUP1 PUSH1 0x2 ADD PUSH1 0x0 SWAP1 SLOAD SWAP1 PUSH2 0x100 EXP SWAP1 DIV PUSH1 0xFF AND SWAP1 POP DUP4 JUMP JUMPDEST PUSH1 0x0 DUP1 PUSH1 0x0 SWAP1 SLOAD SWAP1 PUSH2 0x100 EXP SWAP1 DIV PUSH20 0xFFFFFFFFFFFFFFFFFFFFFFFFFFFFFFFFFFFFFFFF AND PUSH20 0xFFFFFFFFFFFFFFFFFFFFFFFFFFFFFFFFFFFFFFFF AND PUSH4 0x70A08231 CALLER PUSH1 0x40 MLOAD DUP3 PUSH4 0xFFFFFFFF AND PUSH1 0xE0 SHL DUP2 MSTORE PUSH1 0x4 ADD PUSH2 0x1300 SWAP2 SWAP1 PUSH2 0x1F69 JUMP JUMPDEST PUSH1 0x20 PUSH1 0x40 MLOAD DUP1 DUP4 SUB DUP2 DUP7 DUP1 EXTCODESIZE ISZERO DUP1 ISZERO PUSH2 0x1318 JUMPI PUSH1 0x0 DUP1 REVERT JUMPDEST POP GAS STATICCALL ISZERO DUP1 ISZERO PUSH2 0x132C JUMPI RETURNDATASIZE PUSH1 0x0 DUP1 RETURNDATACOPY RETURNDATASIZE PUSH1 0x0 REVERT JUMPDEST POP POP POP POP PUSH1 0x40 MLOAD RETURNDATASIZE PUSH1 0x1F NOT PUSH1 0x1F DUP3 ADD AND DUP3 ADD DUP1 PUSH1 0x40 MSTORE POP DUP2 ADD SWAP1 PUSH2 0x1350 SWAP2 SWAP1 PUSH2 0x182A JUMP JUMPDEST SWAP1 POP SWAP1 JUMP JUMPDEST PUSH1 0x0 PUSH2 0x1360 DUP3 PUSH2 0x153A JUMP JUMPDEST SWAP1 POP DUP1 CALLVALUE LT ISZERO PUSH2 0x13A5 JUMPI PUSH1 0x40 MLOAD PUSH32 0x8C379A000000000000000000000000000000000000000000000000000000000 DUP2 MSTORE PUSH1 0x4 ADD PUSH2 0x139C SWAP1 PUSH2 0x2153 JUMP JUMPDEST PUSH1 0x40 MLOAD DUP1 SWAP2 SUB SWAP1 REVERT JUMPDEST DUP2 PUSH2 0x13AE PUSH2 0xBEE JUMP JUMPDEST LT ISZERO PUSH2 0x13EF JUMPI PUSH1 0x40 MLOAD PUSH32 0x8C379A000000000000000000000000000000000000000000000000000000000 DUP2 MSTORE PUSH1 0x4 ADD PUSH2 0x13E6 SWAP1 PUSH2 0x2173 JUMP JUMPDEST PUSH1 0x40 MLOAD DUP1 SWAP2 SUB SWAP1 REVERT JUMPDEST CALLER PUSH20 0xFFFFFFFFFFFFFFFFFFFFFFFFFFFFFFFFFFFFFFFF AND PUSH2 0x8FC DUP3 CALLVALUE SUB SWAP1 DUP2 ISZERO MUL SWAP1 PUSH1 0x40 MLOAD PUSH1 0x0 PUSH1 0x40 MLOAD DUP1 DUP4 SUB DUP2 DUP6 DUP9 DUP9 CALL SWAP4 POP POP POP POP ISZERO DUP1 ISZERO PUSH2 0x1437 JUMPI RETURNDATASIZE PUSH1 0x0 DUP1 RETURNDATACOPY RETURNDATASIZE PUSH1 0x0 REVERT JUMPDEST POP PUSH1 0x0 DUP1 SLOAD SWAP1 PUSH2 0x100 EXP SWAP1 DIV PUSH20 0xFFFFFFFFFFFFFFFFFFFFFFFFFFFFFFFFFFFFFFFF AND PUSH20 0xFFFFFFFFFFFFFFFFFFFFFFFFFFFFFFFFFFFFFFFF AND PUSH4 0xA9059CBB CALLER DUP5 PUSH1 0x40 MLOAD DUP4 PUSH4 0xFFFFFFFF AND PUSH1 0xE0 SHL DUP2 MSTORE PUSH1 0x4 ADD PUSH2 0x1493 SWAP3 SWAP2 SWAP1 PUSH2 0x1FD6 JUMP JUMPDEST PUSH1 0x20 PUSH1 0x40 MLOAD DUP1 DUP4 SUB DUP2 PUSH1 0x0 DUP8 DUP1 EXTCODESIZE ISZERO DUP1 ISZERO PUSH2 0x14AD JUMPI PUSH1 0x0 DUP1 REVERT JUMPDEST POP GAS CALL ISZERO DUP1 ISZERO PUSH2 0x14C1 JUMPI RETURNDATASIZE PUSH1 0x0 DUP1 RETURNDATACOPY RETURNDATASIZE PUSH1 0x0 REVERT JUMPDEST POP POP POP POP PUSH1 0x40 MLOAD RETURNDATASIZE PUSH1 0x1F NOT PUSH1 0x1F DUP3 ADD AND DUP3 ADD DUP1 PUSH1 0x40 MSTORE POP DUP2 ADD SWAP1 PUSH2 0x14E5 SWAP2 SWAP1 PUSH2 0x1743 JUMP JUMPDEST POP DUP2 PUSH1 0x2 PUSH1 0x0 CALLER PUSH20 0xFFFFFFFFFFFFFFFFFFFFFFFFFFFFFFFFFFFFFFFF AND PUSH20 0xFFFFFFFFFFFFFFFFFFFFFFFFFFFFFFFFFFFFFFFF AND DUP2 MSTORE PUSH1 0x20 ADD SWAP1 DUP2 MSTORE PUSH1 0x20 ADD PUSH1 0x0 KECCAK256 PUSH1 0x0 ADD PUSH1 0x0 DUP3 DUP3 SLOAD ADD SWAP3 POP POP DUP2 SWAP1 SSTORE POP POP POP JUMP JUMPDEST PUSH1 0x0 PUSH8 0xDE0B6B3A7640000 DUP3 MUL SWAP1 POP SWAP2 SWAP1 POP JUMP JUMPDEST DUP3 DUP1 SLOAD PUSH1 0x1 DUP2 PUSH1 0x1 AND ISZERO PUSH2 0x100 MUL SUB AND PUSH1 0x2 SWAP1 DIV SWAP1 PUSH1 0x0 MSTORE PUSH1 0x20 PUSH1 0x0 KECCAK256 SWAP1 PUSH1 0x1F ADD PUSH1 0x20 SWAP1 DIV DUP2 ADD SWAP3 DUP3 PUSH1 0x1F LT PUSH2 0x1587 JUMPI DUP1 SLOAD DUP6 SSTORE PUSH2 0x15C4 JUMP JUMPDEST DUP3 DUP1 ADD PUSH1 0x1 ADD DUP6 SSTORE DUP3 ISZERO PUSH2 0x15C4 JUMPI PUSH1 0x0 MSTORE PUSH1 0x20 PUSH1 0x0 KECCAK256 SWAP2 PUSH1 0x1F ADD PUSH1 0x20 SWAP1 DIV DUP3 ADD JUMPDEST DUP3 DUP2 GT ISZERO PUSH2 0x15C3 JUMPI DUP3 SLOAD DUP3 SSTORE SWAP2 PUSH1 0x1 ADD SWAP2 SWAP1 PUSH1 0x1 ADD SWAP1 PUSH2 0x15A8 JUMP JUMPDEST JUMPDEST POP SWAP1 POP PUSH2 0x15D1 SWAP2 SWAP1 PUSH2 0x1655 JUMP JUMPDEST POP SWAP1 JUMP JUMPDEST DUP3 DUP1 SLOAD PUSH1 0x1 DUP2 PUSH1 0x1 AND ISZERO PUSH2 0x100 MUL SUB AND PUSH1 0x2 SWAP1 DIV SWAP1 PUSH1 0x0 MSTORE PUSH1 0x20 PUSH1 0x0 KECCAK256 SWAP1 PUSH1 0x1F ADD PUSH1 0x20 SWAP1 DIV DUP2 ADD SWAP3 DUP3 PUSH1 0x1F LT PUSH2 0x1616 JUMPI DUP1 MLOAD PUSH1 0xFF NOT AND DUP4 DUP1 ADD OR DUP6 SSTORE PUSH2 0x1644 JUMP JUMPDEST DUP3 DUP1 ADD PUSH1 0x1 ADD DUP6 SSTORE DUP3 ISZERO PUSH2 0x1644 JUMPI SWAP2 DUP3 ADD JUMPDEST DUP3 DUP2 GT ISZERO PUSH2 0x1643 JUMPI DUP3 MLOAD DUP3 SSTORE SWAP2 PUSH1 0x20 ADD SWAP2 SWAP1 PUSH1 0x1 ADD SWAP1 PUSH2 0x1628 JUMP JUMPDEST JUMPDEST POP SWAP1 POP PUSH2 0x1651 SWAP2 SWAP1 PUSH2 0x1655 JUMP JUMPDEST POP SWAP1 JUMP JUMPDEST JUMPDEST DUP1 DUP3 GT ISZERO PUSH2 0x166E JUMPI PUSH1 0x0 DUP2 PUSH1 0x0 SWAP1 SSTORE POP PUSH1 0x1 ADD PUSH2 0x1656 JUMP JUMPDEST POP SWAP1 JUMP JUMPDEST PUSH1 0x0 DUP2 CALLDATALOAD SWAP1 POP PUSH2 0x1681 DUP2 PUSH2 0x2410 JUMP JUMPDEST SWAP3 SWAP2 POP POP JUMP JUMPDEST PUSH1 0x0 DUP2 MLOAD SWAP1 POP PUSH2 0x1696 DUP2 PUSH2 0x2427 JUMP JUMPDEST SWAP3 SWAP2 POP POP JUMP JUMPDEST PUSH1 0x0 DUP3 PUSH1 0x1F DUP4 ADD SLT PUSH2 0x16AD JUMPI PUSH1 0x0 DUP1 REVERT JUMPDEST DUP2 CALLDATALOAD PUSH2 0x16C0 PUSH2 0x16BB DUP3 PUSH2 0x227B JUMP JUMPDEST PUSH2 0x224E JUMP JUMPDEST SWAP2 POP DUP1 DUP3 MSTORE PUSH1 0x20 DUP4 ADD PUSH1 0x20 DUP4 ADD DUP6 DUP4 DUP4 ADD GT ISZERO PUSH2 0x16DC JUMPI PUSH1 0x0 DUP1 REVERT JUMPDEST PUSH2 0x16E7 DUP4 DUP3 DUP5 PUSH2 0x23BD JUMP JUMPDEST POP POP POP SWAP3 SWAP2 POP POP JUMP JUMPDEST PUSH1 0x0 DUP2 CALLDATALOAD SWAP1 POP PUSH2 0x16FF DUP2 PUSH2 0x243E JUMP JUMPDEST SWAP3 SWAP2 POP POP JUMP JUMPDEST PUSH1 0x0 DUP2 MLOAD SWAP1 POP PUSH2 0x1714 DUP2 PUSH2 0x243E JUMP JUMPDEST SWAP3 SWAP2 POP POP JUMP JUMPDEST PUSH1 0x0 PUSH1 0x20 DUP3 DUP5 SUB SLT ISZERO PUSH2 0x172C JUMPI PUSH1 0x0 DUP1 REVERT JUMPDEST PUSH1 0x0 PUSH2 0x173A DUP5 DUP3 DUP6 ADD PUSH2 0x1672 JUMP JUMPDEST SWAP2 POP POP SWAP3 SWAP2 POP POP JUMP JUMPDEST PUSH1 0x0 PUSH1 0x20 DUP3 DUP5 SUB SLT ISZERO PUSH2 0x1755 JUMPI PUSH1 0x0 DUP1 REVERT JUMPDEST PUSH1 0x0 PUSH2 0x1763 DUP5 DUP3 DUP6 ADD PUSH2 0x1687 JUMP JUMPDEST SWAP2 POP POP SWAP3 SWAP2 POP POP JUMP JUMPDEST PUSH1 0x0 PUSH1 0x20 DUP3 DUP5 SUB SLT ISZERO PUSH2 0x177E JUMPI PUSH1 0x0 DUP1 REVERT JUMPDEST PUSH1 0x0 DUP3 ADD CALLDATALOAD PUSH8 0xFFFFFFFFFFFFFFFF DUP2 GT ISZERO PUSH2 0x1798 JUMPI PUSH1 0x0 DUP1 REVERT JUMPDEST PUSH2 0x17A4 DUP5 DUP3 DUP6 ADD PUSH2 0x169C JUMP JUMPDEST SWAP2 POP POP SWAP3 SWAP2 POP POP JUMP JUMPDEST PUSH1 0x0 DUP1 PUSH1 0x40 DUP4 DUP6 SUB SLT ISZERO PUSH2 0x17C0 JUMPI PUSH1 0x0 DUP1 REVERT JUMPDEST PUSH1 0x0 DUP4 ADD CALLDATALOAD PUSH8 0xFFFFFFFFFFFFFFFF DUP2 GT ISZERO PUSH2 0x17DA JUMPI PUSH1 0x0 DUP1 REVERT JUMPDEST PUSH2 0x17E6 DUP6 DUP3 DUP7 ADD PUSH2 0x169C JUMP JUMPDEST SWAP3 POP POP PUSH1 0x20 PUSH2 0x17F7 DUP6 DUP3 DUP7 ADD PUSH2 0x16F0 JUMP JUMPDEST SWAP2 POP POP SWAP3 POP SWAP3 SWAP1 POP JUMP JUMPDEST PUSH1 0x0 PUSH1 0x20 DUP3 DUP5 SUB SLT ISZERO PUSH2 0x1813 JUMPI PUSH1 0x0 DUP1 REVERT JUMPDEST PUSH1 0x0 PUSH2 0x1821 DUP5 DUP3 DUP6 ADD PUSH2 0x16F0 JUMP JUMPDEST SWAP2 POP POP SWAP3 SWAP2 POP POP JUMP JUMPDEST PUSH1 0x0 PUSH1 0x20 DUP3 DUP5 SUB SLT ISZERO PUSH2 0x183C JUMPI PUSH1 0x0 DUP1 REVERT JUMPDEST PUSH1 0x0 PUSH2 0x184A DUP5 DUP3 DUP6 ADD PUSH2 0x1705 JUMP JUMPDEST SWAP2 POP POP SWAP3 SWAP2 POP POP JUMP JUMPDEST PUSH1 0x0 PUSH2 0x185F DUP4 DUP4 PUSH2 0x1918 JUMP JUMPDEST SWAP1 POP SWAP3 SWAP2 POP POP JUMP JUMPDEST PUSH2 0x1870 DUP2 PUSH2 0x2387 JUMP JUMPDEST DUP3 MSTORE POP POP JUMP JUMPDEST PUSH2 0x187F DUP2 PUSH2 0x233F JUMP JUMPDEST DUP3 MSTORE POP POP JUMP JUMPDEST PUSH2 0x188E DUP2 PUSH2 0x232D JUMP JUMPDEST DUP3 MSTORE POP POP JUMP JUMPDEST PUSH1 0x0 PUSH2 0x189F DUP3 PUSH2 0x22CC JUMP JUMPDEST PUSH2 0x18A9 DUP2 DUP6 PUSH2 0x22EF JUMP JUMPDEST SWAP4 POP DUP4 PUSH1 0x20 DUP3 MUL DUP6 ADD PUSH2 0x18BB DUP6 PUSH2 0x22A7 JUMP JUMPDEST DUP1 PUSH1 0x0 JUMPDEST DUP6 DUP2 LT ISZERO PUSH2 0x18F7 JUMPI DUP5 DUP5 SUB DUP10 MSTORE DUP2 MLOAD PUSH2 0x18D8 DUP6 DUP3 PUSH2 0x1853 JUMP JUMPDEST SWAP5 POP PUSH2 0x18E3 DUP4 PUSH2 0x22E2 JUMP JUMPDEST SWAP3 POP PUSH1 0x20 DUP11 ADD SWAP10 POP POP PUSH1 0x1 DUP2 ADD SWAP1 POP PUSH2 0x18BF JUMP JUMPDEST POP DUP3 SWAP8 POP DUP8 SWAP6 POP POP POP POP POP POP SWAP3 SWAP2 POP POP JUMP JUMPDEST PUSH2 0x1912 DUP2 PUSH2 0x2351 JUMP JUMPDEST DUP3 MSTORE POP POP JUMP JUMPDEST PUSH1 0x0 PUSH2 0x1923 DUP3 PUSH2 0x22D7 JUMP JUMPDEST PUSH2 0x192D DUP2 DUP6 PUSH2 0x2300 JUMP JUMPDEST SWAP4 POP PUSH2 0x193D DUP2 DUP6 PUSH1 0x20 DUP7 ADD PUSH2 0x23CC JUMP JUMPDEST PUSH2 0x1946 DUP2 PUSH2 0x23FF JUMP JUMPDEST DUP5 ADD SWAP2 POP POP SWAP3 SWAP2 POP POP JUMP JUMPDEST PUSH1 0x0 PUSH2 0x195C DUP3 PUSH2 0x22D7 JUMP JUMPDEST PUSH2 0x1966 DUP2 DUP6 PUSH2 0x2311 JUMP JUMPDEST SWAP4 POP PUSH2 0x1976 DUP2 DUP6 PUSH1 0x20 DUP7 ADD PUSH2 0x23CC JUMP JUMPDEST PUSH2 0x197F DUP2 PUSH2 0x23FF JUMP JUMPDEST DUP5 ADD SWAP2 POP POP SWAP3 SWAP2 POP POP JUMP JUMPDEST PUSH1 0x0 PUSH2 0x1995 DUP3 PUSH2 0x22D7 JUMP JUMPDEST PUSH2 0x199F DUP2 DUP6 PUSH2 0x2322 JUMP JUMPDEST SWAP4 POP PUSH2 0x19AF DUP2 DUP6 PUSH1 0x20 DUP7 ADD PUSH2 0x23CC JUMP JUMPDEST DUP1 DUP5 ADD SWAP2 POP POP SWAP3 SWAP2 POP POP JUMP JUMPDEST PUSH1 0x0 DUP2 SLOAD PUSH1 0x1 DUP2 AND PUSH1 0x0 DUP2 EQ PUSH2 0x19D8 JUMPI PUSH1 0x1 DUP2 EQ PUSH2 0x19FE JUMPI PUSH2 0x1A42 JUMP JUMPDEST PUSH1 0x7F PUSH1 0x2 DUP4 DIV AND PUSH2 0x19E9 DUP2 DUP8 PUSH2 0x2311 JUMP JUMPDEST SWAP6 POP PUSH1 0xFF NOT DUP4 AND DUP7 MSTORE PUSH1 0x20 DUP7 ADD SWAP4 POP POP PUSH2 0x1A42 JUMP JUMPDEST PUSH1 0x2 DUP3 DIV PUSH2 0x1A0C DUP2 DUP8 PUSH2 0x2311 JUMP JUMPDEST SWAP6 POP PUSH2 0x1A17 DUP6 PUSH2 0x22B7 JUMP JUMPDEST PUSH1 0x0 JUMPDEST DUP3 DUP2 LT ISZERO PUSH2 0x1A39 JUMPI DUP2 SLOAD DUP2 DUP10 ADD MSTORE PUSH1 0x1 DUP3 ADD SWAP2 POP PUSH1 0x20 DUP2 ADD SWAP1 POP PUSH2 0x1A1A JUMP JUMPDEST DUP1 DUP9 ADD SWAP6 POP POP POP POP JUMPDEST POP POP SWAP3 SWAP2 POP POP JUMP JUMPDEST PUSH1 0x0 DUP2 SLOAD PUSH1 0x1 DUP2 AND PUSH1 0x0 DUP2 EQ PUSH2 0x1A67 JUMPI PUSH1 0x1 DUP2 EQ PUSH2 0x1A8C JUMPI PUSH2 0x1AD0 JUMP JUMPDEST PUSH1 0x7F PUSH1 0x2 DUP4 DIV AND PUSH2 0x1A78 DUP2 DUP8 PUSH2 0x2322 JUMP JUMPDEST SWAP6 POP PUSH1 0xFF NOT DUP4 AND DUP7 MSTORE DUP1 DUP7 ADD SWAP4 POP POP PUSH2 0x1AD0 JUMP JUMPDEST PUSH1 0x2 DUP3 DIV PUSH2 0x1A9A DUP2 DUP8 PUSH2 0x2322 JUMP JUMPDEST SWAP6 POP PUSH2 0x1AA5 DUP6 PUSH2 0x22B7 JUMP JUMPDEST PUSH1 0x0 JUMPDEST DUP3 DUP2 LT ISZERO PUSH2 0x1AC7 JUMPI DUP2 SLOAD DUP2 DUP10 ADD MSTORE PUSH1 0x1 DUP3 ADD SWAP2 POP PUSH1 0x20 DUP2 ADD SWAP1 POP PUSH2 0x1AA8 JUMP JUMPDEST DUP3 DUP9 ADD SWAP6 POP POP POP POP JUMPDEST POP POP SWAP3 SWAP2 POP POP JUMP JUMPDEST PUSH1 0x0 PUSH2 0x1AE5 PUSH1 0x23 DUP4 PUSH2 0x2311 JUMP JUMPDEST SWAP2 POP PUSH32 0x4C6120617472616363696F6E20656E20637565737469C3B36E206E6F20657869 PUSH1 0x0 DUP4 ADD MSTORE PUSH32 0x7374650000000000000000000000000000000000000000000000000000000000 PUSH1 0x20 DUP4 ADD MSTORE PUSH1 0x40 DUP3 ADD SWAP1 POP SWAP2 SWAP1 POP JUMP JUMPDEST PUSH1 0x0 PUSH2 0x1B4B PUSH1 0x1A DUP4 PUSH2 0x2311 JUMP JUMPDEST SWAP2 POP PUSH32 0x4E6F2068617920746F6B656E7320717565206465766F6C766572000000000000 PUSH1 0x0 DUP4 ADD MSTORE PUSH1 0x20 DUP3 ADD SWAP1 POP SWAP2 SWAP1 POP JUMP JUMPDEST PUSH1 0x0 PUSH2 0x1B8B PUSH1 0x3 DUP4 PUSH2 0x2322 JUMP JUMPDEST SWAP2 POP PUSH32 0x207C200000000000000000000000000000000000000000000000000000000000 PUSH1 0x0 DUP4 ADD MSTORE PUSH1 0x3 DUP3 ADD SWAP1 POP SWAP2 SWAP1 POP JUMP JUMPDEST PUSH1 0x0 PUSH2 0x1BCB PUSH1 0x14 DUP4 PUSH2 0x2311 JUMP JUMPDEST SWAP2 POP PUSH32 0x546F6B656E7320696E737566696369656E746573000000000000000000000000 PUSH1 0x0 DUP4 ADD MSTORE PUSH1 0x20 DUP3 ADD SWAP1 POP SWAP2 SWAP1 POP JUMP JUMPDEST PUSH1 0x0 PUSH2 0x1C0B PUSH1 0x33 DUP4 PUSH2 0x2311 JUMP JUMPDEST SWAP2 POP PUSH32 0x4C6120617472616363696F6E20656E206375657374696F6E206E6F2073652065 PUSH1 0x0 DUP4 ADD MSTORE PUSH32 0x6E6375656E74726120646973706F6E69626C6500000000000000000000000000 PUSH1 0x20 DUP4 ADD MSTORE PUSH1 0x40 DUP3 ADD SWAP1 POP SWAP2 SWAP1 POP JUMP JUMPDEST PUSH1 0x0 PUSH2 0x1C71 PUSH1 0x1E DUP4 PUSH2 0x2311 JUMP JUMPDEST SWAP2 POP PUSH32 0x43616E746964616420646520657468657220696E737566696369656E74650000 PUSH1 0x0 DUP4 ADD MSTORE PUSH1 0x20 DUP3 ADD SWAP1 POP SWAP2 SWAP1 POP JUMP JUMPDEST PUSH1 0x0 PUSH2 0x1CB1 PUSH1 0x20 DUP4 PUSH2 0x2311 JUMP JUMPDEST SWAP2 POP PUSH32 0x43616E746964616420646520746F6B656E7320696E737566696369656E746573 PUSH1 0x0 DUP4 ADD MSTORE PUSH1 0x20 DUP3 ADD SWAP1 POP SWAP2 SWAP1 POP JUMP JUMPDEST PUSH1 0x0 PUSH2 0x1CF1 PUSH1 0x3B DUP4 PUSH2 0x2311 JUMP JUMPDEST SWAP2 POP PUSH32 0x4E6F207365207075656465206461722064652062616A61206120756E61206174 PUSH1 0x0 DUP4 ADD MSTORE PUSH32 0x72616363696F6E2071756520796120657374612064652062616A610000000000 PUSH1 0x20 DUP4 ADD MSTORE PUSH1 0x40 DUP3 ADD SWAP1 POP SWAP2 SWAP1 POP JUMP JUMPDEST PUSH1 0x0 PUSH2 0x1D57 PUSH1 0x40 DUP4 PUSH2 0x2311 JUMP JUMPDEST SWAP2 POP PUSH32 0x4E6F2073652070756564652064617220646520616C7461206120756E61206174 PUSH1 0x0 DUP4 ADD MSTORE PUSH32 0x72616363696F6E207175652079612065737461206461646120646520616C7461 PUSH1 0x20 DUP4 ADD MSTORE PUSH1 0x40 DUP3 ADD SWAP1 POP SWAP2 SWAP1 POP JUMP JUMPDEST PUSH1 0x0 PUSH2 0x1DBD PUSH1 0x2C DUP4 PUSH2 0x2311 JUMP JUMPDEST SWAP2 POP PUSH32 0x4E6F207469656E6573207065726D69736F207061726120656A65637574617220 PUSH1 0x0 DUP4 ADD MSTORE PUSH32 0x657374612061636369C3B36E0000000000000000000000000000000000000000 PUSH1 0x20 DUP4 ADD MSTORE PUSH1 0x40 DUP3 ADD SWAP1 POP SWAP2 SWAP1 POP JUMP JUMPDEST PUSH1 0x0 PUSH2 0x1E23 PUSH1 0x35 DUP4 PUSH2 0x2311 JUMP JUMPDEST SWAP2 POP PUSH32 0x4E6F207365207075656465206461722064652062616A61206120756E61206174 PUSH1 0x0 DUP4 ADD MSTORE PUSH32 0x72616363696F6E20717565206E6F206578697374610000000000000000000000 PUSH1 0x20 DUP4 ADD MSTORE PUSH1 0x40 DUP3 ADD SWAP1 POP SWAP2 SWAP1 POP JUMP JUMPDEST PUSH1 0x0 PUSH2 0x1E89 PUSH1 0x35 DUP4 PUSH2 0x2311 JUMP JUMPDEST SWAP2 POP PUSH32 0x4E6F2073652070756564652064617220646520616C7461206120756E61206174 PUSH1 0x0 DUP4 ADD MSTORE PUSH32 0x72616363696F6E20717565206E6F206578697374610000000000000000000000 PUSH1 0x20 DUP4 ADD MSTORE PUSH1 0x40 DUP3 ADD SWAP1 POP SWAP2 SWAP1 POP JUMP JUMPDEST PUSH2 0x1EEB DUP2 PUSH2 0x237D JUMP JUMPDEST DUP3 MSTORE POP POP JUMP JUMPDEST PUSH1 0x0 PUSH2 0x1EFD DUP3 DUP5 PUSH2 0x198A JUMP JUMPDEST SWAP2 POP DUP2 SWAP1 POP SWAP3 SWAP2 POP POP JUMP JUMPDEST PUSH1 0x0 PUSH2 0x1F14 DUP3 DUP6 PUSH2 0x198A JUMP JUMPDEST SWAP2 POP PUSH2 0x1F1F DUP3 PUSH2 0x1B7E JUMP JUMPDEST SWAP2 POP PUSH2 0x1F2B DUP3 DUP5 PUSH2 0x1A4A JUMP JUMPDEST SWAP2 POP DUP2 SWAP1 POP SWAP4 SWAP3 POP POP POP JUMP JUMPDEST PUSH1 0x0 PUSH2 0x1F43 DUP3 DUP5 PUSH2 0x1A4A JUMP JUMPDEST SWAP2 POP DUP2 SWAP1 POP SWAP3 SWAP2 POP POP JUMP JUMPDEST PUSH1 0x0 PUSH1 0x20 DUP3 ADD SWAP1 POP PUSH2 0x1F63 PUSH1 0x0 DUP4 ADD DUP5 PUSH2 0x1885 JUMP JUMPDEST SWAP3 SWAP2 POP POP JUMP JUMPDEST PUSH1 0x0 PUSH1 0x20 DUP3 ADD SWAP1 POP PUSH2 0x1F7E PUSH1 0x0 DUP4 ADD DUP5 PUSH2 0x1867 JUMP JUMPDEST SWAP3 SWAP2 POP POP JUMP JUMPDEST PUSH1 0x0 PUSH1 0x20 DUP3 ADD SWAP1 POP PUSH2 0x1F99 PUSH1 0x0 DUP4 ADD DUP5 PUSH2 0x1876 JUMP JUMPDEST SWAP3 SWAP2 POP POP JUMP JUMPDEST PUSH1 0x0 PUSH1 0x60 DUP3 ADD SWAP1 POP PUSH2 0x1FB4 PUSH1 0x0 DUP4 ADD DUP7 PUSH2 0x1867 JUMP JUMPDEST PUSH2 0x1FC1 PUSH1 0x20 DUP4 ADD DUP6 PUSH2 0x1885 JUMP JUMPDEST PUSH2 0x1FCE PUSH1 0x40 DUP4 ADD DUP5 PUSH2 0x1EE2 JUMP JUMPDEST SWAP5 SWAP4 POP POP POP POP JUMP JUMPDEST PUSH1 0x0 PUSH1 0x40 DUP3 ADD SWAP1 POP PUSH2 0x1FEB PUSH1 0x0 DUP4 ADD DUP6 PUSH2 0x1867 JUMP JUMPDEST PUSH2 0x1FF8 PUSH1 0x20 DUP4 ADD DUP5 PUSH2 0x1EE2 JUMP JUMPDEST SWAP4 SWAP3 POP POP POP JUMP JUMPDEST PUSH1 0x0 PUSH1 0x20 DUP3 ADD SWAP1 POP DUP2 DUP2 SUB PUSH1 0x0 DUP4 ADD MSTORE PUSH2 0x2019 DUP2 DUP5 PUSH2 0x1894 JUMP JUMPDEST SWAP1 POP SWAP3 SWAP2 POP POP JUMP JUMPDEST PUSH1 0x0 PUSH1 0x20 DUP3 ADD SWAP1 POP DUP2 DUP2 SUB PUSH1 0x0 DUP4 ADD MSTORE PUSH2 0x203B DUP2 DUP5 PUSH2 0x1951 JUMP JUMPDEST SWAP1 POP SWAP3 SWAP2 POP POP JUMP JUMPDEST PUSH1 0x0 PUSH1 0x40 DUP3 ADD SWAP1 POP DUP2 DUP2 SUB PUSH1 0x0 DUP4 ADD MSTORE PUSH2 0x205D DUP2 DUP6 PUSH2 0x1951 JUMP JUMPDEST SWAP1 POP PUSH2 0x206C PUSH1 0x20 DUP4 ADD DUP5 PUSH2 0x1EE2 JUMP JUMPDEST SWAP4 SWAP3 POP POP POP JUMP JUMPDEST PUSH1 0x0 PUSH1 0x60 DUP3 ADD SWAP1 POP DUP2 DUP2 SUB PUSH1 0x0 DUP4 ADD MSTORE PUSH2 0x208D DUP2 DUP7 PUSH2 0x1951 JUMP JUMPDEST SWAP1 POP PUSH2 0x209C PUSH1 0x20 DUP4 ADD DUP6 PUSH2 0x1EE2 JUMP JUMPDEST PUSH2 0x20A9 PUSH1 0x40 DUP4 ADD DUP5 PUSH2 0x1909 JUMP JUMPDEST SWAP5 SWAP4 POP POP POP POP JUMP JUMPDEST PUSH1 0x0 PUSH1 0x20 DUP3 ADD SWAP1 POP DUP2 DUP2 SUB PUSH1 0x0 DUP4 ADD MSTORE PUSH2 0x20CB DUP2 DUP5 PUSH2 0x19BB JUMP JUMPDEST SWAP1 POP SWAP3 SWAP2 POP POP JUMP JUMPDEST PUSH1 0x0 PUSH1 0x20 DUP3 ADD SWAP1 POP DUP2 DUP2 SUB PUSH1 0x0 DUP4 ADD MSTORE PUSH2 0x20EC DUP2 PUSH2 0x1AD8 JUMP JUMPDEST SWAP1 POP SWAP2 SWAP1 POP JUMP JUMPDEST PUSH1 0x0 PUSH1 0x20 DUP3 ADD SWAP1 POP DUP2 DUP2 SUB PUSH1 0x0 DUP4 ADD MSTORE PUSH2 0x210C DUP2 PUSH2 0x1B3E JUMP JUMPDEST SWAP1 POP SWAP2 SWAP1 POP JUMP JUMPDEST PUSH1 0x0 PUSH1 0x20 DUP3 ADD SWAP1 POP DUP2 DUP2 SUB PUSH1 0x0 DUP4 ADD MSTORE PUSH2 0x212C DUP2 PUSH2 0x1BBE JUMP JUMPDEST SWAP1 POP SWAP2 SWAP1 POP JUMP JUMPDEST PUSH1 0x0 PUSH1 0x20 DUP3 ADD SWAP1 POP DUP2 DUP2 SUB PUSH1 0x0 DUP4 ADD MSTORE PUSH2 0x214C DUP2 PUSH2 0x1BFE JUMP JUMPDEST SWAP1 POP SWAP2 SWAP1 POP JUMP JUMPDEST PUSH1 0x0 PUSH1 0x20 DUP3 ADD SWAP1 POP DUP2 DUP2 SUB PUSH1 0x0 DUP4 ADD MSTORE PUSH2 0x216C DUP2 PUSH2 0x1C64 JUMP JUMPDEST SWAP1 POP SWAP2 SWAP1 POP JUMP JUMPDEST PUSH1 0x0 PUSH1 0x20 DUP3 ADD SWAP1 POP DUP2 DUP2 SUB PUSH1 0x0 DUP4 ADD MSTORE PUSH2 0x218C DUP2 PUSH2 0x1CA4 JUMP JUMPDEST SWAP1 POP SWAP2 SWAP1 POP JUMP JUMPDEST PUSH1 0x0 PUSH1 0x20 DUP3 ADD SWAP1 POP DUP2 DUP2 SUB PUSH1 0x0 DUP4 ADD MSTORE PUSH2 0x21AC DUP2 PUSH2 0x1CE4 JUMP JUMPDEST SWAP1 POP SWAP2 SWAP1 POP JUMP JUMPDEST PUSH1 0x0 PUSH1 0x20 DUP3 ADD SWAP1 POP DUP2 DUP2 SUB PUSH1 0x0 DUP4 ADD MSTORE PUSH2 0x21CC DUP2 PUSH2 0x1D4A JUMP JUMPDEST SWAP1 POP SWAP2 SWAP1 POP JUMP JUMPDEST PUSH1 0x0 PUSH1 0x20 DUP3 ADD SWAP1 POP DUP2 DUP2 SUB PUSH1 0x0 DUP4 ADD MSTORE PUSH2 0x21EC DUP2 PUSH2 0x1DB0 JUMP JUMPDEST SWAP1 POP SWAP2 SWAP1 POP JUMP JUMPDEST PUSH1 0x0 PUSH1 0x20 DUP3 ADD SWAP1 POP DUP2 DUP2 SUB PUSH1 0x0 DUP4 ADD MSTORE PUSH2 0x220C DUP2 PUSH2 0x1E16 JUMP JUMPDEST SWAP1 POP SWAP2 SWAP1 POP JUMP JUMPDEST PUSH1 0x0 PUSH1 0x20 DUP3 ADD SWAP1 POP DUP2 DUP2 SUB PUSH1 0x0 DUP4 ADD MSTORE PUSH2 0x222C DUP2 PUSH2 0x1E7C JUMP JUMPDEST SWAP1 POP SWAP2 SWAP1 POP JUMP JUMPDEST PUSH1 0x0 PUSH1 0x20 DUP3 ADD SWAP1 POP PUSH2 0x2248 PUSH1 0x0 DUP4 ADD DUP5 PUSH2 0x1EE2 JUMP JUMPDEST SWAP3 SWAP2 POP POP JUMP JUMPDEST PUSH1 0x0 PUSH1 0x40 MLOAD SWAP1 POP DUP2 DUP2 ADD DUP2 DUP2 LT PUSH8 0xFFFFFFFFFFFFFFFF DUP3 GT OR ISZERO PUSH2 0x2271 JUMPI PUSH1 0x0 DUP1 REVERT JUMPDEST DUP1 PUSH1 0x40 MSTORE POP SWAP2 SWAP1 POP JUMP JUMPDEST PUSH1 0x0 PUSH8 0xFFFFFFFFFFFFFFFF DUP3 GT ISZERO PUSH2 0x2292 JUMPI PUSH1 0x0 DUP1 REVERT JUMPDEST PUSH1 0x1F NOT PUSH1 0x1F DUP4 ADD AND SWAP1 POP PUSH1 0x20 DUP2 ADD SWAP1 POP SWAP2 SWAP1 POP JUMP JUMPDEST PUSH1 0x0 DUP2 SWAP1 POP PUSH1 0x20 DUP3 ADD SWAP1 POP SWAP2 SWAP1 POP JUMP JUMPDEST PUSH1 0x0 DUP2 SWAP1 POP DUP2 PUSH1 0x0 MSTORE PUSH1 0x20 PUSH1 0x0 KECCAK256 SWAP1 POP SWAP2 SWAP1 POP JUMP JUMPDEST PUSH1 0x0 DUP2 MLOAD SWAP1 POP SWAP2 SWAP1 POP JUMP JUMPDEST PUSH1 0x0 DUP2 MLOAD SWAP1 POP SWAP2 SWAP1 POP JUMP JUMPDEST PUSH1 0x0 PUSH1 0x20 DUP3 ADD SWAP1 POP SWAP2 SWAP1 POP JUMP JUMPDEST PUSH1 0x0 DUP3 DUP3 MSTORE PUSH1 0x20 DUP3 ADD SWAP1 POP SWAP3 SWAP2 POP POP JUMP JUMPDEST PUSH1 0x0 DUP3 DUP3 MSTORE PUSH1 0x20 DUP3 ADD SWAP1 POP SWAP3 SWAP2 POP POP JUMP JUMPDEST PUSH1 0x0 DUP3 DUP3 MSTORE PUSH1 0x20 DUP3 ADD SWAP1 POP SWAP3 SWAP2 POP POP JUMP JUMPDEST PUSH1 0x0 DUP2 SWAP1 POP SWAP3 SWAP2 POP POP JUMP JUMPDEST PUSH1 0x0 PUSH2 0x2338 DUP3 PUSH2 0x235D JUMP JUMPDEST SWAP1 POP SWAP2 SWAP1 POP JUMP JUMPDEST PUSH1 0x0 PUSH2 0x234A DUP3 PUSH2 0x235D JUMP JUMPDEST SWAP1 POP SWAP2 SWAP1 POP JUMP JUMPDEST PUSH1 0x0 DUP2 ISZERO ISZERO SWAP1 POP SWAP2 SWAP1 POP JUMP JUMPDEST PUSH1 0x0 PUSH20 0xFFFFFFFFFFFFFFFFFFFFFFFFFFFFFFFFFFFFFFFF DUP3 AND SWAP1 POP SWAP2 SWAP1 POP JUMP JUMPDEST PUSH1 0x0 DUP2 SWAP1 POP SWAP2 SWAP1 POP JUMP JUMPDEST PUSH1 0x0 PUSH2 0x2392 DUP3 PUSH2 0x2399 JUMP JUMPDEST SWAP1 POP SWAP2 SWAP1 POP JUMP JUMPDEST PUSH1 0x0 PUSH2 0x23A4 DUP3 PUSH2 0x23AB JUMP JUMPDEST SWAP1 POP SWAP2 SWAP1 POP JUMP JUMPDEST PUSH1 0x0 PUSH2 0x23B6 DUP3 PUSH2 0x235D JUMP JUMPDEST SWAP1 POP SWAP2 SWAP1 POP JUMP JUMPDEST DUP3 DUP2 DUP4 CALLDATACOPY PUSH1 0x0 DUP4 DUP4 ADD MSTORE POP POP POP JUMP JUMPDEST PUSH1 0x0 JUMPDEST DUP4 DUP2 LT ISZERO PUSH2 0x23EA JUMPI DUP1 DUP3 ADD MLOAD DUP2 DUP5 ADD MSTORE PUSH1 0x20 DUP2 ADD SWAP1 POP PUSH2 0x23CF JUMP JUMPDEST DUP4 DUP2 GT ISZERO PUSH2 0x23F9 JUMPI PUSH1 0x0 DUP5 DUP5 ADD MSTORE JUMPDEST POP POP POP POP JUMP JUMPDEST PUSH1 0x0 PUSH1 0x1F NOT PUSH1 0x1F DUP4 ADD AND SWAP1 POP SWAP2 SWAP1 POP JUMP JUMPDEST PUSH2 0x2419 DUP2 PUSH2 0x232D JUMP JUMPDEST DUP2 EQ PUSH2 0x2424 JUMPI PUSH1 0x0 DUP1 REVERT JUMPDEST POP JUMP JUMPDEST PUSH2 0x2430 DUP2 PUSH2 0x2351 JUMP JUMPDEST DUP2 EQ PUSH2 0x243B JUMPI PUSH1 0x0 DUP1 REVERT JUMPDEST POP JUMP JUMPDEST PUSH2 0x2447 DUP2 PUSH2 0x237D JUMP JUMPDEST DUP2 EQ PUSH2 0x2452 JUMPI PUSH1 0x0 DUP1 REVERT JUMPDEST POP JUMP INVALID LOG2 PUSH5 0x6970667358 0x22 SLT KECCAK256 0xD9 0xE5 PC PUSH14 0x680F557669F309902F4741BBE3C4 PUSH10 0xA19337DFE94AA09EDD09 0x5E 0x4F 0xF PUSH5 0x736F6C6343 STOP MOD 0xC STOP CALLER PUSH1 0x80 PUSH1 0x40 MSTORE CALLVALUE DUP1 ISZERO PUSH2 0x10 JUMPI PUSH1 0x0 DUP1 REVERT JUMPDEST POP PUSH1 0x40 MLOAD PUSH2 0x109D CODESIZE SUB DUP1 PUSH2 0x109D DUP4 CODECOPY DUP2 DUP2 ADD PUSH1 0x40 MSTORE DUP2 ADD SWAP1 PUSH2 0x32 SWAP2 SWAP1 PUSH2 0x99 JUMP JUMPDEST DUP1 PUSH1 0x2 DUP2 SWAP1 SSTORE POP PUSH1 0x2 SLOAD PUSH1 0x0 DUP1 CALLER PUSH20 0xFFFFFFFFFFFFFFFFFFFFFFFFFFFFFFFFFFFFFFFF AND PUSH20 0xFFFFFFFFFFFFFFFFFFFFFFFFFFFFFFFFFFFFFFFF AND DUP2 MSTORE PUSH1 0x20 ADD SWAP1 DUP2 MSTORE PUSH1 0x20 ADD PUSH1 0x0 KECCAK256 DUP2 SWAP1 SSTORE POP POP PUSH2 0xE3 JUMP JUMPDEST PUSH1 0x0 DUP2 MLOAD SWAP1 POP PUSH2 0x93 DUP2 PUSH2 0xCC JUMP JUMPDEST SWAP3 SWAP2 POP POP JUMP JUMPDEST PUSH1 0x0 PUSH1 0x20 DUP3 DUP5 SUB SLT ISZERO PUSH2 0xAB JUMPI PUSH1 0x0 DUP1 REVERT JUMPDEST PUSH1 0x0 PUSH2 0xB9 DUP5 DUP3 DUP6 ADD PUSH2 0x84 JUMP JUMPDEST SWAP2 POP POP SWAP3 SWAP2 POP POP JUMP JUMPDEST PUSH1 0x0 DUP2 SWAP1 POP SWAP2 SWAP1 POP JUMP JUMPDEST PUSH2 0xD5 DUP2 PUSH2 0xC2 JUMP JUMPDEST DUP2 EQ PUSH2 0xE0 JUMPI PUSH1 0x0 DUP1 REVERT JUMPDEST POP JUMP JUMPDEST PUSH2 0xFAB DUP1 PUSH2 0xF2 PUSH1 0x0 CODECOPY PUSH1 0x0 RETURN INVALID PUSH1 0x80 PUSH1 0x40 MSTORE CALLVALUE DUP1 ISZERO PUSH2 0x10 JUMPI PUSH1 0x0 DUP1 REVERT JUMPDEST POP PUSH1 0x4 CALLDATASIZE LT PUSH2 0xA9 JUMPI PUSH1 0x0 CALLDATALOAD PUSH1 0xE0 SHR DUP1 PUSH4 0x313CE567 GT PUSH2 0x71 JUMPI DUP1 PUSH4 0x313CE567 EQ PUSH2 0x166 JUMPI DUP1 PUSH4 0x70A08231 EQ PUSH2 0x184 JUMPI DUP1 PUSH4 0x95D89B41 EQ PUSH2 0x1B4 JUMPI DUP1 PUSH4 0xA9059CBB EQ PUSH2 0x1D2 JUMPI DUP1 PUSH4 0xDD62ED3E EQ PUSH2 0x202 JUMPI DUP1 PUSH4 0xEF910460 EQ PUSH2 0x232 JUMPI PUSH2 0xA9 JUMP JUMPDEST DUP1 PUSH4 0x6FDDE03 EQ PUSH2 0xAE JUMPI DUP1 PUSH4 0x95EA7B3 EQ PUSH2 0xCC JUMPI DUP1 PUSH4 0x18160DDD EQ PUSH2 0xFC JUMPI DUP1 PUSH4 0x1D43CC98 EQ PUSH2 0x11A JUMPI DUP1 PUSH4 0x23B872DD EQ PUSH2 0x136 JUMPI JUMPDEST PUSH1 0x0 DUP1 REVERT JUMPDEST PUSH2 0xB6 PUSH2 0x262 JUMP JUMPDEST PUSH1 0x40 MLOAD PUSH2 0xC3 SWAP2 SWAP1 PUSH2 0xE3A JUMP JUMPDEST PUSH1 0x40 MLOAD DUP1 SWAP2 SUB SWAP1 RETURN JUMPDEST PUSH2 0xE6 PUSH1 0x4 DUP1 CALLDATASIZE SUB DUP2 ADD SWAP1 PUSH2 0xE1 SWAP2 SWAP1 PUSH2 0xD54 JUMP JUMPDEST PUSH2 0x29B JUMP JUMPDEST PUSH1 0x40 MLOAD PUSH2 0xF3 SWAP2 SWAP1 PUSH2 0xE1F JUMP JUMPDEST PUSH1 0x40 MLOAD DUP1 SWAP2 SUB SWAP1 RETURN JUMPDEST PUSH2 0x104 PUSH2 0x38D JUMP JUMPDEST PUSH1 0x40 MLOAD PUSH2 0x111 SWAP2 SWAP1 PUSH2 0xE5C JUMP JUMPDEST PUSH1 0x40 MLOAD DUP1 SWAP2 SUB SWAP1 RETURN JUMPDEST PUSH2 0x134 PUSH1 0x4 DUP1 CALLDATASIZE SUB DUP2 ADD SWAP1 PUSH2 0x12F SWAP2 SWAP1 PUSH2 0xD90 JUMP JUMPDEST PUSH2 0x397 JUMP JUMPDEST STOP JUMPDEST PUSH2 0x150 PUSH1 0x4 DUP1 CALLDATASIZE SUB DUP2 ADD SWAP1 PUSH2 0x14B SWAP2 SWAP1 PUSH2 0xD05 JUMP JUMPDEST PUSH2 0x3F6 JUMP JUMPDEST PUSH1 0x40 MLOAD PUSH2 0x15D SWAP2 SWAP1 PUSH2 0xE1F JUMP JUMPDEST PUSH1 0x40 MLOAD DUP1 SWAP2 SUB SWAP1 RETURN JUMPDEST PUSH2 0x16E PUSH2 0x771 JUMP JUMPDEST PUSH1 0x40 MLOAD PUSH2 0x17B SWAP2 SWAP1 PUSH2 0xE77 JUMP JUMPDEST PUSH1 0x40 MLOAD DUP1 SWAP2 SUB SWAP1 RETURN JUMPDEST PUSH2 0x19E PUSH1 0x4 DUP1 CALLDATASIZE SUB DUP2 ADD SWAP1 PUSH2 0x199 SWAP2 SWAP1 PUSH2 0xCA0 JUMP JUMPDEST PUSH2 0x776 JUMP JUMPDEST PUSH1 0x40 MLOAD PUSH2 0x1AB SWAP2 SWAP1 PUSH2 0xE5C JUMP JUMPDEST PUSH1 0x40 MLOAD DUP1 SWAP2 SUB SWAP1 RETURN JUMPDEST PUSH2 0x1BC PUSH2 0x7BE JUMP JUMPDEST PUSH1 0x40 MLOAD PUSH2 0x1C9 SWAP2 SWAP1 PUSH2 0xE3A JUMP JUMPDEST PUSH1 0x40 MLOAD DUP1 SWAP2 SUB SWAP1 RETURN JUMPDEST PUSH2 0x1EC PUSH1 0x4 DUP1 CALLDATASIZE SUB DUP2 ADD SWAP1 PUSH2 0x1E7 SWAP2 SWAP1 PUSH2 0xD54 JUMP JUMPDEST PUSH2 0x7F7 JUMP JUMPDEST PUSH1 0x40 MLOAD PUSH2 0x1F9 SWAP2 SWAP1 PUSH2 0xE1F JUMP JUMPDEST PUSH1 0x40 MLOAD DUP1 SWAP2 SUB SWAP1 RETURN JUMPDEST PUSH2 0x21C PUSH1 0x4 DUP1 CALLDATASIZE SUB DUP2 ADD SWAP1 PUSH2 0x217 SWAP2 SWAP1 PUSH2 0xCC9 JUMP JUMPDEST PUSH2 0x9D9 JUMP JUMPDEST PUSH1 0x40 MLOAD PUSH2 0x229 SWAP2 SWAP1 PUSH2 0xE5C JUMP JUMPDEST PUSH1 0x40 MLOAD DUP1 SWAP2 SUB SWAP1 RETURN JUMPDEST PUSH2 0x24C PUSH1 0x4 DUP1 CALLDATASIZE SUB DUP2 ADD SWAP1 PUSH2 0x247 SWAP2 SWAP1 PUSH2 0xD05 JUMP JUMPDEST PUSH2 0xA60 JUMP JUMPDEST PUSH1 0x40 MLOAD PUSH2 0x259 SWAP2 SWAP1 PUSH2 0xE1F JUMP JUMPDEST PUSH1 0x40 MLOAD DUP1 SWAP2 SUB SWAP1 RETURN JUMPDEST PUSH1 0x40 MLOAD DUP1 PUSH1 0x40 ADD PUSH1 0x40 MSTORE DUP1 PUSH1 0xC DUP2 MSTORE PUSH1 0x20 ADD PUSH32 0x4552433230414B414C75676F0000000000000000000000000000000000000000 DUP2 MSTORE POP DUP2 JUMP JUMPDEST PUSH1 0x0 DUP2 PUSH1 0x1 PUSH1 0x0 CALLER PUSH20 0xFFFFFFFFFFFFFFFFFFFFFFFFFFFFFFFFFFFFFFFF AND PUSH20 0xFFFFFFFFFFFFFFFFFFFFFFFFFFFFFFFFFFFFFFFF AND DUP2 MSTORE PUSH1 0x20 ADD SWAP1 DUP2 MSTORE PUSH1 0x20 ADD PUSH1 0x0 KECCAK256 PUSH1 0x0 DUP6 PUSH20 0xFFFFFFFFFFFFFFFFFFFFFFFFFFFFFFFFFFFFFFFF AND PUSH20 0xFFFFFFFFFFFFFFFFFFFFFFFFFFFFFFFFFFFFFFFF AND DUP2 MSTORE PUSH1 0x20 ADD SWAP1 DUP2 MSTORE PUSH1 0x20 ADD PUSH1 0x0 KECCAK256 DUP2 SWAP1 SSTORE POP DUP3 PUSH20 0xFFFFFFFFFFFFFFFFFFFFFFFFFFFFFFFFFFFFFFFF AND CALLER PUSH20 0xFFFFFFFFFFFFFFFFFFFFFFFFFFFFFFFFFFFFFFFF AND PUSH32 0x8C5BE1E5EBEC7D5BD14F71427D1E84F3DD0314C0F7B2291E5B200AC8C7C3B925 DUP5 PUSH1 0x40 MLOAD PUSH2 0x37B SWAP2 SWAP1 PUSH2 0xE5C JUMP JUMPDEST PUSH1 0x40 MLOAD DUP1 SWAP2 SUB SWAP1 LOG3 PUSH1 0x1 SWAP1 POP SWAP3 SWAP2 POP POP JUMP JUMPDEST PUSH1 0x0 PUSH1 0x2 SLOAD SWAP1 POP SWAP1 JUMP JUMPDEST DUP1 PUSH1 0x2 PUSH1 0x0 DUP3 DUP3 SLOAD ADD SWAP3 POP POP DUP2 SWAP1 SSTORE POP DUP1 PUSH1 0x0 DUP1 CALLER PUSH20 0xFFFFFFFFFFFFFFFFFFFFFFFFFFFFFFFFFFFFFFFF AND PUSH20 0xFFFFFFFFFFFFFFFFFFFFFFFFFFFFFFFFFFFFFFFF AND DUP2 MSTORE PUSH1 0x20 ADD SWAP1 DUP2 MSTORE PUSH1 0x20 ADD PUSH1 0x0 KECCAK256 PUSH1 0x0 DUP3 DUP3 SLOAD ADD SWAP3 POP POP DUP2 SWAP1 SSTORE POP POP JUMP JUMPDEST PUSH1 0x0 DUP2 PUSH1 0x0 DUP1 DUP7 PUSH20 0xFFFFFFFFFFFFFFFFFFFFFFFFFFFFFFFFFFFFFFFF AND PUSH20 0xFFFFFFFFFFFFFFFFFFFFFFFFFFFFFFFFFFFFFFFF AND DUP2 MSTORE PUSH1 0x20 ADD SWAP1 DUP2 MSTORE PUSH1 0x20 ADD PUSH1 0x0 KECCAK256 SLOAD LT ISZERO PUSH2 0x443 JUMPI PUSH1 0x0 DUP1 REVERT JUMPDEST DUP2 PUSH1 0x1 PUSH1 0x0 DUP7 PUSH20 0xFFFFFFFFFFFFFFFFFFFFFFFFFFFFFFFFFFFFFFFF AND PUSH20 0xFFFFFFFFFFFFFFFFFFFFFFFFFFFFFFFFFFFFFFFF AND DUP2 MSTORE PUSH1 0x20 ADD SWAP1 DUP2 MSTORE PUSH1 0x20 ADD PUSH1 0x0 KECCAK256 PUSH1 0x0 CALLER PUSH20 0xFFFFFFFFFFFFFFFFFFFFFFFFFFFFFFFFFFFFFFFF AND PUSH20 0xFFFFFFFFFFFFFFFFFFFFFFFFFFFFFFFFFFFFFFFF AND DUP2 MSTORE PUSH1 0x20 ADD SWAP1 DUP2 MSTORE PUSH1 0x20 ADD PUSH1 0x0 KECCAK256 SLOAD LT ISZERO PUSH2 0x4CC JUMPI PUSH1 0x0 DUP1 REVERT JUMPDEST PUSH2 0x51D DUP3 PUSH1 0x0 DUP1 DUP8 PUSH20 0xFFFFFFFFFFFFFFFFFFFFFFFFFFFFFFFFFFFFFFFF AND PUSH20 0xFFFFFFFFFFFFFFFFFFFFFFFFFFFFFFFFFFFFFFFF AND DUP2 MSTORE PUSH1 0x20 ADD SWAP1 DUP2 MSTORE PUSH1 0x20 ADD PUSH1 0x0 KECCAK256 SLOAD PUSH2 0xC43 SWAP1 SWAP2 SWAP1 PUSH4 0xFFFFFFFF AND JUMP JUMPDEST PUSH1 0x0 DUP1 DUP7 PUSH20 0xFFFFFFFFFFFFFFFFFFFFFFFFFFFFFFFFFFFFFFFF AND PUSH20 0xFFFFFFFFFFFFFFFFFFFFFFFFFFFFFFFFFFFFFFFF AND DUP2 MSTORE PUSH1 0x20 ADD SWAP1 DUP2 MSTORE PUSH1 0x20 ADD PUSH1 0x0 KECCAK256 DUP2 SWAP1 SSTORE POP PUSH2 0x5EE DUP3 PUSH1 0x1 PUSH1 0x0 DUP8 PUSH20 0xFFFFFFFFFFFFFFFFFFFFFFFFFFFFFFFFFFFFFFFF AND PUSH20 0xFFFFFFFFFFFFFFFFFFFFFFFFFFFFFFFFFFFFFFFF AND DUP2 MSTORE PUSH1 0x20 ADD SWAP1 DUP2 MSTORE PUSH1 0x20 ADD PUSH1 0x0 KECCAK256 PUSH1 0x0 CALLER PUSH20 0xFFFFFFFFFFFFFFFFFFFFFFFFFFFFFFFFFFFFFFFF AND PUSH20 0xFFFFFFFFFFFFFFFFFFFFFFFFFFFFFFFFFFFFFFFF AND DUP2 MSTORE PUSH1 0x20 ADD SWAP1 DUP2 MSTORE PUSH1 0x20 ADD PUSH1 0x0 KECCAK256 SLOAD PUSH2 0xC43 SWAP1 SWAP2 SWAP1 PUSH4 0xFFFFFFFF AND JUMP JUMPDEST PUSH1 0x1 PUSH1 0x0 DUP7 PUSH20 0xFFFFFFFFFFFFFFFFFFFFFFFFFFFFFFFFFFFFFFFF AND PUSH20 0xFFFFFFFFFFFFFFFFFFFFFFFFFFFFFFFFFFFFFFFF AND DUP2 MSTORE PUSH1 0x20 ADD SWAP1 DUP2 MSTORE PUSH1 0x20 ADD PUSH1 0x0 KECCAK256 PUSH1 0x0 CALLER PUSH20 0xFFFFFFFFFFFFFFFFFFFFFFFFFFFFFFFFFFFFFFFF AND PUSH20 0xFFFFFFFFFFFFFFFFFFFFFFFFFFFFFFFFFFFFFFFF AND DUP2 MSTORE PUSH1 0x20 ADD SWAP1 DUP2 MSTORE PUSH1 0x20 ADD PUSH1 0x0 KECCAK256 DUP2 SWAP1 SSTORE POP PUSH2 0x6BF DUP3 PUSH1 0x0 DUP1 DUP7 PUSH20 0xFFFFFFFFFFFFFFFFFFFFFFFFFFFFFFFFFFFFFFFF AND PUSH20 0xFFFFFFFFFFFFFFFFFFFFFFFFFFFFFFFFFFFFFFFF AND DUP2 MSTORE PUSH1 0x20 ADD SWAP1 DUP2 MSTORE PUSH1 0x20 ADD PUSH1 0x0 KECCAK256 SLOAD PUSH2 0xC5A SWAP1 SWAP2 SWAP1 PUSH4 0xFFFFFFFF AND JUMP JUMPDEST PUSH1 0x0 DUP1 DUP6 PUSH20 0xFFFFFFFFFFFFFFFFFFFFFFFFFFFFFFFFFFFFFFFF AND PUSH20 0xFFFFFFFFFFFFFFFFFFFFFFFFFFFFFFFFFFFFFFFF AND DUP2 MSTORE PUSH1 0x20 ADD SWAP1 DUP2 MSTORE PUSH1 0x20 ADD PUSH1 0x0 KECCAK256 DUP2 SWAP1 SSTORE POP DUP3 PUSH20 0xFFFFFFFFFFFFFFFFFFFFFFFFFFFFFFFFFFFFFFFF AND DUP5 PUSH20 0xFFFFFFFFFFFFFFFFFFFFFFFFFFFFFFFFFFFFFFFF AND PUSH32 0xDDF252AD1BE2C89B69C2B068FC378DAA952BA7F163C4A11628F55A4DF523B3EF DUP5 PUSH1 0x40 MLOAD PUSH2 0x75E SWAP2 SWAP1 PUSH2 0xE5C JUMP JUMPDEST PUSH1 0x40 MLOAD DUP1 SWAP2 SUB SWAP1 LOG3 PUSH1 0x1 SWAP1 POP SWAP4 SWAP3 POP POP POP JUMP JUMPDEST PUSH1 0x12 DUP2 JUMP JUMPDEST PUSH1 0x0 DUP1 PUSH1 0x0 DUP4 PUSH20 0xFFFFFFFFFFFFFFFFFFFFFFFFFFFFFFFFFFFFFFFF AND PUSH20 0xFFFFFFFFFFFFFFFFFFFFFFFFFFFFFFFFFFFFFFFF AND DUP2 MSTORE PUSH1 0x20 ADD SWAP1 DUP2 MSTORE PUSH1 0x20 ADD PUSH1 0x0 KECCAK256 SLOAD SWAP1 POP SWAP2 SWAP1 POP JUMP JUMPDEST PUSH1 0x40 MLOAD DUP1 PUSH1 0x40 ADD PUSH1 0x40 MSTORE DUP1 PUSH1 0x3 DUP2 MSTORE PUSH1 0x20 ADD PUSH32 0x414B410000000000000000000000000000000000000000000000000000000000 DUP2 MSTORE POP DUP2 JUMP JUMPDEST PUSH1 0x0 DUP1 PUSH1 0x0 CALLER PUSH20 0xFFFFFFFFFFFFFFFFFFFFFFFFFFFFFFFFFFFFFFFF AND PUSH20 0xFFFFFFFFFFFFFFFFFFFFFFFFFFFFFFFFFFFFFFFF AND DUP2 MSTORE PUSH1 0x20 ADD SWAP1 DUP2 MSTORE PUSH1 0x20 ADD PUSH1 0x0 KECCAK256 SLOAD DUP3 GT ISZERO PUSH2 0x844 JUMPI PUSH1 0x0 DUP1 REVERT JUMPDEST PUSH2 0x895 DUP3 PUSH1 0x0 DUP1 CALLER PUSH20 0xFFFFFFFFFFFFFFFFFFFFFFFFFFFFFFFFFFFFFFFF AND PUSH20 0xFFFFFFFFFFFFFFFFFFFFFFFFFFFFFFFFFFFFFFFF AND DUP2 MSTORE PUSH1 0x20 ADD SWAP1 DUP2 MSTORE PUSH1 0x20 ADD PUSH1 0x0 KECCAK256 SLOAD PUSH2 0xC43 SWAP1 SWAP2 SWAP1 PUSH4 0xFFFFFFFF AND JUMP JUMPDEST PUSH1 0x0 DUP1 CALLER PUSH20 0xFFFFFFFFFFFFFFFFFFFFFFFFFFFFFFFFFFFFFFFF AND PUSH20 0xFFFFFFFFFFFFFFFFFFFFFFFFFFFFFFFFFFFFFFFF AND DUP2 MSTORE PUSH1 0x20 ADD SWAP1 DUP2 MSTORE PUSH1 0x20 ADD PUSH1 0x0 KECCAK256 DUP2 SWAP1 SSTORE POP PUSH2 0x928 DUP3 PUSH1 0x0 DUP1 DUP7 PUSH20 0xFFFFFFFFFFFFFFFFFFFFFFFFFFFFFFFFFFFFFFFF AND PUSH20 0xFFFFFFFFFFFFFFFFFFFFFFFFFFFFFFFFFFFFFFFF AND DUP2 MSTORE PUSH1 0x20 ADD SWAP1 DUP2 MSTORE PUSH1 0x20 ADD PUSH1 0x0 KECCAK256 SLOAD PUSH2 0xC5A SWAP1 SWAP2 SWAP1 PUSH4 0xFFFFFFFF AND JUMP JUMPDEST PUSH1 0x0 DUP1 DUP6 PUSH20 0xFFFFFFFFFFFFFFFFFFFFFFFFFFFFFFFFFFFFFFFF AND PUSH20 0xFFFFFFFFFFFFFFFFFFFFFFFFFFFFFFFFFFFFFFFF AND DUP2 MSTORE PUSH1 0x20 ADD SWAP1 DUP2 MSTORE PUSH1 0x20 ADD PUSH1 0x0 KECCAK256 DUP2 SWAP1 SSTORE POP DUP3 PUSH20 0xFFFFFFFFFFFFFFFFFFFFFFFFFFFFFFFFFFFFFFFF AND CALLER PUSH20 0xFFFFFFFFFFFFFFFFFFFFFFFFFFFFFFFFFFFFFFFF AND PUSH32 0xDDF252AD1BE2C89B69C2B068FC378DAA952BA7F163C4A11628F55A4DF523B3EF DUP5 PUSH1 0x40 MLOAD PUSH2 0x9C7 SWAP2 SWAP1 PUSH2 0xE5C JUMP JUMPDEST PUSH1 0x40 MLOAD DUP1 SWAP2 SUB SWAP1 LOG3 PUSH1 0x1 SWAP1 POP SWAP3 SWAP2 POP POP JUMP JUMPDEST PUSH1 0x0 PUSH1 0x1 PUSH1 0x0 DUP5 PUSH20 0xFFFFFFFFFFFFFFFFFFFFFFFFFFFFFFFFFFFFFFFF AND PUSH20 0xFFFFFFFFFFFFFFFFFFFFFFFFFFFFFFFFFFFFFFFF AND DUP2 MSTORE PUSH1 0x20 ADD SWAP1 DUP2 MSTORE PUSH1 0x20 ADD PUSH1 0x0 KECCAK256 PUSH1 0x0 DUP4 PUSH20 0xFFFFFFFFFFFFFFFFFFFFFFFFFFFFFFFFFFFFFFFF AND PUSH20 0xFFFFFFFFFFFFFFFFFFFFFFFFFFFFFFFFFFFFFFFF AND DUP2 MSTORE PUSH1 0x20 ADD SWAP1 DUP2 MSTORE PUSH1 0x20 ADD PUSH1 0x0 KECCAK256 SLOAD SWAP1 POP SWAP3 SWAP2 POP POP JUMP JUMPDEST PUSH1 0x0 DUP1 PUSH1 0x0 DUP6 PUSH20 0xFFFFFFFFFFFFFFFFFFFFFFFFFFFFFFFFFFFFFFFF AND PUSH20 0xFFFFFFFFFFFFFFFFFFFFFFFFFFFFFFFFFFFFFFFF AND DUP2 MSTORE PUSH1 0x20 ADD SWAP1 DUP2 MSTORE PUSH1 0x20 ADD PUSH1 0x0 KECCAK256 SLOAD DUP3 GT ISZERO PUSH2 0xAAD JUMPI PUSH1 0x0 DUP1 REVERT JUMPDEST PUSH2 0xAFE DUP3 PUSH1 0x0 DUP1 DUP8 PUSH20 0xFFFFFFFFFFFFFFFFFFFFFFFFFFFFFFFFFFFFFFFF AND PUSH20 0xFFFFFFFFFFFFFFFFFFFFFFFFFFFFFFFFFFFFFFFF AND DUP2 MSTORE PUSH1 0x20 ADD SWAP1 DUP2 MSTORE PUSH1 0x20 ADD PUSH1 0x0 KECCAK256 SLOAD PUSH2 0xC43 SWAP1 SWAP2 SWAP1 PUSH4 0xFFFFFFFF AND JUMP JUMPDEST PUSH1 0x0 DUP1 DUP7 PUSH20 0xFFFFFFFFFFFFFFFFFFFFFFFFFFFFFFFFFFFFFFFF AND PUSH20 0xFFFFFFFFFFFFFFFFFFFFFFFFFFFFFFFFFFFFFFFF AND DUP2 MSTORE PUSH1 0x20 ADD SWAP1 DUP2 MSTORE PUSH1 0x20 ADD PUSH1 0x0 KECCAK256 DUP2 SWAP1 SSTORE POP PUSH2 0xB91 DUP3 PUSH1 0x0 DUP1 DUP7 PUSH20 0xFFFFFFFFFFFFFFFFFFFFFFFFFFFFFFFFFFFFFFFF AND PUSH20 0xFFFFFFFFFFFFFFFFFFFFFFFFFFFFFFFFFFFFFFFF AND DUP2 MSTORE PUSH1 0x20 ADD SWAP1 DUP2 MSTORE PUSH1 0x20 ADD PUSH1 0x0 KECCAK256 SLOAD PUSH2 0xC5A SWAP1 SWAP2 SWAP1 PUSH4 0xFFFFFFFF AND JUMP JUMPDEST PUSH1 0x0 DUP1 DUP6 PUSH20 0xFFFFFFFFFFFFFFFFFFFFFFFFFFFFFFFFFFFFFFFF AND PUSH20 0xFFFFFFFFFFFFFFFFFFFFFFFFFFFFFFFFFFFFFFFF AND DUP2 MSTORE PUSH1 0x20 ADD SWAP1 DUP2 MSTORE PUSH1 0x20 ADD PUSH1 0x0 KECCAK256 DUP2 SWAP1 SSTORE POP DUP3 PUSH20 0xFFFFFFFFFFFFFFFFFFFFFFFFFFFFFFFFFFFFFFFF AND DUP5 PUSH20 0xFFFFFFFFFFFFFFFFFFFFFFFFFFFFFFFFFFFFFFFF AND PUSH32 0xDDF252AD1BE2C89B69C2B068FC378DAA952BA7F163C4A11628F55A4DF523B3EF DUP5 PUSH1 0x40 MLOAD PUSH2 0xC30 SWAP2 SWAP1 PUSH2 0xE5C JUMP JUMPDEST PUSH1 0x40 MLOAD DUP1 SWAP2 SUB SWAP1 LOG3 PUSH1 0x1 SWAP1 POP SWAP4 SWAP3 POP POP POP JUMP JUMPDEST PUSH1 0x0 DUP3 DUP3 GT ISZERO PUSH2 0xC4F JUMPI INVALID JUMPDEST DUP2 DUP4 SUB SWAP1 POP SWAP3 SWAP2 POP POP JUMP JUMPDEST PUSH1 0x0 DUP1 DUP3 DUP5 ADD SWAP1 POP DUP4 DUP2 LT ISZERO PUSH2 0xC6C JUMPI INVALID JUMPDEST DUP1 SWAP2 POP POP SWAP3 SWAP2 POP POP JUMP JUMPDEST PUSH1 0x0 DUP2 CALLDATALOAD SWAP1 POP PUSH2 0xC85 DUP2 PUSH2 0xF47 JUMP JUMPDEST SWAP3 SWAP2 POP POP JUMP JUMPDEST PUSH1 0x0 DUP2 CALLDATALOAD SWAP1 POP PUSH2 0xC9A DUP2 PUSH2 0xF5E JUMP JUMPDEST SWAP3 SWAP2 POP POP JUMP JUMPDEST PUSH1 0x0 PUSH1 0x20 DUP3 DUP5 SUB SLT ISZERO PUSH2 0xCB2 JUMPI PUSH1 0x0 DUP1 REVERT JUMPDEST PUSH1 0x0 PUSH2 0xCC0 DUP5 DUP3 DUP6 ADD PUSH2 0xC76 JUMP JUMPDEST SWAP2 POP POP SWAP3 SWAP2 POP POP JUMP JUMPDEST PUSH1 0x0 DUP1 PUSH1 0x40 DUP4 DUP6 SUB SLT ISZERO PUSH2 0xCDC JUMPI PUSH1 0x0 DUP1 REVERT JUMPDEST PUSH1 0x0 PUSH2 0xCEA DUP6 DUP3 DUP7 ADD PUSH2 0xC76 JUMP JUMPDEST SWAP3 POP POP PUSH1 0x20 PUSH2 0xCFB DUP6 DUP3 DUP7 ADD PUSH2 0xC76 JUMP JUMPDEST SWAP2 POP POP SWAP3 POP SWAP3 SWAP1 POP JUMP JUMPDEST PUSH1 0x0 DUP1 PUSH1 0x0 PUSH1 0x60 DUP5 DUP7 SUB SLT ISZERO PUSH2 0xD1A JUMPI PUSH1 0x0 DUP1 REVERT JUMPDEST PUSH1 0x0 PUSH2 0xD28 DUP7 DUP3 DUP8 ADD PUSH2 0xC76 JUMP JUMPDEST SWAP4 POP POP PUSH1 0x20 PUSH2 0xD39 DUP7 DUP3 DUP8 ADD PUSH2 0xC76 JUMP JUMPDEST SWAP3 POP POP PUSH1 0x40 PUSH2 0xD4A DUP7 DUP3 DUP8 ADD PUSH2 0xC8B JUMP JUMPDEST SWAP2 POP POP SWAP3 POP SWAP3 POP SWAP3 JUMP JUMPDEST PUSH1 0x0 DUP1 PUSH1 0x40 DUP4 DUP6 SUB SLT ISZERO PUSH2 0xD67 JUMPI PUSH1 0x0 DUP1 REVERT JUMPDEST PUSH1 0x0 PUSH2 0xD75 DUP6 DUP3 DUP7 ADD PUSH2 0xC76 JUMP JUMPDEST SWAP3 POP POP PUSH1 0x20 PUSH2 0xD86 DUP6 DUP3 DUP7 ADD PUSH2 0xC8B JUMP JUMPDEST SWAP2 POP POP SWAP3 POP SWAP3 SWAP1 POP JUMP JUMPDEST PUSH1 0x0 PUSH1 0x20 DUP3 DUP5 SUB SLT ISZERO PUSH2 0xDA2 JUMPI PUSH1 0x0 DUP1 REVERT JUMPDEST PUSH1 0x0 PUSH2 0xDB0 DUP5 DUP3 DUP6 ADD PUSH2 0xC8B JUMP JUMPDEST SWAP2 POP POP SWAP3 SWAP2 POP POP JUMP JUMPDEST PUSH2 0xDC2 DUP2 PUSH2 0xEC0 JUMP JUMPDEST DUP3 MSTORE POP POP JUMP JUMPDEST PUSH1 0x0 PUSH2 0xDD3 DUP3 PUSH2 0xE92 JUMP JUMPDEST PUSH2 0xDDD DUP2 DUP6 PUSH2 0xE9D JUMP JUMPDEST SWAP4 POP PUSH2 0xDED DUP2 DUP6 PUSH1 0x20 DUP7 ADD PUSH2 0xF03 JUMP JUMPDEST PUSH2 0xDF6 DUP2 PUSH2 0xF36 JUMP JUMPDEST DUP5 ADD SWAP2 POP POP SWAP3 SWAP2 POP POP JUMP JUMPDEST PUSH2 0xE0A DUP2 PUSH2 0xEEC JUMP JUMPDEST DUP3 MSTORE POP POP JUMP JUMPDEST PUSH2 0xE19 DUP2 PUSH2 0xEF6 JUMP JUMPDEST DUP3 MSTORE POP POP JUMP JUMPDEST PUSH1 0x0 PUSH1 0x20 DUP3 ADD SWAP1 POP PUSH2 0xE34 PUSH1 0x0 DUP4 ADD DUP5 PUSH2 0xDB9 JUMP JUMPDEST SWAP3 SWAP2 POP POP JUMP JUMPDEST PUSH1 0x0 PUSH1 0x20 DUP3 ADD SWAP1 POP DUP2 DUP2 SUB PUSH1 0x0 DUP4 ADD MSTORE PUSH2 0xE54 DUP2 DUP5 PUSH2 0xDC8 JUMP JUMPDEST SWAP1 POP SWAP3 SWAP2 POP POP JUMP JUMPDEST PUSH1 0x0 PUSH1 0x20 DUP3 ADD SWAP1 POP PUSH2 0xE71 PUSH1 0x0 DUP4 ADD DUP5 PUSH2 0xE01 JUMP JUMPDEST SWAP3 SWAP2 POP POP JUMP JUMPDEST PUSH1 0x0 PUSH1 0x20 DUP3 ADD SWAP1 POP PUSH2 0xE8C PUSH1 0x0 DUP4 ADD DUP5 PUSH2 0xE10 JUMP JUMPDEST SWAP3 SWAP2 POP POP JUMP JUMPDEST PUSH1 0x0 DUP2 MLOAD SWAP1 POP SWAP2 SWAP1 POP JUMP JUMPDEST PUSH1 0x0 DUP3 DUP3 MSTORE PUSH1 0x20 DUP3 ADD SWAP1 POP SWAP3 SWAP2 POP POP JUMP JUMPDEST PUSH1 0x0 PUSH2 0xEB9 DUP3 PUSH2 0xECC JUMP JUMPDEST SWAP1 POP SWAP2 SWAP1 POP JUMP JUMPDEST PUSH1 0x0 DUP2 ISZERO ISZERO SWAP1 POP SWAP2 SWAP1 POP JUMP JUMPDEST PUSH1 0x0 PUSH20 0xFFFFFFFFFFFFFFFFFFFFFFFFFFFFFFFFFFFFFFFF DUP3 AND SWAP1 POP SWAP2 SWAP1 POP JUMP JUMPDEST PUSH1 0x0 DUP2 SWAP1 POP SWAP2 SWAP1 POP JUMP JUMPDEST PUSH1 0x0 PUSH1 0xFF DUP3 AND SWAP1 POP SWAP2 SWAP1 POP JUMP JUMPDEST PUSH1 0x0 JUMPDEST DUP4 DUP2 LT ISZERO PUSH2 0xF21 JUMPI DUP1 DUP3 ADD MLOAD DUP2 DUP5 ADD MSTORE PUSH1 0x20 DUP2 ADD SWAP1 POP PUSH2 0xF06 JUMP JUMPDEST DUP4 DUP2 GT ISZERO PUSH2 0xF30 JUMPI PUSH1 0x0 DUP5 DUP5 ADD MSTORE JUMPDEST POP POP POP POP JUMP JUMPDEST PUSH1 0x0 PUSH1 0x1F NOT PUSH1 0x1F DUP4 ADD AND SWAP1 POP SWAP2 SWAP1 POP JUMP JUMPDEST PUSH2 0xF50 DUP2 PUSH2 0xEAE JUMP JUMPDEST DUP2 EQ PUSH2 0xF5B JUMPI PUSH1 0x0 DUP1 REVERT JUMPDEST POP JUMP JUMPDEST PUSH2 0xF67 DUP2 PUSH2 0xEEC JUMP JUMPDEST DUP2 EQ PUSH2 0xF72 JUMPI PUSH1 0x0 DUP1 REVERT JUMPDEST POP JUMP INVALID LOG2 PUSH5 0x6970667358 0x22 SLT KECCAK256 MSTORE8 0x2C GASPRICE 0xA8 0xB9 0x22 0xC2 SMOD PUSH8 0xAF62DC097402AD23 SDIV ADDMOD LOG2 TIMESTAMP 0xD2 PUSH24 0x69011D941905ABC92364736F6C634300060C003300000000 "
				},
				"gasEstimates": {
					"creation": {
						"codeDepositCost": "1871000",
						"executionCost": "infinite",
						"totalCost": "infinite"
					},
					"external": {
						"AtraccionesDisponibles()": "infinite",
						"BajarAtraccion(string)": "infinite",
						"BalanceOf()": "infinite",
						"Clientes(address)": "1550",
						"CompraTokens(uint256)": "infinite",
						"DevolverTokens(uint256)": "infinite",
						"GenerarTokens(uint256)": "infinite",
						"Historial()": "infinite",
						"MappingAtracciones(string)": "infinite",
						"MisTokens()": "infinite",
						"NuevaAtraccion(string,uint256)": "infinite",
						"SubirAtraccion(string)": "infinite",
						"SubirseAtraccion(string)": "infinite",
						"owner()": "1303"
					},
					"internal": {
						"PrecioTokens(uint256)": "36"
					}
				},
				"methodIdentifiers": {
					"AtraccionesDisponibles()": "1fccb33c",
					"BajarAtraccion(string)": "a2094159",
					"BalanceOf()": "9a3174a0",
					"Clientes(address)": "ce8f2f38",
					"CompraTokens(uint256)": "f7774091",
					"DevolverTokens(uint256)": "1890154c",
					"GenerarTokens(uint256)": "7c1b38bf",
					"Historial()": "6b8f8e15",
					"MappingAtracciones(string)": "d00df296",
					"MisTokens()": "e33f34a0",
					"NuevaAtraccion(string,uint256)": "2076b56c",
					"SubirAtraccion(string)": "a9862fab",
					"SubirseAtraccion(string)": "12b91846",
					"owner()": "8da5cb5b"
				}
			},
			"storageLayout": {
				"storage": [
					{
						"astId": 497,
						"contract": "Disney/disney.sol:Disney",
						"label": "token",
						"offset": 0,
						"slot": "0",
						"type": "t_contract(ERC20Basic)409"
					},
					{
						"astId": 499,
						"contract": "Disney/disney.sol:Disney",
						"label": "owner",
						"offset": 0,
						"slot": "1",
						"type": "t_address_payable"
					},
					{
						"astId": 509,
						"contract": "Disney/disney.sol:Disney",
						"label": "Clientes",
						"offset": 0,
						"slot": "2",
						"type": "t_mapping(t_address,t_struct(cliente)505_storage)"
					},
					{
						"astId": 677,
						"contract": "Disney/disney.sol:Disney",
						"label": "MappingAtracciones",
						"offset": 0,
						"slot": "3",
						"type": "t_mapping(t_string_memory_ptr,t_struct(atraccion)673_storage)"
					},
					{
						"astId": 680,
						"contract": "Disney/disney.sol:Disney",
						"label": "Atracciones",
						"offset": 0,
						"slot": "4",
						"type": "t_array(t_string_storage)dyn_storage"
					},
					{
						"astId": 685,
						"contract": "Disney/disney.sol:Disney",
						"label": "HistorialCliente",
						"offset": 0,
						"slot": "5",
						"type": "t_mapping(t_address,t_array(t_string_storage)dyn_storage)"
					}
				],
				"types": {
					"t_address": {
						"encoding": "inplace",
						"label": "address",
						"numberOfBytes": "20"
					},
					"t_address_payable": {
						"encoding": "inplace",
						"label": "address payable",
						"numberOfBytes": "20"
					},
					"t_array(t_string_storage)dyn_storage": {
						"base": "t_string_storage",
						"encoding": "dynamic_array",
						"label": "string[]",
						"numberOfBytes": "32"
					},
					"t_bool": {
						"encoding": "inplace",
						"label": "bool",
						"numberOfBytes": "1"
					},
					"t_contract(ERC20Basic)409": {
						"encoding": "inplace",
						"label": "contract ERC20Basic",
						"numberOfBytes": "20"
					},
					"t_mapping(t_address,t_array(t_string_storage)dyn_storage)": {
						"encoding": "mapping",
						"key": "t_address",
						"label": "mapping(address => string[])",
						"numberOfBytes": "32",
						"value": "t_array(t_string_storage)dyn_storage"
					},
					"t_mapping(t_address,t_struct(cliente)505_storage)": {
						"encoding": "mapping",
						"key": "t_address",
						"label": "mapping(address => struct Disney.cliente)",
						"numberOfBytes": "32",
						"value": "t_struct(cliente)505_storage"
					},
					"t_mapping(t_string_memory_ptr,t_struct(atraccion)673_storage)": {
						"encoding": "mapping",
						"key": "t_string_memory_ptr",
						"label": "mapping(string => struct Disney.atraccion)",
						"numberOfBytes": "32",
						"value": "t_struct(atraccion)673_storage"
					},
					"t_string_memory_ptr": {
						"encoding": "bytes",
						"label": "string",
						"numberOfBytes": "32"
					},
					"t_string_storage": {
						"encoding": "bytes",
						"label": "string",
						"numberOfBytes": "32"
					},
					"t_struct(atraccion)673_storage": {
						"encoding": "inplace",
						"label": "struct Disney.atraccion",
						"members": [
							{
								"astId": 668,
								"contract": "Disney/disney.sol:Disney",
								"label": "nombre",
								"offset": 0,
								"slot": "0",
								"type": "t_string_storage"
							},
							{
								"astId": 670,
								"contract": "Disney/disney.sol:Disney",
								"label": "precio",
								"offset": 0,
								"slot": "1",
								"type": "t_uint256"
							},
							{
								"astId": 672,
								"contract": "Disney/disney.sol:Disney",
								"label": "estado",
								"offset": 0,
								"slot": "2",
								"type": "t_bool"
							}
						],
						"numberOfBytes": "96"
					},
					"t_struct(cliente)505_storage": {
						"encoding": "inplace",
						"label": "struct Disney.cliente",
						"members": [
							{
								"astId": 501,
								"contract": "Disney/disney.sol:Disney",
								"label": "token_comprado",
								"offset": 0,
								"slot": "0",
								"type": "t_uint256"
							},
							{
								"astId": 504,
								"contract": "Disney/disney.sol:Disney",
								"label": "atracciones_visitadas",
								"offset": 0,
								"slot": "1",
								"type": "t_array(t_string_storage)dyn_storage"
							}
						],
						"numberOfBytes": "64"
					},
					"t_uint256": {
						"encoding": "inplace",
						"label": "uint256",
						"numberOfBytes": "32"
					}
				}
			},
			"userdoc": {
				"kind": "user",
				"methods": {},
				"version": 1
			}
		}
	}
}