{
	"Disney/disney.sol": {
		"Disney": {
			"abi": [
				{
					"inputs": [],
					"stateMutability": "nonpayable",
					"type": "constructor"
				},
				{
					"anonymous": false,
					"inputs": [
						{
							"indexed": false,
							"internalType": "string",
							"name": "",
							"type": "string"
						}
					],
					"name": "baja_atraccion",
					"type": "event"
				},
				{
					"anonymous": false,
					"inputs": [
						{
							"indexed": false,
							"internalType": "string",
							"name": "",
							"type": "string"
						}
					],
					"name": "disfruta_atraccion",
					"type": "event"
				},
				{
					"anonymous": false,
					"inputs": [
						{
							"indexed": false,
							"internalType": "string",
							"name": "",
							"type": "string"
						},
						{
							"indexed": false,
							"internalType": "uint256",
							"name": "",
							"type": "uint256"
						}
					],
					"name": "nueva_atraccion",
					"type": "event"
				},
				{
					"inputs": [],
					"name": "AtraccionesDisponibles",
					"outputs": [
						{
							"internalType": "string",
							"name": "",
							"type": "string"
						}
					],
					"stateMutability": "view",
					"type": "function"
				},
				{
					"inputs": [
						{
							"internalType": "string",
							"name": "_nombreAtraccion",
							"type": "string"
						}
					],
					"name": "BajarAtraccion",
					"outputs": [],
					"stateMutability": "nonpayable",
					"type": "function"
				},
				{
					"inputs": [],
					"name": "BalanceOf",
					"outputs": [
						{
							"internalType": "uint256",
							"name": "",
							"type": "uint256"
						}
					],
					"stateMutability": "view",
					"type": "function"
				},
				{
					"inputs": [
						{
							"internalType": "address",
							"name": "",
							"type": "address"
						}
					],
					"name": "Clientes",
					"outputs": [
						{
							"internalType": "uint256",
							"name": "token_comprado",
							"type": "uint256"
						}
					],
					"stateMutability": "view",
					"type": "function"
				},
				{
					"inputs": [
						{
							"internalType": "uint256",
							"name": "_numTokens",
							"type": "uint256"
						}
					],
					"name": "CompraTokens",
					"outputs": [],
					"stateMutability": "payable",
					"type": "function"
				},
				{
					"inputs": [
						{
							"internalType": "uint256",
							"name": "_numTokens",
							"type": "uint256"
						}
					],
					"name": "GenerarTokens",
					"outputs": [],
					"stateMutability": "nonpayable",
					"type": "function"
				},
				{
					"inputs": [
						{
							"internalType": "string",
							"name": "",
							"type": "string"
						}
					],
					"name": "MappingAtracciones",
					"outputs": [
						{
							"internalType": "string",
							"name": "nombre",
							"type": "string"
						},
						{
							"internalType": "uint256",
							"name": "precio",
							"type": "uint256"
						},
						{
							"internalType": "bool",
							"name": "estado",
							"type": "bool"
						}
					],
					"stateMutability": "view",
					"type": "function"
				},
				{
					"inputs": [],
					"name": "MisTokens",
					"outputs": [
						{
							"internalType": "uint256",
							"name": "",
							"type": "uint256"
						}
					],
					"stateMutability": "view",
					"type": "function"
				},
				{
					"inputs": [
						{
							"internalType": "string",
							"name": "_nombreAtraccion",
							"type": "string"
						},
						{
							"internalType": "uint256",
							"name": "_precio",
							"type": "uint256"
						}
					],
					"name": "NuevaAtraccion",
					"outputs": [],
					"stateMutability": "nonpayable",
					"type": "function"
				},
				{
					"inputs": [
						{
							"internalType": "string",
							"name": "_nombreAtraccion",
							"type": "string"
						}
					],
					"name": "SubirseAtraccion",
					"outputs": [],
					"stateMutability": "nonpayable",
					"type": "function"
				},
				{
					"inputs": [],
					"name": "owner",
					"outputs": [
						{
							"internalType": "address payable",
							"name": "",
							"type": "address"
						}
					],
					"stateMutability": "view",
					"type": "function"
				}
			],
			"devdoc": {
				"kind": "dev",
				"methods": {},
				"version": 1
			},
			"evm": {
				"assembly": "    /* \"Disney/disney.sol\":124:5638  contract Disney {\r... */\n  mstore(0x40, 0x80)\n    /* \"Disney/disney.sol\":634:731  constructor() public {\r... */\n  callvalue\n  dup1\n  iszero\n  tag_1\n  jumpi\n  0x00\n  dup1\n  revert\ntag_1:\n  pop\n    /* \"Disney/disney.sol\":689:693  1000 */\n  0x03e8\n    /* \"Disney/disney.sol\":674:694  new ERC20Basic(1000) */\n  mload(0x40)\n  tag_4\n  swap1\n  tag_5\n  jump\t// in\ntag_4:\n  tag_6\n  swap2\n  swap1\n  tag_7\n  jump\t// in\ntag_6:\n  mload(0x40)\n  dup1\n  swap2\n  sub\n  swap1\n  0x00\n  create\n  dup1\n  iszero\n  dup1\n  iszero\n  tag_8\n  jumpi\n  returndatasize\n  0x00\n  dup1\n  returndatacopy\n  revert(0x00, returndatasize)\ntag_8:\n  pop\n    /* \"Disney/disney.sol\":666:671  token */\n  0x00\n  dup1\n    /* \"Disney/disney.sol\":666:694  token = new ERC20Basic(1000) */\n  0x0100\n  exp\n  dup2\n  sload\n  dup2\n  0xffffffffffffffffffffffffffffffffffffffff\n  mul\n  not\n  and\n  swap1\n  dup4\n  0xffffffffffffffffffffffffffffffffffffffff\n  and\n  mul\n  or\n  swap1\n  sstore\n  pop\n    /* \"Disney/disney.sol\":713:723  msg.sender */\n  caller\n    /* \"Disney/disney.sol\":705:710  owner */\n  0x01\n  0x00\n    /* \"Disney/disney.sol\":705:723  owner = msg.sender */\n  0x0100\n  exp\n  dup2\n  sload\n  dup2\n  0xffffffffffffffffffffffffffffffffffffffff\n  mul\n  not\n  and\n  swap1\n  dup4\n  0xffffffffffffffffffffffffffffffffffffffff\n  and\n  mul\n  or\n  swap1\n  sstore\n  pop\n    /* \"Disney/disney.sol\":124:5638  contract Disney {\r... */\n  jump(tag_9)\ntag_5:\n  dataSize(sub_1)\n  dup1\n  dataOffset(sub_1)\n  dup4\n  codecopy\n  add\n  swap1\n  jump\t// out\n    /* \"--CODEGEN--\":5:153   */\ntag_11:\n    /* \"--CODEGEN--\":99:147   */\n  tag_13\n    /* \"--CODEGEN--\":141:146   */\n  dup2\n    /* \"--CODEGEN--\":99:147   */\n  tag_14\n  jump\t// in\ntag_13:\n    /* \"--CODEGEN--\":94:97   */\n  dup3\n    /* \"--CODEGEN--\":87:148   */\n  mstore\n    /* \"--CODEGEN--\":81:153   */\n  pop\n  pop\n  jump\t// out\n    /* \"--CODEGEN--\":160:404   */\ntag_7:\n  0x00\n    /* \"--CODEGEN--\":298:300   */\n  0x20\n    /* \"--CODEGEN--\":287:296   */\n  dup3\n    /* \"--CODEGEN--\":283:301   */\n  add\n    /* \"--CODEGEN--\":275:301   */\n  swap1\n  pop\n    /* \"--CODEGEN--\":312:394   */\n  tag_16\n    /* \"--CODEGEN--\":391:392   */\n  0x00\n    /* \"--CODEGEN--\":380:389   */\n  dup4\n    /* \"--CODEGEN--\":376:393   */\n  add\n    /* \"--CODEGEN--\":367:373   */\n  dup5\n    /* \"--CODEGEN--\":312:394   */\n  tag_11\n  jump\t// in\ntag_16:\n    /* \"--CODEGEN--\":269:404   */\n  swap3\n  swap2\n  pop\n  pop\n  jump\t// out\n    /* \"--CODEGEN--\":411:483   */\ntag_17:\n  0x00\n    /* \"--CODEGEN--\":473:478   */\n  dup2\n    /* \"--CODEGEN--\":462:478   */\n  swap1\n  pop\n    /* \"--CODEGEN--\":456:483   */\n  swap2\n  swap1\n  pop\n  jump\t// out\n    /* \"--CODEGEN--\":490:609   */\ntag_14:\n  0x00\n    /* \"--CODEGEN--\":580:604   */\n  tag_20\n    /* \"--CODEGEN--\":598:603   */\n  dup3\n    /* \"--CODEGEN--\":580:604   */\n  tag_17\n  jump\t// in\ntag_20:\n    /* \"--CODEGEN--\":567:604   */\n  swap1\n  pop\n    /* \"--CODEGEN--\":561:609   */\n  swap2\n  swap1\n  pop\n  jump\t// out\n    /* \"Disney/disney.sol\":124:5638  contract Disney {\r... */\ntag_9:\n  dataSize(sub_0)\n  dup1\n  dataOffset(sub_0)\n  0x00\n  codecopy\n  0x00\n  return\nstop\n\nsub_0: assembly {\n        /* \"Disney/disney.sol\":124:5638  contract Disney {\r... */\n      mstore(0x40, 0x80)\n      jumpi(tag_1, lt(calldatasize, 0x04))\n      shr(0xe0, calldataload(0x00))\n      dup1\n      0x9a3174a0\n      gt\n      tag_13\n      jumpi\n      dup1\n      0x9a3174a0\n      eq\n      tag_7\n      jumpi\n      dup1\n      0xa2094159\n      eq\n      tag_8\n      jumpi\n      dup1\n      0xce8f2f38\n      eq\n      tag_9\n      jumpi\n      dup1\n      0xd00df296\n      eq\n      tag_10\n      jumpi\n      dup1\n      0xe33f34a0\n      eq\n      tag_11\n      jumpi\n      dup1\n      0xf7774091\n      eq\n      tag_12\n      jumpi\n      jump(tag_1)\n    tag_13:\n      dup1\n      0x12b91846\n      eq\n      tag_2\n      jumpi\n      dup1\n      0x1fccb33c\n      eq\n      tag_3\n      jumpi\n      dup1\n      0x2076b56c\n      eq\n      tag_4\n      jumpi\n      dup1\n      0x7c1b38bf\n      eq\n      tag_5\n      jumpi\n      dup1\n      0x8da5cb5b\n      eq\n      tag_6\n      jumpi\n    tag_1:\n      0x00\n      dup1\n      revert\n        /* \"Disney/disney.sol\":4947:5635  function SubirseAtraccion(string memory _nombreAtraccion) public {\r... */\n    tag_2:\n      callvalue\n      dup1\n      iszero\n      tag_14\n      jumpi\n      0x00\n      dup1\n      revert\n    tag_14:\n      pop\n      tag_15\n      0x04\n      dup1\n      calldatasize\n      sub\n      dup2\n      add\n      swap1\n      tag_16\n      swap2\n      swap1\n      tag_17\n      jump\t// in\n    tag_16:\n      tag_18\n      jump\t// in\n    tag_15:\n      stop\n        /* \"Disney/disney.sol\":4556:4939  function AtraccionesDisponibles() public view returns (string memory) {\r... */\n    tag_3:\n      callvalue\n      dup1\n      iszero\n      tag_19\n      jumpi\n      0x00\n      dup1\n      revert\n    tag_19:\n      pop\n      tag_20\n      tag_21\n      jump\t// in\n    tag_20:\n      mload(0x40)\n      tag_22\n      swap2\n      swap1\n      tag_23\n      jump\t// in\n    tag_22:\n      mload(0x40)\n      dup1\n      swap2\n      sub\n      swap1\n      return\n        /* \"Disney/disney.sol\":3284:3711  function NuevaAtraccion(string memory _nombreAtraccion, uint _precio) public Unicamente(msg.sender) {\r... */\n    tag_4:\n      callvalue\n      dup1\n      iszero\n      tag_24\n      jumpi\n      0x00\n      dup1\n      revert\n    tag_24:\n      pop\n      tag_25\n      0x04\n      dup1\n      calldatasize\n      sub\n      dup2\n      add\n      swap1\n      tag_26\n      swap2\n      swap1\n      tag_27\n      jump\t// in\n    tag_26:\n      tag_28\n      jump\t// in\n    tag_25:\n      stop\n        /* \"Disney/disney.sol\":2257:2384  function GenerarTokens (uint _numTokens) public Unicamente(msg.sender) {\r... */\n    tag_5:\n      callvalue\n      dup1\n      iszero\n      tag_29\n      jumpi\n      0x00\n      dup1\n      revert\n    tag_29:\n      pop\n      tag_30\n      0x04\n      dup1\n      calldatasize\n      sub\n      dup2\n      add\n      swap1\n      tag_31\n      swap2\n      swap1\n      tag_32\n      jump\t// in\n    tag_31:\n      tag_33\n      jump\t// in\n    tag_30:\n      stop\n        /* \"Disney/disney.sol\":369:397  address payable public owner */\n    tag_6:\n      callvalue\n      dup1\n      iszero\n      tag_34\n      jumpi\n      0x00\n      dup1\n      revert\n    tag_34:\n      pop\n      tag_35\n      tag_36\n      jump\t// in\n    tag_35:\n      mload(0x40)\n      tag_37\n      swap2\n      swap1\n      tag_38\n      jump\t// in\n    tag_37:\n      mload(0x40)\n      dup1\n      swap2\n      sub\n      swap1\n      return\n        /* \"Disney/disney.sol\":1937:2041  function BalanceOf() public view returns (uint) {\r... */\n    tag_7:\n      callvalue\n      dup1\n      iszero\n      tag_39\n      jumpi\n      0x00\n      dup1\n      revert\n    tag_39:\n      pop\n      tag_40\n      tag_41\n      jump\t// in\n    tag_40:\n      mload(0x40)\n      tag_42\n      swap2\n      swap1\n      tag_43\n      jump\t// in\n    tag_42:\n      mload(0x40)\n      dup1\n      swap2\n      sub\n      swap1\n      return\n        /* \"Disney/disney.sol\":3753:4503  function BajarAtraccion (string memory _nombreAtraccion) public Unicamente(msg.sender) {\r... */\n    tag_8:\n      callvalue\n      dup1\n      iszero\n      tag_44\n      jumpi\n      0x00\n      dup1\n      revert\n    tag_44:\n      pop\n      tag_45\n      0x04\n      dup1\n      calldatasize\n      sub\n      dup2\n      add\n      swap1\n      tag_46\n      swap2\n      swap1\n      tag_17\n      jump\t// in\n    tag_46:\n      tag_47\n      jump\t// in\n    tag_45:\n      stop\n        /* \"Disney/disney.sol\":581:625  mapping (address => cliente) public Clientes */\n    tag_9:\n      callvalue\n      dup1\n      iszero\n      tag_48\n      jumpi\n      0x00\n      dup1\n      revert\n    tag_48:\n      pop\n      tag_49\n      0x04\n      dup1\n      calldatasize\n      sub\n      dup2\n      add\n      swap1\n      tag_50\n      swap2\n      swap1\n      tag_51\n      jump\t// in\n    tag_50:\n      tag_52\n      jump\t// in\n    tag_49:\n      mload(0x40)\n      tag_53\n      swap2\n      swap1\n      tag_43\n      jump\t// in\n    tag_53:\n      mload(0x40)\n      dup1\n      swap2\n      sub\n      swap1\n      return\n        /* \"Disney/disney.sol\":3030:3085  mapping (string => atraccion) public MappingAtracciones */\n    tag_10:\n      callvalue\n      dup1\n      iszero\n      tag_54\n      jumpi\n      0x00\n      dup1\n      revert\n    tag_54:\n      pop\n      tag_55\n      0x04\n      dup1\n      calldatasize\n      sub\n      dup2\n      add\n      swap1\n      tag_56\n      swap2\n      swap1\n      tag_17\n      jump\t// in\n    tag_56:\n      tag_57\n      jump\t// in\n    tag_55:\n      mload(0x40)\n      tag_58\n      swap4\n      swap3\n      swap2\n      swap1\n      tag_59\n      jump\t// in\n    tag_58:\n      mload(0x40)\n      dup1\n      swap2\n      sub\n      swap1\n      return\n        /* \"Disney/disney.sol\":2088:2190  function MisTokens() public view returns(uint) {\r... */\n    tag_11:\n      callvalue\n      dup1\n      iszero\n      tag_60\n      jumpi\n      0x00\n      dup1\n      revert\n    tag_60:\n      pop\n      tag_61\n      tag_62\n      jump\t// in\n    tag_61:\n      mload(0x40)\n      tag_63\n      swap2\n      swap1\n      tag_43\n      jump\t// in\n    tag_63:\n      mload(0x40)\n      dup1\n      swap2\n      sub\n      swap1\n      return\n        /* \"Disney/disney.sol\":1114:1887  function CompraTokens(uint _numTokens) public payable {\r... */\n    tag_12:\n      tag_64\n      0x04\n      dup1\n      calldatasize\n      sub\n      dup2\n      add\n      swap1\n      tag_65\n      swap2\n      swap1\n      tag_32\n      jump\t// in\n    tag_65:\n      tag_66\n      jump\t// in\n    tag_64:\n      stop\n        /* \"Disney/disney.sol\":4947:5635  function SubirseAtraccion(string memory _nombreAtraccion) public {\r... */\n    tag_18:\n        /* \"Disney/disney.sol\":5023:5043  bool atraccionExiste */\n      0x00\n        /* \"Disney/disney.sol\":5062:5086  bool atraccionDisponible */\n      dup1\n        /* \"Disney/disney.sol\":5112:5118  uint i */\n      0x00\n        /* \"Disney/disney.sol\":5107:5554  for (uint i = 0; i < Atracciones.length; i++) {\r... */\n    tag_68:\n        /* \"Disney/disney.sol\":5128:5139  Atracciones */\n      0x04\n        /* \"Disney/disney.sol\":5128:5146  Atracciones.length */\n      dup1\n      sload\n      swap1\n      pop\n        /* \"Disney/disney.sol\":5124:5125  i */\n      dup2\n        /* \"Disney/disney.sol\":5124:5146  i < Atracciones.length */\n      lt\n        /* \"Disney/disney.sol\":5107:5554  for (uint i = 0; i < Atracciones.length; i++) {\r... */\n      iszero\n      tag_69\n      jumpi\n        /* \"Disney/disney.sol\":5246:5262  _nombreAtraccion */\n      dup4\n        /* \"Disney/disney.sol\":5229:5263  abi.encodePacked(_nombreAtraccion) */\n      add(0x20, mload(0x40))\n      tag_71\n      swap2\n      swap1\n      tag_72\n      jump\t// in\n    tag_71:\n      mload(0x40)\n      0x20\n      dup2\n      dup4\n      sub\n      sub\n      dup2\n      mstore\n      swap1\n      0x40\n      mstore\n        /* \"Disney/disney.sol\":5219:5264  keccak256(abi.encodePacked(_nombreAtraccion)) */\n      dup1\n      mload\n      swap1\n      0x20\n      add\n      keccak256\n        /* \"Disney/disney.sol\":5199:5210  Atracciones */\n      0x04\n        /* \"Disney/disney.sol\":5211:5212  i */\n      dup3\n        /* \"Disney/disney.sol\":5199:5213  Atracciones[i] */\n      dup2\n      sload\n      dup2\n      lt\n      tag_73\n      jumpi\n      invalid\n    tag_73:\n      swap1\n      0x00\n      mstore\n      keccak256(0x00, 0x20)\n      add\n        /* \"Disney/disney.sol\":5182:5214  abi.encodePacked(Atracciones[i]) */\n      add(0x20, mload(0x40))\n      tag_75\n      swap2\n      swap1\n      tag_76\n      jump\t// in\n    tag_75:\n      mload(0x40)\n      0x20\n      dup2\n      dup4\n      sub\n      sub\n      dup2\n      mstore\n      swap1\n      0x40\n      mstore\n        /* \"Disney/disney.sol\":5172:5215  keccak256(abi.encodePacked(Atracciones[i])) */\n      dup1\n      mload\n      swap1\n      0x20\n      add\n      keccak256\n        /* \"Disney/disney.sol\":5172:5264  keccak256(abi.encodePacked(Atracciones[i])) == keccak256(abi.encodePacked(_nombreAtraccion)) */\n      eq\n        /* \"Disney/disney.sol\":5168:5543  if (keccak256(abi.encodePacked(Atracciones[i])) == keccak256(abi.encodePacked(_nombreAtraccion))) {\r... */\n      iszero\n      tag_77\n      jumpi\n        /* \"Disney/disney.sol\":5303:5307  true */\n      0x01\n        /* \"Disney/disney.sol\":5285:5307  atraccionExiste = true */\n      swap3\n      pop\n        /* \"Disney/disney.sol\":5330:5348  MappingAtracciones */\n      0x03\n        /* \"Disney/disney.sol\":5349:5360  Atracciones */\n      0x04\n        /* \"Disney/disney.sol\":5361:5362  i */\n      dup3\n        /* \"Disney/disney.sol\":5349:5363  Atracciones[i] */\n      dup2\n      sload\n      dup2\n      lt\n      tag_78\n      jumpi\n      invalid\n    tag_78:\n      swap1\n      0x00\n      mstore\n      keccak256(0x00, 0x20)\n      add\n        /* \"Disney/disney.sol\":5330:5364  MappingAtracciones[Atracciones[i]] */\n      mload(0x40)\n      tag_80\n      swap2\n      swap1\n      tag_76\n      jump\t// in\n    tag_80:\n      swap1\n      dup2\n      mstore\n      0x20\n      add\n      mload(0x40)\n      dup1\n      swap2\n      sub\n      swap1\n      keccak256\n        /* \"Disney/disney.sol\":5330:5371  MappingAtracciones[Atracciones[i]].estado */\n      0x02\n      add\n      0x00\n      swap1\n      sload\n      swap1\n      0x0100\n      exp\n      swap1\n      div\n      0xff\n      and\n        /* \"Disney/disney.sol\":5326:5442  if (MappingAtracciones[Atracciones[i]].estado) {\r... */\n      iszero\n      tag_81\n      jumpi\n        /* \"Disney/disney.sol\":5418:5422  true */\n      0x01\n        /* \"Disney/disney.sol\":5396:5422  atraccionDisponible = true */\n      swap2\n      pop\n        /* \"Disney/disney.sol\":5326:5442  if (MappingAtracciones[Atracciones[i]].estado) {\r... */\n    tag_81:\n        /* \"Disney/disney.sol\":5468:5487  atraccionDisponible */\n      dup2\n        /* \"Disney/disney.sol\":5460:5527  require(atraccionDisponible, \"La atraccion en cuestión no existe\") */\n      tag_82\n      jumpi\n      mload(0x40)\n      0x08c379a000000000000000000000000000000000000000000000000000000000\n      dup2\n      mstore\n      0x04\n      add\n      tag_83\n      swap1\n      tag_84\n      jump\t// in\n    tag_83:\n      mload(0x40)\n      dup1\n      swap2\n      sub\n      swap1\n      revert\n    tag_82:\n        /* \"Disney/disney.sol\":5168:5543  if (keccak256(abi.encodePacked(Atracciones[i])) == keccak256(abi.encodePacked(_nombreAtraccion))) {\r... */\n    tag_77:\n        /* \"Disney/disney.sol\":5148:5151  i++ */\n      dup1\n      dup1\n      0x01\n      add\n      swap2\n      pop\n      pop\n        /* \"Disney/disney.sol\":5107:5554  for (uint i = 0; i < Atracciones.length; i++) {\r... */\n      jump(tag_68)\n    tag_69:\n      pop\n        /* \"Disney/disney.sol\":5572:5587  atraccionExiste */\n      dup2\n        /* \"Disney/disney.sol\":5564:5627  require(atraccionExiste, \"La atraccion en cuestión no existe\") */\n      tag_85\n      jumpi\n      mload(0x40)\n      0x08c379a000000000000000000000000000000000000000000000000000000000\n      dup2\n      mstore\n      0x04\n      add\n      tag_86\n      swap1\n      tag_84\n      jump\t// in\n    tag_86:\n      mload(0x40)\n      dup1\n      swap2\n      sub\n      swap1\n      revert\n    tag_85:\n        /* \"Disney/disney.sol\":4947:5635  function SubirseAtraccion(string memory _nombreAtraccion) public {\r... */\n      pop\n      pop\n      pop\n      jump\t// out\n        /* \"Disney/disney.sol\":4556:4939  function AtraccionesDisponibles() public view returns (string memory) {\r... */\n    tag_21:\n        /* \"Disney/disney.sol\":4611:4624  string memory */\n      0x60\n        /* \"Disney/disney.sol\":4637:4662  string memory disponibles */\n      dup1\n        /* \"Disney/disney.sol\":4678:4684  uint i */\n      0x00\n        /* \"Disney/disney.sol\":4673:4901  for (uint i = 0; i < Atracciones.length; i++) {\r... */\n    tag_88:\n        /* \"Disney/disney.sol\":4694:4705  Atracciones */\n      0x04\n        /* \"Disney/disney.sol\":4694:4712  Atracciones.length */\n      dup1\n      sload\n      swap1\n      pop\n        /* \"Disney/disney.sol\":4690:4691  i */\n      dup2\n        /* \"Disney/disney.sol\":4690:4712  i < Atracciones.length */\n      lt\n        /* \"Disney/disney.sol\":4673:4901  for (uint i = 0; i < Atracciones.length; i++) {\r... */\n      iszero\n      tag_89\n      jumpi\n        /* \"Disney/disney.sol\":4738:4756  MappingAtracciones */\n      0x03\n        /* \"Disney/disney.sol\":4757:4768  Atracciones */\n      0x04\n        /* \"Disney/disney.sol\":4769:4770  i */\n      dup3\n        /* \"Disney/disney.sol\":4757:4771  Atracciones[i] */\n      dup2\n      sload\n      dup2\n      lt\n      tag_91\n      jumpi\n      invalid\n    tag_91:\n      swap1\n      0x00\n      mstore\n      keccak256(0x00, 0x20)\n      add\n        /* \"Disney/disney.sol\":4738:4772  MappingAtracciones[Atracciones[i]] */\n      mload(0x40)\n      tag_93\n      swap2\n      swap1\n      tag_76\n      jump\t// in\n    tag_93:\n      swap1\n      dup2\n      mstore\n      0x20\n      add\n      mload(0x40)\n      dup1\n      swap2\n      sub\n      swap1\n      keccak256\n        /* \"Disney/disney.sol\":4738:4779  MappingAtracciones[Atracciones[i]].estado */\n      0x02\n      add\n      0x00\n      swap1\n      sload\n      swap1\n      0x0100\n      exp\n      swap1\n      div\n      0xff\n      and\n        /* \"Disney/disney.sol\":4734:4890  if (MappingAtracciones[Atracciones[i]].estado) {\r... */\n      iszero\n      tag_94\n      jumpi\n        /* \"Disney/disney.sol\":4838:4849  disponibles */\n      dup2\n        /* \"Disney/disney.sol\":4858:4869  Atracciones */\n      0x04\n        /* \"Disney/disney.sol\":4870:4871  i */\n      dup3\n        /* \"Disney/disney.sol\":4858:4872  Atracciones[i] */\n      dup2\n      sload\n      dup2\n      lt\n      tag_95\n      jumpi\n      invalid\n    tag_95:\n      swap1\n      0x00\n      mstore\n      keccak256(0x00, 0x20)\n      add\n        /* \"Disney/disney.sol\":4821:4873  abi.encodePacked(disponibles, \" | \", Atracciones[i]) */\n      add(0x20, mload(0x40))\n      tag_97\n      swap3\n      swap2\n      swap1\n      tag_98\n      jump\t// in\n    tag_97:\n      mload(0x40)\n      0x20\n      dup2\n      dup4\n      sub\n      sub\n      dup2\n      mstore\n      swap1\n      0x40\n      mstore\n        /* \"Disney/disney.sol\":4800:4874  disponibles = string(abi.encodePacked(disponibles, \" | \", Atracciones[i])) */\n      swap2\n      pop\n        /* \"Disney/disney.sol\":4734:4890  if (MappingAtracciones[Atracciones[i]].estado) {\r... */\n    tag_94:\n        /* \"Disney/disney.sol\":4714:4717  i++ */\n      dup1\n      dup1\n      0x01\n      add\n      swap2\n      pop\n      pop\n        /* \"Disney/disney.sol\":4673:4901  for (uint i = 0; i < Atracciones.length; i++) {\r... */\n      jump(tag_88)\n    tag_89:\n      pop\n        /* \"Disney/disney.sol\":4920:4931  disponibles */\n      dup1\n        /* \"Disney/disney.sol\":4913:4931  return disponibles */\n      swap2\n      pop\n      pop\n        /* \"Disney/disney.sol\":4556:4939  function AtraccionesDisponibles() public view returns (string memory) {\r... */\n      swap1\n      jump\t// out\n        /* \"Disney/disney.sol\":3284:3711  function NuevaAtraccion(string memory _nombreAtraccion, uint _precio) public Unicamente(msg.sender) {\r... */\n    tag_28:\n        /* \"Disney/disney.sol\":3372:3382  msg.sender */\n      caller\n        /* \"Disney/disney.sol\":2513:2518  owner */\n      0x01\n      0x00\n      swap1\n      sload\n      swap1\n      0x0100\n      exp\n      swap1\n      div\n      0xffffffffffffffffffffffffffffffffffffffff\n      and\n        /* \"Disney/disney.sol\":2499:2518  _direccion == owner */\n      0xffffffffffffffffffffffffffffffffffffffff\n      and\n        /* \"Disney/disney.sol\":2499:2509  _direccion */\n      dup2\n        /* \"Disney/disney.sol\":2499:2518  _direccion == owner */\n      0xffffffffffffffffffffffffffffffffffffffff\n      and\n      eq\n        /* \"Disney/disney.sol\":2490:2567  require( _direccion == owner, \"No tienes permiso para ejecutar esta acción\") */\n      tag_100\n      jumpi\n      mload(0x40)\n      0x08c379a000000000000000000000000000000000000000000000000000000000\n      dup2\n      mstore\n      0x04\n      add\n      tag_101\n      swap1\n      tag_102\n      jump\t// in\n    tag_101:\n      mload(0x40)\n      dup1\n      swap2\n      sub\n      swap1\n      revert\n    tag_100:\n        /* \"Disney/disney.sol\":3472:3514  atraccion(_nombreAtraccion, _precio, true) */\n      mload(0x40)\n      dup1\n      0x60\n      add\n      0x40\n      mstore\n      dup1\n        /* \"Disney/disney.sol\":3482:3498  _nombreAtraccion */\n      dup5\n        /* \"Disney/disney.sol\":3472:3514  atraccion(_nombreAtraccion, _precio, true) */\n      dup2\n      mstore\n      0x20\n      add\n        /* \"Disney/disney.sol\":3500:3507  _precio */\n      dup4\n        /* \"Disney/disney.sol\":3472:3514  atraccion(_nombreAtraccion, _precio, true) */\n      dup2\n      mstore\n      0x20\n      add\n        /* \"Disney/disney.sol\":3509:3513  true */\n      0x01\n        /* \"Disney/disney.sol\":3472:3514  atraccion(_nombreAtraccion, _precio, true) */\n      iszero\n      iszero\n      dup2\n      mstore\n      pop\n        /* \"Disney/disney.sol\":3433:3451  MappingAtracciones */\n      0x03\n        /* \"Disney/disney.sol\":3452:3468  _nombreAtraccion */\n      dup5\n        /* \"Disney/disney.sol\":3433:3469  MappingAtracciones[_nombreAtraccion] */\n      mload(0x40)\n      tag_104\n      swap2\n      swap1\n      tag_72\n      jump\t// in\n    tag_104:\n      swap1\n      dup2\n      mstore\n      0x20\n      add\n      mload(0x40)\n      dup1\n      swap2\n      sub\n      swap1\n      keccak256\n        /* \"Disney/disney.sol\":3433:3514  MappingAtracciones[_nombreAtraccion] = atraccion(_nombreAtraccion, _precio, true) */\n      0x00\n      dup3\n      add\n      mload\n      dup2\n      0x00\n      add\n      swap1\n      dup1\n      mload\n      swap1\n      0x20\n      add\n      swap1\n      tag_105\n      swap3\n      swap2\n      swap1\n      tag_106\n      jump\t// in\n    tag_105:\n      pop\n      0x20\n      dup3\n      add\n      mload\n      dup2\n      0x01\n      add\n      sstore\n      0x40\n      dup3\n      add\n      mload\n      dup2\n      0x02\n      add\n      exp(0x0100, 0x00)\n      dup2\n      sload\n      dup2\n      0xff\n      mul\n      not\n      and\n      swap1\n      dup4\n      iszero\n      iszero\n      mul\n      or\n      swap1\n      sstore\n      pop\n      swap1\n      pop\n      pop\n        /* \"Disney/disney.sol\":3557:3568  Atracciones */\n      0x04\n        /* \"Disney/disney.sol\":3574:3590  _nombreAtraccion */\n      dup4\n        /* \"Disney/disney.sol\":3557:3591  Atracciones.push(_nombreAtraccion) */\n      swap1\n      dup1\n      0x01\n      dup2\n      sload\n      add\n      dup1\n      dup3\n      sstore\n      dup1\n      swap2\n      pop\n      pop\n      0x01\n      swap1\n      sub\n      swap1\n      0x00\n      mstore\n      keccak256(0x00, 0x20)\n      add\n      0x00\n      swap1\n      swap2\n      swap1\n      swap2\n      swap1\n      swap2\n      pop\n      swap1\n      dup1\n      mload\n      swap1\n      0x20\n      add\n      swap1\n      tag_108\n      swap3\n      swap2\n      swap1\n      tag_106\n      jump\t// in\n    tag_108:\n      pop\n        /* \"Disney/disney.sol\":3661:3703  nueva_atraccion(_nombreAtraccion, _precio) */\n      0xfc9ecd7a6c2ca96d38526a0b9cc22f2474ff8e596dd348edaab06be905ebe378\n        /* \"Disney/disney.sol\":3677:3693  _nombreAtraccion */\n      dup4\n        /* \"Disney/disney.sol\":3695:3702  _precio */\n      dup4\n        /* \"Disney/disney.sol\":3661:3703  nueva_atraccion(_nombreAtraccion, _precio) */\n      mload(0x40)\n      tag_109\n      swap3\n      swap2\n      swap1\n      tag_110\n      jump\t// in\n    tag_109:\n      mload(0x40)\n      dup1\n      swap2\n      sub\n      swap1\n      log1\n        /* \"Disney/disney.sol\":3284:3711  function NuevaAtraccion(string memory _nombreAtraccion, uint _precio) public Unicamente(msg.sender) {\r... */\n      pop\n      pop\n      pop\n      jump\t// out\n        /* \"Disney/disney.sol\":2257:2384  function GenerarTokens (uint _numTokens) public Unicamente(msg.sender) {\r... */\n    tag_33:\n        /* \"Disney/disney.sol\":2316:2326  msg.sender */\n      caller\n        /* \"Disney/disney.sol\":2513:2518  owner */\n      0x01\n      0x00\n      swap1\n      sload\n      swap1\n      0x0100\n      exp\n      swap1\n      div\n      0xffffffffffffffffffffffffffffffffffffffff\n      and\n        /* \"Disney/disney.sol\":2499:2518  _direccion == owner */\n      0xffffffffffffffffffffffffffffffffffffffff\n      and\n        /* \"Disney/disney.sol\":2499:2509  _direccion */\n      dup2\n        /* \"Disney/disney.sol\":2499:2518  _direccion == owner */\n      0xffffffffffffffffffffffffffffffffffffffff\n      and\n      eq\n        /* \"Disney/disney.sol\":2490:2567  require( _direccion == owner, \"No tienes permiso para ejecutar esta acción\") */\n      tag_112\n      jumpi\n      mload(0x40)\n      0x08c379a000000000000000000000000000000000000000000000000000000000\n      dup2\n      mstore\n      0x04\n      add\n      tag_113\n      swap1\n      tag_102\n      jump\t// in\n    tag_113:\n      mload(0x40)\n      dup1\n      swap2\n      sub\n      swap1\n      revert\n    tag_112:\n        /* \"Disney/disney.sol\":2339:2344  token */\n      0x00\n      dup1\n      sload\n      swap1\n      0x0100\n      exp\n      swap1\n      div\n      0xffffffffffffffffffffffffffffffffffffffff\n      and\n        /* \"Disney/disney.sol\":2339:2364  token.increaseTotalSupply */\n      0xffffffffffffffffffffffffffffffffffffffff\n      and\n      0x1d43cc98\n        /* \"Disney/disney.sol\":2365:2375  _numTokens */\n      dup4\n        /* \"Disney/disney.sol\":2339:2376  token.increaseTotalSupply(_numTokens) */\n      mload(0x40)\n      dup3\n      0xffffffff\n      and\n      0xe0\n      shl\n      dup2\n      mstore\n      0x04\n      add\n      tag_115\n      swap2\n      swap1\n      tag_43\n      jump\t// in\n    tag_115:\n      0x00\n      mload(0x40)\n      dup1\n      dup4\n      sub\n      dup2\n      0x00\n      dup8\n      dup1\n      extcodesize\n      iszero\n      dup1\n      iszero\n      tag_116\n      jumpi\n      0x00\n      dup1\n      revert\n    tag_116:\n      pop\n      gas\n      call\n      iszero\n      dup1\n      iszero\n      tag_118\n      jumpi\n      returndatasize\n      0x00\n      dup1\n      returndatacopy\n      revert(0x00, returndatasize)\n    tag_118:\n      pop\n      pop\n      pop\n      pop\n        /* \"Disney/disney.sol\":2257:2384  function GenerarTokens (uint _numTokens) public Unicamente(msg.sender) {\r... */\n      pop\n      pop\n      jump\t// out\n        /* \"Disney/disney.sol\":369:397  address payable public owner */\n    tag_36:\n      0x01\n      0x00\n      swap1\n      sload\n      swap1\n      0x0100\n      exp\n      swap1\n      div\n      0xffffffffffffffffffffffffffffffffffffffff\n      and\n      dup2\n      jump\t// out\n        /* \"Disney/disney.sol\":1937:2041  function BalanceOf() public view returns (uint) {\r... */\n    tag_41:\n        /* \"Disney/disney.sol\":1979:1983  uint */\n      0x00\n        /* \"Disney/disney.sol\":2003:2008  token */\n      dup1\n      0x00\n      swap1\n      sload\n      swap1\n      0x0100\n      exp\n      swap1\n      div\n      0xffffffffffffffffffffffffffffffffffffffff\n      and\n        /* \"Disney/disney.sol\":2003:2018  token.balanceOf */\n      0xffffffffffffffffffffffffffffffffffffffff\n      and\n      0x70a08231\n        /* \"Disney/disney.sol\":2027:2031  this */\n      address\n        /* \"Disney/disney.sol\":2003:2033  token.balanceOf(address(this)) */\n      mload(0x40)\n      dup3\n      0xffffffff\n      and\n      0xe0\n      shl\n      dup2\n      mstore\n      0x04\n      add\n      tag_120\n      swap2\n      swap1\n      tag_121\n      jump\t// in\n    tag_120:\n      0x20\n      mload(0x40)\n      dup1\n      dup4\n      sub\n      dup2\n      dup7\n      dup1\n      extcodesize\n      iszero\n      dup1\n      iszero\n      tag_122\n      jumpi\n      0x00\n      dup1\n      revert\n    tag_122:\n      pop\n      gas\n      staticcall\n      iszero\n      dup1\n      iszero\n      tag_124\n      jumpi\n      returndatasize\n      0x00\n      dup1\n      returndatacopy\n      revert(0x00, returndatasize)\n    tag_124:\n      pop\n      pop\n      pop\n      pop\n      mload(0x40)\n      returndatasize\n      not(0x1f)\n      0x1f\n      dup3\n      add\n      and\n      dup3\n      add\n      dup1\n      0x40\n      mstore\n      pop\n      dup2\n      add\n      swap1\n      tag_125\n      swap2\n      swap1\n      tag_126\n      jump\t// in\n    tag_125:\n        /* \"Disney/disney.sol\":1996:2033  return token.balanceOf(address(this)) */\n      swap1\n      pop\n        /* \"Disney/disney.sol\":1937:2041  function BalanceOf() public view returns (uint) {\r... */\n      swap1\n      jump\t// out\n        /* \"Disney/disney.sol\":3753:4503  function BajarAtraccion (string memory _nombreAtraccion) public Unicamente(msg.sender) {\r... */\n    tag_47:\n        /* \"Disney/disney.sol\":3828:3838  msg.sender */\n      caller\n        /* \"Disney/disney.sol\":2513:2518  owner */\n      0x01\n      0x00\n      swap1\n      sload\n      swap1\n      0x0100\n      exp\n      swap1\n      div\n      0xffffffffffffffffffffffffffffffffffffffff\n      and\n        /* \"Disney/disney.sol\":2499:2518  _direccion == owner */\n      0xffffffffffffffffffffffffffffffffffffffff\n      and\n        /* \"Disney/disney.sol\":2499:2509  _direccion */\n      dup2\n        /* \"Disney/disney.sol\":2499:2518  _direccion == owner */\n      0xffffffffffffffffffffffffffffffffffffffff\n      and\n      eq\n        /* \"Disney/disney.sol\":2490:2567  require( _direccion == owner, \"No tienes permiso para ejecutar esta acción\") */\n      tag_128\n      jumpi\n      mload(0x40)\n      0x08c379a000000000000000000000000000000000000000000000000000000000\n      dup2\n      mstore\n      0x04\n      add\n      tag_129\n      swap1\n      tag_102\n      jump\t// in\n    tag_129:\n      mload(0x40)\n      dup1\n      swap2\n      sub\n      swap1\n      revert\n    tag_128:\n        /* \"Disney/disney.sol\":3851:3860  bool alta */\n      0x00\n        /* \"Disney/disney.sol\":3962:3968  uint i */\n      dup1\n        /* \"Disney/disney.sol\":3957:4197  for (uint i = 0; i < Atracciones.length; i++) {\r... */\n    tag_131:\n        /* \"Disney/disney.sol\":3978:3989  Atracciones */\n      0x04\n        /* \"Disney/disney.sol\":3978:3996  Atracciones.length */\n      dup1\n      sload\n      swap1\n      pop\n        /* \"Disney/disney.sol\":3974:3975  i */\n      dup2\n        /* \"Disney/disney.sol\":3974:3996  i < Atracciones.length */\n      lt\n        /* \"Disney/disney.sol\":3957:4197  for (uint i = 0; i < Atracciones.length; i++) {\r... */\n      iszero\n      tag_132\n      jumpi\n        /* \"Disney/disney.sol\":4096:4112  _nombreAtraccion */\n      dup4\n        /* \"Disney/disney.sol\":4079:4113  abi.encodePacked(_nombreAtraccion) */\n      add(0x20, mload(0x40))\n      tag_134\n      swap2\n      swap1\n      tag_72\n      jump\t// in\n    tag_134:\n      mload(0x40)\n      0x20\n      dup2\n      dup4\n      sub\n      sub\n      dup2\n      mstore\n      swap1\n      0x40\n      mstore\n        /* \"Disney/disney.sol\":4069:4114  keccak256(abi.encodePacked(_nombreAtraccion)) */\n      dup1\n      mload\n      swap1\n      0x20\n      add\n      keccak256\n        /* \"Disney/disney.sol\":4049:4060  Atracciones */\n      0x04\n        /* \"Disney/disney.sol\":4061:4062  i */\n      dup3\n        /* \"Disney/disney.sol\":4049:4063  Atracciones[i] */\n      dup2\n      sload\n      dup2\n      lt\n      tag_135\n      jumpi\n      invalid\n    tag_135:\n      swap1\n      0x00\n      mstore\n      keccak256(0x00, 0x20)\n      add\n        /* \"Disney/disney.sol\":4032:4064  abi.encodePacked(Atracciones[i]) */\n      add(0x20, mload(0x40))\n      tag_137\n      swap2\n      swap1\n      tag_76\n      jump\t// in\n    tag_137:\n      mload(0x40)\n      0x20\n      dup2\n      dup4\n      sub\n      sub\n      dup2\n      mstore\n      swap1\n      0x40\n      mstore\n        /* \"Disney/disney.sol\":4022:4065  keccak256(abi.encodePacked(Atracciones[i])) */\n      dup1\n      mload\n      swap1\n      0x20\n      add\n      keccak256\n        /* \"Disney/disney.sol\":4022:4114  keccak256(abi.encodePacked(Atracciones[i])) == keccak256(abi.encodePacked(_nombreAtraccion)) */\n      eq\n        /* \"Disney/disney.sol\":4018:4186  if (keccak256(abi.encodePacked(Atracciones[i])) == keccak256(abi.encodePacked(_nombreAtraccion))) {\r... */\n      iszero\n      tag_138\n      jumpi\n        /* \"Disney/disney.sol\":4142:4146  true */\n      0x01\n        /* \"Disney/disney.sol\":4135:4146  alta = true */\n      swap2\n      pop\n        /* \"Disney/disney.sol\":4165:4170  break */\n      jump(tag_132)\n        /* \"Disney/disney.sol\":4018:4186  if (keccak256(abi.encodePacked(Atracciones[i])) == keccak256(abi.encodePacked(_nombreAtraccion))) {\r... */\n    tag_138:\n        /* \"Disney/disney.sol\":3998:4001  i++ */\n      dup1\n      dup1\n      0x01\n      add\n      swap2\n      pop\n      pop\n        /* \"Disney/disney.sol\":3957:4197  for (uint i = 0; i < Atracciones.length; i++) {\r... */\n      jump(tag_131)\n    tag_132:\n      pop\n        /* \"Disney/disney.sol\":4215:4219  alta */\n      dup1\n        /* \"Disney/disney.sol\":4207:4305  require(alta, \"No se puede dar de baja a una atraccion que no haya sido dada de alta previamente\") */\n      tag_139\n      jumpi\n      mload(0x40)\n      0x08c379a000000000000000000000000000000000000000000000000000000000\n      dup2\n      mstore\n      0x04\n      add\n      tag_140\n      swap1\n      tag_141\n      jump\t// in\n    tag_140:\n      mload(0x40)\n      dup1\n      swap2\n      sub\n      swap1\n      revert\n    tag_139:\n        /* \"Disney/disney.sol\":4411:4416  false */\n      0x00\n        /* \"Disney/disney.sol\":4365:4383  MappingAtracciones */\n      0x03\n        /* \"Disney/disney.sol\":4384:4400  _nombreAtraccion */\n      dup5\n        /* \"Disney/disney.sol\":4365:4401  MappingAtracciones[_nombreAtraccion] */\n      mload(0x40)\n      tag_142\n      swap2\n      swap1\n      tag_72\n      jump\t// in\n    tag_142:\n      swap1\n      dup2\n      mstore\n      0x20\n      add\n      mload(0x40)\n      dup1\n      swap2\n      sub\n      swap1\n      keccak256\n        /* \"Disney/disney.sol\":4365:4408  MappingAtracciones[_nombreAtraccion].estado */\n      0x02\n      add\n      0x00\n        /* \"Disney/disney.sol\":4365:4416  MappingAtracciones[_nombreAtraccion].estado = false */\n      0x0100\n      exp\n      dup2\n      sload\n      dup2\n      0xff\n      mul\n      not\n      and\n      swap1\n      dup4\n      iszero\n      iszero\n      mul\n      or\n      swap1\n      sstore\n      pop\n        /* \"Disney/disney.sol\":4463:4495  baja_atraccion(_nombreAtraccion) */\n      0x24ba6c881728980191398db8dcfd8ed4f6aeb1c08df349d63f3b85075f3e86dd\n        /* \"Disney/disney.sol\":4478:4494  _nombreAtraccion */\n      dup4\n        /* \"Disney/disney.sol\":4463:4495  baja_atraccion(_nombreAtraccion) */\n      mload(0x40)\n      tag_143\n      swap2\n      swap1\n      tag_23\n      jump\t// in\n    tag_143:\n      mload(0x40)\n      dup1\n      swap2\n      sub\n      swap1\n      log1\n        /* \"Disney/disney.sol\":2578:2579  _ */\n      pop\n        /* \"Disney/disney.sol\":3753:4503  function BajarAtraccion (string memory _nombreAtraccion) public Unicamente(msg.sender) {\r... */\n      pop\n      pop\n      jump\t// out\n        /* \"Disney/disney.sol\":581:625  mapping (address => cliente) public Clientes */\n    tag_52:\n      mstore(0x20, 0x02)\n      dup1\n      0x00\n      mstore\n      keccak256(0x00, 0x40)\n      0x00\n      swap2\n      pop\n      swap1\n      pop\n      dup1\n      0x00\n      add\n      sload\n      swap1\n      pop\n      dup2\n      jump\t// out\n        /* \"Disney/disney.sol\":3030:3085  mapping (string => atraccion) public MappingAtracciones */\n    tag_57:\n      0x03\n      dup2\n      dup1\n      mload\n      0x20\n      dup2\n      add\n      dup3\n      add\n      dup1\n      mload\n      dup5\n      dup3\n      mstore\n      0x20\n      dup4\n      add\n      0x20\n      dup6\n      add\n      keccak256\n      dup2\n      dup4\n      mstore\n      dup1\n      swap6\n      pop\n      pop\n      pop\n      pop\n      pop\n      pop\n      0x00\n      swap2\n      pop\n      swap1\n      pop\n      dup1\n      0x00\n      add\n      dup1\n      sload\n      0x01\n      dup2\n      0x01\n      and\n      iszero\n      0x0100\n      mul\n      sub\n      and\n      0x02\n      swap1\n      div\n      dup1\n      0x1f\n      add\n      0x20\n      dup1\n      swap2\n      div\n      mul\n      0x20\n      add\n      mload(0x40)\n      swap1\n      dup2\n      add\n      0x40\n      mstore\n      dup1\n      swap3\n      swap2\n      swap1\n      dup2\n      dup2\n      mstore\n      0x20\n      add\n      dup3\n      dup1\n      sload\n      0x01\n      dup2\n      0x01\n      and\n      iszero\n      0x0100\n      mul\n      sub\n      and\n      0x02\n      swap1\n      div\n      dup1\n      iszero\n      tag_144\n      jumpi\n      dup1\n      0x1f\n      lt\n      tag_145\n      jumpi\n      0x0100\n      dup1\n      dup4\n      sload\n      div\n      mul\n      dup4\n      mstore\n      swap2\n      0x20\n      add\n      swap2\n      jump(tag_144)\n    tag_145:\n      dup3\n      add\n      swap2\n      swap1\n      0x00\n      mstore\n      keccak256(0x00, 0x20)\n      swap1\n    tag_146:\n      dup2\n      sload\n      dup2\n      mstore\n      swap1\n      0x01\n      add\n      swap1\n      0x20\n      add\n      dup1\n      dup4\n      gt\n      tag_146\n      jumpi\n      dup3\n      swap1\n      sub\n      0x1f\n      and\n      dup3\n      add\n      swap2\n    tag_144:\n      pop\n      pop\n      pop\n      pop\n      pop\n      swap1\n      dup1\n      0x01\n      add\n      sload\n      swap1\n      dup1\n      0x02\n      add\n      0x00\n      swap1\n      sload\n      swap1\n      0x0100\n      exp\n      swap1\n      div\n      0xff\n      and\n      swap1\n      pop\n      dup4\n      jump\t// out\n        /* \"Disney/disney.sol\":2088:2190  function MisTokens() public view returns(uint) {\r... */\n    tag_62:\n        /* \"Disney/disney.sol\":2129:2133  uint */\n      0x00\n        /* \"Disney/disney.sol\":2155:2160  token */\n      dup1\n      0x00\n      swap1\n      sload\n      swap1\n      0x0100\n      exp\n      swap1\n      div\n      0xffffffffffffffffffffffffffffffffffffffff\n      and\n        /* \"Disney/disney.sol\":2155:2170  token.balanceOf */\n      0xffffffffffffffffffffffffffffffffffffffff\n      and\n      0x70a08231\n        /* \"Disney/disney.sol\":2171:2181  msg.sender */\n      caller\n        /* \"Disney/disney.sol\":2155:2182  token.balanceOf(msg.sender) */\n      mload(0x40)\n      dup3\n      0xffffffff\n      and\n      0xe0\n      shl\n      dup2\n      mstore\n      0x04\n      add\n      tag_148\n      swap2\n      swap1\n      tag_149\n      jump\t// in\n    tag_148:\n      0x20\n      mload(0x40)\n      dup1\n      dup4\n      sub\n      dup2\n      dup7\n      dup1\n      extcodesize\n      iszero\n      dup1\n      iszero\n      tag_150\n      jumpi\n      0x00\n      dup1\n      revert\n    tag_150:\n      pop\n      gas\n      staticcall\n      iszero\n      dup1\n      iszero\n      tag_152\n      jumpi\n      returndatasize\n      0x00\n      dup1\n      returndatacopy\n      revert(0x00, returndatasize)\n    tag_152:\n      pop\n      pop\n      pop\n      pop\n      mload(0x40)\n      returndatasize\n      not(0x1f)\n      0x1f\n      dup3\n      add\n      and\n      dup3\n      add\n      dup1\n      0x40\n      mstore\n      pop\n      dup2\n      add\n      swap1\n      tag_153\n      swap2\n      swap1\n      tag_126\n      jump\t// in\n    tag_153:\n        /* \"Disney/disney.sol\":2148:2182  return token.balanceOf(msg.sender) */\n      swap1\n      pop\n        /* \"Disney/disney.sol\":2088:2190  function MisTokens() public view returns(uint) {\r... */\n      swap1\n      jump\t// out\n        /* \"Disney/disney.sol\":1114:1887  function CompraTokens(uint _numTokens) public payable {\r... */\n    tag_66:\n        /* \"Disney/disney.sol\":1233:1243  uint coste */\n      0x00\n        /* \"Disney/disney.sol\":1246:1270  PrecioTokens(_numTokens) */\n      tag_155\n        /* \"Disney/disney.sol\":1259:1269  _numTokens */\n      dup3\n        /* \"Disney/disney.sol\":1246:1258  PrecioTokens */\n      tag_156\n        /* \"Disney/disney.sol\":1246:1270  PrecioTokens(_numTokens) */\n      jump\t// in\n    tag_155:\n        /* \"Disney/disney.sol\":1233:1270  uint coste = PrecioTokens(_numTokens) */\n      swap1\n      pop\n        /* \"Disney/disney.sol\":1362:1367  coste */\n      dup1\n        /* \"Disney/disney.sol\":1349:1358  msg.value */\n      callvalue\n        /* \"Disney/disney.sol\":1349:1367  msg.value >= coste */\n      lt\n      iszero\n        /* \"Disney/disney.sol\":1340:1402  require (msg.value >= coste, \"Cantidad de ether insuficiente\") */\n      tag_157\n      jumpi\n      mload(0x40)\n      0x08c379a000000000000000000000000000000000000000000000000000000000\n      dup2\n      mstore\n      0x04\n      add\n      tag_158\n      swap1\n      tag_159\n      jump\t// in\n    tag_158:\n      mload(0x40)\n      dup1\n      swap2\n      sub\n      swap1\n      revert\n    tag_157:\n        /* \"Disney/disney.sol\":1511:1521  _numTokens */\n      dup2\n        /* \"Disney/disney.sol\":1496:1507  BalanceOf() */\n      tag_160\n        /* \"Disney/disney.sol\":1496:1505  BalanceOf */\n      tag_41\n        /* \"Disney/disney.sol\":1496:1507  BalanceOf() */\n      jump\t// in\n    tag_160:\n        /* \"Disney/disney.sol\":1496:1521  BalanceOf() >= _numTokens */\n      lt\n      iszero\n        /* \"Disney/disney.sol\":1487:1558  require (BalanceOf() >= _numTokens, \"Cantidad de tokens insuficientes\") */\n      tag_161\n      jumpi\n      mload(0x40)\n      0x08c379a000000000000000000000000000000000000000000000000000000000\n      dup2\n      mstore\n      0x04\n      add\n      tag_162\n      swap1\n      tag_163\n      jump\t// in\n    tag_162:\n      mload(0x40)\n      dup1\n      swap2\n      sub\n      swap1\n      revert\n    tag_161:\n        /* \"Disney/disney.sol\":1625:1635  msg.sender */\n      caller\n        /* \"Disney/disney.sol\":1625:1644  msg.sender.transfer */\n      0xffffffffffffffffffffffffffffffffffffffff\n      and\n        /* \"Disney/disney.sol\":1625:1663  msg.sender.transfer(msg.value - coste) */\n      0x08fc\n        /* \"Disney/disney.sol\":1657:1662  coste */\n      dup3\n        /* \"Disney/disney.sol\":1645:1654  msg.value */\n      callvalue\n        /* \"Disney/disney.sol\":1645:1662  msg.value - coste */\n      sub\n        /* \"Disney/disney.sol\":1625:1663  msg.sender.transfer(msg.value - coste) */\n      swap1\n      dup2\n      iszero\n      mul\n      swap1\n      mload(0x40)\n      0x00\n      mload(0x40)\n      dup1\n      dup4\n      sub\n      dup2\n      dup6\n      dup9\n      dup9\n      call\n      swap4\n      pop\n      pop\n      pop\n      pop\n      iszero\n      dup1\n      iszero\n      tag_165\n      jumpi\n      returndatasize\n      0x00\n      dup1\n      returndatacopy\n      revert(0x00, returndatasize)\n    tag_165:\n      pop\n        /* \"Disney/disney.sol\":1718:1723  token */\n      0x00\n      dup1\n      sload\n      swap1\n      0x0100\n      exp\n      swap1\n      div\n      0xffffffffffffffffffffffffffffffffffffffff\n      and\n        /* \"Disney/disney.sol\":1718:1732  token.transfer */\n      0xffffffffffffffffffffffffffffffffffffffff\n      and\n      0xa9059cbb\n        /* \"Disney/disney.sol\":1733:1743  msg.sender */\n      caller\n        /* \"Disney/disney.sol\":1745:1755  _numTokens */\n      dup5\n        /* \"Disney/disney.sol\":1718:1756  token.transfer(msg.sender, _numTokens) */\n      mload(0x40)\n      dup4\n      0xffffffff\n      and\n      0xe0\n      shl\n      dup2\n      mstore\n      0x04\n      add\n      tag_166\n      swap3\n      swap2\n      swap1\n      tag_167\n      jump\t// in\n    tag_166:\n      0x20\n      mload(0x40)\n      dup1\n      dup4\n      sub\n      dup2\n      0x00\n      dup8\n      dup1\n      extcodesize\n      iszero\n      dup1\n      iszero\n      tag_168\n      jumpi\n      0x00\n      dup1\n      revert\n    tag_168:\n      pop\n      gas\n      call\n      iszero\n      dup1\n      iszero\n      tag_170\n      jumpi\n      returndatasize\n      0x00\n      dup1\n      returndatacopy\n      revert(0x00, returndatasize)\n    tag_170:\n      pop\n      pop\n      pop\n      pop\n      mload(0x40)\n      returndatasize\n      not(0x1f)\n      0x1f\n      dup3\n      add\n      and\n      dup3\n      add\n      dup1\n      0x40\n      mstore\n      pop\n      dup2\n      add\n      swap1\n      tag_171\n      swap2\n      swap1\n      tag_172\n      jump\t// in\n    tag_171:\n      pop\n        /* \"Disney/disney.sol\":1869:1879  _numTokens */\n      dup2\n        /* \"Disney/disney.sol\":1830:1838  Clientes */\n      0x02\n        /* \"Disney/disney.sol\":1830:1850  Clientes[msg.sender] */\n      0x00\n        /* \"Disney/disney.sol\":1839:1849  msg.sender */\n      caller\n        /* \"Disney/disney.sol\":1830:1850  Clientes[msg.sender] */\n      0xffffffffffffffffffffffffffffffffffffffff\n      and\n      0xffffffffffffffffffffffffffffffffffffffff\n      and\n      dup2\n      mstore\n      0x20\n      add\n      swap1\n      dup2\n      mstore\n      0x20\n      add\n      0x00\n      keccak256\n        /* \"Disney/disney.sol\":1830:1865  Clientes[msg.sender].token_comprado */\n      0x00\n      add\n      0x00\n        /* \"Disney/disney.sol\":1830:1879  Clientes[msg.sender].token_comprado += _numTokens */\n      dup3\n      dup3\n      sload\n      add\n      swap3\n      pop\n      pop\n      dup2\n      swap1\n      sstore\n      pop\n        /* \"Disney/disney.sol\":1114:1887  function CompraTokens(uint _numTokens) public payable {\r... */\n      pop\n      pop\n      jump\t// out\n        /* \"Disney/disney.sol\":919:1060  function PrecioTokens(uint _numTokens) internal pure returns (uint) {\r... */\n    tag_156:\n        /* \"Disney/disney.sol\":981:985  uint */\n      0x00\n        /* \"Disney/disney.sol\":1044:1051  1 ether */\n      0x0de0b6b3a7640000\n        /* \"Disney/disney.sol\":1030:1040  _numTokens */\n      dup3\n        /* \"Disney/disney.sol\":1030:1052  _numTokens * (1 ether) */\n      mul\n        /* \"Disney/disney.sol\":1023:1052  return _numTokens * (1 ether) */\n      swap1\n      pop\n        /* \"Disney/disney.sol\":919:1060  function PrecioTokens(uint _numTokens) internal pure returns (uint) {\r... */\n      swap2\n      swap1\n      pop\n      jump\t// out\n    tag_106:\n      dup3\n      dup1\n      sload\n      0x01\n      dup2\n      0x01\n      and\n      iszero\n      0x0100\n      mul\n      sub\n      and\n      0x02\n      swap1\n      div\n      swap1\n      0x00\n      mstore\n      keccak256(0x00, 0x20)\n      swap1\n      0x1f\n      add\n      0x20\n      swap1\n      div\n      dup2\n      add\n      swap3\n      dup3\n      0x1f\n      lt\n      tag_175\n      jumpi\n      dup1\n      mload\n      not(0xff)\n      and\n      dup4\n      dup1\n      add\n      or\n      dup6\n      sstore\n      jump(tag_174)\n    tag_175:\n      dup3\n      dup1\n      add\n      0x01\n      add\n      dup6\n      sstore\n      dup3\n      iszero\n      tag_174\n      jumpi\n      swap2\n      dup3\n      add\n    tag_176:\n      dup3\n      dup2\n      gt\n      iszero\n      tag_177\n      jumpi\n      dup3\n      mload\n      dup3\n      sstore\n      swap2\n      0x20\n      add\n      swap2\n      swap1\n      0x01\n      add\n      swap1\n      jump(tag_176)\n    tag_177:\n    tag_174:\n      pop\n      swap1\n      pop\n      tag_178\n      swap2\n      swap1\n      tag_179\n      jump\t// in\n    tag_178:\n      pop\n      swap1\n      jump\t// out\n    tag_179:\n    tag_180:\n      dup1\n      dup3\n      gt\n      iszero\n      tag_181\n      jumpi\n      0x00\n      dup2\n      0x00\n      swap1\n      sstore\n      pop\n      0x01\n      add\n      jump(tag_180)\n    tag_181:\n      pop\n      swap1\n      jump\t// out\n        /* \"--CODEGEN--\":5:135   */\n    tag_183:\n      0x00\n        /* \"--CODEGEN--\":85:91   */\n      dup2\n        /* \"--CODEGEN--\":72:92   */\n      calldataload\n        /* \"--CODEGEN--\":63:92   */\n      swap1\n      pop\n        /* \"--CODEGEN--\":97:130   */\n      tag_185\n        /* \"--CODEGEN--\":124:129   */\n      dup2\n        /* \"--CODEGEN--\":97:130   */\n      tag_186\n      jump\t// in\n    tag_185:\n        /* \"--CODEGEN--\":57:135   */\n      swap3\n      swap2\n      pop\n      pop\n      jump\t// out\n        /* \"--CODEGEN--\":142:270   */\n    tag_187:\n      0x00\n        /* \"--CODEGEN--\":223:229   */\n      dup2\n        /* \"--CODEGEN--\":217:230   */\n      mload\n        /* \"--CODEGEN--\":208:230   */\n      swap1\n      pop\n        /* \"--CODEGEN--\":235:265   */\n      tag_189\n        /* \"--CODEGEN--\":259:264   */\n      dup2\n        /* \"--CODEGEN--\":235:265   */\n      tag_190\n      jump\t// in\n    tag_189:\n        /* \"--CODEGEN--\":202:270   */\n      swap3\n      swap2\n      pop\n      pop\n      jump\t// out\n        /* \"--CODEGEN--\":278:720   */\n    tag_191:\n      0x00\n        /* \"--CODEGEN--\":380:383   */\n      dup3\n        /* \"--CODEGEN--\":373:377   */\n      0x1f\n        /* \"--CODEGEN--\":365:371   */\n      dup4\n        /* \"--CODEGEN--\":361:378   */\n      add\n        /* \"--CODEGEN--\":357:384   */\n      slt\n        /* \"--CODEGEN--\":347:349   */\n      tag_193\n      jumpi\n        /* \"--CODEGEN--\":398:399   */\n      0x00\n        /* \"--CODEGEN--\":395:396   */\n      dup1\n        /* \"--CODEGEN--\":388:400   */\n      revert\n        /* \"--CODEGEN--\":347:349   */\n    tag_193:\n        /* \"--CODEGEN--\":435:441   */\n      dup2\n        /* \"--CODEGEN--\":422:442   */\n      calldataload\n        /* \"--CODEGEN--\":457:522   */\n      tag_194\n        /* \"--CODEGEN--\":472:521   */\n      tag_195\n        /* \"--CODEGEN--\":514:520   */\n      dup3\n        /* \"--CODEGEN--\":472:521   */\n      tag_196\n      jump\t// in\n    tag_195:\n        /* \"--CODEGEN--\":457:522   */\n      tag_197\n      jump\t// in\n    tag_194:\n        /* \"--CODEGEN--\":448:522   */\n      swap2\n      pop\n        /* \"--CODEGEN--\":542:548   */\n      dup1\n        /* \"--CODEGEN--\":535:540   */\n      dup3\n        /* \"--CODEGEN--\":528:549   */\n      mstore\n        /* \"--CODEGEN--\":578:582   */\n      0x20\n        /* \"--CODEGEN--\":570:576   */\n      dup4\n        /* \"--CODEGEN--\":566:583   */\n      add\n        /* \"--CODEGEN--\":611:615   */\n      0x20\n        /* \"--CODEGEN--\":604:609   */\n      dup4\n        /* \"--CODEGEN--\":600:616   */\n      add\n        /* \"--CODEGEN--\":646:649   */\n      dup6\n        /* \"--CODEGEN--\":637:643   */\n      dup4\n        /* \"--CODEGEN--\":632:635   */\n      dup4\n        /* \"--CODEGEN--\":628:644   */\n      add\n        /* \"--CODEGEN--\":625:650   */\n      gt\n        /* \"--CODEGEN--\":622:624   */\n      iszero\n      tag_198\n      jumpi\n        /* \"--CODEGEN--\":663:664   */\n      0x00\n        /* \"--CODEGEN--\":660:661   */\n      dup1\n        /* \"--CODEGEN--\":653:665   */\n      revert\n        /* \"--CODEGEN--\":622:624   */\n    tag_198:\n        /* \"--CODEGEN--\":673:714   */\n      tag_199\n        /* \"--CODEGEN--\":707:713   */\n      dup4\n        /* \"--CODEGEN--\":702:705   */\n      dup3\n        /* \"--CODEGEN--\":697:700   */\n      dup5\n        /* \"--CODEGEN--\":673:714   */\n      tag_200\n      jump\t// in\n    tag_199:\n        /* \"--CODEGEN--\":340:720   */\n      pop\n      pop\n      pop\n      swap3\n      swap2\n      pop\n      pop\n      jump\t// out\n        /* \"--CODEGEN--\":728:858   */\n    tag_201:\n      0x00\n        /* \"--CODEGEN--\":808:814   */\n      dup2\n        /* \"--CODEGEN--\":795:815   */\n      calldataload\n        /* \"--CODEGEN--\":786:815   */\n      swap1\n      pop\n        /* \"--CODEGEN--\":820:853   */\n      tag_203\n        /* \"--CODEGEN--\":847:852   */\n      dup2\n        /* \"--CODEGEN--\":820:853   */\n      tag_204\n      jump\t// in\n    tag_203:\n        /* \"--CODEGEN--\":780:858   */\n      swap3\n      swap2\n      pop\n      pop\n      jump\t// out\n        /* \"--CODEGEN--\":865:999   */\n    tag_205:\n      0x00\n        /* \"--CODEGEN--\":949:955   */\n      dup2\n        /* \"--CODEGEN--\":943:956   */\n      mload\n        /* \"--CODEGEN--\":934:956   */\n      swap1\n      pop\n        /* \"--CODEGEN--\":961:994   */\n      tag_207\n        /* \"--CODEGEN--\":988:993   */\n      dup2\n        /* \"--CODEGEN--\":961:994   */\n      tag_204\n      jump\t// in\n    tag_207:\n        /* \"--CODEGEN--\":928:999   */\n      swap3\n      swap2\n      pop\n      pop\n      jump\t// out\n        /* \"--CODEGEN--\":1006:1247   */\n    tag_51:\n      0x00\n        /* \"--CODEGEN--\":1110:1112   */\n      0x20\n        /* \"--CODEGEN--\":1098:1107   */\n      dup3\n        /* \"--CODEGEN--\":1089:1096   */\n      dup5\n        /* \"--CODEGEN--\":1085:1108   */\n      sub\n        /* \"--CODEGEN--\":1081:1113   */\n      slt\n        /* \"--CODEGEN--\":1078:1080   */\n      iszero\n      tag_209\n      jumpi\n        /* \"--CODEGEN--\":1126:1127   */\n      0x00\n        /* \"--CODEGEN--\":1123:1124   */\n      dup1\n        /* \"--CODEGEN--\":1116:1128   */\n      revert\n        /* \"--CODEGEN--\":1078:1080   */\n    tag_209:\n        /* \"--CODEGEN--\":1161:1162   */\n      0x00\n        /* \"--CODEGEN--\":1178:1231   */\n      tag_210\n        /* \"--CODEGEN--\":1223:1230   */\n      dup5\n        /* \"--CODEGEN--\":1214:1220   */\n      dup3\n        /* \"--CODEGEN--\":1203:1212   */\n      dup6\n        /* \"--CODEGEN--\":1199:1221   */\n      add\n        /* \"--CODEGEN--\":1178:1231   */\n      tag_183\n      jump\t// in\n    tag_210:\n        /* \"--CODEGEN--\":1168:1231   */\n      swap2\n      pop\n        /* \"--CODEGEN--\":1140:1237   */\n      pop\n        /* \"--CODEGEN--\":1072:1247   */\n      swap3\n      swap2\n      pop\n      pop\n      jump\t// out\n        /* \"--CODEGEN--\":1254:1511   */\n    tag_172:\n      0x00\n        /* \"--CODEGEN--\":1366:1368   */\n      0x20\n        /* \"--CODEGEN--\":1354:1363   */\n      dup3\n        /* \"--CODEGEN--\":1345:1352   */\n      dup5\n        /* \"--CODEGEN--\":1341:1364   */\n      sub\n        /* \"--CODEGEN--\":1337:1369   */\n      slt\n        /* \"--CODEGEN--\":1334:1336   */\n      iszero\n      tag_212\n      jumpi\n        /* \"--CODEGEN--\":1382:1383   */\n      0x00\n        /* \"--CODEGEN--\":1379:1380   */\n      dup1\n        /* \"--CODEGEN--\":1372:1384   */\n      revert\n        /* \"--CODEGEN--\":1334:1336   */\n    tag_212:\n        /* \"--CODEGEN--\":1417:1418   */\n      0x00\n        /* \"--CODEGEN--\":1434:1495   */\n      tag_213\n        /* \"--CODEGEN--\":1487:1494   */\n      dup5\n        /* \"--CODEGEN--\":1478:1484   */\n      dup3\n        /* \"--CODEGEN--\":1467:1476   */\n      dup6\n        /* \"--CODEGEN--\":1463:1485   */\n      add\n        /* \"--CODEGEN--\":1434:1495   */\n      tag_187\n      jump\t// in\n    tag_213:\n        /* \"--CODEGEN--\":1424:1495   */\n      swap2\n      pop\n        /* \"--CODEGEN--\":1396:1501   */\n      pop\n        /* \"--CODEGEN--\":1328:1511   */\n      swap3\n      swap2\n      pop\n      pop\n      jump\t// out\n        /* \"--CODEGEN--\":1518:1865   */\n    tag_17:\n      0x00\n        /* \"--CODEGEN--\":1632:1634   */\n      0x20\n        /* \"--CODEGEN--\":1620:1629   */\n      dup3\n        /* \"--CODEGEN--\":1611:1618   */\n      dup5\n        /* \"--CODEGEN--\":1607:1630   */\n      sub\n        /* \"--CODEGEN--\":1603:1635   */\n      slt\n        /* \"--CODEGEN--\":1600:1602   */\n      iszero\n      tag_215\n      jumpi\n        /* \"--CODEGEN--\":1648:1649   */\n      0x00\n        /* \"--CODEGEN--\":1645:1646   */\n      dup1\n        /* \"--CODEGEN--\":1638:1650   */\n      revert\n        /* \"--CODEGEN--\":1600:1602   */\n    tag_215:\n        /* \"--CODEGEN--\":1711:1712   */\n      0x00\n        /* \"--CODEGEN--\":1700:1709   */\n      dup3\n        /* \"--CODEGEN--\":1696:1713   */\n      add\n        /* \"--CODEGEN--\":1683:1714   */\n      calldataload\n        /* \"--CODEGEN--\":1734:1752   */\n      0xffffffffffffffff\n        /* \"--CODEGEN--\":1726:1732   */\n      dup2\n        /* \"--CODEGEN--\":1723:1753   */\n      gt\n        /* \"--CODEGEN--\":1720:1722   */\n      iszero\n      tag_216\n      jumpi\n        /* \"--CODEGEN--\":1766:1767   */\n      0x00\n        /* \"--CODEGEN--\":1763:1764   */\n      dup1\n        /* \"--CODEGEN--\":1756:1768   */\n      revert\n        /* \"--CODEGEN--\":1720:1722   */\n    tag_216:\n        /* \"--CODEGEN--\":1786:1849   */\n      tag_217\n        /* \"--CODEGEN--\":1841:1848   */\n      dup5\n        /* \"--CODEGEN--\":1832:1838   */\n      dup3\n        /* \"--CODEGEN--\":1821:1830   */\n      dup6\n        /* \"--CODEGEN--\":1817:1839   */\n      add\n        /* \"--CODEGEN--\":1786:1849   */\n      tag_191\n      jump\t// in\n    tag_217:\n        /* \"--CODEGEN--\":1776:1849   */\n      swap2\n      pop\n        /* \"--CODEGEN--\":1662:1855   */\n      pop\n        /* \"--CODEGEN--\":1594:1865   */\n      swap3\n      swap2\n      pop\n      pop\n      jump\t// out\n        /* \"--CODEGEN--\":1872:2344   */\n    tag_27:\n      0x00\n      dup1\n        /* \"--CODEGEN--\":2003:2005   */\n      0x40\n        /* \"--CODEGEN--\":1991:2000   */\n      dup4\n        /* \"--CODEGEN--\":1982:1989   */\n      dup6\n        /* \"--CODEGEN--\":1978:2001   */\n      sub\n        /* \"--CODEGEN--\":1974:2006   */\n      slt\n        /* \"--CODEGEN--\":1971:1973   */\n      iszero\n      tag_219\n      jumpi\n        /* \"--CODEGEN--\":2019:2020   */\n      0x00\n        /* \"--CODEGEN--\":2016:2017   */\n      dup1\n        /* \"--CODEGEN--\":2009:2021   */\n      revert\n        /* \"--CODEGEN--\":1971:1973   */\n    tag_219:\n        /* \"--CODEGEN--\":2082:2083   */\n      0x00\n        /* \"--CODEGEN--\":2071:2080   */\n      dup4\n        /* \"--CODEGEN--\":2067:2084   */\n      add\n        /* \"--CODEGEN--\":2054:2085   */\n      calldataload\n        /* \"--CODEGEN--\":2105:2123   */\n      0xffffffffffffffff\n        /* \"--CODEGEN--\":2097:2103   */\n      dup2\n        /* \"--CODEGEN--\":2094:2124   */\n      gt\n        /* \"--CODEGEN--\":2091:2093   */\n      iszero\n      tag_220\n      jumpi\n        /* \"--CODEGEN--\":2137:2138   */\n      0x00\n        /* \"--CODEGEN--\":2134:2135   */\n      dup1\n        /* \"--CODEGEN--\":2127:2139   */\n      revert\n        /* \"--CODEGEN--\":2091:2093   */\n    tag_220:\n        /* \"--CODEGEN--\":2157:2220   */\n      tag_221\n        /* \"--CODEGEN--\":2212:2219   */\n      dup6\n        /* \"--CODEGEN--\":2203:2209   */\n      dup3\n        /* \"--CODEGEN--\":2192:2201   */\n      dup7\n        /* \"--CODEGEN--\":2188:2210   */\n      add\n        /* \"--CODEGEN--\":2157:2220   */\n      tag_191\n      jump\t// in\n    tag_221:\n        /* \"--CODEGEN--\":2147:2220   */\n      swap3\n      pop\n        /* \"--CODEGEN--\":2033:2226   */\n      pop\n        /* \"--CODEGEN--\":2257:2259   */\n      0x20\n        /* \"--CODEGEN--\":2275:2328   */\n      tag_222\n        /* \"--CODEGEN--\":2320:2327   */\n      dup6\n        /* \"--CODEGEN--\":2311:2317   */\n      dup3\n        /* \"--CODEGEN--\":2300:2309   */\n      dup7\n        /* \"--CODEGEN--\":2296:2318   */\n      add\n        /* \"--CODEGEN--\":2275:2328   */\n      tag_201\n      jump\t// in\n    tag_222:\n        /* \"--CODEGEN--\":2265:2328   */\n      swap2\n      pop\n        /* \"--CODEGEN--\":2236:2334   */\n      pop\n        /* \"--CODEGEN--\":1965:2344   */\n      swap3\n      pop\n      swap3\n      swap1\n      pop\n      jump\t// out\n        /* \"--CODEGEN--\":2351:2592   */\n    tag_32:\n      0x00\n        /* \"--CODEGEN--\":2455:2457   */\n      0x20\n        /* \"--CODEGEN--\":2443:2452   */\n      dup3\n        /* \"--CODEGEN--\":2434:2441   */\n      dup5\n        /* \"--CODEGEN--\":2430:2453   */\n      sub\n        /* \"--CODEGEN--\":2426:2458   */\n      slt\n        /* \"--CODEGEN--\":2423:2425   */\n      iszero\n      tag_224\n      jumpi\n        /* \"--CODEGEN--\":2471:2472   */\n      0x00\n        /* \"--CODEGEN--\":2468:2469   */\n      dup1\n        /* \"--CODEGEN--\":2461:2473   */\n      revert\n        /* \"--CODEGEN--\":2423:2425   */\n    tag_224:\n        /* \"--CODEGEN--\":2506:2507   */\n      0x00\n        /* \"--CODEGEN--\":2523:2576   */\n      tag_225\n        /* \"--CODEGEN--\":2568:2575   */\n      dup5\n        /* \"--CODEGEN--\":2559:2565   */\n      dup3\n        /* \"--CODEGEN--\":2548:2557   */\n      dup6\n        /* \"--CODEGEN--\":2544:2566   */\n      add\n        /* \"--CODEGEN--\":2523:2576   */\n      tag_201\n      jump\t// in\n    tag_225:\n        /* \"--CODEGEN--\":2513:2576   */\n      swap2\n      pop\n        /* \"--CODEGEN--\":2485:2582   */\n      pop\n        /* \"--CODEGEN--\":2417:2592   */\n      swap3\n      swap2\n      pop\n      pop\n      jump\t// out\n        /* \"--CODEGEN--\":2599:2862   */\n    tag_126:\n      0x00\n        /* \"--CODEGEN--\":2714:2716   */\n      0x20\n        /* \"--CODEGEN--\":2702:2711   */\n      dup3\n        /* \"--CODEGEN--\":2693:2700   */\n      dup5\n        /* \"--CODEGEN--\":2689:2712   */\n      sub\n        /* \"--CODEGEN--\":2685:2717   */\n      slt\n        /* \"--CODEGEN--\":2682:2684   */\n      iszero\n      tag_227\n      jumpi\n        /* \"--CODEGEN--\":2730:2731   */\n      0x00\n        /* \"--CODEGEN--\":2727:2728   */\n      dup1\n        /* \"--CODEGEN--\":2720:2732   */\n      revert\n        /* \"--CODEGEN--\":2682:2684   */\n    tag_227:\n        /* \"--CODEGEN--\":2765:2766   */\n      0x00\n        /* \"--CODEGEN--\":2782:2846   */\n      tag_228\n        /* \"--CODEGEN--\":2838:2845   */\n      dup5\n        /* \"--CODEGEN--\":2829:2835   */\n      dup3\n        /* \"--CODEGEN--\":2818:2827   */\n      dup6\n        /* \"--CODEGEN--\":2814:2836   */\n      add\n        /* \"--CODEGEN--\":2782:2846   */\n      tag_205\n      jump\t// in\n    tag_228:\n        /* \"--CODEGEN--\":2772:2846   */\n      swap2\n      pop\n        /* \"--CODEGEN--\":2744:2852   */\n      pop\n        /* \"--CODEGEN--\":2676:2862   */\n      swap3\n      swap2\n      pop\n      pop\n      jump\t// out\n        /* \"--CODEGEN--\":2869:3011   */\n    tag_229:\n        /* \"--CODEGEN--\":2960:3005   */\n      tag_231\n        /* \"--CODEGEN--\":2999:3004   */\n      dup2\n        /* \"--CODEGEN--\":2960:3005   */\n      tag_232\n      jump\t// in\n    tag_231:\n        /* \"--CODEGEN--\":2955:2958   */\n      dup3\n        /* \"--CODEGEN--\":2948:3006   */\n      mstore\n        /* \"--CODEGEN--\":2942:3011   */\n      pop\n      pop\n      jump\t// out\n        /* \"--CODEGEN--\":3018:3155   */\n    tag_233:\n        /* \"--CODEGEN--\":3117:3149   */\n      tag_235\n        /* \"--CODEGEN--\":3143:3148   */\n      dup2\n        /* \"--CODEGEN--\":3117:3149   */\n      tag_236\n      jump\t// in\n    tag_235:\n        /* \"--CODEGEN--\":3112:3115   */\n      dup3\n        /* \"--CODEGEN--\":3105:3150   */\n      mstore\n        /* \"--CODEGEN--\":3099:3155   */\n      pop\n      pop\n      jump\t// out\n        /* \"--CODEGEN--\":3162:3275   */\n    tag_237:\n        /* \"--CODEGEN--\":3245:3269   */\n      tag_239\n        /* \"--CODEGEN--\":3263:3268   */\n      dup2\n        /* \"--CODEGEN--\":3245:3269   */\n      tag_240\n      jump\t// in\n    tag_239:\n        /* \"--CODEGEN--\":3240:3243   */\n      dup3\n        /* \"--CODEGEN--\":3233:3270   */\n      mstore\n        /* \"--CODEGEN--\":3227:3275   */\n      pop\n      pop\n      jump\t// out\n        /* \"--CODEGEN--\":3282:3386   */\n    tag_241:\n        /* \"--CODEGEN--\":3359:3380   */\n      tag_243\n        /* \"--CODEGEN--\":3374:3379   */\n      dup2\n        /* \"--CODEGEN--\":3359:3380   */\n      tag_244\n      jump\t// in\n    tag_243:\n        /* \"--CODEGEN--\":3354:3357   */\n      dup3\n        /* \"--CODEGEN--\":3347:3381   */\n      mstore\n        /* \"--CODEGEN--\":3341:3386   */\n      pop\n      pop\n      jump\t// out\n        /* \"--CODEGEN--\":3393:3740   */\n    tag_245:\n      0x00\n        /* \"--CODEGEN--\":3505:3544   */\n      tag_247\n        /* \"--CODEGEN--\":3538:3543   */\n      dup3\n        /* \"--CODEGEN--\":3505:3544   */\n      tag_248\n      jump\t// in\n    tag_247:\n        /* \"--CODEGEN--\":3556:3627   */\n      tag_249\n        /* \"--CODEGEN--\":3620:3626   */\n      dup2\n        /* \"--CODEGEN--\":3615:3618   */\n      dup6\n        /* \"--CODEGEN--\":3556:3627   */\n      tag_250\n      jump\t// in\n    tag_249:\n        /* \"--CODEGEN--\":3549:3627   */\n      swap4\n      pop\n        /* \"--CODEGEN--\":3632:3684   */\n      tag_251\n        /* \"--CODEGEN--\":3677:3683   */\n      dup2\n        /* \"--CODEGEN--\":3672:3675   */\n      dup6\n        /* \"--CODEGEN--\":3665:3669   */\n      0x20\n        /* \"--CODEGEN--\":3658:3663   */\n      dup7\n        /* \"--CODEGEN--\":3654:3670   */\n      add\n        /* \"--CODEGEN--\":3632:3684   */\n      tag_252\n      jump\t// in\n    tag_251:\n        /* \"--CODEGEN--\":3705:3734   */\n      tag_253\n        /* \"--CODEGEN--\":3727:3733   */\n      dup2\n        /* \"--CODEGEN--\":3705:3734   */\n      tag_254\n      jump\t// in\n    tag_253:\n        /* \"--CODEGEN--\":3700:3703   */\n      dup5\n        /* \"--CODEGEN--\":3696:3735   */\n      add\n        /* \"--CODEGEN--\":3689:3735   */\n      swap2\n      pop\n        /* \"--CODEGEN--\":3485:3740   */\n      pop\n      swap3\n      swap2\n      pop\n      pop\n      jump\t// out\n        /* \"--CODEGEN--\":3747:4107   */\n    tag_255:\n      0x00\n        /* \"--CODEGEN--\":3877:3916   */\n      tag_257\n        /* \"--CODEGEN--\":3910:3915   */\n      dup3\n        /* \"--CODEGEN--\":3877:3916   */\n      tag_248\n      jump\t// in\n    tag_257:\n        /* \"--CODEGEN--\":3928:4017   */\n      tag_258\n        /* \"--CODEGEN--\":4010:4016   */\n      dup2\n        /* \"--CODEGEN--\":4005:4008   */\n      dup6\n        /* \"--CODEGEN--\":3928:4017   */\n      tag_259\n      jump\t// in\n    tag_258:\n        /* \"--CODEGEN--\":3921:4017   */\n      swap4\n      pop\n        /* \"--CODEGEN--\":4022:4074   */\n      tag_260\n        /* \"--CODEGEN--\":4067:4073   */\n      dup2\n        /* \"--CODEGEN--\":4062:4065   */\n      dup6\n        /* \"--CODEGEN--\":4055:4059   */\n      0x20\n        /* \"--CODEGEN--\":4048:4053   */\n      dup7\n        /* \"--CODEGEN--\":4044:4060   */\n      add\n        /* \"--CODEGEN--\":4022:4074   */\n      tag_252\n      jump\t// in\n    tag_260:\n        /* \"--CODEGEN--\":4095:4101   */\n      dup1\n        /* \"--CODEGEN--\":4090:4093   */\n      dup5\n        /* \"--CODEGEN--\":4086:4102   */\n      add\n        /* \"--CODEGEN--\":4079:4102   */\n      swap2\n      pop\n        /* \"--CODEGEN--\":3857:4107   */\n      pop\n      swap3\n      swap2\n      pop\n      pop\n      jump\t// out\n        /* \"--CODEGEN--\":4139:5023   */\n    tag_261:\n      0x00\n        /* \"--CODEGEN--\":4276:4281   */\n      dup2\n        /* \"--CODEGEN--\":4270:4282   */\n      sload\n        /* \"--CODEGEN--\":4310:4311   */\n      0x01\n        /* \"--CODEGEN--\":4299:4308   */\n      dup2\n        /* \"--CODEGEN--\":4295:4312   */\n      and\n        /* \"--CODEGEN--\":4323:4324   */\n      0x00\n        /* \"--CODEGEN--\":4318:4586   */\n      dup2\n      eq\n      tag_264\n      jumpi\n        /* \"--CODEGEN--\":4597:4598   */\n      0x01\n        /* \"--CODEGEN--\":4592:5017   */\n      dup2\n      eq\n      tag_265\n      jumpi\n        /* \"--CODEGEN--\":4288:5017   */\n      jump(tag_263)\n        /* \"--CODEGEN--\":4318:4586   */\n    tag_264:\n        /* \"--CODEGEN--\":4396:4400   */\n      0x7f\n        /* \"--CODEGEN--\":4392:4393   */\n      0x02\n        /* \"--CODEGEN--\":4381:4390   */\n      dup4\n        /* \"--CODEGEN--\":4377:4394   */\n      div\n        /* \"--CODEGEN--\":4373:4401   */\n      and\n        /* \"--CODEGEN--\":4415:4504   */\n      tag_266\n        /* \"--CODEGEN--\":4497:4503   */\n      dup2\n        /* \"--CODEGEN--\":4492:4495   */\n      dup8\n        /* \"--CODEGEN--\":4415:4504   */\n      tag_259\n      jump\t// in\n    tag_266:\n        /* \"--CODEGEN--\":4408:4504   */\n      swap6\n      pop\n        /* \"--CODEGEN--\":4542:4546   */\n      0xff\n        /* \"--CODEGEN--\":4538:4547   */\n      not\n        /* \"--CODEGEN--\":4527:4536   */\n      dup4\n        /* \"--CODEGEN--\":4523:4548   */\n      and\n        /* \"--CODEGEN--\":4518:4521   */\n      dup7\n        /* \"--CODEGEN--\":4511:4549   */\n      mstore\n        /* \"--CODEGEN--\":4572:4578   */\n      dup1\n        /* \"--CODEGEN--\":4567:4570   */\n      dup7\n        /* \"--CODEGEN--\":4563:4579   */\n      add\n        /* \"--CODEGEN--\":4556:4579   */\n      swap4\n      pop\n        /* \"--CODEGEN--\":4325:4586   */\n      pop\n        /* \"--CODEGEN--\":4318:4586   */\n      jump(tag_263)\n        /* \"--CODEGEN--\":4592:5017   */\n    tag_265:\n        /* \"--CODEGEN--\":4661:4662   */\n      0x02\n        /* \"--CODEGEN--\":4650:4659   */\n      dup3\n        /* \"--CODEGEN--\":4646:4663   */\n      div\n        /* \"--CODEGEN--\":4677:4766   */\n      tag_267\n        /* \"--CODEGEN--\":4759:4765   */\n      dup2\n        /* \"--CODEGEN--\":4754:4757   */\n      dup8\n        /* \"--CODEGEN--\":4677:4766   */\n      tag_259\n      jump\t// in\n    tag_267:\n        /* \"--CODEGEN--\":4670:4766   */\n      swap6\n      pop\n        /* \"--CODEGEN--\":4788:4826   */\n      tag_268\n        /* \"--CODEGEN--\":4820:4825   */\n      dup6\n        /* \"--CODEGEN--\":4788:4826   */\n      tag_269\n      jump\t// in\n    tag_268:\n        /* \"--CODEGEN--\":4842:4843   */\n      0x00\n        /* \"--CODEGEN--\":4850:4980   */\n    tag_270:\n        /* \"--CODEGEN--\":4864:4870   */\n      dup3\n        /* \"--CODEGEN--\":4861:4862   */\n      dup2\n        /* \"--CODEGEN--\":4858:4871   */\n      lt\n        /* \"--CODEGEN--\":4850:4980   */\n      iszero\n      tag_272\n      jumpi\n        /* \"--CODEGEN--\":4929:4936   */\n      dup2\n        /* \"--CODEGEN--\":4923:4937   */\n      sload\n        /* \"--CODEGEN--\":4919:4920   */\n      dup2\n        /* \"--CODEGEN--\":4914:4917   */\n      dup10\n        /* \"--CODEGEN--\":4910:4921   */\n      add\n        /* \"--CODEGEN--\":4903:4938   */\n      mstore\n        /* \"--CODEGEN--\":4970:4971   */\n      0x01\n        /* \"--CODEGEN--\":4961:4968   */\n      dup3\n        /* \"--CODEGEN--\":4957:4972   */\n      add\n        /* \"--CODEGEN--\":4946:4972   */\n      swap2\n      pop\n        /* \"--CODEGEN--\":4886:4890   */\n      0x20\n        /* \"--CODEGEN--\":4883:4884   */\n      dup2\n        /* \"--CODEGEN--\":4879:4891   */\n      add\n        /* \"--CODEGEN--\":4874:4891   */\n      swap1\n      pop\n        /* \"--CODEGEN--\":4850:4980   */\n      jump(tag_270)\n    tag_272:\n        /* \"--CODEGEN--\":5003:5009   */\n      dup3\n        /* \"--CODEGEN--\":4998:5001   */\n      dup9\n        /* \"--CODEGEN--\":4994:5010   */\n      add\n        /* \"--CODEGEN--\":4987:5010   */\n      swap6\n      pop\n        /* \"--CODEGEN--\":4599:5017   */\n      pop\n      pop\n      pop\n        /* \"--CODEGEN--\":4288:5017   */\n    tag_263:\n      pop\n        /* \"--CODEGEN--\":4246:5023   */\n      pop\n      swap3\n      swap2\n      pop\n      pop\n      jump\t// out\n        /* \"--CODEGEN--\":5032:5436   */\n    tag_273:\n      0x00\n        /* \"--CODEGEN--\":5192:5259   */\n      tag_275\n        /* \"--CODEGEN--\":5256:5258   */\n      0x23\n        /* \"--CODEGEN--\":5251:5254   */\n      dup4\n        /* \"--CODEGEN--\":5192:5259   */\n      tag_250\n      jump\t// in\n    tag_275:\n        /* \"--CODEGEN--\":5185:5259   */\n      swap2\n      pop\n        /* \"--CODEGEN--\":5292:5358   */\n      0x4c6120617472616363696f6e20656e20637565737469c3b36e206e6f20657869\n        /* \"--CODEGEN--\":5288:5289   */\n      0x00\n        /* \"--CODEGEN--\":5283:5286   */\n      dup4\n        /* \"--CODEGEN--\":5279:5290   */\n      add\n        /* \"--CODEGEN--\":5272:5359   */\n      mstore\n        /* \"--CODEGEN--\":5393:5398   */\n      0x7374650000000000000000000000000000000000000000000000000000000000\n        /* \"--CODEGEN--\":5388:5390   */\n      0x20\n        /* \"--CODEGEN--\":5383:5386   */\n      dup4\n        /* \"--CODEGEN--\":5379:5391   */\n      add\n        /* \"--CODEGEN--\":5372:5399   */\n      mstore\n        /* \"--CODEGEN--\":5427:5429   */\n      0x40\n        /* \"--CODEGEN--\":5422:5425   */\n      dup3\n        /* \"--CODEGEN--\":5418:5430   */\n      add\n        /* \"--CODEGEN--\":5411:5430   */\n      swap1\n      pop\n        /* \"--CODEGEN--\":5178:5436   */\n      swap2\n      swap1\n      pop\n      jump\t// out\n        /* \"--CODEGEN--\":5445:5900   */\n    tag_276:\n      0x00\n        /* \"--CODEGEN--\":5605:5672   */\n      tag_278\n        /* \"--CODEGEN--\":5669:5671   */\n      0x51\n        /* \"--CODEGEN--\":5664:5667   */\n      dup4\n        /* \"--CODEGEN--\":5605:5672   */\n      tag_250\n      jump\t// in\n    tag_278:\n        /* \"--CODEGEN--\":5598:5672   */\n      swap2\n      pop\n        /* \"--CODEGEN--\":5705:5739   */\n      0x4e6f207365207075656465206461722064652062616a61206120756e61206174\n        /* \"--CODEGEN--\":5701:5702   */\n      0x00\n        /* \"--CODEGEN--\":5696:5699   */\n      dup4\n        /* \"--CODEGEN--\":5692:5703   */\n      add\n        /* \"--CODEGEN--\":5685:5740   */\n      mstore\n        /* \"--CODEGEN--\":5774:5808   */\n      0x72616363696f6e20717565206e6f2068617961207369646f2064616461206465\n        /* \"--CODEGEN--\":5769:5771   */\n      0x20\n        /* \"--CODEGEN--\":5764:5767   */\n      dup4\n        /* \"--CODEGEN--\":5760:5772   */\n      add\n        /* \"--CODEGEN--\":5753:5809   */\n      mstore\n        /* \"--CODEGEN--\":5843:5862   */\n      0x20616c7461207072657669616d656e7465000000000000000000000000000000\n        /* \"--CODEGEN--\":5838:5840   */\n      0x40\n        /* \"--CODEGEN--\":5833:5836   */\n      dup4\n        /* \"--CODEGEN--\":5829:5841   */\n      add\n        /* \"--CODEGEN--\":5822:5863   */\n      mstore\n        /* \"--CODEGEN--\":5891:5893   */\n      0x60\n        /* \"--CODEGEN--\":5886:5889   */\n      dup3\n        /* \"--CODEGEN--\":5882:5894   */\n      add\n        /* \"--CODEGEN--\":5875:5894   */\n      swap1\n      pop\n        /* \"--CODEGEN--\":5591:5900   */\n      swap2\n      swap1\n      pop\n      jump\t// out\n        /* \"--CODEGEN--\":5909:6246   */\n    tag_279:\n      0x00\n        /* \"--CODEGEN--\":6087:6171   */\n      tag_281\n        /* \"--CODEGEN--\":6169:6170   */\n      0x03\n        /* \"--CODEGEN--\":6164:6167   */\n      dup4\n        /* \"--CODEGEN--\":6087:6171   */\n      tag_259\n      jump\t// in\n    tag_281:\n        /* \"--CODEGEN--\":6080:6171   */\n      swap2\n      pop\n        /* \"--CODEGEN--\":6204:6209   */\n      0x207c200000000000000000000000000000000000000000000000000000000000\n        /* \"--CODEGEN--\":6200:6201   */\n      0x00\n        /* \"--CODEGEN--\":6195:6198   */\n      dup4\n        /* \"--CODEGEN--\":6191:6202   */\n      add\n        /* \"--CODEGEN--\":6184:6210   */\n      mstore\n        /* \"--CODEGEN--\":6238:6239   */\n      0x03\n        /* \"--CODEGEN--\":6233:6236   */\n      dup3\n        /* \"--CODEGEN--\":6229:6240   */\n      add\n        /* \"--CODEGEN--\":6222:6240   */\n      swap1\n      pop\n        /* \"--CODEGEN--\":6073:6246   */\n      swap2\n      swap1\n      pop\n      jump\t// out\n        /* \"--CODEGEN--\":6255:6585   */\n    tag_282:\n      0x00\n        /* \"--CODEGEN--\":6415:6482   */\n      tag_284\n        /* \"--CODEGEN--\":6479:6481   */\n      0x1e\n        /* \"--CODEGEN--\":6474:6477   */\n      dup4\n        /* \"--CODEGEN--\":6415:6482   */\n      tag_250\n      jump\t// in\n    tag_284:\n        /* \"--CODEGEN--\":6408:6482   */\n      swap2\n      pop\n        /* \"--CODEGEN--\":6515:6547   */\n      0x43616e746964616420646520657468657220696e737566696369656e74650000\n        /* \"--CODEGEN--\":6511:6512   */\n      0x00\n        /* \"--CODEGEN--\":6506:6509   */\n      dup4\n        /* \"--CODEGEN--\":6502:6513   */\n      add\n        /* \"--CODEGEN--\":6495:6548   */\n      mstore\n        /* \"--CODEGEN--\":6576:6578   */\n      0x20\n        /* \"--CODEGEN--\":6571:6574   */\n      dup3\n        /* \"--CODEGEN--\":6567:6579   */\n      add\n        /* \"--CODEGEN--\":6560:6579   */\n      swap1\n      pop\n        /* \"--CODEGEN--\":6401:6585   */\n      swap2\n      swap1\n      pop\n      jump\t// out\n        /* \"--CODEGEN--\":6594:6926   */\n    tag_285:\n      0x00\n        /* \"--CODEGEN--\":6754:6821   */\n      tag_287\n        /* \"--CODEGEN--\":6818:6820   */\n      0x20\n        /* \"--CODEGEN--\":6813:6816   */\n      dup4\n        /* \"--CODEGEN--\":6754:6821   */\n      tag_250\n      jump\t// in\n    tag_287:\n        /* \"--CODEGEN--\":6747:6821   */\n      swap2\n      pop\n        /* \"--CODEGEN--\":6854:6888   */\n      0x43616e746964616420646520746f6b656e7320696e737566696369656e746573\n        /* \"--CODEGEN--\":6850:6851   */\n      0x00\n        /* \"--CODEGEN--\":6845:6848   */\n      dup4\n        /* \"--CODEGEN--\":6841:6852   */\n      add\n        /* \"--CODEGEN--\":6834:6889   */\n      mstore\n        /* \"--CODEGEN--\":6917:6919   */\n      0x20\n        /* \"--CODEGEN--\":6912:6915   */\n      dup3\n        /* \"--CODEGEN--\":6908:6920   */\n      add\n        /* \"--CODEGEN--\":6901:6920   */\n      swap1\n      pop\n        /* \"--CODEGEN--\":6740:6926   */\n      swap2\n      swap1\n      pop\n      jump\t// out\n        /* \"--CODEGEN--\":6935:7368   */\n    tag_288:\n      0x00\n        /* \"--CODEGEN--\":7095:7162   */\n      tag_290\n        /* \"--CODEGEN--\":7159:7161   */\n      0x2c\n        /* \"--CODEGEN--\":7154:7157   */\n      dup4\n        /* \"--CODEGEN--\":7095:7162   */\n      tag_250\n      jump\t// in\n    tag_290:\n        /* \"--CODEGEN--\":7088:7162   */\n      swap2\n      pop\n        /* \"--CODEGEN--\":7195:7229   */\n      0x4e6f207469656e6573207065726d69736f207061726120656a65637574617220\n        /* \"--CODEGEN--\":7191:7192   */\n      0x00\n        /* \"--CODEGEN--\":7186:7189   */\n      dup4\n        /* \"--CODEGEN--\":7182:7193   */\n      add\n        /* \"--CODEGEN--\":7175:7230   */\n      mstore\n        /* \"--CODEGEN--\":7264:7330   */\n      0x657374612061636369c3b36e0000000000000000000000000000000000000000\n        /* \"--CODEGEN--\":7259:7261   */\n      0x20\n        /* \"--CODEGEN--\":7254:7257   */\n      dup4\n        /* \"--CODEGEN--\":7250:7262   */\n      add\n        /* \"--CODEGEN--\":7243:7331   */\n      mstore\n        /* \"--CODEGEN--\":7359:7361   */\n      0x40\n        /* \"--CODEGEN--\":7354:7357   */\n      dup3\n        /* \"--CODEGEN--\":7350:7362   */\n      add\n        /* \"--CODEGEN--\":7343:7362   */\n      swap1\n      pop\n        /* \"--CODEGEN--\":7081:7368   */\n      swap2\n      swap1\n      pop\n      jump\t// out\n        /* \"--CODEGEN--\":7376:7489   */\n    tag_291:\n        /* \"--CODEGEN--\":7459:7483   */\n      tag_293\n        /* \"--CODEGEN--\":7477:7482   */\n      dup2\n        /* \"--CODEGEN--\":7459:7483   */\n      tag_294\n      jump\t// in\n    tag_293:\n        /* \"--CODEGEN--\":7454:7457   */\n      dup3\n        /* \"--CODEGEN--\":7447:7484   */\n      mstore\n        /* \"--CODEGEN--\":7441:7489   */\n      pop\n      pop\n      jump\t// out\n        /* \"--CODEGEN--\":7496:7771   */\n    tag_72:\n      0x00\n        /* \"--CODEGEN--\":7651:7746   */\n      tag_296\n        /* \"--CODEGEN--\":7742:7745   */\n      dup3\n        /* \"--CODEGEN--\":7733:7739   */\n      dup5\n        /* \"--CODEGEN--\":7651:7746   */\n      tag_255\n      jump\t// in\n    tag_296:\n        /* \"--CODEGEN--\":7644:7746   */\n      swap2\n      pop\n        /* \"--CODEGEN--\":7763:7766   */\n      dup2\n        /* \"--CODEGEN--\":7756:7766   */\n      swap1\n      pop\n        /* \"--CODEGEN--\":7632:7771   */\n      swap3\n      swap2\n      pop\n      pop\n      jump\t// out\n        /* \"--CODEGEN--\":7778:8475   */\n    tag_98:\n      0x00\n        /* \"--CODEGEN--\":8079:8174   */\n      tag_298\n        /* \"--CODEGEN--\":8170:8173   */\n      dup3\n        /* \"--CODEGEN--\":8161:8167   */\n      dup6\n        /* \"--CODEGEN--\":8079:8174   */\n      tag_255\n      jump\t// in\n    tag_298:\n        /* \"--CODEGEN--\":8072:8174   */\n      swap2\n      pop\n        /* \"--CODEGEN--\":8192:8340   */\n      tag_299\n        /* \"--CODEGEN--\":8336:8339   */\n      dup3\n        /* \"--CODEGEN--\":8192:8340   */\n      tag_279\n      jump\t// in\n    tag_299:\n        /* \"--CODEGEN--\":8185:8340   */\n      swap2\n      pop\n        /* \"--CODEGEN--\":8358:8450   */\n      tag_300\n        /* \"--CODEGEN--\":8446:8449   */\n      dup3\n        /* \"--CODEGEN--\":8437:8443   */\n      dup5\n        /* \"--CODEGEN--\":8358:8450   */\n      tag_261\n      jump\t// in\n    tag_300:\n        /* \"--CODEGEN--\":8351:8450   */\n      swap2\n      pop\n        /* \"--CODEGEN--\":8467:8470   */\n      dup2\n        /* \"--CODEGEN--\":8460:8470   */\n      swap1\n      pop\n        /* \"--CODEGEN--\":8060:8475   */\n      swap4\n      swap3\n      pop\n      pop\n      pop\n      jump\t// out\n        /* \"--CODEGEN--\":8482:8751   */\n    tag_76:\n      0x00\n        /* \"--CODEGEN--\":8634:8726   */\n      tag_302\n        /* \"--CODEGEN--\":8722:8725   */\n      dup3\n        /* \"--CODEGEN--\":8713:8719   */\n      dup5\n        /* \"--CODEGEN--\":8634:8726   */\n      tag_261\n      jump\t// in\n    tag_302:\n        /* \"--CODEGEN--\":8627:8726   */\n      swap2\n      pop\n        /* \"--CODEGEN--\":8743:8746   */\n      dup2\n        /* \"--CODEGEN--\":8736:8746   */\n      swap1\n      pop\n        /* \"--CODEGEN--\":8615:8751   */\n      swap3\n      swap2\n      pop\n      pop\n      jump\t// out\n        /* \"--CODEGEN--\":8758:8980   */\n    tag_121:\n      0x00\n        /* \"--CODEGEN--\":8885:8887   */\n      0x20\n        /* \"--CODEGEN--\":8874:8883   */\n      dup3\n        /* \"--CODEGEN--\":8870:8888   */\n      add\n        /* \"--CODEGEN--\":8862:8888   */\n      swap1\n      pop\n        /* \"--CODEGEN--\":8899:8970   */\n      tag_304\n        /* \"--CODEGEN--\":8967:8968   */\n      0x00\n        /* \"--CODEGEN--\":8956:8965   */\n      dup4\n        /* \"--CODEGEN--\":8952:8969   */\n      add\n        /* \"--CODEGEN--\":8943:8949   */\n      dup5\n        /* \"--CODEGEN--\":8899:8970   */\n      tag_237\n      jump\t// in\n    tag_304:\n        /* \"--CODEGEN--\":8856:8980   */\n      swap3\n      swap2\n      pop\n      pop\n      jump\t// out\n        /* \"--CODEGEN--\":8987:9225   */\n    tag_149:\n      0x00\n        /* \"--CODEGEN--\":9122:9124   */\n      0x20\n        /* \"--CODEGEN--\":9111:9120   */\n      dup3\n        /* \"--CODEGEN--\":9107:9125   */\n      add\n        /* \"--CODEGEN--\":9099:9125   */\n      swap1\n      pop\n        /* \"--CODEGEN--\":9136:9215   */\n      tag_306\n        /* \"--CODEGEN--\":9212:9213   */\n      0x00\n        /* \"--CODEGEN--\":9201:9210   */\n      dup4\n        /* \"--CODEGEN--\":9197:9214   */\n      add\n        /* \"--CODEGEN--\":9188:9194   */\n      dup5\n        /* \"--CODEGEN--\":9136:9215   */\n      tag_229\n      jump\t// in\n    tag_306:\n        /* \"--CODEGEN--\":9093:9225   */\n      swap3\n      swap2\n      pop\n      pop\n      jump\t// out\n        /* \"--CODEGEN--\":9232:9486   */\n    tag_38:\n      0x00\n        /* \"--CODEGEN--\":9375:9377   */\n      0x20\n        /* \"--CODEGEN--\":9364:9373   */\n      dup3\n        /* \"--CODEGEN--\":9360:9378   */\n      add\n        /* \"--CODEGEN--\":9352:9378   */\n      swap1\n      pop\n        /* \"--CODEGEN--\":9389:9476   */\n      tag_308\n        /* \"--CODEGEN--\":9473:9474   */\n      0x00\n        /* \"--CODEGEN--\":9462:9471   */\n      dup4\n        /* \"--CODEGEN--\":9458:9475   */\n      add\n        /* \"--CODEGEN--\":9449:9455   */\n      dup5\n        /* \"--CODEGEN--\":9389:9476   */\n      tag_233\n      jump\t// in\n    tag_308:\n        /* \"--CODEGEN--\":9346:9486   */\n      swap3\n      swap2\n      pop\n      pop\n      jump\t// out\n        /* \"--CODEGEN--\":9493:9842   */\n    tag_167:\n      0x00\n        /* \"--CODEGEN--\":9656:9658   */\n      0x40\n        /* \"--CODEGEN--\":9645:9654   */\n      dup3\n        /* \"--CODEGEN--\":9641:9659   */\n      add\n        /* \"--CODEGEN--\":9633:9659   */\n      swap1\n      pop\n        /* \"--CODEGEN--\":9670:9749   */\n      tag_310\n        /* \"--CODEGEN--\":9746:9747   */\n      0x00\n        /* \"--CODEGEN--\":9735:9744   */\n      dup4\n        /* \"--CODEGEN--\":9731:9748   */\n      add\n        /* \"--CODEGEN--\":9722:9728   */\n      dup6\n        /* \"--CODEGEN--\":9670:9749   */\n      tag_229\n      jump\t// in\n    tag_310:\n        /* \"--CODEGEN--\":9760:9832   */\n      tag_311\n        /* \"--CODEGEN--\":9828:9830   */\n      0x20\n        /* \"--CODEGEN--\":9817:9826   */\n      dup4\n        /* \"--CODEGEN--\":9813:9831   */\n      add\n        /* \"--CODEGEN--\":9804:9810   */\n      dup5\n        /* \"--CODEGEN--\":9760:9832   */\n      tag_291\n      jump\t// in\n    tag_311:\n        /* \"--CODEGEN--\":9627:9842   */\n      swap4\n      swap3\n      pop\n      pop\n      pop\n      jump\t// out\n        /* \"--CODEGEN--\":9849:10159   */\n    tag_23:\n      0x00\n        /* \"--CODEGEN--\":9996:9998   */\n      0x20\n        /* \"--CODEGEN--\":9985:9994   */\n      dup3\n        /* \"--CODEGEN--\":9981:9999   */\n      add\n        /* \"--CODEGEN--\":9973:9999   */\n      swap1\n      pop\n        /* \"--CODEGEN--\":10046:10055   */\n      dup2\n        /* \"--CODEGEN--\":10040:10044   */\n      dup2\n        /* \"--CODEGEN--\":10036:10056   */\n      sub\n        /* \"--CODEGEN--\":10032:10033   */\n      0x00\n        /* \"--CODEGEN--\":10021:10030   */\n      dup4\n        /* \"--CODEGEN--\":10017:10034   */\n      add\n        /* \"--CODEGEN--\":10010:10057   */\n      mstore\n        /* \"--CODEGEN--\":10071:10149   */\n      tag_313\n        /* \"--CODEGEN--\":10144:10148   */\n      dup2\n        /* \"--CODEGEN--\":10135:10141   */\n      dup5\n        /* \"--CODEGEN--\":10071:10149   */\n      tag_245\n      jump\t// in\n    tag_313:\n        /* \"--CODEGEN--\":10063:10149   */\n      swap1\n      pop\n        /* \"--CODEGEN--\":9967:10159   */\n      swap3\n      swap2\n      pop\n      pop\n      jump\t// out\n        /* \"--CODEGEN--\":10166:10587   */\n    tag_110:\n      0x00\n        /* \"--CODEGEN--\":10341:10343   */\n      0x40\n        /* \"--CODEGEN--\":10330:10339   */\n      dup3\n        /* \"--CODEGEN--\":10326:10344   */\n      add\n        /* \"--CODEGEN--\":10318:10344   */\n      swap1\n      pop\n        /* \"--CODEGEN--\":10391:10400   */\n      dup2\n        /* \"--CODEGEN--\":10385:10389   */\n      dup2\n        /* \"--CODEGEN--\":10381:10401   */\n      sub\n        /* \"--CODEGEN--\":10377:10378   */\n      0x00\n        /* \"--CODEGEN--\":10366:10375   */\n      dup4\n        /* \"--CODEGEN--\":10362:10379   */\n      add\n        /* \"--CODEGEN--\":10355:10402   */\n      mstore\n        /* \"--CODEGEN--\":10416:10494   */\n      tag_315\n        /* \"--CODEGEN--\":10489:10493   */\n      dup2\n        /* \"--CODEGEN--\":10480:10486   */\n      dup6\n        /* \"--CODEGEN--\":10416:10494   */\n      tag_245\n      jump\t// in\n    tag_315:\n        /* \"--CODEGEN--\":10408:10494   */\n      swap1\n      pop\n        /* \"--CODEGEN--\":10505:10577   */\n      tag_316\n        /* \"--CODEGEN--\":10573:10575   */\n      0x20\n        /* \"--CODEGEN--\":10562:10571   */\n      dup4\n        /* \"--CODEGEN--\":10558:10576   */\n      add\n        /* \"--CODEGEN--\":10549:10555   */\n      dup5\n        /* \"--CODEGEN--\":10505:10577   */\n      tag_291\n      jump\t// in\n    tag_316:\n        /* \"--CODEGEN--\":10312:10587   */\n      swap4\n      swap3\n      pop\n      pop\n      pop\n      jump\t// out\n        /* \"--CODEGEN--\":10594:11114   */\n    tag_59:\n      0x00\n        /* \"--CODEGEN--\":10791:10793   */\n      0x60\n        /* \"--CODEGEN--\":10780:10789   */\n      dup3\n        /* \"--CODEGEN--\":10776:10794   */\n      add\n        /* \"--CODEGEN--\":10768:10794   */\n      swap1\n      pop\n        /* \"--CODEGEN--\":10841:10850   */\n      dup2\n        /* \"--CODEGEN--\":10835:10839   */\n      dup2\n        /* \"--CODEGEN--\":10831:10851   */\n      sub\n        /* \"--CODEGEN--\":10827:10828   */\n      0x00\n        /* \"--CODEGEN--\":10816:10825   */\n      dup4\n        /* \"--CODEGEN--\":10812:10829   */\n      add\n        /* \"--CODEGEN--\":10805:10852   */\n      mstore\n        /* \"--CODEGEN--\":10866:10944   */\n      tag_318\n        /* \"--CODEGEN--\":10939:10943   */\n      dup2\n        /* \"--CODEGEN--\":10930:10936   */\n      dup7\n        /* \"--CODEGEN--\":10866:10944   */\n      tag_245\n      jump\t// in\n    tag_318:\n        /* \"--CODEGEN--\":10858:10944   */\n      swap1\n      pop\n        /* \"--CODEGEN--\":10955:11027   */\n      tag_319\n        /* \"--CODEGEN--\":11023:11025   */\n      0x20\n        /* \"--CODEGEN--\":11012:11021   */\n      dup4\n        /* \"--CODEGEN--\":11008:11026   */\n      add\n        /* \"--CODEGEN--\":10999:11005   */\n      dup6\n        /* \"--CODEGEN--\":10955:11027   */\n      tag_291\n      jump\t// in\n    tag_319:\n        /* \"--CODEGEN--\":11038:11104   */\n      tag_320\n        /* \"--CODEGEN--\":11100:11102   */\n      0x40\n        /* \"--CODEGEN--\":11089:11098   */\n      dup4\n        /* \"--CODEGEN--\":11085:11103   */\n      add\n        /* \"--CODEGEN--\":11076:11082   */\n      dup5\n        /* \"--CODEGEN--\":11038:11104   */\n      tag_241\n      jump\t// in\n    tag_320:\n        /* \"--CODEGEN--\":10762:11114   */\n      swap5\n      swap4\n      pop\n      pop\n      pop\n      pop\n      jump\t// out\n        /* \"--CODEGEN--\":11121:11537   */\n    tag_84:\n      0x00\n        /* \"--CODEGEN--\":11321:11323   */\n      0x20\n        /* \"--CODEGEN--\":11310:11319   */\n      dup3\n        /* \"--CODEGEN--\":11306:11324   */\n      add\n        /* \"--CODEGEN--\":11298:11324   */\n      swap1\n      pop\n        /* \"--CODEGEN--\":11371:11380   */\n      dup2\n        /* \"--CODEGEN--\":11365:11369   */\n      dup2\n        /* \"--CODEGEN--\":11361:11381   */\n      sub\n        /* \"--CODEGEN--\":11357:11358   */\n      0x00\n        /* \"--CODEGEN--\":11346:11355   */\n      dup4\n        /* \"--CODEGEN--\":11342:11359   */\n      add\n        /* \"--CODEGEN--\":11335:11382   */\n      mstore\n        /* \"--CODEGEN--\":11396:11527   */\n      tag_322\n        /* \"--CODEGEN--\":11522:11526   */\n      dup2\n        /* \"--CODEGEN--\":11396:11527   */\n      tag_273\n      jump\t// in\n    tag_322:\n        /* \"--CODEGEN--\":11388:11527   */\n      swap1\n      pop\n        /* \"--CODEGEN--\":11292:11537   */\n      swap2\n      swap1\n      pop\n      jump\t// out\n        /* \"--CODEGEN--\":11544:11960   */\n    tag_141:\n      0x00\n        /* \"--CODEGEN--\":11744:11746   */\n      0x20\n        /* \"--CODEGEN--\":11733:11742   */\n      dup3\n        /* \"--CODEGEN--\":11729:11747   */\n      add\n        /* \"--CODEGEN--\":11721:11747   */\n      swap1\n      pop\n        /* \"--CODEGEN--\":11794:11803   */\n      dup2\n        /* \"--CODEGEN--\":11788:11792   */\n      dup2\n        /* \"--CODEGEN--\":11784:11804   */\n      sub\n        /* \"--CODEGEN--\":11780:11781   */\n      0x00\n        /* \"--CODEGEN--\":11769:11778   */\n      dup4\n        /* \"--CODEGEN--\":11765:11782   */\n      add\n        /* \"--CODEGEN--\":11758:11805   */\n      mstore\n        /* \"--CODEGEN--\":11819:11950   */\n      tag_324\n        /* \"--CODEGEN--\":11945:11949   */\n      dup2\n        /* \"--CODEGEN--\":11819:11950   */\n      tag_276\n      jump\t// in\n    tag_324:\n        /* \"--CODEGEN--\":11811:11950   */\n      swap1\n      pop\n        /* \"--CODEGEN--\":11715:11960   */\n      swap2\n      swap1\n      pop\n      jump\t// out\n        /* \"--CODEGEN--\":11967:12383   */\n    tag_159:\n      0x00\n        /* \"--CODEGEN--\":12167:12169   */\n      0x20\n        /* \"--CODEGEN--\":12156:12165   */\n      dup3\n        /* \"--CODEGEN--\":12152:12170   */\n      add\n        /* \"--CODEGEN--\":12144:12170   */\n      swap1\n      pop\n        /* \"--CODEGEN--\":12217:12226   */\n      dup2\n        /* \"--CODEGEN--\":12211:12215   */\n      dup2\n        /* \"--CODEGEN--\":12207:12227   */\n      sub\n        /* \"--CODEGEN--\":12203:12204   */\n      0x00\n        /* \"--CODEGEN--\":12192:12201   */\n      dup4\n        /* \"--CODEGEN--\":12188:12205   */\n      add\n        /* \"--CODEGEN--\":12181:12228   */\n      mstore\n        /* \"--CODEGEN--\":12242:12373   */\n      tag_326\n        /* \"--CODEGEN--\":12368:12372   */\n      dup2\n        /* \"--CODEGEN--\":12242:12373   */\n      tag_282\n      jump\t// in\n    tag_326:\n        /* \"--CODEGEN--\":12234:12373   */\n      swap1\n      pop\n        /* \"--CODEGEN--\":12138:12383   */\n      swap2\n      swap1\n      pop\n      jump\t// out\n        /* \"--CODEGEN--\":12390:12806   */\n    tag_163:\n      0x00\n        /* \"--CODEGEN--\":12590:12592   */\n      0x20\n        /* \"--CODEGEN--\":12579:12588   */\n      dup3\n        /* \"--CODEGEN--\":12575:12593   */\n      add\n        /* \"--CODEGEN--\":12567:12593   */\n      swap1\n      pop\n        /* \"--CODEGEN--\":12640:12649   */\n      dup2\n        /* \"--CODEGEN--\":12634:12638   */\n      dup2\n        /* \"--CODEGEN--\":12630:12650   */\n      sub\n        /* \"--CODEGEN--\":12626:12627   */\n      0x00\n        /* \"--CODEGEN--\":12615:12624   */\n      dup4\n        /* \"--CODEGEN--\":12611:12628   */\n      add\n        /* \"--CODEGEN--\":12604:12651   */\n      mstore\n        /* \"--CODEGEN--\":12665:12796   */\n      tag_328\n        /* \"--CODEGEN--\":12791:12795   */\n      dup2\n        /* \"--CODEGEN--\":12665:12796   */\n      tag_285\n      jump\t// in\n    tag_328:\n        /* \"--CODEGEN--\":12657:12796   */\n      swap1\n      pop\n        /* \"--CODEGEN--\":12561:12806   */\n      swap2\n      swap1\n      pop\n      jump\t// out\n        /* \"--CODEGEN--\":12813:13229   */\n    tag_102:\n      0x00\n        /* \"--CODEGEN--\":13013:13015   */\n      0x20\n        /* \"--CODEGEN--\":13002:13011   */\n      dup3\n        /* \"--CODEGEN--\":12998:13016   */\n      add\n        /* \"--CODEGEN--\":12990:13016   */\n      swap1\n      pop\n        /* \"--CODEGEN--\":13063:13072   */\n      dup2\n        /* \"--CODEGEN--\":13057:13061   */\n      dup2\n        /* \"--CODEGEN--\":13053:13073   */\n      sub\n        /* \"--CODEGEN--\":13049:13050   */\n      0x00\n        /* \"--CODEGEN--\":13038:13047   */\n      dup4\n        /* \"--CODEGEN--\":13034:13051   */\n      add\n        /* \"--CODEGEN--\":13027:13074   */\n      mstore\n        /* \"--CODEGEN--\":13088:13219   */\n      tag_330\n        /* \"--CODEGEN--\":13214:13218   */\n      dup2\n        /* \"--CODEGEN--\":13088:13219   */\n      tag_288\n      jump\t// in\n    tag_330:\n        /* \"--CODEGEN--\":13080:13219   */\n      swap1\n      pop\n        /* \"--CODEGEN--\":12984:13229   */\n      swap2\n      swap1\n      pop\n      jump\t// out\n        /* \"--CODEGEN--\":13236:13458   */\n    tag_43:\n      0x00\n        /* \"--CODEGEN--\":13363:13365   */\n      0x20\n        /* \"--CODEGEN--\":13352:13361   */\n      dup3\n        /* \"--CODEGEN--\":13348:13366   */\n      add\n        /* \"--CODEGEN--\":13340:13366   */\n      swap1\n      pop\n        /* \"--CODEGEN--\":13377:13448   */\n      tag_332\n        /* \"--CODEGEN--\":13445:13446   */\n      0x00\n        /* \"--CODEGEN--\":13434:13443   */\n      dup4\n        /* \"--CODEGEN--\":13430:13447   */\n      add\n        /* \"--CODEGEN--\":13421:13427   */\n      dup5\n        /* \"--CODEGEN--\":13377:13448   */\n      tag_291\n      jump\t// in\n    tag_332:\n        /* \"--CODEGEN--\":13334:13458   */\n      swap3\n      swap2\n      pop\n      pop\n      jump\t// out\n        /* \"--CODEGEN--\":13465:13721   */\n    tag_197:\n      0x00\n        /* \"--CODEGEN--\":13527:13529   */\n      0x40\n        /* \"--CODEGEN--\":13521:13530   */\n      mload\n        /* \"--CODEGEN--\":13511:13530   */\n      swap1\n      pop\n        /* \"--CODEGEN--\":13565:13569   */\n      dup2\n        /* \"--CODEGEN--\":13557:13563   */\n      dup2\n        /* \"--CODEGEN--\":13553:13570   */\n      add\n        /* \"--CODEGEN--\":13664:13670   */\n      dup2\n        /* \"--CODEGEN--\":13652:13662   */\n      dup2\n        /* \"--CODEGEN--\":13649:13671   */\n      lt\n        /* \"--CODEGEN--\":13628:13646   */\n      0xffffffffffffffff\n        /* \"--CODEGEN--\":13616:13626   */\n      dup3\n        /* \"--CODEGEN--\":13613:13647   */\n      gt\n        /* \"--CODEGEN--\":13610:13672   */\n      or\n        /* \"--CODEGEN--\":13607:13609   */\n      iszero\n      tag_334\n      jumpi\n        /* \"--CODEGEN--\":13685:13686   */\n      0x00\n        /* \"--CODEGEN--\":13682:13683   */\n      dup1\n        /* \"--CODEGEN--\":13675:13687   */\n      revert\n        /* \"--CODEGEN--\":13607:13609   */\n    tag_334:\n        /* \"--CODEGEN--\":13705:13715   */\n      dup1\n        /* \"--CODEGEN--\":13701:13703   */\n      0x40\n        /* \"--CODEGEN--\":13694:13716   */\n      mstore\n        /* \"--CODEGEN--\":13505:13721   */\n      pop\n      swap2\n      swap1\n      pop\n      jump\t// out\n        /* \"--CODEGEN--\":13728:14050   */\n    tag_196:\n      0x00\n        /* \"--CODEGEN--\":13872:13890   */\n      0xffffffffffffffff\n        /* \"--CODEGEN--\":13864:13870   */\n      dup3\n        /* \"--CODEGEN--\":13861:13891   */\n      gt\n        /* \"--CODEGEN--\":13858:13860   */\n      iszero\n      tag_336\n      jumpi\n        /* \"--CODEGEN--\":13904:13905   */\n      0x00\n        /* \"--CODEGEN--\":13901:13902   */\n      dup1\n        /* \"--CODEGEN--\":13894:13906   */\n      revert\n        /* \"--CODEGEN--\":13858:13860   */\n    tag_336:\n        /* \"--CODEGEN--\":13971:13975   */\n      0x1f\n        /* \"--CODEGEN--\":13967:13976   */\n      not\n        /* \"--CODEGEN--\":13960:13964   */\n      0x1f\n        /* \"--CODEGEN--\":13952:13958   */\n      dup4\n        /* \"--CODEGEN--\":13948:13965   */\n      add\n        /* \"--CODEGEN--\":13944:13977   */\n      and\n        /* \"--CODEGEN--\":13936:13977   */\n      swap1\n      pop\n        /* \"--CODEGEN--\":14035:14039   */\n      0x20\n        /* \"--CODEGEN--\":14029:14033   */\n      dup2\n        /* \"--CODEGEN--\":14025:14040   */\n      add\n        /* \"--CODEGEN--\":14017:14040   */\n      swap1\n      pop\n        /* \"--CODEGEN--\":13795:14050   */\n      swap2\n      swap1\n      pop\n      jump\t// out\n        /* \"--CODEGEN--\":14057:14215   */\n    tag_269:\n      0x00\n        /* \"--CODEGEN--\":14125:14128   */\n      dup2\n        /* \"--CODEGEN--\":14117:14128   */\n      swap1\n      pop\n        /* \"--CODEGEN--\":14162:14165   */\n      dup2\n        /* \"--CODEGEN--\":14159:14160   */\n      0x00\n        /* \"--CODEGEN--\":14152:14166   */\n      mstore\n        /* \"--CODEGEN--\":14194:14198   */\n      0x20\n        /* \"--CODEGEN--\":14191:14192   */\n      0x00\n        /* \"--CODEGEN--\":14181:14199   */\n      keccak256\n        /* \"--CODEGEN--\":14173:14199   */\n      swap1\n      pop\n        /* \"--CODEGEN--\":14111:14215   */\n      swap2\n      swap1\n      pop\n      jump\t// out\n        /* \"--CODEGEN--\":14222:14344   */\n    tag_248:\n      0x00\n        /* \"--CODEGEN--\":14316:14321   */\n      dup2\n        /* \"--CODEGEN--\":14310:14322   */\n      mload\n        /* \"--CODEGEN--\":14300:14322   */\n      swap1\n      pop\n        /* \"--CODEGEN--\":14281:14344   */\n      swap2\n      swap1\n      pop\n      jump\t// out\n        /* \"--CODEGEN--\":14352:14515   */\n    tag_250:\n      0x00\n        /* \"--CODEGEN--\":14467:14473   */\n      dup3\n        /* \"--CODEGEN--\":14462:14465   */\n      dup3\n        /* \"--CODEGEN--\":14455:14474   */\n      mstore\n        /* \"--CODEGEN--\":14504:14508   */\n      0x20\n        /* \"--CODEGEN--\":14499:14502   */\n      dup3\n        /* \"--CODEGEN--\":14495:14509   */\n      add\n        /* \"--CODEGEN--\":14480:14509   */\n      swap1\n      pop\n        /* \"--CODEGEN--\":14448:14515   */\n      swap3\n      swap2\n      pop\n      pop\n      jump\t// out\n        /* \"--CODEGEN--\":14524:14669   */\n    tag_259:\n      0x00\n        /* \"--CODEGEN--\":14660:14663   */\n      dup2\n        /* \"--CODEGEN--\":14645:14663   */\n      swap1\n      pop\n        /* \"--CODEGEN--\":14638:14669   */\n      swap3\n      swap2\n      pop\n      pop\n      jump\t// out\n        /* \"--CODEGEN--\":14677:14768   */\n    tag_240:\n      0x00\n        /* \"--CODEGEN--\":14739:14763   */\n      tag_342\n        /* \"--CODEGEN--\":14757:14762   */\n      dup3\n        /* \"--CODEGEN--\":14739:14763   */\n      tag_343\n      jump\t// in\n    tag_342:\n        /* \"--CODEGEN--\":14728:14763   */\n      swap1\n      pop\n        /* \"--CODEGEN--\":14722:14768   */\n      swap2\n      swap1\n      pop\n      jump\t// out\n        /* \"--CODEGEN--\":14775:14874   */\n    tag_236:\n      0x00\n        /* \"--CODEGEN--\":14845:14869   */\n      tag_345\n        /* \"--CODEGEN--\":14863:14868   */\n      dup3\n        /* \"--CODEGEN--\":14845:14869   */\n      tag_343\n      jump\t// in\n    tag_345:\n        /* \"--CODEGEN--\":14834:14869   */\n      swap1\n      pop\n        /* \"--CODEGEN--\":14828:14874   */\n      swap2\n      swap1\n      pop\n      jump\t// out\n        /* \"--CODEGEN--\":14881:14966   */\n    tag_244:\n      0x00\n        /* \"--CODEGEN--\":14954:14959   */\n      dup2\n        /* \"--CODEGEN--\":14947:14960   */\n      iszero\n        /* \"--CODEGEN--\":14940:14961   */\n      iszero\n        /* \"--CODEGEN--\":14929:14961   */\n      swap1\n      pop\n        /* \"--CODEGEN--\":14923:14966   */\n      swap2\n      swap1\n      pop\n      jump\t// out\n        /* \"--CODEGEN--\":14973:15094   */\n    tag_343:\n      0x00\n        /* \"--CODEGEN--\":15046:15088   */\n      0xffffffffffffffffffffffffffffffffffffffff\n        /* \"--CODEGEN--\":15039:15044   */\n      dup3\n        /* \"--CODEGEN--\":15035:15089   */\n      and\n        /* \"--CODEGEN--\":15024:15089   */\n      swap1\n      pop\n        /* \"--CODEGEN--\":15018:15094   */\n      swap2\n      swap1\n      pop\n      jump\t// out\n        /* \"--CODEGEN--\":15101:15173   */\n    tag_294:\n      0x00\n        /* \"--CODEGEN--\":15163:15168   */\n      dup2\n        /* \"--CODEGEN--\":15152:15168   */\n      swap1\n      pop\n        /* \"--CODEGEN--\":15146:15173   */\n      swap2\n      swap1\n      pop\n      jump\t// out\n        /* \"--CODEGEN--\":15180:15309   */\n    tag_232:\n      0x00\n        /* \"--CODEGEN--\":15267:15304   */\n      tag_350\n        /* \"--CODEGEN--\":15298:15303   */\n      dup3\n        /* \"--CODEGEN--\":15267:15304   */\n      tag_351\n      jump\t// in\n    tag_350:\n        /* \"--CODEGEN--\":15254:15304   */\n      swap1\n      pop\n        /* \"--CODEGEN--\":15248:15309   */\n      swap2\n      swap1\n      pop\n      jump\t// out\n        /* \"--CODEGEN--\":15316:15437   */\n    tag_351:\n      0x00\n        /* \"--CODEGEN--\":15395:15432   */\n      tag_353\n        /* \"--CODEGEN--\":15426:15431   */\n      dup3\n        /* \"--CODEGEN--\":15395:15432   */\n      tag_354\n      jump\t// in\n    tag_353:\n        /* \"--CODEGEN--\":15382:15432   */\n      swap1\n      pop\n        /* \"--CODEGEN--\":15376:15437   */\n      swap2\n      swap1\n      pop\n      jump\t// out\n        /* \"--CODEGEN--\":15444:15552   */\n    tag_354:\n      0x00\n        /* \"--CODEGEN--\":15523:15547   */\n      tag_356\n        /* \"--CODEGEN--\":15541:15546   */\n      dup3\n        /* \"--CODEGEN--\":15523:15547   */\n      tag_343\n      jump\t// in\n    tag_356:\n        /* \"--CODEGEN--\":15510:15547   */\n      swap1\n      pop\n        /* \"--CODEGEN--\":15504:15552   */\n      swap2\n      swap1\n      pop\n      jump\t// out\n        /* \"--CODEGEN--\":15560:15705   */\n    tag_200:\n        /* \"--CODEGEN--\":15641:15647   */\n      dup3\n        /* \"--CODEGEN--\":15636:15639   */\n      dup2\n        /* \"--CODEGEN--\":15631:15634   */\n      dup4\n        /* \"--CODEGEN--\":15618:15648   */\n      calldatacopy\n        /* \"--CODEGEN--\":15697:15698   */\n      0x00\n        /* \"--CODEGEN--\":15688:15694   */\n      dup4\n        /* \"--CODEGEN--\":15683:15686   */\n      dup4\n        /* \"--CODEGEN--\":15679:15695   */\n      add\n        /* \"--CODEGEN--\":15672:15699   */\n      mstore\n        /* \"--CODEGEN--\":15611:15705   */\n      pop\n      pop\n      pop\n      jump\t// out\n        /* \"--CODEGEN--\":15714:15982   */\n    tag_252:\n        /* \"--CODEGEN--\":15779:15780   */\n      0x00\n        /* \"--CODEGEN--\":15786:15887   */\n    tag_359:\n        /* \"--CODEGEN--\":15800:15806   */\n      dup4\n        /* \"--CODEGEN--\":15797:15798   */\n      dup2\n        /* \"--CODEGEN--\":15794:15807   */\n      lt\n        /* \"--CODEGEN--\":15786:15887   */\n      iszero\n      tag_361\n      jumpi\n        /* \"--CODEGEN--\":15876:15877   */\n      dup1\n        /* \"--CODEGEN--\":15871:15874   */\n      dup3\n        /* \"--CODEGEN--\":15867:15878   */\n      add\n        /* \"--CODEGEN--\":15861:15879   */\n      mload\n        /* \"--CODEGEN--\":15857:15858   */\n      dup2\n        /* \"--CODEGEN--\":15852:15855   */\n      dup5\n        /* \"--CODEGEN--\":15848:15859   */\n      add\n        /* \"--CODEGEN--\":15841:15880   */\n      mstore\n        /* \"--CODEGEN--\":15822:15824   */\n      0x20\n        /* \"--CODEGEN--\":15819:15820   */\n      dup2\n        /* \"--CODEGEN--\":15815:15825   */\n      add\n        /* \"--CODEGEN--\":15810:15825   */\n      swap1\n      pop\n        /* \"--CODEGEN--\":15786:15887   */\n      jump(tag_359)\n    tag_361:\n        /* \"--CODEGEN--\":15902:15908   */\n      dup4\n        /* \"--CODEGEN--\":15899:15900   */\n      dup2\n        /* \"--CODEGEN--\":15896:15909   */\n      gt\n        /* \"--CODEGEN--\":15893:15895   */\n      iszero\n      tag_362\n      jumpi\n        /* \"--CODEGEN--\":15967:15968   */\n      0x00\n        /* \"--CODEGEN--\":15958:15964   */\n      dup5\n        /* \"--CODEGEN--\":15953:15956   */\n      dup5\n        /* \"--CODEGEN--\":15949:15965   */\n      add\n        /* \"--CODEGEN--\":15942:15969   */\n      mstore\n        /* \"--CODEGEN--\":15893:15895   */\n    tag_362:\n        /* \"--CODEGEN--\":15763:15982   */\n      pop\n      pop\n      pop\n      pop\n      jump\t// out\n        /* \"--CODEGEN--\":15990:16087   */\n    tag_254:\n      0x00\n        /* \"--CODEGEN--\":16078:16080   */\n      0x1f\n        /* \"--CODEGEN--\":16074:16081   */\n      not\n        /* \"--CODEGEN--\":16069:16071   */\n      0x1f\n        /* \"--CODEGEN--\":16062:16067   */\n      dup4\n        /* \"--CODEGEN--\":16058:16072   */\n      add\n        /* \"--CODEGEN--\":16054:16082   */\n      and\n        /* \"--CODEGEN--\":16044:16082   */\n      swap1\n      pop\n        /* \"--CODEGEN--\":16038:16087   */\n      swap2\n      swap1\n      pop\n      jump\t// out\n        /* \"--CODEGEN--\":16095:16212   */\n    tag_186:\n        /* \"--CODEGEN--\":16164:16188   */\n      tag_365\n        /* \"--CODEGEN--\":16182:16187   */\n      dup2\n        /* \"--CODEGEN--\":16164:16188   */\n      tag_240\n      jump\t// in\n    tag_365:\n        /* \"--CODEGEN--\":16157:16162   */\n      dup2\n        /* \"--CODEGEN--\":16154:16189   */\n      eq\n        /* \"--CODEGEN--\":16144:16146   */\n      tag_366\n      jumpi\n        /* \"--CODEGEN--\":16203:16204   */\n      0x00\n        /* \"--CODEGEN--\":16200:16201   */\n      dup1\n        /* \"--CODEGEN--\":16193:16205   */\n      revert\n        /* \"--CODEGEN--\":16144:16146   */\n    tag_366:\n        /* \"--CODEGEN--\":16138:16212   */\n      pop\n      jump\t// out\n        /* \"--CODEGEN--\":16219:16330   */\n    tag_190:\n        /* \"--CODEGEN--\":16285:16306   */\n      tag_368\n        /* \"--CODEGEN--\":16300:16305   */\n      dup2\n        /* \"--CODEGEN--\":16285:16306   */\n      tag_244\n      jump\t// in\n    tag_368:\n        /* \"--CODEGEN--\":16278:16283   */\n      dup2\n        /* \"--CODEGEN--\":16275:16307   */\n      eq\n        /* \"--CODEGEN--\":16265:16267   */\n      tag_369\n      jumpi\n        /* \"--CODEGEN--\":16321:16322   */\n      0x00\n        /* \"--CODEGEN--\":16318:16319   */\n      dup1\n        /* \"--CODEGEN--\":16311:16323   */\n      revert\n        /* \"--CODEGEN--\":16265:16267   */\n    tag_369:\n        /* \"--CODEGEN--\":16259:16330   */\n      pop\n      jump\t// out\n        /* \"--CODEGEN--\":16337:16454   */\n    tag_204:\n        /* \"--CODEGEN--\":16406:16430   */\n      tag_371\n        /* \"--CODEGEN--\":16424:16429   */\n      dup2\n        /* \"--CODEGEN--\":16406:16430   */\n      tag_294\n      jump\t// in\n    tag_371:\n        /* \"--CODEGEN--\":16399:16404   */\n      dup2\n        /* \"--CODEGEN--\":16396:16431   */\n      eq\n        /* \"--CODEGEN--\":16386:16388   */\n      tag_372\n      jumpi\n        /* \"--CODEGEN--\":16445:16446   */\n      0x00\n        /* \"--CODEGEN--\":16442:16443   */\n      dup1\n        /* \"--CODEGEN--\":16435:16447   */\n      revert\n        /* \"--CODEGEN--\":16386:16388   */\n    tag_372:\n        /* \"--CODEGEN--\":16380:16454   */\n      pop\n      jump\t// out\n\n    auxdata: 0xa264697066735822122065fdeae73da32139b10762614dec2a210d8821b0fba5faa159e62c5f21bd41f864736f6c634300060c0033\n}\n\nsub_1: assembly {\n        /* \"Disney/ERC20.sol\":1459:3770  contract ERC20Basic is IERC20 {\r... */\n      mstore(0x40, 0x80)\n        /* \"Disney/ERC20.sol\":1803:1939  constructor (uint256 initialSupply) public {\r... */\n      callvalue\n      dup1\n      iszero\n      tag_1\n      jumpi\n      0x00\n      dup1\n      revert\n    tag_1:\n      pop\n      mload(0x40)\n      sub(codesize, bytecodeSize)\n      dup1\n      bytecodeSize\n      dup4\n      codecopy\n      dup2\n      dup2\n      add\n      0x40\n      mstore\n      dup2\n      add\n      swap1\n      tag_2\n      swap2\n      swap1\n      tag_3\n      jump\t// in\n    tag_2:\n        /* \"Disney/ERC20.sol\":1872:1885  initialSupply */\n      dup1\n        /* \"Disney/ERC20.sol\":1857:1869  totalSupply_ */\n      0x02\n        /* \"Disney/ERC20.sol\":1857:1885  totalSupply_ = initialSupply */\n      dup2\n      swap1\n      sstore\n      pop\n        /* \"Disney/ERC20.sol\":1919:1931  totalSupply_ */\n      sload(0x02)\n        /* \"Disney/ERC20.sol\":1896:1904  balances */\n      0x00\n        /* \"Disney/ERC20.sol\":1896:1916  balances[msg.sender] */\n      dup1\n        /* \"Disney/ERC20.sol\":1905:1915  msg.sender */\n      caller\n        /* \"Disney/ERC20.sol\":1896:1916  balances[msg.sender] */\n      0xffffffffffffffffffffffffffffffffffffffff\n      and\n      0xffffffffffffffffffffffffffffffffffffffff\n      and\n      dup2\n      mstore\n      0x20\n      add\n      swap1\n      dup2\n      mstore\n      0x20\n      add\n      0x00\n      keccak256\n        /* \"Disney/ERC20.sol\":1896:1931  balances[msg.sender] = totalSupply_ */\n      dup2\n      swap1\n      sstore\n      pop\n        /* \"Disney/ERC20.sol\":1803:1939  constructor (uint256 initialSupply) public {\r... */\n      pop\n        /* \"Disney/ERC20.sol\":1459:3770  contract ERC20Basic is IERC20 {\r... */\n      jump(tag_6)\n        /* \"--CODEGEN--\":5:139   */\n    tag_8:\n      0x00\n        /* \"--CODEGEN--\":89:95   */\n      dup2\n        /* \"--CODEGEN--\":83:96   */\n      mload\n        /* \"--CODEGEN--\":74:96   */\n      swap1\n      pop\n        /* \"--CODEGEN--\":101:134   */\n      tag_10\n        /* \"--CODEGEN--\":128:133   */\n      dup2\n        /* \"--CODEGEN--\":101:134   */\n      tag_11\n      jump\t// in\n    tag_10:\n        /* \"--CODEGEN--\":68:139   */\n      swap3\n      swap2\n      pop\n      pop\n      jump\t// out\n        /* \"--CODEGEN--\":146:409   */\n    tag_3:\n      0x00\n        /* \"--CODEGEN--\":261:263   */\n      0x20\n        /* \"--CODEGEN--\":249:258   */\n      dup3\n        /* \"--CODEGEN--\":240:247   */\n      dup5\n        /* \"--CODEGEN--\":236:259   */\n      sub\n        /* \"--CODEGEN--\":232:264   */\n      slt\n        /* \"--CODEGEN--\":229:231   */\n      iszero\n      tag_13\n      jumpi\n        /* \"--CODEGEN--\":277:278   */\n      0x00\n        /* \"--CODEGEN--\":274:275   */\n      dup1\n        /* \"--CODEGEN--\":267:279   */\n      revert\n        /* \"--CODEGEN--\":229:231   */\n    tag_13:\n        /* \"--CODEGEN--\":312:313   */\n      0x00\n        /* \"--CODEGEN--\":329:393   */\n      tag_14\n        /* \"--CODEGEN--\":385:392   */\n      dup5\n        /* \"--CODEGEN--\":376:382   */\n      dup3\n        /* \"--CODEGEN--\":365:374   */\n      dup6\n        /* \"--CODEGEN--\":361:383   */\n      add\n        /* \"--CODEGEN--\":329:393   */\n      tag_8\n      jump\t// in\n    tag_14:\n        /* \"--CODEGEN--\":319:393   */\n      swap2\n      pop\n        /* \"--CODEGEN--\":291:399   */\n      pop\n        /* \"--CODEGEN--\":223:409   */\n      swap3\n      swap2\n      pop\n      pop\n      jump\t// out\n        /* \"--CODEGEN--\":416:488   */\n    tag_15:\n      0x00\n        /* \"--CODEGEN--\":478:483   */\n      dup2\n        /* \"--CODEGEN--\":467:483   */\n      swap1\n      pop\n        /* \"--CODEGEN--\":461:488   */\n      swap2\n      swap1\n      pop\n      jump\t// out\n        /* \"--CODEGEN--\":495:612   */\n    tag_11:\n        /* \"--CODEGEN--\":564:588   */\n      tag_18\n        /* \"--CODEGEN--\":582:587   */\n      dup2\n        /* \"--CODEGEN--\":564:588   */\n      tag_15\n      jump\t// in\n    tag_18:\n        /* \"--CODEGEN--\":557:562   */\n      dup2\n        /* \"--CODEGEN--\":554:589   */\n      eq\n        /* \"--CODEGEN--\":544:546   */\n      tag_19\n      jumpi\n        /* \"--CODEGEN--\":603:604   */\n      0x00\n        /* \"--CODEGEN--\":600:601   */\n      dup1\n        /* \"--CODEGEN--\":593:605   */\n      revert\n        /* \"--CODEGEN--\":544:546   */\n    tag_19:\n        /* \"--CODEGEN--\":538:612   */\n      pop\n      jump\t// out\n        /* \"Disney/ERC20.sol\":1459:3770  contract ERC20Basic is IERC20 {\r... */\n    tag_6:\n      dataSize(sub_0)\n      dup1\n      dataOffset(sub_0)\n      0x00\n      codecopy\n      0x00\n      return\n    stop\n\n    sub_0: assembly {\n            /* \"Disney/ERC20.sol\":1459:3770  contract ERC20Basic is IERC20 {\r... */\n          mstore(0x40, 0x80)\n          callvalue\n          dup1\n          iszero\n          tag_1\n          jumpi\n          0x00\n          dup1\n          revert\n        tag_1:\n          pop\n          jumpi(tag_2, lt(calldatasize, 0x04))\n          shr(0xe0, calldataload(0x00))\n          dup1\n          0x313ce567\n          gt\n          tag_13\n          jumpi\n          dup1\n          0x313ce567\n          eq\n          tag_8\n          jumpi\n          dup1\n          0x70a08231\n          eq\n          tag_9\n          jumpi\n          dup1\n          0x95d89b41\n          eq\n          tag_10\n          jumpi\n          dup1\n          0xa9059cbb\n          eq\n          tag_11\n          jumpi\n          dup1\n          0xdd62ed3e\n          eq\n          tag_12\n          jumpi\n          jump(tag_2)\n        tag_13:\n          dup1\n          0x06fdde03\n          eq\n          tag_3\n          jumpi\n          dup1\n          0x095ea7b3\n          eq\n          tag_4\n          jumpi\n          dup1\n          0x18160ddd\n          eq\n          tag_5\n          jumpi\n          dup1\n          0x1d43cc98\n          eq\n          tag_6\n          jumpi\n          dup1\n          0x23b872dd\n          eq\n          tag_7\n          jumpi\n        tag_2:\n          0x00\n          dup1\n          revert\n            /* \"Disney/ERC20.sol\":1533:1577  string public constant name = \"ERC20AKALugo\" */\n        tag_3:\n          tag_14\n          tag_15\n          jump\t// in\n        tag_14:\n          mload(0x40)\n          tag_16\n          swap2\n          swap1\n          tag_17\n          jump\t// in\n        tag_16:\n          mload(0x40)\n          dup1\n          swap2\n          sub\n          swap1\n          return\n            /* \"Disney/ERC20.sol\":3037:3266  function approve(address spender, uint numTokens) public override returns(bool) {\r... */\n        tag_4:\n          tag_18\n          0x04\n          dup1\n          calldatasize\n          sub\n          dup2\n          add\n          swap1\n          tag_19\n          swap2\n          swap1\n          tag_20\n          jump\t// in\n        tag_19:\n          tag_21\n          jump\t// in\n        tag_18:\n          mload(0x40)\n          tag_22\n          swap2\n          swap1\n          tag_23\n          jump\t// in\n        tag_22:\n          mload(0x40)\n          dup1\n          swap2\n          sub\n          swap1\n          return\n            /* \"Disney/ERC20.sol\":2112:2211  function totalSupply() public override view returns(uint256) {\r... */\n        tag_5:\n          tag_24\n          tag_25\n          jump\t// in\n        tag_24:\n          mload(0x40)\n          tag_26\n          swap2\n          swap1\n          tag_27\n          jump\t// in\n        tag_26:\n          mload(0x40)\n          dup1\n          swap2\n          sub\n          swap1\n          return\n            /* \"Disney/ERC20.sol\":2219:2377  function increaseTotalSupply(uint newTokensAmount) public {\r... */\n        tag_6:\n          tag_28\n          0x04\n          dup1\n          calldatasize\n          sub\n          dup2\n          add\n          swap1\n          tag_29\n          swap2\n          swap1\n          tag_30\n          jump\t// in\n        tag_29:\n          tag_31\n          jump\t// in\n        tag_28:\n          stop\n            /* \"Disney/ERC20.sol\":3274:3767  function transferFrom(address owner, address buyer, uint256 numTokens) public override returns(bool) {\r... */\n        tag_7:\n          tag_32\n          0x04\n          dup1\n          calldatasize\n          sub\n          dup2\n          add\n          swap1\n          tag_33\n          swap2\n          swap1\n          tag_34\n          jump\t// in\n        tag_33:\n          tag_35\n          jump\t// in\n        tag_32:\n          mload(0x40)\n          tag_36\n          swap2\n          swap1\n          tag_23\n          jump\t// in\n        tag_36:\n          mload(0x40)\n          dup1\n          swap2\n          sub\n          swap1\n          return\n            /* \"Disney/ERC20.sol\":1628:1663  uint8 public constant decimals = 18 */\n        tag_8:\n          tag_37\n          tag_38\n          jump\t// in\n        tag_37:\n          mload(0x40)\n          tag_39\n          swap2\n          swap1\n          tag_40\n          jump\t// in\n        tag_39:\n          mload(0x40)\n          dup1\n          swap2\n          sub\n          swap1\n          return\n            /* \"Disney/ERC20.sol\":2385:2503  function balanceOf(address account) public override view returns (uint256) {\r... */\n        tag_9:\n          tag_41\n          0x04\n          dup1\n          calldatasize\n          sub\n          dup2\n          add\n          swap1\n          tag_42\n          swap2\n          swap1\n          tag_43\n          jump\t// in\n        tag_42:\n          tag_44\n          jump\t// in\n        tag_41:\n          mload(0x40)\n          tag_45\n          swap2\n          swap1\n          tag_27\n          jump\t// in\n        tag_45:\n          mload(0x40)\n          dup1\n          swap2\n          sub\n          swap1\n          return\n            /* \"Disney/ERC20.sol\":1584:1621  string public constant symbol = \"AKA\" */\n        tag_10:\n          tag_46\n          tag_47\n          jump\t// in\n        tag_46:\n          mload(0x40)\n          tag_48\n          swap2\n          swap1\n          tag_17\n          jump\t// in\n        tag_48:\n          mload(0x40)\n          dup1\n          swap2\n          sub\n          swap1\n          return\n            /* \"Disney/ERC20.sol\":2658:3029  function transfer(address recipient, uint256 numTokens) public override returns(bool) {\r... */\n        tag_11:\n          tag_49\n          0x04\n          dup1\n          calldatasize\n          sub\n          dup2\n          add\n          swap1\n          tag_50\n          swap2\n          swap1\n          tag_20\n          jump\t// in\n        tag_50:\n          tag_51\n          jump\t// in\n        tag_49:\n          mload(0x40)\n          tag_52\n          swap2\n          swap1\n          tag_23\n          jump\t// in\n        tag_52:\n          mload(0x40)\n          dup1\n          swap2\n          sub\n          swap1\n          return\n            /* \"Disney/ERC20.sol\":2511:2650  function allowance(address owner, address spender) public override view returns (uint256) {\r... */\n        tag_12:\n          tag_53\n          0x04\n          dup1\n          calldatasize\n          sub\n          dup2\n          add\n          swap1\n          tag_54\n          swap2\n          swap1\n          tag_55\n          jump\t// in\n        tag_54:\n          tag_56\n          jump\t// in\n        tag_53:\n          mload(0x40)\n          tag_57\n          swap2\n          swap1\n          tag_27\n          jump\t// in\n        tag_57:\n          mload(0x40)\n          dup1\n          swap2\n          sub\n          swap1\n          return\n            /* \"Disney/ERC20.sol\":1533:1577  string public constant name = \"ERC20AKALugo\" */\n        tag_15:\n          mload(0x40)\n          dup1\n          0x40\n          add\n          0x40\n          mstore\n          dup1\n          0x0c\n          dup2\n          mstore\n          0x20\n          add\n          0x4552433230414b414c75676f0000000000000000000000000000000000000000\n          dup2\n          mstore\n          pop\n          dup2\n          jump\t// out\n            /* \"Disney/ERC20.sol\":3037:3266  function approve(address spender, uint numTokens) public override returns(bool) {\r... */\n        tag_21:\n            /* \"Disney/ERC20.sol\":3111:3115  bool */\n          0x00\n            /* \"Disney/ERC20.sol\":3169:3178  numTokens */\n          dup2\n            /* \"Disney/ERC20.sol\":3138:3145  allowed */\n          0x01\n            /* \"Disney/ERC20.sol\":3138:3157  allowed[msg.sender] */\n          0x00\n            /* \"Disney/ERC20.sol\":3146:3156  msg.sender */\n          caller\n            /* \"Disney/ERC20.sol\":3138:3157  allowed[msg.sender] */\n          0xffffffffffffffffffffffffffffffffffffffff\n          and\n          0xffffffffffffffffffffffffffffffffffffffff\n          and\n          dup2\n          mstore\n          0x20\n          add\n          swap1\n          dup2\n          mstore\n          0x20\n          add\n          0x00\n          keccak256\n            /* \"Disney/ERC20.sol\":3138:3166  allowed[msg.sender][spender] */\n          0x00\n            /* \"Disney/ERC20.sol\":3158:3165  spender */\n          dup6\n            /* \"Disney/ERC20.sol\":3138:3166  allowed[msg.sender][spender] */\n          0xffffffffffffffffffffffffffffffffffffffff\n          and\n          0xffffffffffffffffffffffffffffffffffffffff\n          and\n          dup2\n          mstore\n          0x20\n          add\n          swap1\n          dup2\n          mstore\n          0x20\n          add\n          0x00\n          keccak256\n            /* \"Disney/ERC20.sol\":3138:3178  allowed[msg.sender][spender] = numTokens */\n          dup2\n          swap1\n          sstore\n          pop\n            /* \"Disney/ERC20.sol\":3215:3222  spender */\n          dup3\n            /* \"Disney/ERC20.sol\":3194:3234  Approval(msg.sender, spender, numTokens) */\n          0xffffffffffffffffffffffffffffffffffffffff\n          and\n            /* \"Disney/ERC20.sol\":3203:3213  msg.sender */\n          caller\n            /* \"Disney/ERC20.sol\":3194:3234  Approval(msg.sender, spender, numTokens) */\n          0xffffffffffffffffffffffffffffffffffffffff\n          and\n          0x8c5be1e5ebec7d5bd14f71427d1e84f3dd0314c0f7b2291e5b200ac8c7c3b925\n            /* \"Disney/ERC20.sol\":3224:3233  numTokens */\n          dup5\n            /* \"Disney/ERC20.sol\":3194:3234  Approval(msg.sender, spender, numTokens) */\n          mload(0x40)\n          tag_59\n          swap2\n          swap1\n          tag_27\n          jump\t// in\n        tag_59:\n          mload(0x40)\n          dup1\n          swap2\n          sub\n          swap1\n          log3\n            /* \"Disney/ERC20.sol\":3254:3258  true */\n          0x01\n            /* \"Disney/ERC20.sol\":3247:3258  return true */\n          swap1\n          pop\n            /* \"Disney/ERC20.sol\":3037:3266  function approve(address spender, uint numTokens) public override returns(bool) {\r... */\n          swap3\n          swap2\n          pop\n          pop\n          jump\t// out\n            /* \"Disney/ERC20.sol\":2112:2211  function totalSupply() public override view returns(uint256) {\r... */\n        tag_25:\n            /* \"Disney/ERC20.sol\":2164:2171  uint256 */\n          0x00\n            /* \"Disney/ERC20.sol\":2191:2203  totalSupply_ */\n          sload(0x02)\n            /* \"Disney/ERC20.sol\":2184:2203  return totalSupply_ */\n          swap1\n          pop\n            /* \"Disney/ERC20.sol\":2112:2211  function totalSupply() public override view returns(uint256) {\r... */\n          swap1\n          jump\t// out\n            /* \"Disney/ERC20.sol\":2219:2377  function increaseTotalSupply(uint newTokensAmount) public {\r... */\n        tag_31:\n            /* \"Disney/ERC20.sol\":2304:2319  newTokensAmount */\n          dup1\n            /* \"Disney/ERC20.sol\":2288:2300  totalSupply_ */\n          0x02\n          0x00\n            /* \"Disney/ERC20.sol\":2288:2319  totalSupply_ += newTokensAmount */\n          dup3\n          dup3\n          sload\n          add\n          swap3\n          pop\n          pop\n          dup2\n          swap1\n          sstore\n          pop\n            /* \"Disney/ERC20.sol\":2354:2369  newTokensAmount */\n          dup1\n            /* \"Disney/ERC20.sol\":2330:2338  balances */\n          0x00\n            /* \"Disney/ERC20.sol\":2330:2350  balances[msg.sender] */\n          dup1\n            /* \"Disney/ERC20.sol\":2339:2349  msg.sender */\n          caller\n            /* \"Disney/ERC20.sol\":2330:2350  balances[msg.sender] */\n          0xffffffffffffffffffffffffffffffffffffffff\n          and\n          0xffffffffffffffffffffffffffffffffffffffff\n          and\n          dup2\n          mstore\n          0x20\n          add\n          swap1\n          dup2\n          mstore\n          0x20\n          add\n          0x00\n          keccak256\n          0x00\n            /* \"Disney/ERC20.sol\":2330:2369  balances[msg.sender] += newTokensAmount */\n          dup3\n          dup3\n          sload\n          add\n          swap3\n          pop\n          pop\n          dup2\n          swap1\n          sstore\n          pop\n            /* \"Disney/ERC20.sol\":2219:2377  function increaseTotalSupply(uint newTokensAmount) public {\r... */\n          pop\n          jump\t// out\n            /* \"Disney/ERC20.sol\":3274:3767  function transferFrom(address owner, address buyer, uint256 numTokens) public override returns(bool) {\r... */\n        tag_35:\n            /* \"Disney/ERC20.sol\":3369:3373  bool */\n          0x00\n            /* \"Disney/ERC20.sol\":3414:3423  numTokens */\n          dup2\n            /* \"Disney/ERC20.sol\":3395:3403  balances */\n          0x00\n            /* \"Disney/ERC20.sol\":3395:3410  balances[owner] */\n          dup1\n            /* \"Disney/ERC20.sol\":3404:3409  owner */\n          dup7\n            /* \"Disney/ERC20.sol\":3395:3410  balances[owner] */\n          0xffffffffffffffffffffffffffffffffffffffff\n          and\n          0xffffffffffffffffffffffffffffffffffffffff\n          and\n          dup2\n          mstore\n          0x20\n          add\n          swap1\n          dup2\n          mstore\n          0x20\n          add\n          0x00\n          keccak256\n          sload\n            /* \"Disney/ERC20.sol\":3395:3423  balances[owner] >= numTokens */\n          lt\n          iszero\n            /* \"Disney/ERC20.sol\":3386:3424  require (balances[owner] >= numTokens) */\n          tag_63\n          jumpi\n          0x00\n          dup1\n          revert\n        tag_63:\n            /* \"Disney/ERC20.sol\":3474:3483  numTokens */\n          dup2\n            /* \"Disney/ERC20.sol\":3444:3451  allowed */\n          0x01\n            /* \"Disney/ERC20.sol\":3444:3458  allowed[owner] */\n          0x00\n            /* \"Disney/ERC20.sol\":3452:3457  owner */\n          dup7\n            /* \"Disney/ERC20.sol\":3444:3458  allowed[owner] */\n          0xffffffffffffffffffffffffffffffffffffffff\n          and\n          0xffffffffffffffffffffffffffffffffffffffff\n          and\n          dup2\n          mstore\n          0x20\n          add\n          swap1\n          dup2\n          mstore\n          0x20\n          add\n          0x00\n          keccak256\n            /* \"Disney/ERC20.sol\":3444:3470  allowed[owner][msg.sender] */\n          0x00\n            /* \"Disney/ERC20.sol\":3459:3469  msg.sender */\n          caller\n            /* \"Disney/ERC20.sol\":3444:3470  allowed[owner][msg.sender] */\n          0xffffffffffffffffffffffffffffffffffffffff\n          and\n          0xffffffffffffffffffffffffffffffffffffffff\n          and\n          dup2\n          mstore\n          0x20\n          add\n          swap1\n          dup2\n          mstore\n          0x20\n          add\n          0x00\n          keccak256\n          sload\n            /* \"Disney/ERC20.sol\":3444:3483  allowed[owner][msg.sender] >= numTokens */\n          lt\n          iszero\n            /* \"Disney/ERC20.sol\":3435:3484  require (allowed[owner][msg.sender] >= numTokens) */\n          tag_64\n          jumpi\n          0x00\n          dup1\n          revert\n        tag_64:\n            /* \"Disney/ERC20.sol\":3515:3545  balances[owner].sub(numTokens) */\n          tag_65\n            /* \"Disney/ERC20.sol\":3535:3544  numTokens */\n          dup3\n            /* \"Disney/ERC20.sol\":3515:3523  balances */\n          0x00\n            /* \"Disney/ERC20.sol\":3515:3530  balances[owner] */\n          dup1\n            /* \"Disney/ERC20.sol\":3524:3529  owner */\n          dup8\n            /* \"Disney/ERC20.sol\":3515:3530  balances[owner] */\n          0xffffffffffffffffffffffffffffffffffffffff\n          and\n          0xffffffffffffffffffffffffffffffffffffffff\n          and\n          dup2\n          mstore\n          0x20\n          add\n          swap1\n          dup2\n          mstore\n          0x20\n          add\n          0x00\n          keccak256\n          sload\n            /* \"Disney/ERC20.sol\":3515:3534  balances[owner].sub */\n          tag_66\n          swap1\n            /* \"Disney/ERC20.sol\":3515:3545  balances[owner].sub(numTokens) */\n          swap2\n          swap1\n          0xffffffff\n          and\n          jump\t// in\n        tag_65:\n            /* \"Disney/ERC20.sol\":3497:3505  balances */\n          0x00\n            /* \"Disney/ERC20.sol\":3497:3512  balances[owner] */\n          dup1\n            /* \"Disney/ERC20.sol\":3506:3511  owner */\n          dup7\n            /* \"Disney/ERC20.sol\":3497:3512  balances[owner] */\n          0xffffffffffffffffffffffffffffffffffffffff\n          and\n          0xffffffffffffffffffffffffffffffffffffffff\n          and\n          dup2\n          mstore\n          0x20\n          add\n          swap1\n          dup2\n          mstore\n          0x20\n          add\n          0x00\n          keccak256\n            /* \"Disney/ERC20.sol\":3497:3545  balances[owner] = balances[owner].sub(numTokens) */\n          dup2\n          swap1\n          sstore\n          pop\n            /* \"Disney/ERC20.sol\":3585:3626  allowed[owner][msg.sender].sub(numTokens) */\n          tag_67\n            /* \"Disney/ERC20.sol\":3616:3625  numTokens */\n          dup3\n            /* \"Disney/ERC20.sol\":3585:3592  allowed */\n          0x01\n            /* \"Disney/ERC20.sol\":3585:3599  allowed[owner] */\n          0x00\n            /* \"Disney/ERC20.sol\":3593:3598  owner */\n          dup8\n            /* \"Disney/ERC20.sol\":3585:3599  allowed[owner] */\n          0xffffffffffffffffffffffffffffffffffffffff\n          and\n          0xffffffffffffffffffffffffffffffffffffffff\n          and\n          dup2\n          mstore\n          0x20\n          add\n          swap1\n          dup2\n          mstore\n          0x20\n          add\n          0x00\n          keccak256\n            /* \"Disney/ERC20.sol\":3585:3611  allowed[owner][msg.sender] */\n          0x00\n            /* \"Disney/ERC20.sol\":3600:3610  msg.sender */\n          caller\n            /* \"Disney/ERC20.sol\":3585:3611  allowed[owner][msg.sender] */\n          0xffffffffffffffffffffffffffffffffffffffff\n          and\n          0xffffffffffffffffffffffffffffffffffffffff\n          and\n          dup2\n          mstore\n          0x20\n          add\n          swap1\n          dup2\n          mstore\n          0x20\n          add\n          0x00\n          keccak256\n          sload\n            /* \"Disney/ERC20.sol\":3585:3615  allowed[owner][msg.sender].sub */\n          tag_66\n          swap1\n            /* \"Disney/ERC20.sol\":3585:3626  allowed[owner][msg.sender].sub(numTokens) */\n          swap2\n          swap1\n          0xffffffff\n          and\n          jump\t// in\n        tag_67:\n            /* \"Disney/ERC20.sol\":3556:3563  allowed */\n          0x01\n            /* \"Disney/ERC20.sol\":3556:3570  allowed[owner] */\n          0x00\n            /* \"Disney/ERC20.sol\":3564:3569  owner */\n          dup7\n            /* \"Disney/ERC20.sol\":3556:3570  allowed[owner] */\n          0xffffffffffffffffffffffffffffffffffffffff\n          and\n          0xffffffffffffffffffffffffffffffffffffffff\n          and\n          dup2\n          mstore\n          0x20\n          add\n          swap1\n          dup2\n          mstore\n          0x20\n          add\n          0x00\n          keccak256\n            /* \"Disney/ERC20.sol\":3556:3582  allowed[owner][msg.sender] */\n          0x00\n            /* \"Disney/ERC20.sol\":3571:3581  msg.sender */\n          caller\n            /* \"Disney/ERC20.sol\":3556:3582  allowed[owner][msg.sender] */\n          0xffffffffffffffffffffffffffffffffffffffff\n          and\n          0xffffffffffffffffffffffffffffffffffffffff\n          and\n          dup2\n          mstore\n          0x20\n          add\n          swap1\n          dup2\n          mstore\n          0x20\n          add\n          0x00\n          keccak256\n            /* \"Disney/ERC20.sol\":3556:3626  allowed[owner][msg.sender] = allowed[owner][msg.sender].sub(numTokens) */\n          dup2\n          swap1\n          sstore\n          pop\n            /* \"Disney/ERC20.sol\":3655:3685  balances[buyer].add(numTokens) */\n          tag_68\n            /* \"Disney/ERC20.sol\":3675:3684  numTokens */\n          dup3\n            /* \"Disney/ERC20.sol\":3655:3663  balances */\n          0x00\n            /* \"Disney/ERC20.sol\":3655:3670  balances[buyer] */\n          dup1\n            /* \"Disney/ERC20.sol\":3664:3669  buyer */\n          dup7\n            /* \"Disney/ERC20.sol\":3655:3670  balances[buyer] */\n          0xffffffffffffffffffffffffffffffffffffffff\n          and\n          0xffffffffffffffffffffffffffffffffffffffff\n          and\n          dup2\n          mstore\n          0x20\n          add\n          swap1\n          dup2\n          mstore\n          0x20\n          add\n          0x00\n          keccak256\n          sload\n            /* \"Disney/ERC20.sol\":3655:3674  balances[buyer].add */\n          tag_69\n          swap1\n            /* \"Disney/ERC20.sol\":3655:3685  balances[buyer].add(numTokens) */\n          swap2\n          swap1\n          0xffffffff\n          and\n          jump\t// in\n        tag_68:\n            /* \"Disney/ERC20.sol\":3637:3645  balances */\n          0x00\n            /* \"Disney/ERC20.sol\":3637:3652  balances[buyer] */\n          dup1\n            /* \"Disney/ERC20.sol\":3646:3651  buyer */\n          dup6\n            /* \"Disney/ERC20.sol\":3637:3652  balances[buyer] */\n          0xffffffffffffffffffffffffffffffffffffffff\n          and\n          0xffffffffffffffffffffffffffffffffffffffff\n          and\n          dup2\n          mstore\n          0x20\n          add\n          swap1\n          dup2\n          mstore\n          0x20\n          add\n          0x00\n          keccak256\n            /* \"Disney/ERC20.sol\":3637:3685  balances[buyer] = balances[buyer].add(numTokens) */\n          dup2\n          swap1\n          sstore\n          pop\n            /* \"Disney/ERC20.sol\":3719:3724  buyer */\n          dup3\n            /* \"Disney/ERC20.sol\":3703:3736  Transfer(owner, buyer, numTokens) */\n          0xffffffffffffffffffffffffffffffffffffffff\n          and\n            /* \"Disney/ERC20.sol\":3712:3717  owner */\n          dup5\n            /* \"Disney/ERC20.sol\":3703:3736  Transfer(owner, buyer, numTokens) */\n          0xffffffffffffffffffffffffffffffffffffffff\n          and\n          0xddf252ad1be2c89b69c2b068fc378daa952ba7f163c4a11628f55a4df523b3ef\n            /* \"Disney/ERC20.sol\":3726:3735  numTokens */\n          dup5\n            /* \"Disney/ERC20.sol\":3703:3736  Transfer(owner, buyer, numTokens) */\n          mload(0x40)\n          tag_70\n          swap2\n          swap1\n          tag_27\n          jump\t// in\n        tag_70:\n          mload(0x40)\n          dup1\n          swap2\n          sub\n          swap1\n          log3\n            /* \"Disney/ERC20.sol\":3755:3759  true */\n          0x01\n            /* \"Disney/ERC20.sol\":3748:3759  return true */\n          swap1\n          pop\n            /* \"Disney/ERC20.sol\":3274:3767  function transferFrom(address owner, address buyer, uint256 numTokens) public override returns(bool) {\r... */\n          swap4\n          swap3\n          pop\n          pop\n          pop\n          jump\t// out\n            /* \"Disney/ERC20.sol\":1628:1663  uint8 public constant decimals = 18 */\n        tag_38:\n            /* \"Disney/ERC20.sol\":1661:1663  18 */\n          0x12\n            /* \"Disney/ERC20.sol\":1628:1663  uint8 public constant decimals = 18 */\n          dup2\n          jump\t// out\n            /* \"Disney/ERC20.sol\":2385:2503  function balanceOf(address account) public override view returns (uint256) {\r... */\n        tag_44:\n            /* \"Disney/ERC20.sol\":2451:2458  uint256 */\n          0x00\n            /* \"Disney/ERC20.sol\":2478:2486  balances */\n          dup1\n            /* \"Disney/ERC20.sol\":2478:2495  balances[account] */\n          0x00\n            /* \"Disney/ERC20.sol\":2487:2494  account */\n          dup4\n            /* \"Disney/ERC20.sol\":2478:2495  balances[account] */\n          0xffffffffffffffffffffffffffffffffffffffff\n          and\n          0xffffffffffffffffffffffffffffffffffffffff\n          and\n          dup2\n          mstore\n          0x20\n          add\n          swap1\n          dup2\n          mstore\n          0x20\n          add\n          0x00\n          keccak256\n          sload\n            /* \"Disney/ERC20.sol\":2471:2495  return balances[account] */\n          swap1\n          pop\n            /* \"Disney/ERC20.sol\":2385:2503  function balanceOf(address account) public override view returns (uint256) {\r... */\n          swap2\n          swap1\n          pop\n          jump\t// out\n            /* \"Disney/ERC20.sol\":1584:1621  string public constant symbol = \"AKA\" */\n        tag_47:\n          mload(0x40)\n          dup1\n          0x40\n          add\n          0x40\n          mstore\n          dup1\n          0x03\n          dup2\n          mstore\n          0x20\n          add\n          0x414b410000000000000000000000000000000000000000000000000000000000\n          dup2\n          mstore\n          pop\n          dup2\n          jump\t// out\n            /* \"Disney/ERC20.sol\":2658:3029  function transfer(address recipient, uint256 numTokens) public override returns(bool) {\r... */\n        tag_51:\n            /* \"Disney/ERC20.sol\":2738:2742  bool */\n          0x00\n            /* \"Disney/ERC20.sol\":2777:2785  balances */\n          dup1\n            /* \"Disney/ERC20.sol\":2777:2797  balances[msg.sender] */\n          0x00\n            /* \"Disney/ERC20.sol\":2786:2796  msg.sender */\n          caller\n            /* \"Disney/ERC20.sol\":2777:2797  balances[msg.sender] */\n          0xffffffffffffffffffffffffffffffffffffffff\n          and\n          0xffffffffffffffffffffffffffffffffffffffff\n          and\n          dup2\n          mstore\n          0x20\n          add\n          swap1\n          dup2\n          mstore\n          0x20\n          add\n          0x00\n          keccak256\n          sload\n            /* \"Disney/ERC20.sol\":2764:2773  numTokens */\n          dup3\n            /* \"Disney/ERC20.sol\":2764:2797  numTokens <= balances[msg.sender] */\n          gt\n          iszero\n            /* \"Disney/ERC20.sol\":2755:2798  require (numTokens <= balances[msg.sender]) */\n          tag_73\n          jumpi\n          0x00\n          dup1\n          revert\n        tag_73:\n            /* \"Disney/ERC20.sol\":2834:2869  balances[msg.sender].sub(numTokens) */\n          tag_74\n            /* \"Disney/ERC20.sol\":2859:2868  numTokens */\n          dup3\n            /* \"Disney/ERC20.sol\":2834:2842  balances */\n          0x00\n            /* \"Disney/ERC20.sol\":2834:2854  balances[msg.sender] */\n          dup1\n            /* \"Disney/ERC20.sol\":2843:2853  msg.sender */\n          caller\n            /* \"Disney/ERC20.sol\":2834:2854  balances[msg.sender] */\n          0xffffffffffffffffffffffffffffffffffffffff\n          and\n          0xffffffffffffffffffffffffffffffffffffffff\n          and\n          dup2\n          mstore\n          0x20\n          add\n          swap1\n          dup2\n          mstore\n          0x20\n          add\n          0x00\n          keccak256\n          sload\n            /* \"Disney/ERC20.sol\":2834:2858  balances[msg.sender].sub */\n          tag_66\n          swap1\n            /* \"Disney/ERC20.sol\":2834:2869  balances[msg.sender].sub(numTokens) */\n          swap2\n          swap1\n          0xffffffff\n          and\n          jump\t// in\n        tag_74:\n            /* \"Disney/ERC20.sol\":2811:2819  balances */\n          0x00\n            /* \"Disney/ERC20.sol\":2811:2831  balances[msg.sender] */\n          dup1\n            /* \"Disney/ERC20.sol\":2820:2830  msg.sender */\n          caller\n            /* \"Disney/ERC20.sol\":2811:2831  balances[msg.sender] */\n          0xffffffffffffffffffffffffffffffffffffffff\n          and\n          0xffffffffffffffffffffffffffffffffffffffff\n          and\n          dup2\n          mstore\n          0x20\n          add\n          swap1\n          dup2\n          mstore\n          0x20\n          add\n          0x00\n          keccak256\n            /* \"Disney/ERC20.sol\":2811:2869  balances[msg.sender] = balances[msg.sender].sub(numTokens) */\n          dup2\n          swap1\n          sstore\n          pop\n            /* \"Disney/ERC20.sol\":2903:2937  balances[recipient].add(numTokens) */\n          tag_75\n            /* \"Disney/ERC20.sol\":2927:2936  numTokens */\n          dup3\n            /* \"Disney/ERC20.sol\":2903:2911  balances */\n          0x00\n            /* \"Disney/ERC20.sol\":2903:2922  balances[recipient] */\n          dup1\n            /* \"Disney/ERC20.sol\":2912:2921  recipient */\n          dup7\n            /* \"Disney/ERC20.sol\":2903:2922  balances[recipient] */\n          0xffffffffffffffffffffffffffffffffffffffff\n          and\n          0xffffffffffffffffffffffffffffffffffffffff\n          and\n          dup2\n          mstore\n          0x20\n          add\n          swap1\n          dup2\n          mstore\n          0x20\n          add\n          0x00\n          keccak256\n          sload\n            /* \"Disney/ERC20.sol\":2903:2926  balances[recipient].add */\n          tag_69\n          swap1\n            /* \"Disney/ERC20.sol\":2903:2937  balances[recipient].add(numTokens) */\n          swap2\n          swap1\n          0xffffffff\n          and\n          jump\t// in\n        tag_75:\n            /* \"Disney/ERC20.sol\":2881:2889  balances */\n          0x00\n            /* \"Disney/ERC20.sol\":2881:2900  balances[recipient] */\n          dup1\n            /* \"Disney/ERC20.sol\":2890:2899  recipient */\n          dup6\n            /* \"Disney/ERC20.sol\":2881:2900  balances[recipient] */\n          0xffffffffffffffffffffffffffffffffffffffff\n          and\n          0xffffffffffffffffffffffffffffffffffffffff\n          and\n          dup2\n          mstore\n          0x20\n          add\n          swap1\n          dup2\n          mstore\n          0x20\n          add\n          0x00\n          keccak256\n            /* \"Disney/ERC20.sol\":2881:2937  balances[recipient] = balances[recipient].add(numTokens) */\n          dup2\n          swap1\n          sstore\n          pop\n            /* \"Disney/ERC20.sol\":2976:2985  recipient */\n          dup3\n            /* \"Disney/ERC20.sol\":2955:2997  Transfer(msg.sender, recipient, numTokens) */\n          0xffffffffffffffffffffffffffffffffffffffff\n          and\n            /* \"Disney/ERC20.sol\":2964:2974  msg.sender */\n          caller\n            /* \"Disney/ERC20.sol\":2955:2997  Transfer(msg.sender, recipient, numTokens) */\n          0xffffffffffffffffffffffffffffffffffffffff\n          and\n          0xddf252ad1be2c89b69c2b068fc378daa952ba7f163c4a11628f55a4df523b3ef\n            /* \"Disney/ERC20.sol\":2987:2996  numTokens */\n          dup5\n            /* \"Disney/ERC20.sol\":2955:2997  Transfer(msg.sender, recipient, numTokens) */\n          mload(0x40)\n          tag_76\n          swap2\n          swap1\n          tag_27\n          jump\t// in\n        tag_76:\n          mload(0x40)\n          dup1\n          swap2\n          sub\n          swap1\n          log3\n            /* \"Disney/ERC20.sol\":3017:3021  true */\n          0x01\n            /* \"Disney/ERC20.sol\":3010:3021  return true */\n          swap1\n          pop\n            /* \"Disney/ERC20.sol\":2658:3029  function transfer(address recipient, uint256 numTokens) public override returns(bool) {\r... */\n          swap3\n          swap2\n          pop\n          pop\n          jump\t// out\n            /* \"Disney/ERC20.sol\":2511:2650  function allowance(address owner, address spender) public override view returns (uint256) {\r... */\n        tag_56:\n            /* \"Disney/ERC20.sol\":2592:2599  uint256 */\n          0x00\n            /* \"Disney/ERC20.sol\":2619:2626  allowed */\n          0x01\n            /* \"Disney/ERC20.sol\":2619:2633  allowed[owner] */\n          0x00\n            /* \"Disney/ERC20.sol\":2627:2632  owner */\n          dup5\n            /* \"Disney/ERC20.sol\":2619:2633  allowed[owner] */\n          0xffffffffffffffffffffffffffffffffffffffff\n          and\n          0xffffffffffffffffffffffffffffffffffffffff\n          and\n          dup2\n          mstore\n          0x20\n          add\n          swap1\n          dup2\n          mstore\n          0x20\n          add\n          0x00\n          keccak256\n            /* \"Disney/ERC20.sol\":2619:2642  allowed[owner][spender] */\n          0x00\n            /* \"Disney/ERC20.sol\":2634:2641  spender */\n          dup4\n            /* \"Disney/ERC20.sol\":2619:2642  allowed[owner][spender] */\n          0xffffffffffffffffffffffffffffffffffffffff\n          and\n          0xffffffffffffffffffffffffffffffffffffffff\n          and\n          dup2\n          mstore\n          0x20\n          add\n          swap1\n          dup2\n          mstore\n          0x20\n          add\n          0x00\n          keccak256\n          sload\n            /* \"Disney/ERC20.sol\":2612:2642  return allowed[owner][spender] */\n          swap1\n          pop\n            /* \"Disney/ERC20.sol\":2511:2650  function allowance(address owner, address spender) public override view returns (uint256) {\r... */\n          swap3\n          swap2\n          pop\n          pop\n          jump\t// out\n            /* \"Disney/SafeMath.sol\":318:437  function sub(uint256 a, uint256 b) internal pure returns (uint256) {\r... */\n        tag_66:\n            /* \"Disney/SafeMath.sol\":376:383  uint256 */\n          0x00\n            /* \"Disney/SafeMath.sol\":406:407  a */\n          dup3\n            /* \"Disney/SafeMath.sol\":401:402  b */\n          dup3\n            /* \"Disney/SafeMath.sol\":401:407  b <= a */\n          gt\n          iszero\n            /* \"Disney/SafeMath.sol\":394:408  assert(b <= a) */\n          tag_79\n          jumpi\n          invalid\n        tag_79:\n            /* \"Disney/SafeMath.sol\":428:429  b */\n          dup2\n            /* \"Disney/SafeMath.sol\":424:425  a */\n          dup4\n            /* \"Disney/SafeMath.sol\":424:429  a - b */\n          sub\n            /* \"Disney/SafeMath.sol\":417:429  return a - b */\n          swap1\n          pop\n            /* \"Disney/SafeMath.sol\":318:437  function sub(uint256 a, uint256 b) internal pure returns (uint256) {\r... */\n          swap3\n          swap2\n          pop\n          pop\n          jump\t// out\n            /* \"Disney/SafeMath.sol\":463:604  function add(uint256 a, uint256 b) internal pure returns (uint256) {\r... */\n        tag_69:\n            /* \"Disney/SafeMath.sol\":521:528  uint256 */\n          0x00\n            /* \"Disney/SafeMath.sol\":539:548  uint256 c */\n          dup1\n            /* \"Disney/SafeMath.sol\":555:556  b */\n          dup3\n            /* \"Disney/SafeMath.sol\":551:552  a */\n          dup5\n            /* \"Disney/SafeMath.sol\":551:556  a + b */\n          add\n            /* \"Disney/SafeMath.sol\":539:556  uint256 c = a + b */\n          swap1\n          pop\n            /* \"Disney/SafeMath.sol\":577:578  a */\n          dup4\n            /* \"Disney/SafeMath.sol\":572:573  c */\n          dup2\n            /* \"Disney/SafeMath.sol\":572:578  c >= a */\n          lt\n          iszero\n            /* \"Disney/SafeMath.sol\":565:579  assert(c >= a) */\n          tag_81\n          jumpi\n          invalid\n        tag_81:\n            /* \"Disney/SafeMath.sol\":595:596  c */\n          dup1\n            /* \"Disney/SafeMath.sol\":588:596  return c */\n          swap2\n          pop\n          pop\n            /* \"Disney/SafeMath.sol\":463:604  function add(uint256 a, uint256 b) internal pure returns (uint256) {\r... */\n          swap3\n          swap2\n          pop\n          pop\n          jump\t// out\n            /* \"--CODEGEN--\":5:135   */\n        tag_83:\n          0x00\n            /* \"--CODEGEN--\":85:91   */\n          dup2\n            /* \"--CODEGEN--\":72:92   */\n          calldataload\n            /* \"--CODEGEN--\":63:92   */\n          swap1\n          pop\n            /* \"--CODEGEN--\":97:130   */\n          tag_85\n            /* \"--CODEGEN--\":124:129   */\n          dup2\n            /* \"--CODEGEN--\":97:130   */\n          tag_86\n          jump\t// in\n        tag_85:\n            /* \"--CODEGEN--\":57:135   */\n          swap3\n          swap2\n          pop\n          pop\n          jump\t// out\n            /* \"--CODEGEN--\":142:272   */\n        tag_87:\n          0x00\n            /* \"--CODEGEN--\":222:228   */\n          dup2\n            /* \"--CODEGEN--\":209:229   */\n          calldataload\n            /* \"--CODEGEN--\":200:229   */\n          swap1\n          pop\n            /* \"--CODEGEN--\":234:267   */\n          tag_89\n            /* \"--CODEGEN--\":261:266   */\n          dup2\n            /* \"--CODEGEN--\":234:267   */\n          tag_90\n          jump\t// in\n        tag_89:\n            /* \"--CODEGEN--\":194:272   */\n          swap3\n          swap2\n          pop\n          pop\n          jump\t// out\n            /* \"--CODEGEN--\":279:520   */\n        tag_43:\n          0x00\n            /* \"--CODEGEN--\":383:385   */\n          0x20\n            /* \"--CODEGEN--\":371:380   */\n          dup3\n            /* \"--CODEGEN--\":362:369   */\n          dup5\n            /* \"--CODEGEN--\":358:381   */\n          sub\n            /* \"--CODEGEN--\":354:386   */\n          slt\n            /* \"--CODEGEN--\":351:353   */\n          iszero\n          tag_92\n          jumpi\n            /* \"--CODEGEN--\":399:400   */\n          0x00\n            /* \"--CODEGEN--\":396:397   */\n          dup1\n            /* \"--CODEGEN--\":389:401   */\n          revert\n            /* \"--CODEGEN--\":351:353   */\n        tag_92:\n            /* \"--CODEGEN--\":434:435   */\n          0x00\n            /* \"--CODEGEN--\":451:504   */\n          tag_93\n            /* \"--CODEGEN--\":496:503   */\n          dup5\n            /* \"--CODEGEN--\":487:493   */\n          dup3\n            /* \"--CODEGEN--\":476:485   */\n          dup6\n            /* \"--CODEGEN--\":472:494   */\n          add\n            /* \"--CODEGEN--\":451:504   */\n          tag_83\n          jump\t// in\n        tag_93:\n            /* \"--CODEGEN--\":441:504   */\n          swap2\n          pop\n            /* \"--CODEGEN--\":413:510   */\n          pop\n            /* \"--CODEGEN--\":345:520   */\n          swap3\n          swap2\n          pop\n          pop\n          jump\t// out\n            /* \"--CODEGEN--\":527:893   */\n        tag_55:\n          0x00\n          dup1\n            /* \"--CODEGEN--\":648:650   */\n          0x40\n            /* \"--CODEGEN--\":636:645   */\n          dup4\n            /* \"--CODEGEN--\":627:634   */\n          dup6\n            /* \"--CODEGEN--\":623:646   */\n          sub\n            /* \"--CODEGEN--\":619:651   */\n          slt\n            /* \"--CODEGEN--\":616:618   */\n          iszero\n          tag_95\n          jumpi\n            /* \"--CODEGEN--\":664:665   */\n          0x00\n            /* \"--CODEGEN--\":661:662   */\n          dup1\n            /* \"--CODEGEN--\":654:666   */\n          revert\n            /* \"--CODEGEN--\":616:618   */\n        tag_95:\n            /* \"--CODEGEN--\":699:700   */\n          0x00\n            /* \"--CODEGEN--\":716:769   */\n          tag_96\n            /* \"--CODEGEN--\":761:768   */\n          dup6\n            /* \"--CODEGEN--\":752:758   */\n          dup3\n            /* \"--CODEGEN--\":741:750   */\n          dup7\n            /* \"--CODEGEN--\":737:759   */\n          add\n            /* \"--CODEGEN--\":716:769   */\n          tag_83\n          jump\t// in\n        tag_96:\n            /* \"--CODEGEN--\":706:769   */\n          swap3\n          pop\n            /* \"--CODEGEN--\":678:775   */\n          pop\n            /* \"--CODEGEN--\":806:808   */\n          0x20\n            /* \"--CODEGEN--\":824:877   */\n          tag_97\n            /* \"--CODEGEN--\":869:876   */\n          dup6\n            /* \"--CODEGEN--\":860:866   */\n          dup3\n            /* \"--CODEGEN--\":849:858   */\n          dup7\n            /* \"--CODEGEN--\":845:867   */\n          add\n            /* \"--CODEGEN--\":824:877   */\n          tag_83\n          jump\t// in\n        tag_97:\n            /* \"--CODEGEN--\":814:877   */\n          swap2\n          pop\n            /* \"--CODEGEN--\":785:883   */\n          pop\n            /* \"--CODEGEN--\":610:893   */\n          swap3\n          pop\n          swap3\n          swap1\n          pop\n          jump\t// out\n            /* \"--CODEGEN--\":900:1391   */\n        tag_34:\n          0x00\n          dup1\n          0x00\n            /* \"--CODEGEN--\":1038:1040   */\n          0x60\n            /* \"--CODEGEN--\":1026:1035   */\n          dup5\n            /* \"--CODEGEN--\":1017:1024   */\n          dup7\n            /* \"--CODEGEN--\":1013:1036   */\n          sub\n            /* \"--CODEGEN--\":1009:1041   */\n          slt\n            /* \"--CODEGEN--\":1006:1008   */\n          iszero\n          tag_99\n          jumpi\n            /* \"--CODEGEN--\":1054:1055   */\n          0x00\n            /* \"--CODEGEN--\":1051:1052   */\n          dup1\n            /* \"--CODEGEN--\":1044:1056   */\n          revert\n            /* \"--CODEGEN--\":1006:1008   */\n        tag_99:\n            /* \"--CODEGEN--\":1089:1090   */\n          0x00\n            /* \"--CODEGEN--\":1106:1159   */\n          tag_100\n            /* \"--CODEGEN--\":1151:1158   */\n          dup7\n            /* \"--CODEGEN--\":1142:1148   */\n          dup3\n            /* \"--CODEGEN--\":1131:1140   */\n          dup8\n            /* \"--CODEGEN--\":1127:1149   */\n          add\n            /* \"--CODEGEN--\":1106:1159   */\n          tag_83\n          jump\t// in\n        tag_100:\n            /* \"--CODEGEN--\":1096:1159   */\n          swap4\n          pop\n            /* \"--CODEGEN--\":1068:1165   */\n          pop\n            /* \"--CODEGEN--\":1196:1198   */\n          0x20\n            /* \"--CODEGEN--\":1214:1267   */\n          tag_101\n            /* \"--CODEGEN--\":1259:1266   */\n          dup7\n            /* \"--CODEGEN--\":1250:1256   */\n          dup3\n            /* \"--CODEGEN--\":1239:1248   */\n          dup8\n            /* \"--CODEGEN--\":1235:1257   */\n          add\n            /* \"--CODEGEN--\":1214:1267   */\n          tag_83\n          jump\t// in\n        tag_101:\n            /* \"--CODEGEN--\":1204:1267   */\n          swap3\n          pop\n            /* \"--CODEGEN--\":1175:1273   */\n          pop\n            /* \"--CODEGEN--\":1304:1306   */\n          0x40\n            /* \"--CODEGEN--\":1322:1375   */\n          tag_102\n            /* \"--CODEGEN--\":1367:1374   */\n          dup7\n            /* \"--CODEGEN--\":1358:1364   */\n          dup3\n            /* \"--CODEGEN--\":1347:1356   */\n          dup8\n            /* \"--CODEGEN--\":1343:1365   */\n          add\n            /* \"--CODEGEN--\":1322:1375   */\n          tag_87\n          jump\t// in\n        tag_102:\n            /* \"--CODEGEN--\":1312:1375   */\n          swap2\n          pop\n            /* \"--CODEGEN--\":1283:1381   */\n          pop\n            /* \"--CODEGEN--\":1000:1391   */\n          swap3\n          pop\n          swap3\n          pop\n          swap3\n          jump\t// out\n            /* \"--CODEGEN--\":1398:1764   */\n        tag_20:\n          0x00\n          dup1\n            /* \"--CODEGEN--\":1519:1521   */\n          0x40\n            /* \"--CODEGEN--\":1507:1516   */\n          dup4\n            /* \"--CODEGEN--\":1498:1505   */\n          dup6\n            /* \"--CODEGEN--\":1494:1517   */\n          sub\n            /* \"--CODEGEN--\":1490:1522   */\n          slt\n            /* \"--CODEGEN--\":1487:1489   */\n          iszero\n          tag_104\n          jumpi\n            /* \"--CODEGEN--\":1535:1536   */\n          0x00\n            /* \"--CODEGEN--\":1532:1533   */\n          dup1\n            /* \"--CODEGEN--\":1525:1537   */\n          revert\n            /* \"--CODEGEN--\":1487:1489   */\n        tag_104:\n            /* \"--CODEGEN--\":1570:1571   */\n          0x00\n            /* \"--CODEGEN--\":1587:1640   */\n          tag_105\n            /* \"--CODEGEN--\":1632:1639   */\n          dup6\n            /* \"--CODEGEN--\":1623:1629   */\n          dup3\n            /* \"--CODEGEN--\":1612:1621   */\n          dup7\n            /* \"--CODEGEN--\":1608:1630   */\n          add\n            /* \"--CODEGEN--\":1587:1640   */\n          tag_83\n          jump\t// in\n        tag_105:\n            /* \"--CODEGEN--\":1577:1640   */\n          swap3\n          pop\n            /* \"--CODEGEN--\":1549:1646   */\n          pop\n            /* \"--CODEGEN--\":1677:1679   */\n          0x20\n            /* \"--CODEGEN--\":1695:1748   */\n          tag_106\n            /* \"--CODEGEN--\":1740:1747   */\n          dup6\n            /* \"--CODEGEN--\":1731:1737   */\n          dup3\n            /* \"--CODEGEN--\":1720:1729   */\n          dup7\n            /* \"--CODEGEN--\":1716:1738   */\n          add\n            /* \"--CODEGEN--\":1695:1748   */\n          tag_87\n          jump\t// in\n        tag_106:\n            /* \"--CODEGEN--\":1685:1748   */\n          swap2\n          pop\n            /* \"--CODEGEN--\":1656:1754   */\n          pop\n            /* \"--CODEGEN--\":1481:1764   */\n          swap3\n          pop\n          swap3\n          swap1\n          pop\n          jump\t// out\n            /* \"--CODEGEN--\":1771:2012   */\n        tag_30:\n          0x00\n            /* \"--CODEGEN--\":1875:1877   */\n          0x20\n            /* \"--CODEGEN--\":1863:1872   */\n          dup3\n            /* \"--CODEGEN--\":1854:1861   */\n          dup5\n            /* \"--CODEGEN--\":1850:1873   */\n          sub\n            /* \"--CODEGEN--\":1846:1878   */\n          slt\n            /* \"--CODEGEN--\":1843:1845   */\n          iszero\n          tag_108\n          jumpi\n            /* \"--CODEGEN--\":1891:1892   */\n          0x00\n            /* \"--CODEGEN--\":1888:1889   */\n          dup1\n            /* \"--CODEGEN--\":1881:1893   */\n          revert\n            /* \"--CODEGEN--\":1843:1845   */\n        tag_108:\n            /* \"--CODEGEN--\":1926:1927   */\n          0x00\n            /* \"--CODEGEN--\":1943:1996   */\n          tag_109\n            /* \"--CODEGEN--\":1988:1995   */\n          dup5\n            /* \"--CODEGEN--\":1979:1985   */\n          dup3\n            /* \"--CODEGEN--\":1968:1977   */\n          dup6\n            /* \"--CODEGEN--\":1964:1986   */\n          add\n            /* \"--CODEGEN--\":1943:1996   */\n          tag_87\n          jump\t// in\n        tag_109:\n            /* \"--CODEGEN--\":1933:1996   */\n          swap2\n          pop\n            /* \"--CODEGEN--\":1905:2002   */\n          pop\n            /* \"--CODEGEN--\":1837:2012   */\n          swap3\n          swap2\n          pop\n          pop\n          jump\t// out\n            /* \"--CODEGEN--\":2019:2123   */\n        tag_110:\n            /* \"--CODEGEN--\":2096:2117   */\n          tag_112\n            /* \"--CODEGEN--\":2111:2116   */\n          dup2\n            /* \"--CODEGEN--\":2096:2117   */\n          tag_113\n          jump\t// in\n        tag_112:\n            /* \"--CODEGEN--\":2091:2094   */\n          dup3\n            /* \"--CODEGEN--\":2084:2118   */\n          mstore\n            /* \"--CODEGEN--\":2078:2123   */\n          pop\n          pop\n          jump\t// out\n            /* \"--CODEGEN--\":2130:2477   */\n        tag_114:\n          0x00\n            /* \"--CODEGEN--\":2242:2281   */\n          tag_116\n            /* \"--CODEGEN--\":2275:2280   */\n          dup3\n            /* \"--CODEGEN--\":2242:2281   */\n          tag_117\n          jump\t// in\n        tag_116:\n            /* \"--CODEGEN--\":2293:2364   */\n          tag_118\n            /* \"--CODEGEN--\":2357:2363   */\n          dup2\n            /* \"--CODEGEN--\":2352:2355   */\n          dup6\n            /* \"--CODEGEN--\":2293:2364   */\n          tag_119\n          jump\t// in\n        tag_118:\n            /* \"--CODEGEN--\":2286:2364   */\n          swap4\n          pop\n            /* \"--CODEGEN--\":2369:2421   */\n          tag_120\n            /* \"--CODEGEN--\":2414:2420   */\n          dup2\n            /* \"--CODEGEN--\":2409:2412   */\n          dup6\n            /* \"--CODEGEN--\":2402:2406   */\n          0x20\n            /* \"--CODEGEN--\":2395:2400   */\n          dup7\n            /* \"--CODEGEN--\":2391:2407   */\n          add\n            /* \"--CODEGEN--\":2369:2421   */\n          tag_121\n          jump\t// in\n        tag_120:\n            /* \"--CODEGEN--\":2442:2471   */\n          tag_122\n            /* \"--CODEGEN--\":2464:2470   */\n          dup2\n            /* \"--CODEGEN--\":2442:2471   */\n          tag_123\n          jump\t// in\n        tag_122:\n            /* \"--CODEGEN--\":2437:2440   */\n          dup5\n            /* \"--CODEGEN--\":2433:2472   */\n          add\n            /* \"--CODEGEN--\":2426:2472   */\n          swap2\n          pop\n            /* \"--CODEGEN--\":2222:2477   */\n          pop\n          swap3\n          swap2\n          pop\n          pop\n          jump\t// out\n            /* \"--CODEGEN--\":2484:2597   */\n        tag_124:\n            /* \"--CODEGEN--\":2567:2591   */\n          tag_126\n            /* \"--CODEGEN--\":2585:2590   */\n          dup2\n            /* \"--CODEGEN--\":2567:2591   */\n          tag_127\n          jump\t// in\n        tag_126:\n            /* \"--CODEGEN--\":2562:2565   */\n          dup3\n            /* \"--CODEGEN--\":2555:2592   */\n          mstore\n            /* \"--CODEGEN--\":2549:2597   */\n          pop\n          pop\n          jump\t// out\n            /* \"--CODEGEN--\":2604:2711   */\n        tag_128:\n            /* \"--CODEGEN--\":2683:2705   */\n          tag_130\n            /* \"--CODEGEN--\":2699:2704   */\n          dup2\n            /* \"--CODEGEN--\":2683:2705   */\n          tag_131\n          jump\t// in\n        tag_130:\n            /* \"--CODEGEN--\":2678:2681   */\n          dup3\n            /* \"--CODEGEN--\":2671:2706   */\n          mstore\n            /* \"--CODEGEN--\":2665:2711   */\n          pop\n          pop\n          jump\t// out\n            /* \"--CODEGEN--\":2718:2928   */\n        tag_23:\n          0x00\n            /* \"--CODEGEN--\":2839:2841   */\n          0x20\n            /* \"--CODEGEN--\":2828:2837   */\n          dup3\n            /* \"--CODEGEN--\":2824:2842   */\n          add\n            /* \"--CODEGEN--\":2816:2842   */\n          swap1\n          pop\n            /* \"--CODEGEN--\":2853:2918   */\n          tag_133\n            /* \"--CODEGEN--\":2915:2916   */\n          0x00\n            /* \"--CODEGEN--\":2904:2913   */\n          dup4\n            /* \"--CODEGEN--\":2900:2917   */\n          add\n            /* \"--CODEGEN--\":2891:2897   */\n          dup5\n            /* \"--CODEGEN--\":2853:2918   */\n          tag_110\n          jump\t// in\n        tag_133:\n            /* \"--CODEGEN--\":2810:2928   */\n          swap3\n          swap2\n          pop\n          pop\n          jump\t// out\n            /* \"--CODEGEN--\":2935:3245   */\n        tag_17:\n          0x00\n            /* \"--CODEGEN--\":3082:3084   */\n          0x20\n            /* \"--CODEGEN--\":3071:3080   */\n          dup3\n            /* \"--CODEGEN--\":3067:3085   */\n          add\n            /* \"--CODEGEN--\":3059:3085   */\n          swap1\n          pop\n            /* \"--CODEGEN--\":3132:3141   */\n          dup2\n            /* \"--CODEGEN--\":3126:3130   */\n          dup2\n            /* \"--CODEGEN--\":3122:3142   */\n          sub\n            /* \"--CODEGEN--\":3118:3119   */\n          0x00\n            /* \"--CODEGEN--\":3107:3116   */\n          dup4\n            /* \"--CODEGEN--\":3103:3120   */\n          add\n            /* \"--CODEGEN--\":3096:3143   */\n          mstore\n            /* \"--CODEGEN--\":3157:3235   */\n          tag_135\n            /* \"--CODEGEN--\":3230:3234   */\n          dup2\n            /* \"--CODEGEN--\":3221:3227   */\n          dup5\n            /* \"--CODEGEN--\":3157:3235   */\n          tag_114\n          jump\t// in\n        tag_135:\n            /* \"--CODEGEN--\":3149:3235   */\n          swap1\n          pop\n            /* \"--CODEGEN--\":3053:3245   */\n          swap3\n          swap2\n          pop\n          pop\n          jump\t// out\n            /* \"--CODEGEN--\":3252:3474   */\n        tag_27:\n          0x00\n            /* \"--CODEGEN--\":3379:3381   */\n          0x20\n            /* \"--CODEGEN--\":3368:3377   */\n          dup3\n            /* \"--CODEGEN--\":3364:3382   */\n          add\n            /* \"--CODEGEN--\":3356:3382   */\n          swap1\n          pop\n            /* \"--CODEGEN--\":3393:3464   */\n          tag_137\n            /* \"--CODEGEN--\":3461:3462   */\n          0x00\n            /* \"--CODEGEN--\":3450:3459   */\n          dup4\n            /* \"--CODEGEN--\":3446:3463   */\n          add\n            /* \"--CODEGEN--\":3437:3443   */\n          dup5\n            /* \"--CODEGEN--\":3393:3464   */\n          tag_124\n          jump\t// in\n        tag_137:\n            /* \"--CODEGEN--\":3350:3474   */\n          swap3\n          swap2\n          pop\n          pop\n          jump\t// out\n            /* \"--CODEGEN--\":3481:3695   */\n        tag_40:\n          0x00\n            /* \"--CODEGEN--\":3604:3606   */\n          0x20\n            /* \"--CODEGEN--\":3593:3602   */\n          dup3\n            /* \"--CODEGEN--\":3589:3607   */\n          add\n            /* \"--CODEGEN--\":3581:3607   */\n          swap1\n          pop\n            /* \"--CODEGEN--\":3618:3685   */\n          tag_139\n            /* \"--CODEGEN--\":3682:3683   */\n          0x00\n            /* \"--CODEGEN--\":3671:3680   */\n          dup4\n            /* \"--CODEGEN--\":3667:3684   */\n          add\n            /* \"--CODEGEN--\":3658:3664   */\n          dup5\n            /* \"--CODEGEN--\":3618:3685   */\n          tag_128\n          jump\t// in\n        tag_139:\n            /* \"--CODEGEN--\":3575:3695   */\n          swap3\n          swap2\n          pop\n          pop\n          jump\t// out\n            /* \"--CODEGEN--\":3702:3824   */\n        tag_117:\n          0x00\n            /* \"--CODEGEN--\":3796:3801   */\n          dup2\n            /* \"--CODEGEN--\":3790:3802   */\n          mload\n            /* \"--CODEGEN--\":3780:3802   */\n          swap1\n          pop\n            /* \"--CODEGEN--\":3761:3824   */\n          swap2\n          swap1\n          pop\n          jump\t// out\n            /* \"--CODEGEN--\":3832:3995   */\n        tag_119:\n          0x00\n            /* \"--CODEGEN--\":3947:3953   */\n          dup3\n            /* \"--CODEGEN--\":3942:3945   */\n          dup3\n            /* \"--CODEGEN--\":3935:3954   */\n          mstore\n            /* \"--CODEGEN--\":3984:3988   */\n          0x20\n            /* \"--CODEGEN--\":3979:3982   */\n          dup3\n            /* \"--CODEGEN--\":3975:3989   */\n          add\n            /* \"--CODEGEN--\":3960:3989   */\n          swap1\n          pop\n            /* \"--CODEGEN--\":3928:3995   */\n          swap3\n          swap2\n          pop\n          pop\n          jump\t// out\n            /* \"--CODEGEN--\":4003:4094   */\n        tag_142:\n          0x00\n            /* \"--CODEGEN--\":4065:4089   */\n          tag_144\n            /* \"--CODEGEN--\":4083:4088   */\n          dup3\n            /* \"--CODEGEN--\":4065:4089   */\n          tag_145\n          jump\t// in\n        tag_144:\n            /* \"--CODEGEN--\":4054:4089   */\n          swap1\n          pop\n            /* \"--CODEGEN--\":4048:4094   */\n          swap2\n          swap1\n          pop\n          jump\t// out\n            /* \"--CODEGEN--\":4101:4186   */\n        tag_113:\n          0x00\n            /* \"--CODEGEN--\":4174:4179   */\n          dup2\n            /* \"--CODEGEN--\":4167:4180   */\n          iszero\n            /* \"--CODEGEN--\":4160:4181   */\n          iszero\n            /* \"--CODEGEN--\":4149:4181   */\n          swap1\n          pop\n            /* \"--CODEGEN--\":4143:4186   */\n          swap2\n          swap1\n          pop\n          jump\t// out\n            /* \"--CODEGEN--\":4193:4314   */\n        tag_145:\n          0x00\n            /* \"--CODEGEN--\":4266:4308   */\n          0xffffffffffffffffffffffffffffffffffffffff\n            /* \"--CODEGEN--\":4259:4264   */\n          dup3\n            /* \"--CODEGEN--\":4255:4309   */\n          and\n            /* \"--CODEGEN--\":4244:4309   */\n          swap1\n          pop\n            /* \"--CODEGEN--\":4238:4314   */\n          swap2\n          swap1\n          pop\n          jump\t// out\n            /* \"--CODEGEN--\":4321:4393   */\n        tag_127:\n          0x00\n            /* \"--CODEGEN--\":4383:4388   */\n          dup2\n            /* \"--CODEGEN--\":4372:4388   */\n          swap1\n          pop\n            /* \"--CODEGEN--\":4366:4393   */\n          swap2\n          swap1\n          pop\n          jump\t// out\n            /* \"--CODEGEN--\":4400:4481   */\n        tag_131:\n          0x00\n            /* \"--CODEGEN--\":4471:4475   */\n          0xff\n            /* \"--CODEGEN--\":4464:4469   */\n          dup3\n            /* \"--CODEGEN--\":4460:4476   */\n          and\n            /* \"--CODEGEN--\":4449:4476   */\n          swap1\n          pop\n            /* \"--CODEGEN--\":4443:4481   */\n          swap2\n          swap1\n          pop\n          jump\t// out\n            /* \"--CODEGEN--\":4489:4757   */\n        tag_121:\n            /* \"--CODEGEN--\":4554:4555   */\n          0x00\n            /* \"--CODEGEN--\":4561:4662   */\n        tag_151:\n            /* \"--CODEGEN--\":4575:4581   */\n          dup4\n            /* \"--CODEGEN--\":4572:4573   */\n          dup2\n            /* \"--CODEGEN--\":4569:4582   */\n          lt\n            /* \"--CODEGEN--\":4561:4662   */\n          iszero\n          tag_153\n          jumpi\n            /* \"--CODEGEN--\":4651:4652   */\n          dup1\n            /* \"--CODEGEN--\":4646:4649   */\n          dup3\n            /* \"--CODEGEN--\":4642:4653   */\n          add\n            /* \"--CODEGEN--\":4636:4654   */\n          mload\n            /* \"--CODEGEN--\":4632:4633   */\n          dup2\n            /* \"--CODEGEN--\":4627:4630   */\n          dup5\n            /* \"--CODEGEN--\":4623:4634   */\n          add\n            /* \"--CODEGEN--\":4616:4655   */\n          mstore\n            /* \"--CODEGEN--\":4597:4599   */\n          0x20\n            /* \"--CODEGEN--\":4594:4595   */\n          dup2\n            /* \"--CODEGEN--\":4590:4600   */\n          add\n            /* \"--CODEGEN--\":4585:4600   */\n          swap1\n          pop\n            /* \"--CODEGEN--\":4561:4662   */\n          jump(tag_151)\n        tag_153:\n            /* \"--CODEGEN--\":4677:4683   */\n          dup4\n            /* \"--CODEGEN--\":4674:4675   */\n          dup2\n            /* \"--CODEGEN--\":4671:4684   */\n          gt\n            /* \"--CODEGEN--\":4668:4670   */\n          iszero\n          tag_154\n          jumpi\n            /* \"--CODEGEN--\":4742:4743   */\n          0x00\n            /* \"--CODEGEN--\":4733:4739   */\n          dup5\n            /* \"--CODEGEN--\":4728:4731   */\n          dup5\n            /* \"--CODEGEN--\":4724:4740   */\n          add\n            /* \"--CODEGEN--\":4717:4744   */\n          mstore\n            /* \"--CODEGEN--\":4668:4670   */\n        tag_154:\n            /* \"--CODEGEN--\":4538:4757   */\n          pop\n          pop\n          pop\n          pop\n          jump\t// out\n            /* \"--CODEGEN--\":4765:4862   */\n        tag_123:\n          0x00\n            /* \"--CODEGEN--\":4853:4855   */\n          0x1f\n            /* \"--CODEGEN--\":4849:4856   */\n          not\n            /* \"--CODEGEN--\":4844:4846   */\n          0x1f\n            /* \"--CODEGEN--\":4837:4842   */\n          dup4\n            /* \"--CODEGEN--\":4833:4847   */\n          add\n            /* \"--CODEGEN--\":4829:4857   */\n          and\n            /* \"--CODEGEN--\":4819:4857   */\n          swap1\n          pop\n            /* \"--CODEGEN--\":4813:4862   */\n          swap2\n          swap1\n          pop\n          jump\t// out\n            /* \"--CODEGEN--\":4870:4987   */\n        tag_86:\n            /* \"--CODEGEN--\":4939:4963   */\n          tag_157\n            /* \"--CODEGEN--\":4957:4962   */\n          dup2\n            /* \"--CODEGEN--\":4939:4963   */\n          tag_142\n          jump\t// in\n        tag_157:\n            /* \"--CODEGEN--\":4932:4937   */\n          dup2\n            /* \"--CODEGEN--\":4929:4964   */\n          eq\n            /* \"--CODEGEN--\":4919:4921   */\n          tag_158\n          jumpi\n            /* \"--CODEGEN--\":4978:4979   */\n          0x00\n            /* \"--CODEGEN--\":4975:4976   */\n          dup1\n            /* \"--CODEGEN--\":4968:4980   */\n          revert\n            /* \"--CODEGEN--\":4919:4921   */\n        tag_158:\n            /* \"--CODEGEN--\":4913:4987   */\n          pop\n          jump\t// out\n            /* \"--CODEGEN--\":4994:5111   */\n        tag_90:\n            /* \"--CODEGEN--\":5063:5087   */\n          tag_160\n            /* \"--CODEGEN--\":5081:5086   */\n          dup2\n            /* \"--CODEGEN--\":5063:5087   */\n          tag_127\n          jump\t// in\n        tag_160:\n            /* \"--CODEGEN--\":5056:5061   */\n          dup2\n            /* \"--CODEGEN--\":5053:5088   */\n          eq\n            /* \"--CODEGEN--\":5043:5045   */\n          tag_161\n          jumpi\n            /* \"--CODEGEN--\":5102:5103   */\n          0x00\n            /* \"--CODEGEN--\":5099:5100   */\n          dup1\n            /* \"--CODEGEN--\":5092:5104   */\n          revert\n            /* \"--CODEGEN--\":5043:5045   */\n        tag_161:\n            /* \"--CODEGEN--\":5037:5111   */\n          pop\n          jump\t// out\n\n        auxdata: 0xa2646970667358221220db26cb8525f0a6da6a43a6ec5d6d6614adfa4979c0e2a6ffd5498fb232bef64764736f6c634300060c0033\n    }\n}\n",
				"bytecode": {
					"linkReferences": {},
					"object": "60806040523480156200001157600080fd5b506103e86040516200002390620000d3565b6200002f9190620000f2565b604051809103906000f0801580156200004c573d6000803e3d6000fd5b506000806101000a81548173ffffffffffffffffffffffffffffffffffffffff021916908373ffffffffffffffffffffffffffffffffffffffff16021790555033600160006101000a81548173ffffffffffffffffffffffffffffffffffffffff021916908373ffffffffffffffffffffffffffffffffffffffff1602179055506200012d565b610e7f80620018d383390190565b620000ec8162000119565b82525050565b6000602082019050620001096000830184620000e1565b92915050565b6000819050919050565b600062000126826200010f565b9050919050565b611796806200013d6000396000f3fe60806040526004361061009c5760003560e01c80639a3174a0116100645780639a3174a014610172578063a20941591461019d578063ce8f2f38146101c6578063d00df29614610203578063e33f34a014610242578063f77740911461026d5761009c565b806312b91846146100a15780631fccb33c146100ca5780632076b56c146100f55780637c1b38bf1461011e5780638da5cb5b14610147575b600080fd5b3480156100ad57600080fd5b506100c860048036038101906100c39190610f3f565b610289565b005b3480156100d657600080fd5b506100df6103ed565b6040516100ec9190611458565b60405180910390f35b34801561010157600080fd5b5061011c60048036038101906101179190610f80565b61049a565b005b34801561012a57600080fd5b5061014560048036038101906101409190610fd4565b61062b565b005b34801561015357600080fd5b5061015c61074b565b6040516101699190611414565b60405180910390f35b34801561017e57600080fd5b50610187610771565b6040516101949190611588565b60405180910390f35b3480156101a957600080fd5b506101c460048036038101906101bf9190610f3f565b610822565b005b3480156101d257600080fd5b506101ed60048036038101906101e89190610eed565b6109fb565b6040516101fa9190611588565b60405180910390f35b34801561020f57600080fd5b5061022a60048036038101906102259190610f3f565b610a19565b604051610239939291906114aa565b60405180910390f35b34801561024e57600080fd5b50610257610afe565b6040516102649190611588565b60405180910390f35b61028760048036038101906102829190610fd4565b610baf565b005b60008060005b6004805490508110156103a757836040516020016102ad9190611381565b60405160208183030381529060405280519060200120600482815481106102d057fe5b906000526020600020016040516020016102ea91906113c7565b60405160208183030381529060405280519060200120141561039a576001925060036004828154811061031957fe5b9060005260206000200160405161033091906113c7565b908152602001604051809103902060020160009054906101000a900460ff161561035957600191505b81610399576040517f08c379a0000000000000000000000000000000000000000000000000000000008152600401610390906114e8565b60405180910390fd5b5b808060010191505061028f565b50816103e8576040517f08c379a00000000000000000000000000000000000000000000000000000000081526004016103df906114e8565b60405180910390fd5b505050565b60608060005b6004805490508110156104925760036004828154811061040f57fe5b9060005260206000200160405161042691906113c7565b908152602001604051809103902060020160009054906101000a900460ff161561048557816004828154811061045857fe5b90600052602060002001604051602001610473929190611398565b60405160208183030381529060405291505b80806001019150506103f3565b508091505090565b33600160009054906101000a900473ffffffffffffffffffffffffffffffffffffffff1673ffffffffffffffffffffffffffffffffffffffff168173ffffffffffffffffffffffffffffffffffffffff161461052b576040517f08c379a000000000000000000000000000000000000000000000000000000000815260040161052290611568565b60405180910390fd5b6040518060600160405280848152602001838152602001600115158152506003846040516105599190611381565b90815260200160405180910390206000820151816000019080519060200190610583929190610da8565b506020820151816001015560408201518160020160006101000a81548160ff0219169083151502179055509050506004839080600181540180825580915050600190039060005260206000200160009091909190915090805190602001906105ec929190610da8565b507ffc9ecd7a6c2ca96d38526a0b9cc22f2474ff8e596dd348edaab06be905ebe378838360405161061e92919061147a565b60405180910390a1505050565b33600160009054906101000a900473ffffffffffffffffffffffffffffffffffffffff1673ffffffffffffffffffffffffffffffffffffffff168173ffffffffffffffffffffffffffffffffffffffff16146106bc576040517f08c379a00000000000000000000000000000000000000000000000000000000081526004016106b390611568565b60405180910390fd5b60008054906101000a900473ffffffffffffffffffffffffffffffffffffffff1673ffffffffffffffffffffffffffffffffffffffff16631d43cc98836040518263ffffffff1660e01b81526004016107159190611588565b600060405180830381600087803b15801561072f57600080fd5b505af1158015610743573d6000803e3d6000fd5b505050505050565b600160009054906101000a900473ffffffffffffffffffffffffffffffffffffffff1681565b60008060009054906101000a900473ffffffffffffffffffffffffffffffffffffffff1673ffffffffffffffffffffffffffffffffffffffff166370a08231306040518263ffffffff1660e01b81526004016107cd91906113de565b60206040518083038186803b1580156107e557600080fd5b505afa1580156107f9573d6000803e3d6000fd5b505050506040513d601f19601f8201168201806040525081019061081d9190610ffd565b905090565b33600160009054906101000a900473ffffffffffffffffffffffffffffffffffffffff1673ffffffffffffffffffffffffffffffffffffffff168173ffffffffffffffffffffffffffffffffffffffff16146108b3576040517f08c379a00000000000000000000000000000000000000000000000000000000081526004016108aa90611568565b60405180910390fd5b6000805b60048054905081101561094457836040516020016108d59190611381565b60405160208183030381529060405280519060200120600482815481106108f857fe5b9060005260206000200160405160200161091291906113c7565b6040516020818303038152906040528051906020012014156109375760019150610944565b80806001019150506108b7565b5080610985576040517f08c379a000000000000000000000000000000000000000000000000000000000815260040161097c90611508565b60405180910390fd5b60006003846040516109979190611381565b908152602001604051809103902060020160006101000a81548160ff0219169083151502179055507f24ba6c881728980191398db8dcfd8ed4f6aeb1c08df349d63f3b85075f3e86dd836040516109ee9190611458565b60405180910390a1505050565b60026020528060005260406000206000915090508060000154905081565b600381805160208101820180518482526020830160208501208183528095505050505050600091509050806000018054600181600116156101000203166002900480601f016020809104026020016040519081016040528092919081815260200182805460018160011615610100020316600290048015610adb5780601f10610ab057610100808354040283529160200191610adb565b820191906000526020600020905b815481529060010190602001808311610abe57829003601f168201915b5050505050908060010154908060020160009054906101000a900460ff16905083565b60008060009054906101000a900473ffffffffffffffffffffffffffffffffffffffff1673ffffffffffffffffffffffffffffffffffffffff166370a08231336040518263ffffffff1660e01b8152600401610b5a91906113f9565b60206040518083038186803b158015610b7257600080fd5b505afa158015610b86573d6000803e3d6000fd5b505050506040513d601f19601f82011682018060405250810190610baa9190610ffd565b905090565b6000610bba82610d94565b905080341015610bff576040517f08c379a0000000000000000000000000000000000000000000000000000000008152600401610bf690611528565b60405180910390fd5b81610c08610771565b1015610c49576040517f08c379a0000000000000000000000000000000000000000000000000000000008152600401610c4090611548565b60405180910390fd5b3373ffffffffffffffffffffffffffffffffffffffff166108fc8234039081150290604051600060405180830381858888f19350505050158015610c91573d6000803e3d6000fd5b5060008054906101000a900473ffffffffffffffffffffffffffffffffffffffff1673ffffffffffffffffffffffffffffffffffffffff1663a9059cbb33846040518363ffffffff1660e01b8152600401610ced92919061142f565b602060405180830381600087803b158015610d0757600080fd5b505af1158015610d1b573d6000803e3d6000fd5b505050506040513d601f19601f82011682018060405250810190610d3f9190610f16565b5081600260003373ffffffffffffffffffffffffffffffffffffffff1673ffffffffffffffffffffffffffffffffffffffff168152602001908152602001600020600001600082825401925050819055505050565b6000670de0b6b3a764000082029050919050565b828054600181600116156101000203166002900490600052602060002090601f016020900481019282601f10610de957805160ff1916838001178555610e17565b82800160010185558215610e17579182015b82811115610e16578251825591602001919060010190610dfb565b5b509050610e249190610e28565b5090565b5b80821115610e41576000816000905550600101610e29565b5090565b600081359050610e548161171b565b92915050565b600081519050610e6981611732565b92915050565b600082601f830112610e8057600080fd5b8135610e93610e8e826115d0565b6115a3565b91508082526020830160208301858383011115610eaf57600080fd5b610eba8382846116c8565b50505092915050565b600081359050610ed281611749565b92915050565b600081519050610ee781611749565b92915050565b600060208284031215610eff57600080fd5b6000610f0d84828501610e45565b91505092915050565b600060208284031215610f2857600080fd5b6000610f3684828501610e5a565b91505092915050565b600060208284031215610f5157600080fd5b600082013567ffffffffffffffff811115610f6b57600080fd5b610f7784828501610e6f565b91505092915050565b60008060408385031215610f9357600080fd5b600083013567ffffffffffffffff811115610fad57600080fd5b610fb985828601610e6f565b9250506020610fca85828601610ec3565b9150509250929050565b600060208284031215610fe657600080fd5b6000610ff484828501610ec3565b91505092915050565b60006020828403121561100f57600080fd5b600061101d84828501610ed8565b91505092915050565b61102f81611692565b82525050565b61103e8161164a565b82525050565b61104d81611638565b82525050565b61105c8161165c565b82525050565b600061106d82611611565b611077818561161c565b93506110878185602086016116d7565b6110908161170a565b840191505092915050565b60006110a682611611565b6110b0818561162d565b93506110c08185602086016116d7565b80840191505092915050565b6000815460018116600081146110e9576001811461110e57611152565b607f60028304166110fa818761162d565b955060ff1983168652808601935050611152565b6002820461111c818761162d565b9550611127856115fc565b60005b828110156111495781548189015260018201915060208101905061112a565b82880195505050505b505092915050565b600061116760238361161c565b91507f4c6120617472616363696f6e20656e20637565737469c3b36e206e6f2065786960008301527f73746500000000000000000000000000000000000000000000000000000000006020830152604082019050919050565b60006111cd60518361161c565b91507f4e6f207365207075656465206461722064652062616a61206120756e6120617460008301527f72616363696f6e20717565206e6f2068617961207369646f206461646120646560208301527f20616c7461207072657669616d656e74650000000000000000000000000000006040830152606082019050919050565b600061125960038361162d565b91507f207c2000000000000000000000000000000000000000000000000000000000006000830152600382019050919050565b6000611299601e8361161c565b91507f43616e746964616420646520657468657220696e737566696369656e746500006000830152602082019050919050565b60006112d960208361161c565b91507f43616e746964616420646520746f6b656e7320696e737566696369656e7465736000830152602082019050919050565b6000611319602c8361161c565b91507f4e6f207469656e6573207065726d69736f207061726120656a6563757461722060008301527f657374612061636369c3b36e00000000000000000000000000000000000000006020830152604082019050919050565b61137b81611688565b82525050565b600061138d828461109b565b915081905092915050565b60006113a4828561109b565b91506113af8261124c565b91506113bb82846110cc565b91508190509392505050565b60006113d382846110cc565b915081905092915050565b60006020820190506113f36000830184611044565b92915050565b600060208201905061140e6000830184611026565b92915050565b60006020820190506114296000830184611035565b92915050565b60006040820190506114446000830185611026565b6114516020830184611372565b9392505050565b600060208201905081810360008301526114728184611062565b905092915050565b600060408201905081810360008301526114948185611062565b90506114a36020830184611372565b9392505050565b600060608201905081810360008301526114c48186611062565b90506114d36020830185611372565b6114e06040830184611053565b949350505050565b600060208201905081810360008301526115018161115a565b9050919050565b60006020820190508181036000830152611521816111c0565b9050919050565b600060208201905081810360008301526115418161128c565b9050919050565b60006020820190508181036000830152611561816112cc565b9050919050565b600060208201905081810360008301526115818161130c565b9050919050565b600060208201905061159d6000830184611372565b92915050565b6000604051905081810181811067ffffffffffffffff821117156115c657600080fd5b8060405250919050565b600067ffffffffffffffff8211156115e757600080fd5b601f19601f8301169050602081019050919050565b60008190508160005260206000209050919050565b600081519050919050565b600082825260208201905092915050565b600081905092915050565b600061164382611668565b9050919050565b600061165582611668565b9050919050565b60008115159050919050565b600073ffffffffffffffffffffffffffffffffffffffff82169050919050565b6000819050919050565b600061169d826116a4565b9050919050565b60006116af826116b6565b9050919050565b60006116c182611668565b9050919050565b82818337600083830152505050565b60005b838110156116f55780820151818401526020810190506116da565b83811115611704576000848401525b50505050565b6000601f19601f8301169050919050565b61172481611638565b811461172f57600080fd5b50565b61173b8161165c565b811461174657600080fd5b50565b61175281611688565b811461175d57600080fd5b5056fea264697066735822122065fdeae73da32139b10762614dec2a210d8821b0fba5faa159e62c5f21bd41f864736f6c634300060c0033608060405234801561001057600080fd5b50604051610e7f380380610e7f83398181016040528101906100329190610099565b806002819055506002546000803373ffffffffffffffffffffffffffffffffffffffff1673ffffffffffffffffffffffffffffffffffffffff16815260200190815260200160002081905550506100e3565b600081519050610093816100cc565b92915050565b6000602082840312156100ab57600080fd5b60006100b984828501610084565b91505092915050565b6000819050919050565b6100d5816100c2565b81146100e057600080fd5b50565b610d8d806100f26000396000f3fe608060405234801561001057600080fd5b506004361061009e5760003560e01c8063313ce56711610066578063313ce5671461015b57806370a082311461017957806395d89b41146101a9578063a9059cbb146101c7578063dd62ed3e146101f75761009e565b806306fdde03146100a3578063095ea7b3146100c157806318160ddd146100f15780631d43cc981461010f57806323b872dd1461012b575b600080fd5b6100ab610227565b6040516100b89190610c1c565b60405180910390f35b6100db60048036038101906100d69190610b36565b610260565b6040516100e89190610c01565b60405180910390f35b6100f9610352565b6040516101069190610c3e565b60405180910390f35b61012960048036038101906101249190610b72565b61035c565b005b61014560048036038101906101409190610ae7565b6103bb565b6040516101529190610c01565b60405180910390f35b610163610736565b6040516101709190610c59565b60405180910390f35b610193600480360381019061018e9190610a82565b61073b565b6040516101a09190610c3e565b60405180910390f35b6101b1610783565b6040516101be9190610c1c565b60405180910390f35b6101e160048036038101906101dc9190610b36565b6107bc565b6040516101ee9190610c01565b60405180910390f35b610211600480360381019061020c9190610aab565b61099e565b60405161021e9190610c3e565b60405180910390f35b6040518060400160405280600c81526020017f4552433230414b414c75676f000000000000000000000000000000000000000081525081565b600081600160003373ffffffffffffffffffffffffffffffffffffffff1673ffffffffffffffffffffffffffffffffffffffff16815260200190815260200160002060008573ffffffffffffffffffffffffffffffffffffffff1673ffffffffffffffffffffffffffffffffffffffff168152602001908152602001600020819055508273ffffffffffffffffffffffffffffffffffffffff163373ffffffffffffffffffffffffffffffffffffffff167f8c5be1e5ebec7d5bd14f71427d1e84f3dd0314c0f7b2291e5b200ac8c7c3b925846040516103409190610c3e565b60405180910390a36001905092915050565b6000600254905090565b80600260008282540192505081905550806000803373ffffffffffffffffffffffffffffffffffffffff1673ffffffffffffffffffffffffffffffffffffffff1681526020019081526020016000206000828254019250508190555050565b6000816000808673ffffffffffffffffffffffffffffffffffffffff1673ffffffffffffffffffffffffffffffffffffffff16815260200190815260200160002054101561040857600080fd5b81600160008673ffffffffffffffffffffffffffffffffffffffff1673ffffffffffffffffffffffffffffffffffffffff16815260200190815260200160002060003373ffffffffffffffffffffffffffffffffffffffff1673ffffffffffffffffffffffffffffffffffffffff16815260200190815260200160002054101561049157600080fd5b6104e2826000808773ffffffffffffffffffffffffffffffffffffffff1673ffffffffffffffffffffffffffffffffffffffff16815260200190815260200160002054610a2590919063ffffffff16565b6000808673ffffffffffffffffffffffffffffffffffffffff1673ffffffffffffffffffffffffffffffffffffffff168152602001908152602001600020819055506105b382600160008773ffffffffffffffffffffffffffffffffffffffff1673ffffffffffffffffffffffffffffffffffffffff16815260200190815260200160002060003373ffffffffffffffffffffffffffffffffffffffff1673ffffffffffffffffffffffffffffffffffffffff16815260200190815260200160002054610a2590919063ffffffff16565b600160008673ffffffffffffffffffffffffffffffffffffffff1673ffffffffffffffffffffffffffffffffffffffff16815260200190815260200160002060003373ffffffffffffffffffffffffffffffffffffffff1673ffffffffffffffffffffffffffffffffffffffff16815260200190815260200160002081905550610684826000808673ffffffffffffffffffffffffffffffffffffffff1673ffffffffffffffffffffffffffffffffffffffff16815260200190815260200160002054610a3c90919063ffffffff16565b6000808573ffffffffffffffffffffffffffffffffffffffff1673ffffffffffffffffffffffffffffffffffffffff168152602001908152602001600020819055508273ffffffffffffffffffffffffffffffffffffffff168473ffffffffffffffffffffffffffffffffffffffff167fddf252ad1be2c89b69c2b068fc378daa952ba7f163c4a11628f55a4df523b3ef846040516107239190610c3e565b60405180910390a3600190509392505050565b601281565b60008060008373ffffffffffffffffffffffffffffffffffffffff1673ffffffffffffffffffffffffffffffffffffffff168152602001908152602001600020549050919050565b6040518060400160405280600381526020017f414b41000000000000000000000000000000000000000000000000000000000081525081565b60008060003373ffffffffffffffffffffffffffffffffffffffff1673ffffffffffffffffffffffffffffffffffffffff1681526020019081526020016000205482111561080957600080fd5b61085a826000803373ffffffffffffffffffffffffffffffffffffffff1673ffffffffffffffffffffffffffffffffffffffff16815260200190815260200160002054610a2590919063ffffffff16565b6000803373ffffffffffffffffffffffffffffffffffffffff1673ffffffffffffffffffffffffffffffffffffffff168152602001908152602001600020819055506108ed826000808673ffffffffffffffffffffffffffffffffffffffff1673ffffffffffffffffffffffffffffffffffffffff16815260200190815260200160002054610a3c90919063ffffffff16565b6000808573ffffffffffffffffffffffffffffffffffffffff1673ffffffffffffffffffffffffffffffffffffffff168152602001908152602001600020819055508273ffffffffffffffffffffffffffffffffffffffff163373ffffffffffffffffffffffffffffffffffffffff167fddf252ad1be2c89b69c2b068fc378daa952ba7f163c4a11628f55a4df523b3ef8460405161098c9190610c3e565b60405180910390a36001905092915050565b6000600160008473ffffffffffffffffffffffffffffffffffffffff1673ffffffffffffffffffffffffffffffffffffffff16815260200190815260200160002060008373ffffffffffffffffffffffffffffffffffffffff1673ffffffffffffffffffffffffffffffffffffffff16815260200190815260200160002054905092915050565b600082821115610a3157fe5b818303905092915050565b600080828401905083811015610a4e57fe5b8091505092915050565b600081359050610a6781610d29565b92915050565b600081359050610a7c81610d40565b92915050565b600060208284031215610a9457600080fd5b6000610aa284828501610a58565b91505092915050565b60008060408385031215610abe57600080fd5b6000610acc85828601610a58565b9250506020610add85828601610a58565b9150509250929050565b600080600060608486031215610afc57600080fd5b6000610b0a86828701610a58565b9350506020610b1b86828701610a58565b9250506040610b2c86828701610a6d565b9150509250925092565b60008060408385031215610b4957600080fd5b6000610b5785828601610a58565b9250506020610b6885828601610a6d565b9150509250929050565b600060208284031215610b8457600080fd5b6000610b9284828501610a6d565b91505092915050565b610ba481610ca2565b82525050565b6000610bb582610c74565b610bbf8185610c7f565b9350610bcf818560208601610ce5565b610bd881610d18565b840191505092915050565b610bec81610cce565b82525050565b610bfb81610cd8565b82525050565b6000602082019050610c166000830184610b9b565b92915050565b60006020820190508181036000830152610c368184610baa565b905092915050565b6000602082019050610c536000830184610be3565b92915050565b6000602082019050610c6e6000830184610bf2565b92915050565b600081519050919050565b600082825260208201905092915050565b6000610c9b82610cae565b9050919050565b60008115159050919050565b600073ffffffffffffffffffffffffffffffffffffffff82169050919050565b6000819050919050565b600060ff82169050919050565b60005b83811015610d03578082015181840152602081019050610ce8565b83811115610d12576000848401525b50505050565b6000601f19601f8301169050919050565b610d3281610c90565b8114610d3d57600080fd5b50565b610d4981610cce565b8114610d5457600080fd5b5056fea2646970667358221220db26cb8525f0a6da6a43a6ec5d6d6614adfa4979c0e2a6ffd5498fb232bef64764736f6c634300060c0033",
					"opcodes": "PUSH1 0x80 PUSH1 0x40 MSTORE CALLVALUE DUP1 ISZERO PUSH3 0x11 JUMPI PUSH1 0x0 DUP1 REVERT JUMPDEST POP PUSH2 0x3E8 PUSH1 0x40 MLOAD PUSH3 0x23 SWAP1 PUSH3 0xD3 JUMP JUMPDEST PUSH3 0x2F SWAP2 SWAP1 PUSH3 0xF2 JUMP JUMPDEST PUSH1 0x40 MLOAD DUP1 SWAP2 SUB SWAP1 PUSH1 0x0 CREATE DUP1 ISZERO DUP1 ISZERO PUSH3 0x4C JUMPI RETURNDATASIZE PUSH1 0x0 DUP1 RETURNDATACOPY RETURNDATASIZE PUSH1 0x0 REVERT JUMPDEST POP PUSH1 0x0 DUP1 PUSH2 0x100 EXP DUP2 SLOAD DUP2 PUSH20 0xFFFFFFFFFFFFFFFFFFFFFFFFFFFFFFFFFFFFFFFF MUL NOT AND SWAP1 DUP4 PUSH20 0xFFFFFFFFFFFFFFFFFFFFFFFFFFFFFFFFFFFFFFFF AND MUL OR SWAP1 SSTORE POP CALLER PUSH1 0x1 PUSH1 0x0 PUSH2 0x100 EXP DUP2 SLOAD DUP2 PUSH20 0xFFFFFFFFFFFFFFFFFFFFFFFFFFFFFFFFFFFFFFFF MUL NOT AND SWAP1 DUP4 PUSH20 0xFFFFFFFFFFFFFFFFFFFFFFFFFFFFFFFFFFFFFFFF AND MUL OR SWAP1 SSTORE POP PUSH3 0x12D JUMP JUMPDEST PUSH2 0xE7F DUP1 PUSH3 0x18D3 DUP4 CODECOPY ADD SWAP1 JUMP JUMPDEST PUSH3 0xEC DUP2 PUSH3 0x119 JUMP JUMPDEST DUP3 MSTORE POP POP JUMP JUMPDEST PUSH1 0x0 PUSH1 0x20 DUP3 ADD SWAP1 POP PUSH3 0x109 PUSH1 0x0 DUP4 ADD DUP5 PUSH3 0xE1 JUMP JUMPDEST SWAP3 SWAP2 POP POP JUMP JUMPDEST PUSH1 0x0 DUP2 SWAP1 POP SWAP2 SWAP1 POP JUMP JUMPDEST PUSH1 0x0 PUSH3 0x126 DUP3 PUSH3 0x10F JUMP JUMPDEST SWAP1 POP SWAP2 SWAP1 POP JUMP JUMPDEST PUSH2 0x1796 DUP1 PUSH3 0x13D PUSH1 0x0 CODECOPY PUSH1 0x0 RETURN INVALID PUSH1 0x80 PUSH1 0x40 MSTORE PUSH1 0x4 CALLDATASIZE LT PUSH2 0x9C JUMPI PUSH1 0x0 CALLDATALOAD PUSH1 0xE0 SHR DUP1 PUSH4 0x9A3174A0 GT PUSH2 0x64 JUMPI DUP1 PUSH4 0x9A3174A0 EQ PUSH2 0x172 JUMPI DUP1 PUSH4 0xA2094159 EQ PUSH2 0x19D JUMPI DUP1 PUSH4 0xCE8F2F38 EQ PUSH2 0x1C6 JUMPI DUP1 PUSH4 0xD00DF296 EQ PUSH2 0x203 JUMPI DUP1 PUSH4 0xE33F34A0 EQ PUSH2 0x242 JUMPI DUP1 PUSH4 0xF7774091 EQ PUSH2 0x26D JUMPI PUSH2 0x9C JUMP JUMPDEST DUP1 PUSH4 0x12B91846 EQ PUSH2 0xA1 JUMPI DUP1 PUSH4 0x1FCCB33C EQ PUSH2 0xCA JUMPI DUP1 PUSH4 0x2076B56C EQ PUSH2 0xF5 JUMPI DUP1 PUSH4 0x7C1B38BF EQ PUSH2 0x11E JUMPI DUP1 PUSH4 0x8DA5CB5B EQ PUSH2 0x147 JUMPI JUMPDEST PUSH1 0x0 DUP1 REVERT JUMPDEST CALLVALUE DUP1 ISZERO PUSH2 0xAD JUMPI PUSH1 0x0 DUP1 REVERT JUMPDEST POP PUSH2 0xC8 PUSH1 0x4 DUP1 CALLDATASIZE SUB DUP2 ADD SWAP1 PUSH2 0xC3 SWAP2 SWAP1 PUSH2 0xF3F JUMP JUMPDEST PUSH2 0x289 JUMP JUMPDEST STOP JUMPDEST CALLVALUE DUP1 ISZERO PUSH2 0xD6 JUMPI PUSH1 0x0 DUP1 REVERT JUMPDEST POP PUSH2 0xDF PUSH2 0x3ED JUMP JUMPDEST PUSH1 0x40 MLOAD PUSH2 0xEC SWAP2 SWAP1 PUSH2 0x1458 JUMP JUMPDEST PUSH1 0x40 MLOAD DUP1 SWAP2 SUB SWAP1 RETURN JUMPDEST CALLVALUE DUP1 ISZERO PUSH2 0x101 JUMPI PUSH1 0x0 DUP1 REVERT JUMPDEST POP PUSH2 0x11C PUSH1 0x4 DUP1 CALLDATASIZE SUB DUP2 ADD SWAP1 PUSH2 0x117 SWAP2 SWAP1 PUSH2 0xF80 JUMP JUMPDEST PUSH2 0x49A JUMP JUMPDEST STOP JUMPDEST CALLVALUE DUP1 ISZERO PUSH2 0x12A JUMPI PUSH1 0x0 DUP1 REVERT JUMPDEST POP PUSH2 0x145 PUSH1 0x4 DUP1 CALLDATASIZE SUB DUP2 ADD SWAP1 PUSH2 0x140 SWAP2 SWAP1 PUSH2 0xFD4 JUMP JUMPDEST PUSH2 0x62B JUMP JUMPDEST STOP JUMPDEST CALLVALUE DUP1 ISZERO PUSH2 0x153 JUMPI PUSH1 0x0 DUP1 REVERT JUMPDEST POP PUSH2 0x15C PUSH2 0x74B JUMP JUMPDEST PUSH1 0x40 MLOAD PUSH2 0x169 SWAP2 SWAP1 PUSH2 0x1414 JUMP JUMPDEST PUSH1 0x40 MLOAD DUP1 SWAP2 SUB SWAP1 RETURN JUMPDEST CALLVALUE DUP1 ISZERO PUSH2 0x17E JUMPI PUSH1 0x0 DUP1 REVERT JUMPDEST POP PUSH2 0x187 PUSH2 0x771 JUMP JUMPDEST PUSH1 0x40 MLOAD PUSH2 0x194 SWAP2 SWAP1 PUSH2 0x1588 JUMP JUMPDEST PUSH1 0x40 MLOAD DUP1 SWAP2 SUB SWAP1 RETURN JUMPDEST CALLVALUE DUP1 ISZERO PUSH2 0x1A9 JUMPI PUSH1 0x0 DUP1 REVERT JUMPDEST POP PUSH2 0x1C4 PUSH1 0x4 DUP1 CALLDATASIZE SUB DUP2 ADD SWAP1 PUSH2 0x1BF SWAP2 SWAP1 PUSH2 0xF3F JUMP JUMPDEST PUSH2 0x822 JUMP JUMPDEST STOP JUMPDEST CALLVALUE DUP1 ISZERO PUSH2 0x1D2 JUMPI PUSH1 0x0 DUP1 REVERT JUMPDEST POP PUSH2 0x1ED PUSH1 0x4 DUP1 CALLDATASIZE SUB DUP2 ADD SWAP1 PUSH2 0x1E8 SWAP2 SWAP1 PUSH2 0xEED JUMP JUMPDEST PUSH2 0x9FB JUMP JUMPDEST PUSH1 0x40 MLOAD PUSH2 0x1FA SWAP2 SWAP1 PUSH2 0x1588 JUMP JUMPDEST PUSH1 0x40 MLOAD DUP1 SWAP2 SUB SWAP1 RETURN JUMPDEST CALLVALUE DUP1 ISZERO PUSH2 0x20F JUMPI PUSH1 0x0 DUP1 REVERT JUMPDEST POP PUSH2 0x22A PUSH1 0x4 DUP1 CALLDATASIZE SUB DUP2 ADD SWAP1 PUSH2 0x225 SWAP2 SWAP1 PUSH2 0xF3F JUMP JUMPDEST PUSH2 0xA19 JUMP JUMPDEST PUSH1 0x40 MLOAD PUSH2 0x239 SWAP4 SWAP3 SWAP2 SWAP1 PUSH2 0x14AA JUMP JUMPDEST PUSH1 0x40 MLOAD DUP1 SWAP2 SUB SWAP1 RETURN JUMPDEST CALLVALUE DUP1 ISZERO PUSH2 0x24E JUMPI PUSH1 0x0 DUP1 REVERT JUMPDEST POP PUSH2 0x257 PUSH2 0xAFE JUMP JUMPDEST PUSH1 0x40 MLOAD PUSH2 0x264 SWAP2 SWAP1 PUSH2 0x1588 JUMP JUMPDEST PUSH1 0x40 MLOAD DUP1 SWAP2 SUB SWAP1 RETURN JUMPDEST PUSH2 0x287 PUSH1 0x4 DUP1 CALLDATASIZE SUB DUP2 ADD SWAP1 PUSH2 0x282 SWAP2 SWAP1 PUSH2 0xFD4 JUMP JUMPDEST PUSH2 0xBAF JUMP JUMPDEST STOP JUMPDEST PUSH1 0x0 DUP1 PUSH1 0x0 JUMPDEST PUSH1 0x4 DUP1 SLOAD SWAP1 POP DUP2 LT ISZERO PUSH2 0x3A7 JUMPI DUP4 PUSH1 0x40 MLOAD PUSH1 0x20 ADD PUSH2 0x2AD SWAP2 SWAP1 PUSH2 0x1381 JUMP JUMPDEST PUSH1 0x40 MLOAD PUSH1 0x20 DUP2 DUP4 SUB SUB DUP2 MSTORE SWAP1 PUSH1 0x40 MSTORE DUP1 MLOAD SWAP1 PUSH1 0x20 ADD KECCAK256 PUSH1 0x4 DUP3 DUP2 SLOAD DUP2 LT PUSH2 0x2D0 JUMPI INVALID JUMPDEST SWAP1 PUSH1 0x0 MSTORE PUSH1 0x20 PUSH1 0x0 KECCAK256 ADD PUSH1 0x40 MLOAD PUSH1 0x20 ADD PUSH2 0x2EA SWAP2 SWAP1 PUSH2 0x13C7 JUMP JUMPDEST PUSH1 0x40 MLOAD PUSH1 0x20 DUP2 DUP4 SUB SUB DUP2 MSTORE SWAP1 PUSH1 0x40 MSTORE DUP1 MLOAD SWAP1 PUSH1 0x20 ADD KECCAK256 EQ ISZERO PUSH2 0x39A JUMPI PUSH1 0x1 SWAP3 POP PUSH1 0x3 PUSH1 0x4 DUP3 DUP2 SLOAD DUP2 LT PUSH2 0x319 JUMPI INVALID JUMPDEST SWAP1 PUSH1 0x0 MSTORE PUSH1 0x20 PUSH1 0x0 KECCAK256 ADD PUSH1 0x40 MLOAD PUSH2 0x330 SWAP2 SWAP1 PUSH2 0x13C7 JUMP JUMPDEST SWAP1 DUP2 MSTORE PUSH1 0x20 ADD PUSH1 0x40 MLOAD DUP1 SWAP2 SUB SWAP1 KECCAK256 PUSH1 0x2 ADD PUSH1 0x0 SWAP1 SLOAD SWAP1 PUSH2 0x100 EXP SWAP1 DIV PUSH1 0xFF AND ISZERO PUSH2 0x359 JUMPI PUSH1 0x1 SWAP2 POP JUMPDEST DUP2 PUSH2 0x399 JUMPI PUSH1 0x40 MLOAD PUSH32 0x8C379A000000000000000000000000000000000000000000000000000000000 DUP2 MSTORE PUSH1 0x4 ADD PUSH2 0x390 SWAP1 PUSH2 0x14E8 JUMP JUMPDEST PUSH1 0x40 MLOAD DUP1 SWAP2 SUB SWAP1 REVERT JUMPDEST JUMPDEST DUP1 DUP1 PUSH1 0x1 ADD SWAP2 POP POP PUSH2 0x28F JUMP JUMPDEST POP DUP2 PUSH2 0x3E8 JUMPI PUSH1 0x40 MLOAD PUSH32 0x8C379A000000000000000000000000000000000000000000000000000000000 DUP2 MSTORE PUSH1 0x4 ADD PUSH2 0x3DF SWAP1 PUSH2 0x14E8 JUMP JUMPDEST PUSH1 0x40 MLOAD DUP1 SWAP2 SUB SWAP1 REVERT JUMPDEST POP POP POP JUMP JUMPDEST PUSH1 0x60 DUP1 PUSH1 0x0 JUMPDEST PUSH1 0x4 DUP1 SLOAD SWAP1 POP DUP2 LT ISZERO PUSH2 0x492 JUMPI PUSH1 0x3 PUSH1 0x4 DUP3 DUP2 SLOAD DUP2 LT PUSH2 0x40F JUMPI INVALID JUMPDEST SWAP1 PUSH1 0x0 MSTORE PUSH1 0x20 PUSH1 0x0 KECCAK256 ADD PUSH1 0x40 MLOAD PUSH2 0x426 SWAP2 SWAP1 PUSH2 0x13C7 JUMP JUMPDEST SWAP1 DUP2 MSTORE PUSH1 0x20 ADD PUSH1 0x40 MLOAD DUP1 SWAP2 SUB SWAP1 KECCAK256 PUSH1 0x2 ADD PUSH1 0x0 SWAP1 SLOAD SWAP1 PUSH2 0x100 EXP SWAP1 DIV PUSH1 0xFF AND ISZERO PUSH2 0x485 JUMPI DUP2 PUSH1 0x4 DUP3 DUP2 SLOAD DUP2 LT PUSH2 0x458 JUMPI INVALID JUMPDEST SWAP1 PUSH1 0x0 MSTORE PUSH1 0x20 PUSH1 0x0 KECCAK256 ADD PUSH1 0x40 MLOAD PUSH1 0x20 ADD PUSH2 0x473 SWAP3 SWAP2 SWAP1 PUSH2 0x1398 JUMP JUMPDEST PUSH1 0x40 MLOAD PUSH1 0x20 DUP2 DUP4 SUB SUB DUP2 MSTORE SWAP1 PUSH1 0x40 MSTORE SWAP2 POP JUMPDEST DUP1 DUP1 PUSH1 0x1 ADD SWAP2 POP POP PUSH2 0x3F3 JUMP JUMPDEST POP DUP1 SWAP2 POP POP SWAP1 JUMP JUMPDEST CALLER PUSH1 0x1 PUSH1 0x0 SWAP1 SLOAD SWAP1 PUSH2 0x100 EXP SWAP1 DIV PUSH20 0xFFFFFFFFFFFFFFFFFFFFFFFFFFFFFFFFFFFFFFFF AND PUSH20 0xFFFFFFFFFFFFFFFFFFFFFFFFFFFFFFFFFFFFFFFF AND DUP2 PUSH20 0xFFFFFFFFFFFFFFFFFFFFFFFFFFFFFFFFFFFFFFFF AND EQ PUSH2 0x52B JUMPI PUSH1 0x40 MLOAD PUSH32 0x8C379A000000000000000000000000000000000000000000000000000000000 DUP2 MSTORE PUSH1 0x4 ADD PUSH2 0x522 SWAP1 PUSH2 0x1568 JUMP JUMPDEST PUSH1 0x40 MLOAD DUP1 SWAP2 SUB SWAP1 REVERT JUMPDEST PUSH1 0x40 MLOAD DUP1 PUSH1 0x60 ADD PUSH1 0x40 MSTORE DUP1 DUP5 DUP2 MSTORE PUSH1 0x20 ADD DUP4 DUP2 MSTORE PUSH1 0x20 ADD PUSH1 0x1 ISZERO ISZERO DUP2 MSTORE POP PUSH1 0x3 DUP5 PUSH1 0x40 MLOAD PUSH2 0x559 SWAP2 SWAP1 PUSH2 0x1381 JUMP JUMPDEST SWAP1 DUP2 MSTORE PUSH1 0x20 ADD PUSH1 0x40 MLOAD DUP1 SWAP2 SUB SWAP1 KECCAK256 PUSH1 0x0 DUP3 ADD MLOAD DUP2 PUSH1 0x0 ADD SWAP1 DUP1 MLOAD SWAP1 PUSH1 0x20 ADD SWAP1 PUSH2 0x583 SWAP3 SWAP2 SWAP1 PUSH2 0xDA8 JUMP JUMPDEST POP PUSH1 0x20 DUP3 ADD MLOAD DUP2 PUSH1 0x1 ADD SSTORE PUSH1 0x40 DUP3 ADD MLOAD DUP2 PUSH1 0x2 ADD PUSH1 0x0 PUSH2 0x100 EXP DUP2 SLOAD DUP2 PUSH1 0xFF MUL NOT AND SWAP1 DUP4 ISZERO ISZERO MUL OR SWAP1 SSTORE POP SWAP1 POP POP PUSH1 0x4 DUP4 SWAP1 DUP1 PUSH1 0x1 DUP2 SLOAD ADD DUP1 DUP3 SSTORE DUP1 SWAP2 POP POP PUSH1 0x1 SWAP1 SUB SWAP1 PUSH1 0x0 MSTORE PUSH1 0x20 PUSH1 0x0 KECCAK256 ADD PUSH1 0x0 SWAP1 SWAP2 SWAP1 SWAP2 SWAP1 SWAP2 POP SWAP1 DUP1 MLOAD SWAP1 PUSH1 0x20 ADD SWAP1 PUSH2 0x5EC SWAP3 SWAP2 SWAP1 PUSH2 0xDA8 JUMP JUMPDEST POP PUSH32 0xFC9ECD7A6C2CA96D38526A0B9CC22F2474FF8E596DD348EDAAB06BE905EBE378 DUP4 DUP4 PUSH1 0x40 MLOAD PUSH2 0x61E SWAP3 SWAP2 SWAP1 PUSH2 0x147A JUMP JUMPDEST PUSH1 0x40 MLOAD DUP1 SWAP2 SUB SWAP1 LOG1 POP POP POP JUMP JUMPDEST CALLER PUSH1 0x1 PUSH1 0x0 SWAP1 SLOAD SWAP1 PUSH2 0x100 EXP SWAP1 DIV PUSH20 0xFFFFFFFFFFFFFFFFFFFFFFFFFFFFFFFFFFFFFFFF AND PUSH20 0xFFFFFFFFFFFFFFFFFFFFFFFFFFFFFFFFFFFFFFFF AND DUP2 PUSH20 0xFFFFFFFFFFFFFFFFFFFFFFFFFFFFFFFFFFFFFFFF AND EQ PUSH2 0x6BC JUMPI PUSH1 0x40 MLOAD PUSH32 0x8C379A000000000000000000000000000000000000000000000000000000000 DUP2 MSTORE PUSH1 0x4 ADD PUSH2 0x6B3 SWAP1 PUSH2 0x1568 JUMP JUMPDEST PUSH1 0x40 MLOAD DUP1 SWAP2 SUB SWAP1 REVERT JUMPDEST PUSH1 0x0 DUP1 SLOAD SWAP1 PUSH2 0x100 EXP SWAP1 DIV PUSH20 0xFFFFFFFFFFFFFFFFFFFFFFFFFFFFFFFFFFFFFFFF AND PUSH20 0xFFFFFFFFFFFFFFFFFFFFFFFFFFFFFFFFFFFFFFFF AND PUSH4 0x1D43CC98 DUP4 PUSH1 0x40 MLOAD DUP3 PUSH4 0xFFFFFFFF AND PUSH1 0xE0 SHL DUP2 MSTORE PUSH1 0x4 ADD PUSH2 0x715 SWAP2 SWAP1 PUSH2 0x1588 JUMP JUMPDEST PUSH1 0x0 PUSH1 0x40 MLOAD DUP1 DUP4 SUB DUP2 PUSH1 0x0 DUP8 DUP1 EXTCODESIZE ISZERO DUP1 ISZERO PUSH2 0x72F JUMPI PUSH1 0x0 DUP1 REVERT JUMPDEST POP GAS CALL ISZERO DUP1 ISZERO PUSH2 0x743 JUMPI RETURNDATASIZE PUSH1 0x0 DUP1 RETURNDATACOPY RETURNDATASIZE PUSH1 0x0 REVERT JUMPDEST POP POP POP POP POP POP JUMP JUMPDEST PUSH1 0x1 PUSH1 0x0 SWAP1 SLOAD SWAP1 PUSH2 0x100 EXP SWAP1 DIV PUSH20 0xFFFFFFFFFFFFFFFFFFFFFFFFFFFFFFFFFFFFFFFF AND DUP2 JUMP JUMPDEST PUSH1 0x0 DUP1 PUSH1 0x0 SWAP1 SLOAD SWAP1 PUSH2 0x100 EXP SWAP1 DIV PUSH20 0xFFFFFFFFFFFFFFFFFFFFFFFFFFFFFFFFFFFFFFFF AND PUSH20 0xFFFFFFFFFFFFFFFFFFFFFFFFFFFFFFFFFFFFFFFF AND PUSH4 0x70A08231 ADDRESS PUSH1 0x40 MLOAD DUP3 PUSH4 0xFFFFFFFF AND PUSH1 0xE0 SHL DUP2 MSTORE PUSH1 0x4 ADD PUSH2 0x7CD SWAP2 SWAP1 PUSH2 0x13DE JUMP JUMPDEST PUSH1 0x20 PUSH1 0x40 MLOAD DUP1 DUP4 SUB DUP2 DUP7 DUP1 EXTCODESIZE ISZERO DUP1 ISZERO PUSH2 0x7E5 JUMPI PUSH1 0x0 DUP1 REVERT JUMPDEST POP GAS STATICCALL ISZERO DUP1 ISZERO PUSH2 0x7F9 JUMPI RETURNDATASIZE PUSH1 0x0 DUP1 RETURNDATACOPY RETURNDATASIZE PUSH1 0x0 REVERT JUMPDEST POP POP POP POP PUSH1 0x40 MLOAD RETURNDATASIZE PUSH1 0x1F NOT PUSH1 0x1F DUP3 ADD AND DUP3 ADD DUP1 PUSH1 0x40 MSTORE POP DUP2 ADD SWAP1 PUSH2 0x81D SWAP2 SWAP1 PUSH2 0xFFD JUMP JUMPDEST SWAP1 POP SWAP1 JUMP JUMPDEST CALLER PUSH1 0x1 PUSH1 0x0 SWAP1 SLOAD SWAP1 PUSH2 0x100 EXP SWAP1 DIV PUSH20 0xFFFFFFFFFFFFFFFFFFFFFFFFFFFFFFFFFFFFFFFF AND PUSH20 0xFFFFFFFFFFFFFFFFFFFFFFFFFFFFFFFFFFFFFFFF AND DUP2 PUSH20 0xFFFFFFFFFFFFFFFFFFFFFFFFFFFFFFFFFFFFFFFF AND EQ PUSH2 0x8B3 JUMPI PUSH1 0x40 MLOAD PUSH32 0x8C379A000000000000000000000000000000000000000000000000000000000 DUP2 MSTORE PUSH1 0x4 ADD PUSH2 0x8AA SWAP1 PUSH2 0x1568 JUMP JUMPDEST PUSH1 0x40 MLOAD DUP1 SWAP2 SUB SWAP1 REVERT JUMPDEST PUSH1 0x0 DUP1 JUMPDEST PUSH1 0x4 DUP1 SLOAD SWAP1 POP DUP2 LT ISZERO PUSH2 0x944 JUMPI DUP4 PUSH1 0x40 MLOAD PUSH1 0x20 ADD PUSH2 0x8D5 SWAP2 SWAP1 PUSH2 0x1381 JUMP JUMPDEST PUSH1 0x40 MLOAD PUSH1 0x20 DUP2 DUP4 SUB SUB DUP2 MSTORE SWAP1 PUSH1 0x40 MSTORE DUP1 MLOAD SWAP1 PUSH1 0x20 ADD KECCAK256 PUSH1 0x4 DUP3 DUP2 SLOAD DUP2 LT PUSH2 0x8F8 JUMPI INVALID JUMPDEST SWAP1 PUSH1 0x0 MSTORE PUSH1 0x20 PUSH1 0x0 KECCAK256 ADD PUSH1 0x40 MLOAD PUSH1 0x20 ADD PUSH2 0x912 SWAP2 SWAP1 PUSH2 0x13C7 JUMP JUMPDEST PUSH1 0x40 MLOAD PUSH1 0x20 DUP2 DUP4 SUB SUB DUP2 MSTORE SWAP1 PUSH1 0x40 MSTORE DUP1 MLOAD SWAP1 PUSH1 0x20 ADD KECCAK256 EQ ISZERO PUSH2 0x937 JUMPI PUSH1 0x1 SWAP2 POP PUSH2 0x944 JUMP JUMPDEST DUP1 DUP1 PUSH1 0x1 ADD SWAP2 POP POP PUSH2 0x8B7 JUMP JUMPDEST POP DUP1 PUSH2 0x985 JUMPI PUSH1 0x40 MLOAD PUSH32 0x8C379A000000000000000000000000000000000000000000000000000000000 DUP2 MSTORE PUSH1 0x4 ADD PUSH2 0x97C SWAP1 PUSH2 0x1508 JUMP JUMPDEST PUSH1 0x40 MLOAD DUP1 SWAP2 SUB SWAP1 REVERT JUMPDEST PUSH1 0x0 PUSH1 0x3 DUP5 PUSH1 0x40 MLOAD PUSH2 0x997 SWAP2 SWAP1 PUSH2 0x1381 JUMP JUMPDEST SWAP1 DUP2 MSTORE PUSH1 0x20 ADD PUSH1 0x40 MLOAD DUP1 SWAP2 SUB SWAP1 KECCAK256 PUSH1 0x2 ADD PUSH1 0x0 PUSH2 0x100 EXP DUP2 SLOAD DUP2 PUSH1 0xFF MUL NOT AND SWAP1 DUP4 ISZERO ISZERO MUL OR SWAP1 SSTORE POP PUSH32 0x24BA6C881728980191398DB8DCFD8ED4F6AEB1C08DF349D63F3B85075F3E86DD DUP4 PUSH1 0x40 MLOAD PUSH2 0x9EE SWAP2 SWAP1 PUSH2 0x1458 JUMP JUMPDEST PUSH1 0x40 MLOAD DUP1 SWAP2 SUB SWAP1 LOG1 POP POP POP JUMP JUMPDEST PUSH1 0x2 PUSH1 0x20 MSTORE DUP1 PUSH1 0x0 MSTORE PUSH1 0x40 PUSH1 0x0 KECCAK256 PUSH1 0x0 SWAP2 POP SWAP1 POP DUP1 PUSH1 0x0 ADD SLOAD SWAP1 POP DUP2 JUMP JUMPDEST PUSH1 0x3 DUP2 DUP1 MLOAD PUSH1 0x20 DUP2 ADD DUP3 ADD DUP1 MLOAD DUP5 DUP3 MSTORE PUSH1 0x20 DUP4 ADD PUSH1 0x20 DUP6 ADD KECCAK256 DUP2 DUP4 MSTORE DUP1 SWAP6 POP POP POP POP POP POP PUSH1 0x0 SWAP2 POP SWAP1 POP DUP1 PUSH1 0x0 ADD DUP1 SLOAD PUSH1 0x1 DUP2 PUSH1 0x1 AND ISZERO PUSH2 0x100 MUL SUB AND PUSH1 0x2 SWAP1 DIV DUP1 PUSH1 0x1F ADD PUSH1 0x20 DUP1 SWAP2 DIV MUL PUSH1 0x20 ADD PUSH1 0x40 MLOAD SWAP1 DUP2 ADD PUSH1 0x40 MSTORE DUP1 SWAP3 SWAP2 SWAP1 DUP2 DUP2 MSTORE PUSH1 0x20 ADD DUP3 DUP1 SLOAD PUSH1 0x1 DUP2 PUSH1 0x1 AND ISZERO PUSH2 0x100 MUL SUB AND PUSH1 0x2 SWAP1 DIV DUP1 ISZERO PUSH2 0xADB JUMPI DUP1 PUSH1 0x1F LT PUSH2 0xAB0 JUMPI PUSH2 0x100 DUP1 DUP4 SLOAD DIV MUL DUP4 MSTORE SWAP2 PUSH1 0x20 ADD SWAP2 PUSH2 0xADB JUMP JUMPDEST DUP3 ADD SWAP2 SWAP1 PUSH1 0x0 MSTORE PUSH1 0x20 PUSH1 0x0 KECCAK256 SWAP1 JUMPDEST DUP2 SLOAD DUP2 MSTORE SWAP1 PUSH1 0x1 ADD SWAP1 PUSH1 0x20 ADD DUP1 DUP4 GT PUSH2 0xABE JUMPI DUP3 SWAP1 SUB PUSH1 0x1F AND DUP3 ADD SWAP2 JUMPDEST POP POP POP POP POP SWAP1 DUP1 PUSH1 0x1 ADD SLOAD SWAP1 DUP1 PUSH1 0x2 ADD PUSH1 0x0 SWAP1 SLOAD SWAP1 PUSH2 0x100 EXP SWAP1 DIV PUSH1 0xFF AND SWAP1 POP DUP4 JUMP JUMPDEST PUSH1 0x0 DUP1 PUSH1 0x0 SWAP1 SLOAD SWAP1 PUSH2 0x100 EXP SWAP1 DIV PUSH20 0xFFFFFFFFFFFFFFFFFFFFFFFFFFFFFFFFFFFFFFFF AND PUSH20 0xFFFFFFFFFFFFFFFFFFFFFFFFFFFFFFFFFFFFFFFF AND PUSH4 0x70A08231 CALLER PUSH1 0x40 MLOAD DUP3 PUSH4 0xFFFFFFFF AND PUSH1 0xE0 SHL DUP2 MSTORE PUSH1 0x4 ADD PUSH2 0xB5A SWAP2 SWAP1 PUSH2 0x13F9 JUMP JUMPDEST PUSH1 0x20 PUSH1 0x40 MLOAD DUP1 DUP4 SUB DUP2 DUP7 DUP1 EXTCODESIZE ISZERO DUP1 ISZERO PUSH2 0xB72 JUMPI PUSH1 0x0 DUP1 REVERT JUMPDEST POP GAS STATICCALL ISZERO DUP1 ISZERO PUSH2 0xB86 JUMPI RETURNDATASIZE PUSH1 0x0 DUP1 RETURNDATACOPY RETURNDATASIZE PUSH1 0x0 REVERT JUMPDEST POP POP POP POP PUSH1 0x40 MLOAD RETURNDATASIZE PUSH1 0x1F NOT PUSH1 0x1F DUP3 ADD AND DUP3 ADD DUP1 PUSH1 0x40 MSTORE POP DUP2 ADD SWAP1 PUSH2 0xBAA SWAP2 SWAP1 PUSH2 0xFFD JUMP JUMPDEST SWAP1 POP SWAP1 JUMP JUMPDEST PUSH1 0x0 PUSH2 0xBBA DUP3 PUSH2 0xD94 JUMP JUMPDEST SWAP1 POP DUP1 CALLVALUE LT ISZERO PUSH2 0xBFF JUMPI PUSH1 0x40 MLOAD PUSH32 0x8C379A000000000000000000000000000000000000000000000000000000000 DUP2 MSTORE PUSH1 0x4 ADD PUSH2 0xBF6 SWAP1 PUSH2 0x1528 JUMP JUMPDEST PUSH1 0x40 MLOAD DUP1 SWAP2 SUB SWAP1 REVERT JUMPDEST DUP2 PUSH2 0xC08 PUSH2 0x771 JUMP JUMPDEST LT ISZERO PUSH2 0xC49 JUMPI PUSH1 0x40 MLOAD PUSH32 0x8C379A000000000000000000000000000000000000000000000000000000000 DUP2 MSTORE PUSH1 0x4 ADD PUSH2 0xC40 SWAP1 PUSH2 0x1548 JUMP JUMPDEST PUSH1 0x40 MLOAD DUP1 SWAP2 SUB SWAP1 REVERT JUMPDEST CALLER PUSH20 0xFFFFFFFFFFFFFFFFFFFFFFFFFFFFFFFFFFFFFFFF AND PUSH2 0x8FC DUP3 CALLVALUE SUB SWAP1 DUP2 ISZERO MUL SWAP1 PUSH1 0x40 MLOAD PUSH1 0x0 PUSH1 0x40 MLOAD DUP1 DUP4 SUB DUP2 DUP6 DUP9 DUP9 CALL SWAP4 POP POP POP POP ISZERO DUP1 ISZERO PUSH2 0xC91 JUMPI RETURNDATASIZE PUSH1 0x0 DUP1 RETURNDATACOPY RETURNDATASIZE PUSH1 0x0 REVERT JUMPDEST POP PUSH1 0x0 DUP1 SLOAD SWAP1 PUSH2 0x100 EXP SWAP1 DIV PUSH20 0xFFFFFFFFFFFFFFFFFFFFFFFFFFFFFFFFFFFFFFFF AND PUSH20 0xFFFFFFFFFFFFFFFFFFFFFFFFFFFFFFFFFFFFFFFF AND PUSH4 0xA9059CBB CALLER DUP5 PUSH1 0x40 MLOAD DUP4 PUSH4 0xFFFFFFFF AND PUSH1 0xE0 SHL DUP2 MSTORE PUSH1 0x4 ADD PUSH2 0xCED SWAP3 SWAP2 SWAP1 PUSH2 0x142F JUMP JUMPDEST PUSH1 0x20 PUSH1 0x40 MLOAD DUP1 DUP4 SUB DUP2 PUSH1 0x0 DUP8 DUP1 EXTCODESIZE ISZERO DUP1 ISZERO PUSH2 0xD07 JUMPI PUSH1 0x0 DUP1 REVERT JUMPDEST POP GAS CALL ISZERO DUP1 ISZERO PUSH2 0xD1B JUMPI RETURNDATASIZE PUSH1 0x0 DUP1 RETURNDATACOPY RETURNDATASIZE PUSH1 0x0 REVERT JUMPDEST POP POP POP POP PUSH1 0x40 MLOAD RETURNDATASIZE PUSH1 0x1F NOT PUSH1 0x1F DUP3 ADD AND DUP3 ADD DUP1 PUSH1 0x40 MSTORE POP DUP2 ADD SWAP1 PUSH2 0xD3F SWAP2 SWAP1 PUSH2 0xF16 JUMP JUMPDEST POP DUP2 PUSH1 0x2 PUSH1 0x0 CALLER PUSH20 0xFFFFFFFFFFFFFFFFFFFFFFFFFFFFFFFFFFFFFFFF AND PUSH20 0xFFFFFFFFFFFFFFFFFFFFFFFFFFFFFFFFFFFFFFFF AND DUP2 MSTORE PUSH1 0x20 ADD SWAP1 DUP2 MSTORE PUSH1 0x20 ADD PUSH1 0x0 KECCAK256 PUSH1 0x0 ADD PUSH1 0x0 DUP3 DUP3 SLOAD ADD SWAP3 POP POP DUP2 SWAP1 SSTORE POP POP POP JUMP JUMPDEST PUSH1 0x0 PUSH8 0xDE0B6B3A7640000 DUP3 MUL SWAP1 POP SWAP2 SWAP1 POP JUMP JUMPDEST DUP3 DUP1 SLOAD PUSH1 0x1 DUP2 PUSH1 0x1 AND ISZERO PUSH2 0x100 MUL SUB AND PUSH1 0x2 SWAP1 DIV SWAP1 PUSH1 0x0 MSTORE PUSH1 0x20 PUSH1 0x0 KECCAK256 SWAP1 PUSH1 0x1F ADD PUSH1 0x20 SWAP1 DIV DUP2 ADD SWAP3 DUP3 PUSH1 0x1F LT PUSH2 0xDE9 JUMPI DUP1 MLOAD PUSH1 0xFF NOT AND DUP4 DUP1 ADD OR DUP6 SSTORE PUSH2 0xE17 JUMP JUMPDEST DUP3 DUP1 ADD PUSH1 0x1 ADD DUP6 SSTORE DUP3 ISZERO PUSH2 0xE17 JUMPI SWAP2 DUP3 ADD JUMPDEST DUP3 DUP2 GT ISZERO PUSH2 0xE16 JUMPI DUP3 MLOAD DUP3 SSTORE SWAP2 PUSH1 0x20 ADD SWAP2 SWAP1 PUSH1 0x1 ADD SWAP1 PUSH2 0xDFB JUMP JUMPDEST JUMPDEST POP SWAP1 POP PUSH2 0xE24 SWAP2 SWAP1 PUSH2 0xE28 JUMP JUMPDEST POP SWAP1 JUMP JUMPDEST JUMPDEST DUP1 DUP3 GT ISZERO PUSH2 0xE41 JUMPI PUSH1 0x0 DUP2 PUSH1 0x0 SWAP1 SSTORE POP PUSH1 0x1 ADD PUSH2 0xE29 JUMP JUMPDEST POP SWAP1 JUMP JUMPDEST PUSH1 0x0 DUP2 CALLDATALOAD SWAP1 POP PUSH2 0xE54 DUP2 PUSH2 0x171B JUMP JUMPDEST SWAP3 SWAP2 POP POP JUMP JUMPDEST PUSH1 0x0 DUP2 MLOAD SWAP1 POP PUSH2 0xE69 DUP2 PUSH2 0x1732 JUMP JUMPDEST SWAP3 SWAP2 POP POP JUMP JUMPDEST PUSH1 0x0 DUP3 PUSH1 0x1F DUP4 ADD SLT PUSH2 0xE80 JUMPI PUSH1 0x0 DUP1 REVERT JUMPDEST DUP2 CALLDATALOAD PUSH2 0xE93 PUSH2 0xE8E DUP3 PUSH2 0x15D0 JUMP JUMPDEST PUSH2 0x15A3 JUMP JUMPDEST SWAP2 POP DUP1 DUP3 MSTORE PUSH1 0x20 DUP4 ADD PUSH1 0x20 DUP4 ADD DUP6 DUP4 DUP4 ADD GT ISZERO PUSH2 0xEAF JUMPI PUSH1 0x0 DUP1 REVERT JUMPDEST PUSH2 0xEBA DUP4 DUP3 DUP5 PUSH2 0x16C8 JUMP JUMPDEST POP POP POP SWAP3 SWAP2 POP POP JUMP JUMPDEST PUSH1 0x0 DUP2 CALLDATALOAD SWAP1 POP PUSH2 0xED2 DUP2 PUSH2 0x1749 JUMP JUMPDEST SWAP3 SWAP2 POP POP JUMP JUMPDEST PUSH1 0x0 DUP2 MLOAD SWAP1 POP PUSH2 0xEE7 DUP2 PUSH2 0x1749 JUMP JUMPDEST SWAP3 SWAP2 POP POP JUMP JUMPDEST PUSH1 0x0 PUSH1 0x20 DUP3 DUP5 SUB SLT ISZERO PUSH2 0xEFF JUMPI PUSH1 0x0 DUP1 REVERT JUMPDEST PUSH1 0x0 PUSH2 0xF0D DUP5 DUP3 DUP6 ADD PUSH2 0xE45 JUMP JUMPDEST SWAP2 POP POP SWAP3 SWAP2 POP POP JUMP JUMPDEST PUSH1 0x0 PUSH1 0x20 DUP3 DUP5 SUB SLT ISZERO PUSH2 0xF28 JUMPI PUSH1 0x0 DUP1 REVERT JUMPDEST PUSH1 0x0 PUSH2 0xF36 DUP5 DUP3 DUP6 ADD PUSH2 0xE5A JUMP JUMPDEST SWAP2 POP POP SWAP3 SWAP2 POP POP JUMP JUMPDEST PUSH1 0x0 PUSH1 0x20 DUP3 DUP5 SUB SLT ISZERO PUSH2 0xF51 JUMPI PUSH1 0x0 DUP1 REVERT JUMPDEST PUSH1 0x0 DUP3 ADD CALLDATALOAD PUSH8 0xFFFFFFFFFFFFFFFF DUP2 GT ISZERO PUSH2 0xF6B JUMPI PUSH1 0x0 DUP1 REVERT JUMPDEST PUSH2 0xF77 DUP5 DUP3 DUP6 ADD PUSH2 0xE6F JUMP JUMPDEST SWAP2 POP POP SWAP3 SWAP2 POP POP JUMP JUMPDEST PUSH1 0x0 DUP1 PUSH1 0x40 DUP4 DUP6 SUB SLT ISZERO PUSH2 0xF93 JUMPI PUSH1 0x0 DUP1 REVERT JUMPDEST PUSH1 0x0 DUP4 ADD CALLDATALOAD PUSH8 0xFFFFFFFFFFFFFFFF DUP2 GT ISZERO PUSH2 0xFAD JUMPI PUSH1 0x0 DUP1 REVERT JUMPDEST PUSH2 0xFB9 DUP6 DUP3 DUP7 ADD PUSH2 0xE6F JUMP JUMPDEST SWAP3 POP POP PUSH1 0x20 PUSH2 0xFCA DUP6 DUP3 DUP7 ADD PUSH2 0xEC3 JUMP JUMPDEST SWAP2 POP POP SWAP3 POP SWAP3 SWAP1 POP JUMP JUMPDEST PUSH1 0x0 PUSH1 0x20 DUP3 DUP5 SUB SLT ISZERO PUSH2 0xFE6 JUMPI PUSH1 0x0 DUP1 REVERT JUMPDEST PUSH1 0x0 PUSH2 0xFF4 DUP5 DUP3 DUP6 ADD PUSH2 0xEC3 JUMP JUMPDEST SWAP2 POP POP SWAP3 SWAP2 POP POP JUMP JUMPDEST PUSH1 0x0 PUSH1 0x20 DUP3 DUP5 SUB SLT ISZERO PUSH2 0x100F JUMPI PUSH1 0x0 DUP1 REVERT JUMPDEST PUSH1 0x0 PUSH2 0x101D DUP5 DUP3 DUP6 ADD PUSH2 0xED8 JUMP JUMPDEST SWAP2 POP POP SWAP3 SWAP2 POP POP JUMP JUMPDEST PUSH2 0x102F DUP2 PUSH2 0x1692 JUMP JUMPDEST DUP3 MSTORE POP POP JUMP JUMPDEST PUSH2 0x103E DUP2 PUSH2 0x164A JUMP JUMPDEST DUP3 MSTORE POP POP JUMP JUMPDEST PUSH2 0x104D DUP2 PUSH2 0x1638 JUMP JUMPDEST DUP3 MSTORE POP POP JUMP JUMPDEST PUSH2 0x105C DUP2 PUSH2 0x165C JUMP JUMPDEST DUP3 MSTORE POP POP JUMP JUMPDEST PUSH1 0x0 PUSH2 0x106D DUP3 PUSH2 0x1611 JUMP JUMPDEST PUSH2 0x1077 DUP2 DUP6 PUSH2 0x161C JUMP JUMPDEST SWAP4 POP PUSH2 0x1087 DUP2 DUP6 PUSH1 0x20 DUP7 ADD PUSH2 0x16D7 JUMP JUMPDEST PUSH2 0x1090 DUP2 PUSH2 0x170A JUMP JUMPDEST DUP5 ADD SWAP2 POP POP SWAP3 SWAP2 POP POP JUMP JUMPDEST PUSH1 0x0 PUSH2 0x10A6 DUP3 PUSH2 0x1611 JUMP JUMPDEST PUSH2 0x10B0 DUP2 DUP6 PUSH2 0x162D JUMP JUMPDEST SWAP4 POP PUSH2 0x10C0 DUP2 DUP6 PUSH1 0x20 DUP7 ADD PUSH2 0x16D7 JUMP JUMPDEST DUP1 DUP5 ADD SWAP2 POP POP SWAP3 SWAP2 POP POP JUMP JUMPDEST PUSH1 0x0 DUP2 SLOAD PUSH1 0x1 DUP2 AND PUSH1 0x0 DUP2 EQ PUSH2 0x10E9 JUMPI PUSH1 0x1 DUP2 EQ PUSH2 0x110E JUMPI PUSH2 0x1152 JUMP JUMPDEST PUSH1 0x7F PUSH1 0x2 DUP4 DIV AND PUSH2 0x10FA DUP2 DUP8 PUSH2 0x162D JUMP JUMPDEST SWAP6 POP PUSH1 0xFF NOT DUP4 AND DUP7 MSTORE DUP1 DUP7 ADD SWAP4 POP POP PUSH2 0x1152 JUMP JUMPDEST PUSH1 0x2 DUP3 DIV PUSH2 0x111C DUP2 DUP8 PUSH2 0x162D JUMP JUMPDEST SWAP6 POP PUSH2 0x1127 DUP6 PUSH2 0x15FC JUMP JUMPDEST PUSH1 0x0 JUMPDEST DUP3 DUP2 LT ISZERO PUSH2 0x1149 JUMPI DUP2 SLOAD DUP2 DUP10 ADD MSTORE PUSH1 0x1 DUP3 ADD SWAP2 POP PUSH1 0x20 DUP2 ADD SWAP1 POP PUSH2 0x112A JUMP JUMPDEST DUP3 DUP9 ADD SWAP6 POP POP POP POP JUMPDEST POP POP SWAP3 SWAP2 POP POP JUMP JUMPDEST PUSH1 0x0 PUSH2 0x1167 PUSH1 0x23 DUP4 PUSH2 0x161C JUMP JUMPDEST SWAP2 POP PUSH32 0x4C6120617472616363696F6E20656E20637565737469C3B36E206E6F20657869 PUSH1 0x0 DUP4 ADD MSTORE PUSH32 0x7374650000000000000000000000000000000000000000000000000000000000 PUSH1 0x20 DUP4 ADD MSTORE PUSH1 0x40 DUP3 ADD SWAP1 POP SWAP2 SWAP1 POP JUMP JUMPDEST PUSH1 0x0 PUSH2 0x11CD PUSH1 0x51 DUP4 PUSH2 0x161C JUMP JUMPDEST SWAP2 POP PUSH32 0x4E6F207365207075656465206461722064652062616A61206120756E61206174 PUSH1 0x0 DUP4 ADD MSTORE PUSH32 0x72616363696F6E20717565206E6F2068617961207369646F2064616461206465 PUSH1 0x20 DUP4 ADD MSTORE PUSH32 0x20616C7461207072657669616D656E7465000000000000000000000000000000 PUSH1 0x40 DUP4 ADD MSTORE PUSH1 0x60 DUP3 ADD SWAP1 POP SWAP2 SWAP1 POP JUMP JUMPDEST PUSH1 0x0 PUSH2 0x1259 PUSH1 0x3 DUP4 PUSH2 0x162D JUMP JUMPDEST SWAP2 POP PUSH32 0x207C200000000000000000000000000000000000000000000000000000000000 PUSH1 0x0 DUP4 ADD MSTORE PUSH1 0x3 DUP3 ADD SWAP1 POP SWAP2 SWAP1 POP JUMP JUMPDEST PUSH1 0x0 PUSH2 0x1299 PUSH1 0x1E DUP4 PUSH2 0x161C JUMP JUMPDEST SWAP2 POP PUSH32 0x43616E746964616420646520657468657220696E737566696369656E74650000 PUSH1 0x0 DUP4 ADD MSTORE PUSH1 0x20 DUP3 ADD SWAP1 POP SWAP2 SWAP1 POP JUMP JUMPDEST PUSH1 0x0 PUSH2 0x12D9 PUSH1 0x20 DUP4 PUSH2 0x161C JUMP JUMPDEST SWAP2 POP PUSH32 0x43616E746964616420646520746F6B656E7320696E737566696369656E746573 PUSH1 0x0 DUP4 ADD MSTORE PUSH1 0x20 DUP3 ADD SWAP1 POP SWAP2 SWAP1 POP JUMP JUMPDEST PUSH1 0x0 PUSH2 0x1319 PUSH1 0x2C DUP4 PUSH2 0x161C JUMP JUMPDEST SWAP2 POP PUSH32 0x4E6F207469656E6573207065726D69736F207061726120656A65637574617220 PUSH1 0x0 DUP4 ADD MSTORE PUSH32 0x657374612061636369C3B36E0000000000000000000000000000000000000000 PUSH1 0x20 DUP4 ADD MSTORE PUSH1 0x40 DUP3 ADD SWAP1 POP SWAP2 SWAP1 POP JUMP JUMPDEST PUSH2 0x137B DUP2 PUSH2 0x1688 JUMP JUMPDEST DUP3 MSTORE POP POP JUMP JUMPDEST PUSH1 0x0 PUSH2 0x138D DUP3 DUP5 PUSH2 0x109B JUMP JUMPDEST SWAP2 POP DUP2 SWAP1 POP SWAP3 SWAP2 POP POP JUMP JUMPDEST PUSH1 0x0 PUSH2 0x13A4 DUP3 DUP6 PUSH2 0x109B JUMP JUMPDEST SWAP2 POP PUSH2 0x13AF DUP3 PUSH2 0x124C JUMP JUMPDEST SWAP2 POP PUSH2 0x13BB DUP3 DUP5 PUSH2 0x10CC JUMP JUMPDEST SWAP2 POP DUP2 SWAP1 POP SWAP4 SWAP3 POP POP POP JUMP JUMPDEST PUSH1 0x0 PUSH2 0x13D3 DUP3 DUP5 PUSH2 0x10CC JUMP JUMPDEST SWAP2 POP DUP2 SWAP1 POP SWAP3 SWAP2 POP POP JUMP JUMPDEST PUSH1 0x0 PUSH1 0x20 DUP3 ADD SWAP1 POP PUSH2 0x13F3 PUSH1 0x0 DUP4 ADD DUP5 PUSH2 0x1044 JUMP JUMPDEST SWAP3 SWAP2 POP POP JUMP JUMPDEST PUSH1 0x0 PUSH1 0x20 DUP3 ADD SWAP1 POP PUSH2 0x140E PUSH1 0x0 DUP4 ADD DUP5 PUSH2 0x1026 JUMP JUMPDEST SWAP3 SWAP2 POP POP JUMP JUMPDEST PUSH1 0x0 PUSH1 0x20 DUP3 ADD SWAP1 POP PUSH2 0x1429 PUSH1 0x0 DUP4 ADD DUP5 PUSH2 0x1035 JUMP JUMPDEST SWAP3 SWAP2 POP POP JUMP JUMPDEST PUSH1 0x0 PUSH1 0x40 DUP3 ADD SWAP1 POP PUSH2 0x1444 PUSH1 0x0 DUP4 ADD DUP6 PUSH2 0x1026 JUMP JUMPDEST PUSH2 0x1451 PUSH1 0x20 DUP4 ADD DUP5 PUSH2 0x1372 JUMP JUMPDEST SWAP4 SWAP3 POP POP POP JUMP JUMPDEST PUSH1 0x0 PUSH1 0x20 DUP3 ADD SWAP1 POP DUP2 DUP2 SUB PUSH1 0x0 DUP4 ADD MSTORE PUSH2 0x1472 DUP2 DUP5 PUSH2 0x1062 JUMP JUMPDEST SWAP1 POP SWAP3 SWAP2 POP POP JUMP JUMPDEST PUSH1 0x0 PUSH1 0x40 DUP3 ADD SWAP1 POP DUP2 DUP2 SUB PUSH1 0x0 DUP4 ADD MSTORE PUSH2 0x1494 DUP2 DUP6 PUSH2 0x1062 JUMP JUMPDEST SWAP1 POP PUSH2 0x14A3 PUSH1 0x20 DUP4 ADD DUP5 PUSH2 0x1372 JUMP JUMPDEST SWAP4 SWAP3 POP POP POP JUMP JUMPDEST PUSH1 0x0 PUSH1 0x60 DUP3 ADD SWAP1 POP DUP2 DUP2 SUB PUSH1 0x0 DUP4 ADD MSTORE PUSH2 0x14C4 DUP2 DUP7 PUSH2 0x1062 JUMP JUMPDEST SWAP1 POP PUSH2 0x14D3 PUSH1 0x20 DUP4 ADD DUP6 PUSH2 0x1372 JUMP JUMPDEST PUSH2 0x14E0 PUSH1 0x40 DUP4 ADD DUP5 PUSH2 0x1053 JUMP JUMPDEST SWAP5 SWAP4 POP POP POP POP JUMP JUMPDEST PUSH1 0x0 PUSH1 0x20 DUP3 ADD SWAP1 POP DUP2 DUP2 SUB PUSH1 0x0 DUP4 ADD MSTORE PUSH2 0x1501 DUP2 PUSH2 0x115A JUMP JUMPDEST SWAP1 POP SWAP2 SWAP1 POP JUMP JUMPDEST PUSH1 0x0 PUSH1 0x20 DUP3 ADD SWAP1 POP DUP2 DUP2 SUB PUSH1 0x0 DUP4 ADD MSTORE PUSH2 0x1521 DUP2 PUSH2 0x11C0 JUMP JUMPDEST SWAP1 POP SWAP2 SWAP1 POP JUMP JUMPDEST PUSH1 0x0 PUSH1 0x20 DUP3 ADD SWAP1 POP DUP2 DUP2 SUB PUSH1 0x0 DUP4 ADD MSTORE PUSH2 0x1541 DUP2 PUSH2 0x128C JUMP JUMPDEST SWAP1 POP SWAP2 SWAP1 POP JUMP JUMPDEST PUSH1 0x0 PUSH1 0x20 DUP3 ADD SWAP1 POP DUP2 DUP2 SUB PUSH1 0x0 DUP4 ADD MSTORE PUSH2 0x1561 DUP2 PUSH2 0x12CC JUMP JUMPDEST SWAP1 POP SWAP2 SWAP1 POP JUMP JUMPDEST PUSH1 0x0 PUSH1 0x20 DUP3 ADD SWAP1 POP DUP2 DUP2 SUB PUSH1 0x0 DUP4 ADD MSTORE PUSH2 0x1581 DUP2 PUSH2 0x130C JUMP JUMPDEST SWAP1 POP SWAP2 SWAP1 POP JUMP JUMPDEST PUSH1 0x0 PUSH1 0x20 DUP3 ADD SWAP1 POP PUSH2 0x159D PUSH1 0x0 DUP4 ADD DUP5 PUSH2 0x1372 JUMP JUMPDEST SWAP3 SWAP2 POP POP JUMP JUMPDEST PUSH1 0x0 PUSH1 0x40 MLOAD SWAP1 POP DUP2 DUP2 ADD DUP2 DUP2 LT PUSH8 0xFFFFFFFFFFFFFFFF DUP3 GT OR ISZERO PUSH2 0x15C6 JUMPI PUSH1 0x0 DUP1 REVERT JUMPDEST DUP1 PUSH1 0x40 MSTORE POP SWAP2 SWAP1 POP JUMP JUMPDEST PUSH1 0x0 PUSH8 0xFFFFFFFFFFFFFFFF DUP3 GT ISZERO PUSH2 0x15E7 JUMPI PUSH1 0x0 DUP1 REVERT JUMPDEST PUSH1 0x1F NOT PUSH1 0x1F DUP4 ADD AND SWAP1 POP PUSH1 0x20 DUP2 ADD SWAP1 POP SWAP2 SWAP1 POP JUMP JUMPDEST PUSH1 0x0 DUP2 SWAP1 POP DUP2 PUSH1 0x0 MSTORE PUSH1 0x20 PUSH1 0x0 KECCAK256 SWAP1 POP SWAP2 SWAP1 POP JUMP JUMPDEST PUSH1 0x0 DUP2 MLOAD SWAP1 POP SWAP2 SWAP1 POP JUMP JUMPDEST PUSH1 0x0 DUP3 DUP3 MSTORE PUSH1 0x20 DUP3 ADD SWAP1 POP SWAP3 SWAP2 POP POP JUMP JUMPDEST PUSH1 0x0 DUP2 SWAP1 POP SWAP3 SWAP2 POP POP JUMP JUMPDEST PUSH1 0x0 PUSH2 0x1643 DUP3 PUSH2 0x1668 JUMP JUMPDEST SWAP1 POP SWAP2 SWAP1 POP JUMP JUMPDEST PUSH1 0x0 PUSH2 0x1655 DUP3 PUSH2 0x1668 JUMP JUMPDEST SWAP1 POP SWAP2 SWAP1 POP JUMP JUMPDEST PUSH1 0x0 DUP2 ISZERO ISZERO SWAP1 POP SWAP2 SWAP1 POP JUMP JUMPDEST PUSH1 0x0 PUSH20 0xFFFFFFFFFFFFFFFFFFFFFFFFFFFFFFFFFFFFFFFF DUP3 AND SWAP1 POP SWAP2 SWAP1 POP JUMP JUMPDEST PUSH1 0x0 DUP2 SWAP1 POP SWAP2 SWAP1 POP JUMP JUMPDEST PUSH1 0x0 PUSH2 0x169D DUP3 PUSH2 0x16A4 JUMP JUMPDEST SWAP1 POP SWAP2 SWAP1 POP JUMP JUMPDEST PUSH1 0x0 PUSH2 0x16AF DUP3 PUSH2 0x16B6 JUMP JUMPDEST SWAP1 POP SWAP2 SWAP1 POP JUMP JUMPDEST PUSH1 0x0 PUSH2 0x16C1 DUP3 PUSH2 0x1668 JUMP JUMPDEST SWAP1 POP SWAP2 SWAP1 POP JUMP JUMPDEST DUP3 DUP2 DUP4 CALLDATACOPY PUSH1 0x0 DUP4 DUP4 ADD MSTORE POP POP POP JUMP JUMPDEST PUSH1 0x0 JUMPDEST DUP4 DUP2 LT ISZERO PUSH2 0x16F5 JUMPI DUP1 DUP3 ADD MLOAD DUP2 DUP5 ADD MSTORE PUSH1 0x20 DUP2 ADD SWAP1 POP PUSH2 0x16DA JUMP JUMPDEST DUP4 DUP2 GT ISZERO PUSH2 0x1704 JUMPI PUSH1 0x0 DUP5 DUP5 ADD MSTORE JUMPDEST POP POP POP POP JUMP JUMPDEST PUSH1 0x0 PUSH1 0x1F NOT PUSH1 0x1F DUP4 ADD AND SWAP1 POP SWAP2 SWAP1 POP JUMP JUMPDEST PUSH2 0x1724 DUP2 PUSH2 0x1638 JUMP JUMPDEST DUP2 EQ PUSH2 0x172F JUMPI PUSH1 0x0 DUP1 REVERT JUMPDEST POP JUMP JUMPDEST PUSH2 0x173B DUP2 PUSH2 0x165C JUMP JUMPDEST DUP2 EQ PUSH2 0x1746 JUMPI PUSH1 0x0 DUP1 REVERT JUMPDEST POP JUMP JUMPDEST PUSH2 0x1752 DUP2 PUSH2 0x1688 JUMP JUMPDEST DUP2 EQ PUSH2 0x175D JUMPI PUSH1 0x0 DUP1 REVERT JUMPDEST POP JUMP INVALID LOG2 PUSH5 0x6970667358 0x22 SLT KECCAK256 PUSH6 0xFDEAE73DA321 CODECOPY 0xB1 SMOD PUSH3 0x614DEC 0x2A 0x21 0xD DUP9 0x21 0xB0 0xFB 0xA5 STATICCALL LOG1 MSIZE 0xE6 0x2C 0x5F 0x21 0xBD COINBASE 0xF8 PUSH5 0x736F6C6343 STOP MOD 0xC STOP CALLER PUSH1 0x80 PUSH1 0x40 MSTORE CALLVALUE DUP1 ISZERO PUSH2 0x10 JUMPI PUSH1 0x0 DUP1 REVERT JUMPDEST POP PUSH1 0x40 MLOAD PUSH2 0xE7F CODESIZE SUB DUP1 PUSH2 0xE7F DUP4 CODECOPY DUP2 DUP2 ADD PUSH1 0x40 MSTORE DUP2 ADD SWAP1 PUSH2 0x32 SWAP2 SWAP1 PUSH2 0x99 JUMP JUMPDEST DUP1 PUSH1 0x2 DUP2 SWAP1 SSTORE POP PUSH1 0x2 SLOAD PUSH1 0x0 DUP1 CALLER PUSH20 0xFFFFFFFFFFFFFFFFFFFFFFFFFFFFFFFFFFFFFFFF AND PUSH20 0xFFFFFFFFFFFFFFFFFFFFFFFFFFFFFFFFFFFFFFFF AND DUP2 MSTORE PUSH1 0x20 ADD SWAP1 DUP2 MSTORE PUSH1 0x20 ADD PUSH1 0x0 KECCAK256 DUP2 SWAP1 SSTORE POP POP PUSH2 0xE3 JUMP JUMPDEST PUSH1 0x0 DUP2 MLOAD SWAP1 POP PUSH2 0x93 DUP2 PUSH2 0xCC JUMP JUMPDEST SWAP3 SWAP2 POP POP JUMP JUMPDEST PUSH1 0x0 PUSH1 0x20 DUP3 DUP5 SUB SLT ISZERO PUSH2 0xAB JUMPI PUSH1 0x0 DUP1 REVERT JUMPDEST PUSH1 0x0 PUSH2 0xB9 DUP5 DUP3 DUP6 ADD PUSH2 0x84 JUMP JUMPDEST SWAP2 POP POP SWAP3 SWAP2 POP POP JUMP JUMPDEST PUSH1 0x0 DUP2 SWAP1 POP SWAP2 SWAP1 POP JUMP JUMPDEST PUSH2 0xD5 DUP2 PUSH2 0xC2 JUMP JUMPDEST DUP2 EQ PUSH2 0xE0 JUMPI PUSH1 0x0 DUP1 REVERT JUMPDEST POP JUMP JUMPDEST PUSH2 0xD8D DUP1 PUSH2 0xF2 PUSH1 0x0 CODECOPY PUSH1 0x0 RETURN INVALID PUSH1 0x80 PUSH1 0x40 MSTORE CALLVALUE DUP1 ISZERO PUSH2 0x10 JUMPI PUSH1 0x0 DUP1 REVERT JUMPDEST POP PUSH1 0x4 CALLDATASIZE LT PUSH2 0x9E JUMPI PUSH1 0x0 CALLDATALOAD PUSH1 0xE0 SHR DUP1 PUSH4 0x313CE567 GT PUSH2 0x66 JUMPI DUP1 PUSH4 0x313CE567 EQ PUSH2 0x15B JUMPI DUP1 PUSH4 0x70A08231 EQ PUSH2 0x179 JUMPI DUP1 PUSH4 0x95D89B41 EQ PUSH2 0x1A9 JUMPI DUP1 PUSH4 0xA9059CBB EQ PUSH2 0x1C7 JUMPI DUP1 PUSH4 0xDD62ED3E EQ PUSH2 0x1F7 JUMPI PUSH2 0x9E JUMP JUMPDEST DUP1 PUSH4 0x6FDDE03 EQ PUSH2 0xA3 JUMPI DUP1 PUSH4 0x95EA7B3 EQ PUSH2 0xC1 JUMPI DUP1 PUSH4 0x18160DDD EQ PUSH2 0xF1 JUMPI DUP1 PUSH4 0x1D43CC98 EQ PUSH2 0x10F JUMPI DUP1 PUSH4 0x23B872DD EQ PUSH2 0x12B JUMPI JUMPDEST PUSH1 0x0 DUP1 REVERT JUMPDEST PUSH2 0xAB PUSH2 0x227 JUMP JUMPDEST PUSH1 0x40 MLOAD PUSH2 0xB8 SWAP2 SWAP1 PUSH2 0xC1C JUMP JUMPDEST PUSH1 0x40 MLOAD DUP1 SWAP2 SUB SWAP1 RETURN JUMPDEST PUSH2 0xDB PUSH1 0x4 DUP1 CALLDATASIZE SUB DUP2 ADD SWAP1 PUSH2 0xD6 SWAP2 SWAP1 PUSH2 0xB36 JUMP JUMPDEST PUSH2 0x260 JUMP JUMPDEST PUSH1 0x40 MLOAD PUSH2 0xE8 SWAP2 SWAP1 PUSH2 0xC01 JUMP JUMPDEST PUSH1 0x40 MLOAD DUP1 SWAP2 SUB SWAP1 RETURN JUMPDEST PUSH2 0xF9 PUSH2 0x352 JUMP JUMPDEST PUSH1 0x40 MLOAD PUSH2 0x106 SWAP2 SWAP1 PUSH2 0xC3E JUMP JUMPDEST PUSH1 0x40 MLOAD DUP1 SWAP2 SUB SWAP1 RETURN JUMPDEST PUSH2 0x129 PUSH1 0x4 DUP1 CALLDATASIZE SUB DUP2 ADD SWAP1 PUSH2 0x124 SWAP2 SWAP1 PUSH2 0xB72 JUMP JUMPDEST PUSH2 0x35C JUMP JUMPDEST STOP JUMPDEST PUSH2 0x145 PUSH1 0x4 DUP1 CALLDATASIZE SUB DUP2 ADD SWAP1 PUSH2 0x140 SWAP2 SWAP1 PUSH2 0xAE7 JUMP JUMPDEST PUSH2 0x3BB JUMP JUMPDEST PUSH1 0x40 MLOAD PUSH2 0x152 SWAP2 SWAP1 PUSH2 0xC01 JUMP JUMPDEST PUSH1 0x40 MLOAD DUP1 SWAP2 SUB SWAP1 RETURN JUMPDEST PUSH2 0x163 PUSH2 0x736 JUMP JUMPDEST PUSH1 0x40 MLOAD PUSH2 0x170 SWAP2 SWAP1 PUSH2 0xC59 JUMP JUMPDEST PUSH1 0x40 MLOAD DUP1 SWAP2 SUB SWAP1 RETURN JUMPDEST PUSH2 0x193 PUSH1 0x4 DUP1 CALLDATASIZE SUB DUP2 ADD SWAP1 PUSH2 0x18E SWAP2 SWAP1 PUSH2 0xA82 JUMP JUMPDEST PUSH2 0x73B JUMP JUMPDEST PUSH1 0x40 MLOAD PUSH2 0x1A0 SWAP2 SWAP1 PUSH2 0xC3E JUMP JUMPDEST PUSH1 0x40 MLOAD DUP1 SWAP2 SUB SWAP1 RETURN JUMPDEST PUSH2 0x1B1 PUSH2 0x783 JUMP JUMPDEST PUSH1 0x40 MLOAD PUSH2 0x1BE SWAP2 SWAP1 PUSH2 0xC1C JUMP JUMPDEST PUSH1 0x40 MLOAD DUP1 SWAP2 SUB SWAP1 RETURN JUMPDEST PUSH2 0x1E1 PUSH1 0x4 DUP1 CALLDATASIZE SUB DUP2 ADD SWAP1 PUSH2 0x1DC SWAP2 SWAP1 PUSH2 0xB36 JUMP JUMPDEST PUSH2 0x7BC JUMP JUMPDEST PUSH1 0x40 MLOAD PUSH2 0x1EE SWAP2 SWAP1 PUSH2 0xC01 JUMP JUMPDEST PUSH1 0x40 MLOAD DUP1 SWAP2 SUB SWAP1 RETURN JUMPDEST PUSH2 0x211 PUSH1 0x4 DUP1 CALLDATASIZE SUB DUP2 ADD SWAP1 PUSH2 0x20C SWAP2 SWAP1 PUSH2 0xAAB JUMP JUMPDEST PUSH2 0x99E JUMP JUMPDEST PUSH1 0x40 MLOAD PUSH2 0x21E SWAP2 SWAP1 PUSH2 0xC3E JUMP JUMPDEST PUSH1 0x40 MLOAD DUP1 SWAP2 SUB SWAP1 RETURN JUMPDEST PUSH1 0x40 MLOAD DUP1 PUSH1 0x40 ADD PUSH1 0x40 MSTORE DUP1 PUSH1 0xC DUP2 MSTORE PUSH1 0x20 ADD PUSH32 0x4552433230414B414C75676F0000000000000000000000000000000000000000 DUP2 MSTORE POP DUP2 JUMP JUMPDEST PUSH1 0x0 DUP2 PUSH1 0x1 PUSH1 0x0 CALLER PUSH20 0xFFFFFFFFFFFFFFFFFFFFFFFFFFFFFFFFFFFFFFFF AND PUSH20 0xFFFFFFFFFFFFFFFFFFFFFFFFFFFFFFFFFFFFFFFF AND DUP2 MSTORE PUSH1 0x20 ADD SWAP1 DUP2 MSTORE PUSH1 0x20 ADD PUSH1 0x0 KECCAK256 PUSH1 0x0 DUP6 PUSH20 0xFFFFFFFFFFFFFFFFFFFFFFFFFFFFFFFFFFFFFFFF AND PUSH20 0xFFFFFFFFFFFFFFFFFFFFFFFFFFFFFFFFFFFFFFFF AND DUP2 MSTORE PUSH1 0x20 ADD SWAP1 DUP2 MSTORE PUSH1 0x20 ADD PUSH1 0x0 KECCAK256 DUP2 SWAP1 SSTORE POP DUP3 PUSH20 0xFFFFFFFFFFFFFFFFFFFFFFFFFFFFFFFFFFFFFFFF AND CALLER PUSH20 0xFFFFFFFFFFFFFFFFFFFFFFFFFFFFFFFFFFFFFFFF AND PUSH32 0x8C5BE1E5EBEC7D5BD14F71427D1E84F3DD0314C0F7B2291E5B200AC8C7C3B925 DUP5 PUSH1 0x40 MLOAD PUSH2 0x340 SWAP2 SWAP1 PUSH2 0xC3E JUMP JUMPDEST PUSH1 0x40 MLOAD DUP1 SWAP2 SUB SWAP1 LOG3 PUSH1 0x1 SWAP1 POP SWAP3 SWAP2 POP POP JUMP JUMPDEST PUSH1 0x0 PUSH1 0x2 SLOAD SWAP1 POP SWAP1 JUMP JUMPDEST DUP1 PUSH1 0x2 PUSH1 0x0 DUP3 DUP3 SLOAD ADD SWAP3 POP POP DUP2 SWAP1 SSTORE POP DUP1 PUSH1 0x0 DUP1 CALLER PUSH20 0xFFFFFFFFFFFFFFFFFFFFFFFFFFFFFFFFFFFFFFFF AND PUSH20 0xFFFFFFFFFFFFFFFFFFFFFFFFFFFFFFFFFFFFFFFF AND DUP2 MSTORE PUSH1 0x20 ADD SWAP1 DUP2 MSTORE PUSH1 0x20 ADD PUSH1 0x0 KECCAK256 PUSH1 0x0 DUP3 DUP3 SLOAD ADD SWAP3 POP POP DUP2 SWAP1 SSTORE POP POP JUMP JUMPDEST PUSH1 0x0 DUP2 PUSH1 0x0 DUP1 DUP7 PUSH20 0xFFFFFFFFFFFFFFFFFFFFFFFFFFFFFFFFFFFFFFFF AND PUSH20 0xFFFFFFFFFFFFFFFFFFFFFFFFFFFFFFFFFFFFFFFF AND DUP2 MSTORE PUSH1 0x20 ADD SWAP1 DUP2 MSTORE PUSH1 0x20 ADD PUSH1 0x0 KECCAK256 SLOAD LT ISZERO PUSH2 0x408 JUMPI PUSH1 0x0 DUP1 REVERT JUMPDEST DUP2 PUSH1 0x1 PUSH1 0x0 DUP7 PUSH20 0xFFFFFFFFFFFFFFFFFFFFFFFFFFFFFFFFFFFFFFFF AND PUSH20 0xFFFFFFFFFFFFFFFFFFFFFFFFFFFFFFFFFFFFFFFF AND DUP2 MSTORE PUSH1 0x20 ADD SWAP1 DUP2 MSTORE PUSH1 0x20 ADD PUSH1 0x0 KECCAK256 PUSH1 0x0 CALLER PUSH20 0xFFFFFFFFFFFFFFFFFFFFFFFFFFFFFFFFFFFFFFFF AND PUSH20 0xFFFFFFFFFFFFFFFFFFFFFFFFFFFFFFFFFFFFFFFF AND DUP2 MSTORE PUSH1 0x20 ADD SWAP1 DUP2 MSTORE PUSH1 0x20 ADD PUSH1 0x0 KECCAK256 SLOAD LT ISZERO PUSH2 0x491 JUMPI PUSH1 0x0 DUP1 REVERT JUMPDEST PUSH2 0x4E2 DUP3 PUSH1 0x0 DUP1 DUP8 PUSH20 0xFFFFFFFFFFFFFFFFFFFFFFFFFFFFFFFFFFFFFFFF AND PUSH20 0xFFFFFFFFFFFFFFFFFFFFFFFFFFFFFFFFFFFFFFFF AND DUP2 MSTORE PUSH1 0x20 ADD SWAP1 DUP2 MSTORE PUSH1 0x20 ADD PUSH1 0x0 KECCAK256 SLOAD PUSH2 0xA25 SWAP1 SWAP2 SWAP1 PUSH4 0xFFFFFFFF AND JUMP JUMPDEST PUSH1 0x0 DUP1 DUP7 PUSH20 0xFFFFFFFFFFFFFFFFFFFFFFFFFFFFFFFFFFFFFFFF AND PUSH20 0xFFFFFFFFFFFFFFFFFFFFFFFFFFFFFFFFFFFFFFFF AND DUP2 MSTORE PUSH1 0x20 ADD SWAP1 DUP2 MSTORE PUSH1 0x20 ADD PUSH1 0x0 KECCAK256 DUP2 SWAP1 SSTORE POP PUSH2 0x5B3 DUP3 PUSH1 0x1 PUSH1 0x0 DUP8 PUSH20 0xFFFFFFFFFFFFFFFFFFFFFFFFFFFFFFFFFFFFFFFF AND PUSH20 0xFFFFFFFFFFFFFFFFFFFFFFFFFFFFFFFFFFFFFFFF AND DUP2 MSTORE PUSH1 0x20 ADD SWAP1 DUP2 MSTORE PUSH1 0x20 ADD PUSH1 0x0 KECCAK256 PUSH1 0x0 CALLER PUSH20 0xFFFFFFFFFFFFFFFFFFFFFFFFFFFFFFFFFFFFFFFF AND PUSH20 0xFFFFFFFFFFFFFFFFFFFFFFFFFFFFFFFFFFFFFFFF AND DUP2 MSTORE PUSH1 0x20 ADD SWAP1 DUP2 MSTORE PUSH1 0x20 ADD PUSH1 0x0 KECCAK256 SLOAD PUSH2 0xA25 SWAP1 SWAP2 SWAP1 PUSH4 0xFFFFFFFF AND JUMP JUMPDEST PUSH1 0x1 PUSH1 0x0 DUP7 PUSH20 0xFFFFFFFFFFFFFFFFFFFFFFFFFFFFFFFFFFFFFFFF AND PUSH20 0xFFFFFFFFFFFFFFFFFFFFFFFFFFFFFFFFFFFFFFFF AND DUP2 MSTORE PUSH1 0x20 ADD SWAP1 DUP2 MSTORE PUSH1 0x20 ADD PUSH1 0x0 KECCAK256 PUSH1 0x0 CALLER PUSH20 0xFFFFFFFFFFFFFFFFFFFFFFFFFFFFFFFFFFFFFFFF AND PUSH20 0xFFFFFFFFFFFFFFFFFFFFFFFFFFFFFFFFFFFFFFFF AND DUP2 MSTORE PUSH1 0x20 ADD SWAP1 DUP2 MSTORE PUSH1 0x20 ADD PUSH1 0x0 KECCAK256 DUP2 SWAP1 SSTORE POP PUSH2 0x684 DUP3 PUSH1 0x0 DUP1 DUP7 PUSH20 0xFFFFFFFFFFFFFFFFFFFFFFFFFFFFFFFFFFFFFFFF AND PUSH20 0xFFFFFFFFFFFFFFFFFFFFFFFFFFFFFFFFFFFFFFFF AND DUP2 MSTORE PUSH1 0x20 ADD SWAP1 DUP2 MSTORE PUSH1 0x20 ADD PUSH1 0x0 KECCAK256 SLOAD PUSH2 0xA3C SWAP1 SWAP2 SWAP1 PUSH4 0xFFFFFFFF AND JUMP JUMPDEST PUSH1 0x0 DUP1 DUP6 PUSH20 0xFFFFFFFFFFFFFFFFFFFFFFFFFFFFFFFFFFFFFFFF AND PUSH20 0xFFFFFFFFFFFFFFFFFFFFFFFFFFFFFFFFFFFFFFFF AND DUP2 MSTORE PUSH1 0x20 ADD SWAP1 DUP2 MSTORE PUSH1 0x20 ADD PUSH1 0x0 KECCAK256 DUP2 SWAP1 SSTORE POP DUP3 PUSH20 0xFFFFFFFFFFFFFFFFFFFFFFFFFFFFFFFFFFFFFFFF AND DUP5 PUSH20 0xFFFFFFFFFFFFFFFFFFFFFFFFFFFFFFFFFFFFFFFF AND PUSH32 0xDDF252AD1BE2C89B69C2B068FC378DAA952BA7F163C4A11628F55A4DF523B3EF DUP5 PUSH1 0x40 MLOAD PUSH2 0x723 SWAP2 SWAP1 PUSH2 0xC3E JUMP JUMPDEST PUSH1 0x40 MLOAD DUP1 SWAP2 SUB SWAP1 LOG3 PUSH1 0x1 SWAP1 POP SWAP4 SWAP3 POP POP POP JUMP JUMPDEST PUSH1 0x12 DUP2 JUMP JUMPDEST PUSH1 0x0 DUP1 PUSH1 0x0 DUP4 PUSH20 0xFFFFFFFFFFFFFFFFFFFFFFFFFFFFFFFFFFFFFFFF AND PUSH20 0xFFFFFFFFFFFFFFFFFFFFFFFFFFFFFFFFFFFFFFFF AND DUP2 MSTORE PUSH1 0x20 ADD SWAP1 DUP2 MSTORE PUSH1 0x20 ADD PUSH1 0x0 KECCAK256 SLOAD SWAP1 POP SWAP2 SWAP1 POP JUMP JUMPDEST PUSH1 0x40 MLOAD DUP1 PUSH1 0x40 ADD PUSH1 0x40 MSTORE DUP1 PUSH1 0x3 DUP2 MSTORE PUSH1 0x20 ADD PUSH32 0x414B410000000000000000000000000000000000000000000000000000000000 DUP2 MSTORE POP DUP2 JUMP JUMPDEST PUSH1 0x0 DUP1 PUSH1 0x0 CALLER PUSH20 0xFFFFFFFFFFFFFFFFFFFFFFFFFFFFFFFFFFFFFFFF AND PUSH20 0xFFFFFFFFFFFFFFFFFFFFFFFFFFFFFFFFFFFFFFFF AND DUP2 MSTORE PUSH1 0x20 ADD SWAP1 DUP2 MSTORE PUSH1 0x20 ADD PUSH1 0x0 KECCAK256 SLOAD DUP3 GT ISZERO PUSH2 0x809 JUMPI PUSH1 0x0 DUP1 REVERT JUMPDEST PUSH2 0x85A DUP3 PUSH1 0x0 DUP1 CALLER PUSH20 0xFFFFFFFFFFFFFFFFFFFFFFFFFFFFFFFFFFFFFFFF AND PUSH20 0xFFFFFFFFFFFFFFFFFFFFFFFFFFFFFFFFFFFFFFFF AND DUP2 MSTORE PUSH1 0x20 ADD SWAP1 DUP2 MSTORE PUSH1 0x20 ADD PUSH1 0x0 KECCAK256 SLOAD PUSH2 0xA25 SWAP1 SWAP2 SWAP1 PUSH4 0xFFFFFFFF AND JUMP JUMPDEST PUSH1 0x0 DUP1 CALLER PUSH20 0xFFFFFFFFFFFFFFFFFFFFFFFFFFFFFFFFFFFFFFFF AND PUSH20 0xFFFFFFFFFFFFFFFFFFFFFFFFFFFFFFFFFFFFFFFF AND DUP2 MSTORE PUSH1 0x20 ADD SWAP1 DUP2 MSTORE PUSH1 0x20 ADD PUSH1 0x0 KECCAK256 DUP2 SWAP1 SSTORE POP PUSH2 0x8ED DUP3 PUSH1 0x0 DUP1 DUP7 PUSH20 0xFFFFFFFFFFFFFFFFFFFFFFFFFFFFFFFFFFFFFFFF AND PUSH20 0xFFFFFFFFFFFFFFFFFFFFFFFFFFFFFFFFFFFFFFFF AND DUP2 MSTORE PUSH1 0x20 ADD SWAP1 DUP2 MSTORE PUSH1 0x20 ADD PUSH1 0x0 KECCAK256 SLOAD PUSH2 0xA3C SWAP1 SWAP2 SWAP1 PUSH4 0xFFFFFFFF AND JUMP JUMPDEST PUSH1 0x0 DUP1 DUP6 PUSH20 0xFFFFFFFFFFFFFFFFFFFFFFFFFFFFFFFFFFFFFFFF AND PUSH20 0xFFFFFFFFFFFFFFFFFFFFFFFFFFFFFFFFFFFFFFFF AND DUP2 MSTORE PUSH1 0x20 ADD SWAP1 DUP2 MSTORE PUSH1 0x20 ADD PUSH1 0x0 KECCAK256 DUP2 SWAP1 SSTORE POP DUP3 PUSH20 0xFFFFFFFFFFFFFFFFFFFFFFFFFFFFFFFFFFFFFFFF AND CALLER PUSH20 0xFFFFFFFFFFFFFFFFFFFFFFFFFFFFFFFFFFFFFFFF AND PUSH32 0xDDF252AD1BE2C89B69C2B068FC378DAA952BA7F163C4A11628F55A4DF523B3EF DUP5 PUSH1 0x40 MLOAD PUSH2 0x98C SWAP2 SWAP1 PUSH2 0xC3E JUMP JUMPDEST PUSH1 0x40 MLOAD DUP1 SWAP2 SUB SWAP1 LOG3 PUSH1 0x1 SWAP1 POP SWAP3 SWAP2 POP POP JUMP JUMPDEST PUSH1 0x0 PUSH1 0x1 PUSH1 0x0 DUP5 PUSH20 0xFFFFFFFFFFFFFFFFFFFFFFFFFFFFFFFFFFFFFFFF AND PUSH20 0xFFFFFFFFFFFFFFFFFFFFFFFFFFFFFFFFFFFFFFFF AND DUP2 MSTORE PUSH1 0x20 ADD SWAP1 DUP2 MSTORE PUSH1 0x20 ADD PUSH1 0x0 KECCAK256 PUSH1 0x0 DUP4 PUSH20 0xFFFFFFFFFFFFFFFFFFFFFFFFFFFFFFFFFFFFFFFF AND PUSH20 0xFFFFFFFFFFFFFFFFFFFFFFFFFFFFFFFFFFFFFFFF AND DUP2 MSTORE PUSH1 0x20 ADD SWAP1 DUP2 MSTORE PUSH1 0x20 ADD PUSH1 0x0 KECCAK256 SLOAD SWAP1 POP SWAP3 SWAP2 POP POP JUMP JUMPDEST PUSH1 0x0 DUP3 DUP3 GT ISZERO PUSH2 0xA31 JUMPI INVALID JUMPDEST DUP2 DUP4 SUB SWAP1 POP SWAP3 SWAP2 POP POP JUMP JUMPDEST PUSH1 0x0 DUP1 DUP3 DUP5 ADD SWAP1 POP DUP4 DUP2 LT ISZERO PUSH2 0xA4E JUMPI INVALID JUMPDEST DUP1 SWAP2 POP POP SWAP3 SWAP2 POP POP JUMP JUMPDEST PUSH1 0x0 DUP2 CALLDATALOAD SWAP1 POP PUSH2 0xA67 DUP2 PUSH2 0xD29 JUMP JUMPDEST SWAP3 SWAP2 POP POP JUMP JUMPDEST PUSH1 0x0 DUP2 CALLDATALOAD SWAP1 POP PUSH2 0xA7C DUP2 PUSH2 0xD40 JUMP JUMPDEST SWAP3 SWAP2 POP POP JUMP JUMPDEST PUSH1 0x0 PUSH1 0x20 DUP3 DUP5 SUB SLT ISZERO PUSH2 0xA94 JUMPI PUSH1 0x0 DUP1 REVERT JUMPDEST PUSH1 0x0 PUSH2 0xAA2 DUP5 DUP3 DUP6 ADD PUSH2 0xA58 JUMP JUMPDEST SWAP2 POP POP SWAP3 SWAP2 POP POP JUMP JUMPDEST PUSH1 0x0 DUP1 PUSH1 0x40 DUP4 DUP6 SUB SLT ISZERO PUSH2 0xABE JUMPI PUSH1 0x0 DUP1 REVERT JUMPDEST PUSH1 0x0 PUSH2 0xACC DUP6 DUP3 DUP7 ADD PUSH2 0xA58 JUMP JUMPDEST SWAP3 POP POP PUSH1 0x20 PUSH2 0xADD DUP6 DUP3 DUP7 ADD PUSH2 0xA58 JUMP JUMPDEST SWAP2 POP POP SWAP3 POP SWAP3 SWAP1 POP JUMP JUMPDEST PUSH1 0x0 DUP1 PUSH1 0x0 PUSH1 0x60 DUP5 DUP7 SUB SLT ISZERO PUSH2 0xAFC JUMPI PUSH1 0x0 DUP1 REVERT JUMPDEST PUSH1 0x0 PUSH2 0xB0A DUP7 DUP3 DUP8 ADD PUSH2 0xA58 JUMP JUMPDEST SWAP4 POP POP PUSH1 0x20 PUSH2 0xB1B DUP7 DUP3 DUP8 ADD PUSH2 0xA58 JUMP JUMPDEST SWAP3 POP POP PUSH1 0x40 PUSH2 0xB2C DUP7 DUP3 DUP8 ADD PUSH2 0xA6D JUMP JUMPDEST SWAP2 POP POP SWAP3 POP SWAP3 POP SWAP3 JUMP JUMPDEST PUSH1 0x0 DUP1 PUSH1 0x40 DUP4 DUP6 SUB SLT ISZERO PUSH2 0xB49 JUMPI PUSH1 0x0 DUP1 REVERT JUMPDEST PUSH1 0x0 PUSH2 0xB57 DUP6 DUP3 DUP7 ADD PUSH2 0xA58 JUMP JUMPDEST SWAP3 POP POP PUSH1 0x20 PUSH2 0xB68 DUP6 DUP3 DUP7 ADD PUSH2 0xA6D JUMP JUMPDEST SWAP2 POP POP SWAP3 POP SWAP3 SWAP1 POP JUMP JUMPDEST PUSH1 0x0 PUSH1 0x20 DUP3 DUP5 SUB SLT ISZERO PUSH2 0xB84 JUMPI PUSH1 0x0 DUP1 REVERT JUMPDEST PUSH1 0x0 PUSH2 0xB92 DUP5 DUP3 DUP6 ADD PUSH2 0xA6D JUMP JUMPDEST SWAP2 POP POP SWAP3 SWAP2 POP POP JUMP JUMPDEST PUSH2 0xBA4 DUP2 PUSH2 0xCA2 JUMP JUMPDEST DUP3 MSTORE POP POP JUMP JUMPDEST PUSH1 0x0 PUSH2 0xBB5 DUP3 PUSH2 0xC74 JUMP JUMPDEST PUSH2 0xBBF DUP2 DUP6 PUSH2 0xC7F JUMP JUMPDEST SWAP4 POP PUSH2 0xBCF DUP2 DUP6 PUSH1 0x20 DUP7 ADD PUSH2 0xCE5 JUMP JUMPDEST PUSH2 0xBD8 DUP2 PUSH2 0xD18 JUMP JUMPDEST DUP5 ADD SWAP2 POP POP SWAP3 SWAP2 POP POP JUMP JUMPDEST PUSH2 0xBEC DUP2 PUSH2 0xCCE JUMP JUMPDEST DUP3 MSTORE POP POP JUMP JUMPDEST PUSH2 0xBFB DUP2 PUSH2 0xCD8 JUMP JUMPDEST DUP3 MSTORE POP POP JUMP JUMPDEST PUSH1 0x0 PUSH1 0x20 DUP3 ADD SWAP1 POP PUSH2 0xC16 PUSH1 0x0 DUP4 ADD DUP5 PUSH2 0xB9B JUMP JUMPDEST SWAP3 SWAP2 POP POP JUMP JUMPDEST PUSH1 0x0 PUSH1 0x20 DUP3 ADD SWAP1 POP DUP2 DUP2 SUB PUSH1 0x0 DUP4 ADD MSTORE PUSH2 0xC36 DUP2 DUP5 PUSH2 0xBAA JUMP JUMPDEST SWAP1 POP SWAP3 SWAP2 POP POP JUMP JUMPDEST PUSH1 0x0 PUSH1 0x20 DUP3 ADD SWAP1 POP PUSH2 0xC53 PUSH1 0x0 DUP4 ADD DUP5 PUSH2 0xBE3 JUMP JUMPDEST SWAP3 SWAP2 POP POP JUMP JUMPDEST PUSH1 0x0 PUSH1 0x20 DUP3 ADD SWAP1 POP PUSH2 0xC6E PUSH1 0x0 DUP4 ADD DUP5 PUSH2 0xBF2 JUMP JUMPDEST SWAP3 SWAP2 POP POP JUMP JUMPDEST PUSH1 0x0 DUP2 MLOAD SWAP1 POP SWAP2 SWAP1 POP JUMP JUMPDEST PUSH1 0x0 DUP3 DUP3 MSTORE PUSH1 0x20 DUP3 ADD SWAP1 POP SWAP3 SWAP2 POP POP JUMP JUMPDEST PUSH1 0x0 PUSH2 0xC9B DUP3 PUSH2 0xCAE JUMP JUMPDEST SWAP1 POP SWAP2 SWAP1 POP JUMP JUMPDEST PUSH1 0x0 DUP2 ISZERO ISZERO SWAP1 POP SWAP2 SWAP1 POP JUMP JUMPDEST PUSH1 0x0 PUSH20 0xFFFFFFFFFFFFFFFFFFFFFFFFFFFFFFFFFFFFFFFF DUP3 AND SWAP1 POP SWAP2 SWAP1 POP JUMP JUMPDEST PUSH1 0x0 DUP2 SWAP1 POP SWAP2 SWAP1 POP JUMP JUMPDEST PUSH1 0x0 PUSH1 0xFF DUP3 AND SWAP1 POP SWAP2 SWAP1 POP JUMP JUMPDEST PUSH1 0x0 JUMPDEST DUP4 DUP2 LT ISZERO PUSH2 0xD03 JUMPI DUP1 DUP3 ADD MLOAD DUP2 DUP5 ADD MSTORE PUSH1 0x20 DUP2 ADD SWAP1 POP PUSH2 0xCE8 JUMP JUMPDEST DUP4 DUP2 GT ISZERO PUSH2 0xD12 JUMPI PUSH1 0x0 DUP5 DUP5 ADD MSTORE JUMPDEST POP POP POP POP JUMP JUMPDEST PUSH1 0x0 PUSH1 0x1F NOT PUSH1 0x1F DUP4 ADD AND SWAP1 POP SWAP2 SWAP1 POP JUMP JUMPDEST PUSH2 0xD32 DUP2 PUSH2 0xC90 JUMP JUMPDEST DUP2 EQ PUSH2 0xD3D JUMPI PUSH1 0x0 DUP1 REVERT JUMPDEST POP JUMP JUMPDEST PUSH2 0xD49 DUP2 PUSH2 0xCCE JUMP JUMPDEST DUP2 EQ PUSH2 0xD54 JUMPI PUSH1 0x0 DUP1 REVERT JUMPDEST POP JUMP INVALID LOG2 PUSH5 0x6970667358 0x22 SLT KECCAK256 0xDB 0x26 0xCB DUP6 0x25 CREATE 0xA6 0xDA PUSH11 0x43A6EC5D6D6614ADFA4979 0xC0 0xE2 0xA6 SELFDESTRUCT 0xD5 0x49 DUP16 0xB2 ORIGIN 0xBE 0xF6 SELFBALANCE PUSH5 0x736F6C6343 STOP MOD 0xC STOP CALLER "
				},
				"gasEstimates": {
					"creation": {
						"codeDepositCost": "1207600",
						"executionCost": "infinite",
						"totalCost": "infinite"
					},
					"external": {
						"AtraccionesDisponibles()": "infinite",
						"BajarAtraccion(string)": "infinite",
						"BalanceOf()": "infinite",
						"Clientes(address)": "1572",
						"CompraTokens(uint256)": "infinite",
						"GenerarTokens(uint256)": "infinite",
						"MappingAtracciones(string)": "infinite",
						"MisTokens()": "infinite",
						"NuevaAtraccion(string,uint256)": "infinite",
						"SubirseAtraccion(string)": "infinite",
						"owner()": "1303"
					},
					"internal": {
						"PrecioTokens(uint256)": "36"
					}
				},
				"methodIdentifiers": {
					"AtraccionesDisponibles()": "1fccb33c",
					"BajarAtraccion(string)": "a2094159",
					"BalanceOf()": "9a3174a0",
					"Clientes(address)": "ce8f2f38",
					"CompraTokens(uint256)": "f7774091",
					"GenerarTokens(uint256)": "7c1b38bf",
					"MappingAtracciones(string)": "d00df296",
					"MisTokens()": "e33f34a0",
					"NuevaAtraccion(string,uint256)": "2076b56c",
					"SubirseAtraccion(string)": "12b91846",
					"owner()": "8da5cb5b"
				}
			},
			"storageLayout": {
				"storage": [
					{
						"astId": 435,
						"contract": "Disney/disney.sol:Disney",
						"label": "token",
						"offset": 0,
						"slot": "0",
						"type": "t_contract(ERC20Basic)347"
					},
					{
						"astId": 437,
						"contract": "Disney/disney.sol:Disney",
						"label": "owner",
						"offset": 0,
						"slot": "1",
						"type": "t_address_payable"
					},
					{
						"astId": 447,
						"contract": "Disney/disney.sol:Disney",
						"label": "Clientes",
						"offset": 0,
						"slot": "2",
						"type": "t_mapping(t_address,t_struct(cliente)443_storage)"
					},
					{
						"astId": 611,
						"contract": "Disney/disney.sol:Disney",
						"label": "MappingAtracciones",
						"offset": 0,
						"slot": "3",
						"type": "t_mapping(t_string_memory_ptr,t_struct(atraccion)607_storage)"
					},
					{
						"astId": 614,
						"contract": "Disney/disney.sol:Disney",
						"label": "Atracciones",
						"offset": 0,
						"slot": "4",
						"type": "t_array(t_string_storage)dyn_storage"
					},
					{
						"astId": 619,
						"contract": "Disney/disney.sol:Disney",
						"label": "HistorialCliente",
						"offset": 0,
						"slot": "5",
						"type": "t_mapping(t_address,t_array(t_string_storage)dyn_storage)"
					}
				],
				"types": {
					"t_address": {
						"encoding": "inplace",
						"label": "address",
						"numberOfBytes": "20"
					},
					"t_address_payable": {
						"encoding": "inplace",
						"label": "address payable",
						"numberOfBytes": "20"
					},
					"t_array(t_string_storage)dyn_storage": {
						"base": "t_string_storage",
						"encoding": "dynamic_array",
						"label": "string[]",
						"numberOfBytes": "32"
					},
					"t_bool": {
						"encoding": "inplace",
						"label": "bool",
						"numberOfBytes": "1"
					},
					"t_contract(ERC20Basic)347": {
						"encoding": "inplace",
						"label": "contract ERC20Basic",
						"numberOfBytes": "20"
					},
					"t_mapping(t_address,t_array(t_string_storage)dyn_storage)": {
						"encoding": "mapping",
						"key": "t_address",
						"label": "mapping(address => string[])",
						"numberOfBytes": "32",
						"value": "t_array(t_string_storage)dyn_storage"
					},
					"t_mapping(t_address,t_struct(cliente)443_storage)": {
						"encoding": "mapping",
						"key": "t_address",
						"label": "mapping(address => struct Disney.cliente)",
						"numberOfBytes": "32",
						"value": "t_struct(cliente)443_storage"
					},
					"t_mapping(t_string_memory_ptr,t_struct(atraccion)607_storage)": {
						"encoding": "mapping",
						"key": "t_string_memory_ptr",
						"label": "mapping(string => struct Disney.atraccion)",
						"numberOfBytes": "32",
						"value": "t_struct(atraccion)607_storage"
					},
					"t_string_memory_ptr": {
						"encoding": "bytes",
						"label": "string",
						"numberOfBytes": "32"
					},
					"t_string_storage": {
						"encoding": "bytes",
						"label": "string",
						"numberOfBytes": "32"
					},
					"t_struct(atraccion)607_storage": {
						"encoding": "inplace",
						"label": "struct Disney.atraccion",
						"members": [
							{
								"astId": 602,
								"contract": "Disney/disney.sol:Disney",
								"label": "nombre",
								"offset": 0,
								"slot": "0",
								"type": "t_string_storage"
							},
							{
								"astId": 604,
								"contract": "Disney/disney.sol:Disney",
								"label": "precio",
								"offset": 0,
								"slot": "1",
								"type": "t_uint256"
							},
							{
								"astId": 606,
								"contract": "Disney/disney.sol:Disney",
								"label": "estado",
								"offset": 0,
								"slot": "2",
								"type": "t_bool"
							}
						],
						"numberOfBytes": "96"
					},
					"t_struct(cliente)443_storage": {
						"encoding": "inplace",
						"label": "struct Disney.cliente",
						"members": [
							{
								"astId": 439,
								"contract": "Disney/disney.sol:Disney",
								"label": "token_comprado",
								"offset": 0,
								"slot": "0",
								"type": "t_uint256"
							},
							{
								"astId": 442,
								"contract": "Disney/disney.sol:Disney",
								"label": "atracciones_visitadas",
								"offset": 0,
								"slot": "1",
								"type": "t_array(t_string_storage)dyn_storage"
							}
						],
						"numberOfBytes": "64"
					},
					"t_uint256": {
						"encoding": "inplace",
						"label": "uint256",
						"numberOfBytes": "32"
					}
				}
			},
			"userdoc": {
				"kind": "user",
				"methods": {},
				"version": 1
			}
		}
	}
}