{
	"Disney/disney.sol": {
		"Disney": {
			"abi": [
				{
					"inputs": [],
					"stateMutability": "nonpayable",
					"type": "constructor"
				},
				{
					"anonymous": false,
					"inputs": [
						{
							"indexed": false,
							"internalType": "string",
							"name": "",
							"type": "string"
						}
					],
					"name": "baja_atraccion",
					"type": "event"
				},
				{
					"anonymous": false,
					"inputs": [
						{
							"indexed": false,
							"internalType": "string",
							"name": "",
							"type": "string"
						}
					],
					"name": "disfruta_atraccion",
					"type": "event"
				},
				{
					"anonymous": false,
					"inputs": [
						{
							"indexed": false,
							"internalType": "string",
							"name": "",
							"type": "string"
						},
						{
							"indexed": false,
							"internalType": "uint256",
							"name": "",
							"type": "uint256"
						}
					],
					"name": "nueva_atraccion",
					"type": "event"
				},
				{
					"inputs": [],
					"name": "AtraccionesDisponibles",
					"outputs": [
						{
							"internalType": "string",
							"name": "",
							"type": "string"
						}
					],
					"stateMutability": "view",
					"type": "function"
				},
				{
					"inputs": [
						{
							"internalType": "string",
							"name": "_nombreAtraccion",
							"type": "string"
						}
					],
					"name": "BajarAtraccion",
					"outputs": [],
					"stateMutability": "nonpayable",
					"type": "function"
				},
				{
					"inputs": [],
					"name": "BalanceOf",
					"outputs": [
						{
							"internalType": "uint256",
							"name": "",
							"type": "uint256"
						}
					],
					"stateMutability": "view",
					"type": "function"
				},
				{
					"inputs": [
						{
							"internalType": "address",
							"name": "",
							"type": "address"
						}
					],
					"name": "Clientes",
					"outputs": [
						{
							"internalType": "uint256",
							"name": "token_comprado",
							"type": "uint256"
						}
					],
					"stateMutability": "view",
					"type": "function"
				},
				{
					"inputs": [
						{
							"internalType": "uint256",
							"name": "_numTokens",
							"type": "uint256"
						}
					],
					"name": "CompraTokens",
					"outputs": [],
					"stateMutability": "payable",
					"type": "function"
				},
				{
					"inputs": [
						{
							"internalType": "uint256",
							"name": "_numTokens",
							"type": "uint256"
						}
					],
					"name": "GenerarTokens",
					"outputs": [],
					"stateMutability": "nonpayable",
					"type": "function"
				},
				{
					"inputs": [
						{
							"internalType": "string",
							"name": "",
							"type": "string"
						}
					],
					"name": "MappingAtracciones",
					"outputs": [
						{
							"internalType": "string",
							"name": "nombre",
							"type": "string"
						},
						{
							"internalType": "uint256",
							"name": "precio",
							"type": "uint256"
						},
						{
							"internalType": "bool",
							"name": "estado",
							"type": "bool"
						}
					],
					"stateMutability": "view",
					"type": "function"
				},
				{
					"inputs": [],
					"name": "MisTokens",
					"outputs": [
						{
							"internalType": "uint256",
							"name": "",
							"type": "uint256"
						}
					],
					"stateMutability": "view",
					"type": "function"
				},
				{
					"inputs": [
						{
							"internalType": "string",
							"name": "_nombreAtraccion",
							"type": "string"
						},
						{
							"internalType": "uint256",
							"name": "_precio",
							"type": "uint256"
						}
					],
					"name": "NuevaAtraccion",
					"outputs": [],
					"stateMutability": "nonpayable",
					"type": "function"
				},
				{
					"inputs": [
						{
							"internalType": "string",
							"name": "_nombreAtraccion",
							"type": "string"
						}
					],
					"name": "SubirAtraccion",
					"outputs": [],
					"stateMutability": "nonpayable",
					"type": "function"
				},
				{
					"inputs": [
						{
							"internalType": "string",
							"name": "_nombreAtraccion",
							"type": "string"
						}
					],
					"name": "SubirseAtraccion",
					"outputs": [],
					"stateMutability": "nonpayable",
					"type": "function"
				},
				{
					"inputs": [],
					"name": "owner",
					"outputs": [
						{
							"internalType": "address payable",
							"name": "",
							"type": "address"
						}
					],
					"stateMutability": "view",
					"type": "function"
				}
			],
			"devdoc": {
				"kind": "dev",
				"methods": {},
				"version": 1
			},
			"evm": {
				"assembly": "    /* \"Disney/disney.sol\":124:7921  contract Disney {\r... */\n  mstore(0x40, 0x80)\n    /* \"Disney/disney.sol\":634:731  constructor() public {\r... */\n  callvalue\n  dup1\n  iszero\n  tag_1\n  jumpi\n  0x00\n  dup1\n  revert\ntag_1:\n  pop\n    /* \"Disney/disney.sol\":689:693  1000 */\n  0x03e8\n    /* \"Disney/disney.sol\":674:694  new ERC20Basic(1000) */\n  mload(0x40)\n  tag_4\n  swap1\n  tag_5\n  jump\t// in\ntag_4:\n  tag_6\n  swap2\n  swap1\n  tag_7\n  jump\t// in\ntag_6:\n  mload(0x40)\n  dup1\n  swap2\n  sub\n  swap1\n  0x00\n  create\n  dup1\n  iszero\n  dup1\n  iszero\n  tag_8\n  jumpi\n  returndatasize\n  0x00\n  dup1\n  returndatacopy\n  revert(0x00, returndatasize)\ntag_8:\n  pop\n    /* \"Disney/disney.sol\":666:671  token */\n  0x00\n  dup1\n    /* \"Disney/disney.sol\":666:694  token = new ERC20Basic(1000) */\n  0x0100\n  exp\n  dup2\n  sload\n  dup2\n  0xffffffffffffffffffffffffffffffffffffffff\n  mul\n  not\n  and\n  swap1\n  dup4\n  0xffffffffffffffffffffffffffffffffffffffff\n  and\n  mul\n  or\n  swap1\n  sstore\n  pop\n    /* \"Disney/disney.sol\":713:723  msg.sender */\n  caller\n    /* \"Disney/disney.sol\":705:710  owner */\n  0x01\n  0x00\n    /* \"Disney/disney.sol\":705:723  owner = msg.sender */\n  0x0100\n  exp\n  dup2\n  sload\n  dup2\n  0xffffffffffffffffffffffffffffffffffffffff\n  mul\n  not\n  and\n  swap1\n  dup4\n  0xffffffffffffffffffffffffffffffffffffffff\n  and\n  mul\n  or\n  swap1\n  sstore\n  pop\n    /* \"Disney/disney.sol\":124:7921  contract Disney {\r... */\n  jump(tag_9)\ntag_5:\n  dataSize(sub_1)\n  dup1\n  dataOffset(sub_1)\n  dup4\n  codecopy\n  add\n  swap1\n  jump\t// out\n    /* \"--CODEGEN--\":5:153   */\ntag_11:\n    /* \"--CODEGEN--\":99:147   */\n  tag_13\n    /* \"--CODEGEN--\":141:146   */\n  dup2\n    /* \"--CODEGEN--\":99:147   */\n  tag_14\n  jump\t// in\ntag_13:\n    /* \"--CODEGEN--\":94:97   */\n  dup3\n    /* \"--CODEGEN--\":87:148   */\n  mstore\n    /* \"--CODEGEN--\":81:153   */\n  pop\n  pop\n  jump\t// out\n    /* \"--CODEGEN--\":160:404   */\ntag_7:\n  0x00\n    /* \"--CODEGEN--\":298:300   */\n  0x20\n    /* \"--CODEGEN--\":287:296   */\n  dup3\n    /* \"--CODEGEN--\":283:301   */\n  add\n    /* \"--CODEGEN--\":275:301   */\n  swap1\n  pop\n    /* \"--CODEGEN--\":312:394   */\n  tag_16\n    /* \"--CODEGEN--\":391:392   */\n  0x00\n    /* \"--CODEGEN--\":380:389   */\n  dup4\n    /* \"--CODEGEN--\":376:393   */\n  add\n    /* \"--CODEGEN--\":367:373   */\n  dup5\n    /* \"--CODEGEN--\":312:394   */\n  tag_11\n  jump\t// in\ntag_16:\n    /* \"--CODEGEN--\":269:404   */\n  swap3\n  swap2\n  pop\n  pop\n  jump\t// out\n    /* \"--CODEGEN--\":411:483   */\ntag_17:\n  0x00\n    /* \"--CODEGEN--\":473:478   */\n  dup2\n    /* \"--CODEGEN--\":462:478   */\n  swap1\n  pop\n    /* \"--CODEGEN--\":456:483   */\n  swap2\n  swap1\n  pop\n  jump\t// out\n    /* \"--CODEGEN--\":490:609   */\ntag_14:\n  0x00\n    /* \"--CODEGEN--\":580:604   */\n  tag_20\n    /* \"--CODEGEN--\":598:603   */\n  dup3\n    /* \"--CODEGEN--\":580:604   */\n  tag_17\n  jump\t// in\ntag_20:\n    /* \"--CODEGEN--\":567:604   */\n  swap1\n  pop\n    /* \"--CODEGEN--\":561:609   */\n  swap2\n  swap1\n  pop\n  jump\t// out\n    /* \"Disney/disney.sol\":124:7921  contract Disney {\r... */\ntag_9:\n  dataSize(sub_0)\n  dup1\n  dataOffset(sub_0)\n  0x00\n  codecopy\n  0x00\n  return\nstop\n\nsub_0: assembly {\n        /* \"Disney/disney.sol\":124:7921  contract Disney {\r... */\n      mstore(0x40, 0x80)\n      jumpi(tag_1, lt(calldatasize, 0x04))\n      shr(0xe0, calldataload(0x00))\n      dup1\n      0xa2094159\n      gt\n      tag_14\n      jumpi\n      dup1\n      0xa2094159\n      eq\n      tag_8\n      jumpi\n      dup1\n      0xa9862fab\n      eq\n      tag_9\n      jumpi\n      dup1\n      0xce8f2f38\n      eq\n      tag_10\n      jumpi\n      dup1\n      0xd00df296\n      eq\n      tag_11\n      jumpi\n      dup1\n      0xe33f34a0\n      eq\n      tag_12\n      jumpi\n      dup1\n      0xf7774091\n      eq\n      tag_13\n      jumpi\n      jump(tag_1)\n    tag_14:\n      dup1\n      0x12b91846\n      eq\n      tag_2\n      jumpi\n      dup1\n      0x1fccb33c\n      eq\n      tag_3\n      jumpi\n      dup1\n      0x2076b56c\n      eq\n      tag_4\n      jumpi\n      dup1\n      0x7c1b38bf\n      eq\n      tag_5\n      jumpi\n      dup1\n      0x8da5cb5b\n      eq\n      tag_6\n      jumpi\n      dup1\n      0x9a3174a0\n      eq\n      tag_7\n      jumpi\n    tag_1:\n      0x00\n      dup1\n      revert\n        /* \"Disney/disney.sol\":6277:7918  function SubirseAtraccion(string memory _nombreAtraccion) public {\r... */\n    tag_2:\n      callvalue\n      dup1\n      iszero\n      tag_15\n      jumpi\n      0x00\n      dup1\n      revert\n    tag_15:\n      pop\n      tag_16\n      0x04\n      dup1\n      calldatasize\n      sub\n      dup2\n      add\n      swap1\n      tag_17\n      swap2\n      swap1\n      tag_18\n      jump\t// in\n    tag_17:\n      tag_19\n      jump\t// in\n    tag_16:\n      stop\n        /* \"Disney/disney.sol\":5832:6215  function AtraccionesDisponibles() public view returns (string memory) {\r... */\n    tag_3:\n      callvalue\n      dup1\n      iszero\n      tag_20\n      jumpi\n      0x00\n      dup1\n      revert\n    tag_20:\n      pop\n      tag_21\n      tag_22\n      jump\t// in\n    tag_21:\n      mload(0x40)\n      tag_23\n      swap2\n      swap1\n      tag_24\n      jump\t// in\n    tag_23:\n      mload(0x40)\n      dup1\n      swap2\n      sub\n      swap1\n      return\n        /* \"Disney/disney.sol\":3284:3711  function NuevaAtraccion(string memory _nombreAtraccion, uint _precio) public Unicamente(msg.sender) {\r... */\n    tag_4:\n      callvalue\n      dup1\n      iszero\n      tag_25\n      jumpi\n      0x00\n      dup1\n      revert\n    tag_25:\n      pop\n      tag_26\n      0x04\n      dup1\n      calldatasize\n      sub\n      dup2\n      add\n      swap1\n      tag_27\n      swap2\n      swap1\n      tag_28\n      jump\t// in\n    tag_27:\n      tag_29\n      jump\t// in\n    tag_26:\n      stop\n        /* \"Disney/disney.sol\":2257:2384  function GenerarTokens (uint _numTokens) public Unicamente(msg.sender) {\r... */\n    tag_5:\n      callvalue\n      dup1\n      iszero\n      tag_30\n      jumpi\n      0x00\n      dup1\n      revert\n    tag_30:\n      pop\n      tag_31\n      0x04\n      dup1\n      calldatasize\n      sub\n      dup2\n      add\n      swap1\n      tag_32\n      swap2\n      swap1\n      tag_33\n      jump\t// in\n    tag_32:\n      tag_34\n      jump\t// in\n    tag_31:\n      stop\n        /* \"Disney/disney.sol\":369:397  address payable public owner */\n    tag_6:\n      callvalue\n      dup1\n      iszero\n      tag_35\n      jumpi\n      0x00\n      dup1\n      revert\n    tag_35:\n      pop\n      tag_36\n      tag_37\n      jump\t// in\n    tag_36:\n      mload(0x40)\n      tag_38\n      swap2\n      swap1\n      tag_39\n      jump\t// in\n    tag_38:\n      mload(0x40)\n      dup1\n      swap2\n      sub\n      swap1\n      return\n        /* \"Disney/disney.sol\":1937:2041  function BalanceOf() public view returns (uint) {\r... */\n    tag_7:\n      callvalue\n      dup1\n      iszero\n      tag_40\n      jumpi\n      0x00\n      dup1\n      revert\n    tag_40:\n      pop\n      tag_41\n      tag_42\n      jump\t// in\n    tag_41:\n      mload(0x40)\n      tag_43\n      swap2\n      swap1\n      tag_44\n      jump\t// in\n    tag_43:\n      mload(0x40)\n      dup1\n      swap2\n      sub\n      swap1\n      return\n        /* \"Disney/disney.sol\":3753:4736  function BajarAtraccion (string memory _nombreAtraccion) public Unicamente(msg.sender) {\r... */\n    tag_8:\n      callvalue\n      dup1\n      iszero\n      tag_45\n      jumpi\n      0x00\n      dup1\n      revert\n    tag_45:\n      pop\n      tag_46\n      0x04\n      dup1\n      calldatasize\n      sub\n      dup2\n      add\n      swap1\n      tag_47\n      swap2\n      swap1\n      tag_18\n      jump\t// in\n    tag_47:\n      tag_48\n      jump\t// in\n    tag_46:\n      stop\n        /* \"Disney/disney.sol\":4782:5779  function SubirAtraccion (string memory _nombreAtraccion) public Unicamente(msg.sender) {\r... */\n    tag_9:\n      callvalue\n      dup1\n      iszero\n      tag_49\n      jumpi\n      0x00\n      dup1\n      revert\n    tag_49:\n      pop\n      tag_50\n      0x04\n      dup1\n      calldatasize\n      sub\n      dup2\n      add\n      swap1\n      tag_51\n      swap2\n      swap1\n      tag_18\n      jump\t// in\n    tag_51:\n      tag_52\n      jump\t// in\n    tag_50:\n      stop\n        /* \"Disney/disney.sol\":581:625  mapping (address => cliente) public Clientes */\n    tag_10:\n      callvalue\n      dup1\n      iszero\n      tag_53\n      jumpi\n      0x00\n      dup1\n      revert\n    tag_53:\n      pop\n      tag_54\n      0x04\n      dup1\n      calldatasize\n      sub\n      dup2\n      add\n      swap1\n      tag_55\n      swap2\n      swap1\n      tag_56\n      jump\t// in\n    tag_55:\n      tag_57\n      jump\t// in\n    tag_54:\n      mload(0x40)\n      tag_58\n      swap2\n      swap1\n      tag_44\n      jump\t// in\n    tag_58:\n      mload(0x40)\n      dup1\n      swap2\n      sub\n      swap1\n      return\n        /* \"Disney/disney.sol\":3030:3085  mapping (string => atraccion) public MappingAtracciones */\n    tag_11:\n      callvalue\n      dup1\n      iszero\n      tag_59\n      jumpi\n      0x00\n      dup1\n      revert\n    tag_59:\n      pop\n      tag_60\n      0x04\n      dup1\n      calldatasize\n      sub\n      dup2\n      add\n      swap1\n      tag_61\n      swap2\n      swap1\n      tag_18\n      jump\t// in\n    tag_61:\n      tag_62\n      jump\t// in\n    tag_60:\n      mload(0x40)\n      tag_63\n      swap4\n      swap3\n      swap2\n      swap1\n      tag_64\n      jump\t// in\n    tag_63:\n      mload(0x40)\n      dup1\n      swap2\n      sub\n      swap1\n      return\n        /* \"Disney/disney.sol\":2088:2190  function MisTokens() public view returns(uint) {\r... */\n    tag_12:\n      callvalue\n      dup1\n      iszero\n      tag_65\n      jumpi\n      0x00\n      dup1\n      revert\n    tag_65:\n      pop\n      tag_66\n      tag_67\n      jump\t// in\n    tag_66:\n      mload(0x40)\n      tag_68\n      swap2\n      swap1\n      tag_44\n      jump\t// in\n    tag_68:\n      mload(0x40)\n      dup1\n      swap2\n      sub\n      swap1\n      return\n        /* \"Disney/disney.sol\":1114:1887  function CompraTokens(uint _numTokens) public payable {\r... */\n    tag_13:\n      tag_69\n      0x04\n      dup1\n      calldatasize\n      sub\n      dup2\n      add\n      swap1\n      tag_70\n      swap2\n      swap1\n      tag_33\n      jump\t// in\n    tag_70:\n      tag_71\n      jump\t// in\n    tag_69:\n      stop\n        /* \"Disney/disney.sol\":6277:7918  function SubirseAtraccion(string memory _nombreAtraccion) public {\r... */\n    tag_19:\n        /* \"Disney/disney.sol\":6410:6430  bool atraccionExiste */\n      0x00\n        /* \"Disney/disney.sol\":6449:6473  bool atraccionDisponible */\n      dup1\n        /* \"Disney/disney.sol\":6538:6544  uint i */\n      0x00\n        /* \"Disney/disney.sol\":6533:7794  for (uint i = 0; i < Atracciones.length; i++) {\r... */\n    tag_73:\n        /* \"Disney/disney.sol\":6554:6565  Atracciones */\n      0x04\n        /* \"Disney/disney.sol\":6554:6572  Atracciones.length */\n      dup1\n      sload\n      swap1\n      pop\n        /* \"Disney/disney.sol\":6550:6551  i */\n      dup2\n        /* \"Disney/disney.sol\":6550:6572  i < Atracciones.length */\n      lt\n        /* \"Disney/disney.sol\":6533:7794  for (uint i = 0; i < Atracciones.length; i++) {\r... */\n      iszero\n      tag_74\n      jumpi\n        /* \"Disney/disney.sol\":6713:6729  _nombreAtraccion */\n      dup4\n        /* \"Disney/disney.sol\":6696:6730  abi.encodePacked(_nombreAtraccion) */\n      add(0x20, mload(0x40))\n      tag_76\n      swap2\n      swap1\n      tag_77\n      jump\t// in\n    tag_76:\n      mload(0x40)\n      0x20\n      dup2\n      dup4\n      sub\n      sub\n      dup2\n      mstore\n      swap1\n      0x40\n      mstore\n        /* \"Disney/disney.sol\":6686:6731  keccak256(abi.encodePacked(_nombreAtraccion)) */\n      dup1\n      mload\n      swap1\n      0x20\n      add\n      keccak256\n        /* \"Disney/disney.sol\":6666:6677  Atracciones */\n      0x04\n        /* \"Disney/disney.sol\":6678:6679  i */\n      dup3\n        /* \"Disney/disney.sol\":6666:6680  Atracciones[i] */\n      dup2\n      sload\n      dup2\n      lt\n      tag_78\n      jumpi\n      invalid\n    tag_78:\n      swap1\n      0x00\n      mstore\n      keccak256(0x00, 0x20)\n      add\n        /* \"Disney/disney.sol\":6649:6681  abi.encodePacked(Atracciones[i]) */\n      add(0x20, mload(0x40))\n      tag_80\n      swap2\n      swap1\n      tag_81\n      jump\t// in\n    tag_80:\n      mload(0x40)\n      0x20\n      dup2\n      dup4\n      sub\n      sub\n      dup2\n      mstore\n      swap1\n      0x40\n      mstore\n        /* \"Disney/disney.sol\":6639:6682  keccak256(abi.encodePacked(Atracciones[i])) */\n      dup1\n      mload\n      swap1\n      0x20\n      add\n      keccak256\n        /* \"Disney/disney.sol\":6639:6731  keccak256(abi.encodePacked(Atracciones[i])) == keccak256(abi.encodePacked(_nombreAtraccion)) */\n      eq\n        /* \"Disney/disney.sol\":6635:7783  if (keccak256(abi.encodePacked(Atracciones[i])) == keccak256(abi.encodePacked(_nombreAtraccion))) {\r... */\n      iszero\n      tag_82\n      jumpi\n        /* \"Disney/disney.sol\":6770:6774  true */\n      0x01\n        /* \"Disney/disney.sol\":6752:6774  atraccionExiste = true */\n      swap3\n      pop\n        /* \"Disney/disney.sol\":6850:6868  MappingAtracciones */\n      0x03\n        /* \"Disney/disney.sol\":6869:6880  Atracciones */\n      0x04\n        /* \"Disney/disney.sol\":6881:6882  i */\n      dup3\n        /* \"Disney/disney.sol\":6869:6883  Atracciones[i] */\n      dup2\n      sload\n      dup2\n      lt\n      tag_83\n      jumpi\n      invalid\n    tag_83:\n      swap1\n      0x00\n      mstore\n      keccak256(0x00, 0x20)\n      add\n        /* \"Disney/disney.sol\":6850:6884  MappingAtracciones[Atracciones[i]] */\n      mload(0x40)\n      tag_85\n      swap2\n      swap1\n      tag_81\n      jump\t// in\n    tag_85:\n      swap1\n      dup2\n      mstore\n      0x20\n      add\n      mload(0x40)\n      dup1\n      swap2\n      sub\n      swap1\n      keccak256\n        /* \"Disney/disney.sol\":6850:6891  MappingAtracciones[Atracciones[i]].estado */\n      0x02\n      add\n      0x00\n      swap1\n      sload\n      swap1\n      0x0100\n      exp\n      swap1\n      div\n      0xff\n      and\n        /* \"Disney/disney.sol\":6846:7744  if (MappingAtracciones[Atracciones[i]].estado) {\r... */\n      iszero\n      tag_86\n      jumpi\n        /* \"Disney/disney.sol\":6938:6942  true */\n      0x01\n        /* \"Disney/disney.sol\":6916:6942  atraccionDisponible = true */\n      swap2\n      pop\n        /* \"Disney/disney.sol\":7096:7107  MisTokens() */\n      tag_87\n        /* \"Disney/disney.sol\":7096:7105  MisTokens */\n      tag_67\n        /* \"Disney/disney.sol\":7096:7107  MisTokens() */\n      jump\t// in\n    tag_87:\n        /* \"Disney/disney.sol\":7052:7070  MappingAtracciones */\n      0x03\n        /* \"Disney/disney.sol\":7071:7082  Atracciones */\n      0x04\n        /* \"Disney/disney.sol\":7083:7084  i */\n      dup4\n        /* \"Disney/disney.sol\":7071:7085  Atracciones[i] */\n      dup2\n      sload\n      dup2\n      lt\n      tag_88\n      jumpi\n      invalid\n    tag_88:\n      swap1\n      0x00\n      mstore\n      keccak256(0x00, 0x20)\n      add\n        /* \"Disney/disney.sol\":7052:7086  MappingAtracciones[Atracciones[i]] */\n      mload(0x40)\n      tag_90\n      swap2\n      swap1\n      tag_81\n      jump\t// in\n    tag_90:\n      swap1\n      dup2\n      mstore\n      0x20\n      add\n      mload(0x40)\n      dup1\n      swap2\n      sub\n      swap1\n      keccak256\n        /* \"Disney/disney.sol\":7052:7093  MappingAtracciones[Atracciones[i]].precio */\n      0x01\n      add\n      sload\n        /* \"Disney/disney.sol\":7052:7107  MappingAtracciones[Atracciones[i]].precio > MisTokens() */\n      gt\n        /* \"Disney/disney.sol\":7043:7132  require (MappingAtracciones[Atracciones[i]].precio > MisTokens(), \"Tokens insuficientes\") */\n      tag_91\n      jumpi\n      mload(0x40)\n      0x08c379a000000000000000000000000000000000000000000000000000000000\n      dup2\n      mstore\n      0x04\n      add\n      tag_92\n      swap1\n      tag_93\n      jump\t// in\n    tag_92:\n      mload(0x40)\n      dup1\n      swap2\n      sub\n      swap1\n      revert\n    tag_91:\n        /* \"Disney/disney.sol\":7217:7222  token */\n      0x00\n      dup1\n      sload\n      swap1\n      0x0100\n      exp\n      swap1\n      div\n      0xffffffffffffffffffffffffffffffffffffffff\n      and\n        /* \"Disney/disney.sol\":7217:7238  token.transfer_Disney */\n      0xffffffffffffffffffffffffffffffffffffffff\n      and\n      0xef910460\n        /* \"Disney/disney.sol\":7239:7249  msg.sender */\n      caller\n        /* \"Disney/disney.sol\":7259:7263  this */\n      address\n        /* \"Disney/disney.sol\":7266:7284  MappingAtracciones */\n      0x03\n        /* \"Disney/disney.sol\":7285:7296  Atracciones */\n      0x04\n        /* \"Disney/disney.sol\":7297:7298  i */\n      dup7\n        /* \"Disney/disney.sol\":7285:7299  Atracciones[i] */\n      dup2\n      sload\n      dup2\n      lt\n      tag_94\n      jumpi\n      invalid\n    tag_94:\n      swap1\n      0x00\n      mstore\n      keccak256(0x00, 0x20)\n      add\n        /* \"Disney/disney.sol\":7266:7300  MappingAtracciones[Atracciones[i]] */\n      mload(0x40)\n      tag_96\n      swap2\n      swap1\n      tag_81\n      jump\t// in\n    tag_96:\n      swap1\n      dup2\n      mstore\n      0x20\n      add\n      mload(0x40)\n      dup1\n      swap2\n      sub\n      swap1\n      keccak256\n        /* \"Disney/disney.sol\":7266:7307  MappingAtracciones[Atracciones[i]].precio */\n      0x01\n      add\n      sload\n        /* \"Disney/disney.sol\":7217:7308  token.transfer_Disney(msg.sender, address(this), MappingAtracciones[Atracciones[i]].precio) */\n      mload(0x40)\n      dup5\n      0xffffffff\n      and\n      0xe0\n      shl\n      dup2\n      mstore\n      0x04\n      add\n      tag_97\n      swap4\n      swap3\n      swap2\n      swap1\n      tag_98\n      jump\t// in\n    tag_97:\n      0x20\n      mload(0x40)\n      dup1\n      dup4\n      sub\n      dup2\n      0x00\n      dup8\n      dup1\n      extcodesize\n      iszero\n      dup1\n      iszero\n      tag_99\n      jumpi\n      0x00\n      dup1\n      revert\n    tag_99:\n      pop\n      gas\n      call\n      iszero\n      dup1\n      iszero\n      tag_101\n      jumpi\n      returndatasize\n      0x00\n      dup1\n      returndatacopy\n      revert(0x00, returndatasize)\n    tag_101:\n      pop\n      pop\n      pop\n      pop\n      mload(0x40)\n      returndatasize\n      not(0x1f)\n      0x1f\n      dup3\n      add\n      and\n      dup3\n      add\n      dup1\n      0x40\n      mstore\n      pop\n      dup2\n      add\n      swap1\n      tag_102\n      swap2\n      swap1\n      tag_103\n      jump\t// in\n    tag_102:\n      pop\n        /* \"Disney/disney.sol\":7383:7399  HistorialCliente */\n      0x05\n        /* \"Disney/disney.sol\":7383:7411  HistorialCliente[msg.sender] */\n      0x00\n        /* \"Disney/disney.sol\":7400:7410  msg.sender */\n      caller\n        /* \"Disney/disney.sol\":7383:7411  HistorialCliente[msg.sender] */\n      0xffffffffffffffffffffffffffffffffffffffff\n      and\n      0xffffffffffffffffffffffffffffffffffffffff\n      and\n      dup2\n      mstore\n      0x20\n      add\n      swap1\n      dup2\n      mstore\n      0x20\n      add\n      0x00\n      keccak256\n        /* \"Disney/disney.sol\":7417:7428  Atracciones */\n      0x04\n        /* \"Disney/disney.sol\":7429:7430  i */\n      dup3\n        /* \"Disney/disney.sol\":7417:7431  Atracciones[i] */\n      dup2\n      sload\n      dup2\n      lt\n      tag_104\n      jumpi\n      invalid\n    tag_104:\n      swap1\n      0x00\n      mstore\n      keccak256(0x00, 0x20)\n      add\n        /* \"Disney/disney.sol\":7383:7432  HistorialCliente[msg.sender].push(Atracciones[i]) */\n      swap1\n      dup1\n      0x01\n      dup2\n      sload\n      add\n      dup1\n      dup3\n      sstore\n      dup1\n      swap2\n      pop\n      pop\n      0x01\n      swap1\n      sub\n      swap1\n      0x00\n      mstore\n      keccak256(0x00, 0x20)\n      add\n      0x00\n      swap1\n      swap2\n      swap1\n      swap2\n      swap1\n      swap2\n      pop\n      swap1\n      dup1\n      sload\n      0x01\n      dup2\n      0x01\n      and\n      iszero\n      0x0100\n      mul\n      sub\n      and\n      0x02\n      swap1\n      div\n      tag_107\n      swap3\n      swap2\n      swap1\n      tag_108\n      jump\t// in\n    tag_107:\n      pop\n        /* \"Disney/disney.sol\":7503:7537  disfruta_atraccion(Atracciones[i]) */\n      0xc13b0c39e701b0f41dde2e972f3e98e53fa01e6bc45ef606ddc7522a8e354f2d\n        /* \"Disney/disney.sol\":7522:7533  Atracciones */\n      0x04\n        /* \"Disney/disney.sol\":7534:7535  i */\n      dup3\n        /* \"Disney/disney.sol\":7522:7536  Atracciones[i] */\n      dup2\n      sload\n      dup2\n      lt\n      tag_109\n      jumpi\n      invalid\n    tag_109:\n      swap1\n      0x00\n      mstore\n      keccak256(0x00, 0x20)\n      add\n        /* \"Disney/disney.sol\":7503:7537  disfruta_atraccion(Atracciones[i]) */\n      mload(0x40)\n      tag_111\n      swap2\n      swap1\n      tag_112\n      jump\t// in\n    tag_111:\n      mload(0x40)\n      dup1\n      swap2\n      sub\n      swap1\n      log1\n        /* \"Disney/disney.sol\":6846:7744  if (MappingAtracciones[Atracciones[i]].estado) {\r... */\n      jump(tag_113)\n    tag_86:\n        /* \"Disney/disney.sol\":7649:7668  atraccionDisponible */\n      dup2\n        /* \"Disney/disney.sol\":7641:7724  require(atraccionDisponible, \"La atraccion en cuestion no se encuentra disponible\") */\n      tag_114\n      jumpi\n      mload(0x40)\n      0x08c379a000000000000000000000000000000000000000000000000000000000\n      dup2\n      mstore\n      0x04\n      add\n      tag_115\n      swap1\n      tag_116\n      jump\t// in\n    tag_115:\n      mload(0x40)\n      dup1\n      swap2\n      sub\n      swap1\n      revert\n    tag_114:\n        /* \"Disney/disney.sol\":6846:7744  if (MappingAtracciones[Atracciones[i]].estado) {\r... */\n    tag_113:\n        /* \"Disney/disney.sol\":7762:7767  break */\n      jump(tag_74)\n        /* \"Disney/disney.sol\":6635:7783  if (keccak256(abi.encodePacked(Atracciones[i])) == keccak256(abi.encodePacked(_nombreAtraccion))) {\r... */\n    tag_82:\n        /* \"Disney/disney.sol\":6574:6577  i++ */\n      dup1\n      dup1\n      0x01\n      add\n      swap2\n      pop\n      pop\n        /* \"Disney/disney.sol\":6533:7794  for (uint i = 0; i < Atracciones.length; i++) {\r... */\n      jump(tag_73)\n    tag_74:\n      pop\n        /* \"Disney/disney.sol\":7855:7870  atraccionExiste */\n      dup2\n        /* \"Disney/disney.sol\":7847:7910  require(atraccionExiste, \"La atraccion en cuestión no existe\") */\n      tag_117\n      jumpi\n      mload(0x40)\n      0x08c379a000000000000000000000000000000000000000000000000000000000\n      dup2\n      mstore\n      0x04\n      add\n      tag_118\n      swap1\n      tag_119\n      jump\t// in\n    tag_118:\n      mload(0x40)\n      dup1\n      swap2\n      sub\n      swap1\n      revert\n    tag_117:\n        /* \"Disney/disney.sol\":6277:7918  function SubirseAtraccion(string memory _nombreAtraccion) public {\r... */\n      pop\n      pop\n      pop\n      jump\t// out\n        /* \"Disney/disney.sol\":5832:6215  function AtraccionesDisponibles() public view returns (string memory) {\r... */\n    tag_22:\n        /* \"Disney/disney.sol\":5887:5900  string memory */\n      0x60\n        /* \"Disney/disney.sol\":5913:5938  string memory disponibles */\n      dup1\n        /* \"Disney/disney.sol\":5954:5960  uint i */\n      0x00\n        /* \"Disney/disney.sol\":5949:6177  for (uint i = 0; i < Atracciones.length; i++) {\r... */\n    tag_121:\n        /* \"Disney/disney.sol\":5970:5981  Atracciones */\n      0x04\n        /* \"Disney/disney.sol\":5970:5988  Atracciones.length */\n      dup1\n      sload\n      swap1\n      pop\n        /* \"Disney/disney.sol\":5966:5967  i */\n      dup2\n        /* \"Disney/disney.sol\":5966:5988  i < Atracciones.length */\n      lt\n        /* \"Disney/disney.sol\":5949:6177  for (uint i = 0; i < Atracciones.length; i++) {\r... */\n      iszero\n      tag_122\n      jumpi\n        /* \"Disney/disney.sol\":6014:6032  MappingAtracciones */\n      0x03\n        /* \"Disney/disney.sol\":6033:6044  Atracciones */\n      0x04\n        /* \"Disney/disney.sol\":6045:6046  i */\n      dup3\n        /* \"Disney/disney.sol\":6033:6047  Atracciones[i] */\n      dup2\n      sload\n      dup2\n      lt\n      tag_124\n      jumpi\n      invalid\n    tag_124:\n      swap1\n      0x00\n      mstore\n      keccak256(0x00, 0x20)\n      add\n        /* \"Disney/disney.sol\":6014:6048  MappingAtracciones[Atracciones[i]] */\n      mload(0x40)\n      tag_126\n      swap2\n      swap1\n      tag_81\n      jump\t// in\n    tag_126:\n      swap1\n      dup2\n      mstore\n      0x20\n      add\n      mload(0x40)\n      dup1\n      swap2\n      sub\n      swap1\n      keccak256\n        /* \"Disney/disney.sol\":6014:6055  MappingAtracciones[Atracciones[i]].estado */\n      0x02\n      add\n      0x00\n      swap1\n      sload\n      swap1\n      0x0100\n      exp\n      swap1\n      div\n      0xff\n      and\n        /* \"Disney/disney.sol\":6010:6166  if (MappingAtracciones[Atracciones[i]].estado) {\r... */\n      iszero\n      tag_127\n      jumpi\n        /* \"Disney/disney.sol\":6114:6125  disponibles */\n      dup2\n        /* \"Disney/disney.sol\":6134:6145  Atracciones */\n      0x04\n        /* \"Disney/disney.sol\":6146:6147  i */\n      dup3\n        /* \"Disney/disney.sol\":6134:6148  Atracciones[i] */\n      dup2\n      sload\n      dup2\n      lt\n      tag_128\n      jumpi\n      invalid\n    tag_128:\n      swap1\n      0x00\n      mstore\n      keccak256(0x00, 0x20)\n      add\n        /* \"Disney/disney.sol\":6097:6149  abi.encodePacked(disponibles, \" | \", Atracciones[i]) */\n      add(0x20, mload(0x40))\n      tag_130\n      swap3\n      swap2\n      swap1\n      tag_131\n      jump\t// in\n    tag_130:\n      mload(0x40)\n      0x20\n      dup2\n      dup4\n      sub\n      sub\n      dup2\n      mstore\n      swap1\n      0x40\n      mstore\n        /* \"Disney/disney.sol\":6076:6150  disponibles = string(abi.encodePacked(disponibles, \" | \", Atracciones[i])) */\n      swap2\n      pop\n        /* \"Disney/disney.sol\":6010:6166  if (MappingAtracciones[Atracciones[i]].estado) {\r... */\n    tag_127:\n        /* \"Disney/disney.sol\":5990:5993  i++ */\n      dup1\n      dup1\n      0x01\n      add\n      swap2\n      pop\n      pop\n        /* \"Disney/disney.sol\":5949:6177  for (uint i = 0; i < Atracciones.length; i++) {\r... */\n      jump(tag_121)\n    tag_122:\n      pop\n        /* \"Disney/disney.sol\":6196:6207  disponibles */\n      dup1\n        /* \"Disney/disney.sol\":6189:6207  return disponibles */\n      swap2\n      pop\n      pop\n        /* \"Disney/disney.sol\":5832:6215  function AtraccionesDisponibles() public view returns (string memory) {\r... */\n      swap1\n      jump\t// out\n        /* \"Disney/disney.sol\":3284:3711  function NuevaAtraccion(string memory _nombreAtraccion, uint _precio) public Unicamente(msg.sender) {\r... */\n    tag_29:\n        /* \"Disney/disney.sol\":3372:3382  msg.sender */\n      caller\n        /* \"Disney/disney.sol\":2513:2518  owner */\n      0x01\n      0x00\n      swap1\n      sload\n      swap1\n      0x0100\n      exp\n      swap1\n      div\n      0xffffffffffffffffffffffffffffffffffffffff\n      and\n        /* \"Disney/disney.sol\":2499:2518  _direccion == owner */\n      0xffffffffffffffffffffffffffffffffffffffff\n      and\n        /* \"Disney/disney.sol\":2499:2509  _direccion */\n      dup2\n        /* \"Disney/disney.sol\":2499:2518  _direccion == owner */\n      0xffffffffffffffffffffffffffffffffffffffff\n      and\n      eq\n        /* \"Disney/disney.sol\":2490:2567  require( _direccion == owner, \"No tienes permiso para ejecutar esta acción\") */\n      tag_133\n      jumpi\n      mload(0x40)\n      0x08c379a000000000000000000000000000000000000000000000000000000000\n      dup2\n      mstore\n      0x04\n      add\n      tag_134\n      swap1\n      tag_135\n      jump\t// in\n    tag_134:\n      mload(0x40)\n      dup1\n      swap2\n      sub\n      swap1\n      revert\n    tag_133:\n        /* \"Disney/disney.sol\":3472:3514  atraccion(_nombreAtraccion, _precio, true) */\n      mload(0x40)\n      dup1\n      0x60\n      add\n      0x40\n      mstore\n      dup1\n        /* \"Disney/disney.sol\":3482:3498  _nombreAtraccion */\n      dup5\n        /* \"Disney/disney.sol\":3472:3514  atraccion(_nombreAtraccion, _precio, true) */\n      dup2\n      mstore\n      0x20\n      add\n        /* \"Disney/disney.sol\":3500:3507  _precio */\n      dup4\n        /* \"Disney/disney.sol\":3472:3514  atraccion(_nombreAtraccion, _precio, true) */\n      dup2\n      mstore\n      0x20\n      add\n        /* \"Disney/disney.sol\":3509:3513  true */\n      0x01\n        /* \"Disney/disney.sol\":3472:3514  atraccion(_nombreAtraccion, _precio, true) */\n      iszero\n      iszero\n      dup2\n      mstore\n      pop\n        /* \"Disney/disney.sol\":3433:3451  MappingAtracciones */\n      0x03\n        /* \"Disney/disney.sol\":3452:3468  _nombreAtraccion */\n      dup5\n        /* \"Disney/disney.sol\":3433:3469  MappingAtracciones[_nombreAtraccion] */\n      mload(0x40)\n      tag_137\n      swap2\n      swap1\n      tag_77\n      jump\t// in\n    tag_137:\n      swap1\n      dup2\n      mstore\n      0x20\n      add\n      mload(0x40)\n      dup1\n      swap2\n      sub\n      swap1\n      keccak256\n        /* \"Disney/disney.sol\":3433:3514  MappingAtracciones[_nombreAtraccion] = atraccion(_nombreAtraccion, _precio, true) */\n      0x00\n      dup3\n      add\n      mload\n      dup2\n      0x00\n      add\n      swap1\n      dup1\n      mload\n      swap1\n      0x20\n      add\n      swap1\n      tag_138\n      swap3\n      swap2\n      swap1\n      tag_139\n      jump\t// in\n    tag_138:\n      pop\n      0x20\n      dup3\n      add\n      mload\n      dup2\n      0x01\n      add\n      sstore\n      0x40\n      dup3\n      add\n      mload\n      dup2\n      0x02\n      add\n      exp(0x0100, 0x00)\n      dup2\n      sload\n      dup2\n      0xff\n      mul\n      not\n      and\n      swap1\n      dup4\n      iszero\n      iszero\n      mul\n      or\n      swap1\n      sstore\n      pop\n      swap1\n      pop\n      pop\n        /* \"Disney/disney.sol\":3557:3568  Atracciones */\n      0x04\n        /* \"Disney/disney.sol\":3574:3590  _nombreAtraccion */\n      dup4\n        /* \"Disney/disney.sol\":3557:3591  Atracciones.push(_nombreAtraccion) */\n      swap1\n      dup1\n      0x01\n      dup2\n      sload\n      add\n      dup1\n      dup3\n      sstore\n      dup1\n      swap2\n      pop\n      pop\n      0x01\n      swap1\n      sub\n      swap1\n      0x00\n      mstore\n      keccak256(0x00, 0x20)\n      add\n      0x00\n      swap1\n      swap2\n      swap1\n      swap2\n      swap1\n      swap2\n      pop\n      swap1\n      dup1\n      mload\n      swap1\n      0x20\n      add\n      swap1\n      tag_141\n      swap3\n      swap2\n      swap1\n      tag_139\n      jump\t// in\n    tag_141:\n      pop\n        /* \"Disney/disney.sol\":3661:3703  nueva_atraccion(_nombreAtraccion, _precio) */\n      0xfc9ecd7a6c2ca96d38526a0b9cc22f2474ff8e596dd348edaab06be905ebe378\n        /* \"Disney/disney.sol\":3677:3693  _nombreAtraccion */\n      dup4\n        /* \"Disney/disney.sol\":3695:3702  _precio */\n      dup4\n        /* \"Disney/disney.sol\":3661:3703  nueva_atraccion(_nombreAtraccion, _precio) */\n      mload(0x40)\n      tag_142\n      swap3\n      swap2\n      swap1\n      tag_143\n      jump\t// in\n    tag_142:\n      mload(0x40)\n      dup1\n      swap2\n      sub\n      swap1\n      log1\n        /* \"Disney/disney.sol\":3284:3711  function NuevaAtraccion(string memory _nombreAtraccion, uint _precio) public Unicamente(msg.sender) {\r... */\n      pop\n      pop\n      pop\n      jump\t// out\n        /* \"Disney/disney.sol\":2257:2384  function GenerarTokens (uint _numTokens) public Unicamente(msg.sender) {\r... */\n    tag_34:\n        /* \"Disney/disney.sol\":2316:2326  msg.sender */\n      caller\n        /* \"Disney/disney.sol\":2513:2518  owner */\n      0x01\n      0x00\n      swap1\n      sload\n      swap1\n      0x0100\n      exp\n      swap1\n      div\n      0xffffffffffffffffffffffffffffffffffffffff\n      and\n        /* \"Disney/disney.sol\":2499:2518  _direccion == owner */\n      0xffffffffffffffffffffffffffffffffffffffff\n      and\n        /* \"Disney/disney.sol\":2499:2509  _direccion */\n      dup2\n        /* \"Disney/disney.sol\":2499:2518  _direccion == owner */\n      0xffffffffffffffffffffffffffffffffffffffff\n      and\n      eq\n        /* \"Disney/disney.sol\":2490:2567  require( _direccion == owner, \"No tienes permiso para ejecutar esta acción\") */\n      tag_145\n      jumpi\n      mload(0x40)\n      0x08c379a000000000000000000000000000000000000000000000000000000000\n      dup2\n      mstore\n      0x04\n      add\n      tag_146\n      swap1\n      tag_135\n      jump\t// in\n    tag_146:\n      mload(0x40)\n      dup1\n      swap2\n      sub\n      swap1\n      revert\n    tag_145:\n        /* \"Disney/disney.sol\":2339:2344  token */\n      0x00\n      dup1\n      sload\n      swap1\n      0x0100\n      exp\n      swap1\n      div\n      0xffffffffffffffffffffffffffffffffffffffff\n      and\n        /* \"Disney/disney.sol\":2339:2364  token.increaseTotalSupply */\n      0xffffffffffffffffffffffffffffffffffffffff\n      and\n      0x1d43cc98\n        /* \"Disney/disney.sol\":2365:2375  _numTokens */\n      dup4\n        /* \"Disney/disney.sol\":2339:2376  token.increaseTotalSupply(_numTokens) */\n      mload(0x40)\n      dup3\n      0xffffffff\n      and\n      0xe0\n      shl\n      dup2\n      mstore\n      0x04\n      add\n      tag_148\n      swap2\n      swap1\n      tag_44\n      jump\t// in\n    tag_148:\n      0x00\n      mload(0x40)\n      dup1\n      dup4\n      sub\n      dup2\n      0x00\n      dup8\n      dup1\n      extcodesize\n      iszero\n      dup1\n      iszero\n      tag_149\n      jumpi\n      0x00\n      dup1\n      revert\n    tag_149:\n      pop\n      gas\n      call\n      iszero\n      dup1\n      iszero\n      tag_151\n      jumpi\n      returndatasize\n      0x00\n      dup1\n      returndatacopy\n      revert(0x00, returndatasize)\n    tag_151:\n      pop\n      pop\n      pop\n      pop\n        /* \"Disney/disney.sol\":2257:2384  function GenerarTokens (uint _numTokens) public Unicamente(msg.sender) {\r... */\n      pop\n      pop\n      jump\t// out\n        /* \"Disney/disney.sol\":369:397  address payable public owner */\n    tag_37:\n      0x01\n      0x00\n      swap1\n      sload\n      swap1\n      0x0100\n      exp\n      swap1\n      div\n      0xffffffffffffffffffffffffffffffffffffffff\n      and\n      dup2\n      jump\t// out\n        /* \"Disney/disney.sol\":1937:2041  function BalanceOf() public view returns (uint) {\r... */\n    tag_42:\n        /* \"Disney/disney.sol\":1979:1983  uint */\n      0x00\n        /* \"Disney/disney.sol\":2003:2008  token */\n      dup1\n      0x00\n      swap1\n      sload\n      swap1\n      0x0100\n      exp\n      swap1\n      div\n      0xffffffffffffffffffffffffffffffffffffffff\n      and\n        /* \"Disney/disney.sol\":2003:2018  token.balanceOf */\n      0xffffffffffffffffffffffffffffffffffffffff\n      and\n      0x70a08231\n        /* \"Disney/disney.sol\":2027:2031  this */\n      address\n        /* \"Disney/disney.sol\":2003:2033  token.balanceOf(address(this)) */\n      mload(0x40)\n      dup3\n      0xffffffff\n      and\n      0xe0\n      shl\n      dup2\n      mstore\n      0x04\n      add\n      tag_153\n      swap2\n      swap1\n      tag_154\n      jump\t// in\n    tag_153:\n      0x20\n      mload(0x40)\n      dup1\n      dup4\n      sub\n      dup2\n      dup7\n      dup1\n      extcodesize\n      iszero\n      dup1\n      iszero\n      tag_155\n      jumpi\n      0x00\n      dup1\n      revert\n    tag_155:\n      pop\n      gas\n      staticcall\n      iszero\n      dup1\n      iszero\n      tag_157\n      jumpi\n      returndatasize\n      0x00\n      dup1\n      returndatacopy\n      revert(0x00, returndatasize)\n    tag_157:\n      pop\n      pop\n      pop\n      pop\n      mload(0x40)\n      returndatasize\n      not(0x1f)\n      0x1f\n      dup3\n      add\n      and\n      dup3\n      add\n      dup1\n      0x40\n      mstore\n      pop\n      dup2\n      add\n      swap1\n      tag_158\n      swap2\n      swap1\n      tag_159\n      jump\t// in\n    tag_158:\n        /* \"Disney/disney.sol\":1996:2033  return token.balanceOf(address(this)) */\n      swap1\n      pop\n        /* \"Disney/disney.sol\":1937:2041  function BalanceOf() public view returns (uint) {\r... */\n      swap1\n      jump\t// out\n        /* \"Disney/disney.sol\":3753:4736  function BajarAtraccion (string memory _nombreAtraccion) public Unicamente(msg.sender) {\r... */\n    tag_48:\n        /* \"Disney/disney.sol\":3828:3838  msg.sender */\n      caller\n        /* \"Disney/disney.sol\":2513:2518  owner */\n      0x01\n      0x00\n      swap1\n      sload\n      swap1\n      0x0100\n      exp\n      swap1\n      div\n      0xffffffffffffffffffffffffffffffffffffffff\n      and\n        /* \"Disney/disney.sol\":2499:2518  _direccion == owner */\n      0xffffffffffffffffffffffffffffffffffffffff\n      and\n        /* \"Disney/disney.sol\":2499:2509  _direccion */\n      dup2\n        /* \"Disney/disney.sol\":2499:2518  _direccion == owner */\n      0xffffffffffffffffffffffffffffffffffffffff\n      and\n      eq\n        /* \"Disney/disney.sol\":2490:2567  require( _direccion == owner, \"No tienes permiso para ejecutar esta acción\") */\n      tag_161\n      jumpi\n      mload(0x40)\n      0x08c379a000000000000000000000000000000000000000000000000000000000\n      dup2\n      mstore\n      0x04\n      add\n      tag_162\n      swap1\n      tag_135\n      jump\t// in\n    tag_162:\n      mload(0x40)\n      dup1\n      swap2\n      sub\n      swap1\n      revert\n    tag_161:\n        /* \"Disney/disney.sol\":3851:3860  bool alta */\n      0x00\n        /* \"Disney/disney.sol\":3946:3952  uint i */\n      dup1\n        /* \"Disney/disney.sol\":3941:4567  for (uint i = 0; i < Atracciones.length; i++) {\r... */\n    tag_164:\n        /* \"Disney/disney.sol\":3962:3973  Atracciones */\n      0x04\n        /* \"Disney/disney.sol\":3962:3980  Atracciones.length */\n      dup1\n      sload\n      swap1\n      pop\n        /* \"Disney/disney.sol\":3958:3959  i */\n      dup2\n        /* \"Disney/disney.sol\":3958:3980  i < Atracciones.length */\n      lt\n        /* \"Disney/disney.sol\":3941:4567  for (uint i = 0; i < Atracciones.length; i++) {\r... */\n      iszero\n      tag_165\n      jumpi\n        /* \"Disney/disney.sol\":4080:4096  _nombreAtraccion */\n      dup4\n        /* \"Disney/disney.sol\":4063:4097  abi.encodePacked(_nombreAtraccion) */\n      add(0x20, mload(0x40))\n      tag_167\n      swap2\n      swap1\n      tag_77\n      jump\t// in\n    tag_167:\n      mload(0x40)\n      0x20\n      dup2\n      dup4\n      sub\n      sub\n      dup2\n      mstore\n      swap1\n      0x40\n      mstore\n        /* \"Disney/disney.sol\":4053:4098  keccak256(abi.encodePacked(_nombreAtraccion)) */\n      dup1\n      mload\n      swap1\n      0x20\n      add\n      keccak256\n        /* \"Disney/disney.sol\":4033:4044  Atracciones */\n      0x04\n        /* \"Disney/disney.sol\":4045:4046  i */\n      dup3\n        /* \"Disney/disney.sol\":4033:4047  Atracciones[i] */\n      dup2\n      sload\n      dup2\n      lt\n      tag_168\n      jumpi\n      invalid\n    tag_168:\n      swap1\n      0x00\n      mstore\n      keccak256(0x00, 0x20)\n      add\n        /* \"Disney/disney.sol\":4016:4048  abi.encodePacked(Atracciones[i]) */\n      add(0x20, mload(0x40))\n      tag_170\n      swap2\n      swap1\n      tag_81\n      jump\t// in\n    tag_170:\n      mload(0x40)\n      0x20\n      dup2\n      dup4\n      sub\n      sub\n      dup2\n      mstore\n      swap1\n      0x40\n      mstore\n        /* \"Disney/disney.sol\":4006:4049  keccak256(abi.encodePacked(Atracciones[i])) */\n      dup1\n      mload\n      swap1\n      0x20\n      add\n      keccak256\n        /* \"Disney/disney.sol\":4006:4098  keccak256(abi.encodePacked(Atracciones[i])) == keccak256(abi.encodePacked(_nombreAtraccion)) */\n      eq\n        /* \"Disney/disney.sol\":4002:4556  if (keccak256(abi.encodePacked(Atracciones[i])) == keccak256(abi.encodePacked(_nombreAtraccion))) {\r... */\n      iszero\n      tag_171\n      jumpi\n        /* \"Disney/disney.sol\":4126:4130  true */\n      0x01\n        /* \"Disney/disney.sol\":4119:4130  alta = true */\n      swap2\n      pop\n        /* \"Disney/disney.sol\":4153:4171  MappingAtracciones */\n      0x03\n        /* \"Disney/disney.sol\":4172:4188  _nombreAtraccion */\n      dup5\n        /* \"Disney/disney.sol\":4153:4189  MappingAtracciones[_nombreAtraccion] */\n      mload(0x40)\n      tag_172\n      swap2\n      swap1\n      tag_77\n      jump\t// in\n    tag_172:\n      swap1\n      dup2\n      mstore\n      0x20\n      add\n      mload(0x40)\n      dup1\n      swap2\n      sub\n      swap1\n      keccak256\n        /* \"Disney/disney.sol\":4153:4196  MappingAtracciones[_nombreAtraccion].estado */\n      0x02\n      add\n      0x00\n      swap1\n      sload\n      swap1\n      0x0100\n      exp\n      swap1\n      div\n      0xff\n      and\n        /* \"Disney/disney.sol\":4149:4517  if (MappingAtracciones[_nombreAtraccion].estado) {\r... */\n      iszero\n      tag_173\n      jumpi\n        /* \"Disney/disney.sol\":4328:4333  false */\n      0x00\n        /* \"Disney/disney.sol\":4282:4300  MappingAtracciones */\n      0x03\n        /* \"Disney/disney.sol\":4301:4317  _nombreAtraccion */\n      dup6\n        /* \"Disney/disney.sol\":4282:4318  MappingAtracciones[_nombreAtraccion] */\n      mload(0x40)\n      tag_174\n      swap2\n      swap1\n      tag_77\n      jump\t// in\n    tag_174:\n      swap1\n      dup2\n      mstore\n      0x20\n      add\n      mload(0x40)\n      dup1\n      swap2\n      sub\n      swap1\n      keccak256\n        /* \"Disney/disney.sol\":4282:4325  MappingAtracciones[_nombreAtraccion].estado */\n      0x02\n      add\n      0x00\n        /* \"Disney/disney.sol\":4282:4333  MappingAtracciones[_nombreAtraccion].estado = false */\n      0x0100\n      exp\n      dup2\n      sload\n      dup2\n      0xff\n      mul\n      not\n      and\n      swap1\n      dup4\n      iszero\n      iszero\n      mul\n      or\n      swap1\n      sstore\n      pop\n        /* \"Disney/disney.sol\":4149:4517  if (MappingAtracciones[_nombreAtraccion].estado) {\r... */\n      jump(tag_175)\n    tag_173:\n        /* \"Disney/disney.sol\":4390:4408  MappingAtracciones */\n      0x03\n        /* \"Disney/disney.sol\":4409:4425  _nombreAtraccion */\n      dup5\n        /* \"Disney/disney.sol\":4390:4426  MappingAtracciones[_nombreAtraccion] */\n      mload(0x40)\n      tag_176\n      swap2\n      swap1\n      tag_77\n      jump\t// in\n    tag_176:\n      swap1\n      dup2\n      mstore\n      0x20\n      add\n      mload(0x40)\n      dup1\n      swap2\n      sub\n      swap1\n      keccak256\n        /* \"Disney/disney.sol\":4390:4433  MappingAtracciones[_nombreAtraccion].estado */\n      0x02\n      add\n      0x00\n      swap1\n      sload\n      swap1\n      0x0100\n      exp\n      swap1\n      div\n      0xff\n      and\n        /* \"Disney/disney.sol\":4382:4497  require(MappingAtracciones[_nombreAtraccion].estado, \"No se puede dar de baja a una atraccion que ya esta de baja\") */\n      tag_177\n      jumpi\n      mload(0x40)\n      0x08c379a000000000000000000000000000000000000000000000000000000000\n      dup2\n      mstore\n      0x04\n      add\n      tag_178\n      swap1\n      tag_179\n      jump\t// in\n    tag_178:\n      mload(0x40)\n      dup1\n      swap2\n      sub\n      swap1\n      revert\n    tag_177:\n        /* \"Disney/disney.sol\":4149:4517  if (MappingAtracciones[_nombreAtraccion].estado) {\r... */\n    tag_175:\n        /* \"Disney/disney.sol\":4535:4540  break */\n      jump(tag_165)\n        /* \"Disney/disney.sol\":4002:4556  if (keccak256(abi.encodePacked(Atracciones[i])) == keccak256(abi.encodePacked(_nombreAtraccion))) {\r... */\n    tag_171:\n        /* \"Disney/disney.sol\":3982:3985  i++ */\n      dup1\n      dup1\n      0x01\n      add\n      swap2\n      pop\n      pop\n        /* \"Disney/disney.sol\":3941:4567  for (uint i = 0; i < Atracciones.length; i++) {\r... */\n      jump(tag_164)\n    tag_165:\n      pop\n        /* \"Disney/disney.sol\":4585:4589  alta */\n      dup1\n        /* \"Disney/disney.sol\":4577:4647  require(alta, \"No se puede dar de baja a una atraccion que no exista\") */\n      tag_180\n      jumpi\n      mload(0x40)\n      0x08c379a000000000000000000000000000000000000000000000000000000000\n      dup2\n      mstore\n      0x04\n      add\n      tag_181\n      swap1\n      tag_182\n      jump\t// in\n    tag_181:\n      mload(0x40)\n      dup1\n      swap2\n      sub\n      swap1\n      revert\n    tag_180:\n        /* \"Disney/disney.sol\":4696:4728  baja_atraccion(_nombreAtraccion) */\n      0x24ba6c881728980191398db8dcfd8ed4f6aeb1c08df349d63f3b85075f3e86dd\n        /* \"Disney/disney.sol\":4711:4727  _nombreAtraccion */\n      dup4\n        /* \"Disney/disney.sol\":4696:4728  baja_atraccion(_nombreAtraccion) */\n      mload(0x40)\n      tag_183\n      swap2\n      swap1\n      tag_24\n      jump\t// in\n    tag_183:\n      mload(0x40)\n      dup1\n      swap2\n      sub\n      swap1\n      log1\n        /* \"Disney/disney.sol\":2578:2579  _ */\n      pop\n        /* \"Disney/disney.sol\":3753:4736  function BajarAtraccion (string memory _nombreAtraccion) public Unicamente(msg.sender) {\r... */\n      pop\n      pop\n      jump\t// out\n        /* \"Disney/disney.sol\":4782:5779  function SubirAtraccion (string memory _nombreAtraccion) public Unicamente(msg.sender) {\r... */\n    tag_52:\n        /* \"Disney/disney.sol\":4857:4867  msg.sender */\n      caller\n        /* \"Disney/disney.sol\":2513:2518  owner */\n      0x01\n      0x00\n      swap1\n      sload\n      swap1\n      0x0100\n      exp\n      swap1\n      div\n      0xffffffffffffffffffffffffffffffffffffffff\n      and\n        /* \"Disney/disney.sol\":2499:2518  _direccion == owner */\n      0xffffffffffffffffffffffffffffffffffffffff\n      and\n        /* \"Disney/disney.sol\":2499:2509  _direccion */\n      dup2\n        /* \"Disney/disney.sol\":2499:2518  _direccion == owner */\n      0xffffffffffffffffffffffffffffffffffffffff\n      and\n      eq\n        /* \"Disney/disney.sol\":2490:2567  require( _direccion == owner, \"No tienes permiso para ejecutar esta acción\") */\n      tag_185\n      jumpi\n      mload(0x40)\n      0x08c379a000000000000000000000000000000000000000000000000000000000\n      dup2\n      mstore\n      0x04\n      add\n      tag_186\n      swap1\n      tag_135\n      jump\t// in\n    tag_186:\n      mload(0x40)\n      dup1\n      swap2\n      sub\n      swap1\n      revert\n    tag_185:\n        /* \"Disney/disney.sol\":4880:4889  bool alta */\n      0x00\n        /* \"Disney/disney.sol\":4975:4981  uint i */\n      dup1\n        /* \"Disney/disney.sol\":4970:5602  for (uint i = 0; i < Atracciones.length; i++) {\r... */\n    tag_188:\n        /* \"Disney/disney.sol\":4991:5002  Atracciones */\n      0x04\n        /* \"Disney/disney.sol\":4991:5009  Atracciones.length */\n      dup1\n      sload\n      swap1\n      pop\n        /* \"Disney/disney.sol\":4987:4988  i */\n      dup2\n        /* \"Disney/disney.sol\":4987:5009  i < Atracciones.length */\n      lt\n        /* \"Disney/disney.sol\":4970:5602  for (uint i = 0; i < Atracciones.length; i++) {\r... */\n      iszero\n      tag_189\n      jumpi\n        /* \"Disney/disney.sol\":5109:5125  _nombreAtraccion */\n      dup4\n        /* \"Disney/disney.sol\":5092:5126  abi.encodePacked(_nombreAtraccion) */\n      add(0x20, mload(0x40))\n      tag_191\n      swap2\n      swap1\n      tag_77\n      jump\t// in\n    tag_191:\n      mload(0x40)\n      0x20\n      dup2\n      dup4\n      sub\n      sub\n      dup2\n      mstore\n      swap1\n      0x40\n      mstore\n        /* \"Disney/disney.sol\":5082:5127  keccak256(abi.encodePacked(_nombreAtraccion)) */\n      dup1\n      mload\n      swap1\n      0x20\n      add\n      keccak256\n        /* \"Disney/disney.sol\":5062:5073  Atracciones */\n      0x04\n        /* \"Disney/disney.sol\":5074:5075  i */\n      dup3\n        /* \"Disney/disney.sol\":5062:5076  Atracciones[i] */\n      dup2\n      sload\n      dup2\n      lt\n      tag_192\n      jumpi\n      invalid\n    tag_192:\n      swap1\n      0x00\n      mstore\n      keccak256(0x00, 0x20)\n      add\n        /* \"Disney/disney.sol\":5045:5077  abi.encodePacked(Atracciones[i]) */\n      add(0x20, mload(0x40))\n      tag_194\n      swap2\n      swap1\n      tag_81\n      jump\t// in\n    tag_194:\n      mload(0x40)\n      0x20\n      dup2\n      dup4\n      sub\n      sub\n      dup2\n      mstore\n      swap1\n      0x40\n      mstore\n        /* \"Disney/disney.sol\":5035:5078  keccak256(abi.encodePacked(Atracciones[i])) */\n      dup1\n      mload\n      swap1\n      0x20\n      add\n      keccak256\n        /* \"Disney/disney.sol\":5035:5127  keccak256(abi.encodePacked(Atracciones[i])) == keccak256(abi.encodePacked(_nombreAtraccion)) */\n      eq\n        /* \"Disney/disney.sol\":5031:5591  if (keccak256(abi.encodePacked(Atracciones[i])) == keccak256(abi.encodePacked(_nombreAtraccion))) {\r... */\n      iszero\n      tag_195\n      jumpi\n        /* \"Disney/disney.sol\":5155:5159  true */\n      0x01\n        /* \"Disney/disney.sol\":5148:5159  alta = true */\n      swap2\n      pop\n        /* \"Disney/disney.sol\":5183:5201  MappingAtracciones */\n      0x03\n        /* \"Disney/disney.sol\":5202:5218  _nombreAtraccion */\n      dup5\n        /* \"Disney/disney.sol\":5183:5219  MappingAtracciones[_nombreAtraccion] */\n      mload(0x40)\n      tag_196\n      swap2\n      swap1\n      tag_77\n      jump\t// in\n    tag_196:\n      swap1\n      dup2\n      mstore\n      0x20\n      add\n      mload(0x40)\n      dup1\n      swap2\n      sub\n      swap1\n      keccak256\n        /* \"Disney/disney.sol\":5183:5226  MappingAtracciones[_nombreAtraccion].estado */\n      0x02\n      add\n      0x00\n      swap1\n      sload\n      swap1\n      0x0100\n      exp\n      swap1\n      div\n      0xff\n      and\n        /* \"Disney/disney.sol\":5178:5552  if (!MappingAtracciones[_nombreAtraccion].estado) {\r... */\n      tag_197\n      jumpi\n        /* \"Disney/disney.sol\":5358:5362  true */\n      0x01\n        /* \"Disney/disney.sol\":5312:5330  MappingAtracciones */\n      0x03\n        /* \"Disney/disney.sol\":5331:5347  _nombreAtraccion */\n      dup6\n        /* \"Disney/disney.sol\":5312:5348  MappingAtracciones[_nombreAtraccion] */\n      mload(0x40)\n      tag_198\n      swap2\n      swap1\n      tag_77\n      jump\t// in\n    tag_198:\n      swap1\n      dup2\n      mstore\n      0x20\n      add\n      mload(0x40)\n      dup1\n      swap2\n      sub\n      swap1\n      keccak256\n        /* \"Disney/disney.sol\":5312:5355  MappingAtracciones[_nombreAtraccion].estado */\n      0x02\n      add\n      0x00\n        /* \"Disney/disney.sol\":5312:5362  MappingAtracciones[_nombreAtraccion].estado = true */\n      0x0100\n      exp\n      dup2\n      sload\n      dup2\n      0xff\n      mul\n      not\n      and\n      swap1\n      dup4\n      iszero\n      iszero\n      mul\n      or\n      swap1\n      sstore\n      pop\n        /* \"Disney/disney.sol\":5178:5552  if (!MappingAtracciones[_nombreAtraccion].estado) {\r... */\n      jump(tag_199)\n    tag_197:\n        /* \"Disney/disney.sol\":5420:5438  MappingAtracciones */\n      0x03\n        /* \"Disney/disney.sol\":5439:5455  _nombreAtraccion */\n      dup5\n        /* \"Disney/disney.sol\":5420:5456  MappingAtracciones[_nombreAtraccion] */\n      mload(0x40)\n      tag_200\n      swap2\n      swap1\n      tag_77\n      jump\t// in\n    tag_200:\n      swap1\n      dup2\n      mstore\n      0x20\n      add\n      mload(0x40)\n      dup1\n      swap2\n      sub\n      swap1\n      keccak256\n        /* \"Disney/disney.sol\":5420:5463  MappingAtracciones[_nombreAtraccion].estado */\n      0x02\n      add\n      0x00\n      swap1\n      sload\n      swap1\n      0x0100\n      exp\n      swap1\n      div\n      0xff\n      and\n        /* \"Disney/disney.sol\":5419:5463  !MappingAtracciones[_nombreAtraccion].estado */\n      iszero\n        /* \"Disney/disney.sol\":5411:5532  require(!MappingAtracciones[_nombreAtraccion].estado, \"No se puede dar de alta a una atraccion que ya esta dada de alta\") */\n      tag_201\n      jumpi\n      mload(0x40)\n      0x08c379a000000000000000000000000000000000000000000000000000000000\n      dup2\n      mstore\n      0x04\n      add\n      tag_202\n      swap1\n      tag_203\n      jump\t// in\n    tag_202:\n      mload(0x40)\n      dup1\n      swap2\n      sub\n      swap1\n      revert\n    tag_201:\n        /* \"Disney/disney.sol\":5178:5552  if (!MappingAtracciones[_nombreAtraccion].estado) {\r... */\n    tag_199:\n        /* \"Disney/disney.sol\":5570:5575  break */\n      jump(tag_189)\n        /* \"Disney/disney.sol\":5031:5591  if (keccak256(abi.encodePacked(Atracciones[i])) == keccak256(abi.encodePacked(_nombreAtraccion))) {\r... */\n    tag_195:\n        /* \"Disney/disney.sol\":5011:5014  i++ */\n      dup1\n      dup1\n      0x01\n      add\n      swap2\n      pop\n      pop\n        /* \"Disney/disney.sol\":4970:5602  for (uint i = 0; i < Atracciones.length; i++) {\r... */\n      jump(tag_188)\n    tag_189:\n      pop\n        /* \"Disney/disney.sol\":5620:5624  alta */\n      dup1\n        /* \"Disney/disney.sol\":5612:5682  require(alta, \"No se puede dar de alta a una atraccion que no exista\") */\n      tag_204\n      jumpi\n      mload(0x40)\n      0x08c379a000000000000000000000000000000000000000000000000000000000\n      dup2\n      mstore\n      0x04\n      add\n      tag_205\n      swap1\n      tag_206\n      jump\t// in\n    tag_205:\n      mload(0x40)\n      dup1\n      swap2\n      sub\n      swap1\n      revert\n    tag_204:\n        /* \"Disney/disney.sol\":5739:5771  baja_atraccion(_nombreAtraccion) */\n      0x24ba6c881728980191398db8dcfd8ed4f6aeb1c08df349d63f3b85075f3e86dd\n        /* \"Disney/disney.sol\":5754:5770  _nombreAtraccion */\n      dup4\n        /* \"Disney/disney.sol\":5739:5771  baja_atraccion(_nombreAtraccion) */\n      mload(0x40)\n      tag_207\n      swap2\n      swap1\n      tag_24\n      jump\t// in\n    tag_207:\n      mload(0x40)\n      dup1\n      swap2\n      sub\n      swap1\n      log1\n        /* \"Disney/disney.sol\":2578:2579  _ */\n      pop\n        /* \"Disney/disney.sol\":4782:5779  function SubirAtraccion (string memory _nombreAtraccion) public Unicamente(msg.sender) {\r... */\n      pop\n      pop\n      jump\t// out\n        /* \"Disney/disney.sol\":581:625  mapping (address => cliente) public Clientes */\n    tag_57:\n      mstore(0x20, 0x02)\n      dup1\n      0x00\n      mstore\n      keccak256(0x00, 0x40)\n      0x00\n      swap2\n      pop\n      swap1\n      pop\n      dup1\n      0x00\n      add\n      sload\n      swap1\n      pop\n      dup2\n      jump\t// out\n        /* \"Disney/disney.sol\":3030:3085  mapping (string => atraccion) public MappingAtracciones */\n    tag_62:\n      0x03\n      dup2\n      dup1\n      mload\n      0x20\n      dup2\n      add\n      dup3\n      add\n      dup1\n      mload\n      dup5\n      dup3\n      mstore\n      0x20\n      dup4\n      add\n      0x20\n      dup6\n      add\n      keccak256\n      dup2\n      dup4\n      mstore\n      dup1\n      swap6\n      pop\n      pop\n      pop\n      pop\n      pop\n      pop\n      0x00\n      swap2\n      pop\n      swap1\n      pop\n      dup1\n      0x00\n      add\n      dup1\n      sload\n      0x01\n      dup2\n      0x01\n      and\n      iszero\n      0x0100\n      mul\n      sub\n      and\n      0x02\n      swap1\n      div\n      dup1\n      0x1f\n      add\n      0x20\n      dup1\n      swap2\n      div\n      mul\n      0x20\n      add\n      mload(0x40)\n      swap1\n      dup2\n      add\n      0x40\n      mstore\n      dup1\n      swap3\n      swap2\n      swap1\n      dup2\n      dup2\n      mstore\n      0x20\n      add\n      dup3\n      dup1\n      sload\n      0x01\n      dup2\n      0x01\n      and\n      iszero\n      0x0100\n      mul\n      sub\n      and\n      0x02\n      swap1\n      div\n      dup1\n      iszero\n      tag_208\n      jumpi\n      dup1\n      0x1f\n      lt\n      tag_209\n      jumpi\n      0x0100\n      dup1\n      dup4\n      sload\n      div\n      mul\n      dup4\n      mstore\n      swap2\n      0x20\n      add\n      swap2\n      jump(tag_208)\n    tag_209:\n      dup3\n      add\n      swap2\n      swap1\n      0x00\n      mstore\n      keccak256(0x00, 0x20)\n      swap1\n    tag_210:\n      dup2\n      sload\n      dup2\n      mstore\n      swap1\n      0x01\n      add\n      swap1\n      0x20\n      add\n      dup1\n      dup4\n      gt\n      tag_210\n      jumpi\n      dup3\n      swap1\n      sub\n      0x1f\n      and\n      dup3\n      add\n      swap2\n    tag_208:\n      pop\n      pop\n      pop\n      pop\n      pop\n      swap1\n      dup1\n      0x01\n      add\n      sload\n      swap1\n      dup1\n      0x02\n      add\n      0x00\n      swap1\n      sload\n      swap1\n      0x0100\n      exp\n      swap1\n      div\n      0xff\n      and\n      swap1\n      pop\n      dup4\n      jump\t// out\n        /* \"Disney/disney.sol\":2088:2190  function MisTokens() public view returns(uint) {\r... */\n    tag_67:\n        /* \"Disney/disney.sol\":2129:2133  uint */\n      0x00\n        /* \"Disney/disney.sol\":2155:2160  token */\n      dup1\n      0x00\n      swap1\n      sload\n      swap1\n      0x0100\n      exp\n      swap1\n      div\n      0xffffffffffffffffffffffffffffffffffffffff\n      and\n        /* \"Disney/disney.sol\":2155:2170  token.balanceOf */\n      0xffffffffffffffffffffffffffffffffffffffff\n      and\n      0x70a08231\n        /* \"Disney/disney.sol\":2171:2181  msg.sender */\n      caller\n        /* \"Disney/disney.sol\":2155:2182  token.balanceOf(msg.sender) */\n      mload(0x40)\n      dup3\n      0xffffffff\n      and\n      0xe0\n      shl\n      dup2\n      mstore\n      0x04\n      add\n      tag_212\n      swap2\n      swap1\n      tag_213\n      jump\t// in\n    tag_212:\n      0x20\n      mload(0x40)\n      dup1\n      dup4\n      sub\n      dup2\n      dup7\n      dup1\n      extcodesize\n      iszero\n      dup1\n      iszero\n      tag_214\n      jumpi\n      0x00\n      dup1\n      revert\n    tag_214:\n      pop\n      gas\n      staticcall\n      iszero\n      dup1\n      iszero\n      tag_216\n      jumpi\n      returndatasize\n      0x00\n      dup1\n      returndatacopy\n      revert(0x00, returndatasize)\n    tag_216:\n      pop\n      pop\n      pop\n      pop\n      mload(0x40)\n      returndatasize\n      not(0x1f)\n      0x1f\n      dup3\n      add\n      and\n      dup3\n      add\n      dup1\n      0x40\n      mstore\n      pop\n      dup2\n      add\n      swap1\n      tag_217\n      swap2\n      swap1\n      tag_159\n      jump\t// in\n    tag_217:\n        /* \"Disney/disney.sol\":2148:2182  return token.balanceOf(msg.sender) */\n      swap1\n      pop\n        /* \"Disney/disney.sol\":2088:2190  function MisTokens() public view returns(uint) {\r... */\n      swap1\n      jump\t// out\n        /* \"Disney/disney.sol\":1114:1887  function CompraTokens(uint _numTokens) public payable {\r... */\n    tag_71:\n        /* \"Disney/disney.sol\":1233:1243  uint coste */\n      0x00\n        /* \"Disney/disney.sol\":1246:1270  PrecioTokens(_numTokens) */\n      tag_219\n        /* \"Disney/disney.sol\":1259:1269  _numTokens */\n      dup3\n        /* \"Disney/disney.sol\":1246:1258  PrecioTokens */\n      tag_220\n        /* \"Disney/disney.sol\":1246:1270  PrecioTokens(_numTokens) */\n      jump\t// in\n    tag_219:\n        /* \"Disney/disney.sol\":1233:1270  uint coste = PrecioTokens(_numTokens) */\n      swap1\n      pop\n        /* \"Disney/disney.sol\":1362:1367  coste */\n      dup1\n        /* \"Disney/disney.sol\":1349:1358  msg.value */\n      callvalue\n        /* \"Disney/disney.sol\":1349:1367  msg.value >= coste */\n      lt\n      iszero\n        /* \"Disney/disney.sol\":1340:1402  require (msg.value >= coste, \"Cantidad de ether insuficiente\") */\n      tag_221\n      jumpi\n      mload(0x40)\n      0x08c379a000000000000000000000000000000000000000000000000000000000\n      dup2\n      mstore\n      0x04\n      add\n      tag_222\n      swap1\n      tag_223\n      jump\t// in\n    tag_222:\n      mload(0x40)\n      dup1\n      swap2\n      sub\n      swap1\n      revert\n    tag_221:\n        /* \"Disney/disney.sol\":1511:1521  _numTokens */\n      dup2\n        /* \"Disney/disney.sol\":1496:1507  BalanceOf() */\n      tag_224\n        /* \"Disney/disney.sol\":1496:1505  BalanceOf */\n      tag_42\n        /* \"Disney/disney.sol\":1496:1507  BalanceOf() */\n      jump\t// in\n    tag_224:\n        /* \"Disney/disney.sol\":1496:1521  BalanceOf() >= _numTokens */\n      lt\n      iszero\n        /* \"Disney/disney.sol\":1487:1558  require (BalanceOf() >= _numTokens, \"Cantidad de tokens insuficientes\") */\n      tag_225\n      jumpi\n      mload(0x40)\n      0x08c379a000000000000000000000000000000000000000000000000000000000\n      dup2\n      mstore\n      0x04\n      add\n      tag_226\n      swap1\n      tag_227\n      jump\t// in\n    tag_226:\n      mload(0x40)\n      dup1\n      swap2\n      sub\n      swap1\n      revert\n    tag_225:\n        /* \"Disney/disney.sol\":1625:1635  msg.sender */\n      caller\n        /* \"Disney/disney.sol\":1625:1644  msg.sender.transfer */\n      0xffffffffffffffffffffffffffffffffffffffff\n      and\n        /* \"Disney/disney.sol\":1625:1663  msg.sender.transfer(msg.value - coste) */\n      0x08fc\n        /* \"Disney/disney.sol\":1657:1662  coste */\n      dup3\n        /* \"Disney/disney.sol\":1645:1654  msg.value */\n      callvalue\n        /* \"Disney/disney.sol\":1645:1662  msg.value - coste */\n      sub\n        /* \"Disney/disney.sol\":1625:1663  msg.sender.transfer(msg.value - coste) */\n      swap1\n      dup2\n      iszero\n      mul\n      swap1\n      mload(0x40)\n      0x00\n      mload(0x40)\n      dup1\n      dup4\n      sub\n      dup2\n      dup6\n      dup9\n      dup9\n      call\n      swap4\n      pop\n      pop\n      pop\n      pop\n      iszero\n      dup1\n      iszero\n      tag_229\n      jumpi\n      returndatasize\n      0x00\n      dup1\n      returndatacopy\n      revert(0x00, returndatasize)\n    tag_229:\n      pop\n        /* \"Disney/disney.sol\":1718:1723  token */\n      0x00\n      dup1\n      sload\n      swap1\n      0x0100\n      exp\n      swap1\n      div\n      0xffffffffffffffffffffffffffffffffffffffff\n      and\n        /* \"Disney/disney.sol\":1718:1732  token.transfer */\n      0xffffffffffffffffffffffffffffffffffffffff\n      and\n      0xa9059cbb\n        /* \"Disney/disney.sol\":1733:1743  msg.sender */\n      caller\n        /* \"Disney/disney.sol\":1745:1755  _numTokens */\n      dup5\n        /* \"Disney/disney.sol\":1718:1756  token.transfer(msg.sender, _numTokens) */\n      mload(0x40)\n      dup4\n      0xffffffff\n      and\n      0xe0\n      shl\n      dup2\n      mstore\n      0x04\n      add\n      tag_230\n      swap3\n      swap2\n      swap1\n      tag_231\n      jump\t// in\n    tag_230:\n      0x20\n      mload(0x40)\n      dup1\n      dup4\n      sub\n      dup2\n      0x00\n      dup8\n      dup1\n      extcodesize\n      iszero\n      dup1\n      iszero\n      tag_232\n      jumpi\n      0x00\n      dup1\n      revert\n    tag_232:\n      pop\n      gas\n      call\n      iszero\n      dup1\n      iszero\n      tag_234\n      jumpi\n      returndatasize\n      0x00\n      dup1\n      returndatacopy\n      revert(0x00, returndatasize)\n    tag_234:\n      pop\n      pop\n      pop\n      pop\n      mload(0x40)\n      returndatasize\n      not(0x1f)\n      0x1f\n      dup3\n      add\n      and\n      dup3\n      add\n      dup1\n      0x40\n      mstore\n      pop\n      dup2\n      add\n      swap1\n      tag_235\n      swap2\n      swap1\n      tag_103\n      jump\t// in\n    tag_235:\n      pop\n        /* \"Disney/disney.sol\":1869:1879  _numTokens */\n      dup2\n        /* \"Disney/disney.sol\":1830:1838  Clientes */\n      0x02\n        /* \"Disney/disney.sol\":1830:1850  Clientes[msg.sender] */\n      0x00\n        /* \"Disney/disney.sol\":1839:1849  msg.sender */\n      caller\n        /* \"Disney/disney.sol\":1830:1850  Clientes[msg.sender] */\n      0xffffffffffffffffffffffffffffffffffffffff\n      and\n      0xffffffffffffffffffffffffffffffffffffffff\n      and\n      dup2\n      mstore\n      0x20\n      add\n      swap1\n      dup2\n      mstore\n      0x20\n      add\n      0x00\n      keccak256\n        /* \"Disney/disney.sol\":1830:1865  Clientes[msg.sender].token_comprado */\n      0x00\n      add\n      0x00\n        /* \"Disney/disney.sol\":1830:1879  Clientes[msg.sender].token_comprado += _numTokens */\n      dup3\n      dup3\n      sload\n      add\n      swap3\n      pop\n      pop\n      dup2\n      swap1\n      sstore\n      pop\n        /* \"Disney/disney.sol\":1114:1887  function CompraTokens(uint _numTokens) public payable {\r... */\n      pop\n      pop\n      jump\t// out\n        /* \"Disney/disney.sol\":919:1060  function PrecioTokens(uint _numTokens) internal pure returns (uint) {\r... */\n    tag_220:\n        /* \"Disney/disney.sol\":981:985  uint */\n      0x00\n        /* \"Disney/disney.sol\":1044:1051  1 ether */\n      0x0de0b6b3a7640000\n        /* \"Disney/disney.sol\":1030:1040  _numTokens */\n      dup3\n        /* \"Disney/disney.sol\":1030:1052  _numTokens * (1 ether) */\n      mul\n        /* \"Disney/disney.sol\":1023:1052  return _numTokens * (1 ether) */\n      swap1\n      pop\n        /* \"Disney/disney.sol\":919:1060  function PrecioTokens(uint _numTokens) internal pure returns (uint) {\r... */\n      swap2\n      swap1\n      pop\n      jump\t// out\n    tag_108:\n      dup3\n      dup1\n      sload\n      0x01\n      dup2\n      0x01\n      and\n      iszero\n      0x0100\n      mul\n      sub\n      and\n      0x02\n      swap1\n      div\n      swap1\n      0x00\n      mstore\n      keccak256(0x00, 0x20)\n      swap1\n      0x1f\n      add\n      0x20\n      swap1\n      div\n      dup2\n      add\n      swap3\n      dup3\n      0x1f\n      lt\n      tag_238\n      jumpi\n      dup1\n      sload\n      dup6\n      sstore\n      jump(tag_237)\n    tag_238:\n      dup3\n      dup1\n      add\n      0x01\n      add\n      dup6\n      sstore\n      dup3\n      iszero\n      tag_237\n      jumpi\n      0x00\n      mstore\n      keccak256(0x00, 0x20)\n      swap2\n      0x1f\n      add\n      0x20\n      swap1\n      div\n      dup3\n      add\n    tag_239:\n      dup3\n      dup2\n      gt\n      iszero\n      tag_240\n      jumpi\n      dup3\n      sload\n      dup3\n      sstore\n      swap2\n      0x01\n      add\n      swap2\n      swap1\n      0x01\n      add\n      swap1\n      jump(tag_239)\n    tag_240:\n    tag_237:\n      pop\n      swap1\n      pop\n      tag_241\n      swap2\n      swap1\n      tag_242\n      jump\t// in\n    tag_241:\n      pop\n      swap1\n      jump\t// out\n    tag_139:\n      dup3\n      dup1\n      sload\n      0x01\n      dup2\n      0x01\n      and\n      iszero\n      0x0100\n      mul\n      sub\n      and\n      0x02\n      swap1\n      div\n      swap1\n      0x00\n      mstore\n      keccak256(0x00, 0x20)\n      swap1\n      0x1f\n      add\n      0x20\n      swap1\n      div\n      dup2\n      add\n      swap3\n      dup3\n      0x1f\n      lt\n      tag_244\n      jumpi\n      dup1\n      mload\n      not(0xff)\n      and\n      dup4\n      dup1\n      add\n      or\n      dup6\n      sstore\n      jump(tag_243)\n    tag_244:\n      dup3\n      dup1\n      add\n      0x01\n      add\n      dup6\n      sstore\n      dup3\n      iszero\n      tag_243\n      jumpi\n      swap2\n      dup3\n      add\n    tag_245:\n      dup3\n      dup2\n      gt\n      iszero\n      tag_246\n      jumpi\n      dup3\n      mload\n      dup3\n      sstore\n      swap2\n      0x20\n      add\n      swap2\n      swap1\n      0x01\n      add\n      swap1\n      jump(tag_245)\n    tag_246:\n    tag_243:\n      pop\n      swap1\n      pop\n      tag_247\n      swap2\n      swap1\n      tag_242\n      jump\t// in\n    tag_247:\n      pop\n      swap1\n      jump\t// out\n    tag_242:\n    tag_248:\n      dup1\n      dup3\n      gt\n      iszero\n      tag_249\n      jumpi\n      0x00\n      dup2\n      0x00\n      swap1\n      sstore\n      pop\n      0x01\n      add\n      jump(tag_248)\n    tag_249:\n      pop\n      swap1\n      jump\t// out\n        /* \"--CODEGEN--\":5:135   */\n    tag_251:\n      0x00\n        /* \"--CODEGEN--\":85:91   */\n      dup2\n        /* \"--CODEGEN--\":72:92   */\n      calldataload\n        /* \"--CODEGEN--\":63:92   */\n      swap1\n      pop\n        /* \"--CODEGEN--\":97:130   */\n      tag_253\n        /* \"--CODEGEN--\":124:129   */\n      dup2\n        /* \"--CODEGEN--\":97:130   */\n      tag_254\n      jump\t// in\n    tag_253:\n        /* \"--CODEGEN--\":57:135   */\n      swap3\n      swap2\n      pop\n      pop\n      jump\t// out\n        /* \"--CODEGEN--\":142:270   */\n    tag_255:\n      0x00\n        /* \"--CODEGEN--\":223:229   */\n      dup2\n        /* \"--CODEGEN--\":217:230   */\n      mload\n        /* \"--CODEGEN--\":208:230   */\n      swap1\n      pop\n        /* \"--CODEGEN--\":235:265   */\n      tag_257\n        /* \"--CODEGEN--\":259:264   */\n      dup2\n        /* \"--CODEGEN--\":235:265   */\n      tag_258\n      jump\t// in\n    tag_257:\n        /* \"--CODEGEN--\":202:270   */\n      swap3\n      swap2\n      pop\n      pop\n      jump\t// out\n        /* \"--CODEGEN--\":278:720   */\n    tag_259:\n      0x00\n        /* \"--CODEGEN--\":380:383   */\n      dup3\n        /* \"--CODEGEN--\":373:377   */\n      0x1f\n        /* \"--CODEGEN--\":365:371   */\n      dup4\n        /* \"--CODEGEN--\":361:378   */\n      add\n        /* \"--CODEGEN--\":357:384   */\n      slt\n        /* \"--CODEGEN--\":347:349   */\n      tag_261\n      jumpi\n        /* \"--CODEGEN--\":398:399   */\n      0x00\n        /* \"--CODEGEN--\":395:396   */\n      dup1\n        /* \"--CODEGEN--\":388:400   */\n      revert\n        /* \"--CODEGEN--\":347:349   */\n    tag_261:\n        /* \"--CODEGEN--\":435:441   */\n      dup2\n        /* \"--CODEGEN--\":422:442   */\n      calldataload\n        /* \"--CODEGEN--\":457:522   */\n      tag_262\n        /* \"--CODEGEN--\":472:521   */\n      tag_263\n        /* \"--CODEGEN--\":514:520   */\n      dup3\n        /* \"--CODEGEN--\":472:521   */\n      tag_264\n      jump\t// in\n    tag_263:\n        /* \"--CODEGEN--\":457:522   */\n      tag_265\n      jump\t// in\n    tag_262:\n        /* \"--CODEGEN--\":448:522   */\n      swap2\n      pop\n        /* \"--CODEGEN--\":542:548   */\n      dup1\n        /* \"--CODEGEN--\":535:540   */\n      dup3\n        /* \"--CODEGEN--\":528:549   */\n      mstore\n        /* \"--CODEGEN--\":578:582   */\n      0x20\n        /* \"--CODEGEN--\":570:576   */\n      dup4\n        /* \"--CODEGEN--\":566:583   */\n      add\n        /* \"--CODEGEN--\":611:615   */\n      0x20\n        /* \"--CODEGEN--\":604:609   */\n      dup4\n        /* \"--CODEGEN--\":600:616   */\n      add\n        /* \"--CODEGEN--\":646:649   */\n      dup6\n        /* \"--CODEGEN--\":637:643   */\n      dup4\n        /* \"--CODEGEN--\":632:635   */\n      dup4\n        /* \"--CODEGEN--\":628:644   */\n      add\n        /* \"--CODEGEN--\":625:650   */\n      gt\n        /* \"--CODEGEN--\":622:624   */\n      iszero\n      tag_266\n      jumpi\n        /* \"--CODEGEN--\":663:664   */\n      0x00\n        /* \"--CODEGEN--\":660:661   */\n      dup1\n        /* \"--CODEGEN--\":653:665   */\n      revert\n        /* \"--CODEGEN--\":622:624   */\n    tag_266:\n        /* \"--CODEGEN--\":673:714   */\n      tag_267\n        /* \"--CODEGEN--\":707:713   */\n      dup4\n        /* \"--CODEGEN--\":702:705   */\n      dup3\n        /* \"--CODEGEN--\":697:700   */\n      dup5\n        /* \"--CODEGEN--\":673:714   */\n      tag_268\n      jump\t// in\n    tag_267:\n        /* \"--CODEGEN--\":340:720   */\n      pop\n      pop\n      pop\n      swap3\n      swap2\n      pop\n      pop\n      jump\t// out\n        /* \"--CODEGEN--\":728:858   */\n    tag_269:\n      0x00\n        /* \"--CODEGEN--\":808:814   */\n      dup2\n        /* \"--CODEGEN--\":795:815   */\n      calldataload\n        /* \"--CODEGEN--\":786:815   */\n      swap1\n      pop\n        /* \"--CODEGEN--\":820:853   */\n      tag_271\n        /* \"--CODEGEN--\":847:852   */\n      dup2\n        /* \"--CODEGEN--\":820:853   */\n      tag_272\n      jump\t// in\n    tag_271:\n        /* \"--CODEGEN--\":780:858   */\n      swap3\n      swap2\n      pop\n      pop\n      jump\t// out\n        /* \"--CODEGEN--\":865:999   */\n    tag_273:\n      0x00\n        /* \"--CODEGEN--\":949:955   */\n      dup2\n        /* \"--CODEGEN--\":943:956   */\n      mload\n        /* \"--CODEGEN--\":934:956   */\n      swap1\n      pop\n        /* \"--CODEGEN--\":961:994   */\n      tag_275\n        /* \"--CODEGEN--\":988:993   */\n      dup2\n        /* \"--CODEGEN--\":961:994   */\n      tag_272\n      jump\t// in\n    tag_275:\n        /* \"--CODEGEN--\":928:999   */\n      swap3\n      swap2\n      pop\n      pop\n      jump\t// out\n        /* \"--CODEGEN--\":1006:1247   */\n    tag_56:\n      0x00\n        /* \"--CODEGEN--\":1110:1112   */\n      0x20\n        /* \"--CODEGEN--\":1098:1107   */\n      dup3\n        /* \"--CODEGEN--\":1089:1096   */\n      dup5\n        /* \"--CODEGEN--\":1085:1108   */\n      sub\n        /* \"--CODEGEN--\":1081:1113   */\n      slt\n        /* \"--CODEGEN--\":1078:1080   */\n      iszero\n      tag_277\n      jumpi\n        /* \"--CODEGEN--\":1126:1127   */\n      0x00\n        /* \"--CODEGEN--\":1123:1124   */\n      dup1\n        /* \"--CODEGEN--\":1116:1128   */\n      revert\n        /* \"--CODEGEN--\":1078:1080   */\n    tag_277:\n        /* \"--CODEGEN--\":1161:1162   */\n      0x00\n        /* \"--CODEGEN--\":1178:1231   */\n      tag_278\n        /* \"--CODEGEN--\":1223:1230   */\n      dup5\n        /* \"--CODEGEN--\":1214:1220   */\n      dup3\n        /* \"--CODEGEN--\":1203:1212   */\n      dup6\n        /* \"--CODEGEN--\":1199:1221   */\n      add\n        /* \"--CODEGEN--\":1178:1231   */\n      tag_251\n      jump\t// in\n    tag_278:\n        /* \"--CODEGEN--\":1168:1231   */\n      swap2\n      pop\n        /* \"--CODEGEN--\":1140:1237   */\n      pop\n        /* \"--CODEGEN--\":1072:1247   */\n      swap3\n      swap2\n      pop\n      pop\n      jump\t// out\n        /* \"--CODEGEN--\":1254:1511   */\n    tag_103:\n      0x00\n        /* \"--CODEGEN--\":1366:1368   */\n      0x20\n        /* \"--CODEGEN--\":1354:1363   */\n      dup3\n        /* \"--CODEGEN--\":1345:1352   */\n      dup5\n        /* \"--CODEGEN--\":1341:1364   */\n      sub\n        /* \"--CODEGEN--\":1337:1369   */\n      slt\n        /* \"--CODEGEN--\":1334:1336   */\n      iszero\n      tag_280\n      jumpi\n        /* \"--CODEGEN--\":1382:1383   */\n      0x00\n        /* \"--CODEGEN--\":1379:1380   */\n      dup1\n        /* \"--CODEGEN--\":1372:1384   */\n      revert\n        /* \"--CODEGEN--\":1334:1336   */\n    tag_280:\n        /* \"--CODEGEN--\":1417:1418   */\n      0x00\n        /* \"--CODEGEN--\":1434:1495   */\n      tag_281\n        /* \"--CODEGEN--\":1487:1494   */\n      dup5\n        /* \"--CODEGEN--\":1478:1484   */\n      dup3\n        /* \"--CODEGEN--\":1467:1476   */\n      dup6\n        /* \"--CODEGEN--\":1463:1485   */\n      add\n        /* \"--CODEGEN--\":1434:1495   */\n      tag_255\n      jump\t// in\n    tag_281:\n        /* \"--CODEGEN--\":1424:1495   */\n      swap2\n      pop\n        /* \"--CODEGEN--\":1396:1501   */\n      pop\n        /* \"--CODEGEN--\":1328:1511   */\n      swap3\n      swap2\n      pop\n      pop\n      jump\t// out\n        /* \"--CODEGEN--\":1518:1865   */\n    tag_18:\n      0x00\n        /* \"--CODEGEN--\":1632:1634   */\n      0x20\n        /* \"--CODEGEN--\":1620:1629   */\n      dup3\n        /* \"--CODEGEN--\":1611:1618   */\n      dup5\n        /* \"--CODEGEN--\":1607:1630   */\n      sub\n        /* \"--CODEGEN--\":1603:1635   */\n      slt\n        /* \"--CODEGEN--\":1600:1602   */\n      iszero\n      tag_283\n      jumpi\n        /* \"--CODEGEN--\":1648:1649   */\n      0x00\n        /* \"--CODEGEN--\":1645:1646   */\n      dup1\n        /* \"--CODEGEN--\":1638:1650   */\n      revert\n        /* \"--CODEGEN--\":1600:1602   */\n    tag_283:\n        /* \"--CODEGEN--\":1711:1712   */\n      0x00\n        /* \"--CODEGEN--\":1700:1709   */\n      dup3\n        /* \"--CODEGEN--\":1696:1713   */\n      add\n        /* \"--CODEGEN--\":1683:1714   */\n      calldataload\n        /* \"--CODEGEN--\":1734:1752   */\n      0xffffffffffffffff\n        /* \"--CODEGEN--\":1726:1732   */\n      dup2\n        /* \"--CODEGEN--\":1723:1753   */\n      gt\n        /* \"--CODEGEN--\":1720:1722   */\n      iszero\n      tag_284\n      jumpi\n        /* \"--CODEGEN--\":1766:1767   */\n      0x00\n        /* \"--CODEGEN--\":1763:1764   */\n      dup1\n        /* \"--CODEGEN--\":1756:1768   */\n      revert\n        /* \"--CODEGEN--\":1720:1722   */\n    tag_284:\n        /* \"--CODEGEN--\":1786:1849   */\n      tag_285\n        /* \"--CODEGEN--\":1841:1848   */\n      dup5\n        /* \"--CODEGEN--\":1832:1838   */\n      dup3\n        /* \"--CODEGEN--\":1821:1830   */\n      dup6\n        /* \"--CODEGEN--\":1817:1839   */\n      add\n        /* \"--CODEGEN--\":1786:1849   */\n      tag_259\n      jump\t// in\n    tag_285:\n        /* \"--CODEGEN--\":1776:1849   */\n      swap2\n      pop\n        /* \"--CODEGEN--\":1662:1855   */\n      pop\n        /* \"--CODEGEN--\":1594:1865   */\n      swap3\n      swap2\n      pop\n      pop\n      jump\t// out\n        /* \"--CODEGEN--\":1872:2344   */\n    tag_28:\n      0x00\n      dup1\n        /* \"--CODEGEN--\":2003:2005   */\n      0x40\n        /* \"--CODEGEN--\":1991:2000   */\n      dup4\n        /* \"--CODEGEN--\":1982:1989   */\n      dup6\n        /* \"--CODEGEN--\":1978:2001   */\n      sub\n        /* \"--CODEGEN--\":1974:2006   */\n      slt\n        /* \"--CODEGEN--\":1971:1973   */\n      iszero\n      tag_287\n      jumpi\n        /* \"--CODEGEN--\":2019:2020   */\n      0x00\n        /* \"--CODEGEN--\":2016:2017   */\n      dup1\n        /* \"--CODEGEN--\":2009:2021   */\n      revert\n        /* \"--CODEGEN--\":1971:1973   */\n    tag_287:\n        /* \"--CODEGEN--\":2082:2083   */\n      0x00\n        /* \"--CODEGEN--\":2071:2080   */\n      dup4\n        /* \"--CODEGEN--\":2067:2084   */\n      add\n        /* \"--CODEGEN--\":2054:2085   */\n      calldataload\n        /* \"--CODEGEN--\":2105:2123   */\n      0xffffffffffffffff\n        /* \"--CODEGEN--\":2097:2103   */\n      dup2\n        /* \"--CODEGEN--\":2094:2124   */\n      gt\n        /* \"--CODEGEN--\":2091:2093   */\n      iszero\n      tag_288\n      jumpi\n        /* \"--CODEGEN--\":2137:2138   */\n      0x00\n        /* \"--CODEGEN--\":2134:2135   */\n      dup1\n        /* \"--CODEGEN--\":2127:2139   */\n      revert\n        /* \"--CODEGEN--\":2091:2093   */\n    tag_288:\n        /* \"--CODEGEN--\":2157:2220   */\n      tag_289\n        /* \"--CODEGEN--\":2212:2219   */\n      dup6\n        /* \"--CODEGEN--\":2203:2209   */\n      dup3\n        /* \"--CODEGEN--\":2192:2201   */\n      dup7\n        /* \"--CODEGEN--\":2188:2210   */\n      add\n        /* \"--CODEGEN--\":2157:2220   */\n      tag_259\n      jump\t// in\n    tag_289:\n        /* \"--CODEGEN--\":2147:2220   */\n      swap3\n      pop\n        /* \"--CODEGEN--\":2033:2226   */\n      pop\n        /* \"--CODEGEN--\":2257:2259   */\n      0x20\n        /* \"--CODEGEN--\":2275:2328   */\n      tag_290\n        /* \"--CODEGEN--\":2320:2327   */\n      dup6\n        /* \"--CODEGEN--\":2311:2317   */\n      dup3\n        /* \"--CODEGEN--\":2300:2309   */\n      dup7\n        /* \"--CODEGEN--\":2296:2318   */\n      add\n        /* \"--CODEGEN--\":2275:2328   */\n      tag_269\n      jump\t// in\n    tag_290:\n        /* \"--CODEGEN--\":2265:2328   */\n      swap2\n      pop\n        /* \"--CODEGEN--\":2236:2334   */\n      pop\n        /* \"--CODEGEN--\":1965:2344   */\n      swap3\n      pop\n      swap3\n      swap1\n      pop\n      jump\t// out\n        /* \"--CODEGEN--\":2351:2592   */\n    tag_33:\n      0x00\n        /* \"--CODEGEN--\":2455:2457   */\n      0x20\n        /* \"--CODEGEN--\":2443:2452   */\n      dup3\n        /* \"--CODEGEN--\":2434:2441   */\n      dup5\n        /* \"--CODEGEN--\":2430:2453   */\n      sub\n        /* \"--CODEGEN--\":2426:2458   */\n      slt\n        /* \"--CODEGEN--\":2423:2425   */\n      iszero\n      tag_292\n      jumpi\n        /* \"--CODEGEN--\":2471:2472   */\n      0x00\n        /* \"--CODEGEN--\":2468:2469   */\n      dup1\n        /* \"--CODEGEN--\":2461:2473   */\n      revert\n        /* \"--CODEGEN--\":2423:2425   */\n    tag_292:\n        /* \"--CODEGEN--\":2506:2507   */\n      0x00\n        /* \"--CODEGEN--\":2523:2576   */\n      tag_293\n        /* \"--CODEGEN--\":2568:2575   */\n      dup5\n        /* \"--CODEGEN--\":2559:2565   */\n      dup3\n        /* \"--CODEGEN--\":2548:2557   */\n      dup6\n        /* \"--CODEGEN--\":2544:2566   */\n      add\n        /* \"--CODEGEN--\":2523:2576   */\n      tag_269\n      jump\t// in\n    tag_293:\n        /* \"--CODEGEN--\":2513:2576   */\n      swap2\n      pop\n        /* \"--CODEGEN--\":2485:2582   */\n      pop\n        /* \"--CODEGEN--\":2417:2592   */\n      swap3\n      swap2\n      pop\n      pop\n      jump\t// out\n        /* \"--CODEGEN--\":2599:2862   */\n    tag_159:\n      0x00\n        /* \"--CODEGEN--\":2714:2716   */\n      0x20\n        /* \"--CODEGEN--\":2702:2711   */\n      dup3\n        /* \"--CODEGEN--\":2693:2700   */\n      dup5\n        /* \"--CODEGEN--\":2689:2712   */\n      sub\n        /* \"--CODEGEN--\":2685:2717   */\n      slt\n        /* \"--CODEGEN--\":2682:2684   */\n      iszero\n      tag_295\n      jumpi\n        /* \"--CODEGEN--\":2730:2731   */\n      0x00\n        /* \"--CODEGEN--\":2727:2728   */\n      dup1\n        /* \"--CODEGEN--\":2720:2732   */\n      revert\n        /* \"--CODEGEN--\":2682:2684   */\n    tag_295:\n        /* \"--CODEGEN--\":2765:2766   */\n      0x00\n        /* \"--CODEGEN--\":2782:2846   */\n      tag_296\n        /* \"--CODEGEN--\":2838:2845   */\n      dup5\n        /* \"--CODEGEN--\":2829:2835   */\n      dup3\n        /* \"--CODEGEN--\":2818:2827   */\n      dup6\n        /* \"--CODEGEN--\":2814:2836   */\n      add\n        /* \"--CODEGEN--\":2782:2846   */\n      tag_273\n      jump\t// in\n    tag_296:\n        /* \"--CODEGEN--\":2772:2846   */\n      swap2\n      pop\n        /* \"--CODEGEN--\":2744:2852   */\n      pop\n        /* \"--CODEGEN--\":2676:2862   */\n      swap3\n      swap2\n      pop\n      pop\n      jump\t// out\n        /* \"--CODEGEN--\":2869:3011   */\n    tag_297:\n        /* \"--CODEGEN--\":2960:3005   */\n      tag_299\n        /* \"--CODEGEN--\":2999:3004   */\n      dup2\n        /* \"--CODEGEN--\":2960:3005   */\n      tag_300\n      jump\t// in\n    tag_299:\n        /* \"--CODEGEN--\":2955:2958   */\n      dup3\n        /* \"--CODEGEN--\":2948:3006   */\n      mstore\n        /* \"--CODEGEN--\":2942:3011   */\n      pop\n      pop\n      jump\t// out\n        /* \"--CODEGEN--\":3018:3155   */\n    tag_301:\n        /* \"--CODEGEN--\":3117:3149   */\n      tag_303\n        /* \"--CODEGEN--\":3143:3148   */\n      dup2\n        /* \"--CODEGEN--\":3117:3149   */\n      tag_304\n      jump\t// in\n    tag_303:\n        /* \"--CODEGEN--\":3112:3115   */\n      dup3\n        /* \"--CODEGEN--\":3105:3150   */\n      mstore\n        /* \"--CODEGEN--\":3099:3155   */\n      pop\n      pop\n      jump\t// out\n        /* \"--CODEGEN--\":3162:3275   */\n    tag_305:\n        /* \"--CODEGEN--\":3245:3269   */\n      tag_307\n        /* \"--CODEGEN--\":3263:3268   */\n      dup2\n        /* \"--CODEGEN--\":3245:3269   */\n      tag_308\n      jump\t// in\n    tag_307:\n        /* \"--CODEGEN--\":3240:3243   */\n      dup3\n        /* \"--CODEGEN--\":3233:3270   */\n      mstore\n        /* \"--CODEGEN--\":3227:3275   */\n      pop\n      pop\n      jump\t// out\n        /* \"--CODEGEN--\":3282:3386   */\n    tag_309:\n        /* \"--CODEGEN--\":3359:3380   */\n      tag_311\n        /* \"--CODEGEN--\":3374:3379   */\n      dup2\n        /* \"--CODEGEN--\":3359:3380   */\n      tag_312\n      jump\t// in\n    tag_311:\n        /* \"--CODEGEN--\":3354:3357   */\n      dup3\n        /* \"--CODEGEN--\":3347:3381   */\n      mstore\n        /* \"--CODEGEN--\":3341:3386   */\n      pop\n      pop\n      jump\t// out\n        /* \"--CODEGEN--\":3393:3740   */\n    tag_313:\n      0x00\n        /* \"--CODEGEN--\":3505:3544   */\n      tag_315\n        /* \"--CODEGEN--\":3538:3543   */\n      dup3\n        /* \"--CODEGEN--\":3505:3544   */\n      tag_316\n      jump\t// in\n    tag_315:\n        /* \"--CODEGEN--\":3556:3627   */\n      tag_317\n        /* \"--CODEGEN--\":3620:3626   */\n      dup2\n        /* \"--CODEGEN--\":3615:3618   */\n      dup6\n        /* \"--CODEGEN--\":3556:3627   */\n      tag_318\n      jump\t// in\n    tag_317:\n        /* \"--CODEGEN--\":3549:3627   */\n      swap4\n      pop\n        /* \"--CODEGEN--\":3632:3684   */\n      tag_319\n        /* \"--CODEGEN--\":3677:3683   */\n      dup2\n        /* \"--CODEGEN--\":3672:3675   */\n      dup6\n        /* \"--CODEGEN--\":3665:3669   */\n      0x20\n        /* \"--CODEGEN--\":3658:3663   */\n      dup7\n        /* \"--CODEGEN--\":3654:3670   */\n      add\n        /* \"--CODEGEN--\":3632:3684   */\n      tag_320\n      jump\t// in\n    tag_319:\n        /* \"--CODEGEN--\":3705:3734   */\n      tag_321\n        /* \"--CODEGEN--\":3727:3733   */\n      dup2\n        /* \"--CODEGEN--\":3705:3734   */\n      tag_322\n      jump\t// in\n    tag_321:\n        /* \"--CODEGEN--\":3700:3703   */\n      dup5\n        /* \"--CODEGEN--\":3696:3735   */\n      add\n        /* \"--CODEGEN--\":3689:3735   */\n      swap2\n      pop\n        /* \"--CODEGEN--\":3485:3740   */\n      pop\n      swap3\n      swap2\n      pop\n      pop\n      jump\t// out\n        /* \"--CODEGEN--\":3747:4107   */\n    tag_323:\n      0x00\n        /* \"--CODEGEN--\":3877:3916   */\n      tag_325\n        /* \"--CODEGEN--\":3910:3915   */\n      dup3\n        /* \"--CODEGEN--\":3877:3916   */\n      tag_316\n      jump\t// in\n    tag_325:\n        /* \"--CODEGEN--\":3928:4017   */\n      tag_326\n        /* \"--CODEGEN--\":4010:4016   */\n      dup2\n        /* \"--CODEGEN--\":4005:4008   */\n      dup6\n        /* \"--CODEGEN--\":3928:4017   */\n      tag_327\n      jump\t// in\n    tag_326:\n        /* \"--CODEGEN--\":3921:4017   */\n      swap4\n      pop\n        /* \"--CODEGEN--\":4022:4074   */\n      tag_328\n        /* \"--CODEGEN--\":4067:4073   */\n      dup2\n        /* \"--CODEGEN--\":4062:4065   */\n      dup6\n        /* \"--CODEGEN--\":4055:4059   */\n      0x20\n        /* \"--CODEGEN--\":4048:4053   */\n      dup7\n        /* \"--CODEGEN--\":4044:4060   */\n      add\n        /* \"--CODEGEN--\":4022:4074   */\n      tag_320\n      jump\t// in\n    tag_328:\n        /* \"--CODEGEN--\":4095:4101   */\n      dup1\n        /* \"--CODEGEN--\":4090:4093   */\n      dup5\n        /* \"--CODEGEN--\":4086:4102   */\n      add\n        /* \"--CODEGEN--\":4079:4102   */\n      swap2\n      pop\n        /* \"--CODEGEN--\":3857:4107   */\n      pop\n      swap3\n      swap2\n      pop\n      pop\n      jump\t// out\n        /* \"--CODEGEN--\":4139:4962   */\n    tag_329:\n      0x00\n        /* \"--CODEGEN--\":4258:4263   */\n      dup2\n        /* \"--CODEGEN--\":4252:4264   */\n      sload\n        /* \"--CODEGEN--\":4292:4293   */\n      0x01\n        /* \"--CODEGEN--\":4281:4290   */\n      dup2\n        /* \"--CODEGEN--\":4277:4294   */\n      and\n        /* \"--CODEGEN--\":4305:4306   */\n      0x00\n        /* \"--CODEGEN--\":4300:4548   */\n      dup2\n      eq\n      tag_332\n      jumpi\n        /* \"--CODEGEN--\":4559:4560   */\n      0x01\n        /* \"--CODEGEN--\":4554:4956   */\n      dup2\n      eq\n      tag_333\n      jumpi\n        /* \"--CODEGEN--\":4270:4956   */\n      jump(tag_331)\n        /* \"--CODEGEN--\":4300:4548   */\n    tag_332:\n        /* \"--CODEGEN--\":4378:4382   */\n      0x7f\n        /* \"--CODEGEN--\":4374:4375   */\n      0x02\n        /* \"--CODEGEN--\":4363:4372   */\n      dup4\n        /* \"--CODEGEN--\":4359:4376   */\n      div\n        /* \"--CODEGEN--\":4355:4383   */\n      and\n        /* \"--CODEGEN--\":4397:4468   */\n      tag_334\n        /* \"--CODEGEN--\":4461:4467   */\n      dup2\n        /* \"--CODEGEN--\":4456:4459   */\n      dup8\n        /* \"--CODEGEN--\":4397:4468   */\n      tag_318\n      jump\t// in\n    tag_334:\n        /* \"--CODEGEN--\":4390:4468   */\n      swap6\n      pop\n        /* \"--CODEGEN--\":4506:4510   */\n      0xff\n        /* \"--CODEGEN--\":4502:4511   */\n      not\n        /* \"--CODEGEN--\":4491:4500   */\n      dup4\n        /* \"--CODEGEN--\":4487:4512   */\n      and\n        /* \"--CODEGEN--\":4482:4485   */\n      dup7\n        /* \"--CODEGEN--\":4475:4513   */\n      mstore\n        /* \"--CODEGEN--\":4536:4540   */\n      0x20\n        /* \"--CODEGEN--\":4531:4534   */\n      dup7\n        /* \"--CODEGEN--\":4527:4541   */\n      add\n        /* \"--CODEGEN--\":4520:4541   */\n      swap4\n      pop\n        /* \"--CODEGEN--\":4307:4548   */\n      pop\n        /* \"--CODEGEN--\":4300:4548   */\n      jump(tag_331)\n        /* \"--CODEGEN--\":4554:4956   */\n    tag_333:\n        /* \"--CODEGEN--\":4623:4624   */\n      0x02\n        /* \"--CODEGEN--\":4612:4621   */\n      dup3\n        /* \"--CODEGEN--\":4608:4625   */\n      div\n        /* \"--CODEGEN--\":4639:4710   */\n      tag_335\n        /* \"--CODEGEN--\":4703:4709   */\n      dup2\n        /* \"--CODEGEN--\":4698:4701   */\n      dup8\n        /* \"--CODEGEN--\":4639:4710   */\n      tag_318\n      jump\t// in\n    tag_335:\n        /* \"--CODEGEN--\":4632:4710   */\n      swap6\n      pop\n        /* \"--CODEGEN--\":4732:4770   */\n      tag_336\n        /* \"--CODEGEN--\":4764:4769   */\n      dup6\n        /* \"--CODEGEN--\":4732:4770   */\n      tag_337\n      jump\t// in\n    tag_336:\n        /* \"--CODEGEN--\":4786:4787   */\n      0x00\n        /* \"--CODEGEN--\":4794:4924   */\n    tag_338:\n        /* \"--CODEGEN--\":4808:4814   */\n      dup3\n        /* \"--CODEGEN--\":4805:4806   */\n      dup2\n        /* \"--CODEGEN--\":4802:4815   */\n      lt\n        /* \"--CODEGEN--\":4794:4924   */\n      iszero\n      tag_340\n      jumpi\n        /* \"--CODEGEN--\":4873:4880   */\n      dup2\n        /* \"--CODEGEN--\":4867:4881   */\n      sload\n        /* \"--CODEGEN--\":4863:4864   */\n      dup2\n        /* \"--CODEGEN--\":4858:4861   */\n      dup10\n        /* \"--CODEGEN--\":4854:4865   */\n      add\n        /* \"--CODEGEN--\":4847:4882   */\n      mstore\n        /* \"--CODEGEN--\":4914:4915   */\n      0x01\n        /* \"--CODEGEN--\":4905:4912   */\n      dup3\n        /* \"--CODEGEN--\":4901:4916   */\n      add\n        /* \"--CODEGEN--\":4890:4916   */\n      swap2\n      pop\n        /* \"--CODEGEN--\":4830:4834   */\n      0x20\n        /* \"--CODEGEN--\":4827:4828   */\n      dup2\n        /* \"--CODEGEN--\":4823:4835   */\n      add\n        /* \"--CODEGEN--\":4818:4835   */\n      swap1\n      pop\n        /* \"--CODEGEN--\":4794:4924   */\n      jump(tag_338)\n    tag_340:\n        /* \"--CODEGEN--\":4947:4948   */\n      dup1\n        /* \"--CODEGEN--\":4942:4945   */\n      dup9\n        /* \"--CODEGEN--\":4938:4949   */\n      add\n        /* \"--CODEGEN--\":4931:4949   */\n      swap6\n      pop\n        /* \"--CODEGEN--\":4561:4956   */\n      pop\n      pop\n      pop\n        /* \"--CODEGEN--\":4270:4956   */\n    tag_331:\n      pop\n        /* \"--CODEGEN--\":4228:4962   */\n      pop\n      swap3\n      swap2\n      pop\n      pop\n      jump\t// out\n        /* \"--CODEGEN--\":4995:5879   */\n    tag_341:\n      0x00\n        /* \"--CODEGEN--\":5132:5137   */\n      dup2\n        /* \"--CODEGEN--\":5126:5138   */\n      sload\n        /* \"--CODEGEN--\":5166:5167   */\n      0x01\n        /* \"--CODEGEN--\":5155:5164   */\n      dup2\n        /* \"--CODEGEN--\":5151:5168   */\n      and\n        /* \"--CODEGEN--\":5179:5180   */\n      0x00\n        /* \"--CODEGEN--\":5174:5442   */\n      dup2\n      eq\n      tag_344\n      jumpi\n        /* \"--CODEGEN--\":5453:5454   */\n      0x01\n        /* \"--CODEGEN--\":5448:5873   */\n      dup2\n      eq\n      tag_345\n      jumpi\n        /* \"--CODEGEN--\":5144:5873   */\n      jump(tag_343)\n        /* \"--CODEGEN--\":5174:5442   */\n    tag_344:\n        /* \"--CODEGEN--\":5252:5256   */\n      0x7f\n        /* \"--CODEGEN--\":5248:5249   */\n      0x02\n        /* \"--CODEGEN--\":5237:5246   */\n      dup4\n        /* \"--CODEGEN--\":5233:5250   */\n      div\n        /* \"--CODEGEN--\":5229:5257   */\n      and\n        /* \"--CODEGEN--\":5271:5360   */\n      tag_346\n        /* \"--CODEGEN--\":5353:5359   */\n      dup2\n        /* \"--CODEGEN--\":5348:5351   */\n      dup8\n        /* \"--CODEGEN--\":5271:5360   */\n      tag_327\n      jump\t// in\n    tag_346:\n        /* \"--CODEGEN--\":5264:5360   */\n      swap6\n      pop\n        /* \"--CODEGEN--\":5398:5402   */\n      0xff\n        /* \"--CODEGEN--\":5394:5403   */\n      not\n        /* \"--CODEGEN--\":5383:5392   */\n      dup4\n        /* \"--CODEGEN--\":5379:5404   */\n      and\n        /* \"--CODEGEN--\":5374:5377   */\n      dup7\n        /* \"--CODEGEN--\":5367:5405   */\n      mstore\n        /* \"--CODEGEN--\":5428:5434   */\n      dup1\n        /* \"--CODEGEN--\":5423:5426   */\n      dup7\n        /* \"--CODEGEN--\":5419:5435   */\n      add\n        /* \"--CODEGEN--\":5412:5435   */\n      swap4\n      pop\n        /* \"--CODEGEN--\":5181:5442   */\n      pop\n        /* \"--CODEGEN--\":5174:5442   */\n      jump(tag_343)\n        /* \"--CODEGEN--\":5448:5873   */\n    tag_345:\n        /* \"--CODEGEN--\":5517:5518   */\n      0x02\n        /* \"--CODEGEN--\":5506:5515   */\n      dup3\n        /* \"--CODEGEN--\":5502:5519   */\n      div\n        /* \"--CODEGEN--\":5533:5622   */\n      tag_347\n        /* \"--CODEGEN--\":5615:5621   */\n      dup2\n        /* \"--CODEGEN--\":5610:5613   */\n      dup8\n        /* \"--CODEGEN--\":5533:5622   */\n      tag_327\n      jump\t// in\n    tag_347:\n        /* \"--CODEGEN--\":5526:5622   */\n      swap6\n      pop\n        /* \"--CODEGEN--\":5644:5682   */\n      tag_348\n        /* \"--CODEGEN--\":5676:5681   */\n      dup6\n        /* \"--CODEGEN--\":5644:5682   */\n      tag_337\n      jump\t// in\n    tag_348:\n        /* \"--CODEGEN--\":5698:5699   */\n      0x00\n        /* \"--CODEGEN--\":5706:5836   */\n    tag_349:\n        /* \"--CODEGEN--\":5720:5726   */\n      dup3\n        /* \"--CODEGEN--\":5717:5718   */\n      dup2\n        /* \"--CODEGEN--\":5714:5727   */\n      lt\n        /* \"--CODEGEN--\":5706:5836   */\n      iszero\n      tag_351\n      jumpi\n        /* \"--CODEGEN--\":5785:5792   */\n      dup2\n        /* \"--CODEGEN--\":5779:5793   */\n      sload\n        /* \"--CODEGEN--\":5775:5776   */\n      dup2\n        /* \"--CODEGEN--\":5770:5773   */\n      dup10\n        /* \"--CODEGEN--\":5766:5777   */\n      add\n        /* \"--CODEGEN--\":5759:5794   */\n      mstore\n        /* \"--CODEGEN--\":5826:5827   */\n      0x01\n        /* \"--CODEGEN--\":5817:5824   */\n      dup3\n        /* \"--CODEGEN--\":5813:5828   */\n      add\n        /* \"--CODEGEN--\":5802:5828   */\n      swap2\n      pop\n        /* \"--CODEGEN--\":5742:5746   */\n      0x20\n        /* \"--CODEGEN--\":5739:5740   */\n      dup2\n        /* \"--CODEGEN--\":5735:5747   */\n      add\n        /* \"--CODEGEN--\":5730:5747   */\n      swap1\n      pop\n        /* \"--CODEGEN--\":5706:5836   */\n      jump(tag_349)\n    tag_351:\n        /* \"--CODEGEN--\":5859:5865   */\n      dup3\n        /* \"--CODEGEN--\":5854:5857   */\n      dup9\n        /* \"--CODEGEN--\":5850:5866   */\n      add\n        /* \"--CODEGEN--\":5843:5866   */\n      swap6\n      pop\n        /* \"--CODEGEN--\":5455:5873   */\n      pop\n      pop\n      pop\n        /* \"--CODEGEN--\":5144:5873   */\n    tag_343:\n      pop\n        /* \"--CODEGEN--\":5102:5879   */\n      pop\n      swap3\n      swap2\n      pop\n      pop\n      jump\t// out\n        /* \"--CODEGEN--\":5888:6292   */\n    tag_352:\n      0x00\n        /* \"--CODEGEN--\":6048:6115   */\n      tag_354\n        /* \"--CODEGEN--\":6112:6114   */\n      0x23\n        /* \"--CODEGEN--\":6107:6110   */\n      dup4\n        /* \"--CODEGEN--\":6048:6115   */\n      tag_318\n      jump\t// in\n    tag_354:\n        /* \"--CODEGEN--\":6041:6115   */\n      swap2\n      pop\n        /* \"--CODEGEN--\":6148:6214   */\n      0x4c6120617472616363696f6e20656e20637565737469c3b36e206e6f20657869\n        /* \"--CODEGEN--\":6144:6145   */\n      0x00\n        /* \"--CODEGEN--\":6139:6142   */\n      dup4\n        /* \"--CODEGEN--\":6135:6146   */\n      add\n        /* \"--CODEGEN--\":6128:6215   */\n      mstore\n        /* \"--CODEGEN--\":6249:6254   */\n      0x7374650000000000000000000000000000000000000000000000000000000000\n        /* \"--CODEGEN--\":6244:6246   */\n      0x20\n        /* \"--CODEGEN--\":6239:6242   */\n      dup4\n        /* \"--CODEGEN--\":6235:6247   */\n      add\n        /* \"--CODEGEN--\":6228:6255   */\n      mstore\n        /* \"--CODEGEN--\":6283:6285   */\n      0x40\n        /* \"--CODEGEN--\":6278:6281   */\n      dup3\n        /* \"--CODEGEN--\":6274:6286   */\n      add\n        /* \"--CODEGEN--\":6267:6286   */\n      swap1\n      pop\n        /* \"--CODEGEN--\":6034:6292   */\n      swap2\n      swap1\n      pop\n      jump\t// out\n        /* \"--CODEGEN--\":6301:6638   */\n    tag_355:\n      0x00\n        /* \"--CODEGEN--\":6479:6563   */\n      tag_357\n        /* \"--CODEGEN--\":6561:6562   */\n      0x03\n        /* \"--CODEGEN--\":6556:6559   */\n      dup4\n        /* \"--CODEGEN--\":6479:6563   */\n      tag_327\n      jump\t// in\n    tag_357:\n        /* \"--CODEGEN--\":6472:6563   */\n      swap2\n      pop\n        /* \"--CODEGEN--\":6596:6601   */\n      0x207c200000000000000000000000000000000000000000000000000000000000\n        /* \"--CODEGEN--\":6592:6593   */\n      0x00\n        /* \"--CODEGEN--\":6587:6590   */\n      dup4\n        /* \"--CODEGEN--\":6583:6594   */\n      add\n        /* \"--CODEGEN--\":6576:6602   */\n      mstore\n        /* \"--CODEGEN--\":6630:6631   */\n      0x03\n        /* \"--CODEGEN--\":6625:6628   */\n      dup3\n        /* \"--CODEGEN--\":6621:6632   */\n      add\n        /* \"--CODEGEN--\":6614:6632   */\n      swap1\n      pop\n        /* \"--CODEGEN--\":6465:6638   */\n      swap2\n      swap1\n      pop\n      jump\t// out\n        /* \"--CODEGEN--\":6647:6967   */\n    tag_358:\n      0x00\n        /* \"--CODEGEN--\":6807:6874   */\n      tag_360\n        /* \"--CODEGEN--\":6871:6873   */\n      0x14\n        /* \"--CODEGEN--\":6866:6869   */\n      dup4\n        /* \"--CODEGEN--\":6807:6874   */\n      tag_318\n      jump\t// in\n    tag_360:\n        /* \"--CODEGEN--\":6800:6874   */\n      swap2\n      pop\n        /* \"--CODEGEN--\":6907:6929   */\n      0x546f6b656e7320696e737566696369656e746573000000000000000000000000\n        /* \"--CODEGEN--\":6903:6904   */\n      0x00\n        /* \"--CODEGEN--\":6898:6901   */\n      dup4\n        /* \"--CODEGEN--\":6894:6905   */\n      add\n        /* \"--CODEGEN--\":6887:6930   */\n      mstore\n        /* \"--CODEGEN--\":6958:6960   */\n      0x20\n        /* \"--CODEGEN--\":6953:6956   */\n      dup3\n        /* \"--CODEGEN--\":6949:6961   */\n      add\n        /* \"--CODEGEN--\":6942:6961   */\n      swap1\n      pop\n        /* \"--CODEGEN--\":6793:6967   */\n      swap2\n      swap1\n      pop\n      jump\t// out\n        /* \"--CODEGEN--\":6976:7364   */\n    tag_361:\n      0x00\n        /* \"--CODEGEN--\":7136:7203   */\n      tag_363\n        /* \"--CODEGEN--\":7200:7202   */\n      0x33\n        /* \"--CODEGEN--\":7195:7198   */\n      dup4\n        /* \"--CODEGEN--\":7136:7203   */\n      tag_318\n      jump\t// in\n    tag_363:\n        /* \"--CODEGEN--\":7129:7203   */\n      swap2\n      pop\n        /* \"--CODEGEN--\":7236:7270   */\n      0x4c6120617472616363696f6e20656e206375657374696f6e206e6f2073652065\n        /* \"--CODEGEN--\":7232:7233   */\n      0x00\n        /* \"--CODEGEN--\":7227:7230   */\n      dup4\n        /* \"--CODEGEN--\":7223:7234   */\n      add\n        /* \"--CODEGEN--\":7216:7271   */\n      mstore\n        /* \"--CODEGEN--\":7305:7326   */\n      0x6e6375656e74726120646973706f6e69626c6500000000000000000000000000\n        /* \"--CODEGEN--\":7300:7302   */\n      0x20\n        /* \"--CODEGEN--\":7295:7298   */\n      dup4\n        /* \"--CODEGEN--\":7291:7303   */\n      add\n        /* \"--CODEGEN--\":7284:7327   */\n      mstore\n        /* \"--CODEGEN--\":7355:7357   */\n      0x40\n        /* \"--CODEGEN--\":7350:7353   */\n      dup3\n        /* \"--CODEGEN--\":7346:7358   */\n      add\n        /* \"--CODEGEN--\":7339:7358   */\n      swap1\n      pop\n        /* \"--CODEGEN--\":7122:7364   */\n      swap2\n      swap1\n      pop\n      jump\t// out\n        /* \"--CODEGEN--\":7373:7703   */\n    tag_364:\n      0x00\n        /* \"--CODEGEN--\":7533:7600   */\n      tag_366\n        /* \"--CODEGEN--\":7597:7599   */\n      0x1e\n        /* \"--CODEGEN--\":7592:7595   */\n      dup4\n        /* \"--CODEGEN--\":7533:7600   */\n      tag_318\n      jump\t// in\n    tag_366:\n        /* \"--CODEGEN--\":7526:7600   */\n      swap2\n      pop\n        /* \"--CODEGEN--\":7633:7665   */\n      0x43616e746964616420646520657468657220696e737566696369656e74650000\n        /* \"--CODEGEN--\":7629:7630   */\n      0x00\n        /* \"--CODEGEN--\":7624:7627   */\n      dup4\n        /* \"--CODEGEN--\":7620:7631   */\n      add\n        /* \"--CODEGEN--\":7613:7666   */\n      mstore\n        /* \"--CODEGEN--\":7694:7696   */\n      0x20\n        /* \"--CODEGEN--\":7689:7692   */\n      dup3\n        /* \"--CODEGEN--\":7685:7697   */\n      add\n        /* \"--CODEGEN--\":7678:7697   */\n      swap1\n      pop\n        /* \"--CODEGEN--\":7519:7703   */\n      swap2\n      swap1\n      pop\n      jump\t// out\n        /* \"--CODEGEN--\":7712:8044   */\n    tag_367:\n      0x00\n        /* \"--CODEGEN--\":7872:7939   */\n      tag_369\n        /* \"--CODEGEN--\":7936:7938   */\n      0x20\n        /* \"--CODEGEN--\":7931:7934   */\n      dup4\n        /* \"--CODEGEN--\":7872:7939   */\n      tag_318\n      jump\t// in\n    tag_369:\n        /* \"--CODEGEN--\":7865:7939   */\n      swap2\n      pop\n        /* \"--CODEGEN--\":7972:8006   */\n      0x43616e746964616420646520746f6b656e7320696e737566696369656e746573\n        /* \"--CODEGEN--\":7968:7969   */\n      0x00\n        /* \"--CODEGEN--\":7963:7966   */\n      dup4\n        /* \"--CODEGEN--\":7959:7970   */\n      add\n        /* \"--CODEGEN--\":7952:8007   */\n      mstore\n        /* \"--CODEGEN--\":8035:8037   */\n      0x20\n        /* \"--CODEGEN--\":8030:8033   */\n      dup3\n        /* \"--CODEGEN--\":8026:8038   */\n      add\n        /* \"--CODEGEN--\":8019:8038   */\n      swap1\n      pop\n        /* \"--CODEGEN--\":7858:8044   */\n      swap2\n      swap1\n      pop\n      jump\t// out\n        /* \"--CODEGEN--\":8053:8449   */\n    tag_370:\n      0x00\n        /* \"--CODEGEN--\":8213:8280   */\n      tag_372\n        /* \"--CODEGEN--\":8277:8279   */\n      0x3b\n        /* \"--CODEGEN--\":8272:8275   */\n      dup4\n        /* \"--CODEGEN--\":8213:8280   */\n      tag_318\n      jump\t// in\n    tag_372:\n        /* \"--CODEGEN--\":8206:8280   */\n      swap2\n      pop\n        /* \"--CODEGEN--\":8313:8347   */\n      0x4e6f207365207075656465206461722064652062616a61206120756e61206174\n        /* \"--CODEGEN--\":8309:8310   */\n      0x00\n        /* \"--CODEGEN--\":8304:8307   */\n      dup4\n        /* \"--CODEGEN--\":8300:8311   */\n      add\n        /* \"--CODEGEN--\":8293:8348   */\n      mstore\n        /* \"--CODEGEN--\":8382:8411   */\n      0x72616363696f6e2071756520796120657374612064652062616a610000000000\n        /* \"--CODEGEN--\":8377:8379   */\n      0x20\n        /* \"--CODEGEN--\":8372:8375   */\n      dup4\n        /* \"--CODEGEN--\":8368:8380   */\n      add\n        /* \"--CODEGEN--\":8361:8412   */\n      mstore\n        /* \"--CODEGEN--\":8440:8442   */\n      0x40\n        /* \"--CODEGEN--\":8435:8438   */\n      dup3\n        /* \"--CODEGEN--\":8431:8443   */\n      add\n        /* \"--CODEGEN--\":8424:8443   */\n      swap1\n      pop\n        /* \"--CODEGEN--\":8199:8449   */\n      swap2\n      swap1\n      pop\n      jump\t// out\n        /* \"--CODEGEN--\":8458:8859   */\n    tag_373:\n      0x00\n        /* \"--CODEGEN--\":8618:8685   */\n      tag_375\n        /* \"--CODEGEN--\":8682:8684   */\n      0x40\n        /* \"--CODEGEN--\":8677:8680   */\n      dup4\n        /* \"--CODEGEN--\":8618:8685   */\n      tag_318\n      jump\t// in\n    tag_375:\n        /* \"--CODEGEN--\":8611:8685   */\n      swap2\n      pop\n        /* \"--CODEGEN--\":8718:8752   */\n      0x4e6f2073652070756564652064617220646520616c7461206120756e61206174\n        /* \"--CODEGEN--\":8714:8715   */\n      0x00\n        /* \"--CODEGEN--\":8709:8712   */\n      dup4\n        /* \"--CODEGEN--\":8705:8716   */\n      add\n        /* \"--CODEGEN--\":8698:8753   */\n      mstore\n        /* \"--CODEGEN--\":8787:8821   */\n      0x72616363696f6e207175652079612065737461206461646120646520616c7461\n        /* \"--CODEGEN--\":8782:8784   */\n      0x20\n        /* \"--CODEGEN--\":8777:8780   */\n      dup4\n        /* \"--CODEGEN--\":8773:8785   */\n      add\n        /* \"--CODEGEN--\":8766:8822   */\n      mstore\n        /* \"--CODEGEN--\":8850:8852   */\n      0x40\n        /* \"--CODEGEN--\":8845:8848   */\n      dup3\n        /* \"--CODEGEN--\":8841:8853   */\n      add\n        /* \"--CODEGEN--\":8834:8853   */\n      swap1\n      pop\n        /* \"--CODEGEN--\":8604:8859   */\n      swap2\n      swap1\n      pop\n      jump\t// out\n        /* \"--CODEGEN--\":8868:9301   */\n    tag_376:\n      0x00\n        /* \"--CODEGEN--\":9028:9095   */\n      tag_378\n        /* \"--CODEGEN--\":9092:9094   */\n      0x2c\n        /* \"--CODEGEN--\":9087:9090   */\n      dup4\n        /* \"--CODEGEN--\":9028:9095   */\n      tag_318\n      jump\t// in\n    tag_378:\n        /* \"--CODEGEN--\":9021:9095   */\n      swap2\n      pop\n        /* \"--CODEGEN--\":9128:9162   */\n      0x4e6f207469656e6573207065726d69736f207061726120656a65637574617220\n        /* \"--CODEGEN--\":9124:9125   */\n      0x00\n        /* \"--CODEGEN--\":9119:9122   */\n      dup4\n        /* \"--CODEGEN--\":9115:9126   */\n      add\n        /* \"--CODEGEN--\":9108:9163   */\n      mstore\n        /* \"--CODEGEN--\":9197:9263   */\n      0x657374612061636369c3b36e0000000000000000000000000000000000000000\n        /* \"--CODEGEN--\":9192:9194   */\n      0x20\n        /* \"--CODEGEN--\":9187:9190   */\n      dup4\n        /* \"--CODEGEN--\":9183:9195   */\n      add\n        /* \"--CODEGEN--\":9176:9264   */\n      mstore\n        /* \"--CODEGEN--\":9292:9294   */\n      0x40\n        /* \"--CODEGEN--\":9287:9290   */\n      dup3\n        /* \"--CODEGEN--\":9283:9295   */\n      add\n        /* \"--CODEGEN--\":9276:9295   */\n      swap1\n      pop\n        /* \"--CODEGEN--\":9014:9301   */\n      swap2\n      swap1\n      pop\n      jump\t// out\n        /* \"--CODEGEN--\":9310:9700   */\n    tag_379:\n      0x00\n        /* \"--CODEGEN--\":9470:9537   */\n      tag_381\n        /* \"--CODEGEN--\":9534:9536   */\n      0x35\n        /* \"--CODEGEN--\":9529:9532   */\n      dup4\n        /* \"--CODEGEN--\":9470:9537   */\n      tag_318\n      jump\t// in\n    tag_381:\n        /* \"--CODEGEN--\":9463:9537   */\n      swap2\n      pop\n        /* \"--CODEGEN--\":9570:9604   */\n      0x4e6f207365207075656465206461722064652062616a61206120756e61206174\n        /* \"--CODEGEN--\":9566:9567   */\n      0x00\n        /* \"--CODEGEN--\":9561:9564   */\n      dup4\n        /* \"--CODEGEN--\":9557:9568   */\n      add\n        /* \"--CODEGEN--\":9550:9605   */\n      mstore\n        /* \"--CODEGEN--\":9639:9662   */\n      0x72616363696f6e20717565206e6f206578697374610000000000000000000000\n        /* \"--CODEGEN--\":9634:9636   */\n      0x20\n        /* \"--CODEGEN--\":9629:9632   */\n      dup4\n        /* \"--CODEGEN--\":9625:9637   */\n      add\n        /* \"--CODEGEN--\":9618:9663   */\n      mstore\n        /* \"--CODEGEN--\":9691:9693   */\n      0x40\n        /* \"--CODEGEN--\":9686:9689   */\n      dup3\n        /* \"--CODEGEN--\":9682:9694   */\n      add\n        /* \"--CODEGEN--\":9675:9694   */\n      swap1\n      pop\n        /* \"--CODEGEN--\":9456:9700   */\n      swap2\n      swap1\n      pop\n      jump\t// out\n        /* \"--CODEGEN--\":9709:10099   */\n    tag_382:\n      0x00\n        /* \"--CODEGEN--\":9869:9936   */\n      tag_384\n        /* \"--CODEGEN--\":9933:9935   */\n      0x35\n        /* \"--CODEGEN--\":9928:9931   */\n      dup4\n        /* \"--CODEGEN--\":9869:9936   */\n      tag_318\n      jump\t// in\n    tag_384:\n        /* \"--CODEGEN--\":9862:9936   */\n      swap2\n      pop\n        /* \"--CODEGEN--\":9969:10003   */\n      0x4e6f2073652070756564652064617220646520616c7461206120756e61206174\n        /* \"--CODEGEN--\":9965:9966   */\n      0x00\n        /* \"--CODEGEN--\":9960:9963   */\n      dup4\n        /* \"--CODEGEN--\":9956:9967   */\n      add\n        /* \"--CODEGEN--\":9949:10004   */\n      mstore\n        /* \"--CODEGEN--\":10038:10061   */\n      0x72616363696f6e20717565206e6f206578697374610000000000000000000000\n        /* \"--CODEGEN--\":10033:10035   */\n      0x20\n        /* \"--CODEGEN--\":10028:10031   */\n      dup4\n        /* \"--CODEGEN--\":10024:10036   */\n      add\n        /* \"--CODEGEN--\":10017:10062   */\n      mstore\n        /* \"--CODEGEN--\":10090:10092   */\n      0x40\n        /* \"--CODEGEN--\":10085:10088   */\n      dup3\n        /* \"--CODEGEN--\":10081:10093   */\n      add\n        /* \"--CODEGEN--\":10074:10093   */\n      swap1\n      pop\n        /* \"--CODEGEN--\":9855:10099   */\n      swap2\n      swap1\n      pop\n      jump\t// out\n        /* \"--CODEGEN--\":10107:10220   */\n    tag_385:\n        /* \"--CODEGEN--\":10190:10214   */\n      tag_387\n        /* \"--CODEGEN--\":10208:10213   */\n      dup2\n        /* \"--CODEGEN--\":10190:10214   */\n      tag_388\n      jump\t// in\n    tag_387:\n        /* \"--CODEGEN--\":10185:10188   */\n      dup3\n        /* \"--CODEGEN--\":10178:10215   */\n      mstore\n        /* \"--CODEGEN--\":10172:10220   */\n      pop\n      pop\n      jump\t// out\n        /* \"--CODEGEN--\":10227:10502   */\n    tag_77:\n      0x00\n        /* \"--CODEGEN--\":10382:10477   */\n      tag_390\n        /* \"--CODEGEN--\":10473:10476   */\n      dup3\n        /* \"--CODEGEN--\":10464:10470   */\n      dup5\n        /* \"--CODEGEN--\":10382:10477   */\n      tag_323\n      jump\t// in\n    tag_390:\n        /* \"--CODEGEN--\":10375:10477   */\n      swap2\n      pop\n        /* \"--CODEGEN--\":10494:10497   */\n      dup2\n        /* \"--CODEGEN--\":10487:10497   */\n      swap1\n      pop\n        /* \"--CODEGEN--\":10363:10502   */\n      swap3\n      swap2\n      pop\n      pop\n      jump\t// out\n        /* \"--CODEGEN--\":10509:11206   */\n    tag_131:\n      0x00\n        /* \"--CODEGEN--\":10810:10905   */\n      tag_392\n        /* \"--CODEGEN--\":10901:10904   */\n      dup3\n        /* \"--CODEGEN--\":10892:10898   */\n      dup6\n        /* \"--CODEGEN--\":10810:10905   */\n      tag_323\n      jump\t// in\n    tag_392:\n        /* \"--CODEGEN--\":10803:10905   */\n      swap2\n      pop\n        /* \"--CODEGEN--\":10923:11071   */\n      tag_393\n        /* \"--CODEGEN--\":11067:11070   */\n      dup3\n        /* \"--CODEGEN--\":10923:11071   */\n      tag_355\n      jump\t// in\n    tag_393:\n        /* \"--CODEGEN--\":10916:11071   */\n      swap2\n      pop\n        /* \"--CODEGEN--\":11089:11181   */\n      tag_394\n        /* \"--CODEGEN--\":11177:11180   */\n      dup3\n        /* \"--CODEGEN--\":11168:11174   */\n      dup5\n        /* \"--CODEGEN--\":11089:11181   */\n      tag_341\n      jump\t// in\n    tag_394:\n        /* \"--CODEGEN--\":11082:11181   */\n      swap2\n      pop\n        /* \"--CODEGEN--\":11198:11201   */\n      dup2\n        /* \"--CODEGEN--\":11191:11201   */\n      swap1\n      pop\n        /* \"--CODEGEN--\":10791:11206   */\n      swap4\n      swap3\n      pop\n      pop\n      pop\n      jump\t// out\n        /* \"--CODEGEN--\":11213:11482   */\n    tag_81:\n      0x00\n        /* \"--CODEGEN--\":11365:11457   */\n      tag_396\n        /* \"--CODEGEN--\":11453:11456   */\n      dup3\n        /* \"--CODEGEN--\":11444:11450   */\n      dup5\n        /* \"--CODEGEN--\":11365:11457   */\n      tag_341\n      jump\t// in\n    tag_396:\n        /* \"--CODEGEN--\":11358:11457   */\n      swap2\n      pop\n        /* \"--CODEGEN--\":11474:11477   */\n      dup2\n        /* \"--CODEGEN--\":11467:11477   */\n      swap1\n      pop\n        /* \"--CODEGEN--\":11346:11482   */\n      swap3\n      swap2\n      pop\n      pop\n      jump\t// out\n        /* \"--CODEGEN--\":11489:11711   */\n    tag_154:\n      0x00\n        /* \"--CODEGEN--\":11616:11618   */\n      0x20\n        /* \"--CODEGEN--\":11605:11614   */\n      dup3\n        /* \"--CODEGEN--\":11601:11619   */\n      add\n        /* \"--CODEGEN--\":11593:11619   */\n      swap1\n      pop\n        /* \"--CODEGEN--\":11630:11701   */\n      tag_398\n        /* \"--CODEGEN--\":11698:11699   */\n      0x00\n        /* \"--CODEGEN--\":11687:11696   */\n      dup4\n        /* \"--CODEGEN--\":11683:11700   */\n      add\n        /* \"--CODEGEN--\":11674:11680   */\n      dup5\n        /* \"--CODEGEN--\":11630:11701   */\n      tag_305\n      jump\t// in\n    tag_398:\n        /* \"--CODEGEN--\":11587:11711   */\n      swap3\n      swap2\n      pop\n      pop\n      jump\t// out\n        /* \"--CODEGEN--\":11718:11956   */\n    tag_213:\n      0x00\n        /* \"--CODEGEN--\":11853:11855   */\n      0x20\n        /* \"--CODEGEN--\":11842:11851   */\n      dup3\n        /* \"--CODEGEN--\":11838:11856   */\n      add\n        /* \"--CODEGEN--\":11830:11856   */\n      swap1\n      pop\n        /* \"--CODEGEN--\":11867:11946   */\n      tag_400\n        /* \"--CODEGEN--\":11943:11944   */\n      0x00\n        /* \"--CODEGEN--\":11932:11941   */\n      dup4\n        /* \"--CODEGEN--\":11928:11945   */\n      add\n        /* \"--CODEGEN--\":11919:11925   */\n      dup5\n        /* \"--CODEGEN--\":11867:11946   */\n      tag_297\n      jump\t// in\n    tag_400:\n        /* \"--CODEGEN--\":11824:11956   */\n      swap3\n      swap2\n      pop\n      pop\n      jump\t// out\n        /* \"--CODEGEN--\":11963:12217   */\n    tag_39:\n      0x00\n        /* \"--CODEGEN--\":12106:12108   */\n      0x20\n        /* \"--CODEGEN--\":12095:12104   */\n      dup3\n        /* \"--CODEGEN--\":12091:12109   */\n      add\n        /* \"--CODEGEN--\":12083:12109   */\n      swap1\n      pop\n        /* \"--CODEGEN--\":12120:12207   */\n      tag_402\n        /* \"--CODEGEN--\":12204:12205   */\n      0x00\n        /* \"--CODEGEN--\":12193:12202   */\n      dup4\n        /* \"--CODEGEN--\":12189:12206   */\n      add\n        /* \"--CODEGEN--\":12180:12186   */\n      dup5\n        /* \"--CODEGEN--\":12120:12207   */\n      tag_301\n      jump\t// in\n    tag_402:\n        /* \"--CODEGEN--\":12077:12217   */\n      swap3\n      swap2\n      pop\n      pop\n      jump\t// out\n        /* \"--CODEGEN--\":12224:12684   */\n    tag_98:\n      0x00\n        /* \"--CODEGEN--\":12415:12417   */\n      0x60\n        /* \"--CODEGEN--\":12404:12413   */\n      dup3\n        /* \"--CODEGEN--\":12400:12418   */\n      add\n        /* \"--CODEGEN--\":12392:12418   */\n      swap1\n      pop\n        /* \"--CODEGEN--\":12429:12508   */\n      tag_404\n        /* \"--CODEGEN--\":12505:12506   */\n      0x00\n        /* \"--CODEGEN--\":12494:12503   */\n      dup4\n        /* \"--CODEGEN--\":12490:12507   */\n      add\n        /* \"--CODEGEN--\":12481:12487   */\n      dup7\n        /* \"--CODEGEN--\":12429:12508   */\n      tag_297\n      jump\t// in\n    tag_404:\n        /* \"--CODEGEN--\":12519:12591   */\n      tag_405\n        /* \"--CODEGEN--\":12587:12589   */\n      0x20\n        /* \"--CODEGEN--\":12576:12585   */\n      dup4\n        /* \"--CODEGEN--\":12572:12590   */\n      add\n        /* \"--CODEGEN--\":12563:12569   */\n      dup6\n        /* \"--CODEGEN--\":12519:12591   */\n      tag_305\n      jump\t// in\n    tag_405:\n        /* \"--CODEGEN--\":12602:12674   */\n      tag_406\n        /* \"--CODEGEN--\":12670:12672   */\n      0x40\n        /* \"--CODEGEN--\":12659:12668   */\n      dup4\n        /* \"--CODEGEN--\":12655:12673   */\n      add\n        /* \"--CODEGEN--\":12646:12652   */\n      dup5\n        /* \"--CODEGEN--\":12602:12674   */\n      tag_385\n      jump\t// in\n    tag_406:\n        /* \"--CODEGEN--\":12386:12684   */\n      swap5\n      swap4\n      pop\n      pop\n      pop\n      pop\n      jump\t// out\n        /* \"--CODEGEN--\":12691:13040   */\n    tag_231:\n      0x00\n        /* \"--CODEGEN--\":12854:12856   */\n      0x40\n        /* \"--CODEGEN--\":12843:12852   */\n      dup3\n        /* \"--CODEGEN--\":12839:12857   */\n      add\n        /* \"--CODEGEN--\":12831:12857   */\n      swap1\n      pop\n        /* \"--CODEGEN--\":12868:12947   */\n      tag_408\n        /* \"--CODEGEN--\":12944:12945   */\n      0x00\n        /* \"--CODEGEN--\":12933:12942   */\n      dup4\n        /* \"--CODEGEN--\":12929:12946   */\n      add\n        /* \"--CODEGEN--\":12920:12926   */\n      dup6\n        /* \"--CODEGEN--\":12868:12947   */\n      tag_297\n      jump\t// in\n    tag_408:\n        /* \"--CODEGEN--\":12958:13030   */\n      tag_409\n        /* \"--CODEGEN--\":13026:13028   */\n      0x20\n        /* \"--CODEGEN--\":13015:13024   */\n      dup4\n        /* \"--CODEGEN--\":13011:13029   */\n      add\n        /* \"--CODEGEN--\":13002:13008   */\n      dup5\n        /* \"--CODEGEN--\":12958:13030   */\n      tag_385\n      jump\t// in\n    tag_409:\n        /* \"--CODEGEN--\":12825:13040   */\n      swap4\n      swap3\n      pop\n      pop\n      pop\n      jump\t// out\n        /* \"--CODEGEN--\":13047:13357   */\n    tag_24:\n      0x00\n        /* \"--CODEGEN--\":13194:13196   */\n      0x20\n        /* \"--CODEGEN--\":13183:13192   */\n      dup3\n        /* \"--CODEGEN--\":13179:13197   */\n      add\n        /* \"--CODEGEN--\":13171:13197   */\n      swap1\n      pop\n        /* \"--CODEGEN--\":13244:13253   */\n      dup2\n        /* \"--CODEGEN--\":13238:13242   */\n      dup2\n        /* \"--CODEGEN--\":13234:13254   */\n      sub\n        /* \"--CODEGEN--\":13230:13231   */\n      0x00\n        /* \"--CODEGEN--\":13219:13228   */\n      dup4\n        /* \"--CODEGEN--\":13215:13232   */\n      add\n        /* \"--CODEGEN--\":13208:13255   */\n      mstore\n        /* \"--CODEGEN--\":13269:13347   */\n      tag_411\n        /* \"--CODEGEN--\":13342:13346   */\n      dup2\n        /* \"--CODEGEN--\":13333:13339   */\n      dup5\n        /* \"--CODEGEN--\":13269:13347   */\n      tag_313\n      jump\t// in\n    tag_411:\n        /* \"--CODEGEN--\":13261:13347   */\n      swap1\n      pop\n        /* \"--CODEGEN--\":13165:13357   */\n      swap3\n      swap2\n      pop\n      pop\n      jump\t// out\n        /* \"--CODEGEN--\":13364:13785   */\n    tag_143:\n      0x00\n        /* \"--CODEGEN--\":13539:13541   */\n      0x40\n        /* \"--CODEGEN--\":13528:13537   */\n      dup3\n        /* \"--CODEGEN--\":13524:13542   */\n      add\n        /* \"--CODEGEN--\":13516:13542   */\n      swap1\n      pop\n        /* \"--CODEGEN--\":13589:13598   */\n      dup2\n        /* \"--CODEGEN--\":13583:13587   */\n      dup2\n        /* \"--CODEGEN--\":13579:13599   */\n      sub\n        /* \"--CODEGEN--\":13575:13576   */\n      0x00\n        /* \"--CODEGEN--\":13564:13573   */\n      dup4\n        /* \"--CODEGEN--\":13560:13577   */\n      add\n        /* \"--CODEGEN--\":13553:13600   */\n      mstore\n        /* \"--CODEGEN--\":13614:13692   */\n      tag_413\n        /* \"--CODEGEN--\":13687:13691   */\n      dup2\n        /* \"--CODEGEN--\":13678:13684   */\n      dup6\n        /* \"--CODEGEN--\":13614:13692   */\n      tag_313\n      jump\t// in\n    tag_413:\n        /* \"--CODEGEN--\":13606:13692   */\n      swap1\n      pop\n        /* \"--CODEGEN--\":13703:13775   */\n      tag_414\n        /* \"--CODEGEN--\":13771:13773   */\n      0x20\n        /* \"--CODEGEN--\":13760:13769   */\n      dup4\n        /* \"--CODEGEN--\":13756:13774   */\n      add\n        /* \"--CODEGEN--\":13747:13753   */\n      dup5\n        /* \"--CODEGEN--\":13703:13775   */\n      tag_385\n      jump\t// in\n    tag_414:\n        /* \"--CODEGEN--\":13510:13785   */\n      swap4\n      swap3\n      pop\n      pop\n      pop\n      jump\t// out\n        /* \"--CODEGEN--\":13792:14312   */\n    tag_64:\n      0x00\n        /* \"--CODEGEN--\":13989:13991   */\n      0x60\n        /* \"--CODEGEN--\":13978:13987   */\n      dup3\n        /* \"--CODEGEN--\":13974:13992   */\n      add\n        /* \"--CODEGEN--\":13966:13992   */\n      swap1\n      pop\n        /* \"--CODEGEN--\":14039:14048   */\n      dup2\n        /* \"--CODEGEN--\":14033:14037   */\n      dup2\n        /* \"--CODEGEN--\":14029:14049   */\n      sub\n        /* \"--CODEGEN--\":14025:14026   */\n      0x00\n        /* \"--CODEGEN--\":14014:14023   */\n      dup4\n        /* \"--CODEGEN--\":14010:14027   */\n      add\n        /* \"--CODEGEN--\":14003:14050   */\n      mstore\n        /* \"--CODEGEN--\":14064:14142   */\n      tag_416\n        /* \"--CODEGEN--\":14137:14141   */\n      dup2\n        /* \"--CODEGEN--\":14128:14134   */\n      dup7\n        /* \"--CODEGEN--\":14064:14142   */\n      tag_313\n      jump\t// in\n    tag_416:\n        /* \"--CODEGEN--\":14056:14142   */\n      swap1\n      pop\n        /* \"--CODEGEN--\":14153:14225   */\n      tag_417\n        /* \"--CODEGEN--\":14221:14223   */\n      0x20\n        /* \"--CODEGEN--\":14210:14219   */\n      dup4\n        /* \"--CODEGEN--\":14206:14224   */\n      add\n        /* \"--CODEGEN--\":14197:14203   */\n      dup6\n        /* \"--CODEGEN--\":14153:14225   */\n      tag_385\n      jump\t// in\n    tag_417:\n        /* \"--CODEGEN--\":14236:14302   */\n      tag_418\n        /* \"--CODEGEN--\":14298:14300   */\n      0x40\n        /* \"--CODEGEN--\":14287:14296   */\n      dup4\n        /* \"--CODEGEN--\":14283:14301   */\n      add\n        /* \"--CODEGEN--\":14274:14280   */\n      dup5\n        /* \"--CODEGEN--\":14236:14302   */\n      tag_309\n      jump\t// in\n    tag_418:\n        /* \"--CODEGEN--\":13960:14312   */\n      swap5\n      swap4\n      pop\n      pop\n      pop\n      pop\n      jump\t// out\n        /* \"--CODEGEN--\":14319:14623   */\n    tag_112:\n      0x00\n        /* \"--CODEGEN--\":14463:14465   */\n      0x20\n        /* \"--CODEGEN--\":14452:14461   */\n      dup3\n        /* \"--CODEGEN--\":14448:14466   */\n      add\n        /* \"--CODEGEN--\":14440:14466   */\n      swap1\n      pop\n        /* \"--CODEGEN--\":14513:14522   */\n      dup2\n        /* \"--CODEGEN--\":14507:14511   */\n      dup2\n        /* \"--CODEGEN--\":14503:14523   */\n      sub\n        /* \"--CODEGEN--\":14499:14500   */\n      0x00\n        /* \"--CODEGEN--\":14488:14497   */\n      dup4\n        /* \"--CODEGEN--\":14484:14501   */\n      add\n        /* \"--CODEGEN--\":14477:14524   */\n      mstore\n        /* \"--CODEGEN--\":14538:14613   */\n      tag_420\n        /* \"--CODEGEN--\":14608:14612   */\n      dup2\n        /* \"--CODEGEN--\":14599:14605   */\n      dup5\n        /* \"--CODEGEN--\":14538:14613   */\n      tag_329\n      jump\t// in\n    tag_420:\n        /* \"--CODEGEN--\":14530:14613   */\n      swap1\n      pop\n        /* \"--CODEGEN--\":14434:14623   */\n      swap3\n      swap2\n      pop\n      pop\n      jump\t// out\n        /* \"--CODEGEN--\":14630:15046   */\n    tag_119:\n      0x00\n        /* \"--CODEGEN--\":14830:14832   */\n      0x20\n        /* \"--CODEGEN--\":14819:14828   */\n      dup3\n        /* \"--CODEGEN--\":14815:14833   */\n      add\n        /* \"--CODEGEN--\":14807:14833   */\n      swap1\n      pop\n        /* \"--CODEGEN--\":14880:14889   */\n      dup2\n        /* \"--CODEGEN--\":14874:14878   */\n      dup2\n        /* \"--CODEGEN--\":14870:14890   */\n      sub\n        /* \"--CODEGEN--\":14866:14867   */\n      0x00\n        /* \"--CODEGEN--\":14855:14864   */\n      dup4\n        /* \"--CODEGEN--\":14851:14868   */\n      add\n        /* \"--CODEGEN--\":14844:14891   */\n      mstore\n        /* \"--CODEGEN--\":14905:15036   */\n      tag_422\n        /* \"--CODEGEN--\":15031:15035   */\n      dup2\n        /* \"--CODEGEN--\":14905:15036   */\n      tag_352\n      jump\t// in\n    tag_422:\n        /* \"--CODEGEN--\":14897:15036   */\n      swap1\n      pop\n        /* \"--CODEGEN--\":14801:15046   */\n      swap2\n      swap1\n      pop\n      jump\t// out\n        /* \"--CODEGEN--\":15053:15469   */\n    tag_93:\n      0x00\n        /* \"--CODEGEN--\":15253:15255   */\n      0x20\n        /* \"--CODEGEN--\":15242:15251   */\n      dup3\n        /* \"--CODEGEN--\":15238:15256   */\n      add\n        /* \"--CODEGEN--\":15230:15256   */\n      swap1\n      pop\n        /* \"--CODEGEN--\":15303:15312   */\n      dup2\n        /* \"--CODEGEN--\":15297:15301   */\n      dup2\n        /* \"--CODEGEN--\":15293:15313   */\n      sub\n        /* \"--CODEGEN--\":15289:15290   */\n      0x00\n        /* \"--CODEGEN--\":15278:15287   */\n      dup4\n        /* \"--CODEGEN--\":15274:15291   */\n      add\n        /* \"--CODEGEN--\":15267:15314   */\n      mstore\n        /* \"--CODEGEN--\":15328:15459   */\n      tag_424\n        /* \"--CODEGEN--\":15454:15458   */\n      dup2\n        /* \"--CODEGEN--\":15328:15459   */\n      tag_358\n      jump\t// in\n    tag_424:\n        /* \"--CODEGEN--\":15320:15459   */\n      swap1\n      pop\n        /* \"--CODEGEN--\":15224:15469   */\n      swap2\n      swap1\n      pop\n      jump\t// out\n        /* \"--CODEGEN--\":15476:15892   */\n    tag_116:\n      0x00\n        /* \"--CODEGEN--\":15676:15678   */\n      0x20\n        /* \"--CODEGEN--\":15665:15674   */\n      dup3\n        /* \"--CODEGEN--\":15661:15679   */\n      add\n        /* \"--CODEGEN--\":15653:15679   */\n      swap1\n      pop\n        /* \"--CODEGEN--\":15726:15735   */\n      dup2\n        /* \"--CODEGEN--\":15720:15724   */\n      dup2\n        /* \"--CODEGEN--\":15716:15736   */\n      sub\n        /* \"--CODEGEN--\":15712:15713   */\n      0x00\n        /* \"--CODEGEN--\":15701:15710   */\n      dup4\n        /* \"--CODEGEN--\":15697:15714   */\n      add\n        /* \"--CODEGEN--\":15690:15737   */\n      mstore\n        /* \"--CODEGEN--\":15751:15882   */\n      tag_426\n        /* \"--CODEGEN--\":15877:15881   */\n      dup2\n        /* \"--CODEGEN--\":15751:15882   */\n      tag_361\n      jump\t// in\n    tag_426:\n        /* \"--CODEGEN--\":15743:15882   */\n      swap1\n      pop\n        /* \"--CODEGEN--\":15647:15892   */\n      swap2\n      swap1\n      pop\n      jump\t// out\n        /* \"--CODEGEN--\":15899:16315   */\n    tag_223:\n      0x00\n        /* \"--CODEGEN--\":16099:16101   */\n      0x20\n        /* \"--CODEGEN--\":16088:16097   */\n      dup3\n        /* \"--CODEGEN--\":16084:16102   */\n      add\n        /* \"--CODEGEN--\":16076:16102   */\n      swap1\n      pop\n        /* \"--CODEGEN--\":16149:16158   */\n      dup2\n        /* \"--CODEGEN--\":16143:16147   */\n      dup2\n        /* \"--CODEGEN--\":16139:16159   */\n      sub\n        /* \"--CODEGEN--\":16135:16136   */\n      0x00\n        /* \"--CODEGEN--\":16124:16133   */\n      dup4\n        /* \"--CODEGEN--\":16120:16137   */\n      add\n        /* \"--CODEGEN--\":16113:16160   */\n      mstore\n        /* \"--CODEGEN--\":16174:16305   */\n      tag_428\n        /* \"--CODEGEN--\":16300:16304   */\n      dup2\n        /* \"--CODEGEN--\":16174:16305   */\n      tag_364\n      jump\t// in\n    tag_428:\n        /* \"--CODEGEN--\":16166:16305   */\n      swap1\n      pop\n        /* \"--CODEGEN--\":16070:16315   */\n      swap2\n      swap1\n      pop\n      jump\t// out\n        /* \"--CODEGEN--\":16322:16738   */\n    tag_227:\n      0x00\n        /* \"--CODEGEN--\":16522:16524   */\n      0x20\n        /* \"--CODEGEN--\":16511:16520   */\n      dup3\n        /* \"--CODEGEN--\":16507:16525   */\n      add\n        /* \"--CODEGEN--\":16499:16525   */\n      swap1\n      pop\n        /* \"--CODEGEN--\":16572:16581   */\n      dup2\n        /* \"--CODEGEN--\":16566:16570   */\n      dup2\n        /* \"--CODEGEN--\":16562:16582   */\n      sub\n        /* \"--CODEGEN--\":16558:16559   */\n      0x00\n        /* \"--CODEGEN--\":16547:16556   */\n      dup4\n        /* \"--CODEGEN--\":16543:16560   */\n      add\n        /* \"--CODEGEN--\":16536:16583   */\n      mstore\n        /* \"--CODEGEN--\":16597:16728   */\n      tag_430\n        /* \"--CODEGEN--\":16723:16727   */\n      dup2\n        /* \"--CODEGEN--\":16597:16728   */\n      tag_367\n      jump\t// in\n    tag_430:\n        /* \"--CODEGEN--\":16589:16728   */\n      swap1\n      pop\n        /* \"--CODEGEN--\":16493:16738   */\n      swap2\n      swap1\n      pop\n      jump\t// out\n        /* \"--CODEGEN--\":16745:17161   */\n    tag_179:\n      0x00\n        /* \"--CODEGEN--\":16945:16947   */\n      0x20\n        /* \"--CODEGEN--\":16934:16943   */\n      dup3\n        /* \"--CODEGEN--\":16930:16948   */\n      add\n        /* \"--CODEGEN--\":16922:16948   */\n      swap1\n      pop\n        /* \"--CODEGEN--\":16995:17004   */\n      dup2\n        /* \"--CODEGEN--\":16989:16993   */\n      dup2\n        /* \"--CODEGEN--\":16985:17005   */\n      sub\n        /* \"--CODEGEN--\":16981:16982   */\n      0x00\n        /* \"--CODEGEN--\":16970:16979   */\n      dup4\n        /* \"--CODEGEN--\":16966:16983   */\n      add\n        /* \"--CODEGEN--\":16959:17006   */\n      mstore\n        /* \"--CODEGEN--\":17020:17151   */\n      tag_432\n        /* \"--CODEGEN--\":17146:17150   */\n      dup2\n        /* \"--CODEGEN--\":17020:17151   */\n      tag_370\n      jump\t// in\n    tag_432:\n        /* \"--CODEGEN--\":17012:17151   */\n      swap1\n      pop\n        /* \"--CODEGEN--\":16916:17161   */\n      swap2\n      swap1\n      pop\n      jump\t// out\n        /* \"--CODEGEN--\":17168:17584   */\n    tag_203:\n      0x00\n        /* \"--CODEGEN--\":17368:17370   */\n      0x20\n        /* \"--CODEGEN--\":17357:17366   */\n      dup3\n        /* \"--CODEGEN--\":17353:17371   */\n      add\n        /* \"--CODEGEN--\":17345:17371   */\n      swap1\n      pop\n        /* \"--CODEGEN--\":17418:17427   */\n      dup2\n        /* \"--CODEGEN--\":17412:17416   */\n      dup2\n        /* \"--CODEGEN--\":17408:17428   */\n      sub\n        /* \"--CODEGEN--\":17404:17405   */\n      0x00\n        /* \"--CODEGEN--\":17393:17402   */\n      dup4\n        /* \"--CODEGEN--\":17389:17406   */\n      add\n        /* \"--CODEGEN--\":17382:17429   */\n      mstore\n        /* \"--CODEGEN--\":17443:17574   */\n      tag_434\n        /* \"--CODEGEN--\":17569:17573   */\n      dup2\n        /* \"--CODEGEN--\":17443:17574   */\n      tag_373\n      jump\t// in\n    tag_434:\n        /* \"--CODEGEN--\":17435:17574   */\n      swap1\n      pop\n        /* \"--CODEGEN--\":17339:17584   */\n      swap2\n      swap1\n      pop\n      jump\t// out\n        /* \"--CODEGEN--\":17591:18007   */\n    tag_135:\n      0x00\n        /* \"--CODEGEN--\":17791:17793   */\n      0x20\n        /* \"--CODEGEN--\":17780:17789   */\n      dup3\n        /* \"--CODEGEN--\":17776:17794   */\n      add\n        /* \"--CODEGEN--\":17768:17794   */\n      swap1\n      pop\n        /* \"--CODEGEN--\":17841:17850   */\n      dup2\n        /* \"--CODEGEN--\":17835:17839   */\n      dup2\n        /* \"--CODEGEN--\":17831:17851   */\n      sub\n        /* \"--CODEGEN--\":17827:17828   */\n      0x00\n        /* \"--CODEGEN--\":17816:17825   */\n      dup4\n        /* \"--CODEGEN--\":17812:17829   */\n      add\n        /* \"--CODEGEN--\":17805:17852   */\n      mstore\n        /* \"--CODEGEN--\":17866:17997   */\n      tag_436\n        /* \"--CODEGEN--\":17992:17996   */\n      dup2\n        /* \"--CODEGEN--\":17866:17997   */\n      tag_376\n      jump\t// in\n    tag_436:\n        /* \"--CODEGEN--\":17858:17997   */\n      swap1\n      pop\n        /* \"--CODEGEN--\":17762:18007   */\n      swap2\n      swap1\n      pop\n      jump\t// out\n        /* \"--CODEGEN--\":18014:18430   */\n    tag_182:\n      0x00\n        /* \"--CODEGEN--\":18214:18216   */\n      0x20\n        /* \"--CODEGEN--\":18203:18212   */\n      dup3\n        /* \"--CODEGEN--\":18199:18217   */\n      add\n        /* \"--CODEGEN--\":18191:18217   */\n      swap1\n      pop\n        /* \"--CODEGEN--\":18264:18273   */\n      dup2\n        /* \"--CODEGEN--\":18258:18262   */\n      dup2\n        /* \"--CODEGEN--\":18254:18274   */\n      sub\n        /* \"--CODEGEN--\":18250:18251   */\n      0x00\n        /* \"--CODEGEN--\":18239:18248   */\n      dup4\n        /* \"--CODEGEN--\":18235:18252   */\n      add\n        /* \"--CODEGEN--\":18228:18275   */\n      mstore\n        /* \"--CODEGEN--\":18289:18420   */\n      tag_438\n        /* \"--CODEGEN--\":18415:18419   */\n      dup2\n        /* \"--CODEGEN--\":18289:18420   */\n      tag_379\n      jump\t// in\n    tag_438:\n        /* \"--CODEGEN--\":18281:18420   */\n      swap1\n      pop\n        /* \"--CODEGEN--\":18185:18430   */\n      swap2\n      swap1\n      pop\n      jump\t// out\n        /* \"--CODEGEN--\":18437:18853   */\n    tag_206:\n      0x00\n        /* \"--CODEGEN--\":18637:18639   */\n      0x20\n        /* \"--CODEGEN--\":18626:18635   */\n      dup3\n        /* \"--CODEGEN--\":18622:18640   */\n      add\n        /* \"--CODEGEN--\":18614:18640   */\n      swap1\n      pop\n        /* \"--CODEGEN--\":18687:18696   */\n      dup2\n        /* \"--CODEGEN--\":18681:18685   */\n      dup2\n        /* \"--CODEGEN--\":18677:18697   */\n      sub\n        /* \"--CODEGEN--\":18673:18674   */\n      0x00\n        /* \"--CODEGEN--\":18662:18671   */\n      dup4\n        /* \"--CODEGEN--\":18658:18675   */\n      add\n        /* \"--CODEGEN--\":18651:18698   */\n      mstore\n        /* \"--CODEGEN--\":18712:18843   */\n      tag_440\n        /* \"--CODEGEN--\":18838:18842   */\n      dup2\n        /* \"--CODEGEN--\":18712:18843   */\n      tag_382\n      jump\t// in\n    tag_440:\n        /* \"--CODEGEN--\":18704:18843   */\n      swap1\n      pop\n        /* \"--CODEGEN--\":18608:18853   */\n      swap2\n      swap1\n      pop\n      jump\t// out\n        /* \"--CODEGEN--\":18860:19082   */\n    tag_44:\n      0x00\n        /* \"--CODEGEN--\":18987:18989   */\n      0x20\n        /* \"--CODEGEN--\":18976:18985   */\n      dup3\n        /* \"--CODEGEN--\":18972:18990   */\n      add\n        /* \"--CODEGEN--\":18964:18990   */\n      swap1\n      pop\n        /* \"--CODEGEN--\":19001:19072   */\n      tag_442\n        /* \"--CODEGEN--\":19069:19070   */\n      0x00\n        /* \"--CODEGEN--\":19058:19067   */\n      dup4\n        /* \"--CODEGEN--\":19054:19071   */\n      add\n        /* \"--CODEGEN--\":19045:19051   */\n      dup5\n        /* \"--CODEGEN--\":19001:19072   */\n      tag_385\n      jump\t// in\n    tag_442:\n        /* \"--CODEGEN--\":18958:19082   */\n      swap3\n      swap2\n      pop\n      pop\n      jump\t// out\n        /* \"--CODEGEN--\":19089:19345   */\n    tag_265:\n      0x00\n        /* \"--CODEGEN--\":19151:19153   */\n      0x40\n        /* \"--CODEGEN--\":19145:19154   */\n      mload\n        /* \"--CODEGEN--\":19135:19154   */\n      swap1\n      pop\n        /* \"--CODEGEN--\":19189:19193   */\n      dup2\n        /* \"--CODEGEN--\":19181:19187   */\n      dup2\n        /* \"--CODEGEN--\":19177:19194   */\n      add\n        /* \"--CODEGEN--\":19288:19294   */\n      dup2\n        /* \"--CODEGEN--\":19276:19286   */\n      dup2\n        /* \"--CODEGEN--\":19273:19295   */\n      lt\n        /* \"--CODEGEN--\":19252:19270   */\n      0xffffffffffffffff\n        /* \"--CODEGEN--\":19240:19250   */\n      dup3\n        /* \"--CODEGEN--\":19237:19271   */\n      gt\n        /* \"--CODEGEN--\":19234:19296   */\n      or\n        /* \"--CODEGEN--\":19231:19233   */\n      iszero\n      tag_444\n      jumpi\n        /* \"--CODEGEN--\":19309:19310   */\n      0x00\n        /* \"--CODEGEN--\":19306:19307   */\n      dup1\n        /* \"--CODEGEN--\":19299:19311   */\n      revert\n        /* \"--CODEGEN--\":19231:19233   */\n    tag_444:\n        /* \"--CODEGEN--\":19329:19339   */\n      dup1\n        /* \"--CODEGEN--\":19325:19327   */\n      0x40\n        /* \"--CODEGEN--\":19318:19340   */\n      mstore\n        /* \"--CODEGEN--\":19129:19345   */\n      pop\n      swap2\n      swap1\n      pop\n      jump\t// out\n        /* \"--CODEGEN--\":19352:19674   */\n    tag_264:\n      0x00\n        /* \"--CODEGEN--\":19496:19514   */\n      0xffffffffffffffff\n        /* \"--CODEGEN--\":19488:19494   */\n      dup3\n        /* \"--CODEGEN--\":19485:19515   */\n      gt\n        /* \"--CODEGEN--\":19482:19484   */\n      iszero\n      tag_446\n      jumpi\n        /* \"--CODEGEN--\":19528:19529   */\n      0x00\n        /* \"--CODEGEN--\":19525:19526   */\n      dup1\n        /* \"--CODEGEN--\":19518:19530   */\n      revert\n        /* \"--CODEGEN--\":19482:19484   */\n    tag_446:\n        /* \"--CODEGEN--\":19595:19599   */\n      0x1f\n        /* \"--CODEGEN--\":19591:19600   */\n      not\n        /* \"--CODEGEN--\":19584:19588   */\n      0x1f\n        /* \"--CODEGEN--\":19576:19582   */\n      dup4\n        /* \"--CODEGEN--\":19572:19589   */\n      add\n        /* \"--CODEGEN--\":19568:19601   */\n      and\n        /* \"--CODEGEN--\":19560:19601   */\n      swap1\n      pop\n        /* \"--CODEGEN--\":19659:19663   */\n      0x20\n        /* \"--CODEGEN--\":19653:19657   */\n      dup2\n        /* \"--CODEGEN--\":19649:19664   */\n      add\n        /* \"--CODEGEN--\":19641:19664   */\n      swap1\n      pop\n        /* \"--CODEGEN--\":19419:19674   */\n      swap2\n      swap1\n      pop\n      jump\t// out\n        /* \"--CODEGEN--\":19681:19839   */\n    tag_337:\n      0x00\n        /* \"--CODEGEN--\":19749:19752   */\n      dup2\n        /* \"--CODEGEN--\":19741:19752   */\n      swap1\n      pop\n        /* \"--CODEGEN--\":19786:19789   */\n      dup2\n        /* \"--CODEGEN--\":19783:19784   */\n      0x00\n        /* \"--CODEGEN--\":19776:19790   */\n      mstore\n        /* \"--CODEGEN--\":19818:19822   */\n      0x20\n        /* \"--CODEGEN--\":19815:19816   */\n      0x00\n        /* \"--CODEGEN--\":19805:19823   */\n      keccak256\n        /* \"--CODEGEN--\":19797:19823   */\n      swap1\n      pop\n        /* \"--CODEGEN--\":19735:19839   */\n      swap2\n      swap1\n      pop\n      jump\t// out\n        /* \"--CODEGEN--\":19846:19968   */\n    tag_316:\n      0x00\n        /* \"--CODEGEN--\":19940:19945   */\n      dup2\n        /* \"--CODEGEN--\":19934:19946   */\n      mload\n        /* \"--CODEGEN--\":19924:19946   */\n      swap1\n      pop\n        /* \"--CODEGEN--\":19905:19968   */\n      swap2\n      swap1\n      pop\n      jump\t// out\n        /* \"--CODEGEN--\":19976:20139   */\n    tag_318:\n      0x00\n        /* \"--CODEGEN--\":20091:20097   */\n      dup3\n        /* \"--CODEGEN--\":20086:20089   */\n      dup3\n        /* \"--CODEGEN--\":20079:20098   */\n      mstore\n        /* \"--CODEGEN--\":20128:20132   */\n      0x20\n        /* \"--CODEGEN--\":20123:20126   */\n      dup3\n        /* \"--CODEGEN--\":20119:20133   */\n      add\n        /* \"--CODEGEN--\":20104:20133   */\n      swap1\n      pop\n        /* \"--CODEGEN--\":20072:20139   */\n      swap3\n      swap2\n      pop\n      pop\n      jump\t// out\n        /* \"--CODEGEN--\":20148:20293   */\n    tag_327:\n      0x00\n        /* \"--CODEGEN--\":20284:20287   */\n      dup2\n        /* \"--CODEGEN--\":20269:20287   */\n      swap1\n      pop\n        /* \"--CODEGEN--\":20262:20293   */\n      swap3\n      swap2\n      pop\n      pop\n      jump\t// out\n        /* \"--CODEGEN--\":20301:20392   */\n    tag_308:\n      0x00\n        /* \"--CODEGEN--\":20363:20387   */\n      tag_452\n        /* \"--CODEGEN--\":20381:20386   */\n      dup3\n        /* \"--CODEGEN--\":20363:20387   */\n      tag_453\n      jump\t// in\n    tag_452:\n        /* \"--CODEGEN--\":20352:20387   */\n      swap1\n      pop\n        /* \"--CODEGEN--\":20346:20392   */\n      swap2\n      swap1\n      pop\n      jump\t// out\n        /* \"--CODEGEN--\":20399:20498   */\n    tag_304:\n      0x00\n        /* \"--CODEGEN--\":20469:20493   */\n      tag_455\n        /* \"--CODEGEN--\":20487:20492   */\n      dup3\n        /* \"--CODEGEN--\":20469:20493   */\n      tag_453\n      jump\t// in\n    tag_455:\n        /* \"--CODEGEN--\":20458:20493   */\n      swap1\n      pop\n        /* \"--CODEGEN--\":20452:20498   */\n      swap2\n      swap1\n      pop\n      jump\t// out\n        /* \"--CODEGEN--\":20505:20590   */\n    tag_312:\n      0x00\n        /* \"--CODEGEN--\":20578:20583   */\n      dup2\n        /* \"--CODEGEN--\":20571:20584   */\n      iszero\n        /* \"--CODEGEN--\":20564:20585   */\n      iszero\n        /* \"--CODEGEN--\":20553:20585   */\n      swap1\n      pop\n        /* \"--CODEGEN--\":20547:20590   */\n      swap2\n      swap1\n      pop\n      jump\t// out\n        /* \"--CODEGEN--\":20597:20718   */\n    tag_453:\n      0x00\n        /* \"--CODEGEN--\":20670:20712   */\n      0xffffffffffffffffffffffffffffffffffffffff\n        /* \"--CODEGEN--\":20663:20668   */\n      dup3\n        /* \"--CODEGEN--\":20659:20713   */\n      and\n        /* \"--CODEGEN--\":20648:20713   */\n      swap1\n      pop\n        /* \"--CODEGEN--\":20642:20718   */\n      swap2\n      swap1\n      pop\n      jump\t// out\n        /* \"--CODEGEN--\":20725:20797   */\n    tag_388:\n      0x00\n        /* \"--CODEGEN--\":20787:20792   */\n      dup2\n        /* \"--CODEGEN--\":20776:20792   */\n      swap1\n      pop\n        /* \"--CODEGEN--\":20770:20797   */\n      swap2\n      swap1\n      pop\n      jump\t// out\n        /* \"--CODEGEN--\":20804:20933   */\n    tag_300:\n      0x00\n        /* \"--CODEGEN--\":20891:20928   */\n      tag_460\n        /* \"--CODEGEN--\":20922:20927   */\n      dup3\n        /* \"--CODEGEN--\":20891:20928   */\n      tag_461\n      jump\t// in\n    tag_460:\n        /* \"--CODEGEN--\":20878:20928   */\n      swap1\n      pop\n        /* \"--CODEGEN--\":20872:20933   */\n      swap2\n      swap1\n      pop\n      jump\t// out\n        /* \"--CODEGEN--\":20940:21061   */\n    tag_461:\n      0x00\n        /* \"--CODEGEN--\":21019:21056   */\n      tag_463\n        /* \"--CODEGEN--\":21050:21055   */\n      dup3\n        /* \"--CODEGEN--\":21019:21056   */\n      tag_464\n      jump\t// in\n    tag_463:\n        /* \"--CODEGEN--\":21006:21056   */\n      swap1\n      pop\n        /* \"--CODEGEN--\":21000:21061   */\n      swap2\n      swap1\n      pop\n      jump\t// out\n        /* \"--CODEGEN--\":21068:21176   */\n    tag_464:\n      0x00\n        /* \"--CODEGEN--\":21147:21171   */\n      tag_466\n        /* \"--CODEGEN--\":21165:21170   */\n      dup3\n        /* \"--CODEGEN--\":21147:21171   */\n      tag_453\n      jump\t// in\n    tag_466:\n        /* \"--CODEGEN--\":21134:21171   */\n      swap1\n      pop\n        /* \"--CODEGEN--\":21128:21176   */\n      swap2\n      swap1\n      pop\n      jump\t// out\n        /* \"--CODEGEN--\":21184:21329   */\n    tag_268:\n        /* \"--CODEGEN--\":21265:21271   */\n      dup3\n        /* \"--CODEGEN--\":21260:21263   */\n      dup2\n        /* \"--CODEGEN--\":21255:21258   */\n      dup4\n        /* \"--CODEGEN--\":21242:21272   */\n      calldatacopy\n        /* \"--CODEGEN--\":21321:21322   */\n      0x00\n        /* \"--CODEGEN--\":21312:21318   */\n      dup4\n        /* \"--CODEGEN--\":21307:21310   */\n      dup4\n        /* \"--CODEGEN--\":21303:21319   */\n      add\n        /* \"--CODEGEN--\":21296:21323   */\n      mstore\n        /* \"--CODEGEN--\":21235:21329   */\n      pop\n      pop\n      pop\n      jump\t// out\n        /* \"--CODEGEN--\":21338:21606   */\n    tag_320:\n        /* \"--CODEGEN--\":21403:21404   */\n      0x00\n        /* \"--CODEGEN--\":21410:21511   */\n    tag_469:\n        /* \"--CODEGEN--\":21424:21430   */\n      dup4\n        /* \"--CODEGEN--\":21421:21422   */\n      dup2\n        /* \"--CODEGEN--\":21418:21431   */\n      lt\n        /* \"--CODEGEN--\":21410:21511   */\n      iszero\n      tag_471\n      jumpi\n        /* \"--CODEGEN--\":21500:21501   */\n      dup1\n        /* \"--CODEGEN--\":21495:21498   */\n      dup3\n        /* \"--CODEGEN--\":21491:21502   */\n      add\n        /* \"--CODEGEN--\":21485:21503   */\n      mload\n        /* \"--CODEGEN--\":21481:21482   */\n      dup2\n        /* \"--CODEGEN--\":21476:21479   */\n      dup5\n        /* \"--CODEGEN--\":21472:21483   */\n      add\n        /* \"--CODEGEN--\":21465:21504   */\n      mstore\n        /* \"--CODEGEN--\":21446:21448   */\n      0x20\n        /* \"--CODEGEN--\":21443:21444   */\n      dup2\n        /* \"--CODEGEN--\":21439:21449   */\n      add\n        /* \"--CODEGEN--\":21434:21449   */\n      swap1\n      pop\n        /* \"--CODEGEN--\":21410:21511   */\n      jump(tag_469)\n    tag_471:\n        /* \"--CODEGEN--\":21526:21532   */\n      dup4\n        /* \"--CODEGEN--\":21523:21524   */\n      dup2\n        /* \"--CODEGEN--\":21520:21533   */\n      gt\n        /* \"--CODEGEN--\":21517:21519   */\n      iszero\n      tag_472\n      jumpi\n        /* \"--CODEGEN--\":21591:21592   */\n      0x00\n        /* \"--CODEGEN--\":21582:21588   */\n      dup5\n        /* \"--CODEGEN--\":21577:21580   */\n      dup5\n        /* \"--CODEGEN--\":21573:21589   */\n      add\n        /* \"--CODEGEN--\":21566:21593   */\n      mstore\n        /* \"--CODEGEN--\":21517:21519   */\n    tag_472:\n        /* \"--CODEGEN--\":21387:21606   */\n      pop\n      pop\n      pop\n      pop\n      jump\t// out\n        /* \"--CODEGEN--\":21614:21711   */\n    tag_322:\n      0x00\n        /* \"--CODEGEN--\":21702:21704   */\n      0x1f\n        /* \"--CODEGEN--\":21698:21705   */\n      not\n        /* \"--CODEGEN--\":21693:21695   */\n      0x1f\n        /* \"--CODEGEN--\":21686:21691   */\n      dup4\n        /* \"--CODEGEN--\":21682:21696   */\n      add\n        /* \"--CODEGEN--\":21678:21706   */\n      and\n        /* \"--CODEGEN--\":21668:21706   */\n      swap1\n      pop\n        /* \"--CODEGEN--\":21662:21711   */\n      swap2\n      swap1\n      pop\n      jump\t// out\n        /* \"--CODEGEN--\":21719:21836   */\n    tag_254:\n        /* \"--CODEGEN--\":21788:21812   */\n      tag_475\n        /* \"--CODEGEN--\":21806:21811   */\n      dup2\n        /* \"--CODEGEN--\":21788:21812   */\n      tag_308\n      jump\t// in\n    tag_475:\n        /* \"--CODEGEN--\":21781:21786   */\n      dup2\n        /* \"--CODEGEN--\":21778:21813   */\n      eq\n        /* \"--CODEGEN--\":21768:21770   */\n      tag_476\n      jumpi\n        /* \"--CODEGEN--\":21827:21828   */\n      0x00\n        /* \"--CODEGEN--\":21824:21825   */\n      dup1\n        /* \"--CODEGEN--\":21817:21829   */\n      revert\n        /* \"--CODEGEN--\":21768:21770   */\n    tag_476:\n        /* \"--CODEGEN--\":21762:21836   */\n      pop\n      jump\t// out\n        /* \"--CODEGEN--\":21843:21954   */\n    tag_258:\n        /* \"--CODEGEN--\":21909:21930   */\n      tag_478\n        /* \"--CODEGEN--\":21924:21929   */\n      dup2\n        /* \"--CODEGEN--\":21909:21930   */\n      tag_312\n      jump\t// in\n    tag_478:\n        /* \"--CODEGEN--\":21902:21907   */\n      dup2\n        /* \"--CODEGEN--\":21899:21931   */\n      eq\n        /* \"--CODEGEN--\":21889:21891   */\n      tag_479\n      jumpi\n        /* \"--CODEGEN--\":21945:21946   */\n      0x00\n        /* \"--CODEGEN--\":21942:21943   */\n      dup1\n        /* \"--CODEGEN--\":21935:21947   */\n      revert\n        /* \"--CODEGEN--\":21889:21891   */\n    tag_479:\n        /* \"--CODEGEN--\":21883:21954   */\n      pop\n      jump\t// out\n        /* \"--CODEGEN--\":21961:22078   */\n    tag_272:\n        /* \"--CODEGEN--\":22030:22054   */\n      tag_481\n        /* \"--CODEGEN--\":22048:22053   */\n      dup2\n        /* \"--CODEGEN--\":22030:22054   */\n      tag_388\n      jump\t// in\n    tag_481:\n        /* \"--CODEGEN--\":22023:22028   */\n      dup2\n        /* \"--CODEGEN--\":22020:22055   */\n      eq\n        /* \"--CODEGEN--\":22010:22012   */\n      tag_482\n      jumpi\n        /* \"--CODEGEN--\":22069:22070   */\n      0x00\n        /* \"--CODEGEN--\":22066:22067   */\n      dup1\n        /* \"--CODEGEN--\":22059:22071   */\n      revert\n        /* \"--CODEGEN--\":22010:22012   */\n    tag_482:\n        /* \"--CODEGEN--\":22004:22078   */\n      pop\n      jump\t// out\n\n    auxdata: 0xa2646970667358221220ef45b5bdb771600354731369cc1d1857fe587c4bbdcdecfd53f1829806b7e3a164736f6c634300060c0033\n}\n\nsub_1: assembly {\n        /* \"Disney/ERC20.sol\":1639:4341  contract ERC20Basic is IERC20 {\r... */\n      mstore(0x40, 0x80)\n        /* \"Disney/ERC20.sol\":1983:2119  constructor (uint256 initialSupply) public {\r... */\n      callvalue\n      dup1\n      iszero\n      tag_1\n      jumpi\n      0x00\n      dup1\n      revert\n    tag_1:\n      pop\n      mload(0x40)\n      sub(codesize, bytecodeSize)\n      dup1\n      bytecodeSize\n      dup4\n      codecopy\n      dup2\n      dup2\n      add\n      0x40\n      mstore\n      dup2\n      add\n      swap1\n      tag_2\n      swap2\n      swap1\n      tag_3\n      jump\t// in\n    tag_2:\n        /* \"Disney/ERC20.sol\":2052:2065  initialSupply */\n      dup1\n        /* \"Disney/ERC20.sol\":2037:2049  totalSupply_ */\n      0x02\n        /* \"Disney/ERC20.sol\":2037:2065  totalSupply_ = initialSupply */\n      dup2\n      swap1\n      sstore\n      pop\n        /* \"Disney/ERC20.sol\":2099:2111  totalSupply_ */\n      sload(0x02)\n        /* \"Disney/ERC20.sol\":2076:2084  balances */\n      0x00\n        /* \"Disney/ERC20.sol\":2076:2096  balances[msg.sender] */\n      dup1\n        /* \"Disney/ERC20.sol\":2085:2095  msg.sender */\n      caller\n        /* \"Disney/ERC20.sol\":2076:2096  balances[msg.sender] */\n      0xffffffffffffffffffffffffffffffffffffffff\n      and\n      0xffffffffffffffffffffffffffffffffffffffff\n      and\n      dup2\n      mstore\n      0x20\n      add\n      swap1\n      dup2\n      mstore\n      0x20\n      add\n      0x00\n      keccak256\n        /* \"Disney/ERC20.sol\":2076:2111  balances[msg.sender] = totalSupply_ */\n      dup2\n      swap1\n      sstore\n      pop\n        /* \"Disney/ERC20.sol\":1983:2119  constructor (uint256 initialSupply) public {\r... */\n      pop\n        /* \"Disney/ERC20.sol\":1639:4341  contract ERC20Basic is IERC20 {\r... */\n      jump(tag_6)\n        /* \"--CODEGEN--\":5:139   */\n    tag_8:\n      0x00\n        /* \"--CODEGEN--\":89:95   */\n      dup2\n        /* \"--CODEGEN--\":83:96   */\n      mload\n        /* \"--CODEGEN--\":74:96   */\n      swap1\n      pop\n        /* \"--CODEGEN--\":101:134   */\n      tag_10\n        /* \"--CODEGEN--\":128:133   */\n      dup2\n        /* \"--CODEGEN--\":101:134   */\n      tag_11\n      jump\t// in\n    tag_10:\n        /* \"--CODEGEN--\":68:139   */\n      swap3\n      swap2\n      pop\n      pop\n      jump\t// out\n        /* \"--CODEGEN--\":146:409   */\n    tag_3:\n      0x00\n        /* \"--CODEGEN--\":261:263   */\n      0x20\n        /* \"--CODEGEN--\":249:258   */\n      dup3\n        /* \"--CODEGEN--\":240:247   */\n      dup5\n        /* \"--CODEGEN--\":236:259   */\n      sub\n        /* \"--CODEGEN--\":232:264   */\n      slt\n        /* \"--CODEGEN--\":229:231   */\n      iszero\n      tag_13\n      jumpi\n        /* \"--CODEGEN--\":277:278   */\n      0x00\n        /* \"--CODEGEN--\":274:275   */\n      dup1\n        /* \"--CODEGEN--\":267:279   */\n      revert\n        /* \"--CODEGEN--\":229:231   */\n    tag_13:\n        /* \"--CODEGEN--\":312:313   */\n      0x00\n        /* \"--CODEGEN--\":329:393   */\n      tag_14\n        /* \"--CODEGEN--\":385:392   */\n      dup5\n        /* \"--CODEGEN--\":376:382   */\n      dup3\n        /* \"--CODEGEN--\":365:374   */\n      dup6\n        /* \"--CODEGEN--\":361:383   */\n      add\n        /* \"--CODEGEN--\":329:393   */\n      tag_8\n      jump\t// in\n    tag_14:\n        /* \"--CODEGEN--\":319:393   */\n      swap2\n      pop\n        /* \"--CODEGEN--\":291:399   */\n      pop\n        /* \"--CODEGEN--\":223:409   */\n      swap3\n      swap2\n      pop\n      pop\n      jump\t// out\n        /* \"--CODEGEN--\":416:488   */\n    tag_15:\n      0x00\n        /* \"--CODEGEN--\":478:483   */\n      dup2\n        /* \"--CODEGEN--\":467:483   */\n      swap1\n      pop\n        /* \"--CODEGEN--\":461:488   */\n      swap2\n      swap1\n      pop\n      jump\t// out\n        /* \"--CODEGEN--\":495:612   */\n    tag_11:\n        /* \"--CODEGEN--\":564:588   */\n      tag_18\n        /* \"--CODEGEN--\":582:587   */\n      dup2\n        /* \"--CODEGEN--\":564:588   */\n      tag_15\n      jump\t// in\n    tag_18:\n        /* \"--CODEGEN--\":557:562   */\n      dup2\n        /* \"--CODEGEN--\":554:589   */\n      eq\n        /* \"--CODEGEN--\":544:546   */\n      tag_19\n      jumpi\n        /* \"--CODEGEN--\":603:604   */\n      0x00\n        /* \"--CODEGEN--\":600:601   */\n      dup1\n        /* \"--CODEGEN--\":593:605   */\n      revert\n        /* \"--CODEGEN--\":544:546   */\n    tag_19:\n        /* \"--CODEGEN--\":538:612   */\n      pop\n      jump\t// out\n        /* \"Disney/ERC20.sol\":1639:4341  contract ERC20Basic is IERC20 {\r... */\n    tag_6:\n      dataSize(sub_0)\n      dup1\n      dataOffset(sub_0)\n      0x00\n      codecopy\n      0x00\n      return\n    stop\n\n    sub_0: assembly {\n            /* \"Disney/ERC20.sol\":1639:4341  contract ERC20Basic is IERC20 {\r... */\n          mstore(0x40, 0x80)\n          callvalue\n          dup1\n          iszero\n          tag_1\n          jumpi\n          0x00\n          dup1\n          revert\n        tag_1:\n          pop\n          jumpi(tag_2, lt(calldatasize, 0x04))\n          shr(0xe0, calldataload(0x00))\n          dup1\n          0x313ce567\n          gt\n          tag_14\n          jumpi\n          dup1\n          0x313ce567\n          eq\n          tag_8\n          jumpi\n          dup1\n          0x70a08231\n          eq\n          tag_9\n          jumpi\n          dup1\n          0x95d89b41\n          eq\n          tag_10\n          jumpi\n          dup1\n          0xa9059cbb\n          eq\n          tag_11\n          jumpi\n          dup1\n          0xdd62ed3e\n          eq\n          tag_12\n          jumpi\n          dup1\n          0xef910460\n          eq\n          tag_13\n          jumpi\n          jump(tag_2)\n        tag_14:\n          dup1\n          0x06fdde03\n          eq\n          tag_3\n          jumpi\n          dup1\n          0x095ea7b3\n          eq\n          tag_4\n          jumpi\n          dup1\n          0x18160ddd\n          eq\n          tag_5\n          jumpi\n          dup1\n          0x1d43cc98\n          eq\n          tag_6\n          jumpi\n          dup1\n          0x23b872dd\n          eq\n          tag_7\n          jumpi\n        tag_2:\n          0x00\n          dup1\n          revert\n            /* \"Disney/ERC20.sol\":1713:1757  string public constant name = \"ERC20AKALugo\" */\n        tag_3:\n          tag_15\n          tag_16\n          jump\t// in\n        tag_15:\n          mload(0x40)\n          tag_17\n          swap2\n          swap1\n          tag_18\n          jump\t// in\n        tag_17:\n          mload(0x40)\n          dup1\n          swap2\n          sub\n          swap1\n          return\n            /* \"Disney/ERC20.sol\":3608:3837  function approve(address spender, uint numTokens) public override returns(bool) {\r... */\n        tag_4:\n          tag_19\n          0x04\n          dup1\n          calldatasize\n          sub\n          dup2\n          add\n          swap1\n          tag_20\n          swap2\n          swap1\n          tag_21\n          jump\t// in\n        tag_20:\n          tag_22\n          jump\t// in\n        tag_19:\n          mload(0x40)\n          tag_23\n          swap2\n          swap1\n          tag_24\n          jump\t// in\n        tag_23:\n          mload(0x40)\n          dup1\n          swap2\n          sub\n          swap1\n          return\n            /* \"Disney/ERC20.sol\":2292:2391  function totalSupply() public override view returns(uint256) {\r... */\n        tag_5:\n          tag_25\n          tag_26\n          jump\t// in\n        tag_25:\n          mload(0x40)\n          tag_27\n          swap2\n          swap1\n          tag_28\n          jump\t// in\n        tag_27:\n          mload(0x40)\n          dup1\n          swap2\n          sub\n          swap1\n          return\n            /* \"Disney/ERC20.sol\":2399:2557  function increaseTotalSupply(uint newTokensAmount) public {\r... */\n        tag_6:\n          tag_29\n          0x04\n          dup1\n          calldatasize\n          sub\n          dup2\n          add\n          swap1\n          tag_30\n          swap2\n          swap1\n          tag_31\n          jump\t// in\n        tag_30:\n          tag_32\n          jump\t// in\n        tag_29:\n          stop\n            /* \"Disney/ERC20.sol\":3845:4338  function transferFrom(address owner, address buyer, uint256 numTokens) public override returns(bool) {\r... */\n        tag_7:\n          tag_33\n          0x04\n          dup1\n          calldatasize\n          sub\n          dup2\n          add\n          swap1\n          tag_34\n          swap2\n          swap1\n          tag_35\n          jump\t// in\n        tag_34:\n          tag_36\n          jump\t// in\n        tag_33:\n          mload(0x40)\n          tag_37\n          swap2\n          swap1\n          tag_24\n          jump\t// in\n        tag_37:\n          mload(0x40)\n          dup1\n          swap2\n          sub\n          swap1\n          return\n            /* \"Disney/ERC20.sol\":1808:1843  uint8 public constant decimals = 18 */\n        tag_8:\n          tag_38\n          tag_39\n          jump\t// in\n        tag_38:\n          mload(0x40)\n          tag_40\n          swap2\n          swap1\n          tag_41\n          jump\t// in\n        tag_40:\n          mload(0x40)\n          dup1\n          swap2\n          sub\n          swap1\n          return\n            /* \"Disney/ERC20.sol\":2565:2683  function balanceOf(address account) public override view returns (uint256) {\r... */\n        tag_9:\n          tag_42\n          0x04\n          dup1\n          calldatasize\n          sub\n          dup2\n          add\n          swap1\n          tag_43\n          swap2\n          swap1\n          tag_44\n          jump\t// in\n        tag_43:\n          tag_45\n          jump\t// in\n        tag_42:\n          mload(0x40)\n          tag_46\n          swap2\n          swap1\n          tag_28\n          jump\t// in\n        tag_46:\n          mload(0x40)\n          dup1\n          swap2\n          sub\n          swap1\n          return\n            /* \"Disney/ERC20.sol\":1764:1801  string public constant symbol = \"AKA\" */\n        tag_10:\n          tag_47\n          tag_48\n          jump\t// in\n        tag_47:\n          mload(0x40)\n          tag_49\n          swap2\n          swap1\n          tag_18\n          jump\t// in\n        tag_49:\n          mload(0x40)\n          dup1\n          swap2\n          sub\n          swap1\n          return\n            /* \"Disney/ERC20.sol\":2838:3209  function transfer(address recipient, uint256 numTokens) public override returns(bool) {\r... */\n        tag_11:\n          tag_50\n          0x04\n          dup1\n          calldatasize\n          sub\n          dup2\n          add\n          swap1\n          tag_51\n          swap2\n          swap1\n          tag_21\n          jump\t// in\n        tag_51:\n          tag_52\n          jump\t// in\n        tag_50:\n          mload(0x40)\n          tag_53\n          swap2\n          swap1\n          tag_24\n          jump\t// in\n        tag_53:\n          mload(0x40)\n          dup1\n          swap2\n          sub\n          swap1\n          return\n            /* \"Disney/ERC20.sol\":2691:2830  function allowance(address owner, address spender) public override view returns (uint256) {\r... */\n        tag_12:\n          tag_54\n          0x04\n          dup1\n          calldatasize\n          sub\n          dup2\n          add\n          swap1\n          tag_55\n          swap2\n          swap1\n          tag_56\n          jump\t// in\n        tag_55:\n          tag_57\n          jump\t// in\n        tag_54:\n          mload(0x40)\n          tag_58\n          swap2\n          swap1\n          tag_28\n          jump\t// in\n        tag_58:\n          mload(0x40)\n          dup1\n          swap2\n          sub\n          swap1\n          return\n            /* \"Disney/ERC20.sol\":3217:3600  function transfer_Disney(address cliente, address recipient, uint256 numTokens) public override returns(bool) {\r... */\n        tag_13:\n          tag_59\n          0x04\n          dup1\n          calldatasize\n          sub\n          dup2\n          add\n          swap1\n          tag_60\n          swap2\n          swap1\n          tag_35\n          jump\t// in\n        tag_60:\n          tag_61\n          jump\t// in\n        tag_59:\n          mload(0x40)\n          tag_62\n          swap2\n          swap1\n          tag_24\n          jump\t// in\n        tag_62:\n          mload(0x40)\n          dup1\n          swap2\n          sub\n          swap1\n          return\n            /* \"Disney/ERC20.sol\":1713:1757  string public constant name = \"ERC20AKALugo\" */\n        tag_16:\n          mload(0x40)\n          dup1\n          0x40\n          add\n          0x40\n          mstore\n          dup1\n          0x0c\n          dup2\n          mstore\n          0x20\n          add\n          0x4552433230414b414c75676f0000000000000000000000000000000000000000\n          dup2\n          mstore\n          pop\n          dup2\n          jump\t// out\n            /* \"Disney/ERC20.sol\":3608:3837  function approve(address spender, uint numTokens) public override returns(bool) {\r... */\n        tag_22:\n            /* \"Disney/ERC20.sol\":3682:3686  bool */\n          0x00\n            /* \"Disney/ERC20.sol\":3740:3749  numTokens */\n          dup2\n            /* \"Disney/ERC20.sol\":3709:3716  allowed */\n          0x01\n            /* \"Disney/ERC20.sol\":3709:3728  allowed[msg.sender] */\n          0x00\n            /* \"Disney/ERC20.sol\":3717:3727  msg.sender */\n          caller\n            /* \"Disney/ERC20.sol\":3709:3728  allowed[msg.sender] */\n          0xffffffffffffffffffffffffffffffffffffffff\n          and\n          0xffffffffffffffffffffffffffffffffffffffff\n          and\n          dup2\n          mstore\n          0x20\n          add\n          swap1\n          dup2\n          mstore\n          0x20\n          add\n          0x00\n          keccak256\n            /* \"Disney/ERC20.sol\":3709:3737  allowed[msg.sender][spender] */\n          0x00\n            /* \"Disney/ERC20.sol\":3729:3736  spender */\n          dup6\n            /* \"Disney/ERC20.sol\":3709:3737  allowed[msg.sender][spender] */\n          0xffffffffffffffffffffffffffffffffffffffff\n          and\n          0xffffffffffffffffffffffffffffffffffffffff\n          and\n          dup2\n          mstore\n          0x20\n          add\n          swap1\n          dup2\n          mstore\n          0x20\n          add\n          0x00\n          keccak256\n            /* \"Disney/ERC20.sol\":3709:3749  allowed[msg.sender][spender] = numTokens */\n          dup2\n          swap1\n          sstore\n          pop\n            /* \"Disney/ERC20.sol\":3786:3793  spender */\n          dup3\n            /* \"Disney/ERC20.sol\":3765:3805  Approval(msg.sender, spender, numTokens) */\n          0xffffffffffffffffffffffffffffffffffffffff\n          and\n            /* \"Disney/ERC20.sol\":3774:3784  msg.sender */\n          caller\n            /* \"Disney/ERC20.sol\":3765:3805  Approval(msg.sender, spender, numTokens) */\n          0xffffffffffffffffffffffffffffffffffffffff\n          and\n          0x8c5be1e5ebec7d5bd14f71427d1e84f3dd0314c0f7b2291e5b200ac8c7c3b925\n            /* \"Disney/ERC20.sol\":3795:3804  numTokens */\n          dup5\n            /* \"Disney/ERC20.sol\":3765:3805  Approval(msg.sender, spender, numTokens) */\n          mload(0x40)\n          tag_64\n          swap2\n          swap1\n          tag_28\n          jump\t// in\n        tag_64:\n          mload(0x40)\n          dup1\n          swap2\n          sub\n          swap1\n          log3\n            /* \"Disney/ERC20.sol\":3825:3829  true */\n          0x01\n            /* \"Disney/ERC20.sol\":3818:3829  return true */\n          swap1\n          pop\n            /* \"Disney/ERC20.sol\":3608:3837  function approve(address spender, uint numTokens) public override returns(bool) {\r... */\n          swap3\n          swap2\n          pop\n          pop\n          jump\t// out\n            /* \"Disney/ERC20.sol\":2292:2391  function totalSupply() public override view returns(uint256) {\r... */\n        tag_26:\n            /* \"Disney/ERC20.sol\":2344:2351  uint256 */\n          0x00\n            /* \"Disney/ERC20.sol\":2371:2383  totalSupply_ */\n          sload(0x02)\n            /* \"Disney/ERC20.sol\":2364:2383  return totalSupply_ */\n          swap1\n          pop\n            /* \"Disney/ERC20.sol\":2292:2391  function totalSupply() public override view returns(uint256) {\r... */\n          swap1\n          jump\t// out\n            /* \"Disney/ERC20.sol\":2399:2557  function increaseTotalSupply(uint newTokensAmount) public {\r... */\n        tag_32:\n            /* \"Disney/ERC20.sol\":2484:2499  newTokensAmount */\n          dup1\n            /* \"Disney/ERC20.sol\":2468:2480  totalSupply_ */\n          0x02\n          0x00\n            /* \"Disney/ERC20.sol\":2468:2499  totalSupply_ += newTokensAmount */\n          dup3\n          dup3\n          sload\n          add\n          swap3\n          pop\n          pop\n          dup2\n          swap1\n          sstore\n          pop\n            /* \"Disney/ERC20.sol\":2534:2549  newTokensAmount */\n          dup1\n            /* \"Disney/ERC20.sol\":2510:2518  balances */\n          0x00\n            /* \"Disney/ERC20.sol\":2510:2530  balances[msg.sender] */\n          dup1\n            /* \"Disney/ERC20.sol\":2519:2529  msg.sender */\n          caller\n            /* \"Disney/ERC20.sol\":2510:2530  balances[msg.sender] */\n          0xffffffffffffffffffffffffffffffffffffffff\n          and\n          0xffffffffffffffffffffffffffffffffffffffff\n          and\n          dup2\n          mstore\n          0x20\n          add\n          swap1\n          dup2\n          mstore\n          0x20\n          add\n          0x00\n          keccak256\n          0x00\n            /* \"Disney/ERC20.sol\":2510:2549  balances[msg.sender] += newTokensAmount */\n          dup3\n          dup3\n          sload\n          add\n          swap3\n          pop\n          pop\n          dup2\n          swap1\n          sstore\n          pop\n            /* \"Disney/ERC20.sol\":2399:2557  function increaseTotalSupply(uint newTokensAmount) public {\r... */\n          pop\n          jump\t// out\n            /* \"Disney/ERC20.sol\":3845:4338  function transferFrom(address owner, address buyer, uint256 numTokens) public override returns(bool) {\r... */\n        tag_36:\n            /* \"Disney/ERC20.sol\":3940:3944  bool */\n          0x00\n            /* \"Disney/ERC20.sol\":3985:3994  numTokens */\n          dup2\n            /* \"Disney/ERC20.sol\":3966:3974  balances */\n          0x00\n            /* \"Disney/ERC20.sol\":3966:3981  balances[owner] */\n          dup1\n            /* \"Disney/ERC20.sol\":3975:3980  owner */\n          dup7\n            /* \"Disney/ERC20.sol\":3966:3981  balances[owner] */\n          0xffffffffffffffffffffffffffffffffffffffff\n          and\n          0xffffffffffffffffffffffffffffffffffffffff\n          and\n          dup2\n          mstore\n          0x20\n          add\n          swap1\n          dup2\n          mstore\n          0x20\n          add\n          0x00\n          keccak256\n          sload\n            /* \"Disney/ERC20.sol\":3966:3994  balances[owner] >= numTokens */\n          lt\n          iszero\n            /* \"Disney/ERC20.sol\":3957:3995  require (balances[owner] >= numTokens) */\n          tag_68\n          jumpi\n          0x00\n          dup1\n          revert\n        tag_68:\n            /* \"Disney/ERC20.sol\":4045:4054  numTokens */\n          dup2\n            /* \"Disney/ERC20.sol\":4015:4022  allowed */\n          0x01\n            /* \"Disney/ERC20.sol\":4015:4029  allowed[owner] */\n          0x00\n            /* \"Disney/ERC20.sol\":4023:4028  owner */\n          dup7\n            /* \"Disney/ERC20.sol\":4015:4029  allowed[owner] */\n          0xffffffffffffffffffffffffffffffffffffffff\n          and\n          0xffffffffffffffffffffffffffffffffffffffff\n          and\n          dup2\n          mstore\n          0x20\n          add\n          swap1\n          dup2\n          mstore\n          0x20\n          add\n          0x00\n          keccak256\n            /* \"Disney/ERC20.sol\":4015:4041  allowed[owner][msg.sender] */\n          0x00\n            /* \"Disney/ERC20.sol\":4030:4040  msg.sender */\n          caller\n            /* \"Disney/ERC20.sol\":4015:4041  allowed[owner][msg.sender] */\n          0xffffffffffffffffffffffffffffffffffffffff\n          and\n          0xffffffffffffffffffffffffffffffffffffffff\n          and\n          dup2\n          mstore\n          0x20\n          add\n          swap1\n          dup2\n          mstore\n          0x20\n          add\n          0x00\n          keccak256\n          sload\n            /* \"Disney/ERC20.sol\":4015:4054  allowed[owner][msg.sender] >= numTokens */\n          lt\n          iszero\n            /* \"Disney/ERC20.sol\":4006:4055  require (allowed[owner][msg.sender] >= numTokens) */\n          tag_69\n          jumpi\n          0x00\n          dup1\n          revert\n        tag_69:\n            /* \"Disney/ERC20.sol\":4086:4116  balances[owner].sub(numTokens) */\n          tag_70\n            /* \"Disney/ERC20.sol\":4106:4115  numTokens */\n          dup3\n            /* \"Disney/ERC20.sol\":4086:4094  balances */\n          0x00\n            /* \"Disney/ERC20.sol\":4086:4101  balances[owner] */\n          dup1\n            /* \"Disney/ERC20.sol\":4095:4100  owner */\n          dup8\n            /* \"Disney/ERC20.sol\":4086:4101  balances[owner] */\n          0xffffffffffffffffffffffffffffffffffffffff\n          and\n          0xffffffffffffffffffffffffffffffffffffffff\n          and\n          dup2\n          mstore\n          0x20\n          add\n          swap1\n          dup2\n          mstore\n          0x20\n          add\n          0x00\n          keccak256\n          sload\n            /* \"Disney/ERC20.sol\":4086:4105  balances[owner].sub */\n          tag_71\n          swap1\n            /* \"Disney/ERC20.sol\":4086:4116  balances[owner].sub(numTokens) */\n          swap2\n          swap1\n          0xffffffff\n          and\n          jump\t// in\n        tag_70:\n            /* \"Disney/ERC20.sol\":4068:4076  balances */\n          0x00\n            /* \"Disney/ERC20.sol\":4068:4083  balances[owner] */\n          dup1\n            /* \"Disney/ERC20.sol\":4077:4082  owner */\n          dup7\n            /* \"Disney/ERC20.sol\":4068:4083  balances[owner] */\n          0xffffffffffffffffffffffffffffffffffffffff\n          and\n          0xffffffffffffffffffffffffffffffffffffffff\n          and\n          dup2\n          mstore\n          0x20\n          add\n          swap1\n          dup2\n          mstore\n          0x20\n          add\n          0x00\n          keccak256\n            /* \"Disney/ERC20.sol\":4068:4116  balances[owner] = balances[owner].sub(numTokens) */\n          dup2\n          swap1\n          sstore\n          pop\n            /* \"Disney/ERC20.sol\":4156:4197  allowed[owner][msg.sender].sub(numTokens) */\n          tag_72\n            /* \"Disney/ERC20.sol\":4187:4196  numTokens */\n          dup3\n            /* \"Disney/ERC20.sol\":4156:4163  allowed */\n          0x01\n            /* \"Disney/ERC20.sol\":4156:4170  allowed[owner] */\n          0x00\n            /* \"Disney/ERC20.sol\":4164:4169  owner */\n          dup8\n            /* \"Disney/ERC20.sol\":4156:4170  allowed[owner] */\n          0xffffffffffffffffffffffffffffffffffffffff\n          and\n          0xffffffffffffffffffffffffffffffffffffffff\n          and\n          dup2\n          mstore\n          0x20\n          add\n          swap1\n          dup2\n          mstore\n          0x20\n          add\n          0x00\n          keccak256\n            /* \"Disney/ERC20.sol\":4156:4182  allowed[owner][msg.sender] */\n          0x00\n            /* \"Disney/ERC20.sol\":4171:4181  msg.sender */\n          caller\n            /* \"Disney/ERC20.sol\":4156:4182  allowed[owner][msg.sender] */\n          0xffffffffffffffffffffffffffffffffffffffff\n          and\n          0xffffffffffffffffffffffffffffffffffffffff\n          and\n          dup2\n          mstore\n          0x20\n          add\n          swap1\n          dup2\n          mstore\n          0x20\n          add\n          0x00\n          keccak256\n          sload\n            /* \"Disney/ERC20.sol\":4156:4186  allowed[owner][msg.sender].sub */\n          tag_71\n          swap1\n            /* \"Disney/ERC20.sol\":4156:4197  allowed[owner][msg.sender].sub(numTokens) */\n          swap2\n          swap1\n          0xffffffff\n          and\n          jump\t// in\n        tag_72:\n            /* \"Disney/ERC20.sol\":4127:4134  allowed */\n          0x01\n            /* \"Disney/ERC20.sol\":4127:4141  allowed[owner] */\n          0x00\n            /* \"Disney/ERC20.sol\":4135:4140  owner */\n          dup7\n            /* \"Disney/ERC20.sol\":4127:4141  allowed[owner] */\n          0xffffffffffffffffffffffffffffffffffffffff\n          and\n          0xffffffffffffffffffffffffffffffffffffffff\n          and\n          dup2\n          mstore\n          0x20\n          add\n          swap1\n          dup2\n          mstore\n          0x20\n          add\n          0x00\n          keccak256\n            /* \"Disney/ERC20.sol\":4127:4153  allowed[owner][msg.sender] */\n          0x00\n            /* \"Disney/ERC20.sol\":4142:4152  msg.sender */\n          caller\n            /* \"Disney/ERC20.sol\":4127:4153  allowed[owner][msg.sender] */\n          0xffffffffffffffffffffffffffffffffffffffff\n          and\n          0xffffffffffffffffffffffffffffffffffffffff\n          and\n          dup2\n          mstore\n          0x20\n          add\n          swap1\n          dup2\n          mstore\n          0x20\n          add\n          0x00\n          keccak256\n            /* \"Disney/ERC20.sol\":4127:4197  allowed[owner][msg.sender] = allowed[owner][msg.sender].sub(numTokens) */\n          dup2\n          swap1\n          sstore\n          pop\n            /* \"Disney/ERC20.sol\":4226:4256  balances[buyer].add(numTokens) */\n          tag_73\n            /* \"Disney/ERC20.sol\":4246:4255  numTokens */\n          dup3\n            /* \"Disney/ERC20.sol\":4226:4234  balances */\n          0x00\n            /* \"Disney/ERC20.sol\":4226:4241  balances[buyer] */\n          dup1\n            /* \"Disney/ERC20.sol\":4235:4240  buyer */\n          dup7\n            /* \"Disney/ERC20.sol\":4226:4241  balances[buyer] */\n          0xffffffffffffffffffffffffffffffffffffffff\n          and\n          0xffffffffffffffffffffffffffffffffffffffff\n          and\n          dup2\n          mstore\n          0x20\n          add\n          swap1\n          dup2\n          mstore\n          0x20\n          add\n          0x00\n          keccak256\n          sload\n            /* \"Disney/ERC20.sol\":4226:4245  balances[buyer].add */\n          tag_74\n          swap1\n            /* \"Disney/ERC20.sol\":4226:4256  balances[buyer].add(numTokens) */\n          swap2\n          swap1\n          0xffffffff\n          and\n          jump\t// in\n        tag_73:\n            /* \"Disney/ERC20.sol\":4208:4216  balances */\n          0x00\n            /* \"Disney/ERC20.sol\":4208:4223  balances[buyer] */\n          dup1\n            /* \"Disney/ERC20.sol\":4217:4222  buyer */\n          dup6\n            /* \"Disney/ERC20.sol\":4208:4223  balances[buyer] */\n          0xffffffffffffffffffffffffffffffffffffffff\n          and\n          0xffffffffffffffffffffffffffffffffffffffff\n          and\n          dup2\n          mstore\n          0x20\n          add\n          swap1\n          dup2\n          mstore\n          0x20\n          add\n          0x00\n          keccak256\n            /* \"Disney/ERC20.sol\":4208:4256  balances[buyer] = balances[buyer].add(numTokens) */\n          dup2\n          swap1\n          sstore\n          pop\n            /* \"Disney/ERC20.sol\":4290:4295  buyer */\n          dup3\n            /* \"Disney/ERC20.sol\":4274:4307  Transfer(owner, buyer, numTokens) */\n          0xffffffffffffffffffffffffffffffffffffffff\n          and\n            /* \"Disney/ERC20.sol\":4283:4288  owner */\n          dup5\n            /* \"Disney/ERC20.sol\":4274:4307  Transfer(owner, buyer, numTokens) */\n          0xffffffffffffffffffffffffffffffffffffffff\n          and\n          0xddf252ad1be2c89b69c2b068fc378daa952ba7f163c4a11628f55a4df523b3ef\n            /* \"Disney/ERC20.sol\":4297:4306  numTokens */\n          dup5\n            /* \"Disney/ERC20.sol\":4274:4307  Transfer(owner, buyer, numTokens) */\n          mload(0x40)\n          tag_75\n          swap2\n          swap1\n          tag_28\n          jump\t// in\n        tag_75:\n          mload(0x40)\n          dup1\n          swap2\n          sub\n          swap1\n          log3\n            /* \"Disney/ERC20.sol\":4326:4330  true */\n          0x01\n            /* \"Disney/ERC20.sol\":4319:4330  return true */\n          swap1\n          pop\n            /* \"Disney/ERC20.sol\":3845:4338  function transferFrom(address owner, address buyer, uint256 numTokens) public override returns(bool) {\r... */\n          swap4\n          swap3\n          pop\n          pop\n          pop\n          jump\t// out\n            /* \"Disney/ERC20.sol\":1808:1843  uint8 public constant decimals = 18 */\n        tag_39:\n            /* \"Disney/ERC20.sol\":1841:1843  18 */\n          0x12\n            /* \"Disney/ERC20.sol\":1808:1843  uint8 public constant decimals = 18 */\n          dup2\n          jump\t// out\n            /* \"Disney/ERC20.sol\":2565:2683  function balanceOf(address account) public override view returns (uint256) {\r... */\n        tag_45:\n            /* \"Disney/ERC20.sol\":2631:2638  uint256 */\n          0x00\n            /* \"Disney/ERC20.sol\":2658:2666  balances */\n          dup1\n            /* \"Disney/ERC20.sol\":2658:2675  balances[account] */\n          0x00\n            /* \"Disney/ERC20.sol\":2667:2674  account */\n          dup4\n            /* \"Disney/ERC20.sol\":2658:2675  balances[account] */\n          0xffffffffffffffffffffffffffffffffffffffff\n          and\n          0xffffffffffffffffffffffffffffffffffffffff\n          and\n          dup2\n          mstore\n          0x20\n          add\n          swap1\n          dup2\n          mstore\n          0x20\n          add\n          0x00\n          keccak256\n          sload\n            /* \"Disney/ERC20.sol\":2651:2675  return balances[account] */\n          swap1\n          pop\n            /* \"Disney/ERC20.sol\":2565:2683  function balanceOf(address account) public override view returns (uint256) {\r... */\n          swap2\n          swap1\n          pop\n          jump\t// out\n            /* \"Disney/ERC20.sol\":1764:1801  string public constant symbol = \"AKA\" */\n        tag_48:\n          mload(0x40)\n          dup1\n          0x40\n          add\n          0x40\n          mstore\n          dup1\n          0x03\n          dup2\n          mstore\n          0x20\n          add\n          0x414b410000000000000000000000000000000000000000000000000000000000\n          dup2\n          mstore\n          pop\n          dup2\n          jump\t// out\n            /* \"Disney/ERC20.sol\":2838:3209  function transfer(address recipient, uint256 numTokens) public override returns(bool) {\r... */\n        tag_52:\n            /* \"Disney/ERC20.sol\":2918:2922  bool */\n          0x00\n            /* \"Disney/ERC20.sol\":2957:2965  balances */\n          dup1\n            /* \"Disney/ERC20.sol\":2957:2977  balances[msg.sender] */\n          0x00\n            /* \"Disney/ERC20.sol\":2966:2976  msg.sender */\n          caller\n            /* \"Disney/ERC20.sol\":2957:2977  balances[msg.sender] */\n          0xffffffffffffffffffffffffffffffffffffffff\n          and\n          0xffffffffffffffffffffffffffffffffffffffff\n          and\n          dup2\n          mstore\n          0x20\n          add\n          swap1\n          dup2\n          mstore\n          0x20\n          add\n          0x00\n          keccak256\n          sload\n            /* \"Disney/ERC20.sol\":2944:2953  numTokens */\n          dup3\n            /* \"Disney/ERC20.sol\":2944:2977  numTokens <= balances[msg.sender] */\n          gt\n          iszero\n            /* \"Disney/ERC20.sol\":2935:2978  require (numTokens <= balances[msg.sender]) */\n          tag_78\n          jumpi\n          0x00\n          dup1\n          revert\n        tag_78:\n            /* \"Disney/ERC20.sol\":3014:3049  balances[msg.sender].sub(numTokens) */\n          tag_79\n            /* \"Disney/ERC20.sol\":3039:3048  numTokens */\n          dup3\n            /* \"Disney/ERC20.sol\":3014:3022  balances */\n          0x00\n            /* \"Disney/ERC20.sol\":3014:3034  balances[msg.sender] */\n          dup1\n            /* \"Disney/ERC20.sol\":3023:3033  msg.sender */\n          caller\n            /* \"Disney/ERC20.sol\":3014:3034  balances[msg.sender] */\n          0xffffffffffffffffffffffffffffffffffffffff\n          and\n          0xffffffffffffffffffffffffffffffffffffffff\n          and\n          dup2\n          mstore\n          0x20\n          add\n          swap1\n          dup2\n          mstore\n          0x20\n          add\n          0x00\n          keccak256\n          sload\n            /* \"Disney/ERC20.sol\":3014:3038  balances[msg.sender].sub */\n          tag_71\n          swap1\n            /* \"Disney/ERC20.sol\":3014:3049  balances[msg.sender].sub(numTokens) */\n          swap2\n          swap1\n          0xffffffff\n          and\n          jump\t// in\n        tag_79:\n            /* \"Disney/ERC20.sol\":2991:2999  balances */\n          0x00\n            /* \"Disney/ERC20.sol\":2991:3011  balances[msg.sender] */\n          dup1\n            /* \"Disney/ERC20.sol\":3000:3010  msg.sender */\n          caller\n            /* \"Disney/ERC20.sol\":2991:3011  balances[msg.sender] */\n          0xffffffffffffffffffffffffffffffffffffffff\n          and\n          0xffffffffffffffffffffffffffffffffffffffff\n          and\n          dup2\n          mstore\n          0x20\n          add\n          swap1\n          dup2\n          mstore\n          0x20\n          add\n          0x00\n          keccak256\n            /* \"Disney/ERC20.sol\":2991:3049  balances[msg.sender] = balances[msg.sender].sub(numTokens) */\n          dup2\n          swap1\n          sstore\n          pop\n            /* \"Disney/ERC20.sol\":3083:3117  balances[recipient].add(numTokens) */\n          tag_80\n            /* \"Disney/ERC20.sol\":3107:3116  numTokens */\n          dup3\n            /* \"Disney/ERC20.sol\":3083:3091  balances */\n          0x00\n            /* \"Disney/ERC20.sol\":3083:3102  balances[recipient] */\n          dup1\n            /* \"Disney/ERC20.sol\":3092:3101  recipient */\n          dup7\n            /* \"Disney/ERC20.sol\":3083:3102  balances[recipient] */\n          0xffffffffffffffffffffffffffffffffffffffff\n          and\n          0xffffffffffffffffffffffffffffffffffffffff\n          and\n          dup2\n          mstore\n          0x20\n          add\n          swap1\n          dup2\n          mstore\n          0x20\n          add\n          0x00\n          keccak256\n          sload\n            /* \"Disney/ERC20.sol\":3083:3106  balances[recipient].add */\n          tag_74\n          swap1\n            /* \"Disney/ERC20.sol\":3083:3117  balances[recipient].add(numTokens) */\n          swap2\n          swap1\n          0xffffffff\n          and\n          jump\t// in\n        tag_80:\n            /* \"Disney/ERC20.sol\":3061:3069  balances */\n          0x00\n            /* \"Disney/ERC20.sol\":3061:3080  balances[recipient] */\n          dup1\n            /* \"Disney/ERC20.sol\":3070:3079  recipient */\n          dup6\n            /* \"Disney/ERC20.sol\":3061:3080  balances[recipient] */\n          0xffffffffffffffffffffffffffffffffffffffff\n          and\n          0xffffffffffffffffffffffffffffffffffffffff\n          and\n          dup2\n          mstore\n          0x20\n          add\n          swap1\n          dup2\n          mstore\n          0x20\n          add\n          0x00\n          keccak256\n            /* \"Disney/ERC20.sol\":3061:3117  balances[recipient] = balances[recipient].add(numTokens) */\n          dup2\n          swap1\n          sstore\n          pop\n            /* \"Disney/ERC20.sol\":3156:3165  recipient */\n          dup3\n            /* \"Disney/ERC20.sol\":3135:3177  Transfer(msg.sender, recipient, numTokens) */\n          0xffffffffffffffffffffffffffffffffffffffff\n          and\n            /* \"Disney/ERC20.sol\":3144:3154  msg.sender */\n          caller\n            /* \"Disney/ERC20.sol\":3135:3177  Transfer(msg.sender, recipient, numTokens) */\n          0xffffffffffffffffffffffffffffffffffffffff\n          and\n          0xddf252ad1be2c89b69c2b068fc378daa952ba7f163c4a11628f55a4df523b3ef\n            /* \"Disney/ERC20.sol\":3167:3176  numTokens */\n          dup5\n            /* \"Disney/ERC20.sol\":3135:3177  Transfer(msg.sender, recipient, numTokens) */\n          mload(0x40)\n          tag_81\n          swap2\n          swap1\n          tag_28\n          jump\t// in\n        tag_81:\n          mload(0x40)\n          dup1\n          swap2\n          sub\n          swap1\n          log3\n            /* \"Disney/ERC20.sol\":3197:3201  true */\n          0x01\n            /* \"Disney/ERC20.sol\":3190:3201  return true */\n          swap1\n          pop\n            /* \"Disney/ERC20.sol\":2838:3209  function transfer(address recipient, uint256 numTokens) public override returns(bool) {\r... */\n          swap3\n          swap2\n          pop\n          pop\n          jump\t// out\n            /* \"Disney/ERC20.sol\":2691:2830  function allowance(address owner, address spender) public override view returns (uint256) {\r... */\n        tag_57:\n            /* \"Disney/ERC20.sol\":2772:2779  uint256 */\n          0x00\n            /* \"Disney/ERC20.sol\":2799:2806  allowed */\n          0x01\n            /* \"Disney/ERC20.sol\":2799:2813  allowed[owner] */\n          0x00\n            /* \"Disney/ERC20.sol\":2807:2812  owner */\n          dup5\n            /* \"Disney/ERC20.sol\":2799:2813  allowed[owner] */\n          0xffffffffffffffffffffffffffffffffffffffff\n          and\n          0xffffffffffffffffffffffffffffffffffffffff\n          and\n          dup2\n          mstore\n          0x20\n          add\n          swap1\n          dup2\n          mstore\n          0x20\n          add\n          0x00\n          keccak256\n            /* \"Disney/ERC20.sol\":2799:2822  allowed[owner][spender] */\n          0x00\n            /* \"Disney/ERC20.sol\":2814:2821  spender */\n          dup4\n            /* \"Disney/ERC20.sol\":2799:2822  allowed[owner][spender] */\n          0xffffffffffffffffffffffffffffffffffffffff\n          and\n          0xffffffffffffffffffffffffffffffffffffffff\n          and\n          dup2\n          mstore\n          0x20\n          add\n          swap1\n          dup2\n          mstore\n          0x20\n          add\n          0x00\n          keccak256\n          sload\n            /* \"Disney/ERC20.sol\":2792:2822  return allowed[owner][spender] */\n          swap1\n          pop\n            /* \"Disney/ERC20.sol\":2691:2830  function allowance(address owner, address spender) public override view returns (uint256) {\r... */\n          swap3\n          swap2\n          pop\n          pop\n          jump\t// out\n            /* \"Disney/ERC20.sol\":3217:3600  function transfer_Disney(address cliente, address recipient, uint256 numTokens) public override returns(bool) {\r... */\n        tag_61:\n            /* \"Disney/ERC20.sol\":3321:3325  bool */\n          0x00\n            /* \"Disney/ERC20.sol\":3360:3368  balances */\n          dup1\n            /* \"Disney/ERC20.sol\":3360:3377  balances[cliente] */\n          0x00\n            /* \"Disney/ERC20.sol\":3369:3376  cliente */\n          dup6\n            /* \"Disney/ERC20.sol\":3360:3377  balances[cliente] */\n          0xffffffffffffffffffffffffffffffffffffffff\n          and\n          0xffffffffffffffffffffffffffffffffffffffff\n          and\n          dup2\n          mstore\n          0x20\n          add\n          swap1\n          dup2\n          mstore\n          0x20\n          add\n          0x00\n          keccak256\n          sload\n            /* \"Disney/ERC20.sol\":3347:3356  numTokens */\n          dup3\n            /* \"Disney/ERC20.sol\":3347:3377  numTokens <= balances[cliente] */\n          gt\n          iszero\n            /* \"Disney/ERC20.sol\":3338:3378  require (numTokens <= balances[cliente]) */\n          tag_84\n          jumpi\n          0x00\n          dup1\n          revert\n        tag_84:\n            /* \"Disney/ERC20.sol\":3411:3443  balances[cliente].sub(numTokens) */\n          tag_85\n            /* \"Disney/ERC20.sol\":3433:3442  numTokens */\n          dup3\n            /* \"Disney/ERC20.sol\":3411:3419  balances */\n          0x00\n            /* \"Disney/ERC20.sol\":3411:3428  balances[cliente] */\n          dup1\n            /* \"Disney/ERC20.sol\":3420:3427  cliente */\n          dup8\n            /* \"Disney/ERC20.sol\":3411:3428  balances[cliente] */\n          0xffffffffffffffffffffffffffffffffffffffff\n          and\n          0xffffffffffffffffffffffffffffffffffffffff\n          and\n          dup2\n          mstore\n          0x20\n          add\n          swap1\n          dup2\n          mstore\n          0x20\n          add\n          0x00\n          keccak256\n          sload\n            /* \"Disney/ERC20.sol\":3411:3432  balances[cliente].sub */\n          tag_71\n          swap1\n            /* \"Disney/ERC20.sol\":3411:3443  balances[cliente].sub(numTokens) */\n          swap2\n          swap1\n          0xffffffff\n          and\n          jump\t// in\n        tag_85:\n            /* \"Disney/ERC20.sol\":3391:3399  balances */\n          0x00\n            /* \"Disney/ERC20.sol\":3391:3408  balances[cliente] */\n          dup1\n            /* \"Disney/ERC20.sol\":3400:3407  cliente */\n          dup7\n            /* \"Disney/ERC20.sol\":3391:3408  balances[cliente] */\n          0xffffffffffffffffffffffffffffffffffffffff\n          and\n          0xffffffffffffffffffffffffffffffffffffffff\n          and\n          dup2\n          mstore\n          0x20\n          add\n          swap1\n          dup2\n          mstore\n          0x20\n          add\n          0x00\n          keccak256\n            /* \"Disney/ERC20.sol\":3391:3443  balances[cliente] = balances[cliente].sub(numTokens) */\n          dup2\n          swap1\n          sstore\n          pop\n            /* \"Disney/ERC20.sol\":3477:3511  balances[recipient].add(numTokens) */\n          tag_86\n            /* \"Disney/ERC20.sol\":3501:3510  numTokens */\n          dup3\n            /* \"Disney/ERC20.sol\":3477:3485  balances */\n          0x00\n            /* \"Disney/ERC20.sol\":3477:3496  balances[recipient] */\n          dup1\n            /* \"Disney/ERC20.sol\":3486:3495  recipient */\n          dup7\n            /* \"Disney/ERC20.sol\":3477:3496  balances[recipient] */\n          0xffffffffffffffffffffffffffffffffffffffff\n          and\n          0xffffffffffffffffffffffffffffffffffffffff\n          and\n          dup2\n          mstore\n          0x20\n          add\n          swap1\n          dup2\n          mstore\n          0x20\n          add\n          0x00\n          keccak256\n          sload\n            /* \"Disney/ERC20.sol\":3477:3500  balances[recipient].add */\n          tag_74\n          swap1\n            /* \"Disney/ERC20.sol\":3477:3511  balances[recipient].add(numTokens) */\n          swap2\n          swap1\n          0xffffffff\n          and\n          jump\t// in\n        tag_86:\n            /* \"Disney/ERC20.sol\":3455:3463  balances */\n          0x00\n            /* \"Disney/ERC20.sol\":3455:3474  balances[recipient] */\n          dup1\n            /* \"Disney/ERC20.sol\":3464:3473  recipient */\n          dup6\n            /* \"Disney/ERC20.sol\":3455:3474  balances[recipient] */\n          0xffffffffffffffffffffffffffffffffffffffff\n          and\n          0xffffffffffffffffffffffffffffffffffffffff\n          and\n          dup2\n          mstore\n          0x20\n          add\n          swap1\n          dup2\n          mstore\n          0x20\n          add\n          0x00\n          keccak256\n            /* \"Disney/ERC20.sol\":3455:3511  balances[recipient] = balances[recipient].add(numTokens) */\n          dup2\n          swap1\n          sstore\n          pop\n            /* \"Disney/ERC20.sol\":3547:3556  recipient */\n          dup3\n            /* \"Disney/ERC20.sol\":3529:3568  Transfer(cliente, recipient, numTokens) */\n          0xffffffffffffffffffffffffffffffffffffffff\n          and\n            /* \"Disney/ERC20.sol\":3538:3545  cliente */\n          dup5\n            /* \"Disney/ERC20.sol\":3529:3568  Transfer(cliente, recipient, numTokens) */\n          0xffffffffffffffffffffffffffffffffffffffff\n          and\n          0xddf252ad1be2c89b69c2b068fc378daa952ba7f163c4a11628f55a4df523b3ef\n            /* \"Disney/ERC20.sol\":3558:3567  numTokens */\n          dup5\n            /* \"Disney/ERC20.sol\":3529:3568  Transfer(cliente, recipient, numTokens) */\n          mload(0x40)\n          tag_87\n          swap2\n          swap1\n          tag_28\n          jump\t// in\n        tag_87:\n          mload(0x40)\n          dup1\n          swap2\n          sub\n          swap1\n          log3\n            /* \"Disney/ERC20.sol\":3588:3592  true */\n          0x01\n            /* \"Disney/ERC20.sol\":3581:3592  return true */\n          swap1\n          pop\n            /* \"Disney/ERC20.sol\":3217:3600  function transfer_Disney(address cliente, address recipient, uint256 numTokens) public override returns(bool) {\r... */\n          swap4\n          swap3\n          pop\n          pop\n          pop\n          jump\t// out\n            /* \"Disney/SafeMath.sol\":318:437  function sub(uint256 a, uint256 b) internal pure returns (uint256) {\r... */\n        tag_71:\n            /* \"Disney/SafeMath.sol\":376:383  uint256 */\n          0x00\n            /* \"Disney/SafeMath.sol\":406:407  a */\n          dup3\n            /* \"Disney/SafeMath.sol\":401:402  b */\n          dup3\n            /* \"Disney/SafeMath.sol\":401:407  b <= a */\n          gt\n          iszero\n            /* \"Disney/SafeMath.sol\":394:408  assert(b <= a) */\n          tag_89\n          jumpi\n          invalid\n        tag_89:\n            /* \"Disney/SafeMath.sol\":428:429  b */\n          dup2\n            /* \"Disney/SafeMath.sol\":424:425  a */\n          dup4\n            /* \"Disney/SafeMath.sol\":424:429  a - b */\n          sub\n            /* \"Disney/SafeMath.sol\":417:429  return a - b */\n          swap1\n          pop\n            /* \"Disney/SafeMath.sol\":318:437  function sub(uint256 a, uint256 b) internal pure returns (uint256) {\r... */\n          swap3\n          swap2\n          pop\n          pop\n          jump\t// out\n            /* \"Disney/SafeMath.sol\":463:604  function add(uint256 a, uint256 b) internal pure returns (uint256) {\r... */\n        tag_74:\n            /* \"Disney/SafeMath.sol\":521:528  uint256 */\n          0x00\n            /* \"Disney/SafeMath.sol\":539:548  uint256 c */\n          dup1\n            /* \"Disney/SafeMath.sol\":555:556  b */\n          dup3\n            /* \"Disney/SafeMath.sol\":551:552  a */\n          dup5\n            /* \"Disney/SafeMath.sol\":551:556  a + b */\n          add\n            /* \"Disney/SafeMath.sol\":539:556  uint256 c = a + b */\n          swap1\n          pop\n            /* \"Disney/SafeMath.sol\":577:578  a */\n          dup4\n            /* \"Disney/SafeMath.sol\":572:573  c */\n          dup2\n            /* \"Disney/SafeMath.sol\":572:578  c >= a */\n          lt\n          iszero\n            /* \"Disney/SafeMath.sol\":565:579  assert(c >= a) */\n          tag_91\n          jumpi\n          invalid\n        tag_91:\n            /* \"Disney/SafeMath.sol\":595:596  c */\n          dup1\n            /* \"Disney/SafeMath.sol\":588:596  return c */\n          swap2\n          pop\n          pop\n            /* \"Disney/SafeMath.sol\":463:604  function add(uint256 a, uint256 b) internal pure returns (uint256) {\r... */\n          swap3\n          swap2\n          pop\n          pop\n          jump\t// out\n            /* \"--CODEGEN--\":5:135   */\n        tag_93:\n          0x00\n            /* \"--CODEGEN--\":85:91   */\n          dup2\n            /* \"--CODEGEN--\":72:92   */\n          calldataload\n            /* \"--CODEGEN--\":63:92   */\n          swap1\n          pop\n            /* \"--CODEGEN--\":97:130   */\n          tag_95\n            /* \"--CODEGEN--\":124:129   */\n          dup2\n            /* \"--CODEGEN--\":97:130   */\n          tag_96\n          jump\t// in\n        tag_95:\n            /* \"--CODEGEN--\":57:135   */\n          swap3\n          swap2\n          pop\n          pop\n          jump\t// out\n            /* \"--CODEGEN--\":142:272   */\n        tag_97:\n          0x00\n            /* \"--CODEGEN--\":222:228   */\n          dup2\n            /* \"--CODEGEN--\":209:229   */\n          calldataload\n            /* \"--CODEGEN--\":200:229   */\n          swap1\n          pop\n            /* \"--CODEGEN--\":234:267   */\n          tag_99\n            /* \"--CODEGEN--\":261:266   */\n          dup2\n            /* \"--CODEGEN--\":234:267   */\n          tag_100\n          jump\t// in\n        tag_99:\n            /* \"--CODEGEN--\":194:272   */\n          swap3\n          swap2\n          pop\n          pop\n          jump\t// out\n            /* \"--CODEGEN--\":279:520   */\n        tag_44:\n          0x00\n            /* \"--CODEGEN--\":383:385   */\n          0x20\n            /* \"--CODEGEN--\":371:380   */\n          dup3\n            /* \"--CODEGEN--\":362:369   */\n          dup5\n            /* \"--CODEGEN--\":358:381   */\n          sub\n            /* \"--CODEGEN--\":354:386   */\n          slt\n            /* \"--CODEGEN--\":351:353   */\n          iszero\n          tag_102\n          jumpi\n            /* \"--CODEGEN--\":399:400   */\n          0x00\n            /* \"--CODEGEN--\":396:397   */\n          dup1\n            /* \"--CODEGEN--\":389:401   */\n          revert\n            /* \"--CODEGEN--\":351:353   */\n        tag_102:\n            /* \"--CODEGEN--\":434:435   */\n          0x00\n            /* \"--CODEGEN--\":451:504   */\n          tag_103\n            /* \"--CODEGEN--\":496:503   */\n          dup5\n            /* \"--CODEGEN--\":487:493   */\n          dup3\n            /* \"--CODEGEN--\":476:485   */\n          dup6\n            /* \"--CODEGEN--\":472:494   */\n          add\n            /* \"--CODEGEN--\":451:504   */\n          tag_93\n          jump\t// in\n        tag_103:\n            /* \"--CODEGEN--\":441:504   */\n          swap2\n          pop\n            /* \"--CODEGEN--\":413:510   */\n          pop\n            /* \"--CODEGEN--\":345:520   */\n          swap3\n          swap2\n          pop\n          pop\n          jump\t// out\n            /* \"--CODEGEN--\":527:893   */\n        tag_56:\n          0x00\n          dup1\n            /* \"--CODEGEN--\":648:650   */\n          0x40\n            /* \"--CODEGEN--\":636:645   */\n          dup4\n            /* \"--CODEGEN--\":627:634   */\n          dup6\n            /* \"--CODEGEN--\":623:646   */\n          sub\n            /* \"--CODEGEN--\":619:651   */\n          slt\n            /* \"--CODEGEN--\":616:618   */\n          iszero\n          tag_105\n          jumpi\n            /* \"--CODEGEN--\":664:665   */\n          0x00\n            /* \"--CODEGEN--\":661:662   */\n          dup1\n            /* \"--CODEGEN--\":654:666   */\n          revert\n            /* \"--CODEGEN--\":616:618   */\n        tag_105:\n            /* \"--CODEGEN--\":699:700   */\n          0x00\n            /* \"--CODEGEN--\":716:769   */\n          tag_106\n            /* \"--CODEGEN--\":761:768   */\n          dup6\n            /* \"--CODEGEN--\":752:758   */\n          dup3\n            /* \"--CODEGEN--\":741:750   */\n          dup7\n            /* \"--CODEGEN--\":737:759   */\n          add\n            /* \"--CODEGEN--\":716:769   */\n          tag_93\n          jump\t// in\n        tag_106:\n            /* \"--CODEGEN--\":706:769   */\n          swap3\n          pop\n            /* \"--CODEGEN--\":678:775   */\n          pop\n            /* \"--CODEGEN--\":806:808   */\n          0x20\n            /* \"--CODEGEN--\":824:877   */\n          tag_107\n            /* \"--CODEGEN--\":869:876   */\n          dup6\n            /* \"--CODEGEN--\":860:866   */\n          dup3\n            /* \"--CODEGEN--\":849:858   */\n          dup7\n            /* \"--CODEGEN--\":845:867   */\n          add\n            /* \"--CODEGEN--\":824:877   */\n          tag_93\n          jump\t// in\n        tag_107:\n            /* \"--CODEGEN--\":814:877   */\n          swap2\n          pop\n            /* \"--CODEGEN--\":785:883   */\n          pop\n            /* \"--CODEGEN--\":610:893   */\n          swap3\n          pop\n          swap3\n          swap1\n          pop\n          jump\t// out\n            /* \"--CODEGEN--\":900:1391   */\n        tag_35:\n          0x00\n          dup1\n          0x00\n            /* \"--CODEGEN--\":1038:1040   */\n          0x60\n            /* \"--CODEGEN--\":1026:1035   */\n          dup5\n            /* \"--CODEGEN--\":1017:1024   */\n          dup7\n            /* \"--CODEGEN--\":1013:1036   */\n          sub\n            /* \"--CODEGEN--\":1009:1041   */\n          slt\n            /* \"--CODEGEN--\":1006:1008   */\n          iszero\n          tag_109\n          jumpi\n            /* \"--CODEGEN--\":1054:1055   */\n          0x00\n            /* \"--CODEGEN--\":1051:1052   */\n          dup1\n            /* \"--CODEGEN--\":1044:1056   */\n          revert\n            /* \"--CODEGEN--\":1006:1008   */\n        tag_109:\n            /* \"--CODEGEN--\":1089:1090   */\n          0x00\n            /* \"--CODEGEN--\":1106:1159   */\n          tag_110\n            /* \"--CODEGEN--\":1151:1158   */\n          dup7\n            /* \"--CODEGEN--\":1142:1148   */\n          dup3\n            /* \"--CODEGEN--\":1131:1140   */\n          dup8\n            /* \"--CODEGEN--\":1127:1149   */\n          add\n            /* \"--CODEGEN--\":1106:1159   */\n          tag_93\n          jump\t// in\n        tag_110:\n            /* \"--CODEGEN--\":1096:1159   */\n          swap4\n          pop\n            /* \"--CODEGEN--\":1068:1165   */\n          pop\n            /* \"--CODEGEN--\":1196:1198   */\n          0x20\n            /* \"--CODEGEN--\":1214:1267   */\n          tag_111\n            /* \"--CODEGEN--\":1259:1266   */\n          dup7\n            /* \"--CODEGEN--\":1250:1256   */\n          dup3\n            /* \"--CODEGEN--\":1239:1248   */\n          dup8\n            /* \"--CODEGEN--\":1235:1257   */\n          add\n            /* \"--CODEGEN--\":1214:1267   */\n          tag_93\n          jump\t// in\n        tag_111:\n            /* \"--CODEGEN--\":1204:1267   */\n          swap3\n          pop\n            /* \"--CODEGEN--\":1175:1273   */\n          pop\n            /* \"--CODEGEN--\":1304:1306   */\n          0x40\n            /* \"--CODEGEN--\":1322:1375   */\n          tag_112\n            /* \"--CODEGEN--\":1367:1374   */\n          dup7\n            /* \"--CODEGEN--\":1358:1364   */\n          dup3\n            /* \"--CODEGEN--\":1347:1356   */\n          dup8\n            /* \"--CODEGEN--\":1343:1365   */\n          add\n            /* \"--CODEGEN--\":1322:1375   */\n          tag_97\n          jump\t// in\n        tag_112:\n            /* \"--CODEGEN--\":1312:1375   */\n          swap2\n          pop\n            /* \"--CODEGEN--\":1283:1381   */\n          pop\n            /* \"--CODEGEN--\":1000:1391   */\n          swap3\n          pop\n          swap3\n          pop\n          swap3\n          jump\t// out\n            /* \"--CODEGEN--\":1398:1764   */\n        tag_21:\n          0x00\n          dup1\n            /* \"--CODEGEN--\":1519:1521   */\n          0x40\n            /* \"--CODEGEN--\":1507:1516   */\n          dup4\n            /* \"--CODEGEN--\":1498:1505   */\n          dup6\n            /* \"--CODEGEN--\":1494:1517   */\n          sub\n            /* \"--CODEGEN--\":1490:1522   */\n          slt\n            /* \"--CODEGEN--\":1487:1489   */\n          iszero\n          tag_114\n          jumpi\n            /* \"--CODEGEN--\":1535:1536   */\n          0x00\n            /* \"--CODEGEN--\":1532:1533   */\n          dup1\n            /* \"--CODEGEN--\":1525:1537   */\n          revert\n            /* \"--CODEGEN--\":1487:1489   */\n        tag_114:\n            /* \"--CODEGEN--\":1570:1571   */\n          0x00\n            /* \"--CODEGEN--\":1587:1640   */\n          tag_115\n            /* \"--CODEGEN--\":1632:1639   */\n          dup6\n            /* \"--CODEGEN--\":1623:1629   */\n          dup3\n            /* \"--CODEGEN--\":1612:1621   */\n          dup7\n            /* \"--CODEGEN--\":1608:1630   */\n          add\n            /* \"--CODEGEN--\":1587:1640   */\n          tag_93\n          jump\t// in\n        tag_115:\n            /* \"--CODEGEN--\":1577:1640   */\n          swap3\n          pop\n            /* \"--CODEGEN--\":1549:1646   */\n          pop\n            /* \"--CODEGEN--\":1677:1679   */\n          0x20\n            /* \"--CODEGEN--\":1695:1748   */\n          tag_116\n            /* \"--CODEGEN--\":1740:1747   */\n          dup6\n            /* \"--CODEGEN--\":1731:1737   */\n          dup3\n            /* \"--CODEGEN--\":1720:1729   */\n          dup7\n            /* \"--CODEGEN--\":1716:1738   */\n          add\n            /* \"--CODEGEN--\":1695:1748   */\n          tag_97\n          jump\t// in\n        tag_116:\n            /* \"--CODEGEN--\":1685:1748   */\n          swap2\n          pop\n            /* \"--CODEGEN--\":1656:1754   */\n          pop\n            /* \"--CODEGEN--\":1481:1764   */\n          swap3\n          pop\n          swap3\n          swap1\n          pop\n          jump\t// out\n            /* \"--CODEGEN--\":1771:2012   */\n        tag_31:\n          0x00\n            /* \"--CODEGEN--\":1875:1877   */\n          0x20\n            /* \"--CODEGEN--\":1863:1872   */\n          dup3\n            /* \"--CODEGEN--\":1854:1861   */\n          dup5\n            /* \"--CODEGEN--\":1850:1873   */\n          sub\n            /* \"--CODEGEN--\":1846:1878   */\n          slt\n            /* \"--CODEGEN--\":1843:1845   */\n          iszero\n          tag_118\n          jumpi\n            /* \"--CODEGEN--\":1891:1892   */\n          0x00\n            /* \"--CODEGEN--\":1888:1889   */\n          dup1\n            /* \"--CODEGEN--\":1881:1893   */\n          revert\n            /* \"--CODEGEN--\":1843:1845   */\n        tag_118:\n            /* \"--CODEGEN--\":1926:1927   */\n          0x00\n            /* \"--CODEGEN--\":1943:1996   */\n          tag_119\n            /* \"--CODEGEN--\":1988:1995   */\n          dup5\n            /* \"--CODEGEN--\":1979:1985   */\n          dup3\n            /* \"--CODEGEN--\":1968:1977   */\n          dup6\n            /* \"--CODEGEN--\":1964:1986   */\n          add\n            /* \"--CODEGEN--\":1943:1996   */\n          tag_97\n          jump\t// in\n        tag_119:\n            /* \"--CODEGEN--\":1933:1996   */\n          swap2\n          pop\n            /* \"--CODEGEN--\":1905:2002   */\n          pop\n            /* \"--CODEGEN--\":1837:2012   */\n          swap3\n          swap2\n          pop\n          pop\n          jump\t// out\n            /* \"--CODEGEN--\":2019:2123   */\n        tag_120:\n            /* \"--CODEGEN--\":2096:2117   */\n          tag_122\n            /* \"--CODEGEN--\":2111:2116   */\n          dup2\n            /* \"--CODEGEN--\":2096:2117   */\n          tag_123\n          jump\t// in\n        tag_122:\n            /* \"--CODEGEN--\":2091:2094   */\n          dup3\n            /* \"--CODEGEN--\":2084:2118   */\n          mstore\n            /* \"--CODEGEN--\":2078:2123   */\n          pop\n          pop\n          jump\t// out\n            /* \"--CODEGEN--\":2130:2477   */\n        tag_124:\n          0x00\n            /* \"--CODEGEN--\":2242:2281   */\n          tag_126\n            /* \"--CODEGEN--\":2275:2280   */\n          dup3\n            /* \"--CODEGEN--\":2242:2281   */\n          tag_127\n          jump\t// in\n        tag_126:\n            /* \"--CODEGEN--\":2293:2364   */\n          tag_128\n            /* \"--CODEGEN--\":2357:2363   */\n          dup2\n            /* \"--CODEGEN--\":2352:2355   */\n          dup6\n            /* \"--CODEGEN--\":2293:2364   */\n          tag_129\n          jump\t// in\n        tag_128:\n            /* \"--CODEGEN--\":2286:2364   */\n          swap4\n          pop\n            /* \"--CODEGEN--\":2369:2421   */\n          tag_130\n            /* \"--CODEGEN--\":2414:2420   */\n          dup2\n            /* \"--CODEGEN--\":2409:2412   */\n          dup6\n            /* \"--CODEGEN--\":2402:2406   */\n          0x20\n            /* \"--CODEGEN--\":2395:2400   */\n          dup7\n            /* \"--CODEGEN--\":2391:2407   */\n          add\n            /* \"--CODEGEN--\":2369:2421   */\n          tag_131\n          jump\t// in\n        tag_130:\n            /* \"--CODEGEN--\":2442:2471   */\n          tag_132\n            /* \"--CODEGEN--\":2464:2470   */\n          dup2\n            /* \"--CODEGEN--\":2442:2471   */\n          tag_133\n          jump\t// in\n        tag_132:\n            /* \"--CODEGEN--\":2437:2440   */\n          dup5\n            /* \"--CODEGEN--\":2433:2472   */\n          add\n            /* \"--CODEGEN--\":2426:2472   */\n          swap2\n          pop\n            /* \"--CODEGEN--\":2222:2477   */\n          pop\n          swap3\n          swap2\n          pop\n          pop\n          jump\t// out\n            /* \"--CODEGEN--\":2484:2597   */\n        tag_134:\n            /* \"--CODEGEN--\":2567:2591   */\n          tag_136\n            /* \"--CODEGEN--\":2585:2590   */\n          dup2\n            /* \"--CODEGEN--\":2567:2591   */\n          tag_137\n          jump\t// in\n        tag_136:\n            /* \"--CODEGEN--\":2562:2565   */\n          dup3\n            /* \"--CODEGEN--\":2555:2592   */\n          mstore\n            /* \"--CODEGEN--\":2549:2597   */\n          pop\n          pop\n          jump\t// out\n            /* \"--CODEGEN--\":2604:2711   */\n        tag_138:\n            /* \"--CODEGEN--\":2683:2705   */\n          tag_140\n            /* \"--CODEGEN--\":2699:2704   */\n          dup2\n            /* \"--CODEGEN--\":2683:2705   */\n          tag_141\n          jump\t// in\n        tag_140:\n            /* \"--CODEGEN--\":2678:2681   */\n          dup3\n            /* \"--CODEGEN--\":2671:2706   */\n          mstore\n            /* \"--CODEGEN--\":2665:2711   */\n          pop\n          pop\n          jump\t// out\n            /* \"--CODEGEN--\":2718:2928   */\n        tag_24:\n          0x00\n            /* \"--CODEGEN--\":2839:2841   */\n          0x20\n            /* \"--CODEGEN--\":2828:2837   */\n          dup3\n            /* \"--CODEGEN--\":2824:2842   */\n          add\n            /* \"--CODEGEN--\":2816:2842   */\n          swap1\n          pop\n            /* \"--CODEGEN--\":2853:2918   */\n          tag_143\n            /* \"--CODEGEN--\":2915:2916   */\n          0x00\n            /* \"--CODEGEN--\":2904:2913   */\n          dup4\n            /* \"--CODEGEN--\":2900:2917   */\n          add\n            /* \"--CODEGEN--\":2891:2897   */\n          dup5\n            /* \"--CODEGEN--\":2853:2918   */\n          tag_120\n          jump\t// in\n        tag_143:\n            /* \"--CODEGEN--\":2810:2928   */\n          swap3\n          swap2\n          pop\n          pop\n          jump\t// out\n            /* \"--CODEGEN--\":2935:3245   */\n        tag_18:\n          0x00\n            /* \"--CODEGEN--\":3082:3084   */\n          0x20\n            /* \"--CODEGEN--\":3071:3080   */\n          dup3\n            /* \"--CODEGEN--\":3067:3085   */\n          add\n            /* \"--CODEGEN--\":3059:3085   */\n          swap1\n          pop\n            /* \"--CODEGEN--\":3132:3141   */\n          dup2\n            /* \"--CODEGEN--\":3126:3130   */\n          dup2\n            /* \"--CODEGEN--\":3122:3142   */\n          sub\n            /* \"--CODEGEN--\":3118:3119   */\n          0x00\n            /* \"--CODEGEN--\":3107:3116   */\n          dup4\n            /* \"--CODEGEN--\":3103:3120   */\n          add\n            /* \"--CODEGEN--\":3096:3143   */\n          mstore\n            /* \"--CODEGEN--\":3157:3235   */\n          tag_145\n            /* \"--CODEGEN--\":3230:3234   */\n          dup2\n            /* \"--CODEGEN--\":3221:3227   */\n          dup5\n            /* \"--CODEGEN--\":3157:3235   */\n          tag_124\n          jump\t// in\n        tag_145:\n            /* \"--CODEGEN--\":3149:3235   */\n          swap1\n          pop\n            /* \"--CODEGEN--\":3053:3245   */\n          swap3\n          swap2\n          pop\n          pop\n          jump\t// out\n            /* \"--CODEGEN--\":3252:3474   */\n        tag_28:\n          0x00\n            /* \"--CODEGEN--\":3379:3381   */\n          0x20\n            /* \"--CODEGEN--\":3368:3377   */\n          dup3\n            /* \"--CODEGEN--\":3364:3382   */\n          add\n            /* \"--CODEGEN--\":3356:3382   */\n          swap1\n          pop\n            /* \"--CODEGEN--\":3393:3464   */\n          tag_147\n            /* \"--CODEGEN--\":3461:3462   */\n          0x00\n            /* \"--CODEGEN--\":3450:3459   */\n          dup4\n            /* \"--CODEGEN--\":3446:3463   */\n          add\n            /* \"--CODEGEN--\":3437:3443   */\n          dup5\n            /* \"--CODEGEN--\":3393:3464   */\n          tag_134\n          jump\t// in\n        tag_147:\n            /* \"--CODEGEN--\":3350:3474   */\n          swap3\n          swap2\n          pop\n          pop\n          jump\t// out\n            /* \"--CODEGEN--\":3481:3695   */\n        tag_41:\n          0x00\n            /* \"--CODEGEN--\":3604:3606   */\n          0x20\n            /* \"--CODEGEN--\":3593:3602   */\n          dup3\n            /* \"--CODEGEN--\":3589:3607   */\n          add\n            /* \"--CODEGEN--\":3581:3607   */\n          swap1\n          pop\n            /* \"--CODEGEN--\":3618:3685   */\n          tag_149\n            /* \"--CODEGEN--\":3682:3683   */\n          0x00\n            /* \"--CODEGEN--\":3671:3680   */\n          dup4\n            /* \"--CODEGEN--\":3667:3684   */\n          add\n            /* \"--CODEGEN--\":3658:3664   */\n          dup5\n            /* \"--CODEGEN--\":3618:3685   */\n          tag_138\n          jump\t// in\n        tag_149:\n            /* \"--CODEGEN--\":3575:3695   */\n          swap3\n          swap2\n          pop\n          pop\n          jump\t// out\n            /* \"--CODEGEN--\":3702:3824   */\n        tag_127:\n          0x00\n            /* \"--CODEGEN--\":3796:3801   */\n          dup2\n            /* \"--CODEGEN--\":3790:3802   */\n          mload\n            /* \"--CODEGEN--\":3780:3802   */\n          swap1\n          pop\n            /* \"--CODEGEN--\":3761:3824   */\n          swap2\n          swap1\n          pop\n          jump\t// out\n            /* \"--CODEGEN--\":3832:3995   */\n        tag_129:\n          0x00\n            /* \"--CODEGEN--\":3947:3953   */\n          dup3\n            /* \"--CODEGEN--\":3942:3945   */\n          dup3\n            /* \"--CODEGEN--\":3935:3954   */\n          mstore\n            /* \"--CODEGEN--\":3984:3988   */\n          0x20\n            /* \"--CODEGEN--\":3979:3982   */\n          dup3\n            /* \"--CODEGEN--\":3975:3989   */\n          add\n            /* \"--CODEGEN--\":3960:3989   */\n          swap1\n          pop\n            /* \"--CODEGEN--\":3928:3995   */\n          swap3\n          swap2\n          pop\n          pop\n          jump\t// out\n            /* \"--CODEGEN--\":4003:4094   */\n        tag_152:\n          0x00\n            /* \"--CODEGEN--\":4065:4089   */\n          tag_154\n            /* \"--CODEGEN--\":4083:4088   */\n          dup3\n            /* \"--CODEGEN--\":4065:4089   */\n          tag_155\n          jump\t// in\n        tag_154:\n            /* \"--CODEGEN--\":4054:4089   */\n          swap1\n          pop\n            /* \"--CODEGEN--\":4048:4094   */\n          swap2\n          swap1\n          pop\n          jump\t// out\n            /* \"--CODEGEN--\":4101:4186   */\n        tag_123:\n          0x00\n            /* \"--CODEGEN--\":4174:4179   */\n          dup2\n            /* \"--CODEGEN--\":4167:4180   */\n          iszero\n            /* \"--CODEGEN--\":4160:4181   */\n          iszero\n            /* \"--CODEGEN--\":4149:4181   */\n          swap1\n          pop\n            /* \"--CODEGEN--\":4143:4186   */\n          swap2\n          swap1\n          pop\n          jump\t// out\n            /* \"--CODEGEN--\":4193:4314   */\n        tag_155:\n          0x00\n            /* \"--CODEGEN--\":4266:4308   */\n          0xffffffffffffffffffffffffffffffffffffffff\n            /* \"--CODEGEN--\":4259:4264   */\n          dup3\n            /* \"--CODEGEN--\":4255:4309   */\n          and\n            /* \"--CODEGEN--\":4244:4309   */\n          swap1\n          pop\n            /* \"--CODEGEN--\":4238:4314   */\n          swap2\n          swap1\n          pop\n          jump\t// out\n            /* \"--CODEGEN--\":4321:4393   */\n        tag_137:\n          0x00\n            /* \"--CODEGEN--\":4383:4388   */\n          dup2\n            /* \"--CODEGEN--\":4372:4388   */\n          swap1\n          pop\n            /* \"--CODEGEN--\":4366:4393   */\n          swap2\n          swap1\n          pop\n          jump\t// out\n            /* \"--CODEGEN--\":4400:4481   */\n        tag_141:\n          0x00\n            /* \"--CODEGEN--\":4471:4475   */\n          0xff\n            /* \"--CODEGEN--\":4464:4469   */\n          dup3\n            /* \"--CODEGEN--\":4460:4476   */\n          and\n            /* \"--CODEGEN--\":4449:4476   */\n          swap1\n          pop\n            /* \"--CODEGEN--\":4443:4481   */\n          swap2\n          swap1\n          pop\n          jump\t// out\n            /* \"--CODEGEN--\":4489:4757   */\n        tag_131:\n            /* \"--CODEGEN--\":4554:4555   */\n          0x00\n            /* \"--CODEGEN--\":4561:4662   */\n        tag_161:\n            /* \"--CODEGEN--\":4575:4581   */\n          dup4\n            /* \"--CODEGEN--\":4572:4573   */\n          dup2\n            /* \"--CODEGEN--\":4569:4582   */\n          lt\n            /* \"--CODEGEN--\":4561:4662   */\n          iszero\n          tag_163\n          jumpi\n            /* \"--CODEGEN--\":4651:4652   */\n          dup1\n            /* \"--CODEGEN--\":4646:4649   */\n          dup3\n            /* \"--CODEGEN--\":4642:4653   */\n          add\n            /* \"--CODEGEN--\":4636:4654   */\n          mload\n            /* \"--CODEGEN--\":4632:4633   */\n          dup2\n            /* \"--CODEGEN--\":4627:4630   */\n          dup5\n            /* \"--CODEGEN--\":4623:4634   */\n          add\n            /* \"--CODEGEN--\":4616:4655   */\n          mstore\n            /* \"--CODEGEN--\":4597:4599   */\n          0x20\n            /* \"--CODEGEN--\":4594:4595   */\n          dup2\n            /* \"--CODEGEN--\":4590:4600   */\n          add\n            /* \"--CODEGEN--\":4585:4600   */\n          swap1\n          pop\n            /* \"--CODEGEN--\":4561:4662   */\n          jump(tag_161)\n        tag_163:\n            /* \"--CODEGEN--\":4677:4683   */\n          dup4\n            /* \"--CODEGEN--\":4674:4675   */\n          dup2\n            /* \"--CODEGEN--\":4671:4684   */\n          gt\n            /* \"--CODEGEN--\":4668:4670   */\n          iszero\n          tag_164\n          jumpi\n            /* \"--CODEGEN--\":4742:4743   */\n          0x00\n            /* \"--CODEGEN--\":4733:4739   */\n          dup5\n            /* \"--CODEGEN--\":4728:4731   */\n          dup5\n            /* \"--CODEGEN--\":4724:4740   */\n          add\n            /* \"--CODEGEN--\":4717:4744   */\n          mstore\n            /* \"--CODEGEN--\":4668:4670   */\n        tag_164:\n            /* \"--CODEGEN--\":4538:4757   */\n          pop\n          pop\n          pop\n          pop\n          jump\t// out\n            /* \"--CODEGEN--\":4765:4862   */\n        tag_133:\n          0x00\n            /* \"--CODEGEN--\":4853:4855   */\n          0x1f\n            /* \"--CODEGEN--\":4849:4856   */\n          not\n            /* \"--CODEGEN--\":4844:4846   */\n          0x1f\n            /* \"--CODEGEN--\":4837:4842   */\n          dup4\n            /* \"--CODEGEN--\":4833:4847   */\n          add\n            /* \"--CODEGEN--\":4829:4857   */\n          and\n            /* \"--CODEGEN--\":4819:4857   */\n          swap1\n          pop\n            /* \"--CODEGEN--\":4813:4862   */\n          swap2\n          swap1\n          pop\n          jump\t// out\n            /* \"--CODEGEN--\":4870:4987   */\n        tag_96:\n            /* \"--CODEGEN--\":4939:4963   */\n          tag_167\n            /* \"--CODEGEN--\":4957:4962   */\n          dup2\n            /* \"--CODEGEN--\":4939:4963   */\n          tag_152\n          jump\t// in\n        tag_167:\n            /* \"--CODEGEN--\":4932:4937   */\n          dup2\n            /* \"--CODEGEN--\":4929:4964   */\n          eq\n            /* \"--CODEGEN--\":4919:4921   */\n          tag_168\n          jumpi\n            /* \"--CODEGEN--\":4978:4979   */\n          0x00\n            /* \"--CODEGEN--\":4975:4976   */\n          dup1\n            /* \"--CODEGEN--\":4968:4980   */\n          revert\n            /* \"--CODEGEN--\":4919:4921   */\n        tag_168:\n            /* \"--CODEGEN--\":4913:4987   */\n          pop\n          jump\t// out\n            /* \"--CODEGEN--\":4994:5111   */\n        tag_100:\n            /* \"--CODEGEN--\":5063:5087   */\n          tag_170\n            /* \"--CODEGEN--\":5081:5086   */\n          dup2\n            /* \"--CODEGEN--\":5063:5087   */\n          tag_137\n          jump\t// in\n        tag_170:\n            /* \"--CODEGEN--\":5056:5061   */\n          dup2\n            /* \"--CODEGEN--\":5053:5088   */\n          eq\n            /* \"--CODEGEN--\":5043:5045   */\n          tag_171\n          jumpi\n            /* \"--CODEGEN--\":5102:5103   */\n          0x00\n            /* \"--CODEGEN--\":5099:5100   */\n          dup1\n            /* \"--CODEGEN--\":5092:5104   */\n          revert\n            /* \"--CODEGEN--\":5043:5045   */\n        tag_171:\n            /* \"--CODEGEN--\":5037:5111   */\n          pop\n          jump\t// out\n\n        auxdata: 0xa2646970667358221220532c3aa8b922c20767af62dc097402ad230508a242d27769011d941905abc92364736f6c634300060c0033\n    }\n}\n",
				"bytecode": {
					"linkReferences": {},
					"object": "60806040523480156200001157600080fd5b506103e86040516200002390620000d3565b6200002f9190620000f2565b604051809103906000f0801580156200004c573d6000803e3d6000fd5b506000806101000a81548173ffffffffffffffffffffffffffffffffffffffff021916908373ffffffffffffffffffffffffffffffffffffffff16021790555033600160006101000a81548173ffffffffffffffffffffffffffffffffffffffff021916908373ffffffffffffffffffffffffffffffffffffffff1602179055506200012d565b61109d806200224983390190565b620000ec8162000119565b82525050565b6000602082019050620001096000830184620000e1565b92915050565b6000819050919050565b600062000126826200010f565b9050919050565b61210c806200013d6000396000f3fe6080604052600436106100a75760003560e01c8063a209415911610064578063a2094159146101a8578063a9862fab146101d1578063ce8f2f38146101fa578063d00df29614610237578063e33f34a014610276578063f7774091146102a1576100a7565b806312b91846146100ac5780631fccb33c146100d55780632076b56c146101005780637c1b38bf146101295780638da5cb5b146101525780639a3174a01461017d575b600080fd5b3480156100b857600080fd5b506100d360048036038101906100ce919061157b565b6102bd565b005b3480156100e157600080fd5b506100ea610679565b6040516100f79190611d0c565b60405180910390f35b34801561010c57600080fd5b50610127600480360381019061012291906115bc565b610726565b005b34801561013557600080fd5b50610150600480360381019061014b9190611610565b6108b7565b005b34801561015e57600080fd5b506101676109d7565b6040516101749190611c91565b60405180910390f35b34801561018957600080fd5b506101926109fd565b60405161019f9190611efe565b60405180910390f35b3480156101b457600080fd5b506101cf60048036038101906101ca919061157b565b610aae565b005b3480156101dd57600080fd5b506101f860048036038101906101f3919061157b565b610d2f565b005b34801561020657600080fd5b50610221600480360381019061021c9190611529565b610fb0565b60405161022e9190611efe565b60405180910390f35b34801561024357600080fd5b5061025e6004803603810190610259919061157b565b610fce565b60405161026d93929190611d5e565b60405180910390f35b34801561028257600080fd5b5061028b6110b3565b6040516102989190611efe565b60405180910390f35b6102bb60048036038101906102b69190611610565b611164565b005b60008060005b60048054905081101561063357836040516020016102e19190611bfe565b604051602081830303815290604052805190602001206004828154811061030457fe5b9060005260206000200160405160200161031e9190611c44565b604051602081830303815290604052805190602001201415610626576001925060036004828154811061034d57fe5b906000526020600020016040516103649190611c44565b908152602001604051809103902060020160009054906101000a900460ff16156105e057600191506103946110b3565b6003600483815481106103a357fe5b906000526020600020016040516103ba9190611c44565b9081526020016040518091039020600101541161040c576040517f08c379a000000000000000000000000000000000000000000000000000000000815260040161040390611dde565b60405180910390fd5b60008054906101000a900473ffffffffffffffffffffffffffffffffffffffff1673ffffffffffffffffffffffffffffffffffffffff1663ef910460333060036004868154811061045957fe5b906000526020600020016040516104709190611c44565b9081526020016040518091039020600101546040518463ffffffff1660e01b81526004016104a093929190611cac565b602060405180830381600087803b1580156104ba57600080fd5b505af11580156104ce573d6000803e3d6000fd5b505050506040513d601f19601f820116820180604052508101906104f29190611552565b50600560003373ffffffffffffffffffffffffffffffffffffffff1673ffffffffffffffffffffffffffffffffffffffff1681526020019081526020016000206004828154811061053f57fe5b9060005260206000200190806001815401808255809150506001900390600052602060002001600090919091909150908054600181600116156101000203166002900461058d92919061135d565b507fc13b0c39e701b0f41dde2e972f3e98e53fa01e6bc45ef606ddc7522a8e354f2d600482815481106105bc57fe5b906000526020600020016040516105d39190611d9c565b60405180910390a1610621565b81610620576040517f08c379a000000000000000000000000000000000000000000000000000000000815260040161061790611dfe565b60405180910390fd5b5b610633565b80806001019150506102c3565b5081610674576040517f08c379a000000000000000000000000000000000000000000000000000000000815260040161066b90611dbe565b60405180910390fd5b505050565b60608060005b60048054905081101561071e5760036004828154811061069b57fe5b906000526020600020016040516106b29190611c44565b908152602001604051809103902060020160009054906101000a900460ff16156107115781600482815481106106e457fe5b906000526020600020016040516020016106ff929190611c15565b60405160208183030381529060405291505b808060010191505061067f565b508091505090565b33600160009054906101000a900473ffffffffffffffffffffffffffffffffffffffff1673ffffffffffffffffffffffffffffffffffffffff168173ffffffffffffffffffffffffffffffffffffffff16146107b7576040517f08c379a00000000000000000000000000000000000000000000000000000000081526004016107ae90611e9e565b60405180910390fd5b6040518060600160405280848152602001838152602001600115158152506003846040516107e59190611bfe565b9081526020016040518091039020600082015181600001908051906020019061080f9291906113e4565b506020820151816001015560408201518160020160006101000a81548160ff0219169083151502179055509050506004839080600181540180825580915050600190039060005260206000200160009091909190915090805190602001906108789291906113e4565b507ffc9ecd7a6c2ca96d38526a0b9cc22f2474ff8e596dd348edaab06be905ebe37883836040516108aa929190611d2e565b60405180910390a1505050565b33600160009054906101000a900473ffffffffffffffffffffffffffffffffffffffff1673ffffffffffffffffffffffffffffffffffffffff168173ffffffffffffffffffffffffffffffffffffffff1614610948576040517f08c379a000000000000000000000000000000000000000000000000000000000815260040161093f90611e9e565b60405180910390fd5b60008054906101000a900473ffffffffffffffffffffffffffffffffffffffff1673ffffffffffffffffffffffffffffffffffffffff16631d43cc98836040518263ffffffff1660e01b81526004016109a19190611efe565b600060405180830381600087803b1580156109bb57600080fd5b505af11580156109cf573d6000803e3d6000fd5b505050505050565b600160009054906101000a900473ffffffffffffffffffffffffffffffffffffffff1681565b60008060009054906101000a900473ffffffffffffffffffffffffffffffffffffffff1673ffffffffffffffffffffffffffffffffffffffff166370a08231306040518263ffffffff1660e01b8152600401610a599190611c5b565b60206040518083038186803b158015610a7157600080fd5b505afa158015610a85573d6000803e3d6000fd5b505050506040513d601f19601f82011682018060405250810190610aa99190611639565b905090565b33600160009054906101000a900473ffffffffffffffffffffffffffffffffffffffff1673ffffffffffffffffffffffffffffffffffffffff168173ffffffffffffffffffffffffffffffffffffffff1614610b3f576040517f08c379a0000000000000000000000000000000000000000000000000000000008152600401610b3690611e9e565b60405180910390fd5b6000805b600480549050811015610cb25783604051602001610b619190611bfe565b6040516020818303038152906040528051906020012060048281548110610b8457fe5b90600052602060002001604051602001610b9e9190611c44565b604051602081830303815290604052805190602001201415610ca55760019150600384604051610bce9190611bfe565b908152602001604051809103902060020160009054906101000a900460ff1615610c31576000600385604051610c049190611bfe565b908152602001604051809103902060020160006101000a81548160ff021916908315150217905550610ca0565b600384604051610c419190611bfe565b908152602001604051809103902060020160009054906101000a900460ff16610c9f576040517f08c379a0000000000000000000000000000000000000000000000000000000008152600401610c9690611e5e565b60405180910390fd5b5b610cb2565b8080600101915050610b43565b5080610cf3576040517f08c379a0000000000000000000000000000000000000000000000000000000008152600401610cea90611ebe565b60405180910390fd5b7f24ba6c881728980191398db8dcfd8ed4f6aeb1c08df349d63f3b85075f3e86dd83604051610d229190611d0c565b60405180910390a1505050565b33600160009054906101000a900473ffffffffffffffffffffffffffffffffffffffff1673ffffffffffffffffffffffffffffffffffffffff168173ffffffffffffffffffffffffffffffffffffffff1614610dc0576040517f08c379a0000000000000000000000000000000000000000000000000000000008152600401610db790611e9e565b60405180910390fd5b6000805b600480549050811015610f335783604051602001610de29190611bfe565b6040516020818303038152906040528051906020012060048281548110610e0557fe5b90600052602060002001604051602001610e1f9190611c44565b604051602081830303815290604052805190602001201415610f265760019150600384604051610e4f9190611bfe565b908152602001604051809103902060020160009054906101000a900460ff16610eb1576001600385604051610e849190611bfe565b908152602001604051809103902060020160006101000a81548160ff021916908315150217905550610f21565b600384604051610ec19190611bfe565b908152602001604051809103902060020160009054906101000a900460ff1615610f20576040517f08c379a0000000000000000000000000000000000000000000000000000000008152600401610f1790611e7e565b60405180910390fd5b5b610f33565b8080600101915050610dc4565b5080610f74576040517f08c379a0000000000000000000000000000000000000000000000000000000008152600401610f6b90611ede565b60405180910390fd5b7f24ba6c881728980191398db8dcfd8ed4f6aeb1c08df349d63f3b85075f3e86dd83604051610fa39190611d0c565b60405180910390a1505050565b60026020528060005260406000206000915090508060000154905081565b600381805160208101820180518482526020830160208501208183528095505050505050600091509050806000018054600181600116156101000203166002900480601f0160208091040260200160405190810160405280929190818152602001828054600181600116156101000203166002900480156110905780601f1061106557610100808354040283529160200191611090565b820191906000526020600020905b81548152906001019060200180831161107357829003601f168201915b5050505050908060010154908060020160009054906101000a900460ff16905083565b60008060009054906101000a900473ffffffffffffffffffffffffffffffffffffffff1673ffffffffffffffffffffffffffffffffffffffff166370a08231336040518263ffffffff1660e01b815260040161110f9190611c76565b60206040518083038186803b15801561112757600080fd5b505afa15801561113b573d6000803e3d6000fd5b505050506040513d601f19601f8201168201806040525081019061115f9190611639565b905090565b600061116f82611349565b9050803410156111b4576040517f08c379a00000000000000000000000000000000000000000000000000000000081526004016111ab90611e1e565b60405180910390fd5b816111bd6109fd565b10156111fe576040517f08c379a00000000000000000000000000000000000000000000000000000000081526004016111f590611e3e565b60405180910390fd5b3373ffffffffffffffffffffffffffffffffffffffff166108fc8234039081150290604051600060405180830381858888f19350505050158015611246573d6000803e3d6000fd5b5060008054906101000a900473ffffffffffffffffffffffffffffffffffffffff1673ffffffffffffffffffffffffffffffffffffffff1663a9059cbb33846040518363ffffffff1660e01b81526004016112a2929190611ce3565b602060405180830381600087803b1580156112bc57600080fd5b505af11580156112d0573d6000803e3d6000fd5b505050506040513d601f19601f820116820180604052508101906112f49190611552565b5081600260003373ffffffffffffffffffffffffffffffffffffffff1673ffffffffffffffffffffffffffffffffffffffff168152602001908152602001600020600001600082825401925050819055505050565b6000670de0b6b3a764000082029050919050565b828054600181600116156101000203166002900490600052602060002090601f016020900481019282601f1061139657805485556113d3565b828001600101855582156113d357600052602060002091601f016020900482015b828111156113d25782548255916001019190600101906113b7565b5b5090506113e09190611464565b5090565b828054600181600116156101000203166002900490600052602060002090601f016020900481019282601f1061142557805160ff1916838001178555611453565b82800160010185558215611453579182015b82811115611452578251825591602001919060010190611437565b5b5090506114609190611464565b5090565b5b8082111561147d576000816000905550600101611465565b5090565b60008135905061149081612091565b92915050565b6000815190506114a5816120a8565b92915050565b600082601f8301126114bc57600080fd5b81356114cf6114ca82611f46565b611f19565b915080825260208301602083018583830111156114eb57600080fd5b6114f683828461203e565b50505092915050565b60008135905061150e816120bf565b92915050565b600081519050611523816120bf565b92915050565b60006020828403121561153b57600080fd5b600061154984828501611481565b91505092915050565b60006020828403121561156457600080fd5b600061157284828501611496565b91505092915050565b60006020828403121561158d57600080fd5b600082013567ffffffffffffffff8111156115a757600080fd5b6115b3848285016114ab565b91505092915050565b600080604083850312156115cf57600080fd5b600083013567ffffffffffffffff8111156115e957600080fd5b6115f5858286016114ab565b9250506020611606858286016114ff565b9150509250929050565b60006020828403121561162257600080fd5b6000611630848285016114ff565b91505092915050565b60006020828403121561164b57600080fd5b600061165984828501611514565b91505092915050565b61166b81612008565b82525050565b61167a81611fc0565b82525050565b61168981611fae565b82525050565b61169881611fd2565b82525050565b60006116a982611f87565b6116b38185611f92565b93506116c381856020860161204d565b6116cc81612080565b840191505092915050565b60006116e282611f87565b6116ec8185611fa3565b93506116fc81856020860161204d565b80840191505092915050565b600081546001811660008114611725576001811461174b5761178f565b607f60028304166117368187611f92565b955060ff19831686526020860193505061178f565b600282046117598187611f92565b955061176485611f72565b60005b8281101561178657815481890152600182019150602081019050611767565b80880195505050505b505092915050565b6000815460018116600081146117b457600181146117d95761181d565b607f60028304166117c58187611fa3565b955060ff198316865280860193505061181d565b600282046117e78187611fa3565b95506117f285611f72565b60005b82811015611814578154818901526001820191506020810190506117f5565b82880195505050505b505092915050565b6000611832602383611f92565b91507f4c6120617472616363696f6e20656e20637565737469c3b36e206e6f2065786960008301527f73746500000000000000000000000000000000000000000000000000000000006020830152604082019050919050565b6000611898600383611fa3565b91507f207c2000000000000000000000000000000000000000000000000000000000006000830152600382019050919050565b60006118d8601483611f92565b91507f546f6b656e7320696e737566696369656e7465730000000000000000000000006000830152602082019050919050565b6000611918603383611f92565b91507f4c6120617472616363696f6e20656e206375657374696f6e206e6f207365206560008301527f6e6375656e74726120646973706f6e69626c65000000000000000000000000006020830152604082019050919050565b600061197e601e83611f92565b91507f43616e746964616420646520657468657220696e737566696369656e746500006000830152602082019050919050565b60006119be602083611f92565b91507f43616e746964616420646520746f6b656e7320696e737566696369656e7465736000830152602082019050919050565b60006119fe603b83611f92565b91507f4e6f207365207075656465206461722064652062616a61206120756e6120617460008301527f72616363696f6e2071756520796120657374612064652062616a6100000000006020830152604082019050919050565b6000611a64604083611f92565b91507f4e6f2073652070756564652064617220646520616c7461206120756e6120617460008301527f72616363696f6e207175652079612065737461206461646120646520616c74616020830152604082019050919050565b6000611aca602c83611f92565b91507f4e6f207469656e6573207065726d69736f207061726120656a6563757461722060008301527f657374612061636369c3b36e00000000000000000000000000000000000000006020830152604082019050919050565b6000611b30603583611f92565b91507f4e6f207365207075656465206461722064652062616a61206120756e6120617460008301527f72616363696f6e20717565206e6f2065786973746100000000000000000000006020830152604082019050919050565b6000611b96603583611f92565b91507f4e6f2073652070756564652064617220646520616c7461206120756e6120617460008301527f72616363696f6e20717565206e6f2065786973746100000000000000000000006020830152604082019050919050565b611bf881611ffe565b82525050565b6000611c0a82846116d7565b915081905092915050565b6000611c2182856116d7565b9150611c2c8261188b565b9150611c388284611797565b91508190509392505050565b6000611c508284611797565b915081905092915050565b6000602082019050611c706000830184611680565b92915050565b6000602082019050611c8b6000830184611662565b92915050565b6000602082019050611ca66000830184611671565b92915050565b6000606082019050611cc16000830186611662565b611cce6020830185611680565b611cdb6040830184611bef565b949350505050565b6000604082019050611cf86000830185611662565b611d056020830184611bef565b9392505050565b60006020820190508181036000830152611d26818461169e565b905092915050565b60006040820190508181036000830152611d48818561169e565b9050611d576020830184611bef565b9392505050565b60006060820190508181036000830152611d78818661169e565b9050611d876020830185611bef565b611d94604083018461168f565b949350505050565b60006020820190508181036000830152611db68184611708565b905092915050565b60006020820190508181036000830152611dd781611825565b9050919050565b60006020820190508181036000830152611df7816118cb565b9050919050565b60006020820190508181036000830152611e178161190b565b9050919050565b60006020820190508181036000830152611e3781611971565b9050919050565b60006020820190508181036000830152611e57816119b1565b9050919050565b60006020820190508181036000830152611e77816119f1565b9050919050565b60006020820190508181036000830152611e9781611a57565b9050919050565b60006020820190508181036000830152611eb781611abd565b9050919050565b60006020820190508181036000830152611ed781611b23565b9050919050565b60006020820190508181036000830152611ef781611b89565b9050919050565b6000602082019050611f136000830184611bef565b92915050565b6000604051905081810181811067ffffffffffffffff82111715611f3c57600080fd5b8060405250919050565b600067ffffffffffffffff821115611f5d57600080fd5b601f19601f8301169050602081019050919050565b60008190508160005260206000209050919050565b600081519050919050565b600082825260208201905092915050565b600081905092915050565b6000611fb982611fde565b9050919050565b6000611fcb82611fde565b9050919050565b60008115159050919050565b600073ffffffffffffffffffffffffffffffffffffffff82169050919050565b6000819050919050565b60006120138261201a565b9050919050565b60006120258261202c565b9050919050565b600061203782611fde565b9050919050565b82818337600083830152505050565b60005b8381101561206b578082015181840152602081019050612050565b8381111561207a576000848401525b50505050565b6000601f19601f8301169050919050565b61209a81611fae565b81146120a557600080fd5b50565b6120b181611fd2565b81146120bc57600080fd5b50565b6120c881611ffe565b81146120d357600080fd5b5056fea2646970667358221220ef45b5bdb771600354731369cc1d1857fe587c4bbdcdecfd53f1829806b7e3a164736f6c634300060c0033608060405234801561001057600080fd5b5060405161109d38038061109d83398181016040528101906100329190610099565b806002819055506002546000803373ffffffffffffffffffffffffffffffffffffffff1673ffffffffffffffffffffffffffffffffffffffff16815260200190815260200160002081905550506100e3565b600081519050610093816100cc565b92915050565b6000602082840312156100ab57600080fd5b60006100b984828501610084565b91505092915050565b6000819050919050565b6100d5816100c2565b81146100e057600080fd5b50565b610fab806100f26000396000f3fe608060405234801561001057600080fd5b50600436106100a95760003560e01c8063313ce56711610071578063313ce5671461016657806370a082311461018457806395d89b41146101b4578063a9059cbb146101d2578063dd62ed3e14610202578063ef91046014610232576100a9565b806306fdde03146100ae578063095ea7b3146100cc57806318160ddd146100fc5780631d43cc981461011a57806323b872dd14610136575b600080fd5b6100b6610262565b6040516100c39190610e3a565b60405180910390f35b6100e660048036038101906100e19190610d54565b61029b565b6040516100f39190610e1f565b60405180910390f35b61010461038d565b6040516101119190610e5c565b60405180910390f35b610134600480360381019061012f9190610d90565b610397565b005b610150600480360381019061014b9190610d05565b6103f6565b60405161015d9190610e1f565b60405180910390f35b61016e610771565b60405161017b9190610e77565b60405180910390f35b61019e60048036038101906101999190610ca0565b610776565b6040516101ab9190610e5c565b60405180910390f35b6101bc6107be565b6040516101c99190610e3a565b60405180910390f35b6101ec60048036038101906101e79190610d54565b6107f7565b6040516101f99190610e1f565b60405180910390f35b61021c60048036038101906102179190610cc9565b6109d9565b6040516102299190610e5c565b60405180910390f35b61024c60048036038101906102479190610d05565b610a60565b6040516102599190610e1f565b60405180910390f35b6040518060400160405280600c81526020017f4552433230414b414c75676f000000000000000000000000000000000000000081525081565b600081600160003373ffffffffffffffffffffffffffffffffffffffff1673ffffffffffffffffffffffffffffffffffffffff16815260200190815260200160002060008573ffffffffffffffffffffffffffffffffffffffff1673ffffffffffffffffffffffffffffffffffffffff168152602001908152602001600020819055508273ffffffffffffffffffffffffffffffffffffffff163373ffffffffffffffffffffffffffffffffffffffff167f8c5be1e5ebec7d5bd14f71427d1e84f3dd0314c0f7b2291e5b200ac8c7c3b9258460405161037b9190610e5c565b60405180910390a36001905092915050565b6000600254905090565b80600260008282540192505081905550806000803373ffffffffffffffffffffffffffffffffffffffff1673ffffffffffffffffffffffffffffffffffffffff1681526020019081526020016000206000828254019250508190555050565b6000816000808673ffffffffffffffffffffffffffffffffffffffff1673ffffffffffffffffffffffffffffffffffffffff16815260200190815260200160002054101561044357600080fd5b81600160008673ffffffffffffffffffffffffffffffffffffffff1673ffffffffffffffffffffffffffffffffffffffff16815260200190815260200160002060003373ffffffffffffffffffffffffffffffffffffffff1673ffffffffffffffffffffffffffffffffffffffff1681526020019081526020016000205410156104cc57600080fd5b61051d826000808773ffffffffffffffffffffffffffffffffffffffff1673ffffffffffffffffffffffffffffffffffffffff16815260200190815260200160002054610c4390919063ffffffff16565b6000808673ffffffffffffffffffffffffffffffffffffffff1673ffffffffffffffffffffffffffffffffffffffff168152602001908152602001600020819055506105ee82600160008773ffffffffffffffffffffffffffffffffffffffff1673ffffffffffffffffffffffffffffffffffffffff16815260200190815260200160002060003373ffffffffffffffffffffffffffffffffffffffff1673ffffffffffffffffffffffffffffffffffffffff16815260200190815260200160002054610c4390919063ffffffff16565b600160008673ffffffffffffffffffffffffffffffffffffffff1673ffffffffffffffffffffffffffffffffffffffff16815260200190815260200160002060003373ffffffffffffffffffffffffffffffffffffffff1673ffffffffffffffffffffffffffffffffffffffff168152602001908152602001600020819055506106bf826000808673ffffffffffffffffffffffffffffffffffffffff1673ffffffffffffffffffffffffffffffffffffffff16815260200190815260200160002054610c5a90919063ffffffff16565b6000808573ffffffffffffffffffffffffffffffffffffffff1673ffffffffffffffffffffffffffffffffffffffff168152602001908152602001600020819055508273ffffffffffffffffffffffffffffffffffffffff168473ffffffffffffffffffffffffffffffffffffffff167fddf252ad1be2c89b69c2b068fc378daa952ba7f163c4a11628f55a4df523b3ef8460405161075e9190610e5c565b60405180910390a3600190509392505050565b601281565b60008060008373ffffffffffffffffffffffffffffffffffffffff1673ffffffffffffffffffffffffffffffffffffffff168152602001908152602001600020549050919050565b6040518060400160405280600381526020017f414b41000000000000000000000000000000000000000000000000000000000081525081565b60008060003373ffffffffffffffffffffffffffffffffffffffff1673ffffffffffffffffffffffffffffffffffffffff1681526020019081526020016000205482111561084457600080fd5b610895826000803373ffffffffffffffffffffffffffffffffffffffff1673ffffffffffffffffffffffffffffffffffffffff16815260200190815260200160002054610c4390919063ffffffff16565b6000803373ffffffffffffffffffffffffffffffffffffffff1673ffffffffffffffffffffffffffffffffffffffff16815260200190815260200160002081905550610928826000808673ffffffffffffffffffffffffffffffffffffffff1673ffffffffffffffffffffffffffffffffffffffff16815260200190815260200160002054610c5a90919063ffffffff16565b6000808573ffffffffffffffffffffffffffffffffffffffff1673ffffffffffffffffffffffffffffffffffffffff168152602001908152602001600020819055508273ffffffffffffffffffffffffffffffffffffffff163373ffffffffffffffffffffffffffffffffffffffff167fddf252ad1be2c89b69c2b068fc378daa952ba7f163c4a11628f55a4df523b3ef846040516109c79190610e5c565b60405180910390a36001905092915050565b6000600160008473ffffffffffffffffffffffffffffffffffffffff1673ffffffffffffffffffffffffffffffffffffffff16815260200190815260200160002060008373ffffffffffffffffffffffffffffffffffffffff1673ffffffffffffffffffffffffffffffffffffffff16815260200190815260200160002054905092915050565b60008060008573ffffffffffffffffffffffffffffffffffffffff1673ffffffffffffffffffffffffffffffffffffffff16815260200190815260200160002054821115610aad57600080fd5b610afe826000808773ffffffffffffffffffffffffffffffffffffffff1673ffffffffffffffffffffffffffffffffffffffff16815260200190815260200160002054610c4390919063ffffffff16565b6000808673ffffffffffffffffffffffffffffffffffffffff1673ffffffffffffffffffffffffffffffffffffffff16815260200190815260200160002081905550610b91826000808673ffffffffffffffffffffffffffffffffffffffff1673ffffffffffffffffffffffffffffffffffffffff16815260200190815260200160002054610c5a90919063ffffffff16565b6000808573ffffffffffffffffffffffffffffffffffffffff1673ffffffffffffffffffffffffffffffffffffffff168152602001908152602001600020819055508273ffffffffffffffffffffffffffffffffffffffff168473ffffffffffffffffffffffffffffffffffffffff167fddf252ad1be2c89b69c2b068fc378daa952ba7f163c4a11628f55a4df523b3ef84604051610c309190610e5c565b60405180910390a3600190509392505050565b600082821115610c4f57fe5b818303905092915050565b600080828401905083811015610c6c57fe5b8091505092915050565b600081359050610c8581610f47565b92915050565b600081359050610c9a81610f5e565b92915050565b600060208284031215610cb257600080fd5b6000610cc084828501610c76565b91505092915050565b60008060408385031215610cdc57600080fd5b6000610cea85828601610c76565b9250506020610cfb85828601610c76565b9150509250929050565b600080600060608486031215610d1a57600080fd5b6000610d2886828701610c76565b9350506020610d3986828701610c76565b9250506040610d4a86828701610c8b565b9150509250925092565b60008060408385031215610d6757600080fd5b6000610d7585828601610c76565b9250506020610d8685828601610c8b565b9150509250929050565b600060208284031215610da257600080fd5b6000610db084828501610c8b565b91505092915050565b610dc281610ec0565b82525050565b6000610dd382610e92565b610ddd8185610e9d565b9350610ded818560208601610f03565b610df681610f36565b840191505092915050565b610e0a81610eec565b82525050565b610e1981610ef6565b82525050565b6000602082019050610e346000830184610db9565b92915050565b60006020820190508181036000830152610e548184610dc8565b905092915050565b6000602082019050610e716000830184610e01565b92915050565b6000602082019050610e8c6000830184610e10565b92915050565b600081519050919050565b600082825260208201905092915050565b6000610eb982610ecc565b9050919050565b60008115159050919050565b600073ffffffffffffffffffffffffffffffffffffffff82169050919050565b6000819050919050565b600060ff82169050919050565b60005b83811015610f21578082015181840152602081019050610f06565b83811115610f30576000848401525b50505050565b6000601f19601f8301169050919050565b610f5081610eae565b8114610f5b57600080fd5b50565b610f6781610eec565b8114610f7257600080fd5b5056fea2646970667358221220532c3aa8b922c20767af62dc097402ad230508a242d27769011d941905abc92364736f6c634300060c0033",
					"opcodes": "PUSH1 0x80 PUSH1 0x40 MSTORE CALLVALUE DUP1 ISZERO PUSH3 0x11 JUMPI PUSH1 0x0 DUP1 REVERT JUMPDEST POP PUSH2 0x3E8 PUSH1 0x40 MLOAD PUSH3 0x23 SWAP1 PUSH3 0xD3 JUMP JUMPDEST PUSH3 0x2F SWAP2 SWAP1 PUSH3 0xF2 JUMP JUMPDEST PUSH1 0x40 MLOAD DUP1 SWAP2 SUB SWAP1 PUSH1 0x0 CREATE DUP1 ISZERO DUP1 ISZERO PUSH3 0x4C JUMPI RETURNDATASIZE PUSH1 0x0 DUP1 RETURNDATACOPY RETURNDATASIZE PUSH1 0x0 REVERT JUMPDEST POP PUSH1 0x0 DUP1 PUSH2 0x100 EXP DUP2 SLOAD DUP2 PUSH20 0xFFFFFFFFFFFFFFFFFFFFFFFFFFFFFFFFFFFFFFFF MUL NOT AND SWAP1 DUP4 PUSH20 0xFFFFFFFFFFFFFFFFFFFFFFFFFFFFFFFFFFFFFFFF AND MUL OR SWAP1 SSTORE POP CALLER PUSH1 0x1 PUSH1 0x0 PUSH2 0x100 EXP DUP2 SLOAD DUP2 PUSH20 0xFFFFFFFFFFFFFFFFFFFFFFFFFFFFFFFFFFFFFFFF MUL NOT AND SWAP1 DUP4 PUSH20 0xFFFFFFFFFFFFFFFFFFFFFFFFFFFFFFFFFFFFFFFF AND MUL OR SWAP1 SSTORE POP PUSH3 0x12D JUMP JUMPDEST PUSH2 0x109D DUP1 PUSH3 0x2249 DUP4 CODECOPY ADD SWAP1 JUMP JUMPDEST PUSH3 0xEC DUP2 PUSH3 0x119 JUMP JUMPDEST DUP3 MSTORE POP POP JUMP JUMPDEST PUSH1 0x0 PUSH1 0x20 DUP3 ADD SWAP1 POP PUSH3 0x109 PUSH1 0x0 DUP4 ADD DUP5 PUSH3 0xE1 JUMP JUMPDEST SWAP3 SWAP2 POP POP JUMP JUMPDEST PUSH1 0x0 DUP2 SWAP1 POP SWAP2 SWAP1 POP JUMP JUMPDEST PUSH1 0x0 PUSH3 0x126 DUP3 PUSH3 0x10F JUMP JUMPDEST SWAP1 POP SWAP2 SWAP1 POP JUMP JUMPDEST PUSH2 0x210C DUP1 PUSH3 0x13D PUSH1 0x0 CODECOPY PUSH1 0x0 RETURN INVALID PUSH1 0x80 PUSH1 0x40 MSTORE PUSH1 0x4 CALLDATASIZE LT PUSH2 0xA7 JUMPI PUSH1 0x0 CALLDATALOAD PUSH1 0xE0 SHR DUP1 PUSH4 0xA2094159 GT PUSH2 0x64 JUMPI DUP1 PUSH4 0xA2094159 EQ PUSH2 0x1A8 JUMPI DUP1 PUSH4 0xA9862FAB EQ PUSH2 0x1D1 JUMPI DUP1 PUSH4 0xCE8F2F38 EQ PUSH2 0x1FA JUMPI DUP1 PUSH4 0xD00DF296 EQ PUSH2 0x237 JUMPI DUP1 PUSH4 0xE33F34A0 EQ PUSH2 0x276 JUMPI DUP1 PUSH4 0xF7774091 EQ PUSH2 0x2A1 JUMPI PUSH2 0xA7 JUMP JUMPDEST DUP1 PUSH4 0x12B91846 EQ PUSH2 0xAC JUMPI DUP1 PUSH4 0x1FCCB33C EQ PUSH2 0xD5 JUMPI DUP1 PUSH4 0x2076B56C EQ PUSH2 0x100 JUMPI DUP1 PUSH4 0x7C1B38BF EQ PUSH2 0x129 JUMPI DUP1 PUSH4 0x8DA5CB5B EQ PUSH2 0x152 JUMPI DUP1 PUSH4 0x9A3174A0 EQ PUSH2 0x17D JUMPI JUMPDEST PUSH1 0x0 DUP1 REVERT JUMPDEST CALLVALUE DUP1 ISZERO PUSH2 0xB8 JUMPI PUSH1 0x0 DUP1 REVERT JUMPDEST POP PUSH2 0xD3 PUSH1 0x4 DUP1 CALLDATASIZE SUB DUP2 ADD SWAP1 PUSH2 0xCE SWAP2 SWAP1 PUSH2 0x157B JUMP JUMPDEST PUSH2 0x2BD JUMP JUMPDEST STOP JUMPDEST CALLVALUE DUP1 ISZERO PUSH2 0xE1 JUMPI PUSH1 0x0 DUP1 REVERT JUMPDEST POP PUSH2 0xEA PUSH2 0x679 JUMP JUMPDEST PUSH1 0x40 MLOAD PUSH2 0xF7 SWAP2 SWAP1 PUSH2 0x1D0C JUMP JUMPDEST PUSH1 0x40 MLOAD DUP1 SWAP2 SUB SWAP1 RETURN JUMPDEST CALLVALUE DUP1 ISZERO PUSH2 0x10C JUMPI PUSH1 0x0 DUP1 REVERT JUMPDEST POP PUSH2 0x127 PUSH1 0x4 DUP1 CALLDATASIZE SUB DUP2 ADD SWAP1 PUSH2 0x122 SWAP2 SWAP1 PUSH2 0x15BC JUMP JUMPDEST PUSH2 0x726 JUMP JUMPDEST STOP JUMPDEST CALLVALUE DUP1 ISZERO PUSH2 0x135 JUMPI PUSH1 0x0 DUP1 REVERT JUMPDEST POP PUSH2 0x150 PUSH1 0x4 DUP1 CALLDATASIZE SUB DUP2 ADD SWAP1 PUSH2 0x14B SWAP2 SWAP1 PUSH2 0x1610 JUMP JUMPDEST PUSH2 0x8B7 JUMP JUMPDEST STOP JUMPDEST CALLVALUE DUP1 ISZERO PUSH2 0x15E JUMPI PUSH1 0x0 DUP1 REVERT JUMPDEST POP PUSH2 0x167 PUSH2 0x9D7 JUMP JUMPDEST PUSH1 0x40 MLOAD PUSH2 0x174 SWAP2 SWAP1 PUSH2 0x1C91 JUMP JUMPDEST PUSH1 0x40 MLOAD DUP1 SWAP2 SUB SWAP1 RETURN JUMPDEST CALLVALUE DUP1 ISZERO PUSH2 0x189 JUMPI PUSH1 0x0 DUP1 REVERT JUMPDEST POP PUSH2 0x192 PUSH2 0x9FD JUMP JUMPDEST PUSH1 0x40 MLOAD PUSH2 0x19F SWAP2 SWAP1 PUSH2 0x1EFE JUMP JUMPDEST PUSH1 0x40 MLOAD DUP1 SWAP2 SUB SWAP1 RETURN JUMPDEST CALLVALUE DUP1 ISZERO PUSH2 0x1B4 JUMPI PUSH1 0x0 DUP1 REVERT JUMPDEST POP PUSH2 0x1CF PUSH1 0x4 DUP1 CALLDATASIZE SUB DUP2 ADD SWAP1 PUSH2 0x1CA SWAP2 SWAP1 PUSH2 0x157B JUMP JUMPDEST PUSH2 0xAAE JUMP JUMPDEST STOP JUMPDEST CALLVALUE DUP1 ISZERO PUSH2 0x1DD JUMPI PUSH1 0x0 DUP1 REVERT JUMPDEST POP PUSH2 0x1F8 PUSH1 0x4 DUP1 CALLDATASIZE SUB DUP2 ADD SWAP1 PUSH2 0x1F3 SWAP2 SWAP1 PUSH2 0x157B JUMP JUMPDEST PUSH2 0xD2F JUMP JUMPDEST STOP JUMPDEST CALLVALUE DUP1 ISZERO PUSH2 0x206 JUMPI PUSH1 0x0 DUP1 REVERT JUMPDEST POP PUSH2 0x221 PUSH1 0x4 DUP1 CALLDATASIZE SUB DUP2 ADD SWAP1 PUSH2 0x21C SWAP2 SWAP1 PUSH2 0x1529 JUMP JUMPDEST PUSH2 0xFB0 JUMP JUMPDEST PUSH1 0x40 MLOAD PUSH2 0x22E SWAP2 SWAP1 PUSH2 0x1EFE JUMP JUMPDEST PUSH1 0x40 MLOAD DUP1 SWAP2 SUB SWAP1 RETURN JUMPDEST CALLVALUE DUP1 ISZERO PUSH2 0x243 JUMPI PUSH1 0x0 DUP1 REVERT JUMPDEST POP PUSH2 0x25E PUSH1 0x4 DUP1 CALLDATASIZE SUB DUP2 ADD SWAP1 PUSH2 0x259 SWAP2 SWAP1 PUSH2 0x157B JUMP JUMPDEST PUSH2 0xFCE JUMP JUMPDEST PUSH1 0x40 MLOAD PUSH2 0x26D SWAP4 SWAP3 SWAP2 SWAP1 PUSH2 0x1D5E JUMP JUMPDEST PUSH1 0x40 MLOAD DUP1 SWAP2 SUB SWAP1 RETURN JUMPDEST CALLVALUE DUP1 ISZERO PUSH2 0x282 JUMPI PUSH1 0x0 DUP1 REVERT JUMPDEST POP PUSH2 0x28B PUSH2 0x10B3 JUMP JUMPDEST PUSH1 0x40 MLOAD PUSH2 0x298 SWAP2 SWAP1 PUSH2 0x1EFE JUMP JUMPDEST PUSH1 0x40 MLOAD DUP1 SWAP2 SUB SWAP1 RETURN JUMPDEST PUSH2 0x2BB PUSH1 0x4 DUP1 CALLDATASIZE SUB DUP2 ADD SWAP1 PUSH2 0x2B6 SWAP2 SWAP1 PUSH2 0x1610 JUMP JUMPDEST PUSH2 0x1164 JUMP JUMPDEST STOP JUMPDEST PUSH1 0x0 DUP1 PUSH1 0x0 JUMPDEST PUSH1 0x4 DUP1 SLOAD SWAP1 POP DUP2 LT ISZERO PUSH2 0x633 JUMPI DUP4 PUSH1 0x40 MLOAD PUSH1 0x20 ADD PUSH2 0x2E1 SWAP2 SWAP1 PUSH2 0x1BFE JUMP JUMPDEST PUSH1 0x40 MLOAD PUSH1 0x20 DUP2 DUP4 SUB SUB DUP2 MSTORE SWAP1 PUSH1 0x40 MSTORE DUP1 MLOAD SWAP1 PUSH1 0x20 ADD KECCAK256 PUSH1 0x4 DUP3 DUP2 SLOAD DUP2 LT PUSH2 0x304 JUMPI INVALID JUMPDEST SWAP1 PUSH1 0x0 MSTORE PUSH1 0x20 PUSH1 0x0 KECCAK256 ADD PUSH1 0x40 MLOAD PUSH1 0x20 ADD PUSH2 0x31E SWAP2 SWAP1 PUSH2 0x1C44 JUMP JUMPDEST PUSH1 0x40 MLOAD PUSH1 0x20 DUP2 DUP4 SUB SUB DUP2 MSTORE SWAP1 PUSH1 0x40 MSTORE DUP1 MLOAD SWAP1 PUSH1 0x20 ADD KECCAK256 EQ ISZERO PUSH2 0x626 JUMPI PUSH1 0x1 SWAP3 POP PUSH1 0x3 PUSH1 0x4 DUP3 DUP2 SLOAD DUP2 LT PUSH2 0x34D JUMPI INVALID JUMPDEST SWAP1 PUSH1 0x0 MSTORE PUSH1 0x20 PUSH1 0x0 KECCAK256 ADD PUSH1 0x40 MLOAD PUSH2 0x364 SWAP2 SWAP1 PUSH2 0x1C44 JUMP JUMPDEST SWAP1 DUP2 MSTORE PUSH1 0x20 ADD PUSH1 0x40 MLOAD DUP1 SWAP2 SUB SWAP1 KECCAK256 PUSH1 0x2 ADD PUSH1 0x0 SWAP1 SLOAD SWAP1 PUSH2 0x100 EXP SWAP1 DIV PUSH1 0xFF AND ISZERO PUSH2 0x5E0 JUMPI PUSH1 0x1 SWAP2 POP PUSH2 0x394 PUSH2 0x10B3 JUMP JUMPDEST PUSH1 0x3 PUSH1 0x4 DUP4 DUP2 SLOAD DUP2 LT PUSH2 0x3A3 JUMPI INVALID JUMPDEST SWAP1 PUSH1 0x0 MSTORE PUSH1 0x20 PUSH1 0x0 KECCAK256 ADD PUSH1 0x40 MLOAD PUSH2 0x3BA SWAP2 SWAP1 PUSH2 0x1C44 JUMP JUMPDEST SWAP1 DUP2 MSTORE PUSH1 0x20 ADD PUSH1 0x40 MLOAD DUP1 SWAP2 SUB SWAP1 KECCAK256 PUSH1 0x1 ADD SLOAD GT PUSH2 0x40C JUMPI PUSH1 0x40 MLOAD PUSH32 0x8C379A000000000000000000000000000000000000000000000000000000000 DUP2 MSTORE PUSH1 0x4 ADD PUSH2 0x403 SWAP1 PUSH2 0x1DDE JUMP JUMPDEST PUSH1 0x40 MLOAD DUP1 SWAP2 SUB SWAP1 REVERT JUMPDEST PUSH1 0x0 DUP1 SLOAD SWAP1 PUSH2 0x100 EXP SWAP1 DIV PUSH20 0xFFFFFFFFFFFFFFFFFFFFFFFFFFFFFFFFFFFFFFFF AND PUSH20 0xFFFFFFFFFFFFFFFFFFFFFFFFFFFFFFFFFFFFFFFF AND PUSH4 0xEF910460 CALLER ADDRESS PUSH1 0x3 PUSH1 0x4 DUP7 DUP2 SLOAD DUP2 LT PUSH2 0x459 JUMPI INVALID JUMPDEST SWAP1 PUSH1 0x0 MSTORE PUSH1 0x20 PUSH1 0x0 KECCAK256 ADD PUSH1 0x40 MLOAD PUSH2 0x470 SWAP2 SWAP1 PUSH2 0x1C44 JUMP JUMPDEST SWAP1 DUP2 MSTORE PUSH1 0x20 ADD PUSH1 0x40 MLOAD DUP1 SWAP2 SUB SWAP1 KECCAK256 PUSH1 0x1 ADD SLOAD PUSH1 0x40 MLOAD DUP5 PUSH4 0xFFFFFFFF AND PUSH1 0xE0 SHL DUP2 MSTORE PUSH1 0x4 ADD PUSH2 0x4A0 SWAP4 SWAP3 SWAP2 SWAP1 PUSH2 0x1CAC JUMP JUMPDEST PUSH1 0x20 PUSH1 0x40 MLOAD DUP1 DUP4 SUB DUP2 PUSH1 0x0 DUP8 DUP1 EXTCODESIZE ISZERO DUP1 ISZERO PUSH2 0x4BA JUMPI PUSH1 0x0 DUP1 REVERT JUMPDEST POP GAS CALL ISZERO DUP1 ISZERO PUSH2 0x4CE JUMPI RETURNDATASIZE PUSH1 0x0 DUP1 RETURNDATACOPY RETURNDATASIZE PUSH1 0x0 REVERT JUMPDEST POP POP POP POP PUSH1 0x40 MLOAD RETURNDATASIZE PUSH1 0x1F NOT PUSH1 0x1F DUP3 ADD AND DUP3 ADD DUP1 PUSH1 0x40 MSTORE POP DUP2 ADD SWAP1 PUSH2 0x4F2 SWAP2 SWAP1 PUSH2 0x1552 JUMP JUMPDEST POP PUSH1 0x5 PUSH1 0x0 CALLER PUSH20 0xFFFFFFFFFFFFFFFFFFFFFFFFFFFFFFFFFFFFFFFF AND PUSH20 0xFFFFFFFFFFFFFFFFFFFFFFFFFFFFFFFFFFFFFFFF AND DUP2 MSTORE PUSH1 0x20 ADD SWAP1 DUP2 MSTORE PUSH1 0x20 ADD PUSH1 0x0 KECCAK256 PUSH1 0x4 DUP3 DUP2 SLOAD DUP2 LT PUSH2 0x53F JUMPI INVALID JUMPDEST SWAP1 PUSH1 0x0 MSTORE PUSH1 0x20 PUSH1 0x0 KECCAK256 ADD SWAP1 DUP1 PUSH1 0x1 DUP2 SLOAD ADD DUP1 DUP3 SSTORE DUP1 SWAP2 POP POP PUSH1 0x1 SWAP1 SUB SWAP1 PUSH1 0x0 MSTORE PUSH1 0x20 PUSH1 0x0 KECCAK256 ADD PUSH1 0x0 SWAP1 SWAP2 SWAP1 SWAP2 SWAP1 SWAP2 POP SWAP1 DUP1 SLOAD PUSH1 0x1 DUP2 PUSH1 0x1 AND ISZERO PUSH2 0x100 MUL SUB AND PUSH1 0x2 SWAP1 DIV PUSH2 0x58D SWAP3 SWAP2 SWAP1 PUSH2 0x135D JUMP JUMPDEST POP PUSH32 0xC13B0C39E701B0F41DDE2E972F3E98E53FA01E6BC45EF606DDC7522A8E354F2D PUSH1 0x4 DUP3 DUP2 SLOAD DUP2 LT PUSH2 0x5BC JUMPI INVALID JUMPDEST SWAP1 PUSH1 0x0 MSTORE PUSH1 0x20 PUSH1 0x0 KECCAK256 ADD PUSH1 0x40 MLOAD PUSH2 0x5D3 SWAP2 SWAP1 PUSH2 0x1D9C JUMP JUMPDEST PUSH1 0x40 MLOAD DUP1 SWAP2 SUB SWAP1 LOG1 PUSH2 0x621 JUMP JUMPDEST DUP2 PUSH2 0x620 JUMPI PUSH1 0x40 MLOAD PUSH32 0x8C379A000000000000000000000000000000000000000000000000000000000 DUP2 MSTORE PUSH1 0x4 ADD PUSH2 0x617 SWAP1 PUSH2 0x1DFE JUMP JUMPDEST PUSH1 0x40 MLOAD DUP1 SWAP2 SUB SWAP1 REVERT JUMPDEST JUMPDEST PUSH2 0x633 JUMP JUMPDEST DUP1 DUP1 PUSH1 0x1 ADD SWAP2 POP POP PUSH2 0x2C3 JUMP JUMPDEST POP DUP2 PUSH2 0x674 JUMPI PUSH1 0x40 MLOAD PUSH32 0x8C379A000000000000000000000000000000000000000000000000000000000 DUP2 MSTORE PUSH1 0x4 ADD PUSH2 0x66B SWAP1 PUSH2 0x1DBE JUMP JUMPDEST PUSH1 0x40 MLOAD DUP1 SWAP2 SUB SWAP1 REVERT JUMPDEST POP POP POP JUMP JUMPDEST PUSH1 0x60 DUP1 PUSH1 0x0 JUMPDEST PUSH1 0x4 DUP1 SLOAD SWAP1 POP DUP2 LT ISZERO PUSH2 0x71E JUMPI PUSH1 0x3 PUSH1 0x4 DUP3 DUP2 SLOAD DUP2 LT PUSH2 0x69B JUMPI INVALID JUMPDEST SWAP1 PUSH1 0x0 MSTORE PUSH1 0x20 PUSH1 0x0 KECCAK256 ADD PUSH1 0x40 MLOAD PUSH2 0x6B2 SWAP2 SWAP1 PUSH2 0x1C44 JUMP JUMPDEST SWAP1 DUP2 MSTORE PUSH1 0x20 ADD PUSH1 0x40 MLOAD DUP1 SWAP2 SUB SWAP1 KECCAK256 PUSH1 0x2 ADD PUSH1 0x0 SWAP1 SLOAD SWAP1 PUSH2 0x100 EXP SWAP1 DIV PUSH1 0xFF AND ISZERO PUSH2 0x711 JUMPI DUP2 PUSH1 0x4 DUP3 DUP2 SLOAD DUP2 LT PUSH2 0x6E4 JUMPI INVALID JUMPDEST SWAP1 PUSH1 0x0 MSTORE PUSH1 0x20 PUSH1 0x0 KECCAK256 ADD PUSH1 0x40 MLOAD PUSH1 0x20 ADD PUSH2 0x6FF SWAP3 SWAP2 SWAP1 PUSH2 0x1C15 JUMP JUMPDEST PUSH1 0x40 MLOAD PUSH1 0x20 DUP2 DUP4 SUB SUB DUP2 MSTORE SWAP1 PUSH1 0x40 MSTORE SWAP2 POP JUMPDEST DUP1 DUP1 PUSH1 0x1 ADD SWAP2 POP POP PUSH2 0x67F JUMP JUMPDEST POP DUP1 SWAP2 POP POP SWAP1 JUMP JUMPDEST CALLER PUSH1 0x1 PUSH1 0x0 SWAP1 SLOAD SWAP1 PUSH2 0x100 EXP SWAP1 DIV PUSH20 0xFFFFFFFFFFFFFFFFFFFFFFFFFFFFFFFFFFFFFFFF AND PUSH20 0xFFFFFFFFFFFFFFFFFFFFFFFFFFFFFFFFFFFFFFFF AND DUP2 PUSH20 0xFFFFFFFFFFFFFFFFFFFFFFFFFFFFFFFFFFFFFFFF AND EQ PUSH2 0x7B7 JUMPI PUSH1 0x40 MLOAD PUSH32 0x8C379A000000000000000000000000000000000000000000000000000000000 DUP2 MSTORE PUSH1 0x4 ADD PUSH2 0x7AE SWAP1 PUSH2 0x1E9E JUMP JUMPDEST PUSH1 0x40 MLOAD DUP1 SWAP2 SUB SWAP1 REVERT JUMPDEST PUSH1 0x40 MLOAD DUP1 PUSH1 0x60 ADD PUSH1 0x40 MSTORE DUP1 DUP5 DUP2 MSTORE PUSH1 0x20 ADD DUP4 DUP2 MSTORE PUSH1 0x20 ADD PUSH1 0x1 ISZERO ISZERO DUP2 MSTORE POP PUSH1 0x3 DUP5 PUSH1 0x40 MLOAD PUSH2 0x7E5 SWAP2 SWAP1 PUSH2 0x1BFE JUMP JUMPDEST SWAP1 DUP2 MSTORE PUSH1 0x20 ADD PUSH1 0x40 MLOAD DUP1 SWAP2 SUB SWAP1 KECCAK256 PUSH1 0x0 DUP3 ADD MLOAD DUP2 PUSH1 0x0 ADD SWAP1 DUP1 MLOAD SWAP1 PUSH1 0x20 ADD SWAP1 PUSH2 0x80F SWAP3 SWAP2 SWAP1 PUSH2 0x13E4 JUMP JUMPDEST POP PUSH1 0x20 DUP3 ADD MLOAD DUP2 PUSH1 0x1 ADD SSTORE PUSH1 0x40 DUP3 ADD MLOAD DUP2 PUSH1 0x2 ADD PUSH1 0x0 PUSH2 0x100 EXP DUP2 SLOAD DUP2 PUSH1 0xFF MUL NOT AND SWAP1 DUP4 ISZERO ISZERO MUL OR SWAP1 SSTORE POP SWAP1 POP POP PUSH1 0x4 DUP4 SWAP1 DUP1 PUSH1 0x1 DUP2 SLOAD ADD DUP1 DUP3 SSTORE DUP1 SWAP2 POP POP PUSH1 0x1 SWAP1 SUB SWAP1 PUSH1 0x0 MSTORE PUSH1 0x20 PUSH1 0x0 KECCAK256 ADD PUSH1 0x0 SWAP1 SWAP2 SWAP1 SWAP2 SWAP1 SWAP2 POP SWAP1 DUP1 MLOAD SWAP1 PUSH1 0x20 ADD SWAP1 PUSH2 0x878 SWAP3 SWAP2 SWAP1 PUSH2 0x13E4 JUMP JUMPDEST POP PUSH32 0xFC9ECD7A6C2CA96D38526A0B9CC22F2474FF8E596DD348EDAAB06BE905EBE378 DUP4 DUP4 PUSH1 0x40 MLOAD PUSH2 0x8AA SWAP3 SWAP2 SWAP1 PUSH2 0x1D2E JUMP JUMPDEST PUSH1 0x40 MLOAD DUP1 SWAP2 SUB SWAP1 LOG1 POP POP POP JUMP JUMPDEST CALLER PUSH1 0x1 PUSH1 0x0 SWAP1 SLOAD SWAP1 PUSH2 0x100 EXP SWAP1 DIV PUSH20 0xFFFFFFFFFFFFFFFFFFFFFFFFFFFFFFFFFFFFFFFF AND PUSH20 0xFFFFFFFFFFFFFFFFFFFFFFFFFFFFFFFFFFFFFFFF AND DUP2 PUSH20 0xFFFFFFFFFFFFFFFFFFFFFFFFFFFFFFFFFFFFFFFF AND EQ PUSH2 0x948 JUMPI PUSH1 0x40 MLOAD PUSH32 0x8C379A000000000000000000000000000000000000000000000000000000000 DUP2 MSTORE PUSH1 0x4 ADD PUSH2 0x93F SWAP1 PUSH2 0x1E9E JUMP JUMPDEST PUSH1 0x40 MLOAD DUP1 SWAP2 SUB SWAP1 REVERT JUMPDEST PUSH1 0x0 DUP1 SLOAD SWAP1 PUSH2 0x100 EXP SWAP1 DIV PUSH20 0xFFFFFFFFFFFFFFFFFFFFFFFFFFFFFFFFFFFFFFFF AND PUSH20 0xFFFFFFFFFFFFFFFFFFFFFFFFFFFFFFFFFFFFFFFF AND PUSH4 0x1D43CC98 DUP4 PUSH1 0x40 MLOAD DUP3 PUSH4 0xFFFFFFFF AND PUSH1 0xE0 SHL DUP2 MSTORE PUSH1 0x4 ADD PUSH2 0x9A1 SWAP2 SWAP1 PUSH2 0x1EFE JUMP JUMPDEST PUSH1 0x0 PUSH1 0x40 MLOAD DUP1 DUP4 SUB DUP2 PUSH1 0x0 DUP8 DUP1 EXTCODESIZE ISZERO DUP1 ISZERO PUSH2 0x9BB JUMPI PUSH1 0x0 DUP1 REVERT JUMPDEST POP GAS CALL ISZERO DUP1 ISZERO PUSH2 0x9CF JUMPI RETURNDATASIZE PUSH1 0x0 DUP1 RETURNDATACOPY RETURNDATASIZE PUSH1 0x0 REVERT JUMPDEST POP POP POP POP POP POP JUMP JUMPDEST PUSH1 0x1 PUSH1 0x0 SWAP1 SLOAD SWAP1 PUSH2 0x100 EXP SWAP1 DIV PUSH20 0xFFFFFFFFFFFFFFFFFFFFFFFFFFFFFFFFFFFFFFFF AND DUP2 JUMP JUMPDEST PUSH1 0x0 DUP1 PUSH1 0x0 SWAP1 SLOAD SWAP1 PUSH2 0x100 EXP SWAP1 DIV PUSH20 0xFFFFFFFFFFFFFFFFFFFFFFFFFFFFFFFFFFFFFFFF AND PUSH20 0xFFFFFFFFFFFFFFFFFFFFFFFFFFFFFFFFFFFFFFFF AND PUSH4 0x70A08231 ADDRESS PUSH1 0x40 MLOAD DUP3 PUSH4 0xFFFFFFFF AND PUSH1 0xE0 SHL DUP2 MSTORE PUSH1 0x4 ADD PUSH2 0xA59 SWAP2 SWAP1 PUSH2 0x1C5B JUMP JUMPDEST PUSH1 0x20 PUSH1 0x40 MLOAD DUP1 DUP4 SUB DUP2 DUP7 DUP1 EXTCODESIZE ISZERO DUP1 ISZERO PUSH2 0xA71 JUMPI PUSH1 0x0 DUP1 REVERT JUMPDEST POP GAS STATICCALL ISZERO DUP1 ISZERO PUSH2 0xA85 JUMPI RETURNDATASIZE PUSH1 0x0 DUP1 RETURNDATACOPY RETURNDATASIZE PUSH1 0x0 REVERT JUMPDEST POP POP POP POP PUSH1 0x40 MLOAD RETURNDATASIZE PUSH1 0x1F NOT PUSH1 0x1F DUP3 ADD AND DUP3 ADD DUP1 PUSH1 0x40 MSTORE POP DUP2 ADD SWAP1 PUSH2 0xAA9 SWAP2 SWAP1 PUSH2 0x1639 JUMP JUMPDEST SWAP1 POP SWAP1 JUMP JUMPDEST CALLER PUSH1 0x1 PUSH1 0x0 SWAP1 SLOAD SWAP1 PUSH2 0x100 EXP SWAP1 DIV PUSH20 0xFFFFFFFFFFFFFFFFFFFFFFFFFFFFFFFFFFFFFFFF AND PUSH20 0xFFFFFFFFFFFFFFFFFFFFFFFFFFFFFFFFFFFFFFFF AND DUP2 PUSH20 0xFFFFFFFFFFFFFFFFFFFFFFFFFFFFFFFFFFFFFFFF AND EQ PUSH2 0xB3F JUMPI PUSH1 0x40 MLOAD PUSH32 0x8C379A000000000000000000000000000000000000000000000000000000000 DUP2 MSTORE PUSH1 0x4 ADD PUSH2 0xB36 SWAP1 PUSH2 0x1E9E JUMP JUMPDEST PUSH1 0x40 MLOAD DUP1 SWAP2 SUB SWAP1 REVERT JUMPDEST PUSH1 0x0 DUP1 JUMPDEST PUSH1 0x4 DUP1 SLOAD SWAP1 POP DUP2 LT ISZERO PUSH2 0xCB2 JUMPI DUP4 PUSH1 0x40 MLOAD PUSH1 0x20 ADD PUSH2 0xB61 SWAP2 SWAP1 PUSH2 0x1BFE JUMP JUMPDEST PUSH1 0x40 MLOAD PUSH1 0x20 DUP2 DUP4 SUB SUB DUP2 MSTORE SWAP1 PUSH1 0x40 MSTORE DUP1 MLOAD SWAP1 PUSH1 0x20 ADD KECCAK256 PUSH1 0x4 DUP3 DUP2 SLOAD DUP2 LT PUSH2 0xB84 JUMPI INVALID JUMPDEST SWAP1 PUSH1 0x0 MSTORE PUSH1 0x20 PUSH1 0x0 KECCAK256 ADD PUSH1 0x40 MLOAD PUSH1 0x20 ADD PUSH2 0xB9E SWAP2 SWAP1 PUSH2 0x1C44 JUMP JUMPDEST PUSH1 0x40 MLOAD PUSH1 0x20 DUP2 DUP4 SUB SUB DUP2 MSTORE SWAP1 PUSH1 0x40 MSTORE DUP1 MLOAD SWAP1 PUSH1 0x20 ADD KECCAK256 EQ ISZERO PUSH2 0xCA5 JUMPI PUSH1 0x1 SWAP2 POP PUSH1 0x3 DUP5 PUSH1 0x40 MLOAD PUSH2 0xBCE SWAP2 SWAP1 PUSH2 0x1BFE JUMP JUMPDEST SWAP1 DUP2 MSTORE PUSH1 0x20 ADD PUSH1 0x40 MLOAD DUP1 SWAP2 SUB SWAP1 KECCAK256 PUSH1 0x2 ADD PUSH1 0x0 SWAP1 SLOAD SWAP1 PUSH2 0x100 EXP SWAP1 DIV PUSH1 0xFF AND ISZERO PUSH2 0xC31 JUMPI PUSH1 0x0 PUSH1 0x3 DUP6 PUSH1 0x40 MLOAD PUSH2 0xC04 SWAP2 SWAP1 PUSH2 0x1BFE JUMP JUMPDEST SWAP1 DUP2 MSTORE PUSH1 0x20 ADD PUSH1 0x40 MLOAD DUP1 SWAP2 SUB SWAP1 KECCAK256 PUSH1 0x2 ADD PUSH1 0x0 PUSH2 0x100 EXP DUP2 SLOAD DUP2 PUSH1 0xFF MUL NOT AND SWAP1 DUP4 ISZERO ISZERO MUL OR SWAP1 SSTORE POP PUSH2 0xCA0 JUMP JUMPDEST PUSH1 0x3 DUP5 PUSH1 0x40 MLOAD PUSH2 0xC41 SWAP2 SWAP1 PUSH2 0x1BFE JUMP JUMPDEST SWAP1 DUP2 MSTORE PUSH1 0x20 ADD PUSH1 0x40 MLOAD DUP1 SWAP2 SUB SWAP1 KECCAK256 PUSH1 0x2 ADD PUSH1 0x0 SWAP1 SLOAD SWAP1 PUSH2 0x100 EXP SWAP1 DIV PUSH1 0xFF AND PUSH2 0xC9F JUMPI PUSH1 0x40 MLOAD PUSH32 0x8C379A000000000000000000000000000000000000000000000000000000000 DUP2 MSTORE PUSH1 0x4 ADD PUSH2 0xC96 SWAP1 PUSH2 0x1E5E JUMP JUMPDEST PUSH1 0x40 MLOAD DUP1 SWAP2 SUB SWAP1 REVERT JUMPDEST JUMPDEST PUSH2 0xCB2 JUMP JUMPDEST DUP1 DUP1 PUSH1 0x1 ADD SWAP2 POP POP PUSH2 0xB43 JUMP JUMPDEST POP DUP1 PUSH2 0xCF3 JUMPI PUSH1 0x40 MLOAD PUSH32 0x8C379A000000000000000000000000000000000000000000000000000000000 DUP2 MSTORE PUSH1 0x4 ADD PUSH2 0xCEA SWAP1 PUSH2 0x1EBE JUMP JUMPDEST PUSH1 0x40 MLOAD DUP1 SWAP2 SUB SWAP1 REVERT JUMPDEST PUSH32 0x24BA6C881728980191398DB8DCFD8ED4F6AEB1C08DF349D63F3B85075F3E86DD DUP4 PUSH1 0x40 MLOAD PUSH2 0xD22 SWAP2 SWAP1 PUSH2 0x1D0C JUMP JUMPDEST PUSH1 0x40 MLOAD DUP1 SWAP2 SUB SWAP1 LOG1 POP POP POP JUMP JUMPDEST CALLER PUSH1 0x1 PUSH1 0x0 SWAP1 SLOAD SWAP1 PUSH2 0x100 EXP SWAP1 DIV PUSH20 0xFFFFFFFFFFFFFFFFFFFFFFFFFFFFFFFFFFFFFFFF AND PUSH20 0xFFFFFFFFFFFFFFFFFFFFFFFFFFFFFFFFFFFFFFFF AND DUP2 PUSH20 0xFFFFFFFFFFFFFFFFFFFFFFFFFFFFFFFFFFFFFFFF AND EQ PUSH2 0xDC0 JUMPI PUSH1 0x40 MLOAD PUSH32 0x8C379A000000000000000000000000000000000000000000000000000000000 DUP2 MSTORE PUSH1 0x4 ADD PUSH2 0xDB7 SWAP1 PUSH2 0x1E9E JUMP JUMPDEST PUSH1 0x40 MLOAD DUP1 SWAP2 SUB SWAP1 REVERT JUMPDEST PUSH1 0x0 DUP1 JUMPDEST PUSH1 0x4 DUP1 SLOAD SWAP1 POP DUP2 LT ISZERO PUSH2 0xF33 JUMPI DUP4 PUSH1 0x40 MLOAD PUSH1 0x20 ADD PUSH2 0xDE2 SWAP2 SWAP1 PUSH2 0x1BFE JUMP JUMPDEST PUSH1 0x40 MLOAD PUSH1 0x20 DUP2 DUP4 SUB SUB DUP2 MSTORE SWAP1 PUSH1 0x40 MSTORE DUP1 MLOAD SWAP1 PUSH1 0x20 ADD KECCAK256 PUSH1 0x4 DUP3 DUP2 SLOAD DUP2 LT PUSH2 0xE05 JUMPI INVALID JUMPDEST SWAP1 PUSH1 0x0 MSTORE PUSH1 0x20 PUSH1 0x0 KECCAK256 ADD PUSH1 0x40 MLOAD PUSH1 0x20 ADD PUSH2 0xE1F SWAP2 SWAP1 PUSH2 0x1C44 JUMP JUMPDEST PUSH1 0x40 MLOAD PUSH1 0x20 DUP2 DUP4 SUB SUB DUP2 MSTORE SWAP1 PUSH1 0x40 MSTORE DUP1 MLOAD SWAP1 PUSH1 0x20 ADD KECCAK256 EQ ISZERO PUSH2 0xF26 JUMPI PUSH1 0x1 SWAP2 POP PUSH1 0x3 DUP5 PUSH1 0x40 MLOAD PUSH2 0xE4F SWAP2 SWAP1 PUSH2 0x1BFE JUMP JUMPDEST SWAP1 DUP2 MSTORE PUSH1 0x20 ADD PUSH1 0x40 MLOAD DUP1 SWAP2 SUB SWAP1 KECCAK256 PUSH1 0x2 ADD PUSH1 0x0 SWAP1 SLOAD SWAP1 PUSH2 0x100 EXP SWAP1 DIV PUSH1 0xFF AND PUSH2 0xEB1 JUMPI PUSH1 0x1 PUSH1 0x3 DUP6 PUSH1 0x40 MLOAD PUSH2 0xE84 SWAP2 SWAP1 PUSH2 0x1BFE JUMP JUMPDEST SWAP1 DUP2 MSTORE PUSH1 0x20 ADD PUSH1 0x40 MLOAD DUP1 SWAP2 SUB SWAP1 KECCAK256 PUSH1 0x2 ADD PUSH1 0x0 PUSH2 0x100 EXP DUP2 SLOAD DUP2 PUSH1 0xFF MUL NOT AND SWAP1 DUP4 ISZERO ISZERO MUL OR SWAP1 SSTORE POP PUSH2 0xF21 JUMP JUMPDEST PUSH1 0x3 DUP5 PUSH1 0x40 MLOAD PUSH2 0xEC1 SWAP2 SWAP1 PUSH2 0x1BFE JUMP JUMPDEST SWAP1 DUP2 MSTORE PUSH1 0x20 ADD PUSH1 0x40 MLOAD DUP1 SWAP2 SUB SWAP1 KECCAK256 PUSH1 0x2 ADD PUSH1 0x0 SWAP1 SLOAD SWAP1 PUSH2 0x100 EXP SWAP1 DIV PUSH1 0xFF AND ISZERO PUSH2 0xF20 JUMPI PUSH1 0x40 MLOAD PUSH32 0x8C379A000000000000000000000000000000000000000000000000000000000 DUP2 MSTORE PUSH1 0x4 ADD PUSH2 0xF17 SWAP1 PUSH2 0x1E7E JUMP JUMPDEST PUSH1 0x40 MLOAD DUP1 SWAP2 SUB SWAP1 REVERT JUMPDEST JUMPDEST PUSH2 0xF33 JUMP JUMPDEST DUP1 DUP1 PUSH1 0x1 ADD SWAP2 POP POP PUSH2 0xDC4 JUMP JUMPDEST POP DUP1 PUSH2 0xF74 JUMPI PUSH1 0x40 MLOAD PUSH32 0x8C379A000000000000000000000000000000000000000000000000000000000 DUP2 MSTORE PUSH1 0x4 ADD PUSH2 0xF6B SWAP1 PUSH2 0x1EDE JUMP JUMPDEST PUSH1 0x40 MLOAD DUP1 SWAP2 SUB SWAP1 REVERT JUMPDEST PUSH32 0x24BA6C881728980191398DB8DCFD8ED4F6AEB1C08DF349D63F3B85075F3E86DD DUP4 PUSH1 0x40 MLOAD PUSH2 0xFA3 SWAP2 SWAP1 PUSH2 0x1D0C JUMP JUMPDEST PUSH1 0x40 MLOAD DUP1 SWAP2 SUB SWAP1 LOG1 POP POP POP JUMP JUMPDEST PUSH1 0x2 PUSH1 0x20 MSTORE DUP1 PUSH1 0x0 MSTORE PUSH1 0x40 PUSH1 0x0 KECCAK256 PUSH1 0x0 SWAP2 POP SWAP1 POP DUP1 PUSH1 0x0 ADD SLOAD SWAP1 POP DUP2 JUMP JUMPDEST PUSH1 0x3 DUP2 DUP1 MLOAD PUSH1 0x20 DUP2 ADD DUP3 ADD DUP1 MLOAD DUP5 DUP3 MSTORE PUSH1 0x20 DUP4 ADD PUSH1 0x20 DUP6 ADD KECCAK256 DUP2 DUP4 MSTORE DUP1 SWAP6 POP POP POP POP POP POP PUSH1 0x0 SWAP2 POP SWAP1 POP DUP1 PUSH1 0x0 ADD DUP1 SLOAD PUSH1 0x1 DUP2 PUSH1 0x1 AND ISZERO PUSH2 0x100 MUL SUB AND PUSH1 0x2 SWAP1 DIV DUP1 PUSH1 0x1F ADD PUSH1 0x20 DUP1 SWAP2 DIV MUL PUSH1 0x20 ADD PUSH1 0x40 MLOAD SWAP1 DUP2 ADD PUSH1 0x40 MSTORE DUP1 SWAP3 SWAP2 SWAP1 DUP2 DUP2 MSTORE PUSH1 0x20 ADD DUP3 DUP1 SLOAD PUSH1 0x1 DUP2 PUSH1 0x1 AND ISZERO PUSH2 0x100 MUL SUB AND PUSH1 0x2 SWAP1 DIV DUP1 ISZERO PUSH2 0x1090 JUMPI DUP1 PUSH1 0x1F LT PUSH2 0x1065 JUMPI PUSH2 0x100 DUP1 DUP4 SLOAD DIV MUL DUP4 MSTORE SWAP2 PUSH1 0x20 ADD SWAP2 PUSH2 0x1090 JUMP JUMPDEST DUP3 ADD SWAP2 SWAP1 PUSH1 0x0 MSTORE PUSH1 0x20 PUSH1 0x0 KECCAK256 SWAP1 JUMPDEST DUP2 SLOAD DUP2 MSTORE SWAP1 PUSH1 0x1 ADD SWAP1 PUSH1 0x20 ADD DUP1 DUP4 GT PUSH2 0x1073 JUMPI DUP3 SWAP1 SUB PUSH1 0x1F AND DUP3 ADD SWAP2 JUMPDEST POP POP POP POP POP SWAP1 DUP1 PUSH1 0x1 ADD SLOAD SWAP1 DUP1 PUSH1 0x2 ADD PUSH1 0x0 SWAP1 SLOAD SWAP1 PUSH2 0x100 EXP SWAP1 DIV PUSH1 0xFF AND SWAP1 POP DUP4 JUMP JUMPDEST PUSH1 0x0 DUP1 PUSH1 0x0 SWAP1 SLOAD SWAP1 PUSH2 0x100 EXP SWAP1 DIV PUSH20 0xFFFFFFFFFFFFFFFFFFFFFFFFFFFFFFFFFFFFFFFF AND PUSH20 0xFFFFFFFFFFFFFFFFFFFFFFFFFFFFFFFFFFFFFFFF AND PUSH4 0x70A08231 CALLER PUSH1 0x40 MLOAD DUP3 PUSH4 0xFFFFFFFF AND PUSH1 0xE0 SHL DUP2 MSTORE PUSH1 0x4 ADD PUSH2 0x110F SWAP2 SWAP1 PUSH2 0x1C76 JUMP JUMPDEST PUSH1 0x20 PUSH1 0x40 MLOAD DUP1 DUP4 SUB DUP2 DUP7 DUP1 EXTCODESIZE ISZERO DUP1 ISZERO PUSH2 0x1127 JUMPI PUSH1 0x0 DUP1 REVERT JUMPDEST POP GAS STATICCALL ISZERO DUP1 ISZERO PUSH2 0x113B JUMPI RETURNDATASIZE PUSH1 0x0 DUP1 RETURNDATACOPY RETURNDATASIZE PUSH1 0x0 REVERT JUMPDEST POP POP POP POP PUSH1 0x40 MLOAD RETURNDATASIZE PUSH1 0x1F NOT PUSH1 0x1F DUP3 ADD AND DUP3 ADD DUP1 PUSH1 0x40 MSTORE POP DUP2 ADD SWAP1 PUSH2 0x115F SWAP2 SWAP1 PUSH2 0x1639 JUMP JUMPDEST SWAP1 POP SWAP1 JUMP JUMPDEST PUSH1 0x0 PUSH2 0x116F DUP3 PUSH2 0x1349 JUMP JUMPDEST SWAP1 POP DUP1 CALLVALUE LT ISZERO PUSH2 0x11B4 JUMPI PUSH1 0x40 MLOAD PUSH32 0x8C379A000000000000000000000000000000000000000000000000000000000 DUP2 MSTORE PUSH1 0x4 ADD PUSH2 0x11AB SWAP1 PUSH2 0x1E1E JUMP JUMPDEST PUSH1 0x40 MLOAD DUP1 SWAP2 SUB SWAP1 REVERT JUMPDEST DUP2 PUSH2 0x11BD PUSH2 0x9FD JUMP JUMPDEST LT ISZERO PUSH2 0x11FE JUMPI PUSH1 0x40 MLOAD PUSH32 0x8C379A000000000000000000000000000000000000000000000000000000000 DUP2 MSTORE PUSH1 0x4 ADD PUSH2 0x11F5 SWAP1 PUSH2 0x1E3E JUMP JUMPDEST PUSH1 0x40 MLOAD DUP1 SWAP2 SUB SWAP1 REVERT JUMPDEST CALLER PUSH20 0xFFFFFFFFFFFFFFFFFFFFFFFFFFFFFFFFFFFFFFFF AND PUSH2 0x8FC DUP3 CALLVALUE SUB SWAP1 DUP2 ISZERO MUL SWAP1 PUSH1 0x40 MLOAD PUSH1 0x0 PUSH1 0x40 MLOAD DUP1 DUP4 SUB DUP2 DUP6 DUP9 DUP9 CALL SWAP4 POP POP POP POP ISZERO DUP1 ISZERO PUSH2 0x1246 JUMPI RETURNDATASIZE PUSH1 0x0 DUP1 RETURNDATACOPY RETURNDATASIZE PUSH1 0x0 REVERT JUMPDEST POP PUSH1 0x0 DUP1 SLOAD SWAP1 PUSH2 0x100 EXP SWAP1 DIV PUSH20 0xFFFFFFFFFFFFFFFFFFFFFFFFFFFFFFFFFFFFFFFF AND PUSH20 0xFFFFFFFFFFFFFFFFFFFFFFFFFFFFFFFFFFFFFFFF AND PUSH4 0xA9059CBB CALLER DUP5 PUSH1 0x40 MLOAD DUP4 PUSH4 0xFFFFFFFF AND PUSH1 0xE0 SHL DUP2 MSTORE PUSH1 0x4 ADD PUSH2 0x12A2 SWAP3 SWAP2 SWAP1 PUSH2 0x1CE3 JUMP JUMPDEST PUSH1 0x20 PUSH1 0x40 MLOAD DUP1 DUP4 SUB DUP2 PUSH1 0x0 DUP8 DUP1 EXTCODESIZE ISZERO DUP1 ISZERO PUSH2 0x12BC JUMPI PUSH1 0x0 DUP1 REVERT JUMPDEST POP GAS CALL ISZERO DUP1 ISZERO PUSH2 0x12D0 JUMPI RETURNDATASIZE PUSH1 0x0 DUP1 RETURNDATACOPY RETURNDATASIZE PUSH1 0x0 REVERT JUMPDEST POP POP POP POP PUSH1 0x40 MLOAD RETURNDATASIZE PUSH1 0x1F NOT PUSH1 0x1F DUP3 ADD AND DUP3 ADD DUP1 PUSH1 0x40 MSTORE POP DUP2 ADD SWAP1 PUSH2 0x12F4 SWAP2 SWAP1 PUSH2 0x1552 JUMP JUMPDEST POP DUP2 PUSH1 0x2 PUSH1 0x0 CALLER PUSH20 0xFFFFFFFFFFFFFFFFFFFFFFFFFFFFFFFFFFFFFFFF AND PUSH20 0xFFFFFFFFFFFFFFFFFFFFFFFFFFFFFFFFFFFFFFFF AND DUP2 MSTORE PUSH1 0x20 ADD SWAP1 DUP2 MSTORE PUSH1 0x20 ADD PUSH1 0x0 KECCAK256 PUSH1 0x0 ADD PUSH1 0x0 DUP3 DUP3 SLOAD ADD SWAP3 POP POP DUP2 SWAP1 SSTORE POP POP POP JUMP JUMPDEST PUSH1 0x0 PUSH8 0xDE0B6B3A7640000 DUP3 MUL SWAP1 POP SWAP2 SWAP1 POP JUMP JUMPDEST DUP3 DUP1 SLOAD PUSH1 0x1 DUP2 PUSH1 0x1 AND ISZERO PUSH2 0x100 MUL SUB AND PUSH1 0x2 SWAP1 DIV SWAP1 PUSH1 0x0 MSTORE PUSH1 0x20 PUSH1 0x0 KECCAK256 SWAP1 PUSH1 0x1F ADD PUSH1 0x20 SWAP1 DIV DUP2 ADD SWAP3 DUP3 PUSH1 0x1F LT PUSH2 0x1396 JUMPI DUP1 SLOAD DUP6 SSTORE PUSH2 0x13D3 JUMP JUMPDEST DUP3 DUP1 ADD PUSH1 0x1 ADD DUP6 SSTORE DUP3 ISZERO PUSH2 0x13D3 JUMPI PUSH1 0x0 MSTORE PUSH1 0x20 PUSH1 0x0 KECCAK256 SWAP2 PUSH1 0x1F ADD PUSH1 0x20 SWAP1 DIV DUP3 ADD JUMPDEST DUP3 DUP2 GT ISZERO PUSH2 0x13D2 JUMPI DUP3 SLOAD DUP3 SSTORE SWAP2 PUSH1 0x1 ADD SWAP2 SWAP1 PUSH1 0x1 ADD SWAP1 PUSH2 0x13B7 JUMP JUMPDEST JUMPDEST POP SWAP1 POP PUSH2 0x13E0 SWAP2 SWAP1 PUSH2 0x1464 JUMP JUMPDEST POP SWAP1 JUMP JUMPDEST DUP3 DUP1 SLOAD PUSH1 0x1 DUP2 PUSH1 0x1 AND ISZERO PUSH2 0x100 MUL SUB AND PUSH1 0x2 SWAP1 DIV SWAP1 PUSH1 0x0 MSTORE PUSH1 0x20 PUSH1 0x0 KECCAK256 SWAP1 PUSH1 0x1F ADD PUSH1 0x20 SWAP1 DIV DUP2 ADD SWAP3 DUP3 PUSH1 0x1F LT PUSH2 0x1425 JUMPI DUP1 MLOAD PUSH1 0xFF NOT AND DUP4 DUP1 ADD OR DUP6 SSTORE PUSH2 0x1453 JUMP JUMPDEST DUP3 DUP1 ADD PUSH1 0x1 ADD DUP6 SSTORE DUP3 ISZERO PUSH2 0x1453 JUMPI SWAP2 DUP3 ADD JUMPDEST DUP3 DUP2 GT ISZERO PUSH2 0x1452 JUMPI DUP3 MLOAD DUP3 SSTORE SWAP2 PUSH1 0x20 ADD SWAP2 SWAP1 PUSH1 0x1 ADD SWAP1 PUSH2 0x1437 JUMP JUMPDEST JUMPDEST POP SWAP1 POP PUSH2 0x1460 SWAP2 SWAP1 PUSH2 0x1464 JUMP JUMPDEST POP SWAP1 JUMP JUMPDEST JUMPDEST DUP1 DUP3 GT ISZERO PUSH2 0x147D JUMPI PUSH1 0x0 DUP2 PUSH1 0x0 SWAP1 SSTORE POP PUSH1 0x1 ADD PUSH2 0x1465 JUMP JUMPDEST POP SWAP1 JUMP JUMPDEST PUSH1 0x0 DUP2 CALLDATALOAD SWAP1 POP PUSH2 0x1490 DUP2 PUSH2 0x2091 JUMP JUMPDEST SWAP3 SWAP2 POP POP JUMP JUMPDEST PUSH1 0x0 DUP2 MLOAD SWAP1 POP PUSH2 0x14A5 DUP2 PUSH2 0x20A8 JUMP JUMPDEST SWAP3 SWAP2 POP POP JUMP JUMPDEST PUSH1 0x0 DUP3 PUSH1 0x1F DUP4 ADD SLT PUSH2 0x14BC JUMPI PUSH1 0x0 DUP1 REVERT JUMPDEST DUP2 CALLDATALOAD PUSH2 0x14CF PUSH2 0x14CA DUP3 PUSH2 0x1F46 JUMP JUMPDEST PUSH2 0x1F19 JUMP JUMPDEST SWAP2 POP DUP1 DUP3 MSTORE PUSH1 0x20 DUP4 ADD PUSH1 0x20 DUP4 ADD DUP6 DUP4 DUP4 ADD GT ISZERO PUSH2 0x14EB JUMPI PUSH1 0x0 DUP1 REVERT JUMPDEST PUSH2 0x14F6 DUP4 DUP3 DUP5 PUSH2 0x203E JUMP JUMPDEST POP POP POP SWAP3 SWAP2 POP POP JUMP JUMPDEST PUSH1 0x0 DUP2 CALLDATALOAD SWAP1 POP PUSH2 0x150E DUP2 PUSH2 0x20BF JUMP JUMPDEST SWAP3 SWAP2 POP POP JUMP JUMPDEST PUSH1 0x0 DUP2 MLOAD SWAP1 POP PUSH2 0x1523 DUP2 PUSH2 0x20BF JUMP JUMPDEST SWAP3 SWAP2 POP POP JUMP JUMPDEST PUSH1 0x0 PUSH1 0x20 DUP3 DUP5 SUB SLT ISZERO PUSH2 0x153B JUMPI PUSH1 0x0 DUP1 REVERT JUMPDEST PUSH1 0x0 PUSH2 0x1549 DUP5 DUP3 DUP6 ADD PUSH2 0x1481 JUMP JUMPDEST SWAP2 POP POP SWAP3 SWAP2 POP POP JUMP JUMPDEST PUSH1 0x0 PUSH1 0x20 DUP3 DUP5 SUB SLT ISZERO PUSH2 0x1564 JUMPI PUSH1 0x0 DUP1 REVERT JUMPDEST PUSH1 0x0 PUSH2 0x1572 DUP5 DUP3 DUP6 ADD PUSH2 0x1496 JUMP JUMPDEST SWAP2 POP POP SWAP3 SWAP2 POP POP JUMP JUMPDEST PUSH1 0x0 PUSH1 0x20 DUP3 DUP5 SUB SLT ISZERO PUSH2 0x158D JUMPI PUSH1 0x0 DUP1 REVERT JUMPDEST PUSH1 0x0 DUP3 ADD CALLDATALOAD PUSH8 0xFFFFFFFFFFFFFFFF DUP2 GT ISZERO PUSH2 0x15A7 JUMPI PUSH1 0x0 DUP1 REVERT JUMPDEST PUSH2 0x15B3 DUP5 DUP3 DUP6 ADD PUSH2 0x14AB JUMP JUMPDEST SWAP2 POP POP SWAP3 SWAP2 POP POP JUMP JUMPDEST PUSH1 0x0 DUP1 PUSH1 0x40 DUP4 DUP6 SUB SLT ISZERO PUSH2 0x15CF JUMPI PUSH1 0x0 DUP1 REVERT JUMPDEST PUSH1 0x0 DUP4 ADD CALLDATALOAD PUSH8 0xFFFFFFFFFFFFFFFF DUP2 GT ISZERO PUSH2 0x15E9 JUMPI PUSH1 0x0 DUP1 REVERT JUMPDEST PUSH2 0x15F5 DUP6 DUP3 DUP7 ADD PUSH2 0x14AB JUMP JUMPDEST SWAP3 POP POP PUSH1 0x20 PUSH2 0x1606 DUP6 DUP3 DUP7 ADD PUSH2 0x14FF JUMP JUMPDEST SWAP2 POP POP SWAP3 POP SWAP3 SWAP1 POP JUMP JUMPDEST PUSH1 0x0 PUSH1 0x20 DUP3 DUP5 SUB SLT ISZERO PUSH2 0x1622 JUMPI PUSH1 0x0 DUP1 REVERT JUMPDEST PUSH1 0x0 PUSH2 0x1630 DUP5 DUP3 DUP6 ADD PUSH2 0x14FF JUMP JUMPDEST SWAP2 POP POP SWAP3 SWAP2 POP POP JUMP JUMPDEST PUSH1 0x0 PUSH1 0x20 DUP3 DUP5 SUB SLT ISZERO PUSH2 0x164B JUMPI PUSH1 0x0 DUP1 REVERT JUMPDEST PUSH1 0x0 PUSH2 0x1659 DUP5 DUP3 DUP6 ADD PUSH2 0x1514 JUMP JUMPDEST SWAP2 POP POP SWAP3 SWAP2 POP POP JUMP JUMPDEST PUSH2 0x166B DUP2 PUSH2 0x2008 JUMP JUMPDEST DUP3 MSTORE POP POP JUMP JUMPDEST PUSH2 0x167A DUP2 PUSH2 0x1FC0 JUMP JUMPDEST DUP3 MSTORE POP POP JUMP JUMPDEST PUSH2 0x1689 DUP2 PUSH2 0x1FAE JUMP JUMPDEST DUP3 MSTORE POP POP JUMP JUMPDEST PUSH2 0x1698 DUP2 PUSH2 0x1FD2 JUMP JUMPDEST DUP3 MSTORE POP POP JUMP JUMPDEST PUSH1 0x0 PUSH2 0x16A9 DUP3 PUSH2 0x1F87 JUMP JUMPDEST PUSH2 0x16B3 DUP2 DUP6 PUSH2 0x1F92 JUMP JUMPDEST SWAP4 POP PUSH2 0x16C3 DUP2 DUP6 PUSH1 0x20 DUP7 ADD PUSH2 0x204D JUMP JUMPDEST PUSH2 0x16CC DUP2 PUSH2 0x2080 JUMP JUMPDEST DUP5 ADD SWAP2 POP POP SWAP3 SWAP2 POP POP JUMP JUMPDEST PUSH1 0x0 PUSH2 0x16E2 DUP3 PUSH2 0x1F87 JUMP JUMPDEST PUSH2 0x16EC DUP2 DUP6 PUSH2 0x1FA3 JUMP JUMPDEST SWAP4 POP PUSH2 0x16FC DUP2 DUP6 PUSH1 0x20 DUP7 ADD PUSH2 0x204D JUMP JUMPDEST DUP1 DUP5 ADD SWAP2 POP POP SWAP3 SWAP2 POP POP JUMP JUMPDEST PUSH1 0x0 DUP2 SLOAD PUSH1 0x1 DUP2 AND PUSH1 0x0 DUP2 EQ PUSH2 0x1725 JUMPI PUSH1 0x1 DUP2 EQ PUSH2 0x174B JUMPI PUSH2 0x178F JUMP JUMPDEST PUSH1 0x7F PUSH1 0x2 DUP4 DIV AND PUSH2 0x1736 DUP2 DUP8 PUSH2 0x1F92 JUMP JUMPDEST SWAP6 POP PUSH1 0xFF NOT DUP4 AND DUP7 MSTORE PUSH1 0x20 DUP7 ADD SWAP4 POP POP PUSH2 0x178F JUMP JUMPDEST PUSH1 0x2 DUP3 DIV PUSH2 0x1759 DUP2 DUP8 PUSH2 0x1F92 JUMP JUMPDEST SWAP6 POP PUSH2 0x1764 DUP6 PUSH2 0x1F72 JUMP JUMPDEST PUSH1 0x0 JUMPDEST DUP3 DUP2 LT ISZERO PUSH2 0x1786 JUMPI DUP2 SLOAD DUP2 DUP10 ADD MSTORE PUSH1 0x1 DUP3 ADD SWAP2 POP PUSH1 0x20 DUP2 ADD SWAP1 POP PUSH2 0x1767 JUMP JUMPDEST DUP1 DUP9 ADD SWAP6 POP POP POP POP JUMPDEST POP POP SWAP3 SWAP2 POP POP JUMP JUMPDEST PUSH1 0x0 DUP2 SLOAD PUSH1 0x1 DUP2 AND PUSH1 0x0 DUP2 EQ PUSH2 0x17B4 JUMPI PUSH1 0x1 DUP2 EQ PUSH2 0x17D9 JUMPI PUSH2 0x181D JUMP JUMPDEST PUSH1 0x7F PUSH1 0x2 DUP4 DIV AND PUSH2 0x17C5 DUP2 DUP8 PUSH2 0x1FA3 JUMP JUMPDEST SWAP6 POP PUSH1 0xFF NOT DUP4 AND DUP7 MSTORE DUP1 DUP7 ADD SWAP4 POP POP PUSH2 0x181D JUMP JUMPDEST PUSH1 0x2 DUP3 DIV PUSH2 0x17E7 DUP2 DUP8 PUSH2 0x1FA3 JUMP JUMPDEST SWAP6 POP PUSH2 0x17F2 DUP6 PUSH2 0x1F72 JUMP JUMPDEST PUSH1 0x0 JUMPDEST DUP3 DUP2 LT ISZERO PUSH2 0x1814 JUMPI DUP2 SLOAD DUP2 DUP10 ADD MSTORE PUSH1 0x1 DUP3 ADD SWAP2 POP PUSH1 0x20 DUP2 ADD SWAP1 POP PUSH2 0x17F5 JUMP JUMPDEST DUP3 DUP9 ADD SWAP6 POP POP POP POP JUMPDEST POP POP SWAP3 SWAP2 POP POP JUMP JUMPDEST PUSH1 0x0 PUSH2 0x1832 PUSH1 0x23 DUP4 PUSH2 0x1F92 JUMP JUMPDEST SWAP2 POP PUSH32 0x4C6120617472616363696F6E20656E20637565737469C3B36E206E6F20657869 PUSH1 0x0 DUP4 ADD MSTORE PUSH32 0x7374650000000000000000000000000000000000000000000000000000000000 PUSH1 0x20 DUP4 ADD MSTORE PUSH1 0x40 DUP3 ADD SWAP1 POP SWAP2 SWAP1 POP JUMP JUMPDEST PUSH1 0x0 PUSH2 0x1898 PUSH1 0x3 DUP4 PUSH2 0x1FA3 JUMP JUMPDEST SWAP2 POP PUSH32 0x207C200000000000000000000000000000000000000000000000000000000000 PUSH1 0x0 DUP4 ADD MSTORE PUSH1 0x3 DUP3 ADD SWAP1 POP SWAP2 SWAP1 POP JUMP JUMPDEST PUSH1 0x0 PUSH2 0x18D8 PUSH1 0x14 DUP4 PUSH2 0x1F92 JUMP JUMPDEST SWAP2 POP PUSH32 0x546F6B656E7320696E737566696369656E746573000000000000000000000000 PUSH1 0x0 DUP4 ADD MSTORE PUSH1 0x20 DUP3 ADD SWAP1 POP SWAP2 SWAP1 POP JUMP JUMPDEST PUSH1 0x0 PUSH2 0x1918 PUSH1 0x33 DUP4 PUSH2 0x1F92 JUMP JUMPDEST SWAP2 POP PUSH32 0x4C6120617472616363696F6E20656E206375657374696F6E206E6F2073652065 PUSH1 0x0 DUP4 ADD MSTORE PUSH32 0x6E6375656E74726120646973706F6E69626C6500000000000000000000000000 PUSH1 0x20 DUP4 ADD MSTORE PUSH1 0x40 DUP3 ADD SWAP1 POP SWAP2 SWAP1 POP JUMP JUMPDEST PUSH1 0x0 PUSH2 0x197E PUSH1 0x1E DUP4 PUSH2 0x1F92 JUMP JUMPDEST SWAP2 POP PUSH32 0x43616E746964616420646520657468657220696E737566696369656E74650000 PUSH1 0x0 DUP4 ADD MSTORE PUSH1 0x20 DUP3 ADD SWAP1 POP SWAP2 SWAP1 POP JUMP JUMPDEST PUSH1 0x0 PUSH2 0x19BE PUSH1 0x20 DUP4 PUSH2 0x1F92 JUMP JUMPDEST SWAP2 POP PUSH32 0x43616E746964616420646520746F6B656E7320696E737566696369656E746573 PUSH1 0x0 DUP4 ADD MSTORE PUSH1 0x20 DUP3 ADD SWAP1 POP SWAP2 SWAP1 POP JUMP JUMPDEST PUSH1 0x0 PUSH2 0x19FE PUSH1 0x3B DUP4 PUSH2 0x1F92 JUMP JUMPDEST SWAP2 POP PUSH32 0x4E6F207365207075656465206461722064652062616A61206120756E61206174 PUSH1 0x0 DUP4 ADD MSTORE PUSH32 0x72616363696F6E2071756520796120657374612064652062616A610000000000 PUSH1 0x20 DUP4 ADD MSTORE PUSH1 0x40 DUP3 ADD SWAP1 POP SWAP2 SWAP1 POP JUMP JUMPDEST PUSH1 0x0 PUSH2 0x1A64 PUSH1 0x40 DUP4 PUSH2 0x1F92 JUMP JUMPDEST SWAP2 POP PUSH32 0x4E6F2073652070756564652064617220646520616C7461206120756E61206174 PUSH1 0x0 DUP4 ADD MSTORE PUSH32 0x72616363696F6E207175652079612065737461206461646120646520616C7461 PUSH1 0x20 DUP4 ADD MSTORE PUSH1 0x40 DUP3 ADD SWAP1 POP SWAP2 SWAP1 POP JUMP JUMPDEST PUSH1 0x0 PUSH2 0x1ACA PUSH1 0x2C DUP4 PUSH2 0x1F92 JUMP JUMPDEST SWAP2 POP PUSH32 0x4E6F207469656E6573207065726D69736F207061726120656A65637574617220 PUSH1 0x0 DUP4 ADD MSTORE PUSH32 0x657374612061636369C3B36E0000000000000000000000000000000000000000 PUSH1 0x20 DUP4 ADD MSTORE PUSH1 0x40 DUP3 ADD SWAP1 POP SWAP2 SWAP1 POP JUMP JUMPDEST PUSH1 0x0 PUSH2 0x1B30 PUSH1 0x35 DUP4 PUSH2 0x1F92 JUMP JUMPDEST SWAP2 POP PUSH32 0x4E6F207365207075656465206461722064652062616A61206120756E61206174 PUSH1 0x0 DUP4 ADD MSTORE PUSH32 0x72616363696F6E20717565206E6F206578697374610000000000000000000000 PUSH1 0x20 DUP4 ADD MSTORE PUSH1 0x40 DUP3 ADD SWAP1 POP SWAP2 SWAP1 POP JUMP JUMPDEST PUSH1 0x0 PUSH2 0x1B96 PUSH1 0x35 DUP4 PUSH2 0x1F92 JUMP JUMPDEST SWAP2 POP PUSH32 0x4E6F2073652070756564652064617220646520616C7461206120756E61206174 PUSH1 0x0 DUP4 ADD MSTORE PUSH32 0x72616363696F6E20717565206E6F206578697374610000000000000000000000 PUSH1 0x20 DUP4 ADD MSTORE PUSH1 0x40 DUP3 ADD SWAP1 POP SWAP2 SWAP1 POP JUMP JUMPDEST PUSH2 0x1BF8 DUP2 PUSH2 0x1FFE JUMP JUMPDEST DUP3 MSTORE POP POP JUMP JUMPDEST PUSH1 0x0 PUSH2 0x1C0A DUP3 DUP5 PUSH2 0x16D7 JUMP JUMPDEST SWAP2 POP DUP2 SWAP1 POP SWAP3 SWAP2 POP POP JUMP JUMPDEST PUSH1 0x0 PUSH2 0x1C21 DUP3 DUP6 PUSH2 0x16D7 JUMP JUMPDEST SWAP2 POP PUSH2 0x1C2C DUP3 PUSH2 0x188B JUMP JUMPDEST SWAP2 POP PUSH2 0x1C38 DUP3 DUP5 PUSH2 0x1797 JUMP JUMPDEST SWAP2 POP DUP2 SWAP1 POP SWAP4 SWAP3 POP POP POP JUMP JUMPDEST PUSH1 0x0 PUSH2 0x1C50 DUP3 DUP5 PUSH2 0x1797 JUMP JUMPDEST SWAP2 POP DUP2 SWAP1 POP SWAP3 SWAP2 POP POP JUMP JUMPDEST PUSH1 0x0 PUSH1 0x20 DUP3 ADD SWAP1 POP PUSH2 0x1C70 PUSH1 0x0 DUP4 ADD DUP5 PUSH2 0x1680 JUMP JUMPDEST SWAP3 SWAP2 POP POP JUMP JUMPDEST PUSH1 0x0 PUSH1 0x20 DUP3 ADD SWAP1 POP PUSH2 0x1C8B PUSH1 0x0 DUP4 ADD DUP5 PUSH2 0x1662 JUMP JUMPDEST SWAP3 SWAP2 POP POP JUMP JUMPDEST PUSH1 0x0 PUSH1 0x20 DUP3 ADD SWAP1 POP PUSH2 0x1CA6 PUSH1 0x0 DUP4 ADD DUP5 PUSH2 0x1671 JUMP JUMPDEST SWAP3 SWAP2 POP POP JUMP JUMPDEST PUSH1 0x0 PUSH1 0x60 DUP3 ADD SWAP1 POP PUSH2 0x1CC1 PUSH1 0x0 DUP4 ADD DUP7 PUSH2 0x1662 JUMP JUMPDEST PUSH2 0x1CCE PUSH1 0x20 DUP4 ADD DUP6 PUSH2 0x1680 JUMP JUMPDEST PUSH2 0x1CDB PUSH1 0x40 DUP4 ADD DUP5 PUSH2 0x1BEF JUMP JUMPDEST SWAP5 SWAP4 POP POP POP POP JUMP JUMPDEST PUSH1 0x0 PUSH1 0x40 DUP3 ADD SWAP1 POP PUSH2 0x1CF8 PUSH1 0x0 DUP4 ADD DUP6 PUSH2 0x1662 JUMP JUMPDEST PUSH2 0x1D05 PUSH1 0x20 DUP4 ADD DUP5 PUSH2 0x1BEF JUMP JUMPDEST SWAP4 SWAP3 POP POP POP JUMP JUMPDEST PUSH1 0x0 PUSH1 0x20 DUP3 ADD SWAP1 POP DUP2 DUP2 SUB PUSH1 0x0 DUP4 ADD MSTORE PUSH2 0x1D26 DUP2 DUP5 PUSH2 0x169E JUMP JUMPDEST SWAP1 POP SWAP3 SWAP2 POP POP JUMP JUMPDEST PUSH1 0x0 PUSH1 0x40 DUP3 ADD SWAP1 POP DUP2 DUP2 SUB PUSH1 0x0 DUP4 ADD MSTORE PUSH2 0x1D48 DUP2 DUP6 PUSH2 0x169E JUMP JUMPDEST SWAP1 POP PUSH2 0x1D57 PUSH1 0x20 DUP4 ADD DUP5 PUSH2 0x1BEF JUMP JUMPDEST SWAP4 SWAP3 POP POP POP JUMP JUMPDEST PUSH1 0x0 PUSH1 0x60 DUP3 ADD SWAP1 POP DUP2 DUP2 SUB PUSH1 0x0 DUP4 ADD MSTORE PUSH2 0x1D78 DUP2 DUP7 PUSH2 0x169E JUMP JUMPDEST SWAP1 POP PUSH2 0x1D87 PUSH1 0x20 DUP4 ADD DUP6 PUSH2 0x1BEF JUMP JUMPDEST PUSH2 0x1D94 PUSH1 0x40 DUP4 ADD DUP5 PUSH2 0x168F JUMP JUMPDEST SWAP5 SWAP4 POP POP POP POP JUMP JUMPDEST PUSH1 0x0 PUSH1 0x20 DUP3 ADD SWAP1 POP DUP2 DUP2 SUB PUSH1 0x0 DUP4 ADD MSTORE PUSH2 0x1DB6 DUP2 DUP5 PUSH2 0x1708 JUMP JUMPDEST SWAP1 POP SWAP3 SWAP2 POP POP JUMP JUMPDEST PUSH1 0x0 PUSH1 0x20 DUP3 ADD SWAP1 POP DUP2 DUP2 SUB PUSH1 0x0 DUP4 ADD MSTORE PUSH2 0x1DD7 DUP2 PUSH2 0x1825 JUMP JUMPDEST SWAP1 POP SWAP2 SWAP1 POP JUMP JUMPDEST PUSH1 0x0 PUSH1 0x20 DUP3 ADD SWAP1 POP DUP2 DUP2 SUB PUSH1 0x0 DUP4 ADD MSTORE PUSH2 0x1DF7 DUP2 PUSH2 0x18CB JUMP JUMPDEST SWAP1 POP SWAP2 SWAP1 POP JUMP JUMPDEST PUSH1 0x0 PUSH1 0x20 DUP3 ADD SWAP1 POP DUP2 DUP2 SUB PUSH1 0x0 DUP4 ADD MSTORE PUSH2 0x1E17 DUP2 PUSH2 0x190B JUMP JUMPDEST SWAP1 POP SWAP2 SWAP1 POP JUMP JUMPDEST PUSH1 0x0 PUSH1 0x20 DUP3 ADD SWAP1 POP DUP2 DUP2 SUB PUSH1 0x0 DUP4 ADD MSTORE PUSH2 0x1E37 DUP2 PUSH2 0x1971 JUMP JUMPDEST SWAP1 POP SWAP2 SWAP1 POP JUMP JUMPDEST PUSH1 0x0 PUSH1 0x20 DUP3 ADD SWAP1 POP DUP2 DUP2 SUB PUSH1 0x0 DUP4 ADD MSTORE PUSH2 0x1E57 DUP2 PUSH2 0x19B1 JUMP JUMPDEST SWAP1 POP SWAP2 SWAP1 POP JUMP JUMPDEST PUSH1 0x0 PUSH1 0x20 DUP3 ADD SWAP1 POP DUP2 DUP2 SUB PUSH1 0x0 DUP4 ADD MSTORE PUSH2 0x1E77 DUP2 PUSH2 0x19F1 JUMP JUMPDEST SWAP1 POP SWAP2 SWAP1 POP JUMP JUMPDEST PUSH1 0x0 PUSH1 0x20 DUP3 ADD SWAP1 POP DUP2 DUP2 SUB PUSH1 0x0 DUP4 ADD MSTORE PUSH2 0x1E97 DUP2 PUSH2 0x1A57 JUMP JUMPDEST SWAP1 POP SWAP2 SWAP1 POP JUMP JUMPDEST PUSH1 0x0 PUSH1 0x20 DUP3 ADD SWAP1 POP DUP2 DUP2 SUB PUSH1 0x0 DUP4 ADD MSTORE PUSH2 0x1EB7 DUP2 PUSH2 0x1ABD JUMP JUMPDEST SWAP1 POP SWAP2 SWAP1 POP JUMP JUMPDEST PUSH1 0x0 PUSH1 0x20 DUP3 ADD SWAP1 POP DUP2 DUP2 SUB PUSH1 0x0 DUP4 ADD MSTORE PUSH2 0x1ED7 DUP2 PUSH2 0x1B23 JUMP JUMPDEST SWAP1 POP SWAP2 SWAP1 POP JUMP JUMPDEST PUSH1 0x0 PUSH1 0x20 DUP3 ADD SWAP1 POP DUP2 DUP2 SUB PUSH1 0x0 DUP4 ADD MSTORE PUSH2 0x1EF7 DUP2 PUSH2 0x1B89 JUMP JUMPDEST SWAP1 POP SWAP2 SWAP1 POP JUMP JUMPDEST PUSH1 0x0 PUSH1 0x20 DUP3 ADD SWAP1 POP PUSH2 0x1F13 PUSH1 0x0 DUP4 ADD DUP5 PUSH2 0x1BEF JUMP JUMPDEST SWAP3 SWAP2 POP POP JUMP JUMPDEST PUSH1 0x0 PUSH1 0x40 MLOAD SWAP1 POP DUP2 DUP2 ADD DUP2 DUP2 LT PUSH8 0xFFFFFFFFFFFFFFFF DUP3 GT OR ISZERO PUSH2 0x1F3C JUMPI PUSH1 0x0 DUP1 REVERT JUMPDEST DUP1 PUSH1 0x40 MSTORE POP SWAP2 SWAP1 POP JUMP JUMPDEST PUSH1 0x0 PUSH8 0xFFFFFFFFFFFFFFFF DUP3 GT ISZERO PUSH2 0x1F5D JUMPI PUSH1 0x0 DUP1 REVERT JUMPDEST PUSH1 0x1F NOT PUSH1 0x1F DUP4 ADD AND SWAP1 POP PUSH1 0x20 DUP2 ADD SWAP1 POP SWAP2 SWAP1 POP JUMP JUMPDEST PUSH1 0x0 DUP2 SWAP1 POP DUP2 PUSH1 0x0 MSTORE PUSH1 0x20 PUSH1 0x0 KECCAK256 SWAP1 POP SWAP2 SWAP1 POP JUMP JUMPDEST PUSH1 0x0 DUP2 MLOAD SWAP1 POP SWAP2 SWAP1 POP JUMP JUMPDEST PUSH1 0x0 DUP3 DUP3 MSTORE PUSH1 0x20 DUP3 ADD SWAP1 POP SWAP3 SWAP2 POP POP JUMP JUMPDEST PUSH1 0x0 DUP2 SWAP1 POP SWAP3 SWAP2 POP POP JUMP JUMPDEST PUSH1 0x0 PUSH2 0x1FB9 DUP3 PUSH2 0x1FDE JUMP JUMPDEST SWAP1 POP SWAP2 SWAP1 POP JUMP JUMPDEST PUSH1 0x0 PUSH2 0x1FCB DUP3 PUSH2 0x1FDE JUMP JUMPDEST SWAP1 POP SWAP2 SWAP1 POP JUMP JUMPDEST PUSH1 0x0 DUP2 ISZERO ISZERO SWAP1 POP SWAP2 SWAP1 POP JUMP JUMPDEST PUSH1 0x0 PUSH20 0xFFFFFFFFFFFFFFFFFFFFFFFFFFFFFFFFFFFFFFFF DUP3 AND SWAP1 POP SWAP2 SWAP1 POP JUMP JUMPDEST PUSH1 0x0 DUP2 SWAP1 POP SWAP2 SWAP1 POP JUMP JUMPDEST PUSH1 0x0 PUSH2 0x2013 DUP3 PUSH2 0x201A JUMP JUMPDEST SWAP1 POP SWAP2 SWAP1 POP JUMP JUMPDEST PUSH1 0x0 PUSH2 0x2025 DUP3 PUSH2 0x202C JUMP JUMPDEST SWAP1 POP SWAP2 SWAP1 POP JUMP JUMPDEST PUSH1 0x0 PUSH2 0x2037 DUP3 PUSH2 0x1FDE JUMP JUMPDEST SWAP1 POP SWAP2 SWAP1 POP JUMP JUMPDEST DUP3 DUP2 DUP4 CALLDATACOPY PUSH1 0x0 DUP4 DUP4 ADD MSTORE POP POP POP JUMP JUMPDEST PUSH1 0x0 JUMPDEST DUP4 DUP2 LT ISZERO PUSH2 0x206B JUMPI DUP1 DUP3 ADD MLOAD DUP2 DUP5 ADD MSTORE PUSH1 0x20 DUP2 ADD SWAP1 POP PUSH2 0x2050 JUMP JUMPDEST DUP4 DUP2 GT ISZERO PUSH2 0x207A JUMPI PUSH1 0x0 DUP5 DUP5 ADD MSTORE JUMPDEST POP POP POP POP JUMP JUMPDEST PUSH1 0x0 PUSH1 0x1F NOT PUSH1 0x1F DUP4 ADD AND SWAP1 POP SWAP2 SWAP1 POP JUMP JUMPDEST PUSH2 0x209A DUP2 PUSH2 0x1FAE JUMP JUMPDEST DUP2 EQ PUSH2 0x20A5 JUMPI PUSH1 0x0 DUP1 REVERT JUMPDEST POP JUMP JUMPDEST PUSH2 0x20B1 DUP2 PUSH2 0x1FD2 JUMP JUMPDEST DUP2 EQ PUSH2 0x20BC JUMPI PUSH1 0x0 DUP1 REVERT JUMPDEST POP JUMP JUMPDEST PUSH2 0x20C8 DUP2 PUSH2 0x1FFE JUMP JUMPDEST DUP2 EQ PUSH2 0x20D3 JUMPI PUSH1 0x0 DUP1 REVERT JUMPDEST POP JUMP INVALID LOG2 PUSH5 0x6970667358 0x22 SLT KECCAK256 0xEF GASLIMIT 0xB5 0xBD 0xB7 PUSH18 0x600354731369CC1D1857FE587C4BBDCDECFD MSTORE8 CALL DUP3 SWAP9 MOD 0xB7 0xE3 LOG1 PUSH5 0x736F6C6343 STOP MOD 0xC STOP CALLER PUSH1 0x80 PUSH1 0x40 MSTORE CALLVALUE DUP1 ISZERO PUSH2 0x10 JUMPI PUSH1 0x0 DUP1 REVERT JUMPDEST POP PUSH1 0x40 MLOAD PUSH2 0x109D CODESIZE SUB DUP1 PUSH2 0x109D DUP4 CODECOPY DUP2 DUP2 ADD PUSH1 0x40 MSTORE DUP2 ADD SWAP1 PUSH2 0x32 SWAP2 SWAP1 PUSH2 0x99 JUMP JUMPDEST DUP1 PUSH1 0x2 DUP2 SWAP1 SSTORE POP PUSH1 0x2 SLOAD PUSH1 0x0 DUP1 CALLER PUSH20 0xFFFFFFFFFFFFFFFFFFFFFFFFFFFFFFFFFFFFFFFF AND PUSH20 0xFFFFFFFFFFFFFFFFFFFFFFFFFFFFFFFFFFFFFFFF AND DUP2 MSTORE PUSH1 0x20 ADD SWAP1 DUP2 MSTORE PUSH1 0x20 ADD PUSH1 0x0 KECCAK256 DUP2 SWAP1 SSTORE POP POP PUSH2 0xE3 JUMP JUMPDEST PUSH1 0x0 DUP2 MLOAD SWAP1 POP PUSH2 0x93 DUP2 PUSH2 0xCC JUMP JUMPDEST SWAP3 SWAP2 POP POP JUMP JUMPDEST PUSH1 0x0 PUSH1 0x20 DUP3 DUP5 SUB SLT ISZERO PUSH2 0xAB JUMPI PUSH1 0x0 DUP1 REVERT JUMPDEST PUSH1 0x0 PUSH2 0xB9 DUP5 DUP3 DUP6 ADD PUSH2 0x84 JUMP JUMPDEST SWAP2 POP POP SWAP3 SWAP2 POP POP JUMP JUMPDEST PUSH1 0x0 DUP2 SWAP1 POP SWAP2 SWAP1 POP JUMP JUMPDEST PUSH2 0xD5 DUP2 PUSH2 0xC2 JUMP JUMPDEST DUP2 EQ PUSH2 0xE0 JUMPI PUSH1 0x0 DUP1 REVERT JUMPDEST POP JUMP JUMPDEST PUSH2 0xFAB DUP1 PUSH2 0xF2 PUSH1 0x0 CODECOPY PUSH1 0x0 RETURN INVALID PUSH1 0x80 PUSH1 0x40 MSTORE CALLVALUE DUP1 ISZERO PUSH2 0x10 JUMPI PUSH1 0x0 DUP1 REVERT JUMPDEST POP PUSH1 0x4 CALLDATASIZE LT PUSH2 0xA9 JUMPI PUSH1 0x0 CALLDATALOAD PUSH1 0xE0 SHR DUP1 PUSH4 0x313CE567 GT PUSH2 0x71 JUMPI DUP1 PUSH4 0x313CE567 EQ PUSH2 0x166 JUMPI DUP1 PUSH4 0x70A08231 EQ PUSH2 0x184 JUMPI DUP1 PUSH4 0x95D89B41 EQ PUSH2 0x1B4 JUMPI DUP1 PUSH4 0xA9059CBB EQ PUSH2 0x1D2 JUMPI DUP1 PUSH4 0xDD62ED3E EQ PUSH2 0x202 JUMPI DUP1 PUSH4 0xEF910460 EQ PUSH2 0x232 JUMPI PUSH2 0xA9 JUMP JUMPDEST DUP1 PUSH4 0x6FDDE03 EQ PUSH2 0xAE JUMPI DUP1 PUSH4 0x95EA7B3 EQ PUSH2 0xCC JUMPI DUP1 PUSH4 0x18160DDD EQ PUSH2 0xFC JUMPI DUP1 PUSH4 0x1D43CC98 EQ PUSH2 0x11A JUMPI DUP1 PUSH4 0x23B872DD EQ PUSH2 0x136 JUMPI JUMPDEST PUSH1 0x0 DUP1 REVERT JUMPDEST PUSH2 0xB6 PUSH2 0x262 JUMP JUMPDEST PUSH1 0x40 MLOAD PUSH2 0xC3 SWAP2 SWAP1 PUSH2 0xE3A JUMP JUMPDEST PUSH1 0x40 MLOAD DUP1 SWAP2 SUB SWAP1 RETURN JUMPDEST PUSH2 0xE6 PUSH1 0x4 DUP1 CALLDATASIZE SUB DUP2 ADD SWAP1 PUSH2 0xE1 SWAP2 SWAP1 PUSH2 0xD54 JUMP JUMPDEST PUSH2 0x29B JUMP JUMPDEST PUSH1 0x40 MLOAD PUSH2 0xF3 SWAP2 SWAP1 PUSH2 0xE1F JUMP JUMPDEST PUSH1 0x40 MLOAD DUP1 SWAP2 SUB SWAP1 RETURN JUMPDEST PUSH2 0x104 PUSH2 0x38D JUMP JUMPDEST PUSH1 0x40 MLOAD PUSH2 0x111 SWAP2 SWAP1 PUSH2 0xE5C JUMP JUMPDEST PUSH1 0x40 MLOAD DUP1 SWAP2 SUB SWAP1 RETURN JUMPDEST PUSH2 0x134 PUSH1 0x4 DUP1 CALLDATASIZE SUB DUP2 ADD SWAP1 PUSH2 0x12F SWAP2 SWAP1 PUSH2 0xD90 JUMP JUMPDEST PUSH2 0x397 JUMP JUMPDEST STOP JUMPDEST PUSH2 0x150 PUSH1 0x4 DUP1 CALLDATASIZE SUB DUP2 ADD SWAP1 PUSH2 0x14B SWAP2 SWAP1 PUSH2 0xD05 JUMP JUMPDEST PUSH2 0x3F6 JUMP JUMPDEST PUSH1 0x40 MLOAD PUSH2 0x15D SWAP2 SWAP1 PUSH2 0xE1F JUMP JUMPDEST PUSH1 0x40 MLOAD DUP1 SWAP2 SUB SWAP1 RETURN JUMPDEST PUSH2 0x16E PUSH2 0x771 JUMP JUMPDEST PUSH1 0x40 MLOAD PUSH2 0x17B SWAP2 SWAP1 PUSH2 0xE77 JUMP JUMPDEST PUSH1 0x40 MLOAD DUP1 SWAP2 SUB SWAP1 RETURN JUMPDEST PUSH2 0x19E PUSH1 0x4 DUP1 CALLDATASIZE SUB DUP2 ADD SWAP1 PUSH2 0x199 SWAP2 SWAP1 PUSH2 0xCA0 JUMP JUMPDEST PUSH2 0x776 JUMP JUMPDEST PUSH1 0x40 MLOAD PUSH2 0x1AB SWAP2 SWAP1 PUSH2 0xE5C JUMP JUMPDEST PUSH1 0x40 MLOAD DUP1 SWAP2 SUB SWAP1 RETURN JUMPDEST PUSH2 0x1BC PUSH2 0x7BE JUMP JUMPDEST PUSH1 0x40 MLOAD PUSH2 0x1C9 SWAP2 SWAP1 PUSH2 0xE3A JUMP JUMPDEST PUSH1 0x40 MLOAD DUP1 SWAP2 SUB SWAP1 RETURN JUMPDEST PUSH2 0x1EC PUSH1 0x4 DUP1 CALLDATASIZE SUB DUP2 ADD SWAP1 PUSH2 0x1E7 SWAP2 SWAP1 PUSH2 0xD54 JUMP JUMPDEST PUSH2 0x7F7 JUMP JUMPDEST PUSH1 0x40 MLOAD PUSH2 0x1F9 SWAP2 SWAP1 PUSH2 0xE1F JUMP JUMPDEST PUSH1 0x40 MLOAD DUP1 SWAP2 SUB SWAP1 RETURN JUMPDEST PUSH2 0x21C PUSH1 0x4 DUP1 CALLDATASIZE SUB DUP2 ADD SWAP1 PUSH2 0x217 SWAP2 SWAP1 PUSH2 0xCC9 JUMP JUMPDEST PUSH2 0x9D9 JUMP JUMPDEST PUSH1 0x40 MLOAD PUSH2 0x229 SWAP2 SWAP1 PUSH2 0xE5C JUMP JUMPDEST PUSH1 0x40 MLOAD DUP1 SWAP2 SUB SWAP1 RETURN JUMPDEST PUSH2 0x24C PUSH1 0x4 DUP1 CALLDATASIZE SUB DUP2 ADD SWAP1 PUSH2 0x247 SWAP2 SWAP1 PUSH2 0xD05 JUMP JUMPDEST PUSH2 0xA60 JUMP JUMPDEST PUSH1 0x40 MLOAD PUSH2 0x259 SWAP2 SWAP1 PUSH2 0xE1F JUMP JUMPDEST PUSH1 0x40 MLOAD DUP1 SWAP2 SUB SWAP1 RETURN JUMPDEST PUSH1 0x40 MLOAD DUP1 PUSH1 0x40 ADD PUSH1 0x40 MSTORE DUP1 PUSH1 0xC DUP2 MSTORE PUSH1 0x20 ADD PUSH32 0x4552433230414B414C75676F0000000000000000000000000000000000000000 DUP2 MSTORE POP DUP2 JUMP JUMPDEST PUSH1 0x0 DUP2 PUSH1 0x1 PUSH1 0x0 CALLER PUSH20 0xFFFFFFFFFFFFFFFFFFFFFFFFFFFFFFFFFFFFFFFF AND PUSH20 0xFFFFFFFFFFFFFFFFFFFFFFFFFFFFFFFFFFFFFFFF AND DUP2 MSTORE PUSH1 0x20 ADD SWAP1 DUP2 MSTORE PUSH1 0x20 ADD PUSH1 0x0 KECCAK256 PUSH1 0x0 DUP6 PUSH20 0xFFFFFFFFFFFFFFFFFFFFFFFFFFFFFFFFFFFFFFFF AND PUSH20 0xFFFFFFFFFFFFFFFFFFFFFFFFFFFFFFFFFFFFFFFF AND DUP2 MSTORE PUSH1 0x20 ADD SWAP1 DUP2 MSTORE PUSH1 0x20 ADD PUSH1 0x0 KECCAK256 DUP2 SWAP1 SSTORE POP DUP3 PUSH20 0xFFFFFFFFFFFFFFFFFFFFFFFFFFFFFFFFFFFFFFFF AND CALLER PUSH20 0xFFFFFFFFFFFFFFFFFFFFFFFFFFFFFFFFFFFFFFFF AND PUSH32 0x8C5BE1E5EBEC7D5BD14F71427D1E84F3DD0314C0F7B2291E5B200AC8C7C3B925 DUP5 PUSH1 0x40 MLOAD PUSH2 0x37B SWAP2 SWAP1 PUSH2 0xE5C JUMP JUMPDEST PUSH1 0x40 MLOAD DUP1 SWAP2 SUB SWAP1 LOG3 PUSH1 0x1 SWAP1 POP SWAP3 SWAP2 POP POP JUMP JUMPDEST PUSH1 0x0 PUSH1 0x2 SLOAD SWAP1 POP SWAP1 JUMP JUMPDEST DUP1 PUSH1 0x2 PUSH1 0x0 DUP3 DUP3 SLOAD ADD SWAP3 POP POP DUP2 SWAP1 SSTORE POP DUP1 PUSH1 0x0 DUP1 CALLER PUSH20 0xFFFFFFFFFFFFFFFFFFFFFFFFFFFFFFFFFFFFFFFF AND PUSH20 0xFFFFFFFFFFFFFFFFFFFFFFFFFFFFFFFFFFFFFFFF AND DUP2 MSTORE PUSH1 0x20 ADD SWAP1 DUP2 MSTORE PUSH1 0x20 ADD PUSH1 0x0 KECCAK256 PUSH1 0x0 DUP3 DUP3 SLOAD ADD SWAP3 POP POP DUP2 SWAP1 SSTORE POP POP JUMP JUMPDEST PUSH1 0x0 DUP2 PUSH1 0x0 DUP1 DUP7 PUSH20 0xFFFFFFFFFFFFFFFFFFFFFFFFFFFFFFFFFFFFFFFF AND PUSH20 0xFFFFFFFFFFFFFFFFFFFFFFFFFFFFFFFFFFFFFFFF AND DUP2 MSTORE PUSH1 0x20 ADD SWAP1 DUP2 MSTORE PUSH1 0x20 ADD PUSH1 0x0 KECCAK256 SLOAD LT ISZERO PUSH2 0x443 JUMPI PUSH1 0x0 DUP1 REVERT JUMPDEST DUP2 PUSH1 0x1 PUSH1 0x0 DUP7 PUSH20 0xFFFFFFFFFFFFFFFFFFFFFFFFFFFFFFFFFFFFFFFF AND PUSH20 0xFFFFFFFFFFFFFFFFFFFFFFFFFFFFFFFFFFFFFFFF AND DUP2 MSTORE PUSH1 0x20 ADD SWAP1 DUP2 MSTORE PUSH1 0x20 ADD PUSH1 0x0 KECCAK256 PUSH1 0x0 CALLER PUSH20 0xFFFFFFFFFFFFFFFFFFFFFFFFFFFFFFFFFFFFFFFF AND PUSH20 0xFFFFFFFFFFFFFFFFFFFFFFFFFFFFFFFFFFFFFFFF AND DUP2 MSTORE PUSH1 0x20 ADD SWAP1 DUP2 MSTORE PUSH1 0x20 ADD PUSH1 0x0 KECCAK256 SLOAD LT ISZERO PUSH2 0x4CC JUMPI PUSH1 0x0 DUP1 REVERT JUMPDEST PUSH2 0x51D DUP3 PUSH1 0x0 DUP1 DUP8 PUSH20 0xFFFFFFFFFFFFFFFFFFFFFFFFFFFFFFFFFFFFFFFF AND PUSH20 0xFFFFFFFFFFFFFFFFFFFFFFFFFFFFFFFFFFFFFFFF AND DUP2 MSTORE PUSH1 0x20 ADD SWAP1 DUP2 MSTORE PUSH1 0x20 ADD PUSH1 0x0 KECCAK256 SLOAD PUSH2 0xC43 SWAP1 SWAP2 SWAP1 PUSH4 0xFFFFFFFF AND JUMP JUMPDEST PUSH1 0x0 DUP1 DUP7 PUSH20 0xFFFFFFFFFFFFFFFFFFFFFFFFFFFFFFFFFFFFFFFF AND PUSH20 0xFFFFFFFFFFFFFFFFFFFFFFFFFFFFFFFFFFFFFFFF AND DUP2 MSTORE PUSH1 0x20 ADD SWAP1 DUP2 MSTORE PUSH1 0x20 ADD PUSH1 0x0 KECCAK256 DUP2 SWAP1 SSTORE POP PUSH2 0x5EE DUP3 PUSH1 0x1 PUSH1 0x0 DUP8 PUSH20 0xFFFFFFFFFFFFFFFFFFFFFFFFFFFFFFFFFFFFFFFF AND PUSH20 0xFFFFFFFFFFFFFFFFFFFFFFFFFFFFFFFFFFFFFFFF AND DUP2 MSTORE PUSH1 0x20 ADD SWAP1 DUP2 MSTORE PUSH1 0x20 ADD PUSH1 0x0 KECCAK256 PUSH1 0x0 CALLER PUSH20 0xFFFFFFFFFFFFFFFFFFFFFFFFFFFFFFFFFFFFFFFF AND PUSH20 0xFFFFFFFFFFFFFFFFFFFFFFFFFFFFFFFFFFFFFFFF AND DUP2 MSTORE PUSH1 0x20 ADD SWAP1 DUP2 MSTORE PUSH1 0x20 ADD PUSH1 0x0 KECCAK256 SLOAD PUSH2 0xC43 SWAP1 SWAP2 SWAP1 PUSH4 0xFFFFFFFF AND JUMP JUMPDEST PUSH1 0x1 PUSH1 0x0 DUP7 PUSH20 0xFFFFFFFFFFFFFFFFFFFFFFFFFFFFFFFFFFFFFFFF AND PUSH20 0xFFFFFFFFFFFFFFFFFFFFFFFFFFFFFFFFFFFFFFFF AND DUP2 MSTORE PUSH1 0x20 ADD SWAP1 DUP2 MSTORE PUSH1 0x20 ADD PUSH1 0x0 KECCAK256 PUSH1 0x0 CALLER PUSH20 0xFFFFFFFFFFFFFFFFFFFFFFFFFFFFFFFFFFFFFFFF AND PUSH20 0xFFFFFFFFFFFFFFFFFFFFFFFFFFFFFFFFFFFFFFFF AND DUP2 MSTORE PUSH1 0x20 ADD SWAP1 DUP2 MSTORE PUSH1 0x20 ADD PUSH1 0x0 KECCAK256 DUP2 SWAP1 SSTORE POP PUSH2 0x6BF DUP3 PUSH1 0x0 DUP1 DUP7 PUSH20 0xFFFFFFFFFFFFFFFFFFFFFFFFFFFFFFFFFFFFFFFF AND PUSH20 0xFFFFFFFFFFFFFFFFFFFFFFFFFFFFFFFFFFFFFFFF AND DUP2 MSTORE PUSH1 0x20 ADD SWAP1 DUP2 MSTORE PUSH1 0x20 ADD PUSH1 0x0 KECCAK256 SLOAD PUSH2 0xC5A SWAP1 SWAP2 SWAP1 PUSH4 0xFFFFFFFF AND JUMP JUMPDEST PUSH1 0x0 DUP1 DUP6 PUSH20 0xFFFFFFFFFFFFFFFFFFFFFFFFFFFFFFFFFFFFFFFF AND PUSH20 0xFFFFFFFFFFFFFFFFFFFFFFFFFFFFFFFFFFFFFFFF AND DUP2 MSTORE PUSH1 0x20 ADD SWAP1 DUP2 MSTORE PUSH1 0x20 ADD PUSH1 0x0 KECCAK256 DUP2 SWAP1 SSTORE POP DUP3 PUSH20 0xFFFFFFFFFFFFFFFFFFFFFFFFFFFFFFFFFFFFFFFF AND DUP5 PUSH20 0xFFFFFFFFFFFFFFFFFFFFFFFFFFFFFFFFFFFFFFFF AND PUSH32 0xDDF252AD1BE2C89B69C2B068FC378DAA952BA7F163C4A11628F55A4DF523B3EF DUP5 PUSH1 0x40 MLOAD PUSH2 0x75E SWAP2 SWAP1 PUSH2 0xE5C JUMP JUMPDEST PUSH1 0x40 MLOAD DUP1 SWAP2 SUB SWAP1 LOG3 PUSH1 0x1 SWAP1 POP SWAP4 SWAP3 POP POP POP JUMP JUMPDEST PUSH1 0x12 DUP2 JUMP JUMPDEST PUSH1 0x0 DUP1 PUSH1 0x0 DUP4 PUSH20 0xFFFFFFFFFFFFFFFFFFFFFFFFFFFFFFFFFFFFFFFF AND PUSH20 0xFFFFFFFFFFFFFFFFFFFFFFFFFFFFFFFFFFFFFFFF AND DUP2 MSTORE PUSH1 0x20 ADD SWAP1 DUP2 MSTORE PUSH1 0x20 ADD PUSH1 0x0 KECCAK256 SLOAD SWAP1 POP SWAP2 SWAP1 POP JUMP JUMPDEST PUSH1 0x40 MLOAD DUP1 PUSH1 0x40 ADD PUSH1 0x40 MSTORE DUP1 PUSH1 0x3 DUP2 MSTORE PUSH1 0x20 ADD PUSH32 0x414B410000000000000000000000000000000000000000000000000000000000 DUP2 MSTORE POP DUP2 JUMP JUMPDEST PUSH1 0x0 DUP1 PUSH1 0x0 CALLER PUSH20 0xFFFFFFFFFFFFFFFFFFFFFFFFFFFFFFFFFFFFFFFF AND PUSH20 0xFFFFFFFFFFFFFFFFFFFFFFFFFFFFFFFFFFFFFFFF AND DUP2 MSTORE PUSH1 0x20 ADD SWAP1 DUP2 MSTORE PUSH1 0x20 ADD PUSH1 0x0 KECCAK256 SLOAD DUP3 GT ISZERO PUSH2 0x844 JUMPI PUSH1 0x0 DUP1 REVERT JUMPDEST PUSH2 0x895 DUP3 PUSH1 0x0 DUP1 CALLER PUSH20 0xFFFFFFFFFFFFFFFFFFFFFFFFFFFFFFFFFFFFFFFF AND PUSH20 0xFFFFFFFFFFFFFFFFFFFFFFFFFFFFFFFFFFFFFFFF AND DUP2 MSTORE PUSH1 0x20 ADD SWAP1 DUP2 MSTORE PUSH1 0x20 ADD PUSH1 0x0 KECCAK256 SLOAD PUSH2 0xC43 SWAP1 SWAP2 SWAP1 PUSH4 0xFFFFFFFF AND JUMP JUMPDEST PUSH1 0x0 DUP1 CALLER PUSH20 0xFFFFFFFFFFFFFFFFFFFFFFFFFFFFFFFFFFFFFFFF AND PUSH20 0xFFFFFFFFFFFFFFFFFFFFFFFFFFFFFFFFFFFFFFFF AND DUP2 MSTORE PUSH1 0x20 ADD SWAP1 DUP2 MSTORE PUSH1 0x20 ADD PUSH1 0x0 KECCAK256 DUP2 SWAP1 SSTORE POP PUSH2 0x928 DUP3 PUSH1 0x0 DUP1 DUP7 PUSH20 0xFFFFFFFFFFFFFFFFFFFFFFFFFFFFFFFFFFFFFFFF AND PUSH20 0xFFFFFFFFFFFFFFFFFFFFFFFFFFFFFFFFFFFFFFFF AND DUP2 MSTORE PUSH1 0x20 ADD SWAP1 DUP2 MSTORE PUSH1 0x20 ADD PUSH1 0x0 KECCAK256 SLOAD PUSH2 0xC5A SWAP1 SWAP2 SWAP1 PUSH4 0xFFFFFFFF AND JUMP JUMPDEST PUSH1 0x0 DUP1 DUP6 PUSH20 0xFFFFFFFFFFFFFFFFFFFFFFFFFFFFFFFFFFFFFFFF AND PUSH20 0xFFFFFFFFFFFFFFFFFFFFFFFFFFFFFFFFFFFFFFFF AND DUP2 MSTORE PUSH1 0x20 ADD SWAP1 DUP2 MSTORE PUSH1 0x20 ADD PUSH1 0x0 KECCAK256 DUP2 SWAP1 SSTORE POP DUP3 PUSH20 0xFFFFFFFFFFFFFFFFFFFFFFFFFFFFFFFFFFFFFFFF AND CALLER PUSH20 0xFFFFFFFFFFFFFFFFFFFFFFFFFFFFFFFFFFFFFFFF AND PUSH32 0xDDF252AD1BE2C89B69C2B068FC378DAA952BA7F163C4A11628F55A4DF523B3EF DUP5 PUSH1 0x40 MLOAD PUSH2 0x9C7 SWAP2 SWAP1 PUSH2 0xE5C JUMP JUMPDEST PUSH1 0x40 MLOAD DUP1 SWAP2 SUB SWAP1 LOG3 PUSH1 0x1 SWAP1 POP SWAP3 SWAP2 POP POP JUMP JUMPDEST PUSH1 0x0 PUSH1 0x1 PUSH1 0x0 DUP5 PUSH20 0xFFFFFFFFFFFFFFFFFFFFFFFFFFFFFFFFFFFFFFFF AND PUSH20 0xFFFFFFFFFFFFFFFFFFFFFFFFFFFFFFFFFFFFFFFF AND DUP2 MSTORE PUSH1 0x20 ADD SWAP1 DUP2 MSTORE PUSH1 0x20 ADD PUSH1 0x0 KECCAK256 PUSH1 0x0 DUP4 PUSH20 0xFFFFFFFFFFFFFFFFFFFFFFFFFFFFFFFFFFFFFFFF AND PUSH20 0xFFFFFFFFFFFFFFFFFFFFFFFFFFFFFFFFFFFFFFFF AND DUP2 MSTORE PUSH1 0x20 ADD SWAP1 DUP2 MSTORE PUSH1 0x20 ADD PUSH1 0x0 KECCAK256 SLOAD SWAP1 POP SWAP3 SWAP2 POP POP JUMP JUMPDEST PUSH1 0x0 DUP1 PUSH1 0x0 DUP6 PUSH20 0xFFFFFFFFFFFFFFFFFFFFFFFFFFFFFFFFFFFFFFFF AND PUSH20 0xFFFFFFFFFFFFFFFFFFFFFFFFFFFFFFFFFFFFFFFF AND DUP2 MSTORE PUSH1 0x20 ADD SWAP1 DUP2 MSTORE PUSH1 0x20 ADD PUSH1 0x0 KECCAK256 SLOAD DUP3 GT ISZERO PUSH2 0xAAD JUMPI PUSH1 0x0 DUP1 REVERT JUMPDEST PUSH2 0xAFE DUP3 PUSH1 0x0 DUP1 DUP8 PUSH20 0xFFFFFFFFFFFFFFFFFFFFFFFFFFFFFFFFFFFFFFFF AND PUSH20 0xFFFFFFFFFFFFFFFFFFFFFFFFFFFFFFFFFFFFFFFF AND DUP2 MSTORE PUSH1 0x20 ADD SWAP1 DUP2 MSTORE PUSH1 0x20 ADD PUSH1 0x0 KECCAK256 SLOAD PUSH2 0xC43 SWAP1 SWAP2 SWAP1 PUSH4 0xFFFFFFFF AND JUMP JUMPDEST PUSH1 0x0 DUP1 DUP7 PUSH20 0xFFFFFFFFFFFFFFFFFFFFFFFFFFFFFFFFFFFFFFFF AND PUSH20 0xFFFFFFFFFFFFFFFFFFFFFFFFFFFFFFFFFFFFFFFF AND DUP2 MSTORE PUSH1 0x20 ADD SWAP1 DUP2 MSTORE PUSH1 0x20 ADD PUSH1 0x0 KECCAK256 DUP2 SWAP1 SSTORE POP PUSH2 0xB91 DUP3 PUSH1 0x0 DUP1 DUP7 PUSH20 0xFFFFFFFFFFFFFFFFFFFFFFFFFFFFFFFFFFFFFFFF AND PUSH20 0xFFFFFFFFFFFFFFFFFFFFFFFFFFFFFFFFFFFFFFFF AND DUP2 MSTORE PUSH1 0x20 ADD SWAP1 DUP2 MSTORE PUSH1 0x20 ADD PUSH1 0x0 KECCAK256 SLOAD PUSH2 0xC5A SWAP1 SWAP2 SWAP1 PUSH4 0xFFFFFFFF AND JUMP JUMPDEST PUSH1 0x0 DUP1 DUP6 PUSH20 0xFFFFFFFFFFFFFFFFFFFFFFFFFFFFFFFFFFFFFFFF AND PUSH20 0xFFFFFFFFFFFFFFFFFFFFFFFFFFFFFFFFFFFFFFFF AND DUP2 MSTORE PUSH1 0x20 ADD SWAP1 DUP2 MSTORE PUSH1 0x20 ADD PUSH1 0x0 KECCAK256 DUP2 SWAP1 SSTORE POP DUP3 PUSH20 0xFFFFFFFFFFFFFFFFFFFFFFFFFFFFFFFFFFFFFFFF AND DUP5 PUSH20 0xFFFFFFFFFFFFFFFFFFFFFFFFFFFFFFFFFFFFFFFF AND PUSH32 0xDDF252AD1BE2C89B69C2B068FC378DAA952BA7F163C4A11628F55A4DF523B3EF DUP5 PUSH1 0x40 MLOAD PUSH2 0xC30 SWAP2 SWAP1 PUSH2 0xE5C JUMP JUMPDEST PUSH1 0x40 MLOAD DUP1 SWAP2 SUB SWAP1 LOG3 PUSH1 0x1 SWAP1 POP SWAP4 SWAP3 POP POP POP JUMP JUMPDEST PUSH1 0x0 DUP3 DUP3 GT ISZERO PUSH2 0xC4F JUMPI INVALID JUMPDEST DUP2 DUP4 SUB SWAP1 POP SWAP3 SWAP2 POP POP JUMP JUMPDEST PUSH1 0x0 DUP1 DUP3 DUP5 ADD SWAP1 POP DUP4 DUP2 LT ISZERO PUSH2 0xC6C JUMPI INVALID JUMPDEST DUP1 SWAP2 POP POP SWAP3 SWAP2 POP POP JUMP JUMPDEST PUSH1 0x0 DUP2 CALLDATALOAD SWAP1 POP PUSH2 0xC85 DUP2 PUSH2 0xF47 JUMP JUMPDEST SWAP3 SWAP2 POP POP JUMP JUMPDEST PUSH1 0x0 DUP2 CALLDATALOAD SWAP1 POP PUSH2 0xC9A DUP2 PUSH2 0xF5E JUMP JUMPDEST SWAP3 SWAP2 POP POP JUMP JUMPDEST PUSH1 0x0 PUSH1 0x20 DUP3 DUP5 SUB SLT ISZERO PUSH2 0xCB2 JUMPI PUSH1 0x0 DUP1 REVERT JUMPDEST PUSH1 0x0 PUSH2 0xCC0 DUP5 DUP3 DUP6 ADD PUSH2 0xC76 JUMP JUMPDEST SWAP2 POP POP SWAP3 SWAP2 POP POP JUMP JUMPDEST PUSH1 0x0 DUP1 PUSH1 0x40 DUP4 DUP6 SUB SLT ISZERO PUSH2 0xCDC JUMPI PUSH1 0x0 DUP1 REVERT JUMPDEST PUSH1 0x0 PUSH2 0xCEA DUP6 DUP3 DUP7 ADD PUSH2 0xC76 JUMP JUMPDEST SWAP3 POP POP PUSH1 0x20 PUSH2 0xCFB DUP6 DUP3 DUP7 ADD PUSH2 0xC76 JUMP JUMPDEST SWAP2 POP POP SWAP3 POP SWAP3 SWAP1 POP JUMP JUMPDEST PUSH1 0x0 DUP1 PUSH1 0x0 PUSH1 0x60 DUP5 DUP7 SUB SLT ISZERO PUSH2 0xD1A JUMPI PUSH1 0x0 DUP1 REVERT JUMPDEST PUSH1 0x0 PUSH2 0xD28 DUP7 DUP3 DUP8 ADD PUSH2 0xC76 JUMP JUMPDEST SWAP4 POP POP PUSH1 0x20 PUSH2 0xD39 DUP7 DUP3 DUP8 ADD PUSH2 0xC76 JUMP JUMPDEST SWAP3 POP POP PUSH1 0x40 PUSH2 0xD4A DUP7 DUP3 DUP8 ADD PUSH2 0xC8B JUMP JUMPDEST SWAP2 POP POP SWAP3 POP SWAP3 POP SWAP3 JUMP JUMPDEST PUSH1 0x0 DUP1 PUSH1 0x40 DUP4 DUP6 SUB SLT ISZERO PUSH2 0xD67 JUMPI PUSH1 0x0 DUP1 REVERT JUMPDEST PUSH1 0x0 PUSH2 0xD75 DUP6 DUP3 DUP7 ADD PUSH2 0xC76 JUMP JUMPDEST SWAP3 POP POP PUSH1 0x20 PUSH2 0xD86 DUP6 DUP3 DUP7 ADD PUSH2 0xC8B JUMP JUMPDEST SWAP2 POP POP SWAP3 POP SWAP3 SWAP1 POP JUMP JUMPDEST PUSH1 0x0 PUSH1 0x20 DUP3 DUP5 SUB SLT ISZERO PUSH2 0xDA2 JUMPI PUSH1 0x0 DUP1 REVERT JUMPDEST PUSH1 0x0 PUSH2 0xDB0 DUP5 DUP3 DUP6 ADD PUSH2 0xC8B JUMP JUMPDEST SWAP2 POP POP SWAP3 SWAP2 POP POP JUMP JUMPDEST PUSH2 0xDC2 DUP2 PUSH2 0xEC0 JUMP JUMPDEST DUP3 MSTORE POP POP JUMP JUMPDEST PUSH1 0x0 PUSH2 0xDD3 DUP3 PUSH2 0xE92 JUMP JUMPDEST PUSH2 0xDDD DUP2 DUP6 PUSH2 0xE9D JUMP JUMPDEST SWAP4 POP PUSH2 0xDED DUP2 DUP6 PUSH1 0x20 DUP7 ADD PUSH2 0xF03 JUMP JUMPDEST PUSH2 0xDF6 DUP2 PUSH2 0xF36 JUMP JUMPDEST DUP5 ADD SWAP2 POP POP SWAP3 SWAP2 POP POP JUMP JUMPDEST PUSH2 0xE0A DUP2 PUSH2 0xEEC JUMP JUMPDEST DUP3 MSTORE POP POP JUMP JUMPDEST PUSH2 0xE19 DUP2 PUSH2 0xEF6 JUMP JUMPDEST DUP3 MSTORE POP POP JUMP JUMPDEST PUSH1 0x0 PUSH1 0x20 DUP3 ADD SWAP1 POP PUSH2 0xE34 PUSH1 0x0 DUP4 ADD DUP5 PUSH2 0xDB9 JUMP JUMPDEST SWAP3 SWAP2 POP POP JUMP JUMPDEST PUSH1 0x0 PUSH1 0x20 DUP3 ADD SWAP1 POP DUP2 DUP2 SUB PUSH1 0x0 DUP4 ADD MSTORE PUSH2 0xE54 DUP2 DUP5 PUSH2 0xDC8 JUMP JUMPDEST SWAP1 POP SWAP3 SWAP2 POP POP JUMP JUMPDEST PUSH1 0x0 PUSH1 0x20 DUP3 ADD SWAP1 POP PUSH2 0xE71 PUSH1 0x0 DUP4 ADD DUP5 PUSH2 0xE01 JUMP JUMPDEST SWAP3 SWAP2 POP POP JUMP JUMPDEST PUSH1 0x0 PUSH1 0x20 DUP3 ADD SWAP1 POP PUSH2 0xE8C PUSH1 0x0 DUP4 ADD DUP5 PUSH2 0xE10 JUMP JUMPDEST SWAP3 SWAP2 POP POP JUMP JUMPDEST PUSH1 0x0 DUP2 MLOAD SWAP1 POP SWAP2 SWAP1 POP JUMP JUMPDEST PUSH1 0x0 DUP3 DUP3 MSTORE PUSH1 0x20 DUP3 ADD SWAP1 POP SWAP3 SWAP2 POP POP JUMP JUMPDEST PUSH1 0x0 PUSH2 0xEB9 DUP3 PUSH2 0xECC JUMP JUMPDEST SWAP1 POP SWAP2 SWAP1 POP JUMP JUMPDEST PUSH1 0x0 DUP2 ISZERO ISZERO SWAP1 POP SWAP2 SWAP1 POP JUMP JUMPDEST PUSH1 0x0 PUSH20 0xFFFFFFFFFFFFFFFFFFFFFFFFFFFFFFFFFFFFFFFF DUP3 AND SWAP1 POP SWAP2 SWAP1 POP JUMP JUMPDEST PUSH1 0x0 DUP2 SWAP1 POP SWAP2 SWAP1 POP JUMP JUMPDEST PUSH1 0x0 PUSH1 0xFF DUP3 AND SWAP1 POP SWAP2 SWAP1 POP JUMP JUMPDEST PUSH1 0x0 JUMPDEST DUP4 DUP2 LT ISZERO PUSH2 0xF21 JUMPI DUP1 DUP3 ADD MLOAD DUP2 DUP5 ADD MSTORE PUSH1 0x20 DUP2 ADD SWAP1 POP PUSH2 0xF06 JUMP JUMPDEST DUP4 DUP2 GT ISZERO PUSH2 0xF30 JUMPI PUSH1 0x0 DUP5 DUP5 ADD MSTORE JUMPDEST POP POP POP POP JUMP JUMPDEST PUSH1 0x0 PUSH1 0x1F NOT PUSH1 0x1F DUP4 ADD AND SWAP1 POP SWAP2 SWAP1 POP JUMP JUMPDEST PUSH2 0xF50 DUP2 PUSH2 0xEAE JUMP JUMPDEST DUP2 EQ PUSH2 0xF5B JUMPI PUSH1 0x0 DUP1 REVERT JUMPDEST POP JUMP JUMPDEST PUSH2 0xF67 DUP2 PUSH2 0xEEC JUMP JUMPDEST DUP2 EQ PUSH2 0xF72 JUMPI PUSH1 0x0 DUP1 REVERT JUMPDEST POP JUMP INVALID LOG2 PUSH5 0x6970667358 0x22 SLT KECCAK256 MSTORE8 0x2C GASPRICE 0xA8 0xB9 0x22 0xC2 SMOD PUSH8 0xAF62DC097402AD23 SDIV ADDMOD LOG2 TIMESTAMP 0xD2 PUSH24 0x69011D941905ABC92364736F6C634300060C003300000000 "
				},
				"gasEstimates": {
					"creation": {
						"codeDepositCost": "1692000",
						"executionCost": "infinite",
						"totalCost": "infinite"
					},
					"external": {
						"AtraccionesDisponibles()": "infinite",
						"BajarAtraccion(string)": "infinite",
						"BalanceOf()": "infinite",
						"Clientes(address)": "1572",
						"CompraTokens(uint256)": "infinite",
						"GenerarTokens(uint256)": "infinite",
						"MappingAtracciones(string)": "infinite",
						"MisTokens()": "infinite",
						"NuevaAtraccion(string,uint256)": "infinite",
						"SubirAtraccion(string)": "infinite",
						"SubirseAtraccion(string)": "infinite",
						"owner()": "1303"
					},
					"internal": {
						"PrecioTokens(uint256)": "36"
					}
				},
				"methodIdentifiers": {
					"AtraccionesDisponibles()": "1fccb33c",
					"BajarAtraccion(string)": "a2094159",
					"BalanceOf()": "9a3174a0",
					"Clientes(address)": "ce8f2f38",
					"CompraTokens(uint256)": "f7774091",
					"GenerarTokens(uint256)": "7c1b38bf",
					"MappingAtracciones(string)": "d00df296",
					"MisTokens()": "e33f34a0",
					"NuevaAtraccion(string,uint256)": "2076b56c",
					"SubirAtraccion(string)": "a9862fab",
					"SubirseAtraccion(string)": "12b91846",
					"owner()": "8da5cb5b"
				}
			},
			"storageLayout": {
				"storage": [
					{
						"astId": 497,
						"contract": "Disney/disney.sol:Disney",
						"label": "token",
						"offset": 0,
						"slot": "0",
						"type": "t_contract(ERC20Basic)409"
					},
					{
						"astId": 499,
						"contract": "Disney/disney.sol:Disney",
						"label": "owner",
						"offset": 0,
						"slot": "1",
						"type": "t_address_payable"
					},
					{
						"astId": 509,
						"contract": "Disney/disney.sol:Disney",
						"label": "Clientes",
						"offset": 0,
						"slot": "2",
						"type": "t_mapping(t_address,t_struct(cliente)505_storage)"
					},
					{
						"astId": 673,
						"contract": "Disney/disney.sol:Disney",
						"label": "MappingAtracciones",
						"offset": 0,
						"slot": "3",
						"type": "t_mapping(t_string_memory_ptr,t_struct(atraccion)669_storage)"
					},
					{
						"astId": 676,
						"contract": "Disney/disney.sol:Disney",
						"label": "Atracciones",
						"offset": 0,
						"slot": "4",
						"type": "t_array(t_string_storage)dyn_storage"
					},
					{
						"astId": 681,
						"contract": "Disney/disney.sol:Disney",
						"label": "HistorialCliente",
						"offset": 0,
						"slot": "5",
						"type": "t_mapping(t_address,t_array(t_string_storage)dyn_storage)"
					}
				],
				"types": {
					"t_address": {
						"encoding": "inplace",
						"label": "address",
						"numberOfBytes": "20"
					},
					"t_address_payable": {
						"encoding": "inplace",
						"label": "address payable",
						"numberOfBytes": "20"
					},
					"t_array(t_string_storage)dyn_storage": {
						"base": "t_string_storage",
						"encoding": "dynamic_array",
						"label": "string[]",
						"numberOfBytes": "32"
					},
					"t_bool": {
						"encoding": "inplace",
						"label": "bool",
						"numberOfBytes": "1"
					},
					"t_contract(ERC20Basic)409": {
						"encoding": "inplace",
						"label": "contract ERC20Basic",
						"numberOfBytes": "20"
					},
					"t_mapping(t_address,t_array(t_string_storage)dyn_storage)": {
						"encoding": "mapping",
						"key": "t_address",
						"label": "mapping(address => string[])",
						"numberOfBytes": "32",
						"value": "t_array(t_string_storage)dyn_storage"
					},
					"t_mapping(t_address,t_struct(cliente)505_storage)": {
						"encoding": "mapping",
						"key": "t_address",
						"label": "mapping(address => struct Disney.cliente)",
						"numberOfBytes": "32",
						"value": "t_struct(cliente)505_storage"
					},
					"t_mapping(t_string_memory_ptr,t_struct(atraccion)669_storage)": {
						"encoding": "mapping",
						"key": "t_string_memory_ptr",
						"label": "mapping(string => struct Disney.atraccion)",
						"numberOfBytes": "32",
						"value": "t_struct(atraccion)669_storage"
					},
					"t_string_memory_ptr": {
						"encoding": "bytes",
						"label": "string",
						"numberOfBytes": "32"
					},
					"t_string_storage": {
						"encoding": "bytes",
						"label": "string",
						"numberOfBytes": "32"
					},
					"t_struct(atraccion)669_storage": {
						"encoding": "inplace",
						"label": "struct Disney.atraccion",
						"members": [
							{
								"astId": 664,
								"contract": "Disney/disney.sol:Disney",
								"label": "nombre",
								"offset": 0,
								"slot": "0",
								"type": "t_string_storage"
							},
							{
								"astId": 666,
								"contract": "Disney/disney.sol:Disney",
								"label": "precio",
								"offset": 0,
								"slot": "1",
								"type": "t_uint256"
							},
							{
								"astId": 668,
								"contract": "Disney/disney.sol:Disney",
								"label": "estado",
								"offset": 0,
								"slot": "2",
								"type": "t_bool"
							}
						],
						"numberOfBytes": "96"
					},
					"t_struct(cliente)505_storage": {
						"encoding": "inplace",
						"label": "struct Disney.cliente",
						"members": [
							{
								"astId": 501,
								"contract": "Disney/disney.sol:Disney",
								"label": "token_comprado",
								"offset": 0,
								"slot": "0",
								"type": "t_uint256"
							},
							{
								"astId": 504,
								"contract": "Disney/disney.sol:Disney",
								"label": "atracciones_visitadas",
								"offset": 0,
								"slot": "1",
								"type": "t_array(t_string_storage)dyn_storage"
							}
						],
						"numberOfBytes": "64"
					},
					"t_uint256": {
						"encoding": "inplace",
						"label": "uint256",
						"numberOfBytes": "32"
					}
				}
			},
			"userdoc": {
				"kind": "user",
				"methods": {},
				"version": 1
			}
		}
	}
}