{
	"Disney/disney.sol": {
		"Disney": {
			"abi": [
				{
					"inputs": [],
					"stateMutability": "nonpayable",
					"type": "constructor"
				},
				{
					"anonymous": false,
					"inputs": [
						{
							"indexed": false,
							"internalType": "string",
							"name": "",
							"type": "string"
						}
					],
					"name": "baja_atraccion",
					"type": "event"
				},
				{
					"anonymous": false,
					"inputs": [
						{
							"indexed": false,
							"internalType": "string",
							"name": "",
							"type": "string"
						}
					],
					"name": "disfruta_atraccion",
					"type": "event"
				},
				{
					"anonymous": false,
					"inputs": [
						{
							"indexed": false,
							"internalType": "string",
							"name": "",
							"type": "string"
						},
						{
							"indexed": false,
							"internalType": "uint256",
							"name": "",
							"type": "uint256"
						}
					],
					"name": "nueva_atraccion",
					"type": "event"
				},
				{
					"anonymous": false,
					"inputs": [
						{
							"indexed": false,
							"internalType": "string",
							"name": "",
							"type": "string"
						}
					],
					"name": "subir_atraccion",
					"type": "event"
				},
				{
					"inputs": [],
					"name": "AtraccionesDisponibles",
					"outputs": [
						{
							"internalType": "string",
							"name": "",
							"type": "string"
						}
					],
					"stateMutability": "view",
					"type": "function"
				},
				{
					"inputs": [
						{
							"internalType": "string",
							"name": "_nombreAtraccion",
							"type": "string"
						}
					],
					"name": "BajarAtraccion",
					"outputs": [],
					"stateMutability": "nonpayable",
					"type": "function"
				},
				{
					"inputs": [],
					"name": "BalanceOf",
					"outputs": [
						{
							"internalType": "uint256",
							"name": "",
							"type": "uint256"
						}
					],
					"stateMutability": "view",
					"type": "function"
				},
				{
					"inputs": [
						{
							"internalType": "address",
							"name": "",
							"type": "address"
						}
					],
					"name": "Clientes",
					"outputs": [
						{
							"internalType": "uint256",
							"name": "token_comprado",
							"type": "uint256"
						}
					],
					"stateMutability": "view",
					"type": "function"
				},
				{
					"inputs": [
						{
							"internalType": "uint256",
							"name": "_numTokens",
							"type": "uint256"
						}
					],
					"name": "CompraTokens",
					"outputs": [],
					"stateMutability": "payable",
					"type": "function"
				},
				{
					"inputs": [
						{
							"internalType": "uint256",
							"name": "_numTokens",
							"type": "uint256"
						}
					],
					"name": "GenerarTokens",
					"outputs": [],
					"stateMutability": "nonpayable",
					"type": "function"
				},
				{
					"inputs": [],
					"name": "Historial",
					"outputs": [
						{
							"internalType": "string[]",
							"name": "",
							"type": "string[]"
						}
					],
					"stateMutability": "nonpayable",
					"type": "function"
				},
				{
					"inputs": [
						{
							"internalType": "string",
							"name": "",
							"type": "string"
						}
					],
					"name": "MappingAtracciones",
					"outputs": [
						{
							"internalType": "string",
							"name": "nombre",
							"type": "string"
						},
						{
							"internalType": "uint256",
							"name": "precio",
							"type": "uint256"
						},
						{
							"internalType": "bool",
							"name": "estado",
							"type": "bool"
						}
					],
					"stateMutability": "view",
					"type": "function"
				},
				{
					"inputs": [],
					"name": "MisTokens",
					"outputs": [
						{
							"internalType": "uint256",
							"name": "",
							"type": "uint256"
						}
					],
					"stateMutability": "view",
					"type": "function"
				},
				{
					"inputs": [
						{
							"internalType": "string",
							"name": "_nombreAtraccion",
							"type": "string"
						},
						{
							"internalType": "uint256",
							"name": "_precio",
							"type": "uint256"
						}
					],
					"name": "NuevaAtraccion",
					"outputs": [],
					"stateMutability": "nonpayable",
					"type": "function"
				},
				{
					"inputs": [
						{
							"internalType": "string",
							"name": "_nombreAtraccion",
							"type": "string"
						}
					],
					"name": "SubirAtraccion",
					"outputs": [],
					"stateMutability": "nonpayable",
					"type": "function"
				},
				{
					"inputs": [
						{
							"internalType": "string",
							"name": "_nombreAtraccion",
							"type": "string"
						}
					],
					"name": "SubirseAtraccion",
					"outputs": [],
					"stateMutability": "nonpayable",
					"type": "function"
				},
				{
					"inputs": [],
					"name": "owner",
					"outputs": [
						{
							"internalType": "address payable",
							"name": "",
							"type": "address"
						}
					],
					"stateMutability": "view",
					"type": "function"
				}
			],
			"devdoc": {
				"kind": "dev",
				"methods": {},
				"version": 1
			},
			"evm": {
				"assembly": "    /* \"Disney/disney.sol\":124:8076  contract Disney {\r... */\n  mstore(0x40, 0x80)\n    /* \"Disney/disney.sol\":634:731  constructor() public {\r... */\n  callvalue\n  dup1\n  iszero\n  tag_1\n  jumpi\n  0x00\n  dup1\n  revert\ntag_1:\n  pop\n    /* \"Disney/disney.sol\":689:693  1000 */\n  0x03e8\n    /* \"Disney/disney.sol\":674:694  new ERC20Basic(1000) */\n  mload(0x40)\n  tag_4\n  swap1\n  tag_5\n  jump\t// in\ntag_4:\n  tag_6\n  swap2\n  swap1\n  tag_7\n  jump\t// in\ntag_6:\n  mload(0x40)\n  dup1\n  swap2\n  sub\n  swap1\n  0x00\n  create\n  dup1\n  iszero\n  dup1\n  iszero\n  tag_8\n  jumpi\n  returndatasize\n  0x00\n  dup1\n  returndatacopy\n  revert(0x00, returndatasize)\ntag_8:\n  pop\n    /* \"Disney/disney.sol\":666:671  token */\n  0x00\n  dup1\n    /* \"Disney/disney.sol\":666:694  token = new ERC20Basic(1000) */\n  0x0100\n  exp\n  dup2\n  sload\n  dup2\n  0xffffffffffffffffffffffffffffffffffffffff\n  mul\n  not\n  and\n  swap1\n  dup4\n  0xffffffffffffffffffffffffffffffffffffffff\n  and\n  mul\n  or\n  swap1\n  sstore\n  pop\n    /* \"Disney/disney.sol\":713:723  msg.sender */\n  caller\n    /* \"Disney/disney.sol\":705:710  owner */\n  0x01\n  0x00\n    /* \"Disney/disney.sol\":705:723  owner = msg.sender */\n  0x0100\n  exp\n  dup2\n  sload\n  dup2\n  0xffffffffffffffffffffffffffffffffffffffff\n  mul\n  not\n  and\n  swap1\n  dup4\n  0xffffffffffffffffffffffffffffffffffffffff\n  and\n  mul\n  or\n  swap1\n  sstore\n  pop\n    /* \"Disney/disney.sol\":124:8076  contract Disney {\r... */\n  jump(tag_9)\ntag_5:\n  dataSize(sub_1)\n  dup1\n  dataOffset(sub_1)\n  dup4\n  codecopy\n  add\n  swap1\n  jump\t// out\n    /* \"--CODEGEN--\":5:153   */\ntag_11:\n    /* \"--CODEGEN--\":99:147   */\n  tag_13\n    /* \"--CODEGEN--\":141:146   */\n  dup2\n    /* \"--CODEGEN--\":99:147   */\n  tag_14\n  jump\t// in\ntag_13:\n    /* \"--CODEGEN--\":94:97   */\n  dup3\n    /* \"--CODEGEN--\":87:148   */\n  mstore\n    /* \"--CODEGEN--\":81:153   */\n  pop\n  pop\n  jump\t// out\n    /* \"--CODEGEN--\":160:404   */\ntag_7:\n  0x00\n    /* \"--CODEGEN--\":298:300   */\n  0x20\n    /* \"--CODEGEN--\":287:296   */\n  dup3\n    /* \"--CODEGEN--\":283:301   */\n  add\n    /* \"--CODEGEN--\":275:301   */\n  swap1\n  pop\n    /* \"--CODEGEN--\":312:394   */\n  tag_16\n    /* \"--CODEGEN--\":391:392   */\n  0x00\n    /* \"--CODEGEN--\":380:389   */\n  dup4\n    /* \"--CODEGEN--\":376:393   */\n  add\n    /* \"--CODEGEN--\":367:373   */\n  dup5\n    /* \"--CODEGEN--\":312:394   */\n  tag_11\n  jump\t// in\ntag_16:\n    /* \"--CODEGEN--\":269:404   */\n  swap3\n  swap2\n  pop\n  pop\n  jump\t// out\n    /* \"--CODEGEN--\":411:483   */\ntag_17:\n  0x00\n    /* \"--CODEGEN--\":473:478   */\n  dup2\n    /* \"--CODEGEN--\":462:478   */\n  swap1\n  pop\n    /* \"--CODEGEN--\":456:483   */\n  swap2\n  swap1\n  pop\n  jump\t// out\n    /* \"--CODEGEN--\":490:609   */\ntag_14:\n  0x00\n    /* \"--CODEGEN--\":580:604   */\n  tag_20\n    /* \"--CODEGEN--\":598:603   */\n  dup3\n    /* \"--CODEGEN--\":580:604   */\n  tag_17\n  jump\t// in\ntag_20:\n    /* \"--CODEGEN--\":567:604   */\n  swap1\n  pop\n    /* \"--CODEGEN--\":561:609   */\n  swap2\n  swap1\n  pop\n  jump\t// out\n    /* \"Disney/disney.sol\":124:8076  contract Disney {\r... */\ntag_9:\n  dataSize(sub_0)\n  dup1\n  dataOffset(sub_0)\n  0x00\n  codecopy\n  0x00\n  return\nstop\n\nsub_0: assembly {\n        /* \"Disney/disney.sol\":124:8076  contract Disney {\r... */\n      mstore(0x40, 0x80)\n      jumpi(tag_1, lt(calldatasize, 0x04))\n      shr(0xe0, calldataload(0x00))\n      dup1\n      0x9a3174a0\n      gt\n      tag_15\n      jumpi\n      dup1\n      0xce8f2f38\n      gt\n      tag_16\n      jumpi\n      dup1\n      0xce8f2f38\n      eq\n      tag_11\n      jumpi\n      dup1\n      0xd00df296\n      eq\n      tag_12\n      jumpi\n      dup1\n      0xe33f34a0\n      eq\n      tag_13\n      jumpi\n      dup1\n      0xf7774091\n      eq\n      tag_14\n      jumpi\n      jump(tag_1)\n    tag_16:\n      dup1\n      0x9a3174a0\n      eq\n      tag_8\n      jumpi\n      dup1\n      0xa2094159\n      eq\n      tag_9\n      jumpi\n      dup1\n      0xa9862fab\n      eq\n      tag_10\n      jumpi\n      jump(tag_1)\n    tag_15:\n      dup1\n      0x12b91846\n      eq\n      tag_2\n      jumpi\n      dup1\n      0x1fccb33c\n      eq\n      tag_3\n      jumpi\n      dup1\n      0x2076b56c\n      eq\n      tag_4\n      jumpi\n      dup1\n      0x6b8f8e15\n      eq\n      tag_5\n      jumpi\n      dup1\n      0x7c1b38bf\n      eq\n      tag_6\n      jumpi\n      dup1\n      0x8da5cb5b\n      eq\n      tag_7\n      jumpi\n    tag_1:\n      0x00\n      dup1\n      revert\n        /* \"Disney/disney.sol\":6314:7956  function SubirseAtraccion(string memory _nombreAtraccion) public {\r... */\n    tag_2:\n      callvalue\n      dup1\n      iszero\n      tag_17\n      jumpi\n      0x00\n      dup1\n      revert\n    tag_17:\n      pop\n      tag_18\n      0x04\n      dup1\n      calldatasize\n      sub\n      dup2\n      add\n      swap1\n      tag_19\n      swap2\n      swap1\n      tag_20\n      jump\t// in\n    tag_19:\n      tag_21\n      jump\t// in\n    tag_18:\n      stop\n        /* \"Disney/disney.sol\":5869:6252  function AtraccionesDisponibles() public view returns (string memory) {\r... */\n    tag_3:\n      callvalue\n      dup1\n      iszero\n      tag_22\n      jumpi\n      0x00\n      dup1\n      revert\n    tag_22:\n      pop\n      tag_23\n      tag_24\n      jump\t// in\n    tag_23:\n      mload(0x40)\n      tag_25\n      swap2\n      swap1\n      tag_26\n      jump\t// in\n    tag_25:\n      mload(0x40)\n      dup1\n      swap2\n      sub\n      swap1\n      return\n        /* \"Disney/disney.sol\":3320:3747  function NuevaAtraccion(string memory _nombreAtraccion, uint _precio) public Unicamente(msg.sender) {\r... */\n    tag_4:\n      callvalue\n      dup1\n      iszero\n      tag_27\n      jumpi\n      0x00\n      dup1\n      revert\n    tag_27:\n      pop\n      tag_28\n      0x04\n      dup1\n      calldatasize\n      sub\n      dup2\n      add\n      swap1\n      tag_29\n      swap2\n      swap1\n      tag_30\n      jump\t// in\n    tag_29:\n      tag_31\n      jump\t// in\n    tag_28:\n      stop\n        /* \"Disney/disney.sol\":7964:8073  function Historial () public returns (string[] memory) {\r... */\n    tag_5:\n      callvalue\n      dup1\n      iszero\n      tag_32\n      jumpi\n      0x00\n      dup1\n      revert\n    tag_32:\n      pop\n      tag_33\n      tag_34\n      jump\t// in\n    tag_33:\n      mload(0x40)\n      tag_35\n      swap2\n      swap1\n      tag_36\n      jump\t// in\n    tag_35:\n      mload(0x40)\n      dup1\n      swap2\n      sub\n      swap1\n      return\n        /* \"Disney/disney.sol\":2257:2384  function GenerarTokens (uint _numTokens) public Unicamente(msg.sender) {\r... */\n    tag_6:\n      callvalue\n      dup1\n      iszero\n      tag_37\n      jumpi\n      0x00\n      dup1\n      revert\n    tag_37:\n      pop\n      tag_38\n      0x04\n      dup1\n      calldatasize\n      sub\n      dup2\n      add\n      swap1\n      tag_39\n      swap2\n      swap1\n      tag_40\n      jump\t// in\n    tag_39:\n      tag_41\n      jump\t// in\n    tag_38:\n      stop\n        /* \"Disney/disney.sol\":369:397  address payable public owner */\n    tag_7:\n      callvalue\n      dup1\n      iszero\n      tag_42\n      jumpi\n      0x00\n      dup1\n      revert\n    tag_42:\n      pop\n      tag_43\n      tag_44\n      jump\t// in\n    tag_43:\n      mload(0x40)\n      tag_45\n      swap2\n      swap1\n      tag_46\n      jump\t// in\n    tag_45:\n      mload(0x40)\n      dup1\n      swap2\n      sub\n      swap1\n      return\n        /* \"Disney/disney.sol\":1937:2041  function BalanceOf() public view returns (uint) {\r... */\n    tag_8:\n      callvalue\n      dup1\n      iszero\n      tag_47\n      jumpi\n      0x00\n      dup1\n      revert\n    tag_47:\n      pop\n      tag_48\n      tag_49\n      jump\t// in\n    tag_48:\n      mload(0x40)\n      tag_50\n      swap2\n      swap1\n      tag_51\n      jump\t// in\n    tag_50:\n      mload(0x40)\n      dup1\n      swap2\n      sub\n      swap1\n      return\n        /* \"Disney/disney.sol\":3789:4772  function BajarAtraccion (string memory _nombreAtraccion) public Unicamente(msg.sender) {\r... */\n    tag_9:\n      callvalue\n      dup1\n      iszero\n      tag_52\n      jumpi\n      0x00\n      dup1\n      revert\n    tag_52:\n      pop\n      tag_53\n      0x04\n      dup1\n      calldatasize\n      sub\n      dup2\n      add\n      swap1\n      tag_54\n      swap2\n      swap1\n      tag_20\n      jump\t// in\n    tag_54:\n      tag_55\n      jump\t// in\n    tag_53:\n      stop\n        /* \"Disney/disney.sol\":4818:5816  function SubirAtraccion (string memory _nombreAtraccion) public Unicamente(msg.sender) {\r... */\n    tag_10:\n      callvalue\n      dup1\n      iszero\n      tag_56\n      jumpi\n      0x00\n      dup1\n      revert\n    tag_56:\n      pop\n      tag_57\n      0x04\n      dup1\n      calldatasize\n      sub\n      dup2\n      add\n      swap1\n      tag_58\n      swap2\n      swap1\n      tag_20\n      jump\t// in\n    tag_58:\n      tag_59\n      jump\t// in\n    tag_57:\n      stop\n        /* \"Disney/disney.sol\":581:625  mapping (address => cliente) public Clientes */\n    tag_11:\n      callvalue\n      dup1\n      iszero\n      tag_60\n      jumpi\n      0x00\n      dup1\n      revert\n    tag_60:\n      pop\n      tag_61\n      0x04\n      dup1\n      calldatasize\n      sub\n      dup2\n      add\n      swap1\n      tag_62\n      swap2\n      swap1\n      tag_63\n      jump\t// in\n    tag_62:\n      tag_64\n      jump\t// in\n    tag_61:\n      mload(0x40)\n      tag_65\n      swap2\n      swap1\n      tag_51\n      jump\t// in\n    tag_65:\n      mload(0x40)\n      dup1\n      swap2\n      sub\n      swap1\n      return\n        /* \"Disney/disney.sol\":3066:3121  mapping (string => atraccion) public MappingAtracciones */\n    tag_12:\n      callvalue\n      dup1\n      iszero\n      tag_66\n      jumpi\n      0x00\n      dup1\n      revert\n    tag_66:\n      pop\n      tag_67\n      0x04\n      dup1\n      calldatasize\n      sub\n      dup2\n      add\n      swap1\n      tag_68\n      swap2\n      swap1\n      tag_20\n      jump\t// in\n    tag_68:\n      tag_69\n      jump\t// in\n    tag_67:\n      mload(0x40)\n      tag_70\n      swap4\n      swap3\n      swap2\n      swap1\n      tag_71\n      jump\t// in\n    tag_70:\n      mload(0x40)\n      dup1\n      swap2\n      sub\n      swap1\n      return\n        /* \"Disney/disney.sol\":2088:2190  function MisTokens() public view returns(uint) {\r... */\n    tag_13:\n      callvalue\n      dup1\n      iszero\n      tag_72\n      jumpi\n      0x00\n      dup1\n      revert\n    tag_72:\n      pop\n      tag_73\n      tag_74\n      jump\t// in\n    tag_73:\n      mload(0x40)\n      tag_75\n      swap2\n      swap1\n      tag_51\n      jump\t// in\n    tag_75:\n      mload(0x40)\n      dup1\n      swap2\n      sub\n      swap1\n      return\n        /* \"Disney/disney.sol\":1114:1887  function CompraTokens(uint _numTokens) public payable {\r... */\n    tag_14:\n      tag_76\n      0x04\n      dup1\n      calldatasize\n      sub\n      dup2\n      add\n      swap1\n      tag_77\n      swap2\n      swap1\n      tag_40\n      jump\t// in\n    tag_77:\n      tag_78\n      jump\t// in\n    tag_76:\n      stop\n        /* \"Disney/disney.sol\":6314:7956  function SubirseAtraccion(string memory _nombreAtraccion) public {\r... */\n    tag_21:\n        /* \"Disney/disney.sol\":6447:6467  bool atraccionExiste */\n      0x00\n        /* \"Disney/disney.sol\":6486:6510  bool atraccionDisponible */\n      dup1\n        /* \"Disney/disney.sol\":6575:6581  uint i */\n      0x00\n        /* \"Disney/disney.sol\":6570:7832  for (uint i = 0; i < Atracciones.length; i++) {\r... */\n    tag_80:\n        /* \"Disney/disney.sol\":6591:6602  Atracciones */\n      0x04\n        /* \"Disney/disney.sol\":6591:6609  Atracciones.length */\n      dup1\n      sload\n      swap1\n      pop\n        /* \"Disney/disney.sol\":6587:6588  i */\n      dup2\n        /* \"Disney/disney.sol\":6587:6609  i < Atracciones.length */\n      lt\n        /* \"Disney/disney.sol\":6570:7832  for (uint i = 0; i < Atracciones.length; i++) {\r... */\n      iszero\n      tag_81\n      jumpi\n        /* \"Disney/disney.sol\":6750:6766  _nombreAtraccion */\n      dup4\n        /* \"Disney/disney.sol\":6733:6767  abi.encodePacked(_nombreAtraccion) */\n      add(0x20, mload(0x40))\n      tag_83\n      swap2\n      swap1\n      tag_84\n      jump\t// in\n    tag_83:\n      mload(0x40)\n      0x20\n      dup2\n      dup4\n      sub\n      sub\n      dup2\n      mstore\n      swap1\n      0x40\n      mstore\n        /* \"Disney/disney.sol\":6723:6768  keccak256(abi.encodePacked(_nombreAtraccion)) */\n      dup1\n      mload\n      swap1\n      0x20\n      add\n      keccak256\n        /* \"Disney/disney.sol\":6703:6714  Atracciones */\n      0x04\n        /* \"Disney/disney.sol\":6715:6716  i */\n      dup3\n        /* \"Disney/disney.sol\":6703:6717  Atracciones[i] */\n      dup2\n      sload\n      dup2\n      lt\n      tag_85\n      jumpi\n      invalid\n    tag_85:\n      swap1\n      0x00\n      mstore\n      keccak256(0x00, 0x20)\n      add\n        /* \"Disney/disney.sol\":6686:6718  abi.encodePacked(Atracciones[i]) */\n      add(0x20, mload(0x40))\n      tag_87\n      swap2\n      swap1\n      tag_88\n      jump\t// in\n    tag_87:\n      mload(0x40)\n      0x20\n      dup2\n      dup4\n      sub\n      sub\n      dup2\n      mstore\n      swap1\n      0x40\n      mstore\n        /* \"Disney/disney.sol\":6676:6719  keccak256(abi.encodePacked(Atracciones[i])) */\n      dup1\n      mload\n      swap1\n      0x20\n      add\n      keccak256\n        /* \"Disney/disney.sol\":6676:6768  keccak256(abi.encodePacked(Atracciones[i])) == keccak256(abi.encodePacked(_nombreAtraccion)) */\n      eq\n        /* \"Disney/disney.sol\":6672:7821  if (keccak256(abi.encodePacked(Atracciones[i])) == keccak256(abi.encodePacked(_nombreAtraccion))) {\r... */\n      iszero\n      tag_89\n      jumpi\n        /* \"Disney/disney.sol\":6807:6811  true */\n      0x01\n        /* \"Disney/disney.sol\":6789:6811  atraccionExiste = true */\n      swap3\n      pop\n        /* \"Disney/disney.sol\":6887:6905  MappingAtracciones */\n      0x03\n        /* \"Disney/disney.sol\":6906:6917  Atracciones */\n      0x04\n        /* \"Disney/disney.sol\":6918:6919  i */\n      dup3\n        /* \"Disney/disney.sol\":6906:6920  Atracciones[i] */\n      dup2\n      sload\n      dup2\n      lt\n      tag_90\n      jumpi\n      invalid\n    tag_90:\n      swap1\n      0x00\n      mstore\n      keccak256(0x00, 0x20)\n      add\n        /* \"Disney/disney.sol\":6887:6921  MappingAtracciones[Atracciones[i]] */\n      mload(0x40)\n      tag_92\n      swap2\n      swap1\n      tag_88\n      jump\t// in\n    tag_92:\n      swap1\n      dup2\n      mstore\n      0x20\n      add\n      mload(0x40)\n      dup1\n      swap2\n      sub\n      swap1\n      keccak256\n        /* \"Disney/disney.sol\":6887:6928  MappingAtracciones[Atracciones[i]].estado */\n      0x02\n      add\n      0x00\n      swap1\n      sload\n      swap1\n      0x0100\n      exp\n      swap1\n      div\n      0xff\n      and\n        /* \"Disney/disney.sol\":6883:7782  if (MappingAtracciones[Atracciones[i]].estado) {\r... */\n      iszero\n      tag_93\n      jumpi\n        /* \"Disney/disney.sol\":6975:6979  true */\n      0x01\n        /* \"Disney/disney.sol\":6953:6979  atraccionDisponible = true */\n      swap2\n      pop\n        /* \"Disney/disney.sol\":7134:7145  MisTokens() */\n      tag_94\n        /* \"Disney/disney.sol\":7134:7143  MisTokens */\n      tag_74\n        /* \"Disney/disney.sol\":7134:7145  MisTokens() */\n      jump\t// in\n    tag_94:\n        /* \"Disney/disney.sol\":7089:7107  MappingAtracciones */\n      0x03\n        /* \"Disney/disney.sol\":7108:7119  Atracciones */\n      0x04\n        /* \"Disney/disney.sol\":7120:7121  i */\n      dup4\n        /* \"Disney/disney.sol\":7108:7122  Atracciones[i] */\n      dup2\n      sload\n      dup2\n      lt\n      tag_95\n      jumpi\n      invalid\n    tag_95:\n      swap1\n      0x00\n      mstore\n      keccak256(0x00, 0x20)\n      add\n        /* \"Disney/disney.sol\":7089:7123  MappingAtracciones[Atracciones[i]] */\n      mload(0x40)\n      tag_97\n      swap2\n      swap1\n      tag_88\n      jump\t// in\n    tag_97:\n      swap1\n      dup2\n      mstore\n      0x20\n      add\n      mload(0x40)\n      dup1\n      swap2\n      sub\n      swap1\n      keccak256\n        /* \"Disney/disney.sol\":7089:7130  MappingAtracciones[Atracciones[i]].precio */\n      0x01\n      add\n      sload\n        /* \"Disney/disney.sol\":7089:7145  MappingAtracciones[Atracciones[i]].precio <= MisTokens() */\n      gt\n      iszero\n        /* \"Disney/disney.sol\":7080:7170  require (MappingAtracciones[Atracciones[i]].precio <= MisTokens(), \"Tokens insuficientes\") */\n      tag_98\n      jumpi\n      mload(0x40)\n      0x08c379a000000000000000000000000000000000000000000000000000000000\n      dup2\n      mstore\n      0x04\n      add\n      tag_99\n      swap1\n      tag_100\n      jump\t// in\n    tag_99:\n      mload(0x40)\n      dup1\n      swap2\n      sub\n      swap1\n      revert\n    tag_98:\n        /* \"Disney/disney.sol\":7255:7260  token */\n      0x00\n      dup1\n      sload\n      swap1\n      0x0100\n      exp\n      swap1\n      div\n      0xffffffffffffffffffffffffffffffffffffffff\n      and\n        /* \"Disney/disney.sol\":7255:7276  token.transfer_Disney */\n      0xffffffffffffffffffffffffffffffffffffffff\n      and\n      0xef910460\n        /* \"Disney/disney.sol\":7277:7287  msg.sender */\n      caller\n        /* \"Disney/disney.sol\":7297:7301  this */\n      address\n        /* \"Disney/disney.sol\":7304:7322  MappingAtracciones */\n      0x03\n        /* \"Disney/disney.sol\":7323:7334  Atracciones */\n      0x04\n        /* \"Disney/disney.sol\":7335:7336  i */\n      dup7\n        /* \"Disney/disney.sol\":7323:7337  Atracciones[i] */\n      dup2\n      sload\n      dup2\n      lt\n      tag_101\n      jumpi\n      invalid\n    tag_101:\n      swap1\n      0x00\n      mstore\n      keccak256(0x00, 0x20)\n      add\n        /* \"Disney/disney.sol\":7304:7338  MappingAtracciones[Atracciones[i]] */\n      mload(0x40)\n      tag_103\n      swap2\n      swap1\n      tag_88\n      jump\t// in\n    tag_103:\n      swap1\n      dup2\n      mstore\n      0x20\n      add\n      mload(0x40)\n      dup1\n      swap2\n      sub\n      swap1\n      keccak256\n        /* \"Disney/disney.sol\":7304:7345  MappingAtracciones[Atracciones[i]].precio */\n      0x01\n      add\n      sload\n        /* \"Disney/disney.sol\":7255:7346  token.transfer_Disney(msg.sender, address(this), MappingAtracciones[Atracciones[i]].precio) */\n      mload(0x40)\n      dup5\n      0xffffffff\n      and\n      0xe0\n      shl\n      dup2\n      mstore\n      0x04\n      add\n      tag_104\n      swap4\n      swap3\n      swap2\n      swap1\n      tag_105\n      jump\t// in\n    tag_104:\n      0x20\n      mload(0x40)\n      dup1\n      dup4\n      sub\n      dup2\n      0x00\n      dup8\n      dup1\n      extcodesize\n      iszero\n      dup1\n      iszero\n      tag_106\n      jumpi\n      0x00\n      dup1\n      revert\n    tag_106:\n      pop\n      gas\n      call\n      iszero\n      dup1\n      iszero\n      tag_108\n      jumpi\n      returndatasize\n      0x00\n      dup1\n      returndatacopy\n      revert(0x00, returndatasize)\n    tag_108:\n      pop\n      pop\n      pop\n      pop\n      mload(0x40)\n      returndatasize\n      not(0x1f)\n      0x1f\n      dup3\n      add\n      and\n      dup3\n      add\n      dup1\n      0x40\n      mstore\n      pop\n      dup2\n      add\n      swap1\n      tag_109\n      swap2\n      swap1\n      tag_110\n      jump\t// in\n    tag_109:\n      pop\n        /* \"Disney/disney.sol\":7421:7437  HistorialCliente */\n      0x05\n        /* \"Disney/disney.sol\":7421:7449  HistorialCliente[msg.sender] */\n      0x00\n        /* \"Disney/disney.sol\":7438:7448  msg.sender */\n      caller\n        /* \"Disney/disney.sol\":7421:7449  HistorialCliente[msg.sender] */\n      0xffffffffffffffffffffffffffffffffffffffff\n      and\n      0xffffffffffffffffffffffffffffffffffffffff\n      and\n      dup2\n      mstore\n      0x20\n      add\n      swap1\n      dup2\n      mstore\n      0x20\n      add\n      0x00\n      keccak256\n        /* \"Disney/disney.sol\":7455:7466  Atracciones */\n      0x04\n        /* \"Disney/disney.sol\":7467:7468  i */\n      dup3\n        /* \"Disney/disney.sol\":7455:7469  Atracciones[i] */\n      dup2\n      sload\n      dup2\n      lt\n      tag_111\n      jumpi\n      invalid\n    tag_111:\n      swap1\n      0x00\n      mstore\n      keccak256(0x00, 0x20)\n      add\n        /* \"Disney/disney.sol\":7421:7470  HistorialCliente[msg.sender].push(Atracciones[i]) */\n      swap1\n      dup1\n      0x01\n      dup2\n      sload\n      add\n      dup1\n      dup3\n      sstore\n      dup1\n      swap2\n      pop\n      pop\n      0x01\n      swap1\n      sub\n      swap1\n      0x00\n      mstore\n      keccak256(0x00, 0x20)\n      add\n      0x00\n      swap1\n      swap2\n      swap1\n      swap2\n      swap1\n      swap2\n      pop\n      swap1\n      dup1\n      sload\n      0x01\n      dup2\n      0x01\n      and\n      iszero\n      0x0100\n      mul\n      sub\n      and\n      0x02\n      swap1\n      div\n      tag_114\n      swap3\n      swap2\n      swap1\n      tag_115\n      jump\t// in\n    tag_114:\n      pop\n        /* \"Disney/disney.sol\":7541:7575  disfruta_atraccion(Atracciones[i]) */\n      0xc13b0c39e701b0f41dde2e972f3e98e53fa01e6bc45ef606ddc7522a8e354f2d\n        /* \"Disney/disney.sol\":7560:7571  Atracciones */\n      0x04\n        /* \"Disney/disney.sol\":7572:7573  i */\n      dup3\n        /* \"Disney/disney.sol\":7560:7574  Atracciones[i] */\n      dup2\n      sload\n      dup2\n      lt\n      tag_116\n      jumpi\n      invalid\n    tag_116:\n      swap1\n      0x00\n      mstore\n      keccak256(0x00, 0x20)\n      add\n        /* \"Disney/disney.sol\":7541:7575  disfruta_atraccion(Atracciones[i]) */\n      mload(0x40)\n      tag_118\n      swap2\n      swap1\n      tag_119\n      jump\t// in\n    tag_118:\n      mload(0x40)\n      dup1\n      swap2\n      sub\n      swap1\n      log1\n        /* \"Disney/disney.sol\":6883:7782  if (MappingAtracciones[Atracciones[i]].estado) {\r... */\n      jump(tag_120)\n    tag_93:\n        /* \"Disney/disney.sol\":7687:7706  atraccionDisponible */\n      dup2\n        /* \"Disney/disney.sol\":7679:7762  require(atraccionDisponible, \"La atraccion en cuestion no se encuentra disponible\") */\n      tag_121\n      jumpi\n      mload(0x40)\n      0x08c379a000000000000000000000000000000000000000000000000000000000\n      dup2\n      mstore\n      0x04\n      add\n      tag_122\n      swap1\n      tag_123\n      jump\t// in\n    tag_122:\n      mload(0x40)\n      dup1\n      swap2\n      sub\n      swap1\n      revert\n    tag_121:\n        /* \"Disney/disney.sol\":6883:7782  if (MappingAtracciones[Atracciones[i]].estado) {\r... */\n    tag_120:\n        /* \"Disney/disney.sol\":7800:7805  break */\n      jump(tag_81)\n        /* \"Disney/disney.sol\":6672:7821  if (keccak256(abi.encodePacked(Atracciones[i])) == keccak256(abi.encodePacked(_nombreAtraccion))) {\r... */\n    tag_89:\n        /* \"Disney/disney.sol\":6611:6614  i++ */\n      dup1\n      dup1\n      0x01\n      add\n      swap2\n      pop\n      pop\n        /* \"Disney/disney.sol\":6570:7832  for (uint i = 0; i < Atracciones.length; i++) {\r... */\n      jump(tag_80)\n    tag_81:\n      pop\n        /* \"Disney/disney.sol\":7893:7908  atraccionExiste */\n      dup2\n        /* \"Disney/disney.sol\":7885:7948  require(atraccionExiste, \"La atraccion en cuestión no existe\") */\n      tag_124\n      jumpi\n      mload(0x40)\n      0x08c379a000000000000000000000000000000000000000000000000000000000\n      dup2\n      mstore\n      0x04\n      add\n      tag_125\n      swap1\n      tag_126\n      jump\t// in\n    tag_125:\n      mload(0x40)\n      dup1\n      swap2\n      sub\n      swap1\n      revert\n    tag_124:\n        /* \"Disney/disney.sol\":6314:7956  function SubirseAtraccion(string memory _nombreAtraccion) public {\r... */\n      pop\n      pop\n      pop\n      jump\t// out\n        /* \"Disney/disney.sol\":5869:6252  function AtraccionesDisponibles() public view returns (string memory) {\r... */\n    tag_24:\n        /* \"Disney/disney.sol\":5924:5937  string memory */\n      0x60\n        /* \"Disney/disney.sol\":5950:5975  string memory disponibles */\n      dup1\n        /* \"Disney/disney.sol\":5991:5997  uint i */\n      0x00\n        /* \"Disney/disney.sol\":5986:6214  for (uint i = 0; i < Atracciones.length; i++) {\r... */\n    tag_128:\n        /* \"Disney/disney.sol\":6007:6018  Atracciones */\n      0x04\n        /* \"Disney/disney.sol\":6007:6025  Atracciones.length */\n      dup1\n      sload\n      swap1\n      pop\n        /* \"Disney/disney.sol\":6003:6004  i */\n      dup2\n        /* \"Disney/disney.sol\":6003:6025  i < Atracciones.length */\n      lt\n        /* \"Disney/disney.sol\":5986:6214  for (uint i = 0; i < Atracciones.length; i++) {\r... */\n      iszero\n      tag_129\n      jumpi\n        /* \"Disney/disney.sol\":6051:6069  MappingAtracciones */\n      0x03\n        /* \"Disney/disney.sol\":6070:6081  Atracciones */\n      0x04\n        /* \"Disney/disney.sol\":6082:6083  i */\n      dup3\n        /* \"Disney/disney.sol\":6070:6084  Atracciones[i] */\n      dup2\n      sload\n      dup2\n      lt\n      tag_131\n      jumpi\n      invalid\n    tag_131:\n      swap1\n      0x00\n      mstore\n      keccak256(0x00, 0x20)\n      add\n        /* \"Disney/disney.sol\":6051:6085  MappingAtracciones[Atracciones[i]] */\n      mload(0x40)\n      tag_133\n      swap2\n      swap1\n      tag_88\n      jump\t// in\n    tag_133:\n      swap1\n      dup2\n      mstore\n      0x20\n      add\n      mload(0x40)\n      dup1\n      swap2\n      sub\n      swap1\n      keccak256\n        /* \"Disney/disney.sol\":6051:6092  MappingAtracciones[Atracciones[i]].estado */\n      0x02\n      add\n      0x00\n      swap1\n      sload\n      swap1\n      0x0100\n      exp\n      swap1\n      div\n      0xff\n      and\n        /* \"Disney/disney.sol\":6047:6203  if (MappingAtracciones[Atracciones[i]].estado) {\r... */\n      iszero\n      tag_134\n      jumpi\n        /* \"Disney/disney.sol\":6151:6162  disponibles */\n      dup2\n        /* \"Disney/disney.sol\":6171:6182  Atracciones */\n      0x04\n        /* \"Disney/disney.sol\":6183:6184  i */\n      dup3\n        /* \"Disney/disney.sol\":6171:6185  Atracciones[i] */\n      dup2\n      sload\n      dup2\n      lt\n      tag_135\n      jumpi\n      invalid\n    tag_135:\n      swap1\n      0x00\n      mstore\n      keccak256(0x00, 0x20)\n      add\n        /* \"Disney/disney.sol\":6134:6186  abi.encodePacked(disponibles, \" | \", Atracciones[i]) */\n      add(0x20, mload(0x40))\n      tag_137\n      swap3\n      swap2\n      swap1\n      tag_138\n      jump\t// in\n    tag_137:\n      mload(0x40)\n      0x20\n      dup2\n      dup4\n      sub\n      sub\n      dup2\n      mstore\n      swap1\n      0x40\n      mstore\n        /* \"Disney/disney.sol\":6113:6187  disponibles = string(abi.encodePacked(disponibles, \" | \", Atracciones[i])) */\n      swap2\n      pop\n        /* \"Disney/disney.sol\":6047:6203  if (MappingAtracciones[Atracciones[i]].estado) {\r... */\n    tag_134:\n        /* \"Disney/disney.sol\":6027:6030  i++ */\n      dup1\n      dup1\n      0x01\n      add\n      swap2\n      pop\n      pop\n        /* \"Disney/disney.sol\":5986:6214  for (uint i = 0; i < Atracciones.length; i++) {\r... */\n      jump(tag_128)\n    tag_129:\n      pop\n        /* \"Disney/disney.sol\":6233:6244  disponibles */\n      dup1\n        /* \"Disney/disney.sol\":6226:6244  return disponibles */\n      swap2\n      pop\n      pop\n        /* \"Disney/disney.sol\":5869:6252  function AtraccionesDisponibles() public view returns (string memory) {\r... */\n      swap1\n      jump\t// out\n        /* \"Disney/disney.sol\":3320:3747  function NuevaAtraccion(string memory _nombreAtraccion, uint _precio) public Unicamente(msg.sender) {\r... */\n    tag_31:\n        /* \"Disney/disney.sol\":3408:3418  msg.sender */\n      caller\n        /* \"Disney/disney.sol\":2513:2518  owner */\n      0x01\n      0x00\n      swap1\n      sload\n      swap1\n      0x0100\n      exp\n      swap1\n      div\n      0xffffffffffffffffffffffffffffffffffffffff\n      and\n        /* \"Disney/disney.sol\":2499:2518  _direccion == owner */\n      0xffffffffffffffffffffffffffffffffffffffff\n      and\n        /* \"Disney/disney.sol\":2499:2509  _direccion */\n      dup2\n        /* \"Disney/disney.sol\":2499:2518  _direccion == owner */\n      0xffffffffffffffffffffffffffffffffffffffff\n      and\n      eq\n        /* \"Disney/disney.sol\":2490:2567  require( _direccion == owner, \"No tienes permiso para ejecutar esta acción\") */\n      tag_140\n      jumpi\n      mload(0x40)\n      0x08c379a000000000000000000000000000000000000000000000000000000000\n      dup2\n      mstore\n      0x04\n      add\n      tag_141\n      swap1\n      tag_142\n      jump\t// in\n    tag_141:\n      mload(0x40)\n      dup1\n      swap2\n      sub\n      swap1\n      revert\n    tag_140:\n        /* \"Disney/disney.sol\":3508:3550  atraccion(_nombreAtraccion, _precio, true) */\n      mload(0x40)\n      dup1\n      0x60\n      add\n      0x40\n      mstore\n      dup1\n        /* \"Disney/disney.sol\":3518:3534  _nombreAtraccion */\n      dup5\n        /* \"Disney/disney.sol\":3508:3550  atraccion(_nombreAtraccion, _precio, true) */\n      dup2\n      mstore\n      0x20\n      add\n        /* \"Disney/disney.sol\":3536:3543  _precio */\n      dup4\n        /* \"Disney/disney.sol\":3508:3550  atraccion(_nombreAtraccion, _precio, true) */\n      dup2\n      mstore\n      0x20\n      add\n        /* \"Disney/disney.sol\":3545:3549  true */\n      0x01\n        /* \"Disney/disney.sol\":3508:3550  atraccion(_nombreAtraccion, _precio, true) */\n      iszero\n      iszero\n      dup2\n      mstore\n      pop\n        /* \"Disney/disney.sol\":3469:3487  MappingAtracciones */\n      0x03\n        /* \"Disney/disney.sol\":3488:3504  _nombreAtraccion */\n      dup5\n        /* \"Disney/disney.sol\":3469:3505  MappingAtracciones[_nombreAtraccion] */\n      mload(0x40)\n      tag_144\n      swap2\n      swap1\n      tag_84\n      jump\t// in\n    tag_144:\n      swap1\n      dup2\n      mstore\n      0x20\n      add\n      mload(0x40)\n      dup1\n      swap2\n      sub\n      swap1\n      keccak256\n        /* \"Disney/disney.sol\":3469:3550  MappingAtracciones[_nombreAtraccion] = atraccion(_nombreAtraccion, _precio, true) */\n      0x00\n      dup3\n      add\n      mload\n      dup2\n      0x00\n      add\n      swap1\n      dup1\n      mload\n      swap1\n      0x20\n      add\n      swap1\n      tag_145\n      swap3\n      swap2\n      swap1\n      tag_146\n      jump\t// in\n    tag_145:\n      pop\n      0x20\n      dup3\n      add\n      mload\n      dup2\n      0x01\n      add\n      sstore\n      0x40\n      dup3\n      add\n      mload\n      dup2\n      0x02\n      add\n      exp(0x0100, 0x00)\n      dup2\n      sload\n      dup2\n      0xff\n      mul\n      not\n      and\n      swap1\n      dup4\n      iszero\n      iszero\n      mul\n      or\n      swap1\n      sstore\n      pop\n      swap1\n      pop\n      pop\n        /* \"Disney/disney.sol\":3593:3604  Atracciones */\n      0x04\n        /* \"Disney/disney.sol\":3610:3626  _nombreAtraccion */\n      dup4\n        /* \"Disney/disney.sol\":3593:3627  Atracciones.push(_nombreAtraccion) */\n      swap1\n      dup1\n      0x01\n      dup2\n      sload\n      add\n      dup1\n      dup3\n      sstore\n      dup1\n      swap2\n      pop\n      pop\n      0x01\n      swap1\n      sub\n      swap1\n      0x00\n      mstore\n      keccak256(0x00, 0x20)\n      add\n      0x00\n      swap1\n      swap2\n      swap1\n      swap2\n      swap1\n      swap2\n      pop\n      swap1\n      dup1\n      mload\n      swap1\n      0x20\n      add\n      swap1\n      tag_148\n      swap3\n      swap2\n      swap1\n      tag_146\n      jump\t// in\n    tag_148:\n      pop\n        /* \"Disney/disney.sol\":3697:3739  nueva_atraccion(_nombreAtraccion, _precio) */\n      0xfc9ecd7a6c2ca96d38526a0b9cc22f2474ff8e596dd348edaab06be905ebe378\n        /* \"Disney/disney.sol\":3713:3729  _nombreAtraccion */\n      dup4\n        /* \"Disney/disney.sol\":3731:3738  _precio */\n      dup4\n        /* \"Disney/disney.sol\":3697:3739  nueva_atraccion(_nombreAtraccion, _precio) */\n      mload(0x40)\n      tag_149\n      swap3\n      swap2\n      swap1\n      tag_150\n      jump\t// in\n    tag_149:\n      mload(0x40)\n      dup1\n      swap2\n      sub\n      swap1\n      log1\n        /* \"Disney/disney.sol\":3320:3747  function NuevaAtraccion(string memory _nombreAtraccion, uint _precio) public Unicamente(msg.sender) {\r... */\n      pop\n      pop\n      pop\n      jump\t// out\n        /* \"Disney/disney.sol\":7964:8073  function Historial () public returns (string[] memory) {\r... */\n    tag_34:\n        /* \"Disney/disney.sol\":8002:8017  string[] memory */\n      0x60\n        /* \"Disney/disney.sol\":8037:8053  HistorialCliente */\n      0x05\n        /* \"Disney/disney.sol\":8037:8065  HistorialCliente[msg.sender] */\n      0x00\n        /* \"Disney/disney.sol\":8054:8064  msg.sender */\n      caller\n        /* \"Disney/disney.sol\":8037:8065  HistorialCliente[msg.sender] */\n      0xffffffffffffffffffffffffffffffffffffffff\n      and\n      0xffffffffffffffffffffffffffffffffffffffff\n      and\n      dup2\n      mstore\n      0x20\n      add\n      swap1\n      dup2\n      mstore\n      0x20\n      add\n      0x00\n      keccak256\n        /* \"Disney/disney.sol\":8030:8065  return HistorialCliente[msg.sender] */\n      dup1\n      sload\n      dup1\n      0x20\n      mul\n      0x20\n      add\n      mload(0x40)\n      swap1\n      dup2\n      add\n      0x40\n      mstore\n      dup1\n      swap3\n      swap2\n      swap1\n      dup2\n      dup2\n      mstore\n      0x20\n      add\n      0x00\n      swap1\n    tag_152:\n      dup3\n      dup3\n      lt\n      iszero\n      tag_153\n      jumpi\n      dup4\n      dup3\n      swap1\n      0x00\n      mstore\n      keccak256(0x00, 0x20)\n      add\n      dup1\n      sload\n      0x01\n      dup2\n      0x01\n      and\n      iszero\n      0x0100\n      mul\n      sub\n      and\n      0x02\n      swap1\n      div\n      dup1\n      0x1f\n      add\n      0x20\n      dup1\n      swap2\n      div\n      mul\n      0x20\n      add\n      mload(0x40)\n      swap1\n      dup2\n      add\n      0x40\n      mstore\n      dup1\n      swap3\n      swap2\n      swap1\n      dup2\n      dup2\n      mstore\n      0x20\n      add\n      dup3\n      dup1\n      sload\n      0x01\n      dup2\n      0x01\n      and\n      iszero\n      0x0100\n      mul\n      sub\n      and\n      0x02\n      swap1\n      div\n      dup1\n      iszero\n      tag_155\n      jumpi\n      dup1\n      0x1f\n      lt\n      tag_156\n      jumpi\n      0x0100\n      dup1\n      dup4\n      sload\n      div\n      mul\n      dup4\n      mstore\n      swap2\n      0x20\n      add\n      swap2\n      jump(tag_155)\n    tag_156:\n      dup3\n      add\n      swap2\n      swap1\n      0x00\n      mstore\n      keccak256(0x00, 0x20)\n      swap1\n    tag_157:\n      dup2\n      sload\n      dup2\n      mstore\n      swap1\n      0x01\n      add\n      swap1\n      0x20\n      add\n      dup1\n      dup4\n      gt\n      tag_157\n      jumpi\n      dup3\n      swap1\n      sub\n      0x1f\n      and\n      dup3\n      add\n      swap2\n    tag_155:\n      pop\n      pop\n      pop\n      pop\n      pop\n      dup2\n      mstore\n      0x20\n      add\n      swap1\n      0x01\n      add\n      swap1\n      jump(tag_152)\n    tag_153:\n      pop\n      pop\n      pop\n      pop\n      swap1\n      pop\n        /* \"Disney/disney.sol\":7964:8073  function Historial () public returns (string[] memory) {\r... */\n      swap1\n      jump\t// out\n        /* \"Disney/disney.sol\":2257:2384  function GenerarTokens (uint _numTokens) public Unicamente(msg.sender) {\r... */\n    tag_41:\n        /* \"Disney/disney.sol\":2316:2326  msg.sender */\n      caller\n        /* \"Disney/disney.sol\":2513:2518  owner */\n      0x01\n      0x00\n      swap1\n      sload\n      swap1\n      0x0100\n      exp\n      swap1\n      div\n      0xffffffffffffffffffffffffffffffffffffffff\n      and\n        /* \"Disney/disney.sol\":2499:2518  _direccion == owner */\n      0xffffffffffffffffffffffffffffffffffffffff\n      and\n        /* \"Disney/disney.sol\":2499:2509  _direccion */\n      dup2\n        /* \"Disney/disney.sol\":2499:2518  _direccion == owner */\n      0xffffffffffffffffffffffffffffffffffffffff\n      and\n      eq\n        /* \"Disney/disney.sol\":2490:2567  require( _direccion == owner, \"No tienes permiso para ejecutar esta acción\") */\n      tag_159\n      jumpi\n      mload(0x40)\n      0x08c379a000000000000000000000000000000000000000000000000000000000\n      dup2\n      mstore\n      0x04\n      add\n      tag_160\n      swap1\n      tag_142\n      jump\t// in\n    tag_160:\n      mload(0x40)\n      dup1\n      swap2\n      sub\n      swap1\n      revert\n    tag_159:\n        /* \"Disney/disney.sol\":2339:2344  token */\n      0x00\n      dup1\n      sload\n      swap1\n      0x0100\n      exp\n      swap1\n      div\n      0xffffffffffffffffffffffffffffffffffffffff\n      and\n        /* \"Disney/disney.sol\":2339:2364  token.increaseTotalSupply */\n      0xffffffffffffffffffffffffffffffffffffffff\n      and\n      0x1d43cc98\n        /* \"Disney/disney.sol\":2365:2375  _numTokens */\n      dup4\n        /* \"Disney/disney.sol\":2339:2376  token.increaseTotalSupply(_numTokens) */\n      mload(0x40)\n      dup3\n      0xffffffff\n      and\n      0xe0\n      shl\n      dup2\n      mstore\n      0x04\n      add\n      tag_162\n      swap2\n      swap1\n      tag_51\n      jump\t// in\n    tag_162:\n      0x00\n      mload(0x40)\n      dup1\n      dup4\n      sub\n      dup2\n      0x00\n      dup8\n      dup1\n      extcodesize\n      iszero\n      dup1\n      iszero\n      tag_163\n      jumpi\n      0x00\n      dup1\n      revert\n    tag_163:\n      pop\n      gas\n      call\n      iszero\n      dup1\n      iszero\n      tag_165\n      jumpi\n      returndatasize\n      0x00\n      dup1\n      returndatacopy\n      revert(0x00, returndatasize)\n    tag_165:\n      pop\n      pop\n      pop\n      pop\n        /* \"Disney/disney.sol\":2257:2384  function GenerarTokens (uint _numTokens) public Unicamente(msg.sender) {\r... */\n      pop\n      pop\n      jump\t// out\n        /* \"Disney/disney.sol\":369:397  address payable public owner */\n    tag_44:\n      0x01\n      0x00\n      swap1\n      sload\n      swap1\n      0x0100\n      exp\n      swap1\n      div\n      0xffffffffffffffffffffffffffffffffffffffff\n      and\n      dup2\n      jump\t// out\n        /* \"Disney/disney.sol\":1937:2041  function BalanceOf() public view returns (uint) {\r... */\n    tag_49:\n        /* \"Disney/disney.sol\":1979:1983  uint */\n      0x00\n        /* \"Disney/disney.sol\":2003:2008  token */\n      dup1\n      0x00\n      swap1\n      sload\n      swap1\n      0x0100\n      exp\n      swap1\n      div\n      0xffffffffffffffffffffffffffffffffffffffff\n      and\n        /* \"Disney/disney.sol\":2003:2018  token.balanceOf */\n      0xffffffffffffffffffffffffffffffffffffffff\n      and\n      0x70a08231\n        /* \"Disney/disney.sol\":2027:2031  this */\n      address\n        /* \"Disney/disney.sol\":2003:2033  token.balanceOf(address(this)) */\n      mload(0x40)\n      dup3\n      0xffffffff\n      and\n      0xe0\n      shl\n      dup2\n      mstore\n      0x04\n      add\n      tag_167\n      swap2\n      swap1\n      tag_168\n      jump\t// in\n    tag_167:\n      0x20\n      mload(0x40)\n      dup1\n      dup4\n      sub\n      dup2\n      dup7\n      dup1\n      extcodesize\n      iszero\n      dup1\n      iszero\n      tag_169\n      jumpi\n      0x00\n      dup1\n      revert\n    tag_169:\n      pop\n      gas\n      staticcall\n      iszero\n      dup1\n      iszero\n      tag_171\n      jumpi\n      returndatasize\n      0x00\n      dup1\n      returndatacopy\n      revert(0x00, returndatasize)\n    tag_171:\n      pop\n      pop\n      pop\n      pop\n      mload(0x40)\n      returndatasize\n      not(0x1f)\n      0x1f\n      dup3\n      add\n      and\n      dup3\n      add\n      dup1\n      0x40\n      mstore\n      pop\n      dup2\n      add\n      swap1\n      tag_172\n      swap2\n      swap1\n      tag_173\n      jump\t// in\n    tag_172:\n        /* \"Disney/disney.sol\":1996:2033  return token.balanceOf(address(this)) */\n      swap1\n      pop\n        /* \"Disney/disney.sol\":1937:2041  function BalanceOf() public view returns (uint) {\r... */\n      swap1\n      jump\t// out\n        /* \"Disney/disney.sol\":3789:4772  function BajarAtraccion (string memory _nombreAtraccion) public Unicamente(msg.sender) {\r... */\n    tag_55:\n        /* \"Disney/disney.sol\":3864:3874  msg.sender */\n      caller\n        /* \"Disney/disney.sol\":2513:2518  owner */\n      0x01\n      0x00\n      swap1\n      sload\n      swap1\n      0x0100\n      exp\n      swap1\n      div\n      0xffffffffffffffffffffffffffffffffffffffff\n      and\n        /* \"Disney/disney.sol\":2499:2518  _direccion == owner */\n      0xffffffffffffffffffffffffffffffffffffffff\n      and\n        /* \"Disney/disney.sol\":2499:2509  _direccion */\n      dup2\n        /* \"Disney/disney.sol\":2499:2518  _direccion == owner */\n      0xffffffffffffffffffffffffffffffffffffffff\n      and\n      eq\n        /* \"Disney/disney.sol\":2490:2567  require( _direccion == owner, \"No tienes permiso para ejecutar esta acción\") */\n      tag_175\n      jumpi\n      mload(0x40)\n      0x08c379a000000000000000000000000000000000000000000000000000000000\n      dup2\n      mstore\n      0x04\n      add\n      tag_176\n      swap1\n      tag_142\n      jump\t// in\n    tag_176:\n      mload(0x40)\n      dup1\n      swap2\n      sub\n      swap1\n      revert\n    tag_175:\n        /* \"Disney/disney.sol\":3887:3896  bool alta */\n      0x00\n        /* \"Disney/disney.sol\":3982:3988  uint i */\n      dup1\n        /* \"Disney/disney.sol\":3977:4603  for (uint i = 0; i < Atracciones.length; i++) {\r... */\n    tag_178:\n        /* \"Disney/disney.sol\":3998:4009  Atracciones */\n      0x04\n        /* \"Disney/disney.sol\":3998:4016  Atracciones.length */\n      dup1\n      sload\n      swap1\n      pop\n        /* \"Disney/disney.sol\":3994:3995  i */\n      dup2\n        /* \"Disney/disney.sol\":3994:4016  i < Atracciones.length */\n      lt\n        /* \"Disney/disney.sol\":3977:4603  for (uint i = 0; i < Atracciones.length; i++) {\r... */\n      iszero\n      tag_179\n      jumpi\n        /* \"Disney/disney.sol\":4116:4132  _nombreAtraccion */\n      dup4\n        /* \"Disney/disney.sol\":4099:4133  abi.encodePacked(_nombreAtraccion) */\n      add(0x20, mload(0x40))\n      tag_181\n      swap2\n      swap1\n      tag_84\n      jump\t// in\n    tag_181:\n      mload(0x40)\n      0x20\n      dup2\n      dup4\n      sub\n      sub\n      dup2\n      mstore\n      swap1\n      0x40\n      mstore\n        /* \"Disney/disney.sol\":4089:4134  keccak256(abi.encodePacked(_nombreAtraccion)) */\n      dup1\n      mload\n      swap1\n      0x20\n      add\n      keccak256\n        /* \"Disney/disney.sol\":4069:4080  Atracciones */\n      0x04\n        /* \"Disney/disney.sol\":4081:4082  i */\n      dup3\n        /* \"Disney/disney.sol\":4069:4083  Atracciones[i] */\n      dup2\n      sload\n      dup2\n      lt\n      tag_182\n      jumpi\n      invalid\n    tag_182:\n      swap1\n      0x00\n      mstore\n      keccak256(0x00, 0x20)\n      add\n        /* \"Disney/disney.sol\":4052:4084  abi.encodePacked(Atracciones[i]) */\n      add(0x20, mload(0x40))\n      tag_184\n      swap2\n      swap1\n      tag_88\n      jump\t// in\n    tag_184:\n      mload(0x40)\n      0x20\n      dup2\n      dup4\n      sub\n      sub\n      dup2\n      mstore\n      swap1\n      0x40\n      mstore\n        /* \"Disney/disney.sol\":4042:4085  keccak256(abi.encodePacked(Atracciones[i])) */\n      dup1\n      mload\n      swap1\n      0x20\n      add\n      keccak256\n        /* \"Disney/disney.sol\":4042:4134  keccak256(abi.encodePacked(Atracciones[i])) == keccak256(abi.encodePacked(_nombreAtraccion)) */\n      eq\n        /* \"Disney/disney.sol\":4038:4592  if (keccak256(abi.encodePacked(Atracciones[i])) == keccak256(abi.encodePacked(_nombreAtraccion))) {\r... */\n      iszero\n      tag_185\n      jumpi\n        /* \"Disney/disney.sol\":4162:4166  true */\n      0x01\n        /* \"Disney/disney.sol\":4155:4166  alta = true */\n      swap2\n      pop\n        /* \"Disney/disney.sol\":4189:4207  MappingAtracciones */\n      0x03\n        /* \"Disney/disney.sol\":4208:4224  _nombreAtraccion */\n      dup5\n        /* \"Disney/disney.sol\":4189:4225  MappingAtracciones[_nombreAtraccion] */\n      mload(0x40)\n      tag_186\n      swap2\n      swap1\n      tag_84\n      jump\t// in\n    tag_186:\n      swap1\n      dup2\n      mstore\n      0x20\n      add\n      mload(0x40)\n      dup1\n      swap2\n      sub\n      swap1\n      keccak256\n        /* \"Disney/disney.sol\":4189:4232  MappingAtracciones[_nombreAtraccion].estado */\n      0x02\n      add\n      0x00\n      swap1\n      sload\n      swap1\n      0x0100\n      exp\n      swap1\n      div\n      0xff\n      and\n        /* \"Disney/disney.sol\":4185:4553  if (MappingAtracciones[_nombreAtraccion].estado) {\r... */\n      iszero\n      tag_187\n      jumpi\n        /* \"Disney/disney.sol\":4364:4369  false */\n      0x00\n        /* \"Disney/disney.sol\":4318:4336  MappingAtracciones */\n      0x03\n        /* \"Disney/disney.sol\":4337:4353  _nombreAtraccion */\n      dup6\n        /* \"Disney/disney.sol\":4318:4354  MappingAtracciones[_nombreAtraccion] */\n      mload(0x40)\n      tag_188\n      swap2\n      swap1\n      tag_84\n      jump\t// in\n    tag_188:\n      swap1\n      dup2\n      mstore\n      0x20\n      add\n      mload(0x40)\n      dup1\n      swap2\n      sub\n      swap1\n      keccak256\n        /* \"Disney/disney.sol\":4318:4361  MappingAtracciones[_nombreAtraccion].estado */\n      0x02\n      add\n      0x00\n        /* \"Disney/disney.sol\":4318:4369  MappingAtracciones[_nombreAtraccion].estado = false */\n      0x0100\n      exp\n      dup2\n      sload\n      dup2\n      0xff\n      mul\n      not\n      and\n      swap1\n      dup4\n      iszero\n      iszero\n      mul\n      or\n      swap1\n      sstore\n      pop\n        /* \"Disney/disney.sol\":4185:4553  if (MappingAtracciones[_nombreAtraccion].estado) {\r... */\n      jump(tag_189)\n    tag_187:\n        /* \"Disney/disney.sol\":4426:4444  MappingAtracciones */\n      0x03\n        /* \"Disney/disney.sol\":4445:4461  _nombreAtraccion */\n      dup5\n        /* \"Disney/disney.sol\":4426:4462  MappingAtracciones[_nombreAtraccion] */\n      mload(0x40)\n      tag_190\n      swap2\n      swap1\n      tag_84\n      jump\t// in\n    tag_190:\n      swap1\n      dup2\n      mstore\n      0x20\n      add\n      mload(0x40)\n      dup1\n      swap2\n      sub\n      swap1\n      keccak256\n        /* \"Disney/disney.sol\":4426:4469  MappingAtracciones[_nombreAtraccion].estado */\n      0x02\n      add\n      0x00\n      swap1\n      sload\n      swap1\n      0x0100\n      exp\n      swap1\n      div\n      0xff\n      and\n        /* \"Disney/disney.sol\":4418:4533  require(MappingAtracciones[_nombreAtraccion].estado, \"No se puede dar de baja a una atraccion que ya esta de baja\") */\n      tag_191\n      jumpi\n      mload(0x40)\n      0x08c379a000000000000000000000000000000000000000000000000000000000\n      dup2\n      mstore\n      0x04\n      add\n      tag_192\n      swap1\n      tag_193\n      jump\t// in\n    tag_192:\n      mload(0x40)\n      dup1\n      swap2\n      sub\n      swap1\n      revert\n    tag_191:\n        /* \"Disney/disney.sol\":4185:4553  if (MappingAtracciones[_nombreAtraccion].estado) {\r... */\n    tag_189:\n        /* \"Disney/disney.sol\":4571:4576  break */\n      jump(tag_179)\n        /* \"Disney/disney.sol\":4038:4592  if (keccak256(abi.encodePacked(Atracciones[i])) == keccak256(abi.encodePacked(_nombreAtraccion))) {\r... */\n    tag_185:\n        /* \"Disney/disney.sol\":4018:4021  i++ */\n      dup1\n      dup1\n      0x01\n      add\n      swap2\n      pop\n      pop\n        /* \"Disney/disney.sol\":3977:4603  for (uint i = 0; i < Atracciones.length; i++) {\r... */\n      jump(tag_178)\n    tag_179:\n      pop\n        /* \"Disney/disney.sol\":4621:4625  alta */\n      dup1\n        /* \"Disney/disney.sol\":4613:4683  require(alta, \"No se puede dar de baja a una atraccion que no exista\") */\n      tag_194\n      jumpi\n      mload(0x40)\n      0x08c379a000000000000000000000000000000000000000000000000000000000\n      dup2\n      mstore\n      0x04\n      add\n      tag_195\n      swap1\n      tag_196\n      jump\t// in\n    tag_195:\n      mload(0x40)\n      dup1\n      swap2\n      sub\n      swap1\n      revert\n    tag_194:\n        /* \"Disney/disney.sol\":4732:4764  baja_atraccion(_nombreAtraccion) */\n      0x24ba6c881728980191398db8dcfd8ed4f6aeb1c08df349d63f3b85075f3e86dd\n        /* \"Disney/disney.sol\":4747:4763  _nombreAtraccion */\n      dup4\n        /* \"Disney/disney.sol\":4732:4764  baja_atraccion(_nombreAtraccion) */\n      mload(0x40)\n      tag_197\n      swap2\n      swap1\n      tag_26\n      jump\t// in\n    tag_197:\n      mload(0x40)\n      dup1\n      swap2\n      sub\n      swap1\n      log1\n        /* \"Disney/disney.sol\":2578:2579  _ */\n      pop\n        /* \"Disney/disney.sol\":3789:4772  function BajarAtraccion (string memory _nombreAtraccion) public Unicamente(msg.sender) {\r... */\n      pop\n      pop\n      jump\t// out\n        /* \"Disney/disney.sol\":4818:5816  function SubirAtraccion (string memory _nombreAtraccion) public Unicamente(msg.sender) {\r... */\n    tag_59:\n        /* \"Disney/disney.sol\":4893:4903  msg.sender */\n      caller\n        /* \"Disney/disney.sol\":2513:2518  owner */\n      0x01\n      0x00\n      swap1\n      sload\n      swap1\n      0x0100\n      exp\n      swap1\n      div\n      0xffffffffffffffffffffffffffffffffffffffff\n      and\n        /* \"Disney/disney.sol\":2499:2518  _direccion == owner */\n      0xffffffffffffffffffffffffffffffffffffffff\n      and\n        /* \"Disney/disney.sol\":2499:2509  _direccion */\n      dup2\n        /* \"Disney/disney.sol\":2499:2518  _direccion == owner */\n      0xffffffffffffffffffffffffffffffffffffffff\n      and\n      eq\n        /* \"Disney/disney.sol\":2490:2567  require( _direccion == owner, \"No tienes permiso para ejecutar esta acción\") */\n      tag_199\n      jumpi\n      mload(0x40)\n      0x08c379a000000000000000000000000000000000000000000000000000000000\n      dup2\n      mstore\n      0x04\n      add\n      tag_200\n      swap1\n      tag_142\n      jump\t// in\n    tag_200:\n      mload(0x40)\n      dup1\n      swap2\n      sub\n      swap1\n      revert\n    tag_199:\n        /* \"Disney/disney.sol\":4916:4925  bool alta */\n      0x00\n        /* \"Disney/disney.sol\":5011:5017  uint i */\n      dup1\n        /* \"Disney/disney.sol\":5006:5638  for (uint i = 0; i < Atracciones.length; i++) {\r... */\n    tag_202:\n        /* \"Disney/disney.sol\":5027:5038  Atracciones */\n      0x04\n        /* \"Disney/disney.sol\":5027:5045  Atracciones.length */\n      dup1\n      sload\n      swap1\n      pop\n        /* \"Disney/disney.sol\":5023:5024  i */\n      dup2\n        /* \"Disney/disney.sol\":5023:5045  i < Atracciones.length */\n      lt\n        /* \"Disney/disney.sol\":5006:5638  for (uint i = 0; i < Atracciones.length; i++) {\r... */\n      iszero\n      tag_203\n      jumpi\n        /* \"Disney/disney.sol\":5145:5161  _nombreAtraccion */\n      dup4\n        /* \"Disney/disney.sol\":5128:5162  abi.encodePacked(_nombreAtraccion) */\n      add(0x20, mload(0x40))\n      tag_205\n      swap2\n      swap1\n      tag_84\n      jump\t// in\n    tag_205:\n      mload(0x40)\n      0x20\n      dup2\n      dup4\n      sub\n      sub\n      dup2\n      mstore\n      swap1\n      0x40\n      mstore\n        /* \"Disney/disney.sol\":5118:5163  keccak256(abi.encodePacked(_nombreAtraccion)) */\n      dup1\n      mload\n      swap1\n      0x20\n      add\n      keccak256\n        /* \"Disney/disney.sol\":5098:5109  Atracciones */\n      0x04\n        /* \"Disney/disney.sol\":5110:5111  i */\n      dup3\n        /* \"Disney/disney.sol\":5098:5112  Atracciones[i] */\n      dup2\n      sload\n      dup2\n      lt\n      tag_206\n      jumpi\n      invalid\n    tag_206:\n      swap1\n      0x00\n      mstore\n      keccak256(0x00, 0x20)\n      add\n        /* \"Disney/disney.sol\":5081:5113  abi.encodePacked(Atracciones[i]) */\n      add(0x20, mload(0x40))\n      tag_208\n      swap2\n      swap1\n      tag_88\n      jump\t// in\n    tag_208:\n      mload(0x40)\n      0x20\n      dup2\n      dup4\n      sub\n      sub\n      dup2\n      mstore\n      swap1\n      0x40\n      mstore\n        /* \"Disney/disney.sol\":5071:5114  keccak256(abi.encodePacked(Atracciones[i])) */\n      dup1\n      mload\n      swap1\n      0x20\n      add\n      keccak256\n        /* \"Disney/disney.sol\":5071:5163  keccak256(abi.encodePacked(Atracciones[i])) == keccak256(abi.encodePacked(_nombreAtraccion)) */\n      eq\n        /* \"Disney/disney.sol\":5067:5627  if (keccak256(abi.encodePacked(Atracciones[i])) == keccak256(abi.encodePacked(_nombreAtraccion))) {\r... */\n      iszero\n      tag_209\n      jumpi\n        /* \"Disney/disney.sol\":5191:5195  true */\n      0x01\n        /* \"Disney/disney.sol\":5184:5195  alta = true */\n      swap2\n      pop\n        /* \"Disney/disney.sol\":5219:5237  MappingAtracciones */\n      0x03\n        /* \"Disney/disney.sol\":5238:5254  _nombreAtraccion */\n      dup5\n        /* \"Disney/disney.sol\":5219:5255  MappingAtracciones[_nombreAtraccion] */\n      mload(0x40)\n      tag_210\n      swap2\n      swap1\n      tag_84\n      jump\t// in\n    tag_210:\n      swap1\n      dup2\n      mstore\n      0x20\n      add\n      mload(0x40)\n      dup1\n      swap2\n      sub\n      swap1\n      keccak256\n        /* \"Disney/disney.sol\":5219:5262  MappingAtracciones[_nombreAtraccion].estado */\n      0x02\n      add\n      0x00\n      swap1\n      sload\n      swap1\n      0x0100\n      exp\n      swap1\n      div\n      0xff\n      and\n        /* \"Disney/disney.sol\":5214:5588  if (!MappingAtracciones[_nombreAtraccion].estado) {\r... */\n      tag_211\n      jumpi\n        /* \"Disney/disney.sol\":5394:5398  true */\n      0x01\n        /* \"Disney/disney.sol\":5348:5366  MappingAtracciones */\n      0x03\n        /* \"Disney/disney.sol\":5367:5383  _nombreAtraccion */\n      dup6\n        /* \"Disney/disney.sol\":5348:5384  MappingAtracciones[_nombreAtraccion] */\n      mload(0x40)\n      tag_212\n      swap2\n      swap1\n      tag_84\n      jump\t// in\n    tag_212:\n      swap1\n      dup2\n      mstore\n      0x20\n      add\n      mload(0x40)\n      dup1\n      swap2\n      sub\n      swap1\n      keccak256\n        /* \"Disney/disney.sol\":5348:5391  MappingAtracciones[_nombreAtraccion].estado */\n      0x02\n      add\n      0x00\n        /* \"Disney/disney.sol\":5348:5398  MappingAtracciones[_nombreAtraccion].estado = true */\n      0x0100\n      exp\n      dup2\n      sload\n      dup2\n      0xff\n      mul\n      not\n      and\n      swap1\n      dup4\n      iszero\n      iszero\n      mul\n      or\n      swap1\n      sstore\n      pop\n        /* \"Disney/disney.sol\":5214:5588  if (!MappingAtracciones[_nombreAtraccion].estado) {\r... */\n      jump(tag_213)\n    tag_211:\n        /* \"Disney/disney.sol\":5456:5474  MappingAtracciones */\n      0x03\n        /* \"Disney/disney.sol\":5475:5491  _nombreAtraccion */\n      dup5\n        /* \"Disney/disney.sol\":5456:5492  MappingAtracciones[_nombreAtraccion] */\n      mload(0x40)\n      tag_214\n      swap2\n      swap1\n      tag_84\n      jump\t// in\n    tag_214:\n      swap1\n      dup2\n      mstore\n      0x20\n      add\n      mload(0x40)\n      dup1\n      swap2\n      sub\n      swap1\n      keccak256\n        /* \"Disney/disney.sol\":5456:5499  MappingAtracciones[_nombreAtraccion].estado */\n      0x02\n      add\n      0x00\n      swap1\n      sload\n      swap1\n      0x0100\n      exp\n      swap1\n      div\n      0xff\n      and\n        /* \"Disney/disney.sol\":5455:5499  !MappingAtracciones[_nombreAtraccion].estado */\n      iszero\n        /* \"Disney/disney.sol\":5447:5568  require(!MappingAtracciones[_nombreAtraccion].estado, \"No se puede dar de alta a una atraccion que ya esta dada de alta\") */\n      tag_215\n      jumpi\n      mload(0x40)\n      0x08c379a000000000000000000000000000000000000000000000000000000000\n      dup2\n      mstore\n      0x04\n      add\n      tag_216\n      swap1\n      tag_217\n      jump\t// in\n    tag_216:\n      mload(0x40)\n      dup1\n      swap2\n      sub\n      swap1\n      revert\n    tag_215:\n        /* \"Disney/disney.sol\":5214:5588  if (!MappingAtracciones[_nombreAtraccion].estado) {\r... */\n    tag_213:\n        /* \"Disney/disney.sol\":5606:5611  break */\n      jump(tag_203)\n        /* \"Disney/disney.sol\":5067:5627  if (keccak256(abi.encodePacked(Atracciones[i])) == keccak256(abi.encodePacked(_nombreAtraccion))) {\r... */\n    tag_209:\n        /* \"Disney/disney.sol\":5047:5050  i++ */\n      dup1\n      dup1\n      0x01\n      add\n      swap2\n      pop\n      pop\n        /* \"Disney/disney.sol\":5006:5638  for (uint i = 0; i < Atracciones.length; i++) {\r... */\n      jump(tag_202)\n    tag_203:\n      pop\n        /* \"Disney/disney.sol\":5656:5660  alta */\n      dup1\n        /* \"Disney/disney.sol\":5648:5718  require(alta, \"No se puede dar de alta a una atraccion que no exista\") */\n      tag_218\n      jumpi\n      mload(0x40)\n      0x08c379a000000000000000000000000000000000000000000000000000000000\n      dup2\n      mstore\n      0x04\n      add\n      tag_219\n      swap1\n      tag_220\n      jump\t// in\n    tag_219:\n      mload(0x40)\n      dup1\n      swap2\n      sub\n      swap1\n      revert\n    tag_218:\n        /* \"Disney/disney.sol\":5775:5808  subir_atraccion(_nombreAtraccion) */\n      0x93bf52a97553b4b909dc0c898ca0af225afa4b2926e6d4f002f1470287662fc1\n        /* \"Disney/disney.sol\":5791:5807  _nombreAtraccion */\n      dup4\n        /* \"Disney/disney.sol\":5775:5808  subir_atraccion(_nombreAtraccion) */\n      mload(0x40)\n      tag_221\n      swap2\n      swap1\n      tag_26\n      jump\t// in\n    tag_221:\n      mload(0x40)\n      dup1\n      swap2\n      sub\n      swap1\n      log1\n        /* \"Disney/disney.sol\":2578:2579  _ */\n      pop\n        /* \"Disney/disney.sol\":4818:5816  function SubirAtraccion (string memory _nombreAtraccion) public Unicamente(msg.sender) {\r... */\n      pop\n      pop\n      jump\t// out\n        /* \"Disney/disney.sol\":581:625  mapping (address => cliente) public Clientes */\n    tag_64:\n      mstore(0x20, 0x02)\n      dup1\n      0x00\n      mstore\n      keccak256(0x00, 0x40)\n      0x00\n      swap2\n      pop\n      swap1\n      pop\n      dup1\n      0x00\n      add\n      sload\n      swap1\n      pop\n      dup2\n      jump\t// out\n        /* \"Disney/disney.sol\":3066:3121  mapping (string => atraccion) public MappingAtracciones */\n    tag_69:\n      0x03\n      dup2\n      dup1\n      mload\n      0x20\n      dup2\n      add\n      dup3\n      add\n      dup1\n      mload\n      dup5\n      dup3\n      mstore\n      0x20\n      dup4\n      add\n      0x20\n      dup6\n      add\n      keccak256\n      dup2\n      dup4\n      mstore\n      dup1\n      swap6\n      pop\n      pop\n      pop\n      pop\n      pop\n      pop\n      0x00\n      swap2\n      pop\n      swap1\n      pop\n      dup1\n      0x00\n      add\n      dup1\n      sload\n      0x01\n      dup2\n      0x01\n      and\n      iszero\n      0x0100\n      mul\n      sub\n      and\n      0x02\n      swap1\n      div\n      dup1\n      0x1f\n      add\n      0x20\n      dup1\n      swap2\n      div\n      mul\n      0x20\n      add\n      mload(0x40)\n      swap1\n      dup2\n      add\n      0x40\n      mstore\n      dup1\n      swap3\n      swap2\n      swap1\n      dup2\n      dup2\n      mstore\n      0x20\n      add\n      dup3\n      dup1\n      sload\n      0x01\n      dup2\n      0x01\n      and\n      iszero\n      0x0100\n      mul\n      sub\n      and\n      0x02\n      swap1\n      div\n      dup1\n      iszero\n      tag_222\n      jumpi\n      dup1\n      0x1f\n      lt\n      tag_223\n      jumpi\n      0x0100\n      dup1\n      dup4\n      sload\n      div\n      mul\n      dup4\n      mstore\n      swap2\n      0x20\n      add\n      swap2\n      jump(tag_222)\n    tag_223:\n      dup3\n      add\n      swap2\n      swap1\n      0x00\n      mstore\n      keccak256(0x00, 0x20)\n      swap1\n    tag_224:\n      dup2\n      sload\n      dup2\n      mstore\n      swap1\n      0x01\n      add\n      swap1\n      0x20\n      add\n      dup1\n      dup4\n      gt\n      tag_224\n      jumpi\n      dup3\n      swap1\n      sub\n      0x1f\n      and\n      dup3\n      add\n      swap2\n    tag_222:\n      pop\n      pop\n      pop\n      pop\n      pop\n      swap1\n      dup1\n      0x01\n      add\n      sload\n      swap1\n      dup1\n      0x02\n      add\n      0x00\n      swap1\n      sload\n      swap1\n      0x0100\n      exp\n      swap1\n      div\n      0xff\n      and\n      swap1\n      pop\n      dup4\n      jump\t// out\n        /* \"Disney/disney.sol\":2088:2190  function MisTokens() public view returns(uint) {\r... */\n    tag_74:\n        /* \"Disney/disney.sol\":2129:2133  uint */\n      0x00\n        /* \"Disney/disney.sol\":2155:2160  token */\n      dup1\n      0x00\n      swap1\n      sload\n      swap1\n      0x0100\n      exp\n      swap1\n      div\n      0xffffffffffffffffffffffffffffffffffffffff\n      and\n        /* \"Disney/disney.sol\":2155:2170  token.balanceOf */\n      0xffffffffffffffffffffffffffffffffffffffff\n      and\n      0x70a08231\n        /* \"Disney/disney.sol\":2171:2181  msg.sender */\n      caller\n        /* \"Disney/disney.sol\":2155:2182  token.balanceOf(msg.sender) */\n      mload(0x40)\n      dup3\n      0xffffffff\n      and\n      0xe0\n      shl\n      dup2\n      mstore\n      0x04\n      add\n      tag_226\n      swap2\n      swap1\n      tag_227\n      jump\t// in\n    tag_226:\n      0x20\n      mload(0x40)\n      dup1\n      dup4\n      sub\n      dup2\n      dup7\n      dup1\n      extcodesize\n      iszero\n      dup1\n      iszero\n      tag_228\n      jumpi\n      0x00\n      dup1\n      revert\n    tag_228:\n      pop\n      gas\n      staticcall\n      iszero\n      dup1\n      iszero\n      tag_230\n      jumpi\n      returndatasize\n      0x00\n      dup1\n      returndatacopy\n      revert(0x00, returndatasize)\n    tag_230:\n      pop\n      pop\n      pop\n      pop\n      mload(0x40)\n      returndatasize\n      not(0x1f)\n      0x1f\n      dup3\n      add\n      and\n      dup3\n      add\n      dup1\n      0x40\n      mstore\n      pop\n      dup2\n      add\n      swap1\n      tag_231\n      swap2\n      swap1\n      tag_173\n      jump\t// in\n    tag_231:\n        /* \"Disney/disney.sol\":2148:2182  return token.balanceOf(msg.sender) */\n      swap1\n      pop\n        /* \"Disney/disney.sol\":2088:2190  function MisTokens() public view returns(uint) {\r... */\n      swap1\n      jump\t// out\n        /* \"Disney/disney.sol\":1114:1887  function CompraTokens(uint _numTokens) public payable {\r... */\n    tag_78:\n        /* \"Disney/disney.sol\":1233:1243  uint coste */\n      0x00\n        /* \"Disney/disney.sol\":1246:1270  PrecioTokens(_numTokens) */\n      tag_233\n        /* \"Disney/disney.sol\":1259:1269  _numTokens */\n      dup3\n        /* \"Disney/disney.sol\":1246:1258  PrecioTokens */\n      tag_234\n        /* \"Disney/disney.sol\":1246:1270  PrecioTokens(_numTokens) */\n      jump\t// in\n    tag_233:\n        /* \"Disney/disney.sol\":1233:1270  uint coste = PrecioTokens(_numTokens) */\n      swap1\n      pop\n        /* \"Disney/disney.sol\":1362:1367  coste */\n      dup1\n        /* \"Disney/disney.sol\":1349:1358  msg.value */\n      callvalue\n        /* \"Disney/disney.sol\":1349:1367  msg.value >= coste */\n      lt\n      iszero\n        /* \"Disney/disney.sol\":1340:1402  require (msg.value >= coste, \"Cantidad de ether insuficiente\") */\n      tag_235\n      jumpi\n      mload(0x40)\n      0x08c379a000000000000000000000000000000000000000000000000000000000\n      dup2\n      mstore\n      0x04\n      add\n      tag_236\n      swap1\n      tag_237\n      jump\t// in\n    tag_236:\n      mload(0x40)\n      dup1\n      swap2\n      sub\n      swap1\n      revert\n    tag_235:\n        /* \"Disney/disney.sol\":1511:1521  _numTokens */\n      dup2\n        /* \"Disney/disney.sol\":1496:1507  BalanceOf() */\n      tag_238\n        /* \"Disney/disney.sol\":1496:1505  BalanceOf */\n      tag_49\n        /* \"Disney/disney.sol\":1496:1507  BalanceOf() */\n      jump\t// in\n    tag_238:\n        /* \"Disney/disney.sol\":1496:1521  BalanceOf() >= _numTokens */\n      lt\n      iszero\n        /* \"Disney/disney.sol\":1487:1558  require (BalanceOf() >= _numTokens, \"Cantidad de tokens insuficientes\") */\n      tag_239\n      jumpi\n      mload(0x40)\n      0x08c379a000000000000000000000000000000000000000000000000000000000\n      dup2\n      mstore\n      0x04\n      add\n      tag_240\n      swap1\n      tag_241\n      jump\t// in\n    tag_240:\n      mload(0x40)\n      dup1\n      swap2\n      sub\n      swap1\n      revert\n    tag_239:\n        /* \"Disney/disney.sol\":1625:1635  msg.sender */\n      caller\n        /* \"Disney/disney.sol\":1625:1644  msg.sender.transfer */\n      0xffffffffffffffffffffffffffffffffffffffff\n      and\n        /* \"Disney/disney.sol\":1625:1663  msg.sender.transfer(msg.value - coste) */\n      0x08fc\n        /* \"Disney/disney.sol\":1657:1662  coste */\n      dup3\n        /* \"Disney/disney.sol\":1645:1654  msg.value */\n      callvalue\n        /* \"Disney/disney.sol\":1645:1662  msg.value - coste */\n      sub\n        /* \"Disney/disney.sol\":1625:1663  msg.sender.transfer(msg.value - coste) */\n      swap1\n      dup2\n      iszero\n      mul\n      swap1\n      mload(0x40)\n      0x00\n      mload(0x40)\n      dup1\n      dup4\n      sub\n      dup2\n      dup6\n      dup9\n      dup9\n      call\n      swap4\n      pop\n      pop\n      pop\n      pop\n      iszero\n      dup1\n      iszero\n      tag_243\n      jumpi\n      returndatasize\n      0x00\n      dup1\n      returndatacopy\n      revert(0x00, returndatasize)\n    tag_243:\n      pop\n        /* \"Disney/disney.sol\":1718:1723  token */\n      0x00\n      dup1\n      sload\n      swap1\n      0x0100\n      exp\n      swap1\n      div\n      0xffffffffffffffffffffffffffffffffffffffff\n      and\n        /* \"Disney/disney.sol\":1718:1732  token.transfer */\n      0xffffffffffffffffffffffffffffffffffffffff\n      and\n      0xa9059cbb\n        /* \"Disney/disney.sol\":1733:1743  msg.sender */\n      caller\n        /* \"Disney/disney.sol\":1745:1755  _numTokens */\n      dup5\n        /* \"Disney/disney.sol\":1718:1756  token.transfer(msg.sender, _numTokens) */\n      mload(0x40)\n      dup4\n      0xffffffff\n      and\n      0xe0\n      shl\n      dup2\n      mstore\n      0x04\n      add\n      tag_244\n      swap3\n      swap2\n      swap1\n      tag_245\n      jump\t// in\n    tag_244:\n      0x20\n      mload(0x40)\n      dup1\n      dup4\n      sub\n      dup2\n      0x00\n      dup8\n      dup1\n      extcodesize\n      iszero\n      dup1\n      iszero\n      tag_246\n      jumpi\n      0x00\n      dup1\n      revert\n    tag_246:\n      pop\n      gas\n      call\n      iszero\n      dup1\n      iszero\n      tag_248\n      jumpi\n      returndatasize\n      0x00\n      dup1\n      returndatacopy\n      revert(0x00, returndatasize)\n    tag_248:\n      pop\n      pop\n      pop\n      pop\n      mload(0x40)\n      returndatasize\n      not(0x1f)\n      0x1f\n      dup3\n      add\n      and\n      dup3\n      add\n      dup1\n      0x40\n      mstore\n      pop\n      dup2\n      add\n      swap1\n      tag_249\n      swap2\n      swap1\n      tag_110\n      jump\t// in\n    tag_249:\n      pop\n        /* \"Disney/disney.sol\":1869:1879  _numTokens */\n      dup2\n        /* \"Disney/disney.sol\":1830:1838  Clientes */\n      0x02\n        /* \"Disney/disney.sol\":1830:1850  Clientes[msg.sender] */\n      0x00\n        /* \"Disney/disney.sol\":1839:1849  msg.sender */\n      caller\n        /* \"Disney/disney.sol\":1830:1850  Clientes[msg.sender] */\n      0xffffffffffffffffffffffffffffffffffffffff\n      and\n      0xffffffffffffffffffffffffffffffffffffffff\n      and\n      dup2\n      mstore\n      0x20\n      add\n      swap1\n      dup2\n      mstore\n      0x20\n      add\n      0x00\n      keccak256\n        /* \"Disney/disney.sol\":1830:1865  Clientes[msg.sender].token_comprado */\n      0x00\n      add\n      0x00\n        /* \"Disney/disney.sol\":1830:1879  Clientes[msg.sender].token_comprado += _numTokens */\n      dup3\n      dup3\n      sload\n      add\n      swap3\n      pop\n      pop\n      dup2\n      swap1\n      sstore\n      pop\n        /* \"Disney/disney.sol\":1114:1887  function CompraTokens(uint _numTokens) public payable {\r... */\n      pop\n      pop\n      jump\t// out\n        /* \"Disney/disney.sol\":919:1060  function PrecioTokens(uint _numTokens) internal pure returns (uint) {\r... */\n    tag_234:\n        /* \"Disney/disney.sol\":981:985  uint */\n      0x00\n        /* \"Disney/disney.sol\":1044:1051  1 ether */\n      0x0de0b6b3a7640000\n        /* \"Disney/disney.sol\":1030:1040  _numTokens */\n      dup3\n        /* \"Disney/disney.sol\":1030:1052  _numTokens * (1 ether) */\n      mul\n        /* \"Disney/disney.sol\":1023:1052  return _numTokens * (1 ether) */\n      swap1\n      pop\n        /* \"Disney/disney.sol\":919:1060  function PrecioTokens(uint _numTokens) internal pure returns (uint) {\r... */\n      swap2\n      swap1\n      pop\n      jump\t// out\n    tag_115:\n      dup3\n      dup1\n      sload\n      0x01\n      dup2\n      0x01\n      and\n      iszero\n      0x0100\n      mul\n      sub\n      and\n      0x02\n      swap1\n      div\n      swap1\n      0x00\n      mstore\n      keccak256(0x00, 0x20)\n      swap1\n      0x1f\n      add\n      0x20\n      swap1\n      div\n      dup2\n      add\n      swap3\n      dup3\n      0x1f\n      lt\n      tag_252\n      jumpi\n      dup1\n      sload\n      dup6\n      sstore\n      jump(tag_251)\n    tag_252:\n      dup3\n      dup1\n      add\n      0x01\n      add\n      dup6\n      sstore\n      dup3\n      iszero\n      tag_251\n      jumpi\n      0x00\n      mstore\n      keccak256(0x00, 0x20)\n      swap2\n      0x1f\n      add\n      0x20\n      swap1\n      div\n      dup3\n      add\n    tag_253:\n      dup3\n      dup2\n      gt\n      iszero\n      tag_254\n      jumpi\n      dup3\n      sload\n      dup3\n      sstore\n      swap2\n      0x01\n      add\n      swap2\n      swap1\n      0x01\n      add\n      swap1\n      jump(tag_253)\n    tag_254:\n    tag_251:\n      pop\n      swap1\n      pop\n      tag_255\n      swap2\n      swap1\n      tag_256\n      jump\t// in\n    tag_255:\n      pop\n      swap1\n      jump\t// out\n    tag_146:\n      dup3\n      dup1\n      sload\n      0x01\n      dup2\n      0x01\n      and\n      iszero\n      0x0100\n      mul\n      sub\n      and\n      0x02\n      swap1\n      div\n      swap1\n      0x00\n      mstore\n      keccak256(0x00, 0x20)\n      swap1\n      0x1f\n      add\n      0x20\n      swap1\n      div\n      dup2\n      add\n      swap3\n      dup3\n      0x1f\n      lt\n      tag_258\n      jumpi\n      dup1\n      mload\n      not(0xff)\n      and\n      dup4\n      dup1\n      add\n      or\n      dup6\n      sstore\n      jump(tag_257)\n    tag_258:\n      dup3\n      dup1\n      add\n      0x01\n      add\n      dup6\n      sstore\n      dup3\n      iszero\n      tag_257\n      jumpi\n      swap2\n      dup3\n      add\n    tag_259:\n      dup3\n      dup2\n      gt\n      iszero\n      tag_260\n      jumpi\n      dup3\n      mload\n      dup3\n      sstore\n      swap2\n      0x20\n      add\n      swap2\n      swap1\n      0x01\n      add\n      swap1\n      jump(tag_259)\n    tag_260:\n    tag_257:\n      pop\n      swap1\n      pop\n      tag_261\n      swap2\n      swap1\n      tag_256\n      jump\t// in\n    tag_261:\n      pop\n      swap1\n      jump\t// out\n    tag_256:\n    tag_262:\n      dup1\n      dup3\n      gt\n      iszero\n      tag_263\n      jumpi\n      0x00\n      dup2\n      0x00\n      swap1\n      sstore\n      pop\n      0x01\n      add\n      jump(tag_262)\n    tag_263:\n      pop\n      swap1\n      jump\t// out\n        /* \"--CODEGEN--\":5:135   */\n    tag_265:\n      0x00\n        /* \"--CODEGEN--\":85:91   */\n      dup2\n        /* \"--CODEGEN--\":72:92   */\n      calldataload\n        /* \"--CODEGEN--\":63:92   */\n      swap1\n      pop\n        /* \"--CODEGEN--\":97:130   */\n      tag_267\n        /* \"--CODEGEN--\":124:129   */\n      dup2\n        /* \"--CODEGEN--\":97:130   */\n      tag_268\n      jump\t// in\n    tag_267:\n        /* \"--CODEGEN--\":57:135   */\n      swap3\n      swap2\n      pop\n      pop\n      jump\t// out\n        /* \"--CODEGEN--\":142:270   */\n    tag_269:\n      0x00\n        /* \"--CODEGEN--\":223:229   */\n      dup2\n        /* \"--CODEGEN--\":217:230   */\n      mload\n        /* \"--CODEGEN--\":208:230   */\n      swap1\n      pop\n        /* \"--CODEGEN--\":235:265   */\n      tag_271\n        /* \"--CODEGEN--\":259:264   */\n      dup2\n        /* \"--CODEGEN--\":235:265   */\n      tag_272\n      jump\t// in\n    tag_271:\n        /* \"--CODEGEN--\":202:270   */\n      swap3\n      swap2\n      pop\n      pop\n      jump\t// out\n        /* \"--CODEGEN--\":278:720   */\n    tag_273:\n      0x00\n        /* \"--CODEGEN--\":380:383   */\n      dup3\n        /* \"--CODEGEN--\":373:377   */\n      0x1f\n        /* \"--CODEGEN--\":365:371   */\n      dup4\n        /* \"--CODEGEN--\":361:378   */\n      add\n        /* \"--CODEGEN--\":357:384   */\n      slt\n        /* \"--CODEGEN--\":347:349   */\n      tag_275\n      jumpi\n        /* \"--CODEGEN--\":398:399   */\n      0x00\n        /* \"--CODEGEN--\":395:396   */\n      dup1\n        /* \"--CODEGEN--\":388:400   */\n      revert\n        /* \"--CODEGEN--\":347:349   */\n    tag_275:\n        /* \"--CODEGEN--\":435:441   */\n      dup2\n        /* \"--CODEGEN--\":422:442   */\n      calldataload\n        /* \"--CODEGEN--\":457:522   */\n      tag_276\n        /* \"--CODEGEN--\":472:521   */\n      tag_277\n        /* \"--CODEGEN--\":514:520   */\n      dup3\n        /* \"--CODEGEN--\":472:521   */\n      tag_278\n      jump\t// in\n    tag_277:\n        /* \"--CODEGEN--\":457:522   */\n      tag_279\n      jump\t// in\n    tag_276:\n        /* \"--CODEGEN--\":448:522   */\n      swap2\n      pop\n        /* \"--CODEGEN--\":542:548   */\n      dup1\n        /* \"--CODEGEN--\":535:540   */\n      dup3\n        /* \"--CODEGEN--\":528:549   */\n      mstore\n        /* \"--CODEGEN--\":578:582   */\n      0x20\n        /* \"--CODEGEN--\":570:576   */\n      dup4\n        /* \"--CODEGEN--\":566:583   */\n      add\n        /* \"--CODEGEN--\":611:615   */\n      0x20\n        /* \"--CODEGEN--\":604:609   */\n      dup4\n        /* \"--CODEGEN--\":600:616   */\n      add\n        /* \"--CODEGEN--\":646:649   */\n      dup6\n        /* \"--CODEGEN--\":637:643   */\n      dup4\n        /* \"--CODEGEN--\":632:635   */\n      dup4\n        /* \"--CODEGEN--\":628:644   */\n      add\n        /* \"--CODEGEN--\":625:650   */\n      gt\n        /* \"--CODEGEN--\":622:624   */\n      iszero\n      tag_280\n      jumpi\n        /* \"--CODEGEN--\":663:664   */\n      0x00\n        /* \"--CODEGEN--\":660:661   */\n      dup1\n        /* \"--CODEGEN--\":653:665   */\n      revert\n        /* \"--CODEGEN--\":622:624   */\n    tag_280:\n        /* \"--CODEGEN--\":673:714   */\n      tag_281\n        /* \"--CODEGEN--\":707:713   */\n      dup4\n        /* \"--CODEGEN--\":702:705   */\n      dup3\n        /* \"--CODEGEN--\":697:700   */\n      dup5\n        /* \"--CODEGEN--\":673:714   */\n      tag_282\n      jump\t// in\n    tag_281:\n        /* \"--CODEGEN--\":340:720   */\n      pop\n      pop\n      pop\n      swap3\n      swap2\n      pop\n      pop\n      jump\t// out\n        /* \"--CODEGEN--\":728:858   */\n    tag_283:\n      0x00\n        /* \"--CODEGEN--\":808:814   */\n      dup2\n        /* \"--CODEGEN--\":795:815   */\n      calldataload\n        /* \"--CODEGEN--\":786:815   */\n      swap1\n      pop\n        /* \"--CODEGEN--\":820:853   */\n      tag_285\n        /* \"--CODEGEN--\":847:852   */\n      dup2\n        /* \"--CODEGEN--\":820:853   */\n      tag_286\n      jump\t// in\n    tag_285:\n        /* \"--CODEGEN--\":780:858   */\n      swap3\n      swap2\n      pop\n      pop\n      jump\t// out\n        /* \"--CODEGEN--\":865:999   */\n    tag_287:\n      0x00\n        /* \"--CODEGEN--\":949:955   */\n      dup2\n        /* \"--CODEGEN--\":943:956   */\n      mload\n        /* \"--CODEGEN--\":934:956   */\n      swap1\n      pop\n        /* \"--CODEGEN--\":961:994   */\n      tag_289\n        /* \"--CODEGEN--\":988:993   */\n      dup2\n        /* \"--CODEGEN--\":961:994   */\n      tag_286\n      jump\t// in\n    tag_289:\n        /* \"--CODEGEN--\":928:999   */\n      swap3\n      swap2\n      pop\n      pop\n      jump\t// out\n        /* \"--CODEGEN--\":1006:1247   */\n    tag_63:\n      0x00\n        /* \"--CODEGEN--\":1110:1112   */\n      0x20\n        /* \"--CODEGEN--\":1098:1107   */\n      dup3\n        /* \"--CODEGEN--\":1089:1096   */\n      dup5\n        /* \"--CODEGEN--\":1085:1108   */\n      sub\n        /* \"--CODEGEN--\":1081:1113   */\n      slt\n        /* \"--CODEGEN--\":1078:1080   */\n      iszero\n      tag_291\n      jumpi\n        /* \"--CODEGEN--\":1126:1127   */\n      0x00\n        /* \"--CODEGEN--\":1123:1124   */\n      dup1\n        /* \"--CODEGEN--\":1116:1128   */\n      revert\n        /* \"--CODEGEN--\":1078:1080   */\n    tag_291:\n        /* \"--CODEGEN--\":1161:1162   */\n      0x00\n        /* \"--CODEGEN--\":1178:1231   */\n      tag_292\n        /* \"--CODEGEN--\":1223:1230   */\n      dup5\n        /* \"--CODEGEN--\":1214:1220   */\n      dup3\n        /* \"--CODEGEN--\":1203:1212   */\n      dup6\n        /* \"--CODEGEN--\":1199:1221   */\n      add\n        /* \"--CODEGEN--\":1178:1231   */\n      tag_265\n      jump\t// in\n    tag_292:\n        /* \"--CODEGEN--\":1168:1231   */\n      swap2\n      pop\n        /* \"--CODEGEN--\":1140:1237   */\n      pop\n        /* \"--CODEGEN--\":1072:1247   */\n      swap3\n      swap2\n      pop\n      pop\n      jump\t// out\n        /* \"--CODEGEN--\":1254:1511   */\n    tag_110:\n      0x00\n        /* \"--CODEGEN--\":1366:1368   */\n      0x20\n        /* \"--CODEGEN--\":1354:1363   */\n      dup3\n        /* \"--CODEGEN--\":1345:1352   */\n      dup5\n        /* \"--CODEGEN--\":1341:1364   */\n      sub\n        /* \"--CODEGEN--\":1337:1369   */\n      slt\n        /* \"--CODEGEN--\":1334:1336   */\n      iszero\n      tag_294\n      jumpi\n        /* \"--CODEGEN--\":1382:1383   */\n      0x00\n        /* \"--CODEGEN--\":1379:1380   */\n      dup1\n        /* \"--CODEGEN--\":1372:1384   */\n      revert\n        /* \"--CODEGEN--\":1334:1336   */\n    tag_294:\n        /* \"--CODEGEN--\":1417:1418   */\n      0x00\n        /* \"--CODEGEN--\":1434:1495   */\n      tag_295\n        /* \"--CODEGEN--\":1487:1494   */\n      dup5\n        /* \"--CODEGEN--\":1478:1484   */\n      dup3\n        /* \"--CODEGEN--\":1467:1476   */\n      dup6\n        /* \"--CODEGEN--\":1463:1485   */\n      add\n        /* \"--CODEGEN--\":1434:1495   */\n      tag_269\n      jump\t// in\n    tag_295:\n        /* \"--CODEGEN--\":1424:1495   */\n      swap2\n      pop\n        /* \"--CODEGEN--\":1396:1501   */\n      pop\n        /* \"--CODEGEN--\":1328:1511   */\n      swap3\n      swap2\n      pop\n      pop\n      jump\t// out\n        /* \"--CODEGEN--\":1518:1865   */\n    tag_20:\n      0x00\n        /* \"--CODEGEN--\":1632:1634   */\n      0x20\n        /* \"--CODEGEN--\":1620:1629   */\n      dup3\n        /* \"--CODEGEN--\":1611:1618   */\n      dup5\n        /* \"--CODEGEN--\":1607:1630   */\n      sub\n        /* \"--CODEGEN--\":1603:1635   */\n      slt\n        /* \"--CODEGEN--\":1600:1602   */\n      iszero\n      tag_297\n      jumpi\n        /* \"--CODEGEN--\":1648:1649   */\n      0x00\n        /* \"--CODEGEN--\":1645:1646   */\n      dup1\n        /* \"--CODEGEN--\":1638:1650   */\n      revert\n        /* \"--CODEGEN--\":1600:1602   */\n    tag_297:\n        /* \"--CODEGEN--\":1711:1712   */\n      0x00\n        /* \"--CODEGEN--\":1700:1709   */\n      dup3\n        /* \"--CODEGEN--\":1696:1713   */\n      add\n        /* \"--CODEGEN--\":1683:1714   */\n      calldataload\n        /* \"--CODEGEN--\":1734:1752   */\n      0xffffffffffffffff\n        /* \"--CODEGEN--\":1726:1732   */\n      dup2\n        /* \"--CODEGEN--\":1723:1753   */\n      gt\n        /* \"--CODEGEN--\":1720:1722   */\n      iszero\n      tag_298\n      jumpi\n        /* \"--CODEGEN--\":1766:1767   */\n      0x00\n        /* \"--CODEGEN--\":1763:1764   */\n      dup1\n        /* \"--CODEGEN--\":1756:1768   */\n      revert\n        /* \"--CODEGEN--\":1720:1722   */\n    tag_298:\n        /* \"--CODEGEN--\":1786:1849   */\n      tag_299\n        /* \"--CODEGEN--\":1841:1848   */\n      dup5\n        /* \"--CODEGEN--\":1832:1838   */\n      dup3\n        /* \"--CODEGEN--\":1821:1830   */\n      dup6\n        /* \"--CODEGEN--\":1817:1839   */\n      add\n        /* \"--CODEGEN--\":1786:1849   */\n      tag_273\n      jump\t// in\n    tag_299:\n        /* \"--CODEGEN--\":1776:1849   */\n      swap2\n      pop\n        /* \"--CODEGEN--\":1662:1855   */\n      pop\n        /* \"--CODEGEN--\":1594:1865   */\n      swap3\n      swap2\n      pop\n      pop\n      jump\t// out\n        /* \"--CODEGEN--\":1872:2344   */\n    tag_30:\n      0x00\n      dup1\n        /* \"--CODEGEN--\":2003:2005   */\n      0x40\n        /* \"--CODEGEN--\":1991:2000   */\n      dup4\n        /* \"--CODEGEN--\":1982:1989   */\n      dup6\n        /* \"--CODEGEN--\":1978:2001   */\n      sub\n        /* \"--CODEGEN--\":1974:2006   */\n      slt\n        /* \"--CODEGEN--\":1971:1973   */\n      iszero\n      tag_301\n      jumpi\n        /* \"--CODEGEN--\":2019:2020   */\n      0x00\n        /* \"--CODEGEN--\":2016:2017   */\n      dup1\n        /* \"--CODEGEN--\":2009:2021   */\n      revert\n        /* \"--CODEGEN--\":1971:1973   */\n    tag_301:\n        /* \"--CODEGEN--\":2082:2083   */\n      0x00\n        /* \"--CODEGEN--\":2071:2080   */\n      dup4\n        /* \"--CODEGEN--\":2067:2084   */\n      add\n        /* \"--CODEGEN--\":2054:2085   */\n      calldataload\n        /* \"--CODEGEN--\":2105:2123   */\n      0xffffffffffffffff\n        /* \"--CODEGEN--\":2097:2103   */\n      dup2\n        /* \"--CODEGEN--\":2094:2124   */\n      gt\n        /* \"--CODEGEN--\":2091:2093   */\n      iszero\n      tag_302\n      jumpi\n        /* \"--CODEGEN--\":2137:2138   */\n      0x00\n        /* \"--CODEGEN--\":2134:2135   */\n      dup1\n        /* \"--CODEGEN--\":2127:2139   */\n      revert\n        /* \"--CODEGEN--\":2091:2093   */\n    tag_302:\n        /* \"--CODEGEN--\":2157:2220   */\n      tag_303\n        /* \"--CODEGEN--\":2212:2219   */\n      dup6\n        /* \"--CODEGEN--\":2203:2209   */\n      dup3\n        /* \"--CODEGEN--\":2192:2201   */\n      dup7\n        /* \"--CODEGEN--\":2188:2210   */\n      add\n        /* \"--CODEGEN--\":2157:2220   */\n      tag_273\n      jump\t// in\n    tag_303:\n        /* \"--CODEGEN--\":2147:2220   */\n      swap3\n      pop\n        /* \"--CODEGEN--\":2033:2226   */\n      pop\n        /* \"--CODEGEN--\":2257:2259   */\n      0x20\n        /* \"--CODEGEN--\":2275:2328   */\n      tag_304\n        /* \"--CODEGEN--\":2320:2327   */\n      dup6\n        /* \"--CODEGEN--\":2311:2317   */\n      dup3\n        /* \"--CODEGEN--\":2300:2309   */\n      dup7\n        /* \"--CODEGEN--\":2296:2318   */\n      add\n        /* \"--CODEGEN--\":2275:2328   */\n      tag_283\n      jump\t// in\n    tag_304:\n        /* \"--CODEGEN--\":2265:2328   */\n      swap2\n      pop\n        /* \"--CODEGEN--\":2236:2334   */\n      pop\n        /* \"--CODEGEN--\":1965:2344   */\n      swap3\n      pop\n      swap3\n      swap1\n      pop\n      jump\t// out\n        /* \"--CODEGEN--\":2351:2592   */\n    tag_40:\n      0x00\n        /* \"--CODEGEN--\":2455:2457   */\n      0x20\n        /* \"--CODEGEN--\":2443:2452   */\n      dup3\n        /* \"--CODEGEN--\":2434:2441   */\n      dup5\n        /* \"--CODEGEN--\":2430:2453   */\n      sub\n        /* \"--CODEGEN--\":2426:2458   */\n      slt\n        /* \"--CODEGEN--\":2423:2425   */\n      iszero\n      tag_306\n      jumpi\n        /* \"--CODEGEN--\":2471:2472   */\n      0x00\n        /* \"--CODEGEN--\":2468:2469   */\n      dup1\n        /* \"--CODEGEN--\":2461:2473   */\n      revert\n        /* \"--CODEGEN--\":2423:2425   */\n    tag_306:\n        /* \"--CODEGEN--\":2506:2507   */\n      0x00\n        /* \"--CODEGEN--\":2523:2576   */\n      tag_307\n        /* \"--CODEGEN--\":2568:2575   */\n      dup5\n        /* \"--CODEGEN--\":2559:2565   */\n      dup3\n        /* \"--CODEGEN--\":2548:2557   */\n      dup6\n        /* \"--CODEGEN--\":2544:2566   */\n      add\n        /* \"--CODEGEN--\":2523:2576   */\n      tag_283\n      jump\t// in\n    tag_307:\n        /* \"--CODEGEN--\":2513:2576   */\n      swap2\n      pop\n        /* \"--CODEGEN--\":2485:2582   */\n      pop\n        /* \"--CODEGEN--\":2417:2592   */\n      swap3\n      swap2\n      pop\n      pop\n      jump\t// out\n        /* \"--CODEGEN--\":2599:2862   */\n    tag_173:\n      0x00\n        /* \"--CODEGEN--\":2714:2716   */\n      0x20\n        /* \"--CODEGEN--\":2702:2711   */\n      dup3\n        /* \"--CODEGEN--\":2693:2700   */\n      dup5\n        /* \"--CODEGEN--\":2689:2712   */\n      sub\n        /* \"--CODEGEN--\":2685:2717   */\n      slt\n        /* \"--CODEGEN--\":2682:2684   */\n      iszero\n      tag_309\n      jumpi\n        /* \"--CODEGEN--\":2730:2731   */\n      0x00\n        /* \"--CODEGEN--\":2727:2728   */\n      dup1\n        /* \"--CODEGEN--\":2720:2732   */\n      revert\n        /* \"--CODEGEN--\":2682:2684   */\n    tag_309:\n        /* \"--CODEGEN--\":2765:2766   */\n      0x00\n        /* \"--CODEGEN--\":2782:2846   */\n      tag_310\n        /* \"--CODEGEN--\":2838:2845   */\n      dup5\n        /* \"--CODEGEN--\":2829:2835   */\n      dup3\n        /* \"--CODEGEN--\":2818:2827   */\n      dup6\n        /* \"--CODEGEN--\":2814:2836   */\n      add\n        /* \"--CODEGEN--\":2782:2846   */\n      tag_287\n      jump\t// in\n    tag_310:\n        /* \"--CODEGEN--\":2772:2846   */\n      swap2\n      pop\n        /* \"--CODEGEN--\":2744:2852   */\n      pop\n        /* \"--CODEGEN--\":2676:2862   */\n      swap3\n      swap2\n      pop\n      pop\n      jump\t// out\n        /* \"--CODEGEN--\":2870:3063   */\n    tag_311:\n      0x00\n        /* \"--CODEGEN--\":2991:3057   */\n      tag_313\n        /* \"--CODEGEN--\":3053:3056   */\n      dup4\n        /* \"--CODEGEN--\":3045:3051   */\n      dup4\n        /* \"--CODEGEN--\":2991:3057   */\n      tag_314\n      jump\t// in\n    tag_313:\n        /* \"--CODEGEN--\":2977:3057   */\n      swap1\n      pop\n        /* \"--CODEGEN--\":2970:3063   */\n      swap3\n      swap2\n      pop\n      pop\n      jump\t// out\n        /* \"--CODEGEN--\":3071:3213   */\n    tag_315:\n        /* \"--CODEGEN--\":3162:3207   */\n      tag_317\n        /* \"--CODEGEN--\":3201:3206   */\n      dup2\n        /* \"--CODEGEN--\":3162:3207   */\n      tag_318\n      jump\t// in\n    tag_317:\n        /* \"--CODEGEN--\":3157:3160   */\n      dup3\n        /* \"--CODEGEN--\":3150:3208   */\n      mstore\n        /* \"--CODEGEN--\":3144:3213   */\n      pop\n      pop\n      jump\t// out\n        /* \"--CODEGEN--\":3220:3357   */\n    tag_319:\n        /* \"--CODEGEN--\":3319:3351   */\n      tag_321\n        /* \"--CODEGEN--\":3345:3350   */\n      dup2\n        /* \"--CODEGEN--\":3319:3351   */\n      tag_322\n      jump\t// in\n    tag_321:\n        /* \"--CODEGEN--\":3314:3317   */\n      dup3\n        /* \"--CODEGEN--\":3307:3352   */\n      mstore\n        /* \"--CODEGEN--\":3301:3357   */\n      pop\n      pop\n      jump\t// out\n        /* \"--CODEGEN--\":3364:3477   */\n    tag_323:\n        /* \"--CODEGEN--\":3447:3471   */\n      tag_325\n        /* \"--CODEGEN--\":3465:3470   */\n      dup2\n        /* \"--CODEGEN--\":3447:3471   */\n      tag_326\n      jump\t// in\n    tag_325:\n        /* \"--CODEGEN--\":3442:3445   */\n      dup3\n        /* \"--CODEGEN--\":3435:3472   */\n      mstore\n        /* \"--CODEGEN--\":3429:3477   */\n      pop\n      pop\n      jump\t// out\n        /* \"--CODEGEN--\":3513:4441   */\n    tag_327:\n      0x00\n        /* \"--CODEGEN--\":3678:3742   */\n      tag_329\n        /* \"--CODEGEN--\":3736:3741   */\n      dup3\n        /* \"--CODEGEN--\":3678:3742   */\n      tag_330\n      jump\t// in\n    tag_329:\n        /* \"--CODEGEN--\":3755:3851   */\n      tag_331\n        /* \"--CODEGEN--\":3844:3850   */\n      dup2\n        /* \"--CODEGEN--\":3839:3842   */\n      dup6\n        /* \"--CODEGEN--\":3755:3851   */\n      tag_332\n      jump\t// in\n    tag_331:\n        /* \"--CODEGEN--\":3748:3851   */\n      swap4\n      pop\n        /* \"--CODEGEN--\":3874:3877   */\n      dup4\n        /* \"--CODEGEN--\":3916:3920   */\n      0x20\n        /* \"--CODEGEN--\":3908:3914   */\n      dup3\n        /* \"--CODEGEN--\":3904:3921   */\n      mul\n        /* \"--CODEGEN--\":3899:3902   */\n      dup6\n        /* \"--CODEGEN--\":3895:3922   */\n      add\n        /* \"--CODEGEN--\":3943:4009   */\n      tag_333\n        /* \"--CODEGEN--\":4003:4008   */\n      dup6\n        /* \"--CODEGEN--\":3943:4009   */\n      tag_334\n      jump\t// in\n    tag_333:\n        /* \"--CODEGEN--\":4029:4036   */\n      dup1\n        /* \"--CODEGEN--\":4057:4058   */\n      0x00\n        /* \"--CODEGEN--\":4042:4402   */\n    tag_335:\n        /* \"--CODEGEN--\":4067:4073   */\n      dup6\n        /* \"--CODEGEN--\":4064:4065   */\n      dup2\n        /* \"--CODEGEN--\":4061:4074   */\n      lt\n        /* \"--CODEGEN--\":4042:4402   */\n      iszero\n      tag_337\n      jumpi\n        /* \"--CODEGEN--\":4129:4138   */\n      dup5\n        /* \"--CODEGEN--\":4123:4127   */\n      dup5\n        /* \"--CODEGEN--\":4119:4139   */\n      sub\n        /* \"--CODEGEN--\":4114:4117   */\n      dup10\n        /* \"--CODEGEN--\":4107:4140   */\n      mstore\n        /* \"--CODEGEN--\":4174:4180   */\n      dup2\n        /* \"--CODEGEN--\":4168:4181   */\n      mload\n        /* \"--CODEGEN--\":4196:4280   */\n      tag_338\n        /* \"--CODEGEN--\":4275:4279   */\n      dup6\n        /* \"--CODEGEN--\":4260:4273   */\n      dup3\n        /* \"--CODEGEN--\":4196:4280   */\n      tag_311\n      jump\t// in\n    tag_338:\n        /* \"--CODEGEN--\":4188:4280   */\n      swap5\n      pop\n        /* \"--CODEGEN--\":4297:4367   */\n      tag_339\n        /* \"--CODEGEN--\":4360:4366   */\n      dup4\n        /* \"--CODEGEN--\":4297:4367   */\n      tag_340\n      jump\t// in\n    tag_339:\n        /* \"--CODEGEN--\":4287:4367   */\n      swap3\n      pop\n        /* \"--CODEGEN--\":4390:4394   */\n      0x20\n        /* \"--CODEGEN--\":4385:4388   */\n      dup11\n        /* \"--CODEGEN--\":4381:4395   */\n      add\n        /* \"--CODEGEN--\":4374:4395   */\n      swap10\n      pop\n        /* \"--CODEGEN--\":4099:4402   */\n      pop\n        /* \"--CODEGEN--\":4089:4090   */\n      0x01\n        /* \"--CODEGEN--\":4086:4087   */\n      dup2\n        /* \"--CODEGEN--\":4082:4091   */\n      add\n        /* \"--CODEGEN--\":4077:4091   */\n      swap1\n      pop\n        /* \"--CODEGEN--\":4042:4402   */\n      jump(tag_335)\n    tag_337:\n        /* \"--CODEGEN--\":4046:4060   */\n      pop\n        /* \"--CODEGEN--\":4415:4419   */\n      dup3\n        /* \"--CODEGEN--\":4408:4419   */\n      swap8\n      pop\n        /* \"--CODEGEN--\":4432:4435   */\n      dup8\n        /* \"--CODEGEN--\":4425:4435   */\n      swap6\n      pop\n        /* \"--CODEGEN--\":3657:4441   */\n      pop\n      pop\n      pop\n      pop\n      pop\n      swap3\n      swap2\n      pop\n      pop\n      jump\t// out\n        /* \"--CODEGEN--\":4449:4553   */\n    tag_341:\n        /* \"--CODEGEN--\":4526:4547   */\n      tag_343\n        /* \"--CODEGEN--\":4541:4546   */\n      dup2\n        /* \"--CODEGEN--\":4526:4547   */\n      tag_344\n      jump\t// in\n    tag_343:\n        /* \"--CODEGEN--\":4521:4524   */\n      dup3\n        /* \"--CODEGEN--\":4514:4548   */\n      mstore\n        /* \"--CODEGEN--\":4508:4553   */\n      pop\n      pop\n      jump\t// out\n        /* \"--CODEGEN--\":4560:4887   */\n    tag_314:\n      0x00\n        /* \"--CODEGEN--\":4662:4701   */\n      tag_346\n        /* \"--CODEGEN--\":4695:4700   */\n      dup3\n        /* \"--CODEGEN--\":4662:4701   */\n      tag_347\n      jump\t// in\n    tag_346:\n        /* \"--CODEGEN--\":4713:4774   */\n      tag_348\n        /* \"--CODEGEN--\":4767:4773   */\n      dup2\n        /* \"--CODEGEN--\":4762:4765   */\n      dup6\n        /* \"--CODEGEN--\":4713:4774   */\n      tag_349\n      jump\t// in\n    tag_348:\n        /* \"--CODEGEN--\":4706:4774   */\n      swap4\n      pop\n        /* \"--CODEGEN--\":4779:4831   */\n      tag_350\n        /* \"--CODEGEN--\":4824:4830   */\n      dup2\n        /* \"--CODEGEN--\":4819:4822   */\n      dup6\n        /* \"--CODEGEN--\":4812:4816   */\n      0x20\n        /* \"--CODEGEN--\":4805:4810   */\n      dup7\n        /* \"--CODEGEN--\":4801:4817   */\n      add\n        /* \"--CODEGEN--\":4779:4831   */\n      tag_351\n      jump\t// in\n    tag_350:\n        /* \"--CODEGEN--\":4852:4881   */\n      tag_352\n        /* \"--CODEGEN--\":4874:4880   */\n      dup2\n        /* \"--CODEGEN--\":4852:4881   */\n      tag_353\n      jump\t// in\n    tag_352:\n        /* \"--CODEGEN--\":4847:4850   */\n      dup5\n        /* \"--CODEGEN--\":4843:4882   */\n      add\n        /* \"--CODEGEN--\":4836:4882   */\n      swap2\n      pop\n        /* \"--CODEGEN--\":4642:4887   */\n      pop\n      swap3\n      swap2\n      pop\n      pop\n      jump\t// out\n        /* \"--CODEGEN--\":4894:5241   */\n    tag_354:\n      0x00\n        /* \"--CODEGEN--\":5006:5045   */\n      tag_356\n        /* \"--CODEGEN--\":5039:5044   */\n      dup3\n        /* \"--CODEGEN--\":5006:5045   */\n      tag_347\n      jump\t// in\n    tag_356:\n        /* \"--CODEGEN--\":5057:5128   */\n      tag_357\n        /* \"--CODEGEN--\":5121:5127   */\n      dup2\n        /* \"--CODEGEN--\":5116:5119   */\n      dup6\n        /* \"--CODEGEN--\":5057:5128   */\n      tag_358\n      jump\t// in\n    tag_357:\n        /* \"--CODEGEN--\":5050:5128   */\n      swap4\n      pop\n        /* \"--CODEGEN--\":5133:5185   */\n      tag_359\n        /* \"--CODEGEN--\":5178:5184   */\n      dup2\n        /* \"--CODEGEN--\":5173:5176   */\n      dup6\n        /* \"--CODEGEN--\":5166:5170   */\n      0x20\n        /* \"--CODEGEN--\":5159:5164   */\n      dup7\n        /* \"--CODEGEN--\":5155:5171   */\n      add\n        /* \"--CODEGEN--\":5133:5185   */\n      tag_351\n      jump\t// in\n    tag_359:\n        /* \"--CODEGEN--\":5206:5235   */\n      tag_360\n        /* \"--CODEGEN--\":5228:5234   */\n      dup2\n        /* \"--CODEGEN--\":5206:5235   */\n      tag_353\n      jump\t// in\n    tag_360:\n        /* \"--CODEGEN--\":5201:5204   */\n      dup5\n        /* \"--CODEGEN--\":5197:5236   */\n      add\n        /* \"--CODEGEN--\":5190:5236   */\n      swap2\n      pop\n        /* \"--CODEGEN--\":4986:5241   */\n      pop\n      swap3\n      swap2\n      pop\n      pop\n      jump\t// out\n        /* \"--CODEGEN--\":5248:5608   */\n    tag_361:\n      0x00\n        /* \"--CODEGEN--\":5378:5417   */\n      tag_363\n        /* \"--CODEGEN--\":5411:5416   */\n      dup3\n        /* \"--CODEGEN--\":5378:5417   */\n      tag_347\n      jump\t// in\n    tag_363:\n        /* \"--CODEGEN--\":5429:5518   */\n      tag_364\n        /* \"--CODEGEN--\":5511:5517   */\n      dup2\n        /* \"--CODEGEN--\":5506:5509   */\n      dup6\n        /* \"--CODEGEN--\":5429:5518   */\n      tag_365\n      jump\t// in\n    tag_364:\n        /* \"--CODEGEN--\":5422:5518   */\n      swap4\n      pop\n        /* \"--CODEGEN--\":5523:5575   */\n      tag_366\n        /* \"--CODEGEN--\":5568:5574   */\n      dup2\n        /* \"--CODEGEN--\":5563:5566   */\n      dup6\n        /* \"--CODEGEN--\":5556:5560   */\n      0x20\n        /* \"--CODEGEN--\":5549:5554   */\n      dup7\n        /* \"--CODEGEN--\":5545:5561   */\n      add\n        /* \"--CODEGEN--\":5523:5575   */\n      tag_351\n      jump\t// in\n    tag_366:\n        /* \"--CODEGEN--\":5596:5602   */\n      dup1\n        /* \"--CODEGEN--\":5591:5594   */\n      dup5\n        /* \"--CODEGEN--\":5587:5603   */\n      add\n        /* \"--CODEGEN--\":5580:5603   */\n      swap2\n      pop\n        /* \"--CODEGEN--\":5358:5608   */\n      pop\n      swap3\n      swap2\n      pop\n      pop\n      jump\t// out\n        /* \"--CODEGEN--\":5640:6463   */\n    tag_367:\n      0x00\n        /* \"--CODEGEN--\":5759:5764   */\n      dup2\n        /* \"--CODEGEN--\":5753:5765   */\n      sload\n        /* \"--CODEGEN--\":5793:5794   */\n      0x01\n        /* \"--CODEGEN--\":5782:5791   */\n      dup2\n        /* \"--CODEGEN--\":5778:5795   */\n      and\n        /* \"--CODEGEN--\":5806:5807   */\n      0x00\n        /* \"--CODEGEN--\":5801:6049   */\n      dup2\n      eq\n      tag_370\n      jumpi\n        /* \"--CODEGEN--\":6060:6061   */\n      0x01\n        /* \"--CODEGEN--\":6055:6457   */\n      dup2\n      eq\n      tag_371\n      jumpi\n        /* \"--CODEGEN--\":5771:6457   */\n      jump(tag_369)\n        /* \"--CODEGEN--\":5801:6049   */\n    tag_370:\n        /* \"--CODEGEN--\":5879:5883   */\n      0x7f\n        /* \"--CODEGEN--\":5875:5876   */\n      0x02\n        /* \"--CODEGEN--\":5864:5873   */\n      dup4\n        /* \"--CODEGEN--\":5860:5877   */\n      div\n        /* \"--CODEGEN--\":5856:5884   */\n      and\n        /* \"--CODEGEN--\":5898:5969   */\n      tag_372\n        /* \"--CODEGEN--\":5962:5968   */\n      dup2\n        /* \"--CODEGEN--\":5957:5960   */\n      dup8\n        /* \"--CODEGEN--\":5898:5969   */\n      tag_358\n      jump\t// in\n    tag_372:\n        /* \"--CODEGEN--\":5891:5969   */\n      swap6\n      pop\n        /* \"--CODEGEN--\":6007:6011   */\n      0xff\n        /* \"--CODEGEN--\":6003:6012   */\n      not\n        /* \"--CODEGEN--\":5992:6001   */\n      dup4\n        /* \"--CODEGEN--\":5988:6013   */\n      and\n        /* \"--CODEGEN--\":5983:5986   */\n      dup7\n        /* \"--CODEGEN--\":5976:6014   */\n      mstore\n        /* \"--CODEGEN--\":6037:6041   */\n      0x20\n        /* \"--CODEGEN--\":6032:6035   */\n      dup7\n        /* \"--CODEGEN--\":6028:6042   */\n      add\n        /* \"--CODEGEN--\":6021:6042   */\n      swap4\n      pop\n        /* \"--CODEGEN--\":5808:6049   */\n      pop\n        /* \"--CODEGEN--\":5801:6049   */\n      jump(tag_369)\n        /* \"--CODEGEN--\":6055:6457   */\n    tag_371:\n        /* \"--CODEGEN--\":6124:6125   */\n      0x02\n        /* \"--CODEGEN--\":6113:6122   */\n      dup3\n        /* \"--CODEGEN--\":6109:6126   */\n      div\n        /* \"--CODEGEN--\":6140:6211   */\n      tag_373\n        /* \"--CODEGEN--\":6204:6210   */\n      dup2\n        /* \"--CODEGEN--\":6199:6202   */\n      dup8\n        /* \"--CODEGEN--\":6140:6211   */\n      tag_358\n      jump\t// in\n    tag_373:\n        /* \"--CODEGEN--\":6133:6211   */\n      swap6\n      pop\n        /* \"--CODEGEN--\":6233:6271   */\n      tag_374\n        /* \"--CODEGEN--\":6265:6270   */\n      dup6\n        /* \"--CODEGEN--\":6233:6271   */\n      tag_375\n      jump\t// in\n    tag_374:\n        /* \"--CODEGEN--\":6287:6288   */\n      0x00\n        /* \"--CODEGEN--\":6295:6425   */\n    tag_376:\n        /* \"--CODEGEN--\":6309:6315   */\n      dup3\n        /* \"--CODEGEN--\":6306:6307   */\n      dup2\n        /* \"--CODEGEN--\":6303:6316   */\n      lt\n        /* \"--CODEGEN--\":6295:6425   */\n      iszero\n      tag_378\n      jumpi\n        /* \"--CODEGEN--\":6374:6381   */\n      dup2\n        /* \"--CODEGEN--\":6368:6382   */\n      sload\n        /* \"--CODEGEN--\":6364:6365   */\n      dup2\n        /* \"--CODEGEN--\":6359:6362   */\n      dup10\n        /* \"--CODEGEN--\":6355:6366   */\n      add\n        /* \"--CODEGEN--\":6348:6383   */\n      mstore\n        /* \"--CODEGEN--\":6415:6416   */\n      0x01\n        /* \"--CODEGEN--\":6406:6413   */\n      dup3\n        /* \"--CODEGEN--\":6402:6417   */\n      add\n        /* \"--CODEGEN--\":6391:6417   */\n      swap2\n      pop\n        /* \"--CODEGEN--\":6331:6335   */\n      0x20\n        /* \"--CODEGEN--\":6328:6329   */\n      dup2\n        /* \"--CODEGEN--\":6324:6336   */\n      add\n        /* \"--CODEGEN--\":6319:6336   */\n      swap1\n      pop\n        /* \"--CODEGEN--\":6295:6425   */\n      jump(tag_376)\n    tag_378:\n        /* \"--CODEGEN--\":6448:6449   */\n      dup1\n        /* \"--CODEGEN--\":6443:6446   */\n      dup9\n        /* \"--CODEGEN--\":6439:6450   */\n      add\n        /* \"--CODEGEN--\":6432:6450   */\n      swap6\n      pop\n        /* \"--CODEGEN--\":6062:6457   */\n      pop\n      pop\n      pop\n        /* \"--CODEGEN--\":5771:6457   */\n    tag_369:\n      pop\n        /* \"--CODEGEN--\":5729:6463   */\n      pop\n      swap3\n      swap2\n      pop\n      pop\n      jump\t// out\n        /* \"--CODEGEN--\":6496:7380   */\n    tag_379:\n      0x00\n        /* \"--CODEGEN--\":6633:6638   */\n      dup2\n        /* \"--CODEGEN--\":6627:6639   */\n      sload\n        /* \"--CODEGEN--\":6667:6668   */\n      0x01\n        /* \"--CODEGEN--\":6656:6665   */\n      dup2\n        /* \"--CODEGEN--\":6652:6669   */\n      and\n        /* \"--CODEGEN--\":6680:6681   */\n      0x00\n        /* \"--CODEGEN--\":6675:6943   */\n      dup2\n      eq\n      tag_382\n      jumpi\n        /* \"--CODEGEN--\":6954:6955   */\n      0x01\n        /* \"--CODEGEN--\":6949:7374   */\n      dup2\n      eq\n      tag_383\n      jumpi\n        /* \"--CODEGEN--\":6645:7374   */\n      jump(tag_381)\n        /* \"--CODEGEN--\":6675:6943   */\n    tag_382:\n        /* \"--CODEGEN--\":6753:6757   */\n      0x7f\n        /* \"--CODEGEN--\":6749:6750   */\n      0x02\n        /* \"--CODEGEN--\":6738:6747   */\n      dup4\n        /* \"--CODEGEN--\":6734:6751   */\n      div\n        /* \"--CODEGEN--\":6730:6758   */\n      and\n        /* \"--CODEGEN--\":6772:6861   */\n      tag_384\n        /* \"--CODEGEN--\":6854:6860   */\n      dup2\n        /* \"--CODEGEN--\":6849:6852   */\n      dup8\n        /* \"--CODEGEN--\":6772:6861   */\n      tag_365\n      jump\t// in\n    tag_384:\n        /* \"--CODEGEN--\":6765:6861   */\n      swap6\n      pop\n        /* \"--CODEGEN--\":6899:6903   */\n      0xff\n        /* \"--CODEGEN--\":6895:6904   */\n      not\n        /* \"--CODEGEN--\":6884:6893   */\n      dup4\n        /* \"--CODEGEN--\":6880:6905   */\n      and\n        /* \"--CODEGEN--\":6875:6878   */\n      dup7\n        /* \"--CODEGEN--\":6868:6906   */\n      mstore\n        /* \"--CODEGEN--\":6929:6935   */\n      dup1\n        /* \"--CODEGEN--\":6924:6927   */\n      dup7\n        /* \"--CODEGEN--\":6920:6936   */\n      add\n        /* \"--CODEGEN--\":6913:6936   */\n      swap4\n      pop\n        /* \"--CODEGEN--\":6682:6943   */\n      pop\n        /* \"--CODEGEN--\":6675:6943   */\n      jump(tag_381)\n        /* \"--CODEGEN--\":6949:7374   */\n    tag_383:\n        /* \"--CODEGEN--\":7018:7019   */\n      0x02\n        /* \"--CODEGEN--\":7007:7016   */\n      dup3\n        /* \"--CODEGEN--\":7003:7020   */\n      div\n        /* \"--CODEGEN--\":7034:7123   */\n      tag_385\n        /* \"--CODEGEN--\":7116:7122   */\n      dup2\n        /* \"--CODEGEN--\":7111:7114   */\n      dup8\n        /* \"--CODEGEN--\":7034:7123   */\n      tag_365\n      jump\t// in\n    tag_385:\n        /* \"--CODEGEN--\":7027:7123   */\n      swap6\n      pop\n        /* \"--CODEGEN--\":7145:7183   */\n      tag_386\n        /* \"--CODEGEN--\":7177:7182   */\n      dup6\n        /* \"--CODEGEN--\":7145:7183   */\n      tag_375\n      jump\t// in\n    tag_386:\n        /* \"--CODEGEN--\":7199:7200   */\n      0x00\n        /* \"--CODEGEN--\":7207:7337   */\n    tag_387:\n        /* \"--CODEGEN--\":7221:7227   */\n      dup3\n        /* \"--CODEGEN--\":7218:7219   */\n      dup2\n        /* \"--CODEGEN--\":7215:7228   */\n      lt\n        /* \"--CODEGEN--\":7207:7337   */\n      iszero\n      tag_389\n      jumpi\n        /* \"--CODEGEN--\":7286:7293   */\n      dup2\n        /* \"--CODEGEN--\":7280:7294   */\n      sload\n        /* \"--CODEGEN--\":7276:7277   */\n      dup2\n        /* \"--CODEGEN--\":7271:7274   */\n      dup10\n        /* \"--CODEGEN--\":7267:7278   */\n      add\n        /* \"--CODEGEN--\":7260:7295   */\n      mstore\n        /* \"--CODEGEN--\":7327:7328   */\n      0x01\n        /* \"--CODEGEN--\":7318:7325   */\n      dup3\n        /* \"--CODEGEN--\":7314:7329   */\n      add\n        /* \"--CODEGEN--\":7303:7329   */\n      swap2\n      pop\n        /* \"--CODEGEN--\":7243:7247   */\n      0x20\n        /* \"--CODEGEN--\":7240:7241   */\n      dup2\n        /* \"--CODEGEN--\":7236:7248   */\n      add\n        /* \"--CODEGEN--\":7231:7248   */\n      swap1\n      pop\n        /* \"--CODEGEN--\":7207:7337   */\n      jump(tag_387)\n    tag_389:\n        /* \"--CODEGEN--\":7360:7366   */\n      dup3\n        /* \"--CODEGEN--\":7355:7358   */\n      dup9\n        /* \"--CODEGEN--\":7351:7367   */\n      add\n        /* \"--CODEGEN--\":7344:7367   */\n      swap6\n      pop\n        /* \"--CODEGEN--\":6956:7374   */\n      pop\n      pop\n      pop\n        /* \"--CODEGEN--\":6645:7374   */\n    tag_381:\n      pop\n        /* \"--CODEGEN--\":6603:7380   */\n      pop\n      swap3\n      swap2\n      pop\n      pop\n      jump\t// out\n        /* \"--CODEGEN--\":7389:7793   */\n    tag_390:\n      0x00\n        /* \"--CODEGEN--\":7549:7616   */\n      tag_392\n        /* \"--CODEGEN--\":7613:7615   */\n      0x23\n        /* \"--CODEGEN--\":7608:7611   */\n      dup4\n        /* \"--CODEGEN--\":7549:7616   */\n      tag_358\n      jump\t// in\n    tag_392:\n        /* \"--CODEGEN--\":7542:7616   */\n      swap2\n      pop\n        /* \"--CODEGEN--\":7649:7715   */\n      0x4c6120617472616363696f6e20656e20637565737469c3b36e206e6f20657869\n        /* \"--CODEGEN--\":7645:7646   */\n      0x00\n        /* \"--CODEGEN--\":7640:7643   */\n      dup4\n        /* \"--CODEGEN--\":7636:7647   */\n      add\n        /* \"--CODEGEN--\":7629:7716   */\n      mstore\n        /* \"--CODEGEN--\":7750:7755   */\n      0x7374650000000000000000000000000000000000000000000000000000000000\n        /* \"--CODEGEN--\":7745:7747   */\n      0x20\n        /* \"--CODEGEN--\":7740:7743   */\n      dup4\n        /* \"--CODEGEN--\":7736:7748   */\n      add\n        /* \"--CODEGEN--\":7729:7756   */\n      mstore\n        /* \"--CODEGEN--\":7784:7786   */\n      0x40\n        /* \"--CODEGEN--\":7779:7782   */\n      dup3\n        /* \"--CODEGEN--\":7775:7787   */\n      add\n        /* \"--CODEGEN--\":7768:7787   */\n      swap1\n      pop\n        /* \"--CODEGEN--\":7535:7793   */\n      swap2\n      swap1\n      pop\n      jump\t// out\n        /* \"--CODEGEN--\":7802:8139   */\n    tag_393:\n      0x00\n        /* \"--CODEGEN--\":7980:8064   */\n      tag_395\n        /* \"--CODEGEN--\":8062:8063   */\n      0x03\n        /* \"--CODEGEN--\":8057:8060   */\n      dup4\n        /* \"--CODEGEN--\":7980:8064   */\n      tag_365\n      jump\t// in\n    tag_395:\n        /* \"--CODEGEN--\":7973:8064   */\n      swap2\n      pop\n        /* \"--CODEGEN--\":8097:8102   */\n      0x207c200000000000000000000000000000000000000000000000000000000000\n        /* \"--CODEGEN--\":8093:8094   */\n      0x00\n        /* \"--CODEGEN--\":8088:8091   */\n      dup4\n        /* \"--CODEGEN--\":8084:8095   */\n      add\n        /* \"--CODEGEN--\":8077:8103   */\n      mstore\n        /* \"--CODEGEN--\":8131:8132   */\n      0x03\n        /* \"--CODEGEN--\":8126:8129   */\n      dup3\n        /* \"--CODEGEN--\":8122:8133   */\n      add\n        /* \"--CODEGEN--\":8115:8133   */\n      swap1\n      pop\n        /* \"--CODEGEN--\":7966:8139   */\n      swap2\n      swap1\n      pop\n      jump\t// out\n        /* \"--CODEGEN--\":8148:8468   */\n    tag_396:\n      0x00\n        /* \"--CODEGEN--\":8308:8375   */\n      tag_398\n        /* \"--CODEGEN--\":8372:8374   */\n      0x14\n        /* \"--CODEGEN--\":8367:8370   */\n      dup4\n        /* \"--CODEGEN--\":8308:8375   */\n      tag_358\n      jump\t// in\n    tag_398:\n        /* \"--CODEGEN--\":8301:8375   */\n      swap2\n      pop\n        /* \"--CODEGEN--\":8408:8430   */\n      0x546f6b656e7320696e737566696369656e746573000000000000000000000000\n        /* \"--CODEGEN--\":8404:8405   */\n      0x00\n        /* \"--CODEGEN--\":8399:8402   */\n      dup4\n        /* \"--CODEGEN--\":8395:8406   */\n      add\n        /* \"--CODEGEN--\":8388:8431   */\n      mstore\n        /* \"--CODEGEN--\":8459:8461   */\n      0x20\n        /* \"--CODEGEN--\":8454:8457   */\n      dup3\n        /* \"--CODEGEN--\":8450:8462   */\n      add\n        /* \"--CODEGEN--\":8443:8462   */\n      swap1\n      pop\n        /* \"--CODEGEN--\":8294:8468   */\n      swap2\n      swap1\n      pop\n      jump\t// out\n        /* \"--CODEGEN--\":8477:8865   */\n    tag_399:\n      0x00\n        /* \"--CODEGEN--\":8637:8704   */\n      tag_401\n        /* \"--CODEGEN--\":8701:8703   */\n      0x33\n        /* \"--CODEGEN--\":8696:8699   */\n      dup4\n        /* \"--CODEGEN--\":8637:8704   */\n      tag_358\n      jump\t// in\n    tag_401:\n        /* \"--CODEGEN--\":8630:8704   */\n      swap2\n      pop\n        /* \"--CODEGEN--\":8737:8771   */\n      0x4c6120617472616363696f6e20656e206375657374696f6e206e6f2073652065\n        /* \"--CODEGEN--\":8733:8734   */\n      0x00\n        /* \"--CODEGEN--\":8728:8731   */\n      dup4\n        /* \"--CODEGEN--\":8724:8735   */\n      add\n        /* \"--CODEGEN--\":8717:8772   */\n      mstore\n        /* \"--CODEGEN--\":8806:8827   */\n      0x6e6375656e74726120646973706f6e69626c6500000000000000000000000000\n        /* \"--CODEGEN--\":8801:8803   */\n      0x20\n        /* \"--CODEGEN--\":8796:8799   */\n      dup4\n        /* \"--CODEGEN--\":8792:8804   */\n      add\n        /* \"--CODEGEN--\":8785:8828   */\n      mstore\n        /* \"--CODEGEN--\":8856:8858   */\n      0x40\n        /* \"--CODEGEN--\":8851:8854   */\n      dup3\n        /* \"--CODEGEN--\":8847:8859   */\n      add\n        /* \"--CODEGEN--\":8840:8859   */\n      swap1\n      pop\n        /* \"--CODEGEN--\":8623:8865   */\n      swap2\n      swap1\n      pop\n      jump\t// out\n        /* \"--CODEGEN--\":8874:9204   */\n    tag_402:\n      0x00\n        /* \"--CODEGEN--\":9034:9101   */\n      tag_404\n        /* \"--CODEGEN--\":9098:9100   */\n      0x1e\n        /* \"--CODEGEN--\":9093:9096   */\n      dup4\n        /* \"--CODEGEN--\":9034:9101   */\n      tag_358\n      jump\t// in\n    tag_404:\n        /* \"--CODEGEN--\":9027:9101   */\n      swap2\n      pop\n        /* \"--CODEGEN--\":9134:9166   */\n      0x43616e746964616420646520657468657220696e737566696369656e74650000\n        /* \"--CODEGEN--\":9130:9131   */\n      0x00\n        /* \"--CODEGEN--\":9125:9128   */\n      dup4\n        /* \"--CODEGEN--\":9121:9132   */\n      add\n        /* \"--CODEGEN--\":9114:9167   */\n      mstore\n        /* \"--CODEGEN--\":9195:9197   */\n      0x20\n        /* \"--CODEGEN--\":9190:9193   */\n      dup3\n        /* \"--CODEGEN--\":9186:9198   */\n      add\n        /* \"--CODEGEN--\":9179:9198   */\n      swap1\n      pop\n        /* \"--CODEGEN--\":9020:9204   */\n      swap2\n      swap1\n      pop\n      jump\t// out\n        /* \"--CODEGEN--\":9213:9545   */\n    tag_405:\n      0x00\n        /* \"--CODEGEN--\":9373:9440   */\n      tag_407\n        /* \"--CODEGEN--\":9437:9439   */\n      0x20\n        /* \"--CODEGEN--\":9432:9435   */\n      dup4\n        /* \"--CODEGEN--\":9373:9440   */\n      tag_358\n      jump\t// in\n    tag_407:\n        /* \"--CODEGEN--\":9366:9440   */\n      swap2\n      pop\n        /* \"--CODEGEN--\":9473:9507   */\n      0x43616e746964616420646520746f6b656e7320696e737566696369656e746573\n        /* \"--CODEGEN--\":9469:9470   */\n      0x00\n        /* \"--CODEGEN--\":9464:9467   */\n      dup4\n        /* \"--CODEGEN--\":9460:9471   */\n      add\n        /* \"--CODEGEN--\":9453:9508   */\n      mstore\n        /* \"--CODEGEN--\":9536:9538   */\n      0x20\n        /* \"--CODEGEN--\":9531:9534   */\n      dup3\n        /* \"--CODEGEN--\":9527:9539   */\n      add\n        /* \"--CODEGEN--\":9520:9539   */\n      swap1\n      pop\n        /* \"--CODEGEN--\":9359:9545   */\n      swap2\n      swap1\n      pop\n      jump\t// out\n        /* \"--CODEGEN--\":9554:9950   */\n    tag_408:\n      0x00\n        /* \"--CODEGEN--\":9714:9781   */\n      tag_410\n        /* \"--CODEGEN--\":9778:9780   */\n      0x3b\n        /* \"--CODEGEN--\":9773:9776   */\n      dup4\n        /* \"--CODEGEN--\":9714:9781   */\n      tag_358\n      jump\t// in\n    tag_410:\n        /* \"--CODEGEN--\":9707:9781   */\n      swap2\n      pop\n        /* \"--CODEGEN--\":9814:9848   */\n      0x4e6f207365207075656465206461722064652062616a61206120756e61206174\n        /* \"--CODEGEN--\":9810:9811   */\n      0x00\n        /* \"--CODEGEN--\":9805:9808   */\n      dup4\n        /* \"--CODEGEN--\":9801:9812   */\n      add\n        /* \"--CODEGEN--\":9794:9849   */\n      mstore\n        /* \"--CODEGEN--\":9883:9912   */\n      0x72616363696f6e2071756520796120657374612064652062616a610000000000\n        /* \"--CODEGEN--\":9878:9880   */\n      0x20\n        /* \"--CODEGEN--\":9873:9876   */\n      dup4\n        /* \"--CODEGEN--\":9869:9881   */\n      add\n        /* \"--CODEGEN--\":9862:9913   */\n      mstore\n        /* \"--CODEGEN--\":9941:9943   */\n      0x40\n        /* \"--CODEGEN--\":9936:9939   */\n      dup3\n        /* \"--CODEGEN--\":9932:9944   */\n      add\n        /* \"--CODEGEN--\":9925:9944   */\n      swap1\n      pop\n        /* \"--CODEGEN--\":9700:9950   */\n      swap2\n      swap1\n      pop\n      jump\t// out\n        /* \"--CODEGEN--\":9959:10360   */\n    tag_411:\n      0x00\n        /* \"--CODEGEN--\":10119:10186   */\n      tag_413\n        /* \"--CODEGEN--\":10183:10185   */\n      0x40\n        /* \"--CODEGEN--\":10178:10181   */\n      dup4\n        /* \"--CODEGEN--\":10119:10186   */\n      tag_358\n      jump\t// in\n    tag_413:\n        /* \"--CODEGEN--\":10112:10186   */\n      swap2\n      pop\n        /* \"--CODEGEN--\":10219:10253   */\n      0x4e6f2073652070756564652064617220646520616c7461206120756e61206174\n        /* \"--CODEGEN--\":10215:10216   */\n      0x00\n        /* \"--CODEGEN--\":10210:10213   */\n      dup4\n        /* \"--CODEGEN--\":10206:10217   */\n      add\n        /* \"--CODEGEN--\":10199:10254   */\n      mstore\n        /* \"--CODEGEN--\":10288:10322   */\n      0x72616363696f6e207175652079612065737461206461646120646520616c7461\n        /* \"--CODEGEN--\":10283:10285   */\n      0x20\n        /* \"--CODEGEN--\":10278:10281   */\n      dup4\n        /* \"--CODEGEN--\":10274:10286   */\n      add\n        /* \"--CODEGEN--\":10267:10323   */\n      mstore\n        /* \"--CODEGEN--\":10351:10353   */\n      0x40\n        /* \"--CODEGEN--\":10346:10349   */\n      dup3\n        /* \"--CODEGEN--\":10342:10354   */\n      add\n        /* \"--CODEGEN--\":10335:10354   */\n      swap1\n      pop\n        /* \"--CODEGEN--\":10105:10360   */\n      swap2\n      swap1\n      pop\n      jump\t// out\n        /* \"--CODEGEN--\":10369:10802   */\n    tag_414:\n      0x00\n        /* \"--CODEGEN--\":10529:10596   */\n      tag_416\n        /* \"--CODEGEN--\":10593:10595   */\n      0x2c\n        /* \"--CODEGEN--\":10588:10591   */\n      dup4\n        /* \"--CODEGEN--\":10529:10596   */\n      tag_358\n      jump\t// in\n    tag_416:\n        /* \"--CODEGEN--\":10522:10596   */\n      swap2\n      pop\n        /* \"--CODEGEN--\":10629:10663   */\n      0x4e6f207469656e6573207065726d69736f207061726120656a65637574617220\n        /* \"--CODEGEN--\":10625:10626   */\n      0x00\n        /* \"--CODEGEN--\":10620:10623   */\n      dup4\n        /* \"--CODEGEN--\":10616:10627   */\n      add\n        /* \"--CODEGEN--\":10609:10664   */\n      mstore\n        /* \"--CODEGEN--\":10698:10764   */\n      0x657374612061636369c3b36e0000000000000000000000000000000000000000\n        /* \"--CODEGEN--\":10693:10695   */\n      0x20\n        /* \"--CODEGEN--\":10688:10691   */\n      dup4\n        /* \"--CODEGEN--\":10684:10696   */\n      add\n        /* \"--CODEGEN--\":10677:10765   */\n      mstore\n        /* \"--CODEGEN--\":10793:10795   */\n      0x40\n        /* \"--CODEGEN--\":10788:10791   */\n      dup3\n        /* \"--CODEGEN--\":10784:10796   */\n      add\n        /* \"--CODEGEN--\":10777:10796   */\n      swap1\n      pop\n        /* \"--CODEGEN--\":10515:10802   */\n      swap2\n      swap1\n      pop\n      jump\t// out\n        /* \"--CODEGEN--\":10811:11201   */\n    tag_417:\n      0x00\n        /* \"--CODEGEN--\":10971:11038   */\n      tag_419\n        /* \"--CODEGEN--\":11035:11037   */\n      0x35\n        /* \"--CODEGEN--\":11030:11033   */\n      dup4\n        /* \"--CODEGEN--\":10971:11038   */\n      tag_358\n      jump\t// in\n    tag_419:\n        /* \"--CODEGEN--\":10964:11038   */\n      swap2\n      pop\n        /* \"--CODEGEN--\":11071:11105   */\n      0x4e6f207365207075656465206461722064652062616a61206120756e61206174\n        /* \"--CODEGEN--\":11067:11068   */\n      0x00\n        /* \"--CODEGEN--\":11062:11065   */\n      dup4\n        /* \"--CODEGEN--\":11058:11069   */\n      add\n        /* \"--CODEGEN--\":11051:11106   */\n      mstore\n        /* \"--CODEGEN--\":11140:11163   */\n      0x72616363696f6e20717565206e6f206578697374610000000000000000000000\n        /* \"--CODEGEN--\":11135:11137   */\n      0x20\n        /* \"--CODEGEN--\":11130:11133   */\n      dup4\n        /* \"--CODEGEN--\":11126:11138   */\n      add\n        /* \"--CODEGEN--\":11119:11164   */\n      mstore\n        /* \"--CODEGEN--\":11192:11194   */\n      0x40\n        /* \"--CODEGEN--\":11187:11190   */\n      dup3\n        /* \"--CODEGEN--\":11183:11195   */\n      add\n        /* \"--CODEGEN--\":11176:11195   */\n      swap1\n      pop\n        /* \"--CODEGEN--\":10957:11201   */\n      swap2\n      swap1\n      pop\n      jump\t// out\n        /* \"--CODEGEN--\":11210:11600   */\n    tag_420:\n      0x00\n        /* \"--CODEGEN--\":11370:11437   */\n      tag_422\n        /* \"--CODEGEN--\":11434:11436   */\n      0x35\n        /* \"--CODEGEN--\":11429:11432   */\n      dup4\n        /* \"--CODEGEN--\":11370:11437   */\n      tag_358\n      jump\t// in\n    tag_422:\n        /* \"--CODEGEN--\":11363:11437   */\n      swap2\n      pop\n        /* \"--CODEGEN--\":11470:11504   */\n      0x4e6f2073652070756564652064617220646520616c7461206120756e61206174\n        /* \"--CODEGEN--\":11466:11467   */\n      0x00\n        /* \"--CODEGEN--\":11461:11464   */\n      dup4\n        /* \"--CODEGEN--\":11457:11468   */\n      add\n        /* \"--CODEGEN--\":11450:11505   */\n      mstore\n        /* \"--CODEGEN--\":11539:11562   */\n      0x72616363696f6e20717565206e6f206578697374610000000000000000000000\n        /* \"--CODEGEN--\":11534:11536   */\n      0x20\n        /* \"--CODEGEN--\":11529:11532   */\n      dup4\n        /* \"--CODEGEN--\":11525:11537   */\n      add\n        /* \"--CODEGEN--\":11518:11563   */\n      mstore\n        /* \"--CODEGEN--\":11591:11593   */\n      0x40\n        /* \"--CODEGEN--\":11586:11589   */\n      dup3\n        /* \"--CODEGEN--\":11582:11594   */\n      add\n        /* \"--CODEGEN--\":11575:11594   */\n      swap1\n      pop\n        /* \"--CODEGEN--\":11356:11600   */\n      swap2\n      swap1\n      pop\n      jump\t// out\n        /* \"--CODEGEN--\":11608:11721   */\n    tag_423:\n        /* \"--CODEGEN--\":11691:11715   */\n      tag_425\n        /* \"--CODEGEN--\":11709:11714   */\n      dup2\n        /* \"--CODEGEN--\":11691:11715   */\n      tag_426\n      jump\t// in\n    tag_425:\n        /* \"--CODEGEN--\":11686:11689   */\n      dup3\n        /* \"--CODEGEN--\":11679:11716   */\n      mstore\n        /* \"--CODEGEN--\":11673:11721   */\n      pop\n      pop\n      jump\t// out\n        /* \"--CODEGEN--\":11728:12003   */\n    tag_84:\n      0x00\n        /* \"--CODEGEN--\":11883:11978   */\n      tag_428\n        /* \"--CODEGEN--\":11974:11977   */\n      dup3\n        /* \"--CODEGEN--\":11965:11971   */\n      dup5\n        /* \"--CODEGEN--\":11883:11978   */\n      tag_361\n      jump\t// in\n    tag_428:\n        /* \"--CODEGEN--\":11876:11978   */\n      swap2\n      pop\n        /* \"--CODEGEN--\":11995:11998   */\n      dup2\n        /* \"--CODEGEN--\":11988:11998   */\n      swap1\n      pop\n        /* \"--CODEGEN--\":11864:12003   */\n      swap3\n      swap2\n      pop\n      pop\n      jump\t// out\n        /* \"--CODEGEN--\":12010:12707   */\n    tag_138:\n      0x00\n        /* \"--CODEGEN--\":12311:12406   */\n      tag_430\n        /* \"--CODEGEN--\":12402:12405   */\n      dup3\n        /* \"--CODEGEN--\":12393:12399   */\n      dup6\n        /* \"--CODEGEN--\":12311:12406   */\n      tag_361\n      jump\t// in\n    tag_430:\n        /* \"--CODEGEN--\":12304:12406   */\n      swap2\n      pop\n        /* \"--CODEGEN--\":12424:12572   */\n      tag_431\n        /* \"--CODEGEN--\":12568:12571   */\n      dup3\n        /* \"--CODEGEN--\":12424:12572   */\n      tag_393\n      jump\t// in\n    tag_431:\n        /* \"--CODEGEN--\":12417:12572   */\n      swap2\n      pop\n        /* \"--CODEGEN--\":12590:12682   */\n      tag_432\n        /* \"--CODEGEN--\":12678:12681   */\n      dup3\n        /* \"--CODEGEN--\":12669:12675   */\n      dup5\n        /* \"--CODEGEN--\":12590:12682   */\n      tag_379\n      jump\t// in\n    tag_432:\n        /* \"--CODEGEN--\":12583:12682   */\n      swap2\n      pop\n        /* \"--CODEGEN--\":12699:12702   */\n      dup2\n        /* \"--CODEGEN--\":12692:12702   */\n      swap1\n      pop\n        /* \"--CODEGEN--\":12292:12707   */\n      swap4\n      swap3\n      pop\n      pop\n      pop\n      jump\t// out\n        /* \"--CODEGEN--\":12714:12983   */\n    tag_88:\n      0x00\n        /* \"--CODEGEN--\":12866:12958   */\n      tag_434\n        /* \"--CODEGEN--\":12954:12957   */\n      dup3\n        /* \"--CODEGEN--\":12945:12951   */\n      dup5\n        /* \"--CODEGEN--\":12866:12958   */\n      tag_379\n      jump\t// in\n    tag_434:\n        /* \"--CODEGEN--\":12859:12958   */\n      swap2\n      pop\n        /* \"--CODEGEN--\":12975:12978   */\n      dup2\n        /* \"--CODEGEN--\":12968:12978   */\n      swap1\n      pop\n        /* \"--CODEGEN--\":12847:12983   */\n      swap3\n      swap2\n      pop\n      pop\n      jump\t// out\n        /* \"--CODEGEN--\":12990:13212   */\n    tag_168:\n      0x00\n        /* \"--CODEGEN--\":13117:13119   */\n      0x20\n        /* \"--CODEGEN--\":13106:13115   */\n      dup3\n        /* \"--CODEGEN--\":13102:13120   */\n      add\n        /* \"--CODEGEN--\":13094:13120   */\n      swap1\n      pop\n        /* \"--CODEGEN--\":13131:13202   */\n      tag_436\n        /* \"--CODEGEN--\":13199:13200   */\n      0x00\n        /* \"--CODEGEN--\":13188:13197   */\n      dup4\n        /* \"--CODEGEN--\":13184:13201   */\n      add\n        /* \"--CODEGEN--\":13175:13181   */\n      dup5\n        /* \"--CODEGEN--\":13131:13202   */\n      tag_323\n      jump\t// in\n    tag_436:\n        /* \"--CODEGEN--\":13088:13212   */\n      swap3\n      swap2\n      pop\n      pop\n      jump\t// out\n        /* \"--CODEGEN--\":13219:13457   */\n    tag_227:\n      0x00\n        /* \"--CODEGEN--\":13354:13356   */\n      0x20\n        /* \"--CODEGEN--\":13343:13352   */\n      dup3\n        /* \"--CODEGEN--\":13339:13357   */\n      add\n        /* \"--CODEGEN--\":13331:13357   */\n      swap1\n      pop\n        /* \"--CODEGEN--\":13368:13447   */\n      tag_438\n        /* \"--CODEGEN--\":13444:13445   */\n      0x00\n        /* \"--CODEGEN--\":13433:13442   */\n      dup4\n        /* \"--CODEGEN--\":13429:13446   */\n      add\n        /* \"--CODEGEN--\":13420:13426   */\n      dup5\n        /* \"--CODEGEN--\":13368:13447   */\n      tag_315\n      jump\t// in\n    tag_438:\n        /* \"--CODEGEN--\":13325:13457   */\n      swap3\n      swap2\n      pop\n      pop\n      jump\t// out\n        /* \"--CODEGEN--\":13464:13718   */\n    tag_46:\n      0x00\n        /* \"--CODEGEN--\":13607:13609   */\n      0x20\n        /* \"--CODEGEN--\":13596:13605   */\n      dup3\n        /* \"--CODEGEN--\":13592:13610   */\n      add\n        /* \"--CODEGEN--\":13584:13610   */\n      swap1\n      pop\n        /* \"--CODEGEN--\":13621:13708   */\n      tag_440\n        /* \"--CODEGEN--\":13705:13706   */\n      0x00\n        /* \"--CODEGEN--\":13694:13703   */\n      dup4\n        /* \"--CODEGEN--\":13690:13707   */\n      add\n        /* \"--CODEGEN--\":13681:13687   */\n      dup5\n        /* \"--CODEGEN--\":13621:13708   */\n      tag_319\n      jump\t// in\n    tag_440:\n        /* \"--CODEGEN--\":13578:13718   */\n      swap3\n      swap2\n      pop\n      pop\n      jump\t// out\n        /* \"--CODEGEN--\":13725:14185   */\n    tag_105:\n      0x00\n        /* \"--CODEGEN--\":13916:13918   */\n      0x60\n        /* \"--CODEGEN--\":13905:13914   */\n      dup3\n        /* \"--CODEGEN--\":13901:13919   */\n      add\n        /* \"--CODEGEN--\":13893:13919   */\n      swap1\n      pop\n        /* \"--CODEGEN--\":13930:14009   */\n      tag_442\n        /* \"--CODEGEN--\":14006:14007   */\n      0x00\n        /* \"--CODEGEN--\":13995:14004   */\n      dup4\n        /* \"--CODEGEN--\":13991:14008   */\n      add\n        /* \"--CODEGEN--\":13982:13988   */\n      dup7\n        /* \"--CODEGEN--\":13930:14009   */\n      tag_315\n      jump\t// in\n    tag_442:\n        /* \"--CODEGEN--\":14020:14092   */\n      tag_443\n        /* \"--CODEGEN--\":14088:14090   */\n      0x20\n        /* \"--CODEGEN--\":14077:14086   */\n      dup4\n        /* \"--CODEGEN--\":14073:14091   */\n      add\n        /* \"--CODEGEN--\":14064:14070   */\n      dup6\n        /* \"--CODEGEN--\":14020:14092   */\n      tag_323\n      jump\t// in\n    tag_443:\n        /* \"--CODEGEN--\":14103:14175   */\n      tag_444\n        /* \"--CODEGEN--\":14171:14173   */\n      0x40\n        /* \"--CODEGEN--\":14160:14169   */\n      dup4\n        /* \"--CODEGEN--\":14156:14174   */\n      add\n        /* \"--CODEGEN--\":14147:14153   */\n      dup5\n        /* \"--CODEGEN--\":14103:14175   */\n      tag_423\n      jump\t// in\n    tag_444:\n        /* \"--CODEGEN--\":13887:14185   */\n      swap5\n      swap4\n      pop\n      pop\n      pop\n      pop\n      jump\t// out\n        /* \"--CODEGEN--\":14192:14541   */\n    tag_245:\n      0x00\n        /* \"--CODEGEN--\":14355:14357   */\n      0x40\n        /* \"--CODEGEN--\":14344:14353   */\n      dup3\n        /* \"--CODEGEN--\":14340:14358   */\n      add\n        /* \"--CODEGEN--\":14332:14358   */\n      swap1\n      pop\n        /* \"--CODEGEN--\":14369:14448   */\n      tag_446\n        /* \"--CODEGEN--\":14445:14446   */\n      0x00\n        /* \"--CODEGEN--\":14434:14443   */\n      dup4\n        /* \"--CODEGEN--\":14430:14447   */\n      add\n        /* \"--CODEGEN--\":14421:14427   */\n      dup6\n        /* \"--CODEGEN--\":14369:14448   */\n      tag_315\n      jump\t// in\n    tag_446:\n        /* \"--CODEGEN--\":14459:14531   */\n      tag_447\n        /* \"--CODEGEN--\":14527:14529   */\n      0x20\n        /* \"--CODEGEN--\":14516:14525   */\n      dup4\n        /* \"--CODEGEN--\":14512:14530   */\n      add\n        /* \"--CODEGEN--\":14503:14509   */\n      dup5\n        /* \"--CODEGEN--\":14459:14531   */\n      tag_423\n      jump\t// in\n    tag_447:\n        /* \"--CODEGEN--\":14326:14541   */\n      swap4\n      swap3\n      pop\n      pop\n      pop\n      jump\t// out\n        /* \"--CODEGEN--\":14548:14958   */\n    tag_36:\n      0x00\n        /* \"--CODEGEN--\":14745:14747   */\n      0x20\n        /* \"--CODEGEN--\":14734:14743   */\n      dup3\n        /* \"--CODEGEN--\":14730:14748   */\n      add\n        /* \"--CODEGEN--\":14722:14748   */\n      swap1\n      pop\n        /* \"--CODEGEN--\":14795:14804   */\n      dup2\n        /* \"--CODEGEN--\":14789:14793   */\n      dup2\n        /* \"--CODEGEN--\":14785:14805   */\n      sub\n        /* \"--CODEGEN--\":14781:14782   */\n      0x00\n        /* \"--CODEGEN--\":14770:14779   */\n      dup4\n        /* \"--CODEGEN--\":14766:14783   */\n      add\n        /* \"--CODEGEN--\":14759:14806   */\n      mstore\n        /* \"--CODEGEN--\":14820:14948   */\n      tag_449\n        /* \"--CODEGEN--\":14943:14947   */\n      dup2\n        /* \"--CODEGEN--\":14934:14940   */\n      dup5\n        /* \"--CODEGEN--\":14820:14948   */\n      tag_327\n      jump\t// in\n    tag_449:\n        /* \"--CODEGEN--\":14812:14948   */\n      swap1\n      pop\n        /* \"--CODEGEN--\":14716:14958   */\n      swap3\n      swap2\n      pop\n      pop\n      jump\t// out\n        /* \"--CODEGEN--\":14965:15275   */\n    tag_26:\n      0x00\n        /* \"--CODEGEN--\":15112:15114   */\n      0x20\n        /* \"--CODEGEN--\":15101:15110   */\n      dup3\n        /* \"--CODEGEN--\":15097:15115   */\n      add\n        /* \"--CODEGEN--\":15089:15115   */\n      swap1\n      pop\n        /* \"--CODEGEN--\":15162:15171   */\n      dup2\n        /* \"--CODEGEN--\":15156:15160   */\n      dup2\n        /* \"--CODEGEN--\":15152:15172   */\n      sub\n        /* \"--CODEGEN--\":15148:15149   */\n      0x00\n        /* \"--CODEGEN--\":15137:15146   */\n      dup4\n        /* \"--CODEGEN--\":15133:15150   */\n      add\n        /* \"--CODEGEN--\":15126:15173   */\n      mstore\n        /* \"--CODEGEN--\":15187:15265   */\n      tag_451\n        /* \"--CODEGEN--\":15260:15264   */\n      dup2\n        /* \"--CODEGEN--\":15251:15257   */\n      dup5\n        /* \"--CODEGEN--\":15187:15265   */\n      tag_354\n      jump\t// in\n    tag_451:\n        /* \"--CODEGEN--\":15179:15265   */\n      swap1\n      pop\n        /* \"--CODEGEN--\":15083:15275   */\n      swap3\n      swap2\n      pop\n      pop\n      jump\t// out\n        /* \"--CODEGEN--\":15282:15703   */\n    tag_150:\n      0x00\n        /* \"--CODEGEN--\":15457:15459   */\n      0x40\n        /* \"--CODEGEN--\":15446:15455   */\n      dup3\n        /* \"--CODEGEN--\":15442:15460   */\n      add\n        /* \"--CODEGEN--\":15434:15460   */\n      swap1\n      pop\n        /* \"--CODEGEN--\":15507:15516   */\n      dup2\n        /* \"--CODEGEN--\":15501:15505   */\n      dup2\n        /* \"--CODEGEN--\":15497:15517   */\n      sub\n        /* \"--CODEGEN--\":15493:15494   */\n      0x00\n        /* \"--CODEGEN--\":15482:15491   */\n      dup4\n        /* \"--CODEGEN--\":15478:15495   */\n      add\n        /* \"--CODEGEN--\":15471:15518   */\n      mstore\n        /* \"--CODEGEN--\":15532:15610   */\n      tag_453\n        /* \"--CODEGEN--\":15605:15609   */\n      dup2\n        /* \"--CODEGEN--\":15596:15602   */\n      dup6\n        /* \"--CODEGEN--\":15532:15610   */\n      tag_354\n      jump\t// in\n    tag_453:\n        /* \"--CODEGEN--\":15524:15610   */\n      swap1\n      pop\n        /* \"--CODEGEN--\":15621:15693   */\n      tag_454\n        /* \"--CODEGEN--\":15689:15691   */\n      0x20\n        /* \"--CODEGEN--\":15678:15687   */\n      dup4\n        /* \"--CODEGEN--\":15674:15692   */\n      add\n        /* \"--CODEGEN--\":15665:15671   */\n      dup5\n        /* \"--CODEGEN--\":15621:15693   */\n      tag_423\n      jump\t// in\n    tag_454:\n        /* \"--CODEGEN--\":15428:15703   */\n      swap4\n      swap3\n      pop\n      pop\n      pop\n      jump\t// out\n        /* \"--CODEGEN--\":15710:16230   */\n    tag_71:\n      0x00\n        /* \"--CODEGEN--\":15907:15909   */\n      0x60\n        /* \"--CODEGEN--\":15896:15905   */\n      dup3\n        /* \"--CODEGEN--\":15892:15910   */\n      add\n        /* \"--CODEGEN--\":15884:15910   */\n      swap1\n      pop\n        /* \"--CODEGEN--\":15957:15966   */\n      dup2\n        /* \"--CODEGEN--\":15951:15955   */\n      dup2\n        /* \"--CODEGEN--\":15947:15967   */\n      sub\n        /* \"--CODEGEN--\":15943:15944   */\n      0x00\n        /* \"--CODEGEN--\":15932:15941   */\n      dup4\n        /* \"--CODEGEN--\":15928:15945   */\n      add\n        /* \"--CODEGEN--\":15921:15968   */\n      mstore\n        /* \"--CODEGEN--\":15982:16060   */\n      tag_456\n        /* \"--CODEGEN--\":16055:16059   */\n      dup2\n        /* \"--CODEGEN--\":16046:16052   */\n      dup7\n        /* \"--CODEGEN--\":15982:16060   */\n      tag_354\n      jump\t// in\n    tag_456:\n        /* \"--CODEGEN--\":15974:16060   */\n      swap1\n      pop\n        /* \"--CODEGEN--\":16071:16143   */\n      tag_457\n        /* \"--CODEGEN--\":16139:16141   */\n      0x20\n        /* \"--CODEGEN--\":16128:16137   */\n      dup4\n        /* \"--CODEGEN--\":16124:16142   */\n      add\n        /* \"--CODEGEN--\":16115:16121   */\n      dup6\n        /* \"--CODEGEN--\":16071:16143   */\n      tag_423\n      jump\t// in\n    tag_457:\n        /* \"--CODEGEN--\":16154:16220   */\n      tag_458\n        /* \"--CODEGEN--\":16216:16218   */\n      0x40\n        /* \"--CODEGEN--\":16205:16214   */\n      dup4\n        /* \"--CODEGEN--\":16201:16219   */\n      add\n        /* \"--CODEGEN--\":16192:16198   */\n      dup5\n        /* \"--CODEGEN--\":16154:16220   */\n      tag_341\n      jump\t// in\n    tag_458:\n        /* \"--CODEGEN--\":15878:16230   */\n      swap5\n      swap4\n      pop\n      pop\n      pop\n      pop\n      jump\t// out\n        /* \"--CODEGEN--\":16237:16541   */\n    tag_119:\n      0x00\n        /* \"--CODEGEN--\":16381:16383   */\n      0x20\n        /* \"--CODEGEN--\":16370:16379   */\n      dup3\n        /* \"--CODEGEN--\":16366:16384   */\n      add\n        /* \"--CODEGEN--\":16358:16384   */\n      swap1\n      pop\n        /* \"--CODEGEN--\":16431:16440   */\n      dup2\n        /* \"--CODEGEN--\":16425:16429   */\n      dup2\n        /* \"--CODEGEN--\":16421:16441   */\n      sub\n        /* \"--CODEGEN--\":16417:16418   */\n      0x00\n        /* \"--CODEGEN--\":16406:16415   */\n      dup4\n        /* \"--CODEGEN--\":16402:16419   */\n      add\n        /* \"--CODEGEN--\":16395:16442   */\n      mstore\n        /* \"--CODEGEN--\":16456:16531   */\n      tag_460\n        /* \"--CODEGEN--\":16526:16530   */\n      dup2\n        /* \"--CODEGEN--\":16517:16523   */\n      dup5\n        /* \"--CODEGEN--\":16456:16531   */\n      tag_367\n      jump\t// in\n    tag_460:\n        /* \"--CODEGEN--\":16448:16531   */\n      swap1\n      pop\n        /* \"--CODEGEN--\":16352:16541   */\n      swap3\n      swap2\n      pop\n      pop\n      jump\t// out\n        /* \"--CODEGEN--\":16548:16964   */\n    tag_126:\n      0x00\n        /* \"--CODEGEN--\":16748:16750   */\n      0x20\n        /* \"--CODEGEN--\":16737:16746   */\n      dup3\n        /* \"--CODEGEN--\":16733:16751   */\n      add\n        /* \"--CODEGEN--\":16725:16751   */\n      swap1\n      pop\n        /* \"--CODEGEN--\":16798:16807   */\n      dup2\n        /* \"--CODEGEN--\":16792:16796   */\n      dup2\n        /* \"--CODEGEN--\":16788:16808   */\n      sub\n        /* \"--CODEGEN--\":16784:16785   */\n      0x00\n        /* \"--CODEGEN--\":16773:16782   */\n      dup4\n        /* \"--CODEGEN--\":16769:16786   */\n      add\n        /* \"--CODEGEN--\":16762:16809   */\n      mstore\n        /* \"--CODEGEN--\":16823:16954   */\n      tag_462\n        /* \"--CODEGEN--\":16949:16953   */\n      dup2\n        /* \"--CODEGEN--\":16823:16954   */\n      tag_390\n      jump\t// in\n    tag_462:\n        /* \"--CODEGEN--\":16815:16954   */\n      swap1\n      pop\n        /* \"--CODEGEN--\":16719:16964   */\n      swap2\n      swap1\n      pop\n      jump\t// out\n        /* \"--CODEGEN--\":16971:17387   */\n    tag_100:\n      0x00\n        /* \"--CODEGEN--\":17171:17173   */\n      0x20\n        /* \"--CODEGEN--\":17160:17169   */\n      dup3\n        /* \"--CODEGEN--\":17156:17174   */\n      add\n        /* \"--CODEGEN--\":17148:17174   */\n      swap1\n      pop\n        /* \"--CODEGEN--\":17221:17230   */\n      dup2\n        /* \"--CODEGEN--\":17215:17219   */\n      dup2\n        /* \"--CODEGEN--\":17211:17231   */\n      sub\n        /* \"--CODEGEN--\":17207:17208   */\n      0x00\n        /* \"--CODEGEN--\":17196:17205   */\n      dup4\n        /* \"--CODEGEN--\":17192:17209   */\n      add\n        /* \"--CODEGEN--\":17185:17232   */\n      mstore\n        /* \"--CODEGEN--\":17246:17377   */\n      tag_464\n        /* \"--CODEGEN--\":17372:17376   */\n      dup2\n        /* \"--CODEGEN--\":17246:17377   */\n      tag_396\n      jump\t// in\n    tag_464:\n        /* \"--CODEGEN--\":17238:17377   */\n      swap1\n      pop\n        /* \"--CODEGEN--\":17142:17387   */\n      swap2\n      swap1\n      pop\n      jump\t// out\n        /* \"--CODEGEN--\":17394:17810   */\n    tag_123:\n      0x00\n        /* \"--CODEGEN--\":17594:17596   */\n      0x20\n        /* \"--CODEGEN--\":17583:17592   */\n      dup3\n        /* \"--CODEGEN--\":17579:17597   */\n      add\n        /* \"--CODEGEN--\":17571:17597   */\n      swap1\n      pop\n        /* \"--CODEGEN--\":17644:17653   */\n      dup2\n        /* \"--CODEGEN--\":17638:17642   */\n      dup2\n        /* \"--CODEGEN--\":17634:17654   */\n      sub\n        /* \"--CODEGEN--\":17630:17631   */\n      0x00\n        /* \"--CODEGEN--\":17619:17628   */\n      dup4\n        /* \"--CODEGEN--\":17615:17632   */\n      add\n        /* \"--CODEGEN--\":17608:17655   */\n      mstore\n        /* \"--CODEGEN--\":17669:17800   */\n      tag_466\n        /* \"--CODEGEN--\":17795:17799   */\n      dup2\n        /* \"--CODEGEN--\":17669:17800   */\n      tag_399\n      jump\t// in\n    tag_466:\n        /* \"--CODEGEN--\":17661:17800   */\n      swap1\n      pop\n        /* \"--CODEGEN--\":17565:17810   */\n      swap2\n      swap1\n      pop\n      jump\t// out\n        /* \"--CODEGEN--\":17817:18233   */\n    tag_237:\n      0x00\n        /* \"--CODEGEN--\":18017:18019   */\n      0x20\n        /* \"--CODEGEN--\":18006:18015   */\n      dup3\n        /* \"--CODEGEN--\":18002:18020   */\n      add\n        /* \"--CODEGEN--\":17994:18020   */\n      swap1\n      pop\n        /* \"--CODEGEN--\":18067:18076   */\n      dup2\n        /* \"--CODEGEN--\":18061:18065   */\n      dup2\n        /* \"--CODEGEN--\":18057:18077   */\n      sub\n        /* \"--CODEGEN--\":18053:18054   */\n      0x00\n        /* \"--CODEGEN--\":18042:18051   */\n      dup4\n        /* \"--CODEGEN--\":18038:18055   */\n      add\n        /* \"--CODEGEN--\":18031:18078   */\n      mstore\n        /* \"--CODEGEN--\":18092:18223   */\n      tag_468\n        /* \"--CODEGEN--\":18218:18222   */\n      dup2\n        /* \"--CODEGEN--\":18092:18223   */\n      tag_402\n      jump\t// in\n    tag_468:\n        /* \"--CODEGEN--\":18084:18223   */\n      swap1\n      pop\n        /* \"--CODEGEN--\":17988:18233   */\n      swap2\n      swap1\n      pop\n      jump\t// out\n        /* \"--CODEGEN--\":18240:18656   */\n    tag_241:\n      0x00\n        /* \"--CODEGEN--\":18440:18442   */\n      0x20\n        /* \"--CODEGEN--\":18429:18438   */\n      dup3\n        /* \"--CODEGEN--\":18425:18443   */\n      add\n        /* \"--CODEGEN--\":18417:18443   */\n      swap1\n      pop\n        /* \"--CODEGEN--\":18490:18499   */\n      dup2\n        /* \"--CODEGEN--\":18484:18488   */\n      dup2\n        /* \"--CODEGEN--\":18480:18500   */\n      sub\n        /* \"--CODEGEN--\":18476:18477   */\n      0x00\n        /* \"--CODEGEN--\":18465:18474   */\n      dup4\n        /* \"--CODEGEN--\":18461:18478   */\n      add\n        /* \"--CODEGEN--\":18454:18501   */\n      mstore\n        /* \"--CODEGEN--\":18515:18646   */\n      tag_470\n        /* \"--CODEGEN--\":18641:18645   */\n      dup2\n        /* \"--CODEGEN--\":18515:18646   */\n      tag_405\n      jump\t// in\n    tag_470:\n        /* \"--CODEGEN--\":18507:18646   */\n      swap1\n      pop\n        /* \"--CODEGEN--\":18411:18656   */\n      swap2\n      swap1\n      pop\n      jump\t// out\n        /* \"--CODEGEN--\":18663:19079   */\n    tag_193:\n      0x00\n        /* \"--CODEGEN--\":18863:18865   */\n      0x20\n        /* \"--CODEGEN--\":18852:18861   */\n      dup3\n        /* \"--CODEGEN--\":18848:18866   */\n      add\n        /* \"--CODEGEN--\":18840:18866   */\n      swap1\n      pop\n        /* \"--CODEGEN--\":18913:18922   */\n      dup2\n        /* \"--CODEGEN--\":18907:18911   */\n      dup2\n        /* \"--CODEGEN--\":18903:18923   */\n      sub\n        /* \"--CODEGEN--\":18899:18900   */\n      0x00\n        /* \"--CODEGEN--\":18888:18897   */\n      dup4\n        /* \"--CODEGEN--\":18884:18901   */\n      add\n        /* \"--CODEGEN--\":18877:18924   */\n      mstore\n        /* \"--CODEGEN--\":18938:19069   */\n      tag_472\n        /* \"--CODEGEN--\":19064:19068   */\n      dup2\n        /* \"--CODEGEN--\":18938:19069   */\n      tag_408\n      jump\t// in\n    tag_472:\n        /* \"--CODEGEN--\":18930:19069   */\n      swap1\n      pop\n        /* \"--CODEGEN--\":18834:19079   */\n      swap2\n      swap1\n      pop\n      jump\t// out\n        /* \"--CODEGEN--\":19086:19502   */\n    tag_217:\n      0x00\n        /* \"--CODEGEN--\":19286:19288   */\n      0x20\n        /* \"--CODEGEN--\":19275:19284   */\n      dup3\n        /* \"--CODEGEN--\":19271:19289   */\n      add\n        /* \"--CODEGEN--\":19263:19289   */\n      swap1\n      pop\n        /* \"--CODEGEN--\":19336:19345   */\n      dup2\n        /* \"--CODEGEN--\":19330:19334   */\n      dup2\n        /* \"--CODEGEN--\":19326:19346   */\n      sub\n        /* \"--CODEGEN--\":19322:19323   */\n      0x00\n        /* \"--CODEGEN--\":19311:19320   */\n      dup4\n        /* \"--CODEGEN--\":19307:19324   */\n      add\n        /* \"--CODEGEN--\":19300:19347   */\n      mstore\n        /* \"--CODEGEN--\":19361:19492   */\n      tag_474\n        /* \"--CODEGEN--\":19487:19491   */\n      dup2\n        /* \"--CODEGEN--\":19361:19492   */\n      tag_411\n      jump\t// in\n    tag_474:\n        /* \"--CODEGEN--\":19353:19492   */\n      swap1\n      pop\n        /* \"--CODEGEN--\":19257:19502   */\n      swap2\n      swap1\n      pop\n      jump\t// out\n        /* \"--CODEGEN--\":19509:19925   */\n    tag_142:\n      0x00\n        /* \"--CODEGEN--\":19709:19711   */\n      0x20\n        /* \"--CODEGEN--\":19698:19707   */\n      dup3\n        /* \"--CODEGEN--\":19694:19712   */\n      add\n        /* \"--CODEGEN--\":19686:19712   */\n      swap1\n      pop\n        /* \"--CODEGEN--\":19759:19768   */\n      dup2\n        /* \"--CODEGEN--\":19753:19757   */\n      dup2\n        /* \"--CODEGEN--\":19749:19769   */\n      sub\n        /* \"--CODEGEN--\":19745:19746   */\n      0x00\n        /* \"--CODEGEN--\":19734:19743   */\n      dup4\n        /* \"--CODEGEN--\":19730:19747   */\n      add\n        /* \"--CODEGEN--\":19723:19770   */\n      mstore\n        /* \"--CODEGEN--\":19784:19915   */\n      tag_476\n        /* \"--CODEGEN--\":19910:19914   */\n      dup2\n        /* \"--CODEGEN--\":19784:19915   */\n      tag_414\n      jump\t// in\n    tag_476:\n        /* \"--CODEGEN--\":19776:19915   */\n      swap1\n      pop\n        /* \"--CODEGEN--\":19680:19925   */\n      swap2\n      swap1\n      pop\n      jump\t// out\n        /* \"--CODEGEN--\":19932:20348   */\n    tag_196:\n      0x00\n        /* \"--CODEGEN--\":20132:20134   */\n      0x20\n        /* \"--CODEGEN--\":20121:20130   */\n      dup3\n        /* \"--CODEGEN--\":20117:20135   */\n      add\n        /* \"--CODEGEN--\":20109:20135   */\n      swap1\n      pop\n        /* \"--CODEGEN--\":20182:20191   */\n      dup2\n        /* \"--CODEGEN--\":20176:20180   */\n      dup2\n        /* \"--CODEGEN--\":20172:20192   */\n      sub\n        /* \"--CODEGEN--\":20168:20169   */\n      0x00\n        /* \"--CODEGEN--\":20157:20166   */\n      dup4\n        /* \"--CODEGEN--\":20153:20170   */\n      add\n        /* \"--CODEGEN--\":20146:20193   */\n      mstore\n        /* \"--CODEGEN--\":20207:20338   */\n      tag_478\n        /* \"--CODEGEN--\":20333:20337   */\n      dup2\n        /* \"--CODEGEN--\":20207:20338   */\n      tag_417\n      jump\t// in\n    tag_478:\n        /* \"--CODEGEN--\":20199:20338   */\n      swap1\n      pop\n        /* \"--CODEGEN--\":20103:20348   */\n      swap2\n      swap1\n      pop\n      jump\t// out\n        /* \"--CODEGEN--\":20355:20771   */\n    tag_220:\n      0x00\n        /* \"--CODEGEN--\":20555:20557   */\n      0x20\n        /* \"--CODEGEN--\":20544:20553   */\n      dup3\n        /* \"--CODEGEN--\":20540:20558   */\n      add\n        /* \"--CODEGEN--\":20532:20558   */\n      swap1\n      pop\n        /* \"--CODEGEN--\":20605:20614   */\n      dup2\n        /* \"--CODEGEN--\":20599:20603   */\n      dup2\n        /* \"--CODEGEN--\":20595:20615   */\n      sub\n        /* \"--CODEGEN--\":20591:20592   */\n      0x00\n        /* \"--CODEGEN--\":20580:20589   */\n      dup4\n        /* \"--CODEGEN--\":20576:20593   */\n      add\n        /* \"--CODEGEN--\":20569:20616   */\n      mstore\n        /* \"--CODEGEN--\":20630:20761   */\n      tag_480\n        /* \"--CODEGEN--\":20756:20760   */\n      dup2\n        /* \"--CODEGEN--\":20630:20761   */\n      tag_420\n      jump\t// in\n    tag_480:\n        /* \"--CODEGEN--\":20622:20761   */\n      swap1\n      pop\n        /* \"--CODEGEN--\":20526:20771   */\n      swap2\n      swap1\n      pop\n      jump\t// out\n        /* \"--CODEGEN--\":20778:21000   */\n    tag_51:\n      0x00\n        /* \"--CODEGEN--\":20905:20907   */\n      0x20\n        /* \"--CODEGEN--\":20894:20903   */\n      dup3\n        /* \"--CODEGEN--\":20890:20908   */\n      add\n        /* \"--CODEGEN--\":20882:20908   */\n      swap1\n      pop\n        /* \"--CODEGEN--\":20919:20990   */\n      tag_482\n        /* \"--CODEGEN--\":20987:20988   */\n      0x00\n        /* \"--CODEGEN--\":20976:20985   */\n      dup4\n        /* \"--CODEGEN--\":20972:20989   */\n      add\n        /* \"--CODEGEN--\":20963:20969   */\n      dup5\n        /* \"--CODEGEN--\":20919:20990   */\n      tag_423\n      jump\t// in\n    tag_482:\n        /* \"--CODEGEN--\":20876:21000   */\n      swap3\n      swap2\n      pop\n      pop\n      jump\t// out\n        /* \"--CODEGEN--\":21007:21263   */\n    tag_279:\n      0x00\n        /* \"--CODEGEN--\":21069:21071   */\n      0x40\n        /* \"--CODEGEN--\":21063:21072   */\n      mload\n        /* \"--CODEGEN--\":21053:21072   */\n      swap1\n      pop\n        /* \"--CODEGEN--\":21107:21111   */\n      dup2\n        /* \"--CODEGEN--\":21099:21105   */\n      dup2\n        /* \"--CODEGEN--\":21095:21112   */\n      add\n        /* \"--CODEGEN--\":21206:21212   */\n      dup2\n        /* \"--CODEGEN--\":21194:21204   */\n      dup2\n        /* \"--CODEGEN--\":21191:21213   */\n      lt\n        /* \"--CODEGEN--\":21170:21188   */\n      0xffffffffffffffff\n        /* \"--CODEGEN--\":21158:21168   */\n      dup3\n        /* \"--CODEGEN--\":21155:21189   */\n      gt\n        /* \"--CODEGEN--\":21152:21214   */\n      or\n        /* \"--CODEGEN--\":21149:21151   */\n      iszero\n      tag_484\n      jumpi\n        /* \"--CODEGEN--\":21227:21228   */\n      0x00\n        /* \"--CODEGEN--\":21224:21225   */\n      dup1\n        /* \"--CODEGEN--\":21217:21229   */\n      revert\n        /* \"--CODEGEN--\":21149:21151   */\n    tag_484:\n        /* \"--CODEGEN--\":21247:21257   */\n      dup1\n        /* \"--CODEGEN--\":21243:21245   */\n      0x40\n        /* \"--CODEGEN--\":21236:21258   */\n      mstore\n        /* \"--CODEGEN--\":21047:21263   */\n      pop\n      swap2\n      swap1\n      pop\n      jump\t// out\n        /* \"--CODEGEN--\":21270:21592   */\n    tag_278:\n      0x00\n        /* \"--CODEGEN--\":21414:21432   */\n      0xffffffffffffffff\n        /* \"--CODEGEN--\":21406:21412   */\n      dup3\n        /* \"--CODEGEN--\":21403:21433   */\n      gt\n        /* \"--CODEGEN--\":21400:21402   */\n      iszero\n      tag_486\n      jumpi\n        /* \"--CODEGEN--\":21446:21447   */\n      0x00\n        /* \"--CODEGEN--\":21443:21444   */\n      dup1\n        /* \"--CODEGEN--\":21436:21448   */\n      revert\n        /* \"--CODEGEN--\":21400:21402   */\n    tag_486:\n        /* \"--CODEGEN--\":21513:21517   */\n      0x1f\n        /* \"--CODEGEN--\":21509:21518   */\n      not\n        /* \"--CODEGEN--\":21502:21506   */\n      0x1f\n        /* \"--CODEGEN--\":21494:21500   */\n      dup4\n        /* \"--CODEGEN--\":21490:21507   */\n      add\n        /* \"--CODEGEN--\":21486:21519   */\n      and\n        /* \"--CODEGEN--\":21478:21519   */\n      swap1\n      pop\n        /* \"--CODEGEN--\":21577:21581   */\n      0x20\n        /* \"--CODEGEN--\":21571:21575   */\n      dup2\n        /* \"--CODEGEN--\":21567:21582   */\n      add\n        /* \"--CODEGEN--\":21559:21582   */\n      swap1\n      pop\n        /* \"--CODEGEN--\":21337:21592   */\n      swap2\n      swap1\n      pop\n      jump\t// out\n        /* \"--CODEGEN--\":21599:21760   */\n    tag_334:\n      0x00\n        /* \"--CODEGEN--\":21695:21698   */\n      dup2\n        /* \"--CODEGEN--\":21687:21698   */\n      swap1\n      pop\n        /* \"--CODEGEN--\":21733:21737   */\n      0x20\n        /* \"--CODEGEN--\":21728:21731   */\n      dup3\n        /* \"--CODEGEN--\":21724:21738   */\n      add\n        /* \"--CODEGEN--\":21716:21738   */\n      swap1\n      pop\n        /* \"--CODEGEN--\":21681:21760   */\n      swap2\n      swap1\n      pop\n      jump\t// out\n        /* \"--CODEGEN--\":21767:21925   */\n    tag_375:\n      0x00\n        /* \"--CODEGEN--\":21835:21838   */\n      dup2\n        /* \"--CODEGEN--\":21827:21838   */\n      swap1\n      pop\n        /* \"--CODEGEN--\":21872:21875   */\n      dup2\n        /* \"--CODEGEN--\":21869:21870   */\n      0x00\n        /* \"--CODEGEN--\":21862:21876   */\n      mstore\n        /* \"--CODEGEN--\":21904:21908   */\n      0x20\n        /* \"--CODEGEN--\":21901:21902   */\n      0x00\n        /* \"--CODEGEN--\":21891:21909   */\n      keccak256\n        /* \"--CODEGEN--\":21883:21909   */\n      swap1\n      pop\n        /* \"--CODEGEN--\":21821:21925   */\n      swap2\n      swap1\n      pop\n      jump\t// out\n        /* \"--CODEGEN--\":21932:22079   */\n    tag_330:\n      0x00\n        /* \"--CODEGEN--\":22051:22056   */\n      dup2\n        /* \"--CODEGEN--\":22045:22057   */\n      mload\n        /* \"--CODEGEN--\":22035:22057   */\n      swap1\n      pop\n        /* \"--CODEGEN--\":22016:22079   */\n      swap2\n      swap1\n      pop\n      jump\t// out\n        /* \"--CODEGEN--\":22086:22208   */\n    tag_347:\n      0x00\n        /* \"--CODEGEN--\":22180:22185   */\n      dup2\n        /* \"--CODEGEN--\":22174:22186   */\n      mload\n        /* \"--CODEGEN--\":22164:22186   */\n      swap1\n      pop\n        /* \"--CODEGEN--\":22145:22208   */\n      swap2\n      swap1\n      pop\n      jump\t// out\n        /* \"--CODEGEN--\":22215:22333   */\n    tag_340:\n      0x00\n        /* \"--CODEGEN--\":22323:22327   */\n      0x20\n        /* \"--CODEGEN--\":22318:22321   */\n      dup3\n        /* \"--CODEGEN--\":22314:22328   */\n      add\n        /* \"--CODEGEN--\":22306:22328   */\n      swap1\n      pop\n        /* \"--CODEGEN--\":22300:22333   */\n      swap2\n      swap1\n      pop\n      jump\t// out\n        /* \"--CODEGEN--\":22341:22529   */\n    tag_332:\n      0x00\n        /* \"--CODEGEN--\":22481:22487   */\n      dup3\n        /* \"--CODEGEN--\":22476:22479   */\n      dup3\n        /* \"--CODEGEN--\":22469:22488   */\n      mstore\n        /* \"--CODEGEN--\":22518:22522   */\n      0x20\n        /* \"--CODEGEN--\":22513:22516   */\n      dup3\n        /* \"--CODEGEN--\":22509:22523   */\n      add\n        /* \"--CODEGEN--\":22494:22523   */\n      swap1\n      pop\n        /* \"--CODEGEN--\":22462:22529   */\n      swap3\n      swap2\n      pop\n      pop\n      jump\t// out\n        /* \"--CODEGEN--\":22538:22691   */\n    tag_349:\n      0x00\n        /* \"--CODEGEN--\":22643:22649   */\n      dup3\n        /* \"--CODEGEN--\":22638:22641   */\n      dup3\n        /* \"--CODEGEN--\":22631:22650   */\n      mstore\n        /* \"--CODEGEN--\":22680:22684   */\n      0x20\n        /* \"--CODEGEN--\":22675:22678   */\n      dup3\n        /* \"--CODEGEN--\":22671:22685   */\n      add\n        /* \"--CODEGEN--\":22656:22685   */\n      swap1\n      pop\n        /* \"--CODEGEN--\":22624:22691   */\n      swap3\n      swap2\n      pop\n      pop\n      jump\t// out\n        /* \"--CODEGEN--\":22700:22863   */\n    tag_358:\n      0x00\n        /* \"--CODEGEN--\":22815:22821   */\n      dup3\n        /* \"--CODEGEN--\":22810:22813   */\n      dup3\n        /* \"--CODEGEN--\":22803:22822   */\n      mstore\n        /* \"--CODEGEN--\":22852:22856   */\n      0x20\n        /* \"--CODEGEN--\":22847:22850   */\n      dup3\n        /* \"--CODEGEN--\":22843:22857   */\n      add\n        /* \"--CODEGEN--\":22828:22857   */\n      swap1\n      pop\n        /* \"--CODEGEN--\":22796:22863   */\n      swap3\n      swap2\n      pop\n      pop\n      jump\t// out\n        /* \"--CODEGEN--\":22872:23017   */\n    tag_365:\n      0x00\n        /* \"--CODEGEN--\":23008:23011   */\n      dup2\n        /* \"--CODEGEN--\":22993:23011   */\n      swap1\n      pop\n        /* \"--CODEGEN--\":22986:23017   */\n      swap3\n      swap2\n      pop\n      pop\n      jump\t// out\n        /* \"--CODEGEN--\":23025:23116   */\n    tag_326:\n      0x00\n        /* \"--CODEGEN--\":23087:23111   */\n      tag_497\n        /* \"--CODEGEN--\":23105:23110   */\n      dup3\n        /* \"--CODEGEN--\":23087:23111   */\n      tag_498\n      jump\t// in\n    tag_497:\n        /* \"--CODEGEN--\":23076:23111   */\n      swap1\n      pop\n        /* \"--CODEGEN--\":23070:23116   */\n      swap2\n      swap1\n      pop\n      jump\t// out\n        /* \"--CODEGEN--\":23123:23222   */\n    tag_322:\n      0x00\n        /* \"--CODEGEN--\":23193:23217   */\n      tag_500\n        /* \"--CODEGEN--\":23211:23216   */\n      dup3\n        /* \"--CODEGEN--\":23193:23217   */\n      tag_498\n      jump\t// in\n    tag_500:\n        /* \"--CODEGEN--\":23182:23217   */\n      swap1\n      pop\n        /* \"--CODEGEN--\":23176:23222   */\n      swap2\n      swap1\n      pop\n      jump\t// out\n        /* \"--CODEGEN--\":23229:23314   */\n    tag_344:\n      0x00\n        /* \"--CODEGEN--\":23302:23307   */\n      dup2\n        /* \"--CODEGEN--\":23295:23308   */\n      iszero\n        /* \"--CODEGEN--\":23288:23309   */\n      iszero\n        /* \"--CODEGEN--\":23277:23309   */\n      swap1\n      pop\n        /* \"--CODEGEN--\":23271:23314   */\n      swap2\n      swap1\n      pop\n      jump\t// out\n        /* \"--CODEGEN--\":23321:23442   */\n    tag_498:\n      0x00\n        /* \"--CODEGEN--\":23394:23436   */\n      0xffffffffffffffffffffffffffffffffffffffff\n        /* \"--CODEGEN--\":23387:23392   */\n      dup3\n        /* \"--CODEGEN--\":23383:23437   */\n      and\n        /* \"--CODEGEN--\":23372:23437   */\n      swap1\n      pop\n        /* \"--CODEGEN--\":23366:23442   */\n      swap2\n      swap1\n      pop\n      jump\t// out\n        /* \"--CODEGEN--\":23449:23521   */\n    tag_426:\n      0x00\n        /* \"--CODEGEN--\":23511:23516   */\n      dup2\n        /* \"--CODEGEN--\":23500:23516   */\n      swap1\n      pop\n        /* \"--CODEGEN--\":23494:23521   */\n      swap2\n      swap1\n      pop\n      jump\t// out\n        /* \"--CODEGEN--\":23528:23657   */\n    tag_318:\n      0x00\n        /* \"--CODEGEN--\":23615:23652   */\n      tag_505\n        /* \"--CODEGEN--\":23646:23651   */\n      dup3\n        /* \"--CODEGEN--\":23615:23652   */\n      tag_506\n      jump\t// in\n    tag_505:\n        /* \"--CODEGEN--\":23602:23652   */\n      swap1\n      pop\n        /* \"--CODEGEN--\":23596:23657   */\n      swap2\n      swap1\n      pop\n      jump\t// out\n        /* \"--CODEGEN--\":23664:23785   */\n    tag_506:\n      0x00\n        /* \"--CODEGEN--\":23743:23780   */\n      tag_508\n        /* \"--CODEGEN--\":23774:23779   */\n      dup3\n        /* \"--CODEGEN--\":23743:23780   */\n      tag_509\n      jump\t// in\n    tag_508:\n        /* \"--CODEGEN--\":23730:23780   */\n      swap1\n      pop\n        /* \"--CODEGEN--\":23724:23785   */\n      swap2\n      swap1\n      pop\n      jump\t// out\n        /* \"--CODEGEN--\":23792:23900   */\n    tag_509:\n      0x00\n        /* \"--CODEGEN--\":23871:23895   */\n      tag_511\n        /* \"--CODEGEN--\":23889:23894   */\n      dup3\n        /* \"--CODEGEN--\":23871:23895   */\n      tag_498\n      jump\t// in\n    tag_511:\n        /* \"--CODEGEN--\":23858:23895   */\n      swap1\n      pop\n        /* \"--CODEGEN--\":23852:23900   */\n      swap2\n      swap1\n      pop\n      jump\t// out\n        /* \"--CODEGEN--\":23908:24053   */\n    tag_282:\n        /* \"--CODEGEN--\":23989:23995   */\n      dup3\n        /* \"--CODEGEN--\":23984:23987   */\n      dup2\n        /* \"--CODEGEN--\":23979:23982   */\n      dup4\n        /* \"--CODEGEN--\":23966:23996   */\n      calldatacopy\n        /* \"--CODEGEN--\":24045:24046   */\n      0x00\n        /* \"--CODEGEN--\":24036:24042   */\n      dup4\n        /* \"--CODEGEN--\":24031:24034   */\n      dup4\n        /* \"--CODEGEN--\":24027:24043   */\n      add\n        /* \"--CODEGEN--\":24020:24047   */\n      mstore\n        /* \"--CODEGEN--\":23959:24053   */\n      pop\n      pop\n      pop\n      jump\t// out\n        /* \"--CODEGEN--\":24062:24330   */\n    tag_351:\n        /* \"--CODEGEN--\":24127:24128   */\n      0x00\n        /* \"--CODEGEN--\":24134:24235   */\n    tag_514:\n        /* \"--CODEGEN--\":24148:24154   */\n      dup4\n        /* \"--CODEGEN--\":24145:24146   */\n      dup2\n        /* \"--CODEGEN--\":24142:24155   */\n      lt\n        /* \"--CODEGEN--\":24134:24235   */\n      iszero\n      tag_516\n      jumpi\n        /* \"--CODEGEN--\":24224:24225   */\n      dup1\n        /* \"--CODEGEN--\":24219:24222   */\n      dup3\n        /* \"--CODEGEN--\":24215:24226   */\n      add\n        /* \"--CODEGEN--\":24209:24227   */\n      mload\n        /* \"--CODEGEN--\":24205:24206   */\n      dup2\n        /* \"--CODEGEN--\":24200:24203   */\n      dup5\n        /* \"--CODEGEN--\":24196:24207   */\n      add\n        /* \"--CODEGEN--\":24189:24228   */\n      mstore\n        /* \"--CODEGEN--\":24170:24172   */\n      0x20\n        /* \"--CODEGEN--\":24167:24168   */\n      dup2\n        /* \"--CODEGEN--\":24163:24173   */\n      add\n        /* \"--CODEGEN--\":24158:24173   */\n      swap1\n      pop\n        /* \"--CODEGEN--\":24134:24235   */\n      jump(tag_514)\n    tag_516:\n        /* \"--CODEGEN--\":24250:24256   */\n      dup4\n        /* \"--CODEGEN--\":24247:24248   */\n      dup2\n        /* \"--CODEGEN--\":24244:24257   */\n      gt\n        /* \"--CODEGEN--\":24241:24243   */\n      iszero\n      tag_517\n      jumpi\n        /* \"--CODEGEN--\":24315:24316   */\n      0x00\n        /* \"--CODEGEN--\":24306:24312   */\n      dup5\n        /* \"--CODEGEN--\":24301:24304   */\n      dup5\n        /* \"--CODEGEN--\":24297:24313   */\n      add\n        /* \"--CODEGEN--\":24290:24317   */\n      mstore\n        /* \"--CODEGEN--\":24241:24243   */\n    tag_517:\n        /* \"--CODEGEN--\":24111:24330   */\n      pop\n      pop\n      pop\n      pop\n      jump\t// out\n        /* \"--CODEGEN--\":24338:24435   */\n    tag_353:\n      0x00\n        /* \"--CODEGEN--\":24426:24428   */\n      0x1f\n        /* \"--CODEGEN--\":24422:24429   */\n      not\n        /* \"--CODEGEN--\":24417:24419   */\n      0x1f\n        /* \"--CODEGEN--\":24410:24415   */\n      dup4\n        /* \"--CODEGEN--\":24406:24420   */\n      add\n        /* \"--CODEGEN--\":24402:24430   */\n      and\n        /* \"--CODEGEN--\":24392:24430   */\n      swap1\n      pop\n        /* \"--CODEGEN--\":24386:24435   */\n      swap2\n      swap1\n      pop\n      jump\t// out\n        /* \"--CODEGEN--\":24443:24560   */\n    tag_268:\n        /* \"--CODEGEN--\":24512:24536   */\n      tag_520\n        /* \"--CODEGEN--\":24530:24535   */\n      dup2\n        /* \"--CODEGEN--\":24512:24536   */\n      tag_326\n      jump\t// in\n    tag_520:\n        /* \"--CODEGEN--\":24505:24510   */\n      dup2\n        /* \"--CODEGEN--\":24502:24537   */\n      eq\n        /* \"--CODEGEN--\":24492:24494   */\n      tag_521\n      jumpi\n        /* \"--CODEGEN--\":24551:24552   */\n      0x00\n        /* \"--CODEGEN--\":24548:24549   */\n      dup1\n        /* \"--CODEGEN--\":24541:24553   */\n      revert\n        /* \"--CODEGEN--\":24492:24494   */\n    tag_521:\n        /* \"--CODEGEN--\":24486:24560   */\n      pop\n      jump\t// out\n        /* \"--CODEGEN--\":24567:24678   */\n    tag_272:\n        /* \"--CODEGEN--\":24633:24654   */\n      tag_523\n        /* \"--CODEGEN--\":24648:24653   */\n      dup2\n        /* \"--CODEGEN--\":24633:24654   */\n      tag_344\n      jump\t// in\n    tag_523:\n        /* \"--CODEGEN--\":24626:24631   */\n      dup2\n        /* \"--CODEGEN--\":24623:24655   */\n      eq\n        /* \"--CODEGEN--\":24613:24615   */\n      tag_524\n      jumpi\n        /* \"--CODEGEN--\":24669:24670   */\n      0x00\n        /* \"--CODEGEN--\":24666:24667   */\n      dup1\n        /* \"--CODEGEN--\":24659:24671   */\n      revert\n        /* \"--CODEGEN--\":24613:24615   */\n    tag_524:\n        /* \"--CODEGEN--\":24607:24678   */\n      pop\n      jump\t// out\n        /* \"--CODEGEN--\":24685:24802   */\n    tag_286:\n        /* \"--CODEGEN--\":24754:24778   */\n      tag_526\n        /* \"--CODEGEN--\":24772:24777   */\n      dup2\n        /* \"--CODEGEN--\":24754:24778   */\n      tag_426\n      jump\t// in\n    tag_526:\n        /* \"--CODEGEN--\":24747:24752   */\n      dup2\n        /* \"--CODEGEN--\":24744:24779   */\n      eq\n        /* \"--CODEGEN--\":24734:24736   */\n      tag_527\n      jumpi\n        /* \"--CODEGEN--\":24793:24794   */\n      0x00\n        /* \"--CODEGEN--\":24790:24791   */\n      dup1\n        /* \"--CODEGEN--\":24783:24795   */\n      revert\n        /* \"--CODEGEN--\":24734:24736   */\n    tag_527:\n        /* \"--CODEGEN--\":24728:24802   */\n      pop\n      jump\t// out\n\n    auxdata: 0xa26469706673582212207def5d3bc46bc2d5c9d22a1bf14b48acb2c9130e9ccf62a001a6ec165f0d172c64736f6c634300060c0033\n}\n\nsub_1: assembly {\n        /* \"Disney/ERC20.sol\":1639:4341  contract ERC20Basic is IERC20 {\r... */\n      mstore(0x40, 0x80)\n        /* \"Disney/ERC20.sol\":1983:2119  constructor (uint256 initialSupply) public {\r... */\n      callvalue\n      dup1\n      iszero\n      tag_1\n      jumpi\n      0x00\n      dup1\n      revert\n    tag_1:\n      pop\n      mload(0x40)\n      sub(codesize, bytecodeSize)\n      dup1\n      bytecodeSize\n      dup4\n      codecopy\n      dup2\n      dup2\n      add\n      0x40\n      mstore\n      dup2\n      add\n      swap1\n      tag_2\n      swap2\n      swap1\n      tag_3\n      jump\t// in\n    tag_2:\n        /* \"Disney/ERC20.sol\":2052:2065  initialSupply */\n      dup1\n        /* \"Disney/ERC20.sol\":2037:2049  totalSupply_ */\n      0x02\n        /* \"Disney/ERC20.sol\":2037:2065  totalSupply_ = initialSupply */\n      dup2\n      swap1\n      sstore\n      pop\n        /* \"Disney/ERC20.sol\":2099:2111  totalSupply_ */\n      sload(0x02)\n        /* \"Disney/ERC20.sol\":2076:2084  balances */\n      0x00\n        /* \"Disney/ERC20.sol\":2076:2096  balances[msg.sender] */\n      dup1\n        /* \"Disney/ERC20.sol\":2085:2095  msg.sender */\n      caller\n        /* \"Disney/ERC20.sol\":2076:2096  balances[msg.sender] */\n      0xffffffffffffffffffffffffffffffffffffffff\n      and\n      0xffffffffffffffffffffffffffffffffffffffff\n      and\n      dup2\n      mstore\n      0x20\n      add\n      swap1\n      dup2\n      mstore\n      0x20\n      add\n      0x00\n      keccak256\n        /* \"Disney/ERC20.sol\":2076:2111  balances[msg.sender] = totalSupply_ */\n      dup2\n      swap1\n      sstore\n      pop\n        /* \"Disney/ERC20.sol\":1983:2119  constructor (uint256 initialSupply) public {\r... */\n      pop\n        /* \"Disney/ERC20.sol\":1639:4341  contract ERC20Basic is IERC20 {\r... */\n      jump(tag_6)\n        /* \"--CODEGEN--\":5:139   */\n    tag_8:\n      0x00\n        /* \"--CODEGEN--\":89:95   */\n      dup2\n        /* \"--CODEGEN--\":83:96   */\n      mload\n        /* \"--CODEGEN--\":74:96   */\n      swap1\n      pop\n        /* \"--CODEGEN--\":101:134   */\n      tag_10\n        /* \"--CODEGEN--\":128:133   */\n      dup2\n        /* \"--CODEGEN--\":101:134   */\n      tag_11\n      jump\t// in\n    tag_10:\n        /* \"--CODEGEN--\":68:139   */\n      swap3\n      swap2\n      pop\n      pop\n      jump\t// out\n        /* \"--CODEGEN--\":146:409   */\n    tag_3:\n      0x00\n        /* \"--CODEGEN--\":261:263   */\n      0x20\n        /* \"--CODEGEN--\":249:258   */\n      dup3\n        /* \"--CODEGEN--\":240:247   */\n      dup5\n        /* \"--CODEGEN--\":236:259   */\n      sub\n        /* \"--CODEGEN--\":232:264   */\n      slt\n        /* \"--CODEGEN--\":229:231   */\n      iszero\n      tag_13\n      jumpi\n        /* \"--CODEGEN--\":277:278   */\n      0x00\n        /* \"--CODEGEN--\":274:275   */\n      dup1\n        /* \"--CODEGEN--\":267:279   */\n      revert\n        /* \"--CODEGEN--\":229:231   */\n    tag_13:\n        /* \"--CODEGEN--\":312:313   */\n      0x00\n        /* \"--CODEGEN--\":329:393   */\n      tag_14\n        /* \"--CODEGEN--\":385:392   */\n      dup5\n        /* \"--CODEGEN--\":376:382   */\n      dup3\n        /* \"--CODEGEN--\":365:374   */\n      dup6\n        /* \"--CODEGEN--\":361:383   */\n      add\n        /* \"--CODEGEN--\":329:393   */\n      tag_8\n      jump\t// in\n    tag_14:\n        /* \"--CODEGEN--\":319:393   */\n      swap2\n      pop\n        /* \"--CODEGEN--\":291:399   */\n      pop\n        /* \"--CODEGEN--\":223:409   */\n      swap3\n      swap2\n      pop\n      pop\n      jump\t// out\n        /* \"--CODEGEN--\":416:488   */\n    tag_15:\n      0x00\n        /* \"--CODEGEN--\":478:483   */\n      dup2\n        /* \"--CODEGEN--\":467:483   */\n      swap1\n      pop\n        /* \"--CODEGEN--\":461:488   */\n      swap2\n      swap1\n      pop\n      jump\t// out\n        /* \"--CODEGEN--\":495:612   */\n    tag_11:\n        /* \"--CODEGEN--\":564:588   */\n      tag_18\n        /* \"--CODEGEN--\":582:587   */\n      dup2\n        /* \"--CODEGEN--\":564:588   */\n      tag_15\n      jump\t// in\n    tag_18:\n        /* \"--CODEGEN--\":557:562   */\n      dup2\n        /* \"--CODEGEN--\":554:589   */\n      eq\n        /* \"--CODEGEN--\":544:546   */\n      tag_19\n      jumpi\n        /* \"--CODEGEN--\":603:604   */\n      0x00\n        /* \"--CODEGEN--\":600:601   */\n      dup1\n        /* \"--CODEGEN--\":593:605   */\n      revert\n        /* \"--CODEGEN--\":544:546   */\n    tag_19:\n        /* \"--CODEGEN--\":538:612   */\n      pop\n      jump\t// out\n        /* \"Disney/ERC20.sol\":1639:4341  contract ERC20Basic is IERC20 {\r... */\n    tag_6:\n      dataSize(sub_0)\n      dup1\n      dataOffset(sub_0)\n      0x00\n      codecopy\n      0x00\n      return\n    stop\n\n    sub_0: assembly {\n            /* \"Disney/ERC20.sol\":1639:4341  contract ERC20Basic is IERC20 {\r... */\n          mstore(0x40, 0x80)\n          callvalue\n          dup1\n          iszero\n          tag_1\n          jumpi\n          0x00\n          dup1\n          revert\n        tag_1:\n          pop\n          jumpi(tag_2, lt(calldatasize, 0x04))\n          shr(0xe0, calldataload(0x00))\n          dup1\n          0x313ce567\n          gt\n          tag_14\n          jumpi\n          dup1\n          0x313ce567\n          eq\n          tag_8\n          jumpi\n          dup1\n          0x70a08231\n          eq\n          tag_9\n          jumpi\n          dup1\n          0x95d89b41\n          eq\n          tag_10\n          jumpi\n          dup1\n          0xa9059cbb\n          eq\n          tag_11\n          jumpi\n          dup1\n          0xdd62ed3e\n          eq\n          tag_12\n          jumpi\n          dup1\n          0xef910460\n          eq\n          tag_13\n          jumpi\n          jump(tag_2)\n        tag_14:\n          dup1\n          0x06fdde03\n          eq\n          tag_3\n          jumpi\n          dup1\n          0x095ea7b3\n          eq\n          tag_4\n          jumpi\n          dup1\n          0x18160ddd\n          eq\n          tag_5\n          jumpi\n          dup1\n          0x1d43cc98\n          eq\n          tag_6\n          jumpi\n          dup1\n          0x23b872dd\n          eq\n          tag_7\n          jumpi\n        tag_2:\n          0x00\n          dup1\n          revert\n            /* \"Disney/ERC20.sol\":1713:1757  string public constant name = \"ERC20AKALugo\" */\n        tag_3:\n          tag_15\n          tag_16\n          jump\t// in\n        tag_15:\n          mload(0x40)\n          tag_17\n          swap2\n          swap1\n          tag_18\n          jump\t// in\n        tag_17:\n          mload(0x40)\n          dup1\n          swap2\n          sub\n          swap1\n          return\n            /* \"Disney/ERC20.sol\":3608:3837  function approve(address spender, uint numTokens) public override returns(bool) {\r... */\n        tag_4:\n          tag_19\n          0x04\n          dup1\n          calldatasize\n          sub\n          dup2\n          add\n          swap1\n          tag_20\n          swap2\n          swap1\n          tag_21\n          jump\t// in\n        tag_20:\n          tag_22\n          jump\t// in\n        tag_19:\n          mload(0x40)\n          tag_23\n          swap2\n          swap1\n          tag_24\n          jump\t// in\n        tag_23:\n          mload(0x40)\n          dup1\n          swap2\n          sub\n          swap1\n          return\n            /* \"Disney/ERC20.sol\":2292:2391  function totalSupply() public override view returns(uint256) {\r... */\n        tag_5:\n          tag_25\n          tag_26\n          jump\t// in\n        tag_25:\n          mload(0x40)\n          tag_27\n          swap2\n          swap1\n          tag_28\n          jump\t// in\n        tag_27:\n          mload(0x40)\n          dup1\n          swap2\n          sub\n          swap1\n          return\n            /* \"Disney/ERC20.sol\":2399:2557  function increaseTotalSupply(uint newTokensAmount) public {\r... */\n        tag_6:\n          tag_29\n          0x04\n          dup1\n          calldatasize\n          sub\n          dup2\n          add\n          swap1\n          tag_30\n          swap2\n          swap1\n          tag_31\n          jump\t// in\n        tag_30:\n          tag_32\n          jump\t// in\n        tag_29:\n          stop\n            /* \"Disney/ERC20.sol\":3845:4338  function transferFrom(address owner, address buyer, uint256 numTokens) public override returns(bool) {\r... */\n        tag_7:\n          tag_33\n          0x04\n          dup1\n          calldatasize\n          sub\n          dup2\n          add\n          swap1\n          tag_34\n          swap2\n          swap1\n          tag_35\n          jump\t// in\n        tag_34:\n          tag_36\n          jump\t// in\n        tag_33:\n          mload(0x40)\n          tag_37\n          swap2\n          swap1\n          tag_24\n          jump\t// in\n        tag_37:\n          mload(0x40)\n          dup1\n          swap2\n          sub\n          swap1\n          return\n            /* \"Disney/ERC20.sol\":1808:1843  uint8 public constant decimals = 18 */\n        tag_8:\n          tag_38\n          tag_39\n          jump\t// in\n        tag_38:\n          mload(0x40)\n          tag_40\n          swap2\n          swap1\n          tag_41\n          jump\t// in\n        tag_40:\n          mload(0x40)\n          dup1\n          swap2\n          sub\n          swap1\n          return\n            /* \"Disney/ERC20.sol\":2565:2683  function balanceOf(address account) public override view returns (uint256) {\r... */\n        tag_9:\n          tag_42\n          0x04\n          dup1\n          calldatasize\n          sub\n          dup2\n          add\n          swap1\n          tag_43\n          swap2\n          swap1\n          tag_44\n          jump\t// in\n        tag_43:\n          tag_45\n          jump\t// in\n        tag_42:\n          mload(0x40)\n          tag_46\n          swap2\n          swap1\n          tag_28\n          jump\t// in\n        tag_46:\n          mload(0x40)\n          dup1\n          swap2\n          sub\n          swap1\n          return\n            /* \"Disney/ERC20.sol\":1764:1801  string public constant symbol = \"AKA\" */\n        tag_10:\n          tag_47\n          tag_48\n          jump\t// in\n        tag_47:\n          mload(0x40)\n          tag_49\n          swap2\n          swap1\n          tag_18\n          jump\t// in\n        tag_49:\n          mload(0x40)\n          dup1\n          swap2\n          sub\n          swap1\n          return\n            /* \"Disney/ERC20.sol\":2838:3209  function transfer(address recipient, uint256 numTokens) public override returns(bool) {\r... */\n        tag_11:\n          tag_50\n          0x04\n          dup1\n          calldatasize\n          sub\n          dup2\n          add\n          swap1\n          tag_51\n          swap2\n          swap1\n          tag_21\n          jump\t// in\n        tag_51:\n          tag_52\n          jump\t// in\n        tag_50:\n          mload(0x40)\n          tag_53\n          swap2\n          swap1\n          tag_24\n          jump\t// in\n        tag_53:\n          mload(0x40)\n          dup1\n          swap2\n          sub\n          swap1\n          return\n            /* \"Disney/ERC20.sol\":2691:2830  function allowance(address owner, address spender) public override view returns (uint256) {\r... */\n        tag_12:\n          tag_54\n          0x04\n          dup1\n          calldatasize\n          sub\n          dup2\n          add\n          swap1\n          tag_55\n          swap2\n          swap1\n          tag_56\n          jump\t// in\n        tag_55:\n          tag_57\n          jump\t// in\n        tag_54:\n          mload(0x40)\n          tag_58\n          swap2\n          swap1\n          tag_28\n          jump\t// in\n        tag_58:\n          mload(0x40)\n          dup1\n          swap2\n          sub\n          swap1\n          return\n            /* \"Disney/ERC20.sol\":3217:3600  function transfer_Disney(address cliente, address recipient, uint256 numTokens) public override returns(bool) {\r... */\n        tag_13:\n          tag_59\n          0x04\n          dup1\n          calldatasize\n          sub\n          dup2\n          add\n          swap1\n          tag_60\n          swap2\n          swap1\n          tag_35\n          jump\t// in\n        tag_60:\n          tag_61\n          jump\t// in\n        tag_59:\n          mload(0x40)\n          tag_62\n          swap2\n          swap1\n          tag_24\n          jump\t// in\n        tag_62:\n          mload(0x40)\n          dup1\n          swap2\n          sub\n          swap1\n          return\n            /* \"Disney/ERC20.sol\":1713:1757  string public constant name = \"ERC20AKALugo\" */\n        tag_16:\n          mload(0x40)\n          dup1\n          0x40\n          add\n          0x40\n          mstore\n          dup1\n          0x0c\n          dup2\n          mstore\n          0x20\n          add\n          0x4552433230414b414c75676f0000000000000000000000000000000000000000\n          dup2\n          mstore\n          pop\n          dup2\n          jump\t// out\n            /* \"Disney/ERC20.sol\":3608:3837  function approve(address spender, uint numTokens) public override returns(bool) {\r... */\n        tag_22:\n            /* \"Disney/ERC20.sol\":3682:3686  bool */\n          0x00\n            /* \"Disney/ERC20.sol\":3740:3749  numTokens */\n          dup2\n            /* \"Disney/ERC20.sol\":3709:3716  allowed */\n          0x01\n            /* \"Disney/ERC20.sol\":3709:3728  allowed[msg.sender] */\n          0x00\n            /* \"Disney/ERC20.sol\":3717:3727  msg.sender */\n          caller\n            /* \"Disney/ERC20.sol\":3709:3728  allowed[msg.sender] */\n          0xffffffffffffffffffffffffffffffffffffffff\n          and\n          0xffffffffffffffffffffffffffffffffffffffff\n          and\n          dup2\n          mstore\n          0x20\n          add\n          swap1\n          dup2\n          mstore\n          0x20\n          add\n          0x00\n          keccak256\n            /* \"Disney/ERC20.sol\":3709:3737  allowed[msg.sender][spender] */\n          0x00\n            /* \"Disney/ERC20.sol\":3729:3736  spender */\n          dup6\n            /* \"Disney/ERC20.sol\":3709:3737  allowed[msg.sender][spender] */\n          0xffffffffffffffffffffffffffffffffffffffff\n          and\n          0xffffffffffffffffffffffffffffffffffffffff\n          and\n          dup2\n          mstore\n          0x20\n          add\n          swap1\n          dup2\n          mstore\n          0x20\n          add\n          0x00\n          keccak256\n            /* \"Disney/ERC20.sol\":3709:3749  allowed[msg.sender][spender] = numTokens */\n          dup2\n          swap1\n          sstore\n          pop\n            /* \"Disney/ERC20.sol\":3786:3793  spender */\n          dup3\n            /* \"Disney/ERC20.sol\":3765:3805  Approval(msg.sender, spender, numTokens) */\n          0xffffffffffffffffffffffffffffffffffffffff\n          and\n            /* \"Disney/ERC20.sol\":3774:3784  msg.sender */\n          caller\n            /* \"Disney/ERC20.sol\":3765:3805  Approval(msg.sender, spender, numTokens) */\n          0xffffffffffffffffffffffffffffffffffffffff\n          and\n          0x8c5be1e5ebec7d5bd14f71427d1e84f3dd0314c0f7b2291e5b200ac8c7c3b925\n            /* \"Disney/ERC20.sol\":3795:3804  numTokens */\n          dup5\n            /* \"Disney/ERC20.sol\":3765:3805  Approval(msg.sender, spender, numTokens) */\n          mload(0x40)\n          tag_64\n          swap2\n          swap1\n          tag_28\n          jump\t// in\n        tag_64:\n          mload(0x40)\n          dup1\n          swap2\n          sub\n          swap1\n          log3\n            /* \"Disney/ERC20.sol\":3825:3829  true */\n          0x01\n            /* \"Disney/ERC20.sol\":3818:3829  return true */\n          swap1\n          pop\n            /* \"Disney/ERC20.sol\":3608:3837  function approve(address spender, uint numTokens) public override returns(bool) {\r... */\n          swap3\n          swap2\n          pop\n          pop\n          jump\t// out\n            /* \"Disney/ERC20.sol\":2292:2391  function totalSupply() public override view returns(uint256) {\r... */\n        tag_26:\n            /* \"Disney/ERC20.sol\":2344:2351  uint256 */\n          0x00\n            /* \"Disney/ERC20.sol\":2371:2383  totalSupply_ */\n          sload(0x02)\n            /* \"Disney/ERC20.sol\":2364:2383  return totalSupply_ */\n          swap1\n          pop\n            /* \"Disney/ERC20.sol\":2292:2391  function totalSupply() public override view returns(uint256) {\r... */\n          swap1\n          jump\t// out\n            /* \"Disney/ERC20.sol\":2399:2557  function increaseTotalSupply(uint newTokensAmount) public {\r... */\n        tag_32:\n            /* \"Disney/ERC20.sol\":2484:2499  newTokensAmount */\n          dup1\n            /* \"Disney/ERC20.sol\":2468:2480  totalSupply_ */\n          0x02\n          0x00\n            /* \"Disney/ERC20.sol\":2468:2499  totalSupply_ += newTokensAmount */\n          dup3\n          dup3\n          sload\n          add\n          swap3\n          pop\n          pop\n          dup2\n          swap1\n          sstore\n          pop\n            /* \"Disney/ERC20.sol\":2534:2549  newTokensAmount */\n          dup1\n            /* \"Disney/ERC20.sol\":2510:2518  balances */\n          0x00\n            /* \"Disney/ERC20.sol\":2510:2530  balances[msg.sender] */\n          dup1\n            /* \"Disney/ERC20.sol\":2519:2529  msg.sender */\n          caller\n            /* \"Disney/ERC20.sol\":2510:2530  balances[msg.sender] */\n          0xffffffffffffffffffffffffffffffffffffffff\n          and\n          0xffffffffffffffffffffffffffffffffffffffff\n          and\n          dup2\n          mstore\n          0x20\n          add\n          swap1\n          dup2\n          mstore\n          0x20\n          add\n          0x00\n          keccak256\n          0x00\n            /* \"Disney/ERC20.sol\":2510:2549  balances[msg.sender] += newTokensAmount */\n          dup3\n          dup3\n          sload\n          add\n          swap3\n          pop\n          pop\n          dup2\n          swap1\n          sstore\n          pop\n            /* \"Disney/ERC20.sol\":2399:2557  function increaseTotalSupply(uint newTokensAmount) public {\r... */\n          pop\n          jump\t// out\n            /* \"Disney/ERC20.sol\":3845:4338  function transferFrom(address owner, address buyer, uint256 numTokens) public override returns(bool) {\r... */\n        tag_36:\n            /* \"Disney/ERC20.sol\":3940:3944  bool */\n          0x00\n            /* \"Disney/ERC20.sol\":3985:3994  numTokens */\n          dup2\n            /* \"Disney/ERC20.sol\":3966:3974  balances */\n          0x00\n            /* \"Disney/ERC20.sol\":3966:3981  balances[owner] */\n          dup1\n            /* \"Disney/ERC20.sol\":3975:3980  owner */\n          dup7\n            /* \"Disney/ERC20.sol\":3966:3981  balances[owner] */\n          0xffffffffffffffffffffffffffffffffffffffff\n          and\n          0xffffffffffffffffffffffffffffffffffffffff\n          and\n          dup2\n          mstore\n          0x20\n          add\n          swap1\n          dup2\n          mstore\n          0x20\n          add\n          0x00\n          keccak256\n          sload\n            /* \"Disney/ERC20.sol\":3966:3994  balances[owner] >= numTokens */\n          lt\n          iszero\n            /* \"Disney/ERC20.sol\":3957:3995  require (balances[owner] >= numTokens) */\n          tag_68\n          jumpi\n          0x00\n          dup1\n          revert\n        tag_68:\n            /* \"Disney/ERC20.sol\":4045:4054  numTokens */\n          dup2\n            /* \"Disney/ERC20.sol\":4015:4022  allowed */\n          0x01\n            /* \"Disney/ERC20.sol\":4015:4029  allowed[owner] */\n          0x00\n            /* \"Disney/ERC20.sol\":4023:4028  owner */\n          dup7\n            /* \"Disney/ERC20.sol\":4015:4029  allowed[owner] */\n          0xffffffffffffffffffffffffffffffffffffffff\n          and\n          0xffffffffffffffffffffffffffffffffffffffff\n          and\n          dup2\n          mstore\n          0x20\n          add\n          swap1\n          dup2\n          mstore\n          0x20\n          add\n          0x00\n          keccak256\n            /* \"Disney/ERC20.sol\":4015:4041  allowed[owner][msg.sender] */\n          0x00\n            /* \"Disney/ERC20.sol\":4030:4040  msg.sender */\n          caller\n            /* \"Disney/ERC20.sol\":4015:4041  allowed[owner][msg.sender] */\n          0xffffffffffffffffffffffffffffffffffffffff\n          and\n          0xffffffffffffffffffffffffffffffffffffffff\n          and\n          dup2\n          mstore\n          0x20\n          add\n          swap1\n          dup2\n          mstore\n          0x20\n          add\n          0x00\n          keccak256\n          sload\n            /* \"Disney/ERC20.sol\":4015:4054  allowed[owner][msg.sender] >= numTokens */\n          lt\n          iszero\n            /* \"Disney/ERC20.sol\":4006:4055  require (allowed[owner][msg.sender] >= numTokens) */\n          tag_69\n          jumpi\n          0x00\n          dup1\n          revert\n        tag_69:\n            /* \"Disney/ERC20.sol\":4086:4116  balances[owner].sub(numTokens) */\n          tag_70\n            /* \"Disney/ERC20.sol\":4106:4115  numTokens */\n          dup3\n            /* \"Disney/ERC20.sol\":4086:4094  balances */\n          0x00\n            /* \"Disney/ERC20.sol\":4086:4101  balances[owner] */\n          dup1\n            /* \"Disney/ERC20.sol\":4095:4100  owner */\n          dup8\n            /* \"Disney/ERC20.sol\":4086:4101  balances[owner] */\n          0xffffffffffffffffffffffffffffffffffffffff\n          and\n          0xffffffffffffffffffffffffffffffffffffffff\n          and\n          dup2\n          mstore\n          0x20\n          add\n          swap1\n          dup2\n          mstore\n          0x20\n          add\n          0x00\n          keccak256\n          sload\n            /* \"Disney/ERC20.sol\":4086:4105  balances[owner].sub */\n          tag_71\n          swap1\n            /* \"Disney/ERC20.sol\":4086:4116  balances[owner].sub(numTokens) */\n          swap2\n          swap1\n          0xffffffff\n          and\n          jump\t// in\n        tag_70:\n            /* \"Disney/ERC20.sol\":4068:4076  balances */\n          0x00\n            /* \"Disney/ERC20.sol\":4068:4083  balances[owner] */\n          dup1\n            /* \"Disney/ERC20.sol\":4077:4082  owner */\n          dup7\n            /* \"Disney/ERC20.sol\":4068:4083  balances[owner] */\n          0xffffffffffffffffffffffffffffffffffffffff\n          and\n          0xffffffffffffffffffffffffffffffffffffffff\n          and\n          dup2\n          mstore\n          0x20\n          add\n          swap1\n          dup2\n          mstore\n          0x20\n          add\n          0x00\n          keccak256\n            /* \"Disney/ERC20.sol\":4068:4116  balances[owner] = balances[owner].sub(numTokens) */\n          dup2\n          swap1\n          sstore\n          pop\n            /* \"Disney/ERC20.sol\":4156:4197  allowed[owner][msg.sender].sub(numTokens) */\n          tag_72\n            /* \"Disney/ERC20.sol\":4187:4196  numTokens */\n          dup3\n            /* \"Disney/ERC20.sol\":4156:4163  allowed */\n          0x01\n            /* \"Disney/ERC20.sol\":4156:4170  allowed[owner] */\n          0x00\n            /* \"Disney/ERC20.sol\":4164:4169  owner */\n          dup8\n            /* \"Disney/ERC20.sol\":4156:4170  allowed[owner] */\n          0xffffffffffffffffffffffffffffffffffffffff\n          and\n          0xffffffffffffffffffffffffffffffffffffffff\n          and\n          dup2\n          mstore\n          0x20\n          add\n          swap1\n          dup2\n          mstore\n          0x20\n          add\n          0x00\n          keccak256\n            /* \"Disney/ERC20.sol\":4156:4182  allowed[owner][msg.sender] */\n          0x00\n            /* \"Disney/ERC20.sol\":4171:4181  msg.sender */\n          caller\n            /* \"Disney/ERC20.sol\":4156:4182  allowed[owner][msg.sender] */\n          0xffffffffffffffffffffffffffffffffffffffff\n          and\n          0xffffffffffffffffffffffffffffffffffffffff\n          and\n          dup2\n          mstore\n          0x20\n          add\n          swap1\n          dup2\n          mstore\n          0x20\n          add\n          0x00\n          keccak256\n          sload\n            /* \"Disney/ERC20.sol\":4156:4186  allowed[owner][msg.sender].sub */\n          tag_71\n          swap1\n            /* \"Disney/ERC20.sol\":4156:4197  allowed[owner][msg.sender].sub(numTokens) */\n          swap2\n          swap1\n          0xffffffff\n          and\n          jump\t// in\n        tag_72:\n            /* \"Disney/ERC20.sol\":4127:4134  allowed */\n          0x01\n            /* \"Disney/ERC20.sol\":4127:4141  allowed[owner] */\n          0x00\n            /* \"Disney/ERC20.sol\":4135:4140  owner */\n          dup7\n            /* \"Disney/ERC20.sol\":4127:4141  allowed[owner] */\n          0xffffffffffffffffffffffffffffffffffffffff\n          and\n          0xffffffffffffffffffffffffffffffffffffffff\n          and\n          dup2\n          mstore\n          0x20\n          add\n          swap1\n          dup2\n          mstore\n          0x20\n          add\n          0x00\n          keccak256\n            /* \"Disney/ERC20.sol\":4127:4153  allowed[owner][msg.sender] */\n          0x00\n            /* \"Disney/ERC20.sol\":4142:4152  msg.sender */\n          caller\n            /* \"Disney/ERC20.sol\":4127:4153  allowed[owner][msg.sender] */\n          0xffffffffffffffffffffffffffffffffffffffff\n          and\n          0xffffffffffffffffffffffffffffffffffffffff\n          and\n          dup2\n          mstore\n          0x20\n          add\n          swap1\n          dup2\n          mstore\n          0x20\n          add\n          0x00\n          keccak256\n            /* \"Disney/ERC20.sol\":4127:4197  allowed[owner][msg.sender] = allowed[owner][msg.sender].sub(numTokens) */\n          dup2\n          swap1\n          sstore\n          pop\n            /* \"Disney/ERC20.sol\":4226:4256  balances[buyer].add(numTokens) */\n          tag_73\n            /* \"Disney/ERC20.sol\":4246:4255  numTokens */\n          dup3\n            /* \"Disney/ERC20.sol\":4226:4234  balances */\n          0x00\n            /* \"Disney/ERC20.sol\":4226:4241  balances[buyer] */\n          dup1\n            /* \"Disney/ERC20.sol\":4235:4240  buyer */\n          dup7\n            /* \"Disney/ERC20.sol\":4226:4241  balances[buyer] */\n          0xffffffffffffffffffffffffffffffffffffffff\n          and\n          0xffffffffffffffffffffffffffffffffffffffff\n          and\n          dup2\n          mstore\n          0x20\n          add\n          swap1\n          dup2\n          mstore\n          0x20\n          add\n          0x00\n          keccak256\n          sload\n            /* \"Disney/ERC20.sol\":4226:4245  balances[buyer].add */\n          tag_74\n          swap1\n            /* \"Disney/ERC20.sol\":4226:4256  balances[buyer].add(numTokens) */\n          swap2\n          swap1\n          0xffffffff\n          and\n          jump\t// in\n        tag_73:\n            /* \"Disney/ERC20.sol\":4208:4216  balances */\n          0x00\n            /* \"Disney/ERC20.sol\":4208:4223  balances[buyer] */\n          dup1\n            /* \"Disney/ERC20.sol\":4217:4222  buyer */\n          dup6\n            /* \"Disney/ERC20.sol\":4208:4223  balances[buyer] */\n          0xffffffffffffffffffffffffffffffffffffffff\n          and\n          0xffffffffffffffffffffffffffffffffffffffff\n          and\n          dup2\n          mstore\n          0x20\n          add\n          swap1\n          dup2\n          mstore\n          0x20\n          add\n          0x00\n          keccak256\n            /* \"Disney/ERC20.sol\":4208:4256  balances[buyer] = balances[buyer].add(numTokens) */\n          dup2\n          swap1\n          sstore\n          pop\n            /* \"Disney/ERC20.sol\":4290:4295  buyer */\n          dup3\n            /* \"Disney/ERC20.sol\":4274:4307  Transfer(owner, buyer, numTokens) */\n          0xffffffffffffffffffffffffffffffffffffffff\n          and\n            /* \"Disney/ERC20.sol\":4283:4288  owner */\n          dup5\n            /* \"Disney/ERC20.sol\":4274:4307  Transfer(owner, buyer, numTokens) */\n          0xffffffffffffffffffffffffffffffffffffffff\n          and\n          0xddf252ad1be2c89b69c2b068fc378daa952ba7f163c4a11628f55a4df523b3ef\n            /* \"Disney/ERC20.sol\":4297:4306  numTokens */\n          dup5\n            /* \"Disney/ERC20.sol\":4274:4307  Transfer(owner, buyer, numTokens) */\n          mload(0x40)\n          tag_75\n          swap2\n          swap1\n          tag_28\n          jump\t// in\n        tag_75:\n          mload(0x40)\n          dup1\n          swap2\n          sub\n          swap1\n          log3\n            /* \"Disney/ERC20.sol\":4326:4330  true */\n          0x01\n            /* \"Disney/ERC20.sol\":4319:4330  return true */\n          swap1\n          pop\n            /* \"Disney/ERC20.sol\":3845:4338  function transferFrom(address owner, address buyer, uint256 numTokens) public override returns(bool) {\r... */\n          swap4\n          swap3\n          pop\n          pop\n          pop\n          jump\t// out\n            /* \"Disney/ERC20.sol\":1808:1843  uint8 public constant decimals = 18 */\n        tag_39:\n            /* \"Disney/ERC20.sol\":1841:1843  18 */\n          0x12\n            /* \"Disney/ERC20.sol\":1808:1843  uint8 public constant decimals = 18 */\n          dup2\n          jump\t// out\n            /* \"Disney/ERC20.sol\":2565:2683  function balanceOf(address account) public override view returns (uint256) {\r... */\n        tag_45:\n            /* \"Disney/ERC20.sol\":2631:2638  uint256 */\n          0x00\n            /* \"Disney/ERC20.sol\":2658:2666  balances */\n          dup1\n            /* \"Disney/ERC20.sol\":2658:2675  balances[account] */\n          0x00\n            /* \"Disney/ERC20.sol\":2667:2674  account */\n          dup4\n            /* \"Disney/ERC20.sol\":2658:2675  balances[account] */\n          0xffffffffffffffffffffffffffffffffffffffff\n          and\n          0xffffffffffffffffffffffffffffffffffffffff\n          and\n          dup2\n          mstore\n          0x20\n          add\n          swap1\n          dup2\n          mstore\n          0x20\n          add\n          0x00\n          keccak256\n          sload\n            /* \"Disney/ERC20.sol\":2651:2675  return balances[account] */\n          swap1\n          pop\n            /* \"Disney/ERC20.sol\":2565:2683  function balanceOf(address account) public override view returns (uint256) {\r... */\n          swap2\n          swap1\n          pop\n          jump\t// out\n            /* \"Disney/ERC20.sol\":1764:1801  string public constant symbol = \"AKA\" */\n        tag_48:\n          mload(0x40)\n          dup1\n          0x40\n          add\n          0x40\n          mstore\n          dup1\n          0x03\n          dup2\n          mstore\n          0x20\n          add\n          0x414b410000000000000000000000000000000000000000000000000000000000\n          dup2\n          mstore\n          pop\n          dup2\n          jump\t// out\n            /* \"Disney/ERC20.sol\":2838:3209  function transfer(address recipient, uint256 numTokens) public override returns(bool) {\r... */\n        tag_52:\n            /* \"Disney/ERC20.sol\":2918:2922  bool */\n          0x00\n            /* \"Disney/ERC20.sol\":2957:2965  balances */\n          dup1\n            /* \"Disney/ERC20.sol\":2957:2977  balances[msg.sender] */\n          0x00\n            /* \"Disney/ERC20.sol\":2966:2976  msg.sender */\n          caller\n            /* \"Disney/ERC20.sol\":2957:2977  balances[msg.sender] */\n          0xffffffffffffffffffffffffffffffffffffffff\n          and\n          0xffffffffffffffffffffffffffffffffffffffff\n          and\n          dup2\n          mstore\n          0x20\n          add\n          swap1\n          dup2\n          mstore\n          0x20\n          add\n          0x00\n          keccak256\n          sload\n            /* \"Disney/ERC20.sol\":2944:2953  numTokens */\n          dup3\n            /* \"Disney/ERC20.sol\":2944:2977  numTokens <= balances[msg.sender] */\n          gt\n          iszero\n            /* \"Disney/ERC20.sol\":2935:2978  require (numTokens <= balances[msg.sender]) */\n          tag_78\n          jumpi\n          0x00\n          dup1\n          revert\n        tag_78:\n            /* \"Disney/ERC20.sol\":3014:3049  balances[msg.sender].sub(numTokens) */\n          tag_79\n            /* \"Disney/ERC20.sol\":3039:3048  numTokens */\n          dup3\n            /* \"Disney/ERC20.sol\":3014:3022  balances */\n          0x00\n            /* \"Disney/ERC20.sol\":3014:3034  balances[msg.sender] */\n          dup1\n            /* \"Disney/ERC20.sol\":3023:3033  msg.sender */\n          caller\n            /* \"Disney/ERC20.sol\":3014:3034  balances[msg.sender] */\n          0xffffffffffffffffffffffffffffffffffffffff\n          and\n          0xffffffffffffffffffffffffffffffffffffffff\n          and\n          dup2\n          mstore\n          0x20\n          add\n          swap1\n          dup2\n          mstore\n          0x20\n          add\n          0x00\n          keccak256\n          sload\n            /* \"Disney/ERC20.sol\":3014:3038  balances[msg.sender].sub */\n          tag_71\n          swap1\n            /* \"Disney/ERC20.sol\":3014:3049  balances[msg.sender].sub(numTokens) */\n          swap2\n          swap1\n          0xffffffff\n          and\n          jump\t// in\n        tag_79:\n            /* \"Disney/ERC20.sol\":2991:2999  balances */\n          0x00\n            /* \"Disney/ERC20.sol\":2991:3011  balances[msg.sender] */\n          dup1\n            /* \"Disney/ERC20.sol\":3000:3010  msg.sender */\n          caller\n            /* \"Disney/ERC20.sol\":2991:3011  balances[msg.sender] */\n          0xffffffffffffffffffffffffffffffffffffffff\n          and\n          0xffffffffffffffffffffffffffffffffffffffff\n          and\n          dup2\n          mstore\n          0x20\n          add\n          swap1\n          dup2\n          mstore\n          0x20\n          add\n          0x00\n          keccak256\n            /* \"Disney/ERC20.sol\":2991:3049  balances[msg.sender] = balances[msg.sender].sub(numTokens) */\n          dup2\n          swap1\n          sstore\n          pop\n            /* \"Disney/ERC20.sol\":3083:3117  balances[recipient].add(numTokens) */\n          tag_80\n            /* \"Disney/ERC20.sol\":3107:3116  numTokens */\n          dup3\n            /* \"Disney/ERC20.sol\":3083:3091  balances */\n          0x00\n            /* \"Disney/ERC20.sol\":3083:3102  balances[recipient] */\n          dup1\n            /* \"Disney/ERC20.sol\":3092:3101  recipient */\n          dup7\n            /* \"Disney/ERC20.sol\":3083:3102  balances[recipient] */\n          0xffffffffffffffffffffffffffffffffffffffff\n          and\n          0xffffffffffffffffffffffffffffffffffffffff\n          and\n          dup2\n          mstore\n          0x20\n          add\n          swap1\n          dup2\n          mstore\n          0x20\n          add\n          0x00\n          keccak256\n          sload\n            /* \"Disney/ERC20.sol\":3083:3106  balances[recipient].add */\n          tag_74\n          swap1\n            /* \"Disney/ERC20.sol\":3083:3117  balances[recipient].add(numTokens) */\n          swap2\n          swap1\n          0xffffffff\n          and\n          jump\t// in\n        tag_80:\n            /* \"Disney/ERC20.sol\":3061:3069  balances */\n          0x00\n            /* \"Disney/ERC20.sol\":3061:3080  balances[recipient] */\n          dup1\n            /* \"Disney/ERC20.sol\":3070:3079  recipient */\n          dup6\n            /* \"Disney/ERC20.sol\":3061:3080  balances[recipient] */\n          0xffffffffffffffffffffffffffffffffffffffff\n          and\n          0xffffffffffffffffffffffffffffffffffffffff\n          and\n          dup2\n          mstore\n          0x20\n          add\n          swap1\n          dup2\n          mstore\n          0x20\n          add\n          0x00\n          keccak256\n            /* \"Disney/ERC20.sol\":3061:3117  balances[recipient] = balances[recipient].add(numTokens) */\n          dup2\n          swap1\n          sstore\n          pop\n            /* \"Disney/ERC20.sol\":3156:3165  recipient */\n          dup3\n            /* \"Disney/ERC20.sol\":3135:3177  Transfer(msg.sender, recipient, numTokens) */\n          0xffffffffffffffffffffffffffffffffffffffff\n          and\n            /* \"Disney/ERC20.sol\":3144:3154  msg.sender */\n          caller\n            /* \"Disney/ERC20.sol\":3135:3177  Transfer(msg.sender, recipient, numTokens) */\n          0xffffffffffffffffffffffffffffffffffffffff\n          and\n          0xddf252ad1be2c89b69c2b068fc378daa952ba7f163c4a11628f55a4df523b3ef\n            /* \"Disney/ERC20.sol\":3167:3176  numTokens */\n          dup5\n            /* \"Disney/ERC20.sol\":3135:3177  Transfer(msg.sender, recipient, numTokens) */\n          mload(0x40)\n          tag_81\n          swap2\n          swap1\n          tag_28\n          jump\t// in\n        tag_81:\n          mload(0x40)\n          dup1\n          swap2\n          sub\n          swap1\n          log3\n            /* \"Disney/ERC20.sol\":3197:3201  true */\n          0x01\n            /* \"Disney/ERC20.sol\":3190:3201  return true */\n          swap1\n          pop\n            /* \"Disney/ERC20.sol\":2838:3209  function transfer(address recipient, uint256 numTokens) public override returns(bool) {\r... */\n          swap3\n          swap2\n          pop\n          pop\n          jump\t// out\n            /* \"Disney/ERC20.sol\":2691:2830  function allowance(address owner, address spender) public override view returns (uint256) {\r... */\n        tag_57:\n            /* \"Disney/ERC20.sol\":2772:2779  uint256 */\n          0x00\n            /* \"Disney/ERC20.sol\":2799:2806  allowed */\n          0x01\n            /* \"Disney/ERC20.sol\":2799:2813  allowed[owner] */\n          0x00\n            /* \"Disney/ERC20.sol\":2807:2812  owner */\n          dup5\n            /* \"Disney/ERC20.sol\":2799:2813  allowed[owner] */\n          0xffffffffffffffffffffffffffffffffffffffff\n          and\n          0xffffffffffffffffffffffffffffffffffffffff\n          and\n          dup2\n          mstore\n          0x20\n          add\n          swap1\n          dup2\n          mstore\n          0x20\n          add\n          0x00\n          keccak256\n            /* \"Disney/ERC20.sol\":2799:2822  allowed[owner][spender] */\n          0x00\n            /* \"Disney/ERC20.sol\":2814:2821  spender */\n          dup4\n            /* \"Disney/ERC20.sol\":2799:2822  allowed[owner][spender] */\n          0xffffffffffffffffffffffffffffffffffffffff\n          and\n          0xffffffffffffffffffffffffffffffffffffffff\n          and\n          dup2\n          mstore\n          0x20\n          add\n          swap1\n          dup2\n          mstore\n          0x20\n          add\n          0x00\n          keccak256\n          sload\n            /* \"Disney/ERC20.sol\":2792:2822  return allowed[owner][spender] */\n          swap1\n          pop\n            /* \"Disney/ERC20.sol\":2691:2830  function allowance(address owner, address spender) public override view returns (uint256) {\r... */\n          swap3\n          swap2\n          pop\n          pop\n          jump\t// out\n            /* \"Disney/ERC20.sol\":3217:3600  function transfer_Disney(address cliente, address recipient, uint256 numTokens) public override returns(bool) {\r... */\n        tag_61:\n            /* \"Disney/ERC20.sol\":3321:3325  bool */\n          0x00\n            /* \"Disney/ERC20.sol\":3360:3368  balances */\n          dup1\n            /* \"Disney/ERC20.sol\":3360:3377  balances[cliente] */\n          0x00\n            /* \"Disney/ERC20.sol\":3369:3376  cliente */\n          dup6\n            /* \"Disney/ERC20.sol\":3360:3377  balances[cliente] */\n          0xffffffffffffffffffffffffffffffffffffffff\n          and\n          0xffffffffffffffffffffffffffffffffffffffff\n          and\n          dup2\n          mstore\n          0x20\n          add\n          swap1\n          dup2\n          mstore\n          0x20\n          add\n          0x00\n          keccak256\n          sload\n            /* \"Disney/ERC20.sol\":3347:3356  numTokens */\n          dup3\n            /* \"Disney/ERC20.sol\":3347:3377  numTokens <= balances[cliente] */\n          gt\n          iszero\n            /* \"Disney/ERC20.sol\":3338:3378  require (numTokens <= balances[cliente]) */\n          tag_84\n          jumpi\n          0x00\n          dup1\n          revert\n        tag_84:\n            /* \"Disney/ERC20.sol\":3411:3443  balances[cliente].sub(numTokens) */\n          tag_85\n            /* \"Disney/ERC20.sol\":3433:3442  numTokens */\n          dup3\n            /* \"Disney/ERC20.sol\":3411:3419  balances */\n          0x00\n            /* \"Disney/ERC20.sol\":3411:3428  balances[cliente] */\n          dup1\n            /* \"Disney/ERC20.sol\":3420:3427  cliente */\n          dup8\n            /* \"Disney/ERC20.sol\":3411:3428  balances[cliente] */\n          0xffffffffffffffffffffffffffffffffffffffff\n          and\n          0xffffffffffffffffffffffffffffffffffffffff\n          and\n          dup2\n          mstore\n          0x20\n          add\n          swap1\n          dup2\n          mstore\n          0x20\n          add\n          0x00\n          keccak256\n          sload\n            /* \"Disney/ERC20.sol\":3411:3432  balances[cliente].sub */\n          tag_71\n          swap1\n            /* \"Disney/ERC20.sol\":3411:3443  balances[cliente].sub(numTokens) */\n          swap2\n          swap1\n          0xffffffff\n          and\n          jump\t// in\n        tag_85:\n            /* \"Disney/ERC20.sol\":3391:3399  balances */\n          0x00\n            /* \"Disney/ERC20.sol\":3391:3408  balances[cliente] */\n          dup1\n            /* \"Disney/ERC20.sol\":3400:3407  cliente */\n          dup7\n            /* \"Disney/ERC20.sol\":3391:3408  balances[cliente] */\n          0xffffffffffffffffffffffffffffffffffffffff\n          and\n          0xffffffffffffffffffffffffffffffffffffffff\n          and\n          dup2\n          mstore\n          0x20\n          add\n          swap1\n          dup2\n          mstore\n          0x20\n          add\n          0x00\n          keccak256\n            /* \"Disney/ERC20.sol\":3391:3443  balances[cliente] = balances[cliente].sub(numTokens) */\n          dup2\n          swap1\n          sstore\n          pop\n            /* \"Disney/ERC20.sol\":3477:3511  balances[recipient].add(numTokens) */\n          tag_86\n            /* \"Disney/ERC20.sol\":3501:3510  numTokens */\n          dup3\n            /* \"Disney/ERC20.sol\":3477:3485  balances */\n          0x00\n            /* \"Disney/ERC20.sol\":3477:3496  balances[recipient] */\n          dup1\n            /* \"Disney/ERC20.sol\":3486:3495  recipient */\n          dup7\n            /* \"Disney/ERC20.sol\":3477:3496  balances[recipient] */\n          0xffffffffffffffffffffffffffffffffffffffff\n          and\n          0xffffffffffffffffffffffffffffffffffffffff\n          and\n          dup2\n          mstore\n          0x20\n          add\n          swap1\n          dup2\n          mstore\n          0x20\n          add\n          0x00\n          keccak256\n          sload\n            /* \"Disney/ERC20.sol\":3477:3500  balances[recipient].add */\n          tag_74\n          swap1\n            /* \"Disney/ERC20.sol\":3477:3511  balances[recipient].add(numTokens) */\n          swap2\n          swap1\n          0xffffffff\n          and\n          jump\t// in\n        tag_86:\n            /* \"Disney/ERC20.sol\":3455:3463  balances */\n          0x00\n            /* \"Disney/ERC20.sol\":3455:3474  balances[recipient] */\n          dup1\n            /* \"Disney/ERC20.sol\":3464:3473  recipient */\n          dup6\n            /* \"Disney/ERC20.sol\":3455:3474  balances[recipient] */\n          0xffffffffffffffffffffffffffffffffffffffff\n          and\n          0xffffffffffffffffffffffffffffffffffffffff\n          and\n          dup2\n          mstore\n          0x20\n          add\n          swap1\n          dup2\n          mstore\n          0x20\n          add\n          0x00\n          keccak256\n            /* \"Disney/ERC20.sol\":3455:3511  balances[recipient] = balances[recipient].add(numTokens) */\n          dup2\n          swap1\n          sstore\n          pop\n            /* \"Disney/ERC20.sol\":3547:3556  recipient */\n          dup3\n            /* \"Disney/ERC20.sol\":3529:3568  Transfer(cliente, recipient, numTokens) */\n          0xffffffffffffffffffffffffffffffffffffffff\n          and\n            /* \"Disney/ERC20.sol\":3538:3545  cliente */\n          dup5\n            /* \"Disney/ERC20.sol\":3529:3568  Transfer(cliente, recipient, numTokens) */\n          0xffffffffffffffffffffffffffffffffffffffff\n          and\n          0xddf252ad1be2c89b69c2b068fc378daa952ba7f163c4a11628f55a4df523b3ef\n            /* \"Disney/ERC20.sol\":3558:3567  numTokens */\n          dup5\n            /* \"Disney/ERC20.sol\":3529:3568  Transfer(cliente, recipient, numTokens) */\n          mload(0x40)\n          tag_87\n          swap2\n          swap1\n          tag_28\n          jump\t// in\n        tag_87:\n          mload(0x40)\n          dup1\n          swap2\n          sub\n          swap1\n          log3\n            /* \"Disney/ERC20.sol\":3588:3592  true */\n          0x01\n            /* \"Disney/ERC20.sol\":3581:3592  return true */\n          swap1\n          pop\n            /* \"Disney/ERC20.sol\":3217:3600  function transfer_Disney(address cliente, address recipient, uint256 numTokens) public override returns(bool) {\r... */\n          swap4\n          swap3\n          pop\n          pop\n          pop\n          jump\t// out\n            /* \"Disney/SafeMath.sol\":318:437  function sub(uint256 a, uint256 b) internal pure returns (uint256) {\r... */\n        tag_71:\n            /* \"Disney/SafeMath.sol\":376:383  uint256 */\n          0x00\n            /* \"Disney/SafeMath.sol\":406:407  a */\n          dup3\n            /* \"Disney/SafeMath.sol\":401:402  b */\n          dup3\n            /* \"Disney/SafeMath.sol\":401:407  b <= a */\n          gt\n          iszero\n            /* \"Disney/SafeMath.sol\":394:408  assert(b <= a) */\n          tag_89\n          jumpi\n          invalid\n        tag_89:\n            /* \"Disney/SafeMath.sol\":428:429  b */\n          dup2\n            /* \"Disney/SafeMath.sol\":424:425  a */\n          dup4\n            /* \"Disney/SafeMath.sol\":424:429  a - b */\n          sub\n            /* \"Disney/SafeMath.sol\":417:429  return a - b */\n          swap1\n          pop\n            /* \"Disney/SafeMath.sol\":318:437  function sub(uint256 a, uint256 b) internal pure returns (uint256) {\r... */\n          swap3\n          swap2\n          pop\n          pop\n          jump\t// out\n            /* \"Disney/SafeMath.sol\":463:604  function add(uint256 a, uint256 b) internal pure returns (uint256) {\r... */\n        tag_74:\n            /* \"Disney/SafeMath.sol\":521:528  uint256 */\n          0x00\n            /* \"Disney/SafeMath.sol\":539:548  uint256 c */\n          dup1\n            /* \"Disney/SafeMath.sol\":555:556  b */\n          dup3\n            /* \"Disney/SafeMath.sol\":551:552  a */\n          dup5\n            /* \"Disney/SafeMath.sol\":551:556  a + b */\n          add\n            /* \"Disney/SafeMath.sol\":539:556  uint256 c = a + b */\n          swap1\n          pop\n            /* \"Disney/SafeMath.sol\":577:578  a */\n          dup4\n            /* \"Disney/SafeMath.sol\":572:573  c */\n          dup2\n            /* \"Disney/SafeMath.sol\":572:578  c >= a */\n          lt\n          iszero\n            /* \"Disney/SafeMath.sol\":565:579  assert(c >= a) */\n          tag_91\n          jumpi\n          invalid\n        tag_91:\n            /* \"Disney/SafeMath.sol\":595:596  c */\n          dup1\n            /* \"Disney/SafeMath.sol\":588:596  return c */\n          swap2\n          pop\n          pop\n            /* \"Disney/SafeMath.sol\":463:604  function add(uint256 a, uint256 b) internal pure returns (uint256) {\r... */\n          swap3\n          swap2\n          pop\n          pop\n          jump\t// out\n            /* \"--CODEGEN--\":5:135   */\n        tag_93:\n          0x00\n            /* \"--CODEGEN--\":85:91   */\n          dup2\n            /* \"--CODEGEN--\":72:92   */\n          calldataload\n            /* \"--CODEGEN--\":63:92   */\n          swap1\n          pop\n            /* \"--CODEGEN--\":97:130   */\n          tag_95\n            /* \"--CODEGEN--\":124:129   */\n          dup2\n            /* \"--CODEGEN--\":97:130   */\n          tag_96\n          jump\t// in\n        tag_95:\n            /* \"--CODEGEN--\":57:135   */\n          swap3\n          swap2\n          pop\n          pop\n          jump\t// out\n            /* \"--CODEGEN--\":142:272   */\n        tag_97:\n          0x00\n            /* \"--CODEGEN--\":222:228   */\n          dup2\n            /* \"--CODEGEN--\":209:229   */\n          calldataload\n            /* \"--CODEGEN--\":200:229   */\n          swap1\n          pop\n            /* \"--CODEGEN--\":234:267   */\n          tag_99\n            /* \"--CODEGEN--\":261:266   */\n          dup2\n            /* \"--CODEGEN--\":234:267   */\n          tag_100\n          jump\t// in\n        tag_99:\n            /* \"--CODEGEN--\":194:272   */\n          swap3\n          swap2\n          pop\n          pop\n          jump\t// out\n            /* \"--CODEGEN--\":279:520   */\n        tag_44:\n          0x00\n            /* \"--CODEGEN--\":383:385   */\n          0x20\n            /* \"--CODEGEN--\":371:380   */\n          dup3\n            /* \"--CODEGEN--\":362:369   */\n          dup5\n            /* \"--CODEGEN--\":358:381   */\n          sub\n            /* \"--CODEGEN--\":354:386   */\n          slt\n            /* \"--CODEGEN--\":351:353   */\n          iszero\n          tag_102\n          jumpi\n            /* \"--CODEGEN--\":399:400   */\n          0x00\n            /* \"--CODEGEN--\":396:397   */\n          dup1\n            /* \"--CODEGEN--\":389:401   */\n          revert\n            /* \"--CODEGEN--\":351:353   */\n        tag_102:\n            /* \"--CODEGEN--\":434:435   */\n          0x00\n            /* \"--CODEGEN--\":451:504   */\n          tag_103\n            /* \"--CODEGEN--\":496:503   */\n          dup5\n            /* \"--CODEGEN--\":487:493   */\n          dup3\n            /* \"--CODEGEN--\":476:485   */\n          dup6\n            /* \"--CODEGEN--\":472:494   */\n          add\n            /* \"--CODEGEN--\":451:504   */\n          tag_93\n          jump\t// in\n        tag_103:\n            /* \"--CODEGEN--\":441:504   */\n          swap2\n          pop\n            /* \"--CODEGEN--\":413:510   */\n          pop\n            /* \"--CODEGEN--\":345:520   */\n          swap3\n          swap2\n          pop\n          pop\n          jump\t// out\n            /* \"--CODEGEN--\":527:893   */\n        tag_56:\n          0x00\n          dup1\n            /* \"--CODEGEN--\":648:650   */\n          0x40\n            /* \"--CODEGEN--\":636:645   */\n          dup4\n            /* \"--CODEGEN--\":627:634   */\n          dup6\n            /* \"--CODEGEN--\":623:646   */\n          sub\n            /* \"--CODEGEN--\":619:651   */\n          slt\n            /* \"--CODEGEN--\":616:618   */\n          iszero\n          tag_105\n          jumpi\n            /* \"--CODEGEN--\":664:665   */\n          0x00\n            /* \"--CODEGEN--\":661:662   */\n          dup1\n            /* \"--CODEGEN--\":654:666   */\n          revert\n            /* \"--CODEGEN--\":616:618   */\n        tag_105:\n            /* \"--CODEGEN--\":699:700   */\n          0x00\n            /* \"--CODEGEN--\":716:769   */\n          tag_106\n            /* \"--CODEGEN--\":761:768   */\n          dup6\n            /* \"--CODEGEN--\":752:758   */\n          dup3\n            /* \"--CODEGEN--\":741:750   */\n          dup7\n            /* \"--CODEGEN--\":737:759   */\n          add\n            /* \"--CODEGEN--\":716:769   */\n          tag_93\n          jump\t// in\n        tag_106:\n            /* \"--CODEGEN--\":706:769   */\n          swap3\n          pop\n            /* \"--CODEGEN--\":678:775   */\n          pop\n            /* \"--CODEGEN--\":806:808   */\n          0x20\n            /* \"--CODEGEN--\":824:877   */\n          tag_107\n            /* \"--CODEGEN--\":869:876   */\n          dup6\n            /* \"--CODEGEN--\":860:866   */\n          dup3\n            /* \"--CODEGEN--\":849:858   */\n          dup7\n            /* \"--CODEGEN--\":845:867   */\n          add\n            /* \"--CODEGEN--\":824:877   */\n          tag_93\n          jump\t// in\n        tag_107:\n            /* \"--CODEGEN--\":814:877   */\n          swap2\n          pop\n            /* \"--CODEGEN--\":785:883   */\n          pop\n            /* \"--CODEGEN--\":610:893   */\n          swap3\n          pop\n          swap3\n          swap1\n          pop\n          jump\t// out\n            /* \"--CODEGEN--\":900:1391   */\n        tag_35:\n          0x00\n          dup1\n          0x00\n            /* \"--CODEGEN--\":1038:1040   */\n          0x60\n            /* \"--CODEGEN--\":1026:1035   */\n          dup5\n            /* \"--CODEGEN--\":1017:1024   */\n          dup7\n            /* \"--CODEGEN--\":1013:1036   */\n          sub\n            /* \"--CODEGEN--\":1009:1041   */\n          slt\n            /* \"--CODEGEN--\":1006:1008   */\n          iszero\n          tag_109\n          jumpi\n            /* \"--CODEGEN--\":1054:1055   */\n          0x00\n            /* \"--CODEGEN--\":1051:1052   */\n          dup1\n            /* \"--CODEGEN--\":1044:1056   */\n          revert\n            /* \"--CODEGEN--\":1006:1008   */\n        tag_109:\n            /* \"--CODEGEN--\":1089:1090   */\n          0x00\n            /* \"--CODEGEN--\":1106:1159   */\n          tag_110\n            /* \"--CODEGEN--\":1151:1158   */\n          dup7\n            /* \"--CODEGEN--\":1142:1148   */\n          dup3\n            /* \"--CODEGEN--\":1131:1140   */\n          dup8\n            /* \"--CODEGEN--\":1127:1149   */\n          add\n            /* \"--CODEGEN--\":1106:1159   */\n          tag_93\n          jump\t// in\n        tag_110:\n            /* \"--CODEGEN--\":1096:1159   */\n          swap4\n          pop\n            /* \"--CODEGEN--\":1068:1165   */\n          pop\n            /* \"--CODEGEN--\":1196:1198   */\n          0x20\n            /* \"--CODEGEN--\":1214:1267   */\n          tag_111\n            /* \"--CODEGEN--\":1259:1266   */\n          dup7\n            /* \"--CODEGEN--\":1250:1256   */\n          dup3\n            /* \"--CODEGEN--\":1239:1248   */\n          dup8\n            /* \"--CODEGEN--\":1235:1257   */\n          add\n            /* \"--CODEGEN--\":1214:1267   */\n          tag_93\n          jump\t// in\n        tag_111:\n            /* \"--CODEGEN--\":1204:1267   */\n          swap3\n          pop\n            /* \"--CODEGEN--\":1175:1273   */\n          pop\n            /* \"--CODEGEN--\":1304:1306   */\n          0x40\n            /* \"--CODEGEN--\":1322:1375   */\n          tag_112\n            /* \"--CODEGEN--\":1367:1374   */\n          dup7\n            /* \"--CODEGEN--\":1358:1364   */\n          dup3\n            /* \"--CODEGEN--\":1347:1356   */\n          dup8\n            /* \"--CODEGEN--\":1343:1365   */\n          add\n            /* \"--CODEGEN--\":1322:1375   */\n          tag_97\n          jump\t// in\n        tag_112:\n            /* \"--CODEGEN--\":1312:1375   */\n          swap2\n          pop\n            /* \"--CODEGEN--\":1283:1381   */\n          pop\n            /* \"--CODEGEN--\":1000:1391   */\n          swap3\n          pop\n          swap3\n          pop\n          swap3\n          jump\t// out\n            /* \"--CODEGEN--\":1398:1764   */\n        tag_21:\n          0x00\n          dup1\n            /* \"--CODEGEN--\":1519:1521   */\n          0x40\n            /* \"--CODEGEN--\":1507:1516   */\n          dup4\n            /* \"--CODEGEN--\":1498:1505   */\n          dup6\n            /* \"--CODEGEN--\":1494:1517   */\n          sub\n            /* \"--CODEGEN--\":1490:1522   */\n          slt\n            /* \"--CODEGEN--\":1487:1489   */\n          iszero\n          tag_114\n          jumpi\n            /* \"--CODEGEN--\":1535:1536   */\n          0x00\n            /* \"--CODEGEN--\":1532:1533   */\n          dup1\n            /* \"--CODEGEN--\":1525:1537   */\n          revert\n            /* \"--CODEGEN--\":1487:1489   */\n        tag_114:\n            /* \"--CODEGEN--\":1570:1571   */\n          0x00\n            /* \"--CODEGEN--\":1587:1640   */\n          tag_115\n            /* \"--CODEGEN--\":1632:1639   */\n          dup6\n            /* \"--CODEGEN--\":1623:1629   */\n          dup3\n            /* \"--CODEGEN--\":1612:1621   */\n          dup7\n            /* \"--CODEGEN--\":1608:1630   */\n          add\n            /* \"--CODEGEN--\":1587:1640   */\n          tag_93\n          jump\t// in\n        tag_115:\n            /* \"--CODEGEN--\":1577:1640   */\n          swap3\n          pop\n            /* \"--CODEGEN--\":1549:1646   */\n          pop\n            /* \"--CODEGEN--\":1677:1679   */\n          0x20\n            /* \"--CODEGEN--\":1695:1748   */\n          tag_116\n            /* \"--CODEGEN--\":1740:1747   */\n          dup6\n            /* \"--CODEGEN--\":1731:1737   */\n          dup3\n            /* \"--CODEGEN--\":1720:1729   */\n          dup7\n            /* \"--CODEGEN--\":1716:1738   */\n          add\n            /* \"--CODEGEN--\":1695:1748   */\n          tag_97\n          jump\t// in\n        tag_116:\n            /* \"--CODEGEN--\":1685:1748   */\n          swap2\n          pop\n            /* \"--CODEGEN--\":1656:1754   */\n          pop\n            /* \"--CODEGEN--\":1481:1764   */\n          swap3\n          pop\n          swap3\n          swap1\n          pop\n          jump\t// out\n            /* \"--CODEGEN--\":1771:2012   */\n        tag_31:\n          0x00\n            /* \"--CODEGEN--\":1875:1877   */\n          0x20\n            /* \"--CODEGEN--\":1863:1872   */\n          dup3\n            /* \"--CODEGEN--\":1854:1861   */\n          dup5\n            /* \"--CODEGEN--\":1850:1873   */\n          sub\n            /* \"--CODEGEN--\":1846:1878   */\n          slt\n            /* \"--CODEGEN--\":1843:1845   */\n          iszero\n          tag_118\n          jumpi\n            /* \"--CODEGEN--\":1891:1892   */\n          0x00\n            /* \"--CODEGEN--\":1888:1889   */\n          dup1\n            /* \"--CODEGEN--\":1881:1893   */\n          revert\n            /* \"--CODEGEN--\":1843:1845   */\n        tag_118:\n            /* \"--CODEGEN--\":1926:1927   */\n          0x00\n            /* \"--CODEGEN--\":1943:1996   */\n          tag_119\n            /* \"--CODEGEN--\":1988:1995   */\n          dup5\n            /* \"--CODEGEN--\":1979:1985   */\n          dup3\n            /* \"--CODEGEN--\":1968:1977   */\n          dup6\n            /* \"--CODEGEN--\":1964:1986   */\n          add\n            /* \"--CODEGEN--\":1943:1996   */\n          tag_97\n          jump\t// in\n        tag_119:\n            /* \"--CODEGEN--\":1933:1996   */\n          swap2\n          pop\n            /* \"--CODEGEN--\":1905:2002   */\n          pop\n            /* \"--CODEGEN--\":1837:2012   */\n          swap3\n          swap2\n          pop\n          pop\n          jump\t// out\n            /* \"--CODEGEN--\":2019:2123   */\n        tag_120:\n            /* \"--CODEGEN--\":2096:2117   */\n          tag_122\n            /* \"--CODEGEN--\":2111:2116   */\n          dup2\n            /* \"--CODEGEN--\":2096:2117   */\n          tag_123\n          jump\t// in\n        tag_122:\n            /* \"--CODEGEN--\":2091:2094   */\n          dup3\n            /* \"--CODEGEN--\":2084:2118   */\n          mstore\n            /* \"--CODEGEN--\":2078:2123   */\n          pop\n          pop\n          jump\t// out\n            /* \"--CODEGEN--\":2130:2477   */\n        tag_124:\n          0x00\n            /* \"--CODEGEN--\":2242:2281   */\n          tag_126\n            /* \"--CODEGEN--\":2275:2280   */\n          dup3\n            /* \"--CODEGEN--\":2242:2281   */\n          tag_127\n          jump\t// in\n        tag_126:\n            /* \"--CODEGEN--\":2293:2364   */\n          tag_128\n            /* \"--CODEGEN--\":2357:2363   */\n          dup2\n            /* \"--CODEGEN--\":2352:2355   */\n          dup6\n            /* \"--CODEGEN--\":2293:2364   */\n          tag_129\n          jump\t// in\n        tag_128:\n            /* \"--CODEGEN--\":2286:2364   */\n          swap4\n          pop\n            /* \"--CODEGEN--\":2369:2421   */\n          tag_130\n            /* \"--CODEGEN--\":2414:2420   */\n          dup2\n            /* \"--CODEGEN--\":2409:2412   */\n          dup6\n            /* \"--CODEGEN--\":2402:2406   */\n          0x20\n            /* \"--CODEGEN--\":2395:2400   */\n          dup7\n            /* \"--CODEGEN--\":2391:2407   */\n          add\n            /* \"--CODEGEN--\":2369:2421   */\n          tag_131\n          jump\t// in\n        tag_130:\n            /* \"--CODEGEN--\":2442:2471   */\n          tag_132\n            /* \"--CODEGEN--\":2464:2470   */\n          dup2\n            /* \"--CODEGEN--\":2442:2471   */\n          tag_133\n          jump\t// in\n        tag_132:\n            /* \"--CODEGEN--\":2437:2440   */\n          dup5\n            /* \"--CODEGEN--\":2433:2472   */\n          add\n            /* \"--CODEGEN--\":2426:2472   */\n          swap2\n          pop\n            /* \"--CODEGEN--\":2222:2477   */\n          pop\n          swap3\n          swap2\n          pop\n          pop\n          jump\t// out\n            /* \"--CODEGEN--\":2484:2597   */\n        tag_134:\n            /* \"--CODEGEN--\":2567:2591   */\n          tag_136\n            /* \"--CODEGEN--\":2585:2590   */\n          dup2\n            /* \"--CODEGEN--\":2567:2591   */\n          tag_137\n          jump\t// in\n        tag_136:\n            /* \"--CODEGEN--\":2562:2565   */\n          dup3\n            /* \"--CODEGEN--\":2555:2592   */\n          mstore\n            /* \"--CODEGEN--\":2549:2597   */\n          pop\n          pop\n          jump\t// out\n            /* \"--CODEGEN--\":2604:2711   */\n        tag_138:\n            /* \"--CODEGEN--\":2683:2705   */\n          tag_140\n            /* \"--CODEGEN--\":2699:2704   */\n          dup2\n            /* \"--CODEGEN--\":2683:2705   */\n          tag_141\n          jump\t// in\n        tag_140:\n            /* \"--CODEGEN--\":2678:2681   */\n          dup3\n            /* \"--CODEGEN--\":2671:2706   */\n          mstore\n            /* \"--CODEGEN--\":2665:2711   */\n          pop\n          pop\n          jump\t// out\n            /* \"--CODEGEN--\":2718:2928   */\n        tag_24:\n          0x00\n            /* \"--CODEGEN--\":2839:2841   */\n          0x20\n            /* \"--CODEGEN--\":2828:2837   */\n          dup3\n            /* \"--CODEGEN--\":2824:2842   */\n          add\n            /* \"--CODEGEN--\":2816:2842   */\n          swap1\n          pop\n            /* \"--CODEGEN--\":2853:2918   */\n          tag_143\n            /* \"--CODEGEN--\":2915:2916   */\n          0x00\n            /* \"--CODEGEN--\":2904:2913   */\n          dup4\n            /* \"--CODEGEN--\":2900:2917   */\n          add\n            /* \"--CODEGEN--\":2891:2897   */\n          dup5\n            /* \"--CODEGEN--\":2853:2918   */\n          tag_120\n          jump\t// in\n        tag_143:\n            /* \"--CODEGEN--\":2810:2928   */\n          swap3\n          swap2\n          pop\n          pop\n          jump\t// out\n            /* \"--CODEGEN--\":2935:3245   */\n        tag_18:\n          0x00\n            /* \"--CODEGEN--\":3082:3084   */\n          0x20\n            /* \"--CODEGEN--\":3071:3080   */\n          dup3\n            /* \"--CODEGEN--\":3067:3085   */\n          add\n            /* \"--CODEGEN--\":3059:3085   */\n          swap1\n          pop\n            /* \"--CODEGEN--\":3132:3141   */\n          dup2\n            /* \"--CODEGEN--\":3126:3130   */\n          dup2\n            /* \"--CODEGEN--\":3122:3142   */\n          sub\n            /* \"--CODEGEN--\":3118:3119   */\n          0x00\n            /* \"--CODEGEN--\":3107:3116   */\n          dup4\n            /* \"--CODEGEN--\":3103:3120   */\n          add\n            /* \"--CODEGEN--\":3096:3143   */\n          mstore\n            /* \"--CODEGEN--\":3157:3235   */\n          tag_145\n            /* \"--CODEGEN--\":3230:3234   */\n          dup2\n            /* \"--CODEGEN--\":3221:3227   */\n          dup5\n            /* \"--CODEGEN--\":3157:3235   */\n          tag_124\n          jump\t// in\n        tag_145:\n            /* \"--CODEGEN--\":3149:3235   */\n          swap1\n          pop\n            /* \"--CODEGEN--\":3053:3245   */\n          swap3\n          swap2\n          pop\n          pop\n          jump\t// out\n            /* \"--CODEGEN--\":3252:3474   */\n        tag_28:\n          0x00\n            /* \"--CODEGEN--\":3379:3381   */\n          0x20\n            /* \"--CODEGEN--\":3368:3377   */\n          dup3\n            /* \"--CODEGEN--\":3364:3382   */\n          add\n            /* \"--CODEGEN--\":3356:3382   */\n          swap1\n          pop\n            /* \"--CODEGEN--\":3393:3464   */\n          tag_147\n            /* \"--CODEGEN--\":3461:3462   */\n          0x00\n            /* \"--CODEGEN--\":3450:3459   */\n          dup4\n            /* \"--CODEGEN--\":3446:3463   */\n          add\n            /* \"--CODEGEN--\":3437:3443   */\n          dup5\n            /* \"--CODEGEN--\":3393:3464   */\n          tag_134\n          jump\t// in\n        tag_147:\n            /* \"--CODEGEN--\":3350:3474   */\n          swap3\n          swap2\n          pop\n          pop\n          jump\t// out\n            /* \"--CODEGEN--\":3481:3695   */\n        tag_41:\n          0x00\n            /* \"--CODEGEN--\":3604:3606   */\n          0x20\n            /* \"--CODEGEN--\":3593:3602   */\n          dup3\n            /* \"--CODEGEN--\":3589:3607   */\n          add\n            /* \"--CODEGEN--\":3581:3607   */\n          swap1\n          pop\n            /* \"--CODEGEN--\":3618:3685   */\n          tag_149\n            /* \"--CODEGEN--\":3682:3683   */\n          0x00\n            /* \"--CODEGEN--\":3671:3680   */\n          dup4\n            /* \"--CODEGEN--\":3667:3684   */\n          add\n            /* \"--CODEGEN--\":3658:3664   */\n          dup5\n            /* \"--CODEGEN--\":3618:3685   */\n          tag_138\n          jump\t// in\n        tag_149:\n            /* \"--CODEGEN--\":3575:3695   */\n          swap3\n          swap2\n          pop\n          pop\n          jump\t// out\n            /* \"--CODEGEN--\":3702:3824   */\n        tag_127:\n          0x00\n            /* \"--CODEGEN--\":3796:3801   */\n          dup2\n            /* \"--CODEGEN--\":3790:3802   */\n          mload\n            /* \"--CODEGEN--\":3780:3802   */\n          swap1\n          pop\n            /* \"--CODEGEN--\":3761:3824   */\n          swap2\n          swap1\n          pop\n          jump\t// out\n            /* \"--CODEGEN--\":3832:3995   */\n        tag_129:\n          0x00\n            /* \"--CODEGEN--\":3947:3953   */\n          dup3\n            /* \"--CODEGEN--\":3942:3945   */\n          dup3\n            /* \"--CODEGEN--\":3935:3954   */\n          mstore\n            /* \"--CODEGEN--\":3984:3988   */\n          0x20\n            /* \"--CODEGEN--\":3979:3982   */\n          dup3\n            /* \"--CODEGEN--\":3975:3989   */\n          add\n            /* \"--CODEGEN--\":3960:3989   */\n          swap1\n          pop\n            /* \"--CODEGEN--\":3928:3995   */\n          swap3\n          swap2\n          pop\n          pop\n          jump\t// out\n            /* \"--CODEGEN--\":4003:4094   */\n        tag_152:\n          0x00\n            /* \"--CODEGEN--\":4065:4089   */\n          tag_154\n            /* \"--CODEGEN--\":4083:4088   */\n          dup3\n            /* \"--CODEGEN--\":4065:4089   */\n          tag_155\n          jump\t// in\n        tag_154:\n            /* \"--CODEGEN--\":4054:4089   */\n          swap1\n          pop\n            /* \"--CODEGEN--\":4048:4094   */\n          swap2\n          swap1\n          pop\n          jump\t// out\n            /* \"--CODEGEN--\":4101:4186   */\n        tag_123:\n          0x00\n            /* \"--CODEGEN--\":4174:4179   */\n          dup2\n            /* \"--CODEGEN--\":4167:4180   */\n          iszero\n            /* \"--CODEGEN--\":4160:4181   */\n          iszero\n            /* \"--CODEGEN--\":4149:4181   */\n          swap1\n          pop\n            /* \"--CODEGEN--\":4143:4186   */\n          swap2\n          swap1\n          pop\n          jump\t// out\n            /* \"--CODEGEN--\":4193:4314   */\n        tag_155:\n          0x00\n            /* \"--CODEGEN--\":4266:4308   */\n          0xffffffffffffffffffffffffffffffffffffffff\n            /* \"--CODEGEN--\":4259:4264   */\n          dup3\n            /* \"--CODEGEN--\":4255:4309   */\n          and\n            /* \"--CODEGEN--\":4244:4309   */\n          swap1\n          pop\n            /* \"--CODEGEN--\":4238:4314   */\n          swap2\n          swap1\n          pop\n          jump\t// out\n            /* \"--CODEGEN--\":4321:4393   */\n        tag_137:\n          0x00\n            /* \"--CODEGEN--\":4383:4388   */\n          dup2\n            /* \"--CODEGEN--\":4372:4388   */\n          swap1\n          pop\n            /* \"--CODEGEN--\":4366:4393   */\n          swap2\n          swap1\n          pop\n          jump\t// out\n            /* \"--CODEGEN--\":4400:4481   */\n        tag_141:\n          0x00\n            /* \"--CODEGEN--\":4471:4475   */\n          0xff\n            /* \"--CODEGEN--\":4464:4469   */\n          dup3\n            /* \"--CODEGEN--\":4460:4476   */\n          and\n            /* \"--CODEGEN--\":4449:4476   */\n          swap1\n          pop\n            /* \"--CODEGEN--\":4443:4481   */\n          swap2\n          swap1\n          pop\n          jump\t// out\n            /* \"--CODEGEN--\":4489:4757   */\n        tag_131:\n            /* \"--CODEGEN--\":4554:4555   */\n          0x00\n            /* \"--CODEGEN--\":4561:4662   */\n        tag_161:\n            /* \"--CODEGEN--\":4575:4581   */\n          dup4\n            /* \"--CODEGEN--\":4572:4573   */\n          dup2\n            /* \"--CODEGEN--\":4569:4582   */\n          lt\n            /* \"--CODEGEN--\":4561:4662   */\n          iszero\n          tag_163\n          jumpi\n            /* \"--CODEGEN--\":4651:4652   */\n          dup1\n            /* \"--CODEGEN--\":4646:4649   */\n          dup3\n            /* \"--CODEGEN--\":4642:4653   */\n          add\n            /* \"--CODEGEN--\":4636:4654   */\n          mload\n            /* \"--CODEGEN--\":4632:4633   */\n          dup2\n            /* \"--CODEGEN--\":4627:4630   */\n          dup5\n            /* \"--CODEGEN--\":4623:4634   */\n          add\n            /* \"--CODEGEN--\":4616:4655   */\n          mstore\n            /* \"--CODEGEN--\":4597:4599   */\n          0x20\n            /* \"--CODEGEN--\":4594:4595   */\n          dup2\n            /* \"--CODEGEN--\":4590:4600   */\n          add\n            /* \"--CODEGEN--\":4585:4600   */\n          swap1\n          pop\n            /* \"--CODEGEN--\":4561:4662   */\n          jump(tag_161)\n        tag_163:\n            /* \"--CODEGEN--\":4677:4683   */\n          dup4\n            /* \"--CODEGEN--\":4674:4675   */\n          dup2\n            /* \"--CODEGEN--\":4671:4684   */\n          gt\n            /* \"--CODEGEN--\":4668:4670   */\n          iszero\n          tag_164\n          jumpi\n            /* \"--CODEGEN--\":4742:4743   */\n          0x00\n            /* \"--CODEGEN--\":4733:4739   */\n          dup5\n            /* \"--CODEGEN--\":4728:4731   */\n          dup5\n            /* \"--CODEGEN--\":4724:4740   */\n          add\n            /* \"--CODEGEN--\":4717:4744   */\n          mstore\n            /* \"--CODEGEN--\":4668:4670   */\n        tag_164:\n            /* \"--CODEGEN--\":4538:4757   */\n          pop\n          pop\n          pop\n          pop\n          jump\t// out\n            /* \"--CODEGEN--\":4765:4862   */\n        tag_133:\n          0x00\n            /* \"--CODEGEN--\":4853:4855   */\n          0x1f\n            /* \"--CODEGEN--\":4849:4856   */\n          not\n            /* \"--CODEGEN--\":4844:4846   */\n          0x1f\n            /* \"--CODEGEN--\":4837:4842   */\n          dup4\n            /* \"--CODEGEN--\":4833:4847   */\n          add\n            /* \"--CODEGEN--\":4829:4857   */\n          and\n            /* \"--CODEGEN--\":4819:4857   */\n          swap1\n          pop\n            /* \"--CODEGEN--\":4813:4862   */\n          swap2\n          swap1\n          pop\n          jump\t// out\n            /* \"--CODEGEN--\":4870:4987   */\n        tag_96:\n            /* \"--CODEGEN--\":4939:4963   */\n          tag_167\n            /* \"--CODEGEN--\":4957:4962   */\n          dup2\n            /* \"--CODEGEN--\":4939:4963   */\n          tag_152\n          jump\t// in\n        tag_167:\n            /* \"--CODEGEN--\":4932:4937   */\n          dup2\n            /* \"--CODEGEN--\":4929:4964   */\n          eq\n            /* \"--CODEGEN--\":4919:4921   */\n          tag_168\n          jumpi\n            /* \"--CODEGEN--\":4978:4979   */\n          0x00\n            /* \"--CODEGEN--\":4975:4976   */\n          dup1\n            /* \"--CODEGEN--\":4968:4980   */\n          revert\n            /* \"--CODEGEN--\":4919:4921   */\n        tag_168:\n            /* \"--CODEGEN--\":4913:4987   */\n          pop\n          jump\t// out\n            /* \"--CODEGEN--\":4994:5111   */\n        tag_100:\n            /* \"--CODEGEN--\":5063:5087   */\n          tag_170\n            /* \"--CODEGEN--\":5081:5086   */\n          dup2\n            /* \"--CODEGEN--\":5063:5087   */\n          tag_137\n          jump\t// in\n        tag_170:\n            /* \"--CODEGEN--\":5056:5061   */\n          dup2\n            /* \"--CODEGEN--\":5053:5088   */\n          eq\n            /* \"--CODEGEN--\":5043:5045   */\n          tag_171\n          jumpi\n            /* \"--CODEGEN--\":5102:5103   */\n          0x00\n            /* \"--CODEGEN--\":5099:5100   */\n          dup1\n            /* \"--CODEGEN--\":5092:5104   */\n          revert\n            /* \"--CODEGEN--\":5043:5045   */\n        tag_171:\n            /* \"--CODEGEN--\":5037:5111   */\n          pop\n          jump\t// out\n\n        auxdata: 0xa2646970667358221220532c3aa8b922c20767af62dc097402ad230508a242d27769011d941905abc92364736f6c634300060c0033\n    }\n}\n",
				"bytecode": {
					"linkReferences": {},
					"object": "60806040523480156200001157600080fd5b506103e86040516200002390620000d3565b6200002f9190620000f2565b604051809103906000f0801580156200004c573d6000803e3d6000fd5b506000806101000a81548173ffffffffffffffffffffffffffffffffffffffff021916908373ffffffffffffffffffffffffffffffffffffffff16021790555033600160006101000a81548173ffffffffffffffffffffffffffffffffffffffff021916908373ffffffffffffffffffffffffffffffffffffffff1602179055506200012d565b61109d80620024e483390190565b620000ec8162000119565b82525050565b6000602082019050620001096000830184620000e1565b92915050565b6000819050919050565b600062000126826200010f565b9050919050565b6123a7806200013d6000396000f3fe6080604052600436106100c25760003560e01c80639a3174a01161007f578063ce8f2f3811610059578063ce8f2f3814610240578063d00df2961461027d578063e33f34a0146102bc578063f7774091146102e7576100c2565b80639a3174a0146101c3578063a2094159146101ee578063a9862fab14610217576100c2565b806312b91846146100c75780631fccb33c146100f05780632076b56c1461011b5780636b8f8e15146101445780637c1b38bf1461016f5780638da5cb5b14610198575b600080fd5b3480156100d357600080fd5b506100ee60048036038101906100e991906116e8565b610303565b005b3480156100fc57600080fd5b506101056106c0565b6040516101129190611f5d565b60405180910390f35b34801561012757600080fd5b50610142600480360381019061013d9190611729565b61076d565b005b34801561015057600080fd5b506101596108fe565b6040516101669190611f3b565b60405180910390f35b34801561017b57600080fd5b506101966004803603810190610191919061177d565b610a24565b005b3480156101a457600080fd5b506101ad610b44565b6040516101ba9190611ec0565b60405180910390f35b3480156101cf57600080fd5b506101d8610b6a565b6040516101e5919061214f565b60405180910390f35b3480156101fa57600080fd5b50610215600480360381019061021091906116e8565b610c1b565b005b34801561022357600080fd5b5061023e600480360381019061023991906116e8565b610e9c565b005b34801561024c57600080fd5b5061026760048036038101906102629190611696565b61111d565b604051610274919061214f565b60405180910390f35b34801561028957600080fd5b506102a4600480360381019061029f91906116e8565b61113b565b6040516102b393929190611faf565b60405180910390f35b3480156102c857600080fd5b506102d1611220565b6040516102de919061214f565b60405180910390f35b61030160048036038101906102fc919061177d565b6112d1565b005b60008060005b60048054905081101561067a57836040516020016103279190611e2d565b604051602081830303815290604052805190602001206004828154811061034a57fe5b906000526020600020016040516020016103649190611e73565b60405160208183030381529060405280519060200120141561066d576001925060036004828154811061039357fe5b906000526020600020016040516103aa9190611e73565b908152602001604051809103902060020160009054906101000a900460ff161561062757600191506103da611220565b6003600483815481106103e957fe5b906000526020600020016040516104009190611e73565b9081526020016040518091039020600101541115610453576040517f08c379a000000000000000000000000000000000000000000000000000000000815260040161044a9061202f565b60405180910390fd5b60008054906101000a900473ffffffffffffffffffffffffffffffffffffffff1673ffffffffffffffffffffffffffffffffffffffff1663ef91046033306003600486815481106104a057fe5b906000526020600020016040516104b79190611e73565b9081526020016040518091039020600101546040518463ffffffff1660e01b81526004016104e793929190611edb565b602060405180830381600087803b15801561050157600080fd5b505af1158015610515573d6000803e3d6000fd5b505050506040513d601f19601f8201168201806040525081019061053991906116bf565b50600560003373ffffffffffffffffffffffffffffffffffffffff1673ffffffffffffffffffffffffffffffffffffffff1681526020019081526020016000206004828154811061058657fe5b906000526020600020019080600181540180825580915050600190039060005260206000200160009091909190915090805460018160011615610100020316600290046105d49291906114ca565b507fc13b0c39e701b0f41dde2e972f3e98e53fa01e6bc45ef606ddc7522a8e354f2d6004828154811061060357fe5b9060005260206000200160405161061a9190611fed565b60405180910390a1610668565b81610667576040517f08c379a000000000000000000000000000000000000000000000000000000000815260040161065e9061204f565b60405180910390fd5b5b61067a565b8080600101915050610309565b50816106bb576040517f08c379a00000000000000000000000000000000000000000000000000000000081526004016106b29061200f565b60405180910390fd5b505050565b60608060005b600480549050811015610765576003600482815481106106e257fe5b906000526020600020016040516106f99190611e73565b908152602001604051809103902060020160009054906101000a900460ff161561075857816004828154811061072b57fe5b90600052602060002001604051602001610746929190611e44565b60405160208183030381529060405291505b80806001019150506106c6565b508091505090565b33600160009054906101000a900473ffffffffffffffffffffffffffffffffffffffff1673ffffffffffffffffffffffffffffffffffffffff168173ffffffffffffffffffffffffffffffffffffffff16146107fe576040517f08c379a00000000000000000000000000000000000000000000000000000000081526004016107f5906120ef565b60405180910390fd5b60405180606001604052808481526020018381526020016001151581525060038460405161082c9190611e2d565b90815260200160405180910390206000820151816000019080519060200190610856929190611551565b506020820151816001015560408201518160020160006101000a81548160ff0219169083151502179055509050506004839080600181540180825580915050600190039060005260206000200160009091909190915090805190602001906108bf929190611551565b507ffc9ecd7a6c2ca96d38526a0b9cc22f2474ff8e596dd348edaab06be905ebe37883836040516108f1929190611f7f565b60405180910390a1505050565b6060600560003373ffffffffffffffffffffffffffffffffffffffff1673ffffffffffffffffffffffffffffffffffffffff168152602001908152602001600020805480602002602001604051908101604052809291908181526020016000905b82821015610a1b578382906000526020600020018054600181600116156101000203166002900480601f016020809104026020016040519081016040528092919081815260200182805460018160011615610100020316600290048015610a075780601f106109dc57610100808354040283529160200191610a07565b820191906000526020600020905b8154815290600101906020018083116109ea57829003601f168201915b50505050508152602001906001019061095f565b50505050905090565b33600160009054906101000a900473ffffffffffffffffffffffffffffffffffffffff1673ffffffffffffffffffffffffffffffffffffffff168173ffffffffffffffffffffffffffffffffffffffff1614610ab5576040517f08c379a0000000000000000000000000000000000000000000000000000000008152600401610aac906120ef565b60405180910390fd5b60008054906101000a900473ffffffffffffffffffffffffffffffffffffffff1673ffffffffffffffffffffffffffffffffffffffff16631d43cc98836040518263ffffffff1660e01b8152600401610b0e919061214f565b600060405180830381600087803b158015610b2857600080fd5b505af1158015610b3c573d6000803e3d6000fd5b505050505050565b600160009054906101000a900473ffffffffffffffffffffffffffffffffffffffff1681565b60008060009054906101000a900473ffffffffffffffffffffffffffffffffffffffff1673ffffffffffffffffffffffffffffffffffffffff166370a08231306040518263ffffffff1660e01b8152600401610bc69190611e8a565b60206040518083038186803b158015610bde57600080fd5b505afa158015610bf2573d6000803e3d6000fd5b505050506040513d601f19601f82011682018060405250810190610c1691906117a6565b905090565b33600160009054906101000a900473ffffffffffffffffffffffffffffffffffffffff1673ffffffffffffffffffffffffffffffffffffffff168173ffffffffffffffffffffffffffffffffffffffff1614610cac576040517f08c379a0000000000000000000000000000000000000000000000000000000008152600401610ca3906120ef565b60405180910390fd5b6000805b600480549050811015610e1f5783604051602001610cce9190611e2d565b6040516020818303038152906040528051906020012060048281548110610cf157fe5b90600052602060002001604051602001610d0b9190611e73565b604051602081830303815290604052805190602001201415610e125760019150600384604051610d3b9190611e2d565b908152602001604051809103902060020160009054906101000a900460ff1615610d9e576000600385604051610d719190611e2d565b908152602001604051809103902060020160006101000a81548160ff021916908315150217905550610e0d565b600384604051610dae9190611e2d565b908152602001604051809103902060020160009054906101000a900460ff16610e0c576040517f08c379a0000000000000000000000000000000000000000000000000000000008152600401610e03906120af565b60405180910390fd5b5b610e1f565b8080600101915050610cb0565b5080610e60576040517f08c379a0000000000000000000000000000000000000000000000000000000008152600401610e579061210f565b60405180910390fd5b7f24ba6c881728980191398db8dcfd8ed4f6aeb1c08df349d63f3b85075f3e86dd83604051610e8f9190611f5d565b60405180910390a1505050565b33600160009054906101000a900473ffffffffffffffffffffffffffffffffffffffff1673ffffffffffffffffffffffffffffffffffffffff168173ffffffffffffffffffffffffffffffffffffffff1614610f2d576040517f08c379a0000000000000000000000000000000000000000000000000000000008152600401610f24906120ef565b60405180910390fd5b6000805b6004805490508110156110a05783604051602001610f4f9190611e2d565b6040516020818303038152906040528051906020012060048281548110610f7257fe5b90600052602060002001604051602001610f8c9190611e73565b6040516020818303038152906040528051906020012014156110935760019150600384604051610fbc9190611e2d565b908152602001604051809103902060020160009054906101000a900460ff1661101e576001600385604051610ff19190611e2d565b908152602001604051809103902060020160006101000a81548160ff02191690831515021790555061108e565b60038460405161102e9190611e2d565b908152602001604051809103902060020160009054906101000a900460ff161561108d576040517f08c379a0000000000000000000000000000000000000000000000000000000008152600401611084906120cf565b60405180910390fd5b5b6110a0565b8080600101915050610f31565b50806110e1576040517f08c379a00000000000000000000000000000000000000000000000000000000081526004016110d89061212f565b60405180910390fd5b7f93bf52a97553b4b909dc0c898ca0af225afa4b2926e6d4f002f1470287662fc1836040516111109190611f5d565b60405180910390a1505050565b60026020528060005260406000206000915090508060000154905081565b600381805160208101820180518482526020830160208501208183528095505050505050600091509050806000018054600181600116156101000203166002900480601f0160208091040260200160405190810160405280929190818152602001828054600181600116156101000203166002900480156111fd5780601f106111d2576101008083540402835291602001916111fd565b820191906000526020600020905b8154815290600101906020018083116111e057829003601f168201915b5050505050908060010154908060020160009054906101000a900460ff16905083565b60008060009054906101000a900473ffffffffffffffffffffffffffffffffffffffff1673ffffffffffffffffffffffffffffffffffffffff166370a08231336040518263ffffffff1660e01b815260040161127c9190611ea5565b60206040518083038186803b15801561129457600080fd5b505afa1580156112a8573d6000803e3d6000fd5b505050506040513d601f19601f820116820180604052508101906112cc91906117a6565b905090565b60006112dc826114b6565b905080341015611321576040517f08c379a00000000000000000000000000000000000000000000000000000000081526004016113189061206f565b60405180910390fd5b8161132a610b6a565b101561136b576040517f08c379a00000000000000000000000000000000000000000000000000000000081526004016113629061208f565b60405180910390fd5b3373ffffffffffffffffffffffffffffffffffffffff166108fc8234039081150290604051600060405180830381858888f193505050501580156113b3573d6000803e3d6000fd5b5060008054906101000a900473ffffffffffffffffffffffffffffffffffffffff1673ffffffffffffffffffffffffffffffffffffffff1663a9059cbb33846040518363ffffffff1660e01b815260040161140f929190611f12565b602060405180830381600087803b15801561142957600080fd5b505af115801561143d573d6000803e3d6000fd5b505050506040513d601f19601f8201168201806040525081019061146191906116bf565b5081600260003373ffffffffffffffffffffffffffffffffffffffff1673ffffffffffffffffffffffffffffffffffffffff168152602001908152602001600020600001600082825401925050819055505050565b6000670de0b6b3a764000082029050919050565b828054600181600116156101000203166002900490600052602060002090601f016020900481019282601f106115035780548555611540565b8280016001018555821561154057600052602060002091601f016020900482015b8281111561153f578254825591600101919060010190611524565b5b50905061154d91906115d1565b5090565b828054600181600116156101000203166002900490600052602060002090601f016020900481019282601f1061159257805160ff19168380011785556115c0565b828001600101855582156115c0579182015b828111156115bf5782518255916020019190600101906115a4565b5b5090506115cd91906115d1565b5090565b5b808211156115ea5760008160009055506001016115d2565b5090565b6000813590506115fd8161232c565b92915050565b60008151905061161281612343565b92915050565b600082601f83011261162957600080fd5b813561163c61163782612197565b61216a565b9150808252602083016020830185838301111561165857600080fd5b6116638382846122d9565b50505092915050565b60008135905061167b8161235a565b92915050565b6000815190506116908161235a565b92915050565b6000602082840312156116a857600080fd5b60006116b6848285016115ee565b91505092915050565b6000602082840312156116d157600080fd5b60006116df84828501611603565b91505092915050565b6000602082840312156116fa57600080fd5b600082013567ffffffffffffffff81111561171457600080fd5b61172084828501611618565b91505092915050565b6000806040838503121561173c57600080fd5b600083013567ffffffffffffffff81111561175657600080fd5b61176285828601611618565b92505060206117738582860161166c565b9150509250929050565b60006020828403121561178f57600080fd5b600061179d8482850161166c565b91505092915050565b6000602082840312156117b857600080fd5b60006117c684828501611681565b91505092915050565b60006117db8383611894565b905092915050565b6117ec816122a3565b82525050565b6117fb8161225b565b82525050565b61180a81612249565b82525050565b600061181b826121e8565b611825818561220b565b935083602082028501611837856121c3565b8060005b85811015611873578484038952815161185485826117cf565b945061185f836121fe565b925060208a0199505060018101905061183b565b50829750879550505050505092915050565b61188e8161226d565b82525050565b600061189f826121f3565b6118a9818561221c565b93506118b98185602086016122e8565b6118c28161231b565b840191505092915050565b60006118d8826121f3565b6118e2818561222d565b93506118f28185602086016122e8565b6118fb8161231b565b840191505092915050565b6000611911826121f3565b61191b818561223e565b935061192b8185602086016122e8565b80840191505092915050565b600081546001811660008114611954576001811461197a576119be565b607f6002830416611965818761222d565b955060ff1983168652602086019350506119be565b60028204611988818761222d565b9550611993856121d3565b60005b828110156119b557815481890152600182019150602081019050611996565b80880195505050505b505092915050565b6000815460018116600081146119e35760018114611a0857611a4c565b607f60028304166119f4818761223e565b955060ff1983168652808601935050611a4c565b60028204611a16818761223e565b9550611a21856121d3565b60005b82811015611a4357815481890152600182019150602081019050611a24565b82880195505050505b505092915050565b6000611a6160238361222d565b91507f4c6120617472616363696f6e20656e20637565737469c3b36e206e6f2065786960008301527f73746500000000000000000000000000000000000000000000000000000000006020830152604082019050919050565b6000611ac760038361223e565b91507f207c2000000000000000000000000000000000000000000000000000000000006000830152600382019050919050565b6000611b0760148361222d565b91507f546f6b656e7320696e737566696369656e7465730000000000000000000000006000830152602082019050919050565b6000611b4760338361222d565b91507f4c6120617472616363696f6e20656e206375657374696f6e206e6f207365206560008301527f6e6375656e74726120646973706f6e69626c65000000000000000000000000006020830152604082019050919050565b6000611bad601e8361222d565b91507f43616e746964616420646520657468657220696e737566696369656e746500006000830152602082019050919050565b6000611bed60208361222d565b91507f43616e746964616420646520746f6b656e7320696e737566696369656e7465736000830152602082019050919050565b6000611c2d603b8361222d565b91507f4e6f207365207075656465206461722064652062616a61206120756e6120617460008301527f72616363696f6e2071756520796120657374612064652062616a6100000000006020830152604082019050919050565b6000611c9360408361222d565b91507f4e6f2073652070756564652064617220646520616c7461206120756e6120617460008301527f72616363696f6e207175652079612065737461206461646120646520616c74616020830152604082019050919050565b6000611cf9602c8361222d565b91507f4e6f207469656e6573207065726d69736f207061726120656a6563757461722060008301527f657374612061636369c3b36e00000000000000000000000000000000000000006020830152604082019050919050565b6000611d5f60358361222d565b91507f4e6f207365207075656465206461722064652062616a61206120756e6120617460008301527f72616363696f6e20717565206e6f2065786973746100000000000000000000006020830152604082019050919050565b6000611dc560358361222d565b91507f4e6f2073652070756564652064617220646520616c7461206120756e6120617460008301527f72616363696f6e20717565206e6f2065786973746100000000000000000000006020830152604082019050919050565b611e2781612299565b82525050565b6000611e398284611906565b915081905092915050565b6000611e508285611906565b9150611e5b82611aba565b9150611e6782846119c6565b91508190509392505050565b6000611e7f82846119c6565b915081905092915050565b6000602082019050611e9f6000830184611801565b92915050565b6000602082019050611eba60008301846117e3565b92915050565b6000602082019050611ed560008301846117f2565b92915050565b6000606082019050611ef060008301866117e3565b611efd6020830185611801565b611f0a6040830184611e1e565b949350505050565b6000604082019050611f2760008301856117e3565b611f346020830184611e1e565b9392505050565b60006020820190508181036000830152611f558184611810565b905092915050565b60006020820190508181036000830152611f7781846118cd565b905092915050565b60006040820190508181036000830152611f9981856118cd565b9050611fa86020830184611e1e565b9392505050565b60006060820190508181036000830152611fc981866118cd565b9050611fd86020830185611e1e565b611fe56040830184611885565b949350505050565b600060208201905081810360008301526120078184611937565b905092915050565b6000602082019050818103600083015261202881611a54565b9050919050565b6000602082019050818103600083015261204881611afa565b9050919050565b6000602082019050818103600083015261206881611b3a565b9050919050565b6000602082019050818103600083015261208881611ba0565b9050919050565b600060208201905081810360008301526120a881611be0565b9050919050565b600060208201905081810360008301526120c881611c20565b9050919050565b600060208201905081810360008301526120e881611c86565b9050919050565b6000602082019050818103600083015261210881611cec565b9050919050565b6000602082019050818103600083015261212881611d52565b9050919050565b6000602082019050818103600083015261214881611db8565b9050919050565b60006020820190506121646000830184611e1e565b92915050565b6000604051905081810181811067ffffffffffffffff8211171561218d57600080fd5b8060405250919050565b600067ffffffffffffffff8211156121ae57600080fd5b601f19601f8301169050602081019050919050565b6000819050602082019050919050565b60008190508160005260206000209050919050565b600081519050919050565b600081519050919050565b6000602082019050919050565b600082825260208201905092915050565b600082825260208201905092915050565b600082825260208201905092915050565b600081905092915050565b600061225482612279565b9050919050565b600061226682612279565b9050919050565b60008115159050919050565b600073ffffffffffffffffffffffffffffffffffffffff82169050919050565b6000819050919050565b60006122ae826122b5565b9050919050565b60006122c0826122c7565b9050919050565b60006122d282612279565b9050919050565b82818337600083830152505050565b60005b838110156123065780820151818401526020810190506122eb565b83811115612315576000848401525b50505050565b6000601f19601f8301169050919050565b61233581612249565b811461234057600080fd5b50565b61234c8161226d565b811461235757600080fd5b50565b61236381612299565b811461236e57600080fd5b5056fea26469706673582212207def5d3bc46bc2d5c9d22a1bf14b48acb2c9130e9ccf62a001a6ec165f0d172c64736f6c634300060c0033608060405234801561001057600080fd5b5060405161109d38038061109d83398181016040528101906100329190610099565b806002819055506002546000803373ffffffffffffffffffffffffffffffffffffffff1673ffffffffffffffffffffffffffffffffffffffff16815260200190815260200160002081905550506100e3565b600081519050610093816100cc565b92915050565b6000602082840312156100ab57600080fd5b60006100b984828501610084565b91505092915050565b6000819050919050565b6100d5816100c2565b81146100e057600080fd5b50565b610fab806100f26000396000f3fe608060405234801561001057600080fd5b50600436106100a95760003560e01c8063313ce56711610071578063313ce5671461016657806370a082311461018457806395d89b41146101b4578063a9059cbb146101d2578063dd62ed3e14610202578063ef91046014610232576100a9565b806306fdde03146100ae578063095ea7b3146100cc57806318160ddd146100fc5780631d43cc981461011a57806323b872dd14610136575b600080fd5b6100b6610262565b6040516100c39190610e3a565b60405180910390f35b6100e660048036038101906100e19190610d54565b61029b565b6040516100f39190610e1f565b60405180910390f35b61010461038d565b6040516101119190610e5c565b60405180910390f35b610134600480360381019061012f9190610d90565b610397565b005b610150600480360381019061014b9190610d05565b6103f6565b60405161015d9190610e1f565b60405180910390f35b61016e610771565b60405161017b9190610e77565b60405180910390f35b61019e60048036038101906101999190610ca0565b610776565b6040516101ab9190610e5c565b60405180910390f35b6101bc6107be565b6040516101c99190610e3a565b60405180910390f35b6101ec60048036038101906101e79190610d54565b6107f7565b6040516101f99190610e1f565b60405180910390f35b61021c60048036038101906102179190610cc9565b6109d9565b6040516102299190610e5c565b60405180910390f35b61024c60048036038101906102479190610d05565b610a60565b6040516102599190610e1f565b60405180910390f35b6040518060400160405280600c81526020017f4552433230414b414c75676f000000000000000000000000000000000000000081525081565b600081600160003373ffffffffffffffffffffffffffffffffffffffff1673ffffffffffffffffffffffffffffffffffffffff16815260200190815260200160002060008573ffffffffffffffffffffffffffffffffffffffff1673ffffffffffffffffffffffffffffffffffffffff168152602001908152602001600020819055508273ffffffffffffffffffffffffffffffffffffffff163373ffffffffffffffffffffffffffffffffffffffff167f8c5be1e5ebec7d5bd14f71427d1e84f3dd0314c0f7b2291e5b200ac8c7c3b9258460405161037b9190610e5c565b60405180910390a36001905092915050565b6000600254905090565b80600260008282540192505081905550806000803373ffffffffffffffffffffffffffffffffffffffff1673ffffffffffffffffffffffffffffffffffffffff1681526020019081526020016000206000828254019250508190555050565b6000816000808673ffffffffffffffffffffffffffffffffffffffff1673ffffffffffffffffffffffffffffffffffffffff16815260200190815260200160002054101561044357600080fd5b81600160008673ffffffffffffffffffffffffffffffffffffffff1673ffffffffffffffffffffffffffffffffffffffff16815260200190815260200160002060003373ffffffffffffffffffffffffffffffffffffffff1673ffffffffffffffffffffffffffffffffffffffff1681526020019081526020016000205410156104cc57600080fd5b61051d826000808773ffffffffffffffffffffffffffffffffffffffff1673ffffffffffffffffffffffffffffffffffffffff16815260200190815260200160002054610c4390919063ffffffff16565b6000808673ffffffffffffffffffffffffffffffffffffffff1673ffffffffffffffffffffffffffffffffffffffff168152602001908152602001600020819055506105ee82600160008773ffffffffffffffffffffffffffffffffffffffff1673ffffffffffffffffffffffffffffffffffffffff16815260200190815260200160002060003373ffffffffffffffffffffffffffffffffffffffff1673ffffffffffffffffffffffffffffffffffffffff16815260200190815260200160002054610c4390919063ffffffff16565b600160008673ffffffffffffffffffffffffffffffffffffffff1673ffffffffffffffffffffffffffffffffffffffff16815260200190815260200160002060003373ffffffffffffffffffffffffffffffffffffffff1673ffffffffffffffffffffffffffffffffffffffff168152602001908152602001600020819055506106bf826000808673ffffffffffffffffffffffffffffffffffffffff1673ffffffffffffffffffffffffffffffffffffffff16815260200190815260200160002054610c5a90919063ffffffff16565b6000808573ffffffffffffffffffffffffffffffffffffffff1673ffffffffffffffffffffffffffffffffffffffff168152602001908152602001600020819055508273ffffffffffffffffffffffffffffffffffffffff168473ffffffffffffffffffffffffffffffffffffffff167fddf252ad1be2c89b69c2b068fc378daa952ba7f163c4a11628f55a4df523b3ef8460405161075e9190610e5c565b60405180910390a3600190509392505050565b601281565b60008060008373ffffffffffffffffffffffffffffffffffffffff1673ffffffffffffffffffffffffffffffffffffffff168152602001908152602001600020549050919050565b6040518060400160405280600381526020017f414b41000000000000000000000000000000000000000000000000000000000081525081565b60008060003373ffffffffffffffffffffffffffffffffffffffff1673ffffffffffffffffffffffffffffffffffffffff1681526020019081526020016000205482111561084457600080fd5b610895826000803373ffffffffffffffffffffffffffffffffffffffff1673ffffffffffffffffffffffffffffffffffffffff16815260200190815260200160002054610c4390919063ffffffff16565b6000803373ffffffffffffffffffffffffffffffffffffffff1673ffffffffffffffffffffffffffffffffffffffff16815260200190815260200160002081905550610928826000808673ffffffffffffffffffffffffffffffffffffffff1673ffffffffffffffffffffffffffffffffffffffff16815260200190815260200160002054610c5a90919063ffffffff16565b6000808573ffffffffffffffffffffffffffffffffffffffff1673ffffffffffffffffffffffffffffffffffffffff168152602001908152602001600020819055508273ffffffffffffffffffffffffffffffffffffffff163373ffffffffffffffffffffffffffffffffffffffff167fddf252ad1be2c89b69c2b068fc378daa952ba7f163c4a11628f55a4df523b3ef846040516109c79190610e5c565b60405180910390a36001905092915050565b6000600160008473ffffffffffffffffffffffffffffffffffffffff1673ffffffffffffffffffffffffffffffffffffffff16815260200190815260200160002060008373ffffffffffffffffffffffffffffffffffffffff1673ffffffffffffffffffffffffffffffffffffffff16815260200190815260200160002054905092915050565b60008060008573ffffffffffffffffffffffffffffffffffffffff1673ffffffffffffffffffffffffffffffffffffffff16815260200190815260200160002054821115610aad57600080fd5b610afe826000808773ffffffffffffffffffffffffffffffffffffffff1673ffffffffffffffffffffffffffffffffffffffff16815260200190815260200160002054610c4390919063ffffffff16565b6000808673ffffffffffffffffffffffffffffffffffffffff1673ffffffffffffffffffffffffffffffffffffffff16815260200190815260200160002081905550610b91826000808673ffffffffffffffffffffffffffffffffffffffff1673ffffffffffffffffffffffffffffffffffffffff16815260200190815260200160002054610c5a90919063ffffffff16565b6000808573ffffffffffffffffffffffffffffffffffffffff1673ffffffffffffffffffffffffffffffffffffffff168152602001908152602001600020819055508273ffffffffffffffffffffffffffffffffffffffff168473ffffffffffffffffffffffffffffffffffffffff167fddf252ad1be2c89b69c2b068fc378daa952ba7f163c4a11628f55a4df523b3ef84604051610c309190610e5c565b60405180910390a3600190509392505050565b600082821115610c4f57fe5b818303905092915050565b600080828401905083811015610c6c57fe5b8091505092915050565b600081359050610c8581610f47565b92915050565b600081359050610c9a81610f5e565b92915050565b600060208284031215610cb257600080fd5b6000610cc084828501610c76565b91505092915050565b60008060408385031215610cdc57600080fd5b6000610cea85828601610c76565b9250506020610cfb85828601610c76565b9150509250929050565b600080600060608486031215610d1a57600080fd5b6000610d2886828701610c76565b9350506020610d3986828701610c76565b9250506040610d4a86828701610c8b565b9150509250925092565b60008060408385031215610d6757600080fd5b6000610d7585828601610c76565b9250506020610d8685828601610c8b565b9150509250929050565b600060208284031215610da257600080fd5b6000610db084828501610c8b565b91505092915050565b610dc281610ec0565b82525050565b6000610dd382610e92565b610ddd8185610e9d565b9350610ded818560208601610f03565b610df681610f36565b840191505092915050565b610e0a81610eec565b82525050565b610e1981610ef6565b82525050565b6000602082019050610e346000830184610db9565b92915050565b60006020820190508181036000830152610e548184610dc8565b905092915050565b6000602082019050610e716000830184610e01565b92915050565b6000602082019050610e8c6000830184610e10565b92915050565b600081519050919050565b600082825260208201905092915050565b6000610eb982610ecc565b9050919050565b60008115159050919050565b600073ffffffffffffffffffffffffffffffffffffffff82169050919050565b6000819050919050565b600060ff82169050919050565b60005b83811015610f21578082015181840152602081019050610f06565b83811115610f30576000848401525b50505050565b6000601f19601f8301169050919050565b610f5081610eae565b8114610f5b57600080fd5b50565b610f6781610eec565b8114610f7257600080fd5b5056fea2646970667358221220532c3aa8b922c20767af62dc097402ad230508a242d27769011d941905abc92364736f6c634300060c0033",
					"opcodes": "PUSH1 0x80 PUSH1 0x40 MSTORE CALLVALUE DUP1 ISZERO PUSH3 0x11 JUMPI PUSH1 0x0 DUP1 REVERT JUMPDEST POP PUSH2 0x3E8 PUSH1 0x40 MLOAD PUSH3 0x23 SWAP1 PUSH3 0xD3 JUMP JUMPDEST PUSH3 0x2F SWAP2 SWAP1 PUSH3 0xF2 JUMP JUMPDEST PUSH1 0x40 MLOAD DUP1 SWAP2 SUB SWAP1 PUSH1 0x0 CREATE DUP1 ISZERO DUP1 ISZERO PUSH3 0x4C JUMPI RETURNDATASIZE PUSH1 0x0 DUP1 RETURNDATACOPY RETURNDATASIZE PUSH1 0x0 REVERT JUMPDEST POP PUSH1 0x0 DUP1 PUSH2 0x100 EXP DUP2 SLOAD DUP2 PUSH20 0xFFFFFFFFFFFFFFFFFFFFFFFFFFFFFFFFFFFFFFFF MUL NOT AND SWAP1 DUP4 PUSH20 0xFFFFFFFFFFFFFFFFFFFFFFFFFFFFFFFFFFFFFFFF AND MUL OR SWAP1 SSTORE POP CALLER PUSH1 0x1 PUSH1 0x0 PUSH2 0x100 EXP DUP2 SLOAD DUP2 PUSH20 0xFFFFFFFFFFFFFFFFFFFFFFFFFFFFFFFFFFFFFFFF MUL NOT AND SWAP1 DUP4 PUSH20 0xFFFFFFFFFFFFFFFFFFFFFFFFFFFFFFFFFFFFFFFF AND MUL OR SWAP1 SSTORE POP PUSH3 0x12D JUMP JUMPDEST PUSH2 0x109D DUP1 PUSH3 0x24E4 DUP4 CODECOPY ADD SWAP1 JUMP JUMPDEST PUSH3 0xEC DUP2 PUSH3 0x119 JUMP JUMPDEST DUP3 MSTORE POP POP JUMP JUMPDEST PUSH1 0x0 PUSH1 0x20 DUP3 ADD SWAP1 POP PUSH3 0x109 PUSH1 0x0 DUP4 ADD DUP5 PUSH3 0xE1 JUMP JUMPDEST SWAP3 SWAP2 POP POP JUMP JUMPDEST PUSH1 0x0 DUP2 SWAP1 POP SWAP2 SWAP1 POP JUMP JUMPDEST PUSH1 0x0 PUSH3 0x126 DUP3 PUSH3 0x10F JUMP JUMPDEST SWAP1 POP SWAP2 SWAP1 POP JUMP JUMPDEST PUSH2 0x23A7 DUP1 PUSH3 0x13D PUSH1 0x0 CODECOPY PUSH1 0x0 RETURN INVALID PUSH1 0x80 PUSH1 0x40 MSTORE PUSH1 0x4 CALLDATASIZE LT PUSH2 0xC2 JUMPI PUSH1 0x0 CALLDATALOAD PUSH1 0xE0 SHR DUP1 PUSH4 0x9A3174A0 GT PUSH2 0x7F JUMPI DUP1 PUSH4 0xCE8F2F38 GT PUSH2 0x59 JUMPI DUP1 PUSH4 0xCE8F2F38 EQ PUSH2 0x240 JUMPI DUP1 PUSH4 0xD00DF296 EQ PUSH2 0x27D JUMPI DUP1 PUSH4 0xE33F34A0 EQ PUSH2 0x2BC JUMPI DUP1 PUSH4 0xF7774091 EQ PUSH2 0x2E7 JUMPI PUSH2 0xC2 JUMP JUMPDEST DUP1 PUSH4 0x9A3174A0 EQ PUSH2 0x1C3 JUMPI DUP1 PUSH4 0xA2094159 EQ PUSH2 0x1EE JUMPI DUP1 PUSH4 0xA9862FAB EQ PUSH2 0x217 JUMPI PUSH2 0xC2 JUMP JUMPDEST DUP1 PUSH4 0x12B91846 EQ PUSH2 0xC7 JUMPI DUP1 PUSH4 0x1FCCB33C EQ PUSH2 0xF0 JUMPI DUP1 PUSH4 0x2076B56C EQ PUSH2 0x11B JUMPI DUP1 PUSH4 0x6B8F8E15 EQ PUSH2 0x144 JUMPI DUP1 PUSH4 0x7C1B38BF EQ PUSH2 0x16F JUMPI DUP1 PUSH4 0x8DA5CB5B EQ PUSH2 0x198 JUMPI JUMPDEST PUSH1 0x0 DUP1 REVERT JUMPDEST CALLVALUE DUP1 ISZERO PUSH2 0xD3 JUMPI PUSH1 0x0 DUP1 REVERT JUMPDEST POP PUSH2 0xEE PUSH1 0x4 DUP1 CALLDATASIZE SUB DUP2 ADD SWAP1 PUSH2 0xE9 SWAP2 SWAP1 PUSH2 0x16E8 JUMP JUMPDEST PUSH2 0x303 JUMP JUMPDEST STOP JUMPDEST CALLVALUE DUP1 ISZERO PUSH2 0xFC JUMPI PUSH1 0x0 DUP1 REVERT JUMPDEST POP PUSH2 0x105 PUSH2 0x6C0 JUMP JUMPDEST PUSH1 0x40 MLOAD PUSH2 0x112 SWAP2 SWAP1 PUSH2 0x1F5D JUMP JUMPDEST PUSH1 0x40 MLOAD DUP1 SWAP2 SUB SWAP1 RETURN JUMPDEST CALLVALUE DUP1 ISZERO PUSH2 0x127 JUMPI PUSH1 0x0 DUP1 REVERT JUMPDEST POP PUSH2 0x142 PUSH1 0x4 DUP1 CALLDATASIZE SUB DUP2 ADD SWAP1 PUSH2 0x13D SWAP2 SWAP1 PUSH2 0x1729 JUMP JUMPDEST PUSH2 0x76D JUMP JUMPDEST STOP JUMPDEST CALLVALUE DUP1 ISZERO PUSH2 0x150 JUMPI PUSH1 0x0 DUP1 REVERT JUMPDEST POP PUSH2 0x159 PUSH2 0x8FE JUMP JUMPDEST PUSH1 0x40 MLOAD PUSH2 0x166 SWAP2 SWAP1 PUSH2 0x1F3B JUMP JUMPDEST PUSH1 0x40 MLOAD DUP1 SWAP2 SUB SWAP1 RETURN JUMPDEST CALLVALUE DUP1 ISZERO PUSH2 0x17B JUMPI PUSH1 0x0 DUP1 REVERT JUMPDEST POP PUSH2 0x196 PUSH1 0x4 DUP1 CALLDATASIZE SUB DUP2 ADD SWAP1 PUSH2 0x191 SWAP2 SWAP1 PUSH2 0x177D JUMP JUMPDEST PUSH2 0xA24 JUMP JUMPDEST STOP JUMPDEST CALLVALUE DUP1 ISZERO PUSH2 0x1A4 JUMPI PUSH1 0x0 DUP1 REVERT JUMPDEST POP PUSH2 0x1AD PUSH2 0xB44 JUMP JUMPDEST PUSH1 0x40 MLOAD PUSH2 0x1BA SWAP2 SWAP1 PUSH2 0x1EC0 JUMP JUMPDEST PUSH1 0x40 MLOAD DUP1 SWAP2 SUB SWAP1 RETURN JUMPDEST CALLVALUE DUP1 ISZERO PUSH2 0x1CF JUMPI PUSH1 0x0 DUP1 REVERT JUMPDEST POP PUSH2 0x1D8 PUSH2 0xB6A JUMP JUMPDEST PUSH1 0x40 MLOAD PUSH2 0x1E5 SWAP2 SWAP1 PUSH2 0x214F JUMP JUMPDEST PUSH1 0x40 MLOAD DUP1 SWAP2 SUB SWAP1 RETURN JUMPDEST CALLVALUE DUP1 ISZERO PUSH2 0x1FA JUMPI PUSH1 0x0 DUP1 REVERT JUMPDEST POP PUSH2 0x215 PUSH1 0x4 DUP1 CALLDATASIZE SUB DUP2 ADD SWAP1 PUSH2 0x210 SWAP2 SWAP1 PUSH2 0x16E8 JUMP JUMPDEST PUSH2 0xC1B JUMP JUMPDEST STOP JUMPDEST CALLVALUE DUP1 ISZERO PUSH2 0x223 JUMPI PUSH1 0x0 DUP1 REVERT JUMPDEST POP PUSH2 0x23E PUSH1 0x4 DUP1 CALLDATASIZE SUB DUP2 ADD SWAP1 PUSH2 0x239 SWAP2 SWAP1 PUSH2 0x16E8 JUMP JUMPDEST PUSH2 0xE9C JUMP JUMPDEST STOP JUMPDEST CALLVALUE DUP1 ISZERO PUSH2 0x24C JUMPI PUSH1 0x0 DUP1 REVERT JUMPDEST POP PUSH2 0x267 PUSH1 0x4 DUP1 CALLDATASIZE SUB DUP2 ADD SWAP1 PUSH2 0x262 SWAP2 SWAP1 PUSH2 0x1696 JUMP JUMPDEST PUSH2 0x111D JUMP JUMPDEST PUSH1 0x40 MLOAD PUSH2 0x274 SWAP2 SWAP1 PUSH2 0x214F JUMP JUMPDEST PUSH1 0x40 MLOAD DUP1 SWAP2 SUB SWAP1 RETURN JUMPDEST CALLVALUE DUP1 ISZERO PUSH2 0x289 JUMPI PUSH1 0x0 DUP1 REVERT JUMPDEST POP PUSH2 0x2A4 PUSH1 0x4 DUP1 CALLDATASIZE SUB DUP2 ADD SWAP1 PUSH2 0x29F SWAP2 SWAP1 PUSH2 0x16E8 JUMP JUMPDEST PUSH2 0x113B JUMP JUMPDEST PUSH1 0x40 MLOAD PUSH2 0x2B3 SWAP4 SWAP3 SWAP2 SWAP1 PUSH2 0x1FAF JUMP JUMPDEST PUSH1 0x40 MLOAD DUP1 SWAP2 SUB SWAP1 RETURN JUMPDEST CALLVALUE DUP1 ISZERO PUSH2 0x2C8 JUMPI PUSH1 0x0 DUP1 REVERT JUMPDEST POP PUSH2 0x2D1 PUSH2 0x1220 JUMP JUMPDEST PUSH1 0x40 MLOAD PUSH2 0x2DE SWAP2 SWAP1 PUSH2 0x214F JUMP JUMPDEST PUSH1 0x40 MLOAD DUP1 SWAP2 SUB SWAP1 RETURN JUMPDEST PUSH2 0x301 PUSH1 0x4 DUP1 CALLDATASIZE SUB DUP2 ADD SWAP1 PUSH2 0x2FC SWAP2 SWAP1 PUSH2 0x177D JUMP JUMPDEST PUSH2 0x12D1 JUMP JUMPDEST STOP JUMPDEST PUSH1 0x0 DUP1 PUSH1 0x0 JUMPDEST PUSH1 0x4 DUP1 SLOAD SWAP1 POP DUP2 LT ISZERO PUSH2 0x67A JUMPI DUP4 PUSH1 0x40 MLOAD PUSH1 0x20 ADD PUSH2 0x327 SWAP2 SWAP1 PUSH2 0x1E2D JUMP JUMPDEST PUSH1 0x40 MLOAD PUSH1 0x20 DUP2 DUP4 SUB SUB DUP2 MSTORE SWAP1 PUSH1 0x40 MSTORE DUP1 MLOAD SWAP1 PUSH1 0x20 ADD KECCAK256 PUSH1 0x4 DUP3 DUP2 SLOAD DUP2 LT PUSH2 0x34A JUMPI INVALID JUMPDEST SWAP1 PUSH1 0x0 MSTORE PUSH1 0x20 PUSH1 0x0 KECCAK256 ADD PUSH1 0x40 MLOAD PUSH1 0x20 ADD PUSH2 0x364 SWAP2 SWAP1 PUSH2 0x1E73 JUMP JUMPDEST PUSH1 0x40 MLOAD PUSH1 0x20 DUP2 DUP4 SUB SUB DUP2 MSTORE SWAP1 PUSH1 0x40 MSTORE DUP1 MLOAD SWAP1 PUSH1 0x20 ADD KECCAK256 EQ ISZERO PUSH2 0x66D JUMPI PUSH1 0x1 SWAP3 POP PUSH1 0x3 PUSH1 0x4 DUP3 DUP2 SLOAD DUP2 LT PUSH2 0x393 JUMPI INVALID JUMPDEST SWAP1 PUSH1 0x0 MSTORE PUSH1 0x20 PUSH1 0x0 KECCAK256 ADD PUSH1 0x40 MLOAD PUSH2 0x3AA SWAP2 SWAP1 PUSH2 0x1E73 JUMP JUMPDEST SWAP1 DUP2 MSTORE PUSH1 0x20 ADD PUSH1 0x40 MLOAD DUP1 SWAP2 SUB SWAP1 KECCAK256 PUSH1 0x2 ADD PUSH1 0x0 SWAP1 SLOAD SWAP1 PUSH2 0x100 EXP SWAP1 DIV PUSH1 0xFF AND ISZERO PUSH2 0x627 JUMPI PUSH1 0x1 SWAP2 POP PUSH2 0x3DA PUSH2 0x1220 JUMP JUMPDEST PUSH1 0x3 PUSH1 0x4 DUP4 DUP2 SLOAD DUP2 LT PUSH2 0x3E9 JUMPI INVALID JUMPDEST SWAP1 PUSH1 0x0 MSTORE PUSH1 0x20 PUSH1 0x0 KECCAK256 ADD PUSH1 0x40 MLOAD PUSH2 0x400 SWAP2 SWAP1 PUSH2 0x1E73 JUMP JUMPDEST SWAP1 DUP2 MSTORE PUSH1 0x20 ADD PUSH1 0x40 MLOAD DUP1 SWAP2 SUB SWAP1 KECCAK256 PUSH1 0x1 ADD SLOAD GT ISZERO PUSH2 0x453 JUMPI PUSH1 0x40 MLOAD PUSH32 0x8C379A000000000000000000000000000000000000000000000000000000000 DUP2 MSTORE PUSH1 0x4 ADD PUSH2 0x44A SWAP1 PUSH2 0x202F JUMP JUMPDEST PUSH1 0x40 MLOAD DUP1 SWAP2 SUB SWAP1 REVERT JUMPDEST PUSH1 0x0 DUP1 SLOAD SWAP1 PUSH2 0x100 EXP SWAP1 DIV PUSH20 0xFFFFFFFFFFFFFFFFFFFFFFFFFFFFFFFFFFFFFFFF AND PUSH20 0xFFFFFFFFFFFFFFFFFFFFFFFFFFFFFFFFFFFFFFFF AND PUSH4 0xEF910460 CALLER ADDRESS PUSH1 0x3 PUSH1 0x4 DUP7 DUP2 SLOAD DUP2 LT PUSH2 0x4A0 JUMPI INVALID JUMPDEST SWAP1 PUSH1 0x0 MSTORE PUSH1 0x20 PUSH1 0x0 KECCAK256 ADD PUSH1 0x40 MLOAD PUSH2 0x4B7 SWAP2 SWAP1 PUSH2 0x1E73 JUMP JUMPDEST SWAP1 DUP2 MSTORE PUSH1 0x20 ADD PUSH1 0x40 MLOAD DUP1 SWAP2 SUB SWAP1 KECCAK256 PUSH1 0x1 ADD SLOAD PUSH1 0x40 MLOAD DUP5 PUSH4 0xFFFFFFFF AND PUSH1 0xE0 SHL DUP2 MSTORE PUSH1 0x4 ADD PUSH2 0x4E7 SWAP4 SWAP3 SWAP2 SWAP1 PUSH2 0x1EDB JUMP JUMPDEST PUSH1 0x20 PUSH1 0x40 MLOAD DUP1 DUP4 SUB DUP2 PUSH1 0x0 DUP8 DUP1 EXTCODESIZE ISZERO DUP1 ISZERO PUSH2 0x501 JUMPI PUSH1 0x0 DUP1 REVERT JUMPDEST POP GAS CALL ISZERO DUP1 ISZERO PUSH2 0x515 JUMPI RETURNDATASIZE PUSH1 0x0 DUP1 RETURNDATACOPY RETURNDATASIZE PUSH1 0x0 REVERT JUMPDEST POP POP POP POP PUSH1 0x40 MLOAD RETURNDATASIZE PUSH1 0x1F NOT PUSH1 0x1F DUP3 ADD AND DUP3 ADD DUP1 PUSH1 0x40 MSTORE POP DUP2 ADD SWAP1 PUSH2 0x539 SWAP2 SWAP1 PUSH2 0x16BF JUMP JUMPDEST POP PUSH1 0x5 PUSH1 0x0 CALLER PUSH20 0xFFFFFFFFFFFFFFFFFFFFFFFFFFFFFFFFFFFFFFFF AND PUSH20 0xFFFFFFFFFFFFFFFFFFFFFFFFFFFFFFFFFFFFFFFF AND DUP2 MSTORE PUSH1 0x20 ADD SWAP1 DUP2 MSTORE PUSH1 0x20 ADD PUSH1 0x0 KECCAK256 PUSH1 0x4 DUP3 DUP2 SLOAD DUP2 LT PUSH2 0x586 JUMPI INVALID JUMPDEST SWAP1 PUSH1 0x0 MSTORE PUSH1 0x20 PUSH1 0x0 KECCAK256 ADD SWAP1 DUP1 PUSH1 0x1 DUP2 SLOAD ADD DUP1 DUP3 SSTORE DUP1 SWAP2 POP POP PUSH1 0x1 SWAP1 SUB SWAP1 PUSH1 0x0 MSTORE PUSH1 0x20 PUSH1 0x0 KECCAK256 ADD PUSH1 0x0 SWAP1 SWAP2 SWAP1 SWAP2 SWAP1 SWAP2 POP SWAP1 DUP1 SLOAD PUSH1 0x1 DUP2 PUSH1 0x1 AND ISZERO PUSH2 0x100 MUL SUB AND PUSH1 0x2 SWAP1 DIV PUSH2 0x5D4 SWAP3 SWAP2 SWAP1 PUSH2 0x14CA JUMP JUMPDEST POP PUSH32 0xC13B0C39E701B0F41DDE2E972F3E98E53FA01E6BC45EF606DDC7522A8E354F2D PUSH1 0x4 DUP3 DUP2 SLOAD DUP2 LT PUSH2 0x603 JUMPI INVALID JUMPDEST SWAP1 PUSH1 0x0 MSTORE PUSH1 0x20 PUSH1 0x0 KECCAK256 ADD PUSH1 0x40 MLOAD PUSH2 0x61A SWAP2 SWAP1 PUSH2 0x1FED JUMP JUMPDEST PUSH1 0x40 MLOAD DUP1 SWAP2 SUB SWAP1 LOG1 PUSH2 0x668 JUMP JUMPDEST DUP2 PUSH2 0x667 JUMPI PUSH1 0x40 MLOAD PUSH32 0x8C379A000000000000000000000000000000000000000000000000000000000 DUP2 MSTORE PUSH1 0x4 ADD PUSH2 0x65E SWAP1 PUSH2 0x204F JUMP JUMPDEST PUSH1 0x40 MLOAD DUP1 SWAP2 SUB SWAP1 REVERT JUMPDEST JUMPDEST PUSH2 0x67A JUMP JUMPDEST DUP1 DUP1 PUSH1 0x1 ADD SWAP2 POP POP PUSH2 0x309 JUMP JUMPDEST POP DUP2 PUSH2 0x6BB JUMPI PUSH1 0x40 MLOAD PUSH32 0x8C379A000000000000000000000000000000000000000000000000000000000 DUP2 MSTORE PUSH1 0x4 ADD PUSH2 0x6B2 SWAP1 PUSH2 0x200F JUMP JUMPDEST PUSH1 0x40 MLOAD DUP1 SWAP2 SUB SWAP1 REVERT JUMPDEST POP POP POP JUMP JUMPDEST PUSH1 0x60 DUP1 PUSH1 0x0 JUMPDEST PUSH1 0x4 DUP1 SLOAD SWAP1 POP DUP2 LT ISZERO PUSH2 0x765 JUMPI PUSH1 0x3 PUSH1 0x4 DUP3 DUP2 SLOAD DUP2 LT PUSH2 0x6E2 JUMPI INVALID JUMPDEST SWAP1 PUSH1 0x0 MSTORE PUSH1 0x20 PUSH1 0x0 KECCAK256 ADD PUSH1 0x40 MLOAD PUSH2 0x6F9 SWAP2 SWAP1 PUSH2 0x1E73 JUMP JUMPDEST SWAP1 DUP2 MSTORE PUSH1 0x20 ADD PUSH1 0x40 MLOAD DUP1 SWAP2 SUB SWAP1 KECCAK256 PUSH1 0x2 ADD PUSH1 0x0 SWAP1 SLOAD SWAP1 PUSH2 0x100 EXP SWAP1 DIV PUSH1 0xFF AND ISZERO PUSH2 0x758 JUMPI DUP2 PUSH1 0x4 DUP3 DUP2 SLOAD DUP2 LT PUSH2 0x72B JUMPI INVALID JUMPDEST SWAP1 PUSH1 0x0 MSTORE PUSH1 0x20 PUSH1 0x0 KECCAK256 ADD PUSH1 0x40 MLOAD PUSH1 0x20 ADD PUSH2 0x746 SWAP3 SWAP2 SWAP1 PUSH2 0x1E44 JUMP JUMPDEST PUSH1 0x40 MLOAD PUSH1 0x20 DUP2 DUP4 SUB SUB DUP2 MSTORE SWAP1 PUSH1 0x40 MSTORE SWAP2 POP JUMPDEST DUP1 DUP1 PUSH1 0x1 ADD SWAP2 POP POP PUSH2 0x6C6 JUMP JUMPDEST POP DUP1 SWAP2 POP POP SWAP1 JUMP JUMPDEST CALLER PUSH1 0x1 PUSH1 0x0 SWAP1 SLOAD SWAP1 PUSH2 0x100 EXP SWAP1 DIV PUSH20 0xFFFFFFFFFFFFFFFFFFFFFFFFFFFFFFFFFFFFFFFF AND PUSH20 0xFFFFFFFFFFFFFFFFFFFFFFFFFFFFFFFFFFFFFFFF AND DUP2 PUSH20 0xFFFFFFFFFFFFFFFFFFFFFFFFFFFFFFFFFFFFFFFF AND EQ PUSH2 0x7FE JUMPI PUSH1 0x40 MLOAD PUSH32 0x8C379A000000000000000000000000000000000000000000000000000000000 DUP2 MSTORE PUSH1 0x4 ADD PUSH2 0x7F5 SWAP1 PUSH2 0x20EF JUMP JUMPDEST PUSH1 0x40 MLOAD DUP1 SWAP2 SUB SWAP1 REVERT JUMPDEST PUSH1 0x40 MLOAD DUP1 PUSH1 0x60 ADD PUSH1 0x40 MSTORE DUP1 DUP5 DUP2 MSTORE PUSH1 0x20 ADD DUP4 DUP2 MSTORE PUSH1 0x20 ADD PUSH1 0x1 ISZERO ISZERO DUP2 MSTORE POP PUSH1 0x3 DUP5 PUSH1 0x40 MLOAD PUSH2 0x82C SWAP2 SWAP1 PUSH2 0x1E2D JUMP JUMPDEST SWAP1 DUP2 MSTORE PUSH1 0x20 ADD PUSH1 0x40 MLOAD DUP1 SWAP2 SUB SWAP1 KECCAK256 PUSH1 0x0 DUP3 ADD MLOAD DUP2 PUSH1 0x0 ADD SWAP1 DUP1 MLOAD SWAP1 PUSH1 0x20 ADD SWAP1 PUSH2 0x856 SWAP3 SWAP2 SWAP1 PUSH2 0x1551 JUMP JUMPDEST POP PUSH1 0x20 DUP3 ADD MLOAD DUP2 PUSH1 0x1 ADD SSTORE PUSH1 0x40 DUP3 ADD MLOAD DUP2 PUSH1 0x2 ADD PUSH1 0x0 PUSH2 0x100 EXP DUP2 SLOAD DUP2 PUSH1 0xFF MUL NOT AND SWAP1 DUP4 ISZERO ISZERO MUL OR SWAP1 SSTORE POP SWAP1 POP POP PUSH1 0x4 DUP4 SWAP1 DUP1 PUSH1 0x1 DUP2 SLOAD ADD DUP1 DUP3 SSTORE DUP1 SWAP2 POP POP PUSH1 0x1 SWAP1 SUB SWAP1 PUSH1 0x0 MSTORE PUSH1 0x20 PUSH1 0x0 KECCAK256 ADD PUSH1 0x0 SWAP1 SWAP2 SWAP1 SWAP2 SWAP1 SWAP2 POP SWAP1 DUP1 MLOAD SWAP1 PUSH1 0x20 ADD SWAP1 PUSH2 0x8BF SWAP3 SWAP2 SWAP1 PUSH2 0x1551 JUMP JUMPDEST POP PUSH32 0xFC9ECD7A6C2CA96D38526A0B9CC22F2474FF8E596DD348EDAAB06BE905EBE378 DUP4 DUP4 PUSH1 0x40 MLOAD PUSH2 0x8F1 SWAP3 SWAP2 SWAP1 PUSH2 0x1F7F JUMP JUMPDEST PUSH1 0x40 MLOAD DUP1 SWAP2 SUB SWAP1 LOG1 POP POP POP JUMP JUMPDEST PUSH1 0x60 PUSH1 0x5 PUSH1 0x0 CALLER PUSH20 0xFFFFFFFFFFFFFFFFFFFFFFFFFFFFFFFFFFFFFFFF AND PUSH20 0xFFFFFFFFFFFFFFFFFFFFFFFFFFFFFFFFFFFFFFFF AND DUP2 MSTORE PUSH1 0x20 ADD SWAP1 DUP2 MSTORE PUSH1 0x20 ADD PUSH1 0x0 KECCAK256 DUP1 SLOAD DUP1 PUSH1 0x20 MUL PUSH1 0x20 ADD PUSH1 0x40 MLOAD SWAP1 DUP2 ADD PUSH1 0x40 MSTORE DUP1 SWAP3 SWAP2 SWAP1 DUP2 DUP2 MSTORE PUSH1 0x20 ADD PUSH1 0x0 SWAP1 JUMPDEST DUP3 DUP3 LT ISZERO PUSH2 0xA1B JUMPI DUP4 DUP3 SWAP1 PUSH1 0x0 MSTORE PUSH1 0x20 PUSH1 0x0 KECCAK256 ADD DUP1 SLOAD PUSH1 0x1 DUP2 PUSH1 0x1 AND ISZERO PUSH2 0x100 MUL SUB AND PUSH1 0x2 SWAP1 DIV DUP1 PUSH1 0x1F ADD PUSH1 0x20 DUP1 SWAP2 DIV MUL PUSH1 0x20 ADD PUSH1 0x40 MLOAD SWAP1 DUP2 ADD PUSH1 0x40 MSTORE DUP1 SWAP3 SWAP2 SWAP1 DUP2 DUP2 MSTORE PUSH1 0x20 ADD DUP3 DUP1 SLOAD PUSH1 0x1 DUP2 PUSH1 0x1 AND ISZERO PUSH2 0x100 MUL SUB AND PUSH1 0x2 SWAP1 DIV DUP1 ISZERO PUSH2 0xA07 JUMPI DUP1 PUSH1 0x1F LT PUSH2 0x9DC JUMPI PUSH2 0x100 DUP1 DUP4 SLOAD DIV MUL DUP4 MSTORE SWAP2 PUSH1 0x20 ADD SWAP2 PUSH2 0xA07 JUMP JUMPDEST DUP3 ADD SWAP2 SWAP1 PUSH1 0x0 MSTORE PUSH1 0x20 PUSH1 0x0 KECCAK256 SWAP1 JUMPDEST DUP2 SLOAD DUP2 MSTORE SWAP1 PUSH1 0x1 ADD SWAP1 PUSH1 0x20 ADD DUP1 DUP4 GT PUSH2 0x9EA JUMPI DUP3 SWAP1 SUB PUSH1 0x1F AND DUP3 ADD SWAP2 JUMPDEST POP POP POP POP POP DUP2 MSTORE PUSH1 0x20 ADD SWAP1 PUSH1 0x1 ADD SWAP1 PUSH2 0x95F JUMP JUMPDEST POP POP POP POP SWAP1 POP SWAP1 JUMP JUMPDEST CALLER PUSH1 0x1 PUSH1 0x0 SWAP1 SLOAD SWAP1 PUSH2 0x100 EXP SWAP1 DIV PUSH20 0xFFFFFFFFFFFFFFFFFFFFFFFFFFFFFFFFFFFFFFFF AND PUSH20 0xFFFFFFFFFFFFFFFFFFFFFFFFFFFFFFFFFFFFFFFF AND DUP2 PUSH20 0xFFFFFFFFFFFFFFFFFFFFFFFFFFFFFFFFFFFFFFFF AND EQ PUSH2 0xAB5 JUMPI PUSH1 0x40 MLOAD PUSH32 0x8C379A000000000000000000000000000000000000000000000000000000000 DUP2 MSTORE PUSH1 0x4 ADD PUSH2 0xAAC SWAP1 PUSH2 0x20EF JUMP JUMPDEST PUSH1 0x40 MLOAD DUP1 SWAP2 SUB SWAP1 REVERT JUMPDEST PUSH1 0x0 DUP1 SLOAD SWAP1 PUSH2 0x100 EXP SWAP1 DIV PUSH20 0xFFFFFFFFFFFFFFFFFFFFFFFFFFFFFFFFFFFFFFFF AND PUSH20 0xFFFFFFFFFFFFFFFFFFFFFFFFFFFFFFFFFFFFFFFF AND PUSH4 0x1D43CC98 DUP4 PUSH1 0x40 MLOAD DUP3 PUSH4 0xFFFFFFFF AND PUSH1 0xE0 SHL DUP2 MSTORE PUSH1 0x4 ADD PUSH2 0xB0E SWAP2 SWAP1 PUSH2 0x214F JUMP JUMPDEST PUSH1 0x0 PUSH1 0x40 MLOAD DUP1 DUP4 SUB DUP2 PUSH1 0x0 DUP8 DUP1 EXTCODESIZE ISZERO DUP1 ISZERO PUSH2 0xB28 JUMPI PUSH1 0x0 DUP1 REVERT JUMPDEST POP GAS CALL ISZERO DUP1 ISZERO PUSH2 0xB3C JUMPI RETURNDATASIZE PUSH1 0x0 DUP1 RETURNDATACOPY RETURNDATASIZE PUSH1 0x0 REVERT JUMPDEST POP POP POP POP POP POP JUMP JUMPDEST PUSH1 0x1 PUSH1 0x0 SWAP1 SLOAD SWAP1 PUSH2 0x100 EXP SWAP1 DIV PUSH20 0xFFFFFFFFFFFFFFFFFFFFFFFFFFFFFFFFFFFFFFFF AND DUP2 JUMP JUMPDEST PUSH1 0x0 DUP1 PUSH1 0x0 SWAP1 SLOAD SWAP1 PUSH2 0x100 EXP SWAP1 DIV PUSH20 0xFFFFFFFFFFFFFFFFFFFFFFFFFFFFFFFFFFFFFFFF AND PUSH20 0xFFFFFFFFFFFFFFFFFFFFFFFFFFFFFFFFFFFFFFFF AND PUSH4 0x70A08231 ADDRESS PUSH1 0x40 MLOAD DUP3 PUSH4 0xFFFFFFFF AND PUSH1 0xE0 SHL DUP2 MSTORE PUSH1 0x4 ADD PUSH2 0xBC6 SWAP2 SWAP1 PUSH2 0x1E8A JUMP JUMPDEST PUSH1 0x20 PUSH1 0x40 MLOAD DUP1 DUP4 SUB DUP2 DUP7 DUP1 EXTCODESIZE ISZERO DUP1 ISZERO PUSH2 0xBDE JUMPI PUSH1 0x0 DUP1 REVERT JUMPDEST POP GAS STATICCALL ISZERO DUP1 ISZERO PUSH2 0xBF2 JUMPI RETURNDATASIZE PUSH1 0x0 DUP1 RETURNDATACOPY RETURNDATASIZE PUSH1 0x0 REVERT JUMPDEST POP POP POP POP PUSH1 0x40 MLOAD RETURNDATASIZE PUSH1 0x1F NOT PUSH1 0x1F DUP3 ADD AND DUP3 ADD DUP1 PUSH1 0x40 MSTORE POP DUP2 ADD SWAP1 PUSH2 0xC16 SWAP2 SWAP1 PUSH2 0x17A6 JUMP JUMPDEST SWAP1 POP SWAP1 JUMP JUMPDEST CALLER PUSH1 0x1 PUSH1 0x0 SWAP1 SLOAD SWAP1 PUSH2 0x100 EXP SWAP1 DIV PUSH20 0xFFFFFFFFFFFFFFFFFFFFFFFFFFFFFFFFFFFFFFFF AND PUSH20 0xFFFFFFFFFFFFFFFFFFFFFFFFFFFFFFFFFFFFFFFF AND DUP2 PUSH20 0xFFFFFFFFFFFFFFFFFFFFFFFFFFFFFFFFFFFFFFFF AND EQ PUSH2 0xCAC JUMPI PUSH1 0x40 MLOAD PUSH32 0x8C379A000000000000000000000000000000000000000000000000000000000 DUP2 MSTORE PUSH1 0x4 ADD PUSH2 0xCA3 SWAP1 PUSH2 0x20EF JUMP JUMPDEST PUSH1 0x40 MLOAD DUP1 SWAP2 SUB SWAP1 REVERT JUMPDEST PUSH1 0x0 DUP1 JUMPDEST PUSH1 0x4 DUP1 SLOAD SWAP1 POP DUP2 LT ISZERO PUSH2 0xE1F JUMPI DUP4 PUSH1 0x40 MLOAD PUSH1 0x20 ADD PUSH2 0xCCE SWAP2 SWAP1 PUSH2 0x1E2D JUMP JUMPDEST PUSH1 0x40 MLOAD PUSH1 0x20 DUP2 DUP4 SUB SUB DUP2 MSTORE SWAP1 PUSH1 0x40 MSTORE DUP1 MLOAD SWAP1 PUSH1 0x20 ADD KECCAK256 PUSH1 0x4 DUP3 DUP2 SLOAD DUP2 LT PUSH2 0xCF1 JUMPI INVALID JUMPDEST SWAP1 PUSH1 0x0 MSTORE PUSH1 0x20 PUSH1 0x0 KECCAK256 ADD PUSH1 0x40 MLOAD PUSH1 0x20 ADD PUSH2 0xD0B SWAP2 SWAP1 PUSH2 0x1E73 JUMP JUMPDEST PUSH1 0x40 MLOAD PUSH1 0x20 DUP2 DUP4 SUB SUB DUP2 MSTORE SWAP1 PUSH1 0x40 MSTORE DUP1 MLOAD SWAP1 PUSH1 0x20 ADD KECCAK256 EQ ISZERO PUSH2 0xE12 JUMPI PUSH1 0x1 SWAP2 POP PUSH1 0x3 DUP5 PUSH1 0x40 MLOAD PUSH2 0xD3B SWAP2 SWAP1 PUSH2 0x1E2D JUMP JUMPDEST SWAP1 DUP2 MSTORE PUSH1 0x20 ADD PUSH1 0x40 MLOAD DUP1 SWAP2 SUB SWAP1 KECCAK256 PUSH1 0x2 ADD PUSH1 0x0 SWAP1 SLOAD SWAP1 PUSH2 0x100 EXP SWAP1 DIV PUSH1 0xFF AND ISZERO PUSH2 0xD9E JUMPI PUSH1 0x0 PUSH1 0x3 DUP6 PUSH1 0x40 MLOAD PUSH2 0xD71 SWAP2 SWAP1 PUSH2 0x1E2D JUMP JUMPDEST SWAP1 DUP2 MSTORE PUSH1 0x20 ADD PUSH1 0x40 MLOAD DUP1 SWAP2 SUB SWAP1 KECCAK256 PUSH1 0x2 ADD PUSH1 0x0 PUSH2 0x100 EXP DUP2 SLOAD DUP2 PUSH1 0xFF MUL NOT AND SWAP1 DUP4 ISZERO ISZERO MUL OR SWAP1 SSTORE POP PUSH2 0xE0D JUMP JUMPDEST PUSH1 0x3 DUP5 PUSH1 0x40 MLOAD PUSH2 0xDAE SWAP2 SWAP1 PUSH2 0x1E2D JUMP JUMPDEST SWAP1 DUP2 MSTORE PUSH1 0x20 ADD PUSH1 0x40 MLOAD DUP1 SWAP2 SUB SWAP1 KECCAK256 PUSH1 0x2 ADD PUSH1 0x0 SWAP1 SLOAD SWAP1 PUSH2 0x100 EXP SWAP1 DIV PUSH1 0xFF AND PUSH2 0xE0C JUMPI PUSH1 0x40 MLOAD PUSH32 0x8C379A000000000000000000000000000000000000000000000000000000000 DUP2 MSTORE PUSH1 0x4 ADD PUSH2 0xE03 SWAP1 PUSH2 0x20AF JUMP JUMPDEST PUSH1 0x40 MLOAD DUP1 SWAP2 SUB SWAP1 REVERT JUMPDEST JUMPDEST PUSH2 0xE1F JUMP JUMPDEST DUP1 DUP1 PUSH1 0x1 ADD SWAP2 POP POP PUSH2 0xCB0 JUMP JUMPDEST POP DUP1 PUSH2 0xE60 JUMPI PUSH1 0x40 MLOAD PUSH32 0x8C379A000000000000000000000000000000000000000000000000000000000 DUP2 MSTORE PUSH1 0x4 ADD PUSH2 0xE57 SWAP1 PUSH2 0x210F JUMP JUMPDEST PUSH1 0x40 MLOAD DUP1 SWAP2 SUB SWAP1 REVERT JUMPDEST PUSH32 0x24BA6C881728980191398DB8DCFD8ED4F6AEB1C08DF349D63F3B85075F3E86DD DUP4 PUSH1 0x40 MLOAD PUSH2 0xE8F SWAP2 SWAP1 PUSH2 0x1F5D JUMP JUMPDEST PUSH1 0x40 MLOAD DUP1 SWAP2 SUB SWAP1 LOG1 POP POP POP JUMP JUMPDEST CALLER PUSH1 0x1 PUSH1 0x0 SWAP1 SLOAD SWAP1 PUSH2 0x100 EXP SWAP1 DIV PUSH20 0xFFFFFFFFFFFFFFFFFFFFFFFFFFFFFFFFFFFFFFFF AND PUSH20 0xFFFFFFFFFFFFFFFFFFFFFFFFFFFFFFFFFFFFFFFF AND DUP2 PUSH20 0xFFFFFFFFFFFFFFFFFFFFFFFFFFFFFFFFFFFFFFFF AND EQ PUSH2 0xF2D JUMPI PUSH1 0x40 MLOAD PUSH32 0x8C379A000000000000000000000000000000000000000000000000000000000 DUP2 MSTORE PUSH1 0x4 ADD PUSH2 0xF24 SWAP1 PUSH2 0x20EF JUMP JUMPDEST PUSH1 0x40 MLOAD DUP1 SWAP2 SUB SWAP1 REVERT JUMPDEST PUSH1 0x0 DUP1 JUMPDEST PUSH1 0x4 DUP1 SLOAD SWAP1 POP DUP2 LT ISZERO PUSH2 0x10A0 JUMPI DUP4 PUSH1 0x40 MLOAD PUSH1 0x20 ADD PUSH2 0xF4F SWAP2 SWAP1 PUSH2 0x1E2D JUMP JUMPDEST PUSH1 0x40 MLOAD PUSH1 0x20 DUP2 DUP4 SUB SUB DUP2 MSTORE SWAP1 PUSH1 0x40 MSTORE DUP1 MLOAD SWAP1 PUSH1 0x20 ADD KECCAK256 PUSH1 0x4 DUP3 DUP2 SLOAD DUP2 LT PUSH2 0xF72 JUMPI INVALID JUMPDEST SWAP1 PUSH1 0x0 MSTORE PUSH1 0x20 PUSH1 0x0 KECCAK256 ADD PUSH1 0x40 MLOAD PUSH1 0x20 ADD PUSH2 0xF8C SWAP2 SWAP1 PUSH2 0x1E73 JUMP JUMPDEST PUSH1 0x40 MLOAD PUSH1 0x20 DUP2 DUP4 SUB SUB DUP2 MSTORE SWAP1 PUSH1 0x40 MSTORE DUP1 MLOAD SWAP1 PUSH1 0x20 ADD KECCAK256 EQ ISZERO PUSH2 0x1093 JUMPI PUSH1 0x1 SWAP2 POP PUSH1 0x3 DUP5 PUSH1 0x40 MLOAD PUSH2 0xFBC SWAP2 SWAP1 PUSH2 0x1E2D JUMP JUMPDEST SWAP1 DUP2 MSTORE PUSH1 0x20 ADD PUSH1 0x40 MLOAD DUP1 SWAP2 SUB SWAP1 KECCAK256 PUSH1 0x2 ADD PUSH1 0x0 SWAP1 SLOAD SWAP1 PUSH2 0x100 EXP SWAP1 DIV PUSH1 0xFF AND PUSH2 0x101E JUMPI PUSH1 0x1 PUSH1 0x3 DUP6 PUSH1 0x40 MLOAD PUSH2 0xFF1 SWAP2 SWAP1 PUSH2 0x1E2D JUMP JUMPDEST SWAP1 DUP2 MSTORE PUSH1 0x20 ADD PUSH1 0x40 MLOAD DUP1 SWAP2 SUB SWAP1 KECCAK256 PUSH1 0x2 ADD PUSH1 0x0 PUSH2 0x100 EXP DUP2 SLOAD DUP2 PUSH1 0xFF MUL NOT AND SWAP1 DUP4 ISZERO ISZERO MUL OR SWAP1 SSTORE POP PUSH2 0x108E JUMP JUMPDEST PUSH1 0x3 DUP5 PUSH1 0x40 MLOAD PUSH2 0x102E SWAP2 SWAP1 PUSH2 0x1E2D JUMP JUMPDEST SWAP1 DUP2 MSTORE PUSH1 0x20 ADD PUSH1 0x40 MLOAD DUP1 SWAP2 SUB SWAP1 KECCAK256 PUSH1 0x2 ADD PUSH1 0x0 SWAP1 SLOAD SWAP1 PUSH2 0x100 EXP SWAP1 DIV PUSH1 0xFF AND ISZERO PUSH2 0x108D JUMPI PUSH1 0x40 MLOAD PUSH32 0x8C379A000000000000000000000000000000000000000000000000000000000 DUP2 MSTORE PUSH1 0x4 ADD PUSH2 0x1084 SWAP1 PUSH2 0x20CF JUMP JUMPDEST PUSH1 0x40 MLOAD DUP1 SWAP2 SUB SWAP1 REVERT JUMPDEST JUMPDEST PUSH2 0x10A0 JUMP JUMPDEST DUP1 DUP1 PUSH1 0x1 ADD SWAP2 POP POP PUSH2 0xF31 JUMP JUMPDEST POP DUP1 PUSH2 0x10E1 JUMPI PUSH1 0x40 MLOAD PUSH32 0x8C379A000000000000000000000000000000000000000000000000000000000 DUP2 MSTORE PUSH1 0x4 ADD PUSH2 0x10D8 SWAP1 PUSH2 0x212F JUMP JUMPDEST PUSH1 0x40 MLOAD DUP1 SWAP2 SUB SWAP1 REVERT JUMPDEST PUSH32 0x93BF52A97553B4B909DC0C898CA0AF225AFA4B2926E6D4F002F1470287662FC1 DUP4 PUSH1 0x40 MLOAD PUSH2 0x1110 SWAP2 SWAP1 PUSH2 0x1F5D JUMP JUMPDEST PUSH1 0x40 MLOAD DUP1 SWAP2 SUB SWAP1 LOG1 POP POP POP JUMP JUMPDEST PUSH1 0x2 PUSH1 0x20 MSTORE DUP1 PUSH1 0x0 MSTORE PUSH1 0x40 PUSH1 0x0 KECCAK256 PUSH1 0x0 SWAP2 POP SWAP1 POP DUP1 PUSH1 0x0 ADD SLOAD SWAP1 POP DUP2 JUMP JUMPDEST PUSH1 0x3 DUP2 DUP1 MLOAD PUSH1 0x20 DUP2 ADD DUP3 ADD DUP1 MLOAD DUP5 DUP3 MSTORE PUSH1 0x20 DUP4 ADD PUSH1 0x20 DUP6 ADD KECCAK256 DUP2 DUP4 MSTORE DUP1 SWAP6 POP POP POP POP POP POP PUSH1 0x0 SWAP2 POP SWAP1 POP DUP1 PUSH1 0x0 ADD DUP1 SLOAD PUSH1 0x1 DUP2 PUSH1 0x1 AND ISZERO PUSH2 0x100 MUL SUB AND PUSH1 0x2 SWAP1 DIV DUP1 PUSH1 0x1F ADD PUSH1 0x20 DUP1 SWAP2 DIV MUL PUSH1 0x20 ADD PUSH1 0x40 MLOAD SWAP1 DUP2 ADD PUSH1 0x40 MSTORE DUP1 SWAP3 SWAP2 SWAP1 DUP2 DUP2 MSTORE PUSH1 0x20 ADD DUP3 DUP1 SLOAD PUSH1 0x1 DUP2 PUSH1 0x1 AND ISZERO PUSH2 0x100 MUL SUB AND PUSH1 0x2 SWAP1 DIV DUP1 ISZERO PUSH2 0x11FD JUMPI DUP1 PUSH1 0x1F LT PUSH2 0x11D2 JUMPI PUSH2 0x100 DUP1 DUP4 SLOAD DIV MUL DUP4 MSTORE SWAP2 PUSH1 0x20 ADD SWAP2 PUSH2 0x11FD JUMP JUMPDEST DUP3 ADD SWAP2 SWAP1 PUSH1 0x0 MSTORE PUSH1 0x20 PUSH1 0x0 KECCAK256 SWAP1 JUMPDEST DUP2 SLOAD DUP2 MSTORE SWAP1 PUSH1 0x1 ADD SWAP1 PUSH1 0x20 ADD DUP1 DUP4 GT PUSH2 0x11E0 JUMPI DUP3 SWAP1 SUB PUSH1 0x1F AND DUP3 ADD SWAP2 JUMPDEST POP POP POP POP POP SWAP1 DUP1 PUSH1 0x1 ADD SLOAD SWAP1 DUP1 PUSH1 0x2 ADD PUSH1 0x0 SWAP1 SLOAD SWAP1 PUSH2 0x100 EXP SWAP1 DIV PUSH1 0xFF AND SWAP1 POP DUP4 JUMP JUMPDEST PUSH1 0x0 DUP1 PUSH1 0x0 SWAP1 SLOAD SWAP1 PUSH2 0x100 EXP SWAP1 DIV PUSH20 0xFFFFFFFFFFFFFFFFFFFFFFFFFFFFFFFFFFFFFFFF AND PUSH20 0xFFFFFFFFFFFFFFFFFFFFFFFFFFFFFFFFFFFFFFFF AND PUSH4 0x70A08231 CALLER PUSH1 0x40 MLOAD DUP3 PUSH4 0xFFFFFFFF AND PUSH1 0xE0 SHL DUP2 MSTORE PUSH1 0x4 ADD PUSH2 0x127C SWAP2 SWAP1 PUSH2 0x1EA5 JUMP JUMPDEST PUSH1 0x20 PUSH1 0x40 MLOAD DUP1 DUP4 SUB DUP2 DUP7 DUP1 EXTCODESIZE ISZERO DUP1 ISZERO PUSH2 0x1294 JUMPI PUSH1 0x0 DUP1 REVERT JUMPDEST POP GAS STATICCALL ISZERO DUP1 ISZERO PUSH2 0x12A8 JUMPI RETURNDATASIZE PUSH1 0x0 DUP1 RETURNDATACOPY RETURNDATASIZE PUSH1 0x0 REVERT JUMPDEST POP POP POP POP PUSH1 0x40 MLOAD RETURNDATASIZE PUSH1 0x1F NOT PUSH1 0x1F DUP3 ADD AND DUP3 ADD DUP1 PUSH1 0x40 MSTORE POP DUP2 ADD SWAP1 PUSH2 0x12CC SWAP2 SWAP1 PUSH2 0x17A6 JUMP JUMPDEST SWAP1 POP SWAP1 JUMP JUMPDEST PUSH1 0x0 PUSH2 0x12DC DUP3 PUSH2 0x14B6 JUMP JUMPDEST SWAP1 POP DUP1 CALLVALUE LT ISZERO PUSH2 0x1321 JUMPI PUSH1 0x40 MLOAD PUSH32 0x8C379A000000000000000000000000000000000000000000000000000000000 DUP2 MSTORE PUSH1 0x4 ADD PUSH2 0x1318 SWAP1 PUSH2 0x206F JUMP JUMPDEST PUSH1 0x40 MLOAD DUP1 SWAP2 SUB SWAP1 REVERT JUMPDEST DUP2 PUSH2 0x132A PUSH2 0xB6A JUMP JUMPDEST LT ISZERO PUSH2 0x136B JUMPI PUSH1 0x40 MLOAD PUSH32 0x8C379A000000000000000000000000000000000000000000000000000000000 DUP2 MSTORE PUSH1 0x4 ADD PUSH2 0x1362 SWAP1 PUSH2 0x208F JUMP JUMPDEST PUSH1 0x40 MLOAD DUP1 SWAP2 SUB SWAP1 REVERT JUMPDEST CALLER PUSH20 0xFFFFFFFFFFFFFFFFFFFFFFFFFFFFFFFFFFFFFFFF AND PUSH2 0x8FC DUP3 CALLVALUE SUB SWAP1 DUP2 ISZERO MUL SWAP1 PUSH1 0x40 MLOAD PUSH1 0x0 PUSH1 0x40 MLOAD DUP1 DUP4 SUB DUP2 DUP6 DUP9 DUP9 CALL SWAP4 POP POP POP POP ISZERO DUP1 ISZERO PUSH2 0x13B3 JUMPI RETURNDATASIZE PUSH1 0x0 DUP1 RETURNDATACOPY RETURNDATASIZE PUSH1 0x0 REVERT JUMPDEST POP PUSH1 0x0 DUP1 SLOAD SWAP1 PUSH2 0x100 EXP SWAP1 DIV PUSH20 0xFFFFFFFFFFFFFFFFFFFFFFFFFFFFFFFFFFFFFFFF AND PUSH20 0xFFFFFFFFFFFFFFFFFFFFFFFFFFFFFFFFFFFFFFFF AND PUSH4 0xA9059CBB CALLER DUP5 PUSH1 0x40 MLOAD DUP4 PUSH4 0xFFFFFFFF AND PUSH1 0xE0 SHL DUP2 MSTORE PUSH1 0x4 ADD PUSH2 0x140F SWAP3 SWAP2 SWAP1 PUSH2 0x1F12 JUMP JUMPDEST PUSH1 0x20 PUSH1 0x40 MLOAD DUP1 DUP4 SUB DUP2 PUSH1 0x0 DUP8 DUP1 EXTCODESIZE ISZERO DUP1 ISZERO PUSH2 0x1429 JUMPI PUSH1 0x0 DUP1 REVERT JUMPDEST POP GAS CALL ISZERO DUP1 ISZERO PUSH2 0x143D JUMPI RETURNDATASIZE PUSH1 0x0 DUP1 RETURNDATACOPY RETURNDATASIZE PUSH1 0x0 REVERT JUMPDEST POP POP POP POP PUSH1 0x40 MLOAD RETURNDATASIZE PUSH1 0x1F NOT PUSH1 0x1F DUP3 ADD AND DUP3 ADD DUP1 PUSH1 0x40 MSTORE POP DUP2 ADD SWAP1 PUSH2 0x1461 SWAP2 SWAP1 PUSH2 0x16BF JUMP JUMPDEST POP DUP2 PUSH1 0x2 PUSH1 0x0 CALLER PUSH20 0xFFFFFFFFFFFFFFFFFFFFFFFFFFFFFFFFFFFFFFFF AND PUSH20 0xFFFFFFFFFFFFFFFFFFFFFFFFFFFFFFFFFFFFFFFF AND DUP2 MSTORE PUSH1 0x20 ADD SWAP1 DUP2 MSTORE PUSH1 0x20 ADD PUSH1 0x0 KECCAK256 PUSH1 0x0 ADD PUSH1 0x0 DUP3 DUP3 SLOAD ADD SWAP3 POP POP DUP2 SWAP1 SSTORE POP POP POP JUMP JUMPDEST PUSH1 0x0 PUSH8 0xDE0B6B3A7640000 DUP3 MUL SWAP1 POP SWAP2 SWAP1 POP JUMP JUMPDEST DUP3 DUP1 SLOAD PUSH1 0x1 DUP2 PUSH1 0x1 AND ISZERO PUSH2 0x100 MUL SUB AND PUSH1 0x2 SWAP1 DIV SWAP1 PUSH1 0x0 MSTORE PUSH1 0x20 PUSH1 0x0 KECCAK256 SWAP1 PUSH1 0x1F ADD PUSH1 0x20 SWAP1 DIV DUP2 ADD SWAP3 DUP3 PUSH1 0x1F LT PUSH2 0x1503 JUMPI DUP1 SLOAD DUP6 SSTORE PUSH2 0x1540 JUMP JUMPDEST DUP3 DUP1 ADD PUSH1 0x1 ADD DUP6 SSTORE DUP3 ISZERO PUSH2 0x1540 JUMPI PUSH1 0x0 MSTORE PUSH1 0x20 PUSH1 0x0 KECCAK256 SWAP2 PUSH1 0x1F ADD PUSH1 0x20 SWAP1 DIV DUP3 ADD JUMPDEST DUP3 DUP2 GT ISZERO PUSH2 0x153F JUMPI DUP3 SLOAD DUP3 SSTORE SWAP2 PUSH1 0x1 ADD SWAP2 SWAP1 PUSH1 0x1 ADD SWAP1 PUSH2 0x1524 JUMP JUMPDEST JUMPDEST POP SWAP1 POP PUSH2 0x154D SWAP2 SWAP1 PUSH2 0x15D1 JUMP JUMPDEST POP SWAP1 JUMP JUMPDEST DUP3 DUP1 SLOAD PUSH1 0x1 DUP2 PUSH1 0x1 AND ISZERO PUSH2 0x100 MUL SUB AND PUSH1 0x2 SWAP1 DIV SWAP1 PUSH1 0x0 MSTORE PUSH1 0x20 PUSH1 0x0 KECCAK256 SWAP1 PUSH1 0x1F ADD PUSH1 0x20 SWAP1 DIV DUP2 ADD SWAP3 DUP3 PUSH1 0x1F LT PUSH2 0x1592 JUMPI DUP1 MLOAD PUSH1 0xFF NOT AND DUP4 DUP1 ADD OR DUP6 SSTORE PUSH2 0x15C0 JUMP JUMPDEST DUP3 DUP1 ADD PUSH1 0x1 ADD DUP6 SSTORE DUP3 ISZERO PUSH2 0x15C0 JUMPI SWAP2 DUP3 ADD JUMPDEST DUP3 DUP2 GT ISZERO PUSH2 0x15BF JUMPI DUP3 MLOAD DUP3 SSTORE SWAP2 PUSH1 0x20 ADD SWAP2 SWAP1 PUSH1 0x1 ADD SWAP1 PUSH2 0x15A4 JUMP JUMPDEST JUMPDEST POP SWAP1 POP PUSH2 0x15CD SWAP2 SWAP1 PUSH2 0x15D1 JUMP JUMPDEST POP SWAP1 JUMP JUMPDEST JUMPDEST DUP1 DUP3 GT ISZERO PUSH2 0x15EA JUMPI PUSH1 0x0 DUP2 PUSH1 0x0 SWAP1 SSTORE POP PUSH1 0x1 ADD PUSH2 0x15D2 JUMP JUMPDEST POP SWAP1 JUMP JUMPDEST PUSH1 0x0 DUP2 CALLDATALOAD SWAP1 POP PUSH2 0x15FD DUP2 PUSH2 0x232C JUMP JUMPDEST SWAP3 SWAP2 POP POP JUMP JUMPDEST PUSH1 0x0 DUP2 MLOAD SWAP1 POP PUSH2 0x1612 DUP2 PUSH2 0x2343 JUMP JUMPDEST SWAP3 SWAP2 POP POP JUMP JUMPDEST PUSH1 0x0 DUP3 PUSH1 0x1F DUP4 ADD SLT PUSH2 0x1629 JUMPI PUSH1 0x0 DUP1 REVERT JUMPDEST DUP2 CALLDATALOAD PUSH2 0x163C PUSH2 0x1637 DUP3 PUSH2 0x2197 JUMP JUMPDEST PUSH2 0x216A JUMP JUMPDEST SWAP2 POP DUP1 DUP3 MSTORE PUSH1 0x20 DUP4 ADD PUSH1 0x20 DUP4 ADD DUP6 DUP4 DUP4 ADD GT ISZERO PUSH2 0x1658 JUMPI PUSH1 0x0 DUP1 REVERT JUMPDEST PUSH2 0x1663 DUP4 DUP3 DUP5 PUSH2 0x22D9 JUMP JUMPDEST POP POP POP SWAP3 SWAP2 POP POP JUMP JUMPDEST PUSH1 0x0 DUP2 CALLDATALOAD SWAP1 POP PUSH2 0x167B DUP2 PUSH2 0x235A JUMP JUMPDEST SWAP3 SWAP2 POP POP JUMP JUMPDEST PUSH1 0x0 DUP2 MLOAD SWAP1 POP PUSH2 0x1690 DUP2 PUSH2 0x235A JUMP JUMPDEST SWAP3 SWAP2 POP POP JUMP JUMPDEST PUSH1 0x0 PUSH1 0x20 DUP3 DUP5 SUB SLT ISZERO PUSH2 0x16A8 JUMPI PUSH1 0x0 DUP1 REVERT JUMPDEST PUSH1 0x0 PUSH2 0x16B6 DUP5 DUP3 DUP6 ADD PUSH2 0x15EE JUMP JUMPDEST SWAP2 POP POP SWAP3 SWAP2 POP POP JUMP JUMPDEST PUSH1 0x0 PUSH1 0x20 DUP3 DUP5 SUB SLT ISZERO PUSH2 0x16D1 JUMPI PUSH1 0x0 DUP1 REVERT JUMPDEST PUSH1 0x0 PUSH2 0x16DF DUP5 DUP3 DUP6 ADD PUSH2 0x1603 JUMP JUMPDEST SWAP2 POP POP SWAP3 SWAP2 POP POP JUMP JUMPDEST PUSH1 0x0 PUSH1 0x20 DUP3 DUP5 SUB SLT ISZERO PUSH2 0x16FA JUMPI PUSH1 0x0 DUP1 REVERT JUMPDEST PUSH1 0x0 DUP3 ADD CALLDATALOAD PUSH8 0xFFFFFFFFFFFFFFFF DUP2 GT ISZERO PUSH2 0x1714 JUMPI PUSH1 0x0 DUP1 REVERT JUMPDEST PUSH2 0x1720 DUP5 DUP3 DUP6 ADD PUSH2 0x1618 JUMP JUMPDEST SWAP2 POP POP SWAP3 SWAP2 POP POP JUMP JUMPDEST PUSH1 0x0 DUP1 PUSH1 0x40 DUP4 DUP6 SUB SLT ISZERO PUSH2 0x173C JUMPI PUSH1 0x0 DUP1 REVERT JUMPDEST PUSH1 0x0 DUP4 ADD CALLDATALOAD PUSH8 0xFFFFFFFFFFFFFFFF DUP2 GT ISZERO PUSH2 0x1756 JUMPI PUSH1 0x0 DUP1 REVERT JUMPDEST PUSH2 0x1762 DUP6 DUP3 DUP7 ADD PUSH2 0x1618 JUMP JUMPDEST SWAP3 POP POP PUSH1 0x20 PUSH2 0x1773 DUP6 DUP3 DUP7 ADD PUSH2 0x166C JUMP JUMPDEST SWAP2 POP POP SWAP3 POP SWAP3 SWAP1 POP JUMP JUMPDEST PUSH1 0x0 PUSH1 0x20 DUP3 DUP5 SUB SLT ISZERO PUSH2 0x178F JUMPI PUSH1 0x0 DUP1 REVERT JUMPDEST PUSH1 0x0 PUSH2 0x179D DUP5 DUP3 DUP6 ADD PUSH2 0x166C JUMP JUMPDEST SWAP2 POP POP SWAP3 SWAP2 POP POP JUMP JUMPDEST PUSH1 0x0 PUSH1 0x20 DUP3 DUP5 SUB SLT ISZERO PUSH2 0x17B8 JUMPI PUSH1 0x0 DUP1 REVERT JUMPDEST PUSH1 0x0 PUSH2 0x17C6 DUP5 DUP3 DUP6 ADD PUSH2 0x1681 JUMP JUMPDEST SWAP2 POP POP SWAP3 SWAP2 POP POP JUMP JUMPDEST PUSH1 0x0 PUSH2 0x17DB DUP4 DUP4 PUSH2 0x1894 JUMP JUMPDEST SWAP1 POP SWAP3 SWAP2 POP POP JUMP JUMPDEST PUSH2 0x17EC DUP2 PUSH2 0x22A3 JUMP JUMPDEST DUP3 MSTORE POP POP JUMP JUMPDEST PUSH2 0x17FB DUP2 PUSH2 0x225B JUMP JUMPDEST DUP3 MSTORE POP POP JUMP JUMPDEST PUSH2 0x180A DUP2 PUSH2 0x2249 JUMP JUMPDEST DUP3 MSTORE POP POP JUMP JUMPDEST PUSH1 0x0 PUSH2 0x181B DUP3 PUSH2 0x21E8 JUMP JUMPDEST PUSH2 0x1825 DUP2 DUP6 PUSH2 0x220B JUMP JUMPDEST SWAP4 POP DUP4 PUSH1 0x20 DUP3 MUL DUP6 ADD PUSH2 0x1837 DUP6 PUSH2 0x21C3 JUMP JUMPDEST DUP1 PUSH1 0x0 JUMPDEST DUP6 DUP2 LT ISZERO PUSH2 0x1873 JUMPI DUP5 DUP5 SUB DUP10 MSTORE DUP2 MLOAD PUSH2 0x1854 DUP6 DUP3 PUSH2 0x17CF JUMP JUMPDEST SWAP5 POP PUSH2 0x185F DUP4 PUSH2 0x21FE JUMP JUMPDEST SWAP3 POP PUSH1 0x20 DUP11 ADD SWAP10 POP POP PUSH1 0x1 DUP2 ADD SWAP1 POP PUSH2 0x183B JUMP JUMPDEST POP DUP3 SWAP8 POP DUP8 SWAP6 POP POP POP POP POP POP SWAP3 SWAP2 POP POP JUMP JUMPDEST PUSH2 0x188E DUP2 PUSH2 0x226D JUMP JUMPDEST DUP3 MSTORE POP POP JUMP JUMPDEST PUSH1 0x0 PUSH2 0x189F DUP3 PUSH2 0x21F3 JUMP JUMPDEST PUSH2 0x18A9 DUP2 DUP6 PUSH2 0x221C JUMP JUMPDEST SWAP4 POP PUSH2 0x18B9 DUP2 DUP6 PUSH1 0x20 DUP7 ADD PUSH2 0x22E8 JUMP JUMPDEST PUSH2 0x18C2 DUP2 PUSH2 0x231B JUMP JUMPDEST DUP5 ADD SWAP2 POP POP SWAP3 SWAP2 POP POP JUMP JUMPDEST PUSH1 0x0 PUSH2 0x18D8 DUP3 PUSH2 0x21F3 JUMP JUMPDEST PUSH2 0x18E2 DUP2 DUP6 PUSH2 0x222D JUMP JUMPDEST SWAP4 POP PUSH2 0x18F2 DUP2 DUP6 PUSH1 0x20 DUP7 ADD PUSH2 0x22E8 JUMP JUMPDEST PUSH2 0x18FB DUP2 PUSH2 0x231B JUMP JUMPDEST DUP5 ADD SWAP2 POP POP SWAP3 SWAP2 POP POP JUMP JUMPDEST PUSH1 0x0 PUSH2 0x1911 DUP3 PUSH2 0x21F3 JUMP JUMPDEST PUSH2 0x191B DUP2 DUP6 PUSH2 0x223E JUMP JUMPDEST SWAP4 POP PUSH2 0x192B DUP2 DUP6 PUSH1 0x20 DUP7 ADD PUSH2 0x22E8 JUMP JUMPDEST DUP1 DUP5 ADD SWAP2 POP POP SWAP3 SWAP2 POP POP JUMP JUMPDEST PUSH1 0x0 DUP2 SLOAD PUSH1 0x1 DUP2 AND PUSH1 0x0 DUP2 EQ PUSH2 0x1954 JUMPI PUSH1 0x1 DUP2 EQ PUSH2 0x197A JUMPI PUSH2 0x19BE JUMP JUMPDEST PUSH1 0x7F PUSH1 0x2 DUP4 DIV AND PUSH2 0x1965 DUP2 DUP8 PUSH2 0x222D JUMP JUMPDEST SWAP6 POP PUSH1 0xFF NOT DUP4 AND DUP7 MSTORE PUSH1 0x20 DUP7 ADD SWAP4 POP POP PUSH2 0x19BE JUMP JUMPDEST PUSH1 0x2 DUP3 DIV PUSH2 0x1988 DUP2 DUP8 PUSH2 0x222D JUMP JUMPDEST SWAP6 POP PUSH2 0x1993 DUP6 PUSH2 0x21D3 JUMP JUMPDEST PUSH1 0x0 JUMPDEST DUP3 DUP2 LT ISZERO PUSH2 0x19B5 JUMPI DUP2 SLOAD DUP2 DUP10 ADD MSTORE PUSH1 0x1 DUP3 ADD SWAP2 POP PUSH1 0x20 DUP2 ADD SWAP1 POP PUSH2 0x1996 JUMP JUMPDEST DUP1 DUP9 ADD SWAP6 POP POP POP POP JUMPDEST POP POP SWAP3 SWAP2 POP POP JUMP JUMPDEST PUSH1 0x0 DUP2 SLOAD PUSH1 0x1 DUP2 AND PUSH1 0x0 DUP2 EQ PUSH2 0x19E3 JUMPI PUSH1 0x1 DUP2 EQ PUSH2 0x1A08 JUMPI PUSH2 0x1A4C JUMP JUMPDEST PUSH1 0x7F PUSH1 0x2 DUP4 DIV AND PUSH2 0x19F4 DUP2 DUP8 PUSH2 0x223E JUMP JUMPDEST SWAP6 POP PUSH1 0xFF NOT DUP4 AND DUP7 MSTORE DUP1 DUP7 ADD SWAP4 POP POP PUSH2 0x1A4C JUMP JUMPDEST PUSH1 0x2 DUP3 DIV PUSH2 0x1A16 DUP2 DUP8 PUSH2 0x223E JUMP JUMPDEST SWAP6 POP PUSH2 0x1A21 DUP6 PUSH2 0x21D3 JUMP JUMPDEST PUSH1 0x0 JUMPDEST DUP3 DUP2 LT ISZERO PUSH2 0x1A43 JUMPI DUP2 SLOAD DUP2 DUP10 ADD MSTORE PUSH1 0x1 DUP3 ADD SWAP2 POP PUSH1 0x20 DUP2 ADD SWAP1 POP PUSH2 0x1A24 JUMP JUMPDEST DUP3 DUP9 ADD SWAP6 POP POP POP POP JUMPDEST POP POP SWAP3 SWAP2 POP POP JUMP JUMPDEST PUSH1 0x0 PUSH2 0x1A61 PUSH1 0x23 DUP4 PUSH2 0x222D JUMP JUMPDEST SWAP2 POP PUSH32 0x4C6120617472616363696F6E20656E20637565737469C3B36E206E6F20657869 PUSH1 0x0 DUP4 ADD MSTORE PUSH32 0x7374650000000000000000000000000000000000000000000000000000000000 PUSH1 0x20 DUP4 ADD MSTORE PUSH1 0x40 DUP3 ADD SWAP1 POP SWAP2 SWAP1 POP JUMP JUMPDEST PUSH1 0x0 PUSH2 0x1AC7 PUSH1 0x3 DUP4 PUSH2 0x223E JUMP JUMPDEST SWAP2 POP PUSH32 0x207C200000000000000000000000000000000000000000000000000000000000 PUSH1 0x0 DUP4 ADD MSTORE PUSH1 0x3 DUP3 ADD SWAP1 POP SWAP2 SWAP1 POP JUMP JUMPDEST PUSH1 0x0 PUSH2 0x1B07 PUSH1 0x14 DUP4 PUSH2 0x222D JUMP JUMPDEST SWAP2 POP PUSH32 0x546F6B656E7320696E737566696369656E746573000000000000000000000000 PUSH1 0x0 DUP4 ADD MSTORE PUSH1 0x20 DUP3 ADD SWAP1 POP SWAP2 SWAP1 POP JUMP JUMPDEST PUSH1 0x0 PUSH2 0x1B47 PUSH1 0x33 DUP4 PUSH2 0x222D JUMP JUMPDEST SWAP2 POP PUSH32 0x4C6120617472616363696F6E20656E206375657374696F6E206E6F2073652065 PUSH1 0x0 DUP4 ADD MSTORE PUSH32 0x6E6375656E74726120646973706F6E69626C6500000000000000000000000000 PUSH1 0x20 DUP4 ADD MSTORE PUSH1 0x40 DUP3 ADD SWAP1 POP SWAP2 SWAP1 POP JUMP JUMPDEST PUSH1 0x0 PUSH2 0x1BAD PUSH1 0x1E DUP4 PUSH2 0x222D JUMP JUMPDEST SWAP2 POP PUSH32 0x43616E746964616420646520657468657220696E737566696369656E74650000 PUSH1 0x0 DUP4 ADD MSTORE PUSH1 0x20 DUP3 ADD SWAP1 POP SWAP2 SWAP1 POP JUMP JUMPDEST PUSH1 0x0 PUSH2 0x1BED PUSH1 0x20 DUP4 PUSH2 0x222D JUMP JUMPDEST SWAP2 POP PUSH32 0x43616E746964616420646520746F6B656E7320696E737566696369656E746573 PUSH1 0x0 DUP4 ADD MSTORE PUSH1 0x20 DUP3 ADD SWAP1 POP SWAP2 SWAP1 POP JUMP JUMPDEST PUSH1 0x0 PUSH2 0x1C2D PUSH1 0x3B DUP4 PUSH2 0x222D JUMP JUMPDEST SWAP2 POP PUSH32 0x4E6F207365207075656465206461722064652062616A61206120756E61206174 PUSH1 0x0 DUP4 ADD MSTORE PUSH32 0x72616363696F6E2071756520796120657374612064652062616A610000000000 PUSH1 0x20 DUP4 ADD MSTORE PUSH1 0x40 DUP3 ADD SWAP1 POP SWAP2 SWAP1 POP JUMP JUMPDEST PUSH1 0x0 PUSH2 0x1C93 PUSH1 0x40 DUP4 PUSH2 0x222D JUMP JUMPDEST SWAP2 POP PUSH32 0x4E6F2073652070756564652064617220646520616C7461206120756E61206174 PUSH1 0x0 DUP4 ADD MSTORE PUSH32 0x72616363696F6E207175652079612065737461206461646120646520616C7461 PUSH1 0x20 DUP4 ADD MSTORE PUSH1 0x40 DUP3 ADD SWAP1 POP SWAP2 SWAP1 POP JUMP JUMPDEST PUSH1 0x0 PUSH2 0x1CF9 PUSH1 0x2C DUP4 PUSH2 0x222D JUMP JUMPDEST SWAP2 POP PUSH32 0x4E6F207469656E6573207065726D69736F207061726120656A65637574617220 PUSH1 0x0 DUP4 ADD MSTORE PUSH32 0x657374612061636369C3B36E0000000000000000000000000000000000000000 PUSH1 0x20 DUP4 ADD MSTORE PUSH1 0x40 DUP3 ADD SWAP1 POP SWAP2 SWAP1 POP JUMP JUMPDEST PUSH1 0x0 PUSH2 0x1D5F PUSH1 0x35 DUP4 PUSH2 0x222D JUMP JUMPDEST SWAP2 POP PUSH32 0x4E6F207365207075656465206461722064652062616A61206120756E61206174 PUSH1 0x0 DUP4 ADD MSTORE PUSH32 0x72616363696F6E20717565206E6F206578697374610000000000000000000000 PUSH1 0x20 DUP4 ADD MSTORE PUSH1 0x40 DUP3 ADD SWAP1 POP SWAP2 SWAP1 POP JUMP JUMPDEST PUSH1 0x0 PUSH2 0x1DC5 PUSH1 0x35 DUP4 PUSH2 0x222D JUMP JUMPDEST SWAP2 POP PUSH32 0x4E6F2073652070756564652064617220646520616C7461206120756E61206174 PUSH1 0x0 DUP4 ADD MSTORE PUSH32 0x72616363696F6E20717565206E6F206578697374610000000000000000000000 PUSH1 0x20 DUP4 ADD MSTORE PUSH1 0x40 DUP3 ADD SWAP1 POP SWAP2 SWAP1 POP JUMP JUMPDEST PUSH2 0x1E27 DUP2 PUSH2 0x2299 JUMP JUMPDEST DUP3 MSTORE POP POP JUMP JUMPDEST PUSH1 0x0 PUSH2 0x1E39 DUP3 DUP5 PUSH2 0x1906 JUMP JUMPDEST SWAP2 POP DUP2 SWAP1 POP SWAP3 SWAP2 POP POP JUMP JUMPDEST PUSH1 0x0 PUSH2 0x1E50 DUP3 DUP6 PUSH2 0x1906 JUMP JUMPDEST SWAP2 POP PUSH2 0x1E5B DUP3 PUSH2 0x1ABA JUMP JUMPDEST SWAP2 POP PUSH2 0x1E67 DUP3 DUP5 PUSH2 0x19C6 JUMP JUMPDEST SWAP2 POP DUP2 SWAP1 POP SWAP4 SWAP3 POP POP POP JUMP JUMPDEST PUSH1 0x0 PUSH2 0x1E7F DUP3 DUP5 PUSH2 0x19C6 JUMP JUMPDEST SWAP2 POP DUP2 SWAP1 POP SWAP3 SWAP2 POP POP JUMP JUMPDEST PUSH1 0x0 PUSH1 0x20 DUP3 ADD SWAP1 POP PUSH2 0x1E9F PUSH1 0x0 DUP4 ADD DUP5 PUSH2 0x1801 JUMP JUMPDEST SWAP3 SWAP2 POP POP JUMP JUMPDEST PUSH1 0x0 PUSH1 0x20 DUP3 ADD SWAP1 POP PUSH2 0x1EBA PUSH1 0x0 DUP4 ADD DUP5 PUSH2 0x17E3 JUMP JUMPDEST SWAP3 SWAP2 POP POP JUMP JUMPDEST PUSH1 0x0 PUSH1 0x20 DUP3 ADD SWAP1 POP PUSH2 0x1ED5 PUSH1 0x0 DUP4 ADD DUP5 PUSH2 0x17F2 JUMP JUMPDEST SWAP3 SWAP2 POP POP JUMP JUMPDEST PUSH1 0x0 PUSH1 0x60 DUP3 ADD SWAP1 POP PUSH2 0x1EF0 PUSH1 0x0 DUP4 ADD DUP7 PUSH2 0x17E3 JUMP JUMPDEST PUSH2 0x1EFD PUSH1 0x20 DUP4 ADD DUP6 PUSH2 0x1801 JUMP JUMPDEST PUSH2 0x1F0A PUSH1 0x40 DUP4 ADD DUP5 PUSH2 0x1E1E JUMP JUMPDEST SWAP5 SWAP4 POP POP POP POP JUMP JUMPDEST PUSH1 0x0 PUSH1 0x40 DUP3 ADD SWAP1 POP PUSH2 0x1F27 PUSH1 0x0 DUP4 ADD DUP6 PUSH2 0x17E3 JUMP JUMPDEST PUSH2 0x1F34 PUSH1 0x20 DUP4 ADD DUP5 PUSH2 0x1E1E JUMP JUMPDEST SWAP4 SWAP3 POP POP POP JUMP JUMPDEST PUSH1 0x0 PUSH1 0x20 DUP3 ADD SWAP1 POP DUP2 DUP2 SUB PUSH1 0x0 DUP4 ADD MSTORE PUSH2 0x1F55 DUP2 DUP5 PUSH2 0x1810 JUMP JUMPDEST SWAP1 POP SWAP3 SWAP2 POP POP JUMP JUMPDEST PUSH1 0x0 PUSH1 0x20 DUP3 ADD SWAP1 POP DUP2 DUP2 SUB PUSH1 0x0 DUP4 ADD MSTORE PUSH2 0x1F77 DUP2 DUP5 PUSH2 0x18CD JUMP JUMPDEST SWAP1 POP SWAP3 SWAP2 POP POP JUMP JUMPDEST PUSH1 0x0 PUSH1 0x40 DUP3 ADD SWAP1 POP DUP2 DUP2 SUB PUSH1 0x0 DUP4 ADD MSTORE PUSH2 0x1F99 DUP2 DUP6 PUSH2 0x18CD JUMP JUMPDEST SWAP1 POP PUSH2 0x1FA8 PUSH1 0x20 DUP4 ADD DUP5 PUSH2 0x1E1E JUMP JUMPDEST SWAP4 SWAP3 POP POP POP JUMP JUMPDEST PUSH1 0x0 PUSH1 0x60 DUP3 ADD SWAP1 POP DUP2 DUP2 SUB PUSH1 0x0 DUP4 ADD MSTORE PUSH2 0x1FC9 DUP2 DUP7 PUSH2 0x18CD JUMP JUMPDEST SWAP1 POP PUSH2 0x1FD8 PUSH1 0x20 DUP4 ADD DUP6 PUSH2 0x1E1E JUMP JUMPDEST PUSH2 0x1FE5 PUSH1 0x40 DUP4 ADD DUP5 PUSH2 0x1885 JUMP JUMPDEST SWAP5 SWAP4 POP POP POP POP JUMP JUMPDEST PUSH1 0x0 PUSH1 0x20 DUP3 ADD SWAP1 POP DUP2 DUP2 SUB PUSH1 0x0 DUP4 ADD MSTORE PUSH2 0x2007 DUP2 DUP5 PUSH2 0x1937 JUMP JUMPDEST SWAP1 POP SWAP3 SWAP2 POP POP JUMP JUMPDEST PUSH1 0x0 PUSH1 0x20 DUP3 ADD SWAP1 POP DUP2 DUP2 SUB PUSH1 0x0 DUP4 ADD MSTORE PUSH2 0x2028 DUP2 PUSH2 0x1A54 JUMP JUMPDEST SWAP1 POP SWAP2 SWAP1 POP JUMP JUMPDEST PUSH1 0x0 PUSH1 0x20 DUP3 ADD SWAP1 POP DUP2 DUP2 SUB PUSH1 0x0 DUP4 ADD MSTORE PUSH2 0x2048 DUP2 PUSH2 0x1AFA JUMP JUMPDEST SWAP1 POP SWAP2 SWAP1 POP JUMP JUMPDEST PUSH1 0x0 PUSH1 0x20 DUP3 ADD SWAP1 POP DUP2 DUP2 SUB PUSH1 0x0 DUP4 ADD MSTORE PUSH2 0x2068 DUP2 PUSH2 0x1B3A JUMP JUMPDEST SWAP1 POP SWAP2 SWAP1 POP JUMP JUMPDEST PUSH1 0x0 PUSH1 0x20 DUP3 ADD SWAP1 POP DUP2 DUP2 SUB PUSH1 0x0 DUP4 ADD MSTORE PUSH2 0x2088 DUP2 PUSH2 0x1BA0 JUMP JUMPDEST SWAP1 POP SWAP2 SWAP1 POP JUMP JUMPDEST PUSH1 0x0 PUSH1 0x20 DUP3 ADD SWAP1 POP DUP2 DUP2 SUB PUSH1 0x0 DUP4 ADD MSTORE PUSH2 0x20A8 DUP2 PUSH2 0x1BE0 JUMP JUMPDEST SWAP1 POP SWAP2 SWAP1 POP JUMP JUMPDEST PUSH1 0x0 PUSH1 0x20 DUP3 ADD SWAP1 POP DUP2 DUP2 SUB PUSH1 0x0 DUP4 ADD MSTORE PUSH2 0x20C8 DUP2 PUSH2 0x1C20 JUMP JUMPDEST SWAP1 POP SWAP2 SWAP1 POP JUMP JUMPDEST PUSH1 0x0 PUSH1 0x20 DUP3 ADD SWAP1 POP DUP2 DUP2 SUB PUSH1 0x0 DUP4 ADD MSTORE PUSH2 0x20E8 DUP2 PUSH2 0x1C86 JUMP JUMPDEST SWAP1 POP SWAP2 SWAP1 POP JUMP JUMPDEST PUSH1 0x0 PUSH1 0x20 DUP3 ADD SWAP1 POP DUP2 DUP2 SUB PUSH1 0x0 DUP4 ADD MSTORE PUSH2 0x2108 DUP2 PUSH2 0x1CEC JUMP JUMPDEST SWAP1 POP SWAP2 SWAP1 POP JUMP JUMPDEST PUSH1 0x0 PUSH1 0x20 DUP3 ADD SWAP1 POP DUP2 DUP2 SUB PUSH1 0x0 DUP4 ADD MSTORE PUSH2 0x2128 DUP2 PUSH2 0x1D52 JUMP JUMPDEST SWAP1 POP SWAP2 SWAP1 POP JUMP JUMPDEST PUSH1 0x0 PUSH1 0x20 DUP3 ADD SWAP1 POP DUP2 DUP2 SUB PUSH1 0x0 DUP4 ADD MSTORE PUSH2 0x2148 DUP2 PUSH2 0x1DB8 JUMP JUMPDEST SWAP1 POP SWAP2 SWAP1 POP JUMP JUMPDEST PUSH1 0x0 PUSH1 0x20 DUP3 ADD SWAP1 POP PUSH2 0x2164 PUSH1 0x0 DUP4 ADD DUP5 PUSH2 0x1E1E JUMP JUMPDEST SWAP3 SWAP2 POP POP JUMP JUMPDEST PUSH1 0x0 PUSH1 0x40 MLOAD SWAP1 POP DUP2 DUP2 ADD DUP2 DUP2 LT PUSH8 0xFFFFFFFFFFFFFFFF DUP3 GT OR ISZERO PUSH2 0x218D JUMPI PUSH1 0x0 DUP1 REVERT JUMPDEST DUP1 PUSH1 0x40 MSTORE POP SWAP2 SWAP1 POP JUMP JUMPDEST PUSH1 0x0 PUSH8 0xFFFFFFFFFFFFFFFF DUP3 GT ISZERO PUSH2 0x21AE JUMPI PUSH1 0x0 DUP1 REVERT JUMPDEST PUSH1 0x1F NOT PUSH1 0x1F DUP4 ADD AND SWAP1 POP PUSH1 0x20 DUP2 ADD SWAP1 POP SWAP2 SWAP1 POP JUMP JUMPDEST PUSH1 0x0 DUP2 SWAP1 POP PUSH1 0x20 DUP3 ADD SWAP1 POP SWAP2 SWAP1 POP JUMP JUMPDEST PUSH1 0x0 DUP2 SWAP1 POP DUP2 PUSH1 0x0 MSTORE PUSH1 0x20 PUSH1 0x0 KECCAK256 SWAP1 POP SWAP2 SWAP1 POP JUMP JUMPDEST PUSH1 0x0 DUP2 MLOAD SWAP1 POP SWAP2 SWAP1 POP JUMP JUMPDEST PUSH1 0x0 DUP2 MLOAD SWAP1 POP SWAP2 SWAP1 POP JUMP JUMPDEST PUSH1 0x0 PUSH1 0x20 DUP3 ADD SWAP1 POP SWAP2 SWAP1 POP JUMP JUMPDEST PUSH1 0x0 DUP3 DUP3 MSTORE PUSH1 0x20 DUP3 ADD SWAP1 POP SWAP3 SWAP2 POP POP JUMP JUMPDEST PUSH1 0x0 DUP3 DUP3 MSTORE PUSH1 0x20 DUP3 ADD SWAP1 POP SWAP3 SWAP2 POP POP JUMP JUMPDEST PUSH1 0x0 DUP3 DUP3 MSTORE PUSH1 0x20 DUP3 ADD SWAP1 POP SWAP3 SWAP2 POP POP JUMP JUMPDEST PUSH1 0x0 DUP2 SWAP1 POP SWAP3 SWAP2 POP POP JUMP JUMPDEST PUSH1 0x0 PUSH2 0x2254 DUP3 PUSH2 0x2279 JUMP JUMPDEST SWAP1 POP SWAP2 SWAP1 POP JUMP JUMPDEST PUSH1 0x0 PUSH2 0x2266 DUP3 PUSH2 0x2279 JUMP JUMPDEST SWAP1 POP SWAP2 SWAP1 POP JUMP JUMPDEST PUSH1 0x0 DUP2 ISZERO ISZERO SWAP1 POP SWAP2 SWAP1 POP JUMP JUMPDEST PUSH1 0x0 PUSH20 0xFFFFFFFFFFFFFFFFFFFFFFFFFFFFFFFFFFFFFFFF DUP3 AND SWAP1 POP SWAP2 SWAP1 POP JUMP JUMPDEST PUSH1 0x0 DUP2 SWAP1 POP SWAP2 SWAP1 POP JUMP JUMPDEST PUSH1 0x0 PUSH2 0x22AE DUP3 PUSH2 0x22B5 JUMP JUMPDEST SWAP1 POP SWAP2 SWAP1 POP JUMP JUMPDEST PUSH1 0x0 PUSH2 0x22C0 DUP3 PUSH2 0x22C7 JUMP JUMPDEST SWAP1 POP SWAP2 SWAP1 POP JUMP JUMPDEST PUSH1 0x0 PUSH2 0x22D2 DUP3 PUSH2 0x2279 JUMP JUMPDEST SWAP1 POP SWAP2 SWAP1 POP JUMP JUMPDEST DUP3 DUP2 DUP4 CALLDATACOPY PUSH1 0x0 DUP4 DUP4 ADD MSTORE POP POP POP JUMP JUMPDEST PUSH1 0x0 JUMPDEST DUP4 DUP2 LT ISZERO PUSH2 0x2306 JUMPI DUP1 DUP3 ADD MLOAD DUP2 DUP5 ADD MSTORE PUSH1 0x20 DUP2 ADD SWAP1 POP PUSH2 0x22EB JUMP JUMPDEST DUP4 DUP2 GT ISZERO PUSH2 0x2315 JUMPI PUSH1 0x0 DUP5 DUP5 ADD MSTORE JUMPDEST POP POP POP POP JUMP JUMPDEST PUSH1 0x0 PUSH1 0x1F NOT PUSH1 0x1F DUP4 ADD AND SWAP1 POP SWAP2 SWAP1 POP JUMP JUMPDEST PUSH2 0x2335 DUP2 PUSH2 0x2249 JUMP JUMPDEST DUP2 EQ PUSH2 0x2340 JUMPI PUSH1 0x0 DUP1 REVERT JUMPDEST POP JUMP JUMPDEST PUSH2 0x234C DUP2 PUSH2 0x226D JUMP JUMPDEST DUP2 EQ PUSH2 0x2357 JUMPI PUSH1 0x0 DUP1 REVERT JUMPDEST POP JUMP JUMPDEST PUSH2 0x2363 DUP2 PUSH2 0x2299 JUMP JUMPDEST DUP2 EQ PUSH2 0x236E JUMPI PUSH1 0x0 DUP1 REVERT JUMPDEST POP JUMP INVALID LOG2 PUSH5 0x6970667358 0x22 SLT KECCAK256 PUSH30 0xEF5D3BC46BC2D5C9D22A1BF14B48ACB2C9130E9CCF62A001A6EC165F0D17 0x2C PUSH5 0x736F6C6343 STOP MOD 0xC STOP CALLER PUSH1 0x80 PUSH1 0x40 MSTORE CALLVALUE DUP1 ISZERO PUSH2 0x10 JUMPI PUSH1 0x0 DUP1 REVERT JUMPDEST POP PUSH1 0x40 MLOAD PUSH2 0x109D CODESIZE SUB DUP1 PUSH2 0x109D DUP4 CODECOPY DUP2 DUP2 ADD PUSH1 0x40 MSTORE DUP2 ADD SWAP1 PUSH2 0x32 SWAP2 SWAP1 PUSH2 0x99 JUMP JUMPDEST DUP1 PUSH1 0x2 DUP2 SWAP1 SSTORE POP PUSH1 0x2 SLOAD PUSH1 0x0 DUP1 CALLER PUSH20 0xFFFFFFFFFFFFFFFFFFFFFFFFFFFFFFFFFFFFFFFF AND PUSH20 0xFFFFFFFFFFFFFFFFFFFFFFFFFFFFFFFFFFFFFFFF AND DUP2 MSTORE PUSH1 0x20 ADD SWAP1 DUP2 MSTORE PUSH1 0x20 ADD PUSH1 0x0 KECCAK256 DUP2 SWAP1 SSTORE POP POP PUSH2 0xE3 JUMP JUMPDEST PUSH1 0x0 DUP2 MLOAD SWAP1 POP PUSH2 0x93 DUP2 PUSH2 0xCC JUMP JUMPDEST SWAP3 SWAP2 POP POP JUMP JUMPDEST PUSH1 0x0 PUSH1 0x20 DUP3 DUP5 SUB SLT ISZERO PUSH2 0xAB JUMPI PUSH1 0x0 DUP1 REVERT JUMPDEST PUSH1 0x0 PUSH2 0xB9 DUP5 DUP3 DUP6 ADD PUSH2 0x84 JUMP JUMPDEST SWAP2 POP POP SWAP3 SWAP2 POP POP JUMP JUMPDEST PUSH1 0x0 DUP2 SWAP1 POP SWAP2 SWAP1 POP JUMP JUMPDEST PUSH2 0xD5 DUP2 PUSH2 0xC2 JUMP JUMPDEST DUP2 EQ PUSH2 0xE0 JUMPI PUSH1 0x0 DUP1 REVERT JUMPDEST POP JUMP JUMPDEST PUSH2 0xFAB DUP1 PUSH2 0xF2 PUSH1 0x0 CODECOPY PUSH1 0x0 RETURN INVALID PUSH1 0x80 PUSH1 0x40 MSTORE CALLVALUE DUP1 ISZERO PUSH2 0x10 JUMPI PUSH1 0x0 DUP1 REVERT JUMPDEST POP PUSH1 0x4 CALLDATASIZE LT PUSH2 0xA9 JUMPI PUSH1 0x0 CALLDATALOAD PUSH1 0xE0 SHR DUP1 PUSH4 0x313CE567 GT PUSH2 0x71 JUMPI DUP1 PUSH4 0x313CE567 EQ PUSH2 0x166 JUMPI DUP1 PUSH4 0x70A08231 EQ PUSH2 0x184 JUMPI DUP1 PUSH4 0x95D89B41 EQ PUSH2 0x1B4 JUMPI DUP1 PUSH4 0xA9059CBB EQ PUSH2 0x1D2 JUMPI DUP1 PUSH4 0xDD62ED3E EQ PUSH2 0x202 JUMPI DUP1 PUSH4 0xEF910460 EQ PUSH2 0x232 JUMPI PUSH2 0xA9 JUMP JUMPDEST DUP1 PUSH4 0x6FDDE03 EQ PUSH2 0xAE JUMPI DUP1 PUSH4 0x95EA7B3 EQ PUSH2 0xCC JUMPI DUP1 PUSH4 0x18160DDD EQ PUSH2 0xFC JUMPI DUP1 PUSH4 0x1D43CC98 EQ PUSH2 0x11A JUMPI DUP1 PUSH4 0x23B872DD EQ PUSH2 0x136 JUMPI JUMPDEST PUSH1 0x0 DUP1 REVERT JUMPDEST PUSH2 0xB6 PUSH2 0x262 JUMP JUMPDEST PUSH1 0x40 MLOAD PUSH2 0xC3 SWAP2 SWAP1 PUSH2 0xE3A JUMP JUMPDEST PUSH1 0x40 MLOAD DUP1 SWAP2 SUB SWAP1 RETURN JUMPDEST PUSH2 0xE6 PUSH1 0x4 DUP1 CALLDATASIZE SUB DUP2 ADD SWAP1 PUSH2 0xE1 SWAP2 SWAP1 PUSH2 0xD54 JUMP JUMPDEST PUSH2 0x29B JUMP JUMPDEST PUSH1 0x40 MLOAD PUSH2 0xF3 SWAP2 SWAP1 PUSH2 0xE1F JUMP JUMPDEST PUSH1 0x40 MLOAD DUP1 SWAP2 SUB SWAP1 RETURN JUMPDEST PUSH2 0x104 PUSH2 0x38D JUMP JUMPDEST PUSH1 0x40 MLOAD PUSH2 0x111 SWAP2 SWAP1 PUSH2 0xE5C JUMP JUMPDEST PUSH1 0x40 MLOAD DUP1 SWAP2 SUB SWAP1 RETURN JUMPDEST PUSH2 0x134 PUSH1 0x4 DUP1 CALLDATASIZE SUB DUP2 ADD SWAP1 PUSH2 0x12F SWAP2 SWAP1 PUSH2 0xD90 JUMP JUMPDEST PUSH2 0x397 JUMP JUMPDEST STOP JUMPDEST PUSH2 0x150 PUSH1 0x4 DUP1 CALLDATASIZE SUB DUP2 ADD SWAP1 PUSH2 0x14B SWAP2 SWAP1 PUSH2 0xD05 JUMP JUMPDEST PUSH2 0x3F6 JUMP JUMPDEST PUSH1 0x40 MLOAD PUSH2 0x15D SWAP2 SWAP1 PUSH2 0xE1F JUMP JUMPDEST PUSH1 0x40 MLOAD DUP1 SWAP2 SUB SWAP1 RETURN JUMPDEST PUSH2 0x16E PUSH2 0x771 JUMP JUMPDEST PUSH1 0x40 MLOAD PUSH2 0x17B SWAP2 SWAP1 PUSH2 0xE77 JUMP JUMPDEST PUSH1 0x40 MLOAD DUP1 SWAP2 SUB SWAP1 RETURN JUMPDEST PUSH2 0x19E PUSH1 0x4 DUP1 CALLDATASIZE SUB DUP2 ADD SWAP1 PUSH2 0x199 SWAP2 SWAP1 PUSH2 0xCA0 JUMP JUMPDEST PUSH2 0x776 JUMP JUMPDEST PUSH1 0x40 MLOAD PUSH2 0x1AB SWAP2 SWAP1 PUSH2 0xE5C JUMP JUMPDEST PUSH1 0x40 MLOAD DUP1 SWAP2 SUB SWAP1 RETURN JUMPDEST PUSH2 0x1BC PUSH2 0x7BE JUMP JUMPDEST PUSH1 0x40 MLOAD PUSH2 0x1C9 SWAP2 SWAP1 PUSH2 0xE3A JUMP JUMPDEST PUSH1 0x40 MLOAD DUP1 SWAP2 SUB SWAP1 RETURN JUMPDEST PUSH2 0x1EC PUSH1 0x4 DUP1 CALLDATASIZE SUB DUP2 ADD SWAP1 PUSH2 0x1E7 SWAP2 SWAP1 PUSH2 0xD54 JUMP JUMPDEST PUSH2 0x7F7 JUMP JUMPDEST PUSH1 0x40 MLOAD PUSH2 0x1F9 SWAP2 SWAP1 PUSH2 0xE1F JUMP JUMPDEST PUSH1 0x40 MLOAD DUP1 SWAP2 SUB SWAP1 RETURN JUMPDEST PUSH2 0x21C PUSH1 0x4 DUP1 CALLDATASIZE SUB DUP2 ADD SWAP1 PUSH2 0x217 SWAP2 SWAP1 PUSH2 0xCC9 JUMP JUMPDEST PUSH2 0x9D9 JUMP JUMPDEST PUSH1 0x40 MLOAD PUSH2 0x229 SWAP2 SWAP1 PUSH2 0xE5C JUMP JUMPDEST PUSH1 0x40 MLOAD DUP1 SWAP2 SUB SWAP1 RETURN JUMPDEST PUSH2 0x24C PUSH1 0x4 DUP1 CALLDATASIZE SUB DUP2 ADD SWAP1 PUSH2 0x247 SWAP2 SWAP1 PUSH2 0xD05 JUMP JUMPDEST PUSH2 0xA60 JUMP JUMPDEST PUSH1 0x40 MLOAD PUSH2 0x259 SWAP2 SWAP1 PUSH2 0xE1F JUMP JUMPDEST PUSH1 0x40 MLOAD DUP1 SWAP2 SUB SWAP1 RETURN JUMPDEST PUSH1 0x40 MLOAD DUP1 PUSH1 0x40 ADD PUSH1 0x40 MSTORE DUP1 PUSH1 0xC DUP2 MSTORE PUSH1 0x20 ADD PUSH32 0x4552433230414B414C75676F0000000000000000000000000000000000000000 DUP2 MSTORE POP DUP2 JUMP JUMPDEST PUSH1 0x0 DUP2 PUSH1 0x1 PUSH1 0x0 CALLER PUSH20 0xFFFFFFFFFFFFFFFFFFFFFFFFFFFFFFFFFFFFFFFF AND PUSH20 0xFFFFFFFFFFFFFFFFFFFFFFFFFFFFFFFFFFFFFFFF AND DUP2 MSTORE PUSH1 0x20 ADD SWAP1 DUP2 MSTORE PUSH1 0x20 ADD PUSH1 0x0 KECCAK256 PUSH1 0x0 DUP6 PUSH20 0xFFFFFFFFFFFFFFFFFFFFFFFFFFFFFFFFFFFFFFFF AND PUSH20 0xFFFFFFFFFFFFFFFFFFFFFFFFFFFFFFFFFFFFFFFF AND DUP2 MSTORE PUSH1 0x20 ADD SWAP1 DUP2 MSTORE PUSH1 0x20 ADD PUSH1 0x0 KECCAK256 DUP2 SWAP1 SSTORE POP DUP3 PUSH20 0xFFFFFFFFFFFFFFFFFFFFFFFFFFFFFFFFFFFFFFFF AND CALLER PUSH20 0xFFFFFFFFFFFFFFFFFFFFFFFFFFFFFFFFFFFFFFFF AND PUSH32 0x8C5BE1E5EBEC7D5BD14F71427D1E84F3DD0314C0F7B2291E5B200AC8C7C3B925 DUP5 PUSH1 0x40 MLOAD PUSH2 0x37B SWAP2 SWAP1 PUSH2 0xE5C JUMP JUMPDEST PUSH1 0x40 MLOAD DUP1 SWAP2 SUB SWAP1 LOG3 PUSH1 0x1 SWAP1 POP SWAP3 SWAP2 POP POP JUMP JUMPDEST PUSH1 0x0 PUSH1 0x2 SLOAD SWAP1 POP SWAP1 JUMP JUMPDEST DUP1 PUSH1 0x2 PUSH1 0x0 DUP3 DUP3 SLOAD ADD SWAP3 POP POP DUP2 SWAP1 SSTORE POP DUP1 PUSH1 0x0 DUP1 CALLER PUSH20 0xFFFFFFFFFFFFFFFFFFFFFFFFFFFFFFFFFFFFFFFF AND PUSH20 0xFFFFFFFFFFFFFFFFFFFFFFFFFFFFFFFFFFFFFFFF AND DUP2 MSTORE PUSH1 0x20 ADD SWAP1 DUP2 MSTORE PUSH1 0x20 ADD PUSH1 0x0 KECCAK256 PUSH1 0x0 DUP3 DUP3 SLOAD ADD SWAP3 POP POP DUP2 SWAP1 SSTORE POP POP JUMP JUMPDEST PUSH1 0x0 DUP2 PUSH1 0x0 DUP1 DUP7 PUSH20 0xFFFFFFFFFFFFFFFFFFFFFFFFFFFFFFFFFFFFFFFF AND PUSH20 0xFFFFFFFFFFFFFFFFFFFFFFFFFFFFFFFFFFFFFFFF AND DUP2 MSTORE PUSH1 0x20 ADD SWAP1 DUP2 MSTORE PUSH1 0x20 ADD PUSH1 0x0 KECCAK256 SLOAD LT ISZERO PUSH2 0x443 JUMPI PUSH1 0x0 DUP1 REVERT JUMPDEST DUP2 PUSH1 0x1 PUSH1 0x0 DUP7 PUSH20 0xFFFFFFFFFFFFFFFFFFFFFFFFFFFFFFFFFFFFFFFF AND PUSH20 0xFFFFFFFFFFFFFFFFFFFFFFFFFFFFFFFFFFFFFFFF AND DUP2 MSTORE PUSH1 0x20 ADD SWAP1 DUP2 MSTORE PUSH1 0x20 ADD PUSH1 0x0 KECCAK256 PUSH1 0x0 CALLER PUSH20 0xFFFFFFFFFFFFFFFFFFFFFFFFFFFFFFFFFFFFFFFF AND PUSH20 0xFFFFFFFFFFFFFFFFFFFFFFFFFFFFFFFFFFFFFFFF AND DUP2 MSTORE PUSH1 0x20 ADD SWAP1 DUP2 MSTORE PUSH1 0x20 ADD PUSH1 0x0 KECCAK256 SLOAD LT ISZERO PUSH2 0x4CC JUMPI PUSH1 0x0 DUP1 REVERT JUMPDEST PUSH2 0x51D DUP3 PUSH1 0x0 DUP1 DUP8 PUSH20 0xFFFFFFFFFFFFFFFFFFFFFFFFFFFFFFFFFFFFFFFF AND PUSH20 0xFFFFFFFFFFFFFFFFFFFFFFFFFFFFFFFFFFFFFFFF AND DUP2 MSTORE PUSH1 0x20 ADD SWAP1 DUP2 MSTORE PUSH1 0x20 ADD PUSH1 0x0 KECCAK256 SLOAD PUSH2 0xC43 SWAP1 SWAP2 SWAP1 PUSH4 0xFFFFFFFF AND JUMP JUMPDEST PUSH1 0x0 DUP1 DUP7 PUSH20 0xFFFFFFFFFFFFFFFFFFFFFFFFFFFFFFFFFFFFFFFF AND PUSH20 0xFFFFFFFFFFFFFFFFFFFFFFFFFFFFFFFFFFFFFFFF AND DUP2 MSTORE PUSH1 0x20 ADD SWAP1 DUP2 MSTORE PUSH1 0x20 ADD PUSH1 0x0 KECCAK256 DUP2 SWAP1 SSTORE POP PUSH2 0x5EE DUP3 PUSH1 0x1 PUSH1 0x0 DUP8 PUSH20 0xFFFFFFFFFFFFFFFFFFFFFFFFFFFFFFFFFFFFFFFF AND PUSH20 0xFFFFFFFFFFFFFFFFFFFFFFFFFFFFFFFFFFFFFFFF AND DUP2 MSTORE PUSH1 0x20 ADD SWAP1 DUP2 MSTORE PUSH1 0x20 ADD PUSH1 0x0 KECCAK256 PUSH1 0x0 CALLER PUSH20 0xFFFFFFFFFFFFFFFFFFFFFFFFFFFFFFFFFFFFFFFF AND PUSH20 0xFFFFFFFFFFFFFFFFFFFFFFFFFFFFFFFFFFFFFFFF AND DUP2 MSTORE PUSH1 0x20 ADD SWAP1 DUP2 MSTORE PUSH1 0x20 ADD PUSH1 0x0 KECCAK256 SLOAD PUSH2 0xC43 SWAP1 SWAP2 SWAP1 PUSH4 0xFFFFFFFF AND JUMP JUMPDEST PUSH1 0x1 PUSH1 0x0 DUP7 PUSH20 0xFFFFFFFFFFFFFFFFFFFFFFFFFFFFFFFFFFFFFFFF AND PUSH20 0xFFFFFFFFFFFFFFFFFFFFFFFFFFFFFFFFFFFFFFFF AND DUP2 MSTORE PUSH1 0x20 ADD SWAP1 DUP2 MSTORE PUSH1 0x20 ADD PUSH1 0x0 KECCAK256 PUSH1 0x0 CALLER PUSH20 0xFFFFFFFFFFFFFFFFFFFFFFFFFFFFFFFFFFFFFFFF AND PUSH20 0xFFFFFFFFFFFFFFFFFFFFFFFFFFFFFFFFFFFFFFFF AND DUP2 MSTORE PUSH1 0x20 ADD SWAP1 DUP2 MSTORE PUSH1 0x20 ADD PUSH1 0x0 KECCAK256 DUP2 SWAP1 SSTORE POP PUSH2 0x6BF DUP3 PUSH1 0x0 DUP1 DUP7 PUSH20 0xFFFFFFFFFFFFFFFFFFFFFFFFFFFFFFFFFFFFFFFF AND PUSH20 0xFFFFFFFFFFFFFFFFFFFFFFFFFFFFFFFFFFFFFFFF AND DUP2 MSTORE PUSH1 0x20 ADD SWAP1 DUP2 MSTORE PUSH1 0x20 ADD PUSH1 0x0 KECCAK256 SLOAD PUSH2 0xC5A SWAP1 SWAP2 SWAP1 PUSH4 0xFFFFFFFF AND JUMP JUMPDEST PUSH1 0x0 DUP1 DUP6 PUSH20 0xFFFFFFFFFFFFFFFFFFFFFFFFFFFFFFFFFFFFFFFF AND PUSH20 0xFFFFFFFFFFFFFFFFFFFFFFFFFFFFFFFFFFFFFFFF AND DUP2 MSTORE PUSH1 0x20 ADD SWAP1 DUP2 MSTORE PUSH1 0x20 ADD PUSH1 0x0 KECCAK256 DUP2 SWAP1 SSTORE POP DUP3 PUSH20 0xFFFFFFFFFFFFFFFFFFFFFFFFFFFFFFFFFFFFFFFF AND DUP5 PUSH20 0xFFFFFFFFFFFFFFFFFFFFFFFFFFFFFFFFFFFFFFFF AND PUSH32 0xDDF252AD1BE2C89B69C2B068FC378DAA952BA7F163C4A11628F55A4DF523B3EF DUP5 PUSH1 0x40 MLOAD PUSH2 0x75E SWAP2 SWAP1 PUSH2 0xE5C JUMP JUMPDEST PUSH1 0x40 MLOAD DUP1 SWAP2 SUB SWAP1 LOG3 PUSH1 0x1 SWAP1 POP SWAP4 SWAP3 POP POP POP JUMP JUMPDEST PUSH1 0x12 DUP2 JUMP JUMPDEST PUSH1 0x0 DUP1 PUSH1 0x0 DUP4 PUSH20 0xFFFFFFFFFFFFFFFFFFFFFFFFFFFFFFFFFFFFFFFF AND PUSH20 0xFFFFFFFFFFFFFFFFFFFFFFFFFFFFFFFFFFFFFFFF AND DUP2 MSTORE PUSH1 0x20 ADD SWAP1 DUP2 MSTORE PUSH1 0x20 ADD PUSH1 0x0 KECCAK256 SLOAD SWAP1 POP SWAP2 SWAP1 POP JUMP JUMPDEST PUSH1 0x40 MLOAD DUP1 PUSH1 0x40 ADD PUSH1 0x40 MSTORE DUP1 PUSH1 0x3 DUP2 MSTORE PUSH1 0x20 ADD PUSH32 0x414B410000000000000000000000000000000000000000000000000000000000 DUP2 MSTORE POP DUP2 JUMP JUMPDEST PUSH1 0x0 DUP1 PUSH1 0x0 CALLER PUSH20 0xFFFFFFFFFFFFFFFFFFFFFFFFFFFFFFFFFFFFFFFF AND PUSH20 0xFFFFFFFFFFFFFFFFFFFFFFFFFFFFFFFFFFFFFFFF AND DUP2 MSTORE PUSH1 0x20 ADD SWAP1 DUP2 MSTORE PUSH1 0x20 ADD PUSH1 0x0 KECCAK256 SLOAD DUP3 GT ISZERO PUSH2 0x844 JUMPI PUSH1 0x0 DUP1 REVERT JUMPDEST PUSH2 0x895 DUP3 PUSH1 0x0 DUP1 CALLER PUSH20 0xFFFFFFFFFFFFFFFFFFFFFFFFFFFFFFFFFFFFFFFF AND PUSH20 0xFFFFFFFFFFFFFFFFFFFFFFFFFFFFFFFFFFFFFFFF AND DUP2 MSTORE PUSH1 0x20 ADD SWAP1 DUP2 MSTORE PUSH1 0x20 ADD PUSH1 0x0 KECCAK256 SLOAD PUSH2 0xC43 SWAP1 SWAP2 SWAP1 PUSH4 0xFFFFFFFF AND JUMP JUMPDEST PUSH1 0x0 DUP1 CALLER PUSH20 0xFFFFFFFFFFFFFFFFFFFFFFFFFFFFFFFFFFFFFFFF AND PUSH20 0xFFFFFFFFFFFFFFFFFFFFFFFFFFFFFFFFFFFFFFFF AND DUP2 MSTORE PUSH1 0x20 ADD SWAP1 DUP2 MSTORE PUSH1 0x20 ADD PUSH1 0x0 KECCAK256 DUP2 SWAP1 SSTORE POP PUSH2 0x928 DUP3 PUSH1 0x0 DUP1 DUP7 PUSH20 0xFFFFFFFFFFFFFFFFFFFFFFFFFFFFFFFFFFFFFFFF AND PUSH20 0xFFFFFFFFFFFFFFFFFFFFFFFFFFFFFFFFFFFFFFFF AND DUP2 MSTORE PUSH1 0x20 ADD SWAP1 DUP2 MSTORE PUSH1 0x20 ADD PUSH1 0x0 KECCAK256 SLOAD PUSH2 0xC5A SWAP1 SWAP2 SWAP1 PUSH4 0xFFFFFFFF AND JUMP JUMPDEST PUSH1 0x0 DUP1 DUP6 PUSH20 0xFFFFFFFFFFFFFFFFFFFFFFFFFFFFFFFFFFFFFFFF AND PUSH20 0xFFFFFFFFFFFFFFFFFFFFFFFFFFFFFFFFFFFFFFFF AND DUP2 MSTORE PUSH1 0x20 ADD SWAP1 DUP2 MSTORE PUSH1 0x20 ADD PUSH1 0x0 KECCAK256 DUP2 SWAP1 SSTORE POP DUP3 PUSH20 0xFFFFFFFFFFFFFFFFFFFFFFFFFFFFFFFFFFFFFFFF AND CALLER PUSH20 0xFFFFFFFFFFFFFFFFFFFFFFFFFFFFFFFFFFFFFFFF AND PUSH32 0xDDF252AD1BE2C89B69C2B068FC378DAA952BA7F163C4A11628F55A4DF523B3EF DUP5 PUSH1 0x40 MLOAD PUSH2 0x9C7 SWAP2 SWAP1 PUSH2 0xE5C JUMP JUMPDEST PUSH1 0x40 MLOAD DUP1 SWAP2 SUB SWAP1 LOG3 PUSH1 0x1 SWAP1 POP SWAP3 SWAP2 POP POP JUMP JUMPDEST PUSH1 0x0 PUSH1 0x1 PUSH1 0x0 DUP5 PUSH20 0xFFFFFFFFFFFFFFFFFFFFFFFFFFFFFFFFFFFFFFFF AND PUSH20 0xFFFFFFFFFFFFFFFFFFFFFFFFFFFFFFFFFFFFFFFF AND DUP2 MSTORE PUSH1 0x20 ADD SWAP1 DUP2 MSTORE PUSH1 0x20 ADD PUSH1 0x0 KECCAK256 PUSH1 0x0 DUP4 PUSH20 0xFFFFFFFFFFFFFFFFFFFFFFFFFFFFFFFFFFFFFFFF AND PUSH20 0xFFFFFFFFFFFFFFFFFFFFFFFFFFFFFFFFFFFFFFFF AND DUP2 MSTORE PUSH1 0x20 ADD SWAP1 DUP2 MSTORE PUSH1 0x20 ADD PUSH1 0x0 KECCAK256 SLOAD SWAP1 POP SWAP3 SWAP2 POP POP JUMP JUMPDEST PUSH1 0x0 DUP1 PUSH1 0x0 DUP6 PUSH20 0xFFFFFFFFFFFFFFFFFFFFFFFFFFFFFFFFFFFFFFFF AND PUSH20 0xFFFFFFFFFFFFFFFFFFFFFFFFFFFFFFFFFFFFFFFF AND DUP2 MSTORE PUSH1 0x20 ADD SWAP1 DUP2 MSTORE PUSH1 0x20 ADD PUSH1 0x0 KECCAK256 SLOAD DUP3 GT ISZERO PUSH2 0xAAD JUMPI PUSH1 0x0 DUP1 REVERT JUMPDEST PUSH2 0xAFE DUP3 PUSH1 0x0 DUP1 DUP8 PUSH20 0xFFFFFFFFFFFFFFFFFFFFFFFFFFFFFFFFFFFFFFFF AND PUSH20 0xFFFFFFFFFFFFFFFFFFFFFFFFFFFFFFFFFFFFFFFF AND DUP2 MSTORE PUSH1 0x20 ADD SWAP1 DUP2 MSTORE PUSH1 0x20 ADD PUSH1 0x0 KECCAK256 SLOAD PUSH2 0xC43 SWAP1 SWAP2 SWAP1 PUSH4 0xFFFFFFFF AND JUMP JUMPDEST PUSH1 0x0 DUP1 DUP7 PUSH20 0xFFFFFFFFFFFFFFFFFFFFFFFFFFFFFFFFFFFFFFFF AND PUSH20 0xFFFFFFFFFFFFFFFFFFFFFFFFFFFFFFFFFFFFFFFF AND DUP2 MSTORE PUSH1 0x20 ADD SWAP1 DUP2 MSTORE PUSH1 0x20 ADD PUSH1 0x0 KECCAK256 DUP2 SWAP1 SSTORE POP PUSH2 0xB91 DUP3 PUSH1 0x0 DUP1 DUP7 PUSH20 0xFFFFFFFFFFFFFFFFFFFFFFFFFFFFFFFFFFFFFFFF AND PUSH20 0xFFFFFFFFFFFFFFFFFFFFFFFFFFFFFFFFFFFFFFFF AND DUP2 MSTORE PUSH1 0x20 ADD SWAP1 DUP2 MSTORE PUSH1 0x20 ADD PUSH1 0x0 KECCAK256 SLOAD PUSH2 0xC5A SWAP1 SWAP2 SWAP1 PUSH4 0xFFFFFFFF AND JUMP JUMPDEST PUSH1 0x0 DUP1 DUP6 PUSH20 0xFFFFFFFFFFFFFFFFFFFFFFFFFFFFFFFFFFFFFFFF AND PUSH20 0xFFFFFFFFFFFFFFFFFFFFFFFFFFFFFFFFFFFFFFFF AND DUP2 MSTORE PUSH1 0x20 ADD SWAP1 DUP2 MSTORE PUSH1 0x20 ADD PUSH1 0x0 KECCAK256 DUP2 SWAP1 SSTORE POP DUP3 PUSH20 0xFFFFFFFFFFFFFFFFFFFFFFFFFFFFFFFFFFFFFFFF AND DUP5 PUSH20 0xFFFFFFFFFFFFFFFFFFFFFFFFFFFFFFFFFFFFFFFF AND PUSH32 0xDDF252AD1BE2C89B69C2B068FC378DAA952BA7F163C4A11628F55A4DF523B3EF DUP5 PUSH1 0x40 MLOAD PUSH2 0xC30 SWAP2 SWAP1 PUSH2 0xE5C JUMP JUMPDEST PUSH1 0x40 MLOAD DUP1 SWAP2 SUB SWAP1 LOG3 PUSH1 0x1 SWAP1 POP SWAP4 SWAP3 POP POP POP JUMP JUMPDEST PUSH1 0x0 DUP3 DUP3 GT ISZERO PUSH2 0xC4F JUMPI INVALID JUMPDEST DUP2 DUP4 SUB SWAP1 POP SWAP3 SWAP2 POP POP JUMP JUMPDEST PUSH1 0x0 DUP1 DUP3 DUP5 ADD SWAP1 POP DUP4 DUP2 LT ISZERO PUSH2 0xC6C JUMPI INVALID JUMPDEST DUP1 SWAP2 POP POP SWAP3 SWAP2 POP POP JUMP JUMPDEST PUSH1 0x0 DUP2 CALLDATALOAD SWAP1 POP PUSH2 0xC85 DUP2 PUSH2 0xF47 JUMP JUMPDEST SWAP3 SWAP2 POP POP JUMP JUMPDEST PUSH1 0x0 DUP2 CALLDATALOAD SWAP1 POP PUSH2 0xC9A DUP2 PUSH2 0xF5E JUMP JUMPDEST SWAP3 SWAP2 POP POP JUMP JUMPDEST PUSH1 0x0 PUSH1 0x20 DUP3 DUP5 SUB SLT ISZERO PUSH2 0xCB2 JUMPI PUSH1 0x0 DUP1 REVERT JUMPDEST PUSH1 0x0 PUSH2 0xCC0 DUP5 DUP3 DUP6 ADD PUSH2 0xC76 JUMP JUMPDEST SWAP2 POP POP SWAP3 SWAP2 POP POP JUMP JUMPDEST PUSH1 0x0 DUP1 PUSH1 0x40 DUP4 DUP6 SUB SLT ISZERO PUSH2 0xCDC JUMPI PUSH1 0x0 DUP1 REVERT JUMPDEST PUSH1 0x0 PUSH2 0xCEA DUP6 DUP3 DUP7 ADD PUSH2 0xC76 JUMP JUMPDEST SWAP3 POP POP PUSH1 0x20 PUSH2 0xCFB DUP6 DUP3 DUP7 ADD PUSH2 0xC76 JUMP JUMPDEST SWAP2 POP POP SWAP3 POP SWAP3 SWAP1 POP JUMP JUMPDEST PUSH1 0x0 DUP1 PUSH1 0x0 PUSH1 0x60 DUP5 DUP7 SUB SLT ISZERO PUSH2 0xD1A JUMPI PUSH1 0x0 DUP1 REVERT JUMPDEST PUSH1 0x0 PUSH2 0xD28 DUP7 DUP3 DUP8 ADD PUSH2 0xC76 JUMP JUMPDEST SWAP4 POP POP PUSH1 0x20 PUSH2 0xD39 DUP7 DUP3 DUP8 ADD PUSH2 0xC76 JUMP JUMPDEST SWAP3 POP POP PUSH1 0x40 PUSH2 0xD4A DUP7 DUP3 DUP8 ADD PUSH2 0xC8B JUMP JUMPDEST SWAP2 POP POP SWAP3 POP SWAP3 POP SWAP3 JUMP JUMPDEST PUSH1 0x0 DUP1 PUSH1 0x40 DUP4 DUP6 SUB SLT ISZERO PUSH2 0xD67 JUMPI PUSH1 0x0 DUP1 REVERT JUMPDEST PUSH1 0x0 PUSH2 0xD75 DUP6 DUP3 DUP7 ADD PUSH2 0xC76 JUMP JUMPDEST SWAP3 POP POP PUSH1 0x20 PUSH2 0xD86 DUP6 DUP3 DUP7 ADD PUSH2 0xC8B JUMP JUMPDEST SWAP2 POP POP SWAP3 POP SWAP3 SWAP1 POP JUMP JUMPDEST PUSH1 0x0 PUSH1 0x20 DUP3 DUP5 SUB SLT ISZERO PUSH2 0xDA2 JUMPI PUSH1 0x0 DUP1 REVERT JUMPDEST PUSH1 0x0 PUSH2 0xDB0 DUP5 DUP3 DUP6 ADD PUSH2 0xC8B JUMP JUMPDEST SWAP2 POP POP SWAP3 SWAP2 POP POP JUMP JUMPDEST PUSH2 0xDC2 DUP2 PUSH2 0xEC0 JUMP JUMPDEST DUP3 MSTORE POP POP JUMP JUMPDEST PUSH1 0x0 PUSH2 0xDD3 DUP3 PUSH2 0xE92 JUMP JUMPDEST PUSH2 0xDDD DUP2 DUP6 PUSH2 0xE9D JUMP JUMPDEST SWAP4 POP PUSH2 0xDED DUP2 DUP6 PUSH1 0x20 DUP7 ADD PUSH2 0xF03 JUMP JUMPDEST PUSH2 0xDF6 DUP2 PUSH2 0xF36 JUMP JUMPDEST DUP5 ADD SWAP2 POP POP SWAP3 SWAP2 POP POP JUMP JUMPDEST PUSH2 0xE0A DUP2 PUSH2 0xEEC JUMP JUMPDEST DUP3 MSTORE POP POP JUMP JUMPDEST PUSH2 0xE19 DUP2 PUSH2 0xEF6 JUMP JUMPDEST DUP3 MSTORE POP POP JUMP JUMPDEST PUSH1 0x0 PUSH1 0x20 DUP3 ADD SWAP1 POP PUSH2 0xE34 PUSH1 0x0 DUP4 ADD DUP5 PUSH2 0xDB9 JUMP JUMPDEST SWAP3 SWAP2 POP POP JUMP JUMPDEST PUSH1 0x0 PUSH1 0x20 DUP3 ADD SWAP1 POP DUP2 DUP2 SUB PUSH1 0x0 DUP4 ADD MSTORE PUSH2 0xE54 DUP2 DUP5 PUSH2 0xDC8 JUMP JUMPDEST SWAP1 POP SWAP3 SWAP2 POP POP JUMP JUMPDEST PUSH1 0x0 PUSH1 0x20 DUP3 ADD SWAP1 POP PUSH2 0xE71 PUSH1 0x0 DUP4 ADD DUP5 PUSH2 0xE01 JUMP JUMPDEST SWAP3 SWAP2 POP POP JUMP JUMPDEST PUSH1 0x0 PUSH1 0x20 DUP3 ADD SWAP1 POP PUSH2 0xE8C PUSH1 0x0 DUP4 ADD DUP5 PUSH2 0xE10 JUMP JUMPDEST SWAP3 SWAP2 POP POP JUMP JUMPDEST PUSH1 0x0 DUP2 MLOAD SWAP1 POP SWAP2 SWAP1 POP JUMP JUMPDEST PUSH1 0x0 DUP3 DUP3 MSTORE PUSH1 0x20 DUP3 ADD SWAP1 POP SWAP3 SWAP2 POP POP JUMP JUMPDEST PUSH1 0x0 PUSH2 0xEB9 DUP3 PUSH2 0xECC JUMP JUMPDEST SWAP1 POP SWAP2 SWAP1 POP JUMP JUMPDEST PUSH1 0x0 DUP2 ISZERO ISZERO SWAP1 POP SWAP2 SWAP1 POP JUMP JUMPDEST PUSH1 0x0 PUSH20 0xFFFFFFFFFFFFFFFFFFFFFFFFFFFFFFFFFFFFFFFF DUP3 AND SWAP1 POP SWAP2 SWAP1 POP JUMP JUMPDEST PUSH1 0x0 DUP2 SWAP1 POP SWAP2 SWAP1 POP JUMP JUMPDEST PUSH1 0x0 PUSH1 0xFF DUP3 AND SWAP1 POP SWAP2 SWAP1 POP JUMP JUMPDEST PUSH1 0x0 JUMPDEST DUP4 DUP2 LT ISZERO PUSH2 0xF21 JUMPI DUP1 DUP3 ADD MLOAD DUP2 DUP5 ADD MSTORE PUSH1 0x20 DUP2 ADD SWAP1 POP PUSH2 0xF06 JUMP JUMPDEST DUP4 DUP2 GT ISZERO PUSH2 0xF30 JUMPI PUSH1 0x0 DUP5 DUP5 ADD MSTORE JUMPDEST POP POP POP POP JUMP JUMPDEST PUSH1 0x0 PUSH1 0x1F NOT PUSH1 0x1F DUP4 ADD AND SWAP1 POP SWAP2 SWAP1 POP JUMP JUMPDEST PUSH2 0xF50 DUP2 PUSH2 0xEAE JUMP JUMPDEST DUP2 EQ PUSH2 0xF5B JUMPI PUSH1 0x0 DUP1 REVERT JUMPDEST POP JUMP JUMPDEST PUSH2 0xF67 DUP2 PUSH2 0xEEC JUMP JUMPDEST DUP2 EQ PUSH2 0xF72 JUMPI PUSH1 0x0 DUP1 REVERT JUMPDEST POP JUMP INVALID LOG2 PUSH5 0x6970667358 0x22 SLT KECCAK256 MSTORE8 0x2C GASPRICE 0xA8 0xB9 0x22 0xC2 SMOD PUSH8 0xAF62DC097402AD23 SDIV ADDMOD LOG2 TIMESTAMP 0xD2 PUSH24 0x69011D941905ABC92364736F6C634300060C003300000000 "
				},
				"gasEstimates": {
					"creation": {
						"codeDepositCost": "1825400",
						"executionCost": "infinite",
						"totalCost": "infinite"
					},
					"external": {
						"AtraccionesDisponibles()": "infinite",
						"BajarAtraccion(string)": "infinite",
						"BalanceOf()": "infinite",
						"Clientes(address)": "1550",
						"CompraTokens(uint256)": "infinite",
						"GenerarTokens(uint256)": "infinite",
						"Historial()": "infinite",
						"MappingAtracciones(string)": "infinite",
						"MisTokens()": "infinite",
						"NuevaAtraccion(string,uint256)": "infinite",
						"SubirAtraccion(string)": "infinite",
						"SubirseAtraccion(string)": "infinite",
						"owner()": "1325"
					},
					"internal": {
						"PrecioTokens(uint256)": "36"
					}
				},
				"methodIdentifiers": {
					"AtraccionesDisponibles()": "1fccb33c",
					"BajarAtraccion(string)": "a2094159",
					"BalanceOf()": "9a3174a0",
					"Clientes(address)": "ce8f2f38",
					"CompraTokens(uint256)": "f7774091",
					"GenerarTokens(uint256)": "7c1b38bf",
					"Historial()": "6b8f8e15",
					"MappingAtracciones(string)": "d00df296",
					"MisTokens()": "e33f34a0",
					"NuevaAtraccion(string,uint256)": "2076b56c",
					"SubirAtraccion(string)": "a9862fab",
					"SubirseAtraccion(string)": "12b91846",
					"owner()": "8da5cb5b"
				}
			},
			"storageLayout": {
				"storage": [
					{
						"astId": 497,
						"contract": "Disney/disney.sol:Disney",
						"label": "token",
						"offset": 0,
						"slot": "0",
						"type": "t_contract(ERC20Basic)409"
					},
					{
						"astId": 499,
						"contract": "Disney/disney.sol:Disney",
						"label": "owner",
						"offset": 0,
						"slot": "1",
						"type": "t_address_payable"
					},
					{
						"astId": 509,
						"contract": "Disney/disney.sol:Disney",
						"label": "Clientes",
						"offset": 0,
						"slot": "2",
						"type": "t_mapping(t_address,t_struct(cliente)505_storage)"
					},
					{
						"astId": 677,
						"contract": "Disney/disney.sol:Disney",
						"label": "MappingAtracciones",
						"offset": 0,
						"slot": "3",
						"type": "t_mapping(t_string_memory_ptr,t_struct(atraccion)673_storage)"
					},
					{
						"astId": 680,
						"contract": "Disney/disney.sol:Disney",
						"label": "Atracciones",
						"offset": 0,
						"slot": "4",
						"type": "t_array(t_string_storage)dyn_storage"
					},
					{
						"astId": 685,
						"contract": "Disney/disney.sol:Disney",
						"label": "HistorialCliente",
						"offset": 0,
						"slot": "5",
						"type": "t_mapping(t_address,t_array(t_string_storage)dyn_storage)"
					}
				],
				"types": {
					"t_address": {
						"encoding": "inplace",
						"label": "address",
						"numberOfBytes": "20"
					},
					"t_address_payable": {
						"encoding": "inplace",
						"label": "address payable",
						"numberOfBytes": "20"
					},
					"t_array(t_string_storage)dyn_storage": {
						"base": "t_string_storage",
						"encoding": "dynamic_array",
						"label": "string[]",
						"numberOfBytes": "32"
					},
					"t_bool": {
						"encoding": "inplace",
						"label": "bool",
						"numberOfBytes": "1"
					},
					"t_contract(ERC20Basic)409": {
						"encoding": "inplace",
						"label": "contract ERC20Basic",
						"numberOfBytes": "20"
					},
					"t_mapping(t_address,t_array(t_string_storage)dyn_storage)": {
						"encoding": "mapping",
						"key": "t_address",
						"label": "mapping(address => string[])",
						"numberOfBytes": "32",
						"value": "t_array(t_string_storage)dyn_storage"
					},
					"t_mapping(t_address,t_struct(cliente)505_storage)": {
						"encoding": "mapping",
						"key": "t_address",
						"label": "mapping(address => struct Disney.cliente)",
						"numberOfBytes": "32",
						"value": "t_struct(cliente)505_storage"
					},
					"t_mapping(t_string_memory_ptr,t_struct(atraccion)673_storage)": {
						"encoding": "mapping",
						"key": "t_string_memory_ptr",
						"label": "mapping(string => struct Disney.atraccion)",
						"numberOfBytes": "32",
						"value": "t_struct(atraccion)673_storage"
					},
					"t_string_memory_ptr": {
						"encoding": "bytes",
						"label": "string",
						"numberOfBytes": "32"
					},
					"t_string_storage": {
						"encoding": "bytes",
						"label": "string",
						"numberOfBytes": "32"
					},
					"t_struct(atraccion)673_storage": {
						"encoding": "inplace",
						"label": "struct Disney.atraccion",
						"members": [
							{
								"astId": 668,
								"contract": "Disney/disney.sol:Disney",
								"label": "nombre",
								"offset": 0,
								"slot": "0",
								"type": "t_string_storage"
							},
							{
								"astId": 670,
								"contract": "Disney/disney.sol:Disney",
								"label": "precio",
								"offset": 0,
								"slot": "1",
								"type": "t_uint256"
							},
							{
								"astId": 672,
								"contract": "Disney/disney.sol:Disney",
								"label": "estado",
								"offset": 0,
								"slot": "2",
								"type": "t_bool"
							}
						],
						"numberOfBytes": "96"
					},
					"t_struct(cliente)505_storage": {
						"encoding": "inplace",
						"label": "struct Disney.cliente",
						"members": [
							{
								"astId": 501,
								"contract": "Disney/disney.sol:Disney",
								"label": "token_comprado",
								"offset": 0,
								"slot": "0",
								"type": "t_uint256"
							},
							{
								"astId": 504,
								"contract": "Disney/disney.sol:Disney",
								"label": "atracciones_visitadas",
								"offset": 0,
								"slot": "1",
								"type": "t_array(t_string_storage)dyn_storage"
							}
						],
						"numberOfBytes": "64"
					},
					"t_uint256": {
						"encoding": "inplace",
						"label": "uint256",
						"numberOfBytes": "32"
					}
				}
			},
			"userdoc": {
				"kind": "user",
				"methods": {},
				"version": 1
			}
		}
	}
}