{
	"Disney/disney.sol": {
		"Disney": {
			"abi": [
				{
					"inputs": [],
					"stateMutability": "nonpayable",
					"type": "constructor"
				},
				{
					"anonymous": false,
					"inputs": [
						{
							"indexed": false,
							"internalType": "string",
							"name": "",
							"type": "string"
						}
					],
					"name": "baja_atraccion",
					"type": "event"
				},
				{
					"anonymous": false,
					"inputs": [
						{
							"indexed": false,
							"internalType": "string",
							"name": "",
							"type": "string"
						}
					],
					"name": "disfruta_atraccion",
					"type": "event"
				},
				{
					"anonymous": false,
					"inputs": [
						{
							"indexed": false,
							"internalType": "string",
							"name": "",
							"type": "string"
						},
						{
							"indexed": false,
							"internalType": "uint256",
							"name": "",
							"type": "uint256"
						}
					],
					"name": "nueva_atraccion",
					"type": "event"
				},
				{
					"inputs": [
						{
							"internalType": "string",
							"name": "_nombreAtraccion",
							"type": "string"
						}
					],
					"name": "BajarAtraccion",
					"outputs": [],
					"stateMutability": "nonpayable",
					"type": "function"
				},
				{
					"inputs": [],
					"name": "BalanceOf",
					"outputs": [
						{
							"internalType": "uint256",
							"name": "",
							"type": "uint256"
						}
					],
					"stateMutability": "view",
					"type": "function"
				},
				{
					"inputs": [
						{
							"internalType": "address",
							"name": "",
							"type": "address"
						}
					],
					"name": "Clientes",
					"outputs": [
						{
							"internalType": "uint256",
							"name": "token_comprado",
							"type": "uint256"
						}
					],
					"stateMutability": "view",
					"type": "function"
				},
				{
					"inputs": [
						{
							"internalType": "uint256",
							"name": "_numTokens",
							"type": "uint256"
						}
					],
					"name": "CompraTokens",
					"outputs": [],
					"stateMutability": "payable",
					"type": "function"
				},
				{
					"inputs": [
						{
							"internalType": "uint256",
							"name": "_numTokens",
							"type": "uint256"
						}
					],
					"name": "GenerarTokens",
					"outputs": [],
					"stateMutability": "nonpayable",
					"type": "function"
				},
				{
					"inputs": [
						{
							"internalType": "string",
							"name": "",
							"type": "string"
						}
					],
					"name": "MappingAtracciones",
					"outputs": [
						{
							"internalType": "string",
							"name": "nombre",
							"type": "string"
						},
						{
							"internalType": "uint256",
							"name": "precio",
							"type": "uint256"
						},
						{
							"internalType": "bool",
							"name": "estado",
							"type": "bool"
						}
					],
					"stateMutability": "view",
					"type": "function"
				},
				{
					"inputs": [],
					"name": "MisTokens",
					"outputs": [
						{
							"internalType": "uint256",
							"name": "",
							"type": "uint256"
						}
					],
					"stateMutability": "view",
					"type": "function"
				},
				{
					"inputs": [
						{
							"internalType": "string",
							"name": "_nombreAtraccion",
							"type": "string"
						},
						{
							"internalType": "uint256",
							"name": "_precio",
							"type": "uint256"
						}
					],
					"name": "NuevaAtraccion",
					"outputs": [],
					"stateMutability": "nonpayable",
					"type": "function"
				},
				{
					"inputs": [],
					"name": "owner",
					"outputs": [
						{
							"internalType": "address payable",
							"name": "",
							"type": "address"
						}
					],
					"stateMutability": "view",
					"type": "function"
				}
			],
			"devdoc": {
				"kind": "dev",
				"methods": {},
				"version": 1
			},
			"evm": {
				"assembly": "    /* \"Disney/disney.sol\":124:4521  contract Disney {\r... */\n  mstore(0x40, 0x80)\n    /* \"Disney/disney.sol\":634:731  constructor() public {\r... */\n  callvalue\n  dup1\n  iszero\n  tag_1\n  jumpi\n  0x00\n  dup1\n  revert\ntag_1:\n  pop\n    /* \"Disney/disney.sol\":689:693  1000 */\n  0x03e8\n    /* \"Disney/disney.sol\":674:694  new ERC20Basic(1000) */\n  mload(0x40)\n  tag_4\n  swap1\n  tag_5\n  jump\t// in\ntag_4:\n  tag_6\n  swap2\n  swap1\n  tag_7\n  jump\t// in\ntag_6:\n  mload(0x40)\n  dup1\n  swap2\n  sub\n  swap1\n  0x00\n  create\n  dup1\n  iszero\n  dup1\n  iszero\n  tag_8\n  jumpi\n  returndatasize\n  0x00\n  dup1\n  returndatacopy\n  revert(0x00, returndatasize)\ntag_8:\n  pop\n    /* \"Disney/disney.sol\":666:671  token */\n  0x00\n  dup1\n    /* \"Disney/disney.sol\":666:694  token = new ERC20Basic(1000) */\n  0x0100\n  exp\n  dup2\n  sload\n  dup2\n  0xffffffffffffffffffffffffffffffffffffffff\n  mul\n  not\n  and\n  swap1\n  dup4\n  0xffffffffffffffffffffffffffffffffffffffff\n  and\n  mul\n  or\n  swap1\n  sstore\n  pop\n    /* \"Disney/disney.sol\":713:723  msg.sender */\n  caller\n    /* \"Disney/disney.sol\":705:710  owner */\n  0x01\n  0x00\n    /* \"Disney/disney.sol\":705:723  owner = msg.sender */\n  0x0100\n  exp\n  dup2\n  sload\n  dup2\n  0xffffffffffffffffffffffffffffffffffffffff\n  mul\n  not\n  and\n  swap1\n  dup4\n  0xffffffffffffffffffffffffffffffffffffffff\n  and\n  mul\n  or\n  swap1\n  sstore\n  pop\n    /* \"Disney/disney.sol\":124:4521  contract Disney {\r... */\n  jump(tag_9)\ntag_5:\n  dataSize(sub_1)\n  dup1\n  dataOffset(sub_1)\n  dup4\n  codecopy\n  add\n  swap1\n  jump\t// out\n    /* \"--CODEGEN--\":5:153   */\ntag_11:\n    /* \"--CODEGEN--\":99:147   */\n  tag_13\n    /* \"--CODEGEN--\":141:146   */\n  dup2\n    /* \"--CODEGEN--\":99:147   */\n  tag_14\n  jump\t// in\ntag_13:\n    /* \"--CODEGEN--\":94:97   */\n  dup3\n    /* \"--CODEGEN--\":87:148   */\n  mstore\n    /* \"--CODEGEN--\":81:153   */\n  pop\n  pop\n  jump\t// out\n    /* \"--CODEGEN--\":160:404   */\ntag_7:\n  0x00\n    /* \"--CODEGEN--\":298:300   */\n  0x20\n    /* \"--CODEGEN--\":287:296   */\n  dup3\n    /* \"--CODEGEN--\":283:301   */\n  add\n    /* \"--CODEGEN--\":275:301   */\n  swap1\n  pop\n    /* \"--CODEGEN--\":312:394   */\n  tag_16\n    /* \"--CODEGEN--\":391:392   */\n  0x00\n    /* \"--CODEGEN--\":380:389   */\n  dup4\n    /* \"--CODEGEN--\":376:393   */\n  add\n    /* \"--CODEGEN--\":367:373   */\n  dup5\n    /* \"--CODEGEN--\":312:394   */\n  tag_11\n  jump\t// in\ntag_16:\n    /* \"--CODEGEN--\":269:404   */\n  swap3\n  swap2\n  pop\n  pop\n  jump\t// out\n    /* \"--CODEGEN--\":411:483   */\ntag_17:\n  0x00\n    /* \"--CODEGEN--\":473:478   */\n  dup2\n    /* \"--CODEGEN--\":462:478   */\n  swap1\n  pop\n    /* \"--CODEGEN--\":456:483   */\n  swap2\n  swap1\n  pop\n  jump\t// out\n    /* \"--CODEGEN--\":490:609   */\ntag_14:\n  0x00\n    /* \"--CODEGEN--\":580:604   */\n  tag_20\n    /* \"--CODEGEN--\":598:603   */\n  dup3\n    /* \"--CODEGEN--\":580:604   */\n  tag_17\n  jump\t// in\ntag_20:\n    /* \"--CODEGEN--\":567:604   */\n  swap1\n  pop\n    /* \"--CODEGEN--\":561:609   */\n  swap2\n  swap1\n  pop\n  jump\t// out\n    /* \"Disney/disney.sol\":124:4521  contract Disney {\r... */\ntag_9:\n  dataSize(sub_0)\n  dup1\n  dataOffset(sub_0)\n  0x00\n  codecopy\n  0x00\n  return\nstop\n\nsub_0: assembly {\n        /* \"Disney/disney.sol\":124:4521  contract Disney {\r... */\n      mstore(0x40, 0x80)\n      jumpi(tag_1, lt(calldatasize, 0x04))\n      shr(0xe0, calldataload(0x00))\n      dup1\n      0xa2094159\n      gt\n      tag_11\n      jumpi\n      dup1\n      0xa2094159\n      eq\n      tag_6\n      jumpi\n      dup1\n      0xce8f2f38\n      eq\n      tag_7\n      jumpi\n      dup1\n      0xd00df296\n      eq\n      tag_8\n      jumpi\n      dup1\n      0xe33f34a0\n      eq\n      tag_9\n      jumpi\n      dup1\n      0xf7774091\n      eq\n      tag_10\n      jumpi\n      jump(tag_1)\n    tag_11:\n      dup1\n      0x2076b56c\n      eq\n      tag_2\n      jumpi\n      dup1\n      0x7c1b38bf\n      eq\n      tag_3\n      jumpi\n      dup1\n      0x8da5cb5b\n      eq\n      tag_4\n      jumpi\n      dup1\n      0x9a3174a0\n      eq\n      tag_5\n      jumpi\n    tag_1:\n      0x00\n      dup1\n      revert\n        /* \"Disney/disney.sol\":3282:3709  function NuevaAtraccion(string memory _nombreAtraccion, uint _precio) public Unicamente(msg.sender) {\r... */\n    tag_2:\n      callvalue\n      dup1\n      iszero\n      tag_12\n      jumpi\n      0x00\n      dup1\n      revert\n    tag_12:\n      pop\n      tag_13\n      0x04\n      dup1\n      calldatasize\n      sub\n      dup2\n      add\n      swap1\n      tag_14\n      swap2\n      swap1\n      tag_15\n      jump\t// in\n    tag_14:\n      tag_16\n      jump\t// in\n    tag_13:\n      stop\n        /* \"Disney/disney.sol\":2255:2382  function GenerarTokens (uint _numTokens) public Unicamente(msg.sender) {\r... */\n    tag_3:\n      callvalue\n      dup1\n      iszero\n      tag_17\n      jumpi\n      0x00\n      dup1\n      revert\n    tag_17:\n      pop\n      tag_18\n      0x04\n      dup1\n      calldatasize\n      sub\n      dup2\n      add\n      swap1\n      tag_19\n      swap2\n      swap1\n      tag_20\n      jump\t// in\n    tag_19:\n      tag_21\n      jump\t// in\n    tag_18:\n      stop\n        /* \"Disney/disney.sol\":369:397  address payable public owner */\n    tag_4:\n      callvalue\n      dup1\n      iszero\n      tag_22\n      jumpi\n      0x00\n      dup1\n      revert\n    tag_22:\n      pop\n      tag_23\n      tag_24\n      jump\t// in\n    tag_23:\n      mload(0x40)\n      tag_25\n      swap2\n      swap1\n      tag_26\n      jump\t// in\n    tag_25:\n      mload(0x40)\n      dup1\n      swap2\n      sub\n      swap1\n      return\n        /* \"Disney/disney.sol\":1937:2041  function BalanceOf() public view returns (uint) {\r... */\n    tag_5:\n      callvalue\n      dup1\n      iszero\n      tag_27\n      jumpi\n      0x00\n      dup1\n      revert\n    tag_27:\n      pop\n      tag_28\n      tag_29\n      jump\t// in\n    tag_28:\n      mload(0x40)\n      tag_30\n      swap2\n      swap1\n      tag_31\n      jump\t// in\n    tag_30:\n      mload(0x40)\n      dup1\n      swap2\n      sub\n      swap1\n      return\n        /* \"Disney/disney.sol\":3751:4501  function BajarAtraccion (string memory _nombreAtraccion) public Unicamente(msg.sender) {\r... */\n    tag_6:\n      callvalue\n      dup1\n      iszero\n      tag_32\n      jumpi\n      0x00\n      dup1\n      revert\n    tag_32:\n      pop\n      tag_33\n      0x04\n      dup1\n      calldatasize\n      sub\n      dup2\n      add\n      swap1\n      tag_34\n      swap2\n      swap1\n      tag_35\n      jump\t// in\n    tag_34:\n      tag_36\n      jump\t// in\n    tag_33:\n      stop\n        /* \"Disney/disney.sol\":581:625  mapping (address => cliente) public Clientes */\n    tag_7:\n      callvalue\n      dup1\n      iszero\n      tag_37\n      jumpi\n      0x00\n      dup1\n      revert\n    tag_37:\n      pop\n      tag_38\n      0x04\n      dup1\n      calldatasize\n      sub\n      dup2\n      add\n      swap1\n      tag_39\n      swap2\n      swap1\n      tag_40\n      jump\t// in\n    tag_39:\n      tag_41\n      jump\t// in\n    tag_38:\n      mload(0x40)\n      tag_42\n      swap2\n      swap1\n      tag_31\n      jump\t// in\n    tag_42:\n      mload(0x40)\n      dup1\n      swap2\n      sub\n      swap1\n      return\n        /* \"Disney/disney.sol\":3028:3083  mapping (string => atraccion) public MappingAtracciones */\n    tag_8:\n      callvalue\n      dup1\n      iszero\n      tag_43\n      jumpi\n      0x00\n      dup1\n      revert\n    tag_43:\n      pop\n      tag_44\n      0x04\n      dup1\n      calldatasize\n      sub\n      dup2\n      add\n      swap1\n      tag_45\n      swap2\n      swap1\n      tag_35\n      jump\t// in\n    tag_45:\n      tag_46\n      jump\t// in\n    tag_44:\n      mload(0x40)\n      tag_47\n      swap4\n      swap3\n      swap2\n      swap1\n      tag_48\n      jump\t// in\n    tag_47:\n      mload(0x40)\n      dup1\n      swap2\n      sub\n      swap1\n      return\n        /* \"Disney/disney.sol\":2088:2188  function MisTokens() public view returns(uint) {\r... */\n    tag_9:\n      callvalue\n      dup1\n      iszero\n      tag_49\n      jumpi\n      0x00\n      dup1\n      revert\n    tag_49:\n      pop\n      tag_50\n      tag_51\n      jump\t// in\n    tag_50:\n      mload(0x40)\n      tag_52\n      swap2\n      swap1\n      tag_31\n      jump\t// in\n    tag_52:\n      mload(0x40)\n      dup1\n      swap2\n      sub\n      swap1\n      return\n        /* \"Disney/disney.sol\":1114:1887  function CompraTokens(uint _numTokens) public payable {\r... */\n    tag_10:\n      tag_53\n      0x04\n      dup1\n      calldatasize\n      sub\n      dup2\n      add\n      swap1\n      tag_54\n      swap2\n      swap1\n      tag_20\n      jump\t// in\n    tag_54:\n      tag_55\n      jump\t// in\n    tag_53:\n      stop\n        /* \"Disney/disney.sol\":3282:3709  function NuevaAtraccion(string memory _nombreAtraccion, uint _precio) public Unicamente(msg.sender) {\r... */\n    tag_16:\n        /* \"Disney/disney.sol\":3370:3380  msg.sender */\n      caller\n        /* \"Disney/disney.sol\":2511:2516  owner */\n      0x01\n      0x00\n      swap1\n      sload\n      swap1\n      0x0100\n      exp\n      swap1\n      div\n      0xffffffffffffffffffffffffffffffffffffffff\n      and\n        /* \"Disney/disney.sol\":2497:2516  _direccion == owner */\n      0xffffffffffffffffffffffffffffffffffffffff\n      and\n        /* \"Disney/disney.sol\":2497:2507  _direccion */\n      dup2\n        /* \"Disney/disney.sol\":2497:2516  _direccion == owner */\n      0xffffffffffffffffffffffffffffffffffffffff\n      and\n      eq\n        /* \"Disney/disney.sol\":2488:2565  require( _direccion == owner, \"No tienes permiso para ejecutar esta acción\") */\n      tag_57\n      jumpi\n      mload(0x40)\n      0x08c379a000000000000000000000000000000000000000000000000000000000\n      dup2\n      mstore\n      0x04\n      add\n      tag_58\n      swap1\n      tag_59\n      jump\t// in\n    tag_58:\n      mload(0x40)\n      dup1\n      swap2\n      sub\n      swap1\n      revert\n    tag_57:\n        /* \"Disney/disney.sol\":3470:3512  atraccion(_nombreAtraccion, _precio, true) */\n      mload(0x40)\n      dup1\n      0x60\n      add\n      0x40\n      mstore\n      dup1\n        /* \"Disney/disney.sol\":3480:3496  _nombreAtraccion */\n      dup5\n        /* \"Disney/disney.sol\":3470:3512  atraccion(_nombreAtraccion, _precio, true) */\n      dup2\n      mstore\n      0x20\n      add\n        /* \"Disney/disney.sol\":3498:3505  _precio */\n      dup4\n        /* \"Disney/disney.sol\":3470:3512  atraccion(_nombreAtraccion, _precio, true) */\n      dup2\n      mstore\n      0x20\n      add\n        /* \"Disney/disney.sol\":3507:3511  true */\n      0x01\n        /* \"Disney/disney.sol\":3470:3512  atraccion(_nombreAtraccion, _precio, true) */\n      iszero\n      iszero\n      dup2\n      mstore\n      pop\n        /* \"Disney/disney.sol\":3431:3449  MappingAtracciones */\n      0x03\n        /* \"Disney/disney.sol\":3450:3466  _nombreAtraccion */\n      dup5\n        /* \"Disney/disney.sol\":3431:3467  MappingAtracciones[_nombreAtraccion] */\n      mload(0x40)\n      tag_61\n      swap2\n      swap1\n      tag_62\n      jump\t// in\n    tag_61:\n      swap1\n      dup2\n      mstore\n      0x20\n      add\n      mload(0x40)\n      dup1\n      swap2\n      sub\n      swap1\n      keccak256\n        /* \"Disney/disney.sol\":3431:3512  MappingAtracciones[_nombreAtraccion] = atraccion(_nombreAtraccion, _precio, true) */\n      0x00\n      dup3\n      add\n      mload\n      dup2\n      0x00\n      add\n      swap1\n      dup1\n      mload\n      swap1\n      0x20\n      add\n      swap1\n      tag_63\n      swap3\n      swap2\n      swap1\n      tag_64\n      jump\t// in\n    tag_63:\n      pop\n      0x20\n      dup3\n      add\n      mload\n      dup2\n      0x01\n      add\n      sstore\n      0x40\n      dup3\n      add\n      mload\n      dup2\n      0x02\n      add\n      exp(0x0100, 0x00)\n      dup2\n      sload\n      dup2\n      0xff\n      mul\n      not\n      and\n      swap1\n      dup4\n      iszero\n      iszero\n      mul\n      or\n      swap1\n      sstore\n      pop\n      swap1\n      pop\n      pop\n        /* \"Disney/disney.sol\":3555:3566  Atracciones */\n      0x04\n        /* \"Disney/disney.sol\":3572:3588  _nombreAtraccion */\n      dup4\n        /* \"Disney/disney.sol\":3555:3589  Atracciones.push(_nombreAtraccion) */\n      swap1\n      dup1\n      0x01\n      dup2\n      sload\n      add\n      dup1\n      dup3\n      sstore\n      dup1\n      swap2\n      pop\n      pop\n      0x01\n      swap1\n      sub\n      swap1\n      0x00\n      mstore\n      keccak256(0x00, 0x20)\n      add\n      0x00\n      swap1\n      swap2\n      swap1\n      swap2\n      swap1\n      swap2\n      pop\n      swap1\n      dup1\n      mload\n      swap1\n      0x20\n      add\n      swap1\n      tag_66\n      swap3\n      swap2\n      swap1\n      tag_64\n      jump\t// in\n    tag_66:\n      pop\n        /* \"Disney/disney.sol\":3659:3701  nueva_atraccion(_nombreAtraccion, _precio) */\n      0xfc9ecd7a6c2ca96d38526a0b9cc22f2474ff8e596dd348edaab06be905ebe378\n        /* \"Disney/disney.sol\":3675:3691  _nombreAtraccion */\n      dup4\n        /* \"Disney/disney.sol\":3693:3700  _precio */\n      dup4\n        /* \"Disney/disney.sol\":3659:3701  nueva_atraccion(_nombreAtraccion, _precio) */\n      mload(0x40)\n      tag_67\n      swap3\n      swap2\n      swap1\n      tag_68\n      jump\t// in\n    tag_67:\n      mload(0x40)\n      dup1\n      swap2\n      sub\n      swap1\n      log1\n        /* \"Disney/disney.sol\":3282:3709  function NuevaAtraccion(string memory _nombreAtraccion, uint _precio) public Unicamente(msg.sender) {\r... */\n      pop\n      pop\n      pop\n      jump\t// out\n        /* \"Disney/disney.sol\":2255:2382  function GenerarTokens (uint _numTokens) public Unicamente(msg.sender) {\r... */\n    tag_21:\n        /* \"Disney/disney.sol\":2314:2324  msg.sender */\n      caller\n        /* \"Disney/disney.sol\":2511:2516  owner */\n      0x01\n      0x00\n      swap1\n      sload\n      swap1\n      0x0100\n      exp\n      swap1\n      div\n      0xffffffffffffffffffffffffffffffffffffffff\n      and\n        /* \"Disney/disney.sol\":2497:2516  _direccion == owner */\n      0xffffffffffffffffffffffffffffffffffffffff\n      and\n        /* \"Disney/disney.sol\":2497:2507  _direccion */\n      dup2\n        /* \"Disney/disney.sol\":2497:2516  _direccion == owner */\n      0xffffffffffffffffffffffffffffffffffffffff\n      and\n      eq\n        /* \"Disney/disney.sol\":2488:2565  require( _direccion == owner, \"No tienes permiso para ejecutar esta acción\") */\n      tag_70\n      jumpi\n      mload(0x40)\n      0x08c379a000000000000000000000000000000000000000000000000000000000\n      dup2\n      mstore\n      0x04\n      add\n      tag_71\n      swap1\n      tag_59\n      jump\t// in\n    tag_71:\n      mload(0x40)\n      dup1\n      swap2\n      sub\n      swap1\n      revert\n    tag_70:\n        /* \"Disney/disney.sol\":2337:2342  token */\n      0x00\n      dup1\n      sload\n      swap1\n      0x0100\n      exp\n      swap1\n      div\n      0xffffffffffffffffffffffffffffffffffffffff\n      and\n        /* \"Disney/disney.sol\":2337:2362  token.increaseTotalSupply */\n      0xffffffffffffffffffffffffffffffffffffffff\n      and\n      0x1d43cc98\n        /* \"Disney/disney.sol\":2363:2373  _numTokens */\n      dup4\n        /* \"Disney/disney.sol\":2337:2374  token.increaseTotalSupply(_numTokens) */\n      mload(0x40)\n      dup3\n      0xffffffff\n      and\n      0xe0\n      shl\n      dup2\n      mstore\n      0x04\n      add\n      tag_73\n      swap2\n      swap1\n      tag_31\n      jump\t// in\n    tag_73:\n      0x00\n      mload(0x40)\n      dup1\n      dup4\n      sub\n      dup2\n      0x00\n      dup8\n      dup1\n      extcodesize\n      iszero\n      dup1\n      iszero\n      tag_74\n      jumpi\n      0x00\n      dup1\n      revert\n    tag_74:\n      pop\n      gas\n      call\n      iszero\n      dup1\n      iszero\n      tag_76\n      jumpi\n      returndatasize\n      0x00\n      dup1\n      returndatacopy\n      revert(0x00, returndatasize)\n    tag_76:\n      pop\n      pop\n      pop\n      pop\n        /* \"Disney/disney.sol\":2255:2382  function GenerarTokens (uint _numTokens) public Unicamente(msg.sender) {\r... */\n      pop\n      pop\n      jump\t// out\n        /* \"Disney/disney.sol\":369:397  address payable public owner */\n    tag_24:\n      0x01\n      0x00\n      swap1\n      sload\n      swap1\n      0x0100\n      exp\n      swap1\n      div\n      0xffffffffffffffffffffffffffffffffffffffff\n      and\n      dup2\n      jump\t// out\n        /* \"Disney/disney.sol\":1937:2041  function BalanceOf() public view returns (uint) {\r... */\n    tag_29:\n        /* \"Disney/disney.sol\":1979:1983  uint */\n      0x00\n        /* \"Disney/disney.sol\":2003:2008  token */\n      dup1\n      0x00\n      swap1\n      sload\n      swap1\n      0x0100\n      exp\n      swap1\n      div\n      0xffffffffffffffffffffffffffffffffffffffff\n      and\n        /* \"Disney/disney.sol\":2003:2018  token.balanceOf */\n      0xffffffffffffffffffffffffffffffffffffffff\n      and\n      0x70a08231\n        /* \"Disney/disney.sol\":2027:2031  this */\n      address\n        /* \"Disney/disney.sol\":2003:2033  token.balanceOf(address(this)) */\n      mload(0x40)\n      dup3\n      0xffffffff\n      and\n      0xe0\n      shl\n      dup2\n      mstore\n      0x04\n      add\n      tag_78\n      swap2\n      swap1\n      tag_79\n      jump\t// in\n    tag_78:\n      0x20\n      mload(0x40)\n      dup1\n      dup4\n      sub\n      dup2\n      dup7\n      dup1\n      extcodesize\n      iszero\n      dup1\n      iszero\n      tag_80\n      jumpi\n      0x00\n      dup1\n      revert\n    tag_80:\n      pop\n      gas\n      staticcall\n      iszero\n      dup1\n      iszero\n      tag_82\n      jumpi\n      returndatasize\n      0x00\n      dup1\n      returndatacopy\n      revert(0x00, returndatasize)\n    tag_82:\n      pop\n      pop\n      pop\n      pop\n      mload(0x40)\n      returndatasize\n      not(0x1f)\n      0x1f\n      dup3\n      add\n      and\n      dup3\n      add\n      dup1\n      0x40\n      mstore\n      pop\n      dup2\n      add\n      swap1\n      tag_83\n      swap2\n      swap1\n      tag_84\n      jump\t// in\n    tag_83:\n        /* \"Disney/disney.sol\":1996:2033  return token.balanceOf(address(this)) */\n      swap1\n      pop\n        /* \"Disney/disney.sol\":1937:2041  function BalanceOf() public view returns (uint) {\r... */\n      swap1\n      jump\t// out\n        /* \"Disney/disney.sol\":3751:4501  function BajarAtraccion (string memory _nombreAtraccion) public Unicamente(msg.sender) {\r... */\n    tag_36:\n        /* \"Disney/disney.sol\":3826:3836  msg.sender */\n      caller\n        /* \"Disney/disney.sol\":2511:2516  owner */\n      0x01\n      0x00\n      swap1\n      sload\n      swap1\n      0x0100\n      exp\n      swap1\n      div\n      0xffffffffffffffffffffffffffffffffffffffff\n      and\n        /* \"Disney/disney.sol\":2497:2516  _direccion == owner */\n      0xffffffffffffffffffffffffffffffffffffffff\n      and\n        /* \"Disney/disney.sol\":2497:2507  _direccion */\n      dup2\n        /* \"Disney/disney.sol\":2497:2516  _direccion == owner */\n      0xffffffffffffffffffffffffffffffffffffffff\n      and\n      eq\n        /* \"Disney/disney.sol\":2488:2565  require( _direccion == owner, \"No tienes permiso para ejecutar esta acción\") */\n      tag_86\n      jumpi\n      mload(0x40)\n      0x08c379a000000000000000000000000000000000000000000000000000000000\n      dup2\n      mstore\n      0x04\n      add\n      tag_87\n      swap1\n      tag_59\n      jump\t// in\n    tag_87:\n      mload(0x40)\n      dup1\n      swap2\n      sub\n      swap1\n      revert\n    tag_86:\n        /* \"Disney/disney.sol\":3849:3858  bool alta */\n      0x00\n        /* \"Disney/disney.sol\":3960:3966  uint i */\n      dup1\n        /* \"Disney/disney.sol\":3955:4195  for (uint i = 0; i < Atracciones.length; i++) {\r... */\n    tag_89:\n        /* \"Disney/disney.sol\":3976:3987  Atracciones */\n      0x04\n        /* \"Disney/disney.sol\":3976:3994  Atracciones.length */\n      dup1\n      sload\n      swap1\n      pop\n        /* \"Disney/disney.sol\":3972:3973  i */\n      dup2\n        /* \"Disney/disney.sol\":3972:3994  i < Atracciones.length */\n      lt\n        /* \"Disney/disney.sol\":3955:4195  for (uint i = 0; i < Atracciones.length; i++) {\r... */\n      iszero\n      tag_90\n      jumpi\n        /* \"Disney/disney.sol\":4094:4110  _nombreAtraccion */\n      dup4\n        /* \"Disney/disney.sol\":4077:4111  abi.encodePacked(_nombreAtraccion) */\n      add(0x20, mload(0x40))\n      tag_92\n      swap2\n      swap1\n      tag_62\n      jump\t// in\n    tag_92:\n      mload(0x40)\n      0x20\n      dup2\n      dup4\n      sub\n      sub\n      dup2\n      mstore\n      swap1\n      0x40\n      mstore\n        /* \"Disney/disney.sol\":4067:4112  keccak256(abi.encodePacked(_nombreAtraccion)) */\n      dup1\n      mload\n      swap1\n      0x20\n      add\n      keccak256\n        /* \"Disney/disney.sol\":4047:4058  Atracciones */\n      0x04\n        /* \"Disney/disney.sol\":4059:4060  i */\n      dup3\n        /* \"Disney/disney.sol\":4047:4061  Atracciones[i] */\n      dup2\n      sload\n      dup2\n      lt\n      tag_93\n      jumpi\n      invalid\n    tag_93:\n      swap1\n      0x00\n      mstore\n      keccak256(0x00, 0x20)\n      add\n        /* \"Disney/disney.sol\":4030:4062  abi.encodePacked(Atracciones[i]) */\n      add(0x20, mload(0x40))\n      tag_95\n      swap2\n      swap1\n      tag_96\n      jump\t// in\n    tag_95:\n      mload(0x40)\n      0x20\n      dup2\n      dup4\n      sub\n      sub\n      dup2\n      mstore\n      swap1\n      0x40\n      mstore\n        /* \"Disney/disney.sol\":4020:4063  keccak256(abi.encodePacked(Atracciones[i])) */\n      dup1\n      mload\n      swap1\n      0x20\n      add\n      keccak256\n        /* \"Disney/disney.sol\":4020:4112  keccak256(abi.encodePacked(Atracciones[i])) == keccak256(abi.encodePacked(_nombreAtraccion)) */\n      eq\n        /* \"Disney/disney.sol\":4016:4184  if (keccak256(abi.encodePacked(Atracciones[i])) == keccak256(abi.encodePacked(_nombreAtraccion))) {\r... */\n      iszero\n      tag_97\n      jumpi\n        /* \"Disney/disney.sol\":4140:4144  true */\n      0x01\n        /* \"Disney/disney.sol\":4133:4144  alta = true */\n      swap2\n      pop\n        /* \"Disney/disney.sol\":4163:4168  break */\n      jump(tag_90)\n        /* \"Disney/disney.sol\":4016:4184  if (keccak256(abi.encodePacked(Atracciones[i])) == keccak256(abi.encodePacked(_nombreAtraccion))) {\r... */\n    tag_97:\n        /* \"Disney/disney.sol\":3996:3999  i++ */\n      dup1\n      dup1\n      0x01\n      add\n      swap2\n      pop\n      pop\n        /* \"Disney/disney.sol\":3955:4195  for (uint i = 0; i < Atracciones.length; i++) {\r... */\n      jump(tag_89)\n    tag_90:\n      pop\n        /* \"Disney/disney.sol\":4213:4217  alta */\n      dup1\n        /* \"Disney/disney.sol\":4205:4303  require(alta, \"No se puede dar de baja a una atraccion que no haya sido dada de alta previamente\") */\n      tag_98\n      jumpi\n      mload(0x40)\n      0x08c379a000000000000000000000000000000000000000000000000000000000\n      dup2\n      mstore\n      0x04\n      add\n      tag_99\n      swap1\n      tag_100\n      jump\t// in\n    tag_99:\n      mload(0x40)\n      dup1\n      swap2\n      sub\n      swap1\n      revert\n    tag_98:\n        /* \"Disney/disney.sol\":4409:4414  false */\n      0x00\n        /* \"Disney/disney.sol\":4363:4381  MappingAtracciones */\n      0x03\n        /* \"Disney/disney.sol\":4382:4398  _nombreAtraccion */\n      dup5\n        /* \"Disney/disney.sol\":4363:4399  MappingAtracciones[_nombreAtraccion] */\n      mload(0x40)\n      tag_101\n      swap2\n      swap1\n      tag_62\n      jump\t// in\n    tag_101:\n      swap1\n      dup2\n      mstore\n      0x20\n      add\n      mload(0x40)\n      dup1\n      swap2\n      sub\n      swap1\n      keccak256\n        /* \"Disney/disney.sol\":4363:4406  MappingAtracciones[_nombreAtraccion].estado */\n      0x02\n      add\n      0x00\n        /* \"Disney/disney.sol\":4363:4414  MappingAtracciones[_nombreAtraccion].estado = false */\n      0x0100\n      exp\n      dup2\n      sload\n      dup2\n      0xff\n      mul\n      not\n      and\n      swap1\n      dup4\n      iszero\n      iszero\n      mul\n      or\n      swap1\n      sstore\n      pop\n        /* \"Disney/disney.sol\":4461:4493  baja_atraccion(_nombreAtraccion) */\n      0x24ba6c881728980191398db8dcfd8ed4f6aeb1c08df349d63f3b85075f3e86dd\n        /* \"Disney/disney.sol\":4476:4492  _nombreAtraccion */\n      dup4\n        /* \"Disney/disney.sol\":4461:4493  baja_atraccion(_nombreAtraccion) */\n      mload(0x40)\n      tag_102\n      swap2\n      swap1\n      tag_103\n      jump\t// in\n    tag_102:\n      mload(0x40)\n      dup1\n      swap2\n      sub\n      swap1\n      log1\n        /* \"Disney/disney.sol\":2576:2577  _ */\n      pop\n        /* \"Disney/disney.sol\":3751:4501  function BajarAtraccion (string memory _nombreAtraccion) public Unicamente(msg.sender) {\r... */\n      pop\n      pop\n      jump\t// out\n        /* \"Disney/disney.sol\":581:625  mapping (address => cliente) public Clientes */\n    tag_41:\n      mstore(0x20, 0x02)\n      dup1\n      0x00\n      mstore\n      keccak256(0x00, 0x40)\n      0x00\n      swap2\n      pop\n      swap1\n      pop\n      dup1\n      0x00\n      add\n      sload\n      swap1\n      pop\n      dup2\n      jump\t// out\n        /* \"Disney/disney.sol\":3028:3083  mapping (string => atraccion) public MappingAtracciones */\n    tag_46:\n      0x03\n      dup2\n      dup1\n      mload\n      0x20\n      dup2\n      add\n      dup3\n      add\n      dup1\n      mload\n      dup5\n      dup3\n      mstore\n      0x20\n      dup4\n      add\n      0x20\n      dup6\n      add\n      keccak256\n      dup2\n      dup4\n      mstore\n      dup1\n      swap6\n      pop\n      pop\n      pop\n      pop\n      pop\n      pop\n      0x00\n      swap2\n      pop\n      swap1\n      pop\n      dup1\n      0x00\n      add\n      dup1\n      sload\n      0x01\n      dup2\n      0x01\n      and\n      iszero\n      0x0100\n      mul\n      sub\n      and\n      0x02\n      swap1\n      div\n      dup1\n      0x1f\n      add\n      0x20\n      dup1\n      swap2\n      div\n      mul\n      0x20\n      add\n      mload(0x40)\n      swap1\n      dup2\n      add\n      0x40\n      mstore\n      dup1\n      swap3\n      swap2\n      swap1\n      dup2\n      dup2\n      mstore\n      0x20\n      add\n      dup3\n      dup1\n      sload\n      0x01\n      dup2\n      0x01\n      and\n      iszero\n      0x0100\n      mul\n      sub\n      and\n      0x02\n      swap1\n      div\n      dup1\n      iszero\n      tag_104\n      jumpi\n      dup1\n      0x1f\n      lt\n      tag_105\n      jumpi\n      0x0100\n      dup1\n      dup4\n      sload\n      div\n      mul\n      dup4\n      mstore\n      swap2\n      0x20\n      add\n      swap2\n      jump(tag_104)\n    tag_105:\n      dup3\n      add\n      swap2\n      swap1\n      0x00\n      mstore\n      keccak256(0x00, 0x20)\n      swap1\n    tag_106:\n      dup2\n      sload\n      dup2\n      mstore\n      swap1\n      0x01\n      add\n      swap1\n      0x20\n      add\n      dup1\n      dup4\n      gt\n      tag_106\n      jumpi\n      dup3\n      swap1\n      sub\n      0x1f\n      and\n      dup3\n      add\n      swap2\n    tag_104:\n      pop\n      pop\n      pop\n      pop\n      pop\n      swap1\n      dup1\n      0x01\n      add\n      sload\n      swap1\n      dup1\n      0x02\n      add\n      0x00\n      swap1\n      sload\n      swap1\n      0x0100\n      exp\n      swap1\n      div\n      0xff\n      and\n      swap1\n      pop\n      dup4\n      jump\t// out\n        /* \"Disney/disney.sol\":2088:2188  function MisTokens() public view returns(uint) {\r... */\n    tag_51:\n        /* \"Disney/disney.sol\":2129:2133  uint */\n      0x00\n        /* \"Disney/disney.sol\":2153:2158  token */\n      dup1\n      0x00\n      swap1\n      sload\n      swap1\n      0x0100\n      exp\n      swap1\n      div\n      0xffffffffffffffffffffffffffffffffffffffff\n      and\n        /* \"Disney/disney.sol\":2153:2168  token.balanceOf */\n      0xffffffffffffffffffffffffffffffffffffffff\n      and\n      0x70a08231\n        /* \"Disney/disney.sol\":2169:2179  msg.sender */\n      caller\n        /* \"Disney/disney.sol\":2153:2180  token.balanceOf(msg.sender) */\n      mload(0x40)\n      dup3\n      0xffffffff\n      and\n      0xe0\n      shl\n      dup2\n      mstore\n      0x04\n      add\n      tag_108\n      swap2\n      swap1\n      tag_109\n      jump\t// in\n    tag_108:\n      0x20\n      mload(0x40)\n      dup1\n      dup4\n      sub\n      dup2\n      dup7\n      dup1\n      extcodesize\n      iszero\n      dup1\n      iszero\n      tag_110\n      jumpi\n      0x00\n      dup1\n      revert\n    tag_110:\n      pop\n      gas\n      staticcall\n      iszero\n      dup1\n      iszero\n      tag_112\n      jumpi\n      returndatasize\n      0x00\n      dup1\n      returndatacopy\n      revert(0x00, returndatasize)\n    tag_112:\n      pop\n      pop\n      pop\n      pop\n      mload(0x40)\n      returndatasize\n      not(0x1f)\n      0x1f\n      dup3\n      add\n      and\n      dup3\n      add\n      dup1\n      0x40\n      mstore\n      pop\n      dup2\n      add\n      swap1\n      tag_113\n      swap2\n      swap1\n      tag_84\n      jump\t// in\n    tag_113:\n        /* \"Disney/disney.sol\":2146:2180  return token.balanceOf(msg.sender) */\n      swap1\n      pop\n        /* \"Disney/disney.sol\":2088:2188  function MisTokens() public view returns(uint) {\r... */\n      swap1\n      jump\t// out\n        /* \"Disney/disney.sol\":1114:1887  function CompraTokens(uint _numTokens) public payable {\r... */\n    tag_55:\n        /* \"Disney/disney.sol\":1233:1243  uint coste */\n      0x00\n        /* \"Disney/disney.sol\":1246:1270  PrecioTokens(_numTokens) */\n      tag_115\n        /* \"Disney/disney.sol\":1259:1269  _numTokens */\n      dup3\n        /* \"Disney/disney.sol\":1246:1258  PrecioTokens */\n      tag_116\n        /* \"Disney/disney.sol\":1246:1270  PrecioTokens(_numTokens) */\n      jump\t// in\n    tag_115:\n        /* \"Disney/disney.sol\":1233:1270  uint coste = PrecioTokens(_numTokens) */\n      swap1\n      pop\n        /* \"Disney/disney.sol\":1362:1367  coste */\n      dup1\n        /* \"Disney/disney.sol\":1349:1358  msg.value */\n      callvalue\n        /* \"Disney/disney.sol\":1349:1367  msg.value >= coste */\n      lt\n      iszero\n        /* \"Disney/disney.sol\":1340:1402  require (msg.value >= coste, \"Cantidad de ether insuficiente\") */\n      tag_117\n      jumpi\n      mload(0x40)\n      0x08c379a000000000000000000000000000000000000000000000000000000000\n      dup2\n      mstore\n      0x04\n      add\n      tag_118\n      swap1\n      tag_119\n      jump\t// in\n    tag_118:\n      mload(0x40)\n      dup1\n      swap2\n      sub\n      swap1\n      revert\n    tag_117:\n        /* \"Disney/disney.sol\":1511:1521  _numTokens */\n      dup2\n        /* \"Disney/disney.sol\":1496:1507  BalanceOf() */\n      tag_120\n        /* \"Disney/disney.sol\":1496:1505  BalanceOf */\n      tag_29\n        /* \"Disney/disney.sol\":1496:1507  BalanceOf() */\n      jump\t// in\n    tag_120:\n        /* \"Disney/disney.sol\":1496:1521  BalanceOf() >= _numTokens */\n      lt\n      iszero\n        /* \"Disney/disney.sol\":1487:1558  require (BalanceOf() >= _numTokens, \"Cantidad de tokens insuficientes\") */\n      tag_121\n      jumpi\n      mload(0x40)\n      0x08c379a000000000000000000000000000000000000000000000000000000000\n      dup2\n      mstore\n      0x04\n      add\n      tag_122\n      swap1\n      tag_123\n      jump\t// in\n    tag_122:\n      mload(0x40)\n      dup1\n      swap2\n      sub\n      swap1\n      revert\n    tag_121:\n        /* \"Disney/disney.sol\":1625:1635  msg.sender */\n      caller\n        /* \"Disney/disney.sol\":1625:1644  msg.sender.transfer */\n      0xffffffffffffffffffffffffffffffffffffffff\n      and\n        /* \"Disney/disney.sol\":1625:1663  msg.sender.transfer(msg.value - coste) */\n      0x08fc\n        /* \"Disney/disney.sol\":1657:1662  coste */\n      dup3\n        /* \"Disney/disney.sol\":1645:1654  msg.value */\n      callvalue\n        /* \"Disney/disney.sol\":1645:1662  msg.value - coste */\n      sub\n        /* \"Disney/disney.sol\":1625:1663  msg.sender.transfer(msg.value - coste) */\n      swap1\n      dup2\n      iszero\n      mul\n      swap1\n      mload(0x40)\n      0x00\n      mload(0x40)\n      dup1\n      dup4\n      sub\n      dup2\n      dup6\n      dup9\n      dup9\n      call\n      swap4\n      pop\n      pop\n      pop\n      pop\n      iszero\n      dup1\n      iszero\n      tag_125\n      jumpi\n      returndatasize\n      0x00\n      dup1\n      returndatacopy\n      revert(0x00, returndatasize)\n    tag_125:\n      pop\n        /* \"Disney/disney.sol\":1718:1723  token */\n      0x00\n      dup1\n      sload\n      swap1\n      0x0100\n      exp\n      swap1\n      div\n      0xffffffffffffffffffffffffffffffffffffffff\n      and\n        /* \"Disney/disney.sol\":1718:1732  token.transfer */\n      0xffffffffffffffffffffffffffffffffffffffff\n      and\n      0xa9059cbb\n        /* \"Disney/disney.sol\":1733:1743  msg.sender */\n      caller\n        /* \"Disney/disney.sol\":1745:1755  _numTokens */\n      dup5\n        /* \"Disney/disney.sol\":1718:1756  token.transfer(msg.sender, _numTokens) */\n      mload(0x40)\n      dup4\n      0xffffffff\n      and\n      0xe0\n      shl\n      dup2\n      mstore\n      0x04\n      add\n      tag_126\n      swap3\n      swap2\n      swap1\n      tag_127\n      jump\t// in\n    tag_126:\n      0x20\n      mload(0x40)\n      dup1\n      dup4\n      sub\n      dup2\n      0x00\n      dup8\n      dup1\n      extcodesize\n      iszero\n      dup1\n      iszero\n      tag_128\n      jumpi\n      0x00\n      dup1\n      revert\n    tag_128:\n      pop\n      gas\n      call\n      iszero\n      dup1\n      iszero\n      tag_130\n      jumpi\n      returndatasize\n      0x00\n      dup1\n      returndatacopy\n      revert(0x00, returndatasize)\n    tag_130:\n      pop\n      pop\n      pop\n      pop\n      mload(0x40)\n      returndatasize\n      not(0x1f)\n      0x1f\n      dup3\n      add\n      and\n      dup3\n      add\n      dup1\n      0x40\n      mstore\n      pop\n      dup2\n      add\n      swap1\n      tag_131\n      swap2\n      swap1\n      tag_132\n      jump\t// in\n    tag_131:\n      pop\n        /* \"Disney/disney.sol\":1869:1879  _numTokens */\n      dup2\n        /* \"Disney/disney.sol\":1830:1838  Clientes */\n      0x02\n        /* \"Disney/disney.sol\":1830:1850  Clientes[msg.sender] */\n      0x00\n        /* \"Disney/disney.sol\":1839:1849  msg.sender */\n      caller\n        /* \"Disney/disney.sol\":1830:1850  Clientes[msg.sender] */\n      0xffffffffffffffffffffffffffffffffffffffff\n      and\n      0xffffffffffffffffffffffffffffffffffffffff\n      and\n      dup2\n      mstore\n      0x20\n      add\n      swap1\n      dup2\n      mstore\n      0x20\n      add\n      0x00\n      keccak256\n        /* \"Disney/disney.sol\":1830:1865  Clientes[msg.sender].token_comprado */\n      0x00\n      add\n      0x00\n        /* \"Disney/disney.sol\":1830:1879  Clientes[msg.sender].token_comprado += _numTokens */\n      dup3\n      dup3\n      sload\n      add\n      swap3\n      pop\n      pop\n      dup2\n      swap1\n      sstore\n      pop\n        /* \"Disney/disney.sol\":1114:1887  function CompraTokens(uint _numTokens) public payable {\r... */\n      pop\n      pop\n      jump\t// out\n        /* \"Disney/disney.sol\":919:1060  function PrecioTokens(uint _numTokens) internal pure returns (uint) {\r... */\n    tag_116:\n        /* \"Disney/disney.sol\":981:985  uint */\n      0x00\n        /* \"Disney/disney.sol\":1044:1051  1 ether */\n      0x0de0b6b3a7640000\n        /* \"Disney/disney.sol\":1030:1040  _numTokens */\n      dup3\n        /* \"Disney/disney.sol\":1030:1052  _numTokens * (1 ether) */\n      mul\n        /* \"Disney/disney.sol\":1023:1052  return _numTokens * (1 ether) */\n      swap1\n      pop\n        /* \"Disney/disney.sol\":919:1060  function PrecioTokens(uint _numTokens) internal pure returns (uint) {\r... */\n      swap2\n      swap1\n      pop\n      jump\t// out\n    tag_64:\n      dup3\n      dup1\n      sload\n      0x01\n      dup2\n      0x01\n      and\n      iszero\n      0x0100\n      mul\n      sub\n      and\n      0x02\n      swap1\n      div\n      swap1\n      0x00\n      mstore\n      keccak256(0x00, 0x20)\n      swap1\n      0x1f\n      add\n      0x20\n      swap1\n      div\n      dup2\n      add\n      swap3\n      dup3\n      0x1f\n      lt\n      tag_135\n      jumpi\n      dup1\n      mload\n      not(0xff)\n      and\n      dup4\n      dup1\n      add\n      or\n      dup6\n      sstore\n      jump(tag_134)\n    tag_135:\n      dup3\n      dup1\n      add\n      0x01\n      add\n      dup6\n      sstore\n      dup3\n      iszero\n      tag_134\n      jumpi\n      swap2\n      dup3\n      add\n    tag_136:\n      dup3\n      dup2\n      gt\n      iszero\n      tag_137\n      jumpi\n      dup3\n      mload\n      dup3\n      sstore\n      swap2\n      0x20\n      add\n      swap2\n      swap1\n      0x01\n      add\n      swap1\n      jump(tag_136)\n    tag_137:\n    tag_134:\n      pop\n      swap1\n      pop\n      tag_138\n      swap2\n      swap1\n      tag_139\n      jump\t// in\n    tag_138:\n      pop\n      swap1\n      jump\t// out\n    tag_139:\n    tag_140:\n      dup1\n      dup3\n      gt\n      iszero\n      tag_141\n      jumpi\n      0x00\n      dup2\n      0x00\n      swap1\n      sstore\n      pop\n      0x01\n      add\n      jump(tag_140)\n    tag_141:\n      pop\n      swap1\n      jump\t// out\n        /* \"--CODEGEN--\":5:135   */\n    tag_143:\n      0x00\n        /* \"--CODEGEN--\":85:91   */\n      dup2\n        /* \"--CODEGEN--\":72:92   */\n      calldataload\n        /* \"--CODEGEN--\":63:92   */\n      swap1\n      pop\n        /* \"--CODEGEN--\":97:130   */\n      tag_145\n        /* \"--CODEGEN--\":124:129   */\n      dup2\n        /* \"--CODEGEN--\":97:130   */\n      tag_146\n      jump\t// in\n    tag_145:\n        /* \"--CODEGEN--\":57:135   */\n      swap3\n      swap2\n      pop\n      pop\n      jump\t// out\n        /* \"--CODEGEN--\":142:270   */\n    tag_147:\n      0x00\n        /* \"--CODEGEN--\":223:229   */\n      dup2\n        /* \"--CODEGEN--\":217:230   */\n      mload\n        /* \"--CODEGEN--\":208:230   */\n      swap1\n      pop\n        /* \"--CODEGEN--\":235:265   */\n      tag_149\n        /* \"--CODEGEN--\":259:264   */\n      dup2\n        /* \"--CODEGEN--\":235:265   */\n      tag_150\n      jump\t// in\n    tag_149:\n        /* \"--CODEGEN--\":202:270   */\n      swap3\n      swap2\n      pop\n      pop\n      jump\t// out\n        /* \"--CODEGEN--\":278:720   */\n    tag_151:\n      0x00\n        /* \"--CODEGEN--\":380:383   */\n      dup3\n        /* \"--CODEGEN--\":373:377   */\n      0x1f\n        /* \"--CODEGEN--\":365:371   */\n      dup4\n        /* \"--CODEGEN--\":361:378   */\n      add\n        /* \"--CODEGEN--\":357:384   */\n      slt\n        /* \"--CODEGEN--\":347:349   */\n      tag_153\n      jumpi\n        /* \"--CODEGEN--\":398:399   */\n      0x00\n        /* \"--CODEGEN--\":395:396   */\n      dup1\n        /* \"--CODEGEN--\":388:400   */\n      revert\n        /* \"--CODEGEN--\":347:349   */\n    tag_153:\n        /* \"--CODEGEN--\":435:441   */\n      dup2\n        /* \"--CODEGEN--\":422:442   */\n      calldataload\n        /* \"--CODEGEN--\":457:522   */\n      tag_154\n        /* \"--CODEGEN--\":472:521   */\n      tag_155\n        /* \"--CODEGEN--\":514:520   */\n      dup3\n        /* \"--CODEGEN--\":472:521   */\n      tag_156\n      jump\t// in\n    tag_155:\n        /* \"--CODEGEN--\":457:522   */\n      tag_157\n      jump\t// in\n    tag_154:\n        /* \"--CODEGEN--\":448:522   */\n      swap2\n      pop\n        /* \"--CODEGEN--\":542:548   */\n      dup1\n        /* \"--CODEGEN--\":535:540   */\n      dup3\n        /* \"--CODEGEN--\":528:549   */\n      mstore\n        /* \"--CODEGEN--\":578:582   */\n      0x20\n        /* \"--CODEGEN--\":570:576   */\n      dup4\n        /* \"--CODEGEN--\":566:583   */\n      add\n        /* \"--CODEGEN--\":611:615   */\n      0x20\n        /* \"--CODEGEN--\":604:609   */\n      dup4\n        /* \"--CODEGEN--\":600:616   */\n      add\n        /* \"--CODEGEN--\":646:649   */\n      dup6\n        /* \"--CODEGEN--\":637:643   */\n      dup4\n        /* \"--CODEGEN--\":632:635   */\n      dup4\n        /* \"--CODEGEN--\":628:644   */\n      add\n        /* \"--CODEGEN--\":625:650   */\n      gt\n        /* \"--CODEGEN--\":622:624   */\n      iszero\n      tag_158\n      jumpi\n        /* \"--CODEGEN--\":663:664   */\n      0x00\n        /* \"--CODEGEN--\":660:661   */\n      dup1\n        /* \"--CODEGEN--\":653:665   */\n      revert\n        /* \"--CODEGEN--\":622:624   */\n    tag_158:\n        /* \"--CODEGEN--\":673:714   */\n      tag_159\n        /* \"--CODEGEN--\":707:713   */\n      dup4\n        /* \"--CODEGEN--\":702:705   */\n      dup3\n        /* \"--CODEGEN--\":697:700   */\n      dup5\n        /* \"--CODEGEN--\":673:714   */\n      tag_160\n      jump\t// in\n    tag_159:\n        /* \"--CODEGEN--\":340:720   */\n      pop\n      pop\n      pop\n      swap3\n      swap2\n      pop\n      pop\n      jump\t// out\n        /* \"--CODEGEN--\":728:858   */\n    tag_161:\n      0x00\n        /* \"--CODEGEN--\":808:814   */\n      dup2\n        /* \"--CODEGEN--\":795:815   */\n      calldataload\n        /* \"--CODEGEN--\":786:815   */\n      swap1\n      pop\n        /* \"--CODEGEN--\":820:853   */\n      tag_163\n        /* \"--CODEGEN--\":847:852   */\n      dup2\n        /* \"--CODEGEN--\":820:853   */\n      tag_164\n      jump\t// in\n    tag_163:\n        /* \"--CODEGEN--\":780:858   */\n      swap3\n      swap2\n      pop\n      pop\n      jump\t// out\n        /* \"--CODEGEN--\":865:999   */\n    tag_165:\n      0x00\n        /* \"--CODEGEN--\":949:955   */\n      dup2\n        /* \"--CODEGEN--\":943:956   */\n      mload\n        /* \"--CODEGEN--\":934:956   */\n      swap1\n      pop\n        /* \"--CODEGEN--\":961:994   */\n      tag_167\n        /* \"--CODEGEN--\":988:993   */\n      dup2\n        /* \"--CODEGEN--\":961:994   */\n      tag_164\n      jump\t// in\n    tag_167:\n        /* \"--CODEGEN--\":928:999   */\n      swap3\n      swap2\n      pop\n      pop\n      jump\t// out\n        /* \"--CODEGEN--\":1006:1247   */\n    tag_40:\n      0x00\n        /* \"--CODEGEN--\":1110:1112   */\n      0x20\n        /* \"--CODEGEN--\":1098:1107   */\n      dup3\n        /* \"--CODEGEN--\":1089:1096   */\n      dup5\n        /* \"--CODEGEN--\":1085:1108   */\n      sub\n        /* \"--CODEGEN--\":1081:1113   */\n      slt\n        /* \"--CODEGEN--\":1078:1080   */\n      iszero\n      tag_169\n      jumpi\n        /* \"--CODEGEN--\":1126:1127   */\n      0x00\n        /* \"--CODEGEN--\":1123:1124   */\n      dup1\n        /* \"--CODEGEN--\":1116:1128   */\n      revert\n        /* \"--CODEGEN--\":1078:1080   */\n    tag_169:\n        /* \"--CODEGEN--\":1161:1162   */\n      0x00\n        /* \"--CODEGEN--\":1178:1231   */\n      tag_170\n        /* \"--CODEGEN--\":1223:1230   */\n      dup5\n        /* \"--CODEGEN--\":1214:1220   */\n      dup3\n        /* \"--CODEGEN--\":1203:1212   */\n      dup6\n        /* \"--CODEGEN--\":1199:1221   */\n      add\n        /* \"--CODEGEN--\":1178:1231   */\n      tag_143\n      jump\t// in\n    tag_170:\n        /* \"--CODEGEN--\":1168:1231   */\n      swap2\n      pop\n        /* \"--CODEGEN--\":1140:1237   */\n      pop\n        /* \"--CODEGEN--\":1072:1247   */\n      swap3\n      swap2\n      pop\n      pop\n      jump\t// out\n        /* \"--CODEGEN--\":1254:1511   */\n    tag_132:\n      0x00\n        /* \"--CODEGEN--\":1366:1368   */\n      0x20\n        /* \"--CODEGEN--\":1354:1363   */\n      dup3\n        /* \"--CODEGEN--\":1345:1352   */\n      dup5\n        /* \"--CODEGEN--\":1341:1364   */\n      sub\n        /* \"--CODEGEN--\":1337:1369   */\n      slt\n        /* \"--CODEGEN--\":1334:1336   */\n      iszero\n      tag_172\n      jumpi\n        /* \"--CODEGEN--\":1382:1383   */\n      0x00\n        /* \"--CODEGEN--\":1379:1380   */\n      dup1\n        /* \"--CODEGEN--\":1372:1384   */\n      revert\n        /* \"--CODEGEN--\":1334:1336   */\n    tag_172:\n        /* \"--CODEGEN--\":1417:1418   */\n      0x00\n        /* \"--CODEGEN--\":1434:1495   */\n      tag_173\n        /* \"--CODEGEN--\":1487:1494   */\n      dup5\n        /* \"--CODEGEN--\":1478:1484   */\n      dup3\n        /* \"--CODEGEN--\":1467:1476   */\n      dup6\n        /* \"--CODEGEN--\":1463:1485   */\n      add\n        /* \"--CODEGEN--\":1434:1495   */\n      tag_147\n      jump\t// in\n    tag_173:\n        /* \"--CODEGEN--\":1424:1495   */\n      swap2\n      pop\n        /* \"--CODEGEN--\":1396:1501   */\n      pop\n        /* \"--CODEGEN--\":1328:1511   */\n      swap3\n      swap2\n      pop\n      pop\n      jump\t// out\n        /* \"--CODEGEN--\":1518:1865   */\n    tag_35:\n      0x00\n        /* \"--CODEGEN--\":1632:1634   */\n      0x20\n        /* \"--CODEGEN--\":1620:1629   */\n      dup3\n        /* \"--CODEGEN--\":1611:1618   */\n      dup5\n        /* \"--CODEGEN--\":1607:1630   */\n      sub\n        /* \"--CODEGEN--\":1603:1635   */\n      slt\n        /* \"--CODEGEN--\":1600:1602   */\n      iszero\n      tag_175\n      jumpi\n        /* \"--CODEGEN--\":1648:1649   */\n      0x00\n        /* \"--CODEGEN--\":1645:1646   */\n      dup1\n        /* \"--CODEGEN--\":1638:1650   */\n      revert\n        /* \"--CODEGEN--\":1600:1602   */\n    tag_175:\n        /* \"--CODEGEN--\":1711:1712   */\n      0x00\n        /* \"--CODEGEN--\":1700:1709   */\n      dup3\n        /* \"--CODEGEN--\":1696:1713   */\n      add\n        /* \"--CODEGEN--\":1683:1714   */\n      calldataload\n        /* \"--CODEGEN--\":1734:1752   */\n      0xffffffffffffffff\n        /* \"--CODEGEN--\":1726:1732   */\n      dup2\n        /* \"--CODEGEN--\":1723:1753   */\n      gt\n        /* \"--CODEGEN--\":1720:1722   */\n      iszero\n      tag_176\n      jumpi\n        /* \"--CODEGEN--\":1766:1767   */\n      0x00\n        /* \"--CODEGEN--\":1763:1764   */\n      dup1\n        /* \"--CODEGEN--\":1756:1768   */\n      revert\n        /* \"--CODEGEN--\":1720:1722   */\n    tag_176:\n        /* \"--CODEGEN--\":1786:1849   */\n      tag_177\n        /* \"--CODEGEN--\":1841:1848   */\n      dup5\n        /* \"--CODEGEN--\":1832:1838   */\n      dup3\n        /* \"--CODEGEN--\":1821:1830   */\n      dup6\n        /* \"--CODEGEN--\":1817:1839   */\n      add\n        /* \"--CODEGEN--\":1786:1849   */\n      tag_151\n      jump\t// in\n    tag_177:\n        /* \"--CODEGEN--\":1776:1849   */\n      swap2\n      pop\n        /* \"--CODEGEN--\":1662:1855   */\n      pop\n        /* \"--CODEGEN--\":1594:1865   */\n      swap3\n      swap2\n      pop\n      pop\n      jump\t// out\n        /* \"--CODEGEN--\":1872:2344   */\n    tag_15:\n      0x00\n      dup1\n        /* \"--CODEGEN--\":2003:2005   */\n      0x40\n        /* \"--CODEGEN--\":1991:2000   */\n      dup4\n        /* \"--CODEGEN--\":1982:1989   */\n      dup6\n        /* \"--CODEGEN--\":1978:2001   */\n      sub\n        /* \"--CODEGEN--\":1974:2006   */\n      slt\n        /* \"--CODEGEN--\":1971:1973   */\n      iszero\n      tag_179\n      jumpi\n        /* \"--CODEGEN--\":2019:2020   */\n      0x00\n        /* \"--CODEGEN--\":2016:2017   */\n      dup1\n        /* \"--CODEGEN--\":2009:2021   */\n      revert\n        /* \"--CODEGEN--\":1971:1973   */\n    tag_179:\n        /* \"--CODEGEN--\":2082:2083   */\n      0x00\n        /* \"--CODEGEN--\":2071:2080   */\n      dup4\n        /* \"--CODEGEN--\":2067:2084   */\n      add\n        /* \"--CODEGEN--\":2054:2085   */\n      calldataload\n        /* \"--CODEGEN--\":2105:2123   */\n      0xffffffffffffffff\n        /* \"--CODEGEN--\":2097:2103   */\n      dup2\n        /* \"--CODEGEN--\":2094:2124   */\n      gt\n        /* \"--CODEGEN--\":2091:2093   */\n      iszero\n      tag_180\n      jumpi\n        /* \"--CODEGEN--\":2137:2138   */\n      0x00\n        /* \"--CODEGEN--\":2134:2135   */\n      dup1\n        /* \"--CODEGEN--\":2127:2139   */\n      revert\n        /* \"--CODEGEN--\":2091:2093   */\n    tag_180:\n        /* \"--CODEGEN--\":2157:2220   */\n      tag_181\n        /* \"--CODEGEN--\":2212:2219   */\n      dup6\n        /* \"--CODEGEN--\":2203:2209   */\n      dup3\n        /* \"--CODEGEN--\":2192:2201   */\n      dup7\n        /* \"--CODEGEN--\":2188:2210   */\n      add\n        /* \"--CODEGEN--\":2157:2220   */\n      tag_151\n      jump\t// in\n    tag_181:\n        /* \"--CODEGEN--\":2147:2220   */\n      swap3\n      pop\n        /* \"--CODEGEN--\":2033:2226   */\n      pop\n        /* \"--CODEGEN--\":2257:2259   */\n      0x20\n        /* \"--CODEGEN--\":2275:2328   */\n      tag_182\n        /* \"--CODEGEN--\":2320:2327   */\n      dup6\n        /* \"--CODEGEN--\":2311:2317   */\n      dup3\n        /* \"--CODEGEN--\":2300:2309   */\n      dup7\n        /* \"--CODEGEN--\":2296:2318   */\n      add\n        /* \"--CODEGEN--\":2275:2328   */\n      tag_161\n      jump\t// in\n    tag_182:\n        /* \"--CODEGEN--\":2265:2328   */\n      swap2\n      pop\n        /* \"--CODEGEN--\":2236:2334   */\n      pop\n        /* \"--CODEGEN--\":1965:2344   */\n      swap3\n      pop\n      swap3\n      swap1\n      pop\n      jump\t// out\n        /* \"--CODEGEN--\":2351:2592   */\n    tag_20:\n      0x00\n        /* \"--CODEGEN--\":2455:2457   */\n      0x20\n        /* \"--CODEGEN--\":2443:2452   */\n      dup3\n        /* \"--CODEGEN--\":2434:2441   */\n      dup5\n        /* \"--CODEGEN--\":2430:2453   */\n      sub\n        /* \"--CODEGEN--\":2426:2458   */\n      slt\n        /* \"--CODEGEN--\":2423:2425   */\n      iszero\n      tag_184\n      jumpi\n        /* \"--CODEGEN--\":2471:2472   */\n      0x00\n        /* \"--CODEGEN--\":2468:2469   */\n      dup1\n        /* \"--CODEGEN--\":2461:2473   */\n      revert\n        /* \"--CODEGEN--\":2423:2425   */\n    tag_184:\n        /* \"--CODEGEN--\":2506:2507   */\n      0x00\n        /* \"--CODEGEN--\":2523:2576   */\n      tag_185\n        /* \"--CODEGEN--\":2568:2575   */\n      dup5\n        /* \"--CODEGEN--\":2559:2565   */\n      dup3\n        /* \"--CODEGEN--\":2548:2557   */\n      dup6\n        /* \"--CODEGEN--\":2544:2566   */\n      add\n        /* \"--CODEGEN--\":2523:2576   */\n      tag_161\n      jump\t// in\n    tag_185:\n        /* \"--CODEGEN--\":2513:2576   */\n      swap2\n      pop\n        /* \"--CODEGEN--\":2485:2582   */\n      pop\n        /* \"--CODEGEN--\":2417:2592   */\n      swap3\n      swap2\n      pop\n      pop\n      jump\t// out\n        /* \"--CODEGEN--\":2599:2862   */\n    tag_84:\n      0x00\n        /* \"--CODEGEN--\":2714:2716   */\n      0x20\n        /* \"--CODEGEN--\":2702:2711   */\n      dup3\n        /* \"--CODEGEN--\":2693:2700   */\n      dup5\n        /* \"--CODEGEN--\":2689:2712   */\n      sub\n        /* \"--CODEGEN--\":2685:2717   */\n      slt\n        /* \"--CODEGEN--\":2682:2684   */\n      iszero\n      tag_187\n      jumpi\n        /* \"--CODEGEN--\":2730:2731   */\n      0x00\n        /* \"--CODEGEN--\":2727:2728   */\n      dup1\n        /* \"--CODEGEN--\":2720:2732   */\n      revert\n        /* \"--CODEGEN--\":2682:2684   */\n    tag_187:\n        /* \"--CODEGEN--\":2765:2766   */\n      0x00\n        /* \"--CODEGEN--\":2782:2846   */\n      tag_188\n        /* \"--CODEGEN--\":2838:2845   */\n      dup5\n        /* \"--CODEGEN--\":2829:2835   */\n      dup3\n        /* \"--CODEGEN--\":2818:2827   */\n      dup6\n        /* \"--CODEGEN--\":2814:2836   */\n      add\n        /* \"--CODEGEN--\":2782:2846   */\n      tag_165\n      jump\t// in\n    tag_188:\n        /* \"--CODEGEN--\":2772:2846   */\n      swap2\n      pop\n        /* \"--CODEGEN--\":2744:2852   */\n      pop\n        /* \"--CODEGEN--\":2676:2862   */\n      swap3\n      swap2\n      pop\n      pop\n      jump\t// out\n        /* \"--CODEGEN--\":2869:3011   */\n    tag_189:\n        /* \"--CODEGEN--\":2960:3005   */\n      tag_191\n        /* \"--CODEGEN--\":2999:3004   */\n      dup2\n        /* \"--CODEGEN--\":2960:3005   */\n      tag_192\n      jump\t// in\n    tag_191:\n        /* \"--CODEGEN--\":2955:2958   */\n      dup3\n        /* \"--CODEGEN--\":2948:3006   */\n      mstore\n        /* \"--CODEGEN--\":2942:3011   */\n      pop\n      pop\n      jump\t// out\n        /* \"--CODEGEN--\":3018:3155   */\n    tag_193:\n        /* \"--CODEGEN--\":3117:3149   */\n      tag_195\n        /* \"--CODEGEN--\":3143:3148   */\n      dup2\n        /* \"--CODEGEN--\":3117:3149   */\n      tag_196\n      jump\t// in\n    tag_195:\n        /* \"--CODEGEN--\":3112:3115   */\n      dup3\n        /* \"--CODEGEN--\":3105:3150   */\n      mstore\n        /* \"--CODEGEN--\":3099:3155   */\n      pop\n      pop\n      jump\t// out\n        /* \"--CODEGEN--\":3162:3275   */\n    tag_197:\n        /* \"--CODEGEN--\":3245:3269   */\n      tag_199\n        /* \"--CODEGEN--\":3263:3268   */\n      dup2\n        /* \"--CODEGEN--\":3245:3269   */\n      tag_200\n      jump\t// in\n    tag_199:\n        /* \"--CODEGEN--\":3240:3243   */\n      dup3\n        /* \"--CODEGEN--\":3233:3270   */\n      mstore\n        /* \"--CODEGEN--\":3227:3275   */\n      pop\n      pop\n      jump\t// out\n        /* \"--CODEGEN--\":3282:3386   */\n    tag_201:\n        /* \"--CODEGEN--\":3359:3380   */\n      tag_203\n        /* \"--CODEGEN--\":3374:3379   */\n      dup2\n        /* \"--CODEGEN--\":3359:3380   */\n      tag_204\n      jump\t// in\n    tag_203:\n        /* \"--CODEGEN--\":3354:3357   */\n      dup3\n        /* \"--CODEGEN--\":3347:3381   */\n      mstore\n        /* \"--CODEGEN--\":3341:3386   */\n      pop\n      pop\n      jump\t// out\n        /* \"--CODEGEN--\":3393:3740   */\n    tag_205:\n      0x00\n        /* \"--CODEGEN--\":3505:3544   */\n      tag_207\n        /* \"--CODEGEN--\":3538:3543   */\n      dup3\n        /* \"--CODEGEN--\":3505:3544   */\n      tag_208\n      jump\t// in\n    tag_207:\n        /* \"--CODEGEN--\":3556:3627   */\n      tag_209\n        /* \"--CODEGEN--\":3620:3626   */\n      dup2\n        /* \"--CODEGEN--\":3615:3618   */\n      dup6\n        /* \"--CODEGEN--\":3556:3627   */\n      tag_210\n      jump\t// in\n    tag_209:\n        /* \"--CODEGEN--\":3549:3627   */\n      swap4\n      pop\n        /* \"--CODEGEN--\":3632:3684   */\n      tag_211\n        /* \"--CODEGEN--\":3677:3683   */\n      dup2\n        /* \"--CODEGEN--\":3672:3675   */\n      dup6\n        /* \"--CODEGEN--\":3665:3669   */\n      0x20\n        /* \"--CODEGEN--\":3658:3663   */\n      dup7\n        /* \"--CODEGEN--\":3654:3670   */\n      add\n        /* \"--CODEGEN--\":3632:3684   */\n      tag_212\n      jump\t// in\n    tag_211:\n        /* \"--CODEGEN--\":3705:3734   */\n      tag_213\n        /* \"--CODEGEN--\":3727:3733   */\n      dup2\n        /* \"--CODEGEN--\":3705:3734   */\n      tag_214\n      jump\t// in\n    tag_213:\n        /* \"--CODEGEN--\":3700:3703   */\n      dup5\n        /* \"--CODEGEN--\":3696:3735   */\n      add\n        /* \"--CODEGEN--\":3689:3735   */\n      swap2\n      pop\n        /* \"--CODEGEN--\":3485:3740   */\n      pop\n      swap3\n      swap2\n      pop\n      pop\n      jump\t// out\n        /* \"--CODEGEN--\":3747:4107   */\n    tag_215:\n      0x00\n        /* \"--CODEGEN--\":3877:3916   */\n      tag_217\n        /* \"--CODEGEN--\":3910:3915   */\n      dup3\n        /* \"--CODEGEN--\":3877:3916   */\n      tag_208\n      jump\t// in\n    tag_217:\n        /* \"--CODEGEN--\":3928:4017   */\n      tag_218\n        /* \"--CODEGEN--\":4010:4016   */\n      dup2\n        /* \"--CODEGEN--\":4005:4008   */\n      dup6\n        /* \"--CODEGEN--\":3928:4017   */\n      tag_219\n      jump\t// in\n    tag_218:\n        /* \"--CODEGEN--\":3921:4017   */\n      swap4\n      pop\n        /* \"--CODEGEN--\":4022:4074   */\n      tag_220\n        /* \"--CODEGEN--\":4067:4073   */\n      dup2\n        /* \"--CODEGEN--\":4062:4065   */\n      dup6\n        /* \"--CODEGEN--\":4055:4059   */\n      0x20\n        /* \"--CODEGEN--\":4048:4053   */\n      dup7\n        /* \"--CODEGEN--\":4044:4060   */\n      add\n        /* \"--CODEGEN--\":4022:4074   */\n      tag_212\n      jump\t// in\n    tag_220:\n        /* \"--CODEGEN--\":4095:4101   */\n      dup1\n        /* \"--CODEGEN--\":4090:4093   */\n      dup5\n        /* \"--CODEGEN--\":4086:4102   */\n      add\n        /* \"--CODEGEN--\":4079:4102   */\n      swap2\n      pop\n        /* \"--CODEGEN--\":3857:4107   */\n      pop\n      swap3\n      swap2\n      pop\n      pop\n      jump\t// out\n        /* \"--CODEGEN--\":4139:5023   */\n    tag_221:\n      0x00\n        /* \"--CODEGEN--\":4276:4281   */\n      dup2\n        /* \"--CODEGEN--\":4270:4282   */\n      sload\n        /* \"--CODEGEN--\":4310:4311   */\n      0x01\n        /* \"--CODEGEN--\":4299:4308   */\n      dup2\n        /* \"--CODEGEN--\":4295:4312   */\n      and\n        /* \"--CODEGEN--\":4323:4324   */\n      0x00\n        /* \"--CODEGEN--\":4318:4586   */\n      dup2\n      eq\n      tag_224\n      jumpi\n        /* \"--CODEGEN--\":4597:4598   */\n      0x01\n        /* \"--CODEGEN--\":4592:5017   */\n      dup2\n      eq\n      tag_225\n      jumpi\n        /* \"--CODEGEN--\":4288:5017   */\n      jump(tag_223)\n        /* \"--CODEGEN--\":4318:4586   */\n    tag_224:\n        /* \"--CODEGEN--\":4396:4400   */\n      0x7f\n        /* \"--CODEGEN--\":4392:4393   */\n      0x02\n        /* \"--CODEGEN--\":4381:4390   */\n      dup4\n        /* \"--CODEGEN--\":4377:4394   */\n      div\n        /* \"--CODEGEN--\":4373:4401   */\n      and\n        /* \"--CODEGEN--\":4415:4504   */\n      tag_226\n        /* \"--CODEGEN--\":4497:4503   */\n      dup2\n        /* \"--CODEGEN--\":4492:4495   */\n      dup8\n        /* \"--CODEGEN--\":4415:4504   */\n      tag_219\n      jump\t// in\n    tag_226:\n        /* \"--CODEGEN--\":4408:4504   */\n      swap6\n      pop\n        /* \"--CODEGEN--\":4542:4546   */\n      0xff\n        /* \"--CODEGEN--\":4538:4547   */\n      not\n        /* \"--CODEGEN--\":4527:4536   */\n      dup4\n        /* \"--CODEGEN--\":4523:4548   */\n      and\n        /* \"--CODEGEN--\":4518:4521   */\n      dup7\n        /* \"--CODEGEN--\":4511:4549   */\n      mstore\n        /* \"--CODEGEN--\":4572:4578   */\n      dup1\n        /* \"--CODEGEN--\":4567:4570   */\n      dup7\n        /* \"--CODEGEN--\":4563:4579   */\n      add\n        /* \"--CODEGEN--\":4556:4579   */\n      swap4\n      pop\n        /* \"--CODEGEN--\":4325:4586   */\n      pop\n        /* \"--CODEGEN--\":4318:4586   */\n      jump(tag_223)\n        /* \"--CODEGEN--\":4592:5017   */\n    tag_225:\n        /* \"--CODEGEN--\":4661:4662   */\n      0x02\n        /* \"--CODEGEN--\":4650:4659   */\n      dup3\n        /* \"--CODEGEN--\":4646:4663   */\n      div\n        /* \"--CODEGEN--\":4677:4766   */\n      tag_227\n        /* \"--CODEGEN--\":4759:4765   */\n      dup2\n        /* \"--CODEGEN--\":4754:4757   */\n      dup8\n        /* \"--CODEGEN--\":4677:4766   */\n      tag_219\n      jump\t// in\n    tag_227:\n        /* \"--CODEGEN--\":4670:4766   */\n      swap6\n      pop\n        /* \"--CODEGEN--\":4788:4826   */\n      tag_228\n        /* \"--CODEGEN--\":4820:4825   */\n      dup6\n        /* \"--CODEGEN--\":4788:4826   */\n      tag_229\n      jump\t// in\n    tag_228:\n        /* \"--CODEGEN--\":4842:4843   */\n      0x00\n        /* \"--CODEGEN--\":4850:4980   */\n    tag_230:\n        /* \"--CODEGEN--\":4864:4870   */\n      dup3\n        /* \"--CODEGEN--\":4861:4862   */\n      dup2\n        /* \"--CODEGEN--\":4858:4871   */\n      lt\n        /* \"--CODEGEN--\":4850:4980   */\n      iszero\n      tag_232\n      jumpi\n        /* \"--CODEGEN--\":4929:4936   */\n      dup2\n        /* \"--CODEGEN--\":4923:4937   */\n      sload\n        /* \"--CODEGEN--\":4919:4920   */\n      dup2\n        /* \"--CODEGEN--\":4914:4917   */\n      dup10\n        /* \"--CODEGEN--\":4910:4921   */\n      add\n        /* \"--CODEGEN--\":4903:4938   */\n      mstore\n        /* \"--CODEGEN--\":4970:4971   */\n      0x01\n        /* \"--CODEGEN--\":4961:4968   */\n      dup3\n        /* \"--CODEGEN--\":4957:4972   */\n      add\n        /* \"--CODEGEN--\":4946:4972   */\n      swap2\n      pop\n        /* \"--CODEGEN--\":4886:4890   */\n      0x20\n        /* \"--CODEGEN--\":4883:4884   */\n      dup2\n        /* \"--CODEGEN--\":4879:4891   */\n      add\n        /* \"--CODEGEN--\":4874:4891   */\n      swap1\n      pop\n        /* \"--CODEGEN--\":4850:4980   */\n      jump(tag_230)\n    tag_232:\n        /* \"--CODEGEN--\":5003:5009   */\n      dup3\n        /* \"--CODEGEN--\":4998:5001   */\n      dup9\n        /* \"--CODEGEN--\":4994:5010   */\n      add\n        /* \"--CODEGEN--\":4987:5010   */\n      swap6\n      pop\n        /* \"--CODEGEN--\":4599:5017   */\n      pop\n      pop\n      pop\n        /* \"--CODEGEN--\":4288:5017   */\n    tag_223:\n      pop\n        /* \"--CODEGEN--\":4246:5023   */\n      pop\n      swap3\n      swap2\n      pop\n      pop\n      jump\t// out\n        /* \"--CODEGEN--\":5032:5487   */\n    tag_233:\n      0x00\n        /* \"--CODEGEN--\":5192:5259   */\n      tag_235\n        /* \"--CODEGEN--\":5256:5258   */\n      0x51\n        /* \"--CODEGEN--\":5251:5254   */\n      dup4\n        /* \"--CODEGEN--\":5192:5259   */\n      tag_210\n      jump\t// in\n    tag_235:\n        /* \"--CODEGEN--\":5185:5259   */\n      swap2\n      pop\n        /* \"--CODEGEN--\":5292:5326   */\n      0x4e6f207365207075656465206461722064652062616a61206120756e61206174\n        /* \"--CODEGEN--\":5288:5289   */\n      0x00\n        /* \"--CODEGEN--\":5283:5286   */\n      dup4\n        /* \"--CODEGEN--\":5279:5290   */\n      add\n        /* \"--CODEGEN--\":5272:5327   */\n      mstore\n        /* \"--CODEGEN--\":5361:5395   */\n      0x72616363696f6e20717565206e6f2068617961207369646f2064616461206465\n        /* \"--CODEGEN--\":5356:5358   */\n      0x20\n        /* \"--CODEGEN--\":5351:5354   */\n      dup4\n        /* \"--CODEGEN--\":5347:5359   */\n      add\n        /* \"--CODEGEN--\":5340:5396   */\n      mstore\n        /* \"--CODEGEN--\":5430:5449   */\n      0x20616c7461207072657669616d656e7465000000000000000000000000000000\n        /* \"--CODEGEN--\":5425:5427   */\n      0x40\n        /* \"--CODEGEN--\":5420:5423   */\n      dup4\n        /* \"--CODEGEN--\":5416:5428   */\n      add\n        /* \"--CODEGEN--\":5409:5450   */\n      mstore\n        /* \"--CODEGEN--\":5478:5480   */\n      0x60\n        /* \"--CODEGEN--\":5473:5476   */\n      dup3\n        /* \"--CODEGEN--\":5469:5481   */\n      add\n        /* \"--CODEGEN--\":5462:5481   */\n      swap1\n      pop\n        /* \"--CODEGEN--\":5178:5487   */\n      swap2\n      swap1\n      pop\n      jump\t// out\n        /* \"--CODEGEN--\":5496:5826   */\n    tag_236:\n      0x00\n        /* \"--CODEGEN--\":5656:5723   */\n      tag_238\n        /* \"--CODEGEN--\":5720:5722   */\n      0x1e\n        /* \"--CODEGEN--\":5715:5718   */\n      dup4\n        /* \"--CODEGEN--\":5656:5723   */\n      tag_210\n      jump\t// in\n    tag_238:\n        /* \"--CODEGEN--\":5649:5723   */\n      swap2\n      pop\n        /* \"--CODEGEN--\":5756:5788   */\n      0x43616e746964616420646520657468657220696e737566696369656e74650000\n        /* \"--CODEGEN--\":5752:5753   */\n      0x00\n        /* \"--CODEGEN--\":5747:5750   */\n      dup4\n        /* \"--CODEGEN--\":5743:5754   */\n      add\n        /* \"--CODEGEN--\":5736:5789   */\n      mstore\n        /* \"--CODEGEN--\":5817:5819   */\n      0x20\n        /* \"--CODEGEN--\":5812:5815   */\n      dup3\n        /* \"--CODEGEN--\":5808:5820   */\n      add\n        /* \"--CODEGEN--\":5801:5820   */\n      swap1\n      pop\n        /* \"--CODEGEN--\":5642:5826   */\n      swap2\n      swap1\n      pop\n      jump\t// out\n        /* \"--CODEGEN--\":5835:6167   */\n    tag_239:\n      0x00\n        /* \"--CODEGEN--\":5995:6062   */\n      tag_241\n        /* \"--CODEGEN--\":6059:6061   */\n      0x20\n        /* \"--CODEGEN--\":6054:6057   */\n      dup4\n        /* \"--CODEGEN--\":5995:6062   */\n      tag_210\n      jump\t// in\n    tag_241:\n        /* \"--CODEGEN--\":5988:6062   */\n      swap2\n      pop\n        /* \"--CODEGEN--\":6095:6129   */\n      0x43616e746964616420646520746f6b656e7320696e737566696369656e746573\n        /* \"--CODEGEN--\":6091:6092   */\n      0x00\n        /* \"--CODEGEN--\":6086:6089   */\n      dup4\n        /* \"--CODEGEN--\":6082:6093   */\n      add\n        /* \"--CODEGEN--\":6075:6130   */\n      mstore\n        /* \"--CODEGEN--\":6158:6160   */\n      0x20\n        /* \"--CODEGEN--\":6153:6156   */\n      dup3\n        /* \"--CODEGEN--\":6149:6161   */\n      add\n        /* \"--CODEGEN--\":6142:6161   */\n      swap1\n      pop\n        /* \"--CODEGEN--\":5981:6167   */\n      swap2\n      swap1\n      pop\n      jump\t// out\n        /* \"--CODEGEN--\":6176:6609   */\n    tag_242:\n      0x00\n        /* \"--CODEGEN--\":6336:6403   */\n      tag_244\n        /* \"--CODEGEN--\":6400:6402   */\n      0x2c\n        /* \"--CODEGEN--\":6395:6398   */\n      dup4\n        /* \"--CODEGEN--\":6336:6403   */\n      tag_210\n      jump\t// in\n    tag_244:\n        /* \"--CODEGEN--\":6329:6403   */\n      swap2\n      pop\n        /* \"--CODEGEN--\":6436:6470   */\n      0x4e6f207469656e6573207065726d69736f207061726120656a65637574617220\n        /* \"--CODEGEN--\":6432:6433   */\n      0x00\n        /* \"--CODEGEN--\":6427:6430   */\n      dup4\n        /* \"--CODEGEN--\":6423:6434   */\n      add\n        /* \"--CODEGEN--\":6416:6471   */\n      mstore\n        /* \"--CODEGEN--\":6505:6571   */\n      0x657374612061636369c3b36e0000000000000000000000000000000000000000\n        /* \"--CODEGEN--\":6500:6502   */\n      0x20\n        /* \"--CODEGEN--\":6495:6498   */\n      dup4\n        /* \"--CODEGEN--\":6491:6503   */\n      add\n        /* \"--CODEGEN--\":6484:6572   */\n      mstore\n        /* \"--CODEGEN--\":6600:6602   */\n      0x40\n        /* \"--CODEGEN--\":6595:6598   */\n      dup3\n        /* \"--CODEGEN--\":6591:6603   */\n      add\n        /* \"--CODEGEN--\":6584:6603   */\n      swap1\n      pop\n        /* \"--CODEGEN--\":6322:6609   */\n      swap2\n      swap1\n      pop\n      jump\t// out\n        /* \"--CODEGEN--\":6617:6730   */\n    tag_245:\n        /* \"--CODEGEN--\":6700:6724   */\n      tag_247\n        /* \"--CODEGEN--\":6718:6723   */\n      dup2\n        /* \"--CODEGEN--\":6700:6724   */\n      tag_248\n      jump\t// in\n    tag_247:\n        /* \"--CODEGEN--\":6695:6698   */\n      dup3\n        /* \"--CODEGEN--\":6688:6725   */\n      mstore\n        /* \"--CODEGEN--\":6682:6730   */\n      pop\n      pop\n      jump\t// out\n        /* \"--CODEGEN--\":6737:7012   */\n    tag_62:\n      0x00\n        /* \"--CODEGEN--\":6892:6987   */\n      tag_250\n        /* \"--CODEGEN--\":6983:6986   */\n      dup3\n        /* \"--CODEGEN--\":6974:6980   */\n      dup5\n        /* \"--CODEGEN--\":6892:6987   */\n      tag_215\n      jump\t// in\n    tag_250:\n        /* \"--CODEGEN--\":6885:6987   */\n      swap2\n      pop\n        /* \"--CODEGEN--\":7004:7007   */\n      dup2\n        /* \"--CODEGEN--\":6997:7007   */\n      swap1\n      pop\n        /* \"--CODEGEN--\":6873:7012   */\n      swap3\n      swap2\n      pop\n      pop\n      jump\t// out\n        /* \"--CODEGEN--\":7019:7288   */\n    tag_96:\n      0x00\n        /* \"--CODEGEN--\":7171:7263   */\n      tag_252\n        /* \"--CODEGEN--\":7259:7262   */\n      dup3\n        /* \"--CODEGEN--\":7250:7256   */\n      dup5\n        /* \"--CODEGEN--\":7171:7263   */\n      tag_221\n      jump\t// in\n    tag_252:\n        /* \"--CODEGEN--\":7164:7263   */\n      swap2\n      pop\n        /* \"--CODEGEN--\":7280:7283   */\n      dup2\n        /* \"--CODEGEN--\":7273:7283   */\n      swap1\n      pop\n        /* \"--CODEGEN--\":7152:7288   */\n      swap3\n      swap2\n      pop\n      pop\n      jump\t// out\n        /* \"--CODEGEN--\":7295:7517   */\n    tag_79:\n      0x00\n        /* \"--CODEGEN--\":7422:7424   */\n      0x20\n        /* \"--CODEGEN--\":7411:7420   */\n      dup3\n        /* \"--CODEGEN--\":7407:7425   */\n      add\n        /* \"--CODEGEN--\":7399:7425   */\n      swap1\n      pop\n        /* \"--CODEGEN--\":7436:7507   */\n      tag_254\n        /* \"--CODEGEN--\":7504:7505   */\n      0x00\n        /* \"--CODEGEN--\":7493:7502   */\n      dup4\n        /* \"--CODEGEN--\":7489:7506   */\n      add\n        /* \"--CODEGEN--\":7480:7486   */\n      dup5\n        /* \"--CODEGEN--\":7436:7507   */\n      tag_197\n      jump\t// in\n    tag_254:\n        /* \"--CODEGEN--\":7393:7517   */\n      swap3\n      swap2\n      pop\n      pop\n      jump\t// out\n        /* \"--CODEGEN--\":7524:7762   */\n    tag_109:\n      0x00\n        /* \"--CODEGEN--\":7659:7661   */\n      0x20\n        /* \"--CODEGEN--\":7648:7657   */\n      dup3\n        /* \"--CODEGEN--\":7644:7662   */\n      add\n        /* \"--CODEGEN--\":7636:7662   */\n      swap1\n      pop\n        /* \"--CODEGEN--\":7673:7752   */\n      tag_256\n        /* \"--CODEGEN--\":7749:7750   */\n      0x00\n        /* \"--CODEGEN--\":7738:7747   */\n      dup4\n        /* \"--CODEGEN--\":7734:7751   */\n      add\n        /* \"--CODEGEN--\":7725:7731   */\n      dup5\n        /* \"--CODEGEN--\":7673:7752   */\n      tag_189\n      jump\t// in\n    tag_256:\n        /* \"--CODEGEN--\":7630:7762   */\n      swap3\n      swap2\n      pop\n      pop\n      jump\t// out\n        /* \"--CODEGEN--\":7769:8023   */\n    tag_26:\n      0x00\n        /* \"--CODEGEN--\":7912:7914   */\n      0x20\n        /* \"--CODEGEN--\":7901:7910   */\n      dup3\n        /* \"--CODEGEN--\":7897:7915   */\n      add\n        /* \"--CODEGEN--\":7889:7915   */\n      swap1\n      pop\n        /* \"--CODEGEN--\":7926:8013   */\n      tag_258\n        /* \"--CODEGEN--\":8010:8011   */\n      0x00\n        /* \"--CODEGEN--\":7999:8008   */\n      dup4\n        /* \"--CODEGEN--\":7995:8012   */\n      add\n        /* \"--CODEGEN--\":7986:7992   */\n      dup5\n        /* \"--CODEGEN--\":7926:8013   */\n      tag_193\n      jump\t// in\n    tag_258:\n        /* \"--CODEGEN--\":7883:8023   */\n      swap3\n      swap2\n      pop\n      pop\n      jump\t// out\n        /* \"--CODEGEN--\":8030:8379   */\n    tag_127:\n      0x00\n        /* \"--CODEGEN--\":8193:8195   */\n      0x40\n        /* \"--CODEGEN--\":8182:8191   */\n      dup3\n        /* \"--CODEGEN--\":8178:8196   */\n      add\n        /* \"--CODEGEN--\":8170:8196   */\n      swap1\n      pop\n        /* \"--CODEGEN--\":8207:8286   */\n      tag_260\n        /* \"--CODEGEN--\":8283:8284   */\n      0x00\n        /* \"--CODEGEN--\":8272:8281   */\n      dup4\n        /* \"--CODEGEN--\":8268:8285   */\n      add\n        /* \"--CODEGEN--\":8259:8265   */\n      dup6\n        /* \"--CODEGEN--\":8207:8286   */\n      tag_189\n      jump\t// in\n    tag_260:\n        /* \"--CODEGEN--\":8297:8369   */\n      tag_261\n        /* \"--CODEGEN--\":8365:8367   */\n      0x20\n        /* \"--CODEGEN--\":8354:8363   */\n      dup4\n        /* \"--CODEGEN--\":8350:8368   */\n      add\n        /* \"--CODEGEN--\":8341:8347   */\n      dup5\n        /* \"--CODEGEN--\":8297:8369   */\n      tag_245\n      jump\t// in\n    tag_261:\n        /* \"--CODEGEN--\":8164:8379   */\n      swap4\n      swap3\n      pop\n      pop\n      pop\n      jump\t// out\n        /* \"--CODEGEN--\":8386:8696   */\n    tag_103:\n      0x00\n        /* \"--CODEGEN--\":8533:8535   */\n      0x20\n        /* \"--CODEGEN--\":8522:8531   */\n      dup3\n        /* \"--CODEGEN--\":8518:8536   */\n      add\n        /* \"--CODEGEN--\":8510:8536   */\n      swap1\n      pop\n        /* \"--CODEGEN--\":8583:8592   */\n      dup2\n        /* \"--CODEGEN--\":8577:8581   */\n      dup2\n        /* \"--CODEGEN--\":8573:8593   */\n      sub\n        /* \"--CODEGEN--\":8569:8570   */\n      0x00\n        /* \"--CODEGEN--\":8558:8567   */\n      dup4\n        /* \"--CODEGEN--\":8554:8571   */\n      add\n        /* \"--CODEGEN--\":8547:8594   */\n      mstore\n        /* \"--CODEGEN--\":8608:8686   */\n      tag_263\n        /* \"--CODEGEN--\":8681:8685   */\n      dup2\n        /* \"--CODEGEN--\":8672:8678   */\n      dup5\n        /* \"--CODEGEN--\":8608:8686   */\n      tag_205\n      jump\t// in\n    tag_263:\n        /* \"--CODEGEN--\":8600:8686   */\n      swap1\n      pop\n        /* \"--CODEGEN--\":8504:8696   */\n      swap3\n      swap2\n      pop\n      pop\n      jump\t// out\n        /* \"--CODEGEN--\":8703:9124   */\n    tag_68:\n      0x00\n        /* \"--CODEGEN--\":8878:8880   */\n      0x40\n        /* \"--CODEGEN--\":8867:8876   */\n      dup3\n        /* \"--CODEGEN--\":8863:8881   */\n      add\n        /* \"--CODEGEN--\":8855:8881   */\n      swap1\n      pop\n        /* \"--CODEGEN--\":8928:8937   */\n      dup2\n        /* \"--CODEGEN--\":8922:8926   */\n      dup2\n        /* \"--CODEGEN--\":8918:8938   */\n      sub\n        /* \"--CODEGEN--\":8914:8915   */\n      0x00\n        /* \"--CODEGEN--\":8903:8912   */\n      dup4\n        /* \"--CODEGEN--\":8899:8916   */\n      add\n        /* \"--CODEGEN--\":8892:8939   */\n      mstore\n        /* \"--CODEGEN--\":8953:9031   */\n      tag_265\n        /* \"--CODEGEN--\":9026:9030   */\n      dup2\n        /* \"--CODEGEN--\":9017:9023   */\n      dup6\n        /* \"--CODEGEN--\":8953:9031   */\n      tag_205\n      jump\t// in\n    tag_265:\n        /* \"--CODEGEN--\":8945:9031   */\n      swap1\n      pop\n        /* \"--CODEGEN--\":9042:9114   */\n      tag_266\n        /* \"--CODEGEN--\":9110:9112   */\n      0x20\n        /* \"--CODEGEN--\":9099:9108   */\n      dup4\n        /* \"--CODEGEN--\":9095:9113   */\n      add\n        /* \"--CODEGEN--\":9086:9092   */\n      dup5\n        /* \"--CODEGEN--\":9042:9114   */\n      tag_245\n      jump\t// in\n    tag_266:\n        /* \"--CODEGEN--\":8849:9124   */\n      swap4\n      swap3\n      pop\n      pop\n      pop\n      jump\t// out\n        /* \"--CODEGEN--\":9131:9651   */\n    tag_48:\n      0x00\n        /* \"--CODEGEN--\":9328:9330   */\n      0x60\n        /* \"--CODEGEN--\":9317:9326   */\n      dup3\n        /* \"--CODEGEN--\":9313:9331   */\n      add\n        /* \"--CODEGEN--\":9305:9331   */\n      swap1\n      pop\n        /* \"--CODEGEN--\":9378:9387   */\n      dup2\n        /* \"--CODEGEN--\":9372:9376   */\n      dup2\n        /* \"--CODEGEN--\":9368:9388   */\n      sub\n        /* \"--CODEGEN--\":9364:9365   */\n      0x00\n        /* \"--CODEGEN--\":9353:9362   */\n      dup4\n        /* \"--CODEGEN--\":9349:9366   */\n      add\n        /* \"--CODEGEN--\":9342:9389   */\n      mstore\n        /* \"--CODEGEN--\":9403:9481   */\n      tag_268\n        /* \"--CODEGEN--\":9476:9480   */\n      dup2\n        /* \"--CODEGEN--\":9467:9473   */\n      dup7\n        /* \"--CODEGEN--\":9403:9481   */\n      tag_205\n      jump\t// in\n    tag_268:\n        /* \"--CODEGEN--\":9395:9481   */\n      swap1\n      pop\n        /* \"--CODEGEN--\":9492:9564   */\n      tag_269\n        /* \"--CODEGEN--\":9560:9562   */\n      0x20\n        /* \"--CODEGEN--\":9549:9558   */\n      dup4\n        /* \"--CODEGEN--\":9545:9563   */\n      add\n        /* \"--CODEGEN--\":9536:9542   */\n      dup6\n        /* \"--CODEGEN--\":9492:9564   */\n      tag_245\n      jump\t// in\n    tag_269:\n        /* \"--CODEGEN--\":9575:9641   */\n      tag_270\n        /* \"--CODEGEN--\":9637:9639   */\n      0x40\n        /* \"--CODEGEN--\":9626:9635   */\n      dup4\n        /* \"--CODEGEN--\":9622:9640   */\n      add\n        /* \"--CODEGEN--\":9613:9619   */\n      dup5\n        /* \"--CODEGEN--\":9575:9641   */\n      tag_201\n      jump\t// in\n    tag_270:\n        /* \"--CODEGEN--\":9299:9651   */\n      swap5\n      swap4\n      pop\n      pop\n      pop\n      pop\n      jump\t// out\n        /* \"--CODEGEN--\":9658:10074   */\n    tag_100:\n      0x00\n        /* \"--CODEGEN--\":9858:9860   */\n      0x20\n        /* \"--CODEGEN--\":9847:9856   */\n      dup3\n        /* \"--CODEGEN--\":9843:9861   */\n      add\n        /* \"--CODEGEN--\":9835:9861   */\n      swap1\n      pop\n        /* \"--CODEGEN--\":9908:9917   */\n      dup2\n        /* \"--CODEGEN--\":9902:9906   */\n      dup2\n        /* \"--CODEGEN--\":9898:9918   */\n      sub\n        /* \"--CODEGEN--\":9894:9895   */\n      0x00\n        /* \"--CODEGEN--\":9883:9892   */\n      dup4\n        /* \"--CODEGEN--\":9879:9896   */\n      add\n        /* \"--CODEGEN--\":9872:9919   */\n      mstore\n        /* \"--CODEGEN--\":9933:10064   */\n      tag_272\n        /* \"--CODEGEN--\":10059:10063   */\n      dup2\n        /* \"--CODEGEN--\":9933:10064   */\n      tag_233\n      jump\t// in\n    tag_272:\n        /* \"--CODEGEN--\":9925:10064   */\n      swap1\n      pop\n        /* \"--CODEGEN--\":9829:10074   */\n      swap2\n      swap1\n      pop\n      jump\t// out\n        /* \"--CODEGEN--\":10081:10497   */\n    tag_119:\n      0x00\n        /* \"--CODEGEN--\":10281:10283   */\n      0x20\n        /* \"--CODEGEN--\":10270:10279   */\n      dup3\n        /* \"--CODEGEN--\":10266:10284   */\n      add\n        /* \"--CODEGEN--\":10258:10284   */\n      swap1\n      pop\n        /* \"--CODEGEN--\":10331:10340   */\n      dup2\n        /* \"--CODEGEN--\":10325:10329   */\n      dup2\n        /* \"--CODEGEN--\":10321:10341   */\n      sub\n        /* \"--CODEGEN--\":10317:10318   */\n      0x00\n        /* \"--CODEGEN--\":10306:10315   */\n      dup4\n        /* \"--CODEGEN--\":10302:10319   */\n      add\n        /* \"--CODEGEN--\":10295:10342   */\n      mstore\n        /* \"--CODEGEN--\":10356:10487   */\n      tag_274\n        /* \"--CODEGEN--\":10482:10486   */\n      dup2\n        /* \"--CODEGEN--\":10356:10487   */\n      tag_236\n      jump\t// in\n    tag_274:\n        /* \"--CODEGEN--\":10348:10487   */\n      swap1\n      pop\n        /* \"--CODEGEN--\":10252:10497   */\n      swap2\n      swap1\n      pop\n      jump\t// out\n        /* \"--CODEGEN--\":10504:10920   */\n    tag_123:\n      0x00\n        /* \"--CODEGEN--\":10704:10706   */\n      0x20\n        /* \"--CODEGEN--\":10693:10702   */\n      dup3\n        /* \"--CODEGEN--\":10689:10707   */\n      add\n        /* \"--CODEGEN--\":10681:10707   */\n      swap1\n      pop\n        /* \"--CODEGEN--\":10754:10763   */\n      dup2\n        /* \"--CODEGEN--\":10748:10752   */\n      dup2\n        /* \"--CODEGEN--\":10744:10764   */\n      sub\n        /* \"--CODEGEN--\":10740:10741   */\n      0x00\n        /* \"--CODEGEN--\":10729:10738   */\n      dup4\n        /* \"--CODEGEN--\":10725:10742   */\n      add\n        /* \"--CODEGEN--\":10718:10765   */\n      mstore\n        /* \"--CODEGEN--\":10779:10910   */\n      tag_276\n        /* \"--CODEGEN--\":10905:10909   */\n      dup2\n        /* \"--CODEGEN--\":10779:10910   */\n      tag_239\n      jump\t// in\n    tag_276:\n        /* \"--CODEGEN--\":10771:10910   */\n      swap1\n      pop\n        /* \"--CODEGEN--\":10675:10920   */\n      swap2\n      swap1\n      pop\n      jump\t// out\n        /* \"--CODEGEN--\":10927:11343   */\n    tag_59:\n      0x00\n        /* \"--CODEGEN--\":11127:11129   */\n      0x20\n        /* \"--CODEGEN--\":11116:11125   */\n      dup3\n        /* \"--CODEGEN--\":11112:11130   */\n      add\n        /* \"--CODEGEN--\":11104:11130   */\n      swap1\n      pop\n        /* \"--CODEGEN--\":11177:11186   */\n      dup2\n        /* \"--CODEGEN--\":11171:11175   */\n      dup2\n        /* \"--CODEGEN--\":11167:11187   */\n      sub\n        /* \"--CODEGEN--\":11163:11164   */\n      0x00\n        /* \"--CODEGEN--\":11152:11161   */\n      dup4\n        /* \"--CODEGEN--\":11148:11165   */\n      add\n        /* \"--CODEGEN--\":11141:11188   */\n      mstore\n        /* \"--CODEGEN--\":11202:11333   */\n      tag_278\n        /* \"--CODEGEN--\":11328:11332   */\n      dup2\n        /* \"--CODEGEN--\":11202:11333   */\n      tag_242\n      jump\t// in\n    tag_278:\n        /* \"--CODEGEN--\":11194:11333   */\n      swap1\n      pop\n        /* \"--CODEGEN--\":11098:11343   */\n      swap2\n      swap1\n      pop\n      jump\t// out\n        /* \"--CODEGEN--\":11350:11572   */\n    tag_31:\n      0x00\n        /* \"--CODEGEN--\":11477:11479   */\n      0x20\n        /* \"--CODEGEN--\":11466:11475   */\n      dup3\n        /* \"--CODEGEN--\":11462:11480   */\n      add\n        /* \"--CODEGEN--\":11454:11480   */\n      swap1\n      pop\n        /* \"--CODEGEN--\":11491:11562   */\n      tag_280\n        /* \"--CODEGEN--\":11559:11560   */\n      0x00\n        /* \"--CODEGEN--\":11548:11557   */\n      dup4\n        /* \"--CODEGEN--\":11544:11561   */\n      add\n        /* \"--CODEGEN--\":11535:11541   */\n      dup5\n        /* \"--CODEGEN--\":11491:11562   */\n      tag_245\n      jump\t// in\n    tag_280:\n        /* \"--CODEGEN--\":11448:11572   */\n      swap3\n      swap2\n      pop\n      pop\n      jump\t// out\n        /* \"--CODEGEN--\":11579:11835   */\n    tag_157:\n      0x00\n        /* \"--CODEGEN--\":11641:11643   */\n      0x40\n        /* \"--CODEGEN--\":11635:11644   */\n      mload\n        /* \"--CODEGEN--\":11625:11644   */\n      swap1\n      pop\n        /* \"--CODEGEN--\":11679:11683   */\n      dup2\n        /* \"--CODEGEN--\":11671:11677   */\n      dup2\n        /* \"--CODEGEN--\":11667:11684   */\n      add\n        /* \"--CODEGEN--\":11778:11784   */\n      dup2\n        /* \"--CODEGEN--\":11766:11776   */\n      dup2\n        /* \"--CODEGEN--\":11763:11785   */\n      lt\n        /* \"--CODEGEN--\":11742:11760   */\n      0xffffffffffffffff\n        /* \"--CODEGEN--\":11730:11740   */\n      dup3\n        /* \"--CODEGEN--\":11727:11761   */\n      gt\n        /* \"--CODEGEN--\":11724:11786   */\n      or\n        /* \"--CODEGEN--\":11721:11723   */\n      iszero\n      tag_282\n      jumpi\n        /* \"--CODEGEN--\":11799:11800   */\n      0x00\n        /* \"--CODEGEN--\":11796:11797   */\n      dup1\n        /* \"--CODEGEN--\":11789:11801   */\n      revert\n        /* \"--CODEGEN--\":11721:11723   */\n    tag_282:\n        /* \"--CODEGEN--\":11819:11829   */\n      dup1\n        /* \"--CODEGEN--\":11815:11817   */\n      0x40\n        /* \"--CODEGEN--\":11808:11830   */\n      mstore\n        /* \"--CODEGEN--\":11619:11835   */\n      pop\n      swap2\n      swap1\n      pop\n      jump\t// out\n        /* \"--CODEGEN--\":11842:12164   */\n    tag_156:\n      0x00\n        /* \"--CODEGEN--\":11986:12004   */\n      0xffffffffffffffff\n        /* \"--CODEGEN--\":11978:11984   */\n      dup3\n        /* \"--CODEGEN--\":11975:12005   */\n      gt\n        /* \"--CODEGEN--\":11972:11974   */\n      iszero\n      tag_284\n      jumpi\n        /* \"--CODEGEN--\":12018:12019   */\n      0x00\n        /* \"--CODEGEN--\":12015:12016   */\n      dup1\n        /* \"--CODEGEN--\":12008:12020   */\n      revert\n        /* \"--CODEGEN--\":11972:11974   */\n    tag_284:\n        /* \"--CODEGEN--\":12085:12089   */\n      0x1f\n        /* \"--CODEGEN--\":12081:12090   */\n      not\n        /* \"--CODEGEN--\":12074:12078   */\n      0x1f\n        /* \"--CODEGEN--\":12066:12072   */\n      dup4\n        /* \"--CODEGEN--\":12062:12079   */\n      add\n        /* \"--CODEGEN--\":12058:12091   */\n      and\n        /* \"--CODEGEN--\":12050:12091   */\n      swap1\n      pop\n        /* \"--CODEGEN--\":12149:12153   */\n      0x20\n        /* \"--CODEGEN--\":12143:12147   */\n      dup2\n        /* \"--CODEGEN--\":12139:12154   */\n      add\n        /* \"--CODEGEN--\":12131:12154   */\n      swap1\n      pop\n        /* \"--CODEGEN--\":11909:12164   */\n      swap2\n      swap1\n      pop\n      jump\t// out\n        /* \"--CODEGEN--\":12171:12329   */\n    tag_229:\n      0x00\n        /* \"--CODEGEN--\":12239:12242   */\n      dup2\n        /* \"--CODEGEN--\":12231:12242   */\n      swap1\n      pop\n        /* \"--CODEGEN--\":12276:12279   */\n      dup2\n        /* \"--CODEGEN--\":12273:12274   */\n      0x00\n        /* \"--CODEGEN--\":12266:12280   */\n      mstore\n        /* \"--CODEGEN--\":12308:12312   */\n      0x20\n        /* \"--CODEGEN--\":12305:12306   */\n      0x00\n        /* \"--CODEGEN--\":12295:12313   */\n      keccak256\n        /* \"--CODEGEN--\":12287:12313   */\n      swap1\n      pop\n        /* \"--CODEGEN--\":12225:12329   */\n      swap2\n      swap1\n      pop\n      jump\t// out\n        /* \"--CODEGEN--\":12336:12458   */\n    tag_208:\n      0x00\n        /* \"--CODEGEN--\":12430:12435   */\n      dup2\n        /* \"--CODEGEN--\":12424:12436   */\n      mload\n        /* \"--CODEGEN--\":12414:12436   */\n      swap1\n      pop\n        /* \"--CODEGEN--\":12395:12458   */\n      swap2\n      swap1\n      pop\n      jump\t// out\n        /* \"--CODEGEN--\":12466:12629   */\n    tag_210:\n      0x00\n        /* \"--CODEGEN--\":12581:12587   */\n      dup3\n        /* \"--CODEGEN--\":12576:12579   */\n      dup3\n        /* \"--CODEGEN--\":12569:12588   */\n      mstore\n        /* \"--CODEGEN--\":12618:12622   */\n      0x20\n        /* \"--CODEGEN--\":12613:12616   */\n      dup3\n        /* \"--CODEGEN--\":12609:12623   */\n      add\n        /* \"--CODEGEN--\":12594:12623   */\n      swap1\n      pop\n        /* \"--CODEGEN--\":12562:12629   */\n      swap3\n      swap2\n      pop\n      pop\n      jump\t// out\n        /* \"--CODEGEN--\":12638:12783   */\n    tag_219:\n      0x00\n        /* \"--CODEGEN--\":12774:12777   */\n      dup2\n        /* \"--CODEGEN--\":12759:12777   */\n      swap1\n      pop\n        /* \"--CODEGEN--\":12752:12783   */\n      swap3\n      swap2\n      pop\n      pop\n      jump\t// out\n        /* \"--CODEGEN--\":12791:12882   */\n    tag_200:\n      0x00\n        /* \"--CODEGEN--\":12853:12877   */\n      tag_290\n        /* \"--CODEGEN--\":12871:12876   */\n      dup3\n        /* \"--CODEGEN--\":12853:12877   */\n      tag_291\n      jump\t// in\n    tag_290:\n        /* \"--CODEGEN--\":12842:12877   */\n      swap1\n      pop\n        /* \"--CODEGEN--\":12836:12882   */\n      swap2\n      swap1\n      pop\n      jump\t// out\n        /* \"--CODEGEN--\":12889:12988   */\n    tag_196:\n      0x00\n        /* \"--CODEGEN--\":12959:12983   */\n      tag_293\n        /* \"--CODEGEN--\":12977:12982   */\n      dup3\n        /* \"--CODEGEN--\":12959:12983   */\n      tag_291\n      jump\t// in\n    tag_293:\n        /* \"--CODEGEN--\":12948:12983   */\n      swap1\n      pop\n        /* \"--CODEGEN--\":12942:12988   */\n      swap2\n      swap1\n      pop\n      jump\t// out\n        /* \"--CODEGEN--\":12995:13080   */\n    tag_204:\n      0x00\n        /* \"--CODEGEN--\":13068:13073   */\n      dup2\n        /* \"--CODEGEN--\":13061:13074   */\n      iszero\n        /* \"--CODEGEN--\":13054:13075   */\n      iszero\n        /* \"--CODEGEN--\":13043:13075   */\n      swap1\n      pop\n        /* \"--CODEGEN--\":13037:13080   */\n      swap2\n      swap1\n      pop\n      jump\t// out\n        /* \"--CODEGEN--\":13087:13208   */\n    tag_291:\n      0x00\n        /* \"--CODEGEN--\":13160:13202   */\n      0xffffffffffffffffffffffffffffffffffffffff\n        /* \"--CODEGEN--\":13153:13158   */\n      dup3\n        /* \"--CODEGEN--\":13149:13203   */\n      and\n        /* \"--CODEGEN--\":13138:13203   */\n      swap1\n      pop\n        /* \"--CODEGEN--\":13132:13208   */\n      swap2\n      swap1\n      pop\n      jump\t// out\n        /* \"--CODEGEN--\":13215:13287   */\n    tag_248:\n      0x00\n        /* \"--CODEGEN--\":13277:13282   */\n      dup2\n        /* \"--CODEGEN--\":13266:13282   */\n      swap1\n      pop\n        /* \"--CODEGEN--\":13260:13287   */\n      swap2\n      swap1\n      pop\n      jump\t// out\n        /* \"--CODEGEN--\":13294:13423   */\n    tag_192:\n      0x00\n        /* \"--CODEGEN--\":13381:13418   */\n      tag_298\n        /* \"--CODEGEN--\":13412:13417   */\n      dup3\n        /* \"--CODEGEN--\":13381:13418   */\n      tag_299\n      jump\t// in\n    tag_298:\n        /* \"--CODEGEN--\":13368:13418   */\n      swap1\n      pop\n        /* \"--CODEGEN--\":13362:13423   */\n      swap2\n      swap1\n      pop\n      jump\t// out\n        /* \"--CODEGEN--\":13430:13551   */\n    tag_299:\n      0x00\n        /* \"--CODEGEN--\":13509:13546   */\n      tag_301\n        /* \"--CODEGEN--\":13540:13545   */\n      dup3\n        /* \"--CODEGEN--\":13509:13546   */\n      tag_302\n      jump\t// in\n    tag_301:\n        /* \"--CODEGEN--\":13496:13546   */\n      swap1\n      pop\n        /* \"--CODEGEN--\":13490:13551   */\n      swap2\n      swap1\n      pop\n      jump\t// out\n        /* \"--CODEGEN--\":13558:13666   */\n    tag_302:\n      0x00\n        /* \"--CODEGEN--\":13637:13661   */\n      tag_304\n        /* \"--CODEGEN--\":13655:13660   */\n      dup3\n        /* \"--CODEGEN--\":13637:13661   */\n      tag_291\n      jump\t// in\n    tag_304:\n        /* \"--CODEGEN--\":13624:13661   */\n      swap1\n      pop\n        /* \"--CODEGEN--\":13618:13666   */\n      swap2\n      swap1\n      pop\n      jump\t// out\n        /* \"--CODEGEN--\":13674:13819   */\n    tag_160:\n        /* \"--CODEGEN--\":13755:13761   */\n      dup3\n        /* \"--CODEGEN--\":13750:13753   */\n      dup2\n        /* \"--CODEGEN--\":13745:13748   */\n      dup4\n        /* \"--CODEGEN--\":13732:13762   */\n      calldatacopy\n        /* \"--CODEGEN--\":13811:13812   */\n      0x00\n        /* \"--CODEGEN--\":13802:13808   */\n      dup4\n        /* \"--CODEGEN--\":13797:13800   */\n      dup4\n        /* \"--CODEGEN--\":13793:13809   */\n      add\n        /* \"--CODEGEN--\":13786:13813   */\n      mstore\n        /* \"--CODEGEN--\":13725:13819   */\n      pop\n      pop\n      pop\n      jump\t// out\n        /* \"--CODEGEN--\":13828:14096   */\n    tag_212:\n        /* \"--CODEGEN--\":13893:13894   */\n      0x00\n        /* \"--CODEGEN--\":13900:14001   */\n    tag_307:\n        /* \"--CODEGEN--\":13914:13920   */\n      dup4\n        /* \"--CODEGEN--\":13911:13912   */\n      dup2\n        /* \"--CODEGEN--\":13908:13921   */\n      lt\n        /* \"--CODEGEN--\":13900:14001   */\n      iszero\n      tag_309\n      jumpi\n        /* \"--CODEGEN--\":13990:13991   */\n      dup1\n        /* \"--CODEGEN--\":13985:13988   */\n      dup3\n        /* \"--CODEGEN--\":13981:13992   */\n      add\n        /* \"--CODEGEN--\":13975:13993   */\n      mload\n        /* \"--CODEGEN--\":13971:13972   */\n      dup2\n        /* \"--CODEGEN--\":13966:13969   */\n      dup5\n        /* \"--CODEGEN--\":13962:13973   */\n      add\n        /* \"--CODEGEN--\":13955:13994   */\n      mstore\n        /* \"--CODEGEN--\":13936:13938   */\n      0x20\n        /* \"--CODEGEN--\":13933:13934   */\n      dup2\n        /* \"--CODEGEN--\":13929:13939   */\n      add\n        /* \"--CODEGEN--\":13924:13939   */\n      swap1\n      pop\n        /* \"--CODEGEN--\":13900:14001   */\n      jump(tag_307)\n    tag_309:\n        /* \"--CODEGEN--\":14016:14022   */\n      dup4\n        /* \"--CODEGEN--\":14013:14014   */\n      dup2\n        /* \"--CODEGEN--\":14010:14023   */\n      gt\n        /* \"--CODEGEN--\":14007:14009   */\n      iszero\n      tag_310\n      jumpi\n        /* \"--CODEGEN--\":14081:14082   */\n      0x00\n        /* \"--CODEGEN--\":14072:14078   */\n      dup5\n        /* \"--CODEGEN--\":14067:14070   */\n      dup5\n        /* \"--CODEGEN--\":14063:14079   */\n      add\n        /* \"--CODEGEN--\":14056:14083   */\n      mstore\n        /* \"--CODEGEN--\":14007:14009   */\n    tag_310:\n        /* \"--CODEGEN--\":13877:14096   */\n      pop\n      pop\n      pop\n      pop\n      jump\t// out\n        /* \"--CODEGEN--\":14104:14201   */\n    tag_214:\n      0x00\n        /* \"--CODEGEN--\":14192:14194   */\n      0x1f\n        /* \"--CODEGEN--\":14188:14195   */\n      not\n        /* \"--CODEGEN--\":14183:14185   */\n      0x1f\n        /* \"--CODEGEN--\":14176:14181   */\n      dup4\n        /* \"--CODEGEN--\":14172:14186   */\n      add\n        /* \"--CODEGEN--\":14168:14196   */\n      and\n        /* \"--CODEGEN--\":14158:14196   */\n      swap1\n      pop\n        /* \"--CODEGEN--\":14152:14201   */\n      swap2\n      swap1\n      pop\n      jump\t// out\n        /* \"--CODEGEN--\":14209:14326   */\n    tag_146:\n        /* \"--CODEGEN--\":14278:14302   */\n      tag_313\n        /* \"--CODEGEN--\":14296:14301   */\n      dup2\n        /* \"--CODEGEN--\":14278:14302   */\n      tag_200\n      jump\t// in\n    tag_313:\n        /* \"--CODEGEN--\":14271:14276   */\n      dup2\n        /* \"--CODEGEN--\":14268:14303   */\n      eq\n        /* \"--CODEGEN--\":14258:14260   */\n      tag_314\n      jumpi\n        /* \"--CODEGEN--\":14317:14318   */\n      0x00\n        /* \"--CODEGEN--\":14314:14315   */\n      dup1\n        /* \"--CODEGEN--\":14307:14319   */\n      revert\n        /* \"--CODEGEN--\":14258:14260   */\n    tag_314:\n        /* \"--CODEGEN--\":14252:14326   */\n      pop\n      jump\t// out\n        /* \"--CODEGEN--\":14333:14444   */\n    tag_150:\n        /* \"--CODEGEN--\":14399:14420   */\n      tag_316\n        /* \"--CODEGEN--\":14414:14419   */\n      dup2\n        /* \"--CODEGEN--\":14399:14420   */\n      tag_204\n      jump\t// in\n    tag_316:\n        /* \"--CODEGEN--\":14392:14397   */\n      dup2\n        /* \"--CODEGEN--\":14389:14421   */\n      eq\n        /* \"--CODEGEN--\":14379:14381   */\n      tag_317\n      jumpi\n        /* \"--CODEGEN--\":14435:14436   */\n      0x00\n        /* \"--CODEGEN--\":14432:14433   */\n      dup1\n        /* \"--CODEGEN--\":14425:14437   */\n      revert\n        /* \"--CODEGEN--\":14379:14381   */\n    tag_317:\n        /* \"--CODEGEN--\":14373:14444   */\n      pop\n      jump\t// out\n        /* \"--CODEGEN--\":14451:14568   */\n    tag_164:\n        /* \"--CODEGEN--\":14520:14544   */\n      tag_319\n        /* \"--CODEGEN--\":14538:14543   */\n      dup2\n        /* \"--CODEGEN--\":14520:14544   */\n      tag_248\n      jump\t// in\n    tag_319:\n        /* \"--CODEGEN--\":14513:14518   */\n      dup2\n        /* \"--CODEGEN--\":14510:14545   */\n      eq\n        /* \"--CODEGEN--\":14500:14502   */\n      tag_320\n      jumpi\n        /* \"--CODEGEN--\":14559:14560   */\n      0x00\n        /* \"--CODEGEN--\":14556:14557   */\n      dup1\n        /* \"--CODEGEN--\":14549:14561   */\n      revert\n        /* \"--CODEGEN--\":14500:14502   */\n    tag_320:\n        /* \"--CODEGEN--\":14494:14568   */\n      pop\n      jump\t// out\n\n    auxdata: 0xa264697066735822122017a71a37b8ff28d34b459d927756d921a617517af8f20b4de61abe7e838264b264736f6c634300060c0033\n}\n\nsub_1: assembly {\n        /* \"Disney/ERC20.sol\":1459:3770  contract ERC20Basic is IERC20 {\r... */\n      mstore(0x40, 0x80)\n        /* \"Disney/ERC20.sol\":1803:1939  constructor (uint256 initialSupply) public {\r... */\n      callvalue\n      dup1\n      iszero\n      tag_1\n      jumpi\n      0x00\n      dup1\n      revert\n    tag_1:\n      pop\n      mload(0x40)\n      sub(codesize, bytecodeSize)\n      dup1\n      bytecodeSize\n      dup4\n      codecopy\n      dup2\n      dup2\n      add\n      0x40\n      mstore\n      dup2\n      add\n      swap1\n      tag_2\n      swap2\n      swap1\n      tag_3\n      jump\t// in\n    tag_2:\n        /* \"Disney/ERC20.sol\":1872:1885  initialSupply */\n      dup1\n        /* \"Disney/ERC20.sol\":1857:1869  totalSupply_ */\n      0x02\n        /* \"Disney/ERC20.sol\":1857:1885  totalSupply_ = initialSupply */\n      dup2\n      swap1\n      sstore\n      pop\n        /* \"Disney/ERC20.sol\":1919:1931  totalSupply_ */\n      sload(0x02)\n        /* \"Disney/ERC20.sol\":1896:1904  balances */\n      0x00\n        /* \"Disney/ERC20.sol\":1896:1916  balances[msg.sender] */\n      dup1\n        /* \"Disney/ERC20.sol\":1905:1915  msg.sender */\n      caller\n        /* \"Disney/ERC20.sol\":1896:1916  balances[msg.sender] */\n      0xffffffffffffffffffffffffffffffffffffffff\n      and\n      0xffffffffffffffffffffffffffffffffffffffff\n      and\n      dup2\n      mstore\n      0x20\n      add\n      swap1\n      dup2\n      mstore\n      0x20\n      add\n      0x00\n      keccak256\n        /* \"Disney/ERC20.sol\":1896:1931  balances[msg.sender] = totalSupply_ */\n      dup2\n      swap1\n      sstore\n      pop\n        /* \"Disney/ERC20.sol\":1803:1939  constructor (uint256 initialSupply) public {\r... */\n      pop\n        /* \"Disney/ERC20.sol\":1459:3770  contract ERC20Basic is IERC20 {\r... */\n      jump(tag_6)\n        /* \"--CODEGEN--\":5:139   */\n    tag_8:\n      0x00\n        /* \"--CODEGEN--\":89:95   */\n      dup2\n        /* \"--CODEGEN--\":83:96   */\n      mload\n        /* \"--CODEGEN--\":74:96   */\n      swap1\n      pop\n        /* \"--CODEGEN--\":101:134   */\n      tag_10\n        /* \"--CODEGEN--\":128:133   */\n      dup2\n        /* \"--CODEGEN--\":101:134   */\n      tag_11\n      jump\t// in\n    tag_10:\n        /* \"--CODEGEN--\":68:139   */\n      swap3\n      swap2\n      pop\n      pop\n      jump\t// out\n        /* \"--CODEGEN--\":146:409   */\n    tag_3:\n      0x00\n        /* \"--CODEGEN--\":261:263   */\n      0x20\n        /* \"--CODEGEN--\":249:258   */\n      dup3\n        /* \"--CODEGEN--\":240:247   */\n      dup5\n        /* \"--CODEGEN--\":236:259   */\n      sub\n        /* \"--CODEGEN--\":232:264   */\n      slt\n        /* \"--CODEGEN--\":229:231   */\n      iszero\n      tag_13\n      jumpi\n        /* \"--CODEGEN--\":277:278   */\n      0x00\n        /* \"--CODEGEN--\":274:275   */\n      dup1\n        /* \"--CODEGEN--\":267:279   */\n      revert\n        /* \"--CODEGEN--\":229:231   */\n    tag_13:\n        /* \"--CODEGEN--\":312:313   */\n      0x00\n        /* \"--CODEGEN--\":329:393   */\n      tag_14\n        /* \"--CODEGEN--\":385:392   */\n      dup5\n        /* \"--CODEGEN--\":376:382   */\n      dup3\n        /* \"--CODEGEN--\":365:374   */\n      dup6\n        /* \"--CODEGEN--\":361:383   */\n      add\n        /* \"--CODEGEN--\":329:393   */\n      tag_8\n      jump\t// in\n    tag_14:\n        /* \"--CODEGEN--\":319:393   */\n      swap2\n      pop\n        /* \"--CODEGEN--\":291:399   */\n      pop\n        /* \"--CODEGEN--\":223:409   */\n      swap3\n      swap2\n      pop\n      pop\n      jump\t// out\n        /* \"--CODEGEN--\":416:488   */\n    tag_15:\n      0x00\n        /* \"--CODEGEN--\":478:483   */\n      dup2\n        /* \"--CODEGEN--\":467:483   */\n      swap1\n      pop\n        /* \"--CODEGEN--\":461:488   */\n      swap2\n      swap1\n      pop\n      jump\t// out\n        /* \"--CODEGEN--\":495:612   */\n    tag_11:\n        /* \"--CODEGEN--\":564:588   */\n      tag_18\n        /* \"--CODEGEN--\":582:587   */\n      dup2\n        /* \"--CODEGEN--\":564:588   */\n      tag_15\n      jump\t// in\n    tag_18:\n        /* \"--CODEGEN--\":557:562   */\n      dup2\n        /* \"--CODEGEN--\":554:589   */\n      eq\n        /* \"--CODEGEN--\":544:546   */\n      tag_19\n      jumpi\n        /* \"--CODEGEN--\":603:604   */\n      0x00\n        /* \"--CODEGEN--\":600:601   */\n      dup1\n        /* \"--CODEGEN--\":593:605   */\n      revert\n        /* \"--CODEGEN--\":544:546   */\n    tag_19:\n        /* \"--CODEGEN--\":538:612   */\n      pop\n      jump\t// out\n        /* \"Disney/ERC20.sol\":1459:3770  contract ERC20Basic is IERC20 {\r... */\n    tag_6:\n      dataSize(sub_0)\n      dup1\n      dataOffset(sub_0)\n      0x00\n      codecopy\n      0x00\n      return\n    stop\n\n    sub_0: assembly {\n            /* \"Disney/ERC20.sol\":1459:3770  contract ERC20Basic is IERC20 {\r... */\n          mstore(0x40, 0x80)\n          callvalue\n          dup1\n          iszero\n          tag_1\n          jumpi\n          0x00\n          dup1\n          revert\n        tag_1:\n          pop\n          jumpi(tag_2, lt(calldatasize, 0x04))\n          shr(0xe0, calldataload(0x00))\n          dup1\n          0x313ce567\n          gt\n          tag_13\n          jumpi\n          dup1\n          0x313ce567\n          eq\n          tag_8\n          jumpi\n          dup1\n          0x70a08231\n          eq\n          tag_9\n          jumpi\n          dup1\n          0x95d89b41\n          eq\n          tag_10\n          jumpi\n          dup1\n          0xa9059cbb\n          eq\n          tag_11\n          jumpi\n          dup1\n          0xdd62ed3e\n          eq\n          tag_12\n          jumpi\n          jump(tag_2)\n        tag_13:\n          dup1\n          0x06fdde03\n          eq\n          tag_3\n          jumpi\n          dup1\n          0x095ea7b3\n          eq\n          tag_4\n          jumpi\n          dup1\n          0x18160ddd\n          eq\n          tag_5\n          jumpi\n          dup1\n          0x1d43cc98\n          eq\n          tag_6\n          jumpi\n          dup1\n          0x23b872dd\n          eq\n          tag_7\n          jumpi\n        tag_2:\n          0x00\n          dup1\n          revert\n            /* \"Disney/ERC20.sol\":1533:1577  string public constant name = \"ERC20AKALugo\" */\n        tag_3:\n          tag_14\n          tag_15\n          jump\t// in\n        tag_14:\n          mload(0x40)\n          tag_16\n          swap2\n          swap1\n          tag_17\n          jump\t// in\n        tag_16:\n          mload(0x40)\n          dup1\n          swap2\n          sub\n          swap1\n          return\n            /* \"Disney/ERC20.sol\":3037:3266  function approve(address spender, uint numTokens) public override returns(bool) {\r... */\n        tag_4:\n          tag_18\n          0x04\n          dup1\n          calldatasize\n          sub\n          dup2\n          add\n          swap1\n          tag_19\n          swap2\n          swap1\n          tag_20\n          jump\t// in\n        tag_19:\n          tag_21\n          jump\t// in\n        tag_18:\n          mload(0x40)\n          tag_22\n          swap2\n          swap1\n          tag_23\n          jump\t// in\n        tag_22:\n          mload(0x40)\n          dup1\n          swap2\n          sub\n          swap1\n          return\n            /* \"Disney/ERC20.sol\":2112:2211  function totalSupply() public override view returns(uint256) {\r... */\n        tag_5:\n          tag_24\n          tag_25\n          jump\t// in\n        tag_24:\n          mload(0x40)\n          tag_26\n          swap2\n          swap1\n          tag_27\n          jump\t// in\n        tag_26:\n          mload(0x40)\n          dup1\n          swap2\n          sub\n          swap1\n          return\n            /* \"Disney/ERC20.sol\":2219:2377  function increaseTotalSupply(uint newTokensAmount) public {\r... */\n        tag_6:\n          tag_28\n          0x04\n          dup1\n          calldatasize\n          sub\n          dup2\n          add\n          swap1\n          tag_29\n          swap2\n          swap1\n          tag_30\n          jump\t// in\n        tag_29:\n          tag_31\n          jump\t// in\n        tag_28:\n          stop\n            /* \"Disney/ERC20.sol\":3274:3767  function transferFrom(address owner, address buyer, uint256 numTokens) public override returns(bool) {\r... */\n        tag_7:\n          tag_32\n          0x04\n          dup1\n          calldatasize\n          sub\n          dup2\n          add\n          swap1\n          tag_33\n          swap2\n          swap1\n          tag_34\n          jump\t// in\n        tag_33:\n          tag_35\n          jump\t// in\n        tag_32:\n          mload(0x40)\n          tag_36\n          swap2\n          swap1\n          tag_23\n          jump\t// in\n        tag_36:\n          mload(0x40)\n          dup1\n          swap2\n          sub\n          swap1\n          return\n            /* \"Disney/ERC20.sol\":1628:1663  uint8 public constant decimals = 18 */\n        tag_8:\n          tag_37\n          tag_38\n          jump\t// in\n        tag_37:\n          mload(0x40)\n          tag_39\n          swap2\n          swap1\n          tag_40\n          jump\t// in\n        tag_39:\n          mload(0x40)\n          dup1\n          swap2\n          sub\n          swap1\n          return\n            /* \"Disney/ERC20.sol\":2385:2503  function balanceOf(address account) public override view returns (uint256) {\r... */\n        tag_9:\n          tag_41\n          0x04\n          dup1\n          calldatasize\n          sub\n          dup2\n          add\n          swap1\n          tag_42\n          swap2\n          swap1\n          tag_43\n          jump\t// in\n        tag_42:\n          tag_44\n          jump\t// in\n        tag_41:\n          mload(0x40)\n          tag_45\n          swap2\n          swap1\n          tag_27\n          jump\t// in\n        tag_45:\n          mload(0x40)\n          dup1\n          swap2\n          sub\n          swap1\n          return\n            /* \"Disney/ERC20.sol\":1584:1621  string public constant symbol = \"AKA\" */\n        tag_10:\n          tag_46\n          tag_47\n          jump\t// in\n        tag_46:\n          mload(0x40)\n          tag_48\n          swap2\n          swap1\n          tag_17\n          jump\t// in\n        tag_48:\n          mload(0x40)\n          dup1\n          swap2\n          sub\n          swap1\n          return\n            /* \"Disney/ERC20.sol\":2658:3029  function transfer(address recipient, uint256 numTokens) public override returns(bool) {\r... */\n        tag_11:\n          tag_49\n          0x04\n          dup1\n          calldatasize\n          sub\n          dup2\n          add\n          swap1\n          tag_50\n          swap2\n          swap1\n          tag_20\n          jump\t// in\n        tag_50:\n          tag_51\n          jump\t// in\n        tag_49:\n          mload(0x40)\n          tag_52\n          swap2\n          swap1\n          tag_23\n          jump\t// in\n        tag_52:\n          mload(0x40)\n          dup1\n          swap2\n          sub\n          swap1\n          return\n            /* \"Disney/ERC20.sol\":2511:2650  function allowance(address owner, address spender) public override view returns (uint256) {\r... */\n        tag_12:\n          tag_53\n          0x04\n          dup1\n          calldatasize\n          sub\n          dup2\n          add\n          swap1\n          tag_54\n          swap2\n          swap1\n          tag_55\n          jump\t// in\n        tag_54:\n          tag_56\n          jump\t// in\n        tag_53:\n          mload(0x40)\n          tag_57\n          swap2\n          swap1\n          tag_27\n          jump\t// in\n        tag_57:\n          mload(0x40)\n          dup1\n          swap2\n          sub\n          swap1\n          return\n            /* \"Disney/ERC20.sol\":1533:1577  string public constant name = \"ERC20AKALugo\" */\n        tag_15:\n          mload(0x40)\n          dup1\n          0x40\n          add\n          0x40\n          mstore\n          dup1\n          0x0c\n          dup2\n          mstore\n          0x20\n          add\n          0x4552433230414b414c75676f0000000000000000000000000000000000000000\n          dup2\n          mstore\n          pop\n          dup2\n          jump\t// out\n            /* \"Disney/ERC20.sol\":3037:3266  function approve(address spender, uint numTokens) public override returns(bool) {\r... */\n        tag_21:\n            /* \"Disney/ERC20.sol\":3111:3115  bool */\n          0x00\n            /* \"Disney/ERC20.sol\":3169:3178  numTokens */\n          dup2\n            /* \"Disney/ERC20.sol\":3138:3145  allowed */\n          0x01\n            /* \"Disney/ERC20.sol\":3138:3157  allowed[msg.sender] */\n          0x00\n            /* \"Disney/ERC20.sol\":3146:3156  msg.sender */\n          caller\n            /* \"Disney/ERC20.sol\":3138:3157  allowed[msg.sender] */\n          0xffffffffffffffffffffffffffffffffffffffff\n          and\n          0xffffffffffffffffffffffffffffffffffffffff\n          and\n          dup2\n          mstore\n          0x20\n          add\n          swap1\n          dup2\n          mstore\n          0x20\n          add\n          0x00\n          keccak256\n            /* \"Disney/ERC20.sol\":3138:3166  allowed[msg.sender][spender] */\n          0x00\n            /* \"Disney/ERC20.sol\":3158:3165  spender */\n          dup6\n            /* \"Disney/ERC20.sol\":3138:3166  allowed[msg.sender][spender] */\n          0xffffffffffffffffffffffffffffffffffffffff\n          and\n          0xffffffffffffffffffffffffffffffffffffffff\n          and\n          dup2\n          mstore\n          0x20\n          add\n          swap1\n          dup2\n          mstore\n          0x20\n          add\n          0x00\n          keccak256\n            /* \"Disney/ERC20.sol\":3138:3178  allowed[msg.sender][spender] = numTokens */\n          dup2\n          swap1\n          sstore\n          pop\n            /* \"Disney/ERC20.sol\":3215:3222  spender */\n          dup3\n            /* \"Disney/ERC20.sol\":3194:3234  Approval(msg.sender, spender, numTokens) */\n          0xffffffffffffffffffffffffffffffffffffffff\n          and\n            /* \"Disney/ERC20.sol\":3203:3213  msg.sender */\n          caller\n            /* \"Disney/ERC20.sol\":3194:3234  Approval(msg.sender, spender, numTokens) */\n          0xffffffffffffffffffffffffffffffffffffffff\n          and\n          0x8c5be1e5ebec7d5bd14f71427d1e84f3dd0314c0f7b2291e5b200ac8c7c3b925\n            /* \"Disney/ERC20.sol\":3224:3233  numTokens */\n          dup5\n            /* \"Disney/ERC20.sol\":3194:3234  Approval(msg.sender, spender, numTokens) */\n          mload(0x40)\n          tag_59\n          swap2\n          swap1\n          tag_27\n          jump\t// in\n        tag_59:\n          mload(0x40)\n          dup1\n          swap2\n          sub\n          swap1\n          log3\n            /* \"Disney/ERC20.sol\":3254:3258  true */\n          0x01\n            /* \"Disney/ERC20.sol\":3247:3258  return true */\n          swap1\n          pop\n            /* \"Disney/ERC20.sol\":3037:3266  function approve(address spender, uint numTokens) public override returns(bool) {\r... */\n          swap3\n          swap2\n          pop\n          pop\n          jump\t// out\n            /* \"Disney/ERC20.sol\":2112:2211  function totalSupply() public override view returns(uint256) {\r... */\n        tag_25:\n            /* \"Disney/ERC20.sol\":2164:2171  uint256 */\n          0x00\n            /* \"Disney/ERC20.sol\":2191:2203  totalSupply_ */\n          sload(0x02)\n            /* \"Disney/ERC20.sol\":2184:2203  return totalSupply_ */\n          swap1\n          pop\n            /* \"Disney/ERC20.sol\":2112:2211  function totalSupply() public override view returns(uint256) {\r... */\n          swap1\n          jump\t// out\n            /* \"Disney/ERC20.sol\":2219:2377  function increaseTotalSupply(uint newTokensAmount) public {\r... */\n        tag_31:\n            /* \"Disney/ERC20.sol\":2304:2319  newTokensAmount */\n          dup1\n            /* \"Disney/ERC20.sol\":2288:2300  totalSupply_ */\n          0x02\n          0x00\n            /* \"Disney/ERC20.sol\":2288:2319  totalSupply_ += newTokensAmount */\n          dup3\n          dup3\n          sload\n          add\n          swap3\n          pop\n          pop\n          dup2\n          swap1\n          sstore\n          pop\n            /* \"Disney/ERC20.sol\":2354:2369  newTokensAmount */\n          dup1\n            /* \"Disney/ERC20.sol\":2330:2338  balances */\n          0x00\n            /* \"Disney/ERC20.sol\":2330:2350  balances[msg.sender] */\n          dup1\n            /* \"Disney/ERC20.sol\":2339:2349  msg.sender */\n          caller\n            /* \"Disney/ERC20.sol\":2330:2350  balances[msg.sender] */\n          0xffffffffffffffffffffffffffffffffffffffff\n          and\n          0xffffffffffffffffffffffffffffffffffffffff\n          and\n          dup2\n          mstore\n          0x20\n          add\n          swap1\n          dup2\n          mstore\n          0x20\n          add\n          0x00\n          keccak256\n          0x00\n            /* \"Disney/ERC20.sol\":2330:2369  balances[msg.sender] += newTokensAmount */\n          dup3\n          dup3\n          sload\n          add\n          swap3\n          pop\n          pop\n          dup2\n          swap1\n          sstore\n          pop\n            /* \"Disney/ERC20.sol\":2219:2377  function increaseTotalSupply(uint newTokensAmount) public {\r... */\n          pop\n          jump\t// out\n            /* \"Disney/ERC20.sol\":3274:3767  function transferFrom(address owner, address buyer, uint256 numTokens) public override returns(bool) {\r... */\n        tag_35:\n            /* \"Disney/ERC20.sol\":3369:3373  bool */\n          0x00\n            /* \"Disney/ERC20.sol\":3414:3423  numTokens */\n          dup2\n            /* \"Disney/ERC20.sol\":3395:3403  balances */\n          0x00\n            /* \"Disney/ERC20.sol\":3395:3410  balances[owner] */\n          dup1\n            /* \"Disney/ERC20.sol\":3404:3409  owner */\n          dup7\n            /* \"Disney/ERC20.sol\":3395:3410  balances[owner] */\n          0xffffffffffffffffffffffffffffffffffffffff\n          and\n          0xffffffffffffffffffffffffffffffffffffffff\n          and\n          dup2\n          mstore\n          0x20\n          add\n          swap1\n          dup2\n          mstore\n          0x20\n          add\n          0x00\n          keccak256\n          sload\n            /* \"Disney/ERC20.sol\":3395:3423  balances[owner] >= numTokens */\n          lt\n          iszero\n            /* \"Disney/ERC20.sol\":3386:3424  require (balances[owner] >= numTokens) */\n          tag_63\n          jumpi\n          0x00\n          dup1\n          revert\n        tag_63:\n            /* \"Disney/ERC20.sol\":3474:3483  numTokens */\n          dup2\n            /* \"Disney/ERC20.sol\":3444:3451  allowed */\n          0x01\n            /* \"Disney/ERC20.sol\":3444:3458  allowed[owner] */\n          0x00\n            /* \"Disney/ERC20.sol\":3452:3457  owner */\n          dup7\n            /* \"Disney/ERC20.sol\":3444:3458  allowed[owner] */\n          0xffffffffffffffffffffffffffffffffffffffff\n          and\n          0xffffffffffffffffffffffffffffffffffffffff\n          and\n          dup2\n          mstore\n          0x20\n          add\n          swap1\n          dup2\n          mstore\n          0x20\n          add\n          0x00\n          keccak256\n            /* \"Disney/ERC20.sol\":3444:3470  allowed[owner][msg.sender] */\n          0x00\n            /* \"Disney/ERC20.sol\":3459:3469  msg.sender */\n          caller\n            /* \"Disney/ERC20.sol\":3444:3470  allowed[owner][msg.sender] */\n          0xffffffffffffffffffffffffffffffffffffffff\n          and\n          0xffffffffffffffffffffffffffffffffffffffff\n          and\n          dup2\n          mstore\n          0x20\n          add\n          swap1\n          dup2\n          mstore\n          0x20\n          add\n          0x00\n          keccak256\n          sload\n            /* \"Disney/ERC20.sol\":3444:3483  allowed[owner][msg.sender] >= numTokens */\n          lt\n          iszero\n            /* \"Disney/ERC20.sol\":3435:3484  require (allowed[owner][msg.sender] >= numTokens) */\n          tag_64\n          jumpi\n          0x00\n          dup1\n          revert\n        tag_64:\n            /* \"Disney/ERC20.sol\":3515:3545  balances[owner].sub(numTokens) */\n          tag_65\n            /* \"Disney/ERC20.sol\":3535:3544  numTokens */\n          dup3\n            /* \"Disney/ERC20.sol\":3515:3523  balances */\n          0x00\n            /* \"Disney/ERC20.sol\":3515:3530  balances[owner] */\n          dup1\n            /* \"Disney/ERC20.sol\":3524:3529  owner */\n          dup8\n            /* \"Disney/ERC20.sol\":3515:3530  balances[owner] */\n          0xffffffffffffffffffffffffffffffffffffffff\n          and\n          0xffffffffffffffffffffffffffffffffffffffff\n          and\n          dup2\n          mstore\n          0x20\n          add\n          swap1\n          dup2\n          mstore\n          0x20\n          add\n          0x00\n          keccak256\n          sload\n            /* \"Disney/ERC20.sol\":3515:3534  balances[owner].sub */\n          tag_66\n          swap1\n            /* \"Disney/ERC20.sol\":3515:3545  balances[owner].sub(numTokens) */\n          swap2\n          swap1\n          0xffffffff\n          and\n          jump\t// in\n        tag_65:\n            /* \"Disney/ERC20.sol\":3497:3505  balances */\n          0x00\n            /* \"Disney/ERC20.sol\":3497:3512  balances[owner] */\n          dup1\n            /* \"Disney/ERC20.sol\":3506:3511  owner */\n          dup7\n            /* \"Disney/ERC20.sol\":3497:3512  balances[owner] */\n          0xffffffffffffffffffffffffffffffffffffffff\n          and\n          0xffffffffffffffffffffffffffffffffffffffff\n          and\n          dup2\n          mstore\n          0x20\n          add\n          swap1\n          dup2\n          mstore\n          0x20\n          add\n          0x00\n          keccak256\n            /* \"Disney/ERC20.sol\":3497:3545  balances[owner] = balances[owner].sub(numTokens) */\n          dup2\n          swap1\n          sstore\n          pop\n            /* \"Disney/ERC20.sol\":3585:3626  allowed[owner][msg.sender].sub(numTokens) */\n          tag_67\n            /* \"Disney/ERC20.sol\":3616:3625  numTokens */\n          dup3\n            /* \"Disney/ERC20.sol\":3585:3592  allowed */\n          0x01\n            /* \"Disney/ERC20.sol\":3585:3599  allowed[owner] */\n          0x00\n            /* \"Disney/ERC20.sol\":3593:3598  owner */\n          dup8\n            /* \"Disney/ERC20.sol\":3585:3599  allowed[owner] */\n          0xffffffffffffffffffffffffffffffffffffffff\n          and\n          0xffffffffffffffffffffffffffffffffffffffff\n          and\n          dup2\n          mstore\n          0x20\n          add\n          swap1\n          dup2\n          mstore\n          0x20\n          add\n          0x00\n          keccak256\n            /* \"Disney/ERC20.sol\":3585:3611  allowed[owner][msg.sender] */\n          0x00\n            /* \"Disney/ERC20.sol\":3600:3610  msg.sender */\n          caller\n            /* \"Disney/ERC20.sol\":3585:3611  allowed[owner][msg.sender] */\n          0xffffffffffffffffffffffffffffffffffffffff\n          and\n          0xffffffffffffffffffffffffffffffffffffffff\n          and\n          dup2\n          mstore\n          0x20\n          add\n          swap1\n          dup2\n          mstore\n          0x20\n          add\n          0x00\n          keccak256\n          sload\n            /* \"Disney/ERC20.sol\":3585:3615  allowed[owner][msg.sender].sub */\n          tag_66\n          swap1\n            /* \"Disney/ERC20.sol\":3585:3626  allowed[owner][msg.sender].sub(numTokens) */\n          swap2\n          swap1\n          0xffffffff\n          and\n          jump\t// in\n        tag_67:\n            /* \"Disney/ERC20.sol\":3556:3563  allowed */\n          0x01\n            /* \"Disney/ERC20.sol\":3556:3570  allowed[owner] */\n          0x00\n            /* \"Disney/ERC20.sol\":3564:3569  owner */\n          dup7\n            /* \"Disney/ERC20.sol\":3556:3570  allowed[owner] */\n          0xffffffffffffffffffffffffffffffffffffffff\n          and\n          0xffffffffffffffffffffffffffffffffffffffff\n          and\n          dup2\n          mstore\n          0x20\n          add\n          swap1\n          dup2\n          mstore\n          0x20\n          add\n          0x00\n          keccak256\n            /* \"Disney/ERC20.sol\":3556:3582  allowed[owner][msg.sender] */\n          0x00\n            /* \"Disney/ERC20.sol\":3571:3581  msg.sender */\n          caller\n            /* \"Disney/ERC20.sol\":3556:3582  allowed[owner][msg.sender] */\n          0xffffffffffffffffffffffffffffffffffffffff\n          and\n          0xffffffffffffffffffffffffffffffffffffffff\n          and\n          dup2\n          mstore\n          0x20\n          add\n          swap1\n          dup2\n          mstore\n          0x20\n          add\n          0x00\n          keccak256\n            /* \"Disney/ERC20.sol\":3556:3626  allowed[owner][msg.sender] = allowed[owner][msg.sender].sub(numTokens) */\n          dup2\n          swap1\n          sstore\n          pop\n            /* \"Disney/ERC20.sol\":3655:3685  balances[buyer].add(numTokens) */\n          tag_68\n            /* \"Disney/ERC20.sol\":3675:3684  numTokens */\n          dup3\n            /* \"Disney/ERC20.sol\":3655:3663  balances */\n          0x00\n            /* \"Disney/ERC20.sol\":3655:3670  balances[buyer] */\n          dup1\n            /* \"Disney/ERC20.sol\":3664:3669  buyer */\n          dup7\n            /* \"Disney/ERC20.sol\":3655:3670  balances[buyer] */\n          0xffffffffffffffffffffffffffffffffffffffff\n          and\n          0xffffffffffffffffffffffffffffffffffffffff\n          and\n          dup2\n          mstore\n          0x20\n          add\n          swap1\n          dup2\n          mstore\n          0x20\n          add\n          0x00\n          keccak256\n          sload\n            /* \"Disney/ERC20.sol\":3655:3674  balances[buyer].add */\n          tag_69\n          swap1\n            /* \"Disney/ERC20.sol\":3655:3685  balances[buyer].add(numTokens) */\n          swap2\n          swap1\n          0xffffffff\n          and\n          jump\t// in\n        tag_68:\n            /* \"Disney/ERC20.sol\":3637:3645  balances */\n          0x00\n            /* \"Disney/ERC20.sol\":3637:3652  balances[buyer] */\n          dup1\n            /* \"Disney/ERC20.sol\":3646:3651  buyer */\n          dup6\n            /* \"Disney/ERC20.sol\":3637:3652  balances[buyer] */\n          0xffffffffffffffffffffffffffffffffffffffff\n          and\n          0xffffffffffffffffffffffffffffffffffffffff\n          and\n          dup2\n          mstore\n          0x20\n          add\n          swap1\n          dup2\n          mstore\n          0x20\n          add\n          0x00\n          keccak256\n            /* \"Disney/ERC20.sol\":3637:3685  balances[buyer] = balances[buyer].add(numTokens) */\n          dup2\n          swap1\n          sstore\n          pop\n            /* \"Disney/ERC20.sol\":3719:3724  buyer */\n          dup3\n            /* \"Disney/ERC20.sol\":3703:3736  Transfer(owner, buyer, numTokens) */\n          0xffffffffffffffffffffffffffffffffffffffff\n          and\n            /* \"Disney/ERC20.sol\":3712:3717  owner */\n          dup5\n            /* \"Disney/ERC20.sol\":3703:3736  Transfer(owner, buyer, numTokens) */\n          0xffffffffffffffffffffffffffffffffffffffff\n          and\n          0xddf252ad1be2c89b69c2b068fc378daa952ba7f163c4a11628f55a4df523b3ef\n            /* \"Disney/ERC20.sol\":3726:3735  numTokens */\n          dup5\n            /* \"Disney/ERC20.sol\":3703:3736  Transfer(owner, buyer, numTokens) */\n          mload(0x40)\n          tag_70\n          swap2\n          swap1\n          tag_27\n          jump\t// in\n        tag_70:\n          mload(0x40)\n          dup1\n          swap2\n          sub\n          swap1\n          log3\n            /* \"Disney/ERC20.sol\":3755:3759  true */\n          0x01\n            /* \"Disney/ERC20.sol\":3748:3759  return true */\n          swap1\n          pop\n            /* \"Disney/ERC20.sol\":3274:3767  function transferFrom(address owner, address buyer, uint256 numTokens) public override returns(bool) {\r... */\n          swap4\n          swap3\n          pop\n          pop\n          pop\n          jump\t// out\n            /* \"Disney/ERC20.sol\":1628:1663  uint8 public constant decimals = 18 */\n        tag_38:\n            /* \"Disney/ERC20.sol\":1661:1663  18 */\n          0x12\n            /* \"Disney/ERC20.sol\":1628:1663  uint8 public constant decimals = 18 */\n          dup2\n          jump\t// out\n            /* \"Disney/ERC20.sol\":2385:2503  function balanceOf(address account) public override view returns (uint256) {\r... */\n        tag_44:\n            /* \"Disney/ERC20.sol\":2451:2458  uint256 */\n          0x00\n            /* \"Disney/ERC20.sol\":2478:2486  balances */\n          dup1\n            /* \"Disney/ERC20.sol\":2478:2495  balances[account] */\n          0x00\n            /* \"Disney/ERC20.sol\":2487:2494  account */\n          dup4\n            /* \"Disney/ERC20.sol\":2478:2495  balances[account] */\n          0xffffffffffffffffffffffffffffffffffffffff\n          and\n          0xffffffffffffffffffffffffffffffffffffffff\n          and\n          dup2\n          mstore\n          0x20\n          add\n          swap1\n          dup2\n          mstore\n          0x20\n          add\n          0x00\n          keccak256\n          sload\n            /* \"Disney/ERC20.sol\":2471:2495  return balances[account] */\n          swap1\n          pop\n            /* \"Disney/ERC20.sol\":2385:2503  function balanceOf(address account) public override view returns (uint256) {\r... */\n          swap2\n          swap1\n          pop\n          jump\t// out\n            /* \"Disney/ERC20.sol\":1584:1621  string public constant symbol = \"AKA\" */\n        tag_47:\n          mload(0x40)\n          dup1\n          0x40\n          add\n          0x40\n          mstore\n          dup1\n          0x03\n          dup2\n          mstore\n          0x20\n          add\n          0x414b410000000000000000000000000000000000000000000000000000000000\n          dup2\n          mstore\n          pop\n          dup2\n          jump\t// out\n            /* \"Disney/ERC20.sol\":2658:3029  function transfer(address recipient, uint256 numTokens) public override returns(bool) {\r... */\n        tag_51:\n            /* \"Disney/ERC20.sol\":2738:2742  bool */\n          0x00\n            /* \"Disney/ERC20.sol\":2777:2785  balances */\n          dup1\n            /* \"Disney/ERC20.sol\":2777:2797  balances[msg.sender] */\n          0x00\n            /* \"Disney/ERC20.sol\":2786:2796  msg.sender */\n          caller\n            /* \"Disney/ERC20.sol\":2777:2797  balances[msg.sender] */\n          0xffffffffffffffffffffffffffffffffffffffff\n          and\n          0xffffffffffffffffffffffffffffffffffffffff\n          and\n          dup2\n          mstore\n          0x20\n          add\n          swap1\n          dup2\n          mstore\n          0x20\n          add\n          0x00\n          keccak256\n          sload\n            /* \"Disney/ERC20.sol\":2764:2773  numTokens */\n          dup3\n            /* \"Disney/ERC20.sol\":2764:2797  numTokens <= balances[msg.sender] */\n          gt\n          iszero\n            /* \"Disney/ERC20.sol\":2755:2798  require (numTokens <= balances[msg.sender]) */\n          tag_73\n          jumpi\n          0x00\n          dup1\n          revert\n        tag_73:\n            /* \"Disney/ERC20.sol\":2834:2869  balances[msg.sender].sub(numTokens) */\n          tag_74\n            /* \"Disney/ERC20.sol\":2859:2868  numTokens */\n          dup3\n            /* \"Disney/ERC20.sol\":2834:2842  balances */\n          0x00\n            /* \"Disney/ERC20.sol\":2834:2854  balances[msg.sender] */\n          dup1\n            /* \"Disney/ERC20.sol\":2843:2853  msg.sender */\n          caller\n            /* \"Disney/ERC20.sol\":2834:2854  balances[msg.sender] */\n          0xffffffffffffffffffffffffffffffffffffffff\n          and\n          0xffffffffffffffffffffffffffffffffffffffff\n          and\n          dup2\n          mstore\n          0x20\n          add\n          swap1\n          dup2\n          mstore\n          0x20\n          add\n          0x00\n          keccak256\n          sload\n            /* \"Disney/ERC20.sol\":2834:2858  balances[msg.sender].sub */\n          tag_66\n          swap1\n            /* \"Disney/ERC20.sol\":2834:2869  balances[msg.sender].sub(numTokens) */\n          swap2\n          swap1\n          0xffffffff\n          and\n          jump\t// in\n        tag_74:\n            /* \"Disney/ERC20.sol\":2811:2819  balances */\n          0x00\n            /* \"Disney/ERC20.sol\":2811:2831  balances[msg.sender] */\n          dup1\n            /* \"Disney/ERC20.sol\":2820:2830  msg.sender */\n          caller\n            /* \"Disney/ERC20.sol\":2811:2831  balances[msg.sender] */\n          0xffffffffffffffffffffffffffffffffffffffff\n          and\n          0xffffffffffffffffffffffffffffffffffffffff\n          and\n          dup2\n          mstore\n          0x20\n          add\n          swap1\n          dup2\n          mstore\n          0x20\n          add\n          0x00\n          keccak256\n            /* \"Disney/ERC20.sol\":2811:2869  balances[msg.sender] = balances[msg.sender].sub(numTokens) */\n          dup2\n          swap1\n          sstore\n          pop\n            /* \"Disney/ERC20.sol\":2903:2937  balances[recipient].add(numTokens) */\n          tag_75\n            /* \"Disney/ERC20.sol\":2927:2936  numTokens */\n          dup3\n            /* \"Disney/ERC20.sol\":2903:2911  balances */\n          0x00\n            /* \"Disney/ERC20.sol\":2903:2922  balances[recipient] */\n          dup1\n            /* \"Disney/ERC20.sol\":2912:2921  recipient */\n          dup7\n            /* \"Disney/ERC20.sol\":2903:2922  balances[recipient] */\n          0xffffffffffffffffffffffffffffffffffffffff\n          and\n          0xffffffffffffffffffffffffffffffffffffffff\n          and\n          dup2\n          mstore\n          0x20\n          add\n          swap1\n          dup2\n          mstore\n          0x20\n          add\n          0x00\n          keccak256\n          sload\n            /* \"Disney/ERC20.sol\":2903:2926  balances[recipient].add */\n          tag_69\n          swap1\n            /* \"Disney/ERC20.sol\":2903:2937  balances[recipient].add(numTokens) */\n          swap2\n          swap1\n          0xffffffff\n          and\n          jump\t// in\n        tag_75:\n            /* \"Disney/ERC20.sol\":2881:2889  balances */\n          0x00\n            /* \"Disney/ERC20.sol\":2881:2900  balances[recipient] */\n          dup1\n            /* \"Disney/ERC20.sol\":2890:2899  recipient */\n          dup6\n            /* \"Disney/ERC20.sol\":2881:2900  balances[recipient] */\n          0xffffffffffffffffffffffffffffffffffffffff\n          and\n          0xffffffffffffffffffffffffffffffffffffffff\n          and\n          dup2\n          mstore\n          0x20\n          add\n          swap1\n          dup2\n          mstore\n          0x20\n          add\n          0x00\n          keccak256\n            /* \"Disney/ERC20.sol\":2881:2937  balances[recipient] = balances[recipient].add(numTokens) */\n          dup2\n          swap1\n          sstore\n          pop\n            /* \"Disney/ERC20.sol\":2976:2985  recipient */\n          dup3\n            /* \"Disney/ERC20.sol\":2955:2997  Transfer(msg.sender, recipient, numTokens) */\n          0xffffffffffffffffffffffffffffffffffffffff\n          and\n            /* \"Disney/ERC20.sol\":2964:2974  msg.sender */\n          caller\n            /* \"Disney/ERC20.sol\":2955:2997  Transfer(msg.sender, recipient, numTokens) */\n          0xffffffffffffffffffffffffffffffffffffffff\n          and\n          0xddf252ad1be2c89b69c2b068fc378daa952ba7f163c4a11628f55a4df523b3ef\n            /* \"Disney/ERC20.sol\":2987:2996  numTokens */\n          dup5\n            /* \"Disney/ERC20.sol\":2955:2997  Transfer(msg.sender, recipient, numTokens) */\n          mload(0x40)\n          tag_76\n          swap2\n          swap1\n          tag_27\n          jump\t// in\n        tag_76:\n          mload(0x40)\n          dup1\n          swap2\n          sub\n          swap1\n          log3\n            /* \"Disney/ERC20.sol\":3017:3021  true */\n          0x01\n            /* \"Disney/ERC20.sol\":3010:3021  return true */\n          swap1\n          pop\n            /* \"Disney/ERC20.sol\":2658:3029  function transfer(address recipient, uint256 numTokens) public override returns(bool) {\r... */\n          swap3\n          swap2\n          pop\n          pop\n          jump\t// out\n            /* \"Disney/ERC20.sol\":2511:2650  function allowance(address owner, address spender) public override view returns (uint256) {\r... */\n        tag_56:\n            /* \"Disney/ERC20.sol\":2592:2599  uint256 */\n          0x00\n            /* \"Disney/ERC20.sol\":2619:2626  allowed */\n          0x01\n            /* \"Disney/ERC20.sol\":2619:2633  allowed[owner] */\n          0x00\n            /* \"Disney/ERC20.sol\":2627:2632  owner */\n          dup5\n            /* \"Disney/ERC20.sol\":2619:2633  allowed[owner] */\n          0xffffffffffffffffffffffffffffffffffffffff\n          and\n          0xffffffffffffffffffffffffffffffffffffffff\n          and\n          dup2\n          mstore\n          0x20\n          add\n          swap1\n          dup2\n          mstore\n          0x20\n          add\n          0x00\n          keccak256\n            /* \"Disney/ERC20.sol\":2619:2642  allowed[owner][spender] */\n          0x00\n            /* \"Disney/ERC20.sol\":2634:2641  spender */\n          dup4\n            /* \"Disney/ERC20.sol\":2619:2642  allowed[owner][spender] */\n          0xffffffffffffffffffffffffffffffffffffffff\n          and\n          0xffffffffffffffffffffffffffffffffffffffff\n          and\n          dup2\n          mstore\n          0x20\n          add\n          swap1\n          dup2\n          mstore\n          0x20\n          add\n          0x00\n          keccak256\n          sload\n            /* \"Disney/ERC20.sol\":2612:2642  return allowed[owner][spender] */\n          swap1\n          pop\n            /* \"Disney/ERC20.sol\":2511:2650  function allowance(address owner, address spender) public override view returns (uint256) {\r... */\n          swap3\n          swap2\n          pop\n          pop\n          jump\t// out\n            /* \"Disney/SafeMath.sol\":318:437  function sub(uint256 a, uint256 b) internal pure returns (uint256) {\r... */\n        tag_66:\n            /* \"Disney/SafeMath.sol\":376:383  uint256 */\n          0x00\n            /* \"Disney/SafeMath.sol\":406:407  a */\n          dup3\n            /* \"Disney/SafeMath.sol\":401:402  b */\n          dup3\n            /* \"Disney/SafeMath.sol\":401:407  b <= a */\n          gt\n          iszero\n            /* \"Disney/SafeMath.sol\":394:408  assert(b <= a) */\n          tag_79\n          jumpi\n          invalid\n        tag_79:\n            /* \"Disney/SafeMath.sol\":428:429  b */\n          dup2\n            /* \"Disney/SafeMath.sol\":424:425  a */\n          dup4\n            /* \"Disney/SafeMath.sol\":424:429  a - b */\n          sub\n            /* \"Disney/SafeMath.sol\":417:429  return a - b */\n          swap1\n          pop\n            /* \"Disney/SafeMath.sol\":318:437  function sub(uint256 a, uint256 b) internal pure returns (uint256) {\r... */\n          swap3\n          swap2\n          pop\n          pop\n          jump\t// out\n            /* \"Disney/SafeMath.sol\":463:604  function add(uint256 a, uint256 b) internal pure returns (uint256) {\r... */\n        tag_69:\n            /* \"Disney/SafeMath.sol\":521:528  uint256 */\n          0x00\n            /* \"Disney/SafeMath.sol\":539:548  uint256 c */\n          dup1\n            /* \"Disney/SafeMath.sol\":555:556  b */\n          dup3\n            /* \"Disney/SafeMath.sol\":551:552  a */\n          dup5\n            /* \"Disney/SafeMath.sol\":551:556  a + b */\n          add\n            /* \"Disney/SafeMath.sol\":539:556  uint256 c = a + b */\n          swap1\n          pop\n            /* \"Disney/SafeMath.sol\":577:578  a */\n          dup4\n            /* \"Disney/SafeMath.sol\":572:573  c */\n          dup2\n            /* \"Disney/SafeMath.sol\":572:578  c >= a */\n          lt\n          iszero\n            /* \"Disney/SafeMath.sol\":565:579  assert(c >= a) */\n          tag_81\n          jumpi\n          invalid\n        tag_81:\n            /* \"Disney/SafeMath.sol\":595:596  c */\n          dup1\n            /* \"Disney/SafeMath.sol\":588:596  return c */\n          swap2\n          pop\n          pop\n            /* \"Disney/SafeMath.sol\":463:604  function add(uint256 a, uint256 b) internal pure returns (uint256) {\r... */\n          swap3\n          swap2\n          pop\n          pop\n          jump\t// out\n            /* \"--CODEGEN--\":5:135   */\n        tag_83:\n          0x00\n            /* \"--CODEGEN--\":85:91   */\n          dup2\n            /* \"--CODEGEN--\":72:92   */\n          calldataload\n            /* \"--CODEGEN--\":63:92   */\n          swap1\n          pop\n            /* \"--CODEGEN--\":97:130   */\n          tag_85\n            /* \"--CODEGEN--\":124:129   */\n          dup2\n            /* \"--CODEGEN--\":97:130   */\n          tag_86\n          jump\t// in\n        tag_85:\n            /* \"--CODEGEN--\":57:135   */\n          swap3\n          swap2\n          pop\n          pop\n          jump\t// out\n            /* \"--CODEGEN--\":142:272   */\n        tag_87:\n          0x00\n            /* \"--CODEGEN--\":222:228   */\n          dup2\n            /* \"--CODEGEN--\":209:229   */\n          calldataload\n            /* \"--CODEGEN--\":200:229   */\n          swap1\n          pop\n            /* \"--CODEGEN--\":234:267   */\n          tag_89\n            /* \"--CODEGEN--\":261:266   */\n          dup2\n            /* \"--CODEGEN--\":234:267   */\n          tag_90\n          jump\t// in\n        tag_89:\n            /* \"--CODEGEN--\":194:272   */\n          swap3\n          swap2\n          pop\n          pop\n          jump\t// out\n            /* \"--CODEGEN--\":279:520   */\n        tag_43:\n          0x00\n            /* \"--CODEGEN--\":383:385   */\n          0x20\n            /* \"--CODEGEN--\":371:380   */\n          dup3\n            /* \"--CODEGEN--\":362:369   */\n          dup5\n            /* \"--CODEGEN--\":358:381   */\n          sub\n            /* \"--CODEGEN--\":354:386   */\n          slt\n            /* \"--CODEGEN--\":351:353   */\n          iszero\n          tag_92\n          jumpi\n            /* \"--CODEGEN--\":399:400   */\n          0x00\n            /* \"--CODEGEN--\":396:397   */\n          dup1\n            /* \"--CODEGEN--\":389:401   */\n          revert\n            /* \"--CODEGEN--\":351:353   */\n        tag_92:\n            /* \"--CODEGEN--\":434:435   */\n          0x00\n            /* \"--CODEGEN--\":451:504   */\n          tag_93\n            /* \"--CODEGEN--\":496:503   */\n          dup5\n            /* \"--CODEGEN--\":487:493   */\n          dup3\n            /* \"--CODEGEN--\":476:485   */\n          dup6\n            /* \"--CODEGEN--\":472:494   */\n          add\n            /* \"--CODEGEN--\":451:504   */\n          tag_83\n          jump\t// in\n        tag_93:\n            /* \"--CODEGEN--\":441:504   */\n          swap2\n          pop\n            /* \"--CODEGEN--\":413:510   */\n          pop\n            /* \"--CODEGEN--\":345:520   */\n          swap3\n          swap2\n          pop\n          pop\n          jump\t// out\n            /* \"--CODEGEN--\":527:893   */\n        tag_55:\n          0x00\n          dup1\n            /* \"--CODEGEN--\":648:650   */\n          0x40\n            /* \"--CODEGEN--\":636:645   */\n          dup4\n            /* \"--CODEGEN--\":627:634   */\n          dup6\n            /* \"--CODEGEN--\":623:646   */\n          sub\n            /* \"--CODEGEN--\":619:651   */\n          slt\n            /* \"--CODEGEN--\":616:618   */\n          iszero\n          tag_95\n          jumpi\n            /* \"--CODEGEN--\":664:665   */\n          0x00\n            /* \"--CODEGEN--\":661:662   */\n          dup1\n            /* \"--CODEGEN--\":654:666   */\n          revert\n            /* \"--CODEGEN--\":616:618   */\n        tag_95:\n            /* \"--CODEGEN--\":699:700   */\n          0x00\n            /* \"--CODEGEN--\":716:769   */\n          tag_96\n            /* \"--CODEGEN--\":761:768   */\n          dup6\n            /* \"--CODEGEN--\":752:758   */\n          dup3\n            /* \"--CODEGEN--\":741:750   */\n          dup7\n            /* \"--CODEGEN--\":737:759   */\n          add\n            /* \"--CODEGEN--\":716:769   */\n          tag_83\n          jump\t// in\n        tag_96:\n            /* \"--CODEGEN--\":706:769   */\n          swap3\n          pop\n            /* \"--CODEGEN--\":678:775   */\n          pop\n            /* \"--CODEGEN--\":806:808   */\n          0x20\n            /* \"--CODEGEN--\":824:877   */\n          tag_97\n            /* \"--CODEGEN--\":869:876   */\n          dup6\n            /* \"--CODEGEN--\":860:866   */\n          dup3\n            /* \"--CODEGEN--\":849:858   */\n          dup7\n            /* \"--CODEGEN--\":845:867   */\n          add\n            /* \"--CODEGEN--\":824:877   */\n          tag_83\n          jump\t// in\n        tag_97:\n            /* \"--CODEGEN--\":814:877   */\n          swap2\n          pop\n            /* \"--CODEGEN--\":785:883   */\n          pop\n            /* \"--CODEGEN--\":610:893   */\n          swap3\n          pop\n          swap3\n          swap1\n          pop\n          jump\t// out\n            /* \"--CODEGEN--\":900:1391   */\n        tag_34:\n          0x00\n          dup1\n          0x00\n            /* \"--CODEGEN--\":1038:1040   */\n          0x60\n            /* \"--CODEGEN--\":1026:1035   */\n          dup5\n            /* \"--CODEGEN--\":1017:1024   */\n          dup7\n            /* \"--CODEGEN--\":1013:1036   */\n          sub\n            /* \"--CODEGEN--\":1009:1041   */\n          slt\n            /* \"--CODEGEN--\":1006:1008   */\n          iszero\n          tag_99\n          jumpi\n            /* \"--CODEGEN--\":1054:1055   */\n          0x00\n            /* \"--CODEGEN--\":1051:1052   */\n          dup1\n            /* \"--CODEGEN--\":1044:1056   */\n          revert\n            /* \"--CODEGEN--\":1006:1008   */\n        tag_99:\n            /* \"--CODEGEN--\":1089:1090   */\n          0x00\n            /* \"--CODEGEN--\":1106:1159   */\n          tag_100\n            /* \"--CODEGEN--\":1151:1158   */\n          dup7\n            /* \"--CODEGEN--\":1142:1148   */\n          dup3\n            /* \"--CODEGEN--\":1131:1140   */\n          dup8\n            /* \"--CODEGEN--\":1127:1149   */\n          add\n            /* \"--CODEGEN--\":1106:1159   */\n          tag_83\n          jump\t// in\n        tag_100:\n            /* \"--CODEGEN--\":1096:1159   */\n          swap4\n          pop\n            /* \"--CODEGEN--\":1068:1165   */\n          pop\n            /* \"--CODEGEN--\":1196:1198   */\n          0x20\n            /* \"--CODEGEN--\":1214:1267   */\n          tag_101\n            /* \"--CODEGEN--\":1259:1266   */\n          dup7\n            /* \"--CODEGEN--\":1250:1256   */\n          dup3\n            /* \"--CODEGEN--\":1239:1248   */\n          dup8\n            /* \"--CODEGEN--\":1235:1257   */\n          add\n            /* \"--CODEGEN--\":1214:1267   */\n          tag_83\n          jump\t// in\n        tag_101:\n            /* \"--CODEGEN--\":1204:1267   */\n          swap3\n          pop\n            /* \"--CODEGEN--\":1175:1273   */\n          pop\n            /* \"--CODEGEN--\":1304:1306   */\n          0x40\n            /* \"--CODEGEN--\":1322:1375   */\n          tag_102\n            /* \"--CODEGEN--\":1367:1374   */\n          dup7\n            /* \"--CODEGEN--\":1358:1364   */\n          dup3\n            /* \"--CODEGEN--\":1347:1356   */\n          dup8\n            /* \"--CODEGEN--\":1343:1365   */\n          add\n            /* \"--CODEGEN--\":1322:1375   */\n          tag_87\n          jump\t// in\n        tag_102:\n            /* \"--CODEGEN--\":1312:1375   */\n          swap2\n          pop\n            /* \"--CODEGEN--\":1283:1381   */\n          pop\n            /* \"--CODEGEN--\":1000:1391   */\n          swap3\n          pop\n          swap3\n          pop\n          swap3\n          jump\t// out\n            /* \"--CODEGEN--\":1398:1764   */\n        tag_20:\n          0x00\n          dup1\n            /* \"--CODEGEN--\":1519:1521   */\n          0x40\n            /* \"--CODEGEN--\":1507:1516   */\n          dup4\n            /* \"--CODEGEN--\":1498:1505   */\n          dup6\n            /* \"--CODEGEN--\":1494:1517   */\n          sub\n            /* \"--CODEGEN--\":1490:1522   */\n          slt\n            /* \"--CODEGEN--\":1487:1489   */\n          iszero\n          tag_104\n          jumpi\n            /* \"--CODEGEN--\":1535:1536   */\n          0x00\n            /* \"--CODEGEN--\":1532:1533   */\n          dup1\n            /* \"--CODEGEN--\":1525:1537   */\n          revert\n            /* \"--CODEGEN--\":1487:1489   */\n        tag_104:\n            /* \"--CODEGEN--\":1570:1571   */\n          0x00\n            /* \"--CODEGEN--\":1587:1640   */\n          tag_105\n            /* \"--CODEGEN--\":1632:1639   */\n          dup6\n            /* \"--CODEGEN--\":1623:1629   */\n          dup3\n            /* \"--CODEGEN--\":1612:1621   */\n          dup7\n            /* \"--CODEGEN--\":1608:1630   */\n          add\n            /* \"--CODEGEN--\":1587:1640   */\n          tag_83\n          jump\t// in\n        tag_105:\n            /* \"--CODEGEN--\":1577:1640   */\n          swap3\n          pop\n            /* \"--CODEGEN--\":1549:1646   */\n          pop\n            /* \"--CODEGEN--\":1677:1679   */\n          0x20\n            /* \"--CODEGEN--\":1695:1748   */\n          tag_106\n            /* \"--CODEGEN--\":1740:1747   */\n          dup6\n            /* \"--CODEGEN--\":1731:1737   */\n          dup3\n            /* \"--CODEGEN--\":1720:1729   */\n          dup7\n            /* \"--CODEGEN--\":1716:1738   */\n          add\n            /* \"--CODEGEN--\":1695:1748   */\n          tag_87\n          jump\t// in\n        tag_106:\n            /* \"--CODEGEN--\":1685:1748   */\n          swap2\n          pop\n            /* \"--CODEGEN--\":1656:1754   */\n          pop\n            /* \"--CODEGEN--\":1481:1764   */\n          swap3\n          pop\n          swap3\n          swap1\n          pop\n          jump\t// out\n            /* \"--CODEGEN--\":1771:2012   */\n        tag_30:\n          0x00\n            /* \"--CODEGEN--\":1875:1877   */\n          0x20\n            /* \"--CODEGEN--\":1863:1872   */\n          dup3\n            /* \"--CODEGEN--\":1854:1861   */\n          dup5\n            /* \"--CODEGEN--\":1850:1873   */\n          sub\n            /* \"--CODEGEN--\":1846:1878   */\n          slt\n            /* \"--CODEGEN--\":1843:1845   */\n          iszero\n          tag_108\n          jumpi\n            /* \"--CODEGEN--\":1891:1892   */\n          0x00\n            /* \"--CODEGEN--\":1888:1889   */\n          dup1\n            /* \"--CODEGEN--\":1881:1893   */\n          revert\n            /* \"--CODEGEN--\":1843:1845   */\n        tag_108:\n            /* \"--CODEGEN--\":1926:1927   */\n          0x00\n            /* \"--CODEGEN--\":1943:1996   */\n          tag_109\n            /* \"--CODEGEN--\":1988:1995   */\n          dup5\n            /* \"--CODEGEN--\":1979:1985   */\n          dup3\n            /* \"--CODEGEN--\":1968:1977   */\n          dup6\n            /* \"--CODEGEN--\":1964:1986   */\n          add\n            /* \"--CODEGEN--\":1943:1996   */\n          tag_87\n          jump\t// in\n        tag_109:\n            /* \"--CODEGEN--\":1933:1996   */\n          swap2\n          pop\n            /* \"--CODEGEN--\":1905:2002   */\n          pop\n            /* \"--CODEGEN--\":1837:2012   */\n          swap3\n          swap2\n          pop\n          pop\n          jump\t// out\n            /* \"--CODEGEN--\":2019:2123   */\n        tag_110:\n            /* \"--CODEGEN--\":2096:2117   */\n          tag_112\n            /* \"--CODEGEN--\":2111:2116   */\n          dup2\n            /* \"--CODEGEN--\":2096:2117   */\n          tag_113\n          jump\t// in\n        tag_112:\n            /* \"--CODEGEN--\":2091:2094   */\n          dup3\n            /* \"--CODEGEN--\":2084:2118   */\n          mstore\n            /* \"--CODEGEN--\":2078:2123   */\n          pop\n          pop\n          jump\t// out\n            /* \"--CODEGEN--\":2130:2477   */\n        tag_114:\n          0x00\n            /* \"--CODEGEN--\":2242:2281   */\n          tag_116\n            /* \"--CODEGEN--\":2275:2280   */\n          dup3\n            /* \"--CODEGEN--\":2242:2281   */\n          tag_117\n          jump\t// in\n        tag_116:\n            /* \"--CODEGEN--\":2293:2364   */\n          tag_118\n            /* \"--CODEGEN--\":2357:2363   */\n          dup2\n            /* \"--CODEGEN--\":2352:2355   */\n          dup6\n            /* \"--CODEGEN--\":2293:2364   */\n          tag_119\n          jump\t// in\n        tag_118:\n            /* \"--CODEGEN--\":2286:2364   */\n          swap4\n          pop\n            /* \"--CODEGEN--\":2369:2421   */\n          tag_120\n            /* \"--CODEGEN--\":2414:2420   */\n          dup2\n            /* \"--CODEGEN--\":2409:2412   */\n          dup6\n            /* \"--CODEGEN--\":2402:2406   */\n          0x20\n            /* \"--CODEGEN--\":2395:2400   */\n          dup7\n            /* \"--CODEGEN--\":2391:2407   */\n          add\n            /* \"--CODEGEN--\":2369:2421   */\n          tag_121\n          jump\t// in\n        tag_120:\n            /* \"--CODEGEN--\":2442:2471   */\n          tag_122\n            /* \"--CODEGEN--\":2464:2470   */\n          dup2\n            /* \"--CODEGEN--\":2442:2471   */\n          tag_123\n          jump\t// in\n        tag_122:\n            /* \"--CODEGEN--\":2437:2440   */\n          dup5\n            /* \"--CODEGEN--\":2433:2472   */\n          add\n            /* \"--CODEGEN--\":2426:2472   */\n          swap2\n          pop\n            /* \"--CODEGEN--\":2222:2477   */\n          pop\n          swap3\n          swap2\n          pop\n          pop\n          jump\t// out\n            /* \"--CODEGEN--\":2484:2597   */\n        tag_124:\n            /* \"--CODEGEN--\":2567:2591   */\n          tag_126\n            /* \"--CODEGEN--\":2585:2590   */\n          dup2\n            /* \"--CODEGEN--\":2567:2591   */\n          tag_127\n          jump\t// in\n        tag_126:\n            /* \"--CODEGEN--\":2562:2565   */\n          dup3\n            /* \"--CODEGEN--\":2555:2592   */\n          mstore\n            /* \"--CODEGEN--\":2549:2597   */\n          pop\n          pop\n          jump\t// out\n            /* \"--CODEGEN--\":2604:2711   */\n        tag_128:\n            /* \"--CODEGEN--\":2683:2705   */\n          tag_130\n            /* \"--CODEGEN--\":2699:2704   */\n          dup2\n            /* \"--CODEGEN--\":2683:2705   */\n          tag_131\n          jump\t// in\n        tag_130:\n            /* \"--CODEGEN--\":2678:2681   */\n          dup3\n            /* \"--CODEGEN--\":2671:2706   */\n          mstore\n            /* \"--CODEGEN--\":2665:2711   */\n          pop\n          pop\n          jump\t// out\n            /* \"--CODEGEN--\":2718:2928   */\n        tag_23:\n          0x00\n            /* \"--CODEGEN--\":2839:2841   */\n          0x20\n            /* \"--CODEGEN--\":2828:2837   */\n          dup3\n            /* \"--CODEGEN--\":2824:2842   */\n          add\n            /* \"--CODEGEN--\":2816:2842   */\n          swap1\n          pop\n            /* \"--CODEGEN--\":2853:2918   */\n          tag_133\n            /* \"--CODEGEN--\":2915:2916   */\n          0x00\n            /* \"--CODEGEN--\":2904:2913   */\n          dup4\n            /* \"--CODEGEN--\":2900:2917   */\n          add\n            /* \"--CODEGEN--\":2891:2897   */\n          dup5\n            /* \"--CODEGEN--\":2853:2918   */\n          tag_110\n          jump\t// in\n        tag_133:\n            /* \"--CODEGEN--\":2810:2928   */\n          swap3\n          swap2\n          pop\n          pop\n          jump\t// out\n            /* \"--CODEGEN--\":2935:3245   */\n        tag_17:\n          0x00\n            /* \"--CODEGEN--\":3082:3084   */\n          0x20\n            /* \"--CODEGEN--\":3071:3080   */\n          dup3\n            /* \"--CODEGEN--\":3067:3085   */\n          add\n            /* \"--CODEGEN--\":3059:3085   */\n          swap1\n          pop\n            /* \"--CODEGEN--\":3132:3141   */\n          dup2\n            /* \"--CODEGEN--\":3126:3130   */\n          dup2\n            /* \"--CODEGEN--\":3122:3142   */\n          sub\n            /* \"--CODEGEN--\":3118:3119   */\n          0x00\n            /* \"--CODEGEN--\":3107:3116   */\n          dup4\n            /* \"--CODEGEN--\":3103:3120   */\n          add\n            /* \"--CODEGEN--\":3096:3143   */\n          mstore\n            /* \"--CODEGEN--\":3157:3235   */\n          tag_135\n            /* \"--CODEGEN--\":3230:3234   */\n          dup2\n            /* \"--CODEGEN--\":3221:3227   */\n          dup5\n            /* \"--CODEGEN--\":3157:3235   */\n          tag_114\n          jump\t// in\n        tag_135:\n            /* \"--CODEGEN--\":3149:3235   */\n          swap1\n          pop\n            /* \"--CODEGEN--\":3053:3245   */\n          swap3\n          swap2\n          pop\n          pop\n          jump\t// out\n            /* \"--CODEGEN--\":3252:3474   */\n        tag_27:\n          0x00\n            /* \"--CODEGEN--\":3379:3381   */\n          0x20\n            /* \"--CODEGEN--\":3368:3377   */\n          dup3\n            /* \"--CODEGEN--\":3364:3382   */\n          add\n            /* \"--CODEGEN--\":3356:3382   */\n          swap1\n          pop\n            /* \"--CODEGEN--\":3393:3464   */\n          tag_137\n            /* \"--CODEGEN--\":3461:3462   */\n          0x00\n            /* \"--CODEGEN--\":3450:3459   */\n          dup4\n            /* \"--CODEGEN--\":3446:3463   */\n          add\n            /* \"--CODEGEN--\":3437:3443   */\n          dup5\n            /* \"--CODEGEN--\":3393:3464   */\n          tag_124\n          jump\t// in\n        tag_137:\n            /* \"--CODEGEN--\":3350:3474   */\n          swap3\n          swap2\n          pop\n          pop\n          jump\t// out\n            /* \"--CODEGEN--\":3481:3695   */\n        tag_40:\n          0x00\n            /* \"--CODEGEN--\":3604:3606   */\n          0x20\n            /* \"--CODEGEN--\":3593:3602   */\n          dup3\n            /* \"--CODEGEN--\":3589:3607   */\n          add\n            /* \"--CODEGEN--\":3581:3607   */\n          swap1\n          pop\n            /* \"--CODEGEN--\":3618:3685   */\n          tag_139\n            /* \"--CODEGEN--\":3682:3683   */\n          0x00\n            /* \"--CODEGEN--\":3671:3680   */\n          dup4\n            /* \"--CODEGEN--\":3667:3684   */\n          add\n            /* \"--CODEGEN--\":3658:3664   */\n          dup5\n            /* \"--CODEGEN--\":3618:3685   */\n          tag_128\n          jump\t// in\n        tag_139:\n            /* \"--CODEGEN--\":3575:3695   */\n          swap3\n          swap2\n          pop\n          pop\n          jump\t// out\n            /* \"--CODEGEN--\":3702:3824   */\n        tag_117:\n          0x00\n            /* \"--CODEGEN--\":3796:3801   */\n          dup2\n            /* \"--CODEGEN--\":3790:3802   */\n          mload\n            /* \"--CODEGEN--\":3780:3802   */\n          swap1\n          pop\n            /* \"--CODEGEN--\":3761:3824   */\n          swap2\n          swap1\n          pop\n          jump\t// out\n            /* \"--CODEGEN--\":3832:3995   */\n        tag_119:\n          0x00\n            /* \"--CODEGEN--\":3947:3953   */\n          dup3\n            /* \"--CODEGEN--\":3942:3945   */\n          dup3\n            /* \"--CODEGEN--\":3935:3954   */\n          mstore\n            /* \"--CODEGEN--\":3984:3988   */\n          0x20\n            /* \"--CODEGEN--\":3979:3982   */\n          dup3\n            /* \"--CODEGEN--\":3975:3989   */\n          add\n            /* \"--CODEGEN--\":3960:3989   */\n          swap1\n          pop\n            /* \"--CODEGEN--\":3928:3995   */\n          swap3\n          swap2\n          pop\n          pop\n          jump\t// out\n            /* \"--CODEGEN--\":4003:4094   */\n        tag_142:\n          0x00\n            /* \"--CODEGEN--\":4065:4089   */\n          tag_144\n            /* \"--CODEGEN--\":4083:4088   */\n          dup3\n            /* \"--CODEGEN--\":4065:4089   */\n          tag_145\n          jump\t// in\n        tag_144:\n            /* \"--CODEGEN--\":4054:4089   */\n          swap1\n          pop\n            /* \"--CODEGEN--\":4048:4094   */\n          swap2\n          swap1\n          pop\n          jump\t// out\n            /* \"--CODEGEN--\":4101:4186   */\n        tag_113:\n          0x00\n            /* \"--CODEGEN--\":4174:4179   */\n          dup2\n            /* \"--CODEGEN--\":4167:4180   */\n          iszero\n            /* \"--CODEGEN--\":4160:4181   */\n          iszero\n            /* \"--CODEGEN--\":4149:4181   */\n          swap1\n          pop\n            /* \"--CODEGEN--\":4143:4186   */\n          swap2\n          swap1\n          pop\n          jump\t// out\n            /* \"--CODEGEN--\":4193:4314   */\n        tag_145:\n          0x00\n            /* \"--CODEGEN--\":4266:4308   */\n          0xffffffffffffffffffffffffffffffffffffffff\n            /* \"--CODEGEN--\":4259:4264   */\n          dup3\n            /* \"--CODEGEN--\":4255:4309   */\n          and\n            /* \"--CODEGEN--\":4244:4309   */\n          swap1\n          pop\n            /* \"--CODEGEN--\":4238:4314   */\n          swap2\n          swap1\n          pop\n          jump\t// out\n            /* \"--CODEGEN--\":4321:4393   */\n        tag_127:\n          0x00\n            /* \"--CODEGEN--\":4383:4388   */\n          dup2\n            /* \"--CODEGEN--\":4372:4388   */\n          swap1\n          pop\n            /* \"--CODEGEN--\":4366:4393   */\n          swap2\n          swap1\n          pop\n          jump\t// out\n            /* \"--CODEGEN--\":4400:4481   */\n        tag_131:\n          0x00\n            /* \"--CODEGEN--\":4471:4475   */\n          0xff\n            /* \"--CODEGEN--\":4464:4469   */\n          dup3\n            /* \"--CODEGEN--\":4460:4476   */\n          and\n            /* \"--CODEGEN--\":4449:4476   */\n          swap1\n          pop\n            /* \"--CODEGEN--\":4443:4481   */\n          swap2\n          swap1\n          pop\n          jump\t// out\n            /* \"--CODEGEN--\":4489:4757   */\n        tag_121:\n            /* \"--CODEGEN--\":4554:4555   */\n          0x00\n            /* \"--CODEGEN--\":4561:4662   */\n        tag_151:\n            /* \"--CODEGEN--\":4575:4581   */\n          dup4\n            /* \"--CODEGEN--\":4572:4573   */\n          dup2\n            /* \"--CODEGEN--\":4569:4582   */\n          lt\n            /* \"--CODEGEN--\":4561:4662   */\n          iszero\n          tag_153\n          jumpi\n            /* \"--CODEGEN--\":4651:4652   */\n          dup1\n            /* \"--CODEGEN--\":4646:4649   */\n          dup3\n            /* \"--CODEGEN--\":4642:4653   */\n          add\n            /* \"--CODEGEN--\":4636:4654   */\n          mload\n            /* \"--CODEGEN--\":4632:4633   */\n          dup2\n            /* \"--CODEGEN--\":4627:4630   */\n          dup5\n            /* \"--CODEGEN--\":4623:4634   */\n          add\n            /* \"--CODEGEN--\":4616:4655   */\n          mstore\n            /* \"--CODEGEN--\":4597:4599   */\n          0x20\n            /* \"--CODEGEN--\":4594:4595   */\n          dup2\n            /* \"--CODEGEN--\":4590:4600   */\n          add\n            /* \"--CODEGEN--\":4585:4600   */\n          swap1\n          pop\n            /* \"--CODEGEN--\":4561:4662   */\n          jump(tag_151)\n        tag_153:\n            /* \"--CODEGEN--\":4677:4683   */\n          dup4\n            /* \"--CODEGEN--\":4674:4675   */\n          dup2\n            /* \"--CODEGEN--\":4671:4684   */\n          gt\n            /* \"--CODEGEN--\":4668:4670   */\n          iszero\n          tag_154\n          jumpi\n            /* \"--CODEGEN--\":4742:4743   */\n          0x00\n            /* \"--CODEGEN--\":4733:4739   */\n          dup5\n            /* \"--CODEGEN--\":4728:4731   */\n          dup5\n            /* \"--CODEGEN--\":4724:4740   */\n          add\n            /* \"--CODEGEN--\":4717:4744   */\n          mstore\n            /* \"--CODEGEN--\":4668:4670   */\n        tag_154:\n            /* \"--CODEGEN--\":4538:4757   */\n          pop\n          pop\n          pop\n          pop\n          jump\t// out\n            /* \"--CODEGEN--\":4765:4862   */\n        tag_123:\n          0x00\n            /* \"--CODEGEN--\":4853:4855   */\n          0x1f\n            /* \"--CODEGEN--\":4849:4856   */\n          not\n            /* \"--CODEGEN--\":4844:4846   */\n          0x1f\n            /* \"--CODEGEN--\":4837:4842   */\n          dup4\n            /* \"--CODEGEN--\":4833:4847   */\n          add\n            /* \"--CODEGEN--\":4829:4857   */\n          and\n            /* \"--CODEGEN--\":4819:4857   */\n          swap1\n          pop\n            /* \"--CODEGEN--\":4813:4862   */\n          swap2\n          swap1\n          pop\n          jump\t// out\n            /* \"--CODEGEN--\":4870:4987   */\n        tag_86:\n            /* \"--CODEGEN--\":4939:4963   */\n          tag_157\n            /* \"--CODEGEN--\":4957:4962   */\n          dup2\n            /* \"--CODEGEN--\":4939:4963   */\n          tag_142\n          jump\t// in\n        tag_157:\n            /* \"--CODEGEN--\":4932:4937   */\n          dup2\n            /* \"--CODEGEN--\":4929:4964   */\n          eq\n            /* \"--CODEGEN--\":4919:4921   */\n          tag_158\n          jumpi\n            /* \"--CODEGEN--\":4978:4979   */\n          0x00\n            /* \"--CODEGEN--\":4975:4976   */\n          dup1\n            /* \"--CODEGEN--\":4968:4980   */\n          revert\n            /* \"--CODEGEN--\":4919:4921   */\n        tag_158:\n            /* \"--CODEGEN--\":4913:4987   */\n          pop\n          jump\t// out\n            /* \"--CODEGEN--\":4994:5111   */\n        tag_90:\n            /* \"--CODEGEN--\":5063:5087   */\n          tag_160\n            /* \"--CODEGEN--\":5081:5086   */\n          dup2\n            /* \"--CODEGEN--\":5063:5087   */\n          tag_127\n          jump\t// in\n        tag_160:\n            /* \"--CODEGEN--\":5056:5061   */\n          dup2\n            /* \"--CODEGEN--\":5053:5088   */\n          eq\n            /* \"--CODEGEN--\":5043:5045   */\n          tag_161\n          jumpi\n            /* \"--CODEGEN--\":5102:5103   */\n          0x00\n            /* \"--CODEGEN--\":5099:5100   */\n          dup1\n            /* \"--CODEGEN--\":5092:5104   */\n          revert\n            /* \"--CODEGEN--\":5043:5045   */\n        tag_161:\n            /* \"--CODEGEN--\":5037:5111   */\n          pop\n          jump\t// out\n\n        auxdata: 0xa2646970667358221220db26cb8525f0a6da6a43a6ec5d6d6614adfa4979c0e2a6ffd5498fb232bef64764736f6c634300060c0033\n    }\n}\n",
				"bytecode": {
					"linkReferences": {},
					"object": "60806040523480156200001157600080fd5b506103e86040516200002390620000d3565b6200002f9190620000f2565b604051809103906000f0801580156200004c573d6000803e3d6000fd5b506000806101000a81548173ffffffffffffffffffffffffffffffffffffffff021916908373ffffffffffffffffffffffffffffffffffffffff16021790555033600160006101000a81548173ffffffffffffffffffffffffffffffffffffffff021916908373ffffffffffffffffffffffffffffffffffffffff1602179055506200012d565b610e7f806200156383390190565b620000ec8162000119565b82525050565b6000602082019050620001096000830184620000e1565b92915050565b6000819050919050565b600062000126826200010f565b9050919050565b611426806200013d6000396000f3fe6080604052600436106100865760003560e01c8063a209415911610059578063a209415914610133578063ce8f2f381461015c578063d00df29614610199578063e33f34a0146101d8578063f77740911461020357610086565b80632076b56c1461008b5780637c1b38bf146100b45780638da5cb5b146100dd5780639a3174a014610108575b600080fd5b34801561009757600080fd5b506100b260048036038101906100ad9190610d05565b61021f565b005b3480156100c057600080fd5b506100db60048036038101906100d69190610d59565b6103b0565b005b3480156100e957600080fd5b506100f26104d0565b6040516100ff91906110c4565b60405180910390f35b34801561011457600080fd5b5061011d6104f6565b60405161012a9190611218565b60405180910390f35b34801561013f57600080fd5b5061015a60048036038101906101559190610cc4565b6105a7565b005b34801561016857600080fd5b50610183600480360381019061017e9190610c72565b610780565b6040516101909190611218565b60405180910390f35b3480156101a557600080fd5b506101c060048036038101906101bb9190610cc4565b61079e565b6040516101cf9392919061115a565b60405180910390f35b3480156101e457600080fd5b506101ed610883565b6040516101fa9190611218565b60405180910390f35b61021d60048036038101906102189190610d59565b610934565b005b33600160009054906101000a900473ffffffffffffffffffffffffffffffffffffffff1673ffffffffffffffffffffffffffffffffffffffff168173ffffffffffffffffffffffffffffffffffffffff16146102b0576040517f08c379a00000000000000000000000000000000000000000000000000000000081526004016102a7906111f8565b60405180910390fd5b6040518060600160405280848152602001838152602001600115158152506003846040516102de9190611060565b90815260200160405180910390206000820151816000019080519060200190610308929190610b2d565b506020820151816001015560408201518160020160006101000a81548160ff021916908315150217905550905050600483908060018154018082558091505060019003906000526020600020016000909190919091509080519060200190610371929190610b2d565b507ffc9ecd7a6c2ca96d38526a0b9cc22f2474ff8e596dd348edaab06be905ebe37883836040516103a392919061112a565b60405180910390a1505050565b33600160009054906101000a900473ffffffffffffffffffffffffffffffffffffffff1673ffffffffffffffffffffffffffffffffffffffff168173ffffffffffffffffffffffffffffffffffffffff1614610441576040517f08c379a0000000000000000000000000000000000000000000000000000000008152600401610438906111f8565b60405180910390fd5b60008054906101000a900473ffffffffffffffffffffffffffffffffffffffff1673ffffffffffffffffffffffffffffffffffffffff16631d43cc98836040518263ffffffff1660e01b815260040161049a9190611218565b600060405180830381600087803b1580156104b457600080fd5b505af11580156104c8573d6000803e3d6000fd5b505050505050565b600160009054906101000a900473ffffffffffffffffffffffffffffffffffffffff1681565b60008060009054906101000a900473ffffffffffffffffffffffffffffffffffffffff1673ffffffffffffffffffffffffffffffffffffffff166370a08231306040518263ffffffff1660e01b8152600401610552919061108e565b60206040518083038186803b15801561056a57600080fd5b505afa15801561057e573d6000803e3d6000fd5b505050506040513d601f19601f820116820180604052508101906105a29190610d82565b905090565b33600160009054906101000a900473ffffffffffffffffffffffffffffffffffffffff1673ffffffffffffffffffffffffffffffffffffffff168173ffffffffffffffffffffffffffffffffffffffff1614610638576040517f08c379a000000000000000000000000000000000000000000000000000000000815260040161062f906111f8565b60405180910390fd5b6000805b6004805490508110156106c9578360405160200161065a9190611060565b604051602081830303815290604052805190602001206004828154811061067d57fe5b906000526020600020016040516020016106979190611077565b6040516020818303038152906040528051906020012014156106bc57600191506106c9565b808060010191505061063c565b508061070a576040517f08c379a000000000000000000000000000000000000000000000000000000000815260040161070190611198565b60405180910390fd5b600060038460405161071c9190611060565b908152602001604051809103902060020160006101000a81548160ff0219169083151502179055507f24ba6c881728980191398db8dcfd8ed4f6aeb1c08df349d63f3b85075f3e86dd836040516107739190611108565b60405180910390a1505050565b60026020528060005260406000206000915090508060000154905081565b600381805160208101820180518482526020830160208501208183528095505050505050600091509050806000018054600181600116156101000203166002900480601f0160208091040260200160405190810160405280929190818152602001828054600181600116156101000203166002900480156108605780601f1061083557610100808354040283529160200191610860565b820191906000526020600020905b81548152906001019060200180831161084357829003601f168201915b5050505050908060010154908060020160009054906101000a900460ff16905083565b60008060009054906101000a900473ffffffffffffffffffffffffffffffffffffffff1673ffffffffffffffffffffffffffffffffffffffff166370a08231336040518263ffffffff1660e01b81526004016108df91906110a9565b60206040518083038186803b1580156108f757600080fd5b505afa15801561090b573d6000803e3d6000fd5b505050506040513d601f19601f8201168201806040525081019061092f9190610d82565b905090565b600061093f82610b19565b905080341015610984576040517f08c379a000000000000000000000000000000000000000000000000000000000815260040161097b906111b8565b60405180910390fd5b8161098d6104f6565b10156109ce576040517f08c379a00000000000000000000000000000000000000000000000000000000081526004016109c5906111d8565b60405180910390fd5b3373ffffffffffffffffffffffffffffffffffffffff166108fc8234039081150290604051600060405180830381858888f19350505050158015610a16573d6000803e3d6000fd5b5060008054906101000a900473ffffffffffffffffffffffffffffffffffffffff1673ffffffffffffffffffffffffffffffffffffffff1663a9059cbb33846040518363ffffffff1660e01b8152600401610a729291906110df565b602060405180830381600087803b158015610a8c57600080fd5b505af1158015610aa0573d6000803e3d6000fd5b505050506040513d601f19601f82011682018060405250810190610ac49190610c9b565b5081600260003373ffffffffffffffffffffffffffffffffffffffff1673ffffffffffffffffffffffffffffffffffffffff168152602001908152602001600020600001600082825401925050819055505050565b6000670de0b6b3a764000082029050919050565b828054600181600116156101000203166002900490600052602060002090601f016020900481019282601f10610b6e57805160ff1916838001178555610b9c565b82800160010185558215610b9c579182015b82811115610b9b578251825591602001919060010190610b80565b5b509050610ba99190610bad565b5090565b5b80821115610bc6576000816000905550600101610bae565b5090565b600081359050610bd9816113ab565b92915050565b600081519050610bee816113c2565b92915050565b600082601f830112610c0557600080fd5b8135610c18610c1382611260565b611233565b91508082526020830160208301858383011115610c3457600080fd5b610c3f838284611358565b50505092915050565b600081359050610c57816113d9565b92915050565b600081519050610c6c816113d9565b92915050565b600060208284031215610c8457600080fd5b6000610c9284828501610bca565b91505092915050565b600060208284031215610cad57600080fd5b6000610cbb84828501610bdf565b91505092915050565b600060208284031215610cd657600080fd5b600082013567ffffffffffffffff811115610cf057600080fd5b610cfc84828501610bf4565b91505092915050565b60008060408385031215610d1857600080fd5b600083013567ffffffffffffffff811115610d3257600080fd5b610d3e85828601610bf4565b9250506020610d4f85828601610c48565b9150509250929050565b600060208284031215610d6b57600080fd5b6000610d7984828501610c48565b91505092915050565b600060208284031215610d9457600080fd5b6000610da284828501610c5d565b91505092915050565b610db481611322565b82525050565b610dc3816112da565b82525050565b610dd2816112c8565b82525050565b610de1816112ec565b82525050565b6000610df2826112a1565b610dfc81856112ac565b9350610e0c818560208601611367565b610e158161139a565b840191505092915050565b6000610e2b826112a1565b610e3581856112bd565b9350610e45818560208601611367565b80840191505092915050565b600081546001811660008114610e6e5760018114610e9357610ed7565b607f6002830416610e7f81876112bd565b955060ff1983168652808601935050610ed7565b60028204610ea181876112bd565b9550610eac8561128c565b60005b82811015610ece57815481890152600182019150602081019050610eaf565b82880195505050505b505092915050565b6000610eec6051836112ac565b91507f4e6f207365207075656465206461722064652062616a61206120756e6120617460008301527f72616363696f6e20717565206e6f2068617961207369646f206461646120646560208301527f20616c7461207072657669616d656e74650000000000000000000000000000006040830152606082019050919050565b6000610f78601e836112ac565b91507f43616e746964616420646520657468657220696e737566696369656e746500006000830152602082019050919050565b6000610fb86020836112ac565b91507f43616e746964616420646520746f6b656e7320696e737566696369656e7465736000830152602082019050919050565b6000610ff8602c836112ac565b91507f4e6f207469656e6573207065726d69736f207061726120656a6563757461722060008301527f657374612061636369c3b36e00000000000000000000000000000000000000006020830152604082019050919050565b61105a81611318565b82525050565b600061106c8284610e20565b915081905092915050565b60006110838284610e51565b915081905092915050565b60006020820190506110a36000830184610dc9565b92915050565b60006020820190506110be6000830184610dab565b92915050565b60006020820190506110d96000830184610dba565b92915050565b60006040820190506110f46000830185610dab565b6111016020830184611051565b9392505050565b600060208201905081810360008301526111228184610de7565b905092915050565b600060408201905081810360008301526111448185610de7565b90506111536020830184611051565b9392505050565b600060608201905081810360008301526111748186610de7565b90506111836020830185611051565b6111906040830184610dd8565b949350505050565b600060208201905081810360008301526111b181610edf565b9050919050565b600060208201905081810360008301526111d181610f6b565b9050919050565b600060208201905081810360008301526111f181610fab565b9050919050565b6000602082019050818103600083015261121181610feb565b9050919050565b600060208201905061122d6000830184611051565b92915050565b6000604051905081810181811067ffffffffffffffff8211171561125657600080fd5b8060405250919050565b600067ffffffffffffffff82111561127757600080fd5b601f19601f8301169050602081019050919050565b60008190508160005260206000209050919050565b600081519050919050565b600082825260208201905092915050565b600081905092915050565b60006112d3826112f8565b9050919050565b60006112e5826112f8565b9050919050565b60008115159050919050565b600073ffffffffffffffffffffffffffffffffffffffff82169050919050565b6000819050919050565b600061132d82611334565b9050919050565b600061133f82611346565b9050919050565b6000611351826112f8565b9050919050565b82818337600083830152505050565b60005b8381101561138557808201518184015260208101905061136a565b83811115611394576000848401525b50505050565b6000601f19601f8301169050919050565b6113b4816112c8565b81146113bf57600080fd5b50565b6113cb816112ec565b81146113d657600080fd5b50565b6113e281611318565b81146113ed57600080fd5b5056fea264697066735822122017a71a37b8ff28d34b459d927756d921a617517af8f20b4de61abe7e838264b264736f6c634300060c0033608060405234801561001057600080fd5b50604051610e7f380380610e7f83398181016040528101906100329190610099565b806002819055506002546000803373ffffffffffffffffffffffffffffffffffffffff1673ffffffffffffffffffffffffffffffffffffffff16815260200190815260200160002081905550506100e3565b600081519050610093816100cc565b92915050565b6000602082840312156100ab57600080fd5b60006100b984828501610084565b91505092915050565b6000819050919050565b6100d5816100c2565b81146100e057600080fd5b50565b610d8d806100f26000396000f3fe608060405234801561001057600080fd5b506004361061009e5760003560e01c8063313ce56711610066578063313ce5671461015b57806370a082311461017957806395d89b41146101a9578063a9059cbb146101c7578063dd62ed3e146101f75761009e565b806306fdde03146100a3578063095ea7b3146100c157806318160ddd146100f15780631d43cc981461010f57806323b872dd1461012b575b600080fd5b6100ab610227565b6040516100b89190610c1c565b60405180910390f35b6100db60048036038101906100d69190610b36565b610260565b6040516100e89190610c01565b60405180910390f35b6100f9610352565b6040516101069190610c3e565b60405180910390f35b61012960048036038101906101249190610b72565b61035c565b005b61014560048036038101906101409190610ae7565b6103bb565b6040516101529190610c01565b60405180910390f35b610163610736565b6040516101709190610c59565b60405180910390f35b610193600480360381019061018e9190610a82565b61073b565b6040516101a09190610c3e565b60405180910390f35b6101b1610783565b6040516101be9190610c1c565b60405180910390f35b6101e160048036038101906101dc9190610b36565b6107bc565b6040516101ee9190610c01565b60405180910390f35b610211600480360381019061020c9190610aab565b61099e565b60405161021e9190610c3e565b60405180910390f35b6040518060400160405280600c81526020017f4552433230414b414c75676f000000000000000000000000000000000000000081525081565b600081600160003373ffffffffffffffffffffffffffffffffffffffff1673ffffffffffffffffffffffffffffffffffffffff16815260200190815260200160002060008573ffffffffffffffffffffffffffffffffffffffff1673ffffffffffffffffffffffffffffffffffffffff168152602001908152602001600020819055508273ffffffffffffffffffffffffffffffffffffffff163373ffffffffffffffffffffffffffffffffffffffff167f8c5be1e5ebec7d5bd14f71427d1e84f3dd0314c0f7b2291e5b200ac8c7c3b925846040516103409190610c3e565b60405180910390a36001905092915050565b6000600254905090565b80600260008282540192505081905550806000803373ffffffffffffffffffffffffffffffffffffffff1673ffffffffffffffffffffffffffffffffffffffff1681526020019081526020016000206000828254019250508190555050565b6000816000808673ffffffffffffffffffffffffffffffffffffffff1673ffffffffffffffffffffffffffffffffffffffff16815260200190815260200160002054101561040857600080fd5b81600160008673ffffffffffffffffffffffffffffffffffffffff1673ffffffffffffffffffffffffffffffffffffffff16815260200190815260200160002060003373ffffffffffffffffffffffffffffffffffffffff1673ffffffffffffffffffffffffffffffffffffffff16815260200190815260200160002054101561049157600080fd5b6104e2826000808773ffffffffffffffffffffffffffffffffffffffff1673ffffffffffffffffffffffffffffffffffffffff16815260200190815260200160002054610a2590919063ffffffff16565b6000808673ffffffffffffffffffffffffffffffffffffffff1673ffffffffffffffffffffffffffffffffffffffff168152602001908152602001600020819055506105b382600160008773ffffffffffffffffffffffffffffffffffffffff1673ffffffffffffffffffffffffffffffffffffffff16815260200190815260200160002060003373ffffffffffffffffffffffffffffffffffffffff1673ffffffffffffffffffffffffffffffffffffffff16815260200190815260200160002054610a2590919063ffffffff16565b600160008673ffffffffffffffffffffffffffffffffffffffff1673ffffffffffffffffffffffffffffffffffffffff16815260200190815260200160002060003373ffffffffffffffffffffffffffffffffffffffff1673ffffffffffffffffffffffffffffffffffffffff16815260200190815260200160002081905550610684826000808673ffffffffffffffffffffffffffffffffffffffff1673ffffffffffffffffffffffffffffffffffffffff16815260200190815260200160002054610a3c90919063ffffffff16565b6000808573ffffffffffffffffffffffffffffffffffffffff1673ffffffffffffffffffffffffffffffffffffffff168152602001908152602001600020819055508273ffffffffffffffffffffffffffffffffffffffff168473ffffffffffffffffffffffffffffffffffffffff167fddf252ad1be2c89b69c2b068fc378daa952ba7f163c4a11628f55a4df523b3ef846040516107239190610c3e565b60405180910390a3600190509392505050565b601281565b60008060008373ffffffffffffffffffffffffffffffffffffffff1673ffffffffffffffffffffffffffffffffffffffff168152602001908152602001600020549050919050565b6040518060400160405280600381526020017f414b41000000000000000000000000000000000000000000000000000000000081525081565b60008060003373ffffffffffffffffffffffffffffffffffffffff1673ffffffffffffffffffffffffffffffffffffffff1681526020019081526020016000205482111561080957600080fd5b61085a826000803373ffffffffffffffffffffffffffffffffffffffff1673ffffffffffffffffffffffffffffffffffffffff16815260200190815260200160002054610a2590919063ffffffff16565b6000803373ffffffffffffffffffffffffffffffffffffffff1673ffffffffffffffffffffffffffffffffffffffff168152602001908152602001600020819055506108ed826000808673ffffffffffffffffffffffffffffffffffffffff1673ffffffffffffffffffffffffffffffffffffffff16815260200190815260200160002054610a3c90919063ffffffff16565b6000808573ffffffffffffffffffffffffffffffffffffffff1673ffffffffffffffffffffffffffffffffffffffff168152602001908152602001600020819055508273ffffffffffffffffffffffffffffffffffffffff163373ffffffffffffffffffffffffffffffffffffffff167fddf252ad1be2c89b69c2b068fc378daa952ba7f163c4a11628f55a4df523b3ef8460405161098c9190610c3e565b60405180910390a36001905092915050565b6000600160008473ffffffffffffffffffffffffffffffffffffffff1673ffffffffffffffffffffffffffffffffffffffff16815260200190815260200160002060008373ffffffffffffffffffffffffffffffffffffffff1673ffffffffffffffffffffffffffffffffffffffff16815260200190815260200160002054905092915050565b600082821115610a3157fe5b818303905092915050565b600080828401905083811015610a4e57fe5b8091505092915050565b600081359050610a6781610d29565b92915050565b600081359050610a7c81610d40565b92915050565b600060208284031215610a9457600080fd5b6000610aa284828501610a58565b91505092915050565b60008060408385031215610abe57600080fd5b6000610acc85828601610a58565b9250506020610add85828601610a58565b9150509250929050565b600080600060608486031215610afc57600080fd5b6000610b0a86828701610a58565b9350506020610b1b86828701610a58565b9250506040610b2c86828701610a6d565b9150509250925092565b60008060408385031215610b4957600080fd5b6000610b5785828601610a58565b9250506020610b6885828601610a6d565b9150509250929050565b600060208284031215610b8457600080fd5b6000610b9284828501610a6d565b91505092915050565b610ba481610ca2565b82525050565b6000610bb582610c74565b610bbf8185610c7f565b9350610bcf818560208601610ce5565b610bd881610d18565b840191505092915050565b610bec81610cce565b82525050565b610bfb81610cd8565b82525050565b6000602082019050610c166000830184610b9b565b92915050565b60006020820190508181036000830152610c368184610baa565b905092915050565b6000602082019050610c536000830184610be3565b92915050565b6000602082019050610c6e6000830184610bf2565b92915050565b600081519050919050565b600082825260208201905092915050565b6000610c9b82610cae565b9050919050565b60008115159050919050565b600073ffffffffffffffffffffffffffffffffffffffff82169050919050565b6000819050919050565b600060ff82169050919050565b60005b83811015610d03578082015181840152602081019050610ce8565b83811115610d12576000848401525b50505050565b6000601f19601f8301169050919050565b610d3281610c90565b8114610d3d57600080fd5b50565b610d4981610cce565b8114610d5457600080fd5b5056fea2646970667358221220db26cb8525f0a6da6a43a6ec5d6d6614adfa4979c0e2a6ffd5498fb232bef64764736f6c634300060c0033",
					"opcodes": "PUSH1 0x80 PUSH1 0x40 MSTORE CALLVALUE DUP1 ISZERO PUSH3 0x11 JUMPI PUSH1 0x0 DUP1 REVERT JUMPDEST POP PUSH2 0x3E8 PUSH1 0x40 MLOAD PUSH3 0x23 SWAP1 PUSH3 0xD3 JUMP JUMPDEST PUSH3 0x2F SWAP2 SWAP1 PUSH3 0xF2 JUMP JUMPDEST PUSH1 0x40 MLOAD DUP1 SWAP2 SUB SWAP1 PUSH1 0x0 CREATE DUP1 ISZERO DUP1 ISZERO PUSH3 0x4C JUMPI RETURNDATASIZE PUSH1 0x0 DUP1 RETURNDATACOPY RETURNDATASIZE PUSH1 0x0 REVERT JUMPDEST POP PUSH1 0x0 DUP1 PUSH2 0x100 EXP DUP2 SLOAD DUP2 PUSH20 0xFFFFFFFFFFFFFFFFFFFFFFFFFFFFFFFFFFFFFFFF MUL NOT AND SWAP1 DUP4 PUSH20 0xFFFFFFFFFFFFFFFFFFFFFFFFFFFFFFFFFFFFFFFF AND MUL OR SWAP1 SSTORE POP CALLER PUSH1 0x1 PUSH1 0x0 PUSH2 0x100 EXP DUP2 SLOAD DUP2 PUSH20 0xFFFFFFFFFFFFFFFFFFFFFFFFFFFFFFFFFFFFFFFF MUL NOT AND SWAP1 DUP4 PUSH20 0xFFFFFFFFFFFFFFFFFFFFFFFFFFFFFFFFFFFFFFFF AND MUL OR SWAP1 SSTORE POP PUSH3 0x12D JUMP JUMPDEST PUSH2 0xE7F DUP1 PUSH3 0x1563 DUP4 CODECOPY ADD SWAP1 JUMP JUMPDEST PUSH3 0xEC DUP2 PUSH3 0x119 JUMP JUMPDEST DUP3 MSTORE POP POP JUMP JUMPDEST PUSH1 0x0 PUSH1 0x20 DUP3 ADD SWAP1 POP PUSH3 0x109 PUSH1 0x0 DUP4 ADD DUP5 PUSH3 0xE1 JUMP JUMPDEST SWAP3 SWAP2 POP POP JUMP JUMPDEST PUSH1 0x0 DUP2 SWAP1 POP SWAP2 SWAP1 POP JUMP JUMPDEST PUSH1 0x0 PUSH3 0x126 DUP3 PUSH3 0x10F JUMP JUMPDEST SWAP1 POP SWAP2 SWAP1 POP JUMP JUMPDEST PUSH2 0x1426 DUP1 PUSH3 0x13D PUSH1 0x0 CODECOPY PUSH1 0x0 RETURN INVALID PUSH1 0x80 PUSH1 0x40 MSTORE PUSH1 0x4 CALLDATASIZE LT PUSH2 0x86 JUMPI PUSH1 0x0 CALLDATALOAD PUSH1 0xE0 SHR DUP1 PUSH4 0xA2094159 GT PUSH2 0x59 JUMPI DUP1 PUSH4 0xA2094159 EQ PUSH2 0x133 JUMPI DUP1 PUSH4 0xCE8F2F38 EQ PUSH2 0x15C JUMPI DUP1 PUSH4 0xD00DF296 EQ PUSH2 0x199 JUMPI DUP1 PUSH4 0xE33F34A0 EQ PUSH2 0x1D8 JUMPI DUP1 PUSH4 0xF7774091 EQ PUSH2 0x203 JUMPI PUSH2 0x86 JUMP JUMPDEST DUP1 PUSH4 0x2076B56C EQ PUSH2 0x8B JUMPI DUP1 PUSH4 0x7C1B38BF EQ PUSH2 0xB4 JUMPI DUP1 PUSH4 0x8DA5CB5B EQ PUSH2 0xDD JUMPI DUP1 PUSH4 0x9A3174A0 EQ PUSH2 0x108 JUMPI JUMPDEST PUSH1 0x0 DUP1 REVERT JUMPDEST CALLVALUE DUP1 ISZERO PUSH2 0x97 JUMPI PUSH1 0x0 DUP1 REVERT JUMPDEST POP PUSH2 0xB2 PUSH1 0x4 DUP1 CALLDATASIZE SUB DUP2 ADD SWAP1 PUSH2 0xAD SWAP2 SWAP1 PUSH2 0xD05 JUMP JUMPDEST PUSH2 0x21F JUMP JUMPDEST STOP JUMPDEST CALLVALUE DUP1 ISZERO PUSH2 0xC0 JUMPI PUSH1 0x0 DUP1 REVERT JUMPDEST POP PUSH2 0xDB PUSH1 0x4 DUP1 CALLDATASIZE SUB DUP2 ADD SWAP1 PUSH2 0xD6 SWAP2 SWAP1 PUSH2 0xD59 JUMP JUMPDEST PUSH2 0x3B0 JUMP JUMPDEST STOP JUMPDEST CALLVALUE DUP1 ISZERO PUSH2 0xE9 JUMPI PUSH1 0x0 DUP1 REVERT JUMPDEST POP PUSH2 0xF2 PUSH2 0x4D0 JUMP JUMPDEST PUSH1 0x40 MLOAD PUSH2 0xFF SWAP2 SWAP1 PUSH2 0x10C4 JUMP JUMPDEST PUSH1 0x40 MLOAD DUP1 SWAP2 SUB SWAP1 RETURN JUMPDEST CALLVALUE DUP1 ISZERO PUSH2 0x114 JUMPI PUSH1 0x0 DUP1 REVERT JUMPDEST POP PUSH2 0x11D PUSH2 0x4F6 JUMP JUMPDEST PUSH1 0x40 MLOAD PUSH2 0x12A SWAP2 SWAP1 PUSH2 0x1218 JUMP JUMPDEST PUSH1 0x40 MLOAD DUP1 SWAP2 SUB SWAP1 RETURN JUMPDEST CALLVALUE DUP1 ISZERO PUSH2 0x13F JUMPI PUSH1 0x0 DUP1 REVERT JUMPDEST POP PUSH2 0x15A PUSH1 0x4 DUP1 CALLDATASIZE SUB DUP2 ADD SWAP1 PUSH2 0x155 SWAP2 SWAP1 PUSH2 0xCC4 JUMP JUMPDEST PUSH2 0x5A7 JUMP JUMPDEST STOP JUMPDEST CALLVALUE DUP1 ISZERO PUSH2 0x168 JUMPI PUSH1 0x0 DUP1 REVERT JUMPDEST POP PUSH2 0x183 PUSH1 0x4 DUP1 CALLDATASIZE SUB DUP2 ADD SWAP1 PUSH2 0x17E SWAP2 SWAP1 PUSH2 0xC72 JUMP JUMPDEST PUSH2 0x780 JUMP JUMPDEST PUSH1 0x40 MLOAD PUSH2 0x190 SWAP2 SWAP1 PUSH2 0x1218 JUMP JUMPDEST PUSH1 0x40 MLOAD DUP1 SWAP2 SUB SWAP1 RETURN JUMPDEST CALLVALUE DUP1 ISZERO PUSH2 0x1A5 JUMPI PUSH1 0x0 DUP1 REVERT JUMPDEST POP PUSH2 0x1C0 PUSH1 0x4 DUP1 CALLDATASIZE SUB DUP2 ADD SWAP1 PUSH2 0x1BB SWAP2 SWAP1 PUSH2 0xCC4 JUMP JUMPDEST PUSH2 0x79E JUMP JUMPDEST PUSH1 0x40 MLOAD PUSH2 0x1CF SWAP4 SWAP3 SWAP2 SWAP1 PUSH2 0x115A JUMP JUMPDEST PUSH1 0x40 MLOAD DUP1 SWAP2 SUB SWAP1 RETURN JUMPDEST CALLVALUE DUP1 ISZERO PUSH2 0x1E4 JUMPI PUSH1 0x0 DUP1 REVERT JUMPDEST POP PUSH2 0x1ED PUSH2 0x883 JUMP JUMPDEST PUSH1 0x40 MLOAD PUSH2 0x1FA SWAP2 SWAP1 PUSH2 0x1218 JUMP JUMPDEST PUSH1 0x40 MLOAD DUP1 SWAP2 SUB SWAP1 RETURN JUMPDEST PUSH2 0x21D PUSH1 0x4 DUP1 CALLDATASIZE SUB DUP2 ADD SWAP1 PUSH2 0x218 SWAP2 SWAP1 PUSH2 0xD59 JUMP JUMPDEST PUSH2 0x934 JUMP JUMPDEST STOP JUMPDEST CALLER PUSH1 0x1 PUSH1 0x0 SWAP1 SLOAD SWAP1 PUSH2 0x100 EXP SWAP1 DIV PUSH20 0xFFFFFFFFFFFFFFFFFFFFFFFFFFFFFFFFFFFFFFFF AND PUSH20 0xFFFFFFFFFFFFFFFFFFFFFFFFFFFFFFFFFFFFFFFF AND DUP2 PUSH20 0xFFFFFFFFFFFFFFFFFFFFFFFFFFFFFFFFFFFFFFFF AND EQ PUSH2 0x2B0 JUMPI PUSH1 0x40 MLOAD PUSH32 0x8C379A000000000000000000000000000000000000000000000000000000000 DUP2 MSTORE PUSH1 0x4 ADD PUSH2 0x2A7 SWAP1 PUSH2 0x11F8 JUMP JUMPDEST PUSH1 0x40 MLOAD DUP1 SWAP2 SUB SWAP1 REVERT JUMPDEST PUSH1 0x40 MLOAD DUP1 PUSH1 0x60 ADD PUSH1 0x40 MSTORE DUP1 DUP5 DUP2 MSTORE PUSH1 0x20 ADD DUP4 DUP2 MSTORE PUSH1 0x20 ADD PUSH1 0x1 ISZERO ISZERO DUP2 MSTORE POP PUSH1 0x3 DUP5 PUSH1 0x40 MLOAD PUSH2 0x2DE SWAP2 SWAP1 PUSH2 0x1060 JUMP JUMPDEST SWAP1 DUP2 MSTORE PUSH1 0x20 ADD PUSH1 0x40 MLOAD DUP1 SWAP2 SUB SWAP1 KECCAK256 PUSH1 0x0 DUP3 ADD MLOAD DUP2 PUSH1 0x0 ADD SWAP1 DUP1 MLOAD SWAP1 PUSH1 0x20 ADD SWAP1 PUSH2 0x308 SWAP3 SWAP2 SWAP1 PUSH2 0xB2D JUMP JUMPDEST POP PUSH1 0x20 DUP3 ADD MLOAD DUP2 PUSH1 0x1 ADD SSTORE PUSH1 0x40 DUP3 ADD MLOAD DUP2 PUSH1 0x2 ADD PUSH1 0x0 PUSH2 0x100 EXP DUP2 SLOAD DUP2 PUSH1 0xFF MUL NOT AND SWAP1 DUP4 ISZERO ISZERO MUL OR SWAP1 SSTORE POP SWAP1 POP POP PUSH1 0x4 DUP4 SWAP1 DUP1 PUSH1 0x1 DUP2 SLOAD ADD DUP1 DUP3 SSTORE DUP1 SWAP2 POP POP PUSH1 0x1 SWAP1 SUB SWAP1 PUSH1 0x0 MSTORE PUSH1 0x20 PUSH1 0x0 KECCAK256 ADD PUSH1 0x0 SWAP1 SWAP2 SWAP1 SWAP2 SWAP1 SWAP2 POP SWAP1 DUP1 MLOAD SWAP1 PUSH1 0x20 ADD SWAP1 PUSH2 0x371 SWAP3 SWAP2 SWAP1 PUSH2 0xB2D JUMP JUMPDEST POP PUSH32 0xFC9ECD7A6C2CA96D38526A0B9CC22F2474FF8E596DD348EDAAB06BE905EBE378 DUP4 DUP4 PUSH1 0x40 MLOAD PUSH2 0x3A3 SWAP3 SWAP2 SWAP1 PUSH2 0x112A JUMP JUMPDEST PUSH1 0x40 MLOAD DUP1 SWAP2 SUB SWAP1 LOG1 POP POP POP JUMP JUMPDEST CALLER PUSH1 0x1 PUSH1 0x0 SWAP1 SLOAD SWAP1 PUSH2 0x100 EXP SWAP1 DIV PUSH20 0xFFFFFFFFFFFFFFFFFFFFFFFFFFFFFFFFFFFFFFFF AND PUSH20 0xFFFFFFFFFFFFFFFFFFFFFFFFFFFFFFFFFFFFFFFF AND DUP2 PUSH20 0xFFFFFFFFFFFFFFFFFFFFFFFFFFFFFFFFFFFFFFFF AND EQ PUSH2 0x441 JUMPI PUSH1 0x40 MLOAD PUSH32 0x8C379A000000000000000000000000000000000000000000000000000000000 DUP2 MSTORE PUSH1 0x4 ADD PUSH2 0x438 SWAP1 PUSH2 0x11F8 JUMP JUMPDEST PUSH1 0x40 MLOAD DUP1 SWAP2 SUB SWAP1 REVERT JUMPDEST PUSH1 0x0 DUP1 SLOAD SWAP1 PUSH2 0x100 EXP SWAP1 DIV PUSH20 0xFFFFFFFFFFFFFFFFFFFFFFFFFFFFFFFFFFFFFFFF AND PUSH20 0xFFFFFFFFFFFFFFFFFFFFFFFFFFFFFFFFFFFFFFFF AND PUSH4 0x1D43CC98 DUP4 PUSH1 0x40 MLOAD DUP3 PUSH4 0xFFFFFFFF AND PUSH1 0xE0 SHL DUP2 MSTORE PUSH1 0x4 ADD PUSH2 0x49A SWAP2 SWAP1 PUSH2 0x1218 JUMP JUMPDEST PUSH1 0x0 PUSH1 0x40 MLOAD DUP1 DUP4 SUB DUP2 PUSH1 0x0 DUP8 DUP1 EXTCODESIZE ISZERO DUP1 ISZERO PUSH2 0x4B4 JUMPI PUSH1 0x0 DUP1 REVERT JUMPDEST POP GAS CALL ISZERO DUP1 ISZERO PUSH2 0x4C8 JUMPI RETURNDATASIZE PUSH1 0x0 DUP1 RETURNDATACOPY RETURNDATASIZE PUSH1 0x0 REVERT JUMPDEST POP POP POP POP POP POP JUMP JUMPDEST PUSH1 0x1 PUSH1 0x0 SWAP1 SLOAD SWAP1 PUSH2 0x100 EXP SWAP1 DIV PUSH20 0xFFFFFFFFFFFFFFFFFFFFFFFFFFFFFFFFFFFFFFFF AND DUP2 JUMP JUMPDEST PUSH1 0x0 DUP1 PUSH1 0x0 SWAP1 SLOAD SWAP1 PUSH2 0x100 EXP SWAP1 DIV PUSH20 0xFFFFFFFFFFFFFFFFFFFFFFFFFFFFFFFFFFFFFFFF AND PUSH20 0xFFFFFFFFFFFFFFFFFFFFFFFFFFFFFFFFFFFFFFFF AND PUSH4 0x70A08231 ADDRESS PUSH1 0x40 MLOAD DUP3 PUSH4 0xFFFFFFFF AND PUSH1 0xE0 SHL DUP2 MSTORE PUSH1 0x4 ADD PUSH2 0x552 SWAP2 SWAP1 PUSH2 0x108E JUMP JUMPDEST PUSH1 0x20 PUSH1 0x40 MLOAD DUP1 DUP4 SUB DUP2 DUP7 DUP1 EXTCODESIZE ISZERO DUP1 ISZERO PUSH2 0x56A JUMPI PUSH1 0x0 DUP1 REVERT JUMPDEST POP GAS STATICCALL ISZERO DUP1 ISZERO PUSH2 0x57E JUMPI RETURNDATASIZE PUSH1 0x0 DUP1 RETURNDATACOPY RETURNDATASIZE PUSH1 0x0 REVERT JUMPDEST POP POP POP POP PUSH1 0x40 MLOAD RETURNDATASIZE PUSH1 0x1F NOT PUSH1 0x1F DUP3 ADD AND DUP3 ADD DUP1 PUSH1 0x40 MSTORE POP DUP2 ADD SWAP1 PUSH2 0x5A2 SWAP2 SWAP1 PUSH2 0xD82 JUMP JUMPDEST SWAP1 POP SWAP1 JUMP JUMPDEST CALLER PUSH1 0x1 PUSH1 0x0 SWAP1 SLOAD SWAP1 PUSH2 0x100 EXP SWAP1 DIV PUSH20 0xFFFFFFFFFFFFFFFFFFFFFFFFFFFFFFFFFFFFFFFF AND PUSH20 0xFFFFFFFFFFFFFFFFFFFFFFFFFFFFFFFFFFFFFFFF AND DUP2 PUSH20 0xFFFFFFFFFFFFFFFFFFFFFFFFFFFFFFFFFFFFFFFF AND EQ PUSH2 0x638 JUMPI PUSH1 0x40 MLOAD PUSH32 0x8C379A000000000000000000000000000000000000000000000000000000000 DUP2 MSTORE PUSH1 0x4 ADD PUSH2 0x62F SWAP1 PUSH2 0x11F8 JUMP JUMPDEST PUSH1 0x40 MLOAD DUP1 SWAP2 SUB SWAP1 REVERT JUMPDEST PUSH1 0x0 DUP1 JUMPDEST PUSH1 0x4 DUP1 SLOAD SWAP1 POP DUP2 LT ISZERO PUSH2 0x6C9 JUMPI DUP4 PUSH1 0x40 MLOAD PUSH1 0x20 ADD PUSH2 0x65A SWAP2 SWAP1 PUSH2 0x1060 JUMP JUMPDEST PUSH1 0x40 MLOAD PUSH1 0x20 DUP2 DUP4 SUB SUB DUP2 MSTORE SWAP1 PUSH1 0x40 MSTORE DUP1 MLOAD SWAP1 PUSH1 0x20 ADD KECCAK256 PUSH1 0x4 DUP3 DUP2 SLOAD DUP2 LT PUSH2 0x67D JUMPI INVALID JUMPDEST SWAP1 PUSH1 0x0 MSTORE PUSH1 0x20 PUSH1 0x0 KECCAK256 ADD PUSH1 0x40 MLOAD PUSH1 0x20 ADD PUSH2 0x697 SWAP2 SWAP1 PUSH2 0x1077 JUMP JUMPDEST PUSH1 0x40 MLOAD PUSH1 0x20 DUP2 DUP4 SUB SUB DUP2 MSTORE SWAP1 PUSH1 0x40 MSTORE DUP1 MLOAD SWAP1 PUSH1 0x20 ADD KECCAK256 EQ ISZERO PUSH2 0x6BC JUMPI PUSH1 0x1 SWAP2 POP PUSH2 0x6C9 JUMP JUMPDEST DUP1 DUP1 PUSH1 0x1 ADD SWAP2 POP POP PUSH2 0x63C JUMP JUMPDEST POP DUP1 PUSH2 0x70A JUMPI PUSH1 0x40 MLOAD PUSH32 0x8C379A000000000000000000000000000000000000000000000000000000000 DUP2 MSTORE PUSH1 0x4 ADD PUSH2 0x701 SWAP1 PUSH2 0x1198 JUMP JUMPDEST PUSH1 0x40 MLOAD DUP1 SWAP2 SUB SWAP1 REVERT JUMPDEST PUSH1 0x0 PUSH1 0x3 DUP5 PUSH1 0x40 MLOAD PUSH2 0x71C SWAP2 SWAP1 PUSH2 0x1060 JUMP JUMPDEST SWAP1 DUP2 MSTORE PUSH1 0x20 ADD PUSH1 0x40 MLOAD DUP1 SWAP2 SUB SWAP1 KECCAK256 PUSH1 0x2 ADD PUSH1 0x0 PUSH2 0x100 EXP DUP2 SLOAD DUP2 PUSH1 0xFF MUL NOT AND SWAP1 DUP4 ISZERO ISZERO MUL OR SWAP1 SSTORE POP PUSH32 0x24BA6C881728980191398DB8DCFD8ED4F6AEB1C08DF349D63F3B85075F3E86DD DUP4 PUSH1 0x40 MLOAD PUSH2 0x773 SWAP2 SWAP1 PUSH2 0x1108 JUMP JUMPDEST PUSH1 0x40 MLOAD DUP1 SWAP2 SUB SWAP1 LOG1 POP POP POP JUMP JUMPDEST PUSH1 0x2 PUSH1 0x20 MSTORE DUP1 PUSH1 0x0 MSTORE PUSH1 0x40 PUSH1 0x0 KECCAK256 PUSH1 0x0 SWAP2 POP SWAP1 POP DUP1 PUSH1 0x0 ADD SLOAD SWAP1 POP DUP2 JUMP JUMPDEST PUSH1 0x3 DUP2 DUP1 MLOAD PUSH1 0x20 DUP2 ADD DUP3 ADD DUP1 MLOAD DUP5 DUP3 MSTORE PUSH1 0x20 DUP4 ADD PUSH1 0x20 DUP6 ADD KECCAK256 DUP2 DUP4 MSTORE DUP1 SWAP6 POP POP POP POP POP POP PUSH1 0x0 SWAP2 POP SWAP1 POP DUP1 PUSH1 0x0 ADD DUP1 SLOAD PUSH1 0x1 DUP2 PUSH1 0x1 AND ISZERO PUSH2 0x100 MUL SUB AND PUSH1 0x2 SWAP1 DIV DUP1 PUSH1 0x1F ADD PUSH1 0x20 DUP1 SWAP2 DIV MUL PUSH1 0x20 ADD PUSH1 0x40 MLOAD SWAP1 DUP2 ADD PUSH1 0x40 MSTORE DUP1 SWAP3 SWAP2 SWAP1 DUP2 DUP2 MSTORE PUSH1 0x20 ADD DUP3 DUP1 SLOAD PUSH1 0x1 DUP2 PUSH1 0x1 AND ISZERO PUSH2 0x100 MUL SUB AND PUSH1 0x2 SWAP1 DIV DUP1 ISZERO PUSH2 0x860 JUMPI DUP1 PUSH1 0x1F LT PUSH2 0x835 JUMPI PUSH2 0x100 DUP1 DUP4 SLOAD DIV MUL DUP4 MSTORE SWAP2 PUSH1 0x20 ADD SWAP2 PUSH2 0x860 JUMP JUMPDEST DUP3 ADD SWAP2 SWAP1 PUSH1 0x0 MSTORE PUSH1 0x20 PUSH1 0x0 KECCAK256 SWAP1 JUMPDEST DUP2 SLOAD DUP2 MSTORE SWAP1 PUSH1 0x1 ADD SWAP1 PUSH1 0x20 ADD DUP1 DUP4 GT PUSH2 0x843 JUMPI DUP3 SWAP1 SUB PUSH1 0x1F AND DUP3 ADD SWAP2 JUMPDEST POP POP POP POP POP SWAP1 DUP1 PUSH1 0x1 ADD SLOAD SWAP1 DUP1 PUSH1 0x2 ADD PUSH1 0x0 SWAP1 SLOAD SWAP1 PUSH2 0x100 EXP SWAP1 DIV PUSH1 0xFF AND SWAP1 POP DUP4 JUMP JUMPDEST PUSH1 0x0 DUP1 PUSH1 0x0 SWAP1 SLOAD SWAP1 PUSH2 0x100 EXP SWAP1 DIV PUSH20 0xFFFFFFFFFFFFFFFFFFFFFFFFFFFFFFFFFFFFFFFF AND PUSH20 0xFFFFFFFFFFFFFFFFFFFFFFFFFFFFFFFFFFFFFFFF AND PUSH4 0x70A08231 CALLER PUSH1 0x40 MLOAD DUP3 PUSH4 0xFFFFFFFF AND PUSH1 0xE0 SHL DUP2 MSTORE PUSH1 0x4 ADD PUSH2 0x8DF SWAP2 SWAP1 PUSH2 0x10A9 JUMP JUMPDEST PUSH1 0x20 PUSH1 0x40 MLOAD DUP1 DUP4 SUB DUP2 DUP7 DUP1 EXTCODESIZE ISZERO DUP1 ISZERO PUSH2 0x8F7 JUMPI PUSH1 0x0 DUP1 REVERT JUMPDEST POP GAS STATICCALL ISZERO DUP1 ISZERO PUSH2 0x90B JUMPI RETURNDATASIZE PUSH1 0x0 DUP1 RETURNDATACOPY RETURNDATASIZE PUSH1 0x0 REVERT JUMPDEST POP POP POP POP PUSH1 0x40 MLOAD RETURNDATASIZE PUSH1 0x1F NOT PUSH1 0x1F DUP3 ADD AND DUP3 ADD DUP1 PUSH1 0x40 MSTORE POP DUP2 ADD SWAP1 PUSH2 0x92F SWAP2 SWAP1 PUSH2 0xD82 JUMP JUMPDEST SWAP1 POP SWAP1 JUMP JUMPDEST PUSH1 0x0 PUSH2 0x93F DUP3 PUSH2 0xB19 JUMP JUMPDEST SWAP1 POP DUP1 CALLVALUE LT ISZERO PUSH2 0x984 JUMPI PUSH1 0x40 MLOAD PUSH32 0x8C379A000000000000000000000000000000000000000000000000000000000 DUP2 MSTORE PUSH1 0x4 ADD PUSH2 0x97B SWAP1 PUSH2 0x11B8 JUMP JUMPDEST PUSH1 0x40 MLOAD DUP1 SWAP2 SUB SWAP1 REVERT JUMPDEST DUP2 PUSH2 0x98D PUSH2 0x4F6 JUMP JUMPDEST LT ISZERO PUSH2 0x9CE JUMPI PUSH1 0x40 MLOAD PUSH32 0x8C379A000000000000000000000000000000000000000000000000000000000 DUP2 MSTORE PUSH1 0x4 ADD PUSH2 0x9C5 SWAP1 PUSH2 0x11D8 JUMP JUMPDEST PUSH1 0x40 MLOAD DUP1 SWAP2 SUB SWAP1 REVERT JUMPDEST CALLER PUSH20 0xFFFFFFFFFFFFFFFFFFFFFFFFFFFFFFFFFFFFFFFF AND PUSH2 0x8FC DUP3 CALLVALUE SUB SWAP1 DUP2 ISZERO MUL SWAP1 PUSH1 0x40 MLOAD PUSH1 0x0 PUSH1 0x40 MLOAD DUP1 DUP4 SUB DUP2 DUP6 DUP9 DUP9 CALL SWAP4 POP POP POP POP ISZERO DUP1 ISZERO PUSH2 0xA16 JUMPI RETURNDATASIZE PUSH1 0x0 DUP1 RETURNDATACOPY RETURNDATASIZE PUSH1 0x0 REVERT JUMPDEST POP PUSH1 0x0 DUP1 SLOAD SWAP1 PUSH2 0x100 EXP SWAP1 DIV PUSH20 0xFFFFFFFFFFFFFFFFFFFFFFFFFFFFFFFFFFFFFFFF AND PUSH20 0xFFFFFFFFFFFFFFFFFFFFFFFFFFFFFFFFFFFFFFFF AND PUSH4 0xA9059CBB CALLER DUP5 PUSH1 0x40 MLOAD DUP4 PUSH4 0xFFFFFFFF AND PUSH1 0xE0 SHL DUP2 MSTORE PUSH1 0x4 ADD PUSH2 0xA72 SWAP3 SWAP2 SWAP1 PUSH2 0x10DF JUMP JUMPDEST PUSH1 0x20 PUSH1 0x40 MLOAD DUP1 DUP4 SUB DUP2 PUSH1 0x0 DUP8 DUP1 EXTCODESIZE ISZERO DUP1 ISZERO PUSH2 0xA8C JUMPI PUSH1 0x0 DUP1 REVERT JUMPDEST POP GAS CALL ISZERO DUP1 ISZERO PUSH2 0xAA0 JUMPI RETURNDATASIZE PUSH1 0x0 DUP1 RETURNDATACOPY RETURNDATASIZE PUSH1 0x0 REVERT JUMPDEST POP POP POP POP PUSH1 0x40 MLOAD RETURNDATASIZE PUSH1 0x1F NOT PUSH1 0x1F DUP3 ADD AND DUP3 ADD DUP1 PUSH1 0x40 MSTORE POP DUP2 ADD SWAP1 PUSH2 0xAC4 SWAP2 SWAP1 PUSH2 0xC9B JUMP JUMPDEST POP DUP2 PUSH1 0x2 PUSH1 0x0 CALLER PUSH20 0xFFFFFFFFFFFFFFFFFFFFFFFFFFFFFFFFFFFFFFFF AND PUSH20 0xFFFFFFFFFFFFFFFFFFFFFFFFFFFFFFFFFFFFFFFF AND DUP2 MSTORE PUSH1 0x20 ADD SWAP1 DUP2 MSTORE PUSH1 0x20 ADD PUSH1 0x0 KECCAK256 PUSH1 0x0 ADD PUSH1 0x0 DUP3 DUP3 SLOAD ADD SWAP3 POP POP DUP2 SWAP1 SSTORE POP POP POP JUMP JUMPDEST PUSH1 0x0 PUSH8 0xDE0B6B3A7640000 DUP3 MUL SWAP1 POP SWAP2 SWAP1 POP JUMP JUMPDEST DUP3 DUP1 SLOAD PUSH1 0x1 DUP2 PUSH1 0x1 AND ISZERO PUSH2 0x100 MUL SUB AND PUSH1 0x2 SWAP1 DIV SWAP1 PUSH1 0x0 MSTORE PUSH1 0x20 PUSH1 0x0 KECCAK256 SWAP1 PUSH1 0x1F ADD PUSH1 0x20 SWAP1 DIV DUP2 ADD SWAP3 DUP3 PUSH1 0x1F LT PUSH2 0xB6E JUMPI DUP1 MLOAD PUSH1 0xFF NOT AND DUP4 DUP1 ADD OR DUP6 SSTORE PUSH2 0xB9C JUMP JUMPDEST DUP3 DUP1 ADD PUSH1 0x1 ADD DUP6 SSTORE DUP3 ISZERO PUSH2 0xB9C JUMPI SWAP2 DUP3 ADD JUMPDEST DUP3 DUP2 GT ISZERO PUSH2 0xB9B JUMPI DUP3 MLOAD DUP3 SSTORE SWAP2 PUSH1 0x20 ADD SWAP2 SWAP1 PUSH1 0x1 ADD SWAP1 PUSH2 0xB80 JUMP JUMPDEST JUMPDEST POP SWAP1 POP PUSH2 0xBA9 SWAP2 SWAP1 PUSH2 0xBAD JUMP JUMPDEST POP SWAP1 JUMP JUMPDEST JUMPDEST DUP1 DUP3 GT ISZERO PUSH2 0xBC6 JUMPI PUSH1 0x0 DUP2 PUSH1 0x0 SWAP1 SSTORE POP PUSH1 0x1 ADD PUSH2 0xBAE JUMP JUMPDEST POP SWAP1 JUMP JUMPDEST PUSH1 0x0 DUP2 CALLDATALOAD SWAP1 POP PUSH2 0xBD9 DUP2 PUSH2 0x13AB JUMP JUMPDEST SWAP3 SWAP2 POP POP JUMP JUMPDEST PUSH1 0x0 DUP2 MLOAD SWAP1 POP PUSH2 0xBEE DUP2 PUSH2 0x13C2 JUMP JUMPDEST SWAP3 SWAP2 POP POP JUMP JUMPDEST PUSH1 0x0 DUP3 PUSH1 0x1F DUP4 ADD SLT PUSH2 0xC05 JUMPI PUSH1 0x0 DUP1 REVERT JUMPDEST DUP2 CALLDATALOAD PUSH2 0xC18 PUSH2 0xC13 DUP3 PUSH2 0x1260 JUMP JUMPDEST PUSH2 0x1233 JUMP JUMPDEST SWAP2 POP DUP1 DUP3 MSTORE PUSH1 0x20 DUP4 ADD PUSH1 0x20 DUP4 ADD DUP6 DUP4 DUP4 ADD GT ISZERO PUSH2 0xC34 JUMPI PUSH1 0x0 DUP1 REVERT JUMPDEST PUSH2 0xC3F DUP4 DUP3 DUP5 PUSH2 0x1358 JUMP JUMPDEST POP POP POP SWAP3 SWAP2 POP POP JUMP JUMPDEST PUSH1 0x0 DUP2 CALLDATALOAD SWAP1 POP PUSH2 0xC57 DUP2 PUSH2 0x13D9 JUMP JUMPDEST SWAP3 SWAP2 POP POP JUMP JUMPDEST PUSH1 0x0 DUP2 MLOAD SWAP1 POP PUSH2 0xC6C DUP2 PUSH2 0x13D9 JUMP JUMPDEST SWAP3 SWAP2 POP POP JUMP JUMPDEST PUSH1 0x0 PUSH1 0x20 DUP3 DUP5 SUB SLT ISZERO PUSH2 0xC84 JUMPI PUSH1 0x0 DUP1 REVERT JUMPDEST PUSH1 0x0 PUSH2 0xC92 DUP5 DUP3 DUP6 ADD PUSH2 0xBCA JUMP JUMPDEST SWAP2 POP POP SWAP3 SWAP2 POP POP JUMP JUMPDEST PUSH1 0x0 PUSH1 0x20 DUP3 DUP5 SUB SLT ISZERO PUSH2 0xCAD JUMPI PUSH1 0x0 DUP1 REVERT JUMPDEST PUSH1 0x0 PUSH2 0xCBB DUP5 DUP3 DUP6 ADD PUSH2 0xBDF JUMP JUMPDEST SWAP2 POP POP SWAP3 SWAP2 POP POP JUMP JUMPDEST PUSH1 0x0 PUSH1 0x20 DUP3 DUP5 SUB SLT ISZERO PUSH2 0xCD6 JUMPI PUSH1 0x0 DUP1 REVERT JUMPDEST PUSH1 0x0 DUP3 ADD CALLDATALOAD PUSH8 0xFFFFFFFFFFFFFFFF DUP2 GT ISZERO PUSH2 0xCF0 JUMPI PUSH1 0x0 DUP1 REVERT JUMPDEST PUSH2 0xCFC DUP5 DUP3 DUP6 ADD PUSH2 0xBF4 JUMP JUMPDEST SWAP2 POP POP SWAP3 SWAP2 POP POP JUMP JUMPDEST PUSH1 0x0 DUP1 PUSH1 0x40 DUP4 DUP6 SUB SLT ISZERO PUSH2 0xD18 JUMPI PUSH1 0x0 DUP1 REVERT JUMPDEST PUSH1 0x0 DUP4 ADD CALLDATALOAD PUSH8 0xFFFFFFFFFFFFFFFF DUP2 GT ISZERO PUSH2 0xD32 JUMPI PUSH1 0x0 DUP1 REVERT JUMPDEST PUSH2 0xD3E DUP6 DUP3 DUP7 ADD PUSH2 0xBF4 JUMP JUMPDEST SWAP3 POP POP PUSH1 0x20 PUSH2 0xD4F DUP6 DUP3 DUP7 ADD PUSH2 0xC48 JUMP JUMPDEST SWAP2 POP POP SWAP3 POP SWAP3 SWAP1 POP JUMP JUMPDEST PUSH1 0x0 PUSH1 0x20 DUP3 DUP5 SUB SLT ISZERO PUSH2 0xD6B JUMPI PUSH1 0x0 DUP1 REVERT JUMPDEST PUSH1 0x0 PUSH2 0xD79 DUP5 DUP3 DUP6 ADD PUSH2 0xC48 JUMP JUMPDEST SWAP2 POP POP SWAP3 SWAP2 POP POP JUMP JUMPDEST PUSH1 0x0 PUSH1 0x20 DUP3 DUP5 SUB SLT ISZERO PUSH2 0xD94 JUMPI PUSH1 0x0 DUP1 REVERT JUMPDEST PUSH1 0x0 PUSH2 0xDA2 DUP5 DUP3 DUP6 ADD PUSH2 0xC5D JUMP JUMPDEST SWAP2 POP POP SWAP3 SWAP2 POP POP JUMP JUMPDEST PUSH2 0xDB4 DUP2 PUSH2 0x1322 JUMP JUMPDEST DUP3 MSTORE POP POP JUMP JUMPDEST PUSH2 0xDC3 DUP2 PUSH2 0x12DA JUMP JUMPDEST DUP3 MSTORE POP POP JUMP JUMPDEST PUSH2 0xDD2 DUP2 PUSH2 0x12C8 JUMP JUMPDEST DUP3 MSTORE POP POP JUMP JUMPDEST PUSH2 0xDE1 DUP2 PUSH2 0x12EC JUMP JUMPDEST DUP3 MSTORE POP POP JUMP JUMPDEST PUSH1 0x0 PUSH2 0xDF2 DUP3 PUSH2 0x12A1 JUMP JUMPDEST PUSH2 0xDFC DUP2 DUP6 PUSH2 0x12AC JUMP JUMPDEST SWAP4 POP PUSH2 0xE0C DUP2 DUP6 PUSH1 0x20 DUP7 ADD PUSH2 0x1367 JUMP JUMPDEST PUSH2 0xE15 DUP2 PUSH2 0x139A JUMP JUMPDEST DUP5 ADD SWAP2 POP POP SWAP3 SWAP2 POP POP JUMP JUMPDEST PUSH1 0x0 PUSH2 0xE2B DUP3 PUSH2 0x12A1 JUMP JUMPDEST PUSH2 0xE35 DUP2 DUP6 PUSH2 0x12BD JUMP JUMPDEST SWAP4 POP PUSH2 0xE45 DUP2 DUP6 PUSH1 0x20 DUP7 ADD PUSH2 0x1367 JUMP JUMPDEST DUP1 DUP5 ADD SWAP2 POP POP SWAP3 SWAP2 POP POP JUMP JUMPDEST PUSH1 0x0 DUP2 SLOAD PUSH1 0x1 DUP2 AND PUSH1 0x0 DUP2 EQ PUSH2 0xE6E JUMPI PUSH1 0x1 DUP2 EQ PUSH2 0xE93 JUMPI PUSH2 0xED7 JUMP JUMPDEST PUSH1 0x7F PUSH1 0x2 DUP4 DIV AND PUSH2 0xE7F DUP2 DUP8 PUSH2 0x12BD JUMP JUMPDEST SWAP6 POP PUSH1 0xFF NOT DUP4 AND DUP7 MSTORE DUP1 DUP7 ADD SWAP4 POP POP PUSH2 0xED7 JUMP JUMPDEST PUSH1 0x2 DUP3 DIV PUSH2 0xEA1 DUP2 DUP8 PUSH2 0x12BD JUMP JUMPDEST SWAP6 POP PUSH2 0xEAC DUP6 PUSH2 0x128C JUMP JUMPDEST PUSH1 0x0 JUMPDEST DUP3 DUP2 LT ISZERO PUSH2 0xECE JUMPI DUP2 SLOAD DUP2 DUP10 ADD MSTORE PUSH1 0x1 DUP3 ADD SWAP2 POP PUSH1 0x20 DUP2 ADD SWAP1 POP PUSH2 0xEAF JUMP JUMPDEST DUP3 DUP9 ADD SWAP6 POP POP POP POP JUMPDEST POP POP SWAP3 SWAP2 POP POP JUMP JUMPDEST PUSH1 0x0 PUSH2 0xEEC PUSH1 0x51 DUP4 PUSH2 0x12AC JUMP JUMPDEST SWAP2 POP PUSH32 0x4E6F207365207075656465206461722064652062616A61206120756E61206174 PUSH1 0x0 DUP4 ADD MSTORE PUSH32 0x72616363696F6E20717565206E6F2068617961207369646F2064616461206465 PUSH1 0x20 DUP4 ADD MSTORE PUSH32 0x20616C7461207072657669616D656E7465000000000000000000000000000000 PUSH1 0x40 DUP4 ADD MSTORE PUSH1 0x60 DUP3 ADD SWAP1 POP SWAP2 SWAP1 POP JUMP JUMPDEST PUSH1 0x0 PUSH2 0xF78 PUSH1 0x1E DUP4 PUSH2 0x12AC JUMP JUMPDEST SWAP2 POP PUSH32 0x43616E746964616420646520657468657220696E737566696369656E74650000 PUSH1 0x0 DUP4 ADD MSTORE PUSH1 0x20 DUP3 ADD SWAP1 POP SWAP2 SWAP1 POP JUMP JUMPDEST PUSH1 0x0 PUSH2 0xFB8 PUSH1 0x20 DUP4 PUSH2 0x12AC JUMP JUMPDEST SWAP2 POP PUSH32 0x43616E746964616420646520746F6B656E7320696E737566696369656E746573 PUSH1 0x0 DUP4 ADD MSTORE PUSH1 0x20 DUP3 ADD SWAP1 POP SWAP2 SWAP1 POP JUMP JUMPDEST PUSH1 0x0 PUSH2 0xFF8 PUSH1 0x2C DUP4 PUSH2 0x12AC JUMP JUMPDEST SWAP2 POP PUSH32 0x4E6F207469656E6573207065726D69736F207061726120656A65637574617220 PUSH1 0x0 DUP4 ADD MSTORE PUSH32 0x657374612061636369C3B36E0000000000000000000000000000000000000000 PUSH1 0x20 DUP4 ADD MSTORE PUSH1 0x40 DUP3 ADD SWAP1 POP SWAP2 SWAP1 POP JUMP JUMPDEST PUSH2 0x105A DUP2 PUSH2 0x1318 JUMP JUMPDEST DUP3 MSTORE POP POP JUMP JUMPDEST PUSH1 0x0 PUSH2 0x106C DUP3 DUP5 PUSH2 0xE20 JUMP JUMPDEST SWAP2 POP DUP2 SWAP1 POP SWAP3 SWAP2 POP POP JUMP JUMPDEST PUSH1 0x0 PUSH2 0x1083 DUP3 DUP5 PUSH2 0xE51 JUMP JUMPDEST SWAP2 POP DUP2 SWAP1 POP SWAP3 SWAP2 POP POP JUMP JUMPDEST PUSH1 0x0 PUSH1 0x20 DUP3 ADD SWAP1 POP PUSH2 0x10A3 PUSH1 0x0 DUP4 ADD DUP5 PUSH2 0xDC9 JUMP JUMPDEST SWAP3 SWAP2 POP POP JUMP JUMPDEST PUSH1 0x0 PUSH1 0x20 DUP3 ADD SWAP1 POP PUSH2 0x10BE PUSH1 0x0 DUP4 ADD DUP5 PUSH2 0xDAB JUMP JUMPDEST SWAP3 SWAP2 POP POP JUMP JUMPDEST PUSH1 0x0 PUSH1 0x20 DUP3 ADD SWAP1 POP PUSH2 0x10D9 PUSH1 0x0 DUP4 ADD DUP5 PUSH2 0xDBA JUMP JUMPDEST SWAP3 SWAP2 POP POP JUMP JUMPDEST PUSH1 0x0 PUSH1 0x40 DUP3 ADD SWAP1 POP PUSH2 0x10F4 PUSH1 0x0 DUP4 ADD DUP6 PUSH2 0xDAB JUMP JUMPDEST PUSH2 0x1101 PUSH1 0x20 DUP4 ADD DUP5 PUSH2 0x1051 JUMP JUMPDEST SWAP4 SWAP3 POP POP POP JUMP JUMPDEST PUSH1 0x0 PUSH1 0x20 DUP3 ADD SWAP1 POP DUP2 DUP2 SUB PUSH1 0x0 DUP4 ADD MSTORE PUSH2 0x1122 DUP2 DUP5 PUSH2 0xDE7 JUMP JUMPDEST SWAP1 POP SWAP3 SWAP2 POP POP JUMP JUMPDEST PUSH1 0x0 PUSH1 0x40 DUP3 ADD SWAP1 POP DUP2 DUP2 SUB PUSH1 0x0 DUP4 ADD MSTORE PUSH2 0x1144 DUP2 DUP6 PUSH2 0xDE7 JUMP JUMPDEST SWAP1 POP PUSH2 0x1153 PUSH1 0x20 DUP4 ADD DUP5 PUSH2 0x1051 JUMP JUMPDEST SWAP4 SWAP3 POP POP POP JUMP JUMPDEST PUSH1 0x0 PUSH1 0x60 DUP3 ADD SWAP1 POP DUP2 DUP2 SUB PUSH1 0x0 DUP4 ADD MSTORE PUSH2 0x1174 DUP2 DUP7 PUSH2 0xDE7 JUMP JUMPDEST SWAP1 POP PUSH2 0x1183 PUSH1 0x20 DUP4 ADD DUP6 PUSH2 0x1051 JUMP JUMPDEST PUSH2 0x1190 PUSH1 0x40 DUP4 ADD DUP5 PUSH2 0xDD8 JUMP JUMPDEST SWAP5 SWAP4 POP POP POP POP JUMP JUMPDEST PUSH1 0x0 PUSH1 0x20 DUP3 ADD SWAP1 POP DUP2 DUP2 SUB PUSH1 0x0 DUP4 ADD MSTORE PUSH2 0x11B1 DUP2 PUSH2 0xEDF JUMP JUMPDEST SWAP1 POP SWAP2 SWAP1 POP JUMP JUMPDEST PUSH1 0x0 PUSH1 0x20 DUP3 ADD SWAP1 POP DUP2 DUP2 SUB PUSH1 0x0 DUP4 ADD MSTORE PUSH2 0x11D1 DUP2 PUSH2 0xF6B JUMP JUMPDEST SWAP1 POP SWAP2 SWAP1 POP JUMP JUMPDEST PUSH1 0x0 PUSH1 0x20 DUP3 ADD SWAP1 POP DUP2 DUP2 SUB PUSH1 0x0 DUP4 ADD MSTORE PUSH2 0x11F1 DUP2 PUSH2 0xFAB JUMP JUMPDEST SWAP1 POP SWAP2 SWAP1 POP JUMP JUMPDEST PUSH1 0x0 PUSH1 0x20 DUP3 ADD SWAP1 POP DUP2 DUP2 SUB PUSH1 0x0 DUP4 ADD MSTORE PUSH2 0x1211 DUP2 PUSH2 0xFEB JUMP JUMPDEST SWAP1 POP SWAP2 SWAP1 POP JUMP JUMPDEST PUSH1 0x0 PUSH1 0x20 DUP3 ADD SWAP1 POP PUSH2 0x122D PUSH1 0x0 DUP4 ADD DUP5 PUSH2 0x1051 JUMP JUMPDEST SWAP3 SWAP2 POP POP JUMP JUMPDEST PUSH1 0x0 PUSH1 0x40 MLOAD SWAP1 POP DUP2 DUP2 ADD DUP2 DUP2 LT PUSH8 0xFFFFFFFFFFFFFFFF DUP3 GT OR ISZERO PUSH2 0x1256 JUMPI PUSH1 0x0 DUP1 REVERT JUMPDEST DUP1 PUSH1 0x40 MSTORE POP SWAP2 SWAP1 POP JUMP JUMPDEST PUSH1 0x0 PUSH8 0xFFFFFFFFFFFFFFFF DUP3 GT ISZERO PUSH2 0x1277 JUMPI PUSH1 0x0 DUP1 REVERT JUMPDEST PUSH1 0x1F NOT PUSH1 0x1F DUP4 ADD AND SWAP1 POP PUSH1 0x20 DUP2 ADD SWAP1 POP SWAP2 SWAP1 POP JUMP JUMPDEST PUSH1 0x0 DUP2 SWAP1 POP DUP2 PUSH1 0x0 MSTORE PUSH1 0x20 PUSH1 0x0 KECCAK256 SWAP1 POP SWAP2 SWAP1 POP JUMP JUMPDEST PUSH1 0x0 DUP2 MLOAD SWAP1 POP SWAP2 SWAP1 POP JUMP JUMPDEST PUSH1 0x0 DUP3 DUP3 MSTORE PUSH1 0x20 DUP3 ADD SWAP1 POP SWAP3 SWAP2 POP POP JUMP JUMPDEST PUSH1 0x0 DUP2 SWAP1 POP SWAP3 SWAP2 POP POP JUMP JUMPDEST PUSH1 0x0 PUSH2 0x12D3 DUP3 PUSH2 0x12F8 JUMP JUMPDEST SWAP1 POP SWAP2 SWAP1 POP JUMP JUMPDEST PUSH1 0x0 PUSH2 0x12E5 DUP3 PUSH2 0x12F8 JUMP JUMPDEST SWAP1 POP SWAP2 SWAP1 POP JUMP JUMPDEST PUSH1 0x0 DUP2 ISZERO ISZERO SWAP1 POP SWAP2 SWAP1 POP JUMP JUMPDEST PUSH1 0x0 PUSH20 0xFFFFFFFFFFFFFFFFFFFFFFFFFFFFFFFFFFFFFFFF DUP3 AND SWAP1 POP SWAP2 SWAP1 POP JUMP JUMPDEST PUSH1 0x0 DUP2 SWAP1 POP SWAP2 SWAP1 POP JUMP JUMPDEST PUSH1 0x0 PUSH2 0x132D DUP3 PUSH2 0x1334 JUMP JUMPDEST SWAP1 POP SWAP2 SWAP1 POP JUMP JUMPDEST PUSH1 0x0 PUSH2 0x133F DUP3 PUSH2 0x1346 JUMP JUMPDEST SWAP1 POP SWAP2 SWAP1 POP JUMP JUMPDEST PUSH1 0x0 PUSH2 0x1351 DUP3 PUSH2 0x12F8 JUMP JUMPDEST SWAP1 POP SWAP2 SWAP1 POP JUMP JUMPDEST DUP3 DUP2 DUP4 CALLDATACOPY PUSH1 0x0 DUP4 DUP4 ADD MSTORE POP POP POP JUMP JUMPDEST PUSH1 0x0 JUMPDEST DUP4 DUP2 LT ISZERO PUSH2 0x1385 JUMPI DUP1 DUP3 ADD MLOAD DUP2 DUP5 ADD MSTORE PUSH1 0x20 DUP2 ADD SWAP1 POP PUSH2 0x136A JUMP JUMPDEST DUP4 DUP2 GT ISZERO PUSH2 0x1394 JUMPI PUSH1 0x0 DUP5 DUP5 ADD MSTORE JUMPDEST POP POP POP POP JUMP JUMPDEST PUSH1 0x0 PUSH1 0x1F NOT PUSH1 0x1F DUP4 ADD AND SWAP1 POP SWAP2 SWAP1 POP JUMP JUMPDEST PUSH2 0x13B4 DUP2 PUSH2 0x12C8 JUMP JUMPDEST DUP2 EQ PUSH2 0x13BF JUMPI PUSH1 0x0 DUP1 REVERT JUMPDEST POP JUMP JUMPDEST PUSH2 0x13CB DUP2 PUSH2 0x12EC JUMP JUMPDEST DUP2 EQ PUSH2 0x13D6 JUMPI PUSH1 0x0 DUP1 REVERT JUMPDEST POP JUMP JUMPDEST PUSH2 0x13E2 DUP2 PUSH2 0x1318 JUMP JUMPDEST DUP2 EQ PUSH2 0x13ED JUMPI PUSH1 0x0 DUP1 REVERT JUMPDEST POP JUMP INVALID LOG2 PUSH5 0x6970667358 0x22 SLT KECCAK256 OR 0xA7 BYTE CALLDATACOPY 0xB8 SELFDESTRUCT 0x28 0xD3 0x4B GASLIMIT SWAP14 SWAP3 PUSH24 0x56D921A617517AF8F20B4DE61ABE7E838264B264736F6C63 NUMBER STOP MOD 0xC STOP CALLER PUSH1 0x80 PUSH1 0x40 MSTORE CALLVALUE DUP1 ISZERO PUSH2 0x10 JUMPI PUSH1 0x0 DUP1 REVERT JUMPDEST POP PUSH1 0x40 MLOAD PUSH2 0xE7F CODESIZE SUB DUP1 PUSH2 0xE7F DUP4 CODECOPY DUP2 DUP2 ADD PUSH1 0x40 MSTORE DUP2 ADD SWAP1 PUSH2 0x32 SWAP2 SWAP1 PUSH2 0x99 JUMP JUMPDEST DUP1 PUSH1 0x2 DUP2 SWAP1 SSTORE POP PUSH1 0x2 SLOAD PUSH1 0x0 DUP1 CALLER PUSH20 0xFFFFFFFFFFFFFFFFFFFFFFFFFFFFFFFFFFFFFFFF AND PUSH20 0xFFFFFFFFFFFFFFFFFFFFFFFFFFFFFFFFFFFFFFFF AND DUP2 MSTORE PUSH1 0x20 ADD SWAP1 DUP2 MSTORE PUSH1 0x20 ADD PUSH1 0x0 KECCAK256 DUP2 SWAP1 SSTORE POP POP PUSH2 0xE3 JUMP JUMPDEST PUSH1 0x0 DUP2 MLOAD SWAP1 POP PUSH2 0x93 DUP2 PUSH2 0xCC JUMP JUMPDEST SWAP3 SWAP2 POP POP JUMP JUMPDEST PUSH1 0x0 PUSH1 0x20 DUP3 DUP5 SUB SLT ISZERO PUSH2 0xAB JUMPI PUSH1 0x0 DUP1 REVERT JUMPDEST PUSH1 0x0 PUSH2 0xB9 DUP5 DUP3 DUP6 ADD PUSH2 0x84 JUMP JUMPDEST SWAP2 POP POP SWAP3 SWAP2 POP POP JUMP JUMPDEST PUSH1 0x0 DUP2 SWAP1 POP SWAP2 SWAP1 POP JUMP JUMPDEST PUSH2 0xD5 DUP2 PUSH2 0xC2 JUMP JUMPDEST DUP2 EQ PUSH2 0xE0 JUMPI PUSH1 0x0 DUP1 REVERT JUMPDEST POP JUMP JUMPDEST PUSH2 0xD8D DUP1 PUSH2 0xF2 PUSH1 0x0 CODECOPY PUSH1 0x0 RETURN INVALID PUSH1 0x80 PUSH1 0x40 MSTORE CALLVALUE DUP1 ISZERO PUSH2 0x10 JUMPI PUSH1 0x0 DUP1 REVERT JUMPDEST POP PUSH1 0x4 CALLDATASIZE LT PUSH2 0x9E JUMPI PUSH1 0x0 CALLDATALOAD PUSH1 0xE0 SHR DUP1 PUSH4 0x313CE567 GT PUSH2 0x66 JUMPI DUP1 PUSH4 0x313CE567 EQ PUSH2 0x15B JUMPI DUP1 PUSH4 0x70A08231 EQ PUSH2 0x179 JUMPI DUP1 PUSH4 0x95D89B41 EQ PUSH2 0x1A9 JUMPI DUP1 PUSH4 0xA9059CBB EQ PUSH2 0x1C7 JUMPI DUP1 PUSH4 0xDD62ED3E EQ PUSH2 0x1F7 JUMPI PUSH2 0x9E JUMP JUMPDEST DUP1 PUSH4 0x6FDDE03 EQ PUSH2 0xA3 JUMPI DUP1 PUSH4 0x95EA7B3 EQ PUSH2 0xC1 JUMPI DUP1 PUSH4 0x18160DDD EQ PUSH2 0xF1 JUMPI DUP1 PUSH4 0x1D43CC98 EQ PUSH2 0x10F JUMPI DUP1 PUSH4 0x23B872DD EQ PUSH2 0x12B JUMPI JUMPDEST PUSH1 0x0 DUP1 REVERT JUMPDEST PUSH2 0xAB PUSH2 0x227 JUMP JUMPDEST PUSH1 0x40 MLOAD PUSH2 0xB8 SWAP2 SWAP1 PUSH2 0xC1C JUMP JUMPDEST PUSH1 0x40 MLOAD DUP1 SWAP2 SUB SWAP1 RETURN JUMPDEST PUSH2 0xDB PUSH1 0x4 DUP1 CALLDATASIZE SUB DUP2 ADD SWAP1 PUSH2 0xD6 SWAP2 SWAP1 PUSH2 0xB36 JUMP JUMPDEST PUSH2 0x260 JUMP JUMPDEST PUSH1 0x40 MLOAD PUSH2 0xE8 SWAP2 SWAP1 PUSH2 0xC01 JUMP JUMPDEST PUSH1 0x40 MLOAD DUP1 SWAP2 SUB SWAP1 RETURN JUMPDEST PUSH2 0xF9 PUSH2 0x352 JUMP JUMPDEST PUSH1 0x40 MLOAD PUSH2 0x106 SWAP2 SWAP1 PUSH2 0xC3E JUMP JUMPDEST PUSH1 0x40 MLOAD DUP1 SWAP2 SUB SWAP1 RETURN JUMPDEST PUSH2 0x129 PUSH1 0x4 DUP1 CALLDATASIZE SUB DUP2 ADD SWAP1 PUSH2 0x124 SWAP2 SWAP1 PUSH2 0xB72 JUMP JUMPDEST PUSH2 0x35C JUMP JUMPDEST STOP JUMPDEST PUSH2 0x145 PUSH1 0x4 DUP1 CALLDATASIZE SUB DUP2 ADD SWAP1 PUSH2 0x140 SWAP2 SWAP1 PUSH2 0xAE7 JUMP JUMPDEST PUSH2 0x3BB JUMP JUMPDEST PUSH1 0x40 MLOAD PUSH2 0x152 SWAP2 SWAP1 PUSH2 0xC01 JUMP JUMPDEST PUSH1 0x40 MLOAD DUP1 SWAP2 SUB SWAP1 RETURN JUMPDEST PUSH2 0x163 PUSH2 0x736 JUMP JUMPDEST PUSH1 0x40 MLOAD PUSH2 0x170 SWAP2 SWAP1 PUSH2 0xC59 JUMP JUMPDEST PUSH1 0x40 MLOAD DUP1 SWAP2 SUB SWAP1 RETURN JUMPDEST PUSH2 0x193 PUSH1 0x4 DUP1 CALLDATASIZE SUB DUP2 ADD SWAP1 PUSH2 0x18E SWAP2 SWAP1 PUSH2 0xA82 JUMP JUMPDEST PUSH2 0x73B JUMP JUMPDEST PUSH1 0x40 MLOAD PUSH2 0x1A0 SWAP2 SWAP1 PUSH2 0xC3E JUMP JUMPDEST PUSH1 0x40 MLOAD DUP1 SWAP2 SUB SWAP1 RETURN JUMPDEST PUSH2 0x1B1 PUSH2 0x783 JUMP JUMPDEST PUSH1 0x40 MLOAD PUSH2 0x1BE SWAP2 SWAP1 PUSH2 0xC1C JUMP JUMPDEST PUSH1 0x40 MLOAD DUP1 SWAP2 SUB SWAP1 RETURN JUMPDEST PUSH2 0x1E1 PUSH1 0x4 DUP1 CALLDATASIZE SUB DUP2 ADD SWAP1 PUSH2 0x1DC SWAP2 SWAP1 PUSH2 0xB36 JUMP JUMPDEST PUSH2 0x7BC JUMP JUMPDEST PUSH1 0x40 MLOAD PUSH2 0x1EE SWAP2 SWAP1 PUSH2 0xC01 JUMP JUMPDEST PUSH1 0x40 MLOAD DUP1 SWAP2 SUB SWAP1 RETURN JUMPDEST PUSH2 0x211 PUSH1 0x4 DUP1 CALLDATASIZE SUB DUP2 ADD SWAP1 PUSH2 0x20C SWAP2 SWAP1 PUSH2 0xAAB JUMP JUMPDEST PUSH2 0x99E JUMP JUMPDEST PUSH1 0x40 MLOAD PUSH2 0x21E SWAP2 SWAP1 PUSH2 0xC3E JUMP JUMPDEST PUSH1 0x40 MLOAD DUP1 SWAP2 SUB SWAP1 RETURN JUMPDEST PUSH1 0x40 MLOAD DUP1 PUSH1 0x40 ADD PUSH1 0x40 MSTORE DUP1 PUSH1 0xC DUP2 MSTORE PUSH1 0x20 ADD PUSH32 0x4552433230414B414C75676F0000000000000000000000000000000000000000 DUP2 MSTORE POP DUP2 JUMP JUMPDEST PUSH1 0x0 DUP2 PUSH1 0x1 PUSH1 0x0 CALLER PUSH20 0xFFFFFFFFFFFFFFFFFFFFFFFFFFFFFFFFFFFFFFFF AND PUSH20 0xFFFFFFFFFFFFFFFFFFFFFFFFFFFFFFFFFFFFFFFF AND DUP2 MSTORE PUSH1 0x20 ADD SWAP1 DUP2 MSTORE PUSH1 0x20 ADD PUSH1 0x0 KECCAK256 PUSH1 0x0 DUP6 PUSH20 0xFFFFFFFFFFFFFFFFFFFFFFFFFFFFFFFFFFFFFFFF AND PUSH20 0xFFFFFFFFFFFFFFFFFFFFFFFFFFFFFFFFFFFFFFFF AND DUP2 MSTORE PUSH1 0x20 ADD SWAP1 DUP2 MSTORE PUSH1 0x20 ADD PUSH1 0x0 KECCAK256 DUP2 SWAP1 SSTORE POP DUP3 PUSH20 0xFFFFFFFFFFFFFFFFFFFFFFFFFFFFFFFFFFFFFFFF AND CALLER PUSH20 0xFFFFFFFFFFFFFFFFFFFFFFFFFFFFFFFFFFFFFFFF AND PUSH32 0x8C5BE1E5EBEC7D5BD14F71427D1E84F3DD0314C0F7B2291E5B200AC8C7C3B925 DUP5 PUSH1 0x40 MLOAD PUSH2 0x340 SWAP2 SWAP1 PUSH2 0xC3E JUMP JUMPDEST PUSH1 0x40 MLOAD DUP1 SWAP2 SUB SWAP1 LOG3 PUSH1 0x1 SWAP1 POP SWAP3 SWAP2 POP POP JUMP JUMPDEST PUSH1 0x0 PUSH1 0x2 SLOAD SWAP1 POP SWAP1 JUMP JUMPDEST DUP1 PUSH1 0x2 PUSH1 0x0 DUP3 DUP3 SLOAD ADD SWAP3 POP POP DUP2 SWAP1 SSTORE POP DUP1 PUSH1 0x0 DUP1 CALLER PUSH20 0xFFFFFFFFFFFFFFFFFFFFFFFFFFFFFFFFFFFFFFFF AND PUSH20 0xFFFFFFFFFFFFFFFFFFFFFFFFFFFFFFFFFFFFFFFF AND DUP2 MSTORE PUSH1 0x20 ADD SWAP1 DUP2 MSTORE PUSH1 0x20 ADD PUSH1 0x0 KECCAK256 PUSH1 0x0 DUP3 DUP3 SLOAD ADD SWAP3 POP POP DUP2 SWAP1 SSTORE POP POP JUMP JUMPDEST PUSH1 0x0 DUP2 PUSH1 0x0 DUP1 DUP7 PUSH20 0xFFFFFFFFFFFFFFFFFFFFFFFFFFFFFFFFFFFFFFFF AND PUSH20 0xFFFFFFFFFFFFFFFFFFFFFFFFFFFFFFFFFFFFFFFF AND DUP2 MSTORE PUSH1 0x20 ADD SWAP1 DUP2 MSTORE PUSH1 0x20 ADD PUSH1 0x0 KECCAK256 SLOAD LT ISZERO PUSH2 0x408 JUMPI PUSH1 0x0 DUP1 REVERT JUMPDEST DUP2 PUSH1 0x1 PUSH1 0x0 DUP7 PUSH20 0xFFFFFFFFFFFFFFFFFFFFFFFFFFFFFFFFFFFFFFFF AND PUSH20 0xFFFFFFFFFFFFFFFFFFFFFFFFFFFFFFFFFFFFFFFF AND DUP2 MSTORE PUSH1 0x20 ADD SWAP1 DUP2 MSTORE PUSH1 0x20 ADD PUSH1 0x0 KECCAK256 PUSH1 0x0 CALLER PUSH20 0xFFFFFFFFFFFFFFFFFFFFFFFFFFFFFFFFFFFFFFFF AND PUSH20 0xFFFFFFFFFFFFFFFFFFFFFFFFFFFFFFFFFFFFFFFF AND DUP2 MSTORE PUSH1 0x20 ADD SWAP1 DUP2 MSTORE PUSH1 0x20 ADD PUSH1 0x0 KECCAK256 SLOAD LT ISZERO PUSH2 0x491 JUMPI PUSH1 0x0 DUP1 REVERT JUMPDEST PUSH2 0x4E2 DUP3 PUSH1 0x0 DUP1 DUP8 PUSH20 0xFFFFFFFFFFFFFFFFFFFFFFFFFFFFFFFFFFFFFFFF AND PUSH20 0xFFFFFFFFFFFFFFFFFFFFFFFFFFFFFFFFFFFFFFFF AND DUP2 MSTORE PUSH1 0x20 ADD SWAP1 DUP2 MSTORE PUSH1 0x20 ADD PUSH1 0x0 KECCAK256 SLOAD PUSH2 0xA25 SWAP1 SWAP2 SWAP1 PUSH4 0xFFFFFFFF AND JUMP JUMPDEST PUSH1 0x0 DUP1 DUP7 PUSH20 0xFFFFFFFFFFFFFFFFFFFFFFFFFFFFFFFFFFFFFFFF AND PUSH20 0xFFFFFFFFFFFFFFFFFFFFFFFFFFFFFFFFFFFFFFFF AND DUP2 MSTORE PUSH1 0x20 ADD SWAP1 DUP2 MSTORE PUSH1 0x20 ADD PUSH1 0x0 KECCAK256 DUP2 SWAP1 SSTORE POP PUSH2 0x5B3 DUP3 PUSH1 0x1 PUSH1 0x0 DUP8 PUSH20 0xFFFFFFFFFFFFFFFFFFFFFFFFFFFFFFFFFFFFFFFF AND PUSH20 0xFFFFFFFFFFFFFFFFFFFFFFFFFFFFFFFFFFFFFFFF AND DUP2 MSTORE PUSH1 0x20 ADD SWAP1 DUP2 MSTORE PUSH1 0x20 ADD PUSH1 0x0 KECCAK256 PUSH1 0x0 CALLER PUSH20 0xFFFFFFFFFFFFFFFFFFFFFFFFFFFFFFFFFFFFFFFF AND PUSH20 0xFFFFFFFFFFFFFFFFFFFFFFFFFFFFFFFFFFFFFFFF AND DUP2 MSTORE PUSH1 0x20 ADD SWAP1 DUP2 MSTORE PUSH1 0x20 ADD PUSH1 0x0 KECCAK256 SLOAD PUSH2 0xA25 SWAP1 SWAP2 SWAP1 PUSH4 0xFFFFFFFF AND JUMP JUMPDEST PUSH1 0x1 PUSH1 0x0 DUP7 PUSH20 0xFFFFFFFFFFFFFFFFFFFFFFFFFFFFFFFFFFFFFFFF AND PUSH20 0xFFFFFFFFFFFFFFFFFFFFFFFFFFFFFFFFFFFFFFFF AND DUP2 MSTORE PUSH1 0x20 ADD SWAP1 DUP2 MSTORE PUSH1 0x20 ADD PUSH1 0x0 KECCAK256 PUSH1 0x0 CALLER PUSH20 0xFFFFFFFFFFFFFFFFFFFFFFFFFFFFFFFFFFFFFFFF AND PUSH20 0xFFFFFFFFFFFFFFFFFFFFFFFFFFFFFFFFFFFFFFFF AND DUP2 MSTORE PUSH1 0x20 ADD SWAP1 DUP2 MSTORE PUSH1 0x20 ADD PUSH1 0x0 KECCAK256 DUP2 SWAP1 SSTORE POP PUSH2 0x684 DUP3 PUSH1 0x0 DUP1 DUP7 PUSH20 0xFFFFFFFFFFFFFFFFFFFFFFFFFFFFFFFFFFFFFFFF AND PUSH20 0xFFFFFFFFFFFFFFFFFFFFFFFFFFFFFFFFFFFFFFFF AND DUP2 MSTORE PUSH1 0x20 ADD SWAP1 DUP2 MSTORE PUSH1 0x20 ADD PUSH1 0x0 KECCAK256 SLOAD PUSH2 0xA3C SWAP1 SWAP2 SWAP1 PUSH4 0xFFFFFFFF AND JUMP JUMPDEST PUSH1 0x0 DUP1 DUP6 PUSH20 0xFFFFFFFFFFFFFFFFFFFFFFFFFFFFFFFFFFFFFFFF AND PUSH20 0xFFFFFFFFFFFFFFFFFFFFFFFFFFFFFFFFFFFFFFFF AND DUP2 MSTORE PUSH1 0x20 ADD SWAP1 DUP2 MSTORE PUSH1 0x20 ADD PUSH1 0x0 KECCAK256 DUP2 SWAP1 SSTORE POP DUP3 PUSH20 0xFFFFFFFFFFFFFFFFFFFFFFFFFFFFFFFFFFFFFFFF AND DUP5 PUSH20 0xFFFFFFFFFFFFFFFFFFFFFFFFFFFFFFFFFFFFFFFF AND PUSH32 0xDDF252AD1BE2C89B69C2B068FC378DAA952BA7F163C4A11628F55A4DF523B3EF DUP5 PUSH1 0x40 MLOAD PUSH2 0x723 SWAP2 SWAP1 PUSH2 0xC3E JUMP JUMPDEST PUSH1 0x40 MLOAD DUP1 SWAP2 SUB SWAP1 LOG3 PUSH1 0x1 SWAP1 POP SWAP4 SWAP3 POP POP POP JUMP JUMPDEST PUSH1 0x12 DUP2 JUMP JUMPDEST PUSH1 0x0 DUP1 PUSH1 0x0 DUP4 PUSH20 0xFFFFFFFFFFFFFFFFFFFFFFFFFFFFFFFFFFFFFFFF AND PUSH20 0xFFFFFFFFFFFFFFFFFFFFFFFFFFFFFFFFFFFFFFFF AND DUP2 MSTORE PUSH1 0x20 ADD SWAP1 DUP2 MSTORE PUSH1 0x20 ADD PUSH1 0x0 KECCAK256 SLOAD SWAP1 POP SWAP2 SWAP1 POP JUMP JUMPDEST PUSH1 0x40 MLOAD DUP1 PUSH1 0x40 ADD PUSH1 0x40 MSTORE DUP1 PUSH1 0x3 DUP2 MSTORE PUSH1 0x20 ADD PUSH32 0x414B410000000000000000000000000000000000000000000000000000000000 DUP2 MSTORE POP DUP2 JUMP JUMPDEST PUSH1 0x0 DUP1 PUSH1 0x0 CALLER PUSH20 0xFFFFFFFFFFFFFFFFFFFFFFFFFFFFFFFFFFFFFFFF AND PUSH20 0xFFFFFFFFFFFFFFFFFFFFFFFFFFFFFFFFFFFFFFFF AND DUP2 MSTORE PUSH1 0x20 ADD SWAP1 DUP2 MSTORE PUSH1 0x20 ADD PUSH1 0x0 KECCAK256 SLOAD DUP3 GT ISZERO PUSH2 0x809 JUMPI PUSH1 0x0 DUP1 REVERT JUMPDEST PUSH2 0x85A DUP3 PUSH1 0x0 DUP1 CALLER PUSH20 0xFFFFFFFFFFFFFFFFFFFFFFFFFFFFFFFFFFFFFFFF AND PUSH20 0xFFFFFFFFFFFFFFFFFFFFFFFFFFFFFFFFFFFFFFFF AND DUP2 MSTORE PUSH1 0x20 ADD SWAP1 DUP2 MSTORE PUSH1 0x20 ADD PUSH1 0x0 KECCAK256 SLOAD PUSH2 0xA25 SWAP1 SWAP2 SWAP1 PUSH4 0xFFFFFFFF AND JUMP JUMPDEST PUSH1 0x0 DUP1 CALLER PUSH20 0xFFFFFFFFFFFFFFFFFFFFFFFFFFFFFFFFFFFFFFFF AND PUSH20 0xFFFFFFFFFFFFFFFFFFFFFFFFFFFFFFFFFFFFFFFF AND DUP2 MSTORE PUSH1 0x20 ADD SWAP1 DUP2 MSTORE PUSH1 0x20 ADD PUSH1 0x0 KECCAK256 DUP2 SWAP1 SSTORE POP PUSH2 0x8ED DUP3 PUSH1 0x0 DUP1 DUP7 PUSH20 0xFFFFFFFFFFFFFFFFFFFFFFFFFFFFFFFFFFFFFFFF AND PUSH20 0xFFFFFFFFFFFFFFFFFFFFFFFFFFFFFFFFFFFFFFFF AND DUP2 MSTORE PUSH1 0x20 ADD SWAP1 DUP2 MSTORE PUSH1 0x20 ADD PUSH1 0x0 KECCAK256 SLOAD PUSH2 0xA3C SWAP1 SWAP2 SWAP1 PUSH4 0xFFFFFFFF AND JUMP JUMPDEST PUSH1 0x0 DUP1 DUP6 PUSH20 0xFFFFFFFFFFFFFFFFFFFFFFFFFFFFFFFFFFFFFFFF AND PUSH20 0xFFFFFFFFFFFFFFFFFFFFFFFFFFFFFFFFFFFFFFFF AND DUP2 MSTORE PUSH1 0x20 ADD SWAP1 DUP2 MSTORE PUSH1 0x20 ADD PUSH1 0x0 KECCAK256 DUP2 SWAP1 SSTORE POP DUP3 PUSH20 0xFFFFFFFFFFFFFFFFFFFFFFFFFFFFFFFFFFFFFFFF AND CALLER PUSH20 0xFFFFFFFFFFFFFFFFFFFFFFFFFFFFFFFFFFFFFFFF AND PUSH32 0xDDF252AD1BE2C89B69C2B068FC378DAA952BA7F163C4A11628F55A4DF523B3EF DUP5 PUSH1 0x40 MLOAD PUSH2 0x98C SWAP2 SWAP1 PUSH2 0xC3E JUMP JUMPDEST PUSH1 0x40 MLOAD DUP1 SWAP2 SUB SWAP1 LOG3 PUSH1 0x1 SWAP1 POP SWAP3 SWAP2 POP POP JUMP JUMPDEST PUSH1 0x0 PUSH1 0x1 PUSH1 0x0 DUP5 PUSH20 0xFFFFFFFFFFFFFFFFFFFFFFFFFFFFFFFFFFFFFFFF AND PUSH20 0xFFFFFFFFFFFFFFFFFFFFFFFFFFFFFFFFFFFFFFFF AND DUP2 MSTORE PUSH1 0x20 ADD SWAP1 DUP2 MSTORE PUSH1 0x20 ADD PUSH1 0x0 KECCAK256 PUSH1 0x0 DUP4 PUSH20 0xFFFFFFFFFFFFFFFFFFFFFFFFFFFFFFFFFFFFFFFF AND PUSH20 0xFFFFFFFFFFFFFFFFFFFFFFFFFFFFFFFFFFFFFFFF AND DUP2 MSTORE PUSH1 0x20 ADD SWAP1 DUP2 MSTORE PUSH1 0x20 ADD PUSH1 0x0 KECCAK256 SLOAD SWAP1 POP SWAP3 SWAP2 POP POP JUMP JUMPDEST PUSH1 0x0 DUP3 DUP3 GT ISZERO PUSH2 0xA31 JUMPI INVALID JUMPDEST DUP2 DUP4 SUB SWAP1 POP SWAP3 SWAP2 POP POP JUMP JUMPDEST PUSH1 0x0 DUP1 DUP3 DUP5 ADD SWAP1 POP DUP4 DUP2 LT ISZERO PUSH2 0xA4E JUMPI INVALID JUMPDEST DUP1 SWAP2 POP POP SWAP3 SWAP2 POP POP JUMP JUMPDEST PUSH1 0x0 DUP2 CALLDATALOAD SWAP1 POP PUSH2 0xA67 DUP2 PUSH2 0xD29 JUMP JUMPDEST SWAP3 SWAP2 POP POP JUMP JUMPDEST PUSH1 0x0 DUP2 CALLDATALOAD SWAP1 POP PUSH2 0xA7C DUP2 PUSH2 0xD40 JUMP JUMPDEST SWAP3 SWAP2 POP POP JUMP JUMPDEST PUSH1 0x0 PUSH1 0x20 DUP3 DUP5 SUB SLT ISZERO PUSH2 0xA94 JUMPI PUSH1 0x0 DUP1 REVERT JUMPDEST PUSH1 0x0 PUSH2 0xAA2 DUP5 DUP3 DUP6 ADD PUSH2 0xA58 JUMP JUMPDEST SWAP2 POP POP SWAP3 SWAP2 POP POP JUMP JUMPDEST PUSH1 0x0 DUP1 PUSH1 0x40 DUP4 DUP6 SUB SLT ISZERO PUSH2 0xABE JUMPI PUSH1 0x0 DUP1 REVERT JUMPDEST PUSH1 0x0 PUSH2 0xACC DUP6 DUP3 DUP7 ADD PUSH2 0xA58 JUMP JUMPDEST SWAP3 POP POP PUSH1 0x20 PUSH2 0xADD DUP6 DUP3 DUP7 ADD PUSH2 0xA58 JUMP JUMPDEST SWAP2 POP POP SWAP3 POP SWAP3 SWAP1 POP JUMP JUMPDEST PUSH1 0x0 DUP1 PUSH1 0x0 PUSH1 0x60 DUP5 DUP7 SUB SLT ISZERO PUSH2 0xAFC JUMPI PUSH1 0x0 DUP1 REVERT JUMPDEST PUSH1 0x0 PUSH2 0xB0A DUP7 DUP3 DUP8 ADD PUSH2 0xA58 JUMP JUMPDEST SWAP4 POP POP PUSH1 0x20 PUSH2 0xB1B DUP7 DUP3 DUP8 ADD PUSH2 0xA58 JUMP JUMPDEST SWAP3 POP POP PUSH1 0x40 PUSH2 0xB2C DUP7 DUP3 DUP8 ADD PUSH2 0xA6D JUMP JUMPDEST SWAP2 POP POP SWAP3 POP SWAP3 POP SWAP3 JUMP JUMPDEST PUSH1 0x0 DUP1 PUSH1 0x40 DUP4 DUP6 SUB SLT ISZERO PUSH2 0xB49 JUMPI PUSH1 0x0 DUP1 REVERT JUMPDEST PUSH1 0x0 PUSH2 0xB57 DUP6 DUP3 DUP7 ADD PUSH2 0xA58 JUMP JUMPDEST SWAP3 POP POP PUSH1 0x20 PUSH2 0xB68 DUP6 DUP3 DUP7 ADD PUSH2 0xA6D JUMP JUMPDEST SWAP2 POP POP SWAP3 POP SWAP3 SWAP1 POP JUMP JUMPDEST PUSH1 0x0 PUSH1 0x20 DUP3 DUP5 SUB SLT ISZERO PUSH2 0xB84 JUMPI PUSH1 0x0 DUP1 REVERT JUMPDEST PUSH1 0x0 PUSH2 0xB92 DUP5 DUP3 DUP6 ADD PUSH2 0xA6D JUMP JUMPDEST SWAP2 POP POP SWAP3 SWAP2 POP POP JUMP JUMPDEST PUSH2 0xBA4 DUP2 PUSH2 0xCA2 JUMP JUMPDEST DUP3 MSTORE POP POP JUMP JUMPDEST PUSH1 0x0 PUSH2 0xBB5 DUP3 PUSH2 0xC74 JUMP JUMPDEST PUSH2 0xBBF DUP2 DUP6 PUSH2 0xC7F JUMP JUMPDEST SWAP4 POP PUSH2 0xBCF DUP2 DUP6 PUSH1 0x20 DUP7 ADD PUSH2 0xCE5 JUMP JUMPDEST PUSH2 0xBD8 DUP2 PUSH2 0xD18 JUMP JUMPDEST DUP5 ADD SWAP2 POP POP SWAP3 SWAP2 POP POP JUMP JUMPDEST PUSH2 0xBEC DUP2 PUSH2 0xCCE JUMP JUMPDEST DUP3 MSTORE POP POP JUMP JUMPDEST PUSH2 0xBFB DUP2 PUSH2 0xCD8 JUMP JUMPDEST DUP3 MSTORE POP POP JUMP JUMPDEST PUSH1 0x0 PUSH1 0x20 DUP3 ADD SWAP1 POP PUSH2 0xC16 PUSH1 0x0 DUP4 ADD DUP5 PUSH2 0xB9B JUMP JUMPDEST SWAP3 SWAP2 POP POP JUMP JUMPDEST PUSH1 0x0 PUSH1 0x20 DUP3 ADD SWAP1 POP DUP2 DUP2 SUB PUSH1 0x0 DUP4 ADD MSTORE PUSH2 0xC36 DUP2 DUP5 PUSH2 0xBAA JUMP JUMPDEST SWAP1 POP SWAP3 SWAP2 POP POP JUMP JUMPDEST PUSH1 0x0 PUSH1 0x20 DUP3 ADD SWAP1 POP PUSH2 0xC53 PUSH1 0x0 DUP4 ADD DUP5 PUSH2 0xBE3 JUMP JUMPDEST SWAP3 SWAP2 POP POP JUMP JUMPDEST PUSH1 0x0 PUSH1 0x20 DUP3 ADD SWAP1 POP PUSH2 0xC6E PUSH1 0x0 DUP4 ADD DUP5 PUSH2 0xBF2 JUMP JUMPDEST SWAP3 SWAP2 POP POP JUMP JUMPDEST PUSH1 0x0 DUP2 MLOAD SWAP1 POP SWAP2 SWAP1 POP JUMP JUMPDEST PUSH1 0x0 DUP3 DUP3 MSTORE PUSH1 0x20 DUP3 ADD SWAP1 POP SWAP3 SWAP2 POP POP JUMP JUMPDEST PUSH1 0x0 PUSH2 0xC9B DUP3 PUSH2 0xCAE JUMP JUMPDEST SWAP1 POP SWAP2 SWAP1 POP JUMP JUMPDEST PUSH1 0x0 DUP2 ISZERO ISZERO SWAP1 POP SWAP2 SWAP1 POP JUMP JUMPDEST PUSH1 0x0 PUSH20 0xFFFFFFFFFFFFFFFFFFFFFFFFFFFFFFFFFFFFFFFF DUP3 AND SWAP1 POP SWAP2 SWAP1 POP JUMP JUMPDEST PUSH1 0x0 DUP2 SWAP1 POP SWAP2 SWAP1 POP JUMP JUMPDEST PUSH1 0x0 PUSH1 0xFF DUP3 AND SWAP1 POP SWAP2 SWAP1 POP JUMP JUMPDEST PUSH1 0x0 JUMPDEST DUP4 DUP2 LT ISZERO PUSH2 0xD03 JUMPI DUP1 DUP3 ADD MLOAD DUP2 DUP5 ADD MSTORE PUSH1 0x20 DUP2 ADD SWAP1 POP PUSH2 0xCE8 JUMP JUMPDEST DUP4 DUP2 GT ISZERO PUSH2 0xD12 JUMPI PUSH1 0x0 DUP5 DUP5 ADD MSTORE JUMPDEST POP POP POP POP JUMP JUMPDEST PUSH1 0x0 PUSH1 0x1F NOT PUSH1 0x1F DUP4 ADD AND SWAP1 POP SWAP2 SWAP1 POP JUMP JUMPDEST PUSH2 0xD32 DUP2 PUSH2 0xC90 JUMP JUMPDEST DUP2 EQ PUSH2 0xD3D JUMPI PUSH1 0x0 DUP1 REVERT JUMPDEST POP JUMP JUMPDEST PUSH2 0xD49 DUP2 PUSH2 0xCCE JUMP JUMPDEST DUP2 EQ PUSH2 0xD54 JUMPI PUSH1 0x0 DUP1 REVERT JUMPDEST POP JUMP INVALID LOG2 PUSH5 0x6970667358 0x22 SLT KECCAK256 0xDB 0x26 0xCB DUP6 0x25 CREATE 0xA6 0xDA PUSH11 0x43A6EC5D6D6614ADFA4979 0xC0 0xE2 0xA6 SELFDESTRUCT 0xD5 0x49 DUP16 0xB2 ORIGIN 0xBE 0xF6 SELFBALANCE PUSH5 0x736F6C6343 STOP MOD 0xC STOP CALLER "
				},
				"gasEstimates": {
					"creation": {
						"codeDepositCost": "1031600",
						"executionCost": "infinite",
						"totalCost": "infinite"
					},
					"external": {
						"BajarAtraccion(string)": "infinite",
						"BalanceOf()": "infinite",
						"Clientes(address)": "1550",
						"CompraTokens(uint256)": "infinite",
						"GenerarTokens(uint256)": "infinite",
						"MappingAtracciones(string)": "infinite",
						"MisTokens()": "infinite",
						"NuevaAtraccion(string,uint256)": "infinite",
						"owner()": "1259"
					},
					"internal": {
						"PrecioTokens(uint256)": "36"
					}
				},
				"methodIdentifiers": {
					"BajarAtraccion(string)": "a2094159",
					"BalanceOf()": "9a3174a0",
					"Clientes(address)": "ce8f2f38",
					"CompraTokens(uint256)": "f7774091",
					"GenerarTokens(uint256)": "7c1b38bf",
					"MappingAtracciones(string)": "d00df296",
					"MisTokens()": "e33f34a0",
					"NuevaAtraccion(string,uint256)": "2076b56c",
					"owner()": "8da5cb5b"
				}
			},
			"storageLayout": {
				"storage": [
					{
						"astId": 435,
						"contract": "Disney/disney.sol:Disney",
						"label": "token",
						"offset": 0,
						"slot": "0",
						"type": "t_contract(ERC20Basic)347"
					},
					{
						"astId": 437,
						"contract": "Disney/disney.sol:Disney",
						"label": "owner",
						"offset": 0,
						"slot": "1",
						"type": "t_address_payable"
					},
					{
						"astId": 447,
						"contract": "Disney/disney.sol:Disney",
						"label": "Clientes",
						"offset": 0,
						"slot": "2",
						"type": "t_mapping(t_address,t_struct(cliente)443_storage)"
					},
					{
						"astId": 611,
						"contract": "Disney/disney.sol:Disney",
						"label": "MappingAtracciones",
						"offset": 0,
						"slot": "3",
						"type": "t_mapping(t_string_memory_ptr,t_struct(atraccion)607_storage)"
					},
					{
						"astId": 614,
						"contract": "Disney/disney.sol:Disney",
						"label": "Atracciones",
						"offset": 0,
						"slot": "4",
						"type": "t_array(t_string_storage)dyn_storage"
					},
					{
						"astId": 619,
						"contract": "Disney/disney.sol:Disney",
						"label": "HistorialCliente",
						"offset": 0,
						"slot": "5",
						"type": "t_mapping(t_address,t_array(t_string_storage)dyn_storage)"
					}
				],
				"types": {
					"t_address": {
						"encoding": "inplace",
						"label": "address",
						"numberOfBytes": "20"
					},
					"t_address_payable": {
						"encoding": "inplace",
						"label": "address payable",
						"numberOfBytes": "20"
					},
					"t_array(t_string_storage)dyn_storage": {
						"base": "t_string_storage",
						"encoding": "dynamic_array",
						"label": "string[]",
						"numberOfBytes": "32"
					},
					"t_bool": {
						"encoding": "inplace",
						"label": "bool",
						"numberOfBytes": "1"
					},
					"t_contract(ERC20Basic)347": {
						"encoding": "inplace",
						"label": "contract ERC20Basic",
						"numberOfBytes": "20"
					},
					"t_mapping(t_address,t_array(t_string_storage)dyn_storage)": {
						"encoding": "mapping",
						"key": "t_address",
						"label": "mapping(address => string[])",
						"numberOfBytes": "32",
						"value": "t_array(t_string_storage)dyn_storage"
					},
					"t_mapping(t_address,t_struct(cliente)443_storage)": {
						"encoding": "mapping",
						"key": "t_address",
						"label": "mapping(address => struct Disney.cliente)",
						"numberOfBytes": "32",
						"value": "t_struct(cliente)443_storage"
					},
					"t_mapping(t_string_memory_ptr,t_struct(atraccion)607_storage)": {
						"encoding": "mapping",
						"key": "t_string_memory_ptr",
						"label": "mapping(string => struct Disney.atraccion)",
						"numberOfBytes": "32",
						"value": "t_struct(atraccion)607_storage"
					},
					"t_string_memory_ptr": {
						"encoding": "bytes",
						"label": "string",
						"numberOfBytes": "32"
					},
					"t_string_storage": {
						"encoding": "bytes",
						"label": "string",
						"numberOfBytes": "32"
					},
					"t_struct(atraccion)607_storage": {
						"encoding": "inplace",
						"label": "struct Disney.atraccion",
						"members": [
							{
								"astId": 602,
								"contract": "Disney/disney.sol:Disney",
								"label": "nombre",
								"offset": 0,
								"slot": "0",
								"type": "t_string_storage"
							},
							{
								"astId": 604,
								"contract": "Disney/disney.sol:Disney",
								"label": "precio",
								"offset": 0,
								"slot": "1",
								"type": "t_uint256"
							},
							{
								"astId": 606,
								"contract": "Disney/disney.sol:Disney",
								"label": "estado",
								"offset": 0,
								"slot": "2",
								"type": "t_bool"
							}
						],
						"numberOfBytes": "96"
					},
					"t_struct(cliente)443_storage": {
						"encoding": "inplace",
						"label": "struct Disney.cliente",
						"members": [
							{
								"astId": 439,
								"contract": "Disney/disney.sol:Disney",
								"label": "token_comprado",
								"offset": 0,
								"slot": "0",
								"type": "t_uint256"
							},
							{
								"astId": 442,
								"contract": "Disney/disney.sol:Disney",
								"label": "atracciones_visitadas",
								"offset": 0,
								"slot": "1",
								"type": "t_array(t_string_storage)dyn_storage"
							}
						],
						"numberOfBytes": "64"
					},
					"t_uint256": {
						"encoding": "inplace",
						"label": "uint256",
						"numberOfBytes": "32"
					}
				}
			},
			"userdoc": {
				"kind": "user",
				"methods": {},
				"version": 1
			}
		}
	}
}