{
	"Loteria/loteria.sol": {
		"Loteria": {
			"abi": [
				{
					"inputs": [],
					"stateMutability": "nonpayable",
					"type": "constructor"
				},
				{
					"anonymous": false,
					"inputs": [
						{
							"indexed": false,
							"internalType": "uint256",
							"name": "",
							"type": "uint256"
						},
						{
							"indexed": false,
							"internalType": "address",
							"name": "",
							"type": "address"
						}
					],
					"name": "ComprarTokens",
					"type": "event"
				},
				{
					"anonymous": false,
					"inputs": [
						{
							"indexed": false,
							"internalType": "uint256",
							"name": "",
							"type": "uint256"
						}
					],
					"name": "boleto_comprado",
					"type": "event"
				},
				{
					"anonymous": false,
					"inputs": [
						{
							"indexed": false,
							"internalType": "uint256",
							"name": "",
							"type": "uint256"
						}
					],
					"name": "boleto_ganador",
					"type": "event"
				},
				{
					"anonymous": false,
					"inputs": [
						{
							"indexed": false,
							"internalType": "uint256",
							"name": "",
							"type": "uint256"
						},
						{
							"indexed": false,
							"internalType": "address",
							"name": "",
							"type": "address"
						}
					],
					"name": "tokens_devueltos",
					"type": "event"
				},
				{
					"inputs": [],
					"name": "Bote",
					"outputs": [
						{
							"internalType": "uint256",
							"name": "",
							"type": "uint256"
						}
					],
					"stateMutability": "view",
					"type": "function"
				},
				{
					"inputs": [
						{
							"internalType": "uint256",
							"name": "_numTokens",
							"type": "uint256"
						}
					],
					"name": "CompraTokens",
					"outputs": [],
					"stateMutability": "payable",
					"type": "function"
				},
				{
					"inputs": [
						{
							"internalType": "uint256",
							"name": "_boletos",
							"type": "uint256"
						}
					],
					"name": "ComprarBoleto",
					"outputs": [],
					"stateMutability": "nonpayable",
					"type": "function"
				},
				{
					"inputs": [
						{
							"internalType": "uint256",
							"name": "_numTokens",
							"type": "uint256"
						}
					],
					"name": "DevolverTokens",
					"outputs": [],
					"stateMutability": "payable",
					"type": "function"
				},
				{
					"inputs": [
						{
							"internalType": "uint256",
							"name": "_numTokens",
							"type": "uint256"
						}
					],
					"name": "GeneraTokens",
					"outputs": [],
					"stateMutability": "nonpayable",
					"type": "function"
				},
				{
					"inputs": [],
					"name": "GenerarGanador",
					"outputs": [],
					"stateMutability": "nonpayable",
					"type": "function"
				},
				{
					"inputs": [],
					"name": "MisBoletos",
					"outputs": [
						{
							"internalType": "uint256[]",
							"name": "",
							"type": "uint256[]"
						}
					],
					"stateMutability": "view",
					"type": "function"
				},
				{
					"inputs": [],
					"name": "MisTokens",
					"outputs": [
						{
							"internalType": "uint256",
							"name": "",
							"type": "uint256"
						}
					],
					"stateMutability": "view",
					"type": "function"
				},
				{
					"inputs": [],
					"name": "PrecioBoleto",
					"outputs": [
						{
							"internalType": "uint256",
							"name": "",
							"type": "uint256"
						}
					],
					"stateMutability": "view",
					"type": "function"
				},
				{
					"inputs": [],
					"name": "TokensDisponibles",
					"outputs": [
						{
							"internalType": "uint256",
							"name": "",
							"type": "uint256"
						}
					],
					"stateMutability": "view",
					"type": "function"
				},
				{
					"inputs": [],
					"name": "contrato",
					"outputs": [
						{
							"internalType": "address",
							"name": "",
							"type": "address"
						}
					],
					"stateMutability": "view",
					"type": "function"
				},
				{
					"inputs": [],
					"name": "owner",
					"outputs": [
						{
							"internalType": "address",
							"name": "",
							"type": "address"
						}
					],
					"stateMutability": "view",
					"type": "function"
				},
				{
					"inputs": [],
					"name": "prueba",
					"outputs": [
						{
							"internalType": "bool",
							"name": "",
							"type": "bool"
						}
					],
					"stateMutability": "pure",
					"type": "function"
				}
			],
			"devdoc": {
				"kind": "dev",
				"methods": {},
				"version": 1
			},
			"evm": {
				"assembly": "    /* \"Loteria/loteria.sol\":131:6779  contract Loteria {\r... */\n  mstore(0x40, 0x80)\n    /* \"Loteria/loteria.sol\":2600:2601  2 */\n  0x02\n    /* \"Loteria/loteria.sol\":2573:2601  uint public PrecioBoleto = 2 */\n  0x03\n  sstore\n    /* \"Loteria/loteria.sol\":2659:2661  10 */\n  0x0a\n    /* \"Loteria/loteria.sol\":2636:2661  uint CantidadBoletos = 10 */\n  0x04\n  sstore\n    /* \"Loteria/loteria.sol\":2735:2750  CantidadBoletos */\n  sload(0x04)\n    /* \"Loteria/loteria.sol\":2709:2750  uint BoletosDisponibles = CantidadBoletos */\n  0x05\n  sstore\n    /* \"Loteria/loteria.sol\":3026:3027  0 */\n  0x00\n    /* \"Loteria/loteria.sol\":3009:3027  uint randNonce = 0 */\n  0x08\n  sstore\n    /* \"Loteria/loteria.sol\":301:434  constructor() public {\r... */\n  callvalue\n  dup1\n  iszero\n  tag_1\n  jumpi\n  0x00\n  dup1\n  revert\ntag_1:\n  pop\n    /* \"Loteria/loteria.sol\":356:361  10000 */\n  0x2710\n    /* \"Loteria/loteria.sol\":341:362  new ERC20Basic(10000) */\n  mload(0x40)\n  tag_4\n  swap1\n  tag_5\n  jump\t// in\ntag_4:\n  tag_6\n  swap2\n  swap1\n  tag_7\n  jump\t// in\ntag_6:\n  mload(0x40)\n  dup1\n  swap2\n  sub\n  swap1\n  0x00\n  create\n  dup1\n  iszero\n  dup1\n  iszero\n  tag_8\n  jumpi\n  returndatasize\n  0x00\n  dup1\n  returndatacopy\n  revert(0x00, returndatasize)\ntag_8:\n  pop\n    /* \"Loteria/loteria.sol\":333:338  token */\n  0x00\n  dup1\n    /* \"Loteria/loteria.sol\":333:362  token = new ERC20Basic(10000) */\n  0x0100\n  exp\n  dup2\n  sload\n  dup2\n  0xffffffffffffffffffffffffffffffffffffffff\n  mul\n  not\n  and\n  swap1\n  dup4\n  0xffffffffffffffffffffffffffffffffffffffff\n  and\n  mul\n  or\n  swap1\n  sstore\n  pop\n    /* \"Loteria/loteria.sol\":381:391  msg.sender */\n  caller\n    /* \"Loteria/loteria.sol\":373:378  owner */\n  0x01\n  0x00\n    /* \"Loteria/loteria.sol\":373:391  owner = msg.sender */\n  0x0100\n  exp\n  dup2\n  sload\n  dup2\n  0xffffffffffffffffffffffffffffffffffffffff\n  mul\n  not\n  and\n  swap1\n  dup4\n  0xffffffffffffffffffffffffffffffffffffffff\n  and\n  mul\n  or\n  swap1\n  sstore\n  pop\n    /* \"Loteria/loteria.sol\":421:425  this */\n  address\n    /* \"Loteria/loteria.sol\":402:410  contrato */\n  0x02\n  0x00\n    /* \"Loteria/loteria.sol\":402:426  contrato = address(this) */\n  0x0100\n  exp\n  dup2\n  sload\n  dup2\n  0xffffffffffffffffffffffffffffffffffffffff\n  mul\n  not\n  and\n  swap1\n  dup4\n  0xffffffffffffffffffffffffffffffffffffffff\n  and\n  mul\n  or\n  swap1\n  sstore\n  pop\n    /* \"Loteria/loteria.sol\":131:6779  contract Loteria {\r... */\n  jump(tag_9)\ntag_5:\n  dataSize(sub_1)\n  dup1\n  dataOffset(sub_1)\n  dup4\n  codecopy\n  add\n  swap1\n  jump\t// out\n    /* \"--CODEGEN--\":5:155   */\ntag_11:\n    /* \"--CODEGEN--\":100:149   */\n  tag_13\n    /* \"--CODEGEN--\":143:148   */\n  dup2\n    /* \"--CODEGEN--\":100:149   */\n  tag_14\n  jump\t// in\ntag_13:\n    /* \"--CODEGEN--\":95:98   */\n  dup3\n    /* \"--CODEGEN--\":88:150   */\n  mstore\n    /* \"--CODEGEN--\":82:155   */\n  pop\n  pop\n  jump\t// out\n    /* \"--CODEGEN--\":162:408   */\ntag_7:\n  0x00\n    /* \"--CODEGEN--\":301:303   */\n  0x20\n    /* \"--CODEGEN--\":290:299   */\n  dup3\n    /* \"--CODEGEN--\":286:304   */\n  add\n    /* \"--CODEGEN--\":278:304   */\n  swap1\n  pop\n    /* \"--CODEGEN--\":315:398   */\n  tag_16\n    /* \"--CODEGEN--\":395:396   */\n  0x00\n    /* \"--CODEGEN--\":384:393   */\n  dup4\n    /* \"--CODEGEN--\":380:397   */\n  add\n    /* \"--CODEGEN--\":371:377   */\n  dup5\n    /* \"--CODEGEN--\":315:398   */\n  tag_11\n  jump\t// in\ntag_16:\n    /* \"--CODEGEN--\":272:408   */\n  swap3\n  swap2\n  pop\n  pop\n  jump\t// out\n    /* \"--CODEGEN--\":415:487   */\ntag_17:\n  0x00\n    /* \"--CODEGEN--\":477:482   */\n  dup2\n    /* \"--CODEGEN--\":466:482   */\n  swap1\n  pop\n    /* \"--CODEGEN--\":460:487   */\n  swap2\n  swap1\n  pop\n  jump\t// out\n    /* \"--CODEGEN--\":494:614   */\ntag_14:\n  0x00\n    /* \"--CODEGEN--\":585:609   */\n  tag_20\n    /* \"--CODEGEN--\":603:608   */\n  dup3\n    /* \"--CODEGEN--\":585:609   */\n  tag_17\n  jump\t// in\ntag_20:\n    /* \"--CODEGEN--\":572:609   */\n  swap1\n  pop\n    /* \"--CODEGEN--\":566:614   */\n  swap2\n  swap1\n  pop\n  jump\t// out\n    /* \"Loteria/loteria.sol\":131:6779  contract Loteria {\r... */\ntag_9:\n  dataSize(sub_0)\n  dup1\n  dataOffset(sub_0)\n  0x00\n  codecopy\n  0x00\n  return\nstop\n\nsub_0: assembly {\n        /* \"Loteria/loteria.sol\":131:6779  contract Loteria {\r... */\n      mstore(0x40, 0x80)\n      jumpi(tag_1, lt(calldatasize, 0x04))\n      shr(0xe0, calldataload(0x00))\n      dup1\n      0x7cb5946d\n      gt\n      tag_15\n      jumpi\n      dup1\n      0xe1a01e67\n      gt\n      tag_16\n      jumpi\n      dup1\n      0xe1a01e67\n      eq\n      tag_11\n      jumpi\n      dup1\n      0xe33f34a0\n      eq\n      tag_12\n      jumpi\n      dup1\n      0xf7774091\n      eq\n      tag_13\n      jumpi\n      dup1\n      0xfd889ff5\n      eq\n      tag_14\n      jumpi\n      jump(tag_1)\n    tag_16:\n      dup1\n      0x7cb5946d\n      eq\n      tag_8\n      jumpi\n      dup1\n      0x7cd15f44\n      eq\n      tag_9\n      jumpi\n      dup1\n      0x8da5cb5b\n      eq\n      tag_10\n      jumpi\n      jump(tag_1)\n    tag_15:\n      dup1\n      0x1246f6e2\n      eq\n      tag_2\n      jumpi\n      dup1\n      0x1890154c\n      eq\n      tag_3\n      jumpi\n      dup1\n      0x27909f27\n      eq\n      tag_4\n      jumpi\n      dup1\n      0x5332eee5\n      eq\n      tag_5\n      jumpi\n      dup1\n      0x74189861\n      eq\n      tag_6\n      jumpi\n      dup1\n      0x79face26\n      eq\n      tag_7\n      jumpi\n    tag_1:\n      0x00\n      dup1\n      revert\n        /* \"Loteria/loteria.sol\":1035:1160  function GeneraTokens(uint _numTokens) public Unicamente(msg.sender) {\r... */\n    tag_2:\n      callvalue\n      dup1\n      iszero\n      tag_17\n      jumpi\n      0x00\n      dup1\n      revert\n    tag_17:\n      pop\n      tag_18\n      0x04\n      dup1\n      calldatasize\n      sub\n      dup2\n      add\n      swap1\n      tag_19\n      swap2\n      swap1\n      tag_20\n      jump\t// in\n    tag_19:\n      tag_21\n      jump\t// in\n    tag_18:\n      stop\n        /* \"Loteria/loteria.sol\":6090:6574  function DevolverTokens(uint _numTokens) public payable {\r... */\n    tag_3:\n      tag_22\n      0x04\n      dup1\n      calldatasize\n      sub\n      dup2\n      add\n      swap1\n      tag_23\n      swap2\n      swap1\n      tag_20\n      jump\t// in\n    tag_23:\n      tag_24\n      jump\t// in\n    tag_22:\n      stop\n        /* \"Loteria/loteria.sol\":2573:2601  uint public PrecioBoleto = 2 */\n    tag_4:\n      callvalue\n      dup1\n      iszero\n      tag_25\n      jumpi\n      0x00\n      dup1\n      revert\n    tag_25:\n      pop\n      tag_26\n      tag_27\n      jump\t// in\n    tag_26:\n      mload(0x40)\n      tag_28\n      swap2\n      swap1\n      tag_29\n      jump\t// in\n    tag_28:\n      mload(0x40)\n      dup1\n      swap2\n      sub\n      swap1\n      return\n        /* \"Loteria/loteria.sol\":5475:6053  function GenerarGanador() public Unicamente(msg.sender) {\r... */\n    tag_5:\n      callvalue\n      dup1\n      iszero\n      tag_30\n      jumpi\n      0x00\n      dup1\n      revert\n    tag_30:\n      pop\n      tag_31\n      tag_32\n      jump\t// in\n    tag_31:\n      stop\n        /* \"Loteria/loteria.sol\":2171:2261  function Bote() public view returns(uint) {\r... */\n    tag_6:\n      callvalue\n      dup1\n      iszero\n      tag_33\n      jumpi\n      0x00\n      dup1\n      revert\n    tag_33:\n      pop\n      tag_34\n      tag_35\n      jump\t// in\n    tag_34:\n      mload(0x40)\n      tag_36\n      swap2\n      swap1\n      tag_29\n      jump\t// in\n    tag_36:\n      mload(0x40)\n      dup1\n      swap2\n      sub\n      swap1\n      return\n        /* \"Loteria/loteria.sol\":5291:5403  function MisBoletos() public view returns(uint[] memory) {\r... */\n    tag_7:\n      callvalue\n      dup1\n      iszero\n      tag_37\n      jumpi\n      0x00\n      dup1\n      revert\n    tag_37:\n      pop\n      tag_38\n      tag_39\n      jump\t// in\n    tag_38:\n      mload(0x40)\n      tag_40\n      swap2\n      swap1\n      tag_41\n      jump\t// in\n    tag_40:\n      mload(0x40)\n      dup1\n      swap2\n      sub\n      swap1\n      return\n        /* \"Loteria/loteria.sol\":6582:6776  function prueba() public pure returns(bool) {\r... */\n    tag_8:\n      callvalue\n      dup1\n      iszero\n      tag_42\n      jumpi\n      0x00\n      dup1\n      revert\n    tag_42:\n      pop\n      tag_43\n      tag_44\n      jump\t// in\n    tag_43:\n      mload(0x40)\n      tag_45\n      swap2\n      swap1\n      tag_46\n      jump\t// in\n    tag_45:\n      mload(0x40)\n      dup1\n      swap2\n      sub\n      swap1\n      return\n        /* \"Loteria/loteria.sol\":3268:5238  function ComprarBoleto(uint _boletos) public {\r... */\n    tag_9:\n      callvalue\n      dup1\n      iszero\n      tag_47\n      jumpi\n      0x00\n      dup1\n      revert\n    tag_47:\n      pop\n      tag_48\n      0x04\n      dup1\n      calldatasize\n      sub\n      dup2\n      add\n      swap1\n      tag_49\n      swap2\n      swap1\n      tag_20\n      jump\t// in\n    tag_49:\n      tag_50\n      jump\t// in\n    tag_48:\n      stop\n        /* \"Loteria/loteria.sol\":242:262  address public owner */\n    tag_10:\n      callvalue\n      dup1\n      iszero\n      tag_51\n      jumpi\n      0x00\n      dup1\n      revert\n    tag_51:\n      pop\n      tag_52\n      tag_53\n      jump\t// in\n    tag_52:\n      mload(0x40)\n      tag_54\n      swap2\n      swap1\n      tag_55\n      jump\t// in\n    tag_54:\n      mload(0x40)\n      dup1\n      swap2\n      sub\n      swap1\n      return\n        /* \"Loteria/loteria.sol\":269:292  address public contrato */\n    tag_11:\n      callvalue\n      dup1\n      iszero\n      tag_56\n      jumpi\n      0x00\n      dup1\n      revert\n    tag_56:\n      pop\n      tag_57\n      tag_58\n      jump\t// in\n    tag_57:\n      mload(0x40)\n      tag_59\n      swap2\n      swap1\n      tag_55\n      jump\t// in\n    tag_59:\n      mload(0x40)\n      dup1\n      swap2\n      sub\n      swap1\n      return\n        /* \"Loteria/loteria.sol\":2299:2400  function MisTokens() public view returns (uint) {\r... */\n    tag_12:\n      callvalue\n      dup1\n      iszero\n      tag_60\n      jumpi\n      0x00\n      dup1\n      revert\n    tag_60:\n      pop\n      tag_61\n      tag_62\n      jump\t// in\n    tag_61:\n      mload(0x40)\n      tag_63\n      swap2\n      swap1\n      tag_29\n      jump\t// in\n    tag_63:\n      mload(0x40)\n      dup1\n      swap2\n      sub\n      swap1\n      return\n        /* \"Loteria/loteria.sol\":1191:1945  function CompraTokens(uint _numTokens) public payable {\r... */\n    tag_13:\n      tag_64\n      0x04\n      dup1\n      calldatasize\n      sub\n      dup2\n      add\n      swap1\n      tag_65\n      swap2\n      swap1\n      tag_20\n      jump\t// in\n    tag_65:\n      tag_66\n      jump\t// in\n    tag_64:\n      stop\n        /* \"Loteria/loteria.sol\":1996:2107  function TokensDisponibles() public view returns(uint) {\r... */\n    tag_14:\n      callvalue\n      dup1\n      iszero\n      tag_67\n      jumpi\n      0x00\n      dup1\n      revert\n    tag_67:\n      pop\n      tag_68\n      tag_69\n      jump\t// in\n    tag_68:\n      mload(0x40)\n      tag_70\n      swap2\n      swap1\n      tag_29\n      jump\t// in\n    tag_70:\n      mload(0x40)\n      dup1\n      swap2\n      sub\n      swap1\n      return\n        /* \"Loteria/loteria.sol\":1035:1160  function GeneraTokens(uint _numTokens) public Unicamente(msg.sender) {\r... */\n    tag_21:\n        /* \"Loteria/loteria.sol\":1092:1102  msg.sender */\n      caller\n        /* \"Loteria/loteria.sol\":731:736  owner */\n      0x01\n      0x00\n      swap1\n      sload\n      swap1\n      0x0100\n      exp\n      swap1\n      div\n      0xffffffffffffffffffffffffffffffffffffffff\n      and\n        /* \"Loteria/loteria.sol\":716:736  propietario == owner */\n      0xffffffffffffffffffffffffffffffffffffffff\n      and\n        /* \"Loteria/loteria.sol\":716:727  propietario */\n      dup2\n        /* \"Loteria/loteria.sol\":716:736  propietario == owner */\n      0xffffffffffffffffffffffffffffffffffffffff\n      and\n      eq\n        /* \"Loteria/loteria.sol\":708:786  require(propietario == owner, \"No tienes permisos para ejecutar esta funcion\") */\n      tag_72\n      jumpi\n      mload(0x40)\n      0x08c379a000000000000000000000000000000000000000000000000000000000\n      dup2\n      mstore\n      0x04\n      add\n      tag_73\n      swap1\n      tag_74\n      jump\t// in\n    tag_73:\n      mload(0x40)\n      dup1\n      swap2\n      sub\n      swap1\n      revert\n    tag_72:\n        /* \"Loteria/loteria.sol\":1115:1120  token */\n      0x00\n      dup1\n      sload\n      swap1\n      0x0100\n      exp\n      swap1\n      div\n      0xffffffffffffffffffffffffffffffffffffffff\n      and\n        /* \"Loteria/loteria.sol\":1115:1140  token.increaseTotalSupply */\n      0xffffffffffffffffffffffffffffffffffffffff\n      and\n      0x1d43cc98\n        /* \"Loteria/loteria.sol\":1141:1151  _numTokens */\n      dup4\n        /* \"Loteria/loteria.sol\":1115:1152  token.increaseTotalSupply(_numTokens) */\n      mload(0x40)\n      dup3\n      0xffffffff\n      and\n      0xe0\n      shl\n      dup2\n      mstore\n      0x04\n      add\n      tag_76\n      swap2\n      swap1\n      tag_29\n      jump\t// in\n    tag_76:\n      0x00\n      mload(0x40)\n      dup1\n      dup4\n      sub\n      dup2\n      0x00\n      dup8\n      dup1\n      extcodesize\n      iszero\n      dup1\n      iszero\n      tag_77\n      jumpi\n      0x00\n      dup1\n      revert\n    tag_77:\n      pop\n      gas\n      call\n      iszero\n      dup1\n      iszero\n      tag_79\n      jumpi\n      returndatasize\n      0x00\n      dup1\n      returndatacopy\n      revert(0x00, returndatasize)\n    tag_79:\n      pop\n      pop\n      pop\n      pop\n        /* \"Loteria/loteria.sol\":1035:1160  function GeneraTokens(uint _numTokens) public Unicamente(msg.sender) {\r... */\n      pop\n      pop\n      jump\t// out\n        /* \"Loteria/loteria.sol\":6090:6574  function DevolverTokens(uint _numTokens) public payable {\r... */\n    tag_24:\n        /* \"Loteria/loteria.sol\":6245:6256  MisTokens() */\n      tag_81\n        /* \"Loteria/loteria.sol\":6245:6254  MisTokens */\n      tag_62\n        /* \"Loteria/loteria.sol\":6245:6256  MisTokens() */\n      jump\t// in\n    tag_81:\n        /* \"Loteria/loteria.sol\":6231:6241  _numTokens */\n      dup2\n        /* \"Loteria/loteria.sol\":6231:6256  _numTokens <= MisTokens() */\n      gt\n      iszero\n        /* \"Loteria/loteria.sol\":6222:6281  require (_numTokens <= MisTokens(), \"Tokens insuficientes\") */\n      tag_82\n      jumpi\n      mload(0x40)\n      0x08c379a000000000000000000000000000000000000000000000000000000000\n      dup2\n      mstore\n      0x04\n      add\n      tag_83\n      swap1\n      tag_84\n      jump\t// in\n    tag_83:\n      mload(0x40)\n      dup1\n      swap2\n      sub\n      swap1\n      revert\n    tag_82:\n        /* \"Loteria/loteria.sol\":6348:6353  token */\n      0x00\n      dup1\n      sload\n      swap1\n      0x0100\n      exp\n      swap1\n      div\n      0xffffffffffffffffffffffffffffffffffffffff\n      and\n        /* \"Loteria/loteria.sol\":6348:6369  token.transferLoteria */\n      0xffffffffffffffffffffffffffffffffffffffff\n      and\n      0x5c79febb\n        /* \"Loteria/loteria.sol\":6370:6380  msg.sender */\n      caller\n        /* \"Loteria/loteria.sol\":6390:6394  this */\n      address\n        /* \"Loteria/loteria.sol\":6397:6407  _numTokens */\n      dup5\n        /* \"Loteria/loteria.sol\":6348:6408  token.transferLoteria(msg.sender, address(this), _numTokens) */\n      mload(0x40)\n      dup5\n      0xffffffff\n      and\n      0xe0\n      shl\n      dup2\n      mstore\n      0x04\n      add\n      tag_85\n      swap4\n      swap3\n      swap2\n      swap1\n      tag_86\n      jump\t// in\n    tag_85:\n      0x20\n      mload(0x40)\n      dup1\n      dup4\n      sub\n      dup2\n      0x00\n      dup8\n      dup1\n      extcodesize\n      iszero\n      dup1\n      iszero\n      tag_87\n      jumpi\n      0x00\n      dup1\n      revert\n    tag_87:\n      pop\n      gas\n      call\n      iszero\n      dup1\n      iszero\n      tag_89\n      jumpi\n      returndatasize\n      0x00\n      dup1\n      returndatacopy\n      revert(0x00, returndatasize)\n    tag_89:\n      pop\n      pop\n      pop\n      pop\n      mload(0x40)\n      returndatasize\n      not(0x1f)\n      0x1f\n      dup3\n      add\n      and\n      dup3\n      add\n      dup1\n      0x40\n      mstore\n      pop\n      dup2\n      add\n      swap1\n      tag_90\n      swap2\n      swap1\n      tag_91\n      jump\t// in\n    tag_90:\n      pop\n        /* \"Loteria/loteria.sol\":6463:6473  msg.sender */\n      caller\n        /* \"Loteria/loteria.sol\":6463:6482  msg.sender.transfer */\n      0xffffffffffffffffffffffffffffffffffffffff\n      and\n        /* \"Loteria/loteria.sol\":6463:6508  msg.sender.transfer(PrecioTokens(_numTokens)) */\n      0x08fc\n        /* \"Loteria/loteria.sol\":6483:6507  PrecioTokens(_numTokens) */\n      tag_92\n        /* \"Loteria/loteria.sol\":6496:6506  _numTokens */\n      dup4\n        /* \"Loteria/loteria.sol\":6483:6495  PrecioTokens */\n      tag_93\n        /* \"Loteria/loteria.sol\":6483:6507  PrecioTokens(_numTokens) */\n      jump\t// in\n    tag_92:\n        /* \"Loteria/loteria.sol\":6463:6508  msg.sender.transfer(PrecioTokens(_numTokens)) */\n      swap1\n      dup2\n      iszero\n      mul\n      swap1\n      mload(0x40)\n      0x00\n      mload(0x40)\n      dup1\n      dup4\n      sub\n      dup2\n      dup6\n      dup9\n      dup9\n      call\n      swap4\n      pop\n      pop\n      pop\n      pop\n      iszero\n      dup1\n      iszero\n      tag_95\n      jumpi\n      returndatasize\n      0x00\n      dup1\n      returndatacopy\n      revert(0x00, returndatasize)\n    tag_95:\n      pop\n        /* \"Loteria/loteria.sol\":6526:6566  tokens_devueltos(_numTokens, msg.sender) */\n      0xedb4e62d28b4facd6d91f70625ac1ea2c1a9cac0ecc3e638b50633575d818a4e\n        /* \"Loteria/loteria.sol\":6543:6553  _numTokens */\n      dup2\n        /* \"Loteria/loteria.sol\":6555:6565  msg.sender */\n      caller\n        /* \"Loteria/loteria.sol\":6526:6566  tokens_devueltos(_numTokens, msg.sender) */\n      mload(0x40)\n      tag_96\n      swap3\n      swap2\n      swap1\n      tag_97\n      jump\t// in\n    tag_96:\n      mload(0x40)\n      dup1\n      swap2\n      sub\n      swap1\n      log1\n        /* \"Loteria/loteria.sol\":6090:6574  function DevolverTokens(uint _numTokens) public payable {\r... */\n      pop\n      jump\t// out\n        /* \"Loteria/loteria.sol\":2573:2601  uint public PrecioBoleto = 2 */\n    tag_27:\n      sload(0x03)\n      dup2\n      jump\t// out\n        /* \"Loteria/loteria.sol\":5475:6053  function GenerarGanador() public Unicamente(msg.sender) {\r... */\n    tag_32:\n        /* \"Loteria/loteria.sol\":5519:5529  msg.sender */\n      caller\n        /* \"Loteria/loteria.sol\":731:736  owner */\n      0x01\n      0x00\n      swap1\n      sload\n      swap1\n      0x0100\n      exp\n      swap1\n      div\n      0xffffffffffffffffffffffffffffffffffffffff\n      and\n        /* \"Loteria/loteria.sol\":716:736  propietario == owner */\n      0xffffffffffffffffffffffffffffffffffffffff\n      and\n        /* \"Loteria/loteria.sol\":716:727  propietario */\n      dup2\n        /* \"Loteria/loteria.sol\":716:736  propietario == owner */\n      0xffffffffffffffffffffffffffffffffffffffff\n      and\n      eq\n        /* \"Loteria/loteria.sol\":708:786  require(propietario == owner, \"No tienes permisos para ejecutar esta funcion\") */\n      tag_99\n      jumpi\n      mload(0x40)\n      0x08c379a000000000000000000000000000000000000000000000000000000000\n      dup2\n      mstore\n      0x04\n      add\n      tag_100\n      swap1\n      tag_74\n      jump\t// in\n    tag_100:\n      mload(0x40)\n      dup1\n      swap2\n      sub\n      swap1\n      revert\n    tag_99:\n        /* \"Loteria/loteria.sol\":5642:5643  0 */\n      0x00\n        /* \"Loteria/loteria.sol\":5615:5632  boletos_comprados */\n      0x09\n        /* \"Loteria/loteria.sol\":5615:5639  boletos_comprados.length */\n      dup1\n      sload\n      swap1\n      pop\n        /* \"Loteria/loteria.sol\":5615:5643  boletos_comprados.length > 0 */\n      gt\n        /* \"Loteria/loteria.sol\":5607:5688  require(boletos_comprados.length > 0, \"No se ha vendido ningún boleto todavía\") */\n      tag_102\n      jumpi\n      mload(0x40)\n      0x08c379a000000000000000000000000000000000000000000000000000000000\n      dup2\n      mstore\n      0x04\n      add\n      tag_103\n      swap1\n      tag_104\n      jump\t// in\n    tag_103:\n      mload(0x40)\n      dup1\n      swap2\n      sub\n      swap1\n      revert\n    tag_102:\n        /* \"Loteria/loteria.sol\":5784:5796  uint ganador */\n      0x00\n        /* \"Loteria/loteria.sol\":5799:5816  boletos_comprados */\n      0x09\n        /* \"Loteria/loteria.sol\":5858:5875  boletos_comprados */\n      dup1\n        /* \"Loteria/loteria.sol\":5858:5882  boletos_comprados.length */\n      dup1\n      sload\n      swap1\n      pop\n        /* \"Loteria/loteria.sol\":5849:5852  now */\n      timestamp\n        /* \"Loteria/loteria.sol\":5832:5853  abi.encodePacked(now) */\n      add(0x20, mload(0x40))\n      tag_105\n      swap2\n      swap1\n      tag_106\n      jump\t// in\n    tag_105:\n      mload(0x40)\n      0x20\n      dup2\n      dup4\n      sub\n      sub\n      dup2\n      mstore\n      swap1\n      0x40\n      mstore\n        /* \"Loteria/loteria.sol\":5822:5854  keccak256(abi.encodePacked(now)) */\n      dup1\n      mload\n      swap1\n      0x20\n      add\n      keccak256\n        /* \"Loteria/loteria.sol\":5817:5855  uint(keccak256(abi.encodePacked(now))) */\n      0x00\n      shr\n        /* \"Loteria/loteria.sol\":5817:5882  uint(keccak256(abi.encodePacked(now))) % boletos_comprados.length */\n      dup2\n      tag_107\n      jumpi\n      invalid\n    tag_107:\n      mod\n        /* \"Loteria/loteria.sol\":5799:5883  boletos_comprados[uint(keccak256(abi.encodePacked(now))) % boletos_comprados.length] */\n      dup2\n      sload\n      dup2\n      lt\n      tag_108\n      jumpi\n      invalid\n    tag_108:\n      swap1\n      0x00\n      mstore\n      keccak256(0x00, 0x20)\n      add\n      sload\n        /* \"Loteria/loteria.sol\":5784:5883  uint ganador = boletos_comprados[uint(keccak256(abi.encodePacked(now))) % boletos_comprados.length] */\n      swap1\n      pop\n        /* \"Loteria/loteria.sol\":5901:5924  boleto_ganador(ganador) */\n      0x7ae8aa8a76009e9379a432b67d892b6006479447de6892c862ce780785a2387d\n        /* \"Loteria/loteria.sol\":5916:5923  ganador */\n      dup2\n        /* \"Loteria/loteria.sol\":5901:5924  boleto_ganador(ganador) */\n      mload(0x40)\n      tag_110\n      swap2\n      swap1\n      tag_29\n      jump\t// in\n    tag_110:\n      mload(0x40)\n      dup1\n      swap2\n      sub\n      swap1\n      log1\n        /* \"Loteria/loteria.sol\":5988:5993  token */\n      0x00\n      dup1\n      sload\n      swap1\n      0x0100\n      exp\n      swap1\n      div\n      0xffffffffffffffffffffffffffffffffffffffff\n      and\n        /* \"Loteria/loteria.sol\":5988:6009  token.transferLoteria */\n      0xffffffffffffffffffffffffffffffffffffffff\n      and\n      0x5c79febb\n        /* \"Loteria/loteria.sol\":6010:6015  owner */\n      0x01\n      0x00\n      swap1\n      sload\n      swap1\n      0x0100\n      exp\n      swap1\n      div\n      0xffffffffffffffffffffffffffffffffffffffff\n      and\n        /* \"Loteria/loteria.sol\":6017:6027  ADN_boleto */\n      0x07\n        /* \"Loteria/loteria.sol\":6017:6036  ADN_boleto[ganador] */\n      0x00\n        /* \"Loteria/loteria.sol\":6028:6035  ganador */\n      dup6\n        /* \"Loteria/loteria.sol\":6017:6036  ADN_boleto[ganador] */\n      dup2\n      mstore\n      0x20\n      add\n      swap1\n      dup2\n      mstore\n      0x20\n      add\n      0x00\n      keccak256\n      0x00\n      swap1\n      sload\n      swap1\n      0x0100\n      exp\n      swap1\n      div\n      0xffffffffffffffffffffffffffffffffffffffff\n      and\n        /* \"Loteria/loteria.sol\":6038:6044  Bote() */\n      tag_111\n        /* \"Loteria/loteria.sol\":6038:6042  Bote */\n      tag_35\n        /* \"Loteria/loteria.sol\":6038:6044  Bote() */\n      jump\t// in\n    tag_111:\n        /* \"Loteria/loteria.sol\":5988:6045  token.transferLoteria(owner, ADN_boleto[ganador], Bote()) */\n      mload(0x40)\n      dup5\n      0xffffffff\n      and\n      0xe0\n      shl\n      dup2\n      mstore\n      0x04\n      add\n      tag_112\n      swap4\n      swap3\n      swap2\n      swap1\n      tag_113\n      jump\t// in\n    tag_112:\n      0x20\n      mload(0x40)\n      dup1\n      dup4\n      sub\n      dup2\n      0x00\n      dup8\n      dup1\n      extcodesize\n      iszero\n      dup1\n      iszero\n      tag_114\n      jumpi\n      0x00\n      dup1\n      revert\n    tag_114:\n      pop\n      gas\n      call\n      iszero\n      dup1\n      iszero\n      tag_116\n      jumpi\n      returndatasize\n      0x00\n      dup1\n      returndatacopy\n      revert(0x00, returndatasize)\n    tag_116:\n      pop\n      pop\n      pop\n      pop\n      mload(0x40)\n      returndatasize\n      not(0x1f)\n      0x1f\n      dup3\n      add\n      and\n      dup3\n      add\n      dup1\n      0x40\n      mstore\n      pop\n      dup2\n      add\n      swap1\n      tag_117\n      swap2\n      swap1\n      tag_91\n      jump\t// in\n    tag_117:\n      pop\n        /* \"Loteria/loteria.sol\":797:798  _ */\n      pop\n        /* \"Loteria/loteria.sol\":5475:6053  function GenerarGanador() public Unicamente(msg.sender) {\r... */\n      pop\n      jump\t// out\n        /* \"Loteria/loteria.sol\":2171:2261  function Bote() public view returns(uint) {\r... */\n    tag_35:\n        /* \"Loteria/loteria.sol\":2207:2211  uint */\n      0x00\n        /* \"Loteria/loteria.sol\":2231:2236  token */\n      dup1\n      0x00\n      swap1\n      sload\n      swap1\n      0x0100\n      exp\n      swap1\n      div\n      0xffffffffffffffffffffffffffffffffffffffff\n      and\n        /* \"Loteria/loteria.sol\":2231:2246  token.balanceOf */\n      0xffffffffffffffffffffffffffffffffffffffff\n      and\n      0x70a08231\n        /* \"Loteria/loteria.sol\":2247:2252  owner */\n      0x01\n      0x00\n      swap1\n      sload\n      swap1\n      0x0100\n      exp\n      swap1\n      div\n      0xffffffffffffffffffffffffffffffffffffffff\n      and\n        /* \"Loteria/loteria.sol\":2231:2253  token.balanceOf(owner) */\n      mload(0x40)\n      dup3\n      0xffffffff\n      and\n      0xe0\n      shl\n      dup2\n      mstore\n      0x04\n      add\n      tag_119\n      swap2\n      swap1\n      tag_55\n      jump\t// in\n    tag_119:\n      0x20\n      mload(0x40)\n      dup1\n      dup4\n      sub\n      dup2\n      dup7\n      dup1\n      extcodesize\n      iszero\n      dup1\n      iszero\n      tag_120\n      jumpi\n      0x00\n      dup1\n      revert\n    tag_120:\n      pop\n      gas\n      staticcall\n      iszero\n      dup1\n      iszero\n      tag_122\n      jumpi\n      returndatasize\n      0x00\n      dup1\n      returndatacopy\n      revert(0x00, returndatasize)\n    tag_122:\n      pop\n      pop\n      pop\n      pop\n      mload(0x40)\n      returndatasize\n      not(0x1f)\n      0x1f\n      dup3\n      add\n      and\n      dup3\n      add\n      dup1\n      0x40\n      mstore\n      pop\n      dup2\n      add\n      swap1\n      tag_123\n      swap2\n      swap1\n      tag_124\n      jump\t// in\n    tag_123:\n        /* \"Loteria/loteria.sol\":2224:2253  return token.balanceOf(owner) */\n      swap1\n      pop\n        /* \"Loteria/loteria.sol\":2171:2261  function Bote() public view returns(uint) {\r... */\n      swap1\n      jump\t// out\n        /* \"Loteria/loteria.sol\":5291:5403  function MisBoletos() public view returns(uint[] memory) {\r... */\n    tag_39:\n        /* \"Loteria/loteria.sol\":5333:5346  uint[] memory */\n      0x60\n        /* \"Loteria/loteria.sol\":5366:5383  idPersona_boletos */\n      0x06\n        /* \"Loteria/loteria.sol\":5366:5395  idPersona_boletos[msg.sender] */\n      0x00\n        /* \"Loteria/loteria.sol\":5384:5394  msg.sender */\n      caller\n        /* \"Loteria/loteria.sol\":5366:5395  idPersona_boletos[msg.sender] */\n      0xffffffffffffffffffffffffffffffffffffffff\n      and\n      0xffffffffffffffffffffffffffffffffffffffff\n      and\n      dup2\n      mstore\n      0x20\n      add\n      swap1\n      dup2\n      mstore\n      0x20\n      add\n      0x00\n      keccak256\n        /* \"Loteria/loteria.sol\":5359:5395  return idPersona_boletos[msg.sender] */\n      dup1\n      sload\n      dup1\n      0x20\n      mul\n      0x20\n      add\n      mload(0x40)\n      swap1\n      dup2\n      add\n      0x40\n      mstore\n      dup1\n      swap3\n      swap2\n      swap1\n      dup2\n      dup2\n      mstore\n      0x20\n      add\n      dup3\n      dup1\n      sload\n      dup1\n      iszero\n      tag_126\n      jumpi\n      0x20\n      mul\n      dup3\n      add\n      swap2\n      swap1\n      0x00\n      mstore\n      keccak256(0x00, 0x20)\n      swap1\n    tag_127:\n      dup2\n      sload\n      dup2\n      mstore\n      0x20\n      add\n      swap1\n      0x01\n      add\n      swap1\n      dup1\n      dup4\n      gt\n      tag_127\n      jumpi\n    tag_126:\n      pop\n      pop\n      pop\n      pop\n      pop\n      swap1\n      pop\n        /* \"Loteria/loteria.sol\":5291:5403  function MisBoletos() public view returns(uint[] memory) {\r... */\n      swap1\n      jump\t// out\n        /* \"Loteria/loteria.sol\":6582:6776  function prueba() public pure returns(bool) {\r... */\n    tag_44:\n        /* \"Loteria/loteria.sol\":6620:6624  bool */\n      0x00\n        /* \"Loteria/loteria.sol\":6637:6649  address hola */\n      dup1\n        /* \"Loteria/loteria.sol\":6680:6683  0x0 */\n      0x00\n        /* \"Loteria/loteria.sol\":6664:6684  hola == address(0x0) */\n      0xffffffffffffffffffffffffffffffffffffffff\n      and\n        /* \"Loteria/loteria.sol\":6664:6668  hola */\n      dup2\n        /* \"Loteria/loteria.sol\":6664:6684  hola == address(0x0) */\n      0xffffffffffffffffffffffffffffffffffffffff\n      and\n      eq\n        /* \"Loteria/loteria.sol\":6660:6769  if (hola == address(0x0)) {\r... */\n      iszero\n      tag_129\n      jumpi\n        /* \"Loteria/loteria.sol\":6708:6712  true */\n      0x01\n        /* \"Loteria/loteria.sol\":6701:6712  return true */\n      swap2\n      pop\n      pop\n      jump(tag_128)\n        /* \"Loteria/loteria.sol\":6660:6769  if (hola == address(0x0)) {\r... */\n    tag_129:\n        /* \"Loteria/loteria.sol\":6752:6757  false */\n      0x00\n        /* \"Loteria/loteria.sol\":6745:6757  return false */\n      swap2\n      pop\n      pop\n        /* \"Loteria/loteria.sol\":6582:6776  function prueba() public pure returns(bool) {\r... */\n    tag_128:\n      swap1\n      jump\t// out\n        /* \"Loteria/loteria.sol\":3268:5238  function ComprarBoleto(uint _boletos) public {\r... */\n    tag_50:\n        /* \"Loteria/loteria.sol\":3388:3405  uint precio_total */\n      0x00\n        /* \"Loteria/loteria.sol\":3419:3431  PrecioBoleto */\n      sload(0x03)\n        /* \"Loteria/loteria.sol\":3408:3416  _boletos */\n      dup3\n        /* \"Loteria/loteria.sol\":3408:3431  _boletos * PrecioBoleto */\n      mul\n        /* \"Loteria/loteria.sol\":3388:3431  uint precio_total = _boletos * PrecioBoleto */\n      swap1\n      pop\n        /* \"Loteria/loteria.sol\":3532:3543  MisTokens() */\n      tag_132\n        /* \"Loteria/loteria.sol\":3532:3541  MisTokens */\n      tag_62\n        /* \"Loteria/loteria.sol\":3532:3543  MisTokens() */\n      jump\t// in\n    tag_132:\n        /* \"Loteria/loteria.sol\":3516:3528  precio_total */\n      dup2\n        /* \"Loteria/loteria.sol\":3516:3543  precio_total <= MisTokens() */\n      gt\n      iszero\n        /* \"Loteria/loteria.sol\":3507:3579  require (precio_total <= MisTokens(), \"Cantidad de tokens insuficiente\") */\n      tag_133\n      jumpi\n      mload(0x40)\n      0x08c379a000000000000000000000000000000000000000000000000000000000\n      dup2\n      mstore\n      0x04\n      add\n      tag_134\n      swap1\n      tag_135\n      jump\t// in\n    tag_134:\n      mload(0x40)\n      dup1\n      swap2\n      sub\n      swap1\n      revert\n    tag_133:\n        /* \"Loteria/loteria.sol\":3679:3697  BoletosDisponibles */\n      sload(0x05)\n        /* \"Loteria/loteria.sol\":3667:3675  _boletos */\n      dup3\n        /* \"Loteria/loteria.sol\":3667:3697  _boletos <= BoletosDisponibles */\n      gt\n      iszero\n        /* \"Loteria/loteria.sol\":3658:3738  require (_boletos <= BoletosDisponibles, \"No quedan tantos boletos disponibles\") */\n      tag_136\n      jumpi\n      mload(0x40)\n      0x08c379a000000000000000000000000000000000000000000000000000000000\n      dup2\n      mstore\n      0x04\n      add\n      tag_137\n      swap1\n      tag_138\n      jump\t// in\n    tag_137:\n      mload(0x40)\n      dup1\n      swap2\n      sub\n      swap1\n      revert\n    tag_136:\n        /* \"Loteria/loteria.sol\":3809:3814  token */\n      0x00\n      dup1\n      sload\n      swap1\n      0x0100\n      exp\n      swap1\n      div\n      0xffffffffffffffffffffffffffffffffffffffff\n      and\n        /* \"Loteria/loteria.sol\":3809:3830  token.transferLoteria */\n      0xffffffffffffffffffffffffffffffffffffffff\n      and\n      0x5c79febb\n        /* \"Loteria/loteria.sol\":3831:3841  msg.sender */\n      caller\n        /* \"Loteria/loteria.sol\":3843:3848  owner */\n      0x01\n      0x00\n      swap1\n      sload\n      swap1\n      0x0100\n      exp\n      swap1\n      div\n      0xffffffffffffffffffffffffffffffffffffffff\n      and\n        /* \"Loteria/loteria.sol\":3850:3862  precio_total */\n      dup5\n        /* \"Loteria/loteria.sol\":3809:3863  token.transferLoteria(msg.sender, owner, precio_total) */\n      mload(0x40)\n      dup5\n      0xffffffff\n      and\n      0xe0\n      shl\n      dup2\n      mstore\n      0x04\n      add\n      tag_139\n      swap4\n      swap3\n      swap2\n      swap1\n      tag_86\n      jump\t// in\n    tag_139:\n      0x20\n      mload(0x40)\n      dup1\n      dup4\n      sub\n      dup2\n      0x00\n      dup8\n      dup1\n      extcodesize\n      iszero\n      dup1\n      iszero\n      tag_140\n      jumpi\n      0x00\n      dup1\n      revert\n    tag_140:\n      pop\n      gas\n      call\n      iszero\n      dup1\n      iszero\n      tag_142\n      jumpi\n      returndatasize\n      0x00\n      dup1\n      returndatacopy\n      revert(0x00, returndatasize)\n    tag_142:\n      pop\n      pop\n      pop\n      pop\n      mload(0x40)\n      returndatasize\n      not(0x1f)\n      0x1f\n      dup3\n      add\n      and\n      dup3\n      add\n      dup1\n      0x40\n      mstore\n      pop\n      dup2\n      add\n      swap1\n      tag_143\n      swap2\n      swap1\n      tag_91\n      jump\t// in\n    tag_143:\n      pop\n        /* \"Loteria/loteria.sol\":3974:3984  bool unico */\n      0x00\n        /* \"Loteria/loteria.sol\":4077:4088  uint random */\n      dup1\n        /* \"Loteria/loteria.sol\":4141:4147  uint i */\n      dup1\n        /* \"Loteria/loteria.sol\":4150:4151  0 */\n      0x00\n        /* \"Loteria/loteria.sol\":4141:4151  uint i = 0 */\n      swap1\n      pop\n        /* \"Loteria/loteria.sol\":4136:5221  for (uint i = 0; i < _boletos; i++) {\r... */\n    tag_144:\n        /* \"Loteria/loteria.sol\":4157:4165  _boletos */\n      dup5\n        /* \"Loteria/loteria.sol\":4153:4154  i */\n      dup2\n        /* \"Loteria/loteria.sol\":4153:4165  i < _boletos */\n      lt\n        /* \"Loteria/loteria.sol\":4136:5221  for (uint i = 0; i < _boletos; i++) {\r... */\n      iszero\n      tag_145\n      jumpi\n        /* \"Loteria/loteria.sol\":4187:5139  while (!unico) {\r... */\n    tag_147:\n        /* \"Loteria/loteria.sol\":4195:4200  unico */\n      dup3\n        /* \"Loteria/loteria.sol\":4187:5139  while (!unico) {\r... */\n      tag_148\n      jumpi\n        /* \"Loteria/loteria.sol\":4508:4523  CantidadBoletos */\n      sload(0x04)\n        /* \"Loteria/loteria.sol\":4476:4479  now */\n      timestamp\n        /* \"Loteria/loteria.sol\":4481:4491  msg.sender */\n      caller\n        /* \"Loteria/loteria.sol\":4493:4502  randNonce */\n      sload(0x08)\n        /* \"Loteria/loteria.sol\":4459:4503  abi.encodePacked(now, msg.sender, randNonce) */\n      add(0x20, mload(0x40))\n      tag_149\n      swap4\n      swap3\n      swap2\n      swap1\n      tag_150\n      jump\t// in\n    tag_149:\n      mload(0x40)\n      0x20\n      dup2\n      dup4\n      sub\n      sub\n      dup2\n      mstore\n      swap1\n      0x40\n      mstore\n        /* \"Loteria/loteria.sol\":4449:4504  keccak256(abi.encodePacked(now, msg.sender, randNonce)) */\n      dup1\n      mload\n      swap1\n      0x20\n      add\n      keccak256\n        /* \"Loteria/loteria.sol\":4444:4505  uint(keccak256(abi.encodePacked(now, msg.sender, randNonce))) */\n      0x00\n      shr\n        /* \"Loteria/loteria.sol\":4444:4523  uint(keccak256(abi.encodePacked(now, msg.sender, randNonce))) % CantidadBoletos */\n      dup2\n      tag_151\n      jumpi\n      invalid\n    tag_151:\n      mod\n        /* \"Loteria/loteria.sol\":4435:4523  random = uint(keccak256(abi.encodePacked(now, msg.sender, randNonce))) % CantidadBoletos */\n      swap2\n      pop\n        /* \"Loteria/loteria.sol\":4542:4551  randNonce */\n      0x08\n      0x00\n        /* \"Loteria/loteria.sol\":4542:4554  randNonce ++ */\n      dup2\n      sload\n      dup1\n      swap3\n      swap2\n      swap1\n      0x01\n      add\n      swap2\n      swap1\n      pop\n      sstore\n      pop\n        /* \"Loteria/loteria.sol\":4684:4687  0x0 */\n      0x00\n        /* \"Loteria/loteria.sol\":4654:4688  ADN_boleto[random] == address(0x0) */\n      0xffffffffffffffffffffffffffffffffffffffff\n      and\n        /* \"Loteria/loteria.sol\":4654:4664  ADN_boleto */\n      0x07\n        /* \"Loteria/loteria.sol\":4654:4672  ADN_boleto[random] */\n      0x00\n        /* \"Loteria/loteria.sol\":4665:4671  random */\n      dup5\n        /* \"Loteria/loteria.sol\":4654:4672  ADN_boleto[random] */\n      dup2\n      mstore\n      0x20\n      add\n      swap1\n      dup2\n      mstore\n      0x20\n      add\n      0x00\n      keccak256\n      0x00\n      swap1\n      sload\n      swap1\n      0x0100\n      exp\n      swap1\n      div\n      0xffffffffffffffffffffffffffffffffffffffff\n      and\n        /* \"Loteria/loteria.sol\":4654:4688  ADN_boleto[random] == address(0x0) */\n      0xffffffffffffffffffffffffffffffffffffffff\n      and\n      eq\n        /* \"Loteria/loteria.sol\":4650:5124  if (ADN_boleto[random] == address(0x0)) {\r... */\n      iszero\n      tag_152\n      jumpi\n        /* \"Loteria/loteria.sol\":4769:4786  idPersona_boletos */\n      0x06\n        /* \"Loteria/loteria.sol\":4769:4798  idPersona_boletos[msg.sender] */\n      0x00\n        /* \"Loteria/loteria.sol\":4787:4797  msg.sender */\n      caller\n        /* \"Loteria/loteria.sol\":4769:4798  idPersona_boletos[msg.sender] */\n      0xffffffffffffffffffffffffffffffffffffffff\n      and\n      0xffffffffffffffffffffffffffffffffffffffff\n      and\n      dup2\n      mstore\n      0x20\n      add\n      swap1\n      dup2\n      mstore\n      0x20\n      add\n      0x00\n      keccak256\n        /* \"Loteria/loteria.sol\":4804:4810  random */\n      dup3\n        /* \"Loteria/loteria.sol\":4769:4811  idPersona_boletos[msg.sender].push(random) */\n      swap1\n      dup1\n      0x01\n      dup2\n      sload\n      add\n      dup1\n      dup3\n      sstore\n      dup1\n      swap2\n      pop\n      pop\n      0x01\n      swap1\n      sub\n      swap1\n      0x00\n      mstore\n      keccak256(0x00, 0x20)\n      add\n      0x00\n      swap1\n      swap2\n      swap1\n      swap2\n      swap1\n      swap2\n      pop\n      sstore\n        /* \"Loteria/loteria.sol\":4926:4943  boletos_comprados */\n      0x09\n        /* \"Loteria/loteria.sol\":4949:4955  random */\n      dup3\n        /* \"Loteria/loteria.sol\":4926:4956  boletos_comprados.push(random) */\n      swap1\n      dup1\n      0x01\n      dup2\n      sload\n      add\n      dup1\n      dup3\n      sstore\n      dup1\n      swap2\n      pop\n      pop\n      0x01\n      swap1\n      sub\n      swap1\n      0x00\n      mstore\n      keccak256(0x00, 0x20)\n      add\n      0x00\n      swap1\n      swap2\n      swap1\n      swap2\n      swap1\n      swap2\n      pop\n      sstore\n        /* \"Loteria/loteria.sol\":5057:5067  msg.sender */\n      caller\n        /* \"Loteria/loteria.sol\":5036:5046  ADN_boleto */\n      0x07\n        /* \"Loteria/loteria.sol\":5036:5054  ADN_boleto[random] */\n      0x00\n        /* \"Loteria/loteria.sol\":5047:5053  random */\n      dup5\n        /* \"Loteria/loteria.sol\":5036:5054  ADN_boleto[random] */\n      dup2\n      mstore\n      0x20\n      add\n      swap1\n      dup2\n      mstore\n      0x20\n      add\n      0x00\n      keccak256\n      0x00\n        /* \"Loteria/loteria.sol\":5036:5067  ADN_boleto[random] = msg.sender */\n      0x0100\n      exp\n      dup2\n      sload\n      dup2\n      0xffffffffffffffffffffffffffffffffffffffff\n      mul\n      not\n      and\n      swap1\n      dup4\n      0xffffffffffffffffffffffffffffffffffffffff\n      and\n      mul\n      or\n      swap1\n      sstore\n      pop\n        /* \"Loteria/loteria.sol\":5100:5104  true */\n      0x01\n        /* \"Loteria/loteria.sol\":5092:5104  unico = true */\n      swap3\n      pop\n        /* \"Loteria/loteria.sol\":4650:5124  if (ADN_boleto[random] == address(0x0)) {\r... */\n    tag_152:\n        /* \"Loteria/loteria.sol\":4187:5139  while (!unico) {\r... */\n      jump(tag_147)\n    tag_148:\n        /* \"Loteria/loteria.sol\":5161:5166  false */\n      0x00\n        /* \"Loteria/loteria.sol\":5153:5166  unico = false */\n      swap3\n      pop\n        /* \"Loteria/loteria.sol\":5186:5209  boleto_comprado(random) */\n      0xa69929cb3af1145490f7129170489946bf07bc6cd7474fc4172efc5ec3f060e3\n        /* \"Loteria/loteria.sol\":5202:5208  random */\n      dup3\n        /* \"Loteria/loteria.sol\":5186:5209  boleto_comprado(random) */\n      mload(0x40)\n      tag_155\n      swap2\n      swap1\n      tag_29\n      jump\t// in\n    tag_155:\n      mload(0x40)\n      dup1\n      swap2\n      sub\n      swap1\n      log1\n        /* \"Loteria/loteria.sol\":4167:4170  i++ */\n      dup1\n      dup1\n      0x01\n      add\n      swap2\n      pop\n      pop\n        /* \"Loteria/loteria.sol\":4136:5221  for (uint i = 0; i < _boletos; i++) {\r... */\n      jump(tag_144)\n    tag_145:\n      pop\n        /* \"Loteria/loteria.sol\":3268:5238  function ComprarBoleto(uint _boletos) public {\r... */\n      pop\n      pop\n      pop\n      pop\n      jump\t// out\n        /* \"Loteria/loteria.sol\":242:262  address public owner */\n    tag_53:\n      0x01\n      0x00\n      swap1\n      sload\n      swap1\n      0x0100\n      exp\n      swap1\n      div\n      0xffffffffffffffffffffffffffffffffffffffff\n      and\n      dup2\n      jump\t// out\n        /* \"Loteria/loteria.sol\":269:292  address public contrato */\n    tag_58:\n      0x02\n      0x00\n      swap1\n      sload\n      swap1\n      0x0100\n      exp\n      swap1\n      div\n      0xffffffffffffffffffffffffffffffffffffffff\n      and\n      dup2\n      jump\t// out\n        /* \"Loteria/loteria.sol\":2299:2400  function MisTokens() public view returns (uint) {\r... */\n    tag_62:\n        /* \"Loteria/loteria.sol\":2341:2345  uint */\n      0x00\n        /* \"Loteria/loteria.sol\":2365:2370  token */\n      dup1\n      0x00\n      swap1\n      sload\n      swap1\n      0x0100\n      exp\n      swap1\n      div\n      0xffffffffffffffffffffffffffffffffffffffff\n      and\n        /* \"Loteria/loteria.sol\":2365:2380  token.balanceOf */\n      0xffffffffffffffffffffffffffffffffffffffff\n      and\n      0x70a08231\n        /* \"Loteria/loteria.sol\":2381:2391  msg.sender */\n      caller\n        /* \"Loteria/loteria.sol\":2365:2392  token.balanceOf(msg.sender) */\n      mload(0x40)\n      dup3\n      0xffffffff\n      and\n      0xe0\n      shl\n      dup2\n      mstore\n      0x04\n      add\n      tag_157\n      swap2\n      swap1\n      tag_158\n      jump\t// in\n    tag_157:\n      0x20\n      mload(0x40)\n      dup1\n      dup4\n      sub\n      dup2\n      dup7\n      dup1\n      extcodesize\n      iszero\n      dup1\n      iszero\n      tag_159\n      jumpi\n      0x00\n      dup1\n      revert\n    tag_159:\n      pop\n      gas\n      staticcall\n      iszero\n      dup1\n      iszero\n      tag_161\n      jumpi\n      returndatasize\n      0x00\n      dup1\n      returndatacopy\n      revert(0x00, returndatasize)\n    tag_161:\n      pop\n      pop\n      pop\n      pop\n      mload(0x40)\n      returndatasize\n      not(0x1f)\n      0x1f\n      dup3\n      add\n      and\n      dup3\n      add\n      dup1\n      0x40\n      mstore\n      pop\n      dup2\n      add\n      swap1\n      tag_162\n      swap2\n      swap1\n      tag_124\n      jump\t// in\n    tag_162:\n        /* \"Loteria/loteria.sol\":2358:2392  return token.balanceOf(msg.sender) */\n      swap1\n      pop\n        /* \"Loteria/loteria.sol\":2299:2400  function MisTokens() public view returns (uint) {\r... */\n      swap1\n      jump\t// out\n        /* \"Loteria/loteria.sol\":1191:1945  function CompraTokens(uint _numTokens) public payable {\r... */\n    tag_66:\n        /* \"Loteria/loteria.sol\":1303:1313  uint coste */\n      0x00\n        /* \"Loteria/loteria.sol\":1316:1340  PrecioTokens(_numTokens) */\n      tag_164\n        /* \"Loteria/loteria.sol\":1329:1339  _numTokens */\n      dup3\n        /* \"Loteria/loteria.sol\":1316:1328  PrecioTokens */\n      tag_93\n        /* \"Loteria/loteria.sol\":1316:1340  PrecioTokens(_numTokens) */\n      jump\t// in\n    tag_164:\n        /* \"Loteria/loteria.sol\":1303:1340  uint coste = PrecioTokens(_numTokens) */\n      swap1\n      pop\n        /* \"Loteria/loteria.sol\":1425:1430  coste */\n      dup1\n        /* \"Loteria/loteria.sol\":1412:1421  msg.value */\n      callvalue\n        /* \"Loteria/loteria.sol\":1412:1430  msg.value >= coste */\n      lt\n      iszero\n        /* \"Loteria/loteria.sol\":1403:1465  require (msg.value >= coste, \"Cantidad de ether insuficiente\") */\n      tag_165\n      jumpi\n      mload(0x40)\n      0x08c379a000000000000000000000000000000000000000000000000000000000\n      dup2\n      mstore\n      0x04\n      add\n      tag_166\n      swap1\n      tag_167\n      jump\t// in\n    tag_166:\n      mload(0x40)\n      dup1\n      swap2\n      sub\n      swap1\n      revert\n    tag_165:\n        /* \"Loteria/loteria.sol\":1566:1571  token */\n      0x00\n      dup1\n      sload\n      swap1\n      0x0100\n      exp\n      swap1\n      div\n      0xffffffffffffffffffffffffffffffffffffffff\n      and\n        /* \"Loteria/loteria.sol\":1566:1581  token.balanceOf */\n      0xffffffffffffffffffffffffffffffffffffffff\n      and\n      0x70a08231\n        /* \"Loteria/loteria.sol\":1582:1590  contrato */\n      0x02\n      0x00\n      swap1\n      sload\n      swap1\n      0x0100\n      exp\n      swap1\n      div\n      0xffffffffffffffffffffffffffffffffffffffff\n      and\n        /* \"Loteria/loteria.sol\":1566:1591  token.balanceOf(contrato) */\n      mload(0x40)\n      dup3\n      0xffffffff\n      and\n      0xe0\n      shl\n      dup2\n      mstore\n      0x04\n      add\n      tag_168\n      swap2\n      swap1\n      tag_55\n      jump\t// in\n    tag_168:\n      0x20\n      mload(0x40)\n      dup1\n      dup4\n      sub\n      dup2\n      dup7\n      dup1\n      extcodesize\n      iszero\n      dup1\n      iszero\n      tag_169\n      jumpi\n      0x00\n      dup1\n      revert\n    tag_169:\n      pop\n      gas\n      staticcall\n      iszero\n      dup1\n      iszero\n      tag_171\n      jumpi\n      returndatasize\n      0x00\n      dup1\n      returndatacopy\n      revert(0x00, returndatasize)\n    tag_171:\n      pop\n      pop\n      pop\n      pop\n      mload(0x40)\n      returndatasize\n      not(0x1f)\n      0x1f\n      dup3\n      add\n      and\n      dup3\n      add\n      dup1\n      0x40\n      mstore\n      pop\n      dup2\n      add\n      swap1\n      tag_172\n      swap2\n      swap1\n      tag_124\n      jump\t// in\n    tag_172:\n        /* \"Loteria/loteria.sol\":1552:1562  _numTokens */\n      dup3\n        /* \"Loteria/loteria.sol\":1552:1591  _numTokens <= token.balanceOf(contrato) */\n      gt\n      iszero\n        /* \"Loteria/loteria.sol\":1543:1628  require (_numTokens <= token.balanceOf(contrato), \"Cantidad de tokens insuficientes\") */\n      tag_173\n      jumpi\n      mload(0x40)\n      0x08c379a000000000000000000000000000000000000000000000000000000000\n      dup2\n      mstore\n      0x04\n      add\n      tag_174\n      swap1\n      tag_175\n      jump\t// in\n    tag_174:\n      mload(0x40)\n      dup1\n      swap2\n      sub\n      swap1\n      revert\n    tag_173:\n        /* \"Loteria/loteria.sol\":1714:1724  msg.sender */\n      caller\n        /* \"Loteria/loteria.sol\":1714:1733  msg.sender.transfer */\n      0xffffffffffffffffffffffffffffffffffffffff\n      and\n        /* \"Loteria/loteria.sol\":1714:1752  msg.sender.transfer(msg.value - coste) */\n      0x08fc\n        /* \"Loteria/loteria.sol\":1746:1751  coste */\n      dup3\n        /* \"Loteria/loteria.sol\":1734:1743  msg.value */\n      callvalue\n        /* \"Loteria/loteria.sol\":1734:1751  msg.value - coste */\n      sub\n        /* \"Loteria/loteria.sol\":1714:1752  msg.sender.transfer(msg.value - coste) */\n      swap1\n      dup2\n      iszero\n      mul\n      swap1\n      mload(0x40)\n      0x00\n      mload(0x40)\n      dup1\n      dup4\n      sub\n      dup2\n      dup6\n      dup9\n      dup9\n      call\n      swap4\n      pop\n      pop\n      pop\n      pop\n      iszero\n      dup1\n      iszero\n      tag_177\n      jumpi\n      returndatasize\n      0x00\n      dup1\n      returndatacopy\n      revert(0x00, returndatasize)\n    tag_177:\n      pop\n        /* \"Loteria/loteria.sol\":1813:1818  token */\n      0x00\n      dup1\n      sload\n      swap1\n      0x0100\n      exp\n      swap1\n      div\n      0xffffffffffffffffffffffffffffffffffffffff\n      and\n        /* \"Loteria/loteria.sol\":1813:1827  token.transfer */\n      0xffffffffffffffffffffffffffffffffffffffff\n      and\n      0xa9059cbb\n        /* \"Loteria/loteria.sol\":1828:1838  msg.sender */\n      caller\n        /* \"Loteria/loteria.sol\":1840:1850  _numTokens */\n      dup5\n        /* \"Loteria/loteria.sol\":1813:1851  token.transfer(msg.sender, _numTokens) */\n      mload(0x40)\n      dup4\n      0xffffffff\n      and\n      0xe0\n      shl\n      dup2\n      mstore\n      0x04\n      add\n      tag_178\n      swap3\n      swap2\n      swap1\n      tag_179\n      jump\t// in\n    tag_178:\n      0x20\n      mload(0x40)\n      dup1\n      dup4\n      sub\n      dup2\n      0x00\n      dup8\n      dup1\n      extcodesize\n      iszero\n      dup1\n      iszero\n      tag_180\n      jumpi\n      0x00\n      dup1\n      revert\n    tag_180:\n      pop\n      gas\n      call\n      iszero\n      dup1\n      iszero\n      tag_182\n      jumpi\n      returndatasize\n      0x00\n      dup1\n      returndatacopy\n      revert(0x00, returndatasize)\n    tag_182:\n      pop\n      pop\n      pop\n      pop\n      mload(0x40)\n      returndatasize\n      not(0x1f)\n      0x1f\n      dup3\n      add\n      and\n      dup3\n      add\n      dup1\n      0x40\n      mstore\n      pop\n      dup2\n      add\n      swap1\n      tag_183\n      swap2\n      swap1\n      tag_91\n      jump\t// in\n    tag_183:\n      pop\n        /* \"Loteria/loteria.sol\":1900:1937  ComprarTokens(_numTokens, msg.sender) */\n      0x1912293d843fe20a997ecedfe6ab8b44b26fc0ed0d7d2e152158ffd021c9ace3\n        /* \"Loteria/loteria.sol\":1914:1924  _numTokens */\n      dup3\n        /* \"Loteria/loteria.sol\":1926:1936  msg.sender */\n      caller\n        /* \"Loteria/loteria.sol\":1900:1937  ComprarTokens(_numTokens, msg.sender) */\n      mload(0x40)\n      tag_184\n      swap3\n      swap2\n      swap1\n      tag_97\n      jump\t// in\n    tag_184:\n      mload(0x40)\n      dup1\n      swap2\n      sub\n      swap1\n      log1\n        /* \"Loteria/loteria.sol\":1191:1945  function CompraTokens(uint _numTokens) public payable {\r... */\n      pop\n      pop\n      jump\t// out\n        /* \"Loteria/loteria.sol\":1996:2107  function TokensDisponibles() public view returns(uint) {\r... */\n    tag_69:\n        /* \"Loteria/loteria.sol\":2045:2049  uint */\n      0x00\n        /* \"Loteria/loteria.sol\":2069:2074  token */\n      dup1\n      0x00\n      swap1\n      sload\n      swap1\n      0x0100\n      exp\n      swap1\n      div\n      0xffffffffffffffffffffffffffffffffffffffff\n      and\n        /* \"Loteria/loteria.sol\":2069:2084  token.balanceOf */\n      0xffffffffffffffffffffffffffffffffffffffff\n      and\n      0x70a08231\n        /* \"Loteria/loteria.sol\":2093:2097  this */\n      address\n        /* \"Loteria/loteria.sol\":2069:2099  token.balanceOf(address(this)) */\n      mload(0x40)\n      dup3\n      0xffffffff\n      and\n      0xe0\n      shl\n      dup2\n      mstore\n      0x04\n      add\n      tag_186\n      swap2\n      swap1\n      tag_55\n      jump\t// in\n    tag_186:\n      0x20\n      mload(0x40)\n      dup1\n      dup4\n      sub\n      dup2\n      dup7\n      dup1\n      extcodesize\n      iszero\n      dup1\n      iszero\n      tag_187\n      jumpi\n      0x00\n      dup1\n      revert\n    tag_187:\n      pop\n      gas\n      staticcall\n      iszero\n      dup1\n      iszero\n      tag_189\n      jumpi\n      returndatasize\n      0x00\n      dup1\n      returndatacopy\n      revert(0x00, returndatasize)\n    tag_189:\n      pop\n      pop\n      pop\n      pop\n      mload(0x40)\n      returndatasize\n      not(0x1f)\n      0x1f\n      dup3\n      add\n      and\n      dup3\n      add\n      dup1\n      0x40\n      mstore\n      pop\n      dup2\n      add\n      swap1\n      tag_190\n      swap2\n      swap1\n      tag_124\n      jump\t// in\n    tag_190:\n        /* \"Loteria/loteria.sol\":2062:2099  return token.balanceOf(address(this)) */\n      swap1\n      pop\n        /* \"Loteria/loteria.sol\":1996:2107  function TokensDisponibles() public view returns(uint) {\r... */\n      swap1\n      jump\t// out\n        /* \"Loteria/loteria.sol\":884:999  function PrecioTokens(uint _numTokens) internal pure returns(uint) {\r... */\n    tag_93:\n        /* \"Loteria/loteria.sol\":945:949  uint */\n      0x00\n        /* \"Loteria/loteria.sol\":983:990  1 ether */\n      0x0de0b6b3a7640000\n        /* \"Loteria/loteria.sol\":969:979  _numTokens */\n      dup3\n        /* \"Loteria/loteria.sol\":969:991  _numTokens * (1 ether) */\n      mul\n        /* \"Loteria/loteria.sol\":962:991  return _numTokens * (1 ether) */\n      swap1\n      pop\n        /* \"Loteria/loteria.sol\":884:999  function PrecioTokens(uint _numTokens) internal pure returns(uint) {\r... */\n      swap2\n      swap1\n      pop\n      jump\t// out\n        /* \"--CODEGEN--\":5:133   */\n    tag_193:\n      0x00\n        /* \"--CODEGEN--\":86:92   */\n      dup2\n        /* \"--CODEGEN--\":80:93   */\n      mload\n        /* \"--CODEGEN--\":71:93   */\n      swap1\n      pop\n        /* \"--CODEGEN--\":98:128   */\n      tag_195\n        /* \"--CODEGEN--\":122:127   */\n      dup2\n        /* \"--CODEGEN--\":98:128   */\n      tag_196\n      jump\t// in\n    tag_195:\n        /* \"--CODEGEN--\":65:133   */\n      swap3\n      swap2\n      pop\n      pop\n      jump\t// out\n        /* \"--CODEGEN--\":140:270   */\n    tag_197:\n      0x00\n        /* \"--CODEGEN--\":220:226   */\n      dup2\n        /* \"--CODEGEN--\":207:227   */\n      calldataload\n        /* \"--CODEGEN--\":198:227   */\n      swap1\n      pop\n        /* \"--CODEGEN--\":232:265   */\n      tag_199\n        /* \"--CODEGEN--\":259:264   */\n      dup2\n        /* \"--CODEGEN--\":232:265   */\n      tag_200\n      jump\t// in\n    tag_199:\n        /* \"--CODEGEN--\":192:270   */\n      swap3\n      swap2\n      pop\n      pop\n      jump\t// out\n        /* \"--CODEGEN--\":277:411   */\n    tag_201:\n      0x00\n        /* \"--CODEGEN--\":361:367   */\n      dup2\n        /* \"--CODEGEN--\":355:368   */\n      mload\n        /* \"--CODEGEN--\":346:368   */\n      swap1\n      pop\n        /* \"--CODEGEN--\":373:406   */\n      tag_203\n        /* \"--CODEGEN--\":400:405   */\n      dup2\n        /* \"--CODEGEN--\":373:406   */\n      tag_200\n      jump\t// in\n    tag_203:\n        /* \"--CODEGEN--\":340:411   */\n      swap3\n      swap2\n      pop\n      pop\n      jump\t// out\n        /* \"--CODEGEN--\":418:675   */\n    tag_91:\n      0x00\n        /* \"--CODEGEN--\":530:532   */\n      0x20\n        /* \"--CODEGEN--\":518:527   */\n      dup3\n        /* \"--CODEGEN--\":509:516   */\n      dup5\n        /* \"--CODEGEN--\":505:528   */\n      sub\n        /* \"--CODEGEN--\":501:533   */\n      slt\n        /* \"--CODEGEN--\":498:500   */\n      iszero\n      tag_205\n      jumpi\n        /* \"--CODEGEN--\":546:547   */\n      0x00\n        /* \"--CODEGEN--\":543:544   */\n      dup1\n        /* \"--CODEGEN--\":536:548   */\n      revert\n        /* \"--CODEGEN--\":498:500   */\n    tag_205:\n        /* \"--CODEGEN--\":581:582   */\n      0x00\n        /* \"--CODEGEN--\":598:659   */\n      tag_206\n        /* \"--CODEGEN--\":651:658   */\n      dup5\n        /* \"--CODEGEN--\":642:648   */\n      dup3\n        /* \"--CODEGEN--\":631:640   */\n      dup6\n        /* \"--CODEGEN--\":627:649   */\n      add\n        /* \"--CODEGEN--\":598:659   */\n      tag_193\n      jump\t// in\n    tag_206:\n        /* \"--CODEGEN--\":588:659   */\n      swap2\n      pop\n        /* \"--CODEGEN--\":560:665   */\n      pop\n        /* \"--CODEGEN--\":492:675   */\n      swap3\n      swap2\n      pop\n      pop\n      jump\t// out\n        /* \"--CODEGEN--\":682:923   */\n    tag_20:\n      0x00\n        /* \"--CODEGEN--\":786:788   */\n      0x20\n        /* \"--CODEGEN--\":774:783   */\n      dup3\n        /* \"--CODEGEN--\":765:772   */\n      dup5\n        /* \"--CODEGEN--\":761:784   */\n      sub\n        /* \"--CODEGEN--\":757:789   */\n      slt\n        /* \"--CODEGEN--\":754:756   */\n      iszero\n      tag_208\n      jumpi\n        /* \"--CODEGEN--\":802:803   */\n      0x00\n        /* \"--CODEGEN--\":799:800   */\n      dup1\n        /* \"--CODEGEN--\":792:804   */\n      revert\n        /* \"--CODEGEN--\":754:756   */\n    tag_208:\n        /* \"--CODEGEN--\":837:838   */\n      0x00\n        /* \"--CODEGEN--\":854:907   */\n      tag_209\n        /* \"--CODEGEN--\":899:906   */\n      dup5\n        /* \"--CODEGEN--\":890:896   */\n      dup3\n        /* \"--CODEGEN--\":879:888   */\n      dup6\n        /* \"--CODEGEN--\":875:897   */\n      add\n        /* \"--CODEGEN--\":854:907   */\n      tag_197\n      jump\t// in\n    tag_209:\n        /* \"--CODEGEN--\":844:907   */\n      swap2\n      pop\n        /* \"--CODEGEN--\":816:913   */\n      pop\n        /* \"--CODEGEN--\":748:923   */\n      swap3\n      swap2\n      pop\n      pop\n      jump\t// out\n        /* \"--CODEGEN--\":930:1193   */\n    tag_124:\n      0x00\n        /* \"--CODEGEN--\":1045:1047   */\n      0x20\n        /* \"--CODEGEN--\":1033:1042   */\n      dup3\n        /* \"--CODEGEN--\":1024:1031   */\n      dup5\n        /* \"--CODEGEN--\":1020:1043   */\n      sub\n        /* \"--CODEGEN--\":1016:1048   */\n      slt\n        /* \"--CODEGEN--\":1013:1015   */\n      iszero\n      tag_211\n      jumpi\n        /* \"--CODEGEN--\":1061:1062   */\n      0x00\n        /* \"--CODEGEN--\":1058:1059   */\n      dup1\n        /* \"--CODEGEN--\":1051:1063   */\n      revert\n        /* \"--CODEGEN--\":1013:1015   */\n    tag_211:\n        /* \"--CODEGEN--\":1096:1097   */\n      0x00\n        /* \"--CODEGEN--\":1113:1177   */\n      tag_212\n        /* \"--CODEGEN--\":1169:1176   */\n      dup5\n        /* \"--CODEGEN--\":1160:1166   */\n      dup3\n        /* \"--CODEGEN--\":1149:1158   */\n      dup6\n        /* \"--CODEGEN--\":1145:1167   */\n      add\n        /* \"--CODEGEN--\":1113:1177   */\n      tag_201\n      jump\t// in\n    tag_212:\n        /* \"--CODEGEN--\":1103:1177   */\n      swap2\n      pop\n        /* \"--CODEGEN--\":1075:1183   */\n      pop\n        /* \"--CODEGEN--\":1007:1193   */\n      swap3\n      swap2\n      pop\n      pop\n      jump\t// out\n        /* \"--CODEGEN--\":1201:1374   */\n    tag_213:\n      0x00\n        /* \"--CODEGEN--\":1288:1334   */\n      tag_215\n        /* \"--CODEGEN--\":1330:1333   */\n      dup4\n        /* \"--CODEGEN--\":1322:1328   */\n      dup4\n        /* \"--CODEGEN--\":1288:1334   */\n      tag_216\n      jump\t// in\n    tag_215:\n        /* \"--CODEGEN--\":1363:1367   */\n      0x20\n        /* \"--CODEGEN--\":1358:1361   */\n      dup4\n        /* \"--CODEGEN--\":1354:1368   */\n      add\n        /* \"--CODEGEN--\":1340:1368   */\n      swap1\n      pop\n        /* \"--CODEGEN--\":1281:1374   */\n      swap3\n      swap2\n      pop\n      pop\n      jump\t// out\n        /* \"--CODEGEN--\":1382:1524   */\n    tag_217:\n        /* \"--CODEGEN--\":1473:1518   */\n      tag_219\n        /* \"--CODEGEN--\":1512:1517   */\n      dup2\n        /* \"--CODEGEN--\":1473:1518   */\n      tag_220\n      jump\t// in\n    tag_219:\n        /* \"--CODEGEN--\":1468:1471   */\n      dup3\n        /* \"--CODEGEN--\":1461:1519   */\n      mstore\n        /* \"--CODEGEN--\":1455:1524   */\n      pop\n      pop\n      jump\t// out\n        /* \"--CODEGEN--\":1531:1715   */\n    tag_221:\n        /* \"--CODEGEN--\":1648:1709   */\n      tag_223\n        /* \"--CODEGEN--\":1676:1708   */\n      tag_224\n        /* \"--CODEGEN--\":1702:1707   */\n      dup3\n        /* \"--CODEGEN--\":1676:1708   */\n      tag_225\n      jump\t// in\n    tag_224:\n        /* \"--CODEGEN--\":1648:1709   */\n      tag_226\n      jump\t// in\n    tag_223:\n        /* \"--CODEGEN--\":1643:1646   */\n      dup3\n        /* \"--CODEGEN--\":1636:1710   */\n      mstore\n        /* \"--CODEGEN--\":1630:1715   */\n      pop\n      pop\n      jump\t// out\n        /* \"--CODEGEN--\":1722:1835   */\n    tag_227:\n        /* \"--CODEGEN--\":1805:1829   */\n      tag_229\n        /* \"--CODEGEN--\":1823:1828   */\n      dup2\n        /* \"--CODEGEN--\":1805:1829   */\n      tag_230\n      jump\t// in\n    tag_229:\n        /* \"--CODEGEN--\":1800:1803   */\n      dup3\n        /* \"--CODEGEN--\":1793:1830   */\n      mstore\n        /* \"--CODEGEN--\":1787:1835   */\n      pop\n      pop\n      jump\t// out\n        /* \"--CODEGEN--\":1873:2563   */\n    tag_231:\n      0x00\n        /* \"--CODEGEN--\":2018:2072   */\n      tag_233\n        /* \"--CODEGEN--\":2066:2071   */\n      dup3\n        /* \"--CODEGEN--\":2018:2072   */\n      tag_234\n      jump\t// in\n    tag_233:\n        /* \"--CODEGEN--\":2085:2171   */\n      tag_235\n        /* \"--CODEGEN--\":2164:2170   */\n      dup2\n        /* \"--CODEGEN--\":2159:2162   */\n      dup6\n        /* \"--CODEGEN--\":2085:2171   */\n      tag_236\n      jump\t// in\n    tag_235:\n        /* \"--CODEGEN--\":2078:2171   */\n      swap4\n      pop\n        /* \"--CODEGEN--\":2192:2248   */\n      tag_237\n        /* \"--CODEGEN--\":2242:2247   */\n      dup4\n        /* \"--CODEGEN--\":2192:2248   */\n      tag_238\n      jump\t// in\n    tag_237:\n        /* \"--CODEGEN--\":2268:2275   */\n      dup1\n        /* \"--CODEGEN--\":2296:2297   */\n      0x00\n        /* \"--CODEGEN--\":2281:2541   */\n    tag_239:\n        /* \"--CODEGEN--\":2306:2312   */\n      dup4\n        /* \"--CODEGEN--\":2303:2304   */\n      dup2\n        /* \"--CODEGEN--\":2300:2313   */\n      lt\n        /* \"--CODEGEN--\":2281:2541   */\n      iszero\n      tag_241\n      jumpi\n        /* \"--CODEGEN--\":2373:2379   */\n      dup2\n        /* \"--CODEGEN--\":2367:2380   */\n      mload\n        /* \"--CODEGEN--\":2394:2457   */\n      tag_242\n        /* \"--CODEGEN--\":2453:2456   */\n      dup9\n        /* \"--CODEGEN--\":2438:2451   */\n      dup3\n        /* \"--CODEGEN--\":2394:2457   */\n      tag_213\n      jump\t// in\n    tag_242:\n        /* \"--CODEGEN--\":2387:2457   */\n      swap8\n      pop\n        /* \"--CODEGEN--\":2474:2534   */\n      tag_243\n        /* \"--CODEGEN--\":2527:2533   */\n      dup4\n        /* \"--CODEGEN--\":2474:2534   */\n      tag_244\n      jump\t// in\n    tag_243:\n        /* \"--CODEGEN--\":2464:2534   */\n      swap3\n      pop\n        /* \"--CODEGEN--\":2338:2541   */\n      pop\n        /* \"--CODEGEN--\":2328:2329   */\n      0x01\n        /* \"--CODEGEN--\":2325:2326   */\n      dup2\n        /* \"--CODEGEN--\":2321:2330   */\n      add\n        /* \"--CODEGEN--\":2316:2330   */\n      swap1\n      pop\n        /* \"--CODEGEN--\":2281:2541   */\n      jump(tag_239)\n    tag_241:\n        /* \"--CODEGEN--\":2285:2299   */\n      pop\n        /* \"--CODEGEN--\":2554:2557   */\n      dup6\n        /* \"--CODEGEN--\":2547:2557   */\n      swap4\n      pop\n        /* \"--CODEGEN--\":1997:2563   */\n      pop\n      pop\n      pop\n      swap3\n      swap2\n      pop\n      pop\n      jump\t// out\n        /* \"--CODEGEN--\":2571:2675   */\n    tag_245:\n        /* \"--CODEGEN--\":2648:2669   */\n      tag_247\n        /* \"--CODEGEN--\":2663:2668   */\n      dup2\n        /* \"--CODEGEN--\":2648:2669   */\n      tag_248\n      jump\t// in\n    tag_247:\n        /* \"--CODEGEN--\":2643:2646   */\n      dup3\n        /* \"--CODEGEN--\":2636:2670   */\n      mstore\n        /* \"--CODEGEN--\":2630:2675   */\n      pop\n      pop\n      jump\t// out\n        /* \"--CODEGEN--\":2683:3056   */\n    tag_249:\n      0x00\n        /* \"--CODEGEN--\":2843:2910   */\n      tag_251\n        /* \"--CODEGEN--\":2907:2909   */\n      0x24\n        /* \"--CODEGEN--\":2902:2905   */\n      dup4\n        /* \"--CODEGEN--\":2843:2910   */\n      tag_252\n      jump\t// in\n    tag_251:\n        /* \"--CODEGEN--\":2836:2910   */\n      swap2\n      pop\n        /* \"--CODEGEN--\":2943:2977   */\n      0x4e6f2071756564616e2074616e746f7320626f6c65746f7320646973706f6e69\n        /* \"--CODEGEN--\":2939:2940   */\n      0x00\n        /* \"--CODEGEN--\":2934:2937   */\n      dup4\n        /* \"--CODEGEN--\":2930:2941   */\n      add\n        /* \"--CODEGEN--\":2923:2978   */\n      mstore\n        /* \"--CODEGEN--\":3012:3018   */\n      0x626c657300000000000000000000000000000000000000000000000000000000\n        /* \"--CODEGEN--\":3007:3009   */\n      0x20\n        /* \"--CODEGEN--\":3002:3005   */\n      dup4\n        /* \"--CODEGEN--\":2998:3010   */\n      add\n        /* \"--CODEGEN--\":2991:3019   */\n      mstore\n        /* \"--CODEGEN--\":3047:3049   */\n      0x40\n        /* \"--CODEGEN--\":3042:3045   */\n      dup3\n        /* \"--CODEGEN--\":3038:3050   */\n      add\n        /* \"--CODEGEN--\":3031:3050   */\n      swap1\n      pop\n        /* \"--CODEGEN--\":2829:3056   */\n      swap2\n      swap1\n      pop\n      jump\t// out\n        /* \"--CODEGEN--\":3065:3385   */\n    tag_253:\n      0x00\n        /* \"--CODEGEN--\":3225:3292   */\n      tag_255\n        /* \"--CODEGEN--\":3289:3291   */\n      0x14\n        /* \"--CODEGEN--\":3284:3287   */\n      dup4\n        /* \"--CODEGEN--\":3225:3292   */\n      tag_252\n      jump\t// in\n    tag_255:\n        /* \"--CODEGEN--\":3218:3292   */\n      swap2\n      pop\n        /* \"--CODEGEN--\":3325:3347   */\n      0x546f6b656e7320696e737566696369656e746573000000000000000000000000\n        /* \"--CODEGEN--\":3321:3322   */\n      0x00\n        /* \"--CODEGEN--\":3316:3319   */\n      dup4\n        /* \"--CODEGEN--\":3312:3323   */\n      add\n        /* \"--CODEGEN--\":3305:3348   */\n      mstore\n        /* \"--CODEGEN--\":3376:3378   */\n      0x20\n        /* \"--CODEGEN--\":3371:3374   */\n      dup3\n        /* \"--CODEGEN--\":3367:3379   */\n      add\n        /* \"--CODEGEN--\":3360:3379   */\n      swap1\n      pop\n        /* \"--CODEGEN--\":3211:3385   */\n      swap2\n      swap1\n      pop\n      jump\t// out\n        /* \"--CODEGEN--\":3394:3725   */\n    tag_256:\n      0x00\n        /* \"--CODEGEN--\":3554:3621   */\n      tag_258\n        /* \"--CODEGEN--\":3618:3620   */\n      0x1f\n        /* \"--CODEGEN--\":3613:3616   */\n      dup4\n        /* \"--CODEGEN--\":3554:3621   */\n      tag_252\n      jump\t// in\n    tag_258:\n        /* \"--CODEGEN--\":3547:3621   */\n      swap2\n      pop\n        /* \"--CODEGEN--\":3654:3687   */\n      0x43616e746964616420646520746f6b656e7320696e737566696369656e746500\n        /* \"--CODEGEN--\":3650:3651   */\n      0x00\n        /* \"--CODEGEN--\":3645:3648   */\n      dup4\n        /* \"--CODEGEN--\":3641:3652   */\n      add\n        /* \"--CODEGEN--\":3634:3688   */\n      mstore\n        /* \"--CODEGEN--\":3716:3718   */\n      0x20\n        /* \"--CODEGEN--\":3711:3714   */\n      dup3\n        /* \"--CODEGEN--\":3707:3719   */\n      add\n        /* \"--CODEGEN--\":3700:3719   */\n      swap1\n      pop\n        /* \"--CODEGEN--\":3540:3725   */\n      swap2\n      swap1\n      pop\n      jump\t// out\n        /* \"--CODEGEN--\":3734:4116   */\n    tag_259:\n      0x00\n        /* \"--CODEGEN--\":3894:3961   */\n      tag_261\n        /* \"--CODEGEN--\":3958:3960   */\n      0x2d\n        /* \"--CODEGEN--\":3953:3956   */\n      dup4\n        /* \"--CODEGEN--\":3894:3961   */\n      tag_252\n      jump\t// in\n    tag_261:\n        /* \"--CODEGEN--\":3887:3961   */\n      swap2\n      pop\n        /* \"--CODEGEN--\":3994:4028   */\n      0x4e6f207469656e6573207065726d69736f73207061726120656a656375746172\n        /* \"--CODEGEN--\":3990:3991   */\n      0x00\n        /* \"--CODEGEN--\":3985:3988   */\n      dup4\n        /* \"--CODEGEN--\":3981:3992   */\n      add\n        /* \"--CODEGEN--\":3974:4029   */\n      mstore\n        /* \"--CODEGEN--\":4063:4078   */\n      0x20657374612066756e63696f6e00000000000000000000000000000000000000\n        /* \"--CODEGEN--\":4058:4060   */\n      0x20\n        /* \"--CODEGEN--\":4053:4056   */\n      dup4\n        /* \"--CODEGEN--\":4049:4061   */\n      add\n        /* \"--CODEGEN--\":4042:4079   */\n      mstore\n        /* \"--CODEGEN--\":4107:4109   */\n      0x40\n        /* \"--CODEGEN--\":4102:4105   */\n      dup3\n        /* \"--CODEGEN--\":4098:4110   */\n      add\n        /* \"--CODEGEN--\":4091:4110   */\n      swap1\n      pop\n        /* \"--CODEGEN--\":3880:4116   */\n      swap2\n      swap1\n      pop\n      jump\t// out\n        /* \"--CODEGEN--\":4125:4455   */\n    tag_262:\n      0x00\n        /* \"--CODEGEN--\":4285:4352   */\n      tag_264\n        /* \"--CODEGEN--\":4349:4351   */\n      0x1e\n        /* \"--CODEGEN--\":4344:4347   */\n      dup4\n        /* \"--CODEGEN--\":4285:4352   */\n      tag_252\n      jump\t// in\n    tag_264:\n        /* \"--CODEGEN--\":4278:4352   */\n      swap2\n      pop\n        /* \"--CODEGEN--\":4385:4417   */\n      0x43616e746964616420646520657468657220696e737566696369656e74650000\n        /* \"--CODEGEN--\":4381:4382   */\n      0x00\n        /* \"--CODEGEN--\":4376:4379   */\n      dup4\n        /* \"--CODEGEN--\":4372:4383   */\n      add\n        /* \"--CODEGEN--\":4365:4418   */\n      mstore\n        /* \"--CODEGEN--\":4446:4448   */\n      0x20\n        /* \"--CODEGEN--\":4441:4444   */\n      dup3\n        /* \"--CODEGEN--\":4437:4449   */\n      add\n        /* \"--CODEGEN--\":4430:4449   */\n      swap1\n      pop\n        /* \"--CODEGEN--\":4271:4455   */\n      swap2\n      swap1\n      pop\n      jump\t// out\n        /* \"--CODEGEN--\":4464:4796   */\n    tag_265:\n      0x00\n        /* \"--CODEGEN--\":4624:4691   */\n      tag_267\n        /* \"--CODEGEN--\":4688:4690   */\n      0x20\n        /* \"--CODEGEN--\":4683:4686   */\n      dup4\n        /* \"--CODEGEN--\":4624:4691   */\n      tag_252\n      jump\t// in\n    tag_267:\n        /* \"--CODEGEN--\":4617:4691   */\n      swap2\n      pop\n        /* \"--CODEGEN--\":4724:4758   */\n      0x43616e746964616420646520746f6b656e7320696e737566696369656e746573\n        /* \"--CODEGEN--\":4720:4721   */\n      0x00\n        /* \"--CODEGEN--\":4715:4718   */\n      dup4\n        /* \"--CODEGEN--\":4711:4722   */\n      add\n        /* \"--CODEGEN--\":4704:4759   */\n      mstore\n        /* \"--CODEGEN--\":4787:4789   */\n      0x20\n        /* \"--CODEGEN--\":4782:4785   */\n      dup3\n        /* \"--CODEGEN--\":4778:4790   */\n      add\n        /* \"--CODEGEN--\":4771:4790   */\n      swap1\n      pop\n        /* \"--CODEGEN--\":4610:4796   */\n      swap2\n      swap1\n      pop\n      jump\t// out\n        /* \"--CODEGEN--\":4805:5270   */\n    tag_268:\n      0x00\n        /* \"--CODEGEN--\":4965:5032   */\n      tag_270\n        /* \"--CODEGEN--\":5029:5031   */\n      0x28\n        /* \"--CODEGEN--\":5024:5027   */\n      dup4\n        /* \"--CODEGEN--\":4965:5032   */\n      tag_252\n      jump\t// in\n    tag_270:\n        /* \"--CODEGEN--\":4958:5032   */\n      swap2\n      pop\n        /* \"--CODEGEN--\":5065:5131   */\n      0x4e6f2073652068612076656e6469646f206e696e67c3ba6e20626f6c65746f20\n        /* \"--CODEGEN--\":5061:5062   */\n      0x00\n        /* \"--CODEGEN--\":5056:5059   */\n      dup4\n        /* \"--CODEGEN--\":5052:5063   */\n      add\n        /* \"--CODEGEN--\":5045:5132   */\n      mstore\n        /* \"--CODEGEN--\":5166:5232   */\n      0x746f646176c3ad61000000000000000000000000000000000000000000000000\n        /* \"--CODEGEN--\":5161:5163   */\n      0x20\n        /* \"--CODEGEN--\":5156:5159   */\n      dup4\n        /* \"--CODEGEN--\":5152:5164   */\n      add\n        /* \"--CODEGEN--\":5145:5233   */\n      mstore\n        /* \"--CODEGEN--\":5261:5263   */\n      0x40\n        /* \"--CODEGEN--\":5256:5259   */\n      dup3\n        /* \"--CODEGEN--\":5252:5264   */\n      add\n        /* \"--CODEGEN--\":5245:5264   */\n      swap1\n      pop\n        /* \"--CODEGEN--\":4951:5270   */\n      swap2\n      swap1\n      pop\n      jump\t// out\n        /* \"--CODEGEN--\":5278:5381   */\n    tag_216:\n        /* \"--CODEGEN--\":5351:5375   */\n      tag_272\n        /* \"--CODEGEN--\":5369:5374   */\n      dup2\n        /* \"--CODEGEN--\":5351:5375   */\n      tag_273\n      jump\t// in\n    tag_272:\n        /* \"--CODEGEN--\":5346:5349   */\n      dup3\n        /* \"--CODEGEN--\":5339:5376   */\n      mstore\n        /* \"--CODEGEN--\":5333:5381   */\n      pop\n      pop\n      jump\t// out\n        /* \"--CODEGEN--\":5388:5501   */\n    tag_274:\n        /* \"--CODEGEN--\":5471:5495   */\n      tag_276\n        /* \"--CODEGEN--\":5489:5494   */\n      dup2\n        /* \"--CODEGEN--\":5471:5495   */\n      tag_273\n      jump\t// in\n    tag_276:\n        /* \"--CODEGEN--\":5466:5469   */\n      dup3\n        /* \"--CODEGEN--\":5459:5496   */\n      mstore\n        /* \"--CODEGEN--\":5453:5501   */\n      pop\n      pop\n      jump\t// out\n        /* \"--CODEGEN--\":5508:5660   */\n    tag_277:\n        /* \"--CODEGEN--\":5609:5654   */\n      tag_279\n        /* \"--CODEGEN--\":5629:5653   */\n      tag_280\n        /* \"--CODEGEN--\":5647:5652   */\n      dup3\n        /* \"--CODEGEN--\":5629:5653   */\n      tag_273\n      jump\t// in\n    tag_280:\n        /* \"--CODEGEN--\":5609:5654   */\n      tag_281\n      jump\t// in\n    tag_279:\n        /* \"--CODEGEN--\":5604:5607   */\n      dup3\n        /* \"--CODEGEN--\":5597:5655   */\n      mstore\n        /* \"--CODEGEN--\":5591:5660   */\n      pop\n      pop\n      jump\t// out\n        /* \"--CODEGEN--\":5667:5920   */\n    tag_106:\n      0x00\n        /* \"--CODEGEN--\":5795:5870   */\n      tag_283\n        /* \"--CODEGEN--\":5866:5869   */\n      dup3\n        /* \"--CODEGEN--\":5857:5863   */\n      dup5\n        /* \"--CODEGEN--\":5795:5870   */\n      tag_277\n      jump\t// in\n    tag_283:\n        /* \"--CODEGEN--\":5892:5894   */\n      0x20\n        /* \"--CODEGEN--\":5887:5890   */\n      dup3\n        /* \"--CODEGEN--\":5883:5895   */\n      add\n        /* \"--CODEGEN--\":5876:5895   */\n      swap2\n      pop\n        /* \"--CODEGEN--\":5912:5915   */\n      dup2\n        /* \"--CODEGEN--\":5905:5915   */\n      swap1\n      pop\n        /* \"--CODEGEN--\":5783:5920   */\n      swap3\n      swap2\n      pop\n      pop\n      jump\t// out\n        /* \"--CODEGEN--\":5927:6490   */\n    tag_150:\n      0x00\n        /* \"--CODEGEN--\":6127:6202   */\n      tag_285\n        /* \"--CODEGEN--\":6198:6201   */\n      dup3\n        /* \"--CODEGEN--\":6189:6195   */\n      dup7\n        /* \"--CODEGEN--\":6127:6202   */\n      tag_277\n      jump\t// in\n    tag_285:\n        /* \"--CODEGEN--\":6224:6226   */\n      0x20\n        /* \"--CODEGEN--\":6219:6222   */\n      dup3\n        /* \"--CODEGEN--\":6215:6227   */\n      add\n        /* \"--CODEGEN--\":6208:6227   */\n      swap2\n      pop\n        /* \"--CODEGEN--\":6238:6329   */\n      tag_286\n        /* \"--CODEGEN--\":6325:6328   */\n      dup3\n        /* \"--CODEGEN--\":6316:6322   */\n      dup6\n        /* \"--CODEGEN--\":6238:6329   */\n      tag_221\n      jump\t// in\n    tag_286:\n        /* \"--CODEGEN--\":6351:6353   */\n      0x14\n        /* \"--CODEGEN--\":6346:6349   */\n      dup3\n        /* \"--CODEGEN--\":6342:6354   */\n      add\n        /* \"--CODEGEN--\":6335:6354   */\n      swap2\n      pop\n        /* \"--CODEGEN--\":6365:6440   */\n      tag_287\n        /* \"--CODEGEN--\":6436:6439   */\n      dup3\n        /* \"--CODEGEN--\":6427:6433   */\n      dup5\n        /* \"--CODEGEN--\":6365:6440   */\n      tag_277\n      jump\t// in\n    tag_287:\n        /* \"--CODEGEN--\":6462:6464   */\n      0x20\n        /* \"--CODEGEN--\":6457:6460   */\n      dup3\n        /* \"--CODEGEN--\":6453:6465   */\n      add\n        /* \"--CODEGEN--\":6446:6465   */\n      swap2\n      pop\n        /* \"--CODEGEN--\":6482:6485   */\n      dup2\n        /* \"--CODEGEN--\":6475:6485   */\n      swap1\n      pop\n        /* \"--CODEGEN--\":6115:6490   */\n      swap5\n      swap4\n      pop\n      pop\n      pop\n      pop\n      jump\t// out\n        /* \"--CODEGEN--\":6497:6719   */\n    tag_55:\n      0x00\n        /* \"--CODEGEN--\":6624:6626   */\n      0x20\n        /* \"--CODEGEN--\":6613:6622   */\n      dup3\n        /* \"--CODEGEN--\":6609:6627   */\n      add\n        /* \"--CODEGEN--\":6601:6627   */\n      swap1\n      pop\n        /* \"--CODEGEN--\":6638:6709   */\n      tag_289\n        /* \"--CODEGEN--\":6706:6707   */\n      0x00\n        /* \"--CODEGEN--\":6695:6704   */\n      dup4\n        /* \"--CODEGEN--\":6691:6708   */\n      add\n        /* \"--CODEGEN--\":6682:6688   */\n      dup5\n        /* \"--CODEGEN--\":6638:6709   */\n      tag_227\n      jump\t// in\n    tag_289:\n        /* \"--CODEGEN--\":6595:6719   */\n      swap3\n      swap2\n      pop\n      pop\n      jump\t// out\n        /* \"--CODEGEN--\":6726:6964   */\n    tag_158:\n      0x00\n        /* \"--CODEGEN--\":6861:6863   */\n      0x20\n        /* \"--CODEGEN--\":6850:6859   */\n      dup3\n        /* \"--CODEGEN--\":6846:6864   */\n      add\n        /* \"--CODEGEN--\":6838:6864   */\n      swap1\n      pop\n        /* \"--CODEGEN--\":6875:6954   */\n      tag_291\n        /* \"--CODEGEN--\":6951:6952   */\n      0x00\n        /* \"--CODEGEN--\":6940:6949   */\n      dup4\n        /* \"--CODEGEN--\":6936:6953   */\n      add\n        /* \"--CODEGEN--\":6927:6933   */\n      dup5\n        /* \"--CODEGEN--\":6875:6954   */\n      tag_217\n      jump\t// in\n    tag_291:\n        /* \"--CODEGEN--\":6832:6964   */\n      swap3\n      swap2\n      pop\n      pop\n      jump\t// out\n        /* \"--CODEGEN--\":6971:7431   */\n    tag_86:\n      0x00\n        /* \"--CODEGEN--\":7162:7164   */\n      0x60\n        /* \"--CODEGEN--\":7151:7160   */\n      dup3\n        /* \"--CODEGEN--\":7147:7165   */\n      add\n        /* \"--CODEGEN--\":7139:7165   */\n      swap1\n      pop\n        /* \"--CODEGEN--\":7176:7255   */\n      tag_293\n        /* \"--CODEGEN--\":7252:7253   */\n      0x00\n        /* \"--CODEGEN--\":7241:7250   */\n      dup4\n        /* \"--CODEGEN--\":7237:7254   */\n      add\n        /* \"--CODEGEN--\":7228:7234   */\n      dup7\n        /* \"--CODEGEN--\":7176:7255   */\n      tag_217\n      jump\t// in\n    tag_293:\n        /* \"--CODEGEN--\":7266:7338   */\n      tag_294\n        /* \"--CODEGEN--\":7334:7336   */\n      0x20\n        /* \"--CODEGEN--\":7323:7332   */\n      dup4\n        /* \"--CODEGEN--\":7319:7337   */\n      add\n        /* \"--CODEGEN--\":7310:7316   */\n      dup6\n        /* \"--CODEGEN--\":7266:7338   */\n      tag_227\n      jump\t// in\n    tag_294:\n        /* \"--CODEGEN--\":7349:7421   */\n      tag_295\n        /* \"--CODEGEN--\":7417:7419   */\n      0x40\n        /* \"--CODEGEN--\":7406:7415   */\n      dup4\n        /* \"--CODEGEN--\":7402:7420   */\n      add\n        /* \"--CODEGEN--\":7393:7399   */\n      dup5\n        /* \"--CODEGEN--\":7349:7421   */\n      tag_274\n      jump\t// in\n    tag_295:\n        /* \"--CODEGEN--\":7133:7431   */\n      swap5\n      swap4\n      pop\n      pop\n      pop\n      pop\n      jump\t// out\n        /* \"--CODEGEN--\":7438:7787   */\n    tag_179:\n      0x00\n        /* \"--CODEGEN--\":7601:7603   */\n      0x40\n        /* \"--CODEGEN--\":7590:7599   */\n      dup3\n        /* \"--CODEGEN--\":7586:7604   */\n      add\n        /* \"--CODEGEN--\":7578:7604   */\n      swap1\n      pop\n        /* \"--CODEGEN--\":7615:7694   */\n      tag_297\n        /* \"--CODEGEN--\":7691:7692   */\n      0x00\n        /* \"--CODEGEN--\":7680:7689   */\n      dup4\n        /* \"--CODEGEN--\":7676:7693   */\n      add\n        /* \"--CODEGEN--\":7667:7673   */\n      dup6\n        /* \"--CODEGEN--\":7615:7694   */\n      tag_217\n      jump\t// in\n    tag_297:\n        /* \"--CODEGEN--\":7705:7777   */\n      tag_298\n        /* \"--CODEGEN--\":7773:7775   */\n      0x20\n        /* \"--CODEGEN--\":7762:7771   */\n      dup4\n        /* \"--CODEGEN--\":7758:7776   */\n      add\n        /* \"--CODEGEN--\":7749:7755   */\n      dup5\n        /* \"--CODEGEN--\":7705:7777   */\n      tag_274\n      jump\t// in\n    tag_298:\n        /* \"--CODEGEN--\":7572:7787   */\n      swap4\n      swap3\n      pop\n      pop\n      pop\n      jump\t// out\n        /* \"--CODEGEN--\":7794:8238   */\n    tag_113:\n      0x00\n        /* \"--CODEGEN--\":7977:7979   */\n      0x60\n        /* \"--CODEGEN--\":7966:7975   */\n      dup3\n        /* \"--CODEGEN--\":7962:7980   */\n      add\n        /* \"--CODEGEN--\":7954:7980   */\n      swap1\n      pop\n        /* \"--CODEGEN--\":7991:8062   */\n      tag_300\n        /* \"--CODEGEN--\":8059:8060   */\n      0x00\n        /* \"--CODEGEN--\":8048:8057   */\n      dup4\n        /* \"--CODEGEN--\":8044:8061   */\n      add\n        /* \"--CODEGEN--\":8035:8041   */\n      dup7\n        /* \"--CODEGEN--\":7991:8062   */\n      tag_227\n      jump\t// in\n    tag_300:\n        /* \"--CODEGEN--\":8073:8145   */\n      tag_301\n        /* \"--CODEGEN--\":8141:8143   */\n      0x20\n        /* \"--CODEGEN--\":8130:8139   */\n      dup4\n        /* \"--CODEGEN--\":8126:8144   */\n      add\n        /* \"--CODEGEN--\":8117:8123   */\n      dup6\n        /* \"--CODEGEN--\":8073:8145   */\n      tag_227\n      jump\t// in\n    tag_301:\n        /* \"--CODEGEN--\":8156:8228   */\n      tag_302\n        /* \"--CODEGEN--\":8224:8226   */\n      0x40\n        /* \"--CODEGEN--\":8213:8222   */\n      dup4\n        /* \"--CODEGEN--\":8209:8227   */\n      add\n        /* \"--CODEGEN--\":8200:8206   */\n      dup5\n        /* \"--CODEGEN--\":8156:8228   */\n      tag_274\n      jump\t// in\n    tag_302:\n        /* \"--CODEGEN--\":7948:8238   */\n      swap5\n      swap4\n      pop\n      pop\n      pop\n      pop\n      jump\t// out\n        /* \"--CODEGEN--\":8245:8615   */\n    tag_41:\n      0x00\n        /* \"--CODEGEN--\":8422:8424   */\n      0x20\n        /* \"--CODEGEN--\":8411:8420   */\n      dup3\n        /* \"--CODEGEN--\":8407:8425   */\n      add\n        /* \"--CODEGEN--\":8399:8425   */\n      swap1\n      pop\n        /* \"--CODEGEN--\":8472:8481   */\n      dup2\n        /* \"--CODEGEN--\":8466:8470   */\n      dup2\n        /* \"--CODEGEN--\":8462:8482   */\n      sub\n        /* \"--CODEGEN--\":8458:8459   */\n      0x00\n        /* \"--CODEGEN--\":8447:8456   */\n      dup4\n        /* \"--CODEGEN--\":8443:8460   */\n      add\n        /* \"--CODEGEN--\":8436:8483   */\n      mstore\n        /* \"--CODEGEN--\":8497:8605   */\n      tag_304\n        /* \"--CODEGEN--\":8600:8604   */\n      dup2\n        /* \"--CODEGEN--\":8591:8597   */\n      dup5\n        /* \"--CODEGEN--\":8497:8605   */\n      tag_231\n      jump\t// in\n    tag_304:\n        /* \"--CODEGEN--\":8489:8605   */\n      swap1\n      pop\n        /* \"--CODEGEN--\":8393:8615   */\n      swap3\n      swap2\n      pop\n      pop\n      jump\t// out\n        /* \"--CODEGEN--\":8622:8832   */\n    tag_46:\n      0x00\n        /* \"--CODEGEN--\":8743:8745   */\n      0x20\n        /* \"--CODEGEN--\":8732:8741   */\n      dup3\n        /* \"--CODEGEN--\":8728:8746   */\n      add\n        /* \"--CODEGEN--\":8720:8746   */\n      swap1\n      pop\n        /* \"--CODEGEN--\":8757:8822   */\n      tag_306\n        /* \"--CODEGEN--\":8819:8820   */\n      0x00\n        /* \"--CODEGEN--\":8808:8817   */\n      dup4\n        /* \"--CODEGEN--\":8804:8821   */\n      add\n        /* \"--CODEGEN--\":8795:8801   */\n      dup5\n        /* \"--CODEGEN--\":8757:8822   */\n      tag_245\n      jump\t// in\n    tag_306:\n        /* \"--CODEGEN--\":8714:8832   */\n      swap3\n      swap2\n      pop\n      pop\n      jump\t// out\n        /* \"--CODEGEN--\":8839:9255   */\n    tag_138:\n      0x00\n        /* \"--CODEGEN--\":9039:9041   */\n      0x20\n        /* \"--CODEGEN--\":9028:9037   */\n      dup3\n        /* \"--CODEGEN--\":9024:9042   */\n      add\n        /* \"--CODEGEN--\":9016:9042   */\n      swap1\n      pop\n        /* \"--CODEGEN--\":9089:9098   */\n      dup2\n        /* \"--CODEGEN--\":9083:9087   */\n      dup2\n        /* \"--CODEGEN--\":9079:9099   */\n      sub\n        /* \"--CODEGEN--\":9075:9076   */\n      0x00\n        /* \"--CODEGEN--\":9064:9073   */\n      dup4\n        /* \"--CODEGEN--\":9060:9077   */\n      add\n        /* \"--CODEGEN--\":9053:9100   */\n      mstore\n        /* \"--CODEGEN--\":9114:9245   */\n      tag_308\n        /* \"--CODEGEN--\":9240:9244   */\n      dup2\n        /* \"--CODEGEN--\":9114:9245   */\n      tag_249\n      jump\t// in\n    tag_308:\n        /* \"--CODEGEN--\":9106:9245   */\n      swap1\n      pop\n        /* \"--CODEGEN--\":9010:9255   */\n      swap2\n      swap1\n      pop\n      jump\t// out\n        /* \"--CODEGEN--\":9262:9678   */\n    tag_84:\n      0x00\n        /* \"--CODEGEN--\":9462:9464   */\n      0x20\n        /* \"--CODEGEN--\":9451:9460   */\n      dup3\n        /* \"--CODEGEN--\":9447:9465   */\n      add\n        /* \"--CODEGEN--\":9439:9465   */\n      swap1\n      pop\n        /* \"--CODEGEN--\":9512:9521   */\n      dup2\n        /* \"--CODEGEN--\":9506:9510   */\n      dup2\n        /* \"--CODEGEN--\":9502:9522   */\n      sub\n        /* \"--CODEGEN--\":9498:9499   */\n      0x00\n        /* \"--CODEGEN--\":9487:9496   */\n      dup4\n        /* \"--CODEGEN--\":9483:9500   */\n      add\n        /* \"--CODEGEN--\":9476:9523   */\n      mstore\n        /* \"--CODEGEN--\":9537:9668   */\n      tag_310\n        /* \"--CODEGEN--\":9663:9667   */\n      dup2\n        /* \"--CODEGEN--\":9537:9668   */\n      tag_253\n      jump\t// in\n    tag_310:\n        /* \"--CODEGEN--\":9529:9668   */\n      swap1\n      pop\n        /* \"--CODEGEN--\":9433:9678   */\n      swap2\n      swap1\n      pop\n      jump\t// out\n        /* \"--CODEGEN--\":9685:10101   */\n    tag_135:\n      0x00\n        /* \"--CODEGEN--\":9885:9887   */\n      0x20\n        /* \"--CODEGEN--\":9874:9883   */\n      dup3\n        /* \"--CODEGEN--\":9870:9888   */\n      add\n        /* \"--CODEGEN--\":9862:9888   */\n      swap1\n      pop\n        /* \"--CODEGEN--\":9935:9944   */\n      dup2\n        /* \"--CODEGEN--\":9929:9933   */\n      dup2\n        /* \"--CODEGEN--\":9925:9945   */\n      sub\n        /* \"--CODEGEN--\":9921:9922   */\n      0x00\n        /* \"--CODEGEN--\":9910:9919   */\n      dup4\n        /* \"--CODEGEN--\":9906:9923   */\n      add\n        /* \"--CODEGEN--\":9899:9946   */\n      mstore\n        /* \"--CODEGEN--\":9960:10091   */\n      tag_312\n        /* \"--CODEGEN--\":10086:10090   */\n      dup2\n        /* \"--CODEGEN--\":9960:10091   */\n      tag_256\n      jump\t// in\n    tag_312:\n        /* \"--CODEGEN--\":9952:10091   */\n      swap1\n      pop\n        /* \"--CODEGEN--\":9856:10101   */\n      swap2\n      swap1\n      pop\n      jump\t// out\n        /* \"--CODEGEN--\":10108:10524   */\n    tag_74:\n      0x00\n        /* \"--CODEGEN--\":10308:10310   */\n      0x20\n        /* \"--CODEGEN--\":10297:10306   */\n      dup3\n        /* \"--CODEGEN--\":10293:10311   */\n      add\n        /* \"--CODEGEN--\":10285:10311   */\n      swap1\n      pop\n        /* \"--CODEGEN--\":10358:10367   */\n      dup2\n        /* \"--CODEGEN--\":10352:10356   */\n      dup2\n        /* \"--CODEGEN--\":10348:10368   */\n      sub\n        /* \"--CODEGEN--\":10344:10345   */\n      0x00\n        /* \"--CODEGEN--\":10333:10342   */\n      dup4\n        /* \"--CODEGEN--\":10329:10346   */\n      add\n        /* \"--CODEGEN--\":10322:10369   */\n      mstore\n        /* \"--CODEGEN--\":10383:10514   */\n      tag_314\n        /* \"--CODEGEN--\":10509:10513   */\n      dup2\n        /* \"--CODEGEN--\":10383:10514   */\n      tag_259\n      jump\t// in\n    tag_314:\n        /* \"--CODEGEN--\":10375:10514   */\n      swap1\n      pop\n        /* \"--CODEGEN--\":10279:10524   */\n      swap2\n      swap1\n      pop\n      jump\t// out\n        /* \"--CODEGEN--\":10531:10947   */\n    tag_167:\n      0x00\n        /* \"--CODEGEN--\":10731:10733   */\n      0x20\n        /* \"--CODEGEN--\":10720:10729   */\n      dup3\n        /* \"--CODEGEN--\":10716:10734   */\n      add\n        /* \"--CODEGEN--\":10708:10734   */\n      swap1\n      pop\n        /* \"--CODEGEN--\":10781:10790   */\n      dup2\n        /* \"--CODEGEN--\":10775:10779   */\n      dup2\n        /* \"--CODEGEN--\":10771:10791   */\n      sub\n        /* \"--CODEGEN--\":10767:10768   */\n      0x00\n        /* \"--CODEGEN--\":10756:10765   */\n      dup4\n        /* \"--CODEGEN--\":10752:10769   */\n      add\n        /* \"--CODEGEN--\":10745:10792   */\n      mstore\n        /* \"--CODEGEN--\":10806:10937   */\n      tag_316\n        /* \"--CODEGEN--\":10932:10936   */\n      dup2\n        /* \"--CODEGEN--\":10806:10937   */\n      tag_262\n      jump\t// in\n    tag_316:\n        /* \"--CODEGEN--\":10798:10937   */\n      swap1\n      pop\n        /* \"--CODEGEN--\":10702:10947   */\n      swap2\n      swap1\n      pop\n      jump\t// out\n        /* \"--CODEGEN--\":10954:11370   */\n    tag_175:\n      0x00\n        /* \"--CODEGEN--\":11154:11156   */\n      0x20\n        /* \"--CODEGEN--\":11143:11152   */\n      dup3\n        /* \"--CODEGEN--\":11139:11157   */\n      add\n        /* \"--CODEGEN--\":11131:11157   */\n      swap1\n      pop\n        /* \"--CODEGEN--\":11204:11213   */\n      dup2\n        /* \"--CODEGEN--\":11198:11202   */\n      dup2\n        /* \"--CODEGEN--\":11194:11214   */\n      sub\n        /* \"--CODEGEN--\":11190:11191   */\n      0x00\n        /* \"--CODEGEN--\":11179:11188   */\n      dup4\n        /* \"--CODEGEN--\":11175:11192   */\n      add\n        /* \"--CODEGEN--\":11168:11215   */\n      mstore\n        /* \"--CODEGEN--\":11229:11360   */\n      tag_318\n        /* \"--CODEGEN--\":11355:11359   */\n      dup2\n        /* \"--CODEGEN--\":11229:11360   */\n      tag_265\n      jump\t// in\n    tag_318:\n        /* \"--CODEGEN--\":11221:11360   */\n      swap1\n      pop\n        /* \"--CODEGEN--\":11125:11370   */\n      swap2\n      swap1\n      pop\n      jump\t// out\n        /* \"--CODEGEN--\":11377:11793   */\n    tag_104:\n      0x00\n        /* \"--CODEGEN--\":11577:11579   */\n      0x20\n        /* \"--CODEGEN--\":11566:11575   */\n      dup3\n        /* \"--CODEGEN--\":11562:11580   */\n      add\n        /* \"--CODEGEN--\":11554:11580   */\n      swap1\n      pop\n        /* \"--CODEGEN--\":11627:11636   */\n      dup2\n        /* \"--CODEGEN--\":11621:11625   */\n      dup2\n        /* \"--CODEGEN--\":11617:11637   */\n      sub\n        /* \"--CODEGEN--\":11613:11614   */\n      0x00\n        /* \"--CODEGEN--\":11602:11611   */\n      dup4\n        /* \"--CODEGEN--\":11598:11615   */\n      add\n        /* \"--CODEGEN--\":11591:11638   */\n      mstore\n        /* \"--CODEGEN--\":11652:11783   */\n      tag_320\n        /* \"--CODEGEN--\":11778:11782   */\n      dup2\n        /* \"--CODEGEN--\":11652:11783   */\n      tag_268\n      jump\t// in\n    tag_320:\n        /* \"--CODEGEN--\":11644:11783   */\n      swap1\n      pop\n        /* \"--CODEGEN--\":11548:11793   */\n      swap2\n      swap1\n      pop\n      jump\t// out\n        /* \"--CODEGEN--\":11800:12022   */\n    tag_29:\n      0x00\n        /* \"--CODEGEN--\":11927:11929   */\n      0x20\n        /* \"--CODEGEN--\":11916:11925   */\n      dup3\n        /* \"--CODEGEN--\":11912:11930   */\n      add\n        /* \"--CODEGEN--\":11904:11930   */\n      swap1\n      pop\n        /* \"--CODEGEN--\":11941:12012   */\n      tag_322\n        /* \"--CODEGEN--\":12009:12010   */\n      0x00\n        /* \"--CODEGEN--\":11998:12007   */\n      dup4\n        /* \"--CODEGEN--\":11994:12011   */\n      add\n        /* \"--CODEGEN--\":11985:11991   */\n      dup5\n        /* \"--CODEGEN--\":11941:12012   */\n      tag_274\n      jump\t// in\n    tag_322:\n        /* \"--CODEGEN--\":11898:12022   */\n      swap3\n      swap2\n      pop\n      pop\n      jump\t// out\n        /* \"--CODEGEN--\":12029:12378   */\n    tag_97:\n      0x00\n        /* \"--CODEGEN--\":12192:12194   */\n      0x40\n        /* \"--CODEGEN--\":12181:12190   */\n      dup3\n        /* \"--CODEGEN--\":12177:12195   */\n      add\n        /* \"--CODEGEN--\":12169:12195   */\n      swap1\n      pop\n        /* \"--CODEGEN--\":12206:12277   */\n      tag_324\n        /* \"--CODEGEN--\":12274:12275   */\n      0x00\n        /* \"--CODEGEN--\":12263:12272   */\n      dup4\n        /* \"--CODEGEN--\":12259:12276   */\n      add\n        /* \"--CODEGEN--\":12250:12256   */\n      dup6\n        /* \"--CODEGEN--\":12206:12277   */\n      tag_274\n      jump\t// in\n    tag_324:\n        /* \"--CODEGEN--\":12288:12368   */\n      tag_325\n        /* \"--CODEGEN--\":12364:12366   */\n      0x20\n        /* \"--CODEGEN--\":12353:12362   */\n      dup4\n        /* \"--CODEGEN--\":12349:12367   */\n      add\n        /* \"--CODEGEN--\":12340:12346   */\n      dup5\n        /* \"--CODEGEN--\":12288:12368   */\n      tag_217\n      jump\t// in\n    tag_325:\n        /* \"--CODEGEN--\":12163:12378   */\n      swap4\n      swap3\n      pop\n      pop\n      pop\n      jump\t// out\n        /* \"--CODEGEN--\":12385:12536   */\n    tag_238:\n      0x00\n        /* \"--CODEGEN--\":12471:12474   */\n      dup2\n        /* \"--CODEGEN--\":12463:12474   */\n      swap1\n      pop\n        /* \"--CODEGEN--\":12509:12513   */\n      0x20\n        /* \"--CODEGEN--\":12504:12507   */\n      dup3\n        /* \"--CODEGEN--\":12500:12514   */\n      add\n        /* \"--CODEGEN--\":12492:12514   */\n      swap1\n      pop\n        /* \"--CODEGEN--\":12457:12536   */\n      swap2\n      swap1\n      pop\n      jump\t// out\n        /* \"--CODEGEN--\":12543:12680   */\n    tag_234:\n      0x00\n        /* \"--CODEGEN--\":12652:12657   */\n      dup2\n        /* \"--CODEGEN--\":12646:12658   */\n      mload\n        /* \"--CODEGEN--\":12636:12658   */\n      swap1\n      pop\n        /* \"--CODEGEN--\":12617:12680   */\n      swap2\n      swap1\n      pop\n      jump\t// out\n        /* \"--CODEGEN--\":12687:12795   */\n    tag_244:\n      0x00\n        /* \"--CODEGEN--\":12785:12789   */\n      0x20\n        /* \"--CODEGEN--\":12780:12783   */\n      dup3\n        /* \"--CODEGEN--\":12776:12790   */\n      add\n        /* \"--CODEGEN--\":12768:12790   */\n      swap1\n      pop\n        /* \"--CODEGEN--\":12762:12795   */\n      swap2\n      swap1\n      pop\n      jump\t// out\n        /* \"--CODEGEN--\":12803:12981   */\n    tag_236:\n      0x00\n        /* \"--CODEGEN--\":12933:12939   */\n      dup3\n        /* \"--CODEGEN--\":12928:12931   */\n      dup3\n        /* \"--CODEGEN--\":12921:12940   */\n      mstore\n        /* \"--CODEGEN--\":12970:12974   */\n      0x20\n        /* \"--CODEGEN--\":12965:12968   */\n      dup3\n        /* \"--CODEGEN--\":12961:12975   */\n      add\n        /* \"--CODEGEN--\":12946:12975   */\n      swap1\n      pop\n        /* \"--CODEGEN--\":12914:12981   */\n      swap3\n      swap2\n      pop\n      pop\n      jump\t// out\n        /* \"--CODEGEN--\":12990:13153   */\n    tag_252:\n      0x00\n        /* \"--CODEGEN--\":13105:13111   */\n      dup3\n        /* \"--CODEGEN--\":13100:13103   */\n      dup3\n        /* \"--CODEGEN--\":13093:13112   */\n      mstore\n        /* \"--CODEGEN--\":13142:13146   */\n      0x20\n        /* \"--CODEGEN--\":13137:13140   */\n      dup3\n        /* \"--CODEGEN--\":13133:13147   */\n      add\n        /* \"--CODEGEN--\":13118:13147   */\n      swap1\n      pop\n        /* \"--CODEGEN--\":13086:13153   */\n      swap3\n      swap2\n      pop\n      pop\n      jump\t// out\n        /* \"--CODEGEN--\":13161:13252   */\n    tag_230:\n      0x00\n        /* \"--CODEGEN--\":13223:13247   */\n      tag_332\n        /* \"--CODEGEN--\":13241:13246   */\n      dup3\n        /* \"--CODEGEN--\":13223:13247   */\n      tag_333\n      jump\t// in\n    tag_332:\n        /* \"--CODEGEN--\":13212:13247   */\n      swap1\n      pop\n        /* \"--CODEGEN--\":13206:13252   */\n      swap2\n      swap1\n      pop\n      jump\t// out\n        /* \"--CODEGEN--\":13259:13358   */\n    tag_225:\n      0x00\n        /* \"--CODEGEN--\":13329:13353   */\n      tag_335\n        /* \"--CODEGEN--\":13347:13352   */\n      dup3\n        /* \"--CODEGEN--\":13329:13353   */\n      tag_333\n      jump\t// in\n    tag_335:\n        /* \"--CODEGEN--\":13318:13353   */\n      swap1\n      pop\n        /* \"--CODEGEN--\":13312:13358   */\n      swap2\n      swap1\n      pop\n      jump\t// out\n        /* \"--CODEGEN--\":13365:13450   */\n    tag_248:\n      0x00\n        /* \"--CODEGEN--\":13438:13443   */\n      dup2\n        /* \"--CODEGEN--\":13431:13444   */\n      iszero\n        /* \"--CODEGEN--\":13424:13445   */\n      iszero\n        /* \"--CODEGEN--\":13413:13445   */\n      swap1\n      pop\n        /* \"--CODEGEN--\":13407:13450   */\n      swap2\n      swap1\n      pop\n      jump\t// out\n        /* \"--CODEGEN--\":13457:13578   */\n    tag_333:\n      0x00\n        /* \"--CODEGEN--\":13530:13572   */\n      0xffffffffffffffffffffffffffffffffffffffff\n        /* \"--CODEGEN--\":13523:13528   */\n      dup3\n        /* \"--CODEGEN--\":13519:13573   */\n      and\n        /* \"--CODEGEN--\":13508:13573   */\n      swap1\n      pop\n        /* \"--CODEGEN--\":13502:13578   */\n      swap2\n      swap1\n      pop\n      jump\t// out\n        /* \"--CODEGEN--\":13585:13657   */\n    tag_273:\n      0x00\n        /* \"--CODEGEN--\":13647:13652   */\n      dup2\n        /* \"--CODEGEN--\":13636:13652   */\n      swap1\n      pop\n        /* \"--CODEGEN--\":13630:13657   */\n      swap2\n      swap1\n      pop\n      jump\t// out\n        /* \"--CODEGEN--\":13664:13793   */\n    tag_220:\n      0x00\n        /* \"--CODEGEN--\":13751:13788   */\n      tag_340\n        /* \"--CODEGEN--\":13782:13787   */\n      dup3\n        /* \"--CODEGEN--\":13751:13788   */\n      tag_341\n      jump\t// in\n    tag_340:\n        /* \"--CODEGEN--\":13738:13788   */\n      swap1\n      pop\n        /* \"--CODEGEN--\":13732:13793   */\n      swap2\n      swap1\n      pop\n      jump\t// out\n        /* \"--CODEGEN--\":13800:13921   */\n    tag_341:\n      0x00\n        /* \"--CODEGEN--\":13879:13916   */\n      tag_343\n        /* \"--CODEGEN--\":13910:13915   */\n      dup3\n        /* \"--CODEGEN--\":13879:13916   */\n      tag_344\n      jump\t// in\n    tag_343:\n        /* \"--CODEGEN--\":13866:13916   */\n      swap1\n      pop\n        /* \"--CODEGEN--\":13860:13921   */\n      swap2\n      swap1\n      pop\n      jump\t// out\n        /* \"--CODEGEN--\":13928:14036   */\n    tag_344:\n      0x00\n        /* \"--CODEGEN--\":14007:14031   */\n      tag_346\n        /* \"--CODEGEN--\":14025:14030   */\n      dup3\n        /* \"--CODEGEN--\":14007:14031   */\n      tag_333\n      jump\t// in\n    tag_346:\n        /* \"--CODEGEN--\":13994:14031   */\n      swap1\n      pop\n        /* \"--CODEGEN--\":13988:14036   */\n      swap2\n      swap1\n      pop\n      jump\t// out\n        /* \"--CODEGEN--\":14043:14146   */\n    tag_226:\n      0x00\n        /* \"--CODEGEN--\":14115:14141   */\n      tag_348\n        /* \"--CODEGEN--\":14135:14140   */\n      dup3\n        /* \"--CODEGEN--\":14115:14141   */\n      tag_349\n      jump\t// in\n    tag_348:\n        /* \"--CODEGEN--\":14104:14141   */\n      swap1\n      pop\n        /* \"--CODEGEN--\":14098:14146   */\n      swap2\n      swap1\n      pop\n      jump\t// out\n        /* \"--CODEGEN--\":14153:14242   */\n    tag_349:\n      0x00\n        /* \"--CODEGEN--\":14217:14237   */\n      tag_351\n        /* \"--CODEGEN--\":14231:14236   */\n      dup3\n        /* \"--CODEGEN--\":14217:14237   */\n      tag_352\n      jump\t// in\n    tag_351:\n        /* \"--CODEGEN--\":14206:14237   */\n      swap1\n      pop\n        /* \"--CODEGEN--\":14200:14242   */\n      swap2\n      swap1\n      pop\n      jump\t// out\n        /* \"--CODEGEN--\":14249:14323   */\n    tag_281:\n      0x00\n        /* \"--CODEGEN--\":14313:14318   */\n      dup2\n        /* \"--CODEGEN--\":14302:14318   */\n      swap1\n      pop\n        /* \"--CODEGEN--\":14296:14323   */\n      swap2\n      swap1\n      pop\n      jump\t// out\n        /* \"--CODEGEN--\":14330:14424   */\n    tag_352:\n      0x00\n        /* \"--CODEGEN--\":14408:14413   */\n      dup2\n        /* \"--CODEGEN--\":14404:14406   */\n      0x60\n        /* \"--CODEGEN--\":14400:14414   */\n      shl\n        /* \"--CODEGEN--\":14378:14414   */\n      swap1\n      pop\n        /* \"--CODEGEN--\":14372:14424   */\n      swap2\n      swap1\n      pop\n      jump\t// out\n        /* \"--CODEGEN--\":14432:14543   */\n    tag_196:\n        /* \"--CODEGEN--\":14498:14519   */\n      tag_356\n        /* \"--CODEGEN--\":14513:14518   */\n      dup2\n        /* \"--CODEGEN--\":14498:14519   */\n      tag_248\n      jump\t// in\n    tag_356:\n        /* \"--CODEGEN--\":14491:14496   */\n      dup2\n        /* \"--CODEGEN--\":14488:14520   */\n      eq\n        /* \"--CODEGEN--\":14478:14480   */\n      tag_357\n      jumpi\n        /* \"--CODEGEN--\":14534:14535   */\n      0x00\n        /* \"--CODEGEN--\":14531:14532   */\n      dup1\n        /* \"--CODEGEN--\":14524:14536   */\n      revert\n        /* \"--CODEGEN--\":14478:14480   */\n    tag_357:\n        /* \"--CODEGEN--\":14472:14543   */\n      pop\n      jump\t// out\n        /* \"--CODEGEN--\":14550:14667   */\n    tag_200:\n        /* \"--CODEGEN--\":14619:14643   */\n      tag_359\n        /* \"--CODEGEN--\":14637:14642   */\n      dup2\n        /* \"--CODEGEN--\":14619:14643   */\n      tag_273\n      jump\t// in\n    tag_359:\n        /* \"--CODEGEN--\":14612:14617   */\n      dup2\n        /* \"--CODEGEN--\":14609:14644   */\n      eq\n        /* \"--CODEGEN--\":14599:14601   */\n      tag_360\n      jumpi\n        /* \"--CODEGEN--\":14658:14659   */\n      0x00\n        /* \"--CODEGEN--\":14655:14656   */\n      dup1\n        /* \"--CODEGEN--\":14648:14660   */\n      revert\n        /* \"--CODEGEN--\":14599:14601   */\n    tag_360:\n        /* \"--CODEGEN--\":14593:14667   */\n      pop\n      jump\t// out\n\n    auxdata: 0xa26469706673582212203f7f7e5e02d7cc276a1b74ab31b2a5c8f3c60e757288c940f9814e75368eb00b64736f6c634300060c0033\n}\n\nsub_1: assembly {\n        /* \"Loteria/ERC20Loteria.sol\":1638:4335  contract ERC20Basic is IERC20 {\r... */\n      mstore(0x40, 0x80)\n        /* \"Loteria/ERC20Loteria.sol\":1982:2118  constructor (uint256 initialSupply) public {\r... */\n      callvalue\n      dup1\n      iszero\n      tag_1\n      jumpi\n      0x00\n      dup1\n      revert\n    tag_1:\n      pop\n      mload(0x40)\n      sub(codesize, bytecodeSize)\n      dup1\n      bytecodeSize\n      dup4\n      codecopy\n      dup2\n      dup2\n      add\n      0x40\n      mstore\n      dup2\n      add\n      swap1\n      tag_2\n      swap2\n      swap1\n      tag_3\n      jump\t// in\n    tag_2:\n        /* \"Loteria/ERC20Loteria.sol\":2051:2064  initialSupply */\n      dup1\n        /* \"Loteria/ERC20Loteria.sol\":2036:2048  totalSupply_ */\n      0x02\n        /* \"Loteria/ERC20Loteria.sol\":2036:2064  totalSupply_ = initialSupply */\n      dup2\n      swap1\n      sstore\n      pop\n        /* \"Loteria/ERC20Loteria.sol\":2098:2110  totalSupply_ */\n      sload(0x02)\n        /* \"Loteria/ERC20Loteria.sol\":2075:2083  balances */\n      0x00\n        /* \"Loteria/ERC20Loteria.sol\":2075:2095  balances[msg.sender] */\n      dup1\n        /* \"Loteria/ERC20Loteria.sol\":2084:2094  msg.sender */\n      caller\n        /* \"Loteria/ERC20Loteria.sol\":2075:2095  balances[msg.sender] */\n      0xffffffffffffffffffffffffffffffffffffffff\n      and\n      0xffffffffffffffffffffffffffffffffffffffff\n      and\n      dup2\n      mstore\n      0x20\n      add\n      swap1\n      dup2\n      mstore\n      0x20\n      add\n      0x00\n      keccak256\n        /* \"Loteria/ERC20Loteria.sol\":2075:2110  balances[msg.sender] = totalSupply_ */\n      dup2\n      swap1\n      sstore\n      pop\n        /* \"Loteria/ERC20Loteria.sol\":1982:2118  constructor (uint256 initialSupply) public {\r... */\n      pop\n        /* \"Loteria/ERC20Loteria.sol\":1638:4335  contract ERC20Basic is IERC20 {\r... */\n      jump(tag_6)\n        /* \"--CODEGEN--\":5:139   */\n    tag_8:\n      0x00\n        /* \"--CODEGEN--\":89:95   */\n      dup2\n        /* \"--CODEGEN--\":83:96   */\n      mload\n        /* \"--CODEGEN--\":74:96   */\n      swap1\n      pop\n        /* \"--CODEGEN--\":101:134   */\n      tag_10\n        /* \"--CODEGEN--\":128:133   */\n      dup2\n        /* \"--CODEGEN--\":101:134   */\n      tag_11\n      jump\t// in\n    tag_10:\n        /* \"--CODEGEN--\":68:139   */\n      swap3\n      swap2\n      pop\n      pop\n      jump\t// out\n        /* \"--CODEGEN--\":146:409   */\n    tag_3:\n      0x00\n        /* \"--CODEGEN--\":261:263   */\n      0x20\n        /* \"--CODEGEN--\":249:258   */\n      dup3\n        /* \"--CODEGEN--\":240:247   */\n      dup5\n        /* \"--CODEGEN--\":236:259   */\n      sub\n        /* \"--CODEGEN--\":232:264   */\n      slt\n        /* \"--CODEGEN--\":229:231   */\n      iszero\n      tag_13\n      jumpi\n        /* \"--CODEGEN--\":277:278   */\n      0x00\n        /* \"--CODEGEN--\":274:275   */\n      dup1\n        /* \"--CODEGEN--\":267:279   */\n      revert\n        /* \"--CODEGEN--\":229:231   */\n    tag_13:\n        /* \"--CODEGEN--\":312:313   */\n      0x00\n        /* \"--CODEGEN--\":329:393   */\n      tag_14\n        /* \"--CODEGEN--\":385:392   */\n      dup5\n        /* \"--CODEGEN--\":376:382   */\n      dup3\n        /* \"--CODEGEN--\":365:374   */\n      dup6\n        /* \"--CODEGEN--\":361:383   */\n      add\n        /* \"--CODEGEN--\":329:393   */\n      tag_8\n      jump\t// in\n    tag_14:\n        /* \"--CODEGEN--\":319:393   */\n      swap2\n      pop\n        /* \"--CODEGEN--\":291:399   */\n      pop\n        /* \"--CODEGEN--\":223:409   */\n      swap3\n      swap2\n      pop\n      pop\n      jump\t// out\n        /* \"--CODEGEN--\":416:488   */\n    tag_15:\n      0x00\n        /* \"--CODEGEN--\":478:483   */\n      dup2\n        /* \"--CODEGEN--\":467:483   */\n      swap1\n      pop\n        /* \"--CODEGEN--\":461:488   */\n      swap2\n      swap1\n      pop\n      jump\t// out\n        /* \"--CODEGEN--\":495:612   */\n    tag_11:\n        /* \"--CODEGEN--\":564:588   */\n      tag_18\n        /* \"--CODEGEN--\":582:587   */\n      dup2\n        /* \"--CODEGEN--\":564:588   */\n      tag_15\n      jump\t// in\n    tag_18:\n        /* \"--CODEGEN--\":557:562   */\n      dup2\n        /* \"--CODEGEN--\":554:589   */\n      eq\n        /* \"--CODEGEN--\":544:546   */\n      tag_19\n      jumpi\n        /* \"--CODEGEN--\":603:604   */\n      0x00\n        /* \"--CODEGEN--\":600:601   */\n      dup1\n        /* \"--CODEGEN--\":593:605   */\n      revert\n        /* \"--CODEGEN--\":544:546   */\n    tag_19:\n        /* \"--CODEGEN--\":538:612   */\n      pop\n      jump\t// out\n        /* \"Loteria/ERC20Loteria.sol\":1638:4335  contract ERC20Basic is IERC20 {\r... */\n    tag_6:\n      dataSize(sub_0)\n      dup1\n      dataOffset(sub_0)\n      0x00\n      codecopy\n      0x00\n      return\n    stop\n\n    sub_0: assembly {\n            /* \"Loteria/ERC20Loteria.sol\":1638:4335  contract ERC20Basic is IERC20 {\r... */\n          mstore(0x40, 0x80)\n          callvalue\n          dup1\n          iszero\n          tag_1\n          jumpi\n          0x00\n          dup1\n          revert\n        tag_1:\n          pop\n          jumpi(tag_2, lt(calldatasize, 0x04))\n          shr(0xe0, calldataload(0x00))\n          dup1\n          0x313ce567\n          gt\n          tag_14\n          jumpi\n          dup1\n          0x313ce567\n          eq\n          tag_8\n          jumpi\n          dup1\n          0x5c79febb\n          eq\n          tag_9\n          jumpi\n          dup1\n          0x70a08231\n          eq\n          tag_10\n          jumpi\n          dup1\n          0x95d89b41\n          eq\n          tag_11\n          jumpi\n          dup1\n          0xa9059cbb\n          eq\n          tag_12\n          jumpi\n          dup1\n          0xdd62ed3e\n          eq\n          tag_13\n          jumpi\n          jump(tag_2)\n        tag_14:\n          dup1\n          0x06fdde03\n          eq\n          tag_3\n          jumpi\n          dup1\n          0x095ea7b3\n          eq\n          tag_4\n          jumpi\n          dup1\n          0x18160ddd\n          eq\n          tag_5\n          jumpi\n          dup1\n          0x1d43cc98\n          eq\n          tag_6\n          jumpi\n          dup1\n          0x23b872dd\n          eq\n          tag_7\n          jumpi\n        tag_2:\n          0x00\n          dup1\n          revert\n            /* \"Loteria/ERC20Loteria.sol\":1712:1756  string public constant name = \"ERC20AKALugo\" */\n        tag_3:\n          tag_15\n          tag_16\n          jump\t// in\n        tag_15:\n          mload(0x40)\n          tag_17\n          swap2\n          swap1\n          tag_18\n          jump\t// in\n        tag_17:\n          mload(0x40)\n          dup1\n          swap2\n          sub\n          swap1\n          return\n            /* \"Loteria/ERC20Loteria.sol\":3602:3831  function approve(address spender, uint numTokens) public override returns(bool) {\r... */\n        tag_4:\n          tag_19\n          0x04\n          dup1\n          calldatasize\n          sub\n          dup2\n          add\n          swap1\n          tag_20\n          swap2\n          swap1\n          tag_21\n          jump\t// in\n        tag_20:\n          tag_22\n          jump\t// in\n        tag_19:\n          mload(0x40)\n          tag_23\n          swap2\n          swap1\n          tag_24\n          jump\t// in\n        tag_23:\n          mload(0x40)\n          dup1\n          swap2\n          sub\n          swap1\n          return\n            /* \"Loteria/ERC20Loteria.sol\":2291:2390  function totalSupply() public override view returns(uint256) {\r... */\n        tag_5:\n          tag_25\n          tag_26\n          jump\t// in\n        tag_25:\n          mload(0x40)\n          tag_27\n          swap2\n          swap1\n          tag_28\n          jump\t// in\n        tag_27:\n          mload(0x40)\n          dup1\n          swap2\n          sub\n          swap1\n          return\n            /* \"Loteria/ERC20Loteria.sol\":2398:2556  function increaseTotalSupply(uint newTokensAmount) public {\r... */\n        tag_6:\n          tag_29\n          0x04\n          dup1\n          calldatasize\n          sub\n          dup2\n          add\n          swap1\n          tag_30\n          swap2\n          swap1\n          tag_31\n          jump\t// in\n        tag_30:\n          tag_32\n          jump\t// in\n        tag_29:\n          stop\n            /* \"Loteria/ERC20Loteria.sol\":3839:4332  function transferFrom(address owner, address buyer, uint256 numTokens) public override returns(bool) {\r... */\n        tag_7:\n          tag_33\n          0x04\n          dup1\n          calldatasize\n          sub\n          dup2\n          add\n          swap1\n          tag_34\n          swap2\n          swap1\n          tag_35\n          jump\t// in\n        tag_34:\n          tag_36\n          jump\t// in\n        tag_33:\n          mload(0x40)\n          tag_37\n          swap2\n          swap1\n          tag_24\n          jump\t// in\n        tag_37:\n          mload(0x40)\n          dup1\n          swap2\n          sub\n          swap1\n          return\n            /* \"Loteria/ERC20Loteria.sol\":1807:1842  uint8 public constant decimals = 18 */\n        tag_8:\n          tag_38\n          tag_39\n          jump\t// in\n        tag_38:\n          mload(0x40)\n          tag_40\n          swap2\n          swap1\n          tag_41\n          jump\t// in\n        tag_40:\n          mload(0x40)\n          dup1\n          swap2\n          sub\n          swap1\n          return\n            /* \"Loteria/ERC20Loteria.sol\":3216:3594  function transferLoteria(address emiter, address recipient, uint256 numTokens) public override returns(bool) {\r... */\n        tag_9:\n          tag_42\n          0x04\n          dup1\n          calldatasize\n          sub\n          dup2\n          add\n          swap1\n          tag_43\n          swap2\n          swap1\n          tag_35\n          jump\t// in\n        tag_43:\n          tag_44\n          jump\t// in\n        tag_42:\n          mload(0x40)\n          tag_45\n          swap2\n          swap1\n          tag_24\n          jump\t// in\n        tag_45:\n          mload(0x40)\n          dup1\n          swap2\n          sub\n          swap1\n          return\n            /* \"Loteria/ERC20Loteria.sol\":2564:2682  function balanceOf(address account) public override view returns (uint256) {\r... */\n        tag_10:\n          tag_46\n          0x04\n          dup1\n          calldatasize\n          sub\n          dup2\n          add\n          swap1\n          tag_47\n          swap2\n          swap1\n          tag_48\n          jump\t// in\n        tag_47:\n          tag_49\n          jump\t// in\n        tag_46:\n          mload(0x40)\n          tag_50\n          swap2\n          swap1\n          tag_28\n          jump\t// in\n        tag_50:\n          mload(0x40)\n          dup1\n          swap2\n          sub\n          swap1\n          return\n            /* \"Loteria/ERC20Loteria.sol\":1763:1800  string public constant symbol = \"AKA\" */\n        tag_11:\n          tag_51\n          tag_52\n          jump\t// in\n        tag_51:\n          mload(0x40)\n          tag_53\n          swap2\n          swap1\n          tag_18\n          jump\t// in\n        tag_53:\n          mload(0x40)\n          dup1\n          swap2\n          sub\n          swap1\n          return\n            /* \"Loteria/ERC20Loteria.sol\":2837:3208  function transfer(address recipient, uint256 numTokens) public override returns(bool) {\r... */\n        tag_12:\n          tag_54\n          0x04\n          dup1\n          calldatasize\n          sub\n          dup2\n          add\n          swap1\n          tag_55\n          swap2\n          swap1\n          tag_21\n          jump\t// in\n        tag_55:\n          tag_56\n          jump\t// in\n        tag_54:\n          mload(0x40)\n          tag_57\n          swap2\n          swap1\n          tag_24\n          jump\t// in\n        tag_57:\n          mload(0x40)\n          dup1\n          swap2\n          sub\n          swap1\n          return\n            /* \"Loteria/ERC20Loteria.sol\":2690:2829  function allowance(address owner, address spender) public override view returns (uint256) {\r... */\n        tag_13:\n          tag_58\n          0x04\n          dup1\n          calldatasize\n          sub\n          dup2\n          add\n          swap1\n          tag_59\n          swap2\n          swap1\n          tag_60\n          jump\t// in\n        tag_59:\n          tag_61\n          jump\t// in\n        tag_58:\n          mload(0x40)\n          tag_62\n          swap2\n          swap1\n          tag_28\n          jump\t// in\n        tag_62:\n          mload(0x40)\n          dup1\n          swap2\n          sub\n          swap1\n          return\n            /* \"Loteria/ERC20Loteria.sol\":1712:1756  string public constant name = \"ERC20AKALugo\" */\n        tag_16:\n          mload(0x40)\n          dup1\n          0x40\n          add\n          0x40\n          mstore\n          dup1\n          0x0c\n          dup2\n          mstore\n          0x20\n          add\n          0x4552433230414b414c75676f0000000000000000000000000000000000000000\n          dup2\n          mstore\n          pop\n          dup2\n          jump\t// out\n            /* \"Loteria/ERC20Loteria.sol\":3602:3831  function approve(address spender, uint numTokens) public override returns(bool) {\r... */\n        tag_22:\n            /* \"Loteria/ERC20Loteria.sol\":3676:3680  bool */\n          0x00\n            /* \"Loteria/ERC20Loteria.sol\":3734:3743  numTokens */\n          dup2\n            /* \"Loteria/ERC20Loteria.sol\":3703:3710  allowed */\n          0x01\n            /* \"Loteria/ERC20Loteria.sol\":3703:3722  allowed[msg.sender] */\n          0x00\n            /* \"Loteria/ERC20Loteria.sol\":3711:3721  msg.sender */\n          caller\n            /* \"Loteria/ERC20Loteria.sol\":3703:3722  allowed[msg.sender] */\n          0xffffffffffffffffffffffffffffffffffffffff\n          and\n          0xffffffffffffffffffffffffffffffffffffffff\n          and\n          dup2\n          mstore\n          0x20\n          add\n          swap1\n          dup2\n          mstore\n          0x20\n          add\n          0x00\n          keccak256\n            /* \"Loteria/ERC20Loteria.sol\":3703:3731  allowed[msg.sender][spender] */\n          0x00\n            /* \"Loteria/ERC20Loteria.sol\":3723:3730  spender */\n          dup6\n            /* \"Loteria/ERC20Loteria.sol\":3703:3731  allowed[msg.sender][spender] */\n          0xffffffffffffffffffffffffffffffffffffffff\n          and\n          0xffffffffffffffffffffffffffffffffffffffff\n          and\n          dup2\n          mstore\n          0x20\n          add\n          swap1\n          dup2\n          mstore\n          0x20\n          add\n          0x00\n          keccak256\n            /* \"Loteria/ERC20Loteria.sol\":3703:3743  allowed[msg.sender][spender] = numTokens */\n          dup2\n          swap1\n          sstore\n          pop\n            /* \"Loteria/ERC20Loteria.sol\":3780:3787  spender */\n          dup3\n            /* \"Loteria/ERC20Loteria.sol\":3759:3799  Approval(msg.sender, spender, numTokens) */\n          0xffffffffffffffffffffffffffffffffffffffff\n          and\n            /* \"Loteria/ERC20Loteria.sol\":3768:3778  msg.sender */\n          caller\n            /* \"Loteria/ERC20Loteria.sol\":3759:3799  Approval(msg.sender, spender, numTokens) */\n          0xffffffffffffffffffffffffffffffffffffffff\n          and\n          0x8c5be1e5ebec7d5bd14f71427d1e84f3dd0314c0f7b2291e5b200ac8c7c3b925\n            /* \"Loteria/ERC20Loteria.sol\":3789:3798  numTokens */\n          dup5\n            /* \"Loteria/ERC20Loteria.sol\":3759:3799  Approval(msg.sender, spender, numTokens) */\n          mload(0x40)\n          tag_64\n          swap2\n          swap1\n          tag_28\n          jump\t// in\n        tag_64:\n          mload(0x40)\n          dup1\n          swap2\n          sub\n          swap1\n          log3\n            /* \"Loteria/ERC20Loteria.sol\":3819:3823  true */\n          0x01\n            /* \"Loteria/ERC20Loteria.sol\":3812:3823  return true */\n          swap1\n          pop\n            /* \"Loteria/ERC20Loteria.sol\":3602:3831  function approve(address spender, uint numTokens) public override returns(bool) {\r... */\n          swap3\n          swap2\n          pop\n          pop\n          jump\t// out\n            /* \"Loteria/ERC20Loteria.sol\":2291:2390  function totalSupply() public override view returns(uint256) {\r... */\n        tag_26:\n            /* \"Loteria/ERC20Loteria.sol\":2343:2350  uint256 */\n          0x00\n            /* \"Loteria/ERC20Loteria.sol\":2370:2382  totalSupply_ */\n          sload(0x02)\n            /* \"Loteria/ERC20Loteria.sol\":2363:2382  return totalSupply_ */\n          swap1\n          pop\n            /* \"Loteria/ERC20Loteria.sol\":2291:2390  function totalSupply() public override view returns(uint256) {\r... */\n          swap1\n          jump\t// out\n            /* \"Loteria/ERC20Loteria.sol\":2398:2556  function increaseTotalSupply(uint newTokensAmount) public {\r... */\n        tag_32:\n            /* \"Loteria/ERC20Loteria.sol\":2483:2498  newTokensAmount */\n          dup1\n            /* \"Loteria/ERC20Loteria.sol\":2467:2479  totalSupply_ */\n          0x02\n          0x00\n            /* \"Loteria/ERC20Loteria.sol\":2467:2498  totalSupply_ += newTokensAmount */\n          dup3\n          dup3\n          sload\n          add\n          swap3\n          pop\n          pop\n          dup2\n          swap1\n          sstore\n          pop\n            /* \"Loteria/ERC20Loteria.sol\":2533:2548  newTokensAmount */\n          dup1\n            /* \"Loteria/ERC20Loteria.sol\":2509:2517  balances */\n          0x00\n            /* \"Loteria/ERC20Loteria.sol\":2509:2529  balances[msg.sender] */\n          dup1\n            /* \"Loteria/ERC20Loteria.sol\":2518:2528  msg.sender */\n          caller\n            /* \"Loteria/ERC20Loteria.sol\":2509:2529  balances[msg.sender] */\n          0xffffffffffffffffffffffffffffffffffffffff\n          and\n          0xffffffffffffffffffffffffffffffffffffffff\n          and\n          dup2\n          mstore\n          0x20\n          add\n          swap1\n          dup2\n          mstore\n          0x20\n          add\n          0x00\n          keccak256\n          0x00\n            /* \"Loteria/ERC20Loteria.sol\":2509:2548  balances[msg.sender] += newTokensAmount */\n          dup3\n          dup3\n          sload\n          add\n          swap3\n          pop\n          pop\n          dup2\n          swap1\n          sstore\n          pop\n            /* \"Loteria/ERC20Loteria.sol\":2398:2556  function increaseTotalSupply(uint newTokensAmount) public {\r... */\n          pop\n          jump\t// out\n            /* \"Loteria/ERC20Loteria.sol\":3839:4332  function transferFrom(address owner, address buyer, uint256 numTokens) public override returns(bool) {\r... */\n        tag_36:\n            /* \"Loteria/ERC20Loteria.sol\":3934:3938  bool */\n          0x00\n            /* \"Loteria/ERC20Loteria.sol\":3979:3988  numTokens */\n          dup2\n            /* \"Loteria/ERC20Loteria.sol\":3960:3968  balances */\n          0x00\n            /* \"Loteria/ERC20Loteria.sol\":3960:3975  balances[owner] */\n          dup1\n            /* \"Loteria/ERC20Loteria.sol\":3969:3974  owner */\n          dup7\n            /* \"Loteria/ERC20Loteria.sol\":3960:3975  balances[owner] */\n          0xffffffffffffffffffffffffffffffffffffffff\n          and\n          0xffffffffffffffffffffffffffffffffffffffff\n          and\n          dup2\n          mstore\n          0x20\n          add\n          swap1\n          dup2\n          mstore\n          0x20\n          add\n          0x00\n          keccak256\n          sload\n            /* \"Loteria/ERC20Loteria.sol\":3960:3988  balances[owner] >= numTokens */\n          lt\n          iszero\n            /* \"Loteria/ERC20Loteria.sol\":3951:3989  require (balances[owner] >= numTokens) */\n          tag_68\n          jumpi\n          0x00\n          dup1\n          revert\n        tag_68:\n            /* \"Loteria/ERC20Loteria.sol\":4039:4048  numTokens */\n          dup2\n            /* \"Loteria/ERC20Loteria.sol\":4009:4016  allowed */\n          0x01\n            /* \"Loteria/ERC20Loteria.sol\":4009:4023  allowed[owner] */\n          0x00\n            /* \"Loteria/ERC20Loteria.sol\":4017:4022  owner */\n          dup7\n            /* \"Loteria/ERC20Loteria.sol\":4009:4023  allowed[owner] */\n          0xffffffffffffffffffffffffffffffffffffffff\n          and\n          0xffffffffffffffffffffffffffffffffffffffff\n          and\n          dup2\n          mstore\n          0x20\n          add\n          swap1\n          dup2\n          mstore\n          0x20\n          add\n          0x00\n          keccak256\n            /* \"Loteria/ERC20Loteria.sol\":4009:4035  allowed[owner][msg.sender] */\n          0x00\n            /* \"Loteria/ERC20Loteria.sol\":4024:4034  msg.sender */\n          caller\n            /* \"Loteria/ERC20Loteria.sol\":4009:4035  allowed[owner][msg.sender] */\n          0xffffffffffffffffffffffffffffffffffffffff\n          and\n          0xffffffffffffffffffffffffffffffffffffffff\n          and\n          dup2\n          mstore\n          0x20\n          add\n          swap1\n          dup2\n          mstore\n          0x20\n          add\n          0x00\n          keccak256\n          sload\n            /* \"Loteria/ERC20Loteria.sol\":4009:4048  allowed[owner][msg.sender] >= numTokens */\n          lt\n          iszero\n            /* \"Loteria/ERC20Loteria.sol\":4000:4049  require (allowed[owner][msg.sender] >= numTokens) */\n          tag_69\n          jumpi\n          0x00\n          dup1\n          revert\n        tag_69:\n            /* \"Loteria/ERC20Loteria.sol\":4080:4110  balances[owner].sub(numTokens) */\n          tag_70\n            /* \"Loteria/ERC20Loteria.sol\":4100:4109  numTokens */\n          dup3\n            /* \"Loteria/ERC20Loteria.sol\":4080:4088  balances */\n          0x00\n            /* \"Loteria/ERC20Loteria.sol\":4080:4095  balances[owner] */\n          dup1\n            /* \"Loteria/ERC20Loteria.sol\":4089:4094  owner */\n          dup8\n            /* \"Loteria/ERC20Loteria.sol\":4080:4095  balances[owner] */\n          0xffffffffffffffffffffffffffffffffffffffff\n          and\n          0xffffffffffffffffffffffffffffffffffffffff\n          and\n          dup2\n          mstore\n          0x20\n          add\n          swap1\n          dup2\n          mstore\n          0x20\n          add\n          0x00\n          keccak256\n          sload\n            /* \"Loteria/ERC20Loteria.sol\":4080:4099  balances[owner].sub */\n          tag_71\n          swap1\n            /* \"Loteria/ERC20Loteria.sol\":4080:4110  balances[owner].sub(numTokens) */\n          swap2\n          swap1\n          0xffffffff\n          and\n          jump\t// in\n        tag_70:\n            /* \"Loteria/ERC20Loteria.sol\":4062:4070  balances */\n          0x00\n            /* \"Loteria/ERC20Loteria.sol\":4062:4077  balances[owner] */\n          dup1\n            /* \"Loteria/ERC20Loteria.sol\":4071:4076  owner */\n          dup7\n            /* \"Loteria/ERC20Loteria.sol\":4062:4077  balances[owner] */\n          0xffffffffffffffffffffffffffffffffffffffff\n          and\n          0xffffffffffffffffffffffffffffffffffffffff\n          and\n          dup2\n          mstore\n          0x20\n          add\n          swap1\n          dup2\n          mstore\n          0x20\n          add\n          0x00\n          keccak256\n            /* \"Loteria/ERC20Loteria.sol\":4062:4110  balances[owner] = balances[owner].sub(numTokens) */\n          dup2\n          swap1\n          sstore\n          pop\n            /* \"Loteria/ERC20Loteria.sol\":4150:4191  allowed[owner][msg.sender].sub(numTokens) */\n          tag_72\n            /* \"Loteria/ERC20Loteria.sol\":4181:4190  numTokens */\n          dup3\n            /* \"Loteria/ERC20Loteria.sol\":4150:4157  allowed */\n          0x01\n            /* \"Loteria/ERC20Loteria.sol\":4150:4164  allowed[owner] */\n          0x00\n            /* \"Loteria/ERC20Loteria.sol\":4158:4163  owner */\n          dup8\n            /* \"Loteria/ERC20Loteria.sol\":4150:4164  allowed[owner] */\n          0xffffffffffffffffffffffffffffffffffffffff\n          and\n          0xffffffffffffffffffffffffffffffffffffffff\n          and\n          dup2\n          mstore\n          0x20\n          add\n          swap1\n          dup2\n          mstore\n          0x20\n          add\n          0x00\n          keccak256\n            /* \"Loteria/ERC20Loteria.sol\":4150:4176  allowed[owner][msg.sender] */\n          0x00\n            /* \"Loteria/ERC20Loteria.sol\":4165:4175  msg.sender */\n          caller\n            /* \"Loteria/ERC20Loteria.sol\":4150:4176  allowed[owner][msg.sender] */\n          0xffffffffffffffffffffffffffffffffffffffff\n          and\n          0xffffffffffffffffffffffffffffffffffffffff\n          and\n          dup2\n          mstore\n          0x20\n          add\n          swap1\n          dup2\n          mstore\n          0x20\n          add\n          0x00\n          keccak256\n          sload\n            /* \"Loteria/ERC20Loteria.sol\":4150:4180  allowed[owner][msg.sender].sub */\n          tag_71\n          swap1\n            /* \"Loteria/ERC20Loteria.sol\":4150:4191  allowed[owner][msg.sender].sub(numTokens) */\n          swap2\n          swap1\n          0xffffffff\n          and\n          jump\t// in\n        tag_72:\n            /* \"Loteria/ERC20Loteria.sol\":4121:4128  allowed */\n          0x01\n            /* \"Loteria/ERC20Loteria.sol\":4121:4135  allowed[owner] */\n          0x00\n            /* \"Loteria/ERC20Loteria.sol\":4129:4134  owner */\n          dup7\n            /* \"Loteria/ERC20Loteria.sol\":4121:4135  allowed[owner] */\n          0xffffffffffffffffffffffffffffffffffffffff\n          and\n          0xffffffffffffffffffffffffffffffffffffffff\n          and\n          dup2\n          mstore\n          0x20\n          add\n          swap1\n          dup2\n          mstore\n          0x20\n          add\n          0x00\n          keccak256\n            /* \"Loteria/ERC20Loteria.sol\":4121:4147  allowed[owner][msg.sender] */\n          0x00\n            /* \"Loteria/ERC20Loteria.sol\":4136:4146  msg.sender */\n          caller\n            /* \"Loteria/ERC20Loteria.sol\":4121:4147  allowed[owner][msg.sender] */\n          0xffffffffffffffffffffffffffffffffffffffff\n          and\n          0xffffffffffffffffffffffffffffffffffffffff\n          and\n          dup2\n          mstore\n          0x20\n          add\n          swap1\n          dup2\n          mstore\n          0x20\n          add\n          0x00\n          keccak256\n            /* \"Loteria/ERC20Loteria.sol\":4121:4191  allowed[owner][msg.sender] = allowed[owner][msg.sender].sub(numTokens) */\n          dup2\n          swap1\n          sstore\n          pop\n            /* \"Loteria/ERC20Loteria.sol\":4220:4250  balances[buyer].add(numTokens) */\n          tag_73\n            /* \"Loteria/ERC20Loteria.sol\":4240:4249  numTokens */\n          dup3\n            /* \"Loteria/ERC20Loteria.sol\":4220:4228  balances */\n          0x00\n            /* \"Loteria/ERC20Loteria.sol\":4220:4235  balances[buyer] */\n          dup1\n            /* \"Loteria/ERC20Loteria.sol\":4229:4234  buyer */\n          dup7\n            /* \"Loteria/ERC20Loteria.sol\":4220:4235  balances[buyer] */\n          0xffffffffffffffffffffffffffffffffffffffff\n          and\n          0xffffffffffffffffffffffffffffffffffffffff\n          and\n          dup2\n          mstore\n          0x20\n          add\n          swap1\n          dup2\n          mstore\n          0x20\n          add\n          0x00\n          keccak256\n          sload\n            /* \"Loteria/ERC20Loteria.sol\":4220:4239  balances[buyer].add */\n          tag_74\n          swap1\n            /* \"Loteria/ERC20Loteria.sol\":4220:4250  balances[buyer].add(numTokens) */\n          swap2\n          swap1\n          0xffffffff\n          and\n          jump\t// in\n        tag_73:\n            /* \"Loteria/ERC20Loteria.sol\":4202:4210  balances */\n          0x00\n            /* \"Loteria/ERC20Loteria.sol\":4202:4217  balances[buyer] */\n          dup1\n            /* \"Loteria/ERC20Loteria.sol\":4211:4216  buyer */\n          dup6\n            /* \"Loteria/ERC20Loteria.sol\":4202:4217  balances[buyer] */\n          0xffffffffffffffffffffffffffffffffffffffff\n          and\n          0xffffffffffffffffffffffffffffffffffffffff\n          and\n          dup2\n          mstore\n          0x20\n          add\n          swap1\n          dup2\n          mstore\n          0x20\n          add\n          0x00\n          keccak256\n            /* \"Loteria/ERC20Loteria.sol\":4202:4250  balances[buyer] = balances[buyer].add(numTokens) */\n          dup2\n          swap1\n          sstore\n          pop\n            /* \"Loteria/ERC20Loteria.sol\":4284:4289  buyer */\n          dup3\n            /* \"Loteria/ERC20Loteria.sol\":4268:4301  Transfer(owner, buyer, numTokens) */\n          0xffffffffffffffffffffffffffffffffffffffff\n          and\n            /* \"Loteria/ERC20Loteria.sol\":4277:4282  owner */\n          dup5\n            /* \"Loteria/ERC20Loteria.sol\":4268:4301  Transfer(owner, buyer, numTokens) */\n          0xffffffffffffffffffffffffffffffffffffffff\n          and\n          0xddf252ad1be2c89b69c2b068fc378daa952ba7f163c4a11628f55a4df523b3ef\n            /* \"Loteria/ERC20Loteria.sol\":4291:4300  numTokens */\n          dup5\n            /* \"Loteria/ERC20Loteria.sol\":4268:4301  Transfer(owner, buyer, numTokens) */\n          mload(0x40)\n          tag_75\n          swap2\n          swap1\n          tag_28\n          jump\t// in\n        tag_75:\n          mload(0x40)\n          dup1\n          swap2\n          sub\n          swap1\n          log3\n            /* \"Loteria/ERC20Loteria.sol\":4320:4324  true */\n          0x01\n            /* \"Loteria/ERC20Loteria.sol\":4313:4324  return true */\n          swap1\n          pop\n            /* \"Loteria/ERC20Loteria.sol\":3839:4332  function transferFrom(address owner, address buyer, uint256 numTokens) public override returns(bool) {\r... */\n          swap4\n          swap3\n          pop\n          pop\n          pop\n          jump\t// out\n            /* \"Loteria/ERC20Loteria.sol\":1807:1842  uint8 public constant decimals = 18 */\n        tag_39:\n            /* \"Loteria/ERC20Loteria.sol\":1840:1842  18 */\n          0x12\n            /* \"Loteria/ERC20Loteria.sol\":1807:1842  uint8 public constant decimals = 18 */\n          dup2\n          jump\t// out\n            /* \"Loteria/ERC20Loteria.sol\":3216:3594  function transferLoteria(address emiter, address recipient, uint256 numTokens) public override returns(bool) {\r... */\n        tag_44:\n            /* \"Loteria/ERC20Loteria.sol\":3319:3323  bool */\n          0x00\n            /* \"Loteria/ERC20Loteria.sol\":3358:3366  balances */\n          dup1\n            /* \"Loteria/ERC20Loteria.sol\":3358:3374  balances[emiter] */\n          0x00\n            /* \"Loteria/ERC20Loteria.sol\":3367:3373  emiter */\n          dup6\n            /* \"Loteria/ERC20Loteria.sol\":3358:3374  balances[emiter] */\n          0xffffffffffffffffffffffffffffffffffffffff\n          and\n          0xffffffffffffffffffffffffffffffffffffffff\n          and\n          dup2\n          mstore\n          0x20\n          add\n          swap1\n          dup2\n          mstore\n          0x20\n          add\n          0x00\n          keccak256\n          sload\n            /* \"Loteria/ERC20Loteria.sol\":3345:3354  numTokens */\n          dup3\n            /* \"Loteria/ERC20Loteria.sol\":3345:3374  numTokens <= balances[emiter] */\n          gt\n          iszero\n            /* \"Loteria/ERC20Loteria.sol\":3336:3375  require (numTokens <= balances[emiter]) */\n          tag_77\n          jumpi\n          0x00\n          dup1\n          revert\n        tag_77:\n            /* \"Loteria/ERC20Loteria.sol\":3407:3438  balances[emiter].sub(numTokens) */\n          tag_78\n            /* \"Loteria/ERC20Loteria.sol\":3428:3437  numTokens */\n          dup3\n            /* \"Loteria/ERC20Loteria.sol\":3407:3415  balances */\n          0x00\n            /* \"Loteria/ERC20Loteria.sol\":3407:3423  balances[emiter] */\n          dup1\n            /* \"Loteria/ERC20Loteria.sol\":3416:3422  emiter */\n          dup8\n            /* \"Loteria/ERC20Loteria.sol\":3407:3423  balances[emiter] */\n          0xffffffffffffffffffffffffffffffffffffffff\n          and\n          0xffffffffffffffffffffffffffffffffffffffff\n          and\n          dup2\n          mstore\n          0x20\n          add\n          swap1\n          dup2\n          mstore\n          0x20\n          add\n          0x00\n          keccak256\n          sload\n            /* \"Loteria/ERC20Loteria.sol\":3407:3427  balances[emiter].sub */\n          tag_71\n          swap1\n            /* \"Loteria/ERC20Loteria.sol\":3407:3438  balances[emiter].sub(numTokens) */\n          swap2\n          swap1\n          0xffffffff\n          and\n          jump\t// in\n        tag_78:\n            /* \"Loteria/ERC20Loteria.sol\":3388:3396  balances */\n          0x00\n            /* \"Loteria/ERC20Loteria.sol\":3388:3404  balances[emiter] */\n          dup1\n            /* \"Loteria/ERC20Loteria.sol\":3397:3403  emiter */\n          dup7\n            /* \"Loteria/ERC20Loteria.sol\":3388:3404  balances[emiter] */\n          0xffffffffffffffffffffffffffffffffffffffff\n          and\n          0xffffffffffffffffffffffffffffffffffffffff\n          and\n          dup2\n          mstore\n          0x20\n          add\n          swap1\n          dup2\n          mstore\n          0x20\n          add\n          0x00\n          keccak256\n            /* \"Loteria/ERC20Loteria.sol\":3388:3438  balances[emiter] = balances[emiter].sub(numTokens) */\n          dup2\n          swap1\n          sstore\n          pop\n            /* \"Loteria/ERC20Loteria.sol\":3472:3506  balances[recipient].add(numTokens) */\n          tag_79\n            /* \"Loteria/ERC20Loteria.sol\":3496:3505  numTokens */\n          dup3\n            /* \"Loteria/ERC20Loteria.sol\":3472:3480  balances */\n          0x00\n            /* \"Loteria/ERC20Loteria.sol\":3472:3491  balances[recipient] */\n          dup1\n            /* \"Loteria/ERC20Loteria.sol\":3481:3490  recipient */\n          dup7\n            /* \"Loteria/ERC20Loteria.sol\":3472:3491  balances[recipient] */\n          0xffffffffffffffffffffffffffffffffffffffff\n          and\n          0xffffffffffffffffffffffffffffffffffffffff\n          and\n          dup2\n          mstore\n          0x20\n          add\n          swap1\n          dup2\n          mstore\n          0x20\n          add\n          0x00\n          keccak256\n          sload\n            /* \"Loteria/ERC20Loteria.sol\":3472:3495  balances[recipient].add */\n          tag_74\n          swap1\n            /* \"Loteria/ERC20Loteria.sol\":3472:3506  balances[recipient].add(numTokens) */\n          swap2\n          swap1\n          0xffffffff\n          and\n          jump\t// in\n        tag_79:\n            /* \"Loteria/ERC20Loteria.sol\":3450:3458  balances */\n          0x00\n            /* \"Loteria/ERC20Loteria.sol\":3450:3469  balances[recipient] */\n          dup1\n            /* \"Loteria/ERC20Loteria.sol\":3459:3468  recipient */\n          dup6\n            /* \"Loteria/ERC20Loteria.sol\":3450:3469  balances[recipient] */\n          0xffffffffffffffffffffffffffffffffffffffff\n          and\n          0xffffffffffffffffffffffffffffffffffffffff\n          and\n          dup2\n          mstore\n          0x20\n          add\n          swap1\n          dup2\n          mstore\n          0x20\n          add\n          0x00\n          keccak256\n            /* \"Loteria/ERC20Loteria.sol\":3450:3506  balances[recipient] = balances[recipient].add(numTokens) */\n          dup2\n          swap1\n          sstore\n          pop\n            /* \"Loteria/ERC20Loteria.sol\":3541:3550  recipient */\n          dup3\n            /* \"Loteria/ERC20Loteria.sol\":3524:3562  Transfer(emiter, recipient, numTokens) */\n          0xffffffffffffffffffffffffffffffffffffffff\n          and\n            /* \"Loteria/ERC20Loteria.sol\":3533:3539  emiter */\n          dup5\n            /* \"Loteria/ERC20Loteria.sol\":3524:3562  Transfer(emiter, recipient, numTokens) */\n          0xffffffffffffffffffffffffffffffffffffffff\n          and\n          0xddf252ad1be2c89b69c2b068fc378daa952ba7f163c4a11628f55a4df523b3ef\n            /* \"Loteria/ERC20Loteria.sol\":3552:3561  numTokens */\n          dup5\n            /* \"Loteria/ERC20Loteria.sol\":3524:3562  Transfer(emiter, recipient, numTokens) */\n          mload(0x40)\n          tag_80\n          swap2\n          swap1\n          tag_28\n          jump\t// in\n        tag_80:\n          mload(0x40)\n          dup1\n          swap2\n          sub\n          swap1\n          log3\n            /* \"Loteria/ERC20Loteria.sol\":3582:3586  true */\n          0x01\n            /* \"Loteria/ERC20Loteria.sol\":3575:3586  return true */\n          swap1\n          pop\n            /* \"Loteria/ERC20Loteria.sol\":3216:3594  function transferLoteria(address emiter, address recipient, uint256 numTokens) public override returns(bool) {\r... */\n          swap4\n          swap3\n          pop\n          pop\n          pop\n          jump\t// out\n            /* \"Loteria/ERC20Loteria.sol\":2564:2682  function balanceOf(address account) public override view returns (uint256) {\r... */\n        tag_49:\n            /* \"Loteria/ERC20Loteria.sol\":2630:2637  uint256 */\n          0x00\n            /* \"Loteria/ERC20Loteria.sol\":2657:2665  balances */\n          dup1\n            /* \"Loteria/ERC20Loteria.sol\":2657:2674  balances[account] */\n          0x00\n            /* \"Loteria/ERC20Loteria.sol\":2666:2673  account */\n          dup4\n            /* \"Loteria/ERC20Loteria.sol\":2657:2674  balances[account] */\n          0xffffffffffffffffffffffffffffffffffffffff\n          and\n          0xffffffffffffffffffffffffffffffffffffffff\n          and\n          dup2\n          mstore\n          0x20\n          add\n          swap1\n          dup2\n          mstore\n          0x20\n          add\n          0x00\n          keccak256\n          sload\n            /* \"Loteria/ERC20Loteria.sol\":2650:2674  return balances[account] */\n          swap1\n          pop\n            /* \"Loteria/ERC20Loteria.sol\":2564:2682  function balanceOf(address account) public override view returns (uint256) {\r... */\n          swap2\n          swap1\n          pop\n          jump\t// out\n            /* \"Loteria/ERC20Loteria.sol\":1763:1800  string public constant symbol = \"AKA\" */\n        tag_52:\n          mload(0x40)\n          dup1\n          0x40\n          add\n          0x40\n          mstore\n          dup1\n          0x03\n          dup2\n          mstore\n          0x20\n          add\n          0x414b410000000000000000000000000000000000000000000000000000000000\n          dup2\n          mstore\n          pop\n          dup2\n          jump\t// out\n            /* \"Loteria/ERC20Loteria.sol\":2837:3208  function transfer(address recipient, uint256 numTokens) public override returns(bool) {\r... */\n        tag_56:\n            /* \"Loteria/ERC20Loteria.sol\":2917:2921  bool */\n          0x00\n            /* \"Loteria/ERC20Loteria.sol\":2956:2964  balances */\n          dup1\n            /* \"Loteria/ERC20Loteria.sol\":2956:2976  balances[msg.sender] */\n          0x00\n            /* \"Loteria/ERC20Loteria.sol\":2965:2975  msg.sender */\n          caller\n            /* \"Loteria/ERC20Loteria.sol\":2956:2976  balances[msg.sender] */\n          0xffffffffffffffffffffffffffffffffffffffff\n          and\n          0xffffffffffffffffffffffffffffffffffffffff\n          and\n          dup2\n          mstore\n          0x20\n          add\n          swap1\n          dup2\n          mstore\n          0x20\n          add\n          0x00\n          keccak256\n          sload\n            /* \"Loteria/ERC20Loteria.sol\":2943:2952  numTokens */\n          dup3\n            /* \"Loteria/ERC20Loteria.sol\":2943:2976  numTokens <= balances[msg.sender] */\n          gt\n          iszero\n            /* \"Loteria/ERC20Loteria.sol\":2934:2977  require (numTokens <= balances[msg.sender]) */\n          tag_83\n          jumpi\n          0x00\n          dup1\n          revert\n        tag_83:\n            /* \"Loteria/ERC20Loteria.sol\":3013:3048  balances[msg.sender].sub(numTokens) */\n          tag_84\n            /* \"Loteria/ERC20Loteria.sol\":3038:3047  numTokens */\n          dup3\n            /* \"Loteria/ERC20Loteria.sol\":3013:3021  balances */\n          0x00\n            /* \"Loteria/ERC20Loteria.sol\":3013:3033  balances[msg.sender] */\n          dup1\n            /* \"Loteria/ERC20Loteria.sol\":3022:3032  msg.sender */\n          caller\n            /* \"Loteria/ERC20Loteria.sol\":3013:3033  balances[msg.sender] */\n          0xffffffffffffffffffffffffffffffffffffffff\n          and\n          0xffffffffffffffffffffffffffffffffffffffff\n          and\n          dup2\n          mstore\n          0x20\n          add\n          swap1\n          dup2\n          mstore\n          0x20\n          add\n          0x00\n          keccak256\n          sload\n            /* \"Loteria/ERC20Loteria.sol\":3013:3037  balances[msg.sender].sub */\n          tag_71\n          swap1\n            /* \"Loteria/ERC20Loteria.sol\":3013:3048  balances[msg.sender].sub(numTokens) */\n          swap2\n          swap1\n          0xffffffff\n          and\n          jump\t// in\n        tag_84:\n            /* \"Loteria/ERC20Loteria.sol\":2990:2998  balances */\n          0x00\n            /* \"Loteria/ERC20Loteria.sol\":2990:3010  balances[msg.sender] */\n          dup1\n            /* \"Loteria/ERC20Loteria.sol\":2999:3009  msg.sender */\n          caller\n            /* \"Loteria/ERC20Loteria.sol\":2990:3010  balances[msg.sender] */\n          0xffffffffffffffffffffffffffffffffffffffff\n          and\n          0xffffffffffffffffffffffffffffffffffffffff\n          and\n          dup2\n          mstore\n          0x20\n          add\n          swap1\n          dup2\n          mstore\n          0x20\n          add\n          0x00\n          keccak256\n            /* \"Loteria/ERC20Loteria.sol\":2990:3048  balances[msg.sender] = balances[msg.sender].sub(numTokens) */\n          dup2\n          swap1\n          sstore\n          pop\n            /* \"Loteria/ERC20Loteria.sol\":3082:3116  balances[recipient].add(numTokens) */\n          tag_85\n            /* \"Loteria/ERC20Loteria.sol\":3106:3115  numTokens */\n          dup3\n            /* \"Loteria/ERC20Loteria.sol\":3082:3090  balances */\n          0x00\n            /* \"Loteria/ERC20Loteria.sol\":3082:3101  balances[recipient] */\n          dup1\n            /* \"Loteria/ERC20Loteria.sol\":3091:3100  recipient */\n          dup7\n            /* \"Loteria/ERC20Loteria.sol\":3082:3101  balances[recipient] */\n          0xffffffffffffffffffffffffffffffffffffffff\n          and\n          0xffffffffffffffffffffffffffffffffffffffff\n          and\n          dup2\n          mstore\n          0x20\n          add\n          swap1\n          dup2\n          mstore\n          0x20\n          add\n          0x00\n          keccak256\n          sload\n            /* \"Loteria/ERC20Loteria.sol\":3082:3105  balances[recipient].add */\n          tag_74\n          swap1\n            /* \"Loteria/ERC20Loteria.sol\":3082:3116  balances[recipient].add(numTokens) */\n          swap2\n          swap1\n          0xffffffff\n          and\n          jump\t// in\n        tag_85:\n            /* \"Loteria/ERC20Loteria.sol\":3060:3068  balances */\n          0x00\n            /* \"Loteria/ERC20Loteria.sol\":3060:3079  balances[recipient] */\n          dup1\n            /* \"Loteria/ERC20Loteria.sol\":3069:3078  recipient */\n          dup6\n            /* \"Loteria/ERC20Loteria.sol\":3060:3079  balances[recipient] */\n          0xffffffffffffffffffffffffffffffffffffffff\n          and\n          0xffffffffffffffffffffffffffffffffffffffff\n          and\n          dup2\n          mstore\n          0x20\n          add\n          swap1\n          dup2\n          mstore\n          0x20\n          add\n          0x00\n          keccak256\n            /* \"Loteria/ERC20Loteria.sol\":3060:3116  balances[recipient] = balances[recipient].add(numTokens) */\n          dup2\n          swap1\n          sstore\n          pop\n            /* \"Loteria/ERC20Loteria.sol\":3155:3164  recipient */\n          dup3\n            /* \"Loteria/ERC20Loteria.sol\":3134:3176  Transfer(msg.sender, recipient, numTokens) */\n          0xffffffffffffffffffffffffffffffffffffffff\n          and\n            /* \"Loteria/ERC20Loteria.sol\":3143:3153  msg.sender */\n          caller\n            /* \"Loteria/ERC20Loteria.sol\":3134:3176  Transfer(msg.sender, recipient, numTokens) */\n          0xffffffffffffffffffffffffffffffffffffffff\n          and\n          0xddf252ad1be2c89b69c2b068fc378daa952ba7f163c4a11628f55a4df523b3ef\n            /* \"Loteria/ERC20Loteria.sol\":3166:3175  numTokens */\n          dup5\n            /* \"Loteria/ERC20Loteria.sol\":3134:3176  Transfer(msg.sender, recipient, numTokens) */\n          mload(0x40)\n          tag_86\n          swap2\n          swap1\n          tag_28\n          jump\t// in\n        tag_86:\n          mload(0x40)\n          dup1\n          swap2\n          sub\n          swap1\n          log3\n            /* \"Loteria/ERC20Loteria.sol\":3196:3200  true */\n          0x01\n            /* \"Loteria/ERC20Loteria.sol\":3189:3200  return true */\n          swap1\n          pop\n            /* \"Loteria/ERC20Loteria.sol\":2837:3208  function transfer(address recipient, uint256 numTokens) public override returns(bool) {\r... */\n          swap3\n          swap2\n          pop\n          pop\n          jump\t// out\n            /* \"Loteria/ERC20Loteria.sol\":2690:2829  function allowance(address owner, address spender) public override view returns (uint256) {\r... */\n        tag_61:\n            /* \"Loteria/ERC20Loteria.sol\":2771:2778  uint256 */\n          0x00\n            /* \"Loteria/ERC20Loteria.sol\":2798:2805  allowed */\n          0x01\n            /* \"Loteria/ERC20Loteria.sol\":2798:2812  allowed[owner] */\n          0x00\n            /* \"Loteria/ERC20Loteria.sol\":2806:2811  owner */\n          dup5\n            /* \"Loteria/ERC20Loteria.sol\":2798:2812  allowed[owner] */\n          0xffffffffffffffffffffffffffffffffffffffff\n          and\n          0xffffffffffffffffffffffffffffffffffffffff\n          and\n          dup2\n          mstore\n          0x20\n          add\n          swap1\n          dup2\n          mstore\n          0x20\n          add\n          0x00\n          keccak256\n            /* \"Loteria/ERC20Loteria.sol\":2798:2821  allowed[owner][spender] */\n          0x00\n            /* \"Loteria/ERC20Loteria.sol\":2813:2820  spender */\n          dup4\n            /* \"Loteria/ERC20Loteria.sol\":2798:2821  allowed[owner][spender] */\n          0xffffffffffffffffffffffffffffffffffffffff\n          and\n          0xffffffffffffffffffffffffffffffffffffffff\n          and\n          dup2\n          mstore\n          0x20\n          add\n          swap1\n          dup2\n          mstore\n          0x20\n          add\n          0x00\n          keccak256\n          sload\n            /* \"Loteria/ERC20Loteria.sol\":2791:2821  return allowed[owner][spender] */\n          swap1\n          pop\n            /* \"Loteria/ERC20Loteria.sol\":2690:2829  function allowance(address owner, address spender) public override view returns (uint256) {\r... */\n          swap3\n          swap2\n          pop\n          pop\n          jump\t// out\n            /* \"Loteria/SafeMath.sol\":318:437  function sub(uint256 a, uint256 b) internal pure returns (uint256) {\r... */\n        tag_71:\n            /* \"Loteria/SafeMath.sol\":376:383  uint256 */\n          0x00\n            /* \"Loteria/SafeMath.sol\":406:407  a */\n          dup3\n            /* \"Loteria/SafeMath.sol\":401:402  b */\n          dup3\n            /* \"Loteria/SafeMath.sol\":401:407  b <= a */\n          gt\n          iszero\n            /* \"Loteria/SafeMath.sol\":394:408  assert(b <= a) */\n          tag_89\n          jumpi\n          invalid\n        tag_89:\n            /* \"Loteria/SafeMath.sol\":428:429  b */\n          dup2\n            /* \"Loteria/SafeMath.sol\":424:425  a */\n          dup4\n            /* \"Loteria/SafeMath.sol\":424:429  a - b */\n          sub\n            /* \"Loteria/SafeMath.sol\":417:429  return a - b */\n          swap1\n          pop\n            /* \"Loteria/SafeMath.sol\":318:437  function sub(uint256 a, uint256 b) internal pure returns (uint256) {\r... */\n          swap3\n          swap2\n          pop\n          pop\n          jump\t// out\n            /* \"Loteria/SafeMath.sol\":463:604  function add(uint256 a, uint256 b) internal pure returns (uint256) {\r... */\n        tag_74:\n            /* \"Loteria/SafeMath.sol\":521:528  uint256 */\n          0x00\n            /* \"Loteria/SafeMath.sol\":539:548  uint256 c */\n          dup1\n            /* \"Loteria/SafeMath.sol\":555:556  b */\n          dup3\n            /* \"Loteria/SafeMath.sol\":551:552  a */\n          dup5\n            /* \"Loteria/SafeMath.sol\":551:556  a + b */\n          add\n            /* \"Loteria/SafeMath.sol\":539:556  uint256 c = a + b */\n          swap1\n          pop\n            /* \"Loteria/SafeMath.sol\":577:578  a */\n          dup4\n            /* \"Loteria/SafeMath.sol\":572:573  c */\n          dup2\n            /* \"Loteria/SafeMath.sol\":572:578  c >= a */\n          lt\n          iszero\n            /* \"Loteria/SafeMath.sol\":565:579  assert(c >= a) */\n          tag_91\n          jumpi\n          invalid\n        tag_91:\n            /* \"Loteria/SafeMath.sol\":595:596  c */\n          dup1\n            /* \"Loteria/SafeMath.sol\":588:596  return c */\n          swap2\n          pop\n          pop\n            /* \"Loteria/SafeMath.sol\":463:604  function add(uint256 a, uint256 b) internal pure returns (uint256) {\r... */\n          swap3\n          swap2\n          pop\n          pop\n          jump\t// out\n            /* \"--CODEGEN--\":5:135   */\n        tag_93:\n          0x00\n            /* \"--CODEGEN--\":85:91   */\n          dup2\n            /* \"--CODEGEN--\":72:92   */\n          calldataload\n            /* \"--CODEGEN--\":63:92   */\n          swap1\n          pop\n            /* \"--CODEGEN--\":97:130   */\n          tag_95\n            /* \"--CODEGEN--\":124:129   */\n          dup2\n            /* \"--CODEGEN--\":97:130   */\n          tag_96\n          jump\t// in\n        tag_95:\n            /* \"--CODEGEN--\":57:135   */\n          swap3\n          swap2\n          pop\n          pop\n          jump\t// out\n            /* \"--CODEGEN--\":142:272   */\n        tag_97:\n          0x00\n            /* \"--CODEGEN--\":222:228   */\n          dup2\n            /* \"--CODEGEN--\":209:229   */\n          calldataload\n            /* \"--CODEGEN--\":200:229   */\n          swap1\n          pop\n            /* \"--CODEGEN--\":234:267   */\n          tag_99\n            /* \"--CODEGEN--\":261:266   */\n          dup2\n            /* \"--CODEGEN--\":234:267   */\n          tag_100\n          jump\t// in\n        tag_99:\n            /* \"--CODEGEN--\":194:272   */\n          swap3\n          swap2\n          pop\n          pop\n          jump\t// out\n            /* \"--CODEGEN--\":279:520   */\n        tag_48:\n          0x00\n            /* \"--CODEGEN--\":383:385   */\n          0x20\n            /* \"--CODEGEN--\":371:380   */\n          dup3\n            /* \"--CODEGEN--\":362:369   */\n          dup5\n            /* \"--CODEGEN--\":358:381   */\n          sub\n            /* \"--CODEGEN--\":354:386   */\n          slt\n            /* \"--CODEGEN--\":351:353   */\n          iszero\n          tag_102\n          jumpi\n            /* \"--CODEGEN--\":399:400   */\n          0x00\n            /* \"--CODEGEN--\":396:397   */\n          dup1\n            /* \"--CODEGEN--\":389:401   */\n          revert\n            /* \"--CODEGEN--\":351:353   */\n        tag_102:\n            /* \"--CODEGEN--\":434:435   */\n          0x00\n            /* \"--CODEGEN--\":451:504   */\n          tag_103\n            /* \"--CODEGEN--\":496:503   */\n          dup5\n            /* \"--CODEGEN--\":487:493   */\n          dup3\n            /* \"--CODEGEN--\":476:485   */\n          dup6\n            /* \"--CODEGEN--\":472:494   */\n          add\n            /* \"--CODEGEN--\":451:504   */\n          tag_93\n          jump\t// in\n        tag_103:\n            /* \"--CODEGEN--\":441:504   */\n          swap2\n          pop\n            /* \"--CODEGEN--\":413:510   */\n          pop\n            /* \"--CODEGEN--\":345:520   */\n          swap3\n          swap2\n          pop\n          pop\n          jump\t// out\n            /* \"--CODEGEN--\":527:893   */\n        tag_60:\n          0x00\n          dup1\n            /* \"--CODEGEN--\":648:650   */\n          0x40\n            /* \"--CODEGEN--\":636:645   */\n          dup4\n            /* \"--CODEGEN--\":627:634   */\n          dup6\n            /* \"--CODEGEN--\":623:646   */\n          sub\n            /* \"--CODEGEN--\":619:651   */\n          slt\n            /* \"--CODEGEN--\":616:618   */\n          iszero\n          tag_105\n          jumpi\n            /* \"--CODEGEN--\":664:665   */\n          0x00\n            /* \"--CODEGEN--\":661:662   */\n          dup1\n            /* \"--CODEGEN--\":654:666   */\n          revert\n            /* \"--CODEGEN--\":616:618   */\n        tag_105:\n            /* \"--CODEGEN--\":699:700   */\n          0x00\n            /* \"--CODEGEN--\":716:769   */\n          tag_106\n            /* \"--CODEGEN--\":761:768   */\n          dup6\n            /* \"--CODEGEN--\":752:758   */\n          dup3\n            /* \"--CODEGEN--\":741:750   */\n          dup7\n            /* \"--CODEGEN--\":737:759   */\n          add\n            /* \"--CODEGEN--\":716:769   */\n          tag_93\n          jump\t// in\n        tag_106:\n            /* \"--CODEGEN--\":706:769   */\n          swap3\n          pop\n            /* \"--CODEGEN--\":678:775   */\n          pop\n            /* \"--CODEGEN--\":806:808   */\n          0x20\n            /* \"--CODEGEN--\":824:877   */\n          tag_107\n            /* \"--CODEGEN--\":869:876   */\n          dup6\n            /* \"--CODEGEN--\":860:866   */\n          dup3\n            /* \"--CODEGEN--\":849:858   */\n          dup7\n            /* \"--CODEGEN--\":845:867   */\n          add\n            /* \"--CODEGEN--\":824:877   */\n          tag_93\n          jump\t// in\n        tag_107:\n            /* \"--CODEGEN--\":814:877   */\n          swap2\n          pop\n            /* \"--CODEGEN--\":785:883   */\n          pop\n            /* \"--CODEGEN--\":610:893   */\n          swap3\n          pop\n          swap3\n          swap1\n          pop\n          jump\t// out\n            /* \"--CODEGEN--\":900:1391   */\n        tag_35:\n          0x00\n          dup1\n          0x00\n            /* \"--CODEGEN--\":1038:1040   */\n          0x60\n            /* \"--CODEGEN--\":1026:1035   */\n          dup5\n            /* \"--CODEGEN--\":1017:1024   */\n          dup7\n            /* \"--CODEGEN--\":1013:1036   */\n          sub\n            /* \"--CODEGEN--\":1009:1041   */\n          slt\n            /* \"--CODEGEN--\":1006:1008   */\n          iszero\n          tag_109\n          jumpi\n            /* \"--CODEGEN--\":1054:1055   */\n          0x00\n            /* \"--CODEGEN--\":1051:1052   */\n          dup1\n            /* \"--CODEGEN--\":1044:1056   */\n          revert\n            /* \"--CODEGEN--\":1006:1008   */\n        tag_109:\n            /* \"--CODEGEN--\":1089:1090   */\n          0x00\n            /* \"--CODEGEN--\":1106:1159   */\n          tag_110\n            /* \"--CODEGEN--\":1151:1158   */\n          dup7\n            /* \"--CODEGEN--\":1142:1148   */\n          dup3\n            /* \"--CODEGEN--\":1131:1140   */\n          dup8\n            /* \"--CODEGEN--\":1127:1149   */\n          add\n            /* \"--CODEGEN--\":1106:1159   */\n          tag_93\n          jump\t// in\n        tag_110:\n            /* \"--CODEGEN--\":1096:1159   */\n          swap4\n          pop\n            /* \"--CODEGEN--\":1068:1165   */\n          pop\n            /* \"--CODEGEN--\":1196:1198   */\n          0x20\n            /* \"--CODEGEN--\":1214:1267   */\n          tag_111\n            /* \"--CODEGEN--\":1259:1266   */\n          dup7\n            /* \"--CODEGEN--\":1250:1256   */\n          dup3\n            /* \"--CODEGEN--\":1239:1248   */\n          dup8\n            /* \"--CODEGEN--\":1235:1257   */\n          add\n            /* \"--CODEGEN--\":1214:1267   */\n          tag_93\n          jump\t// in\n        tag_111:\n            /* \"--CODEGEN--\":1204:1267   */\n          swap3\n          pop\n            /* \"--CODEGEN--\":1175:1273   */\n          pop\n            /* \"--CODEGEN--\":1304:1306   */\n          0x40\n            /* \"--CODEGEN--\":1322:1375   */\n          tag_112\n            /* \"--CODEGEN--\":1367:1374   */\n          dup7\n            /* \"--CODEGEN--\":1358:1364   */\n          dup3\n            /* \"--CODEGEN--\":1347:1356   */\n          dup8\n            /* \"--CODEGEN--\":1343:1365   */\n          add\n            /* \"--CODEGEN--\":1322:1375   */\n          tag_97\n          jump\t// in\n        tag_112:\n            /* \"--CODEGEN--\":1312:1375   */\n          swap2\n          pop\n            /* \"--CODEGEN--\":1283:1381   */\n          pop\n            /* \"--CODEGEN--\":1000:1391   */\n          swap3\n          pop\n          swap3\n          pop\n          swap3\n          jump\t// out\n            /* \"--CODEGEN--\":1398:1764   */\n        tag_21:\n          0x00\n          dup1\n            /* \"--CODEGEN--\":1519:1521   */\n          0x40\n            /* \"--CODEGEN--\":1507:1516   */\n          dup4\n            /* \"--CODEGEN--\":1498:1505   */\n          dup6\n            /* \"--CODEGEN--\":1494:1517   */\n          sub\n            /* \"--CODEGEN--\":1490:1522   */\n          slt\n            /* \"--CODEGEN--\":1487:1489   */\n          iszero\n          tag_114\n          jumpi\n            /* \"--CODEGEN--\":1535:1536   */\n          0x00\n            /* \"--CODEGEN--\":1532:1533   */\n          dup1\n            /* \"--CODEGEN--\":1525:1537   */\n          revert\n            /* \"--CODEGEN--\":1487:1489   */\n        tag_114:\n            /* \"--CODEGEN--\":1570:1571   */\n          0x00\n            /* \"--CODEGEN--\":1587:1640   */\n          tag_115\n            /* \"--CODEGEN--\":1632:1639   */\n          dup6\n            /* \"--CODEGEN--\":1623:1629   */\n          dup3\n            /* \"--CODEGEN--\":1612:1621   */\n          dup7\n            /* \"--CODEGEN--\":1608:1630   */\n          add\n            /* \"--CODEGEN--\":1587:1640   */\n          tag_93\n          jump\t// in\n        tag_115:\n            /* \"--CODEGEN--\":1577:1640   */\n          swap3\n          pop\n            /* \"--CODEGEN--\":1549:1646   */\n          pop\n            /* \"--CODEGEN--\":1677:1679   */\n          0x20\n            /* \"--CODEGEN--\":1695:1748   */\n          tag_116\n            /* \"--CODEGEN--\":1740:1747   */\n          dup6\n            /* \"--CODEGEN--\":1731:1737   */\n          dup3\n            /* \"--CODEGEN--\":1720:1729   */\n          dup7\n            /* \"--CODEGEN--\":1716:1738   */\n          add\n            /* \"--CODEGEN--\":1695:1748   */\n          tag_97\n          jump\t// in\n        tag_116:\n            /* \"--CODEGEN--\":1685:1748   */\n          swap2\n          pop\n            /* \"--CODEGEN--\":1656:1754   */\n          pop\n            /* \"--CODEGEN--\":1481:1764   */\n          swap3\n          pop\n          swap3\n          swap1\n          pop\n          jump\t// out\n            /* \"--CODEGEN--\":1771:2012   */\n        tag_31:\n          0x00\n            /* \"--CODEGEN--\":1875:1877   */\n          0x20\n            /* \"--CODEGEN--\":1863:1872   */\n          dup3\n            /* \"--CODEGEN--\":1854:1861   */\n          dup5\n            /* \"--CODEGEN--\":1850:1873   */\n          sub\n            /* \"--CODEGEN--\":1846:1878   */\n          slt\n            /* \"--CODEGEN--\":1843:1845   */\n          iszero\n          tag_118\n          jumpi\n            /* \"--CODEGEN--\":1891:1892   */\n          0x00\n            /* \"--CODEGEN--\":1888:1889   */\n          dup1\n            /* \"--CODEGEN--\":1881:1893   */\n          revert\n            /* \"--CODEGEN--\":1843:1845   */\n        tag_118:\n            /* \"--CODEGEN--\":1926:1927   */\n          0x00\n            /* \"--CODEGEN--\":1943:1996   */\n          tag_119\n            /* \"--CODEGEN--\":1988:1995   */\n          dup5\n            /* \"--CODEGEN--\":1979:1985   */\n          dup3\n            /* \"--CODEGEN--\":1968:1977   */\n          dup6\n            /* \"--CODEGEN--\":1964:1986   */\n          add\n            /* \"--CODEGEN--\":1943:1996   */\n          tag_97\n          jump\t// in\n        tag_119:\n            /* \"--CODEGEN--\":1933:1996   */\n          swap2\n          pop\n            /* \"--CODEGEN--\":1905:2002   */\n          pop\n            /* \"--CODEGEN--\":1837:2012   */\n          swap3\n          swap2\n          pop\n          pop\n          jump\t// out\n            /* \"--CODEGEN--\":2019:2123   */\n        tag_120:\n            /* \"--CODEGEN--\":2096:2117   */\n          tag_122\n            /* \"--CODEGEN--\":2111:2116   */\n          dup2\n            /* \"--CODEGEN--\":2096:2117   */\n          tag_123\n          jump\t// in\n        tag_122:\n            /* \"--CODEGEN--\":2091:2094   */\n          dup3\n            /* \"--CODEGEN--\":2084:2118   */\n          mstore\n            /* \"--CODEGEN--\":2078:2123   */\n          pop\n          pop\n          jump\t// out\n            /* \"--CODEGEN--\":2130:2477   */\n        tag_124:\n          0x00\n            /* \"--CODEGEN--\":2242:2281   */\n          tag_126\n            /* \"--CODEGEN--\":2275:2280   */\n          dup3\n            /* \"--CODEGEN--\":2242:2281   */\n          tag_127\n          jump\t// in\n        tag_126:\n            /* \"--CODEGEN--\":2293:2364   */\n          tag_128\n            /* \"--CODEGEN--\":2357:2363   */\n          dup2\n            /* \"--CODEGEN--\":2352:2355   */\n          dup6\n            /* \"--CODEGEN--\":2293:2364   */\n          tag_129\n          jump\t// in\n        tag_128:\n            /* \"--CODEGEN--\":2286:2364   */\n          swap4\n          pop\n            /* \"--CODEGEN--\":2369:2421   */\n          tag_130\n            /* \"--CODEGEN--\":2414:2420   */\n          dup2\n            /* \"--CODEGEN--\":2409:2412   */\n          dup6\n            /* \"--CODEGEN--\":2402:2406   */\n          0x20\n            /* \"--CODEGEN--\":2395:2400   */\n          dup7\n            /* \"--CODEGEN--\":2391:2407   */\n          add\n            /* \"--CODEGEN--\":2369:2421   */\n          tag_131\n          jump\t// in\n        tag_130:\n            /* \"--CODEGEN--\":2442:2471   */\n          tag_132\n            /* \"--CODEGEN--\":2464:2470   */\n          dup2\n            /* \"--CODEGEN--\":2442:2471   */\n          tag_133\n          jump\t// in\n        tag_132:\n            /* \"--CODEGEN--\":2437:2440   */\n          dup5\n            /* \"--CODEGEN--\":2433:2472   */\n          add\n            /* \"--CODEGEN--\":2426:2472   */\n          swap2\n          pop\n            /* \"--CODEGEN--\":2222:2477   */\n          pop\n          swap3\n          swap2\n          pop\n          pop\n          jump\t// out\n            /* \"--CODEGEN--\":2484:2597   */\n        tag_134:\n            /* \"--CODEGEN--\":2567:2591   */\n          tag_136\n            /* \"--CODEGEN--\":2585:2590   */\n          dup2\n            /* \"--CODEGEN--\":2567:2591   */\n          tag_137\n          jump\t// in\n        tag_136:\n            /* \"--CODEGEN--\":2562:2565   */\n          dup3\n            /* \"--CODEGEN--\":2555:2592   */\n          mstore\n            /* \"--CODEGEN--\":2549:2597   */\n          pop\n          pop\n          jump\t// out\n            /* \"--CODEGEN--\":2604:2711   */\n        tag_138:\n            /* \"--CODEGEN--\":2683:2705   */\n          tag_140\n            /* \"--CODEGEN--\":2699:2704   */\n          dup2\n            /* \"--CODEGEN--\":2683:2705   */\n          tag_141\n          jump\t// in\n        tag_140:\n            /* \"--CODEGEN--\":2678:2681   */\n          dup3\n            /* \"--CODEGEN--\":2671:2706   */\n          mstore\n            /* \"--CODEGEN--\":2665:2711   */\n          pop\n          pop\n          jump\t// out\n            /* \"--CODEGEN--\":2718:2928   */\n        tag_24:\n          0x00\n            /* \"--CODEGEN--\":2839:2841   */\n          0x20\n            /* \"--CODEGEN--\":2828:2837   */\n          dup3\n            /* \"--CODEGEN--\":2824:2842   */\n          add\n            /* \"--CODEGEN--\":2816:2842   */\n          swap1\n          pop\n            /* \"--CODEGEN--\":2853:2918   */\n          tag_143\n            /* \"--CODEGEN--\":2915:2916   */\n          0x00\n            /* \"--CODEGEN--\":2904:2913   */\n          dup4\n            /* \"--CODEGEN--\":2900:2917   */\n          add\n            /* \"--CODEGEN--\":2891:2897   */\n          dup5\n            /* \"--CODEGEN--\":2853:2918   */\n          tag_120\n          jump\t// in\n        tag_143:\n            /* \"--CODEGEN--\":2810:2928   */\n          swap3\n          swap2\n          pop\n          pop\n          jump\t// out\n            /* \"--CODEGEN--\":2935:3245   */\n        tag_18:\n          0x00\n            /* \"--CODEGEN--\":3082:3084   */\n          0x20\n            /* \"--CODEGEN--\":3071:3080   */\n          dup3\n            /* \"--CODEGEN--\":3067:3085   */\n          add\n            /* \"--CODEGEN--\":3059:3085   */\n          swap1\n          pop\n            /* \"--CODEGEN--\":3132:3141   */\n          dup2\n            /* \"--CODEGEN--\":3126:3130   */\n          dup2\n            /* \"--CODEGEN--\":3122:3142   */\n          sub\n            /* \"--CODEGEN--\":3118:3119   */\n          0x00\n            /* \"--CODEGEN--\":3107:3116   */\n          dup4\n            /* \"--CODEGEN--\":3103:3120   */\n          add\n            /* \"--CODEGEN--\":3096:3143   */\n          mstore\n            /* \"--CODEGEN--\":3157:3235   */\n          tag_145\n            /* \"--CODEGEN--\":3230:3234   */\n          dup2\n            /* \"--CODEGEN--\":3221:3227   */\n          dup5\n            /* \"--CODEGEN--\":3157:3235   */\n          tag_124\n          jump\t// in\n        tag_145:\n            /* \"--CODEGEN--\":3149:3235   */\n          swap1\n          pop\n            /* \"--CODEGEN--\":3053:3245   */\n          swap3\n          swap2\n          pop\n          pop\n          jump\t// out\n            /* \"--CODEGEN--\":3252:3474   */\n        tag_28:\n          0x00\n            /* \"--CODEGEN--\":3379:3381   */\n          0x20\n            /* \"--CODEGEN--\":3368:3377   */\n          dup3\n            /* \"--CODEGEN--\":3364:3382   */\n          add\n            /* \"--CODEGEN--\":3356:3382   */\n          swap1\n          pop\n            /* \"--CODEGEN--\":3393:3464   */\n          tag_147\n            /* \"--CODEGEN--\":3461:3462   */\n          0x00\n            /* \"--CODEGEN--\":3450:3459   */\n          dup4\n            /* \"--CODEGEN--\":3446:3463   */\n          add\n            /* \"--CODEGEN--\":3437:3443   */\n          dup5\n            /* \"--CODEGEN--\":3393:3464   */\n          tag_134\n          jump\t// in\n        tag_147:\n            /* \"--CODEGEN--\":3350:3474   */\n          swap3\n          swap2\n          pop\n          pop\n          jump\t// out\n            /* \"--CODEGEN--\":3481:3695   */\n        tag_41:\n          0x00\n            /* \"--CODEGEN--\":3604:3606   */\n          0x20\n            /* \"--CODEGEN--\":3593:3602   */\n          dup3\n            /* \"--CODEGEN--\":3589:3607   */\n          add\n            /* \"--CODEGEN--\":3581:3607   */\n          swap1\n          pop\n            /* \"--CODEGEN--\":3618:3685   */\n          tag_149\n            /* \"--CODEGEN--\":3682:3683   */\n          0x00\n            /* \"--CODEGEN--\":3671:3680   */\n          dup4\n            /* \"--CODEGEN--\":3667:3684   */\n          add\n            /* \"--CODEGEN--\":3658:3664   */\n          dup5\n            /* \"--CODEGEN--\":3618:3685   */\n          tag_138\n          jump\t// in\n        tag_149:\n            /* \"--CODEGEN--\":3575:3695   */\n          swap3\n          swap2\n          pop\n          pop\n          jump\t// out\n            /* \"--CODEGEN--\":3702:3824   */\n        tag_127:\n          0x00\n            /* \"--CODEGEN--\":3796:3801   */\n          dup2\n            /* \"--CODEGEN--\":3790:3802   */\n          mload\n            /* \"--CODEGEN--\":3780:3802   */\n          swap1\n          pop\n            /* \"--CODEGEN--\":3761:3824   */\n          swap2\n          swap1\n          pop\n          jump\t// out\n            /* \"--CODEGEN--\":3832:3995   */\n        tag_129:\n          0x00\n            /* \"--CODEGEN--\":3947:3953   */\n          dup3\n            /* \"--CODEGEN--\":3942:3945   */\n          dup3\n            /* \"--CODEGEN--\":3935:3954   */\n          mstore\n            /* \"--CODEGEN--\":3984:3988   */\n          0x20\n            /* \"--CODEGEN--\":3979:3982   */\n          dup3\n            /* \"--CODEGEN--\":3975:3989   */\n          add\n            /* \"--CODEGEN--\":3960:3989   */\n          swap1\n          pop\n            /* \"--CODEGEN--\":3928:3995   */\n          swap3\n          swap2\n          pop\n          pop\n          jump\t// out\n            /* \"--CODEGEN--\":4003:4094   */\n        tag_152:\n          0x00\n            /* \"--CODEGEN--\":4065:4089   */\n          tag_154\n            /* \"--CODEGEN--\":4083:4088   */\n          dup3\n            /* \"--CODEGEN--\":4065:4089   */\n          tag_155\n          jump\t// in\n        tag_154:\n            /* \"--CODEGEN--\":4054:4089   */\n          swap1\n          pop\n            /* \"--CODEGEN--\":4048:4094   */\n          swap2\n          swap1\n          pop\n          jump\t// out\n            /* \"--CODEGEN--\":4101:4186   */\n        tag_123:\n          0x00\n            /* \"--CODEGEN--\":4174:4179   */\n          dup2\n            /* \"--CODEGEN--\":4167:4180   */\n          iszero\n            /* \"--CODEGEN--\":4160:4181   */\n          iszero\n            /* \"--CODEGEN--\":4149:4181   */\n          swap1\n          pop\n            /* \"--CODEGEN--\":4143:4186   */\n          swap2\n          swap1\n          pop\n          jump\t// out\n            /* \"--CODEGEN--\":4193:4314   */\n        tag_155:\n          0x00\n            /* \"--CODEGEN--\":4266:4308   */\n          0xffffffffffffffffffffffffffffffffffffffff\n            /* \"--CODEGEN--\":4259:4264   */\n          dup3\n            /* \"--CODEGEN--\":4255:4309   */\n          and\n            /* \"--CODEGEN--\":4244:4309   */\n          swap1\n          pop\n            /* \"--CODEGEN--\":4238:4314   */\n          swap2\n          swap1\n          pop\n          jump\t// out\n            /* \"--CODEGEN--\":4321:4393   */\n        tag_137:\n          0x00\n            /* \"--CODEGEN--\":4383:4388   */\n          dup2\n            /* \"--CODEGEN--\":4372:4388   */\n          swap1\n          pop\n            /* \"--CODEGEN--\":4366:4393   */\n          swap2\n          swap1\n          pop\n          jump\t// out\n            /* \"--CODEGEN--\":4400:4481   */\n        tag_141:\n          0x00\n            /* \"--CODEGEN--\":4471:4475   */\n          0xff\n            /* \"--CODEGEN--\":4464:4469   */\n          dup3\n            /* \"--CODEGEN--\":4460:4476   */\n          and\n            /* \"--CODEGEN--\":4449:4476   */\n          swap1\n          pop\n            /* \"--CODEGEN--\":4443:4481   */\n          swap2\n          swap1\n          pop\n          jump\t// out\n            /* \"--CODEGEN--\":4489:4757   */\n        tag_131:\n            /* \"--CODEGEN--\":4554:4555   */\n          0x00\n            /* \"--CODEGEN--\":4561:4662   */\n        tag_161:\n            /* \"--CODEGEN--\":4575:4581   */\n          dup4\n            /* \"--CODEGEN--\":4572:4573   */\n          dup2\n            /* \"--CODEGEN--\":4569:4582   */\n          lt\n            /* \"--CODEGEN--\":4561:4662   */\n          iszero\n          tag_163\n          jumpi\n            /* \"--CODEGEN--\":4651:4652   */\n          dup1\n            /* \"--CODEGEN--\":4646:4649   */\n          dup3\n            /* \"--CODEGEN--\":4642:4653   */\n          add\n            /* \"--CODEGEN--\":4636:4654   */\n          mload\n            /* \"--CODEGEN--\":4632:4633   */\n          dup2\n            /* \"--CODEGEN--\":4627:4630   */\n          dup5\n            /* \"--CODEGEN--\":4623:4634   */\n          add\n            /* \"--CODEGEN--\":4616:4655   */\n          mstore\n            /* \"--CODEGEN--\":4597:4599   */\n          0x20\n            /* \"--CODEGEN--\":4594:4595   */\n          dup2\n            /* \"--CODEGEN--\":4590:4600   */\n          add\n            /* \"--CODEGEN--\":4585:4600   */\n          swap1\n          pop\n            /* \"--CODEGEN--\":4561:4662   */\n          jump(tag_161)\n        tag_163:\n            /* \"--CODEGEN--\":4677:4683   */\n          dup4\n            /* \"--CODEGEN--\":4674:4675   */\n          dup2\n            /* \"--CODEGEN--\":4671:4684   */\n          gt\n            /* \"--CODEGEN--\":4668:4670   */\n          iszero\n          tag_164\n          jumpi\n            /* \"--CODEGEN--\":4742:4743   */\n          0x00\n            /* \"--CODEGEN--\":4733:4739   */\n          dup5\n            /* \"--CODEGEN--\":4728:4731   */\n          dup5\n            /* \"--CODEGEN--\":4724:4740   */\n          add\n            /* \"--CODEGEN--\":4717:4744   */\n          mstore\n            /* \"--CODEGEN--\":4668:4670   */\n        tag_164:\n            /* \"--CODEGEN--\":4538:4757   */\n          pop\n          pop\n          pop\n          pop\n          jump\t// out\n            /* \"--CODEGEN--\":4765:4862   */\n        tag_133:\n          0x00\n            /* \"--CODEGEN--\":4853:4855   */\n          0x1f\n            /* \"--CODEGEN--\":4849:4856   */\n          not\n            /* \"--CODEGEN--\":4844:4846   */\n          0x1f\n            /* \"--CODEGEN--\":4837:4842   */\n          dup4\n            /* \"--CODEGEN--\":4833:4847   */\n          add\n            /* \"--CODEGEN--\":4829:4857   */\n          and\n            /* \"--CODEGEN--\":4819:4857   */\n          swap1\n          pop\n            /* \"--CODEGEN--\":4813:4862   */\n          swap2\n          swap1\n          pop\n          jump\t// out\n            /* \"--CODEGEN--\":4870:4987   */\n        tag_96:\n            /* \"--CODEGEN--\":4939:4963   */\n          tag_167\n            /* \"--CODEGEN--\":4957:4962   */\n          dup2\n            /* \"--CODEGEN--\":4939:4963   */\n          tag_152\n          jump\t// in\n        tag_167:\n            /* \"--CODEGEN--\":4932:4937   */\n          dup2\n            /* \"--CODEGEN--\":4929:4964   */\n          eq\n            /* \"--CODEGEN--\":4919:4921   */\n          tag_168\n          jumpi\n            /* \"--CODEGEN--\":4978:4979   */\n          0x00\n            /* \"--CODEGEN--\":4975:4976   */\n          dup1\n            /* \"--CODEGEN--\":4968:4980   */\n          revert\n            /* \"--CODEGEN--\":4919:4921   */\n        tag_168:\n            /* \"--CODEGEN--\":4913:4987   */\n          pop\n          jump\t// out\n            /* \"--CODEGEN--\":4994:5111   */\n        tag_100:\n            /* \"--CODEGEN--\":5063:5087   */\n          tag_170\n            /* \"--CODEGEN--\":5081:5086   */\n          dup2\n            /* \"--CODEGEN--\":5063:5087   */\n          tag_137\n          jump\t// in\n        tag_170:\n            /* \"--CODEGEN--\":5056:5061   */\n          dup2\n            /* \"--CODEGEN--\":5053:5088   */\n          eq\n            /* \"--CODEGEN--\":5043:5045   */\n          tag_171\n          jumpi\n            /* \"--CODEGEN--\":5102:5103   */\n          0x00\n            /* \"--CODEGEN--\":5099:5100   */\n          dup1\n            /* \"--CODEGEN--\":5092:5104   */\n          revert\n            /* \"--CODEGEN--\":5043:5045   */\n        tag_171:\n            /* \"--CODEGEN--\":5037:5111   */\n          pop\n          jump\t// out\n\n        auxdata: 0xa264697066735822122041924e75c6a689f4e76b488c772248149581615c89d36359b2203d117f5c45a064736f6c634300060c0033\n    }\n}\n",
				"bytecode": {
					"linkReferences": {},
					"object": "60806040526002600355600a60045560045460055560006008553480156200002657600080fd5b50612710604051620000389062000129565b62000044919062000148565b604051809103906000f08015801562000061573d6000803e3d6000fd5b506000806101000a81548173ffffffffffffffffffffffffffffffffffffffff021916908373ffffffffffffffffffffffffffffffffffffffff16021790555033600160006101000a81548173ffffffffffffffffffffffffffffffffffffffff021916908373ffffffffffffffffffffffffffffffffffffffff16021790555030600260006101000a81548173ffffffffffffffffffffffffffffffffffffffff021916908373ffffffffffffffffffffffffffffffffffffffff16021790555062000183565b61109d8062001ac283390190565b62000142816200016f565b82525050565b60006020820190506200015f600083018462000137565b92915050565b6000819050919050565b60006200017c8262000165565b9050919050565b61192f80620001936000396000f3fe6080604052600436106100c25760003560e01c80637cb5946d1161007f578063e1a01e6711610059578063e1a01e6714610223578063e33f34a01461024e578063f777409114610279578063fd889ff514610295576100c2565b80637cb5946d146101a45780637cd15f44146101cf5780638da5cb5b146101f8576100c2565b80631246f6e2146100c75780631890154c146100f057806327909f271461010c5780635332eee514610137578063741898611461014e57806379face2614610179575b600080fd5b3480156100d357600080fd5b506100ee60048036038101906100e991906111bd565b6102c0565b005b61010a600480360381019061010591906111bd565b6103e0565b005b34801561011857600080fd5b50610121610565565b60405161012e9190611772565b60405180910390f35b34801561014357600080fd5b5061014c61056b565b005b34801561015a57600080fd5b506101636107dd565b6040516101709190611772565b60405180910390f35b34801561018557600080fd5b5061018e6108b0565b60405161019b9190611655565b60405180910390f35b3480156101b057600080fd5b506101b9610945565b6040516101c69190611677565b60405180910390f35b3480156101db57600080fd5b506101f660048036038101906101f191906111bd565b610990565b005b34801561020457600080fd5b5061020d610d02565b60405161021a9190611588565b60405180910390f35b34801561022f57600080fd5b50610238610d28565b6040516102459190611588565b60405180910390f35b34801561025a57600080fd5b50610263610d4e565b6040516102709190611772565b60405180910390f35b610293600480360381019061028e91906111bd565b610dff565b005b3480156102a157600080fd5b506102aa611090565b6040516102b79190611772565b60405180910390f35b33600160009054906101000a900473ffffffffffffffffffffffffffffffffffffffff1673ffffffffffffffffffffffffffffffffffffffff168173ffffffffffffffffffffffffffffffffffffffff1614610351576040517f08c379a0000000000000000000000000000000000000000000000000000000008152600401610348906116f2565b60405180910390fd5b60008054906101000a900473ffffffffffffffffffffffffffffffffffffffff1673ffffffffffffffffffffffffffffffffffffffff16631d43cc98836040518263ffffffff1660e01b81526004016103aa9190611772565b600060405180830381600087803b1580156103c457600080fd5b505af11580156103d8573d6000803e3d6000fd5b505050505050565b6103e8610d4e565b81111561042a576040517f08c379a0000000000000000000000000000000000000000000000000000000008152600401610421906116b2565b60405180910390fd5b60008054906101000a900473ffffffffffffffffffffffffffffffffffffffff1673ffffffffffffffffffffffffffffffffffffffff16635c79febb3330846040518463ffffffff1660e01b8152600401610487939291906115be565b602060405180830381600087803b1580156104a157600080fd5b505af11580156104b5573d6000803e3d6000fd5b505050506040513d601f19601f820116820180604052508101906104d99190611194565b503373ffffffffffffffffffffffffffffffffffffffff166108fc6104fd83611141565b9081150290604051600060405180830381858888f19350505050158015610528573d6000803e3d6000fd5b507fedb4e62d28b4facd6d91f70625ac1ea2c1a9cac0ecc3e638b50633575d818a4e813360405161055a92919061178d565b60405180910390a150565b60035481565b33600160009054906101000a900473ffffffffffffffffffffffffffffffffffffffff1673ffffffffffffffffffffffffffffffffffffffff168173ffffffffffffffffffffffffffffffffffffffff16146105fc576040517f08c379a00000000000000000000000000000000000000000000000000000000081526004016105f3906116f2565b60405180910390fd5b600060098054905011610644576040517f08c379a000000000000000000000000000000000000000000000000000000000815260040161063b90611752565b60405180910390fd5b6000600980805490504260405160200161065e9190611530565b6040516020818303038152906040528051906020012060001c8161067e57fe5b068154811061068957fe5b906000526020600020015490507f7ae8aa8a76009e9379a432b67d892b6006479447de6892c862ce780785a2387d816040516106c59190611772565b60405180910390a160008054906101000a900473ffffffffffffffffffffffffffffffffffffffff1673ffffffffffffffffffffffffffffffffffffffff16635c79febb600160009054906101000a900473ffffffffffffffffffffffffffffffffffffffff166007600085815260200190815260200160002060009054906101000a900473ffffffffffffffffffffffffffffffffffffffff166107686107dd565b6040518463ffffffff1660e01b81526004016107869392919061161e565b602060405180830381600087803b1580156107a057600080fd5b505af11580156107b4573d6000803e3d6000fd5b505050506040513d601f19601f820116820180604052508101906107d89190611194565b505050565b60008060009054906101000a900473ffffffffffffffffffffffffffffffffffffffff1673ffffffffffffffffffffffffffffffffffffffff166370a08231600160009054906101000a900473ffffffffffffffffffffffffffffffffffffffff166040518263ffffffff1660e01b815260040161085b9190611588565b60206040518083038186803b15801561087357600080fd5b505afa158015610887573d6000803e3d6000fd5b505050506040513d601f19601f820116820180604052508101906108ab91906111e6565b905090565b6060600660003373ffffffffffffffffffffffffffffffffffffffff1673ffffffffffffffffffffffffffffffffffffffff16815260200190815260200160002080548060200260200160405190810160405280929190818152602001828054801561093b57602002820191906000526020600020905b815481526020019060010190808311610927575b5050505050905090565b600080600073ffffffffffffffffffffffffffffffffffffffff168173ffffffffffffffffffffffffffffffffffffffff16141561098757600191505061098d565b60009150505b90565b6000600354820290506109a1610d4e565b8111156109e3576040517f08c379a00000000000000000000000000000000000000000000000000000000081526004016109da906116d2565b60405180910390fd5b600554821115610a28576040517f08c379a0000000000000000000000000000000000000000000000000000000008152600401610a1f90611692565b60405180910390fd5b60008054906101000a900473ffffffffffffffffffffffffffffffffffffffff1673ffffffffffffffffffffffffffffffffffffffff16635c79febb33600160009054906101000a900473ffffffffffffffffffffffffffffffffffffffff16846040518463ffffffff1660e01b8152600401610aa7939291906115be565b602060405180830381600087803b158015610ac157600080fd5b505af1158015610ad5573d6000803e3d6000fd5b505050506040513d601f19601f82011682018060405250810190610af99190611194565b5060008080600090505b84811015610cfb575b82610cb3576004544233600854604051602001610b2b9392919061154b565b6040516020818303038152906040528051906020012060001c81610b4b57fe5b069150600860008154809291906001019190505550600073ffffffffffffffffffffffffffffffffffffffff166007600084815260200190815260200160002060009054906101000a900473ffffffffffffffffffffffffffffffffffffffff1673ffffffffffffffffffffffffffffffffffffffff161415610cae57600660003373ffffffffffffffffffffffffffffffffffffffff1673ffffffffffffffffffffffffffffffffffffffff1681526020019081526020016000208290806001815401808255809150506001900390600052602060002001600090919091909150556009829080600181540180825580915050600190039060005260206000200160009091909190915055336007600084815260200190815260200160002060006101000a81548173ffffffffffffffffffffffffffffffffffffffff021916908373ffffffffffffffffffffffffffffffffffffffff160217905550600192505b610b0c565b600092507fa69929cb3af1145490f7129170489946bf07bc6cd7474fc4172efc5ec3f060e382604051610ce69190611772565b60405180910390a18080600101915050610b03565b5050505050565b600160009054906101000a900473ffffffffffffffffffffffffffffffffffffffff1681565b600260009054906101000a900473ffffffffffffffffffffffffffffffffffffffff1681565b60008060009054906101000a900473ffffffffffffffffffffffffffffffffffffffff1673ffffffffffffffffffffffffffffffffffffffff166370a08231336040518263ffffffff1660e01b8152600401610daa91906115a3565b60206040518083038186803b158015610dc257600080fd5b505afa158015610dd6573d6000803e3d6000fd5b505050506040513d601f19601f82011682018060405250810190610dfa91906111e6565b905090565b6000610e0a82611141565b905080341015610e4f576040517f08c379a0000000000000000000000000000000000000000000000000000000008152600401610e4690611712565b60405180910390fd5b60008054906101000a900473ffffffffffffffffffffffffffffffffffffffff1673ffffffffffffffffffffffffffffffffffffffff166370a08231600260009054906101000a900473ffffffffffffffffffffffffffffffffffffffff166040518263ffffffff1660e01b8152600401610eca9190611588565b60206040518083038186803b158015610ee257600080fd5b505afa158015610ef6573d6000803e3d6000fd5b505050506040513d601f19601f82011682018060405250810190610f1a91906111e6565b821115610f5c576040517f08c379a0000000000000000000000000000000000000000000000000000000008152600401610f5390611732565b60405180910390fd5b3373ffffffffffffffffffffffffffffffffffffffff166108fc8234039081150290604051600060405180830381858888f19350505050158015610fa4573d6000803e3d6000fd5b5060008054906101000a900473ffffffffffffffffffffffffffffffffffffffff1673ffffffffffffffffffffffffffffffffffffffff1663a9059cbb33846040518363ffffffff1660e01b81526004016110009291906115f5565b602060405180830381600087803b15801561101a57600080fd5b505af115801561102e573d6000803e3d6000fd5b505050506040513d601f19601f820116820180604052508101906110529190611194565b507f1912293d843fe20a997ecedfe6ab8b44b26fc0ed0d7d2e152158ffd021c9ace3823360405161108492919061178d565b60405180910390a15050565b60008060009054906101000a900473ffffffffffffffffffffffffffffffffffffffff1673ffffffffffffffffffffffffffffffffffffffff166370a08231306040518263ffffffff1660e01b81526004016110ec9190611588565b60206040518083038186803b15801561110457600080fd5b505afa158015611118573d6000803e3d6000fd5b505050506040513d601f19601f8201168201806040525081019061113c91906111e6565b905090565b6000670de0b6b3a764000082029050919050565b600081519050611164816118cb565b92915050565b600081359050611179816118e2565b92915050565b60008151905061118e816118e2565b92915050565b6000602082840312156111a657600080fd5b60006111b484828501611155565b91505092915050565b6000602082840312156111cf57600080fd5b60006111dd8482850161116a565b91505092915050565b6000602082840312156111f857600080fd5b60006112068482850161117f565b91505092915050565b600061121b83836114fb565b60208301905092915050565b6112308161185a565b82525050565b61124761124282611812565b611890565b82525050565b61125681611800565b82525050565b6000611267826117c6565b61127181856117de565b935061127c836117b6565b8060005b838110156112ad578151611294888261120f565b975061129f836117d1565b925050600181019050611280565b5085935050505092915050565b6112c381611824565b82525050565b60006112d66024836117ef565b91507f4e6f2071756564616e2074616e746f7320626f6c65746f7320646973706f6e6960008301527f626c6573000000000000000000000000000000000000000000000000000000006020830152604082019050919050565b600061133c6014836117ef565b91507f546f6b656e7320696e737566696369656e7465730000000000000000000000006000830152602082019050919050565b600061137c601f836117ef565b91507f43616e746964616420646520746f6b656e7320696e737566696369656e7465006000830152602082019050919050565b60006113bc602d836117ef565b91507f4e6f207469656e6573207065726d69736f73207061726120656a65637574617260008301527f20657374612066756e63696f6e000000000000000000000000000000000000006020830152604082019050919050565b6000611422601e836117ef565b91507f43616e746964616420646520657468657220696e737566696369656e746500006000830152602082019050919050565b60006114626020836117ef565b91507f43616e746964616420646520746f6b656e7320696e737566696369656e7465736000830152602082019050919050565b60006114a26028836117ef565b91507f4e6f2073652068612076656e6469646f206e696e67c3ba6e20626f6c65746f2060008301527f746f646176c3ad610000000000000000000000000000000000000000000000006020830152604082019050919050565b61150481611850565b82525050565b61151381611850565b82525050565b61152a61152582611850565b6118b4565b82525050565b600061153c8284611519565b60208201915081905092915050565b60006115578286611519565b6020820191506115678285611236565b6014820191506115778284611519565b602082019150819050949350505050565b600060208201905061159d600083018461124d565b92915050565b60006020820190506115b86000830184611227565b92915050565b60006060820190506115d36000830186611227565b6115e0602083018561124d565b6115ed604083018461150a565b949350505050565b600060408201905061160a6000830185611227565b611617602083018461150a565b9392505050565b6000606082019050611633600083018661124d565b611640602083018561124d565b61164d604083018461150a565b949350505050565b6000602082019050818103600083015261166f818461125c565b905092915050565b600060208201905061168c60008301846112ba565b92915050565b600060208201905081810360008301526116ab816112c9565b9050919050565b600060208201905081810360008301526116cb8161132f565b9050919050565b600060208201905081810360008301526116eb8161136f565b9050919050565b6000602082019050818103600083015261170b816113af565b9050919050565b6000602082019050818103600083015261172b81611415565b9050919050565b6000602082019050818103600083015261174b81611455565b9050919050565b6000602082019050818103600083015261176b81611495565b9050919050565b6000602082019050611787600083018461150a565b92915050565b60006040820190506117a2600083018561150a565b6117af6020830184611227565b9392505050565b6000819050602082019050919050565b600081519050919050565b6000602082019050919050565b600082825260208201905092915050565b600082825260208201905092915050565b600061180b82611830565b9050919050565b600061181d82611830565b9050919050565b60008115159050919050565b600073ffffffffffffffffffffffffffffffffffffffff82169050919050565b6000819050919050565b60006118658261186c565b9050919050565b60006118778261187e565b9050919050565b600061188982611830565b9050919050565b600061189b826118a2565b9050919050565b60006118ad826118be565b9050919050565b6000819050919050565b60008160601b9050919050565b6118d481611824565b81146118df57600080fd5b50565b6118eb81611850565b81146118f657600080fd5b5056fea26469706673582212203f7f7e5e02d7cc276a1b74ab31b2a5c8f3c60e757288c940f9814e75368eb00b64736f6c634300060c0033608060405234801561001057600080fd5b5060405161109d38038061109d83398181016040528101906100329190610099565b806002819055506002546000803373ffffffffffffffffffffffffffffffffffffffff1673ffffffffffffffffffffffffffffffffffffffff16815260200190815260200160002081905550506100e3565b600081519050610093816100cc565b92915050565b6000602082840312156100ab57600080fd5b60006100b984828501610084565b91505092915050565b6000819050919050565b6100d5816100c2565b81146100e057600080fd5b50565b610fab806100f26000396000f3fe608060405234801561001057600080fd5b50600436106100a95760003560e01c8063313ce56711610071578063313ce567146101665780635c79febb1461018457806370a08231146101b457806395d89b41146101e4578063a9059cbb14610202578063dd62ed3e14610232576100a9565b806306fdde03146100ae578063095ea7b3146100cc57806318160ddd146100fc5780631d43cc981461011a57806323b872dd14610136575b600080fd5b6100b6610262565b6040516100c39190610e3a565b60405180910390f35b6100e660048036038101906100e19190610d54565b61029b565b6040516100f39190610e1f565b60405180910390f35b61010461038d565b6040516101119190610e5c565b60405180910390f35b610134600480360381019061012f9190610d90565b610397565b005b610150600480360381019061014b9190610d05565b6103f6565b60405161015d9190610e1f565b60405180910390f35b61016e610771565b60405161017b9190610e77565b60405180910390f35b61019e60048036038101906101999190610d05565b610776565b6040516101ab9190610e1f565b60405180910390f35b6101ce60048036038101906101c99190610ca0565b610959565b6040516101db9190610e5c565b60405180910390f35b6101ec6109a1565b6040516101f99190610e3a565b60405180910390f35b61021c60048036038101906102179190610d54565b6109da565b6040516102299190610e1f565b60405180910390f35b61024c60048036038101906102479190610cc9565b610bbc565b6040516102599190610e5c565b60405180910390f35b6040518060400160405280600c81526020017f4552433230414b414c75676f000000000000000000000000000000000000000081525081565b600081600160003373ffffffffffffffffffffffffffffffffffffffff1673ffffffffffffffffffffffffffffffffffffffff16815260200190815260200160002060008573ffffffffffffffffffffffffffffffffffffffff1673ffffffffffffffffffffffffffffffffffffffff168152602001908152602001600020819055508273ffffffffffffffffffffffffffffffffffffffff163373ffffffffffffffffffffffffffffffffffffffff167f8c5be1e5ebec7d5bd14f71427d1e84f3dd0314c0f7b2291e5b200ac8c7c3b9258460405161037b9190610e5c565b60405180910390a36001905092915050565b6000600254905090565b80600260008282540192505081905550806000803373ffffffffffffffffffffffffffffffffffffffff1673ffffffffffffffffffffffffffffffffffffffff1681526020019081526020016000206000828254019250508190555050565b6000816000808673ffffffffffffffffffffffffffffffffffffffff1673ffffffffffffffffffffffffffffffffffffffff16815260200190815260200160002054101561044357600080fd5b81600160008673ffffffffffffffffffffffffffffffffffffffff1673ffffffffffffffffffffffffffffffffffffffff16815260200190815260200160002060003373ffffffffffffffffffffffffffffffffffffffff1673ffffffffffffffffffffffffffffffffffffffff1681526020019081526020016000205410156104cc57600080fd5b61051d826000808773ffffffffffffffffffffffffffffffffffffffff1673ffffffffffffffffffffffffffffffffffffffff16815260200190815260200160002054610c4390919063ffffffff16565b6000808673ffffffffffffffffffffffffffffffffffffffff1673ffffffffffffffffffffffffffffffffffffffff168152602001908152602001600020819055506105ee82600160008773ffffffffffffffffffffffffffffffffffffffff1673ffffffffffffffffffffffffffffffffffffffff16815260200190815260200160002060003373ffffffffffffffffffffffffffffffffffffffff1673ffffffffffffffffffffffffffffffffffffffff16815260200190815260200160002054610c4390919063ffffffff16565b600160008673ffffffffffffffffffffffffffffffffffffffff1673ffffffffffffffffffffffffffffffffffffffff16815260200190815260200160002060003373ffffffffffffffffffffffffffffffffffffffff1673ffffffffffffffffffffffffffffffffffffffff168152602001908152602001600020819055506106bf826000808673ffffffffffffffffffffffffffffffffffffffff1673ffffffffffffffffffffffffffffffffffffffff16815260200190815260200160002054610c5a90919063ffffffff16565b6000808573ffffffffffffffffffffffffffffffffffffffff1673ffffffffffffffffffffffffffffffffffffffff168152602001908152602001600020819055508273ffffffffffffffffffffffffffffffffffffffff168473ffffffffffffffffffffffffffffffffffffffff167fddf252ad1be2c89b69c2b068fc378daa952ba7f163c4a11628f55a4df523b3ef8460405161075e9190610e5c565b60405180910390a3600190509392505050565b601281565b60008060008573ffffffffffffffffffffffffffffffffffffffff1673ffffffffffffffffffffffffffffffffffffffff168152602001908152602001600020548211156107c357600080fd5b610814826000808773ffffffffffffffffffffffffffffffffffffffff1673ffffffffffffffffffffffffffffffffffffffff16815260200190815260200160002054610c4390919063ffffffff16565b6000808673ffffffffffffffffffffffffffffffffffffffff1673ffffffffffffffffffffffffffffffffffffffff168152602001908152602001600020819055506108a7826000808673ffffffffffffffffffffffffffffffffffffffff1673ffffffffffffffffffffffffffffffffffffffff16815260200190815260200160002054610c5a90919063ffffffff16565b6000808573ffffffffffffffffffffffffffffffffffffffff1673ffffffffffffffffffffffffffffffffffffffff168152602001908152602001600020819055508273ffffffffffffffffffffffffffffffffffffffff168473ffffffffffffffffffffffffffffffffffffffff167fddf252ad1be2c89b69c2b068fc378daa952ba7f163c4a11628f55a4df523b3ef846040516109469190610e5c565b60405180910390a3600190509392505050565b60008060008373ffffffffffffffffffffffffffffffffffffffff1673ffffffffffffffffffffffffffffffffffffffff168152602001908152602001600020549050919050565b6040518060400160405280600381526020017f414b41000000000000000000000000000000000000000000000000000000000081525081565b60008060003373ffffffffffffffffffffffffffffffffffffffff1673ffffffffffffffffffffffffffffffffffffffff16815260200190815260200160002054821115610a2757600080fd5b610a78826000803373ffffffffffffffffffffffffffffffffffffffff1673ffffffffffffffffffffffffffffffffffffffff16815260200190815260200160002054610c4390919063ffffffff16565b6000803373ffffffffffffffffffffffffffffffffffffffff1673ffffffffffffffffffffffffffffffffffffffff16815260200190815260200160002081905550610b0b826000808673ffffffffffffffffffffffffffffffffffffffff1673ffffffffffffffffffffffffffffffffffffffff16815260200190815260200160002054610c5a90919063ffffffff16565b6000808573ffffffffffffffffffffffffffffffffffffffff1673ffffffffffffffffffffffffffffffffffffffff168152602001908152602001600020819055508273ffffffffffffffffffffffffffffffffffffffff163373ffffffffffffffffffffffffffffffffffffffff167fddf252ad1be2c89b69c2b068fc378daa952ba7f163c4a11628f55a4df523b3ef84604051610baa9190610e5c565b60405180910390a36001905092915050565b6000600160008473ffffffffffffffffffffffffffffffffffffffff1673ffffffffffffffffffffffffffffffffffffffff16815260200190815260200160002060008373ffffffffffffffffffffffffffffffffffffffff1673ffffffffffffffffffffffffffffffffffffffff16815260200190815260200160002054905092915050565b600082821115610c4f57fe5b818303905092915050565b600080828401905083811015610c6c57fe5b8091505092915050565b600081359050610c8581610f47565b92915050565b600081359050610c9a81610f5e565b92915050565b600060208284031215610cb257600080fd5b6000610cc084828501610c76565b91505092915050565b60008060408385031215610cdc57600080fd5b6000610cea85828601610c76565b9250506020610cfb85828601610c76565b9150509250929050565b600080600060608486031215610d1a57600080fd5b6000610d2886828701610c76565b9350506020610d3986828701610c76565b9250506040610d4a86828701610c8b565b9150509250925092565b60008060408385031215610d6757600080fd5b6000610d7585828601610c76565b9250506020610d8685828601610c8b565b9150509250929050565b600060208284031215610da257600080fd5b6000610db084828501610c8b565b91505092915050565b610dc281610ec0565b82525050565b6000610dd382610e92565b610ddd8185610e9d565b9350610ded818560208601610f03565b610df681610f36565b840191505092915050565b610e0a81610eec565b82525050565b610e1981610ef6565b82525050565b6000602082019050610e346000830184610db9565b92915050565b60006020820190508181036000830152610e548184610dc8565b905092915050565b6000602082019050610e716000830184610e01565b92915050565b6000602082019050610e8c6000830184610e10565b92915050565b600081519050919050565b600082825260208201905092915050565b6000610eb982610ecc565b9050919050565b60008115159050919050565b600073ffffffffffffffffffffffffffffffffffffffff82169050919050565b6000819050919050565b600060ff82169050919050565b60005b83811015610f21578082015181840152602081019050610f06565b83811115610f30576000848401525b50505050565b6000601f19601f8301169050919050565b610f5081610eae565b8114610f5b57600080fd5b50565b610f6781610eec565b8114610f7257600080fd5b5056fea264697066735822122041924e75c6a689f4e76b488c772248149581615c89d36359b2203d117f5c45a064736f6c634300060c0033",
					"opcodes": "PUSH1 0x80 PUSH1 0x40 MSTORE PUSH1 0x2 PUSH1 0x3 SSTORE PUSH1 0xA PUSH1 0x4 SSTORE PUSH1 0x4 SLOAD PUSH1 0x5 SSTORE PUSH1 0x0 PUSH1 0x8 SSTORE CALLVALUE DUP1 ISZERO PUSH3 0x26 JUMPI PUSH1 0x0 DUP1 REVERT JUMPDEST POP PUSH2 0x2710 PUSH1 0x40 MLOAD PUSH3 0x38 SWAP1 PUSH3 0x129 JUMP JUMPDEST PUSH3 0x44 SWAP2 SWAP1 PUSH3 0x148 JUMP JUMPDEST PUSH1 0x40 MLOAD DUP1 SWAP2 SUB SWAP1 PUSH1 0x0 CREATE DUP1 ISZERO DUP1 ISZERO PUSH3 0x61 JUMPI RETURNDATASIZE PUSH1 0x0 DUP1 RETURNDATACOPY RETURNDATASIZE PUSH1 0x0 REVERT JUMPDEST POP PUSH1 0x0 DUP1 PUSH2 0x100 EXP DUP2 SLOAD DUP2 PUSH20 0xFFFFFFFFFFFFFFFFFFFFFFFFFFFFFFFFFFFFFFFF MUL NOT AND SWAP1 DUP4 PUSH20 0xFFFFFFFFFFFFFFFFFFFFFFFFFFFFFFFFFFFFFFFF AND MUL OR SWAP1 SSTORE POP CALLER PUSH1 0x1 PUSH1 0x0 PUSH2 0x100 EXP DUP2 SLOAD DUP2 PUSH20 0xFFFFFFFFFFFFFFFFFFFFFFFFFFFFFFFFFFFFFFFF MUL NOT AND SWAP1 DUP4 PUSH20 0xFFFFFFFFFFFFFFFFFFFFFFFFFFFFFFFFFFFFFFFF AND MUL OR SWAP1 SSTORE POP ADDRESS PUSH1 0x2 PUSH1 0x0 PUSH2 0x100 EXP DUP2 SLOAD DUP2 PUSH20 0xFFFFFFFFFFFFFFFFFFFFFFFFFFFFFFFFFFFFFFFF MUL NOT AND SWAP1 DUP4 PUSH20 0xFFFFFFFFFFFFFFFFFFFFFFFFFFFFFFFFFFFFFFFF AND MUL OR SWAP1 SSTORE POP PUSH3 0x183 JUMP JUMPDEST PUSH2 0x109D DUP1 PUSH3 0x1AC2 DUP4 CODECOPY ADD SWAP1 JUMP JUMPDEST PUSH3 0x142 DUP2 PUSH3 0x16F JUMP JUMPDEST DUP3 MSTORE POP POP JUMP JUMPDEST PUSH1 0x0 PUSH1 0x20 DUP3 ADD SWAP1 POP PUSH3 0x15F PUSH1 0x0 DUP4 ADD DUP5 PUSH3 0x137 JUMP JUMPDEST SWAP3 SWAP2 POP POP JUMP JUMPDEST PUSH1 0x0 DUP2 SWAP1 POP SWAP2 SWAP1 POP JUMP JUMPDEST PUSH1 0x0 PUSH3 0x17C DUP3 PUSH3 0x165 JUMP JUMPDEST SWAP1 POP SWAP2 SWAP1 POP JUMP JUMPDEST PUSH2 0x192F DUP1 PUSH3 0x193 PUSH1 0x0 CODECOPY PUSH1 0x0 RETURN INVALID PUSH1 0x80 PUSH1 0x40 MSTORE PUSH1 0x4 CALLDATASIZE LT PUSH2 0xC2 JUMPI PUSH1 0x0 CALLDATALOAD PUSH1 0xE0 SHR DUP1 PUSH4 0x7CB5946D GT PUSH2 0x7F JUMPI DUP1 PUSH4 0xE1A01E67 GT PUSH2 0x59 JUMPI DUP1 PUSH4 0xE1A01E67 EQ PUSH2 0x223 JUMPI DUP1 PUSH4 0xE33F34A0 EQ PUSH2 0x24E JUMPI DUP1 PUSH4 0xF7774091 EQ PUSH2 0x279 JUMPI DUP1 PUSH4 0xFD889FF5 EQ PUSH2 0x295 JUMPI PUSH2 0xC2 JUMP JUMPDEST DUP1 PUSH4 0x7CB5946D EQ PUSH2 0x1A4 JUMPI DUP1 PUSH4 0x7CD15F44 EQ PUSH2 0x1CF JUMPI DUP1 PUSH4 0x8DA5CB5B EQ PUSH2 0x1F8 JUMPI PUSH2 0xC2 JUMP JUMPDEST DUP1 PUSH4 0x1246F6E2 EQ PUSH2 0xC7 JUMPI DUP1 PUSH4 0x1890154C EQ PUSH2 0xF0 JUMPI DUP1 PUSH4 0x27909F27 EQ PUSH2 0x10C JUMPI DUP1 PUSH4 0x5332EEE5 EQ PUSH2 0x137 JUMPI DUP1 PUSH4 0x74189861 EQ PUSH2 0x14E JUMPI DUP1 PUSH4 0x79FACE26 EQ PUSH2 0x179 JUMPI JUMPDEST PUSH1 0x0 DUP1 REVERT JUMPDEST CALLVALUE DUP1 ISZERO PUSH2 0xD3 JUMPI PUSH1 0x0 DUP1 REVERT JUMPDEST POP PUSH2 0xEE PUSH1 0x4 DUP1 CALLDATASIZE SUB DUP2 ADD SWAP1 PUSH2 0xE9 SWAP2 SWAP1 PUSH2 0x11BD JUMP JUMPDEST PUSH2 0x2C0 JUMP JUMPDEST STOP JUMPDEST PUSH2 0x10A PUSH1 0x4 DUP1 CALLDATASIZE SUB DUP2 ADD SWAP1 PUSH2 0x105 SWAP2 SWAP1 PUSH2 0x11BD JUMP JUMPDEST PUSH2 0x3E0 JUMP JUMPDEST STOP JUMPDEST CALLVALUE DUP1 ISZERO PUSH2 0x118 JUMPI PUSH1 0x0 DUP1 REVERT JUMPDEST POP PUSH2 0x121 PUSH2 0x565 JUMP JUMPDEST PUSH1 0x40 MLOAD PUSH2 0x12E SWAP2 SWAP1 PUSH2 0x1772 JUMP JUMPDEST PUSH1 0x40 MLOAD DUP1 SWAP2 SUB SWAP1 RETURN JUMPDEST CALLVALUE DUP1 ISZERO PUSH2 0x143 JUMPI PUSH1 0x0 DUP1 REVERT JUMPDEST POP PUSH2 0x14C PUSH2 0x56B JUMP JUMPDEST STOP JUMPDEST CALLVALUE DUP1 ISZERO PUSH2 0x15A JUMPI PUSH1 0x0 DUP1 REVERT JUMPDEST POP PUSH2 0x163 PUSH2 0x7DD JUMP JUMPDEST PUSH1 0x40 MLOAD PUSH2 0x170 SWAP2 SWAP1 PUSH2 0x1772 JUMP JUMPDEST PUSH1 0x40 MLOAD DUP1 SWAP2 SUB SWAP1 RETURN JUMPDEST CALLVALUE DUP1 ISZERO PUSH2 0x185 JUMPI PUSH1 0x0 DUP1 REVERT JUMPDEST POP PUSH2 0x18E PUSH2 0x8B0 JUMP JUMPDEST PUSH1 0x40 MLOAD PUSH2 0x19B SWAP2 SWAP1 PUSH2 0x1655 JUMP JUMPDEST PUSH1 0x40 MLOAD DUP1 SWAP2 SUB SWAP1 RETURN JUMPDEST CALLVALUE DUP1 ISZERO PUSH2 0x1B0 JUMPI PUSH1 0x0 DUP1 REVERT JUMPDEST POP PUSH2 0x1B9 PUSH2 0x945 JUMP JUMPDEST PUSH1 0x40 MLOAD PUSH2 0x1C6 SWAP2 SWAP1 PUSH2 0x1677 JUMP JUMPDEST PUSH1 0x40 MLOAD DUP1 SWAP2 SUB SWAP1 RETURN JUMPDEST CALLVALUE DUP1 ISZERO PUSH2 0x1DB JUMPI PUSH1 0x0 DUP1 REVERT JUMPDEST POP PUSH2 0x1F6 PUSH1 0x4 DUP1 CALLDATASIZE SUB DUP2 ADD SWAP1 PUSH2 0x1F1 SWAP2 SWAP1 PUSH2 0x11BD JUMP JUMPDEST PUSH2 0x990 JUMP JUMPDEST STOP JUMPDEST CALLVALUE DUP1 ISZERO PUSH2 0x204 JUMPI PUSH1 0x0 DUP1 REVERT JUMPDEST POP PUSH2 0x20D PUSH2 0xD02 JUMP JUMPDEST PUSH1 0x40 MLOAD PUSH2 0x21A SWAP2 SWAP1 PUSH2 0x1588 JUMP JUMPDEST PUSH1 0x40 MLOAD DUP1 SWAP2 SUB SWAP1 RETURN JUMPDEST CALLVALUE DUP1 ISZERO PUSH2 0x22F JUMPI PUSH1 0x0 DUP1 REVERT JUMPDEST POP PUSH2 0x238 PUSH2 0xD28 JUMP JUMPDEST PUSH1 0x40 MLOAD PUSH2 0x245 SWAP2 SWAP1 PUSH2 0x1588 JUMP JUMPDEST PUSH1 0x40 MLOAD DUP1 SWAP2 SUB SWAP1 RETURN JUMPDEST CALLVALUE DUP1 ISZERO PUSH2 0x25A JUMPI PUSH1 0x0 DUP1 REVERT JUMPDEST POP PUSH2 0x263 PUSH2 0xD4E JUMP JUMPDEST PUSH1 0x40 MLOAD PUSH2 0x270 SWAP2 SWAP1 PUSH2 0x1772 JUMP JUMPDEST PUSH1 0x40 MLOAD DUP1 SWAP2 SUB SWAP1 RETURN JUMPDEST PUSH2 0x293 PUSH1 0x4 DUP1 CALLDATASIZE SUB DUP2 ADD SWAP1 PUSH2 0x28E SWAP2 SWAP1 PUSH2 0x11BD JUMP JUMPDEST PUSH2 0xDFF JUMP JUMPDEST STOP JUMPDEST CALLVALUE DUP1 ISZERO PUSH2 0x2A1 JUMPI PUSH1 0x0 DUP1 REVERT JUMPDEST POP PUSH2 0x2AA PUSH2 0x1090 JUMP JUMPDEST PUSH1 0x40 MLOAD PUSH2 0x2B7 SWAP2 SWAP1 PUSH2 0x1772 JUMP JUMPDEST PUSH1 0x40 MLOAD DUP1 SWAP2 SUB SWAP1 RETURN JUMPDEST CALLER PUSH1 0x1 PUSH1 0x0 SWAP1 SLOAD SWAP1 PUSH2 0x100 EXP SWAP1 DIV PUSH20 0xFFFFFFFFFFFFFFFFFFFFFFFFFFFFFFFFFFFFFFFF AND PUSH20 0xFFFFFFFFFFFFFFFFFFFFFFFFFFFFFFFFFFFFFFFF AND DUP2 PUSH20 0xFFFFFFFFFFFFFFFFFFFFFFFFFFFFFFFFFFFFFFFF AND EQ PUSH2 0x351 JUMPI PUSH1 0x40 MLOAD PUSH32 0x8C379A000000000000000000000000000000000000000000000000000000000 DUP2 MSTORE PUSH1 0x4 ADD PUSH2 0x348 SWAP1 PUSH2 0x16F2 JUMP JUMPDEST PUSH1 0x40 MLOAD DUP1 SWAP2 SUB SWAP1 REVERT JUMPDEST PUSH1 0x0 DUP1 SLOAD SWAP1 PUSH2 0x100 EXP SWAP1 DIV PUSH20 0xFFFFFFFFFFFFFFFFFFFFFFFFFFFFFFFFFFFFFFFF AND PUSH20 0xFFFFFFFFFFFFFFFFFFFFFFFFFFFFFFFFFFFFFFFF AND PUSH4 0x1D43CC98 DUP4 PUSH1 0x40 MLOAD DUP3 PUSH4 0xFFFFFFFF AND PUSH1 0xE0 SHL DUP2 MSTORE PUSH1 0x4 ADD PUSH2 0x3AA SWAP2 SWAP1 PUSH2 0x1772 JUMP JUMPDEST PUSH1 0x0 PUSH1 0x40 MLOAD DUP1 DUP4 SUB DUP2 PUSH1 0x0 DUP8 DUP1 EXTCODESIZE ISZERO DUP1 ISZERO PUSH2 0x3C4 JUMPI PUSH1 0x0 DUP1 REVERT JUMPDEST POP GAS CALL ISZERO DUP1 ISZERO PUSH2 0x3D8 JUMPI RETURNDATASIZE PUSH1 0x0 DUP1 RETURNDATACOPY RETURNDATASIZE PUSH1 0x0 REVERT JUMPDEST POP POP POP POP POP POP JUMP JUMPDEST PUSH2 0x3E8 PUSH2 0xD4E JUMP JUMPDEST DUP2 GT ISZERO PUSH2 0x42A JUMPI PUSH1 0x40 MLOAD PUSH32 0x8C379A000000000000000000000000000000000000000000000000000000000 DUP2 MSTORE PUSH1 0x4 ADD PUSH2 0x421 SWAP1 PUSH2 0x16B2 JUMP JUMPDEST PUSH1 0x40 MLOAD DUP1 SWAP2 SUB SWAP1 REVERT JUMPDEST PUSH1 0x0 DUP1 SLOAD SWAP1 PUSH2 0x100 EXP SWAP1 DIV PUSH20 0xFFFFFFFFFFFFFFFFFFFFFFFFFFFFFFFFFFFFFFFF AND PUSH20 0xFFFFFFFFFFFFFFFFFFFFFFFFFFFFFFFFFFFFFFFF AND PUSH4 0x5C79FEBB CALLER ADDRESS DUP5 PUSH1 0x40 MLOAD DUP5 PUSH4 0xFFFFFFFF AND PUSH1 0xE0 SHL DUP2 MSTORE PUSH1 0x4 ADD PUSH2 0x487 SWAP4 SWAP3 SWAP2 SWAP1 PUSH2 0x15BE JUMP JUMPDEST PUSH1 0x20 PUSH1 0x40 MLOAD DUP1 DUP4 SUB DUP2 PUSH1 0x0 DUP8 DUP1 EXTCODESIZE ISZERO DUP1 ISZERO PUSH2 0x4A1 JUMPI PUSH1 0x0 DUP1 REVERT JUMPDEST POP GAS CALL ISZERO DUP1 ISZERO PUSH2 0x4B5 JUMPI RETURNDATASIZE PUSH1 0x0 DUP1 RETURNDATACOPY RETURNDATASIZE PUSH1 0x0 REVERT JUMPDEST POP POP POP POP PUSH1 0x40 MLOAD RETURNDATASIZE PUSH1 0x1F NOT PUSH1 0x1F DUP3 ADD AND DUP3 ADD DUP1 PUSH1 0x40 MSTORE POP DUP2 ADD SWAP1 PUSH2 0x4D9 SWAP2 SWAP1 PUSH2 0x1194 JUMP JUMPDEST POP CALLER PUSH20 0xFFFFFFFFFFFFFFFFFFFFFFFFFFFFFFFFFFFFFFFF AND PUSH2 0x8FC PUSH2 0x4FD DUP4 PUSH2 0x1141 JUMP JUMPDEST SWAP1 DUP2 ISZERO MUL SWAP1 PUSH1 0x40 MLOAD PUSH1 0x0 PUSH1 0x40 MLOAD DUP1 DUP4 SUB DUP2 DUP6 DUP9 DUP9 CALL SWAP4 POP POP POP POP ISZERO DUP1 ISZERO PUSH2 0x528 JUMPI RETURNDATASIZE PUSH1 0x0 DUP1 RETURNDATACOPY RETURNDATASIZE PUSH1 0x0 REVERT JUMPDEST POP PUSH32 0xEDB4E62D28B4FACD6D91F70625AC1EA2C1A9CAC0ECC3E638B50633575D818A4E DUP2 CALLER PUSH1 0x40 MLOAD PUSH2 0x55A SWAP3 SWAP2 SWAP1 PUSH2 0x178D JUMP JUMPDEST PUSH1 0x40 MLOAD DUP1 SWAP2 SUB SWAP1 LOG1 POP JUMP JUMPDEST PUSH1 0x3 SLOAD DUP2 JUMP JUMPDEST CALLER PUSH1 0x1 PUSH1 0x0 SWAP1 SLOAD SWAP1 PUSH2 0x100 EXP SWAP1 DIV PUSH20 0xFFFFFFFFFFFFFFFFFFFFFFFFFFFFFFFFFFFFFFFF AND PUSH20 0xFFFFFFFFFFFFFFFFFFFFFFFFFFFFFFFFFFFFFFFF AND DUP2 PUSH20 0xFFFFFFFFFFFFFFFFFFFFFFFFFFFFFFFFFFFFFFFF AND EQ PUSH2 0x5FC JUMPI PUSH1 0x40 MLOAD PUSH32 0x8C379A000000000000000000000000000000000000000000000000000000000 DUP2 MSTORE PUSH1 0x4 ADD PUSH2 0x5F3 SWAP1 PUSH2 0x16F2 JUMP JUMPDEST PUSH1 0x40 MLOAD DUP1 SWAP2 SUB SWAP1 REVERT JUMPDEST PUSH1 0x0 PUSH1 0x9 DUP1 SLOAD SWAP1 POP GT PUSH2 0x644 JUMPI PUSH1 0x40 MLOAD PUSH32 0x8C379A000000000000000000000000000000000000000000000000000000000 DUP2 MSTORE PUSH1 0x4 ADD PUSH2 0x63B SWAP1 PUSH2 0x1752 JUMP JUMPDEST PUSH1 0x40 MLOAD DUP1 SWAP2 SUB SWAP1 REVERT JUMPDEST PUSH1 0x0 PUSH1 0x9 DUP1 DUP1 SLOAD SWAP1 POP TIMESTAMP PUSH1 0x40 MLOAD PUSH1 0x20 ADD PUSH2 0x65E SWAP2 SWAP1 PUSH2 0x1530 JUMP JUMPDEST PUSH1 0x40 MLOAD PUSH1 0x20 DUP2 DUP4 SUB SUB DUP2 MSTORE SWAP1 PUSH1 0x40 MSTORE DUP1 MLOAD SWAP1 PUSH1 0x20 ADD KECCAK256 PUSH1 0x0 SHR DUP2 PUSH2 0x67E JUMPI INVALID JUMPDEST MOD DUP2 SLOAD DUP2 LT PUSH2 0x689 JUMPI INVALID JUMPDEST SWAP1 PUSH1 0x0 MSTORE PUSH1 0x20 PUSH1 0x0 KECCAK256 ADD SLOAD SWAP1 POP PUSH32 0x7AE8AA8A76009E9379A432B67D892B6006479447DE6892C862CE780785A2387D DUP2 PUSH1 0x40 MLOAD PUSH2 0x6C5 SWAP2 SWAP1 PUSH2 0x1772 JUMP JUMPDEST PUSH1 0x40 MLOAD DUP1 SWAP2 SUB SWAP1 LOG1 PUSH1 0x0 DUP1 SLOAD SWAP1 PUSH2 0x100 EXP SWAP1 DIV PUSH20 0xFFFFFFFFFFFFFFFFFFFFFFFFFFFFFFFFFFFFFFFF AND PUSH20 0xFFFFFFFFFFFFFFFFFFFFFFFFFFFFFFFFFFFFFFFF AND PUSH4 0x5C79FEBB PUSH1 0x1 PUSH1 0x0 SWAP1 SLOAD SWAP1 PUSH2 0x100 EXP SWAP1 DIV PUSH20 0xFFFFFFFFFFFFFFFFFFFFFFFFFFFFFFFFFFFFFFFF AND PUSH1 0x7 PUSH1 0x0 DUP6 DUP2 MSTORE PUSH1 0x20 ADD SWAP1 DUP2 MSTORE PUSH1 0x20 ADD PUSH1 0x0 KECCAK256 PUSH1 0x0 SWAP1 SLOAD SWAP1 PUSH2 0x100 EXP SWAP1 DIV PUSH20 0xFFFFFFFFFFFFFFFFFFFFFFFFFFFFFFFFFFFFFFFF AND PUSH2 0x768 PUSH2 0x7DD JUMP JUMPDEST PUSH1 0x40 MLOAD DUP5 PUSH4 0xFFFFFFFF AND PUSH1 0xE0 SHL DUP2 MSTORE PUSH1 0x4 ADD PUSH2 0x786 SWAP4 SWAP3 SWAP2 SWAP1 PUSH2 0x161E JUMP JUMPDEST PUSH1 0x20 PUSH1 0x40 MLOAD DUP1 DUP4 SUB DUP2 PUSH1 0x0 DUP8 DUP1 EXTCODESIZE ISZERO DUP1 ISZERO PUSH2 0x7A0 JUMPI PUSH1 0x0 DUP1 REVERT JUMPDEST POP GAS CALL ISZERO DUP1 ISZERO PUSH2 0x7B4 JUMPI RETURNDATASIZE PUSH1 0x0 DUP1 RETURNDATACOPY RETURNDATASIZE PUSH1 0x0 REVERT JUMPDEST POP POP POP POP PUSH1 0x40 MLOAD RETURNDATASIZE PUSH1 0x1F NOT PUSH1 0x1F DUP3 ADD AND DUP3 ADD DUP1 PUSH1 0x40 MSTORE POP DUP2 ADD SWAP1 PUSH2 0x7D8 SWAP2 SWAP1 PUSH2 0x1194 JUMP JUMPDEST POP POP POP JUMP JUMPDEST PUSH1 0x0 DUP1 PUSH1 0x0 SWAP1 SLOAD SWAP1 PUSH2 0x100 EXP SWAP1 DIV PUSH20 0xFFFFFFFFFFFFFFFFFFFFFFFFFFFFFFFFFFFFFFFF AND PUSH20 0xFFFFFFFFFFFFFFFFFFFFFFFFFFFFFFFFFFFFFFFF AND PUSH4 0x70A08231 PUSH1 0x1 PUSH1 0x0 SWAP1 SLOAD SWAP1 PUSH2 0x100 EXP SWAP1 DIV PUSH20 0xFFFFFFFFFFFFFFFFFFFFFFFFFFFFFFFFFFFFFFFF AND PUSH1 0x40 MLOAD DUP3 PUSH4 0xFFFFFFFF AND PUSH1 0xE0 SHL DUP2 MSTORE PUSH1 0x4 ADD PUSH2 0x85B SWAP2 SWAP1 PUSH2 0x1588 JUMP JUMPDEST PUSH1 0x20 PUSH1 0x40 MLOAD DUP1 DUP4 SUB DUP2 DUP7 DUP1 EXTCODESIZE ISZERO DUP1 ISZERO PUSH2 0x873 JUMPI PUSH1 0x0 DUP1 REVERT JUMPDEST POP GAS STATICCALL ISZERO DUP1 ISZERO PUSH2 0x887 JUMPI RETURNDATASIZE PUSH1 0x0 DUP1 RETURNDATACOPY RETURNDATASIZE PUSH1 0x0 REVERT JUMPDEST POP POP POP POP PUSH1 0x40 MLOAD RETURNDATASIZE PUSH1 0x1F NOT PUSH1 0x1F DUP3 ADD AND DUP3 ADD DUP1 PUSH1 0x40 MSTORE POP DUP2 ADD SWAP1 PUSH2 0x8AB SWAP2 SWAP1 PUSH2 0x11E6 JUMP JUMPDEST SWAP1 POP SWAP1 JUMP JUMPDEST PUSH1 0x60 PUSH1 0x6 PUSH1 0x0 CALLER PUSH20 0xFFFFFFFFFFFFFFFFFFFFFFFFFFFFFFFFFFFFFFFF AND PUSH20 0xFFFFFFFFFFFFFFFFFFFFFFFFFFFFFFFFFFFFFFFF AND DUP2 MSTORE PUSH1 0x20 ADD SWAP1 DUP2 MSTORE PUSH1 0x20 ADD PUSH1 0x0 KECCAK256 DUP1 SLOAD DUP1 PUSH1 0x20 MUL PUSH1 0x20 ADD PUSH1 0x40 MLOAD SWAP1 DUP2 ADD PUSH1 0x40 MSTORE DUP1 SWAP3 SWAP2 SWAP1 DUP2 DUP2 MSTORE PUSH1 0x20 ADD DUP3 DUP1 SLOAD DUP1 ISZERO PUSH2 0x93B JUMPI PUSH1 0x20 MUL DUP3 ADD SWAP2 SWAP1 PUSH1 0x0 MSTORE PUSH1 0x20 PUSH1 0x0 KECCAK256 SWAP1 JUMPDEST DUP2 SLOAD DUP2 MSTORE PUSH1 0x20 ADD SWAP1 PUSH1 0x1 ADD SWAP1 DUP1 DUP4 GT PUSH2 0x927 JUMPI JUMPDEST POP POP POP POP POP SWAP1 POP SWAP1 JUMP JUMPDEST PUSH1 0x0 DUP1 PUSH1 0x0 PUSH20 0xFFFFFFFFFFFFFFFFFFFFFFFFFFFFFFFFFFFFFFFF AND DUP2 PUSH20 0xFFFFFFFFFFFFFFFFFFFFFFFFFFFFFFFFFFFFFFFF AND EQ ISZERO PUSH2 0x987 JUMPI PUSH1 0x1 SWAP2 POP POP PUSH2 0x98D JUMP JUMPDEST PUSH1 0x0 SWAP2 POP POP JUMPDEST SWAP1 JUMP JUMPDEST PUSH1 0x0 PUSH1 0x3 SLOAD DUP3 MUL SWAP1 POP PUSH2 0x9A1 PUSH2 0xD4E JUMP JUMPDEST DUP2 GT ISZERO PUSH2 0x9E3 JUMPI PUSH1 0x40 MLOAD PUSH32 0x8C379A000000000000000000000000000000000000000000000000000000000 DUP2 MSTORE PUSH1 0x4 ADD PUSH2 0x9DA SWAP1 PUSH2 0x16D2 JUMP JUMPDEST PUSH1 0x40 MLOAD DUP1 SWAP2 SUB SWAP1 REVERT JUMPDEST PUSH1 0x5 SLOAD DUP3 GT ISZERO PUSH2 0xA28 JUMPI PUSH1 0x40 MLOAD PUSH32 0x8C379A000000000000000000000000000000000000000000000000000000000 DUP2 MSTORE PUSH1 0x4 ADD PUSH2 0xA1F SWAP1 PUSH2 0x1692 JUMP JUMPDEST PUSH1 0x40 MLOAD DUP1 SWAP2 SUB SWAP1 REVERT JUMPDEST PUSH1 0x0 DUP1 SLOAD SWAP1 PUSH2 0x100 EXP SWAP1 DIV PUSH20 0xFFFFFFFFFFFFFFFFFFFFFFFFFFFFFFFFFFFFFFFF AND PUSH20 0xFFFFFFFFFFFFFFFFFFFFFFFFFFFFFFFFFFFFFFFF AND PUSH4 0x5C79FEBB CALLER PUSH1 0x1 PUSH1 0x0 SWAP1 SLOAD SWAP1 PUSH2 0x100 EXP SWAP1 DIV PUSH20 0xFFFFFFFFFFFFFFFFFFFFFFFFFFFFFFFFFFFFFFFF AND DUP5 PUSH1 0x40 MLOAD DUP5 PUSH4 0xFFFFFFFF AND PUSH1 0xE0 SHL DUP2 MSTORE PUSH1 0x4 ADD PUSH2 0xAA7 SWAP4 SWAP3 SWAP2 SWAP1 PUSH2 0x15BE JUMP JUMPDEST PUSH1 0x20 PUSH1 0x40 MLOAD DUP1 DUP4 SUB DUP2 PUSH1 0x0 DUP8 DUP1 EXTCODESIZE ISZERO DUP1 ISZERO PUSH2 0xAC1 JUMPI PUSH1 0x0 DUP1 REVERT JUMPDEST POP GAS CALL ISZERO DUP1 ISZERO PUSH2 0xAD5 JUMPI RETURNDATASIZE PUSH1 0x0 DUP1 RETURNDATACOPY RETURNDATASIZE PUSH1 0x0 REVERT JUMPDEST POP POP POP POP PUSH1 0x40 MLOAD RETURNDATASIZE PUSH1 0x1F NOT PUSH1 0x1F DUP3 ADD AND DUP3 ADD DUP1 PUSH1 0x40 MSTORE POP DUP2 ADD SWAP1 PUSH2 0xAF9 SWAP2 SWAP1 PUSH2 0x1194 JUMP JUMPDEST POP PUSH1 0x0 DUP1 DUP1 PUSH1 0x0 SWAP1 POP JUMPDEST DUP5 DUP2 LT ISZERO PUSH2 0xCFB JUMPI JUMPDEST DUP3 PUSH2 0xCB3 JUMPI PUSH1 0x4 SLOAD TIMESTAMP CALLER PUSH1 0x8 SLOAD PUSH1 0x40 MLOAD PUSH1 0x20 ADD PUSH2 0xB2B SWAP4 SWAP3 SWAP2 SWAP1 PUSH2 0x154B JUMP JUMPDEST PUSH1 0x40 MLOAD PUSH1 0x20 DUP2 DUP4 SUB SUB DUP2 MSTORE SWAP1 PUSH1 0x40 MSTORE DUP1 MLOAD SWAP1 PUSH1 0x20 ADD KECCAK256 PUSH1 0x0 SHR DUP2 PUSH2 0xB4B JUMPI INVALID JUMPDEST MOD SWAP2 POP PUSH1 0x8 PUSH1 0x0 DUP2 SLOAD DUP1 SWAP3 SWAP2 SWAP1 PUSH1 0x1 ADD SWAP2 SWAP1 POP SSTORE POP PUSH1 0x0 PUSH20 0xFFFFFFFFFFFFFFFFFFFFFFFFFFFFFFFFFFFFFFFF AND PUSH1 0x7 PUSH1 0x0 DUP5 DUP2 MSTORE PUSH1 0x20 ADD SWAP1 DUP2 MSTORE PUSH1 0x20 ADD PUSH1 0x0 KECCAK256 PUSH1 0x0 SWAP1 SLOAD SWAP1 PUSH2 0x100 EXP SWAP1 DIV PUSH20 0xFFFFFFFFFFFFFFFFFFFFFFFFFFFFFFFFFFFFFFFF AND PUSH20 0xFFFFFFFFFFFFFFFFFFFFFFFFFFFFFFFFFFFFFFFF AND EQ ISZERO PUSH2 0xCAE JUMPI PUSH1 0x6 PUSH1 0x0 CALLER PUSH20 0xFFFFFFFFFFFFFFFFFFFFFFFFFFFFFFFFFFFFFFFF AND PUSH20 0xFFFFFFFFFFFFFFFFFFFFFFFFFFFFFFFFFFFFFFFF AND DUP2 MSTORE PUSH1 0x20 ADD SWAP1 DUP2 MSTORE PUSH1 0x20 ADD PUSH1 0x0 KECCAK256 DUP3 SWAP1 DUP1 PUSH1 0x1 DUP2 SLOAD ADD DUP1 DUP3 SSTORE DUP1 SWAP2 POP POP PUSH1 0x1 SWAP1 SUB SWAP1 PUSH1 0x0 MSTORE PUSH1 0x20 PUSH1 0x0 KECCAK256 ADD PUSH1 0x0 SWAP1 SWAP2 SWAP1 SWAP2 SWAP1 SWAP2 POP SSTORE PUSH1 0x9 DUP3 SWAP1 DUP1 PUSH1 0x1 DUP2 SLOAD ADD DUP1 DUP3 SSTORE DUP1 SWAP2 POP POP PUSH1 0x1 SWAP1 SUB SWAP1 PUSH1 0x0 MSTORE PUSH1 0x20 PUSH1 0x0 KECCAK256 ADD PUSH1 0x0 SWAP1 SWAP2 SWAP1 SWAP2 SWAP1 SWAP2 POP SSTORE CALLER PUSH1 0x7 PUSH1 0x0 DUP5 DUP2 MSTORE PUSH1 0x20 ADD SWAP1 DUP2 MSTORE PUSH1 0x20 ADD PUSH1 0x0 KECCAK256 PUSH1 0x0 PUSH2 0x100 EXP DUP2 SLOAD DUP2 PUSH20 0xFFFFFFFFFFFFFFFFFFFFFFFFFFFFFFFFFFFFFFFF MUL NOT AND SWAP1 DUP4 PUSH20 0xFFFFFFFFFFFFFFFFFFFFFFFFFFFFFFFFFFFFFFFF AND MUL OR SWAP1 SSTORE POP PUSH1 0x1 SWAP3 POP JUMPDEST PUSH2 0xB0C JUMP JUMPDEST PUSH1 0x0 SWAP3 POP PUSH32 0xA69929CB3AF1145490F7129170489946BF07BC6CD7474FC4172EFC5EC3F060E3 DUP3 PUSH1 0x40 MLOAD PUSH2 0xCE6 SWAP2 SWAP1 PUSH2 0x1772 JUMP JUMPDEST PUSH1 0x40 MLOAD DUP1 SWAP2 SUB SWAP1 LOG1 DUP1 DUP1 PUSH1 0x1 ADD SWAP2 POP POP PUSH2 0xB03 JUMP JUMPDEST POP POP POP POP POP JUMP JUMPDEST PUSH1 0x1 PUSH1 0x0 SWAP1 SLOAD SWAP1 PUSH2 0x100 EXP SWAP1 DIV PUSH20 0xFFFFFFFFFFFFFFFFFFFFFFFFFFFFFFFFFFFFFFFF AND DUP2 JUMP JUMPDEST PUSH1 0x2 PUSH1 0x0 SWAP1 SLOAD SWAP1 PUSH2 0x100 EXP SWAP1 DIV PUSH20 0xFFFFFFFFFFFFFFFFFFFFFFFFFFFFFFFFFFFFFFFF AND DUP2 JUMP JUMPDEST PUSH1 0x0 DUP1 PUSH1 0x0 SWAP1 SLOAD SWAP1 PUSH2 0x100 EXP SWAP1 DIV PUSH20 0xFFFFFFFFFFFFFFFFFFFFFFFFFFFFFFFFFFFFFFFF AND PUSH20 0xFFFFFFFFFFFFFFFFFFFFFFFFFFFFFFFFFFFFFFFF AND PUSH4 0x70A08231 CALLER PUSH1 0x40 MLOAD DUP3 PUSH4 0xFFFFFFFF AND PUSH1 0xE0 SHL DUP2 MSTORE PUSH1 0x4 ADD PUSH2 0xDAA SWAP2 SWAP1 PUSH2 0x15A3 JUMP JUMPDEST PUSH1 0x20 PUSH1 0x40 MLOAD DUP1 DUP4 SUB DUP2 DUP7 DUP1 EXTCODESIZE ISZERO DUP1 ISZERO PUSH2 0xDC2 JUMPI PUSH1 0x0 DUP1 REVERT JUMPDEST POP GAS STATICCALL ISZERO DUP1 ISZERO PUSH2 0xDD6 JUMPI RETURNDATASIZE PUSH1 0x0 DUP1 RETURNDATACOPY RETURNDATASIZE PUSH1 0x0 REVERT JUMPDEST POP POP POP POP PUSH1 0x40 MLOAD RETURNDATASIZE PUSH1 0x1F NOT PUSH1 0x1F DUP3 ADD AND DUP3 ADD DUP1 PUSH1 0x40 MSTORE POP DUP2 ADD SWAP1 PUSH2 0xDFA SWAP2 SWAP1 PUSH2 0x11E6 JUMP JUMPDEST SWAP1 POP SWAP1 JUMP JUMPDEST PUSH1 0x0 PUSH2 0xE0A DUP3 PUSH2 0x1141 JUMP JUMPDEST SWAP1 POP DUP1 CALLVALUE LT ISZERO PUSH2 0xE4F JUMPI PUSH1 0x40 MLOAD PUSH32 0x8C379A000000000000000000000000000000000000000000000000000000000 DUP2 MSTORE PUSH1 0x4 ADD PUSH2 0xE46 SWAP1 PUSH2 0x1712 JUMP JUMPDEST PUSH1 0x40 MLOAD DUP1 SWAP2 SUB SWAP1 REVERT JUMPDEST PUSH1 0x0 DUP1 SLOAD SWAP1 PUSH2 0x100 EXP SWAP1 DIV PUSH20 0xFFFFFFFFFFFFFFFFFFFFFFFFFFFFFFFFFFFFFFFF AND PUSH20 0xFFFFFFFFFFFFFFFFFFFFFFFFFFFFFFFFFFFFFFFF AND PUSH4 0x70A08231 PUSH1 0x2 PUSH1 0x0 SWAP1 SLOAD SWAP1 PUSH2 0x100 EXP SWAP1 DIV PUSH20 0xFFFFFFFFFFFFFFFFFFFFFFFFFFFFFFFFFFFFFFFF AND PUSH1 0x40 MLOAD DUP3 PUSH4 0xFFFFFFFF AND PUSH1 0xE0 SHL DUP2 MSTORE PUSH1 0x4 ADD PUSH2 0xECA SWAP2 SWAP1 PUSH2 0x1588 JUMP JUMPDEST PUSH1 0x20 PUSH1 0x40 MLOAD DUP1 DUP4 SUB DUP2 DUP7 DUP1 EXTCODESIZE ISZERO DUP1 ISZERO PUSH2 0xEE2 JUMPI PUSH1 0x0 DUP1 REVERT JUMPDEST POP GAS STATICCALL ISZERO DUP1 ISZERO PUSH2 0xEF6 JUMPI RETURNDATASIZE PUSH1 0x0 DUP1 RETURNDATACOPY RETURNDATASIZE PUSH1 0x0 REVERT JUMPDEST POP POP POP POP PUSH1 0x40 MLOAD RETURNDATASIZE PUSH1 0x1F NOT PUSH1 0x1F DUP3 ADD AND DUP3 ADD DUP1 PUSH1 0x40 MSTORE POP DUP2 ADD SWAP1 PUSH2 0xF1A SWAP2 SWAP1 PUSH2 0x11E6 JUMP JUMPDEST DUP3 GT ISZERO PUSH2 0xF5C JUMPI PUSH1 0x40 MLOAD PUSH32 0x8C379A000000000000000000000000000000000000000000000000000000000 DUP2 MSTORE PUSH1 0x4 ADD PUSH2 0xF53 SWAP1 PUSH2 0x1732 JUMP JUMPDEST PUSH1 0x40 MLOAD DUP1 SWAP2 SUB SWAP1 REVERT JUMPDEST CALLER PUSH20 0xFFFFFFFFFFFFFFFFFFFFFFFFFFFFFFFFFFFFFFFF AND PUSH2 0x8FC DUP3 CALLVALUE SUB SWAP1 DUP2 ISZERO MUL SWAP1 PUSH1 0x40 MLOAD PUSH1 0x0 PUSH1 0x40 MLOAD DUP1 DUP4 SUB DUP2 DUP6 DUP9 DUP9 CALL SWAP4 POP POP POP POP ISZERO DUP1 ISZERO PUSH2 0xFA4 JUMPI RETURNDATASIZE PUSH1 0x0 DUP1 RETURNDATACOPY RETURNDATASIZE PUSH1 0x0 REVERT JUMPDEST POP PUSH1 0x0 DUP1 SLOAD SWAP1 PUSH2 0x100 EXP SWAP1 DIV PUSH20 0xFFFFFFFFFFFFFFFFFFFFFFFFFFFFFFFFFFFFFFFF AND PUSH20 0xFFFFFFFFFFFFFFFFFFFFFFFFFFFFFFFFFFFFFFFF AND PUSH4 0xA9059CBB CALLER DUP5 PUSH1 0x40 MLOAD DUP4 PUSH4 0xFFFFFFFF AND PUSH1 0xE0 SHL DUP2 MSTORE PUSH1 0x4 ADD PUSH2 0x1000 SWAP3 SWAP2 SWAP1 PUSH2 0x15F5 JUMP JUMPDEST PUSH1 0x20 PUSH1 0x40 MLOAD DUP1 DUP4 SUB DUP2 PUSH1 0x0 DUP8 DUP1 EXTCODESIZE ISZERO DUP1 ISZERO PUSH2 0x101A JUMPI PUSH1 0x0 DUP1 REVERT JUMPDEST POP GAS CALL ISZERO DUP1 ISZERO PUSH2 0x102E JUMPI RETURNDATASIZE PUSH1 0x0 DUP1 RETURNDATACOPY RETURNDATASIZE PUSH1 0x0 REVERT JUMPDEST POP POP POP POP PUSH1 0x40 MLOAD RETURNDATASIZE PUSH1 0x1F NOT PUSH1 0x1F DUP3 ADD AND DUP3 ADD DUP1 PUSH1 0x40 MSTORE POP DUP2 ADD SWAP1 PUSH2 0x1052 SWAP2 SWAP1 PUSH2 0x1194 JUMP JUMPDEST POP PUSH32 0x1912293D843FE20A997ECEDFE6AB8B44B26FC0ED0D7D2E152158FFD021C9ACE3 DUP3 CALLER PUSH1 0x40 MLOAD PUSH2 0x1084 SWAP3 SWAP2 SWAP1 PUSH2 0x178D JUMP JUMPDEST PUSH1 0x40 MLOAD DUP1 SWAP2 SUB SWAP1 LOG1 POP POP JUMP JUMPDEST PUSH1 0x0 DUP1 PUSH1 0x0 SWAP1 SLOAD SWAP1 PUSH2 0x100 EXP SWAP1 DIV PUSH20 0xFFFFFFFFFFFFFFFFFFFFFFFFFFFFFFFFFFFFFFFF AND PUSH20 0xFFFFFFFFFFFFFFFFFFFFFFFFFFFFFFFFFFFFFFFF AND PUSH4 0x70A08231 ADDRESS PUSH1 0x40 MLOAD DUP3 PUSH4 0xFFFFFFFF AND PUSH1 0xE0 SHL DUP2 MSTORE PUSH1 0x4 ADD PUSH2 0x10EC SWAP2 SWAP1 PUSH2 0x1588 JUMP JUMPDEST PUSH1 0x20 PUSH1 0x40 MLOAD DUP1 DUP4 SUB DUP2 DUP7 DUP1 EXTCODESIZE ISZERO DUP1 ISZERO PUSH2 0x1104 JUMPI PUSH1 0x0 DUP1 REVERT JUMPDEST POP GAS STATICCALL ISZERO DUP1 ISZERO PUSH2 0x1118 JUMPI RETURNDATASIZE PUSH1 0x0 DUP1 RETURNDATACOPY RETURNDATASIZE PUSH1 0x0 REVERT JUMPDEST POP POP POP POP PUSH1 0x40 MLOAD RETURNDATASIZE PUSH1 0x1F NOT PUSH1 0x1F DUP3 ADD AND DUP3 ADD DUP1 PUSH1 0x40 MSTORE POP DUP2 ADD SWAP1 PUSH2 0x113C SWAP2 SWAP1 PUSH2 0x11E6 JUMP JUMPDEST SWAP1 POP SWAP1 JUMP JUMPDEST PUSH1 0x0 PUSH8 0xDE0B6B3A7640000 DUP3 MUL SWAP1 POP SWAP2 SWAP1 POP JUMP JUMPDEST PUSH1 0x0 DUP2 MLOAD SWAP1 POP PUSH2 0x1164 DUP2 PUSH2 0x18CB JUMP JUMPDEST SWAP3 SWAP2 POP POP JUMP JUMPDEST PUSH1 0x0 DUP2 CALLDATALOAD SWAP1 POP PUSH2 0x1179 DUP2 PUSH2 0x18E2 JUMP JUMPDEST SWAP3 SWAP2 POP POP JUMP JUMPDEST PUSH1 0x0 DUP2 MLOAD SWAP1 POP PUSH2 0x118E DUP2 PUSH2 0x18E2 JUMP JUMPDEST SWAP3 SWAP2 POP POP JUMP JUMPDEST PUSH1 0x0 PUSH1 0x20 DUP3 DUP5 SUB SLT ISZERO PUSH2 0x11A6 JUMPI PUSH1 0x0 DUP1 REVERT JUMPDEST PUSH1 0x0 PUSH2 0x11B4 DUP5 DUP3 DUP6 ADD PUSH2 0x1155 JUMP JUMPDEST SWAP2 POP POP SWAP3 SWAP2 POP POP JUMP JUMPDEST PUSH1 0x0 PUSH1 0x20 DUP3 DUP5 SUB SLT ISZERO PUSH2 0x11CF JUMPI PUSH1 0x0 DUP1 REVERT JUMPDEST PUSH1 0x0 PUSH2 0x11DD DUP5 DUP3 DUP6 ADD PUSH2 0x116A JUMP JUMPDEST SWAP2 POP POP SWAP3 SWAP2 POP POP JUMP JUMPDEST PUSH1 0x0 PUSH1 0x20 DUP3 DUP5 SUB SLT ISZERO PUSH2 0x11F8 JUMPI PUSH1 0x0 DUP1 REVERT JUMPDEST PUSH1 0x0 PUSH2 0x1206 DUP5 DUP3 DUP6 ADD PUSH2 0x117F JUMP JUMPDEST SWAP2 POP POP SWAP3 SWAP2 POP POP JUMP JUMPDEST PUSH1 0x0 PUSH2 0x121B DUP4 DUP4 PUSH2 0x14FB JUMP JUMPDEST PUSH1 0x20 DUP4 ADD SWAP1 POP SWAP3 SWAP2 POP POP JUMP JUMPDEST PUSH2 0x1230 DUP2 PUSH2 0x185A JUMP JUMPDEST DUP3 MSTORE POP POP JUMP JUMPDEST PUSH2 0x1247 PUSH2 0x1242 DUP3 PUSH2 0x1812 JUMP JUMPDEST PUSH2 0x1890 JUMP JUMPDEST DUP3 MSTORE POP POP JUMP JUMPDEST PUSH2 0x1256 DUP2 PUSH2 0x1800 JUMP JUMPDEST DUP3 MSTORE POP POP JUMP JUMPDEST PUSH1 0x0 PUSH2 0x1267 DUP3 PUSH2 0x17C6 JUMP JUMPDEST PUSH2 0x1271 DUP2 DUP6 PUSH2 0x17DE JUMP JUMPDEST SWAP4 POP PUSH2 0x127C DUP4 PUSH2 0x17B6 JUMP JUMPDEST DUP1 PUSH1 0x0 JUMPDEST DUP4 DUP2 LT ISZERO PUSH2 0x12AD JUMPI DUP2 MLOAD PUSH2 0x1294 DUP9 DUP3 PUSH2 0x120F JUMP JUMPDEST SWAP8 POP PUSH2 0x129F DUP4 PUSH2 0x17D1 JUMP JUMPDEST SWAP3 POP POP PUSH1 0x1 DUP2 ADD SWAP1 POP PUSH2 0x1280 JUMP JUMPDEST POP DUP6 SWAP4 POP POP POP POP SWAP3 SWAP2 POP POP JUMP JUMPDEST PUSH2 0x12C3 DUP2 PUSH2 0x1824 JUMP JUMPDEST DUP3 MSTORE POP POP JUMP JUMPDEST PUSH1 0x0 PUSH2 0x12D6 PUSH1 0x24 DUP4 PUSH2 0x17EF JUMP JUMPDEST SWAP2 POP PUSH32 0x4E6F2071756564616E2074616E746F7320626F6C65746F7320646973706F6E69 PUSH1 0x0 DUP4 ADD MSTORE PUSH32 0x626C657300000000000000000000000000000000000000000000000000000000 PUSH1 0x20 DUP4 ADD MSTORE PUSH1 0x40 DUP3 ADD SWAP1 POP SWAP2 SWAP1 POP JUMP JUMPDEST PUSH1 0x0 PUSH2 0x133C PUSH1 0x14 DUP4 PUSH2 0x17EF JUMP JUMPDEST SWAP2 POP PUSH32 0x546F6B656E7320696E737566696369656E746573000000000000000000000000 PUSH1 0x0 DUP4 ADD MSTORE PUSH1 0x20 DUP3 ADD SWAP1 POP SWAP2 SWAP1 POP JUMP JUMPDEST PUSH1 0x0 PUSH2 0x137C PUSH1 0x1F DUP4 PUSH2 0x17EF JUMP JUMPDEST SWAP2 POP PUSH32 0x43616E746964616420646520746F6B656E7320696E737566696369656E746500 PUSH1 0x0 DUP4 ADD MSTORE PUSH1 0x20 DUP3 ADD SWAP1 POP SWAP2 SWAP1 POP JUMP JUMPDEST PUSH1 0x0 PUSH2 0x13BC PUSH1 0x2D DUP4 PUSH2 0x17EF JUMP JUMPDEST SWAP2 POP PUSH32 0x4E6F207469656E6573207065726D69736F73207061726120656A656375746172 PUSH1 0x0 DUP4 ADD MSTORE PUSH32 0x20657374612066756E63696F6E00000000000000000000000000000000000000 PUSH1 0x20 DUP4 ADD MSTORE PUSH1 0x40 DUP3 ADD SWAP1 POP SWAP2 SWAP1 POP JUMP JUMPDEST PUSH1 0x0 PUSH2 0x1422 PUSH1 0x1E DUP4 PUSH2 0x17EF JUMP JUMPDEST SWAP2 POP PUSH32 0x43616E746964616420646520657468657220696E737566696369656E74650000 PUSH1 0x0 DUP4 ADD MSTORE PUSH1 0x20 DUP3 ADD SWAP1 POP SWAP2 SWAP1 POP JUMP JUMPDEST PUSH1 0x0 PUSH2 0x1462 PUSH1 0x20 DUP4 PUSH2 0x17EF JUMP JUMPDEST SWAP2 POP PUSH32 0x43616E746964616420646520746F6B656E7320696E737566696369656E746573 PUSH1 0x0 DUP4 ADD MSTORE PUSH1 0x20 DUP3 ADD SWAP1 POP SWAP2 SWAP1 POP JUMP JUMPDEST PUSH1 0x0 PUSH2 0x14A2 PUSH1 0x28 DUP4 PUSH2 0x17EF JUMP JUMPDEST SWAP2 POP PUSH32 0x4E6F2073652068612076656E6469646F206E696E67C3BA6E20626F6C65746F20 PUSH1 0x0 DUP4 ADD MSTORE PUSH32 0x746F646176C3AD61000000000000000000000000000000000000000000000000 PUSH1 0x20 DUP4 ADD MSTORE PUSH1 0x40 DUP3 ADD SWAP1 POP SWAP2 SWAP1 POP JUMP JUMPDEST PUSH2 0x1504 DUP2 PUSH2 0x1850 JUMP JUMPDEST DUP3 MSTORE POP POP JUMP JUMPDEST PUSH2 0x1513 DUP2 PUSH2 0x1850 JUMP JUMPDEST DUP3 MSTORE POP POP JUMP JUMPDEST PUSH2 0x152A PUSH2 0x1525 DUP3 PUSH2 0x1850 JUMP JUMPDEST PUSH2 0x18B4 JUMP JUMPDEST DUP3 MSTORE POP POP JUMP JUMPDEST PUSH1 0x0 PUSH2 0x153C DUP3 DUP5 PUSH2 0x1519 JUMP JUMPDEST PUSH1 0x20 DUP3 ADD SWAP2 POP DUP2 SWAP1 POP SWAP3 SWAP2 POP POP JUMP JUMPDEST PUSH1 0x0 PUSH2 0x1557 DUP3 DUP7 PUSH2 0x1519 JUMP JUMPDEST PUSH1 0x20 DUP3 ADD SWAP2 POP PUSH2 0x1567 DUP3 DUP6 PUSH2 0x1236 JUMP JUMPDEST PUSH1 0x14 DUP3 ADD SWAP2 POP PUSH2 0x1577 DUP3 DUP5 PUSH2 0x1519 JUMP JUMPDEST PUSH1 0x20 DUP3 ADD SWAP2 POP DUP2 SWAP1 POP SWAP5 SWAP4 POP POP POP POP JUMP JUMPDEST PUSH1 0x0 PUSH1 0x20 DUP3 ADD SWAP1 POP PUSH2 0x159D PUSH1 0x0 DUP4 ADD DUP5 PUSH2 0x124D JUMP JUMPDEST SWAP3 SWAP2 POP POP JUMP JUMPDEST PUSH1 0x0 PUSH1 0x20 DUP3 ADD SWAP1 POP PUSH2 0x15B8 PUSH1 0x0 DUP4 ADD DUP5 PUSH2 0x1227 JUMP JUMPDEST SWAP3 SWAP2 POP POP JUMP JUMPDEST PUSH1 0x0 PUSH1 0x60 DUP3 ADD SWAP1 POP PUSH2 0x15D3 PUSH1 0x0 DUP4 ADD DUP7 PUSH2 0x1227 JUMP JUMPDEST PUSH2 0x15E0 PUSH1 0x20 DUP4 ADD DUP6 PUSH2 0x124D JUMP JUMPDEST PUSH2 0x15ED PUSH1 0x40 DUP4 ADD DUP5 PUSH2 0x150A JUMP JUMPDEST SWAP5 SWAP4 POP POP POP POP JUMP JUMPDEST PUSH1 0x0 PUSH1 0x40 DUP3 ADD SWAP1 POP PUSH2 0x160A PUSH1 0x0 DUP4 ADD DUP6 PUSH2 0x1227 JUMP JUMPDEST PUSH2 0x1617 PUSH1 0x20 DUP4 ADD DUP5 PUSH2 0x150A JUMP JUMPDEST SWAP4 SWAP3 POP POP POP JUMP JUMPDEST PUSH1 0x0 PUSH1 0x60 DUP3 ADD SWAP1 POP PUSH2 0x1633 PUSH1 0x0 DUP4 ADD DUP7 PUSH2 0x124D JUMP JUMPDEST PUSH2 0x1640 PUSH1 0x20 DUP4 ADD DUP6 PUSH2 0x124D JUMP JUMPDEST PUSH2 0x164D PUSH1 0x40 DUP4 ADD DUP5 PUSH2 0x150A JUMP JUMPDEST SWAP5 SWAP4 POP POP POP POP JUMP JUMPDEST PUSH1 0x0 PUSH1 0x20 DUP3 ADD SWAP1 POP DUP2 DUP2 SUB PUSH1 0x0 DUP4 ADD MSTORE PUSH2 0x166F DUP2 DUP5 PUSH2 0x125C JUMP JUMPDEST SWAP1 POP SWAP3 SWAP2 POP POP JUMP JUMPDEST PUSH1 0x0 PUSH1 0x20 DUP3 ADD SWAP1 POP PUSH2 0x168C PUSH1 0x0 DUP4 ADD DUP5 PUSH2 0x12BA JUMP JUMPDEST SWAP3 SWAP2 POP POP JUMP JUMPDEST PUSH1 0x0 PUSH1 0x20 DUP3 ADD SWAP1 POP DUP2 DUP2 SUB PUSH1 0x0 DUP4 ADD MSTORE PUSH2 0x16AB DUP2 PUSH2 0x12C9 JUMP JUMPDEST SWAP1 POP SWAP2 SWAP1 POP JUMP JUMPDEST PUSH1 0x0 PUSH1 0x20 DUP3 ADD SWAP1 POP DUP2 DUP2 SUB PUSH1 0x0 DUP4 ADD MSTORE PUSH2 0x16CB DUP2 PUSH2 0x132F JUMP JUMPDEST SWAP1 POP SWAP2 SWAP1 POP JUMP JUMPDEST PUSH1 0x0 PUSH1 0x20 DUP3 ADD SWAP1 POP DUP2 DUP2 SUB PUSH1 0x0 DUP4 ADD MSTORE PUSH2 0x16EB DUP2 PUSH2 0x136F JUMP JUMPDEST SWAP1 POP SWAP2 SWAP1 POP JUMP JUMPDEST PUSH1 0x0 PUSH1 0x20 DUP3 ADD SWAP1 POP DUP2 DUP2 SUB PUSH1 0x0 DUP4 ADD MSTORE PUSH2 0x170B DUP2 PUSH2 0x13AF JUMP JUMPDEST SWAP1 POP SWAP2 SWAP1 POP JUMP JUMPDEST PUSH1 0x0 PUSH1 0x20 DUP3 ADD SWAP1 POP DUP2 DUP2 SUB PUSH1 0x0 DUP4 ADD MSTORE PUSH2 0x172B DUP2 PUSH2 0x1415 JUMP JUMPDEST SWAP1 POP SWAP2 SWAP1 POP JUMP JUMPDEST PUSH1 0x0 PUSH1 0x20 DUP3 ADD SWAP1 POP DUP2 DUP2 SUB PUSH1 0x0 DUP4 ADD MSTORE PUSH2 0x174B DUP2 PUSH2 0x1455 JUMP JUMPDEST SWAP1 POP SWAP2 SWAP1 POP JUMP JUMPDEST PUSH1 0x0 PUSH1 0x20 DUP3 ADD SWAP1 POP DUP2 DUP2 SUB PUSH1 0x0 DUP4 ADD MSTORE PUSH2 0x176B DUP2 PUSH2 0x1495 JUMP JUMPDEST SWAP1 POP SWAP2 SWAP1 POP JUMP JUMPDEST PUSH1 0x0 PUSH1 0x20 DUP3 ADD SWAP1 POP PUSH2 0x1787 PUSH1 0x0 DUP4 ADD DUP5 PUSH2 0x150A JUMP JUMPDEST SWAP3 SWAP2 POP POP JUMP JUMPDEST PUSH1 0x0 PUSH1 0x40 DUP3 ADD SWAP1 POP PUSH2 0x17A2 PUSH1 0x0 DUP4 ADD DUP6 PUSH2 0x150A JUMP JUMPDEST PUSH2 0x17AF PUSH1 0x20 DUP4 ADD DUP5 PUSH2 0x1227 JUMP JUMPDEST SWAP4 SWAP3 POP POP POP JUMP JUMPDEST PUSH1 0x0 DUP2 SWAP1 POP PUSH1 0x20 DUP3 ADD SWAP1 POP SWAP2 SWAP1 POP JUMP JUMPDEST PUSH1 0x0 DUP2 MLOAD SWAP1 POP SWAP2 SWAP1 POP JUMP JUMPDEST PUSH1 0x0 PUSH1 0x20 DUP3 ADD SWAP1 POP SWAP2 SWAP1 POP JUMP JUMPDEST PUSH1 0x0 DUP3 DUP3 MSTORE PUSH1 0x20 DUP3 ADD SWAP1 POP SWAP3 SWAP2 POP POP JUMP JUMPDEST PUSH1 0x0 DUP3 DUP3 MSTORE PUSH1 0x20 DUP3 ADD SWAP1 POP SWAP3 SWAP2 POP POP JUMP JUMPDEST PUSH1 0x0 PUSH2 0x180B DUP3 PUSH2 0x1830 JUMP JUMPDEST SWAP1 POP SWAP2 SWAP1 POP JUMP JUMPDEST PUSH1 0x0 PUSH2 0x181D DUP3 PUSH2 0x1830 JUMP JUMPDEST SWAP1 POP SWAP2 SWAP1 POP JUMP JUMPDEST PUSH1 0x0 DUP2 ISZERO ISZERO SWAP1 POP SWAP2 SWAP1 POP JUMP JUMPDEST PUSH1 0x0 PUSH20 0xFFFFFFFFFFFFFFFFFFFFFFFFFFFFFFFFFFFFFFFF DUP3 AND SWAP1 POP SWAP2 SWAP1 POP JUMP JUMPDEST PUSH1 0x0 DUP2 SWAP1 POP SWAP2 SWAP1 POP JUMP JUMPDEST PUSH1 0x0 PUSH2 0x1865 DUP3 PUSH2 0x186C JUMP JUMPDEST SWAP1 POP SWAP2 SWAP1 POP JUMP JUMPDEST PUSH1 0x0 PUSH2 0x1877 DUP3 PUSH2 0x187E JUMP JUMPDEST SWAP1 POP SWAP2 SWAP1 POP JUMP JUMPDEST PUSH1 0x0 PUSH2 0x1889 DUP3 PUSH2 0x1830 JUMP JUMPDEST SWAP1 POP SWAP2 SWAP1 POP JUMP JUMPDEST PUSH1 0x0 PUSH2 0x189B DUP3 PUSH2 0x18A2 JUMP JUMPDEST SWAP1 POP SWAP2 SWAP1 POP JUMP JUMPDEST PUSH1 0x0 PUSH2 0x18AD DUP3 PUSH2 0x18BE JUMP JUMPDEST SWAP1 POP SWAP2 SWAP1 POP JUMP JUMPDEST PUSH1 0x0 DUP2 SWAP1 POP SWAP2 SWAP1 POP JUMP JUMPDEST PUSH1 0x0 DUP2 PUSH1 0x60 SHL SWAP1 POP SWAP2 SWAP1 POP JUMP JUMPDEST PUSH2 0x18D4 DUP2 PUSH2 0x1824 JUMP JUMPDEST DUP2 EQ PUSH2 0x18DF JUMPI PUSH1 0x0 DUP1 REVERT JUMPDEST POP JUMP JUMPDEST PUSH2 0x18EB DUP2 PUSH2 0x1850 JUMP JUMPDEST DUP2 EQ PUSH2 0x18F6 JUMPI PUSH1 0x0 DUP1 REVERT JUMPDEST POP JUMP INVALID LOG2 PUSH5 0x6970667358 0x22 SLT KECCAK256 EXTCODEHASH PUSH32 0x7E5E02D7CC276A1B74AB31B2A5C8F3C60E757288C940F9814E75368EB00B6473 PUSH16 0x6C634300060C00336080604052348015 PUSH2 0x10 JUMPI PUSH1 0x0 DUP1 REVERT JUMPDEST POP PUSH1 0x40 MLOAD PUSH2 0x109D CODESIZE SUB DUP1 PUSH2 0x109D DUP4 CODECOPY DUP2 DUP2 ADD PUSH1 0x40 MSTORE DUP2 ADD SWAP1 PUSH2 0x32 SWAP2 SWAP1 PUSH2 0x99 JUMP JUMPDEST DUP1 PUSH1 0x2 DUP2 SWAP1 SSTORE POP PUSH1 0x2 SLOAD PUSH1 0x0 DUP1 CALLER PUSH20 0xFFFFFFFFFFFFFFFFFFFFFFFFFFFFFFFFFFFFFFFF AND PUSH20 0xFFFFFFFFFFFFFFFFFFFFFFFFFFFFFFFFFFFFFFFF AND DUP2 MSTORE PUSH1 0x20 ADD SWAP1 DUP2 MSTORE PUSH1 0x20 ADD PUSH1 0x0 KECCAK256 DUP2 SWAP1 SSTORE POP POP PUSH2 0xE3 JUMP JUMPDEST PUSH1 0x0 DUP2 MLOAD SWAP1 POP PUSH2 0x93 DUP2 PUSH2 0xCC JUMP JUMPDEST SWAP3 SWAP2 POP POP JUMP JUMPDEST PUSH1 0x0 PUSH1 0x20 DUP3 DUP5 SUB SLT ISZERO PUSH2 0xAB JUMPI PUSH1 0x0 DUP1 REVERT JUMPDEST PUSH1 0x0 PUSH2 0xB9 DUP5 DUP3 DUP6 ADD PUSH2 0x84 JUMP JUMPDEST SWAP2 POP POP SWAP3 SWAP2 POP POP JUMP JUMPDEST PUSH1 0x0 DUP2 SWAP1 POP SWAP2 SWAP1 POP JUMP JUMPDEST PUSH2 0xD5 DUP2 PUSH2 0xC2 JUMP JUMPDEST DUP2 EQ PUSH2 0xE0 JUMPI PUSH1 0x0 DUP1 REVERT JUMPDEST POP JUMP JUMPDEST PUSH2 0xFAB DUP1 PUSH2 0xF2 PUSH1 0x0 CODECOPY PUSH1 0x0 RETURN INVALID PUSH1 0x80 PUSH1 0x40 MSTORE CALLVALUE DUP1 ISZERO PUSH2 0x10 JUMPI PUSH1 0x0 DUP1 REVERT JUMPDEST POP PUSH1 0x4 CALLDATASIZE LT PUSH2 0xA9 JUMPI PUSH1 0x0 CALLDATALOAD PUSH1 0xE0 SHR DUP1 PUSH4 0x313CE567 GT PUSH2 0x71 JUMPI DUP1 PUSH4 0x313CE567 EQ PUSH2 0x166 JUMPI DUP1 PUSH4 0x5C79FEBB EQ PUSH2 0x184 JUMPI DUP1 PUSH4 0x70A08231 EQ PUSH2 0x1B4 JUMPI DUP1 PUSH4 0x95D89B41 EQ PUSH2 0x1E4 JUMPI DUP1 PUSH4 0xA9059CBB EQ PUSH2 0x202 JUMPI DUP1 PUSH4 0xDD62ED3E EQ PUSH2 0x232 JUMPI PUSH2 0xA9 JUMP JUMPDEST DUP1 PUSH4 0x6FDDE03 EQ PUSH2 0xAE JUMPI DUP1 PUSH4 0x95EA7B3 EQ PUSH2 0xCC JUMPI DUP1 PUSH4 0x18160DDD EQ PUSH2 0xFC JUMPI DUP1 PUSH4 0x1D43CC98 EQ PUSH2 0x11A JUMPI DUP1 PUSH4 0x23B872DD EQ PUSH2 0x136 JUMPI JUMPDEST PUSH1 0x0 DUP1 REVERT JUMPDEST PUSH2 0xB6 PUSH2 0x262 JUMP JUMPDEST PUSH1 0x40 MLOAD PUSH2 0xC3 SWAP2 SWAP1 PUSH2 0xE3A JUMP JUMPDEST PUSH1 0x40 MLOAD DUP1 SWAP2 SUB SWAP1 RETURN JUMPDEST PUSH2 0xE6 PUSH1 0x4 DUP1 CALLDATASIZE SUB DUP2 ADD SWAP1 PUSH2 0xE1 SWAP2 SWAP1 PUSH2 0xD54 JUMP JUMPDEST PUSH2 0x29B JUMP JUMPDEST PUSH1 0x40 MLOAD PUSH2 0xF3 SWAP2 SWAP1 PUSH2 0xE1F JUMP JUMPDEST PUSH1 0x40 MLOAD DUP1 SWAP2 SUB SWAP1 RETURN JUMPDEST PUSH2 0x104 PUSH2 0x38D JUMP JUMPDEST PUSH1 0x40 MLOAD PUSH2 0x111 SWAP2 SWAP1 PUSH2 0xE5C JUMP JUMPDEST PUSH1 0x40 MLOAD DUP1 SWAP2 SUB SWAP1 RETURN JUMPDEST PUSH2 0x134 PUSH1 0x4 DUP1 CALLDATASIZE SUB DUP2 ADD SWAP1 PUSH2 0x12F SWAP2 SWAP1 PUSH2 0xD90 JUMP JUMPDEST PUSH2 0x397 JUMP JUMPDEST STOP JUMPDEST PUSH2 0x150 PUSH1 0x4 DUP1 CALLDATASIZE SUB DUP2 ADD SWAP1 PUSH2 0x14B SWAP2 SWAP1 PUSH2 0xD05 JUMP JUMPDEST PUSH2 0x3F6 JUMP JUMPDEST PUSH1 0x40 MLOAD PUSH2 0x15D SWAP2 SWAP1 PUSH2 0xE1F JUMP JUMPDEST PUSH1 0x40 MLOAD DUP1 SWAP2 SUB SWAP1 RETURN JUMPDEST PUSH2 0x16E PUSH2 0x771 JUMP JUMPDEST PUSH1 0x40 MLOAD PUSH2 0x17B SWAP2 SWAP1 PUSH2 0xE77 JUMP JUMPDEST PUSH1 0x40 MLOAD DUP1 SWAP2 SUB SWAP1 RETURN JUMPDEST PUSH2 0x19E PUSH1 0x4 DUP1 CALLDATASIZE SUB DUP2 ADD SWAP1 PUSH2 0x199 SWAP2 SWAP1 PUSH2 0xD05 JUMP JUMPDEST PUSH2 0x776 JUMP JUMPDEST PUSH1 0x40 MLOAD PUSH2 0x1AB SWAP2 SWAP1 PUSH2 0xE1F JUMP JUMPDEST PUSH1 0x40 MLOAD DUP1 SWAP2 SUB SWAP1 RETURN JUMPDEST PUSH2 0x1CE PUSH1 0x4 DUP1 CALLDATASIZE SUB DUP2 ADD SWAP1 PUSH2 0x1C9 SWAP2 SWAP1 PUSH2 0xCA0 JUMP JUMPDEST PUSH2 0x959 JUMP JUMPDEST PUSH1 0x40 MLOAD PUSH2 0x1DB SWAP2 SWAP1 PUSH2 0xE5C JUMP JUMPDEST PUSH1 0x40 MLOAD DUP1 SWAP2 SUB SWAP1 RETURN JUMPDEST PUSH2 0x1EC PUSH2 0x9A1 JUMP JUMPDEST PUSH1 0x40 MLOAD PUSH2 0x1F9 SWAP2 SWAP1 PUSH2 0xE3A JUMP JUMPDEST PUSH1 0x40 MLOAD DUP1 SWAP2 SUB SWAP1 RETURN JUMPDEST PUSH2 0x21C PUSH1 0x4 DUP1 CALLDATASIZE SUB DUP2 ADD SWAP1 PUSH2 0x217 SWAP2 SWAP1 PUSH2 0xD54 JUMP JUMPDEST PUSH2 0x9DA JUMP JUMPDEST PUSH1 0x40 MLOAD PUSH2 0x229 SWAP2 SWAP1 PUSH2 0xE1F JUMP JUMPDEST PUSH1 0x40 MLOAD DUP1 SWAP2 SUB SWAP1 RETURN JUMPDEST PUSH2 0x24C PUSH1 0x4 DUP1 CALLDATASIZE SUB DUP2 ADD SWAP1 PUSH2 0x247 SWAP2 SWAP1 PUSH2 0xCC9 JUMP JUMPDEST PUSH2 0xBBC JUMP JUMPDEST PUSH1 0x40 MLOAD PUSH2 0x259 SWAP2 SWAP1 PUSH2 0xE5C JUMP JUMPDEST PUSH1 0x40 MLOAD DUP1 SWAP2 SUB SWAP1 RETURN JUMPDEST PUSH1 0x40 MLOAD DUP1 PUSH1 0x40 ADD PUSH1 0x40 MSTORE DUP1 PUSH1 0xC DUP2 MSTORE PUSH1 0x20 ADD PUSH32 0x4552433230414B414C75676F0000000000000000000000000000000000000000 DUP2 MSTORE POP DUP2 JUMP JUMPDEST PUSH1 0x0 DUP2 PUSH1 0x1 PUSH1 0x0 CALLER PUSH20 0xFFFFFFFFFFFFFFFFFFFFFFFFFFFFFFFFFFFFFFFF AND PUSH20 0xFFFFFFFFFFFFFFFFFFFFFFFFFFFFFFFFFFFFFFFF AND DUP2 MSTORE PUSH1 0x20 ADD SWAP1 DUP2 MSTORE PUSH1 0x20 ADD PUSH1 0x0 KECCAK256 PUSH1 0x0 DUP6 PUSH20 0xFFFFFFFFFFFFFFFFFFFFFFFFFFFFFFFFFFFFFFFF AND PUSH20 0xFFFFFFFFFFFFFFFFFFFFFFFFFFFFFFFFFFFFFFFF AND DUP2 MSTORE PUSH1 0x20 ADD SWAP1 DUP2 MSTORE PUSH1 0x20 ADD PUSH1 0x0 KECCAK256 DUP2 SWAP1 SSTORE POP DUP3 PUSH20 0xFFFFFFFFFFFFFFFFFFFFFFFFFFFFFFFFFFFFFFFF AND CALLER PUSH20 0xFFFFFFFFFFFFFFFFFFFFFFFFFFFFFFFFFFFFFFFF AND PUSH32 0x8C5BE1E5EBEC7D5BD14F71427D1E84F3DD0314C0F7B2291E5B200AC8C7C3B925 DUP5 PUSH1 0x40 MLOAD PUSH2 0x37B SWAP2 SWAP1 PUSH2 0xE5C JUMP JUMPDEST PUSH1 0x40 MLOAD DUP1 SWAP2 SUB SWAP1 LOG3 PUSH1 0x1 SWAP1 POP SWAP3 SWAP2 POP POP JUMP JUMPDEST PUSH1 0x0 PUSH1 0x2 SLOAD SWAP1 POP SWAP1 JUMP JUMPDEST DUP1 PUSH1 0x2 PUSH1 0x0 DUP3 DUP3 SLOAD ADD SWAP3 POP POP DUP2 SWAP1 SSTORE POP DUP1 PUSH1 0x0 DUP1 CALLER PUSH20 0xFFFFFFFFFFFFFFFFFFFFFFFFFFFFFFFFFFFFFFFF AND PUSH20 0xFFFFFFFFFFFFFFFFFFFFFFFFFFFFFFFFFFFFFFFF AND DUP2 MSTORE PUSH1 0x20 ADD SWAP1 DUP2 MSTORE PUSH1 0x20 ADD PUSH1 0x0 KECCAK256 PUSH1 0x0 DUP3 DUP3 SLOAD ADD SWAP3 POP POP DUP2 SWAP1 SSTORE POP POP JUMP JUMPDEST PUSH1 0x0 DUP2 PUSH1 0x0 DUP1 DUP7 PUSH20 0xFFFFFFFFFFFFFFFFFFFFFFFFFFFFFFFFFFFFFFFF AND PUSH20 0xFFFFFFFFFFFFFFFFFFFFFFFFFFFFFFFFFFFFFFFF AND DUP2 MSTORE PUSH1 0x20 ADD SWAP1 DUP2 MSTORE PUSH1 0x20 ADD PUSH1 0x0 KECCAK256 SLOAD LT ISZERO PUSH2 0x443 JUMPI PUSH1 0x0 DUP1 REVERT JUMPDEST DUP2 PUSH1 0x1 PUSH1 0x0 DUP7 PUSH20 0xFFFFFFFFFFFFFFFFFFFFFFFFFFFFFFFFFFFFFFFF AND PUSH20 0xFFFFFFFFFFFFFFFFFFFFFFFFFFFFFFFFFFFFFFFF AND DUP2 MSTORE PUSH1 0x20 ADD SWAP1 DUP2 MSTORE PUSH1 0x20 ADD PUSH1 0x0 KECCAK256 PUSH1 0x0 CALLER PUSH20 0xFFFFFFFFFFFFFFFFFFFFFFFFFFFFFFFFFFFFFFFF AND PUSH20 0xFFFFFFFFFFFFFFFFFFFFFFFFFFFFFFFFFFFFFFFF AND DUP2 MSTORE PUSH1 0x20 ADD SWAP1 DUP2 MSTORE PUSH1 0x20 ADD PUSH1 0x0 KECCAK256 SLOAD LT ISZERO PUSH2 0x4CC JUMPI PUSH1 0x0 DUP1 REVERT JUMPDEST PUSH2 0x51D DUP3 PUSH1 0x0 DUP1 DUP8 PUSH20 0xFFFFFFFFFFFFFFFFFFFFFFFFFFFFFFFFFFFFFFFF AND PUSH20 0xFFFFFFFFFFFFFFFFFFFFFFFFFFFFFFFFFFFFFFFF AND DUP2 MSTORE PUSH1 0x20 ADD SWAP1 DUP2 MSTORE PUSH1 0x20 ADD PUSH1 0x0 KECCAK256 SLOAD PUSH2 0xC43 SWAP1 SWAP2 SWAP1 PUSH4 0xFFFFFFFF AND JUMP JUMPDEST PUSH1 0x0 DUP1 DUP7 PUSH20 0xFFFFFFFFFFFFFFFFFFFFFFFFFFFFFFFFFFFFFFFF AND PUSH20 0xFFFFFFFFFFFFFFFFFFFFFFFFFFFFFFFFFFFFFFFF AND DUP2 MSTORE PUSH1 0x20 ADD SWAP1 DUP2 MSTORE PUSH1 0x20 ADD PUSH1 0x0 KECCAK256 DUP2 SWAP1 SSTORE POP PUSH2 0x5EE DUP3 PUSH1 0x1 PUSH1 0x0 DUP8 PUSH20 0xFFFFFFFFFFFFFFFFFFFFFFFFFFFFFFFFFFFFFFFF AND PUSH20 0xFFFFFFFFFFFFFFFFFFFFFFFFFFFFFFFFFFFFFFFF AND DUP2 MSTORE PUSH1 0x20 ADD SWAP1 DUP2 MSTORE PUSH1 0x20 ADD PUSH1 0x0 KECCAK256 PUSH1 0x0 CALLER PUSH20 0xFFFFFFFFFFFFFFFFFFFFFFFFFFFFFFFFFFFFFFFF AND PUSH20 0xFFFFFFFFFFFFFFFFFFFFFFFFFFFFFFFFFFFFFFFF AND DUP2 MSTORE PUSH1 0x20 ADD SWAP1 DUP2 MSTORE PUSH1 0x20 ADD PUSH1 0x0 KECCAK256 SLOAD PUSH2 0xC43 SWAP1 SWAP2 SWAP1 PUSH4 0xFFFFFFFF AND JUMP JUMPDEST PUSH1 0x1 PUSH1 0x0 DUP7 PUSH20 0xFFFFFFFFFFFFFFFFFFFFFFFFFFFFFFFFFFFFFFFF AND PUSH20 0xFFFFFFFFFFFFFFFFFFFFFFFFFFFFFFFFFFFFFFFF AND DUP2 MSTORE PUSH1 0x20 ADD SWAP1 DUP2 MSTORE PUSH1 0x20 ADD PUSH1 0x0 KECCAK256 PUSH1 0x0 CALLER PUSH20 0xFFFFFFFFFFFFFFFFFFFFFFFFFFFFFFFFFFFFFFFF AND PUSH20 0xFFFFFFFFFFFFFFFFFFFFFFFFFFFFFFFFFFFFFFFF AND DUP2 MSTORE PUSH1 0x20 ADD SWAP1 DUP2 MSTORE PUSH1 0x20 ADD PUSH1 0x0 KECCAK256 DUP2 SWAP1 SSTORE POP PUSH2 0x6BF DUP3 PUSH1 0x0 DUP1 DUP7 PUSH20 0xFFFFFFFFFFFFFFFFFFFFFFFFFFFFFFFFFFFFFFFF AND PUSH20 0xFFFFFFFFFFFFFFFFFFFFFFFFFFFFFFFFFFFFFFFF AND DUP2 MSTORE PUSH1 0x20 ADD SWAP1 DUP2 MSTORE PUSH1 0x20 ADD PUSH1 0x0 KECCAK256 SLOAD PUSH2 0xC5A SWAP1 SWAP2 SWAP1 PUSH4 0xFFFFFFFF AND JUMP JUMPDEST PUSH1 0x0 DUP1 DUP6 PUSH20 0xFFFFFFFFFFFFFFFFFFFFFFFFFFFFFFFFFFFFFFFF AND PUSH20 0xFFFFFFFFFFFFFFFFFFFFFFFFFFFFFFFFFFFFFFFF AND DUP2 MSTORE PUSH1 0x20 ADD SWAP1 DUP2 MSTORE PUSH1 0x20 ADD PUSH1 0x0 KECCAK256 DUP2 SWAP1 SSTORE POP DUP3 PUSH20 0xFFFFFFFFFFFFFFFFFFFFFFFFFFFFFFFFFFFFFFFF AND DUP5 PUSH20 0xFFFFFFFFFFFFFFFFFFFFFFFFFFFFFFFFFFFFFFFF AND PUSH32 0xDDF252AD1BE2C89B69C2B068FC378DAA952BA7F163C4A11628F55A4DF523B3EF DUP5 PUSH1 0x40 MLOAD PUSH2 0x75E SWAP2 SWAP1 PUSH2 0xE5C JUMP JUMPDEST PUSH1 0x40 MLOAD DUP1 SWAP2 SUB SWAP1 LOG3 PUSH1 0x1 SWAP1 POP SWAP4 SWAP3 POP POP POP JUMP JUMPDEST PUSH1 0x12 DUP2 JUMP JUMPDEST PUSH1 0x0 DUP1 PUSH1 0x0 DUP6 PUSH20 0xFFFFFFFFFFFFFFFFFFFFFFFFFFFFFFFFFFFFFFFF AND PUSH20 0xFFFFFFFFFFFFFFFFFFFFFFFFFFFFFFFFFFFFFFFF AND DUP2 MSTORE PUSH1 0x20 ADD SWAP1 DUP2 MSTORE PUSH1 0x20 ADD PUSH1 0x0 KECCAK256 SLOAD DUP3 GT ISZERO PUSH2 0x7C3 JUMPI PUSH1 0x0 DUP1 REVERT JUMPDEST PUSH2 0x814 DUP3 PUSH1 0x0 DUP1 DUP8 PUSH20 0xFFFFFFFFFFFFFFFFFFFFFFFFFFFFFFFFFFFFFFFF AND PUSH20 0xFFFFFFFFFFFFFFFFFFFFFFFFFFFFFFFFFFFFFFFF AND DUP2 MSTORE PUSH1 0x20 ADD SWAP1 DUP2 MSTORE PUSH1 0x20 ADD PUSH1 0x0 KECCAK256 SLOAD PUSH2 0xC43 SWAP1 SWAP2 SWAP1 PUSH4 0xFFFFFFFF AND JUMP JUMPDEST PUSH1 0x0 DUP1 DUP7 PUSH20 0xFFFFFFFFFFFFFFFFFFFFFFFFFFFFFFFFFFFFFFFF AND PUSH20 0xFFFFFFFFFFFFFFFFFFFFFFFFFFFFFFFFFFFFFFFF AND DUP2 MSTORE PUSH1 0x20 ADD SWAP1 DUP2 MSTORE PUSH1 0x20 ADD PUSH1 0x0 KECCAK256 DUP2 SWAP1 SSTORE POP PUSH2 0x8A7 DUP3 PUSH1 0x0 DUP1 DUP7 PUSH20 0xFFFFFFFFFFFFFFFFFFFFFFFFFFFFFFFFFFFFFFFF AND PUSH20 0xFFFFFFFFFFFFFFFFFFFFFFFFFFFFFFFFFFFFFFFF AND DUP2 MSTORE PUSH1 0x20 ADD SWAP1 DUP2 MSTORE PUSH1 0x20 ADD PUSH1 0x0 KECCAK256 SLOAD PUSH2 0xC5A SWAP1 SWAP2 SWAP1 PUSH4 0xFFFFFFFF AND JUMP JUMPDEST PUSH1 0x0 DUP1 DUP6 PUSH20 0xFFFFFFFFFFFFFFFFFFFFFFFFFFFFFFFFFFFFFFFF AND PUSH20 0xFFFFFFFFFFFFFFFFFFFFFFFFFFFFFFFFFFFFFFFF AND DUP2 MSTORE PUSH1 0x20 ADD SWAP1 DUP2 MSTORE PUSH1 0x20 ADD PUSH1 0x0 KECCAK256 DUP2 SWAP1 SSTORE POP DUP3 PUSH20 0xFFFFFFFFFFFFFFFFFFFFFFFFFFFFFFFFFFFFFFFF AND DUP5 PUSH20 0xFFFFFFFFFFFFFFFFFFFFFFFFFFFFFFFFFFFFFFFF AND PUSH32 0xDDF252AD1BE2C89B69C2B068FC378DAA952BA7F163C4A11628F55A4DF523B3EF DUP5 PUSH1 0x40 MLOAD PUSH2 0x946 SWAP2 SWAP1 PUSH2 0xE5C JUMP JUMPDEST PUSH1 0x40 MLOAD DUP1 SWAP2 SUB SWAP1 LOG3 PUSH1 0x1 SWAP1 POP SWAP4 SWAP3 POP POP POP JUMP JUMPDEST PUSH1 0x0 DUP1 PUSH1 0x0 DUP4 PUSH20 0xFFFFFFFFFFFFFFFFFFFFFFFFFFFFFFFFFFFFFFFF AND PUSH20 0xFFFFFFFFFFFFFFFFFFFFFFFFFFFFFFFFFFFFFFFF AND DUP2 MSTORE PUSH1 0x20 ADD SWAP1 DUP2 MSTORE PUSH1 0x20 ADD PUSH1 0x0 KECCAK256 SLOAD SWAP1 POP SWAP2 SWAP1 POP JUMP JUMPDEST PUSH1 0x40 MLOAD DUP1 PUSH1 0x40 ADD PUSH1 0x40 MSTORE DUP1 PUSH1 0x3 DUP2 MSTORE PUSH1 0x20 ADD PUSH32 0x414B410000000000000000000000000000000000000000000000000000000000 DUP2 MSTORE POP DUP2 JUMP JUMPDEST PUSH1 0x0 DUP1 PUSH1 0x0 CALLER PUSH20 0xFFFFFFFFFFFFFFFFFFFFFFFFFFFFFFFFFFFFFFFF AND PUSH20 0xFFFFFFFFFFFFFFFFFFFFFFFFFFFFFFFFFFFFFFFF AND DUP2 MSTORE PUSH1 0x20 ADD SWAP1 DUP2 MSTORE PUSH1 0x20 ADD PUSH1 0x0 KECCAK256 SLOAD DUP3 GT ISZERO PUSH2 0xA27 JUMPI PUSH1 0x0 DUP1 REVERT JUMPDEST PUSH2 0xA78 DUP3 PUSH1 0x0 DUP1 CALLER PUSH20 0xFFFFFFFFFFFFFFFFFFFFFFFFFFFFFFFFFFFFFFFF AND PUSH20 0xFFFFFFFFFFFFFFFFFFFFFFFFFFFFFFFFFFFFFFFF AND DUP2 MSTORE PUSH1 0x20 ADD SWAP1 DUP2 MSTORE PUSH1 0x20 ADD PUSH1 0x0 KECCAK256 SLOAD PUSH2 0xC43 SWAP1 SWAP2 SWAP1 PUSH4 0xFFFFFFFF AND JUMP JUMPDEST PUSH1 0x0 DUP1 CALLER PUSH20 0xFFFFFFFFFFFFFFFFFFFFFFFFFFFFFFFFFFFFFFFF AND PUSH20 0xFFFFFFFFFFFFFFFFFFFFFFFFFFFFFFFFFFFFFFFF AND DUP2 MSTORE PUSH1 0x20 ADD SWAP1 DUP2 MSTORE PUSH1 0x20 ADD PUSH1 0x0 KECCAK256 DUP2 SWAP1 SSTORE POP PUSH2 0xB0B DUP3 PUSH1 0x0 DUP1 DUP7 PUSH20 0xFFFFFFFFFFFFFFFFFFFFFFFFFFFFFFFFFFFFFFFF AND PUSH20 0xFFFFFFFFFFFFFFFFFFFFFFFFFFFFFFFFFFFFFFFF AND DUP2 MSTORE PUSH1 0x20 ADD SWAP1 DUP2 MSTORE PUSH1 0x20 ADD PUSH1 0x0 KECCAK256 SLOAD PUSH2 0xC5A SWAP1 SWAP2 SWAP1 PUSH4 0xFFFFFFFF AND JUMP JUMPDEST PUSH1 0x0 DUP1 DUP6 PUSH20 0xFFFFFFFFFFFFFFFFFFFFFFFFFFFFFFFFFFFFFFFF AND PUSH20 0xFFFFFFFFFFFFFFFFFFFFFFFFFFFFFFFFFFFFFFFF AND DUP2 MSTORE PUSH1 0x20 ADD SWAP1 DUP2 MSTORE PUSH1 0x20 ADD PUSH1 0x0 KECCAK256 DUP2 SWAP1 SSTORE POP DUP3 PUSH20 0xFFFFFFFFFFFFFFFFFFFFFFFFFFFFFFFFFFFFFFFF AND CALLER PUSH20 0xFFFFFFFFFFFFFFFFFFFFFFFFFFFFFFFFFFFFFFFF AND PUSH32 0xDDF252AD1BE2C89B69C2B068FC378DAA952BA7F163C4A11628F55A4DF523B3EF DUP5 PUSH1 0x40 MLOAD PUSH2 0xBAA SWAP2 SWAP1 PUSH2 0xE5C JUMP JUMPDEST PUSH1 0x40 MLOAD DUP1 SWAP2 SUB SWAP1 LOG3 PUSH1 0x1 SWAP1 POP SWAP3 SWAP2 POP POP JUMP JUMPDEST PUSH1 0x0 PUSH1 0x1 PUSH1 0x0 DUP5 PUSH20 0xFFFFFFFFFFFFFFFFFFFFFFFFFFFFFFFFFFFFFFFF AND PUSH20 0xFFFFFFFFFFFFFFFFFFFFFFFFFFFFFFFFFFFFFFFF AND DUP2 MSTORE PUSH1 0x20 ADD SWAP1 DUP2 MSTORE PUSH1 0x20 ADD PUSH1 0x0 KECCAK256 PUSH1 0x0 DUP4 PUSH20 0xFFFFFFFFFFFFFFFFFFFFFFFFFFFFFFFFFFFFFFFF AND PUSH20 0xFFFFFFFFFFFFFFFFFFFFFFFFFFFFFFFFFFFFFFFF AND DUP2 MSTORE PUSH1 0x20 ADD SWAP1 DUP2 MSTORE PUSH1 0x20 ADD PUSH1 0x0 KECCAK256 SLOAD SWAP1 POP SWAP3 SWAP2 POP POP JUMP JUMPDEST PUSH1 0x0 DUP3 DUP3 GT ISZERO PUSH2 0xC4F JUMPI INVALID JUMPDEST DUP2 DUP4 SUB SWAP1 POP SWAP3 SWAP2 POP POP JUMP JUMPDEST PUSH1 0x0 DUP1 DUP3 DUP5 ADD SWAP1 POP DUP4 DUP2 LT ISZERO PUSH2 0xC6C JUMPI INVALID JUMPDEST DUP1 SWAP2 POP POP SWAP3 SWAP2 POP POP JUMP JUMPDEST PUSH1 0x0 DUP2 CALLDATALOAD SWAP1 POP PUSH2 0xC85 DUP2 PUSH2 0xF47 JUMP JUMPDEST SWAP3 SWAP2 POP POP JUMP JUMPDEST PUSH1 0x0 DUP2 CALLDATALOAD SWAP1 POP PUSH2 0xC9A DUP2 PUSH2 0xF5E JUMP JUMPDEST SWAP3 SWAP2 POP POP JUMP JUMPDEST PUSH1 0x0 PUSH1 0x20 DUP3 DUP5 SUB SLT ISZERO PUSH2 0xCB2 JUMPI PUSH1 0x0 DUP1 REVERT JUMPDEST PUSH1 0x0 PUSH2 0xCC0 DUP5 DUP3 DUP6 ADD PUSH2 0xC76 JUMP JUMPDEST SWAP2 POP POP SWAP3 SWAP2 POP POP JUMP JUMPDEST PUSH1 0x0 DUP1 PUSH1 0x40 DUP4 DUP6 SUB SLT ISZERO PUSH2 0xCDC JUMPI PUSH1 0x0 DUP1 REVERT JUMPDEST PUSH1 0x0 PUSH2 0xCEA DUP6 DUP3 DUP7 ADD PUSH2 0xC76 JUMP JUMPDEST SWAP3 POP POP PUSH1 0x20 PUSH2 0xCFB DUP6 DUP3 DUP7 ADD PUSH2 0xC76 JUMP JUMPDEST SWAP2 POP POP SWAP3 POP SWAP3 SWAP1 POP JUMP JUMPDEST PUSH1 0x0 DUP1 PUSH1 0x0 PUSH1 0x60 DUP5 DUP7 SUB SLT ISZERO PUSH2 0xD1A JUMPI PUSH1 0x0 DUP1 REVERT JUMPDEST PUSH1 0x0 PUSH2 0xD28 DUP7 DUP3 DUP8 ADD PUSH2 0xC76 JUMP JUMPDEST SWAP4 POP POP PUSH1 0x20 PUSH2 0xD39 DUP7 DUP3 DUP8 ADD PUSH2 0xC76 JUMP JUMPDEST SWAP3 POP POP PUSH1 0x40 PUSH2 0xD4A DUP7 DUP3 DUP8 ADD PUSH2 0xC8B JUMP JUMPDEST SWAP2 POP POP SWAP3 POP SWAP3 POP SWAP3 JUMP JUMPDEST PUSH1 0x0 DUP1 PUSH1 0x40 DUP4 DUP6 SUB SLT ISZERO PUSH2 0xD67 JUMPI PUSH1 0x0 DUP1 REVERT JUMPDEST PUSH1 0x0 PUSH2 0xD75 DUP6 DUP3 DUP7 ADD PUSH2 0xC76 JUMP JUMPDEST SWAP3 POP POP PUSH1 0x20 PUSH2 0xD86 DUP6 DUP3 DUP7 ADD PUSH2 0xC8B JUMP JUMPDEST SWAP2 POP POP SWAP3 POP SWAP3 SWAP1 POP JUMP JUMPDEST PUSH1 0x0 PUSH1 0x20 DUP3 DUP5 SUB SLT ISZERO PUSH2 0xDA2 JUMPI PUSH1 0x0 DUP1 REVERT JUMPDEST PUSH1 0x0 PUSH2 0xDB0 DUP5 DUP3 DUP6 ADD PUSH2 0xC8B JUMP JUMPDEST SWAP2 POP POP SWAP3 SWAP2 POP POP JUMP JUMPDEST PUSH2 0xDC2 DUP2 PUSH2 0xEC0 JUMP JUMPDEST DUP3 MSTORE POP POP JUMP JUMPDEST PUSH1 0x0 PUSH2 0xDD3 DUP3 PUSH2 0xE92 JUMP JUMPDEST PUSH2 0xDDD DUP2 DUP6 PUSH2 0xE9D JUMP JUMPDEST SWAP4 POP PUSH2 0xDED DUP2 DUP6 PUSH1 0x20 DUP7 ADD PUSH2 0xF03 JUMP JUMPDEST PUSH2 0xDF6 DUP2 PUSH2 0xF36 JUMP JUMPDEST DUP5 ADD SWAP2 POP POP SWAP3 SWAP2 POP POP JUMP JUMPDEST PUSH2 0xE0A DUP2 PUSH2 0xEEC JUMP JUMPDEST DUP3 MSTORE POP POP JUMP JUMPDEST PUSH2 0xE19 DUP2 PUSH2 0xEF6 JUMP JUMPDEST DUP3 MSTORE POP POP JUMP JUMPDEST PUSH1 0x0 PUSH1 0x20 DUP3 ADD SWAP1 POP PUSH2 0xE34 PUSH1 0x0 DUP4 ADD DUP5 PUSH2 0xDB9 JUMP JUMPDEST SWAP3 SWAP2 POP POP JUMP JUMPDEST PUSH1 0x0 PUSH1 0x20 DUP3 ADD SWAP1 POP DUP2 DUP2 SUB PUSH1 0x0 DUP4 ADD MSTORE PUSH2 0xE54 DUP2 DUP5 PUSH2 0xDC8 JUMP JUMPDEST SWAP1 POP SWAP3 SWAP2 POP POP JUMP JUMPDEST PUSH1 0x0 PUSH1 0x20 DUP3 ADD SWAP1 POP PUSH2 0xE71 PUSH1 0x0 DUP4 ADD DUP5 PUSH2 0xE01 JUMP JUMPDEST SWAP3 SWAP2 POP POP JUMP JUMPDEST PUSH1 0x0 PUSH1 0x20 DUP3 ADD SWAP1 POP PUSH2 0xE8C PUSH1 0x0 DUP4 ADD DUP5 PUSH2 0xE10 JUMP JUMPDEST SWAP3 SWAP2 POP POP JUMP JUMPDEST PUSH1 0x0 DUP2 MLOAD SWAP1 POP SWAP2 SWAP1 POP JUMP JUMPDEST PUSH1 0x0 DUP3 DUP3 MSTORE PUSH1 0x20 DUP3 ADD SWAP1 POP SWAP3 SWAP2 POP POP JUMP JUMPDEST PUSH1 0x0 PUSH2 0xEB9 DUP3 PUSH2 0xECC JUMP JUMPDEST SWAP1 POP SWAP2 SWAP1 POP JUMP JUMPDEST PUSH1 0x0 DUP2 ISZERO ISZERO SWAP1 POP SWAP2 SWAP1 POP JUMP JUMPDEST PUSH1 0x0 PUSH20 0xFFFFFFFFFFFFFFFFFFFFFFFFFFFFFFFFFFFFFFFF DUP3 AND SWAP1 POP SWAP2 SWAP1 POP JUMP JUMPDEST PUSH1 0x0 DUP2 SWAP1 POP SWAP2 SWAP1 POP JUMP JUMPDEST PUSH1 0x0 PUSH1 0xFF DUP3 AND SWAP1 POP SWAP2 SWAP1 POP JUMP JUMPDEST PUSH1 0x0 JUMPDEST DUP4 DUP2 LT ISZERO PUSH2 0xF21 JUMPI DUP1 DUP3 ADD MLOAD DUP2 DUP5 ADD MSTORE PUSH1 0x20 DUP2 ADD SWAP1 POP PUSH2 0xF06 JUMP JUMPDEST DUP4 DUP2 GT ISZERO PUSH2 0xF30 JUMPI PUSH1 0x0 DUP5 DUP5 ADD MSTORE JUMPDEST POP POP POP POP JUMP JUMPDEST PUSH1 0x0 PUSH1 0x1F NOT PUSH1 0x1F DUP4 ADD AND SWAP1 POP SWAP2 SWAP1 POP JUMP JUMPDEST PUSH2 0xF50 DUP2 PUSH2 0xEAE JUMP JUMPDEST DUP2 EQ PUSH2 0xF5B JUMPI PUSH1 0x0 DUP1 REVERT JUMPDEST POP JUMP JUMPDEST PUSH2 0xF67 DUP2 PUSH2 0xEEC JUMP JUMPDEST DUP2 EQ PUSH2 0xF72 JUMPI PUSH1 0x0 DUP1 REVERT JUMPDEST POP JUMP INVALID LOG2 PUSH5 0x6970667358 0x22 SLT KECCAK256 COINBASE SWAP3 0x4E PUSH22 0xC6A689F4E76B488C772248149581615C89D36359B220 RETURNDATASIZE GT PUSH32 0x5C45A064736F6C634300060C0033000000000000000000000000000000000000 "
				},
				"gasEstimates": {
					"creation": {
						"codeDepositCost": "1289400",
						"executionCost": "infinite",
						"totalCost": "infinite"
					},
					"external": {
						"Bote()": "infinite",
						"CompraTokens(uint256)": "infinite",
						"ComprarBoleto(uint256)": "infinite",
						"DevolverTokens(uint256)": "infinite",
						"GeneraTokens(uint256)": "infinite",
						"GenerarGanador()": "infinite",
						"MisBoletos()": "infinite",
						"MisTokens()": "infinite",
						"PrecioBoleto()": "1174",
						"TokensDisponibles()": "infinite",
						"contrato()": "1236",
						"owner()": "1281",
						"prueba()": "420"
					},
					"internal": {
						"PrecioTokens(uint256)": "36"
					}
				},
				"methodIdentifiers": {
					"Bote()": "74189861",
					"CompraTokens(uint256)": "f7774091",
					"ComprarBoleto(uint256)": "7cd15f44",
					"DevolverTokens(uint256)": "1890154c",
					"GeneraTokens(uint256)": "1246f6e2",
					"GenerarGanador()": "5332eee5",
					"MisBoletos()": "79face26",
					"MisTokens()": "e33f34a0",
					"PrecioBoleto()": "27909f27",
					"TokensDisponibles()": "fd889ff5",
					"contrato()": "e1a01e67",
					"owner()": "8da5cb5b",
					"prueba()": "7cb5946d"
				}
			},
			"storageLayout": {
				"storage": [
					{
						"astId": 497,
						"contract": "Loteria/loteria.sol:Loteria",
						"label": "token",
						"offset": 0,
						"slot": "0",
						"type": "t_contract(ERC20Basic)409"
					},
					{
						"astId": 499,
						"contract": "Loteria/loteria.sol:Loteria",
						"label": "owner",
						"offset": 0,
						"slot": "1",
						"type": "t_address"
					},
					{
						"astId": 501,
						"contract": "Loteria/loteria.sol:Loteria",
						"label": "contrato",
						"offset": 0,
						"slot": "2",
						"type": "t_address"
					},
					{
						"astId": 667,
						"contract": "Loteria/loteria.sol:Loteria",
						"label": "PrecioBoleto",
						"offset": 0,
						"slot": "3",
						"type": "t_uint256"
					},
					{
						"astId": 670,
						"contract": "Loteria/loteria.sol:Loteria",
						"label": "CantidadBoletos",
						"offset": 0,
						"slot": "4",
						"type": "t_uint256"
					},
					{
						"astId": 673,
						"contract": "Loteria/loteria.sol:Loteria",
						"label": "BoletosDisponibles",
						"offset": 0,
						"slot": "5",
						"type": "t_uint256"
					},
					{
						"astId": 678,
						"contract": "Loteria/loteria.sol:Loteria",
						"label": "idPersona_boletos",
						"offset": 0,
						"slot": "6",
						"type": "t_mapping(t_address,t_array(t_uint256)dyn_storage)"
					},
					{
						"astId": 682,
						"contract": "Loteria/loteria.sol:Loteria",
						"label": "ADN_boleto",
						"offset": 0,
						"slot": "7",
						"type": "t_mapping(t_uint256,t_address)"
					},
					{
						"astId": 685,
						"contract": "Loteria/loteria.sol:Loteria",
						"label": "randNonce",
						"offset": 0,
						"slot": "8",
						"type": "t_uint256"
					},
					{
						"astId": 688,
						"contract": "Loteria/loteria.sol:Loteria",
						"label": "boletos_comprados",
						"offset": 0,
						"slot": "9",
						"type": "t_array(t_uint256)dyn_storage"
					}
				],
				"types": {
					"t_address": {
						"encoding": "inplace",
						"label": "address",
						"numberOfBytes": "20"
					},
					"t_array(t_uint256)dyn_storage": {
						"base": "t_uint256",
						"encoding": "dynamic_array",
						"label": "uint256[]",
						"numberOfBytes": "32"
					},
					"t_contract(ERC20Basic)409": {
						"encoding": "inplace",
						"label": "contract ERC20Basic",
						"numberOfBytes": "20"
					},
					"t_mapping(t_address,t_array(t_uint256)dyn_storage)": {
						"encoding": "mapping",
						"key": "t_address",
						"label": "mapping(address => uint256[])",
						"numberOfBytes": "32",
						"value": "t_array(t_uint256)dyn_storage"
					},
					"t_mapping(t_uint256,t_address)": {
						"encoding": "mapping",
						"key": "t_uint256",
						"label": "mapping(uint256 => address)",
						"numberOfBytes": "32",
						"value": "t_address"
					},
					"t_uint256": {
						"encoding": "inplace",
						"label": "uint256",
						"numberOfBytes": "32"
					}
				}
			},
			"userdoc": {
				"kind": "user",
				"methods": {},
				"version": 1
			}
		}
	}
}