{
	"Loteria/loteria.sol": {
		"Loteria": {
			"abi": [
				{
					"inputs": [],
					"stateMutability": "nonpayable",
					"type": "constructor"
				},
				{
					"anonymous": false,
					"inputs": [
						{
							"indexed": false,
							"internalType": "uint256",
							"name": "",
							"type": "uint256"
						},
						{
							"indexed": false,
							"internalType": "address",
							"name": "",
							"type": "address"
						}
					],
					"name": "ComprarTokens",
					"type": "event"
				},
				{
					"anonymous": false,
					"inputs": [
						{
							"indexed": false,
							"internalType": "uint256",
							"name": "",
							"type": "uint256"
						}
					],
					"name": "boleto_comprado",
					"type": "event"
				},
				{
					"anonymous": false,
					"inputs": [
						{
							"indexed": false,
							"internalType": "uint256",
							"name": "",
							"type": "uint256"
						}
					],
					"name": "boleto_ganador",
					"type": "event"
				},
				{
					"inputs": [],
					"name": "Bote",
					"outputs": [
						{
							"internalType": "uint256",
							"name": "",
							"type": "uint256"
						}
					],
					"stateMutability": "view",
					"type": "function"
				},
				{
					"inputs": [
						{
							"internalType": "uint256",
							"name": "_numTokens",
							"type": "uint256"
						}
					],
					"name": "CompraTokens",
					"outputs": [],
					"stateMutability": "payable",
					"type": "function"
				},
				{
					"inputs": [
						{
							"internalType": "uint256",
							"name": "_boletos",
							"type": "uint256"
						}
					],
					"name": "ComprarBoleto",
					"outputs": [],
					"stateMutability": "nonpayable",
					"type": "function"
				},
				{
					"inputs": [
						{
							"internalType": "uint256",
							"name": "_numTokens",
							"type": "uint256"
						}
					],
					"name": "GeneraTokens",
					"outputs": [],
					"stateMutability": "nonpayable",
					"type": "function"
				},
				{
					"inputs": [],
					"name": "MisTokens",
					"outputs": [
						{
							"internalType": "uint256",
							"name": "",
							"type": "uint256"
						}
					],
					"stateMutability": "view",
					"type": "function"
				},
				{
					"inputs": [],
					"name": "PrecioBoleto",
					"outputs": [
						{
							"internalType": "uint256",
							"name": "",
							"type": "uint256"
						}
					],
					"stateMutability": "view",
					"type": "function"
				},
				{
					"inputs": [],
					"name": "TokensDisponibles",
					"outputs": [
						{
							"internalType": "uint256",
							"name": "",
							"type": "uint256"
						}
					],
					"stateMutability": "view",
					"type": "function"
				},
				{
					"inputs": [],
					"name": "VerBoletos",
					"outputs": [
						{
							"internalType": "uint256[]",
							"name": "",
							"type": "uint256[]"
						}
					],
					"stateMutability": "view",
					"type": "function"
				},
				{
					"inputs": [],
					"name": "contrato",
					"outputs": [
						{
							"internalType": "address",
							"name": "",
							"type": "address"
						}
					],
					"stateMutability": "view",
					"type": "function"
				},
				{
					"inputs": [],
					"name": "generarGanador",
					"outputs": [],
					"stateMutability": "nonpayable",
					"type": "function"
				},
				{
					"inputs": [],
					"name": "owner",
					"outputs": [
						{
							"internalType": "address",
							"name": "",
							"type": "address"
						}
					],
					"stateMutability": "view",
					"type": "function"
				}
			],
			"devdoc": {
				"kind": "dev",
				"methods": {},
				"version": 1
			},
			"evm": {
				"assembly": "    /* \"Loteria/loteria.sol\":131:5004  contract Loteria {\r... */\n  mstore(0x40, 0x80)\n    /* \"Loteria/loteria.sol\":2564:2565  5 */\n  0x05\n    /* \"Loteria/loteria.sol\":2537:2565  uint public PrecioBoleto = 5 */\n  0x03\n  sstore\n    /* \"Loteria/loteria.sol\":2841:2842  0 */\n  0x00\n    /* \"Loteria/loteria.sol\":2824:2842  uint randNonce = 0 */\n  0x06\n  sstore\n    /* \"Loteria/loteria.sol\":301:434  constructor() public {\r... */\n  callvalue\n  dup1\n  iszero\n  tag_1\n  jumpi\n  0x00\n  dup1\n  revert\ntag_1:\n  pop\n    /* \"Loteria/loteria.sol\":356:361  10000 */\n  0x2710\n    /* \"Loteria/loteria.sol\":341:362  new ERC20Basic(10000) */\n  mload(0x40)\n  tag_4\n  swap1\n  tag_5\n  jump\t// in\ntag_4:\n  tag_6\n  swap2\n  swap1\n  tag_7\n  jump\t// in\ntag_6:\n  mload(0x40)\n  dup1\n  swap2\n  sub\n  swap1\n  0x00\n  create\n  dup1\n  iszero\n  dup1\n  iszero\n  tag_8\n  jumpi\n  returndatasize\n  0x00\n  dup1\n  returndatacopy\n  revert(0x00, returndatasize)\ntag_8:\n  pop\n    /* \"Loteria/loteria.sol\":333:338  token */\n  0x00\n  dup1\n    /* \"Loteria/loteria.sol\":333:362  token = new ERC20Basic(10000) */\n  0x0100\n  exp\n  dup2\n  sload\n  dup2\n  0xffffffffffffffffffffffffffffffffffffffff\n  mul\n  not\n  and\n  swap1\n  dup4\n  0xffffffffffffffffffffffffffffffffffffffff\n  and\n  mul\n  or\n  swap1\n  sstore\n  pop\n    /* \"Loteria/loteria.sol\":381:391  msg.sender */\n  caller\n    /* \"Loteria/loteria.sol\":373:378  owner */\n  0x01\n  0x00\n    /* \"Loteria/loteria.sol\":373:391  owner = msg.sender */\n  0x0100\n  exp\n  dup2\n  sload\n  dup2\n  0xffffffffffffffffffffffffffffffffffffffff\n  mul\n  not\n  and\n  swap1\n  dup4\n  0xffffffffffffffffffffffffffffffffffffffff\n  and\n  mul\n  or\n  swap1\n  sstore\n  pop\n    /* \"Loteria/loteria.sol\":421:425  this */\n  address\n    /* \"Loteria/loteria.sol\":402:410  contrato */\n  0x02\n  0x00\n    /* \"Loteria/loteria.sol\":402:426  contrato = address(this) */\n  0x0100\n  exp\n  dup2\n  sload\n  dup2\n  0xffffffffffffffffffffffffffffffffffffffff\n  mul\n  not\n  and\n  swap1\n  dup4\n  0xffffffffffffffffffffffffffffffffffffffff\n  and\n  mul\n  or\n  swap1\n  sstore\n  pop\n    /* \"Loteria/loteria.sol\":131:5004  contract Loteria {\r... */\n  jump(tag_9)\ntag_5:\n  dataSize(sub_1)\n  dup1\n  dataOffset(sub_1)\n  dup4\n  codecopy\n  add\n  swap1\n  jump\t// out\n    /* \"--CODEGEN--\":5:155   */\ntag_11:\n    /* \"--CODEGEN--\":100:149   */\n  tag_13\n    /* \"--CODEGEN--\":143:148   */\n  dup2\n    /* \"--CODEGEN--\":100:149   */\n  tag_14\n  jump\t// in\ntag_13:\n    /* \"--CODEGEN--\":95:98   */\n  dup3\n    /* \"--CODEGEN--\":88:150   */\n  mstore\n    /* \"--CODEGEN--\":82:155   */\n  pop\n  pop\n  jump\t// out\n    /* \"--CODEGEN--\":162:408   */\ntag_7:\n  0x00\n    /* \"--CODEGEN--\":301:303   */\n  0x20\n    /* \"--CODEGEN--\":290:299   */\n  dup3\n    /* \"--CODEGEN--\":286:304   */\n  add\n    /* \"--CODEGEN--\":278:304   */\n  swap1\n  pop\n    /* \"--CODEGEN--\":315:398   */\n  tag_16\n    /* \"--CODEGEN--\":395:396   */\n  0x00\n    /* \"--CODEGEN--\":384:393   */\n  dup4\n    /* \"--CODEGEN--\":380:397   */\n  add\n    /* \"--CODEGEN--\":371:377   */\n  dup5\n    /* \"--CODEGEN--\":315:398   */\n  tag_11\n  jump\t// in\ntag_16:\n    /* \"--CODEGEN--\":272:408   */\n  swap3\n  swap2\n  pop\n  pop\n  jump\t// out\n    /* \"--CODEGEN--\":415:487   */\ntag_17:\n  0x00\n    /* \"--CODEGEN--\":477:482   */\n  dup2\n    /* \"--CODEGEN--\":466:482   */\n  swap1\n  pop\n    /* \"--CODEGEN--\":460:487   */\n  swap2\n  swap1\n  pop\n  jump\t// out\n    /* \"--CODEGEN--\":494:614   */\ntag_14:\n  0x00\n    /* \"--CODEGEN--\":585:609   */\n  tag_20\n    /* \"--CODEGEN--\":603:608   */\n  dup3\n    /* \"--CODEGEN--\":585:609   */\n  tag_17\n  jump\t// in\ntag_20:\n    /* \"--CODEGEN--\":572:609   */\n  swap1\n  pop\n    /* \"--CODEGEN--\":566:614   */\n  swap2\n  swap1\n  pop\n  jump\t// out\n    /* \"Loteria/loteria.sol\":131:5004  contract Loteria {\r... */\ntag_9:\n  dataSize(sub_0)\n  dup1\n  dataOffset(sub_0)\n  0x00\n  codecopy\n  0x00\n  return\nstop\n\nsub_0: assembly {\n        /* \"Loteria/loteria.sol\":131:5004  contract Loteria {\r... */\n      mstore(0x40, 0x80)\n      jumpi(tag_1, lt(calldatasize, 0x04))\n      shr(0xe0, calldataload(0x00))\n      dup1\n      0x89e25c28\n      gt\n      tag_13\n      jumpi\n      dup1\n      0x89e25c28\n      eq\n      tag_7\n      jumpi\n      dup1\n      0x8da5cb5b\n      eq\n      tag_8\n      jumpi\n      dup1\n      0xe1a01e67\n      eq\n      tag_9\n      jumpi\n      dup1\n      0xe33f34a0\n      eq\n      tag_10\n      jumpi\n      dup1\n      0xf7774091\n      eq\n      tag_11\n      jumpi\n      dup1\n      0xfd889ff5\n      eq\n      tag_12\n      jumpi\n      jump(tag_1)\n    tag_13:\n      dup1\n      0x1246f6e2\n      eq\n      tag_2\n      jumpi\n      dup1\n      0x27909f27\n      eq\n      tag_3\n      jumpi\n      dup1\n      0x3257eaa4\n      eq\n      tag_4\n      jumpi\n      dup1\n      0x74189861\n      eq\n      tag_5\n      jumpi\n      dup1\n      0x7cd15f44\n      eq\n      tag_6\n      jumpi\n    tag_1:\n      0x00\n      dup1\n      revert\n        /* \"Loteria/loteria.sol\":1035:1160  function GeneraTokens(uint _numTokens) public Unicamente(msg.sender) {\r... */\n    tag_2:\n      callvalue\n      dup1\n      iszero\n      tag_14\n      jumpi\n      0x00\n      dup1\n      revert\n    tag_14:\n      pop\n      tag_15\n      0x04\n      dup1\n      calldatasize\n      sub\n      dup2\n      add\n      swap1\n      tag_16\n      swap2\n      swap1\n      tag_17\n      jump\t// in\n    tag_16:\n      tag_18\n      jump\t// in\n    tag_15:\n      stop\n        /* \"Loteria/loteria.sol\":2537:2565  uint public PrecioBoleto = 5 */\n    tag_3:\n      callvalue\n      dup1\n      iszero\n      tag_19\n      jumpi\n      0x00\n      dup1\n      revert\n    tag_19:\n      pop\n      tag_20\n      tag_21\n      jump\t// in\n    tag_20:\n      mload(0x40)\n      tag_22\n      swap2\n      swap1\n      tag_23\n      jump\t// in\n    tag_22:\n      mload(0x40)\n      dup1\n      swap2\n      sub\n      swap1\n      return\n        /* \"Loteria/loteria.sol\":4344:4456  function VerBoletos() public view returns(uint[] memory) {\r... */\n    tag_4:\n      callvalue\n      dup1\n      iszero\n      tag_24\n      jumpi\n      0x00\n      dup1\n      revert\n    tag_24:\n      pop\n      tag_25\n      tag_26\n      jump\t// in\n    tag_25:\n      mload(0x40)\n      tag_27\n      swap2\n      swap1\n      tag_28\n      jump\t// in\n    tag_27:\n      mload(0x40)\n      dup1\n      swap2\n      sub\n      swap1\n      return\n        /* \"Loteria/loteria.sol\":2171:2261  function Bote() public view returns(uint) {\r... */\n    tag_5:\n      callvalue\n      dup1\n      iszero\n      tag_29\n      jumpi\n      0x00\n      dup1\n      revert\n    tag_29:\n      pop\n      tag_30\n      tag_31\n      jump\t// in\n    tag_30:\n      mload(0x40)\n      tag_32\n      swap2\n      swap1\n      tag_23\n      jump\t// in\n    tag_32:\n      mload(0x40)\n      dup1\n      swap2\n      sub\n      swap1\n      return\n        /* \"Loteria/loteria.sol\":3039:4291  function ComprarBoleto(uint _boletos) public {\r... */\n    tag_6:\n      callvalue\n      dup1\n      iszero\n      tag_33\n      jumpi\n      0x00\n      dup1\n      revert\n    tag_33:\n      pop\n      tag_34\n      0x04\n      dup1\n      calldatasize\n      sub\n      dup2\n      add\n      swap1\n      tag_35\n      swap2\n      swap1\n      tag_17\n      jump\t// in\n    tag_35:\n      tag_36\n      jump\t// in\n    tag_34:\n      stop\n        /* \"Loteria/loteria.sol\":4528:4999  function generarGanador() public Unicamente(msg.sender) {\r... */\n    tag_7:\n      callvalue\n      dup1\n      iszero\n      tag_37\n      jumpi\n      0x00\n      dup1\n      revert\n    tag_37:\n      pop\n      tag_38\n      tag_39\n      jump\t// in\n    tag_38:\n      stop\n        /* \"Loteria/loteria.sol\":242:262  address public owner */\n    tag_8:\n      callvalue\n      dup1\n      iszero\n      tag_40\n      jumpi\n      0x00\n      dup1\n      revert\n    tag_40:\n      pop\n      tag_41\n      tag_42\n      jump\t// in\n    tag_41:\n      mload(0x40)\n      tag_43\n      swap2\n      swap1\n      tag_44\n      jump\t// in\n    tag_43:\n      mload(0x40)\n      dup1\n      swap2\n      sub\n      swap1\n      return\n        /* \"Loteria/loteria.sol\":269:292  address public contrato */\n    tag_9:\n      callvalue\n      dup1\n      iszero\n      tag_45\n      jumpi\n      0x00\n      dup1\n      revert\n    tag_45:\n      pop\n      tag_46\n      tag_47\n      jump\t// in\n    tag_46:\n      mload(0x40)\n      tag_48\n      swap2\n      swap1\n      tag_44\n      jump\t// in\n    tag_48:\n      mload(0x40)\n      dup1\n      swap2\n      sub\n      swap1\n      return\n        /* \"Loteria/loteria.sol\":2299:2400  function MisTokens() public view returns (uint) {\r... */\n    tag_10:\n      callvalue\n      dup1\n      iszero\n      tag_49\n      jumpi\n      0x00\n      dup1\n      revert\n    tag_49:\n      pop\n      tag_50\n      tag_51\n      jump\t// in\n    tag_50:\n      mload(0x40)\n      tag_52\n      swap2\n      swap1\n      tag_23\n      jump\t// in\n    tag_52:\n      mload(0x40)\n      dup1\n      swap2\n      sub\n      swap1\n      return\n        /* \"Loteria/loteria.sol\":1191:1945  function CompraTokens(uint _numTokens) public payable {\r... */\n    tag_11:\n      tag_53\n      0x04\n      dup1\n      calldatasize\n      sub\n      dup2\n      add\n      swap1\n      tag_54\n      swap2\n      swap1\n      tag_17\n      jump\t// in\n    tag_54:\n      tag_55\n      jump\t// in\n    tag_53:\n      stop\n        /* \"Loteria/loteria.sol\":1996:2107  function TokensDisponibles() public view returns(uint) {\r... */\n    tag_12:\n      callvalue\n      dup1\n      iszero\n      tag_56\n      jumpi\n      0x00\n      dup1\n      revert\n    tag_56:\n      pop\n      tag_57\n      tag_58\n      jump\t// in\n    tag_57:\n      mload(0x40)\n      tag_59\n      swap2\n      swap1\n      tag_23\n      jump\t// in\n    tag_59:\n      mload(0x40)\n      dup1\n      swap2\n      sub\n      swap1\n      return\n        /* \"Loteria/loteria.sol\":1035:1160  function GeneraTokens(uint _numTokens) public Unicamente(msg.sender) {\r... */\n    tag_18:\n        /* \"Loteria/loteria.sol\":1092:1102  msg.sender */\n      caller\n        /* \"Loteria/loteria.sol\":731:736  owner */\n      0x01\n      0x00\n      swap1\n      sload\n      swap1\n      0x0100\n      exp\n      swap1\n      div\n      0xffffffffffffffffffffffffffffffffffffffff\n      and\n        /* \"Loteria/loteria.sol\":716:736  propietario == owner */\n      0xffffffffffffffffffffffffffffffffffffffff\n      and\n        /* \"Loteria/loteria.sol\":716:727  propietario */\n      dup2\n        /* \"Loteria/loteria.sol\":716:736  propietario == owner */\n      0xffffffffffffffffffffffffffffffffffffffff\n      and\n      eq\n        /* \"Loteria/loteria.sol\":708:786  require(propietario == owner, \"No tienes permisos para ejecutar esta funcion\") */\n      tag_61\n      jumpi\n      mload(0x40)\n      0x08c379a000000000000000000000000000000000000000000000000000000000\n      dup2\n      mstore\n      0x04\n      add\n      tag_62\n      swap1\n      tag_63\n      jump\t// in\n    tag_62:\n      mload(0x40)\n      dup1\n      swap2\n      sub\n      swap1\n      revert\n    tag_61:\n        /* \"Loteria/loteria.sol\":1115:1120  token */\n      0x00\n      dup1\n      sload\n      swap1\n      0x0100\n      exp\n      swap1\n      div\n      0xffffffffffffffffffffffffffffffffffffffff\n      and\n        /* \"Loteria/loteria.sol\":1115:1140  token.increaseTotalSupply */\n      0xffffffffffffffffffffffffffffffffffffffff\n      and\n      0x1d43cc98\n        /* \"Loteria/loteria.sol\":1141:1151  _numTokens */\n      dup4\n        /* \"Loteria/loteria.sol\":1115:1152  token.increaseTotalSupply(_numTokens) */\n      mload(0x40)\n      dup3\n      0xffffffff\n      and\n      0xe0\n      shl\n      dup2\n      mstore\n      0x04\n      add\n      tag_65\n      swap2\n      swap1\n      tag_23\n      jump\t// in\n    tag_65:\n      0x00\n      mload(0x40)\n      dup1\n      dup4\n      sub\n      dup2\n      0x00\n      dup8\n      dup1\n      extcodesize\n      iszero\n      dup1\n      iszero\n      tag_66\n      jumpi\n      0x00\n      dup1\n      revert\n    tag_66:\n      pop\n      gas\n      call\n      iszero\n      dup1\n      iszero\n      tag_68\n      jumpi\n      returndatasize\n      0x00\n      dup1\n      returndatacopy\n      revert(0x00, returndatasize)\n    tag_68:\n      pop\n      pop\n      pop\n      pop\n        /* \"Loteria/loteria.sol\":1035:1160  function GeneraTokens(uint _numTokens) public Unicamente(msg.sender) {\r... */\n      pop\n      pop\n      jump\t// out\n        /* \"Loteria/loteria.sol\":2537:2565  uint public PrecioBoleto = 5 */\n    tag_21:\n      sload(0x03)\n      dup2\n      jump\t// out\n        /* \"Loteria/loteria.sol\":4344:4456  function VerBoletos() public view returns(uint[] memory) {\r... */\n    tag_26:\n        /* \"Loteria/loteria.sol\":4386:4399  uint[] memory */\n      0x60\n        /* \"Loteria/loteria.sol\":4419:4436  idPersona_boletos */\n      0x04\n        /* \"Loteria/loteria.sol\":4419:4448  idPersona_boletos[msg.sender] */\n      0x00\n        /* \"Loteria/loteria.sol\":4437:4447  msg.sender */\n      caller\n        /* \"Loteria/loteria.sol\":4419:4448  idPersona_boletos[msg.sender] */\n      0xffffffffffffffffffffffffffffffffffffffff\n      and\n      0xffffffffffffffffffffffffffffffffffffffff\n      and\n      dup2\n      mstore\n      0x20\n      add\n      swap1\n      dup2\n      mstore\n      0x20\n      add\n      0x00\n      keccak256\n        /* \"Loteria/loteria.sol\":4412:4448  return idPersona_boletos[msg.sender] */\n      dup1\n      sload\n      dup1\n      0x20\n      mul\n      0x20\n      add\n      mload(0x40)\n      swap1\n      dup2\n      add\n      0x40\n      mstore\n      dup1\n      swap3\n      swap2\n      swap1\n      dup2\n      dup2\n      mstore\n      0x20\n      add\n      dup3\n      dup1\n      sload\n      dup1\n      iszero\n      tag_70\n      jumpi\n      0x20\n      mul\n      dup3\n      add\n      swap2\n      swap1\n      0x00\n      mstore\n      keccak256(0x00, 0x20)\n      swap1\n    tag_71:\n      dup2\n      sload\n      dup2\n      mstore\n      0x20\n      add\n      swap1\n      0x01\n      add\n      swap1\n      dup1\n      dup4\n      gt\n      tag_71\n      jumpi\n    tag_70:\n      pop\n      pop\n      pop\n      pop\n      pop\n      swap1\n      pop\n        /* \"Loteria/loteria.sol\":4344:4456  function VerBoletos() public view returns(uint[] memory) {\r... */\n      swap1\n      jump\t// out\n        /* \"Loteria/loteria.sol\":2171:2261  function Bote() public view returns(uint) {\r... */\n    tag_31:\n        /* \"Loteria/loteria.sol\":2207:2211  uint */\n      0x00\n        /* \"Loteria/loteria.sol\":2231:2236  token */\n      dup1\n      0x00\n      swap1\n      sload\n      swap1\n      0x0100\n      exp\n      swap1\n      div\n      0xffffffffffffffffffffffffffffffffffffffff\n      and\n        /* \"Loteria/loteria.sol\":2231:2246  token.balanceOf */\n      0xffffffffffffffffffffffffffffffffffffffff\n      and\n      0x70a08231\n        /* \"Loteria/loteria.sol\":2247:2252  owner */\n      0x01\n      0x00\n      swap1\n      sload\n      swap1\n      0x0100\n      exp\n      swap1\n      div\n      0xffffffffffffffffffffffffffffffffffffffff\n      and\n        /* \"Loteria/loteria.sol\":2231:2253  token.balanceOf(owner) */\n      mload(0x40)\n      dup3\n      0xffffffff\n      and\n      0xe0\n      shl\n      dup2\n      mstore\n      0x04\n      add\n      tag_73\n      swap2\n      swap1\n      tag_44\n      jump\t// in\n    tag_73:\n      0x20\n      mload(0x40)\n      dup1\n      dup4\n      sub\n      dup2\n      dup7\n      dup1\n      extcodesize\n      iszero\n      dup1\n      iszero\n      tag_74\n      jumpi\n      0x00\n      dup1\n      revert\n    tag_74:\n      pop\n      gas\n      staticcall\n      iszero\n      dup1\n      iszero\n      tag_76\n      jumpi\n      returndatasize\n      0x00\n      dup1\n      returndatacopy\n      revert(0x00, returndatasize)\n    tag_76:\n      pop\n      pop\n      pop\n      pop\n      mload(0x40)\n      returndatasize\n      not(0x1f)\n      0x1f\n      dup3\n      add\n      and\n      dup3\n      add\n      dup1\n      0x40\n      mstore\n      pop\n      dup2\n      add\n      swap1\n      tag_77\n      swap2\n      swap1\n      tag_78\n      jump\t// in\n    tag_77:\n        /* \"Loteria/loteria.sol\":2224:2253  return token.balanceOf(owner) */\n      swap1\n      pop\n        /* \"Loteria/loteria.sol\":2171:2261  function Bote() public view returns(uint) {\r... */\n      swap1\n      jump\t// out\n        /* \"Loteria/loteria.sol\":3039:4291  function ComprarBoleto(uint _boletos) public {\r... */\n    tag_36:\n        /* \"Loteria/loteria.sol\":3159:3176  uint precio_total */\n      0x00\n        /* \"Loteria/loteria.sol\":3190:3202  PrecioBoleto */\n      sload(0x03)\n        /* \"Loteria/loteria.sol\":3179:3187  _boletos */\n      dup3\n        /* \"Loteria/loteria.sol\":3179:3202  _boletos * PrecioBoleto */\n      mul\n        /* \"Loteria/loteria.sol\":3159:3202  uint precio_total = _boletos * PrecioBoleto */\n      swap1\n      pop\n        /* \"Loteria/loteria.sol\":3303:3314  MisTokens() */\n      tag_80\n        /* \"Loteria/loteria.sol\":3303:3312  MisTokens */\n      tag_51\n        /* \"Loteria/loteria.sol\":3303:3314  MisTokens() */\n      jump\t// in\n    tag_80:\n        /* \"Loteria/loteria.sol\":3287:3299  precio_total */\n      dup2\n        /* \"Loteria/loteria.sol\":3287:3314  precio_total <= MisTokens() */\n      gt\n      iszero\n        /* \"Loteria/loteria.sol\":3278:3350  require (precio_total <= MisTokens(), \"Cantidad de tokens insuficiente\") */\n      tag_81\n      jumpi\n      mload(0x40)\n      0x08c379a000000000000000000000000000000000000000000000000000000000\n      dup2\n      mstore\n      0x04\n      add\n      tag_82\n      swap1\n      tag_83\n      jump\t// in\n    tag_82:\n      mload(0x40)\n      dup1\n      swap2\n      sub\n      swap1\n      revert\n    tag_81:\n        /* \"Loteria/loteria.sol\":3421:3426  token */\n      0x00\n      dup1\n      sload\n      swap1\n      0x0100\n      exp\n      swap1\n      div\n      0xffffffffffffffffffffffffffffffffffffffff\n      and\n        /* \"Loteria/loteria.sol\":3421:3442  token.transferLoteria */\n      0xffffffffffffffffffffffffffffffffffffffff\n      and\n      0x5c79febb\n        /* \"Loteria/loteria.sol\":3443:3453  msg.sender */\n      caller\n        /* \"Loteria/loteria.sol\":3455:3460  owner */\n      0x01\n      0x00\n      swap1\n      sload\n      swap1\n      0x0100\n      exp\n      swap1\n      div\n      0xffffffffffffffffffffffffffffffffffffffff\n      and\n        /* \"Loteria/loteria.sol\":3462:3474  precio_total */\n      dup5\n        /* \"Loteria/loteria.sol\":3421:3475  token.transferLoteria(msg.sender, owner, precio_total) */\n      mload(0x40)\n      dup5\n      0xffffffff\n      and\n      0xe0\n      shl\n      dup2\n      mstore\n      0x04\n      add\n      tag_84\n      swap4\n      swap3\n      swap2\n      swap1\n      tag_85\n      jump\t// in\n    tag_84:\n      0x20\n      mload(0x40)\n      dup1\n      dup4\n      sub\n      dup2\n      0x00\n      dup8\n      dup1\n      extcodesize\n      iszero\n      dup1\n      iszero\n      tag_86\n      jumpi\n      0x00\n      dup1\n      revert\n    tag_86:\n      pop\n      gas\n      call\n      iszero\n      dup1\n      iszero\n      tag_88\n      jumpi\n      returndatasize\n      0x00\n      dup1\n      returndatacopy\n      revert(0x00, returndatasize)\n    tag_88:\n      pop\n      pop\n      pop\n      pop\n      mload(0x40)\n      returndatasize\n      not(0x1f)\n      0x1f\n      dup3\n      add\n      and\n      dup3\n      add\n      dup1\n      0x40\n      mstore\n      pop\n      dup2\n      add\n      swap1\n      tag_89\n      swap2\n      swap1\n      tag_90\n      jump\t// in\n    tag_89:\n      pop\n        /* \"Loteria/loteria.sol\":3536:3542  uint i */\n      0x00\n        /* \"Loteria/loteria.sol\":3531:4284  for (uint i = 0; i < _boletos; i++) {\r... */\n    tag_91:\n        /* \"Loteria/loteria.sol\":3552:3560  _boletos */\n      dup3\n        /* \"Loteria/loteria.sol\":3548:3549  i */\n      dup2\n        /* \"Loteria/loteria.sol\":3548:3560  i < _boletos */\n      lt\n        /* \"Loteria/loteria.sol\":3531:4284  for (uint i = 0; i < _boletos; i++) {\r... */\n      iszero\n      tag_92\n      jumpi\n        /* \"Loteria/loteria.sol\":3788:3799  uint random */\n      0x00\n        /* \"Loteria/loteria.sol\":3866:3871  10000 */\n      0x2710\n        /* \"Loteria/loteria.sol\":3834:3837  now */\n      timestamp\n        /* \"Loteria/loteria.sol\":3839:3849  msg.sender */\n      caller\n        /* \"Loteria/loteria.sol\":3851:3860  randNonce */\n      sload(0x06)\n        /* \"Loteria/loteria.sol\":3817:3861  abi.encodePacked(now, msg.sender, randNonce) */\n      add(0x20, mload(0x40))\n      tag_94\n      swap4\n      swap3\n      swap2\n      swap1\n      tag_95\n      jump\t// in\n    tag_94:\n      mload(0x40)\n      0x20\n      dup2\n      dup4\n      sub\n      sub\n      dup2\n      mstore\n      swap1\n      0x40\n      mstore\n        /* \"Loteria/loteria.sol\":3807:3862  keccak256(abi.encodePacked(now, msg.sender, randNonce)) */\n      dup1\n      mload\n      swap1\n      0x20\n      add\n      keccak256\n        /* \"Loteria/loteria.sol\":3802:3863  uint(keccak256(abi.encodePacked(now, msg.sender, randNonce))) */\n      0x00\n      shr\n        /* \"Loteria/loteria.sol\":3802:3871  uint(keccak256(abi.encodePacked(now, msg.sender, randNonce))) % 10000 */\n      dup2\n      tag_96\n      jumpi\n      invalid\n    tag_96:\n      mod\n        /* \"Loteria/loteria.sol\":3788:3871  uint random = uint(keccak256(abi.encodePacked(now, msg.sender, randNonce))) % 10000 */\n      swap1\n      pop\n        /* \"Loteria/loteria.sol\":3886:3895  randNonce */\n      0x06\n      0x00\n        /* \"Loteria/loteria.sol\":3886:3898  randNonce ++ */\n      dup2\n      sload\n      dup1\n      swap3\n      swap2\n      swap1\n      0x01\n      add\n      swap2\n      swap1\n      pop\n      sstore\n      pop\n        /* \"Loteria/loteria.sol\":3961:3978  idPersona_boletos */\n      0x04\n        /* \"Loteria/loteria.sol\":3961:3990  idPersona_boletos[msg.sender] */\n      0x00\n        /* \"Loteria/loteria.sol\":3979:3989  msg.sender */\n      caller\n        /* \"Loteria/loteria.sol\":3961:3990  idPersona_boletos[msg.sender] */\n      0xffffffffffffffffffffffffffffffffffffffff\n      and\n      0xffffffffffffffffffffffffffffffffffffffff\n      and\n      dup2\n      mstore\n      0x20\n      add\n      swap1\n      dup2\n      mstore\n      0x20\n      add\n      0x00\n      keccak256\n        /* \"Loteria/loteria.sol\":3996:4002  random */\n      dup2\n        /* \"Loteria/loteria.sol\":3961:4003  idPersona_boletos[msg.sender].push(random) */\n      swap1\n      dup1\n      0x01\n      dup2\n      sload\n      add\n      dup1\n      dup3\n      sstore\n      dup1\n      swap2\n      pop\n      pop\n      0x01\n      swap1\n      sub\n      swap1\n      0x00\n      mstore\n      keccak256(0x00, 0x20)\n      add\n      0x00\n      swap1\n      swap2\n      swap1\n      swap2\n      swap1\n      swap2\n      pop\n      sstore\n        /* \"Loteria/loteria.sol\":4102:4119  boletos_comprados */\n      0x07\n        /* \"Loteria/loteria.sol\":4125:4131  random */\n      dup2\n        /* \"Loteria/loteria.sol\":4102:4132  boletos_comprados.push(random) */\n      swap1\n      dup1\n      0x01\n      dup2\n      sload\n      add\n      dup1\n      dup3\n      sstore\n      dup1\n      swap2\n      pop\n      pop\n      0x01\n      swap1\n      sub\n      swap1\n      0x00\n      mstore\n      keccak256(0x00, 0x20)\n      add\n      0x00\n      swap1\n      swap2\n      swap1\n      swap2\n      swap1\n      swap2\n      pop\n      sstore\n        /* \"Loteria/loteria.sol\":4217:4227  msg.sender */\n      caller\n        /* \"Loteria/loteria.sol\":4196:4206  ADN_boleto */\n      0x05\n        /* \"Loteria/loteria.sol\":4196:4214  ADN_boleto[random] */\n      0x00\n        /* \"Loteria/loteria.sol\":4207:4213  random */\n      dup4\n        /* \"Loteria/loteria.sol\":4196:4214  ADN_boleto[random] */\n      dup2\n      mstore\n      0x20\n      add\n      swap1\n      dup2\n      mstore\n      0x20\n      add\n      0x00\n      keccak256\n      0x00\n        /* \"Loteria/loteria.sol\":4196:4227  ADN_boleto[random] = msg.sender */\n      0x0100\n      exp\n      dup2\n      sload\n      dup2\n      0xffffffffffffffffffffffffffffffffffffffff\n      mul\n      not\n      and\n      swap1\n      dup4\n      0xffffffffffffffffffffffffffffffffffffffff\n      and\n      mul\n      or\n      swap1\n      sstore\n      pop\n        /* \"Loteria/loteria.sol\":4249:4272  boleto_comprado(random) */\n      0xa69929cb3af1145490f7129170489946bf07bc6cd7474fc4172efc5ec3f060e3\n        /* \"Loteria/loteria.sol\":4265:4271  random */\n      dup2\n        /* \"Loteria/loteria.sol\":4249:4272  boleto_comprado(random) */\n      mload(0x40)\n      tag_99\n      swap2\n      swap1\n      tag_23\n      jump\t// in\n    tag_99:\n      mload(0x40)\n      dup1\n      swap2\n      sub\n      swap1\n      log1\n        /* \"Loteria/loteria.sol\":3531:4284  for (uint i = 0; i < _boletos; i++) {\r... */\n      pop\n        /* \"Loteria/loteria.sol\":3562:3565  i++ */\n      dup1\n      dup1\n      0x01\n      add\n      swap2\n      pop\n      pop\n        /* \"Loteria/loteria.sol\":3531:4284  for (uint i = 0; i < _boletos; i++) {\r... */\n      jump(tag_91)\n    tag_92:\n      pop\n        /* \"Loteria/loteria.sol\":3039:4291  function ComprarBoleto(uint _boletos) public {\r... */\n      pop\n      pop\n      jump\t// out\n        /* \"Loteria/loteria.sol\":4528:4999  function generarGanador() public Unicamente(msg.sender) {\r... */\n    tag_39:\n        /* \"Loteria/loteria.sol\":4572:4582  msg.sender */\n      caller\n        /* \"Loteria/loteria.sol\":731:736  owner */\n      0x01\n      0x00\n      swap1\n      sload\n      swap1\n      0x0100\n      exp\n      swap1\n      div\n      0xffffffffffffffffffffffffffffffffffffffff\n      and\n        /* \"Loteria/loteria.sol\":716:736  propietario == owner */\n      0xffffffffffffffffffffffffffffffffffffffff\n      and\n        /* \"Loteria/loteria.sol\":716:727  propietario */\n      dup2\n        /* \"Loteria/loteria.sol\":716:736  propietario == owner */\n      0xffffffffffffffffffffffffffffffffffffffff\n      and\n      eq\n        /* \"Loteria/loteria.sol\":708:786  require(propietario == owner, \"No tienes permisos para ejecutar esta funcion\") */\n      tag_101\n      jumpi\n      mload(0x40)\n      0x08c379a000000000000000000000000000000000000000000000000000000000\n      dup2\n      mstore\n      0x04\n      add\n      tag_102\n      swap1\n      tag_63\n      jump\t// in\n    tag_102:\n      mload(0x40)\n      dup1\n      swap2\n      sub\n      swap1\n      revert\n    tag_101:\n        /* \"Loteria/loteria.sol\":4695:4696  0 */\n      0x00\n        /* \"Loteria/loteria.sol\":4668:4685  boletos_comprados */\n      0x07\n        /* \"Loteria/loteria.sol\":4668:4692  boletos_comprados.length */\n      dup1\n      sload\n      swap1\n      pop\n        /* \"Loteria/loteria.sol\":4668:4696  boletos_comprados.length > 0 */\n      gt\n        /* \"Loteria/loteria.sol\":4660:4741  require(boletos_comprados.length > 0, \"No se ha vendido ningún boleto todavía\") */\n      tag_104\n      jumpi\n      mload(0x40)\n      0x08c379a000000000000000000000000000000000000000000000000000000000\n      dup2\n      mstore\n      0x04\n      add\n      tag_105\n      swap1\n      tag_106\n      jump\t// in\n    tag_105:\n      mload(0x40)\n      dup1\n      swap2\n      sub\n      swap1\n      revert\n    tag_104:\n        /* \"Loteria/loteria.sol\":4837:4849  uint ganador */\n      0x00\n        /* \"Loteria/loteria.sol\":4852:4869  boletos_comprados */\n      0x07\n        /* \"Loteria/loteria.sol\":4911:4928  boletos_comprados */\n      dup1\n        /* \"Loteria/loteria.sol\":4911:4935  boletos_comprados.length */\n      dup1\n      sload\n      swap1\n      pop\n        /* \"Loteria/loteria.sol\":4902:4905  now */\n      timestamp\n        /* \"Loteria/loteria.sol\":4885:4906  abi.encodePacked(now) */\n      add(0x20, mload(0x40))\n      tag_107\n      swap2\n      swap1\n      tag_108\n      jump\t// in\n    tag_107:\n      mload(0x40)\n      0x20\n      dup2\n      dup4\n      sub\n      sub\n      dup2\n      mstore\n      swap1\n      0x40\n      mstore\n        /* \"Loteria/loteria.sol\":4875:4907  keccak256(abi.encodePacked(now)) */\n      dup1\n      mload\n      swap1\n      0x20\n      add\n      keccak256\n        /* \"Loteria/loteria.sol\":4870:4908  uint(keccak256(abi.encodePacked(now))) */\n      0x00\n      shr\n        /* \"Loteria/loteria.sol\":4870:4935  uint(keccak256(abi.encodePacked(now))) % boletos_comprados.length */\n      dup2\n      tag_109\n      jumpi\n      invalid\n    tag_109:\n      mod\n        /* \"Loteria/loteria.sol\":4852:4936  boletos_comprados[uint(keccak256(abi.encodePacked(now))) % boletos_comprados.length] */\n      dup2\n      sload\n      dup2\n      lt\n      tag_110\n      jumpi\n      invalid\n    tag_110:\n      swap1\n      0x00\n      mstore\n      keccak256(0x00, 0x20)\n      add\n      sload\n        /* \"Loteria/loteria.sol\":4837:4936  uint ganador = boletos_comprados[uint(keccak256(abi.encodePacked(now))) % boletos_comprados.length] */\n      swap1\n      pop\n        /* \"Loteria/loteria.sol\":4954:4977  boleto_ganador(ganador) */\n      0x7ae8aa8a76009e9379a432b67d892b6006479447de6892c862ce780785a2387d\n        /* \"Loteria/loteria.sol\":4969:4976  ganador */\n      dup2\n        /* \"Loteria/loteria.sol\":4954:4977  boleto_ganador(ganador) */\n      mload(0x40)\n      tag_112\n      swap2\n      swap1\n      tag_23\n      jump\t// in\n    tag_112:\n      mload(0x40)\n      dup1\n      swap2\n      sub\n      swap1\n      log1\n        /* \"Loteria/loteria.sol\":797:798  _ */\n      pop\n        /* \"Loteria/loteria.sol\":4528:4999  function generarGanador() public Unicamente(msg.sender) {\r... */\n      pop\n      jump\t// out\n        /* \"Loteria/loteria.sol\":242:262  address public owner */\n    tag_42:\n      0x01\n      0x00\n      swap1\n      sload\n      swap1\n      0x0100\n      exp\n      swap1\n      div\n      0xffffffffffffffffffffffffffffffffffffffff\n      and\n      dup2\n      jump\t// out\n        /* \"Loteria/loteria.sol\":269:292  address public contrato */\n    tag_47:\n      0x02\n      0x00\n      swap1\n      sload\n      swap1\n      0x0100\n      exp\n      swap1\n      div\n      0xffffffffffffffffffffffffffffffffffffffff\n      and\n      dup2\n      jump\t// out\n        /* \"Loteria/loteria.sol\":2299:2400  function MisTokens() public view returns (uint) {\r... */\n    tag_51:\n        /* \"Loteria/loteria.sol\":2341:2345  uint */\n      0x00\n        /* \"Loteria/loteria.sol\":2365:2370  token */\n      dup1\n      0x00\n      swap1\n      sload\n      swap1\n      0x0100\n      exp\n      swap1\n      div\n      0xffffffffffffffffffffffffffffffffffffffff\n      and\n        /* \"Loteria/loteria.sol\":2365:2380  token.balanceOf */\n      0xffffffffffffffffffffffffffffffffffffffff\n      and\n      0x70a08231\n        /* \"Loteria/loteria.sol\":2381:2391  msg.sender */\n      caller\n        /* \"Loteria/loteria.sol\":2365:2392  token.balanceOf(msg.sender) */\n      mload(0x40)\n      dup3\n      0xffffffff\n      and\n      0xe0\n      shl\n      dup2\n      mstore\n      0x04\n      add\n      tag_114\n      swap2\n      swap1\n      tag_115\n      jump\t// in\n    tag_114:\n      0x20\n      mload(0x40)\n      dup1\n      dup4\n      sub\n      dup2\n      dup7\n      dup1\n      extcodesize\n      iszero\n      dup1\n      iszero\n      tag_116\n      jumpi\n      0x00\n      dup1\n      revert\n    tag_116:\n      pop\n      gas\n      staticcall\n      iszero\n      dup1\n      iszero\n      tag_118\n      jumpi\n      returndatasize\n      0x00\n      dup1\n      returndatacopy\n      revert(0x00, returndatasize)\n    tag_118:\n      pop\n      pop\n      pop\n      pop\n      mload(0x40)\n      returndatasize\n      not(0x1f)\n      0x1f\n      dup3\n      add\n      and\n      dup3\n      add\n      dup1\n      0x40\n      mstore\n      pop\n      dup2\n      add\n      swap1\n      tag_119\n      swap2\n      swap1\n      tag_78\n      jump\t// in\n    tag_119:\n        /* \"Loteria/loteria.sol\":2358:2392  return token.balanceOf(msg.sender) */\n      swap1\n      pop\n        /* \"Loteria/loteria.sol\":2299:2400  function MisTokens() public view returns (uint) {\r... */\n      swap1\n      jump\t// out\n        /* \"Loteria/loteria.sol\":1191:1945  function CompraTokens(uint _numTokens) public payable {\r... */\n    tag_55:\n        /* \"Loteria/loteria.sol\":1303:1313  uint coste */\n      0x00\n        /* \"Loteria/loteria.sol\":1316:1340  PrecioTokens(_numTokens) */\n      tag_121\n        /* \"Loteria/loteria.sol\":1329:1339  _numTokens */\n      dup3\n        /* \"Loteria/loteria.sol\":1316:1328  PrecioTokens */\n      tag_122\n        /* \"Loteria/loteria.sol\":1316:1340  PrecioTokens(_numTokens) */\n      jump\t// in\n    tag_121:\n        /* \"Loteria/loteria.sol\":1303:1340  uint coste = PrecioTokens(_numTokens) */\n      swap1\n      pop\n        /* \"Loteria/loteria.sol\":1425:1430  coste */\n      dup1\n        /* \"Loteria/loteria.sol\":1412:1421  msg.value */\n      callvalue\n        /* \"Loteria/loteria.sol\":1412:1430  msg.value >= coste */\n      lt\n      iszero\n        /* \"Loteria/loteria.sol\":1403:1465  require (msg.value >= coste, \"Cantidad de ether insuficiente\") */\n      tag_123\n      jumpi\n      mload(0x40)\n      0x08c379a000000000000000000000000000000000000000000000000000000000\n      dup2\n      mstore\n      0x04\n      add\n      tag_124\n      swap1\n      tag_125\n      jump\t// in\n    tag_124:\n      mload(0x40)\n      dup1\n      swap2\n      sub\n      swap1\n      revert\n    tag_123:\n        /* \"Loteria/loteria.sol\":1566:1571  token */\n      0x00\n      dup1\n      sload\n      swap1\n      0x0100\n      exp\n      swap1\n      div\n      0xffffffffffffffffffffffffffffffffffffffff\n      and\n        /* \"Loteria/loteria.sol\":1566:1581  token.balanceOf */\n      0xffffffffffffffffffffffffffffffffffffffff\n      and\n      0x70a08231\n        /* \"Loteria/loteria.sol\":1582:1590  contrato */\n      0x02\n      0x00\n      swap1\n      sload\n      swap1\n      0x0100\n      exp\n      swap1\n      div\n      0xffffffffffffffffffffffffffffffffffffffff\n      and\n        /* \"Loteria/loteria.sol\":1566:1591  token.balanceOf(contrato) */\n      mload(0x40)\n      dup3\n      0xffffffff\n      and\n      0xe0\n      shl\n      dup2\n      mstore\n      0x04\n      add\n      tag_126\n      swap2\n      swap1\n      tag_44\n      jump\t// in\n    tag_126:\n      0x20\n      mload(0x40)\n      dup1\n      dup4\n      sub\n      dup2\n      dup7\n      dup1\n      extcodesize\n      iszero\n      dup1\n      iszero\n      tag_127\n      jumpi\n      0x00\n      dup1\n      revert\n    tag_127:\n      pop\n      gas\n      staticcall\n      iszero\n      dup1\n      iszero\n      tag_129\n      jumpi\n      returndatasize\n      0x00\n      dup1\n      returndatacopy\n      revert(0x00, returndatasize)\n    tag_129:\n      pop\n      pop\n      pop\n      pop\n      mload(0x40)\n      returndatasize\n      not(0x1f)\n      0x1f\n      dup3\n      add\n      and\n      dup3\n      add\n      dup1\n      0x40\n      mstore\n      pop\n      dup2\n      add\n      swap1\n      tag_130\n      swap2\n      swap1\n      tag_78\n      jump\t// in\n    tag_130:\n        /* \"Loteria/loteria.sol\":1552:1562  _numTokens */\n      dup3\n        /* \"Loteria/loteria.sol\":1552:1591  _numTokens <= token.balanceOf(contrato) */\n      gt\n      iszero\n        /* \"Loteria/loteria.sol\":1543:1628  require (_numTokens <= token.balanceOf(contrato), \"Cantidad de tokens insuficientes\") */\n      tag_131\n      jumpi\n      mload(0x40)\n      0x08c379a000000000000000000000000000000000000000000000000000000000\n      dup2\n      mstore\n      0x04\n      add\n      tag_132\n      swap1\n      tag_133\n      jump\t// in\n    tag_132:\n      mload(0x40)\n      dup1\n      swap2\n      sub\n      swap1\n      revert\n    tag_131:\n        /* \"Loteria/loteria.sol\":1714:1724  msg.sender */\n      caller\n        /* \"Loteria/loteria.sol\":1714:1733  msg.sender.transfer */\n      0xffffffffffffffffffffffffffffffffffffffff\n      and\n        /* \"Loteria/loteria.sol\":1714:1752  msg.sender.transfer(msg.value - coste) */\n      0x08fc\n        /* \"Loteria/loteria.sol\":1746:1751  coste */\n      dup3\n        /* \"Loteria/loteria.sol\":1734:1743  msg.value */\n      callvalue\n        /* \"Loteria/loteria.sol\":1734:1751  msg.value - coste */\n      sub\n        /* \"Loteria/loteria.sol\":1714:1752  msg.sender.transfer(msg.value - coste) */\n      swap1\n      dup2\n      iszero\n      mul\n      swap1\n      mload(0x40)\n      0x00\n      mload(0x40)\n      dup1\n      dup4\n      sub\n      dup2\n      dup6\n      dup9\n      dup9\n      call\n      swap4\n      pop\n      pop\n      pop\n      pop\n      iszero\n      dup1\n      iszero\n      tag_135\n      jumpi\n      returndatasize\n      0x00\n      dup1\n      returndatacopy\n      revert(0x00, returndatasize)\n    tag_135:\n      pop\n        /* \"Loteria/loteria.sol\":1813:1818  token */\n      0x00\n      dup1\n      sload\n      swap1\n      0x0100\n      exp\n      swap1\n      div\n      0xffffffffffffffffffffffffffffffffffffffff\n      and\n        /* \"Loteria/loteria.sol\":1813:1827  token.transfer */\n      0xffffffffffffffffffffffffffffffffffffffff\n      and\n      0xa9059cbb\n        /* \"Loteria/loteria.sol\":1828:1838  msg.sender */\n      caller\n        /* \"Loteria/loteria.sol\":1840:1850  _numTokens */\n      dup5\n        /* \"Loteria/loteria.sol\":1813:1851  token.transfer(msg.sender, _numTokens) */\n      mload(0x40)\n      dup4\n      0xffffffff\n      and\n      0xe0\n      shl\n      dup2\n      mstore\n      0x04\n      add\n      tag_136\n      swap3\n      swap2\n      swap1\n      tag_137\n      jump\t// in\n    tag_136:\n      0x20\n      mload(0x40)\n      dup1\n      dup4\n      sub\n      dup2\n      0x00\n      dup8\n      dup1\n      extcodesize\n      iszero\n      dup1\n      iszero\n      tag_138\n      jumpi\n      0x00\n      dup1\n      revert\n    tag_138:\n      pop\n      gas\n      call\n      iszero\n      dup1\n      iszero\n      tag_140\n      jumpi\n      returndatasize\n      0x00\n      dup1\n      returndatacopy\n      revert(0x00, returndatasize)\n    tag_140:\n      pop\n      pop\n      pop\n      pop\n      mload(0x40)\n      returndatasize\n      not(0x1f)\n      0x1f\n      dup3\n      add\n      and\n      dup3\n      add\n      dup1\n      0x40\n      mstore\n      pop\n      dup2\n      add\n      swap1\n      tag_141\n      swap2\n      swap1\n      tag_90\n      jump\t// in\n    tag_141:\n      pop\n        /* \"Loteria/loteria.sol\":1900:1937  ComprarTokens(_numTokens, msg.sender) */\n      0x1912293d843fe20a997ecedfe6ab8b44b26fc0ed0d7d2e152158ffd021c9ace3\n        /* \"Loteria/loteria.sol\":1914:1924  _numTokens */\n      dup3\n        /* \"Loteria/loteria.sol\":1926:1936  msg.sender */\n      caller\n        /* \"Loteria/loteria.sol\":1900:1937  ComprarTokens(_numTokens, msg.sender) */\n      mload(0x40)\n      tag_142\n      swap3\n      swap2\n      swap1\n      tag_143\n      jump\t// in\n    tag_142:\n      mload(0x40)\n      dup1\n      swap2\n      sub\n      swap1\n      log1\n        /* \"Loteria/loteria.sol\":1191:1945  function CompraTokens(uint _numTokens) public payable {\r... */\n      pop\n      pop\n      jump\t// out\n        /* \"Loteria/loteria.sol\":1996:2107  function TokensDisponibles() public view returns(uint) {\r... */\n    tag_58:\n        /* \"Loteria/loteria.sol\":2045:2049  uint */\n      0x00\n        /* \"Loteria/loteria.sol\":2069:2074  token */\n      dup1\n      0x00\n      swap1\n      sload\n      swap1\n      0x0100\n      exp\n      swap1\n      div\n      0xffffffffffffffffffffffffffffffffffffffff\n      and\n        /* \"Loteria/loteria.sol\":2069:2084  token.balanceOf */\n      0xffffffffffffffffffffffffffffffffffffffff\n      and\n      0x70a08231\n        /* \"Loteria/loteria.sol\":2093:2097  this */\n      address\n        /* \"Loteria/loteria.sol\":2069:2099  token.balanceOf(address(this)) */\n      mload(0x40)\n      dup3\n      0xffffffff\n      and\n      0xe0\n      shl\n      dup2\n      mstore\n      0x04\n      add\n      tag_145\n      swap2\n      swap1\n      tag_44\n      jump\t// in\n    tag_145:\n      0x20\n      mload(0x40)\n      dup1\n      dup4\n      sub\n      dup2\n      dup7\n      dup1\n      extcodesize\n      iszero\n      dup1\n      iszero\n      tag_146\n      jumpi\n      0x00\n      dup1\n      revert\n    tag_146:\n      pop\n      gas\n      staticcall\n      iszero\n      dup1\n      iszero\n      tag_148\n      jumpi\n      returndatasize\n      0x00\n      dup1\n      returndatacopy\n      revert(0x00, returndatasize)\n    tag_148:\n      pop\n      pop\n      pop\n      pop\n      mload(0x40)\n      returndatasize\n      not(0x1f)\n      0x1f\n      dup3\n      add\n      and\n      dup3\n      add\n      dup1\n      0x40\n      mstore\n      pop\n      dup2\n      add\n      swap1\n      tag_149\n      swap2\n      swap1\n      tag_78\n      jump\t// in\n    tag_149:\n        /* \"Loteria/loteria.sol\":2062:2099  return token.balanceOf(address(this)) */\n      swap1\n      pop\n        /* \"Loteria/loteria.sol\":1996:2107  function TokensDisponibles() public view returns(uint) {\r... */\n      swap1\n      jump\t// out\n        /* \"Loteria/loteria.sol\":884:999  function PrecioTokens(uint _numTokens) internal pure returns(uint) {\r... */\n    tag_122:\n        /* \"Loteria/loteria.sol\":945:949  uint */\n      0x00\n        /* \"Loteria/loteria.sol\":983:990  1 ether */\n      0x0de0b6b3a7640000\n        /* \"Loteria/loteria.sol\":969:979  _numTokens */\n      dup3\n        /* \"Loteria/loteria.sol\":969:991  _numTokens * (1 ether) */\n      mul\n        /* \"Loteria/loteria.sol\":962:991  return _numTokens * (1 ether) */\n      swap1\n      pop\n        /* \"Loteria/loteria.sol\":884:999  function PrecioTokens(uint _numTokens) internal pure returns(uint) {\r... */\n      swap2\n      swap1\n      pop\n      jump\t// out\n        /* \"--CODEGEN--\":5:133   */\n    tag_152:\n      0x00\n        /* \"--CODEGEN--\":86:92   */\n      dup2\n        /* \"--CODEGEN--\":80:93   */\n      mload\n        /* \"--CODEGEN--\":71:93   */\n      swap1\n      pop\n        /* \"--CODEGEN--\":98:128   */\n      tag_154\n        /* \"--CODEGEN--\":122:127   */\n      dup2\n        /* \"--CODEGEN--\":98:128   */\n      tag_155\n      jump\t// in\n    tag_154:\n        /* \"--CODEGEN--\":65:133   */\n      swap3\n      swap2\n      pop\n      pop\n      jump\t// out\n        /* \"--CODEGEN--\":140:270   */\n    tag_156:\n      0x00\n        /* \"--CODEGEN--\":220:226   */\n      dup2\n        /* \"--CODEGEN--\":207:227   */\n      calldataload\n        /* \"--CODEGEN--\":198:227   */\n      swap1\n      pop\n        /* \"--CODEGEN--\":232:265   */\n      tag_158\n        /* \"--CODEGEN--\":259:264   */\n      dup2\n        /* \"--CODEGEN--\":232:265   */\n      tag_159\n      jump\t// in\n    tag_158:\n        /* \"--CODEGEN--\":192:270   */\n      swap3\n      swap2\n      pop\n      pop\n      jump\t// out\n        /* \"--CODEGEN--\":277:411   */\n    tag_160:\n      0x00\n        /* \"--CODEGEN--\":361:367   */\n      dup2\n        /* \"--CODEGEN--\":355:368   */\n      mload\n        /* \"--CODEGEN--\":346:368   */\n      swap1\n      pop\n        /* \"--CODEGEN--\":373:406   */\n      tag_162\n        /* \"--CODEGEN--\":400:405   */\n      dup2\n        /* \"--CODEGEN--\":373:406   */\n      tag_159\n      jump\t// in\n    tag_162:\n        /* \"--CODEGEN--\":340:411   */\n      swap3\n      swap2\n      pop\n      pop\n      jump\t// out\n        /* \"--CODEGEN--\":418:675   */\n    tag_90:\n      0x00\n        /* \"--CODEGEN--\":530:532   */\n      0x20\n        /* \"--CODEGEN--\":518:527   */\n      dup3\n        /* \"--CODEGEN--\":509:516   */\n      dup5\n        /* \"--CODEGEN--\":505:528   */\n      sub\n        /* \"--CODEGEN--\":501:533   */\n      slt\n        /* \"--CODEGEN--\":498:500   */\n      iszero\n      tag_164\n      jumpi\n        /* \"--CODEGEN--\":546:547   */\n      0x00\n        /* \"--CODEGEN--\":543:544   */\n      dup1\n        /* \"--CODEGEN--\":536:548   */\n      revert\n        /* \"--CODEGEN--\":498:500   */\n    tag_164:\n        /* \"--CODEGEN--\":581:582   */\n      0x00\n        /* \"--CODEGEN--\":598:659   */\n      tag_165\n        /* \"--CODEGEN--\":651:658   */\n      dup5\n        /* \"--CODEGEN--\":642:648   */\n      dup3\n        /* \"--CODEGEN--\":631:640   */\n      dup6\n        /* \"--CODEGEN--\":627:649   */\n      add\n        /* \"--CODEGEN--\":598:659   */\n      tag_152\n      jump\t// in\n    tag_165:\n        /* \"--CODEGEN--\":588:659   */\n      swap2\n      pop\n        /* \"--CODEGEN--\":560:665   */\n      pop\n        /* \"--CODEGEN--\":492:675   */\n      swap3\n      swap2\n      pop\n      pop\n      jump\t// out\n        /* \"--CODEGEN--\":682:923   */\n    tag_17:\n      0x00\n        /* \"--CODEGEN--\":786:788   */\n      0x20\n        /* \"--CODEGEN--\":774:783   */\n      dup3\n        /* \"--CODEGEN--\":765:772   */\n      dup5\n        /* \"--CODEGEN--\":761:784   */\n      sub\n        /* \"--CODEGEN--\":757:789   */\n      slt\n        /* \"--CODEGEN--\":754:756   */\n      iszero\n      tag_167\n      jumpi\n        /* \"--CODEGEN--\":802:803   */\n      0x00\n        /* \"--CODEGEN--\":799:800   */\n      dup1\n        /* \"--CODEGEN--\":792:804   */\n      revert\n        /* \"--CODEGEN--\":754:756   */\n    tag_167:\n        /* \"--CODEGEN--\":837:838   */\n      0x00\n        /* \"--CODEGEN--\":854:907   */\n      tag_168\n        /* \"--CODEGEN--\":899:906   */\n      dup5\n        /* \"--CODEGEN--\":890:896   */\n      dup3\n        /* \"--CODEGEN--\":879:888   */\n      dup6\n        /* \"--CODEGEN--\":875:897   */\n      add\n        /* \"--CODEGEN--\":854:907   */\n      tag_156\n      jump\t// in\n    tag_168:\n        /* \"--CODEGEN--\":844:907   */\n      swap2\n      pop\n        /* \"--CODEGEN--\":816:913   */\n      pop\n        /* \"--CODEGEN--\":748:923   */\n      swap3\n      swap2\n      pop\n      pop\n      jump\t// out\n        /* \"--CODEGEN--\":930:1193   */\n    tag_78:\n      0x00\n        /* \"--CODEGEN--\":1045:1047   */\n      0x20\n        /* \"--CODEGEN--\":1033:1042   */\n      dup3\n        /* \"--CODEGEN--\":1024:1031   */\n      dup5\n        /* \"--CODEGEN--\":1020:1043   */\n      sub\n        /* \"--CODEGEN--\":1016:1048   */\n      slt\n        /* \"--CODEGEN--\":1013:1015   */\n      iszero\n      tag_170\n      jumpi\n        /* \"--CODEGEN--\":1061:1062   */\n      0x00\n        /* \"--CODEGEN--\":1058:1059   */\n      dup1\n        /* \"--CODEGEN--\":1051:1063   */\n      revert\n        /* \"--CODEGEN--\":1013:1015   */\n    tag_170:\n        /* \"--CODEGEN--\":1096:1097   */\n      0x00\n        /* \"--CODEGEN--\":1113:1177   */\n      tag_171\n        /* \"--CODEGEN--\":1169:1176   */\n      dup5\n        /* \"--CODEGEN--\":1160:1166   */\n      dup3\n        /* \"--CODEGEN--\":1149:1158   */\n      dup6\n        /* \"--CODEGEN--\":1145:1167   */\n      add\n        /* \"--CODEGEN--\":1113:1177   */\n      tag_160\n      jump\t// in\n    tag_171:\n        /* \"--CODEGEN--\":1103:1177   */\n      swap2\n      pop\n        /* \"--CODEGEN--\":1075:1183   */\n      pop\n        /* \"--CODEGEN--\":1007:1193   */\n      swap3\n      swap2\n      pop\n      pop\n      jump\t// out\n        /* \"--CODEGEN--\":1201:1374   */\n    tag_172:\n      0x00\n        /* \"--CODEGEN--\":1288:1334   */\n      tag_174\n        /* \"--CODEGEN--\":1330:1333   */\n      dup4\n        /* \"--CODEGEN--\":1322:1328   */\n      dup4\n        /* \"--CODEGEN--\":1288:1334   */\n      tag_175\n      jump\t// in\n    tag_174:\n        /* \"--CODEGEN--\":1363:1367   */\n      0x20\n        /* \"--CODEGEN--\":1358:1361   */\n      dup4\n        /* \"--CODEGEN--\":1354:1368   */\n      add\n        /* \"--CODEGEN--\":1340:1368   */\n      swap1\n      pop\n        /* \"--CODEGEN--\":1281:1374   */\n      swap3\n      swap2\n      pop\n      pop\n      jump\t// out\n        /* \"--CODEGEN--\":1382:1524   */\n    tag_176:\n        /* \"--CODEGEN--\":1473:1518   */\n      tag_178\n        /* \"--CODEGEN--\":1512:1517   */\n      dup2\n        /* \"--CODEGEN--\":1473:1518   */\n      tag_179\n      jump\t// in\n    tag_178:\n        /* \"--CODEGEN--\":1468:1471   */\n      dup3\n        /* \"--CODEGEN--\":1461:1519   */\n      mstore\n        /* \"--CODEGEN--\":1455:1524   */\n      pop\n      pop\n      jump\t// out\n        /* \"--CODEGEN--\":1531:1715   */\n    tag_180:\n        /* \"--CODEGEN--\":1648:1709   */\n      tag_182\n        /* \"--CODEGEN--\":1676:1708   */\n      tag_183\n        /* \"--CODEGEN--\":1702:1707   */\n      dup3\n        /* \"--CODEGEN--\":1676:1708   */\n      tag_184\n      jump\t// in\n    tag_183:\n        /* \"--CODEGEN--\":1648:1709   */\n      tag_185\n      jump\t// in\n    tag_182:\n        /* \"--CODEGEN--\":1643:1646   */\n      dup3\n        /* \"--CODEGEN--\":1636:1710   */\n      mstore\n        /* \"--CODEGEN--\":1630:1715   */\n      pop\n      pop\n      jump\t// out\n        /* \"--CODEGEN--\":1722:1835   */\n    tag_186:\n        /* \"--CODEGEN--\":1805:1829   */\n      tag_188\n        /* \"--CODEGEN--\":1823:1828   */\n      dup2\n        /* \"--CODEGEN--\":1805:1829   */\n      tag_189\n      jump\t// in\n    tag_188:\n        /* \"--CODEGEN--\":1800:1803   */\n      dup3\n        /* \"--CODEGEN--\":1793:1830   */\n      mstore\n        /* \"--CODEGEN--\":1787:1835   */\n      pop\n      pop\n      jump\t// out\n        /* \"--CODEGEN--\":1873:2563   */\n    tag_190:\n      0x00\n        /* \"--CODEGEN--\":2018:2072   */\n      tag_192\n        /* \"--CODEGEN--\":2066:2071   */\n      dup3\n        /* \"--CODEGEN--\":2018:2072   */\n      tag_193\n      jump\t// in\n    tag_192:\n        /* \"--CODEGEN--\":2085:2171   */\n      tag_194\n        /* \"--CODEGEN--\":2164:2170   */\n      dup2\n        /* \"--CODEGEN--\":2159:2162   */\n      dup6\n        /* \"--CODEGEN--\":2085:2171   */\n      tag_195\n      jump\t// in\n    tag_194:\n        /* \"--CODEGEN--\":2078:2171   */\n      swap4\n      pop\n        /* \"--CODEGEN--\":2192:2248   */\n      tag_196\n        /* \"--CODEGEN--\":2242:2247   */\n      dup4\n        /* \"--CODEGEN--\":2192:2248   */\n      tag_197\n      jump\t// in\n    tag_196:\n        /* \"--CODEGEN--\":2268:2275   */\n      dup1\n        /* \"--CODEGEN--\":2296:2297   */\n      0x00\n        /* \"--CODEGEN--\":2281:2541   */\n    tag_198:\n        /* \"--CODEGEN--\":2306:2312   */\n      dup4\n        /* \"--CODEGEN--\":2303:2304   */\n      dup2\n        /* \"--CODEGEN--\":2300:2313   */\n      lt\n        /* \"--CODEGEN--\":2281:2541   */\n      iszero\n      tag_200\n      jumpi\n        /* \"--CODEGEN--\":2373:2379   */\n      dup2\n        /* \"--CODEGEN--\":2367:2380   */\n      mload\n        /* \"--CODEGEN--\":2394:2457   */\n      tag_201\n        /* \"--CODEGEN--\":2453:2456   */\n      dup9\n        /* \"--CODEGEN--\":2438:2451   */\n      dup3\n        /* \"--CODEGEN--\":2394:2457   */\n      tag_172\n      jump\t// in\n    tag_201:\n        /* \"--CODEGEN--\":2387:2457   */\n      swap8\n      pop\n        /* \"--CODEGEN--\":2474:2534   */\n      tag_202\n        /* \"--CODEGEN--\":2527:2533   */\n      dup4\n        /* \"--CODEGEN--\":2474:2534   */\n      tag_203\n      jump\t// in\n    tag_202:\n        /* \"--CODEGEN--\":2464:2534   */\n      swap3\n      pop\n        /* \"--CODEGEN--\":2338:2541   */\n      pop\n        /* \"--CODEGEN--\":2328:2329   */\n      0x01\n        /* \"--CODEGEN--\":2325:2326   */\n      dup2\n        /* \"--CODEGEN--\":2321:2330   */\n      add\n        /* \"--CODEGEN--\":2316:2330   */\n      swap1\n      pop\n        /* \"--CODEGEN--\":2281:2541   */\n      jump(tag_198)\n    tag_200:\n        /* \"--CODEGEN--\":2285:2299   */\n      pop\n        /* \"--CODEGEN--\":2554:2557   */\n      dup6\n        /* \"--CODEGEN--\":2547:2557   */\n      swap4\n      pop\n        /* \"--CODEGEN--\":1997:2563   */\n      pop\n      pop\n      pop\n      swap3\n      swap2\n      pop\n      pop\n      jump\t// out\n        /* \"--CODEGEN--\":2572:2903   */\n    tag_204:\n      0x00\n        /* \"--CODEGEN--\":2732:2799   */\n      tag_206\n        /* \"--CODEGEN--\":2796:2798   */\n      0x1f\n        /* \"--CODEGEN--\":2791:2794   */\n      dup4\n        /* \"--CODEGEN--\":2732:2799   */\n      tag_207\n      jump\t// in\n    tag_206:\n        /* \"--CODEGEN--\":2725:2799   */\n      swap2\n      pop\n        /* \"--CODEGEN--\":2832:2865   */\n      0x43616e746964616420646520746f6b656e7320696e737566696369656e746500\n        /* \"--CODEGEN--\":2828:2829   */\n      0x00\n        /* \"--CODEGEN--\":2823:2826   */\n      dup4\n        /* \"--CODEGEN--\":2819:2830   */\n      add\n        /* \"--CODEGEN--\":2812:2866   */\n      mstore\n        /* \"--CODEGEN--\":2894:2896   */\n      0x20\n        /* \"--CODEGEN--\":2889:2892   */\n      dup3\n        /* \"--CODEGEN--\":2885:2897   */\n      add\n        /* \"--CODEGEN--\":2878:2897   */\n      swap1\n      pop\n        /* \"--CODEGEN--\":2718:2903   */\n      swap2\n      swap1\n      pop\n      jump\t// out\n        /* \"--CODEGEN--\":2912:3294   */\n    tag_208:\n      0x00\n        /* \"--CODEGEN--\":3072:3139   */\n      tag_210\n        /* \"--CODEGEN--\":3136:3138   */\n      0x2d\n        /* \"--CODEGEN--\":3131:3134   */\n      dup4\n        /* \"--CODEGEN--\":3072:3139   */\n      tag_207\n      jump\t// in\n    tag_210:\n        /* \"--CODEGEN--\":3065:3139   */\n      swap2\n      pop\n        /* \"--CODEGEN--\":3172:3206   */\n      0x4e6f207469656e6573207065726d69736f73207061726120656a656375746172\n        /* \"--CODEGEN--\":3168:3169   */\n      0x00\n        /* \"--CODEGEN--\":3163:3166   */\n      dup4\n        /* \"--CODEGEN--\":3159:3170   */\n      add\n        /* \"--CODEGEN--\":3152:3207   */\n      mstore\n        /* \"--CODEGEN--\":3241:3256   */\n      0x20657374612066756e63696f6e00000000000000000000000000000000000000\n        /* \"--CODEGEN--\":3236:3238   */\n      0x20\n        /* \"--CODEGEN--\":3231:3234   */\n      dup4\n        /* \"--CODEGEN--\":3227:3239   */\n      add\n        /* \"--CODEGEN--\":3220:3257   */\n      mstore\n        /* \"--CODEGEN--\":3285:3287   */\n      0x40\n        /* \"--CODEGEN--\":3280:3283   */\n      dup3\n        /* \"--CODEGEN--\":3276:3288   */\n      add\n        /* \"--CODEGEN--\":3269:3288   */\n      swap1\n      pop\n        /* \"--CODEGEN--\":3058:3294   */\n      swap2\n      swap1\n      pop\n      jump\t// out\n        /* \"--CODEGEN--\":3303:3633   */\n    tag_211:\n      0x00\n        /* \"--CODEGEN--\":3463:3530   */\n      tag_213\n        /* \"--CODEGEN--\":3527:3529   */\n      0x1e\n        /* \"--CODEGEN--\":3522:3525   */\n      dup4\n        /* \"--CODEGEN--\":3463:3530   */\n      tag_207\n      jump\t// in\n    tag_213:\n        /* \"--CODEGEN--\":3456:3530   */\n      swap2\n      pop\n        /* \"--CODEGEN--\":3563:3595   */\n      0x43616e746964616420646520657468657220696e737566696369656e74650000\n        /* \"--CODEGEN--\":3559:3560   */\n      0x00\n        /* \"--CODEGEN--\":3554:3557   */\n      dup4\n        /* \"--CODEGEN--\":3550:3561   */\n      add\n        /* \"--CODEGEN--\":3543:3596   */\n      mstore\n        /* \"--CODEGEN--\":3624:3626   */\n      0x20\n        /* \"--CODEGEN--\":3619:3622   */\n      dup3\n        /* \"--CODEGEN--\":3615:3627   */\n      add\n        /* \"--CODEGEN--\":3608:3627   */\n      swap1\n      pop\n        /* \"--CODEGEN--\":3449:3633   */\n      swap2\n      swap1\n      pop\n      jump\t// out\n        /* \"--CODEGEN--\":3642:3974   */\n    tag_214:\n      0x00\n        /* \"--CODEGEN--\":3802:3869   */\n      tag_216\n        /* \"--CODEGEN--\":3866:3868   */\n      0x20\n        /* \"--CODEGEN--\":3861:3864   */\n      dup4\n        /* \"--CODEGEN--\":3802:3869   */\n      tag_207\n      jump\t// in\n    tag_216:\n        /* \"--CODEGEN--\":3795:3869   */\n      swap2\n      pop\n        /* \"--CODEGEN--\":3902:3936   */\n      0x43616e746964616420646520746f6b656e7320696e737566696369656e746573\n        /* \"--CODEGEN--\":3898:3899   */\n      0x00\n        /* \"--CODEGEN--\":3893:3896   */\n      dup4\n        /* \"--CODEGEN--\":3889:3900   */\n      add\n        /* \"--CODEGEN--\":3882:3937   */\n      mstore\n        /* \"--CODEGEN--\":3965:3967   */\n      0x20\n        /* \"--CODEGEN--\":3960:3963   */\n      dup3\n        /* \"--CODEGEN--\":3956:3968   */\n      add\n        /* \"--CODEGEN--\":3949:3968   */\n      swap1\n      pop\n        /* \"--CODEGEN--\":3788:3974   */\n      swap2\n      swap1\n      pop\n      jump\t// out\n        /* \"--CODEGEN--\":3983:4448   */\n    tag_217:\n      0x00\n        /* \"--CODEGEN--\":4143:4210   */\n      tag_219\n        /* \"--CODEGEN--\":4207:4209   */\n      0x28\n        /* \"--CODEGEN--\":4202:4205   */\n      dup4\n        /* \"--CODEGEN--\":4143:4210   */\n      tag_207\n      jump\t// in\n    tag_219:\n        /* \"--CODEGEN--\":4136:4210   */\n      swap2\n      pop\n        /* \"--CODEGEN--\":4243:4309   */\n      0x4e6f2073652068612076656e6469646f206e696e67c3ba6e20626f6c65746f20\n        /* \"--CODEGEN--\":4239:4240   */\n      0x00\n        /* \"--CODEGEN--\":4234:4237   */\n      dup4\n        /* \"--CODEGEN--\":4230:4241   */\n      add\n        /* \"--CODEGEN--\":4223:4310   */\n      mstore\n        /* \"--CODEGEN--\":4344:4410   */\n      0x746f646176c3ad61000000000000000000000000000000000000000000000000\n        /* \"--CODEGEN--\":4339:4341   */\n      0x20\n        /* \"--CODEGEN--\":4334:4337   */\n      dup4\n        /* \"--CODEGEN--\":4330:4342   */\n      add\n        /* \"--CODEGEN--\":4323:4411   */\n      mstore\n        /* \"--CODEGEN--\":4439:4441   */\n      0x40\n        /* \"--CODEGEN--\":4434:4437   */\n      dup3\n        /* \"--CODEGEN--\":4430:4442   */\n      add\n        /* \"--CODEGEN--\":4423:4442   */\n      swap1\n      pop\n        /* \"--CODEGEN--\":4129:4448   */\n      swap2\n      swap1\n      pop\n      jump\t// out\n        /* \"--CODEGEN--\":4456:4559   */\n    tag_175:\n        /* \"--CODEGEN--\":4529:4553   */\n      tag_221\n        /* \"--CODEGEN--\":4547:4552   */\n      dup2\n        /* \"--CODEGEN--\":4529:4553   */\n      tag_222\n      jump\t// in\n    tag_221:\n        /* \"--CODEGEN--\":4524:4527   */\n      dup3\n        /* \"--CODEGEN--\":4517:4554   */\n      mstore\n        /* \"--CODEGEN--\":4511:4559   */\n      pop\n      pop\n      jump\t// out\n        /* \"--CODEGEN--\":4566:4679   */\n    tag_223:\n        /* \"--CODEGEN--\":4649:4673   */\n      tag_225\n        /* \"--CODEGEN--\":4667:4672   */\n      dup2\n        /* \"--CODEGEN--\":4649:4673   */\n      tag_222\n      jump\t// in\n    tag_225:\n        /* \"--CODEGEN--\":4644:4647   */\n      dup3\n        /* \"--CODEGEN--\":4637:4674   */\n      mstore\n        /* \"--CODEGEN--\":4631:4679   */\n      pop\n      pop\n      jump\t// out\n        /* \"--CODEGEN--\":4686:4838   */\n    tag_226:\n        /* \"--CODEGEN--\":4787:4832   */\n      tag_228\n        /* \"--CODEGEN--\":4807:4831   */\n      tag_229\n        /* \"--CODEGEN--\":4825:4830   */\n      dup3\n        /* \"--CODEGEN--\":4807:4831   */\n      tag_222\n      jump\t// in\n    tag_229:\n        /* \"--CODEGEN--\":4787:4832   */\n      tag_230\n      jump\t// in\n    tag_228:\n        /* \"--CODEGEN--\":4782:4785   */\n      dup3\n        /* \"--CODEGEN--\":4775:4833   */\n      mstore\n        /* \"--CODEGEN--\":4769:4838   */\n      pop\n      pop\n      jump\t// out\n        /* \"--CODEGEN--\":4845:5098   */\n    tag_108:\n      0x00\n        /* \"--CODEGEN--\":4973:5048   */\n      tag_232\n        /* \"--CODEGEN--\":5044:5047   */\n      dup3\n        /* \"--CODEGEN--\":5035:5041   */\n      dup5\n        /* \"--CODEGEN--\":4973:5048   */\n      tag_226\n      jump\t// in\n    tag_232:\n        /* \"--CODEGEN--\":5070:5072   */\n      0x20\n        /* \"--CODEGEN--\":5065:5068   */\n      dup3\n        /* \"--CODEGEN--\":5061:5073   */\n      add\n        /* \"--CODEGEN--\":5054:5073   */\n      swap2\n      pop\n        /* \"--CODEGEN--\":5090:5093   */\n      dup2\n        /* \"--CODEGEN--\":5083:5093   */\n      swap1\n      pop\n        /* \"--CODEGEN--\":4961:5098   */\n      swap3\n      swap2\n      pop\n      pop\n      jump\t// out\n        /* \"--CODEGEN--\":5105:5668   */\n    tag_95:\n      0x00\n        /* \"--CODEGEN--\":5305:5380   */\n      tag_234\n        /* \"--CODEGEN--\":5376:5379   */\n      dup3\n        /* \"--CODEGEN--\":5367:5373   */\n      dup7\n        /* \"--CODEGEN--\":5305:5380   */\n      tag_226\n      jump\t// in\n    tag_234:\n        /* \"--CODEGEN--\":5402:5404   */\n      0x20\n        /* \"--CODEGEN--\":5397:5400   */\n      dup3\n        /* \"--CODEGEN--\":5393:5405   */\n      add\n        /* \"--CODEGEN--\":5386:5405   */\n      swap2\n      pop\n        /* \"--CODEGEN--\":5416:5507   */\n      tag_235\n        /* \"--CODEGEN--\":5503:5506   */\n      dup3\n        /* \"--CODEGEN--\":5494:5500   */\n      dup6\n        /* \"--CODEGEN--\":5416:5507   */\n      tag_180\n      jump\t// in\n    tag_235:\n        /* \"--CODEGEN--\":5529:5531   */\n      0x14\n        /* \"--CODEGEN--\":5524:5527   */\n      dup3\n        /* \"--CODEGEN--\":5520:5532   */\n      add\n        /* \"--CODEGEN--\":5513:5532   */\n      swap2\n      pop\n        /* \"--CODEGEN--\":5543:5618   */\n      tag_236\n        /* \"--CODEGEN--\":5614:5617   */\n      dup3\n        /* \"--CODEGEN--\":5605:5611   */\n      dup5\n        /* \"--CODEGEN--\":5543:5618   */\n      tag_226\n      jump\t// in\n    tag_236:\n        /* \"--CODEGEN--\":5640:5642   */\n      0x20\n        /* \"--CODEGEN--\":5635:5638   */\n      dup3\n        /* \"--CODEGEN--\":5631:5643   */\n      add\n        /* \"--CODEGEN--\":5624:5643   */\n      swap2\n      pop\n        /* \"--CODEGEN--\":5660:5663   */\n      dup2\n        /* \"--CODEGEN--\":5653:5663   */\n      swap1\n      pop\n        /* \"--CODEGEN--\":5293:5668   */\n      swap5\n      swap4\n      pop\n      pop\n      pop\n      pop\n      jump\t// out\n        /* \"--CODEGEN--\":5675:5897   */\n    tag_44:\n      0x00\n        /* \"--CODEGEN--\":5802:5804   */\n      0x20\n        /* \"--CODEGEN--\":5791:5800   */\n      dup3\n        /* \"--CODEGEN--\":5787:5805   */\n      add\n        /* \"--CODEGEN--\":5779:5805   */\n      swap1\n      pop\n        /* \"--CODEGEN--\":5816:5887   */\n      tag_238\n        /* \"--CODEGEN--\":5884:5885   */\n      0x00\n        /* \"--CODEGEN--\":5873:5882   */\n      dup4\n        /* \"--CODEGEN--\":5869:5886   */\n      add\n        /* \"--CODEGEN--\":5860:5866   */\n      dup5\n        /* \"--CODEGEN--\":5816:5887   */\n      tag_186\n      jump\t// in\n    tag_238:\n        /* \"--CODEGEN--\":5773:5897   */\n      swap3\n      swap2\n      pop\n      pop\n      jump\t// out\n        /* \"--CODEGEN--\":5904:6142   */\n    tag_115:\n      0x00\n        /* \"--CODEGEN--\":6039:6041   */\n      0x20\n        /* \"--CODEGEN--\":6028:6037   */\n      dup3\n        /* \"--CODEGEN--\":6024:6042   */\n      add\n        /* \"--CODEGEN--\":6016:6042   */\n      swap1\n      pop\n        /* \"--CODEGEN--\":6053:6132   */\n      tag_240\n        /* \"--CODEGEN--\":6129:6130   */\n      0x00\n        /* \"--CODEGEN--\":6118:6127   */\n      dup4\n        /* \"--CODEGEN--\":6114:6131   */\n      add\n        /* \"--CODEGEN--\":6105:6111   */\n      dup5\n        /* \"--CODEGEN--\":6053:6132   */\n      tag_176\n      jump\t// in\n    tag_240:\n        /* \"--CODEGEN--\":6010:6142   */\n      swap3\n      swap2\n      pop\n      pop\n      jump\t// out\n        /* \"--CODEGEN--\":6149:6609   */\n    tag_85:\n      0x00\n        /* \"--CODEGEN--\":6340:6342   */\n      0x60\n        /* \"--CODEGEN--\":6329:6338   */\n      dup3\n        /* \"--CODEGEN--\":6325:6343   */\n      add\n        /* \"--CODEGEN--\":6317:6343   */\n      swap1\n      pop\n        /* \"--CODEGEN--\":6354:6433   */\n      tag_242\n        /* \"--CODEGEN--\":6430:6431   */\n      0x00\n        /* \"--CODEGEN--\":6419:6428   */\n      dup4\n        /* \"--CODEGEN--\":6415:6432   */\n      add\n        /* \"--CODEGEN--\":6406:6412   */\n      dup7\n        /* \"--CODEGEN--\":6354:6433   */\n      tag_176\n      jump\t// in\n    tag_242:\n        /* \"--CODEGEN--\":6444:6516   */\n      tag_243\n        /* \"--CODEGEN--\":6512:6514   */\n      0x20\n        /* \"--CODEGEN--\":6501:6510   */\n      dup4\n        /* \"--CODEGEN--\":6497:6515   */\n      add\n        /* \"--CODEGEN--\":6488:6494   */\n      dup6\n        /* \"--CODEGEN--\":6444:6516   */\n      tag_186\n      jump\t// in\n    tag_243:\n        /* \"--CODEGEN--\":6527:6599   */\n      tag_244\n        /* \"--CODEGEN--\":6595:6597   */\n      0x40\n        /* \"--CODEGEN--\":6584:6593   */\n      dup4\n        /* \"--CODEGEN--\":6580:6598   */\n      add\n        /* \"--CODEGEN--\":6571:6577   */\n      dup5\n        /* \"--CODEGEN--\":6527:6599   */\n      tag_223\n      jump\t// in\n    tag_244:\n        /* \"--CODEGEN--\":6311:6609   */\n      swap5\n      swap4\n      pop\n      pop\n      pop\n      pop\n      jump\t// out\n        /* \"--CODEGEN--\":6616:6965   */\n    tag_137:\n      0x00\n        /* \"--CODEGEN--\":6779:6781   */\n      0x40\n        /* \"--CODEGEN--\":6768:6777   */\n      dup3\n        /* \"--CODEGEN--\":6764:6782   */\n      add\n        /* \"--CODEGEN--\":6756:6782   */\n      swap1\n      pop\n        /* \"--CODEGEN--\":6793:6872   */\n      tag_246\n        /* \"--CODEGEN--\":6869:6870   */\n      0x00\n        /* \"--CODEGEN--\":6858:6867   */\n      dup4\n        /* \"--CODEGEN--\":6854:6871   */\n      add\n        /* \"--CODEGEN--\":6845:6851   */\n      dup6\n        /* \"--CODEGEN--\":6793:6872   */\n      tag_176\n      jump\t// in\n    tag_246:\n        /* \"--CODEGEN--\":6883:6955   */\n      tag_247\n        /* \"--CODEGEN--\":6951:6953   */\n      0x20\n        /* \"--CODEGEN--\":6940:6949   */\n      dup4\n        /* \"--CODEGEN--\":6936:6954   */\n      add\n        /* \"--CODEGEN--\":6927:6933   */\n      dup5\n        /* \"--CODEGEN--\":6883:6955   */\n      tag_223\n      jump\t// in\n    tag_247:\n        /* \"--CODEGEN--\":6750:6965   */\n      swap4\n      swap3\n      pop\n      pop\n      pop\n      jump\t// out\n        /* \"--CODEGEN--\":6972:7342   */\n    tag_28:\n      0x00\n        /* \"--CODEGEN--\":7149:7151   */\n      0x20\n        /* \"--CODEGEN--\":7138:7147   */\n      dup3\n        /* \"--CODEGEN--\":7134:7152   */\n      add\n        /* \"--CODEGEN--\":7126:7152   */\n      swap1\n      pop\n        /* \"--CODEGEN--\":7199:7208   */\n      dup2\n        /* \"--CODEGEN--\":7193:7197   */\n      dup2\n        /* \"--CODEGEN--\":7189:7209   */\n      sub\n        /* \"--CODEGEN--\":7185:7186   */\n      0x00\n        /* \"--CODEGEN--\":7174:7183   */\n      dup4\n        /* \"--CODEGEN--\":7170:7187   */\n      add\n        /* \"--CODEGEN--\":7163:7210   */\n      mstore\n        /* \"--CODEGEN--\":7224:7332   */\n      tag_249\n        /* \"--CODEGEN--\":7327:7331   */\n      dup2\n        /* \"--CODEGEN--\":7318:7324   */\n      dup5\n        /* \"--CODEGEN--\":7224:7332   */\n      tag_190\n      jump\t// in\n    tag_249:\n        /* \"--CODEGEN--\":7216:7332   */\n      swap1\n      pop\n        /* \"--CODEGEN--\":7120:7342   */\n      swap3\n      swap2\n      pop\n      pop\n      jump\t// out\n        /* \"--CODEGEN--\":7349:7765   */\n    tag_83:\n      0x00\n        /* \"--CODEGEN--\":7549:7551   */\n      0x20\n        /* \"--CODEGEN--\":7538:7547   */\n      dup3\n        /* \"--CODEGEN--\":7534:7552   */\n      add\n        /* \"--CODEGEN--\":7526:7552   */\n      swap1\n      pop\n        /* \"--CODEGEN--\":7599:7608   */\n      dup2\n        /* \"--CODEGEN--\":7593:7597   */\n      dup2\n        /* \"--CODEGEN--\":7589:7609   */\n      sub\n        /* \"--CODEGEN--\":7585:7586   */\n      0x00\n        /* \"--CODEGEN--\":7574:7583   */\n      dup4\n        /* \"--CODEGEN--\":7570:7587   */\n      add\n        /* \"--CODEGEN--\":7563:7610   */\n      mstore\n        /* \"--CODEGEN--\":7624:7755   */\n      tag_251\n        /* \"--CODEGEN--\":7750:7754   */\n      dup2\n        /* \"--CODEGEN--\":7624:7755   */\n      tag_204\n      jump\t// in\n    tag_251:\n        /* \"--CODEGEN--\":7616:7755   */\n      swap1\n      pop\n        /* \"--CODEGEN--\":7520:7765   */\n      swap2\n      swap1\n      pop\n      jump\t// out\n        /* \"--CODEGEN--\":7772:8188   */\n    tag_63:\n      0x00\n        /* \"--CODEGEN--\":7972:7974   */\n      0x20\n        /* \"--CODEGEN--\":7961:7970   */\n      dup3\n        /* \"--CODEGEN--\":7957:7975   */\n      add\n        /* \"--CODEGEN--\":7949:7975   */\n      swap1\n      pop\n        /* \"--CODEGEN--\":8022:8031   */\n      dup2\n        /* \"--CODEGEN--\":8016:8020   */\n      dup2\n        /* \"--CODEGEN--\":8012:8032   */\n      sub\n        /* \"--CODEGEN--\":8008:8009   */\n      0x00\n        /* \"--CODEGEN--\":7997:8006   */\n      dup4\n        /* \"--CODEGEN--\":7993:8010   */\n      add\n        /* \"--CODEGEN--\":7986:8033   */\n      mstore\n        /* \"--CODEGEN--\":8047:8178   */\n      tag_253\n        /* \"--CODEGEN--\":8173:8177   */\n      dup2\n        /* \"--CODEGEN--\":8047:8178   */\n      tag_208\n      jump\t// in\n    tag_253:\n        /* \"--CODEGEN--\":8039:8178   */\n      swap1\n      pop\n        /* \"--CODEGEN--\":7943:8188   */\n      swap2\n      swap1\n      pop\n      jump\t// out\n        /* \"--CODEGEN--\":8195:8611   */\n    tag_125:\n      0x00\n        /* \"--CODEGEN--\":8395:8397   */\n      0x20\n        /* \"--CODEGEN--\":8384:8393   */\n      dup3\n        /* \"--CODEGEN--\":8380:8398   */\n      add\n        /* \"--CODEGEN--\":8372:8398   */\n      swap1\n      pop\n        /* \"--CODEGEN--\":8445:8454   */\n      dup2\n        /* \"--CODEGEN--\":8439:8443   */\n      dup2\n        /* \"--CODEGEN--\":8435:8455   */\n      sub\n        /* \"--CODEGEN--\":8431:8432   */\n      0x00\n        /* \"--CODEGEN--\":8420:8429   */\n      dup4\n        /* \"--CODEGEN--\":8416:8433   */\n      add\n        /* \"--CODEGEN--\":8409:8456   */\n      mstore\n        /* \"--CODEGEN--\":8470:8601   */\n      tag_255\n        /* \"--CODEGEN--\":8596:8600   */\n      dup2\n        /* \"--CODEGEN--\":8470:8601   */\n      tag_211\n      jump\t// in\n    tag_255:\n        /* \"--CODEGEN--\":8462:8601   */\n      swap1\n      pop\n        /* \"--CODEGEN--\":8366:8611   */\n      swap2\n      swap1\n      pop\n      jump\t// out\n        /* \"--CODEGEN--\":8618:9034   */\n    tag_133:\n      0x00\n        /* \"--CODEGEN--\":8818:8820   */\n      0x20\n        /* \"--CODEGEN--\":8807:8816   */\n      dup3\n        /* \"--CODEGEN--\":8803:8821   */\n      add\n        /* \"--CODEGEN--\":8795:8821   */\n      swap1\n      pop\n        /* \"--CODEGEN--\":8868:8877   */\n      dup2\n        /* \"--CODEGEN--\":8862:8866   */\n      dup2\n        /* \"--CODEGEN--\":8858:8878   */\n      sub\n        /* \"--CODEGEN--\":8854:8855   */\n      0x00\n        /* \"--CODEGEN--\":8843:8852   */\n      dup4\n        /* \"--CODEGEN--\":8839:8856   */\n      add\n        /* \"--CODEGEN--\":8832:8879   */\n      mstore\n        /* \"--CODEGEN--\":8893:9024   */\n      tag_257\n        /* \"--CODEGEN--\":9019:9023   */\n      dup2\n        /* \"--CODEGEN--\":8893:9024   */\n      tag_214\n      jump\t// in\n    tag_257:\n        /* \"--CODEGEN--\":8885:9024   */\n      swap1\n      pop\n        /* \"--CODEGEN--\":8789:9034   */\n      swap2\n      swap1\n      pop\n      jump\t// out\n        /* \"--CODEGEN--\":9041:9457   */\n    tag_106:\n      0x00\n        /* \"--CODEGEN--\":9241:9243   */\n      0x20\n        /* \"--CODEGEN--\":9230:9239   */\n      dup3\n        /* \"--CODEGEN--\":9226:9244   */\n      add\n        /* \"--CODEGEN--\":9218:9244   */\n      swap1\n      pop\n        /* \"--CODEGEN--\":9291:9300   */\n      dup2\n        /* \"--CODEGEN--\":9285:9289   */\n      dup2\n        /* \"--CODEGEN--\":9281:9301   */\n      sub\n        /* \"--CODEGEN--\":9277:9278   */\n      0x00\n        /* \"--CODEGEN--\":9266:9275   */\n      dup4\n        /* \"--CODEGEN--\":9262:9279   */\n      add\n        /* \"--CODEGEN--\":9255:9302   */\n      mstore\n        /* \"--CODEGEN--\":9316:9447   */\n      tag_259\n        /* \"--CODEGEN--\":9442:9446   */\n      dup2\n        /* \"--CODEGEN--\":9316:9447   */\n      tag_217\n      jump\t// in\n    tag_259:\n        /* \"--CODEGEN--\":9308:9447   */\n      swap1\n      pop\n        /* \"--CODEGEN--\":9212:9457   */\n      swap2\n      swap1\n      pop\n      jump\t// out\n        /* \"--CODEGEN--\":9464:9686   */\n    tag_23:\n      0x00\n        /* \"--CODEGEN--\":9591:9593   */\n      0x20\n        /* \"--CODEGEN--\":9580:9589   */\n      dup3\n        /* \"--CODEGEN--\":9576:9594   */\n      add\n        /* \"--CODEGEN--\":9568:9594   */\n      swap1\n      pop\n        /* \"--CODEGEN--\":9605:9676   */\n      tag_261\n        /* \"--CODEGEN--\":9673:9674   */\n      0x00\n        /* \"--CODEGEN--\":9662:9671   */\n      dup4\n        /* \"--CODEGEN--\":9658:9675   */\n      add\n        /* \"--CODEGEN--\":9649:9655   */\n      dup5\n        /* \"--CODEGEN--\":9605:9676   */\n      tag_223\n      jump\t// in\n    tag_261:\n        /* \"--CODEGEN--\":9562:9686   */\n      swap3\n      swap2\n      pop\n      pop\n      jump\t// out\n        /* \"--CODEGEN--\":9693:10042   */\n    tag_143:\n      0x00\n        /* \"--CODEGEN--\":9856:9858   */\n      0x40\n        /* \"--CODEGEN--\":9845:9854   */\n      dup3\n        /* \"--CODEGEN--\":9841:9859   */\n      add\n        /* \"--CODEGEN--\":9833:9859   */\n      swap1\n      pop\n        /* \"--CODEGEN--\":9870:9941   */\n      tag_263\n        /* \"--CODEGEN--\":9938:9939   */\n      0x00\n        /* \"--CODEGEN--\":9927:9936   */\n      dup4\n        /* \"--CODEGEN--\":9923:9940   */\n      add\n        /* \"--CODEGEN--\":9914:9920   */\n      dup6\n        /* \"--CODEGEN--\":9870:9941   */\n      tag_223\n      jump\t// in\n    tag_263:\n        /* \"--CODEGEN--\":9952:10032   */\n      tag_264\n        /* \"--CODEGEN--\":10028:10030   */\n      0x20\n        /* \"--CODEGEN--\":10017:10026   */\n      dup4\n        /* \"--CODEGEN--\":10013:10031   */\n      add\n        /* \"--CODEGEN--\":10004:10010   */\n      dup5\n        /* \"--CODEGEN--\":9952:10032   */\n      tag_176\n      jump\t// in\n    tag_264:\n        /* \"--CODEGEN--\":9827:10042   */\n      swap4\n      swap3\n      pop\n      pop\n      pop\n      jump\t// out\n        /* \"--CODEGEN--\":10049:10200   */\n    tag_197:\n      0x00\n        /* \"--CODEGEN--\":10135:10138   */\n      dup2\n        /* \"--CODEGEN--\":10127:10138   */\n      swap1\n      pop\n        /* \"--CODEGEN--\":10173:10177   */\n      0x20\n        /* \"--CODEGEN--\":10168:10171   */\n      dup3\n        /* \"--CODEGEN--\":10164:10178   */\n      add\n        /* \"--CODEGEN--\":10156:10178   */\n      swap1\n      pop\n        /* \"--CODEGEN--\":10121:10200   */\n      swap2\n      swap1\n      pop\n      jump\t// out\n        /* \"--CODEGEN--\":10207:10344   */\n    tag_193:\n      0x00\n        /* \"--CODEGEN--\":10316:10321   */\n      dup2\n        /* \"--CODEGEN--\":10310:10322   */\n      mload\n        /* \"--CODEGEN--\":10300:10322   */\n      swap1\n      pop\n        /* \"--CODEGEN--\":10281:10344   */\n      swap2\n      swap1\n      pop\n      jump\t// out\n        /* \"--CODEGEN--\":10351:10459   */\n    tag_203:\n      0x00\n        /* \"--CODEGEN--\":10449:10453   */\n      0x20\n        /* \"--CODEGEN--\":10444:10447   */\n      dup3\n        /* \"--CODEGEN--\":10440:10454   */\n      add\n        /* \"--CODEGEN--\":10432:10454   */\n      swap1\n      pop\n        /* \"--CODEGEN--\":10426:10459   */\n      swap2\n      swap1\n      pop\n      jump\t// out\n        /* \"--CODEGEN--\":10467:10645   */\n    tag_195:\n      0x00\n        /* \"--CODEGEN--\":10597:10603   */\n      dup3\n        /* \"--CODEGEN--\":10592:10595   */\n      dup3\n        /* \"--CODEGEN--\":10585:10604   */\n      mstore\n        /* \"--CODEGEN--\":10634:10638   */\n      0x20\n        /* \"--CODEGEN--\":10629:10632   */\n      dup3\n        /* \"--CODEGEN--\":10625:10639   */\n      add\n        /* \"--CODEGEN--\":10610:10639   */\n      swap1\n      pop\n        /* \"--CODEGEN--\":10578:10645   */\n      swap3\n      swap2\n      pop\n      pop\n      jump\t// out\n        /* \"--CODEGEN--\":10654:10817   */\n    tag_207:\n      0x00\n        /* \"--CODEGEN--\":10769:10775   */\n      dup3\n        /* \"--CODEGEN--\":10764:10767   */\n      dup3\n        /* \"--CODEGEN--\":10757:10776   */\n      mstore\n        /* \"--CODEGEN--\":10806:10810   */\n      0x20\n        /* \"--CODEGEN--\":10801:10804   */\n      dup3\n        /* \"--CODEGEN--\":10797:10811   */\n      add\n        /* \"--CODEGEN--\":10782:10811   */\n      swap1\n      pop\n        /* \"--CODEGEN--\":10750:10817   */\n      swap3\n      swap2\n      pop\n      pop\n      jump\t// out\n        /* \"--CODEGEN--\":10825:10916   */\n    tag_189:\n      0x00\n        /* \"--CODEGEN--\":10887:10911   */\n      tag_271\n        /* \"--CODEGEN--\":10905:10910   */\n      dup3\n        /* \"--CODEGEN--\":10887:10911   */\n      tag_272\n      jump\t// in\n    tag_271:\n        /* \"--CODEGEN--\":10876:10911   */\n      swap1\n      pop\n        /* \"--CODEGEN--\":10870:10916   */\n      swap2\n      swap1\n      pop\n      jump\t// out\n        /* \"--CODEGEN--\":10923:11022   */\n    tag_184:\n      0x00\n        /* \"--CODEGEN--\":10993:11017   */\n      tag_274\n        /* \"--CODEGEN--\":11011:11016   */\n      dup3\n        /* \"--CODEGEN--\":10993:11017   */\n      tag_272\n      jump\t// in\n    tag_274:\n        /* \"--CODEGEN--\":10982:11017   */\n      swap1\n      pop\n        /* \"--CODEGEN--\":10976:11022   */\n      swap2\n      swap1\n      pop\n      jump\t// out\n        /* \"--CODEGEN--\":11029:11114   */\n    tag_275:\n      0x00\n        /* \"--CODEGEN--\":11102:11107   */\n      dup2\n        /* \"--CODEGEN--\":11095:11108   */\n      iszero\n        /* \"--CODEGEN--\":11088:11109   */\n      iszero\n        /* \"--CODEGEN--\":11077:11109   */\n      swap1\n      pop\n        /* \"--CODEGEN--\":11071:11114   */\n      swap2\n      swap1\n      pop\n      jump\t// out\n        /* \"--CODEGEN--\":11121:11242   */\n    tag_272:\n      0x00\n        /* \"--CODEGEN--\":11194:11236   */\n      0xffffffffffffffffffffffffffffffffffffffff\n        /* \"--CODEGEN--\":11187:11192   */\n      dup3\n        /* \"--CODEGEN--\":11183:11237   */\n      and\n        /* \"--CODEGEN--\":11172:11237   */\n      swap1\n      pop\n        /* \"--CODEGEN--\":11166:11242   */\n      swap2\n      swap1\n      pop\n      jump\t// out\n        /* \"--CODEGEN--\":11249:11321   */\n    tag_222:\n      0x00\n        /* \"--CODEGEN--\":11311:11316   */\n      dup2\n        /* \"--CODEGEN--\":11300:11316   */\n      swap1\n      pop\n        /* \"--CODEGEN--\":11294:11321   */\n      swap2\n      swap1\n      pop\n      jump\t// out\n        /* \"--CODEGEN--\":11328:11457   */\n    tag_179:\n      0x00\n        /* \"--CODEGEN--\":11415:11452   */\n      tag_280\n        /* \"--CODEGEN--\":11446:11451   */\n      dup3\n        /* \"--CODEGEN--\":11415:11452   */\n      tag_281\n      jump\t// in\n    tag_280:\n        /* \"--CODEGEN--\":11402:11452   */\n      swap1\n      pop\n        /* \"--CODEGEN--\":11396:11457   */\n      swap2\n      swap1\n      pop\n      jump\t// out\n        /* \"--CODEGEN--\":11464:11585   */\n    tag_281:\n      0x00\n        /* \"--CODEGEN--\":11543:11580   */\n      tag_283\n        /* \"--CODEGEN--\":11574:11579   */\n      dup3\n        /* \"--CODEGEN--\":11543:11580   */\n      tag_284\n      jump\t// in\n    tag_283:\n        /* \"--CODEGEN--\":11530:11580   */\n      swap1\n      pop\n        /* \"--CODEGEN--\":11524:11585   */\n      swap2\n      swap1\n      pop\n      jump\t// out\n        /* \"--CODEGEN--\":11592:11700   */\n    tag_284:\n      0x00\n        /* \"--CODEGEN--\":11671:11695   */\n      tag_286\n        /* \"--CODEGEN--\":11689:11694   */\n      dup3\n        /* \"--CODEGEN--\":11671:11695   */\n      tag_272\n      jump\t// in\n    tag_286:\n        /* \"--CODEGEN--\":11658:11695   */\n      swap1\n      pop\n        /* \"--CODEGEN--\":11652:11700   */\n      swap2\n      swap1\n      pop\n      jump\t// out\n        /* \"--CODEGEN--\":11707:11810   */\n    tag_185:\n      0x00\n        /* \"--CODEGEN--\":11779:11805   */\n      tag_288\n        /* \"--CODEGEN--\":11799:11804   */\n      dup3\n        /* \"--CODEGEN--\":11779:11805   */\n      tag_289\n      jump\t// in\n    tag_288:\n        /* \"--CODEGEN--\":11768:11805   */\n      swap1\n      pop\n        /* \"--CODEGEN--\":11762:11810   */\n      swap2\n      swap1\n      pop\n      jump\t// out\n        /* \"--CODEGEN--\":11817:11906   */\n    tag_289:\n      0x00\n        /* \"--CODEGEN--\":11881:11901   */\n      tag_291\n        /* \"--CODEGEN--\":11895:11900   */\n      dup3\n        /* \"--CODEGEN--\":11881:11901   */\n      tag_292\n      jump\t// in\n    tag_291:\n        /* \"--CODEGEN--\":11870:11901   */\n      swap1\n      pop\n        /* \"--CODEGEN--\":11864:11906   */\n      swap2\n      swap1\n      pop\n      jump\t// out\n        /* \"--CODEGEN--\":11913:11987   */\n    tag_230:\n      0x00\n        /* \"--CODEGEN--\":11977:11982   */\n      dup2\n        /* \"--CODEGEN--\":11966:11982   */\n      swap1\n      pop\n        /* \"--CODEGEN--\":11960:11987   */\n      swap2\n      swap1\n      pop\n      jump\t// out\n        /* \"--CODEGEN--\":11994:12088   */\n    tag_292:\n      0x00\n        /* \"--CODEGEN--\":12072:12077   */\n      dup2\n        /* \"--CODEGEN--\":12068:12070   */\n      0x60\n        /* \"--CODEGEN--\":12064:12078   */\n      shl\n        /* \"--CODEGEN--\":12042:12078   */\n      swap1\n      pop\n        /* \"--CODEGEN--\":12036:12088   */\n      swap2\n      swap1\n      pop\n      jump\t// out\n        /* \"--CODEGEN--\":12096:12207   */\n    tag_155:\n        /* \"--CODEGEN--\":12162:12183   */\n      tag_296\n        /* \"--CODEGEN--\":12177:12182   */\n      dup2\n        /* \"--CODEGEN--\":12162:12183   */\n      tag_275\n      jump\t// in\n    tag_296:\n        /* \"--CODEGEN--\":12155:12160   */\n      dup2\n        /* \"--CODEGEN--\":12152:12184   */\n      eq\n        /* \"--CODEGEN--\":12142:12144   */\n      tag_297\n      jumpi\n        /* \"--CODEGEN--\":12198:12199   */\n      0x00\n        /* \"--CODEGEN--\":12195:12196   */\n      dup1\n        /* \"--CODEGEN--\":12188:12200   */\n      revert\n        /* \"--CODEGEN--\":12142:12144   */\n    tag_297:\n        /* \"--CODEGEN--\":12136:12207   */\n      pop\n      jump\t// out\n        /* \"--CODEGEN--\":12214:12331   */\n    tag_159:\n        /* \"--CODEGEN--\":12283:12307   */\n      tag_299\n        /* \"--CODEGEN--\":12301:12306   */\n      dup2\n        /* \"--CODEGEN--\":12283:12307   */\n      tag_222\n      jump\t// in\n    tag_299:\n        /* \"--CODEGEN--\":12276:12281   */\n      dup2\n        /* \"--CODEGEN--\":12273:12308   */\n      eq\n        /* \"--CODEGEN--\":12263:12265   */\n      tag_300\n      jumpi\n        /* \"--CODEGEN--\":12322:12323   */\n      0x00\n        /* \"--CODEGEN--\":12319:12320   */\n      dup1\n        /* \"--CODEGEN--\":12312:12324   */\n      revert\n        /* \"--CODEGEN--\":12263:12265   */\n    tag_300:\n        /* \"--CODEGEN--\":12257:12331   */\n      pop\n      jump\t// out\n\n    auxdata: 0xa2646970667358221220a2e95fc82f3b7466d2c42191314345b75a6fbbc8276a36ac5556902d7bdc5e5464736f6c634300060c0033\n}\n\nsub_1: assembly {\n        /* \"Loteria/ERC20Loteria.sol\":1638:4335  contract ERC20Basic is IERC20 {\r... */\n      mstore(0x40, 0x80)\n        /* \"Loteria/ERC20Loteria.sol\":1982:2118  constructor (uint256 initialSupply) public {\r... */\n      callvalue\n      dup1\n      iszero\n      tag_1\n      jumpi\n      0x00\n      dup1\n      revert\n    tag_1:\n      pop\n      mload(0x40)\n      sub(codesize, bytecodeSize)\n      dup1\n      bytecodeSize\n      dup4\n      codecopy\n      dup2\n      dup2\n      add\n      0x40\n      mstore\n      dup2\n      add\n      swap1\n      tag_2\n      swap2\n      swap1\n      tag_3\n      jump\t// in\n    tag_2:\n        /* \"Loteria/ERC20Loteria.sol\":2051:2064  initialSupply */\n      dup1\n        /* \"Loteria/ERC20Loteria.sol\":2036:2048  totalSupply_ */\n      0x02\n        /* \"Loteria/ERC20Loteria.sol\":2036:2064  totalSupply_ = initialSupply */\n      dup2\n      swap1\n      sstore\n      pop\n        /* \"Loteria/ERC20Loteria.sol\":2098:2110  totalSupply_ */\n      sload(0x02)\n        /* \"Loteria/ERC20Loteria.sol\":2075:2083  balances */\n      0x00\n        /* \"Loteria/ERC20Loteria.sol\":2075:2095  balances[msg.sender] */\n      dup1\n        /* \"Loteria/ERC20Loteria.sol\":2084:2094  msg.sender */\n      caller\n        /* \"Loteria/ERC20Loteria.sol\":2075:2095  balances[msg.sender] */\n      0xffffffffffffffffffffffffffffffffffffffff\n      and\n      0xffffffffffffffffffffffffffffffffffffffff\n      and\n      dup2\n      mstore\n      0x20\n      add\n      swap1\n      dup2\n      mstore\n      0x20\n      add\n      0x00\n      keccak256\n        /* \"Loteria/ERC20Loteria.sol\":2075:2110  balances[msg.sender] = totalSupply_ */\n      dup2\n      swap1\n      sstore\n      pop\n        /* \"Loteria/ERC20Loteria.sol\":1982:2118  constructor (uint256 initialSupply) public {\r... */\n      pop\n        /* \"Loteria/ERC20Loteria.sol\":1638:4335  contract ERC20Basic is IERC20 {\r... */\n      jump(tag_6)\n        /* \"--CODEGEN--\":5:139   */\n    tag_8:\n      0x00\n        /* \"--CODEGEN--\":89:95   */\n      dup2\n        /* \"--CODEGEN--\":83:96   */\n      mload\n        /* \"--CODEGEN--\":74:96   */\n      swap1\n      pop\n        /* \"--CODEGEN--\":101:134   */\n      tag_10\n        /* \"--CODEGEN--\":128:133   */\n      dup2\n        /* \"--CODEGEN--\":101:134   */\n      tag_11\n      jump\t// in\n    tag_10:\n        /* \"--CODEGEN--\":68:139   */\n      swap3\n      swap2\n      pop\n      pop\n      jump\t// out\n        /* \"--CODEGEN--\":146:409   */\n    tag_3:\n      0x00\n        /* \"--CODEGEN--\":261:263   */\n      0x20\n        /* \"--CODEGEN--\":249:258   */\n      dup3\n        /* \"--CODEGEN--\":240:247   */\n      dup5\n        /* \"--CODEGEN--\":236:259   */\n      sub\n        /* \"--CODEGEN--\":232:264   */\n      slt\n        /* \"--CODEGEN--\":229:231   */\n      iszero\n      tag_13\n      jumpi\n        /* \"--CODEGEN--\":277:278   */\n      0x00\n        /* \"--CODEGEN--\":274:275   */\n      dup1\n        /* \"--CODEGEN--\":267:279   */\n      revert\n        /* \"--CODEGEN--\":229:231   */\n    tag_13:\n        /* \"--CODEGEN--\":312:313   */\n      0x00\n        /* \"--CODEGEN--\":329:393   */\n      tag_14\n        /* \"--CODEGEN--\":385:392   */\n      dup5\n        /* \"--CODEGEN--\":376:382   */\n      dup3\n        /* \"--CODEGEN--\":365:374   */\n      dup6\n        /* \"--CODEGEN--\":361:383   */\n      add\n        /* \"--CODEGEN--\":329:393   */\n      tag_8\n      jump\t// in\n    tag_14:\n        /* \"--CODEGEN--\":319:393   */\n      swap2\n      pop\n        /* \"--CODEGEN--\":291:399   */\n      pop\n        /* \"--CODEGEN--\":223:409   */\n      swap3\n      swap2\n      pop\n      pop\n      jump\t// out\n        /* \"--CODEGEN--\":416:488   */\n    tag_15:\n      0x00\n        /* \"--CODEGEN--\":478:483   */\n      dup2\n        /* \"--CODEGEN--\":467:483   */\n      swap1\n      pop\n        /* \"--CODEGEN--\":461:488   */\n      swap2\n      swap1\n      pop\n      jump\t// out\n        /* \"--CODEGEN--\":495:612   */\n    tag_11:\n        /* \"--CODEGEN--\":564:588   */\n      tag_18\n        /* \"--CODEGEN--\":582:587   */\n      dup2\n        /* \"--CODEGEN--\":564:588   */\n      tag_15\n      jump\t// in\n    tag_18:\n        /* \"--CODEGEN--\":557:562   */\n      dup2\n        /* \"--CODEGEN--\":554:589   */\n      eq\n        /* \"--CODEGEN--\":544:546   */\n      tag_19\n      jumpi\n        /* \"--CODEGEN--\":603:604   */\n      0x00\n        /* \"--CODEGEN--\":600:601   */\n      dup1\n        /* \"--CODEGEN--\":593:605   */\n      revert\n        /* \"--CODEGEN--\":544:546   */\n    tag_19:\n        /* \"--CODEGEN--\":538:612   */\n      pop\n      jump\t// out\n        /* \"Loteria/ERC20Loteria.sol\":1638:4335  contract ERC20Basic is IERC20 {\r... */\n    tag_6:\n      dataSize(sub_0)\n      dup1\n      dataOffset(sub_0)\n      0x00\n      codecopy\n      0x00\n      return\n    stop\n\n    sub_0: assembly {\n            /* \"Loteria/ERC20Loteria.sol\":1638:4335  contract ERC20Basic is IERC20 {\r... */\n          mstore(0x40, 0x80)\n          callvalue\n          dup1\n          iszero\n          tag_1\n          jumpi\n          0x00\n          dup1\n          revert\n        tag_1:\n          pop\n          jumpi(tag_2, lt(calldatasize, 0x04))\n          shr(0xe0, calldataload(0x00))\n          dup1\n          0x313ce567\n          gt\n          tag_14\n          jumpi\n          dup1\n          0x313ce567\n          eq\n          tag_8\n          jumpi\n          dup1\n          0x5c79febb\n          eq\n          tag_9\n          jumpi\n          dup1\n          0x70a08231\n          eq\n          tag_10\n          jumpi\n          dup1\n          0x95d89b41\n          eq\n          tag_11\n          jumpi\n          dup1\n          0xa9059cbb\n          eq\n          tag_12\n          jumpi\n          dup1\n          0xdd62ed3e\n          eq\n          tag_13\n          jumpi\n          jump(tag_2)\n        tag_14:\n          dup1\n          0x06fdde03\n          eq\n          tag_3\n          jumpi\n          dup1\n          0x095ea7b3\n          eq\n          tag_4\n          jumpi\n          dup1\n          0x18160ddd\n          eq\n          tag_5\n          jumpi\n          dup1\n          0x1d43cc98\n          eq\n          tag_6\n          jumpi\n          dup1\n          0x23b872dd\n          eq\n          tag_7\n          jumpi\n        tag_2:\n          0x00\n          dup1\n          revert\n            /* \"Loteria/ERC20Loteria.sol\":1712:1756  string public constant name = \"ERC20AKALugo\" */\n        tag_3:\n          tag_15\n          tag_16\n          jump\t// in\n        tag_15:\n          mload(0x40)\n          tag_17\n          swap2\n          swap1\n          tag_18\n          jump\t// in\n        tag_17:\n          mload(0x40)\n          dup1\n          swap2\n          sub\n          swap1\n          return\n            /* \"Loteria/ERC20Loteria.sol\":3602:3831  function approve(address spender, uint numTokens) public override returns(bool) {\r... */\n        tag_4:\n          tag_19\n          0x04\n          dup1\n          calldatasize\n          sub\n          dup2\n          add\n          swap1\n          tag_20\n          swap2\n          swap1\n          tag_21\n          jump\t// in\n        tag_20:\n          tag_22\n          jump\t// in\n        tag_19:\n          mload(0x40)\n          tag_23\n          swap2\n          swap1\n          tag_24\n          jump\t// in\n        tag_23:\n          mload(0x40)\n          dup1\n          swap2\n          sub\n          swap1\n          return\n            /* \"Loteria/ERC20Loteria.sol\":2291:2390  function totalSupply() public override view returns(uint256) {\r... */\n        tag_5:\n          tag_25\n          tag_26\n          jump\t// in\n        tag_25:\n          mload(0x40)\n          tag_27\n          swap2\n          swap1\n          tag_28\n          jump\t// in\n        tag_27:\n          mload(0x40)\n          dup1\n          swap2\n          sub\n          swap1\n          return\n            /* \"Loteria/ERC20Loteria.sol\":2398:2556  function increaseTotalSupply(uint newTokensAmount) public {\r... */\n        tag_6:\n          tag_29\n          0x04\n          dup1\n          calldatasize\n          sub\n          dup2\n          add\n          swap1\n          tag_30\n          swap2\n          swap1\n          tag_31\n          jump\t// in\n        tag_30:\n          tag_32\n          jump\t// in\n        tag_29:\n          stop\n            /* \"Loteria/ERC20Loteria.sol\":3839:4332  function transferFrom(address owner, address buyer, uint256 numTokens) public override returns(bool) {\r... */\n        tag_7:\n          tag_33\n          0x04\n          dup1\n          calldatasize\n          sub\n          dup2\n          add\n          swap1\n          tag_34\n          swap2\n          swap1\n          tag_35\n          jump\t// in\n        tag_34:\n          tag_36\n          jump\t// in\n        tag_33:\n          mload(0x40)\n          tag_37\n          swap2\n          swap1\n          tag_24\n          jump\t// in\n        tag_37:\n          mload(0x40)\n          dup1\n          swap2\n          sub\n          swap1\n          return\n            /* \"Loteria/ERC20Loteria.sol\":1807:1842  uint8 public constant decimals = 18 */\n        tag_8:\n          tag_38\n          tag_39\n          jump\t// in\n        tag_38:\n          mload(0x40)\n          tag_40\n          swap2\n          swap1\n          tag_41\n          jump\t// in\n        tag_40:\n          mload(0x40)\n          dup1\n          swap2\n          sub\n          swap1\n          return\n            /* \"Loteria/ERC20Loteria.sol\":3216:3594  function transferLoteria(address emiter, address recipient, uint256 numTokens) public override returns(bool) {\r... */\n        tag_9:\n          tag_42\n          0x04\n          dup1\n          calldatasize\n          sub\n          dup2\n          add\n          swap1\n          tag_43\n          swap2\n          swap1\n          tag_35\n          jump\t// in\n        tag_43:\n          tag_44\n          jump\t// in\n        tag_42:\n          mload(0x40)\n          tag_45\n          swap2\n          swap1\n          tag_24\n          jump\t// in\n        tag_45:\n          mload(0x40)\n          dup1\n          swap2\n          sub\n          swap1\n          return\n            /* \"Loteria/ERC20Loteria.sol\":2564:2682  function balanceOf(address account) public override view returns (uint256) {\r... */\n        tag_10:\n          tag_46\n          0x04\n          dup1\n          calldatasize\n          sub\n          dup2\n          add\n          swap1\n          tag_47\n          swap2\n          swap1\n          tag_48\n          jump\t// in\n        tag_47:\n          tag_49\n          jump\t// in\n        tag_46:\n          mload(0x40)\n          tag_50\n          swap2\n          swap1\n          tag_28\n          jump\t// in\n        tag_50:\n          mload(0x40)\n          dup1\n          swap2\n          sub\n          swap1\n          return\n            /* \"Loteria/ERC20Loteria.sol\":1763:1800  string public constant symbol = \"AKA\" */\n        tag_11:\n          tag_51\n          tag_52\n          jump\t// in\n        tag_51:\n          mload(0x40)\n          tag_53\n          swap2\n          swap1\n          tag_18\n          jump\t// in\n        tag_53:\n          mload(0x40)\n          dup1\n          swap2\n          sub\n          swap1\n          return\n            /* \"Loteria/ERC20Loteria.sol\":2837:3208  function transfer(address recipient, uint256 numTokens) public override returns(bool) {\r... */\n        tag_12:\n          tag_54\n          0x04\n          dup1\n          calldatasize\n          sub\n          dup2\n          add\n          swap1\n          tag_55\n          swap2\n          swap1\n          tag_21\n          jump\t// in\n        tag_55:\n          tag_56\n          jump\t// in\n        tag_54:\n          mload(0x40)\n          tag_57\n          swap2\n          swap1\n          tag_24\n          jump\t// in\n        tag_57:\n          mload(0x40)\n          dup1\n          swap2\n          sub\n          swap1\n          return\n            /* \"Loteria/ERC20Loteria.sol\":2690:2829  function allowance(address owner, address spender) public override view returns (uint256) {\r... */\n        tag_13:\n          tag_58\n          0x04\n          dup1\n          calldatasize\n          sub\n          dup2\n          add\n          swap1\n          tag_59\n          swap2\n          swap1\n          tag_60\n          jump\t// in\n        tag_59:\n          tag_61\n          jump\t// in\n        tag_58:\n          mload(0x40)\n          tag_62\n          swap2\n          swap1\n          tag_28\n          jump\t// in\n        tag_62:\n          mload(0x40)\n          dup1\n          swap2\n          sub\n          swap1\n          return\n            /* \"Loteria/ERC20Loteria.sol\":1712:1756  string public constant name = \"ERC20AKALugo\" */\n        tag_16:\n          mload(0x40)\n          dup1\n          0x40\n          add\n          0x40\n          mstore\n          dup1\n          0x0c\n          dup2\n          mstore\n          0x20\n          add\n          0x4552433230414b414c75676f0000000000000000000000000000000000000000\n          dup2\n          mstore\n          pop\n          dup2\n          jump\t// out\n            /* \"Loteria/ERC20Loteria.sol\":3602:3831  function approve(address spender, uint numTokens) public override returns(bool) {\r... */\n        tag_22:\n            /* \"Loteria/ERC20Loteria.sol\":3676:3680  bool */\n          0x00\n            /* \"Loteria/ERC20Loteria.sol\":3734:3743  numTokens */\n          dup2\n            /* \"Loteria/ERC20Loteria.sol\":3703:3710  allowed */\n          0x01\n            /* \"Loteria/ERC20Loteria.sol\":3703:3722  allowed[msg.sender] */\n          0x00\n            /* \"Loteria/ERC20Loteria.sol\":3711:3721  msg.sender */\n          caller\n            /* \"Loteria/ERC20Loteria.sol\":3703:3722  allowed[msg.sender] */\n          0xffffffffffffffffffffffffffffffffffffffff\n          and\n          0xffffffffffffffffffffffffffffffffffffffff\n          and\n          dup2\n          mstore\n          0x20\n          add\n          swap1\n          dup2\n          mstore\n          0x20\n          add\n          0x00\n          keccak256\n            /* \"Loteria/ERC20Loteria.sol\":3703:3731  allowed[msg.sender][spender] */\n          0x00\n            /* \"Loteria/ERC20Loteria.sol\":3723:3730  spender */\n          dup6\n            /* \"Loteria/ERC20Loteria.sol\":3703:3731  allowed[msg.sender][spender] */\n          0xffffffffffffffffffffffffffffffffffffffff\n          and\n          0xffffffffffffffffffffffffffffffffffffffff\n          and\n          dup2\n          mstore\n          0x20\n          add\n          swap1\n          dup2\n          mstore\n          0x20\n          add\n          0x00\n          keccak256\n            /* \"Loteria/ERC20Loteria.sol\":3703:3743  allowed[msg.sender][spender] = numTokens */\n          dup2\n          swap1\n          sstore\n          pop\n            /* \"Loteria/ERC20Loteria.sol\":3780:3787  spender */\n          dup3\n            /* \"Loteria/ERC20Loteria.sol\":3759:3799  Approval(msg.sender, spender, numTokens) */\n          0xffffffffffffffffffffffffffffffffffffffff\n          and\n            /* \"Loteria/ERC20Loteria.sol\":3768:3778  msg.sender */\n          caller\n            /* \"Loteria/ERC20Loteria.sol\":3759:3799  Approval(msg.sender, spender, numTokens) */\n          0xffffffffffffffffffffffffffffffffffffffff\n          and\n          0x8c5be1e5ebec7d5bd14f71427d1e84f3dd0314c0f7b2291e5b200ac8c7c3b925\n            /* \"Loteria/ERC20Loteria.sol\":3789:3798  numTokens */\n          dup5\n            /* \"Loteria/ERC20Loteria.sol\":3759:3799  Approval(msg.sender, spender, numTokens) */\n          mload(0x40)\n          tag_64\n          swap2\n          swap1\n          tag_28\n          jump\t// in\n        tag_64:\n          mload(0x40)\n          dup1\n          swap2\n          sub\n          swap1\n          log3\n            /* \"Loteria/ERC20Loteria.sol\":3819:3823  true */\n          0x01\n            /* \"Loteria/ERC20Loteria.sol\":3812:3823  return true */\n          swap1\n          pop\n            /* \"Loteria/ERC20Loteria.sol\":3602:3831  function approve(address spender, uint numTokens) public override returns(bool) {\r... */\n          swap3\n          swap2\n          pop\n          pop\n          jump\t// out\n            /* \"Loteria/ERC20Loteria.sol\":2291:2390  function totalSupply() public override view returns(uint256) {\r... */\n        tag_26:\n            /* \"Loteria/ERC20Loteria.sol\":2343:2350  uint256 */\n          0x00\n            /* \"Loteria/ERC20Loteria.sol\":2370:2382  totalSupply_ */\n          sload(0x02)\n            /* \"Loteria/ERC20Loteria.sol\":2363:2382  return totalSupply_ */\n          swap1\n          pop\n            /* \"Loteria/ERC20Loteria.sol\":2291:2390  function totalSupply() public override view returns(uint256) {\r... */\n          swap1\n          jump\t// out\n            /* \"Loteria/ERC20Loteria.sol\":2398:2556  function increaseTotalSupply(uint newTokensAmount) public {\r... */\n        tag_32:\n            /* \"Loteria/ERC20Loteria.sol\":2483:2498  newTokensAmount */\n          dup1\n            /* \"Loteria/ERC20Loteria.sol\":2467:2479  totalSupply_ */\n          0x02\n          0x00\n            /* \"Loteria/ERC20Loteria.sol\":2467:2498  totalSupply_ += newTokensAmount */\n          dup3\n          dup3\n          sload\n          add\n          swap3\n          pop\n          pop\n          dup2\n          swap1\n          sstore\n          pop\n            /* \"Loteria/ERC20Loteria.sol\":2533:2548  newTokensAmount */\n          dup1\n            /* \"Loteria/ERC20Loteria.sol\":2509:2517  balances */\n          0x00\n            /* \"Loteria/ERC20Loteria.sol\":2509:2529  balances[msg.sender] */\n          dup1\n            /* \"Loteria/ERC20Loteria.sol\":2518:2528  msg.sender */\n          caller\n            /* \"Loteria/ERC20Loteria.sol\":2509:2529  balances[msg.sender] */\n          0xffffffffffffffffffffffffffffffffffffffff\n          and\n          0xffffffffffffffffffffffffffffffffffffffff\n          and\n          dup2\n          mstore\n          0x20\n          add\n          swap1\n          dup2\n          mstore\n          0x20\n          add\n          0x00\n          keccak256\n          0x00\n            /* \"Loteria/ERC20Loteria.sol\":2509:2548  balances[msg.sender] += newTokensAmount */\n          dup3\n          dup3\n          sload\n          add\n          swap3\n          pop\n          pop\n          dup2\n          swap1\n          sstore\n          pop\n            /* \"Loteria/ERC20Loteria.sol\":2398:2556  function increaseTotalSupply(uint newTokensAmount) public {\r... */\n          pop\n          jump\t// out\n            /* \"Loteria/ERC20Loteria.sol\":3839:4332  function transferFrom(address owner, address buyer, uint256 numTokens) public override returns(bool) {\r... */\n        tag_36:\n            /* \"Loteria/ERC20Loteria.sol\":3934:3938  bool */\n          0x00\n            /* \"Loteria/ERC20Loteria.sol\":3979:3988  numTokens */\n          dup2\n            /* \"Loteria/ERC20Loteria.sol\":3960:3968  balances */\n          0x00\n            /* \"Loteria/ERC20Loteria.sol\":3960:3975  balances[owner] */\n          dup1\n            /* \"Loteria/ERC20Loteria.sol\":3969:3974  owner */\n          dup7\n            /* \"Loteria/ERC20Loteria.sol\":3960:3975  balances[owner] */\n          0xffffffffffffffffffffffffffffffffffffffff\n          and\n          0xffffffffffffffffffffffffffffffffffffffff\n          and\n          dup2\n          mstore\n          0x20\n          add\n          swap1\n          dup2\n          mstore\n          0x20\n          add\n          0x00\n          keccak256\n          sload\n            /* \"Loteria/ERC20Loteria.sol\":3960:3988  balances[owner] >= numTokens */\n          lt\n          iszero\n            /* \"Loteria/ERC20Loteria.sol\":3951:3989  require (balances[owner] >= numTokens) */\n          tag_68\n          jumpi\n          0x00\n          dup1\n          revert\n        tag_68:\n            /* \"Loteria/ERC20Loteria.sol\":4039:4048  numTokens */\n          dup2\n            /* \"Loteria/ERC20Loteria.sol\":4009:4016  allowed */\n          0x01\n            /* \"Loteria/ERC20Loteria.sol\":4009:4023  allowed[owner] */\n          0x00\n            /* \"Loteria/ERC20Loteria.sol\":4017:4022  owner */\n          dup7\n            /* \"Loteria/ERC20Loteria.sol\":4009:4023  allowed[owner] */\n          0xffffffffffffffffffffffffffffffffffffffff\n          and\n          0xffffffffffffffffffffffffffffffffffffffff\n          and\n          dup2\n          mstore\n          0x20\n          add\n          swap1\n          dup2\n          mstore\n          0x20\n          add\n          0x00\n          keccak256\n            /* \"Loteria/ERC20Loteria.sol\":4009:4035  allowed[owner][msg.sender] */\n          0x00\n            /* \"Loteria/ERC20Loteria.sol\":4024:4034  msg.sender */\n          caller\n            /* \"Loteria/ERC20Loteria.sol\":4009:4035  allowed[owner][msg.sender] */\n          0xffffffffffffffffffffffffffffffffffffffff\n          and\n          0xffffffffffffffffffffffffffffffffffffffff\n          and\n          dup2\n          mstore\n          0x20\n          add\n          swap1\n          dup2\n          mstore\n          0x20\n          add\n          0x00\n          keccak256\n          sload\n            /* \"Loteria/ERC20Loteria.sol\":4009:4048  allowed[owner][msg.sender] >= numTokens */\n          lt\n          iszero\n            /* \"Loteria/ERC20Loteria.sol\":4000:4049  require (allowed[owner][msg.sender] >= numTokens) */\n          tag_69\n          jumpi\n          0x00\n          dup1\n          revert\n        tag_69:\n            /* \"Loteria/ERC20Loteria.sol\":4080:4110  balances[owner].sub(numTokens) */\n          tag_70\n            /* \"Loteria/ERC20Loteria.sol\":4100:4109  numTokens */\n          dup3\n            /* \"Loteria/ERC20Loteria.sol\":4080:4088  balances */\n          0x00\n            /* \"Loteria/ERC20Loteria.sol\":4080:4095  balances[owner] */\n          dup1\n            /* \"Loteria/ERC20Loteria.sol\":4089:4094  owner */\n          dup8\n            /* \"Loteria/ERC20Loteria.sol\":4080:4095  balances[owner] */\n          0xffffffffffffffffffffffffffffffffffffffff\n          and\n          0xffffffffffffffffffffffffffffffffffffffff\n          and\n          dup2\n          mstore\n          0x20\n          add\n          swap1\n          dup2\n          mstore\n          0x20\n          add\n          0x00\n          keccak256\n          sload\n            /* \"Loteria/ERC20Loteria.sol\":4080:4099  balances[owner].sub */\n          tag_71\n          swap1\n            /* \"Loteria/ERC20Loteria.sol\":4080:4110  balances[owner].sub(numTokens) */\n          swap2\n          swap1\n          0xffffffff\n          and\n          jump\t// in\n        tag_70:\n            /* \"Loteria/ERC20Loteria.sol\":4062:4070  balances */\n          0x00\n            /* \"Loteria/ERC20Loteria.sol\":4062:4077  balances[owner] */\n          dup1\n            /* \"Loteria/ERC20Loteria.sol\":4071:4076  owner */\n          dup7\n            /* \"Loteria/ERC20Loteria.sol\":4062:4077  balances[owner] */\n          0xffffffffffffffffffffffffffffffffffffffff\n          and\n          0xffffffffffffffffffffffffffffffffffffffff\n          and\n          dup2\n          mstore\n          0x20\n          add\n          swap1\n          dup2\n          mstore\n          0x20\n          add\n          0x00\n          keccak256\n            /* \"Loteria/ERC20Loteria.sol\":4062:4110  balances[owner] = balances[owner].sub(numTokens) */\n          dup2\n          swap1\n          sstore\n          pop\n            /* \"Loteria/ERC20Loteria.sol\":4150:4191  allowed[owner][msg.sender].sub(numTokens) */\n          tag_72\n            /* \"Loteria/ERC20Loteria.sol\":4181:4190  numTokens */\n          dup3\n            /* \"Loteria/ERC20Loteria.sol\":4150:4157  allowed */\n          0x01\n            /* \"Loteria/ERC20Loteria.sol\":4150:4164  allowed[owner] */\n          0x00\n            /* \"Loteria/ERC20Loteria.sol\":4158:4163  owner */\n          dup8\n            /* \"Loteria/ERC20Loteria.sol\":4150:4164  allowed[owner] */\n          0xffffffffffffffffffffffffffffffffffffffff\n          and\n          0xffffffffffffffffffffffffffffffffffffffff\n          and\n          dup2\n          mstore\n          0x20\n          add\n          swap1\n          dup2\n          mstore\n          0x20\n          add\n          0x00\n          keccak256\n            /* \"Loteria/ERC20Loteria.sol\":4150:4176  allowed[owner][msg.sender] */\n          0x00\n            /* \"Loteria/ERC20Loteria.sol\":4165:4175  msg.sender */\n          caller\n            /* \"Loteria/ERC20Loteria.sol\":4150:4176  allowed[owner][msg.sender] */\n          0xffffffffffffffffffffffffffffffffffffffff\n          and\n          0xffffffffffffffffffffffffffffffffffffffff\n          and\n          dup2\n          mstore\n          0x20\n          add\n          swap1\n          dup2\n          mstore\n          0x20\n          add\n          0x00\n          keccak256\n          sload\n            /* \"Loteria/ERC20Loteria.sol\":4150:4180  allowed[owner][msg.sender].sub */\n          tag_71\n          swap1\n            /* \"Loteria/ERC20Loteria.sol\":4150:4191  allowed[owner][msg.sender].sub(numTokens) */\n          swap2\n          swap1\n          0xffffffff\n          and\n          jump\t// in\n        tag_72:\n            /* \"Loteria/ERC20Loteria.sol\":4121:4128  allowed */\n          0x01\n            /* \"Loteria/ERC20Loteria.sol\":4121:4135  allowed[owner] */\n          0x00\n            /* \"Loteria/ERC20Loteria.sol\":4129:4134  owner */\n          dup7\n            /* \"Loteria/ERC20Loteria.sol\":4121:4135  allowed[owner] */\n          0xffffffffffffffffffffffffffffffffffffffff\n          and\n          0xffffffffffffffffffffffffffffffffffffffff\n          and\n          dup2\n          mstore\n          0x20\n          add\n          swap1\n          dup2\n          mstore\n          0x20\n          add\n          0x00\n          keccak256\n            /* \"Loteria/ERC20Loteria.sol\":4121:4147  allowed[owner][msg.sender] */\n          0x00\n            /* \"Loteria/ERC20Loteria.sol\":4136:4146  msg.sender */\n          caller\n            /* \"Loteria/ERC20Loteria.sol\":4121:4147  allowed[owner][msg.sender] */\n          0xffffffffffffffffffffffffffffffffffffffff\n          and\n          0xffffffffffffffffffffffffffffffffffffffff\n          and\n          dup2\n          mstore\n          0x20\n          add\n          swap1\n          dup2\n          mstore\n          0x20\n          add\n          0x00\n          keccak256\n            /* \"Loteria/ERC20Loteria.sol\":4121:4191  allowed[owner][msg.sender] = allowed[owner][msg.sender].sub(numTokens) */\n          dup2\n          swap1\n          sstore\n          pop\n            /* \"Loteria/ERC20Loteria.sol\":4220:4250  balances[buyer].add(numTokens) */\n          tag_73\n            /* \"Loteria/ERC20Loteria.sol\":4240:4249  numTokens */\n          dup3\n            /* \"Loteria/ERC20Loteria.sol\":4220:4228  balances */\n          0x00\n            /* \"Loteria/ERC20Loteria.sol\":4220:4235  balances[buyer] */\n          dup1\n            /* \"Loteria/ERC20Loteria.sol\":4229:4234  buyer */\n          dup7\n            /* \"Loteria/ERC20Loteria.sol\":4220:4235  balances[buyer] */\n          0xffffffffffffffffffffffffffffffffffffffff\n          and\n          0xffffffffffffffffffffffffffffffffffffffff\n          and\n          dup2\n          mstore\n          0x20\n          add\n          swap1\n          dup2\n          mstore\n          0x20\n          add\n          0x00\n          keccak256\n          sload\n            /* \"Loteria/ERC20Loteria.sol\":4220:4239  balances[buyer].add */\n          tag_74\n          swap1\n            /* \"Loteria/ERC20Loteria.sol\":4220:4250  balances[buyer].add(numTokens) */\n          swap2\n          swap1\n          0xffffffff\n          and\n          jump\t// in\n        tag_73:\n            /* \"Loteria/ERC20Loteria.sol\":4202:4210  balances */\n          0x00\n            /* \"Loteria/ERC20Loteria.sol\":4202:4217  balances[buyer] */\n          dup1\n            /* \"Loteria/ERC20Loteria.sol\":4211:4216  buyer */\n          dup6\n            /* \"Loteria/ERC20Loteria.sol\":4202:4217  balances[buyer] */\n          0xffffffffffffffffffffffffffffffffffffffff\n          and\n          0xffffffffffffffffffffffffffffffffffffffff\n          and\n          dup2\n          mstore\n          0x20\n          add\n          swap1\n          dup2\n          mstore\n          0x20\n          add\n          0x00\n          keccak256\n            /* \"Loteria/ERC20Loteria.sol\":4202:4250  balances[buyer] = balances[buyer].add(numTokens) */\n          dup2\n          swap1\n          sstore\n          pop\n            /* \"Loteria/ERC20Loteria.sol\":4284:4289  buyer */\n          dup3\n            /* \"Loteria/ERC20Loteria.sol\":4268:4301  Transfer(owner, buyer, numTokens) */\n          0xffffffffffffffffffffffffffffffffffffffff\n          and\n            /* \"Loteria/ERC20Loteria.sol\":4277:4282  owner */\n          dup5\n            /* \"Loteria/ERC20Loteria.sol\":4268:4301  Transfer(owner, buyer, numTokens) */\n          0xffffffffffffffffffffffffffffffffffffffff\n          and\n          0xddf252ad1be2c89b69c2b068fc378daa952ba7f163c4a11628f55a4df523b3ef\n            /* \"Loteria/ERC20Loteria.sol\":4291:4300  numTokens */\n          dup5\n            /* \"Loteria/ERC20Loteria.sol\":4268:4301  Transfer(owner, buyer, numTokens) */\n          mload(0x40)\n          tag_75\n          swap2\n          swap1\n          tag_28\n          jump\t// in\n        tag_75:\n          mload(0x40)\n          dup1\n          swap2\n          sub\n          swap1\n          log3\n            /* \"Loteria/ERC20Loteria.sol\":4320:4324  true */\n          0x01\n            /* \"Loteria/ERC20Loteria.sol\":4313:4324  return true */\n          swap1\n          pop\n            /* \"Loteria/ERC20Loteria.sol\":3839:4332  function transferFrom(address owner, address buyer, uint256 numTokens) public override returns(bool) {\r... */\n          swap4\n          swap3\n          pop\n          pop\n          pop\n          jump\t// out\n            /* \"Loteria/ERC20Loteria.sol\":1807:1842  uint8 public constant decimals = 18 */\n        tag_39:\n            /* \"Loteria/ERC20Loteria.sol\":1840:1842  18 */\n          0x12\n            /* \"Loteria/ERC20Loteria.sol\":1807:1842  uint8 public constant decimals = 18 */\n          dup2\n          jump\t// out\n            /* \"Loteria/ERC20Loteria.sol\":3216:3594  function transferLoteria(address emiter, address recipient, uint256 numTokens) public override returns(bool) {\r... */\n        tag_44:\n            /* \"Loteria/ERC20Loteria.sol\":3319:3323  bool */\n          0x00\n            /* \"Loteria/ERC20Loteria.sol\":3358:3366  balances */\n          dup1\n            /* \"Loteria/ERC20Loteria.sol\":3358:3374  balances[emiter] */\n          0x00\n            /* \"Loteria/ERC20Loteria.sol\":3367:3373  emiter */\n          dup6\n            /* \"Loteria/ERC20Loteria.sol\":3358:3374  balances[emiter] */\n          0xffffffffffffffffffffffffffffffffffffffff\n          and\n          0xffffffffffffffffffffffffffffffffffffffff\n          and\n          dup2\n          mstore\n          0x20\n          add\n          swap1\n          dup2\n          mstore\n          0x20\n          add\n          0x00\n          keccak256\n          sload\n            /* \"Loteria/ERC20Loteria.sol\":3345:3354  numTokens */\n          dup3\n            /* \"Loteria/ERC20Loteria.sol\":3345:3374  numTokens <= balances[emiter] */\n          gt\n          iszero\n            /* \"Loteria/ERC20Loteria.sol\":3336:3375  require (numTokens <= balances[emiter]) */\n          tag_77\n          jumpi\n          0x00\n          dup1\n          revert\n        tag_77:\n            /* \"Loteria/ERC20Loteria.sol\":3407:3438  balances[emiter].sub(numTokens) */\n          tag_78\n            /* \"Loteria/ERC20Loteria.sol\":3428:3437  numTokens */\n          dup3\n            /* \"Loteria/ERC20Loteria.sol\":3407:3415  balances */\n          0x00\n            /* \"Loteria/ERC20Loteria.sol\":3407:3423  balances[emiter] */\n          dup1\n            /* \"Loteria/ERC20Loteria.sol\":3416:3422  emiter */\n          dup8\n            /* \"Loteria/ERC20Loteria.sol\":3407:3423  balances[emiter] */\n          0xffffffffffffffffffffffffffffffffffffffff\n          and\n          0xffffffffffffffffffffffffffffffffffffffff\n          and\n          dup2\n          mstore\n          0x20\n          add\n          swap1\n          dup2\n          mstore\n          0x20\n          add\n          0x00\n          keccak256\n          sload\n            /* \"Loteria/ERC20Loteria.sol\":3407:3427  balances[emiter].sub */\n          tag_71\n          swap1\n            /* \"Loteria/ERC20Loteria.sol\":3407:3438  balances[emiter].sub(numTokens) */\n          swap2\n          swap1\n          0xffffffff\n          and\n          jump\t// in\n        tag_78:\n            /* \"Loteria/ERC20Loteria.sol\":3388:3396  balances */\n          0x00\n            /* \"Loteria/ERC20Loteria.sol\":3388:3404  balances[emiter] */\n          dup1\n            /* \"Loteria/ERC20Loteria.sol\":3397:3403  emiter */\n          dup7\n            /* \"Loteria/ERC20Loteria.sol\":3388:3404  balances[emiter] */\n          0xffffffffffffffffffffffffffffffffffffffff\n          and\n          0xffffffffffffffffffffffffffffffffffffffff\n          and\n          dup2\n          mstore\n          0x20\n          add\n          swap1\n          dup2\n          mstore\n          0x20\n          add\n          0x00\n          keccak256\n            /* \"Loteria/ERC20Loteria.sol\":3388:3438  balances[emiter] = balances[emiter].sub(numTokens) */\n          dup2\n          swap1\n          sstore\n          pop\n            /* \"Loteria/ERC20Loteria.sol\":3472:3506  balances[recipient].add(numTokens) */\n          tag_79\n            /* \"Loteria/ERC20Loteria.sol\":3496:3505  numTokens */\n          dup3\n            /* \"Loteria/ERC20Loteria.sol\":3472:3480  balances */\n          0x00\n            /* \"Loteria/ERC20Loteria.sol\":3472:3491  balances[recipient] */\n          dup1\n            /* \"Loteria/ERC20Loteria.sol\":3481:3490  recipient */\n          dup7\n            /* \"Loteria/ERC20Loteria.sol\":3472:3491  balances[recipient] */\n          0xffffffffffffffffffffffffffffffffffffffff\n          and\n          0xffffffffffffffffffffffffffffffffffffffff\n          and\n          dup2\n          mstore\n          0x20\n          add\n          swap1\n          dup2\n          mstore\n          0x20\n          add\n          0x00\n          keccak256\n          sload\n            /* \"Loteria/ERC20Loteria.sol\":3472:3495  balances[recipient].add */\n          tag_74\n          swap1\n            /* \"Loteria/ERC20Loteria.sol\":3472:3506  balances[recipient].add(numTokens) */\n          swap2\n          swap1\n          0xffffffff\n          and\n          jump\t// in\n        tag_79:\n            /* \"Loteria/ERC20Loteria.sol\":3450:3458  balances */\n          0x00\n            /* \"Loteria/ERC20Loteria.sol\":3450:3469  balances[recipient] */\n          dup1\n            /* \"Loteria/ERC20Loteria.sol\":3459:3468  recipient */\n          dup6\n            /* \"Loteria/ERC20Loteria.sol\":3450:3469  balances[recipient] */\n          0xffffffffffffffffffffffffffffffffffffffff\n          and\n          0xffffffffffffffffffffffffffffffffffffffff\n          and\n          dup2\n          mstore\n          0x20\n          add\n          swap1\n          dup2\n          mstore\n          0x20\n          add\n          0x00\n          keccak256\n            /* \"Loteria/ERC20Loteria.sol\":3450:3506  balances[recipient] = balances[recipient].add(numTokens) */\n          dup2\n          swap1\n          sstore\n          pop\n            /* \"Loteria/ERC20Loteria.sol\":3541:3550  recipient */\n          dup3\n            /* \"Loteria/ERC20Loteria.sol\":3524:3562  Transfer(emiter, recipient, numTokens) */\n          0xffffffffffffffffffffffffffffffffffffffff\n          and\n            /* \"Loteria/ERC20Loteria.sol\":3533:3539  emiter */\n          dup5\n            /* \"Loteria/ERC20Loteria.sol\":3524:3562  Transfer(emiter, recipient, numTokens) */\n          0xffffffffffffffffffffffffffffffffffffffff\n          and\n          0xddf252ad1be2c89b69c2b068fc378daa952ba7f163c4a11628f55a4df523b3ef\n            /* \"Loteria/ERC20Loteria.sol\":3552:3561  numTokens */\n          dup5\n            /* \"Loteria/ERC20Loteria.sol\":3524:3562  Transfer(emiter, recipient, numTokens) */\n          mload(0x40)\n          tag_80\n          swap2\n          swap1\n          tag_28\n          jump\t// in\n        tag_80:\n          mload(0x40)\n          dup1\n          swap2\n          sub\n          swap1\n          log3\n            /* \"Loteria/ERC20Loteria.sol\":3582:3586  true */\n          0x01\n            /* \"Loteria/ERC20Loteria.sol\":3575:3586  return true */\n          swap1\n          pop\n            /* \"Loteria/ERC20Loteria.sol\":3216:3594  function transferLoteria(address emiter, address recipient, uint256 numTokens) public override returns(bool) {\r... */\n          swap4\n          swap3\n          pop\n          pop\n          pop\n          jump\t// out\n            /* \"Loteria/ERC20Loteria.sol\":2564:2682  function balanceOf(address account) public override view returns (uint256) {\r... */\n        tag_49:\n            /* \"Loteria/ERC20Loteria.sol\":2630:2637  uint256 */\n          0x00\n            /* \"Loteria/ERC20Loteria.sol\":2657:2665  balances */\n          dup1\n            /* \"Loteria/ERC20Loteria.sol\":2657:2674  balances[account] */\n          0x00\n            /* \"Loteria/ERC20Loteria.sol\":2666:2673  account */\n          dup4\n            /* \"Loteria/ERC20Loteria.sol\":2657:2674  balances[account] */\n          0xffffffffffffffffffffffffffffffffffffffff\n          and\n          0xffffffffffffffffffffffffffffffffffffffff\n          and\n          dup2\n          mstore\n          0x20\n          add\n          swap1\n          dup2\n          mstore\n          0x20\n          add\n          0x00\n          keccak256\n          sload\n            /* \"Loteria/ERC20Loteria.sol\":2650:2674  return balances[account] */\n          swap1\n          pop\n            /* \"Loteria/ERC20Loteria.sol\":2564:2682  function balanceOf(address account) public override view returns (uint256) {\r... */\n          swap2\n          swap1\n          pop\n          jump\t// out\n            /* \"Loteria/ERC20Loteria.sol\":1763:1800  string public constant symbol = \"AKA\" */\n        tag_52:\n          mload(0x40)\n          dup1\n          0x40\n          add\n          0x40\n          mstore\n          dup1\n          0x03\n          dup2\n          mstore\n          0x20\n          add\n          0x414b410000000000000000000000000000000000000000000000000000000000\n          dup2\n          mstore\n          pop\n          dup2\n          jump\t// out\n            /* \"Loteria/ERC20Loteria.sol\":2837:3208  function transfer(address recipient, uint256 numTokens) public override returns(bool) {\r... */\n        tag_56:\n            /* \"Loteria/ERC20Loteria.sol\":2917:2921  bool */\n          0x00\n            /* \"Loteria/ERC20Loteria.sol\":2956:2964  balances */\n          dup1\n            /* \"Loteria/ERC20Loteria.sol\":2956:2976  balances[msg.sender] */\n          0x00\n            /* \"Loteria/ERC20Loteria.sol\":2965:2975  msg.sender */\n          caller\n            /* \"Loteria/ERC20Loteria.sol\":2956:2976  balances[msg.sender] */\n          0xffffffffffffffffffffffffffffffffffffffff\n          and\n          0xffffffffffffffffffffffffffffffffffffffff\n          and\n          dup2\n          mstore\n          0x20\n          add\n          swap1\n          dup2\n          mstore\n          0x20\n          add\n          0x00\n          keccak256\n          sload\n            /* \"Loteria/ERC20Loteria.sol\":2943:2952  numTokens */\n          dup3\n            /* \"Loteria/ERC20Loteria.sol\":2943:2976  numTokens <= balances[msg.sender] */\n          gt\n          iszero\n            /* \"Loteria/ERC20Loteria.sol\":2934:2977  require (numTokens <= balances[msg.sender]) */\n          tag_83\n          jumpi\n          0x00\n          dup1\n          revert\n        tag_83:\n            /* \"Loteria/ERC20Loteria.sol\":3013:3048  balances[msg.sender].sub(numTokens) */\n          tag_84\n            /* \"Loteria/ERC20Loteria.sol\":3038:3047  numTokens */\n          dup3\n            /* \"Loteria/ERC20Loteria.sol\":3013:3021  balances */\n          0x00\n            /* \"Loteria/ERC20Loteria.sol\":3013:3033  balances[msg.sender] */\n          dup1\n            /* \"Loteria/ERC20Loteria.sol\":3022:3032  msg.sender */\n          caller\n            /* \"Loteria/ERC20Loteria.sol\":3013:3033  balances[msg.sender] */\n          0xffffffffffffffffffffffffffffffffffffffff\n          and\n          0xffffffffffffffffffffffffffffffffffffffff\n          and\n          dup2\n          mstore\n          0x20\n          add\n          swap1\n          dup2\n          mstore\n          0x20\n          add\n          0x00\n          keccak256\n          sload\n            /* \"Loteria/ERC20Loteria.sol\":3013:3037  balances[msg.sender].sub */\n          tag_71\n          swap1\n            /* \"Loteria/ERC20Loteria.sol\":3013:3048  balances[msg.sender].sub(numTokens) */\n          swap2\n          swap1\n          0xffffffff\n          and\n          jump\t// in\n        tag_84:\n            /* \"Loteria/ERC20Loteria.sol\":2990:2998  balances */\n          0x00\n            /* \"Loteria/ERC20Loteria.sol\":2990:3010  balances[msg.sender] */\n          dup1\n            /* \"Loteria/ERC20Loteria.sol\":2999:3009  msg.sender */\n          caller\n            /* \"Loteria/ERC20Loteria.sol\":2990:3010  balances[msg.sender] */\n          0xffffffffffffffffffffffffffffffffffffffff\n          and\n          0xffffffffffffffffffffffffffffffffffffffff\n          and\n          dup2\n          mstore\n          0x20\n          add\n          swap1\n          dup2\n          mstore\n          0x20\n          add\n          0x00\n          keccak256\n            /* \"Loteria/ERC20Loteria.sol\":2990:3048  balances[msg.sender] = balances[msg.sender].sub(numTokens) */\n          dup2\n          swap1\n          sstore\n          pop\n            /* \"Loteria/ERC20Loteria.sol\":3082:3116  balances[recipient].add(numTokens) */\n          tag_85\n            /* \"Loteria/ERC20Loteria.sol\":3106:3115  numTokens */\n          dup3\n            /* \"Loteria/ERC20Loteria.sol\":3082:3090  balances */\n          0x00\n            /* \"Loteria/ERC20Loteria.sol\":3082:3101  balances[recipient] */\n          dup1\n            /* \"Loteria/ERC20Loteria.sol\":3091:3100  recipient */\n          dup7\n            /* \"Loteria/ERC20Loteria.sol\":3082:3101  balances[recipient] */\n          0xffffffffffffffffffffffffffffffffffffffff\n          and\n          0xffffffffffffffffffffffffffffffffffffffff\n          and\n          dup2\n          mstore\n          0x20\n          add\n          swap1\n          dup2\n          mstore\n          0x20\n          add\n          0x00\n          keccak256\n          sload\n            /* \"Loteria/ERC20Loteria.sol\":3082:3105  balances[recipient].add */\n          tag_74\n          swap1\n            /* \"Loteria/ERC20Loteria.sol\":3082:3116  balances[recipient].add(numTokens) */\n          swap2\n          swap1\n          0xffffffff\n          and\n          jump\t// in\n        tag_85:\n            /* \"Loteria/ERC20Loteria.sol\":3060:3068  balances */\n          0x00\n            /* \"Loteria/ERC20Loteria.sol\":3060:3079  balances[recipient] */\n          dup1\n            /* \"Loteria/ERC20Loteria.sol\":3069:3078  recipient */\n          dup6\n            /* \"Loteria/ERC20Loteria.sol\":3060:3079  balances[recipient] */\n          0xffffffffffffffffffffffffffffffffffffffff\n          and\n          0xffffffffffffffffffffffffffffffffffffffff\n          and\n          dup2\n          mstore\n          0x20\n          add\n          swap1\n          dup2\n          mstore\n          0x20\n          add\n          0x00\n          keccak256\n            /* \"Loteria/ERC20Loteria.sol\":3060:3116  balances[recipient] = balances[recipient].add(numTokens) */\n          dup2\n          swap1\n          sstore\n          pop\n            /* \"Loteria/ERC20Loteria.sol\":3155:3164  recipient */\n          dup3\n            /* \"Loteria/ERC20Loteria.sol\":3134:3176  Transfer(msg.sender, recipient, numTokens) */\n          0xffffffffffffffffffffffffffffffffffffffff\n          and\n            /* \"Loteria/ERC20Loteria.sol\":3143:3153  msg.sender */\n          caller\n            /* \"Loteria/ERC20Loteria.sol\":3134:3176  Transfer(msg.sender, recipient, numTokens) */\n          0xffffffffffffffffffffffffffffffffffffffff\n          and\n          0xddf252ad1be2c89b69c2b068fc378daa952ba7f163c4a11628f55a4df523b3ef\n            /* \"Loteria/ERC20Loteria.sol\":3166:3175  numTokens */\n          dup5\n            /* \"Loteria/ERC20Loteria.sol\":3134:3176  Transfer(msg.sender, recipient, numTokens) */\n          mload(0x40)\n          tag_86\n          swap2\n          swap1\n          tag_28\n          jump\t// in\n        tag_86:\n          mload(0x40)\n          dup1\n          swap2\n          sub\n          swap1\n          log3\n            /* \"Loteria/ERC20Loteria.sol\":3196:3200  true */\n          0x01\n            /* \"Loteria/ERC20Loteria.sol\":3189:3200  return true */\n          swap1\n          pop\n            /* \"Loteria/ERC20Loteria.sol\":2837:3208  function transfer(address recipient, uint256 numTokens) public override returns(bool) {\r... */\n          swap3\n          swap2\n          pop\n          pop\n          jump\t// out\n            /* \"Loteria/ERC20Loteria.sol\":2690:2829  function allowance(address owner, address spender) public override view returns (uint256) {\r... */\n        tag_61:\n            /* \"Loteria/ERC20Loteria.sol\":2771:2778  uint256 */\n          0x00\n            /* \"Loteria/ERC20Loteria.sol\":2798:2805  allowed */\n          0x01\n            /* \"Loteria/ERC20Loteria.sol\":2798:2812  allowed[owner] */\n          0x00\n            /* \"Loteria/ERC20Loteria.sol\":2806:2811  owner */\n          dup5\n            /* \"Loteria/ERC20Loteria.sol\":2798:2812  allowed[owner] */\n          0xffffffffffffffffffffffffffffffffffffffff\n          and\n          0xffffffffffffffffffffffffffffffffffffffff\n          and\n          dup2\n          mstore\n          0x20\n          add\n          swap1\n          dup2\n          mstore\n          0x20\n          add\n          0x00\n          keccak256\n            /* \"Loteria/ERC20Loteria.sol\":2798:2821  allowed[owner][spender] */\n          0x00\n            /* \"Loteria/ERC20Loteria.sol\":2813:2820  spender */\n          dup4\n            /* \"Loteria/ERC20Loteria.sol\":2798:2821  allowed[owner][spender] */\n          0xffffffffffffffffffffffffffffffffffffffff\n          and\n          0xffffffffffffffffffffffffffffffffffffffff\n          and\n          dup2\n          mstore\n          0x20\n          add\n          swap1\n          dup2\n          mstore\n          0x20\n          add\n          0x00\n          keccak256\n          sload\n            /* \"Loteria/ERC20Loteria.sol\":2791:2821  return allowed[owner][spender] */\n          swap1\n          pop\n            /* \"Loteria/ERC20Loteria.sol\":2690:2829  function allowance(address owner, address spender) public override view returns (uint256) {\r... */\n          swap3\n          swap2\n          pop\n          pop\n          jump\t// out\n            /* \"Loteria/SafeMath.sol\":318:437  function sub(uint256 a, uint256 b) internal pure returns (uint256) {\r... */\n        tag_71:\n            /* \"Loteria/SafeMath.sol\":376:383  uint256 */\n          0x00\n            /* \"Loteria/SafeMath.sol\":406:407  a */\n          dup3\n            /* \"Loteria/SafeMath.sol\":401:402  b */\n          dup3\n            /* \"Loteria/SafeMath.sol\":401:407  b <= a */\n          gt\n          iszero\n            /* \"Loteria/SafeMath.sol\":394:408  assert(b <= a) */\n          tag_89\n          jumpi\n          invalid\n        tag_89:\n            /* \"Loteria/SafeMath.sol\":428:429  b */\n          dup2\n            /* \"Loteria/SafeMath.sol\":424:425  a */\n          dup4\n            /* \"Loteria/SafeMath.sol\":424:429  a - b */\n          sub\n            /* \"Loteria/SafeMath.sol\":417:429  return a - b */\n          swap1\n          pop\n            /* \"Loteria/SafeMath.sol\":318:437  function sub(uint256 a, uint256 b) internal pure returns (uint256) {\r... */\n          swap3\n          swap2\n          pop\n          pop\n          jump\t// out\n            /* \"Loteria/SafeMath.sol\":463:604  function add(uint256 a, uint256 b) internal pure returns (uint256) {\r... */\n        tag_74:\n            /* \"Loteria/SafeMath.sol\":521:528  uint256 */\n          0x00\n            /* \"Loteria/SafeMath.sol\":539:548  uint256 c */\n          dup1\n            /* \"Loteria/SafeMath.sol\":555:556  b */\n          dup3\n            /* \"Loteria/SafeMath.sol\":551:552  a */\n          dup5\n            /* \"Loteria/SafeMath.sol\":551:556  a + b */\n          add\n            /* \"Loteria/SafeMath.sol\":539:556  uint256 c = a + b */\n          swap1\n          pop\n            /* \"Loteria/SafeMath.sol\":577:578  a */\n          dup4\n            /* \"Loteria/SafeMath.sol\":572:573  c */\n          dup2\n            /* \"Loteria/SafeMath.sol\":572:578  c >= a */\n          lt\n          iszero\n            /* \"Loteria/SafeMath.sol\":565:579  assert(c >= a) */\n          tag_91\n          jumpi\n          invalid\n        tag_91:\n            /* \"Loteria/SafeMath.sol\":595:596  c */\n          dup1\n            /* \"Loteria/SafeMath.sol\":588:596  return c */\n          swap2\n          pop\n          pop\n            /* \"Loteria/SafeMath.sol\":463:604  function add(uint256 a, uint256 b) internal pure returns (uint256) {\r... */\n          swap3\n          swap2\n          pop\n          pop\n          jump\t// out\n            /* \"--CODEGEN--\":5:135   */\n        tag_93:\n          0x00\n            /* \"--CODEGEN--\":85:91   */\n          dup2\n            /* \"--CODEGEN--\":72:92   */\n          calldataload\n            /* \"--CODEGEN--\":63:92   */\n          swap1\n          pop\n            /* \"--CODEGEN--\":97:130   */\n          tag_95\n            /* \"--CODEGEN--\":124:129   */\n          dup2\n            /* \"--CODEGEN--\":97:130   */\n          tag_96\n          jump\t// in\n        tag_95:\n            /* \"--CODEGEN--\":57:135   */\n          swap3\n          swap2\n          pop\n          pop\n          jump\t// out\n            /* \"--CODEGEN--\":142:272   */\n        tag_97:\n          0x00\n            /* \"--CODEGEN--\":222:228   */\n          dup2\n            /* \"--CODEGEN--\":209:229   */\n          calldataload\n            /* \"--CODEGEN--\":200:229   */\n          swap1\n          pop\n            /* \"--CODEGEN--\":234:267   */\n          tag_99\n            /* \"--CODEGEN--\":261:266   */\n          dup2\n            /* \"--CODEGEN--\":234:267   */\n          tag_100\n          jump\t// in\n        tag_99:\n            /* \"--CODEGEN--\":194:272   */\n          swap3\n          swap2\n          pop\n          pop\n          jump\t// out\n            /* \"--CODEGEN--\":279:520   */\n        tag_48:\n          0x00\n            /* \"--CODEGEN--\":383:385   */\n          0x20\n            /* \"--CODEGEN--\":371:380   */\n          dup3\n            /* \"--CODEGEN--\":362:369   */\n          dup5\n            /* \"--CODEGEN--\":358:381   */\n          sub\n            /* \"--CODEGEN--\":354:386   */\n          slt\n            /* \"--CODEGEN--\":351:353   */\n          iszero\n          tag_102\n          jumpi\n            /* \"--CODEGEN--\":399:400   */\n          0x00\n            /* \"--CODEGEN--\":396:397   */\n          dup1\n            /* \"--CODEGEN--\":389:401   */\n          revert\n            /* \"--CODEGEN--\":351:353   */\n        tag_102:\n            /* \"--CODEGEN--\":434:435   */\n          0x00\n            /* \"--CODEGEN--\":451:504   */\n          tag_103\n            /* \"--CODEGEN--\":496:503   */\n          dup5\n            /* \"--CODEGEN--\":487:493   */\n          dup3\n            /* \"--CODEGEN--\":476:485   */\n          dup6\n            /* \"--CODEGEN--\":472:494   */\n          add\n            /* \"--CODEGEN--\":451:504   */\n          tag_93\n          jump\t// in\n        tag_103:\n            /* \"--CODEGEN--\":441:504   */\n          swap2\n          pop\n            /* \"--CODEGEN--\":413:510   */\n          pop\n            /* \"--CODEGEN--\":345:520   */\n          swap3\n          swap2\n          pop\n          pop\n          jump\t// out\n            /* \"--CODEGEN--\":527:893   */\n        tag_60:\n          0x00\n          dup1\n            /* \"--CODEGEN--\":648:650   */\n          0x40\n            /* \"--CODEGEN--\":636:645   */\n          dup4\n            /* \"--CODEGEN--\":627:634   */\n          dup6\n            /* \"--CODEGEN--\":623:646   */\n          sub\n            /* \"--CODEGEN--\":619:651   */\n          slt\n            /* \"--CODEGEN--\":616:618   */\n          iszero\n          tag_105\n          jumpi\n            /* \"--CODEGEN--\":664:665   */\n          0x00\n            /* \"--CODEGEN--\":661:662   */\n          dup1\n            /* \"--CODEGEN--\":654:666   */\n          revert\n            /* \"--CODEGEN--\":616:618   */\n        tag_105:\n            /* \"--CODEGEN--\":699:700   */\n          0x00\n            /* \"--CODEGEN--\":716:769   */\n          tag_106\n            /* \"--CODEGEN--\":761:768   */\n          dup6\n            /* \"--CODEGEN--\":752:758   */\n          dup3\n            /* \"--CODEGEN--\":741:750   */\n          dup7\n            /* \"--CODEGEN--\":737:759   */\n          add\n            /* \"--CODEGEN--\":716:769   */\n          tag_93\n          jump\t// in\n        tag_106:\n            /* \"--CODEGEN--\":706:769   */\n          swap3\n          pop\n            /* \"--CODEGEN--\":678:775   */\n          pop\n            /* \"--CODEGEN--\":806:808   */\n          0x20\n            /* \"--CODEGEN--\":824:877   */\n          tag_107\n            /* \"--CODEGEN--\":869:876   */\n          dup6\n            /* \"--CODEGEN--\":860:866   */\n          dup3\n            /* \"--CODEGEN--\":849:858   */\n          dup7\n            /* \"--CODEGEN--\":845:867   */\n          add\n            /* \"--CODEGEN--\":824:877   */\n          tag_93\n          jump\t// in\n        tag_107:\n            /* \"--CODEGEN--\":814:877   */\n          swap2\n          pop\n            /* \"--CODEGEN--\":785:883   */\n          pop\n            /* \"--CODEGEN--\":610:893   */\n          swap3\n          pop\n          swap3\n          swap1\n          pop\n          jump\t// out\n            /* \"--CODEGEN--\":900:1391   */\n        tag_35:\n          0x00\n          dup1\n          0x00\n            /* \"--CODEGEN--\":1038:1040   */\n          0x60\n            /* \"--CODEGEN--\":1026:1035   */\n          dup5\n            /* \"--CODEGEN--\":1017:1024   */\n          dup7\n            /* \"--CODEGEN--\":1013:1036   */\n          sub\n            /* \"--CODEGEN--\":1009:1041   */\n          slt\n            /* \"--CODEGEN--\":1006:1008   */\n          iszero\n          tag_109\n          jumpi\n            /* \"--CODEGEN--\":1054:1055   */\n          0x00\n            /* \"--CODEGEN--\":1051:1052   */\n          dup1\n            /* \"--CODEGEN--\":1044:1056   */\n          revert\n            /* \"--CODEGEN--\":1006:1008   */\n        tag_109:\n            /* \"--CODEGEN--\":1089:1090   */\n          0x00\n            /* \"--CODEGEN--\":1106:1159   */\n          tag_110\n            /* \"--CODEGEN--\":1151:1158   */\n          dup7\n            /* \"--CODEGEN--\":1142:1148   */\n          dup3\n            /* \"--CODEGEN--\":1131:1140   */\n          dup8\n            /* \"--CODEGEN--\":1127:1149   */\n          add\n            /* \"--CODEGEN--\":1106:1159   */\n          tag_93\n          jump\t// in\n        tag_110:\n            /* \"--CODEGEN--\":1096:1159   */\n          swap4\n          pop\n            /* \"--CODEGEN--\":1068:1165   */\n          pop\n            /* \"--CODEGEN--\":1196:1198   */\n          0x20\n            /* \"--CODEGEN--\":1214:1267   */\n          tag_111\n            /* \"--CODEGEN--\":1259:1266   */\n          dup7\n            /* \"--CODEGEN--\":1250:1256   */\n          dup3\n            /* \"--CODEGEN--\":1239:1248   */\n          dup8\n            /* \"--CODEGEN--\":1235:1257   */\n          add\n            /* \"--CODEGEN--\":1214:1267   */\n          tag_93\n          jump\t// in\n        tag_111:\n            /* \"--CODEGEN--\":1204:1267   */\n          swap3\n          pop\n            /* \"--CODEGEN--\":1175:1273   */\n          pop\n            /* \"--CODEGEN--\":1304:1306   */\n          0x40\n            /* \"--CODEGEN--\":1322:1375   */\n          tag_112\n            /* \"--CODEGEN--\":1367:1374   */\n          dup7\n            /* \"--CODEGEN--\":1358:1364   */\n          dup3\n            /* \"--CODEGEN--\":1347:1356   */\n          dup8\n            /* \"--CODEGEN--\":1343:1365   */\n          add\n            /* \"--CODEGEN--\":1322:1375   */\n          tag_97\n          jump\t// in\n        tag_112:\n            /* \"--CODEGEN--\":1312:1375   */\n          swap2\n          pop\n            /* \"--CODEGEN--\":1283:1381   */\n          pop\n            /* \"--CODEGEN--\":1000:1391   */\n          swap3\n          pop\n          swap3\n          pop\n          swap3\n          jump\t// out\n            /* \"--CODEGEN--\":1398:1764   */\n        tag_21:\n          0x00\n          dup1\n            /* \"--CODEGEN--\":1519:1521   */\n          0x40\n            /* \"--CODEGEN--\":1507:1516   */\n          dup4\n            /* \"--CODEGEN--\":1498:1505   */\n          dup6\n            /* \"--CODEGEN--\":1494:1517   */\n          sub\n            /* \"--CODEGEN--\":1490:1522   */\n          slt\n            /* \"--CODEGEN--\":1487:1489   */\n          iszero\n          tag_114\n          jumpi\n            /* \"--CODEGEN--\":1535:1536   */\n          0x00\n            /* \"--CODEGEN--\":1532:1533   */\n          dup1\n            /* \"--CODEGEN--\":1525:1537   */\n          revert\n            /* \"--CODEGEN--\":1487:1489   */\n        tag_114:\n            /* \"--CODEGEN--\":1570:1571   */\n          0x00\n            /* \"--CODEGEN--\":1587:1640   */\n          tag_115\n            /* \"--CODEGEN--\":1632:1639   */\n          dup6\n            /* \"--CODEGEN--\":1623:1629   */\n          dup3\n            /* \"--CODEGEN--\":1612:1621   */\n          dup7\n            /* \"--CODEGEN--\":1608:1630   */\n          add\n            /* \"--CODEGEN--\":1587:1640   */\n          tag_93\n          jump\t// in\n        tag_115:\n            /* \"--CODEGEN--\":1577:1640   */\n          swap3\n          pop\n            /* \"--CODEGEN--\":1549:1646   */\n          pop\n            /* \"--CODEGEN--\":1677:1679   */\n          0x20\n            /* \"--CODEGEN--\":1695:1748   */\n          tag_116\n            /* \"--CODEGEN--\":1740:1747   */\n          dup6\n            /* \"--CODEGEN--\":1731:1737   */\n          dup3\n            /* \"--CODEGEN--\":1720:1729   */\n          dup7\n            /* \"--CODEGEN--\":1716:1738   */\n          add\n            /* \"--CODEGEN--\":1695:1748   */\n          tag_97\n          jump\t// in\n        tag_116:\n            /* \"--CODEGEN--\":1685:1748   */\n          swap2\n          pop\n            /* \"--CODEGEN--\":1656:1754   */\n          pop\n            /* \"--CODEGEN--\":1481:1764   */\n          swap3\n          pop\n          swap3\n          swap1\n          pop\n          jump\t// out\n            /* \"--CODEGEN--\":1771:2012   */\n        tag_31:\n          0x00\n            /* \"--CODEGEN--\":1875:1877   */\n          0x20\n            /* \"--CODEGEN--\":1863:1872   */\n          dup3\n            /* \"--CODEGEN--\":1854:1861   */\n          dup5\n            /* \"--CODEGEN--\":1850:1873   */\n          sub\n            /* \"--CODEGEN--\":1846:1878   */\n          slt\n            /* \"--CODEGEN--\":1843:1845   */\n          iszero\n          tag_118\n          jumpi\n            /* \"--CODEGEN--\":1891:1892   */\n          0x00\n            /* \"--CODEGEN--\":1888:1889   */\n          dup1\n            /* \"--CODEGEN--\":1881:1893   */\n          revert\n            /* \"--CODEGEN--\":1843:1845   */\n        tag_118:\n            /* \"--CODEGEN--\":1926:1927   */\n          0x00\n            /* \"--CODEGEN--\":1943:1996   */\n          tag_119\n            /* \"--CODEGEN--\":1988:1995   */\n          dup5\n            /* \"--CODEGEN--\":1979:1985   */\n          dup3\n            /* \"--CODEGEN--\":1968:1977   */\n          dup6\n            /* \"--CODEGEN--\":1964:1986   */\n          add\n            /* \"--CODEGEN--\":1943:1996   */\n          tag_97\n          jump\t// in\n        tag_119:\n            /* \"--CODEGEN--\":1933:1996   */\n          swap2\n          pop\n            /* \"--CODEGEN--\":1905:2002   */\n          pop\n            /* \"--CODEGEN--\":1837:2012   */\n          swap3\n          swap2\n          pop\n          pop\n          jump\t// out\n            /* \"--CODEGEN--\":2019:2123   */\n        tag_120:\n            /* \"--CODEGEN--\":2096:2117   */\n          tag_122\n            /* \"--CODEGEN--\":2111:2116   */\n          dup2\n            /* \"--CODEGEN--\":2096:2117   */\n          tag_123\n          jump\t// in\n        tag_122:\n            /* \"--CODEGEN--\":2091:2094   */\n          dup3\n            /* \"--CODEGEN--\":2084:2118   */\n          mstore\n            /* \"--CODEGEN--\":2078:2123   */\n          pop\n          pop\n          jump\t// out\n            /* \"--CODEGEN--\":2130:2477   */\n        tag_124:\n          0x00\n            /* \"--CODEGEN--\":2242:2281   */\n          tag_126\n            /* \"--CODEGEN--\":2275:2280   */\n          dup3\n            /* \"--CODEGEN--\":2242:2281   */\n          tag_127\n          jump\t// in\n        tag_126:\n            /* \"--CODEGEN--\":2293:2364   */\n          tag_128\n            /* \"--CODEGEN--\":2357:2363   */\n          dup2\n            /* \"--CODEGEN--\":2352:2355   */\n          dup6\n            /* \"--CODEGEN--\":2293:2364   */\n          tag_129\n          jump\t// in\n        tag_128:\n            /* \"--CODEGEN--\":2286:2364   */\n          swap4\n          pop\n            /* \"--CODEGEN--\":2369:2421   */\n          tag_130\n            /* \"--CODEGEN--\":2414:2420   */\n          dup2\n            /* \"--CODEGEN--\":2409:2412   */\n          dup6\n            /* \"--CODEGEN--\":2402:2406   */\n          0x20\n            /* \"--CODEGEN--\":2395:2400   */\n          dup7\n            /* \"--CODEGEN--\":2391:2407   */\n          add\n            /* \"--CODEGEN--\":2369:2421   */\n          tag_131\n          jump\t// in\n        tag_130:\n            /* \"--CODEGEN--\":2442:2471   */\n          tag_132\n            /* \"--CODEGEN--\":2464:2470   */\n          dup2\n            /* \"--CODEGEN--\":2442:2471   */\n          tag_133\n          jump\t// in\n        tag_132:\n            /* \"--CODEGEN--\":2437:2440   */\n          dup5\n            /* \"--CODEGEN--\":2433:2472   */\n          add\n            /* \"--CODEGEN--\":2426:2472   */\n          swap2\n          pop\n            /* \"--CODEGEN--\":2222:2477   */\n          pop\n          swap3\n          swap2\n          pop\n          pop\n          jump\t// out\n            /* \"--CODEGEN--\":2484:2597   */\n        tag_134:\n            /* \"--CODEGEN--\":2567:2591   */\n          tag_136\n            /* \"--CODEGEN--\":2585:2590   */\n          dup2\n            /* \"--CODEGEN--\":2567:2591   */\n          tag_137\n          jump\t// in\n        tag_136:\n            /* \"--CODEGEN--\":2562:2565   */\n          dup3\n            /* \"--CODEGEN--\":2555:2592   */\n          mstore\n            /* \"--CODEGEN--\":2549:2597   */\n          pop\n          pop\n          jump\t// out\n            /* \"--CODEGEN--\":2604:2711   */\n        tag_138:\n            /* \"--CODEGEN--\":2683:2705   */\n          tag_140\n            /* \"--CODEGEN--\":2699:2704   */\n          dup2\n            /* \"--CODEGEN--\":2683:2705   */\n          tag_141\n          jump\t// in\n        tag_140:\n            /* \"--CODEGEN--\":2678:2681   */\n          dup3\n            /* \"--CODEGEN--\":2671:2706   */\n          mstore\n            /* \"--CODEGEN--\":2665:2711   */\n          pop\n          pop\n          jump\t// out\n            /* \"--CODEGEN--\":2718:2928   */\n        tag_24:\n          0x00\n            /* \"--CODEGEN--\":2839:2841   */\n          0x20\n            /* \"--CODEGEN--\":2828:2837   */\n          dup3\n            /* \"--CODEGEN--\":2824:2842   */\n          add\n            /* \"--CODEGEN--\":2816:2842   */\n          swap1\n          pop\n            /* \"--CODEGEN--\":2853:2918   */\n          tag_143\n            /* \"--CODEGEN--\":2915:2916   */\n          0x00\n            /* \"--CODEGEN--\":2904:2913   */\n          dup4\n            /* \"--CODEGEN--\":2900:2917   */\n          add\n            /* \"--CODEGEN--\":2891:2897   */\n          dup5\n            /* \"--CODEGEN--\":2853:2918   */\n          tag_120\n          jump\t// in\n        tag_143:\n            /* \"--CODEGEN--\":2810:2928   */\n          swap3\n          swap2\n          pop\n          pop\n          jump\t// out\n            /* \"--CODEGEN--\":2935:3245   */\n        tag_18:\n          0x00\n            /* \"--CODEGEN--\":3082:3084   */\n          0x20\n            /* \"--CODEGEN--\":3071:3080   */\n          dup3\n            /* \"--CODEGEN--\":3067:3085   */\n          add\n            /* \"--CODEGEN--\":3059:3085   */\n          swap1\n          pop\n            /* \"--CODEGEN--\":3132:3141   */\n          dup2\n            /* \"--CODEGEN--\":3126:3130   */\n          dup2\n            /* \"--CODEGEN--\":3122:3142   */\n          sub\n            /* \"--CODEGEN--\":3118:3119   */\n          0x00\n            /* \"--CODEGEN--\":3107:3116   */\n          dup4\n            /* \"--CODEGEN--\":3103:3120   */\n          add\n            /* \"--CODEGEN--\":3096:3143   */\n          mstore\n            /* \"--CODEGEN--\":3157:3235   */\n          tag_145\n            /* \"--CODEGEN--\":3230:3234   */\n          dup2\n            /* \"--CODEGEN--\":3221:3227   */\n          dup5\n            /* \"--CODEGEN--\":3157:3235   */\n          tag_124\n          jump\t// in\n        tag_145:\n            /* \"--CODEGEN--\":3149:3235   */\n          swap1\n          pop\n            /* \"--CODEGEN--\":3053:3245   */\n          swap3\n          swap2\n          pop\n          pop\n          jump\t// out\n            /* \"--CODEGEN--\":3252:3474   */\n        tag_28:\n          0x00\n            /* \"--CODEGEN--\":3379:3381   */\n          0x20\n            /* \"--CODEGEN--\":3368:3377   */\n          dup3\n            /* \"--CODEGEN--\":3364:3382   */\n          add\n            /* \"--CODEGEN--\":3356:3382   */\n          swap1\n          pop\n            /* \"--CODEGEN--\":3393:3464   */\n          tag_147\n            /* \"--CODEGEN--\":3461:3462   */\n          0x00\n            /* \"--CODEGEN--\":3450:3459   */\n          dup4\n            /* \"--CODEGEN--\":3446:3463   */\n          add\n            /* \"--CODEGEN--\":3437:3443   */\n          dup5\n            /* \"--CODEGEN--\":3393:3464   */\n          tag_134\n          jump\t// in\n        tag_147:\n            /* \"--CODEGEN--\":3350:3474   */\n          swap3\n          swap2\n          pop\n          pop\n          jump\t// out\n            /* \"--CODEGEN--\":3481:3695   */\n        tag_41:\n          0x00\n            /* \"--CODEGEN--\":3604:3606   */\n          0x20\n            /* \"--CODEGEN--\":3593:3602   */\n          dup3\n            /* \"--CODEGEN--\":3589:3607   */\n          add\n            /* \"--CODEGEN--\":3581:3607   */\n          swap1\n          pop\n            /* \"--CODEGEN--\":3618:3685   */\n          tag_149\n            /* \"--CODEGEN--\":3682:3683   */\n          0x00\n            /* \"--CODEGEN--\":3671:3680   */\n          dup4\n            /* \"--CODEGEN--\":3667:3684   */\n          add\n            /* \"--CODEGEN--\":3658:3664   */\n          dup5\n            /* \"--CODEGEN--\":3618:3685   */\n          tag_138\n          jump\t// in\n        tag_149:\n            /* \"--CODEGEN--\":3575:3695   */\n          swap3\n          swap2\n          pop\n          pop\n          jump\t// out\n            /* \"--CODEGEN--\":3702:3824   */\n        tag_127:\n          0x00\n            /* \"--CODEGEN--\":3796:3801   */\n          dup2\n            /* \"--CODEGEN--\":3790:3802   */\n          mload\n            /* \"--CODEGEN--\":3780:3802   */\n          swap1\n          pop\n            /* \"--CODEGEN--\":3761:3824   */\n          swap2\n          swap1\n          pop\n          jump\t// out\n            /* \"--CODEGEN--\":3832:3995   */\n        tag_129:\n          0x00\n            /* \"--CODEGEN--\":3947:3953   */\n          dup3\n            /* \"--CODEGEN--\":3942:3945   */\n          dup3\n            /* \"--CODEGEN--\":3935:3954   */\n          mstore\n            /* \"--CODEGEN--\":3984:3988   */\n          0x20\n            /* \"--CODEGEN--\":3979:3982   */\n          dup3\n            /* \"--CODEGEN--\":3975:3989   */\n          add\n            /* \"--CODEGEN--\":3960:3989   */\n          swap1\n          pop\n            /* \"--CODEGEN--\":3928:3995   */\n          swap3\n          swap2\n          pop\n          pop\n          jump\t// out\n            /* \"--CODEGEN--\":4003:4094   */\n        tag_152:\n          0x00\n            /* \"--CODEGEN--\":4065:4089   */\n          tag_154\n            /* \"--CODEGEN--\":4083:4088   */\n          dup3\n            /* \"--CODEGEN--\":4065:4089   */\n          tag_155\n          jump\t// in\n        tag_154:\n            /* \"--CODEGEN--\":4054:4089   */\n          swap1\n          pop\n            /* \"--CODEGEN--\":4048:4094   */\n          swap2\n          swap1\n          pop\n          jump\t// out\n            /* \"--CODEGEN--\":4101:4186   */\n        tag_123:\n          0x00\n            /* \"--CODEGEN--\":4174:4179   */\n          dup2\n            /* \"--CODEGEN--\":4167:4180   */\n          iszero\n            /* \"--CODEGEN--\":4160:4181   */\n          iszero\n            /* \"--CODEGEN--\":4149:4181   */\n          swap1\n          pop\n            /* \"--CODEGEN--\":4143:4186   */\n          swap2\n          swap1\n          pop\n          jump\t// out\n            /* \"--CODEGEN--\":4193:4314   */\n        tag_155:\n          0x00\n            /* \"--CODEGEN--\":4266:4308   */\n          0xffffffffffffffffffffffffffffffffffffffff\n            /* \"--CODEGEN--\":4259:4264   */\n          dup3\n            /* \"--CODEGEN--\":4255:4309   */\n          and\n            /* \"--CODEGEN--\":4244:4309   */\n          swap1\n          pop\n            /* \"--CODEGEN--\":4238:4314   */\n          swap2\n          swap1\n          pop\n          jump\t// out\n            /* \"--CODEGEN--\":4321:4393   */\n        tag_137:\n          0x00\n            /* \"--CODEGEN--\":4383:4388   */\n          dup2\n            /* \"--CODEGEN--\":4372:4388   */\n          swap1\n          pop\n            /* \"--CODEGEN--\":4366:4393   */\n          swap2\n          swap1\n          pop\n          jump\t// out\n            /* \"--CODEGEN--\":4400:4481   */\n        tag_141:\n          0x00\n            /* \"--CODEGEN--\":4471:4475   */\n          0xff\n            /* \"--CODEGEN--\":4464:4469   */\n          dup3\n            /* \"--CODEGEN--\":4460:4476   */\n          and\n            /* \"--CODEGEN--\":4449:4476   */\n          swap1\n          pop\n            /* \"--CODEGEN--\":4443:4481   */\n          swap2\n          swap1\n          pop\n          jump\t// out\n            /* \"--CODEGEN--\":4489:4757   */\n        tag_131:\n            /* \"--CODEGEN--\":4554:4555   */\n          0x00\n            /* \"--CODEGEN--\":4561:4662   */\n        tag_161:\n            /* \"--CODEGEN--\":4575:4581   */\n          dup4\n            /* \"--CODEGEN--\":4572:4573   */\n          dup2\n            /* \"--CODEGEN--\":4569:4582   */\n          lt\n            /* \"--CODEGEN--\":4561:4662   */\n          iszero\n          tag_163\n          jumpi\n            /* \"--CODEGEN--\":4651:4652   */\n          dup1\n            /* \"--CODEGEN--\":4646:4649   */\n          dup3\n            /* \"--CODEGEN--\":4642:4653   */\n          add\n            /* \"--CODEGEN--\":4636:4654   */\n          mload\n            /* \"--CODEGEN--\":4632:4633   */\n          dup2\n            /* \"--CODEGEN--\":4627:4630   */\n          dup5\n            /* \"--CODEGEN--\":4623:4634   */\n          add\n            /* \"--CODEGEN--\":4616:4655   */\n          mstore\n            /* \"--CODEGEN--\":4597:4599   */\n          0x20\n            /* \"--CODEGEN--\":4594:4595   */\n          dup2\n            /* \"--CODEGEN--\":4590:4600   */\n          add\n            /* \"--CODEGEN--\":4585:4600   */\n          swap1\n          pop\n            /* \"--CODEGEN--\":4561:4662   */\n          jump(tag_161)\n        tag_163:\n            /* \"--CODEGEN--\":4677:4683   */\n          dup4\n            /* \"--CODEGEN--\":4674:4675   */\n          dup2\n            /* \"--CODEGEN--\":4671:4684   */\n          gt\n            /* \"--CODEGEN--\":4668:4670   */\n          iszero\n          tag_164\n          jumpi\n            /* \"--CODEGEN--\":4742:4743   */\n          0x00\n            /* \"--CODEGEN--\":4733:4739   */\n          dup5\n            /* \"--CODEGEN--\":4728:4731   */\n          dup5\n            /* \"--CODEGEN--\":4724:4740   */\n          add\n            /* \"--CODEGEN--\":4717:4744   */\n          mstore\n            /* \"--CODEGEN--\":4668:4670   */\n        tag_164:\n            /* \"--CODEGEN--\":4538:4757   */\n          pop\n          pop\n          pop\n          pop\n          jump\t// out\n            /* \"--CODEGEN--\":4765:4862   */\n        tag_133:\n          0x00\n            /* \"--CODEGEN--\":4853:4855   */\n          0x1f\n            /* \"--CODEGEN--\":4849:4856   */\n          not\n            /* \"--CODEGEN--\":4844:4846   */\n          0x1f\n            /* \"--CODEGEN--\":4837:4842   */\n          dup4\n            /* \"--CODEGEN--\":4833:4847   */\n          add\n            /* \"--CODEGEN--\":4829:4857   */\n          and\n            /* \"--CODEGEN--\":4819:4857   */\n          swap1\n          pop\n            /* \"--CODEGEN--\":4813:4862   */\n          swap2\n          swap1\n          pop\n          jump\t// out\n            /* \"--CODEGEN--\":4870:4987   */\n        tag_96:\n            /* \"--CODEGEN--\":4939:4963   */\n          tag_167\n            /* \"--CODEGEN--\":4957:4962   */\n          dup2\n            /* \"--CODEGEN--\":4939:4963   */\n          tag_152\n          jump\t// in\n        tag_167:\n            /* \"--CODEGEN--\":4932:4937   */\n          dup2\n            /* \"--CODEGEN--\":4929:4964   */\n          eq\n            /* \"--CODEGEN--\":4919:4921   */\n          tag_168\n          jumpi\n            /* \"--CODEGEN--\":4978:4979   */\n          0x00\n            /* \"--CODEGEN--\":4975:4976   */\n          dup1\n            /* \"--CODEGEN--\":4968:4980   */\n          revert\n            /* \"--CODEGEN--\":4919:4921   */\n        tag_168:\n            /* \"--CODEGEN--\":4913:4987   */\n          pop\n          jump\t// out\n            /* \"--CODEGEN--\":4994:5111   */\n        tag_100:\n            /* \"--CODEGEN--\":5063:5087   */\n          tag_170\n            /* \"--CODEGEN--\":5081:5086   */\n          dup2\n            /* \"--CODEGEN--\":5063:5087   */\n          tag_137\n          jump\t// in\n        tag_170:\n            /* \"--CODEGEN--\":5056:5061   */\n          dup2\n            /* \"--CODEGEN--\":5053:5088   */\n          eq\n            /* \"--CODEGEN--\":5043:5045   */\n          tag_171\n          jumpi\n            /* \"--CODEGEN--\":5102:5103   */\n          0x00\n            /* \"--CODEGEN--\":5099:5100   */\n          dup1\n            /* \"--CODEGEN--\":5092:5104   */\n          revert\n            /* \"--CODEGEN--\":5043:5045   */\n        tag_171:\n            /* \"--CODEGEN--\":5037:5111   */\n          pop\n          jump\t// out\n\n        auxdata: 0xa264697066735822122041924e75c6a689f4e76b488c772248149581615c89d36359b2203d117f5c45a064736f6c634300060c0033\n    }\n}\n",
				"bytecode": {
					"linkReferences": {},
					"object": "6080604052600560035560006006553480156200001b57600080fd5b506127106040516200002d906200011e565b6200003991906200013d565b604051809103906000f08015801562000056573d6000803e3d6000fd5b506000806101000a81548173ffffffffffffffffffffffffffffffffffffffff021916908373ffffffffffffffffffffffffffffffffffffffff16021790555033600160006101000a81548173ffffffffffffffffffffffffffffffffffffffff021916908373ffffffffffffffffffffffffffffffffffffffff16021790555030600260006101000a81548173ffffffffffffffffffffffffffffffffffffffff021916908373ffffffffffffffffffffffffffffffffffffffff16021790555062000178565b61109d806200156183390190565b620001378162000164565b82525050565b60006020820190506200015460008301846200012c565b92915050565b6000819050919050565b600062000171826200015a565b9050919050565b6113d980620001886000396000f3fe60806040526004361061009c5760003560e01c806389e25c281161006457806389e25c28146101745780638da5cb5b1461018b578063e1a01e67146101b6578063e33f34a0146101e1578063f77740911461020c578063fd889ff5146102285761009c565b80631246f6e2146100a157806327909f27146100ca5780633257eaa4146100f557806374189861146101205780637cd15f441461014b575b600080fd5b3480156100ad57600080fd5b506100c860048036038101906100c39190610dae565b610253565b005b3480156100d657600080fd5b506100df610373565b6040516100ec919061121c565b60405180910390f35b34801561010157600080fd5b5061010a610379565b604051610117919061115a565b60405180910390f35b34801561012c57600080fd5b5061013561040e565b604051610142919061121c565b60405180910390f35b34801561015757600080fd5b50610172600480360381019061016d9190610dae565b6104e1565b005b34801561018057600080fd5b5061018961078d565b005b34801561019757600080fd5b506101a06108f3565b6040516101ad91906110c4565b60405180910390f35b3480156101c257600080fd5b506101cb610919565b6040516101d891906110c4565b60405180910390f35b3480156101ed57600080fd5b506101f661093f565b604051610203919061121c565b60405180910390f35b61022660048036038101906102219190610dae565b6109f0565b005b34801561023457600080fd5b5061023d610c81565b60405161024a919061121c565b60405180910390f35b33600160009054906101000a900473ffffffffffffffffffffffffffffffffffffffff1673ffffffffffffffffffffffffffffffffffffffff168173ffffffffffffffffffffffffffffffffffffffff16146102e4576040517f08c379a00000000000000000000000000000000000000000000000000000000081526004016102db9061119c565b60405180910390fd5b60008054906101000a900473ffffffffffffffffffffffffffffffffffffffff1673ffffffffffffffffffffffffffffffffffffffff16631d43cc98836040518263ffffffff1660e01b815260040161033d919061121c565b600060405180830381600087803b15801561035757600080fd5b505af115801561036b573d6000803e3d6000fd5b505050505050565b60035481565b6060600460003373ffffffffffffffffffffffffffffffffffffffff1673ffffffffffffffffffffffffffffffffffffffff16815260200190815260200160002080548060200260200160405190810160405280929190818152602001828054801561040457602002820191906000526020600020905b8154815260200190600101908083116103f0575b5050505050905090565b60008060009054906101000a900473ffffffffffffffffffffffffffffffffffffffff1673ffffffffffffffffffffffffffffffffffffffff166370a08231600160009054906101000a900473ffffffffffffffffffffffffffffffffffffffff166040518263ffffffff1660e01b815260040161048c91906110c4565b60206040518083038186803b1580156104a457600080fd5b505afa1580156104b8573d6000803e3d6000fd5b505050506040513d601f19601f820116820180604052508101906104dc9190610dd7565b905090565b6000600354820290506104f261093f565b811115610534576040517f08c379a000000000000000000000000000000000000000000000000000000000815260040161052b9061117c565b60405180910390fd5b60008054906101000a900473ffffffffffffffffffffffffffffffffffffffff1673ffffffffffffffffffffffffffffffffffffffff16635c79febb33600160009054906101000a900473ffffffffffffffffffffffffffffffffffffffff16846040518463ffffffff1660e01b81526004016105b3939291906110fa565b602060405180830381600087803b1580156105cd57600080fd5b505af11580156105e1573d6000803e3d6000fd5b505050506040513d601f19601f820116820180604052508101906106059190610d85565b5060005b82811015610788576000612710423360065460405160200161062d93929190611087565b6040516020818303038152906040528051906020012060001c8161064d57fe5b069050600660008154809291906001019190505550600460003373ffffffffffffffffffffffffffffffffffffffff1673ffffffffffffffffffffffffffffffffffffffff1681526020019081526020016000208190806001815401808255809150506001900390600052602060002001600090919091909150556007819080600181540180825580915050600190039060005260206000200160009091909190915055336005600083815260200190815260200160002060006101000a81548173ffffffffffffffffffffffffffffffffffffffff021916908373ffffffffffffffffffffffffffffffffffffffff1602179055507fa69929cb3af1145490f7129170489946bf07bc6cd7474fc4172efc5ec3f060e381604051610772919061121c565b60405180910390a1508080600101915050610609565b505050565b33600160009054906101000a900473ffffffffffffffffffffffffffffffffffffffff1673ffffffffffffffffffffffffffffffffffffffff168173ffffffffffffffffffffffffffffffffffffffff161461081e576040517f08c379a00000000000000000000000000000000000000000000000000000000081526004016108159061119c565b60405180910390fd5b600060078054905011610866576040517f08c379a000000000000000000000000000000000000000000000000000000000815260040161085d906111fc565b60405180910390fd5b60006007808054905042604051602001610880919061106c565b6040516020818303038152906040528051906020012060001c816108a057fe5b06815481106108ab57fe5b906000526020600020015490507f7ae8aa8a76009e9379a432b67d892b6006479447de6892c862ce780785a2387d816040516108e7919061121c565b60405180910390a15050565b600160009054906101000a900473ffffffffffffffffffffffffffffffffffffffff1681565b600260009054906101000a900473ffffffffffffffffffffffffffffffffffffffff1681565b60008060009054906101000a900473ffffffffffffffffffffffffffffffffffffffff1673ffffffffffffffffffffffffffffffffffffffff166370a08231336040518263ffffffff1660e01b815260040161099b91906110df565b60206040518083038186803b1580156109b357600080fd5b505afa1580156109c7573d6000803e3d6000fd5b505050506040513d601f19601f820116820180604052508101906109eb9190610dd7565b905090565b60006109fb82610d32565b905080341015610a40576040517f08c379a0000000000000000000000000000000000000000000000000000000008152600401610a37906111bc565b60405180910390fd5b60008054906101000a900473ffffffffffffffffffffffffffffffffffffffff1673ffffffffffffffffffffffffffffffffffffffff166370a08231600260009054906101000a900473ffffffffffffffffffffffffffffffffffffffff166040518263ffffffff1660e01b8152600401610abb91906110c4565b60206040518083038186803b158015610ad357600080fd5b505afa158015610ae7573d6000803e3d6000fd5b505050506040513d601f19601f82011682018060405250810190610b0b9190610dd7565b821115610b4d576040517f08c379a0000000000000000000000000000000000000000000000000000000008152600401610b44906111dc565b60405180910390fd5b3373ffffffffffffffffffffffffffffffffffffffff166108fc8234039081150290604051600060405180830381858888f19350505050158015610b95573d6000803e3d6000fd5b5060008054906101000a900473ffffffffffffffffffffffffffffffffffffffff1673ffffffffffffffffffffffffffffffffffffffff1663a9059cbb33846040518363ffffffff1660e01b8152600401610bf1929190611131565b602060405180830381600087803b158015610c0b57600080fd5b505af1158015610c1f573d6000803e3d6000fd5b505050506040513d601f19601f82011682018060405250810190610c439190610d85565b507f1912293d843fe20a997ecedfe6ab8b44b26fc0ed0d7d2e152158ffd021c9ace38233604051610c75929190611237565b60405180910390a15050565b60008060009054906101000a900473ffffffffffffffffffffffffffffffffffffffff1673ffffffffffffffffffffffffffffffffffffffff166370a08231306040518263ffffffff1660e01b8152600401610cdd91906110c4565b60206040518083038186803b158015610cf557600080fd5b505afa158015610d09573d6000803e3d6000fd5b505050506040513d601f19601f82011682018060405250810190610d2d9190610dd7565b905090565b6000670de0b6b3a764000082029050919050565b600081519050610d5581611375565b92915050565b600081359050610d6a8161138c565b92915050565b600081519050610d7f8161138c565b92915050565b600060208284031215610d9757600080fd5b6000610da584828501610d46565b91505092915050565b600060208284031215610dc057600080fd5b6000610dce84828501610d5b565b91505092915050565b600060208284031215610de957600080fd5b6000610df784828501610d70565b91505092915050565b6000610e0c8383611037565b60208301905092915050565b610e2181611304565b82525050565b610e38610e33826112bc565b61133a565b82525050565b610e47816112aa565b82525050565b6000610e5882611270565b610e628185611288565b9350610e6d83611260565b8060005b83811015610e9e578151610e858882610e00565b9750610e908361127b565b925050600181019050610e71565b5085935050505092915050565b6000610eb8601f83611299565b91507f43616e746964616420646520746f6b656e7320696e737566696369656e7465006000830152602082019050919050565b6000610ef8602d83611299565b91507f4e6f207469656e6573207065726d69736f73207061726120656a65637574617260008301527f20657374612066756e63696f6e000000000000000000000000000000000000006020830152604082019050919050565b6000610f5e601e83611299565b91507f43616e746964616420646520657468657220696e737566696369656e746500006000830152602082019050919050565b6000610f9e602083611299565b91507f43616e746964616420646520746f6b656e7320696e737566696369656e7465736000830152602082019050919050565b6000610fde602883611299565b91507f4e6f2073652068612076656e6469646f206e696e67c3ba6e20626f6c65746f2060008301527f746f646176c3ad610000000000000000000000000000000000000000000000006020830152604082019050919050565b611040816112fa565b82525050565b61104f816112fa565b82525050565b611066611061826112fa565b61135e565b82525050565b60006110788284611055565b60208201915081905092915050565b60006110938286611055565b6020820191506110a38285610e27565b6014820191506110b38284611055565b602082019150819050949350505050565b60006020820190506110d96000830184610e3e565b92915050565b60006020820190506110f46000830184610e18565b92915050565b600060608201905061110f6000830186610e18565b61111c6020830185610e3e565b6111296040830184611046565b949350505050565b60006040820190506111466000830185610e18565b6111536020830184611046565b9392505050565b600060208201905081810360008301526111748184610e4d565b905092915050565b6000602082019050818103600083015261119581610eab565b9050919050565b600060208201905081810360008301526111b581610eeb565b9050919050565b600060208201905081810360008301526111d581610f51565b9050919050565b600060208201905081810360008301526111f581610f91565b9050919050565b6000602082019050818103600083015261121581610fd1565b9050919050565b60006020820190506112316000830184611046565b92915050565b600060408201905061124c6000830185611046565b6112596020830184610e18565b9392505050565b6000819050602082019050919050565b600081519050919050565b6000602082019050919050565b600082825260208201905092915050565b600082825260208201905092915050565b60006112b5826112da565b9050919050565b60006112c7826112da565b9050919050565b60008115159050919050565b600073ffffffffffffffffffffffffffffffffffffffff82169050919050565b6000819050919050565b600061130f82611316565b9050919050565b600061132182611328565b9050919050565b6000611333826112da565b9050919050565b60006113458261134c565b9050919050565b600061135782611368565b9050919050565b6000819050919050565b60008160601b9050919050565b61137e816112ce565b811461138957600080fd5b50565b611395816112fa565b81146113a057600080fd5b5056fea2646970667358221220a2e95fc82f3b7466d2c42191314345b75a6fbbc8276a36ac5556902d7bdc5e5464736f6c634300060c0033608060405234801561001057600080fd5b5060405161109d38038061109d83398181016040528101906100329190610099565b806002819055506002546000803373ffffffffffffffffffffffffffffffffffffffff1673ffffffffffffffffffffffffffffffffffffffff16815260200190815260200160002081905550506100e3565b600081519050610093816100cc565b92915050565b6000602082840312156100ab57600080fd5b60006100b984828501610084565b91505092915050565b6000819050919050565b6100d5816100c2565b81146100e057600080fd5b50565b610fab806100f26000396000f3fe608060405234801561001057600080fd5b50600436106100a95760003560e01c8063313ce56711610071578063313ce567146101665780635c79febb1461018457806370a08231146101b457806395d89b41146101e4578063a9059cbb14610202578063dd62ed3e14610232576100a9565b806306fdde03146100ae578063095ea7b3146100cc57806318160ddd146100fc5780631d43cc981461011a57806323b872dd14610136575b600080fd5b6100b6610262565b6040516100c39190610e3a565b60405180910390f35b6100e660048036038101906100e19190610d54565b61029b565b6040516100f39190610e1f565b60405180910390f35b61010461038d565b6040516101119190610e5c565b60405180910390f35b610134600480360381019061012f9190610d90565b610397565b005b610150600480360381019061014b9190610d05565b6103f6565b60405161015d9190610e1f565b60405180910390f35b61016e610771565b60405161017b9190610e77565b60405180910390f35b61019e60048036038101906101999190610d05565b610776565b6040516101ab9190610e1f565b60405180910390f35b6101ce60048036038101906101c99190610ca0565b610959565b6040516101db9190610e5c565b60405180910390f35b6101ec6109a1565b6040516101f99190610e3a565b60405180910390f35b61021c60048036038101906102179190610d54565b6109da565b6040516102299190610e1f565b60405180910390f35b61024c60048036038101906102479190610cc9565b610bbc565b6040516102599190610e5c565b60405180910390f35b6040518060400160405280600c81526020017f4552433230414b414c75676f000000000000000000000000000000000000000081525081565b600081600160003373ffffffffffffffffffffffffffffffffffffffff1673ffffffffffffffffffffffffffffffffffffffff16815260200190815260200160002060008573ffffffffffffffffffffffffffffffffffffffff1673ffffffffffffffffffffffffffffffffffffffff168152602001908152602001600020819055508273ffffffffffffffffffffffffffffffffffffffff163373ffffffffffffffffffffffffffffffffffffffff167f8c5be1e5ebec7d5bd14f71427d1e84f3dd0314c0f7b2291e5b200ac8c7c3b9258460405161037b9190610e5c565b60405180910390a36001905092915050565b6000600254905090565b80600260008282540192505081905550806000803373ffffffffffffffffffffffffffffffffffffffff1673ffffffffffffffffffffffffffffffffffffffff1681526020019081526020016000206000828254019250508190555050565b6000816000808673ffffffffffffffffffffffffffffffffffffffff1673ffffffffffffffffffffffffffffffffffffffff16815260200190815260200160002054101561044357600080fd5b81600160008673ffffffffffffffffffffffffffffffffffffffff1673ffffffffffffffffffffffffffffffffffffffff16815260200190815260200160002060003373ffffffffffffffffffffffffffffffffffffffff1673ffffffffffffffffffffffffffffffffffffffff1681526020019081526020016000205410156104cc57600080fd5b61051d826000808773ffffffffffffffffffffffffffffffffffffffff1673ffffffffffffffffffffffffffffffffffffffff16815260200190815260200160002054610c4390919063ffffffff16565b6000808673ffffffffffffffffffffffffffffffffffffffff1673ffffffffffffffffffffffffffffffffffffffff168152602001908152602001600020819055506105ee82600160008773ffffffffffffffffffffffffffffffffffffffff1673ffffffffffffffffffffffffffffffffffffffff16815260200190815260200160002060003373ffffffffffffffffffffffffffffffffffffffff1673ffffffffffffffffffffffffffffffffffffffff16815260200190815260200160002054610c4390919063ffffffff16565b600160008673ffffffffffffffffffffffffffffffffffffffff1673ffffffffffffffffffffffffffffffffffffffff16815260200190815260200160002060003373ffffffffffffffffffffffffffffffffffffffff1673ffffffffffffffffffffffffffffffffffffffff168152602001908152602001600020819055506106bf826000808673ffffffffffffffffffffffffffffffffffffffff1673ffffffffffffffffffffffffffffffffffffffff16815260200190815260200160002054610c5a90919063ffffffff16565b6000808573ffffffffffffffffffffffffffffffffffffffff1673ffffffffffffffffffffffffffffffffffffffff168152602001908152602001600020819055508273ffffffffffffffffffffffffffffffffffffffff168473ffffffffffffffffffffffffffffffffffffffff167fddf252ad1be2c89b69c2b068fc378daa952ba7f163c4a11628f55a4df523b3ef8460405161075e9190610e5c565b60405180910390a3600190509392505050565b601281565b60008060008573ffffffffffffffffffffffffffffffffffffffff1673ffffffffffffffffffffffffffffffffffffffff168152602001908152602001600020548211156107c357600080fd5b610814826000808773ffffffffffffffffffffffffffffffffffffffff1673ffffffffffffffffffffffffffffffffffffffff16815260200190815260200160002054610c4390919063ffffffff16565b6000808673ffffffffffffffffffffffffffffffffffffffff1673ffffffffffffffffffffffffffffffffffffffff168152602001908152602001600020819055506108a7826000808673ffffffffffffffffffffffffffffffffffffffff1673ffffffffffffffffffffffffffffffffffffffff16815260200190815260200160002054610c5a90919063ffffffff16565b6000808573ffffffffffffffffffffffffffffffffffffffff1673ffffffffffffffffffffffffffffffffffffffff168152602001908152602001600020819055508273ffffffffffffffffffffffffffffffffffffffff168473ffffffffffffffffffffffffffffffffffffffff167fddf252ad1be2c89b69c2b068fc378daa952ba7f163c4a11628f55a4df523b3ef846040516109469190610e5c565b60405180910390a3600190509392505050565b60008060008373ffffffffffffffffffffffffffffffffffffffff1673ffffffffffffffffffffffffffffffffffffffff168152602001908152602001600020549050919050565b6040518060400160405280600381526020017f414b41000000000000000000000000000000000000000000000000000000000081525081565b60008060003373ffffffffffffffffffffffffffffffffffffffff1673ffffffffffffffffffffffffffffffffffffffff16815260200190815260200160002054821115610a2757600080fd5b610a78826000803373ffffffffffffffffffffffffffffffffffffffff1673ffffffffffffffffffffffffffffffffffffffff16815260200190815260200160002054610c4390919063ffffffff16565b6000803373ffffffffffffffffffffffffffffffffffffffff1673ffffffffffffffffffffffffffffffffffffffff16815260200190815260200160002081905550610b0b826000808673ffffffffffffffffffffffffffffffffffffffff1673ffffffffffffffffffffffffffffffffffffffff16815260200190815260200160002054610c5a90919063ffffffff16565b6000808573ffffffffffffffffffffffffffffffffffffffff1673ffffffffffffffffffffffffffffffffffffffff168152602001908152602001600020819055508273ffffffffffffffffffffffffffffffffffffffff163373ffffffffffffffffffffffffffffffffffffffff167fddf252ad1be2c89b69c2b068fc378daa952ba7f163c4a11628f55a4df523b3ef84604051610baa9190610e5c565b60405180910390a36001905092915050565b6000600160008473ffffffffffffffffffffffffffffffffffffffff1673ffffffffffffffffffffffffffffffffffffffff16815260200190815260200160002060008373ffffffffffffffffffffffffffffffffffffffff1673ffffffffffffffffffffffffffffffffffffffff16815260200190815260200160002054905092915050565b600082821115610c4f57fe5b818303905092915050565b600080828401905083811015610c6c57fe5b8091505092915050565b600081359050610c8581610f47565b92915050565b600081359050610c9a81610f5e565b92915050565b600060208284031215610cb257600080fd5b6000610cc084828501610c76565b91505092915050565b60008060408385031215610cdc57600080fd5b6000610cea85828601610c76565b9250506020610cfb85828601610c76565b9150509250929050565b600080600060608486031215610d1a57600080fd5b6000610d2886828701610c76565b9350506020610d3986828701610c76565b9250506040610d4a86828701610c8b565b9150509250925092565b60008060408385031215610d6757600080fd5b6000610d7585828601610c76565b9250506020610d8685828601610c8b565b9150509250929050565b600060208284031215610da257600080fd5b6000610db084828501610c8b565b91505092915050565b610dc281610ec0565b82525050565b6000610dd382610e92565b610ddd8185610e9d565b9350610ded818560208601610f03565b610df681610f36565b840191505092915050565b610e0a81610eec565b82525050565b610e1981610ef6565b82525050565b6000602082019050610e346000830184610db9565b92915050565b60006020820190508181036000830152610e548184610dc8565b905092915050565b6000602082019050610e716000830184610e01565b92915050565b6000602082019050610e8c6000830184610e10565b92915050565b600081519050919050565b600082825260208201905092915050565b6000610eb982610ecc565b9050919050565b60008115159050919050565b600073ffffffffffffffffffffffffffffffffffffffff82169050919050565b6000819050919050565b600060ff82169050919050565b60005b83811015610f21578082015181840152602081019050610f06565b83811115610f30576000848401525b50505050565b6000601f19601f8301169050919050565b610f5081610eae565b8114610f5b57600080fd5b50565b610f6781610eec565b8114610f7257600080fd5b5056fea264697066735822122041924e75c6a689f4e76b488c772248149581615c89d36359b2203d117f5c45a064736f6c634300060c0033",
					"opcodes": "PUSH1 0x80 PUSH1 0x40 MSTORE PUSH1 0x5 PUSH1 0x3 SSTORE PUSH1 0x0 PUSH1 0x6 SSTORE CALLVALUE DUP1 ISZERO PUSH3 0x1B JUMPI PUSH1 0x0 DUP1 REVERT JUMPDEST POP PUSH2 0x2710 PUSH1 0x40 MLOAD PUSH3 0x2D SWAP1 PUSH3 0x11E JUMP JUMPDEST PUSH3 0x39 SWAP2 SWAP1 PUSH3 0x13D JUMP JUMPDEST PUSH1 0x40 MLOAD DUP1 SWAP2 SUB SWAP1 PUSH1 0x0 CREATE DUP1 ISZERO DUP1 ISZERO PUSH3 0x56 JUMPI RETURNDATASIZE PUSH1 0x0 DUP1 RETURNDATACOPY RETURNDATASIZE PUSH1 0x0 REVERT JUMPDEST POP PUSH1 0x0 DUP1 PUSH2 0x100 EXP DUP2 SLOAD DUP2 PUSH20 0xFFFFFFFFFFFFFFFFFFFFFFFFFFFFFFFFFFFFFFFF MUL NOT AND SWAP1 DUP4 PUSH20 0xFFFFFFFFFFFFFFFFFFFFFFFFFFFFFFFFFFFFFFFF AND MUL OR SWAP1 SSTORE POP CALLER PUSH1 0x1 PUSH1 0x0 PUSH2 0x100 EXP DUP2 SLOAD DUP2 PUSH20 0xFFFFFFFFFFFFFFFFFFFFFFFFFFFFFFFFFFFFFFFF MUL NOT AND SWAP1 DUP4 PUSH20 0xFFFFFFFFFFFFFFFFFFFFFFFFFFFFFFFFFFFFFFFF AND MUL OR SWAP1 SSTORE POP ADDRESS PUSH1 0x2 PUSH1 0x0 PUSH2 0x100 EXP DUP2 SLOAD DUP2 PUSH20 0xFFFFFFFFFFFFFFFFFFFFFFFFFFFFFFFFFFFFFFFF MUL NOT AND SWAP1 DUP4 PUSH20 0xFFFFFFFFFFFFFFFFFFFFFFFFFFFFFFFFFFFFFFFF AND MUL OR SWAP1 SSTORE POP PUSH3 0x178 JUMP JUMPDEST PUSH2 0x109D DUP1 PUSH3 0x1561 DUP4 CODECOPY ADD SWAP1 JUMP JUMPDEST PUSH3 0x137 DUP2 PUSH3 0x164 JUMP JUMPDEST DUP3 MSTORE POP POP JUMP JUMPDEST PUSH1 0x0 PUSH1 0x20 DUP3 ADD SWAP1 POP PUSH3 0x154 PUSH1 0x0 DUP4 ADD DUP5 PUSH3 0x12C JUMP JUMPDEST SWAP3 SWAP2 POP POP JUMP JUMPDEST PUSH1 0x0 DUP2 SWAP1 POP SWAP2 SWAP1 POP JUMP JUMPDEST PUSH1 0x0 PUSH3 0x171 DUP3 PUSH3 0x15A JUMP JUMPDEST SWAP1 POP SWAP2 SWAP1 POP JUMP JUMPDEST PUSH2 0x13D9 DUP1 PUSH3 0x188 PUSH1 0x0 CODECOPY PUSH1 0x0 RETURN INVALID PUSH1 0x80 PUSH1 0x40 MSTORE PUSH1 0x4 CALLDATASIZE LT PUSH2 0x9C JUMPI PUSH1 0x0 CALLDATALOAD PUSH1 0xE0 SHR DUP1 PUSH4 0x89E25C28 GT PUSH2 0x64 JUMPI DUP1 PUSH4 0x89E25C28 EQ PUSH2 0x174 JUMPI DUP1 PUSH4 0x8DA5CB5B EQ PUSH2 0x18B JUMPI DUP1 PUSH4 0xE1A01E67 EQ PUSH2 0x1B6 JUMPI DUP1 PUSH4 0xE33F34A0 EQ PUSH2 0x1E1 JUMPI DUP1 PUSH4 0xF7774091 EQ PUSH2 0x20C JUMPI DUP1 PUSH4 0xFD889FF5 EQ PUSH2 0x228 JUMPI PUSH2 0x9C JUMP JUMPDEST DUP1 PUSH4 0x1246F6E2 EQ PUSH2 0xA1 JUMPI DUP1 PUSH4 0x27909F27 EQ PUSH2 0xCA JUMPI DUP1 PUSH4 0x3257EAA4 EQ PUSH2 0xF5 JUMPI DUP1 PUSH4 0x74189861 EQ PUSH2 0x120 JUMPI DUP1 PUSH4 0x7CD15F44 EQ PUSH2 0x14B JUMPI JUMPDEST PUSH1 0x0 DUP1 REVERT JUMPDEST CALLVALUE DUP1 ISZERO PUSH2 0xAD JUMPI PUSH1 0x0 DUP1 REVERT JUMPDEST POP PUSH2 0xC8 PUSH1 0x4 DUP1 CALLDATASIZE SUB DUP2 ADD SWAP1 PUSH2 0xC3 SWAP2 SWAP1 PUSH2 0xDAE JUMP JUMPDEST PUSH2 0x253 JUMP JUMPDEST STOP JUMPDEST CALLVALUE DUP1 ISZERO PUSH2 0xD6 JUMPI PUSH1 0x0 DUP1 REVERT JUMPDEST POP PUSH2 0xDF PUSH2 0x373 JUMP JUMPDEST PUSH1 0x40 MLOAD PUSH2 0xEC SWAP2 SWAP1 PUSH2 0x121C JUMP JUMPDEST PUSH1 0x40 MLOAD DUP1 SWAP2 SUB SWAP1 RETURN JUMPDEST CALLVALUE DUP1 ISZERO PUSH2 0x101 JUMPI PUSH1 0x0 DUP1 REVERT JUMPDEST POP PUSH2 0x10A PUSH2 0x379 JUMP JUMPDEST PUSH1 0x40 MLOAD PUSH2 0x117 SWAP2 SWAP1 PUSH2 0x115A JUMP JUMPDEST PUSH1 0x40 MLOAD DUP1 SWAP2 SUB SWAP1 RETURN JUMPDEST CALLVALUE DUP1 ISZERO PUSH2 0x12C JUMPI PUSH1 0x0 DUP1 REVERT JUMPDEST POP PUSH2 0x135 PUSH2 0x40E JUMP JUMPDEST PUSH1 0x40 MLOAD PUSH2 0x142 SWAP2 SWAP1 PUSH2 0x121C JUMP JUMPDEST PUSH1 0x40 MLOAD DUP1 SWAP2 SUB SWAP1 RETURN JUMPDEST CALLVALUE DUP1 ISZERO PUSH2 0x157 JUMPI PUSH1 0x0 DUP1 REVERT JUMPDEST POP PUSH2 0x172 PUSH1 0x4 DUP1 CALLDATASIZE SUB DUP2 ADD SWAP1 PUSH2 0x16D SWAP2 SWAP1 PUSH2 0xDAE JUMP JUMPDEST PUSH2 0x4E1 JUMP JUMPDEST STOP JUMPDEST CALLVALUE DUP1 ISZERO PUSH2 0x180 JUMPI PUSH1 0x0 DUP1 REVERT JUMPDEST POP PUSH2 0x189 PUSH2 0x78D JUMP JUMPDEST STOP JUMPDEST CALLVALUE DUP1 ISZERO PUSH2 0x197 JUMPI PUSH1 0x0 DUP1 REVERT JUMPDEST POP PUSH2 0x1A0 PUSH2 0x8F3 JUMP JUMPDEST PUSH1 0x40 MLOAD PUSH2 0x1AD SWAP2 SWAP1 PUSH2 0x10C4 JUMP JUMPDEST PUSH1 0x40 MLOAD DUP1 SWAP2 SUB SWAP1 RETURN JUMPDEST CALLVALUE DUP1 ISZERO PUSH2 0x1C2 JUMPI PUSH1 0x0 DUP1 REVERT JUMPDEST POP PUSH2 0x1CB PUSH2 0x919 JUMP JUMPDEST PUSH1 0x40 MLOAD PUSH2 0x1D8 SWAP2 SWAP1 PUSH2 0x10C4 JUMP JUMPDEST PUSH1 0x40 MLOAD DUP1 SWAP2 SUB SWAP1 RETURN JUMPDEST CALLVALUE DUP1 ISZERO PUSH2 0x1ED JUMPI PUSH1 0x0 DUP1 REVERT JUMPDEST POP PUSH2 0x1F6 PUSH2 0x93F JUMP JUMPDEST PUSH1 0x40 MLOAD PUSH2 0x203 SWAP2 SWAP1 PUSH2 0x121C JUMP JUMPDEST PUSH1 0x40 MLOAD DUP1 SWAP2 SUB SWAP1 RETURN JUMPDEST PUSH2 0x226 PUSH1 0x4 DUP1 CALLDATASIZE SUB DUP2 ADD SWAP1 PUSH2 0x221 SWAP2 SWAP1 PUSH2 0xDAE JUMP JUMPDEST PUSH2 0x9F0 JUMP JUMPDEST STOP JUMPDEST CALLVALUE DUP1 ISZERO PUSH2 0x234 JUMPI PUSH1 0x0 DUP1 REVERT JUMPDEST POP PUSH2 0x23D PUSH2 0xC81 JUMP JUMPDEST PUSH1 0x40 MLOAD PUSH2 0x24A SWAP2 SWAP1 PUSH2 0x121C JUMP JUMPDEST PUSH1 0x40 MLOAD DUP1 SWAP2 SUB SWAP1 RETURN JUMPDEST CALLER PUSH1 0x1 PUSH1 0x0 SWAP1 SLOAD SWAP1 PUSH2 0x100 EXP SWAP1 DIV PUSH20 0xFFFFFFFFFFFFFFFFFFFFFFFFFFFFFFFFFFFFFFFF AND PUSH20 0xFFFFFFFFFFFFFFFFFFFFFFFFFFFFFFFFFFFFFFFF AND DUP2 PUSH20 0xFFFFFFFFFFFFFFFFFFFFFFFFFFFFFFFFFFFFFFFF AND EQ PUSH2 0x2E4 JUMPI PUSH1 0x40 MLOAD PUSH32 0x8C379A000000000000000000000000000000000000000000000000000000000 DUP2 MSTORE PUSH1 0x4 ADD PUSH2 0x2DB SWAP1 PUSH2 0x119C JUMP JUMPDEST PUSH1 0x40 MLOAD DUP1 SWAP2 SUB SWAP1 REVERT JUMPDEST PUSH1 0x0 DUP1 SLOAD SWAP1 PUSH2 0x100 EXP SWAP1 DIV PUSH20 0xFFFFFFFFFFFFFFFFFFFFFFFFFFFFFFFFFFFFFFFF AND PUSH20 0xFFFFFFFFFFFFFFFFFFFFFFFFFFFFFFFFFFFFFFFF AND PUSH4 0x1D43CC98 DUP4 PUSH1 0x40 MLOAD DUP3 PUSH4 0xFFFFFFFF AND PUSH1 0xE0 SHL DUP2 MSTORE PUSH1 0x4 ADD PUSH2 0x33D SWAP2 SWAP1 PUSH2 0x121C JUMP JUMPDEST PUSH1 0x0 PUSH1 0x40 MLOAD DUP1 DUP4 SUB DUP2 PUSH1 0x0 DUP8 DUP1 EXTCODESIZE ISZERO DUP1 ISZERO PUSH2 0x357 JUMPI PUSH1 0x0 DUP1 REVERT JUMPDEST POP GAS CALL ISZERO DUP1 ISZERO PUSH2 0x36B JUMPI RETURNDATASIZE PUSH1 0x0 DUP1 RETURNDATACOPY RETURNDATASIZE PUSH1 0x0 REVERT JUMPDEST POP POP POP POP POP POP JUMP JUMPDEST PUSH1 0x3 SLOAD DUP2 JUMP JUMPDEST PUSH1 0x60 PUSH1 0x4 PUSH1 0x0 CALLER PUSH20 0xFFFFFFFFFFFFFFFFFFFFFFFFFFFFFFFFFFFFFFFF AND PUSH20 0xFFFFFFFFFFFFFFFFFFFFFFFFFFFFFFFFFFFFFFFF AND DUP2 MSTORE PUSH1 0x20 ADD SWAP1 DUP2 MSTORE PUSH1 0x20 ADD PUSH1 0x0 KECCAK256 DUP1 SLOAD DUP1 PUSH1 0x20 MUL PUSH1 0x20 ADD PUSH1 0x40 MLOAD SWAP1 DUP2 ADD PUSH1 0x40 MSTORE DUP1 SWAP3 SWAP2 SWAP1 DUP2 DUP2 MSTORE PUSH1 0x20 ADD DUP3 DUP1 SLOAD DUP1 ISZERO PUSH2 0x404 JUMPI PUSH1 0x20 MUL DUP3 ADD SWAP2 SWAP1 PUSH1 0x0 MSTORE PUSH1 0x20 PUSH1 0x0 KECCAK256 SWAP1 JUMPDEST DUP2 SLOAD DUP2 MSTORE PUSH1 0x20 ADD SWAP1 PUSH1 0x1 ADD SWAP1 DUP1 DUP4 GT PUSH2 0x3F0 JUMPI JUMPDEST POP POP POP POP POP SWAP1 POP SWAP1 JUMP JUMPDEST PUSH1 0x0 DUP1 PUSH1 0x0 SWAP1 SLOAD SWAP1 PUSH2 0x100 EXP SWAP1 DIV PUSH20 0xFFFFFFFFFFFFFFFFFFFFFFFFFFFFFFFFFFFFFFFF AND PUSH20 0xFFFFFFFFFFFFFFFFFFFFFFFFFFFFFFFFFFFFFFFF AND PUSH4 0x70A08231 PUSH1 0x1 PUSH1 0x0 SWAP1 SLOAD SWAP1 PUSH2 0x100 EXP SWAP1 DIV PUSH20 0xFFFFFFFFFFFFFFFFFFFFFFFFFFFFFFFFFFFFFFFF AND PUSH1 0x40 MLOAD DUP3 PUSH4 0xFFFFFFFF AND PUSH1 0xE0 SHL DUP2 MSTORE PUSH1 0x4 ADD PUSH2 0x48C SWAP2 SWAP1 PUSH2 0x10C4 JUMP JUMPDEST PUSH1 0x20 PUSH1 0x40 MLOAD DUP1 DUP4 SUB DUP2 DUP7 DUP1 EXTCODESIZE ISZERO DUP1 ISZERO PUSH2 0x4A4 JUMPI PUSH1 0x0 DUP1 REVERT JUMPDEST POP GAS STATICCALL ISZERO DUP1 ISZERO PUSH2 0x4B8 JUMPI RETURNDATASIZE PUSH1 0x0 DUP1 RETURNDATACOPY RETURNDATASIZE PUSH1 0x0 REVERT JUMPDEST POP POP POP POP PUSH1 0x40 MLOAD RETURNDATASIZE PUSH1 0x1F NOT PUSH1 0x1F DUP3 ADD AND DUP3 ADD DUP1 PUSH1 0x40 MSTORE POP DUP2 ADD SWAP1 PUSH2 0x4DC SWAP2 SWAP1 PUSH2 0xDD7 JUMP JUMPDEST SWAP1 POP SWAP1 JUMP JUMPDEST PUSH1 0x0 PUSH1 0x3 SLOAD DUP3 MUL SWAP1 POP PUSH2 0x4F2 PUSH2 0x93F JUMP JUMPDEST DUP2 GT ISZERO PUSH2 0x534 JUMPI PUSH1 0x40 MLOAD PUSH32 0x8C379A000000000000000000000000000000000000000000000000000000000 DUP2 MSTORE PUSH1 0x4 ADD PUSH2 0x52B SWAP1 PUSH2 0x117C JUMP JUMPDEST PUSH1 0x40 MLOAD DUP1 SWAP2 SUB SWAP1 REVERT JUMPDEST PUSH1 0x0 DUP1 SLOAD SWAP1 PUSH2 0x100 EXP SWAP1 DIV PUSH20 0xFFFFFFFFFFFFFFFFFFFFFFFFFFFFFFFFFFFFFFFF AND PUSH20 0xFFFFFFFFFFFFFFFFFFFFFFFFFFFFFFFFFFFFFFFF AND PUSH4 0x5C79FEBB CALLER PUSH1 0x1 PUSH1 0x0 SWAP1 SLOAD SWAP1 PUSH2 0x100 EXP SWAP1 DIV PUSH20 0xFFFFFFFFFFFFFFFFFFFFFFFFFFFFFFFFFFFFFFFF AND DUP5 PUSH1 0x40 MLOAD DUP5 PUSH4 0xFFFFFFFF AND PUSH1 0xE0 SHL DUP2 MSTORE PUSH1 0x4 ADD PUSH2 0x5B3 SWAP4 SWAP3 SWAP2 SWAP1 PUSH2 0x10FA JUMP JUMPDEST PUSH1 0x20 PUSH1 0x40 MLOAD DUP1 DUP4 SUB DUP2 PUSH1 0x0 DUP8 DUP1 EXTCODESIZE ISZERO DUP1 ISZERO PUSH2 0x5CD JUMPI PUSH1 0x0 DUP1 REVERT JUMPDEST POP GAS CALL ISZERO DUP1 ISZERO PUSH2 0x5E1 JUMPI RETURNDATASIZE PUSH1 0x0 DUP1 RETURNDATACOPY RETURNDATASIZE PUSH1 0x0 REVERT JUMPDEST POP POP POP POP PUSH1 0x40 MLOAD RETURNDATASIZE PUSH1 0x1F NOT PUSH1 0x1F DUP3 ADD AND DUP3 ADD DUP1 PUSH1 0x40 MSTORE POP DUP2 ADD SWAP1 PUSH2 0x605 SWAP2 SWAP1 PUSH2 0xD85 JUMP JUMPDEST POP PUSH1 0x0 JUMPDEST DUP3 DUP2 LT ISZERO PUSH2 0x788 JUMPI PUSH1 0x0 PUSH2 0x2710 TIMESTAMP CALLER PUSH1 0x6 SLOAD PUSH1 0x40 MLOAD PUSH1 0x20 ADD PUSH2 0x62D SWAP4 SWAP3 SWAP2 SWAP1 PUSH2 0x1087 JUMP JUMPDEST PUSH1 0x40 MLOAD PUSH1 0x20 DUP2 DUP4 SUB SUB DUP2 MSTORE SWAP1 PUSH1 0x40 MSTORE DUP1 MLOAD SWAP1 PUSH1 0x20 ADD KECCAK256 PUSH1 0x0 SHR DUP2 PUSH2 0x64D JUMPI INVALID JUMPDEST MOD SWAP1 POP PUSH1 0x6 PUSH1 0x0 DUP2 SLOAD DUP1 SWAP3 SWAP2 SWAP1 PUSH1 0x1 ADD SWAP2 SWAP1 POP SSTORE POP PUSH1 0x4 PUSH1 0x0 CALLER PUSH20 0xFFFFFFFFFFFFFFFFFFFFFFFFFFFFFFFFFFFFFFFF AND PUSH20 0xFFFFFFFFFFFFFFFFFFFFFFFFFFFFFFFFFFFFFFFF AND DUP2 MSTORE PUSH1 0x20 ADD SWAP1 DUP2 MSTORE PUSH1 0x20 ADD PUSH1 0x0 KECCAK256 DUP2 SWAP1 DUP1 PUSH1 0x1 DUP2 SLOAD ADD DUP1 DUP3 SSTORE DUP1 SWAP2 POP POP PUSH1 0x1 SWAP1 SUB SWAP1 PUSH1 0x0 MSTORE PUSH1 0x20 PUSH1 0x0 KECCAK256 ADD PUSH1 0x0 SWAP1 SWAP2 SWAP1 SWAP2 SWAP1 SWAP2 POP SSTORE PUSH1 0x7 DUP2 SWAP1 DUP1 PUSH1 0x1 DUP2 SLOAD ADD DUP1 DUP3 SSTORE DUP1 SWAP2 POP POP PUSH1 0x1 SWAP1 SUB SWAP1 PUSH1 0x0 MSTORE PUSH1 0x20 PUSH1 0x0 KECCAK256 ADD PUSH1 0x0 SWAP1 SWAP2 SWAP1 SWAP2 SWAP1 SWAP2 POP SSTORE CALLER PUSH1 0x5 PUSH1 0x0 DUP4 DUP2 MSTORE PUSH1 0x20 ADD SWAP1 DUP2 MSTORE PUSH1 0x20 ADD PUSH1 0x0 KECCAK256 PUSH1 0x0 PUSH2 0x100 EXP DUP2 SLOAD DUP2 PUSH20 0xFFFFFFFFFFFFFFFFFFFFFFFFFFFFFFFFFFFFFFFF MUL NOT AND SWAP1 DUP4 PUSH20 0xFFFFFFFFFFFFFFFFFFFFFFFFFFFFFFFFFFFFFFFF AND MUL OR SWAP1 SSTORE POP PUSH32 0xA69929CB3AF1145490F7129170489946BF07BC6CD7474FC4172EFC5EC3F060E3 DUP2 PUSH1 0x40 MLOAD PUSH2 0x772 SWAP2 SWAP1 PUSH2 0x121C JUMP JUMPDEST PUSH1 0x40 MLOAD DUP1 SWAP2 SUB SWAP1 LOG1 POP DUP1 DUP1 PUSH1 0x1 ADD SWAP2 POP POP PUSH2 0x609 JUMP JUMPDEST POP POP POP JUMP JUMPDEST CALLER PUSH1 0x1 PUSH1 0x0 SWAP1 SLOAD SWAP1 PUSH2 0x100 EXP SWAP1 DIV PUSH20 0xFFFFFFFFFFFFFFFFFFFFFFFFFFFFFFFFFFFFFFFF AND PUSH20 0xFFFFFFFFFFFFFFFFFFFFFFFFFFFFFFFFFFFFFFFF AND DUP2 PUSH20 0xFFFFFFFFFFFFFFFFFFFFFFFFFFFFFFFFFFFFFFFF AND EQ PUSH2 0x81E JUMPI PUSH1 0x40 MLOAD PUSH32 0x8C379A000000000000000000000000000000000000000000000000000000000 DUP2 MSTORE PUSH1 0x4 ADD PUSH2 0x815 SWAP1 PUSH2 0x119C JUMP JUMPDEST PUSH1 0x40 MLOAD DUP1 SWAP2 SUB SWAP1 REVERT JUMPDEST PUSH1 0x0 PUSH1 0x7 DUP1 SLOAD SWAP1 POP GT PUSH2 0x866 JUMPI PUSH1 0x40 MLOAD PUSH32 0x8C379A000000000000000000000000000000000000000000000000000000000 DUP2 MSTORE PUSH1 0x4 ADD PUSH2 0x85D SWAP1 PUSH2 0x11FC JUMP JUMPDEST PUSH1 0x40 MLOAD DUP1 SWAP2 SUB SWAP1 REVERT JUMPDEST PUSH1 0x0 PUSH1 0x7 DUP1 DUP1 SLOAD SWAP1 POP TIMESTAMP PUSH1 0x40 MLOAD PUSH1 0x20 ADD PUSH2 0x880 SWAP2 SWAP1 PUSH2 0x106C JUMP JUMPDEST PUSH1 0x40 MLOAD PUSH1 0x20 DUP2 DUP4 SUB SUB DUP2 MSTORE SWAP1 PUSH1 0x40 MSTORE DUP1 MLOAD SWAP1 PUSH1 0x20 ADD KECCAK256 PUSH1 0x0 SHR DUP2 PUSH2 0x8A0 JUMPI INVALID JUMPDEST MOD DUP2 SLOAD DUP2 LT PUSH2 0x8AB JUMPI INVALID JUMPDEST SWAP1 PUSH1 0x0 MSTORE PUSH1 0x20 PUSH1 0x0 KECCAK256 ADD SLOAD SWAP1 POP PUSH32 0x7AE8AA8A76009E9379A432B67D892B6006479447DE6892C862CE780785A2387D DUP2 PUSH1 0x40 MLOAD PUSH2 0x8E7 SWAP2 SWAP1 PUSH2 0x121C JUMP JUMPDEST PUSH1 0x40 MLOAD DUP1 SWAP2 SUB SWAP1 LOG1 POP POP JUMP JUMPDEST PUSH1 0x1 PUSH1 0x0 SWAP1 SLOAD SWAP1 PUSH2 0x100 EXP SWAP1 DIV PUSH20 0xFFFFFFFFFFFFFFFFFFFFFFFFFFFFFFFFFFFFFFFF AND DUP2 JUMP JUMPDEST PUSH1 0x2 PUSH1 0x0 SWAP1 SLOAD SWAP1 PUSH2 0x100 EXP SWAP1 DIV PUSH20 0xFFFFFFFFFFFFFFFFFFFFFFFFFFFFFFFFFFFFFFFF AND DUP2 JUMP JUMPDEST PUSH1 0x0 DUP1 PUSH1 0x0 SWAP1 SLOAD SWAP1 PUSH2 0x100 EXP SWAP1 DIV PUSH20 0xFFFFFFFFFFFFFFFFFFFFFFFFFFFFFFFFFFFFFFFF AND PUSH20 0xFFFFFFFFFFFFFFFFFFFFFFFFFFFFFFFFFFFFFFFF AND PUSH4 0x70A08231 CALLER PUSH1 0x40 MLOAD DUP3 PUSH4 0xFFFFFFFF AND PUSH1 0xE0 SHL DUP2 MSTORE PUSH1 0x4 ADD PUSH2 0x99B SWAP2 SWAP1 PUSH2 0x10DF JUMP JUMPDEST PUSH1 0x20 PUSH1 0x40 MLOAD DUP1 DUP4 SUB DUP2 DUP7 DUP1 EXTCODESIZE ISZERO DUP1 ISZERO PUSH2 0x9B3 JUMPI PUSH1 0x0 DUP1 REVERT JUMPDEST POP GAS STATICCALL ISZERO DUP1 ISZERO PUSH2 0x9C7 JUMPI RETURNDATASIZE PUSH1 0x0 DUP1 RETURNDATACOPY RETURNDATASIZE PUSH1 0x0 REVERT JUMPDEST POP POP POP POP PUSH1 0x40 MLOAD RETURNDATASIZE PUSH1 0x1F NOT PUSH1 0x1F DUP3 ADD AND DUP3 ADD DUP1 PUSH1 0x40 MSTORE POP DUP2 ADD SWAP1 PUSH2 0x9EB SWAP2 SWAP1 PUSH2 0xDD7 JUMP JUMPDEST SWAP1 POP SWAP1 JUMP JUMPDEST PUSH1 0x0 PUSH2 0x9FB DUP3 PUSH2 0xD32 JUMP JUMPDEST SWAP1 POP DUP1 CALLVALUE LT ISZERO PUSH2 0xA40 JUMPI PUSH1 0x40 MLOAD PUSH32 0x8C379A000000000000000000000000000000000000000000000000000000000 DUP2 MSTORE PUSH1 0x4 ADD PUSH2 0xA37 SWAP1 PUSH2 0x11BC JUMP JUMPDEST PUSH1 0x40 MLOAD DUP1 SWAP2 SUB SWAP1 REVERT JUMPDEST PUSH1 0x0 DUP1 SLOAD SWAP1 PUSH2 0x100 EXP SWAP1 DIV PUSH20 0xFFFFFFFFFFFFFFFFFFFFFFFFFFFFFFFFFFFFFFFF AND PUSH20 0xFFFFFFFFFFFFFFFFFFFFFFFFFFFFFFFFFFFFFFFF AND PUSH4 0x70A08231 PUSH1 0x2 PUSH1 0x0 SWAP1 SLOAD SWAP1 PUSH2 0x100 EXP SWAP1 DIV PUSH20 0xFFFFFFFFFFFFFFFFFFFFFFFFFFFFFFFFFFFFFFFF AND PUSH1 0x40 MLOAD DUP3 PUSH4 0xFFFFFFFF AND PUSH1 0xE0 SHL DUP2 MSTORE PUSH1 0x4 ADD PUSH2 0xABB SWAP2 SWAP1 PUSH2 0x10C4 JUMP JUMPDEST PUSH1 0x20 PUSH1 0x40 MLOAD DUP1 DUP4 SUB DUP2 DUP7 DUP1 EXTCODESIZE ISZERO DUP1 ISZERO PUSH2 0xAD3 JUMPI PUSH1 0x0 DUP1 REVERT JUMPDEST POP GAS STATICCALL ISZERO DUP1 ISZERO PUSH2 0xAE7 JUMPI RETURNDATASIZE PUSH1 0x0 DUP1 RETURNDATACOPY RETURNDATASIZE PUSH1 0x0 REVERT JUMPDEST POP POP POP POP PUSH1 0x40 MLOAD RETURNDATASIZE PUSH1 0x1F NOT PUSH1 0x1F DUP3 ADD AND DUP3 ADD DUP1 PUSH1 0x40 MSTORE POP DUP2 ADD SWAP1 PUSH2 0xB0B SWAP2 SWAP1 PUSH2 0xDD7 JUMP JUMPDEST DUP3 GT ISZERO PUSH2 0xB4D JUMPI PUSH1 0x40 MLOAD PUSH32 0x8C379A000000000000000000000000000000000000000000000000000000000 DUP2 MSTORE PUSH1 0x4 ADD PUSH2 0xB44 SWAP1 PUSH2 0x11DC JUMP JUMPDEST PUSH1 0x40 MLOAD DUP1 SWAP2 SUB SWAP1 REVERT JUMPDEST CALLER PUSH20 0xFFFFFFFFFFFFFFFFFFFFFFFFFFFFFFFFFFFFFFFF AND PUSH2 0x8FC DUP3 CALLVALUE SUB SWAP1 DUP2 ISZERO MUL SWAP1 PUSH1 0x40 MLOAD PUSH1 0x0 PUSH1 0x40 MLOAD DUP1 DUP4 SUB DUP2 DUP6 DUP9 DUP9 CALL SWAP4 POP POP POP POP ISZERO DUP1 ISZERO PUSH2 0xB95 JUMPI RETURNDATASIZE PUSH1 0x0 DUP1 RETURNDATACOPY RETURNDATASIZE PUSH1 0x0 REVERT JUMPDEST POP PUSH1 0x0 DUP1 SLOAD SWAP1 PUSH2 0x100 EXP SWAP1 DIV PUSH20 0xFFFFFFFFFFFFFFFFFFFFFFFFFFFFFFFFFFFFFFFF AND PUSH20 0xFFFFFFFFFFFFFFFFFFFFFFFFFFFFFFFFFFFFFFFF AND PUSH4 0xA9059CBB CALLER DUP5 PUSH1 0x40 MLOAD DUP4 PUSH4 0xFFFFFFFF AND PUSH1 0xE0 SHL DUP2 MSTORE PUSH1 0x4 ADD PUSH2 0xBF1 SWAP3 SWAP2 SWAP1 PUSH2 0x1131 JUMP JUMPDEST PUSH1 0x20 PUSH1 0x40 MLOAD DUP1 DUP4 SUB DUP2 PUSH1 0x0 DUP8 DUP1 EXTCODESIZE ISZERO DUP1 ISZERO PUSH2 0xC0B JUMPI PUSH1 0x0 DUP1 REVERT JUMPDEST POP GAS CALL ISZERO DUP1 ISZERO PUSH2 0xC1F JUMPI RETURNDATASIZE PUSH1 0x0 DUP1 RETURNDATACOPY RETURNDATASIZE PUSH1 0x0 REVERT JUMPDEST POP POP POP POP PUSH1 0x40 MLOAD RETURNDATASIZE PUSH1 0x1F NOT PUSH1 0x1F DUP3 ADD AND DUP3 ADD DUP1 PUSH1 0x40 MSTORE POP DUP2 ADD SWAP1 PUSH2 0xC43 SWAP2 SWAP1 PUSH2 0xD85 JUMP JUMPDEST POP PUSH32 0x1912293D843FE20A997ECEDFE6AB8B44B26FC0ED0D7D2E152158FFD021C9ACE3 DUP3 CALLER PUSH1 0x40 MLOAD PUSH2 0xC75 SWAP3 SWAP2 SWAP1 PUSH2 0x1237 JUMP JUMPDEST PUSH1 0x40 MLOAD DUP1 SWAP2 SUB SWAP1 LOG1 POP POP JUMP JUMPDEST PUSH1 0x0 DUP1 PUSH1 0x0 SWAP1 SLOAD SWAP1 PUSH2 0x100 EXP SWAP1 DIV PUSH20 0xFFFFFFFFFFFFFFFFFFFFFFFFFFFFFFFFFFFFFFFF AND PUSH20 0xFFFFFFFFFFFFFFFFFFFFFFFFFFFFFFFFFFFFFFFF AND PUSH4 0x70A08231 ADDRESS PUSH1 0x40 MLOAD DUP3 PUSH4 0xFFFFFFFF AND PUSH1 0xE0 SHL DUP2 MSTORE PUSH1 0x4 ADD PUSH2 0xCDD SWAP2 SWAP1 PUSH2 0x10C4 JUMP JUMPDEST PUSH1 0x20 PUSH1 0x40 MLOAD DUP1 DUP4 SUB DUP2 DUP7 DUP1 EXTCODESIZE ISZERO DUP1 ISZERO PUSH2 0xCF5 JUMPI PUSH1 0x0 DUP1 REVERT JUMPDEST POP GAS STATICCALL ISZERO DUP1 ISZERO PUSH2 0xD09 JUMPI RETURNDATASIZE PUSH1 0x0 DUP1 RETURNDATACOPY RETURNDATASIZE PUSH1 0x0 REVERT JUMPDEST POP POP POP POP PUSH1 0x40 MLOAD RETURNDATASIZE PUSH1 0x1F NOT PUSH1 0x1F DUP3 ADD AND DUP3 ADD DUP1 PUSH1 0x40 MSTORE POP DUP2 ADD SWAP1 PUSH2 0xD2D SWAP2 SWAP1 PUSH2 0xDD7 JUMP JUMPDEST SWAP1 POP SWAP1 JUMP JUMPDEST PUSH1 0x0 PUSH8 0xDE0B6B3A7640000 DUP3 MUL SWAP1 POP SWAP2 SWAP1 POP JUMP JUMPDEST PUSH1 0x0 DUP2 MLOAD SWAP1 POP PUSH2 0xD55 DUP2 PUSH2 0x1375 JUMP JUMPDEST SWAP3 SWAP2 POP POP JUMP JUMPDEST PUSH1 0x0 DUP2 CALLDATALOAD SWAP1 POP PUSH2 0xD6A DUP2 PUSH2 0x138C JUMP JUMPDEST SWAP3 SWAP2 POP POP JUMP JUMPDEST PUSH1 0x0 DUP2 MLOAD SWAP1 POP PUSH2 0xD7F DUP2 PUSH2 0x138C JUMP JUMPDEST SWAP3 SWAP2 POP POP JUMP JUMPDEST PUSH1 0x0 PUSH1 0x20 DUP3 DUP5 SUB SLT ISZERO PUSH2 0xD97 JUMPI PUSH1 0x0 DUP1 REVERT JUMPDEST PUSH1 0x0 PUSH2 0xDA5 DUP5 DUP3 DUP6 ADD PUSH2 0xD46 JUMP JUMPDEST SWAP2 POP POP SWAP3 SWAP2 POP POP JUMP JUMPDEST PUSH1 0x0 PUSH1 0x20 DUP3 DUP5 SUB SLT ISZERO PUSH2 0xDC0 JUMPI PUSH1 0x0 DUP1 REVERT JUMPDEST PUSH1 0x0 PUSH2 0xDCE DUP5 DUP3 DUP6 ADD PUSH2 0xD5B JUMP JUMPDEST SWAP2 POP POP SWAP3 SWAP2 POP POP JUMP JUMPDEST PUSH1 0x0 PUSH1 0x20 DUP3 DUP5 SUB SLT ISZERO PUSH2 0xDE9 JUMPI PUSH1 0x0 DUP1 REVERT JUMPDEST PUSH1 0x0 PUSH2 0xDF7 DUP5 DUP3 DUP6 ADD PUSH2 0xD70 JUMP JUMPDEST SWAP2 POP POP SWAP3 SWAP2 POP POP JUMP JUMPDEST PUSH1 0x0 PUSH2 0xE0C DUP4 DUP4 PUSH2 0x1037 JUMP JUMPDEST PUSH1 0x20 DUP4 ADD SWAP1 POP SWAP3 SWAP2 POP POP JUMP JUMPDEST PUSH2 0xE21 DUP2 PUSH2 0x1304 JUMP JUMPDEST DUP3 MSTORE POP POP JUMP JUMPDEST PUSH2 0xE38 PUSH2 0xE33 DUP3 PUSH2 0x12BC JUMP JUMPDEST PUSH2 0x133A JUMP JUMPDEST DUP3 MSTORE POP POP JUMP JUMPDEST PUSH2 0xE47 DUP2 PUSH2 0x12AA JUMP JUMPDEST DUP3 MSTORE POP POP JUMP JUMPDEST PUSH1 0x0 PUSH2 0xE58 DUP3 PUSH2 0x1270 JUMP JUMPDEST PUSH2 0xE62 DUP2 DUP6 PUSH2 0x1288 JUMP JUMPDEST SWAP4 POP PUSH2 0xE6D DUP4 PUSH2 0x1260 JUMP JUMPDEST DUP1 PUSH1 0x0 JUMPDEST DUP4 DUP2 LT ISZERO PUSH2 0xE9E JUMPI DUP2 MLOAD PUSH2 0xE85 DUP9 DUP3 PUSH2 0xE00 JUMP JUMPDEST SWAP8 POP PUSH2 0xE90 DUP4 PUSH2 0x127B JUMP JUMPDEST SWAP3 POP POP PUSH1 0x1 DUP2 ADD SWAP1 POP PUSH2 0xE71 JUMP JUMPDEST POP DUP6 SWAP4 POP POP POP POP SWAP3 SWAP2 POP POP JUMP JUMPDEST PUSH1 0x0 PUSH2 0xEB8 PUSH1 0x1F DUP4 PUSH2 0x1299 JUMP JUMPDEST SWAP2 POP PUSH32 0x43616E746964616420646520746F6B656E7320696E737566696369656E746500 PUSH1 0x0 DUP4 ADD MSTORE PUSH1 0x20 DUP3 ADD SWAP1 POP SWAP2 SWAP1 POP JUMP JUMPDEST PUSH1 0x0 PUSH2 0xEF8 PUSH1 0x2D DUP4 PUSH2 0x1299 JUMP JUMPDEST SWAP2 POP PUSH32 0x4E6F207469656E6573207065726D69736F73207061726120656A656375746172 PUSH1 0x0 DUP4 ADD MSTORE PUSH32 0x20657374612066756E63696F6E00000000000000000000000000000000000000 PUSH1 0x20 DUP4 ADD MSTORE PUSH1 0x40 DUP3 ADD SWAP1 POP SWAP2 SWAP1 POP JUMP JUMPDEST PUSH1 0x0 PUSH2 0xF5E PUSH1 0x1E DUP4 PUSH2 0x1299 JUMP JUMPDEST SWAP2 POP PUSH32 0x43616E746964616420646520657468657220696E737566696369656E74650000 PUSH1 0x0 DUP4 ADD MSTORE PUSH1 0x20 DUP3 ADD SWAP1 POP SWAP2 SWAP1 POP JUMP JUMPDEST PUSH1 0x0 PUSH2 0xF9E PUSH1 0x20 DUP4 PUSH2 0x1299 JUMP JUMPDEST SWAP2 POP PUSH32 0x43616E746964616420646520746F6B656E7320696E737566696369656E746573 PUSH1 0x0 DUP4 ADD MSTORE PUSH1 0x20 DUP3 ADD SWAP1 POP SWAP2 SWAP1 POP JUMP JUMPDEST PUSH1 0x0 PUSH2 0xFDE PUSH1 0x28 DUP4 PUSH2 0x1299 JUMP JUMPDEST SWAP2 POP PUSH32 0x4E6F2073652068612076656E6469646F206E696E67C3BA6E20626F6C65746F20 PUSH1 0x0 DUP4 ADD MSTORE PUSH32 0x746F646176C3AD61000000000000000000000000000000000000000000000000 PUSH1 0x20 DUP4 ADD MSTORE PUSH1 0x40 DUP3 ADD SWAP1 POP SWAP2 SWAP1 POP JUMP JUMPDEST PUSH2 0x1040 DUP2 PUSH2 0x12FA JUMP JUMPDEST DUP3 MSTORE POP POP JUMP JUMPDEST PUSH2 0x104F DUP2 PUSH2 0x12FA JUMP JUMPDEST DUP3 MSTORE POP POP JUMP JUMPDEST PUSH2 0x1066 PUSH2 0x1061 DUP3 PUSH2 0x12FA JUMP JUMPDEST PUSH2 0x135E JUMP JUMPDEST DUP3 MSTORE POP POP JUMP JUMPDEST PUSH1 0x0 PUSH2 0x1078 DUP3 DUP5 PUSH2 0x1055 JUMP JUMPDEST PUSH1 0x20 DUP3 ADD SWAP2 POP DUP2 SWAP1 POP SWAP3 SWAP2 POP POP JUMP JUMPDEST PUSH1 0x0 PUSH2 0x1093 DUP3 DUP7 PUSH2 0x1055 JUMP JUMPDEST PUSH1 0x20 DUP3 ADD SWAP2 POP PUSH2 0x10A3 DUP3 DUP6 PUSH2 0xE27 JUMP JUMPDEST PUSH1 0x14 DUP3 ADD SWAP2 POP PUSH2 0x10B3 DUP3 DUP5 PUSH2 0x1055 JUMP JUMPDEST PUSH1 0x20 DUP3 ADD SWAP2 POP DUP2 SWAP1 POP SWAP5 SWAP4 POP POP POP POP JUMP JUMPDEST PUSH1 0x0 PUSH1 0x20 DUP3 ADD SWAP1 POP PUSH2 0x10D9 PUSH1 0x0 DUP4 ADD DUP5 PUSH2 0xE3E JUMP JUMPDEST SWAP3 SWAP2 POP POP JUMP JUMPDEST PUSH1 0x0 PUSH1 0x20 DUP3 ADD SWAP1 POP PUSH2 0x10F4 PUSH1 0x0 DUP4 ADD DUP5 PUSH2 0xE18 JUMP JUMPDEST SWAP3 SWAP2 POP POP JUMP JUMPDEST PUSH1 0x0 PUSH1 0x60 DUP3 ADD SWAP1 POP PUSH2 0x110F PUSH1 0x0 DUP4 ADD DUP7 PUSH2 0xE18 JUMP JUMPDEST PUSH2 0x111C PUSH1 0x20 DUP4 ADD DUP6 PUSH2 0xE3E JUMP JUMPDEST PUSH2 0x1129 PUSH1 0x40 DUP4 ADD DUP5 PUSH2 0x1046 JUMP JUMPDEST SWAP5 SWAP4 POP POP POP POP JUMP JUMPDEST PUSH1 0x0 PUSH1 0x40 DUP3 ADD SWAP1 POP PUSH2 0x1146 PUSH1 0x0 DUP4 ADD DUP6 PUSH2 0xE18 JUMP JUMPDEST PUSH2 0x1153 PUSH1 0x20 DUP4 ADD DUP5 PUSH2 0x1046 JUMP JUMPDEST SWAP4 SWAP3 POP POP POP JUMP JUMPDEST PUSH1 0x0 PUSH1 0x20 DUP3 ADD SWAP1 POP DUP2 DUP2 SUB PUSH1 0x0 DUP4 ADD MSTORE PUSH2 0x1174 DUP2 DUP5 PUSH2 0xE4D JUMP JUMPDEST SWAP1 POP SWAP3 SWAP2 POP POP JUMP JUMPDEST PUSH1 0x0 PUSH1 0x20 DUP3 ADD SWAP1 POP DUP2 DUP2 SUB PUSH1 0x0 DUP4 ADD MSTORE PUSH2 0x1195 DUP2 PUSH2 0xEAB JUMP JUMPDEST SWAP1 POP SWAP2 SWAP1 POP JUMP JUMPDEST PUSH1 0x0 PUSH1 0x20 DUP3 ADD SWAP1 POP DUP2 DUP2 SUB PUSH1 0x0 DUP4 ADD MSTORE PUSH2 0x11B5 DUP2 PUSH2 0xEEB JUMP JUMPDEST SWAP1 POP SWAP2 SWAP1 POP JUMP JUMPDEST PUSH1 0x0 PUSH1 0x20 DUP3 ADD SWAP1 POP DUP2 DUP2 SUB PUSH1 0x0 DUP4 ADD MSTORE PUSH2 0x11D5 DUP2 PUSH2 0xF51 JUMP JUMPDEST SWAP1 POP SWAP2 SWAP1 POP JUMP JUMPDEST PUSH1 0x0 PUSH1 0x20 DUP3 ADD SWAP1 POP DUP2 DUP2 SUB PUSH1 0x0 DUP4 ADD MSTORE PUSH2 0x11F5 DUP2 PUSH2 0xF91 JUMP JUMPDEST SWAP1 POP SWAP2 SWAP1 POP JUMP JUMPDEST PUSH1 0x0 PUSH1 0x20 DUP3 ADD SWAP1 POP DUP2 DUP2 SUB PUSH1 0x0 DUP4 ADD MSTORE PUSH2 0x1215 DUP2 PUSH2 0xFD1 JUMP JUMPDEST SWAP1 POP SWAP2 SWAP1 POP JUMP JUMPDEST PUSH1 0x0 PUSH1 0x20 DUP3 ADD SWAP1 POP PUSH2 0x1231 PUSH1 0x0 DUP4 ADD DUP5 PUSH2 0x1046 JUMP JUMPDEST SWAP3 SWAP2 POP POP JUMP JUMPDEST PUSH1 0x0 PUSH1 0x40 DUP3 ADD SWAP1 POP PUSH2 0x124C PUSH1 0x0 DUP4 ADD DUP6 PUSH2 0x1046 JUMP JUMPDEST PUSH2 0x1259 PUSH1 0x20 DUP4 ADD DUP5 PUSH2 0xE18 JUMP JUMPDEST SWAP4 SWAP3 POP POP POP JUMP JUMPDEST PUSH1 0x0 DUP2 SWAP1 POP PUSH1 0x20 DUP3 ADD SWAP1 POP SWAP2 SWAP1 POP JUMP JUMPDEST PUSH1 0x0 DUP2 MLOAD SWAP1 POP SWAP2 SWAP1 POP JUMP JUMPDEST PUSH1 0x0 PUSH1 0x20 DUP3 ADD SWAP1 POP SWAP2 SWAP1 POP JUMP JUMPDEST PUSH1 0x0 DUP3 DUP3 MSTORE PUSH1 0x20 DUP3 ADD SWAP1 POP SWAP3 SWAP2 POP POP JUMP JUMPDEST PUSH1 0x0 DUP3 DUP3 MSTORE PUSH1 0x20 DUP3 ADD SWAP1 POP SWAP3 SWAP2 POP POP JUMP JUMPDEST PUSH1 0x0 PUSH2 0x12B5 DUP3 PUSH2 0x12DA JUMP JUMPDEST SWAP1 POP SWAP2 SWAP1 POP JUMP JUMPDEST PUSH1 0x0 PUSH2 0x12C7 DUP3 PUSH2 0x12DA JUMP JUMPDEST SWAP1 POP SWAP2 SWAP1 POP JUMP JUMPDEST PUSH1 0x0 DUP2 ISZERO ISZERO SWAP1 POP SWAP2 SWAP1 POP JUMP JUMPDEST PUSH1 0x0 PUSH20 0xFFFFFFFFFFFFFFFFFFFFFFFFFFFFFFFFFFFFFFFF DUP3 AND SWAP1 POP SWAP2 SWAP1 POP JUMP JUMPDEST PUSH1 0x0 DUP2 SWAP1 POP SWAP2 SWAP1 POP JUMP JUMPDEST PUSH1 0x0 PUSH2 0x130F DUP3 PUSH2 0x1316 JUMP JUMPDEST SWAP1 POP SWAP2 SWAP1 POP JUMP JUMPDEST PUSH1 0x0 PUSH2 0x1321 DUP3 PUSH2 0x1328 JUMP JUMPDEST SWAP1 POP SWAP2 SWAP1 POP JUMP JUMPDEST PUSH1 0x0 PUSH2 0x1333 DUP3 PUSH2 0x12DA JUMP JUMPDEST SWAP1 POP SWAP2 SWAP1 POP JUMP JUMPDEST PUSH1 0x0 PUSH2 0x1345 DUP3 PUSH2 0x134C JUMP JUMPDEST SWAP1 POP SWAP2 SWAP1 POP JUMP JUMPDEST PUSH1 0x0 PUSH2 0x1357 DUP3 PUSH2 0x1368 JUMP JUMPDEST SWAP1 POP SWAP2 SWAP1 POP JUMP JUMPDEST PUSH1 0x0 DUP2 SWAP1 POP SWAP2 SWAP1 POP JUMP JUMPDEST PUSH1 0x0 DUP2 PUSH1 0x60 SHL SWAP1 POP SWAP2 SWAP1 POP JUMP JUMPDEST PUSH2 0x137E DUP2 PUSH2 0x12CE JUMP JUMPDEST DUP2 EQ PUSH2 0x1389 JUMPI PUSH1 0x0 DUP1 REVERT JUMPDEST POP JUMP JUMPDEST PUSH2 0x1395 DUP2 PUSH2 0x12FA JUMP JUMPDEST DUP2 EQ PUSH2 0x13A0 JUMPI PUSH1 0x0 DUP1 REVERT JUMPDEST POP JUMP INVALID LOG2 PUSH5 0x6970667358 0x22 SLT KECCAK256 LOG2 0xE9 0x5F 0xC8 0x2F EXTCODESIZE PUSH21 0x66D2C42191314345B75A6FBBC8276A36AC5556902D PUSH28 0xDC5E5464736F6C634300060C00336080604052348015610010576000 DUP1 REVERT JUMPDEST POP PUSH1 0x40 MLOAD PUSH2 0x109D CODESIZE SUB DUP1 PUSH2 0x109D DUP4 CODECOPY DUP2 DUP2 ADD PUSH1 0x40 MSTORE DUP2 ADD SWAP1 PUSH2 0x32 SWAP2 SWAP1 PUSH2 0x99 JUMP JUMPDEST DUP1 PUSH1 0x2 DUP2 SWAP1 SSTORE POP PUSH1 0x2 SLOAD PUSH1 0x0 DUP1 CALLER PUSH20 0xFFFFFFFFFFFFFFFFFFFFFFFFFFFFFFFFFFFFFFFF AND PUSH20 0xFFFFFFFFFFFFFFFFFFFFFFFFFFFFFFFFFFFFFFFF AND DUP2 MSTORE PUSH1 0x20 ADD SWAP1 DUP2 MSTORE PUSH1 0x20 ADD PUSH1 0x0 KECCAK256 DUP2 SWAP1 SSTORE POP POP PUSH2 0xE3 JUMP JUMPDEST PUSH1 0x0 DUP2 MLOAD SWAP1 POP PUSH2 0x93 DUP2 PUSH2 0xCC JUMP JUMPDEST SWAP3 SWAP2 POP POP JUMP JUMPDEST PUSH1 0x0 PUSH1 0x20 DUP3 DUP5 SUB SLT ISZERO PUSH2 0xAB JUMPI PUSH1 0x0 DUP1 REVERT JUMPDEST PUSH1 0x0 PUSH2 0xB9 DUP5 DUP3 DUP6 ADD PUSH2 0x84 JUMP JUMPDEST SWAP2 POP POP SWAP3 SWAP2 POP POP JUMP JUMPDEST PUSH1 0x0 DUP2 SWAP1 POP SWAP2 SWAP1 POP JUMP JUMPDEST PUSH2 0xD5 DUP2 PUSH2 0xC2 JUMP JUMPDEST DUP2 EQ PUSH2 0xE0 JUMPI PUSH1 0x0 DUP1 REVERT JUMPDEST POP JUMP JUMPDEST PUSH2 0xFAB DUP1 PUSH2 0xF2 PUSH1 0x0 CODECOPY PUSH1 0x0 RETURN INVALID PUSH1 0x80 PUSH1 0x40 MSTORE CALLVALUE DUP1 ISZERO PUSH2 0x10 JUMPI PUSH1 0x0 DUP1 REVERT JUMPDEST POP PUSH1 0x4 CALLDATASIZE LT PUSH2 0xA9 JUMPI PUSH1 0x0 CALLDATALOAD PUSH1 0xE0 SHR DUP1 PUSH4 0x313CE567 GT PUSH2 0x71 JUMPI DUP1 PUSH4 0x313CE567 EQ PUSH2 0x166 JUMPI DUP1 PUSH4 0x5C79FEBB EQ PUSH2 0x184 JUMPI DUP1 PUSH4 0x70A08231 EQ PUSH2 0x1B4 JUMPI DUP1 PUSH4 0x95D89B41 EQ PUSH2 0x1E4 JUMPI DUP1 PUSH4 0xA9059CBB EQ PUSH2 0x202 JUMPI DUP1 PUSH4 0xDD62ED3E EQ PUSH2 0x232 JUMPI PUSH2 0xA9 JUMP JUMPDEST DUP1 PUSH4 0x6FDDE03 EQ PUSH2 0xAE JUMPI DUP1 PUSH4 0x95EA7B3 EQ PUSH2 0xCC JUMPI DUP1 PUSH4 0x18160DDD EQ PUSH2 0xFC JUMPI DUP1 PUSH4 0x1D43CC98 EQ PUSH2 0x11A JUMPI DUP1 PUSH4 0x23B872DD EQ PUSH2 0x136 JUMPI JUMPDEST PUSH1 0x0 DUP1 REVERT JUMPDEST PUSH2 0xB6 PUSH2 0x262 JUMP JUMPDEST PUSH1 0x40 MLOAD PUSH2 0xC3 SWAP2 SWAP1 PUSH2 0xE3A JUMP JUMPDEST PUSH1 0x40 MLOAD DUP1 SWAP2 SUB SWAP1 RETURN JUMPDEST PUSH2 0xE6 PUSH1 0x4 DUP1 CALLDATASIZE SUB DUP2 ADD SWAP1 PUSH2 0xE1 SWAP2 SWAP1 PUSH2 0xD54 JUMP JUMPDEST PUSH2 0x29B JUMP JUMPDEST PUSH1 0x40 MLOAD PUSH2 0xF3 SWAP2 SWAP1 PUSH2 0xE1F JUMP JUMPDEST PUSH1 0x40 MLOAD DUP1 SWAP2 SUB SWAP1 RETURN JUMPDEST PUSH2 0x104 PUSH2 0x38D JUMP JUMPDEST PUSH1 0x40 MLOAD PUSH2 0x111 SWAP2 SWAP1 PUSH2 0xE5C JUMP JUMPDEST PUSH1 0x40 MLOAD DUP1 SWAP2 SUB SWAP1 RETURN JUMPDEST PUSH2 0x134 PUSH1 0x4 DUP1 CALLDATASIZE SUB DUP2 ADD SWAP1 PUSH2 0x12F SWAP2 SWAP1 PUSH2 0xD90 JUMP JUMPDEST PUSH2 0x397 JUMP JUMPDEST STOP JUMPDEST PUSH2 0x150 PUSH1 0x4 DUP1 CALLDATASIZE SUB DUP2 ADD SWAP1 PUSH2 0x14B SWAP2 SWAP1 PUSH2 0xD05 JUMP JUMPDEST PUSH2 0x3F6 JUMP JUMPDEST PUSH1 0x40 MLOAD PUSH2 0x15D SWAP2 SWAP1 PUSH2 0xE1F JUMP JUMPDEST PUSH1 0x40 MLOAD DUP1 SWAP2 SUB SWAP1 RETURN JUMPDEST PUSH2 0x16E PUSH2 0x771 JUMP JUMPDEST PUSH1 0x40 MLOAD PUSH2 0x17B SWAP2 SWAP1 PUSH2 0xE77 JUMP JUMPDEST PUSH1 0x40 MLOAD DUP1 SWAP2 SUB SWAP1 RETURN JUMPDEST PUSH2 0x19E PUSH1 0x4 DUP1 CALLDATASIZE SUB DUP2 ADD SWAP1 PUSH2 0x199 SWAP2 SWAP1 PUSH2 0xD05 JUMP JUMPDEST PUSH2 0x776 JUMP JUMPDEST PUSH1 0x40 MLOAD PUSH2 0x1AB SWAP2 SWAP1 PUSH2 0xE1F JUMP JUMPDEST PUSH1 0x40 MLOAD DUP1 SWAP2 SUB SWAP1 RETURN JUMPDEST PUSH2 0x1CE PUSH1 0x4 DUP1 CALLDATASIZE SUB DUP2 ADD SWAP1 PUSH2 0x1C9 SWAP2 SWAP1 PUSH2 0xCA0 JUMP JUMPDEST PUSH2 0x959 JUMP JUMPDEST PUSH1 0x40 MLOAD PUSH2 0x1DB SWAP2 SWAP1 PUSH2 0xE5C JUMP JUMPDEST PUSH1 0x40 MLOAD DUP1 SWAP2 SUB SWAP1 RETURN JUMPDEST PUSH2 0x1EC PUSH2 0x9A1 JUMP JUMPDEST PUSH1 0x40 MLOAD PUSH2 0x1F9 SWAP2 SWAP1 PUSH2 0xE3A JUMP JUMPDEST PUSH1 0x40 MLOAD DUP1 SWAP2 SUB SWAP1 RETURN JUMPDEST PUSH2 0x21C PUSH1 0x4 DUP1 CALLDATASIZE SUB DUP2 ADD SWAP1 PUSH2 0x217 SWAP2 SWAP1 PUSH2 0xD54 JUMP JUMPDEST PUSH2 0x9DA JUMP JUMPDEST PUSH1 0x40 MLOAD PUSH2 0x229 SWAP2 SWAP1 PUSH2 0xE1F JUMP JUMPDEST PUSH1 0x40 MLOAD DUP1 SWAP2 SUB SWAP1 RETURN JUMPDEST PUSH2 0x24C PUSH1 0x4 DUP1 CALLDATASIZE SUB DUP2 ADD SWAP1 PUSH2 0x247 SWAP2 SWAP1 PUSH2 0xCC9 JUMP JUMPDEST PUSH2 0xBBC JUMP JUMPDEST PUSH1 0x40 MLOAD PUSH2 0x259 SWAP2 SWAP1 PUSH2 0xE5C JUMP JUMPDEST PUSH1 0x40 MLOAD DUP1 SWAP2 SUB SWAP1 RETURN JUMPDEST PUSH1 0x40 MLOAD DUP1 PUSH1 0x40 ADD PUSH1 0x40 MSTORE DUP1 PUSH1 0xC DUP2 MSTORE PUSH1 0x20 ADD PUSH32 0x4552433230414B414C75676F0000000000000000000000000000000000000000 DUP2 MSTORE POP DUP2 JUMP JUMPDEST PUSH1 0x0 DUP2 PUSH1 0x1 PUSH1 0x0 CALLER PUSH20 0xFFFFFFFFFFFFFFFFFFFFFFFFFFFFFFFFFFFFFFFF AND PUSH20 0xFFFFFFFFFFFFFFFFFFFFFFFFFFFFFFFFFFFFFFFF AND DUP2 MSTORE PUSH1 0x20 ADD SWAP1 DUP2 MSTORE PUSH1 0x20 ADD PUSH1 0x0 KECCAK256 PUSH1 0x0 DUP6 PUSH20 0xFFFFFFFFFFFFFFFFFFFFFFFFFFFFFFFFFFFFFFFF AND PUSH20 0xFFFFFFFFFFFFFFFFFFFFFFFFFFFFFFFFFFFFFFFF AND DUP2 MSTORE PUSH1 0x20 ADD SWAP1 DUP2 MSTORE PUSH1 0x20 ADD PUSH1 0x0 KECCAK256 DUP2 SWAP1 SSTORE POP DUP3 PUSH20 0xFFFFFFFFFFFFFFFFFFFFFFFFFFFFFFFFFFFFFFFF AND CALLER PUSH20 0xFFFFFFFFFFFFFFFFFFFFFFFFFFFFFFFFFFFFFFFF AND PUSH32 0x8C5BE1E5EBEC7D5BD14F71427D1E84F3DD0314C0F7B2291E5B200AC8C7C3B925 DUP5 PUSH1 0x40 MLOAD PUSH2 0x37B SWAP2 SWAP1 PUSH2 0xE5C JUMP JUMPDEST PUSH1 0x40 MLOAD DUP1 SWAP2 SUB SWAP1 LOG3 PUSH1 0x1 SWAP1 POP SWAP3 SWAP2 POP POP JUMP JUMPDEST PUSH1 0x0 PUSH1 0x2 SLOAD SWAP1 POP SWAP1 JUMP JUMPDEST DUP1 PUSH1 0x2 PUSH1 0x0 DUP3 DUP3 SLOAD ADD SWAP3 POP POP DUP2 SWAP1 SSTORE POP DUP1 PUSH1 0x0 DUP1 CALLER PUSH20 0xFFFFFFFFFFFFFFFFFFFFFFFFFFFFFFFFFFFFFFFF AND PUSH20 0xFFFFFFFFFFFFFFFFFFFFFFFFFFFFFFFFFFFFFFFF AND DUP2 MSTORE PUSH1 0x20 ADD SWAP1 DUP2 MSTORE PUSH1 0x20 ADD PUSH1 0x0 KECCAK256 PUSH1 0x0 DUP3 DUP3 SLOAD ADD SWAP3 POP POP DUP2 SWAP1 SSTORE POP POP JUMP JUMPDEST PUSH1 0x0 DUP2 PUSH1 0x0 DUP1 DUP7 PUSH20 0xFFFFFFFFFFFFFFFFFFFFFFFFFFFFFFFFFFFFFFFF AND PUSH20 0xFFFFFFFFFFFFFFFFFFFFFFFFFFFFFFFFFFFFFFFF AND DUP2 MSTORE PUSH1 0x20 ADD SWAP1 DUP2 MSTORE PUSH1 0x20 ADD PUSH1 0x0 KECCAK256 SLOAD LT ISZERO PUSH2 0x443 JUMPI PUSH1 0x0 DUP1 REVERT JUMPDEST DUP2 PUSH1 0x1 PUSH1 0x0 DUP7 PUSH20 0xFFFFFFFFFFFFFFFFFFFFFFFFFFFFFFFFFFFFFFFF AND PUSH20 0xFFFFFFFFFFFFFFFFFFFFFFFFFFFFFFFFFFFFFFFF AND DUP2 MSTORE PUSH1 0x20 ADD SWAP1 DUP2 MSTORE PUSH1 0x20 ADD PUSH1 0x0 KECCAK256 PUSH1 0x0 CALLER PUSH20 0xFFFFFFFFFFFFFFFFFFFFFFFFFFFFFFFFFFFFFFFF AND PUSH20 0xFFFFFFFFFFFFFFFFFFFFFFFFFFFFFFFFFFFFFFFF AND DUP2 MSTORE PUSH1 0x20 ADD SWAP1 DUP2 MSTORE PUSH1 0x20 ADD PUSH1 0x0 KECCAK256 SLOAD LT ISZERO PUSH2 0x4CC JUMPI PUSH1 0x0 DUP1 REVERT JUMPDEST PUSH2 0x51D DUP3 PUSH1 0x0 DUP1 DUP8 PUSH20 0xFFFFFFFFFFFFFFFFFFFFFFFFFFFFFFFFFFFFFFFF AND PUSH20 0xFFFFFFFFFFFFFFFFFFFFFFFFFFFFFFFFFFFFFFFF AND DUP2 MSTORE PUSH1 0x20 ADD SWAP1 DUP2 MSTORE PUSH1 0x20 ADD PUSH1 0x0 KECCAK256 SLOAD PUSH2 0xC43 SWAP1 SWAP2 SWAP1 PUSH4 0xFFFFFFFF AND JUMP JUMPDEST PUSH1 0x0 DUP1 DUP7 PUSH20 0xFFFFFFFFFFFFFFFFFFFFFFFFFFFFFFFFFFFFFFFF AND PUSH20 0xFFFFFFFFFFFFFFFFFFFFFFFFFFFFFFFFFFFFFFFF AND DUP2 MSTORE PUSH1 0x20 ADD SWAP1 DUP2 MSTORE PUSH1 0x20 ADD PUSH1 0x0 KECCAK256 DUP2 SWAP1 SSTORE POP PUSH2 0x5EE DUP3 PUSH1 0x1 PUSH1 0x0 DUP8 PUSH20 0xFFFFFFFFFFFFFFFFFFFFFFFFFFFFFFFFFFFFFFFF AND PUSH20 0xFFFFFFFFFFFFFFFFFFFFFFFFFFFFFFFFFFFFFFFF AND DUP2 MSTORE PUSH1 0x20 ADD SWAP1 DUP2 MSTORE PUSH1 0x20 ADD PUSH1 0x0 KECCAK256 PUSH1 0x0 CALLER PUSH20 0xFFFFFFFFFFFFFFFFFFFFFFFFFFFFFFFFFFFFFFFF AND PUSH20 0xFFFFFFFFFFFFFFFFFFFFFFFFFFFFFFFFFFFFFFFF AND DUP2 MSTORE PUSH1 0x20 ADD SWAP1 DUP2 MSTORE PUSH1 0x20 ADD PUSH1 0x0 KECCAK256 SLOAD PUSH2 0xC43 SWAP1 SWAP2 SWAP1 PUSH4 0xFFFFFFFF AND JUMP JUMPDEST PUSH1 0x1 PUSH1 0x0 DUP7 PUSH20 0xFFFFFFFFFFFFFFFFFFFFFFFFFFFFFFFFFFFFFFFF AND PUSH20 0xFFFFFFFFFFFFFFFFFFFFFFFFFFFFFFFFFFFFFFFF AND DUP2 MSTORE PUSH1 0x20 ADD SWAP1 DUP2 MSTORE PUSH1 0x20 ADD PUSH1 0x0 KECCAK256 PUSH1 0x0 CALLER PUSH20 0xFFFFFFFFFFFFFFFFFFFFFFFFFFFFFFFFFFFFFFFF AND PUSH20 0xFFFFFFFFFFFFFFFFFFFFFFFFFFFFFFFFFFFFFFFF AND DUP2 MSTORE PUSH1 0x20 ADD SWAP1 DUP2 MSTORE PUSH1 0x20 ADD PUSH1 0x0 KECCAK256 DUP2 SWAP1 SSTORE POP PUSH2 0x6BF DUP3 PUSH1 0x0 DUP1 DUP7 PUSH20 0xFFFFFFFFFFFFFFFFFFFFFFFFFFFFFFFFFFFFFFFF AND PUSH20 0xFFFFFFFFFFFFFFFFFFFFFFFFFFFFFFFFFFFFFFFF AND DUP2 MSTORE PUSH1 0x20 ADD SWAP1 DUP2 MSTORE PUSH1 0x20 ADD PUSH1 0x0 KECCAK256 SLOAD PUSH2 0xC5A SWAP1 SWAP2 SWAP1 PUSH4 0xFFFFFFFF AND JUMP JUMPDEST PUSH1 0x0 DUP1 DUP6 PUSH20 0xFFFFFFFFFFFFFFFFFFFFFFFFFFFFFFFFFFFFFFFF AND PUSH20 0xFFFFFFFFFFFFFFFFFFFFFFFFFFFFFFFFFFFFFFFF AND DUP2 MSTORE PUSH1 0x20 ADD SWAP1 DUP2 MSTORE PUSH1 0x20 ADD PUSH1 0x0 KECCAK256 DUP2 SWAP1 SSTORE POP DUP3 PUSH20 0xFFFFFFFFFFFFFFFFFFFFFFFFFFFFFFFFFFFFFFFF AND DUP5 PUSH20 0xFFFFFFFFFFFFFFFFFFFFFFFFFFFFFFFFFFFFFFFF AND PUSH32 0xDDF252AD1BE2C89B69C2B068FC378DAA952BA7F163C4A11628F55A4DF523B3EF DUP5 PUSH1 0x40 MLOAD PUSH2 0x75E SWAP2 SWAP1 PUSH2 0xE5C JUMP JUMPDEST PUSH1 0x40 MLOAD DUP1 SWAP2 SUB SWAP1 LOG3 PUSH1 0x1 SWAP1 POP SWAP4 SWAP3 POP POP POP JUMP JUMPDEST PUSH1 0x12 DUP2 JUMP JUMPDEST PUSH1 0x0 DUP1 PUSH1 0x0 DUP6 PUSH20 0xFFFFFFFFFFFFFFFFFFFFFFFFFFFFFFFFFFFFFFFF AND PUSH20 0xFFFFFFFFFFFFFFFFFFFFFFFFFFFFFFFFFFFFFFFF AND DUP2 MSTORE PUSH1 0x20 ADD SWAP1 DUP2 MSTORE PUSH1 0x20 ADD PUSH1 0x0 KECCAK256 SLOAD DUP3 GT ISZERO PUSH2 0x7C3 JUMPI PUSH1 0x0 DUP1 REVERT JUMPDEST PUSH2 0x814 DUP3 PUSH1 0x0 DUP1 DUP8 PUSH20 0xFFFFFFFFFFFFFFFFFFFFFFFFFFFFFFFFFFFFFFFF AND PUSH20 0xFFFFFFFFFFFFFFFFFFFFFFFFFFFFFFFFFFFFFFFF AND DUP2 MSTORE PUSH1 0x20 ADD SWAP1 DUP2 MSTORE PUSH1 0x20 ADD PUSH1 0x0 KECCAK256 SLOAD PUSH2 0xC43 SWAP1 SWAP2 SWAP1 PUSH4 0xFFFFFFFF AND JUMP JUMPDEST PUSH1 0x0 DUP1 DUP7 PUSH20 0xFFFFFFFFFFFFFFFFFFFFFFFFFFFFFFFFFFFFFFFF AND PUSH20 0xFFFFFFFFFFFFFFFFFFFFFFFFFFFFFFFFFFFFFFFF AND DUP2 MSTORE PUSH1 0x20 ADD SWAP1 DUP2 MSTORE PUSH1 0x20 ADD PUSH1 0x0 KECCAK256 DUP2 SWAP1 SSTORE POP PUSH2 0x8A7 DUP3 PUSH1 0x0 DUP1 DUP7 PUSH20 0xFFFFFFFFFFFFFFFFFFFFFFFFFFFFFFFFFFFFFFFF AND PUSH20 0xFFFFFFFFFFFFFFFFFFFFFFFFFFFFFFFFFFFFFFFF AND DUP2 MSTORE PUSH1 0x20 ADD SWAP1 DUP2 MSTORE PUSH1 0x20 ADD PUSH1 0x0 KECCAK256 SLOAD PUSH2 0xC5A SWAP1 SWAP2 SWAP1 PUSH4 0xFFFFFFFF AND JUMP JUMPDEST PUSH1 0x0 DUP1 DUP6 PUSH20 0xFFFFFFFFFFFFFFFFFFFFFFFFFFFFFFFFFFFFFFFF AND PUSH20 0xFFFFFFFFFFFFFFFFFFFFFFFFFFFFFFFFFFFFFFFF AND DUP2 MSTORE PUSH1 0x20 ADD SWAP1 DUP2 MSTORE PUSH1 0x20 ADD PUSH1 0x0 KECCAK256 DUP2 SWAP1 SSTORE POP DUP3 PUSH20 0xFFFFFFFFFFFFFFFFFFFFFFFFFFFFFFFFFFFFFFFF AND DUP5 PUSH20 0xFFFFFFFFFFFFFFFFFFFFFFFFFFFFFFFFFFFFFFFF AND PUSH32 0xDDF252AD1BE2C89B69C2B068FC378DAA952BA7F163C4A11628F55A4DF523B3EF DUP5 PUSH1 0x40 MLOAD PUSH2 0x946 SWAP2 SWAP1 PUSH2 0xE5C JUMP JUMPDEST PUSH1 0x40 MLOAD DUP1 SWAP2 SUB SWAP1 LOG3 PUSH1 0x1 SWAP1 POP SWAP4 SWAP3 POP POP POP JUMP JUMPDEST PUSH1 0x0 DUP1 PUSH1 0x0 DUP4 PUSH20 0xFFFFFFFFFFFFFFFFFFFFFFFFFFFFFFFFFFFFFFFF AND PUSH20 0xFFFFFFFFFFFFFFFFFFFFFFFFFFFFFFFFFFFFFFFF AND DUP2 MSTORE PUSH1 0x20 ADD SWAP1 DUP2 MSTORE PUSH1 0x20 ADD PUSH1 0x0 KECCAK256 SLOAD SWAP1 POP SWAP2 SWAP1 POP JUMP JUMPDEST PUSH1 0x40 MLOAD DUP1 PUSH1 0x40 ADD PUSH1 0x40 MSTORE DUP1 PUSH1 0x3 DUP2 MSTORE PUSH1 0x20 ADD PUSH32 0x414B410000000000000000000000000000000000000000000000000000000000 DUP2 MSTORE POP DUP2 JUMP JUMPDEST PUSH1 0x0 DUP1 PUSH1 0x0 CALLER PUSH20 0xFFFFFFFFFFFFFFFFFFFFFFFFFFFFFFFFFFFFFFFF AND PUSH20 0xFFFFFFFFFFFFFFFFFFFFFFFFFFFFFFFFFFFFFFFF AND DUP2 MSTORE PUSH1 0x20 ADD SWAP1 DUP2 MSTORE PUSH1 0x20 ADD PUSH1 0x0 KECCAK256 SLOAD DUP3 GT ISZERO PUSH2 0xA27 JUMPI PUSH1 0x0 DUP1 REVERT JUMPDEST PUSH2 0xA78 DUP3 PUSH1 0x0 DUP1 CALLER PUSH20 0xFFFFFFFFFFFFFFFFFFFFFFFFFFFFFFFFFFFFFFFF AND PUSH20 0xFFFFFFFFFFFFFFFFFFFFFFFFFFFFFFFFFFFFFFFF AND DUP2 MSTORE PUSH1 0x20 ADD SWAP1 DUP2 MSTORE PUSH1 0x20 ADD PUSH1 0x0 KECCAK256 SLOAD PUSH2 0xC43 SWAP1 SWAP2 SWAP1 PUSH4 0xFFFFFFFF AND JUMP JUMPDEST PUSH1 0x0 DUP1 CALLER PUSH20 0xFFFFFFFFFFFFFFFFFFFFFFFFFFFFFFFFFFFFFFFF AND PUSH20 0xFFFFFFFFFFFFFFFFFFFFFFFFFFFFFFFFFFFFFFFF AND DUP2 MSTORE PUSH1 0x20 ADD SWAP1 DUP2 MSTORE PUSH1 0x20 ADD PUSH1 0x0 KECCAK256 DUP2 SWAP1 SSTORE POP PUSH2 0xB0B DUP3 PUSH1 0x0 DUP1 DUP7 PUSH20 0xFFFFFFFFFFFFFFFFFFFFFFFFFFFFFFFFFFFFFFFF AND PUSH20 0xFFFFFFFFFFFFFFFFFFFFFFFFFFFFFFFFFFFFFFFF AND DUP2 MSTORE PUSH1 0x20 ADD SWAP1 DUP2 MSTORE PUSH1 0x20 ADD PUSH1 0x0 KECCAK256 SLOAD PUSH2 0xC5A SWAP1 SWAP2 SWAP1 PUSH4 0xFFFFFFFF AND JUMP JUMPDEST PUSH1 0x0 DUP1 DUP6 PUSH20 0xFFFFFFFFFFFFFFFFFFFFFFFFFFFFFFFFFFFFFFFF AND PUSH20 0xFFFFFFFFFFFFFFFFFFFFFFFFFFFFFFFFFFFFFFFF AND DUP2 MSTORE PUSH1 0x20 ADD SWAP1 DUP2 MSTORE PUSH1 0x20 ADD PUSH1 0x0 KECCAK256 DUP2 SWAP1 SSTORE POP DUP3 PUSH20 0xFFFFFFFFFFFFFFFFFFFFFFFFFFFFFFFFFFFFFFFF AND CALLER PUSH20 0xFFFFFFFFFFFFFFFFFFFFFFFFFFFFFFFFFFFFFFFF AND PUSH32 0xDDF252AD1BE2C89B69C2B068FC378DAA952BA7F163C4A11628F55A4DF523B3EF DUP5 PUSH1 0x40 MLOAD PUSH2 0xBAA SWAP2 SWAP1 PUSH2 0xE5C JUMP JUMPDEST PUSH1 0x40 MLOAD DUP1 SWAP2 SUB SWAP1 LOG3 PUSH1 0x1 SWAP1 POP SWAP3 SWAP2 POP POP JUMP JUMPDEST PUSH1 0x0 PUSH1 0x1 PUSH1 0x0 DUP5 PUSH20 0xFFFFFFFFFFFFFFFFFFFFFFFFFFFFFFFFFFFFFFFF AND PUSH20 0xFFFFFFFFFFFFFFFFFFFFFFFFFFFFFFFFFFFFFFFF AND DUP2 MSTORE PUSH1 0x20 ADD SWAP1 DUP2 MSTORE PUSH1 0x20 ADD PUSH1 0x0 KECCAK256 PUSH1 0x0 DUP4 PUSH20 0xFFFFFFFFFFFFFFFFFFFFFFFFFFFFFFFFFFFFFFFF AND PUSH20 0xFFFFFFFFFFFFFFFFFFFFFFFFFFFFFFFFFFFFFFFF AND DUP2 MSTORE PUSH1 0x20 ADD SWAP1 DUP2 MSTORE PUSH1 0x20 ADD PUSH1 0x0 KECCAK256 SLOAD SWAP1 POP SWAP3 SWAP2 POP POP JUMP JUMPDEST PUSH1 0x0 DUP3 DUP3 GT ISZERO PUSH2 0xC4F JUMPI INVALID JUMPDEST DUP2 DUP4 SUB SWAP1 POP SWAP3 SWAP2 POP POP JUMP JUMPDEST PUSH1 0x0 DUP1 DUP3 DUP5 ADD SWAP1 POP DUP4 DUP2 LT ISZERO PUSH2 0xC6C JUMPI INVALID JUMPDEST DUP1 SWAP2 POP POP SWAP3 SWAP2 POP POP JUMP JUMPDEST PUSH1 0x0 DUP2 CALLDATALOAD SWAP1 POP PUSH2 0xC85 DUP2 PUSH2 0xF47 JUMP JUMPDEST SWAP3 SWAP2 POP POP JUMP JUMPDEST PUSH1 0x0 DUP2 CALLDATALOAD SWAP1 POP PUSH2 0xC9A DUP2 PUSH2 0xF5E JUMP JUMPDEST SWAP3 SWAP2 POP POP JUMP JUMPDEST PUSH1 0x0 PUSH1 0x20 DUP3 DUP5 SUB SLT ISZERO PUSH2 0xCB2 JUMPI PUSH1 0x0 DUP1 REVERT JUMPDEST PUSH1 0x0 PUSH2 0xCC0 DUP5 DUP3 DUP6 ADD PUSH2 0xC76 JUMP JUMPDEST SWAP2 POP POP SWAP3 SWAP2 POP POP JUMP JUMPDEST PUSH1 0x0 DUP1 PUSH1 0x40 DUP4 DUP6 SUB SLT ISZERO PUSH2 0xCDC JUMPI PUSH1 0x0 DUP1 REVERT JUMPDEST PUSH1 0x0 PUSH2 0xCEA DUP6 DUP3 DUP7 ADD PUSH2 0xC76 JUMP JUMPDEST SWAP3 POP POP PUSH1 0x20 PUSH2 0xCFB DUP6 DUP3 DUP7 ADD PUSH2 0xC76 JUMP JUMPDEST SWAP2 POP POP SWAP3 POP SWAP3 SWAP1 POP JUMP JUMPDEST PUSH1 0x0 DUP1 PUSH1 0x0 PUSH1 0x60 DUP5 DUP7 SUB SLT ISZERO PUSH2 0xD1A JUMPI PUSH1 0x0 DUP1 REVERT JUMPDEST PUSH1 0x0 PUSH2 0xD28 DUP7 DUP3 DUP8 ADD PUSH2 0xC76 JUMP JUMPDEST SWAP4 POP POP PUSH1 0x20 PUSH2 0xD39 DUP7 DUP3 DUP8 ADD PUSH2 0xC76 JUMP JUMPDEST SWAP3 POP POP PUSH1 0x40 PUSH2 0xD4A DUP7 DUP3 DUP8 ADD PUSH2 0xC8B JUMP JUMPDEST SWAP2 POP POP SWAP3 POP SWAP3 POP SWAP3 JUMP JUMPDEST PUSH1 0x0 DUP1 PUSH1 0x40 DUP4 DUP6 SUB SLT ISZERO PUSH2 0xD67 JUMPI PUSH1 0x0 DUP1 REVERT JUMPDEST PUSH1 0x0 PUSH2 0xD75 DUP6 DUP3 DUP7 ADD PUSH2 0xC76 JUMP JUMPDEST SWAP3 POP POP PUSH1 0x20 PUSH2 0xD86 DUP6 DUP3 DUP7 ADD PUSH2 0xC8B JUMP JUMPDEST SWAP2 POP POP SWAP3 POP SWAP3 SWAP1 POP JUMP JUMPDEST PUSH1 0x0 PUSH1 0x20 DUP3 DUP5 SUB SLT ISZERO PUSH2 0xDA2 JUMPI PUSH1 0x0 DUP1 REVERT JUMPDEST PUSH1 0x0 PUSH2 0xDB0 DUP5 DUP3 DUP6 ADD PUSH2 0xC8B JUMP JUMPDEST SWAP2 POP POP SWAP3 SWAP2 POP POP JUMP JUMPDEST PUSH2 0xDC2 DUP2 PUSH2 0xEC0 JUMP JUMPDEST DUP3 MSTORE POP POP JUMP JUMPDEST PUSH1 0x0 PUSH2 0xDD3 DUP3 PUSH2 0xE92 JUMP JUMPDEST PUSH2 0xDDD DUP2 DUP6 PUSH2 0xE9D JUMP JUMPDEST SWAP4 POP PUSH2 0xDED DUP2 DUP6 PUSH1 0x20 DUP7 ADD PUSH2 0xF03 JUMP JUMPDEST PUSH2 0xDF6 DUP2 PUSH2 0xF36 JUMP JUMPDEST DUP5 ADD SWAP2 POP POP SWAP3 SWAP2 POP POP JUMP JUMPDEST PUSH2 0xE0A DUP2 PUSH2 0xEEC JUMP JUMPDEST DUP3 MSTORE POP POP JUMP JUMPDEST PUSH2 0xE19 DUP2 PUSH2 0xEF6 JUMP JUMPDEST DUP3 MSTORE POP POP JUMP JUMPDEST PUSH1 0x0 PUSH1 0x20 DUP3 ADD SWAP1 POP PUSH2 0xE34 PUSH1 0x0 DUP4 ADD DUP5 PUSH2 0xDB9 JUMP JUMPDEST SWAP3 SWAP2 POP POP JUMP JUMPDEST PUSH1 0x0 PUSH1 0x20 DUP3 ADD SWAP1 POP DUP2 DUP2 SUB PUSH1 0x0 DUP4 ADD MSTORE PUSH2 0xE54 DUP2 DUP5 PUSH2 0xDC8 JUMP JUMPDEST SWAP1 POP SWAP3 SWAP2 POP POP JUMP JUMPDEST PUSH1 0x0 PUSH1 0x20 DUP3 ADD SWAP1 POP PUSH2 0xE71 PUSH1 0x0 DUP4 ADD DUP5 PUSH2 0xE01 JUMP JUMPDEST SWAP3 SWAP2 POP POP JUMP JUMPDEST PUSH1 0x0 PUSH1 0x20 DUP3 ADD SWAP1 POP PUSH2 0xE8C PUSH1 0x0 DUP4 ADD DUP5 PUSH2 0xE10 JUMP JUMPDEST SWAP3 SWAP2 POP POP JUMP JUMPDEST PUSH1 0x0 DUP2 MLOAD SWAP1 POP SWAP2 SWAP1 POP JUMP JUMPDEST PUSH1 0x0 DUP3 DUP3 MSTORE PUSH1 0x20 DUP3 ADD SWAP1 POP SWAP3 SWAP2 POP POP JUMP JUMPDEST PUSH1 0x0 PUSH2 0xEB9 DUP3 PUSH2 0xECC JUMP JUMPDEST SWAP1 POP SWAP2 SWAP1 POP JUMP JUMPDEST PUSH1 0x0 DUP2 ISZERO ISZERO SWAP1 POP SWAP2 SWAP1 POP JUMP JUMPDEST PUSH1 0x0 PUSH20 0xFFFFFFFFFFFFFFFFFFFFFFFFFFFFFFFFFFFFFFFF DUP3 AND SWAP1 POP SWAP2 SWAP1 POP JUMP JUMPDEST PUSH1 0x0 DUP2 SWAP1 POP SWAP2 SWAP1 POP JUMP JUMPDEST PUSH1 0x0 PUSH1 0xFF DUP3 AND SWAP1 POP SWAP2 SWAP1 POP JUMP JUMPDEST PUSH1 0x0 JUMPDEST DUP4 DUP2 LT ISZERO PUSH2 0xF21 JUMPI DUP1 DUP3 ADD MLOAD DUP2 DUP5 ADD MSTORE PUSH1 0x20 DUP2 ADD SWAP1 POP PUSH2 0xF06 JUMP JUMPDEST DUP4 DUP2 GT ISZERO PUSH2 0xF30 JUMPI PUSH1 0x0 DUP5 DUP5 ADD MSTORE JUMPDEST POP POP POP POP JUMP JUMPDEST PUSH1 0x0 PUSH1 0x1F NOT PUSH1 0x1F DUP4 ADD AND SWAP1 POP SWAP2 SWAP1 POP JUMP JUMPDEST PUSH2 0xF50 DUP2 PUSH2 0xEAE JUMP JUMPDEST DUP2 EQ PUSH2 0xF5B JUMPI PUSH1 0x0 DUP1 REVERT JUMPDEST POP JUMP JUMPDEST PUSH2 0xF67 DUP2 PUSH2 0xEEC JUMP JUMPDEST DUP2 EQ PUSH2 0xF72 JUMPI PUSH1 0x0 DUP1 REVERT JUMPDEST POP JUMP INVALID LOG2 PUSH5 0x6970667358 0x22 SLT KECCAK256 COINBASE SWAP3 0x4E PUSH22 0xC6A689F4E76B488C772248149581615C89D36359B220 RETURNDATASIZE GT PUSH32 0x5C45A064736F6C634300060C0033000000000000000000000000000000000000 "
				},
				"gasEstimates": {
					"creation": {
						"codeDepositCost": "1016200",
						"executionCost": "infinite",
						"totalCost": "infinite"
					},
					"external": {
						"Bote()": "infinite",
						"CompraTokens(uint256)": "infinite",
						"ComprarBoleto(uint256)": "infinite",
						"GeneraTokens(uint256)": "infinite",
						"MisTokens()": "infinite",
						"PrecioBoleto()": "1152",
						"TokensDisponibles()": "infinite",
						"VerBoletos()": "infinite",
						"contrato()": "1258",
						"generarGanador()": "infinite",
						"owner()": "1236"
					},
					"internal": {
						"PrecioTokens(uint256)": "36"
					}
				},
				"methodIdentifiers": {
					"Bote()": "74189861",
					"CompraTokens(uint256)": "f7774091",
					"ComprarBoleto(uint256)": "7cd15f44",
					"GeneraTokens(uint256)": "1246f6e2",
					"MisTokens()": "e33f34a0",
					"PrecioBoleto()": "27909f27",
					"TokensDisponibles()": "fd889ff5",
					"VerBoletos()": "3257eaa4",
					"contrato()": "e1a01e67",
					"generarGanador()": "89e25c28",
					"owner()": "8da5cb5b"
				}
			},
			"storageLayout": {
				"storage": [
					{
						"astId": 497,
						"contract": "Loteria/loteria.sol:Loteria",
						"label": "token",
						"offset": 0,
						"slot": "0",
						"type": "t_contract(ERC20Basic)409"
					},
					{
						"astId": 499,
						"contract": "Loteria/loteria.sol:Loteria",
						"label": "owner",
						"offset": 0,
						"slot": "1",
						"type": "t_address"
					},
					{
						"astId": 501,
						"contract": "Loteria/loteria.sol:Loteria",
						"label": "contrato",
						"offset": 0,
						"slot": "2",
						"type": "t_address"
					},
					{
						"astId": 667,
						"contract": "Loteria/loteria.sol:Loteria",
						"label": "PrecioBoleto",
						"offset": 0,
						"slot": "3",
						"type": "t_uint256"
					},
					{
						"astId": 672,
						"contract": "Loteria/loteria.sol:Loteria",
						"label": "idPersona_boletos",
						"offset": 0,
						"slot": "4",
						"type": "t_mapping(t_address,t_array(t_uint256)dyn_storage)"
					},
					{
						"astId": 676,
						"contract": "Loteria/loteria.sol:Loteria",
						"label": "ADN_boleto",
						"offset": 0,
						"slot": "5",
						"type": "t_mapping(t_uint256,t_address)"
					},
					{
						"astId": 679,
						"contract": "Loteria/loteria.sol:Loteria",
						"label": "randNonce",
						"offset": 0,
						"slot": "6",
						"type": "t_uint256"
					},
					{
						"astId": 682,
						"contract": "Loteria/loteria.sol:Loteria",
						"label": "boletos_comprados",
						"offset": 0,
						"slot": "7",
						"type": "t_array(t_uint256)dyn_storage"
					}
				],
				"types": {
					"t_address": {
						"encoding": "inplace",
						"label": "address",
						"numberOfBytes": "20"
					},
					"t_array(t_uint256)dyn_storage": {
						"base": "t_uint256",
						"encoding": "dynamic_array",
						"label": "uint256[]",
						"numberOfBytes": "32"
					},
					"t_contract(ERC20Basic)409": {
						"encoding": "inplace",
						"label": "contract ERC20Basic",
						"numberOfBytes": "20"
					},
					"t_mapping(t_address,t_array(t_uint256)dyn_storage)": {
						"encoding": "mapping",
						"key": "t_address",
						"label": "mapping(address => uint256[])",
						"numberOfBytes": "32",
						"value": "t_array(t_uint256)dyn_storage"
					},
					"t_mapping(t_uint256,t_address)": {
						"encoding": "mapping",
						"key": "t_uint256",
						"label": "mapping(uint256 => address)",
						"numberOfBytes": "32",
						"value": "t_address"
					},
					"t_uint256": {
						"encoding": "inplace",
						"label": "uint256",
						"numberOfBytes": "32"
					}
				}
			},
			"userdoc": {
				"kind": "user",
				"methods": {},
				"version": 1
			}
		}
	}
}