{
	"Loteria/loteria.sol": {
		"Loteria": {
			"abi": [
				{
					"inputs": [],
					"stateMutability": "nonpayable",
					"type": "constructor"
				},
				{
					"anonymous": false,
					"inputs": [
						{
							"indexed": false,
							"internalType": "uint256",
							"name": "",
							"type": "uint256"
						},
						{
							"indexed": false,
							"internalType": "address",
							"name": "",
							"type": "address"
						}
					],
					"name": "ComprarTokens",
					"type": "event"
				},
				{
					"anonymous": false,
					"inputs": [
						{
							"indexed": false,
							"internalType": "uint256",
							"name": "",
							"type": "uint256"
						}
					],
					"name": "boleto_comprado",
					"type": "event"
				},
				{
					"anonymous": false,
					"inputs": [
						{
							"indexed": false,
							"internalType": "uint256",
							"name": "",
							"type": "uint256"
						}
					],
					"name": "boleto_ganador",
					"type": "event"
				},
				{
					"inputs": [],
					"name": "Bote",
					"outputs": [
						{
							"internalType": "uint256",
							"name": "",
							"type": "uint256"
						}
					],
					"stateMutability": "view",
					"type": "function"
				},
				{
					"inputs": [
						{
							"internalType": "uint256",
							"name": "_numTokens",
							"type": "uint256"
						}
					],
					"name": "CompraTokens",
					"outputs": [],
					"stateMutability": "payable",
					"type": "function"
				},
				{
					"inputs": [
						{
							"internalType": "uint256",
							"name": "_numTokens",
							"type": "uint256"
						}
					],
					"name": "GeneraTokens",
					"outputs": [],
					"stateMutability": "nonpayable",
					"type": "function"
				},
				{
					"inputs": [],
					"name": "MisTokens",
					"outputs": [
						{
							"internalType": "uint256",
							"name": "",
							"type": "uint256"
						}
					],
					"stateMutability": "view",
					"type": "function"
				},
				{
					"inputs": [],
					"name": "PrecioBoleto",
					"outputs": [
						{
							"internalType": "uint256",
							"name": "",
							"type": "uint256"
						}
					],
					"stateMutability": "view",
					"type": "function"
				},
				{
					"inputs": [],
					"name": "TokensDisponibles",
					"outputs": [
						{
							"internalType": "uint256",
							"name": "",
							"type": "uint256"
						}
					],
					"stateMutability": "view",
					"type": "function"
				},
				{
					"inputs": [],
					"name": "contrato",
					"outputs": [
						{
							"internalType": "address",
							"name": "",
							"type": "address"
						}
					],
					"stateMutability": "view",
					"type": "function"
				},
				{
					"inputs": [],
					"name": "owner",
					"outputs": [
						{
							"internalType": "address",
							"name": "",
							"type": "address"
						}
					],
					"stateMutability": "view",
					"type": "function"
				}
			],
			"devdoc": {
				"kind": "dev",
				"methods": {},
				"version": 1
			},
			"evm": {
				"assembly": "    /* \"Loteria/loteria.sol\":124:3017  contract Loteria {\r... */\n  mstore(0x40, 0x80)\n    /* \"Loteria/loteria.sol\":2557:2558  5 */\n  0x05\n    /* \"Loteria/loteria.sol\":2530:2558  uint public PrecioBoleto = 5 */\n  0x03\n  sstore\n    /* \"Loteria/loteria.sol\":2834:2835  0 */\n  0x00\n    /* \"Loteria/loteria.sol\":2817:2835  uint randNonce = 0 */\n  0x06\n  sstore\n    /* \"Loteria/loteria.sol\":294:427  constructor() public {\r... */\n  callvalue\n  dup1\n  iszero\n  tag_1\n  jumpi\n  0x00\n  dup1\n  revert\ntag_1:\n  pop\n    /* \"Loteria/loteria.sol\":349:354  10000 */\n  0x2710\n    /* \"Loteria/loteria.sol\":334:355  new ERC20Basic(10000) */\n  mload(0x40)\n  tag_4\n  swap1\n  tag_5\n  jump\t// in\ntag_4:\n  tag_6\n  swap2\n  swap1\n  tag_7\n  jump\t// in\ntag_6:\n  mload(0x40)\n  dup1\n  swap2\n  sub\n  swap1\n  0x00\n  create\n  dup1\n  iszero\n  dup1\n  iszero\n  tag_8\n  jumpi\n  returndatasize\n  0x00\n  dup1\n  returndatacopy\n  revert(0x00, returndatasize)\ntag_8:\n  pop\n    /* \"Loteria/loteria.sol\":326:331  token */\n  0x00\n  dup1\n    /* \"Loteria/loteria.sol\":326:355  token = new ERC20Basic(10000) */\n  0x0100\n  exp\n  dup2\n  sload\n  dup2\n  0xffffffffffffffffffffffffffffffffffffffff\n  mul\n  not\n  and\n  swap1\n  dup4\n  0xffffffffffffffffffffffffffffffffffffffff\n  and\n  mul\n  or\n  swap1\n  sstore\n  pop\n    /* \"Loteria/loteria.sol\":374:384  msg.sender */\n  caller\n    /* \"Loteria/loteria.sol\":366:371  owner */\n  0x01\n  0x00\n    /* \"Loteria/loteria.sol\":366:384  owner = msg.sender */\n  0x0100\n  exp\n  dup2\n  sload\n  dup2\n  0xffffffffffffffffffffffffffffffffffffffff\n  mul\n  not\n  and\n  swap1\n  dup4\n  0xffffffffffffffffffffffffffffffffffffffff\n  and\n  mul\n  or\n  swap1\n  sstore\n  pop\n    /* \"Loteria/loteria.sol\":414:418  this */\n  address\n    /* \"Loteria/loteria.sol\":395:403  contrato */\n  0x02\n  0x00\n    /* \"Loteria/loteria.sol\":395:419  contrato = address(this) */\n  0x0100\n  exp\n  dup2\n  sload\n  dup2\n  0xffffffffffffffffffffffffffffffffffffffff\n  mul\n  not\n  and\n  swap1\n  dup4\n  0xffffffffffffffffffffffffffffffffffffffff\n  and\n  mul\n  or\n  swap1\n  sstore\n  pop\n    /* \"Loteria/loteria.sol\":124:3017  contract Loteria {\r... */\n  jump(tag_9)\ntag_5:\n  dataSize(sub_1)\n  dup1\n  dataOffset(sub_1)\n  dup4\n  codecopy\n  add\n  swap1\n  jump\t// out\n    /* \"--CODEGEN--\":5:155   */\ntag_11:\n    /* \"--CODEGEN--\":100:149   */\n  tag_13\n    /* \"--CODEGEN--\":143:148   */\n  dup2\n    /* \"--CODEGEN--\":100:149   */\n  tag_14\n  jump\t// in\ntag_13:\n    /* \"--CODEGEN--\":95:98   */\n  dup3\n    /* \"--CODEGEN--\":88:150   */\n  mstore\n    /* \"--CODEGEN--\":82:155   */\n  pop\n  pop\n  jump\t// out\n    /* \"--CODEGEN--\":162:408   */\ntag_7:\n  0x00\n    /* \"--CODEGEN--\":301:303   */\n  0x20\n    /* \"--CODEGEN--\":290:299   */\n  dup3\n    /* \"--CODEGEN--\":286:304   */\n  add\n    /* \"--CODEGEN--\":278:304   */\n  swap1\n  pop\n    /* \"--CODEGEN--\":315:398   */\n  tag_16\n    /* \"--CODEGEN--\":395:396   */\n  0x00\n    /* \"--CODEGEN--\":384:393   */\n  dup4\n    /* \"--CODEGEN--\":380:397   */\n  add\n    /* \"--CODEGEN--\":371:377   */\n  dup5\n    /* \"--CODEGEN--\":315:398   */\n  tag_11\n  jump\t// in\ntag_16:\n    /* \"--CODEGEN--\":272:408   */\n  swap3\n  swap2\n  pop\n  pop\n  jump\t// out\n    /* \"--CODEGEN--\":415:487   */\ntag_17:\n  0x00\n    /* \"--CODEGEN--\":477:482   */\n  dup2\n    /* \"--CODEGEN--\":466:482   */\n  swap1\n  pop\n    /* \"--CODEGEN--\":460:487   */\n  swap2\n  swap1\n  pop\n  jump\t// out\n    /* \"--CODEGEN--\":494:614   */\ntag_14:\n  0x00\n    /* \"--CODEGEN--\":585:609   */\n  tag_20\n    /* \"--CODEGEN--\":603:608   */\n  dup3\n    /* \"--CODEGEN--\":585:609   */\n  tag_17\n  jump\t// in\ntag_20:\n    /* \"--CODEGEN--\":572:609   */\n  swap1\n  pop\n    /* \"--CODEGEN--\":566:614   */\n  swap2\n  swap1\n  pop\n  jump\t// out\n    /* \"Loteria/loteria.sol\":124:3017  contract Loteria {\r... */\ntag_9:\n  dataSize(sub_0)\n  dup1\n  dataOffset(sub_0)\n  0x00\n  codecopy\n  0x00\n  return\nstop\n\nsub_0: assembly {\n        /* \"Loteria/loteria.sol\":124:3017  contract Loteria {\r... */\n      mstore(0x40, 0x80)\n      jumpi(tag_1, lt(calldatasize, 0x04))\n      shr(0xe0, calldataload(0x00))\n      dup1\n      0xe1a01e67\n      gt\n      tag_10\n      jumpi\n      dup1\n      0xe1a01e67\n      eq\n      tag_6\n      jumpi\n      dup1\n      0xe33f34a0\n      eq\n      tag_7\n      jumpi\n      dup1\n      0xf7774091\n      eq\n      tag_8\n      jumpi\n      dup1\n      0xfd889ff5\n      eq\n      tag_9\n      jumpi\n      jump(tag_1)\n    tag_10:\n      dup1\n      0x1246f6e2\n      eq\n      tag_2\n      jumpi\n      dup1\n      0x27909f27\n      eq\n      tag_3\n      jumpi\n      dup1\n      0x74189861\n      eq\n      tag_4\n      jumpi\n      dup1\n      0x8da5cb5b\n      eq\n      tag_5\n      jumpi\n    tag_1:\n      0x00\n      dup1\n      revert\n        /* \"Loteria/loteria.sol\":1028:1153  function GeneraTokens(uint _numTokens) public Unicamente(msg.sender) {\r... */\n    tag_2:\n      callvalue\n      dup1\n      iszero\n      tag_11\n      jumpi\n      0x00\n      dup1\n      revert\n    tag_11:\n      pop\n      tag_12\n      0x04\n      dup1\n      calldatasize\n      sub\n      dup2\n      add\n      swap1\n      tag_13\n      swap2\n      swap1\n      tag_14\n      jump\t// in\n    tag_13:\n      tag_15\n      jump\t// in\n    tag_12:\n      stop\n        /* \"Loteria/loteria.sol\":2530:2558  uint public PrecioBoleto = 5 */\n    tag_3:\n      callvalue\n      dup1\n      iszero\n      tag_16\n      jumpi\n      0x00\n      dup1\n      revert\n    tag_16:\n      pop\n      tag_17\n      tag_18\n      jump\t// in\n    tag_17:\n      mload(0x40)\n      tag_19\n      swap2\n      swap1\n      tag_20\n      jump\t// in\n    tag_19:\n      mload(0x40)\n      dup1\n      swap2\n      sub\n      swap1\n      return\n        /* \"Loteria/loteria.sol\":2164:2254  function Bote() public view returns(uint) {\r... */\n    tag_4:\n      callvalue\n      dup1\n      iszero\n      tag_21\n      jumpi\n      0x00\n      dup1\n      revert\n    tag_21:\n      pop\n      tag_22\n      tag_23\n      jump\t// in\n    tag_22:\n      mload(0x40)\n      tag_24\n      swap2\n      swap1\n      tag_20\n      jump\t// in\n    tag_24:\n      mload(0x40)\n      dup1\n      swap2\n      sub\n      swap1\n      return\n        /* \"Loteria/loteria.sol\":235:255  address public owner */\n    tag_5:\n      callvalue\n      dup1\n      iszero\n      tag_25\n      jumpi\n      0x00\n      dup1\n      revert\n    tag_25:\n      pop\n      tag_26\n      tag_27\n      jump\t// in\n    tag_26:\n      mload(0x40)\n      tag_28\n      swap2\n      swap1\n      tag_29\n      jump\t// in\n    tag_28:\n      mload(0x40)\n      dup1\n      swap2\n      sub\n      swap1\n      return\n        /* \"Loteria/loteria.sol\":262:285  address public contrato */\n    tag_6:\n      callvalue\n      dup1\n      iszero\n      tag_30\n      jumpi\n      0x00\n      dup1\n      revert\n    tag_30:\n      pop\n      tag_31\n      tag_32\n      jump\t// in\n    tag_31:\n      mload(0x40)\n      tag_33\n      swap2\n      swap1\n      tag_29\n      jump\t// in\n    tag_33:\n      mload(0x40)\n      dup1\n      swap2\n      sub\n      swap1\n      return\n        /* \"Loteria/loteria.sol\":2292:2393  function MisTokens() public view returns (uint) {\r... */\n    tag_7:\n      callvalue\n      dup1\n      iszero\n      tag_34\n      jumpi\n      0x00\n      dup1\n      revert\n    tag_34:\n      pop\n      tag_35\n      tag_36\n      jump\t// in\n    tag_35:\n      mload(0x40)\n      tag_37\n      swap2\n      swap1\n      tag_20\n      jump\t// in\n    tag_37:\n      mload(0x40)\n      dup1\n      swap2\n      sub\n      swap1\n      return\n        /* \"Loteria/loteria.sol\":1184:1938  function CompraTokens(uint _numTokens) public payable {\r... */\n    tag_8:\n      tag_38\n      0x04\n      dup1\n      calldatasize\n      sub\n      dup2\n      add\n      swap1\n      tag_39\n      swap2\n      swap1\n      tag_14\n      jump\t// in\n    tag_39:\n      tag_40\n      jump\t// in\n    tag_38:\n      stop\n        /* \"Loteria/loteria.sol\":1989:2100  function TokensDisponibles() public view returns(uint) {\r... */\n    tag_9:\n      callvalue\n      dup1\n      iszero\n      tag_41\n      jumpi\n      0x00\n      dup1\n      revert\n    tag_41:\n      pop\n      tag_42\n      tag_43\n      jump\t// in\n    tag_42:\n      mload(0x40)\n      tag_44\n      swap2\n      swap1\n      tag_20\n      jump\t// in\n    tag_44:\n      mload(0x40)\n      dup1\n      swap2\n      sub\n      swap1\n      return\n        /* \"Loteria/loteria.sol\":1028:1153  function GeneraTokens(uint _numTokens) public Unicamente(msg.sender) {\r... */\n    tag_15:\n        /* \"Loteria/loteria.sol\":1085:1095  msg.sender */\n      caller\n        /* \"Loteria/loteria.sol\":724:729  owner */\n      0x01\n      0x00\n      swap1\n      sload\n      swap1\n      0x0100\n      exp\n      swap1\n      div\n      0xffffffffffffffffffffffffffffffffffffffff\n      and\n        /* \"Loteria/loteria.sol\":709:729  propietario == owner */\n      0xffffffffffffffffffffffffffffffffffffffff\n      and\n        /* \"Loteria/loteria.sol\":709:720  propietario */\n      dup2\n        /* \"Loteria/loteria.sol\":709:729  propietario == owner */\n      0xffffffffffffffffffffffffffffffffffffffff\n      and\n      eq\n        /* \"Loteria/loteria.sol\":701:779  require(propietario == owner, \"No tienes permisos para ejecutar esta funcion\") */\n      tag_46\n      jumpi\n      mload(0x40)\n      0x08c379a000000000000000000000000000000000000000000000000000000000\n      dup2\n      mstore\n      0x04\n      add\n      tag_47\n      swap1\n      tag_48\n      jump\t// in\n    tag_47:\n      mload(0x40)\n      dup1\n      swap2\n      sub\n      swap1\n      revert\n    tag_46:\n        /* \"Loteria/loteria.sol\":1108:1113  token */\n      0x00\n      dup1\n      sload\n      swap1\n      0x0100\n      exp\n      swap1\n      div\n      0xffffffffffffffffffffffffffffffffffffffff\n      and\n        /* \"Loteria/loteria.sol\":1108:1133  token.increaseTotalSupply */\n      0xffffffffffffffffffffffffffffffffffffffff\n      and\n      0x1d43cc98\n        /* \"Loteria/loteria.sol\":1134:1144  _numTokens */\n      dup4\n        /* \"Loteria/loteria.sol\":1108:1145  token.increaseTotalSupply(_numTokens) */\n      mload(0x40)\n      dup3\n      0xffffffff\n      and\n      0xe0\n      shl\n      dup2\n      mstore\n      0x04\n      add\n      tag_50\n      swap2\n      swap1\n      tag_20\n      jump\t// in\n    tag_50:\n      0x00\n      mload(0x40)\n      dup1\n      dup4\n      sub\n      dup2\n      0x00\n      dup8\n      dup1\n      extcodesize\n      iszero\n      dup1\n      iszero\n      tag_51\n      jumpi\n      0x00\n      dup1\n      revert\n    tag_51:\n      pop\n      gas\n      call\n      iszero\n      dup1\n      iszero\n      tag_53\n      jumpi\n      returndatasize\n      0x00\n      dup1\n      returndatacopy\n      revert(0x00, returndatasize)\n    tag_53:\n      pop\n      pop\n      pop\n      pop\n        /* \"Loteria/loteria.sol\":1028:1153  function GeneraTokens(uint _numTokens) public Unicamente(msg.sender) {\r... */\n      pop\n      pop\n      jump\t// out\n        /* \"Loteria/loteria.sol\":2530:2558  uint public PrecioBoleto = 5 */\n    tag_18:\n      sload(0x03)\n      dup2\n      jump\t// out\n        /* \"Loteria/loteria.sol\":2164:2254  function Bote() public view returns(uint) {\r... */\n    tag_23:\n        /* \"Loteria/loteria.sol\":2200:2204  uint */\n      0x00\n        /* \"Loteria/loteria.sol\":2224:2229  token */\n      dup1\n      0x00\n      swap1\n      sload\n      swap1\n      0x0100\n      exp\n      swap1\n      div\n      0xffffffffffffffffffffffffffffffffffffffff\n      and\n        /* \"Loteria/loteria.sol\":2224:2239  token.balanceOf */\n      0xffffffffffffffffffffffffffffffffffffffff\n      and\n      0x70a08231\n        /* \"Loteria/loteria.sol\":2240:2245  owner */\n      0x01\n      0x00\n      swap1\n      sload\n      swap1\n      0x0100\n      exp\n      swap1\n      div\n      0xffffffffffffffffffffffffffffffffffffffff\n      and\n        /* \"Loteria/loteria.sol\":2224:2246  token.balanceOf(owner) */\n      mload(0x40)\n      dup3\n      0xffffffff\n      and\n      0xe0\n      shl\n      dup2\n      mstore\n      0x04\n      add\n      tag_55\n      swap2\n      swap1\n      tag_29\n      jump\t// in\n    tag_55:\n      0x20\n      mload(0x40)\n      dup1\n      dup4\n      sub\n      dup2\n      dup7\n      dup1\n      extcodesize\n      iszero\n      dup1\n      iszero\n      tag_56\n      jumpi\n      0x00\n      dup1\n      revert\n    tag_56:\n      pop\n      gas\n      staticcall\n      iszero\n      dup1\n      iszero\n      tag_58\n      jumpi\n      returndatasize\n      0x00\n      dup1\n      returndatacopy\n      revert(0x00, returndatasize)\n    tag_58:\n      pop\n      pop\n      pop\n      pop\n      mload(0x40)\n      returndatasize\n      not(0x1f)\n      0x1f\n      dup3\n      add\n      and\n      dup3\n      add\n      dup1\n      0x40\n      mstore\n      pop\n      dup2\n      add\n      swap1\n      tag_59\n      swap2\n      swap1\n      tag_60\n      jump\t// in\n    tag_59:\n        /* \"Loteria/loteria.sol\":2217:2246  return token.balanceOf(owner) */\n      swap1\n      pop\n        /* \"Loteria/loteria.sol\":2164:2254  function Bote() public view returns(uint) {\r... */\n      swap1\n      jump\t// out\n        /* \"Loteria/loteria.sol\":235:255  address public owner */\n    tag_27:\n      0x01\n      0x00\n      swap1\n      sload\n      swap1\n      0x0100\n      exp\n      swap1\n      div\n      0xffffffffffffffffffffffffffffffffffffffff\n      and\n      dup2\n      jump\t// out\n        /* \"Loteria/loteria.sol\":262:285  address public contrato */\n    tag_32:\n      0x02\n      0x00\n      swap1\n      sload\n      swap1\n      0x0100\n      exp\n      swap1\n      div\n      0xffffffffffffffffffffffffffffffffffffffff\n      and\n      dup2\n      jump\t// out\n        /* \"Loteria/loteria.sol\":2292:2393  function MisTokens() public view returns (uint) {\r... */\n    tag_36:\n        /* \"Loteria/loteria.sol\":2334:2338  uint */\n      0x00\n        /* \"Loteria/loteria.sol\":2358:2363  token */\n      dup1\n      0x00\n      swap1\n      sload\n      swap1\n      0x0100\n      exp\n      swap1\n      div\n      0xffffffffffffffffffffffffffffffffffffffff\n      and\n        /* \"Loteria/loteria.sol\":2358:2373  token.balanceOf */\n      0xffffffffffffffffffffffffffffffffffffffff\n      and\n      0x70a08231\n        /* \"Loteria/loteria.sol\":2374:2384  msg.sender */\n      caller\n        /* \"Loteria/loteria.sol\":2358:2385  token.balanceOf(msg.sender) */\n      mload(0x40)\n      dup3\n      0xffffffff\n      and\n      0xe0\n      shl\n      dup2\n      mstore\n      0x04\n      add\n      tag_62\n      swap2\n      swap1\n      tag_63\n      jump\t// in\n    tag_62:\n      0x20\n      mload(0x40)\n      dup1\n      dup4\n      sub\n      dup2\n      dup7\n      dup1\n      extcodesize\n      iszero\n      dup1\n      iszero\n      tag_64\n      jumpi\n      0x00\n      dup1\n      revert\n    tag_64:\n      pop\n      gas\n      staticcall\n      iszero\n      dup1\n      iszero\n      tag_66\n      jumpi\n      returndatasize\n      0x00\n      dup1\n      returndatacopy\n      revert(0x00, returndatasize)\n    tag_66:\n      pop\n      pop\n      pop\n      pop\n      mload(0x40)\n      returndatasize\n      not(0x1f)\n      0x1f\n      dup3\n      add\n      and\n      dup3\n      add\n      dup1\n      0x40\n      mstore\n      pop\n      dup2\n      add\n      swap1\n      tag_67\n      swap2\n      swap1\n      tag_60\n      jump\t// in\n    tag_67:\n        /* \"Loteria/loteria.sol\":2351:2385  return token.balanceOf(msg.sender) */\n      swap1\n      pop\n        /* \"Loteria/loteria.sol\":2292:2393  function MisTokens() public view returns (uint) {\r... */\n      swap1\n      jump\t// out\n        /* \"Loteria/loteria.sol\":1184:1938  function CompraTokens(uint _numTokens) public payable {\r... */\n    tag_40:\n        /* \"Loteria/loteria.sol\":1296:1306  uint coste */\n      0x00\n        /* \"Loteria/loteria.sol\":1309:1333  PrecioTokens(_numTokens) */\n      tag_69\n        /* \"Loteria/loteria.sol\":1322:1332  _numTokens */\n      dup3\n        /* \"Loteria/loteria.sol\":1309:1321  PrecioTokens */\n      tag_70\n        /* \"Loteria/loteria.sol\":1309:1333  PrecioTokens(_numTokens) */\n      jump\t// in\n    tag_69:\n        /* \"Loteria/loteria.sol\":1296:1333  uint coste = PrecioTokens(_numTokens) */\n      swap1\n      pop\n        /* \"Loteria/loteria.sol\":1418:1423  coste */\n      dup1\n        /* \"Loteria/loteria.sol\":1405:1414  msg.value */\n      callvalue\n        /* \"Loteria/loteria.sol\":1405:1423  msg.value >= coste */\n      lt\n      iszero\n        /* \"Loteria/loteria.sol\":1396:1458  require (msg.value >= coste, \"Cantidad de ether insuficiente\") */\n      tag_71\n      jumpi\n      mload(0x40)\n      0x08c379a000000000000000000000000000000000000000000000000000000000\n      dup2\n      mstore\n      0x04\n      add\n      tag_72\n      swap1\n      tag_73\n      jump\t// in\n    tag_72:\n      mload(0x40)\n      dup1\n      swap2\n      sub\n      swap1\n      revert\n    tag_71:\n        /* \"Loteria/loteria.sol\":1559:1564  token */\n      0x00\n      dup1\n      sload\n      swap1\n      0x0100\n      exp\n      swap1\n      div\n      0xffffffffffffffffffffffffffffffffffffffff\n      and\n        /* \"Loteria/loteria.sol\":1559:1574  token.balanceOf */\n      0xffffffffffffffffffffffffffffffffffffffff\n      and\n      0x70a08231\n        /* \"Loteria/loteria.sol\":1575:1583  contrato */\n      0x02\n      0x00\n      swap1\n      sload\n      swap1\n      0x0100\n      exp\n      swap1\n      div\n      0xffffffffffffffffffffffffffffffffffffffff\n      and\n        /* \"Loteria/loteria.sol\":1559:1584  token.balanceOf(contrato) */\n      mload(0x40)\n      dup3\n      0xffffffff\n      and\n      0xe0\n      shl\n      dup2\n      mstore\n      0x04\n      add\n      tag_74\n      swap2\n      swap1\n      tag_29\n      jump\t// in\n    tag_74:\n      0x20\n      mload(0x40)\n      dup1\n      dup4\n      sub\n      dup2\n      dup7\n      dup1\n      extcodesize\n      iszero\n      dup1\n      iszero\n      tag_75\n      jumpi\n      0x00\n      dup1\n      revert\n    tag_75:\n      pop\n      gas\n      staticcall\n      iszero\n      dup1\n      iszero\n      tag_77\n      jumpi\n      returndatasize\n      0x00\n      dup1\n      returndatacopy\n      revert(0x00, returndatasize)\n    tag_77:\n      pop\n      pop\n      pop\n      pop\n      mload(0x40)\n      returndatasize\n      not(0x1f)\n      0x1f\n      dup3\n      add\n      and\n      dup3\n      add\n      dup1\n      0x40\n      mstore\n      pop\n      dup2\n      add\n      swap1\n      tag_78\n      swap2\n      swap1\n      tag_60\n      jump\t// in\n    tag_78:\n        /* \"Loteria/loteria.sol\":1545:1555  _numTokens */\n      dup3\n        /* \"Loteria/loteria.sol\":1545:1584  _numTokens <= token.balanceOf(contrato) */\n      gt\n      iszero\n        /* \"Loteria/loteria.sol\":1536:1621  require (_numTokens <= token.balanceOf(contrato), \"Cantidad de tokens insuficientes\") */\n      tag_79\n      jumpi\n      mload(0x40)\n      0x08c379a000000000000000000000000000000000000000000000000000000000\n      dup2\n      mstore\n      0x04\n      add\n      tag_80\n      swap1\n      tag_81\n      jump\t// in\n    tag_80:\n      mload(0x40)\n      dup1\n      swap2\n      sub\n      swap1\n      revert\n    tag_79:\n        /* \"Loteria/loteria.sol\":1707:1717  msg.sender */\n      caller\n        /* \"Loteria/loteria.sol\":1707:1726  msg.sender.transfer */\n      0xffffffffffffffffffffffffffffffffffffffff\n      and\n        /* \"Loteria/loteria.sol\":1707:1745  msg.sender.transfer(msg.value - coste) */\n      0x08fc\n        /* \"Loteria/loteria.sol\":1739:1744  coste */\n      dup3\n        /* \"Loteria/loteria.sol\":1727:1736  msg.value */\n      callvalue\n        /* \"Loteria/loteria.sol\":1727:1744  msg.value - coste */\n      sub\n        /* \"Loteria/loteria.sol\":1707:1745  msg.sender.transfer(msg.value - coste) */\n      swap1\n      dup2\n      iszero\n      mul\n      swap1\n      mload(0x40)\n      0x00\n      mload(0x40)\n      dup1\n      dup4\n      sub\n      dup2\n      dup6\n      dup9\n      dup9\n      call\n      swap4\n      pop\n      pop\n      pop\n      pop\n      iszero\n      dup1\n      iszero\n      tag_83\n      jumpi\n      returndatasize\n      0x00\n      dup1\n      returndatacopy\n      revert(0x00, returndatasize)\n    tag_83:\n      pop\n        /* \"Loteria/loteria.sol\":1806:1811  token */\n      0x00\n      dup1\n      sload\n      swap1\n      0x0100\n      exp\n      swap1\n      div\n      0xffffffffffffffffffffffffffffffffffffffff\n      and\n        /* \"Loteria/loteria.sol\":1806:1820  token.transfer */\n      0xffffffffffffffffffffffffffffffffffffffff\n      and\n      0xa9059cbb\n        /* \"Loteria/loteria.sol\":1821:1831  msg.sender */\n      caller\n        /* \"Loteria/loteria.sol\":1833:1843  _numTokens */\n      dup5\n        /* \"Loteria/loteria.sol\":1806:1844  token.transfer(msg.sender, _numTokens) */\n      mload(0x40)\n      dup4\n      0xffffffff\n      and\n      0xe0\n      shl\n      dup2\n      mstore\n      0x04\n      add\n      tag_84\n      swap3\n      swap2\n      swap1\n      tag_85\n      jump\t// in\n    tag_84:\n      0x20\n      mload(0x40)\n      dup1\n      dup4\n      sub\n      dup2\n      0x00\n      dup8\n      dup1\n      extcodesize\n      iszero\n      dup1\n      iszero\n      tag_86\n      jumpi\n      0x00\n      dup1\n      revert\n    tag_86:\n      pop\n      gas\n      call\n      iszero\n      dup1\n      iszero\n      tag_88\n      jumpi\n      returndatasize\n      0x00\n      dup1\n      returndatacopy\n      revert(0x00, returndatasize)\n    tag_88:\n      pop\n      pop\n      pop\n      pop\n      mload(0x40)\n      returndatasize\n      not(0x1f)\n      0x1f\n      dup3\n      add\n      and\n      dup3\n      add\n      dup1\n      0x40\n      mstore\n      pop\n      dup2\n      add\n      swap1\n      tag_89\n      swap2\n      swap1\n      tag_90\n      jump\t// in\n    tag_89:\n      pop\n        /* \"Loteria/loteria.sol\":1893:1930  ComprarTokens(_numTokens, msg.sender) */\n      0x1912293d843fe20a997ecedfe6ab8b44b26fc0ed0d7d2e152158ffd021c9ace3\n        /* \"Loteria/loteria.sol\":1907:1917  _numTokens */\n      dup3\n        /* \"Loteria/loteria.sol\":1919:1929  msg.sender */\n      caller\n        /* \"Loteria/loteria.sol\":1893:1930  ComprarTokens(_numTokens, msg.sender) */\n      mload(0x40)\n      tag_91\n      swap3\n      swap2\n      swap1\n      tag_92\n      jump\t// in\n    tag_91:\n      mload(0x40)\n      dup1\n      swap2\n      sub\n      swap1\n      log1\n        /* \"Loteria/loteria.sol\":1184:1938  function CompraTokens(uint _numTokens) public payable {\r... */\n      pop\n      pop\n      jump\t// out\n        /* \"Loteria/loteria.sol\":1989:2100  function TokensDisponibles() public view returns(uint) {\r... */\n    tag_43:\n        /* \"Loteria/loteria.sol\":2038:2042  uint */\n      0x00\n        /* \"Loteria/loteria.sol\":2062:2067  token */\n      dup1\n      0x00\n      swap1\n      sload\n      swap1\n      0x0100\n      exp\n      swap1\n      div\n      0xffffffffffffffffffffffffffffffffffffffff\n      and\n        /* \"Loteria/loteria.sol\":2062:2077  token.balanceOf */\n      0xffffffffffffffffffffffffffffffffffffffff\n      and\n      0x70a08231\n        /* \"Loteria/loteria.sol\":2086:2090  this */\n      address\n        /* \"Loteria/loteria.sol\":2062:2092  token.balanceOf(address(this)) */\n      mload(0x40)\n      dup3\n      0xffffffff\n      and\n      0xe0\n      shl\n      dup2\n      mstore\n      0x04\n      add\n      tag_94\n      swap2\n      swap1\n      tag_29\n      jump\t// in\n    tag_94:\n      0x20\n      mload(0x40)\n      dup1\n      dup4\n      sub\n      dup2\n      dup7\n      dup1\n      extcodesize\n      iszero\n      dup1\n      iszero\n      tag_95\n      jumpi\n      0x00\n      dup1\n      revert\n    tag_95:\n      pop\n      gas\n      staticcall\n      iszero\n      dup1\n      iszero\n      tag_97\n      jumpi\n      returndatasize\n      0x00\n      dup1\n      returndatacopy\n      revert(0x00, returndatasize)\n    tag_97:\n      pop\n      pop\n      pop\n      pop\n      mload(0x40)\n      returndatasize\n      not(0x1f)\n      0x1f\n      dup3\n      add\n      and\n      dup3\n      add\n      dup1\n      0x40\n      mstore\n      pop\n      dup2\n      add\n      swap1\n      tag_98\n      swap2\n      swap1\n      tag_60\n      jump\t// in\n    tag_98:\n        /* \"Loteria/loteria.sol\":2055:2092  return token.balanceOf(address(this)) */\n      swap1\n      pop\n        /* \"Loteria/loteria.sol\":1989:2100  function TokensDisponibles() public view returns(uint) {\r... */\n      swap1\n      jump\t// out\n        /* \"Loteria/loteria.sol\":877:992  function PrecioTokens(uint _numTokens) internal pure returns(uint) {\r... */\n    tag_70:\n        /* \"Loteria/loteria.sol\":938:942  uint */\n      0x00\n        /* \"Loteria/loteria.sol\":976:983  1 ether */\n      0x0de0b6b3a7640000\n        /* \"Loteria/loteria.sol\":962:972  _numTokens */\n      dup3\n        /* \"Loteria/loteria.sol\":962:984  _numTokens * (1 ether) */\n      mul\n        /* \"Loteria/loteria.sol\":955:984  return _numTokens * (1 ether) */\n      swap1\n      pop\n        /* \"Loteria/loteria.sol\":877:992  function PrecioTokens(uint _numTokens) internal pure returns(uint) {\r... */\n      swap2\n      swap1\n      pop\n      jump\t// out\n        /* \"--CODEGEN--\":5:133   */\n    tag_101:\n      0x00\n        /* \"--CODEGEN--\":86:92   */\n      dup2\n        /* \"--CODEGEN--\":80:93   */\n      mload\n        /* \"--CODEGEN--\":71:93   */\n      swap1\n      pop\n        /* \"--CODEGEN--\":98:128   */\n      tag_103\n        /* \"--CODEGEN--\":122:127   */\n      dup2\n        /* \"--CODEGEN--\":98:128   */\n      tag_104\n      jump\t// in\n    tag_103:\n        /* \"--CODEGEN--\":65:133   */\n      swap3\n      swap2\n      pop\n      pop\n      jump\t// out\n        /* \"--CODEGEN--\":140:270   */\n    tag_105:\n      0x00\n        /* \"--CODEGEN--\":220:226   */\n      dup2\n        /* \"--CODEGEN--\":207:227   */\n      calldataload\n        /* \"--CODEGEN--\":198:227   */\n      swap1\n      pop\n        /* \"--CODEGEN--\":232:265   */\n      tag_107\n        /* \"--CODEGEN--\":259:264   */\n      dup2\n        /* \"--CODEGEN--\":232:265   */\n      tag_108\n      jump\t// in\n    tag_107:\n        /* \"--CODEGEN--\":192:270   */\n      swap3\n      swap2\n      pop\n      pop\n      jump\t// out\n        /* \"--CODEGEN--\":277:411   */\n    tag_109:\n      0x00\n        /* \"--CODEGEN--\":361:367   */\n      dup2\n        /* \"--CODEGEN--\":355:368   */\n      mload\n        /* \"--CODEGEN--\":346:368   */\n      swap1\n      pop\n        /* \"--CODEGEN--\":373:406   */\n      tag_111\n        /* \"--CODEGEN--\":400:405   */\n      dup2\n        /* \"--CODEGEN--\":373:406   */\n      tag_108\n      jump\t// in\n    tag_111:\n        /* \"--CODEGEN--\":340:411   */\n      swap3\n      swap2\n      pop\n      pop\n      jump\t// out\n        /* \"--CODEGEN--\":418:675   */\n    tag_90:\n      0x00\n        /* \"--CODEGEN--\":530:532   */\n      0x20\n        /* \"--CODEGEN--\":518:527   */\n      dup3\n        /* \"--CODEGEN--\":509:516   */\n      dup5\n        /* \"--CODEGEN--\":505:528   */\n      sub\n        /* \"--CODEGEN--\":501:533   */\n      slt\n        /* \"--CODEGEN--\":498:500   */\n      iszero\n      tag_113\n      jumpi\n        /* \"--CODEGEN--\":546:547   */\n      0x00\n        /* \"--CODEGEN--\":543:544   */\n      dup1\n        /* \"--CODEGEN--\":536:548   */\n      revert\n        /* \"--CODEGEN--\":498:500   */\n    tag_113:\n        /* \"--CODEGEN--\":581:582   */\n      0x00\n        /* \"--CODEGEN--\":598:659   */\n      tag_114\n        /* \"--CODEGEN--\":651:658   */\n      dup5\n        /* \"--CODEGEN--\":642:648   */\n      dup3\n        /* \"--CODEGEN--\":631:640   */\n      dup6\n        /* \"--CODEGEN--\":627:649   */\n      add\n        /* \"--CODEGEN--\":598:659   */\n      tag_101\n      jump\t// in\n    tag_114:\n        /* \"--CODEGEN--\":588:659   */\n      swap2\n      pop\n        /* \"--CODEGEN--\":560:665   */\n      pop\n        /* \"--CODEGEN--\":492:675   */\n      swap3\n      swap2\n      pop\n      pop\n      jump\t// out\n        /* \"--CODEGEN--\":682:923   */\n    tag_14:\n      0x00\n        /* \"--CODEGEN--\":786:788   */\n      0x20\n        /* \"--CODEGEN--\":774:783   */\n      dup3\n        /* \"--CODEGEN--\":765:772   */\n      dup5\n        /* \"--CODEGEN--\":761:784   */\n      sub\n        /* \"--CODEGEN--\":757:789   */\n      slt\n        /* \"--CODEGEN--\":754:756   */\n      iszero\n      tag_116\n      jumpi\n        /* \"--CODEGEN--\":802:803   */\n      0x00\n        /* \"--CODEGEN--\":799:800   */\n      dup1\n        /* \"--CODEGEN--\":792:804   */\n      revert\n        /* \"--CODEGEN--\":754:756   */\n    tag_116:\n        /* \"--CODEGEN--\":837:838   */\n      0x00\n        /* \"--CODEGEN--\":854:907   */\n      tag_117\n        /* \"--CODEGEN--\":899:906   */\n      dup5\n        /* \"--CODEGEN--\":890:896   */\n      dup3\n        /* \"--CODEGEN--\":879:888   */\n      dup6\n        /* \"--CODEGEN--\":875:897   */\n      add\n        /* \"--CODEGEN--\":854:907   */\n      tag_105\n      jump\t// in\n    tag_117:\n        /* \"--CODEGEN--\":844:907   */\n      swap2\n      pop\n        /* \"--CODEGEN--\":816:913   */\n      pop\n        /* \"--CODEGEN--\":748:923   */\n      swap3\n      swap2\n      pop\n      pop\n      jump\t// out\n        /* \"--CODEGEN--\":930:1193   */\n    tag_60:\n      0x00\n        /* \"--CODEGEN--\":1045:1047   */\n      0x20\n        /* \"--CODEGEN--\":1033:1042   */\n      dup3\n        /* \"--CODEGEN--\":1024:1031   */\n      dup5\n        /* \"--CODEGEN--\":1020:1043   */\n      sub\n        /* \"--CODEGEN--\":1016:1048   */\n      slt\n        /* \"--CODEGEN--\":1013:1015   */\n      iszero\n      tag_119\n      jumpi\n        /* \"--CODEGEN--\":1061:1062   */\n      0x00\n        /* \"--CODEGEN--\":1058:1059   */\n      dup1\n        /* \"--CODEGEN--\":1051:1063   */\n      revert\n        /* \"--CODEGEN--\":1013:1015   */\n    tag_119:\n        /* \"--CODEGEN--\":1096:1097   */\n      0x00\n        /* \"--CODEGEN--\":1113:1177   */\n      tag_120\n        /* \"--CODEGEN--\":1169:1176   */\n      dup5\n        /* \"--CODEGEN--\":1160:1166   */\n      dup3\n        /* \"--CODEGEN--\":1149:1158   */\n      dup6\n        /* \"--CODEGEN--\":1145:1167   */\n      add\n        /* \"--CODEGEN--\":1113:1177   */\n      tag_109\n      jump\t// in\n    tag_120:\n        /* \"--CODEGEN--\":1103:1177   */\n      swap2\n      pop\n        /* \"--CODEGEN--\":1075:1183   */\n      pop\n        /* \"--CODEGEN--\":1007:1193   */\n      swap3\n      swap2\n      pop\n      pop\n      jump\t// out\n        /* \"--CODEGEN--\":1200:1342   */\n    tag_121:\n        /* \"--CODEGEN--\":1291:1336   */\n      tag_123\n        /* \"--CODEGEN--\":1330:1335   */\n      dup2\n        /* \"--CODEGEN--\":1291:1336   */\n      tag_124\n      jump\t// in\n    tag_123:\n        /* \"--CODEGEN--\":1286:1289   */\n      dup3\n        /* \"--CODEGEN--\":1279:1337   */\n      mstore\n        /* \"--CODEGEN--\":1273:1342   */\n      pop\n      pop\n      jump\t// out\n        /* \"--CODEGEN--\":1349:1462   */\n    tag_125:\n        /* \"--CODEGEN--\":1432:1456   */\n      tag_127\n        /* \"--CODEGEN--\":1450:1455   */\n      dup2\n        /* \"--CODEGEN--\":1432:1456   */\n      tag_128\n      jump\t// in\n    tag_127:\n        /* \"--CODEGEN--\":1427:1430   */\n      dup3\n        /* \"--CODEGEN--\":1420:1457   */\n      mstore\n        /* \"--CODEGEN--\":1414:1462   */\n      pop\n      pop\n      jump\t// out\n        /* \"--CODEGEN--\":1470:1852   */\n    tag_129:\n      0x00\n        /* \"--CODEGEN--\":1630:1697   */\n      tag_131\n        /* \"--CODEGEN--\":1694:1696   */\n      0x2d\n        /* \"--CODEGEN--\":1689:1692   */\n      dup4\n        /* \"--CODEGEN--\":1630:1697   */\n      tag_132\n      jump\t// in\n    tag_131:\n        /* \"--CODEGEN--\":1623:1697   */\n      swap2\n      pop\n        /* \"--CODEGEN--\":1730:1764   */\n      0x4e6f207469656e6573207065726d69736f73207061726120656a656375746172\n        /* \"--CODEGEN--\":1726:1727   */\n      0x00\n        /* \"--CODEGEN--\":1721:1724   */\n      dup4\n        /* \"--CODEGEN--\":1717:1728   */\n      add\n        /* \"--CODEGEN--\":1710:1765   */\n      mstore\n        /* \"--CODEGEN--\":1799:1814   */\n      0x20657374612066756e63696f6e00000000000000000000000000000000000000\n        /* \"--CODEGEN--\":1794:1796   */\n      0x20\n        /* \"--CODEGEN--\":1789:1792   */\n      dup4\n        /* \"--CODEGEN--\":1785:1797   */\n      add\n        /* \"--CODEGEN--\":1778:1815   */\n      mstore\n        /* \"--CODEGEN--\":1843:1845   */\n      0x40\n        /* \"--CODEGEN--\":1838:1841   */\n      dup3\n        /* \"--CODEGEN--\":1834:1846   */\n      add\n        /* \"--CODEGEN--\":1827:1846   */\n      swap1\n      pop\n        /* \"--CODEGEN--\":1616:1852   */\n      swap2\n      swap1\n      pop\n      jump\t// out\n        /* \"--CODEGEN--\":1861:2191   */\n    tag_133:\n      0x00\n        /* \"--CODEGEN--\":2021:2088   */\n      tag_135\n        /* \"--CODEGEN--\":2085:2087   */\n      0x1e\n        /* \"--CODEGEN--\":2080:2083   */\n      dup4\n        /* \"--CODEGEN--\":2021:2088   */\n      tag_132\n      jump\t// in\n    tag_135:\n        /* \"--CODEGEN--\":2014:2088   */\n      swap2\n      pop\n        /* \"--CODEGEN--\":2121:2153   */\n      0x43616e746964616420646520657468657220696e737566696369656e74650000\n        /* \"--CODEGEN--\":2117:2118   */\n      0x00\n        /* \"--CODEGEN--\":2112:2115   */\n      dup4\n        /* \"--CODEGEN--\":2108:2119   */\n      add\n        /* \"--CODEGEN--\":2101:2154   */\n      mstore\n        /* \"--CODEGEN--\":2182:2184   */\n      0x20\n        /* \"--CODEGEN--\":2177:2180   */\n      dup3\n        /* \"--CODEGEN--\":2173:2185   */\n      add\n        /* \"--CODEGEN--\":2166:2185   */\n      swap1\n      pop\n        /* \"--CODEGEN--\":2007:2191   */\n      swap2\n      swap1\n      pop\n      jump\t// out\n        /* \"--CODEGEN--\":2200:2532   */\n    tag_136:\n      0x00\n        /* \"--CODEGEN--\":2360:2427   */\n      tag_138\n        /* \"--CODEGEN--\":2424:2426   */\n      0x20\n        /* \"--CODEGEN--\":2419:2422   */\n      dup4\n        /* \"--CODEGEN--\":2360:2427   */\n      tag_132\n      jump\t// in\n    tag_138:\n        /* \"--CODEGEN--\":2353:2427   */\n      swap2\n      pop\n        /* \"--CODEGEN--\":2460:2494   */\n      0x43616e746964616420646520746f6b656e7320696e737566696369656e746573\n        /* \"--CODEGEN--\":2456:2457   */\n      0x00\n        /* \"--CODEGEN--\":2451:2454   */\n      dup4\n        /* \"--CODEGEN--\":2447:2458   */\n      add\n        /* \"--CODEGEN--\":2440:2495   */\n      mstore\n        /* \"--CODEGEN--\":2523:2525   */\n      0x20\n        /* \"--CODEGEN--\":2518:2521   */\n      dup3\n        /* \"--CODEGEN--\":2514:2526   */\n      add\n        /* \"--CODEGEN--\":2507:2526   */\n      swap1\n      pop\n        /* \"--CODEGEN--\":2346:2532   */\n      swap2\n      swap1\n      pop\n      jump\t// out\n        /* \"--CODEGEN--\":2540:2653   */\n    tag_139:\n        /* \"--CODEGEN--\":2623:2647   */\n      tag_141\n        /* \"--CODEGEN--\":2641:2646   */\n      dup2\n        /* \"--CODEGEN--\":2623:2647   */\n      tag_142\n      jump\t// in\n    tag_141:\n        /* \"--CODEGEN--\":2618:2621   */\n      dup3\n        /* \"--CODEGEN--\":2611:2648   */\n      mstore\n        /* \"--CODEGEN--\":2605:2653   */\n      pop\n      pop\n      jump\t// out\n        /* \"--CODEGEN--\":2660:2882   */\n    tag_29:\n      0x00\n        /* \"--CODEGEN--\":2787:2789   */\n      0x20\n        /* \"--CODEGEN--\":2776:2785   */\n      dup3\n        /* \"--CODEGEN--\":2772:2790   */\n      add\n        /* \"--CODEGEN--\":2764:2790   */\n      swap1\n      pop\n        /* \"--CODEGEN--\":2801:2872   */\n      tag_144\n        /* \"--CODEGEN--\":2869:2870   */\n      0x00\n        /* \"--CODEGEN--\":2858:2867   */\n      dup4\n        /* \"--CODEGEN--\":2854:2871   */\n      add\n        /* \"--CODEGEN--\":2845:2851   */\n      dup5\n        /* \"--CODEGEN--\":2801:2872   */\n      tag_125\n      jump\t// in\n    tag_144:\n        /* \"--CODEGEN--\":2758:2882   */\n      swap3\n      swap2\n      pop\n      pop\n      jump\t// out\n        /* \"--CODEGEN--\":2889:3127   */\n    tag_63:\n      0x00\n        /* \"--CODEGEN--\":3024:3026   */\n      0x20\n        /* \"--CODEGEN--\":3013:3022   */\n      dup3\n        /* \"--CODEGEN--\":3009:3027   */\n      add\n        /* \"--CODEGEN--\":3001:3027   */\n      swap1\n      pop\n        /* \"--CODEGEN--\":3038:3117   */\n      tag_146\n        /* \"--CODEGEN--\":3114:3115   */\n      0x00\n        /* \"--CODEGEN--\":3103:3112   */\n      dup4\n        /* \"--CODEGEN--\":3099:3116   */\n      add\n        /* \"--CODEGEN--\":3090:3096   */\n      dup5\n        /* \"--CODEGEN--\":3038:3117   */\n      tag_121\n      jump\t// in\n    tag_146:\n        /* \"--CODEGEN--\":2995:3127   */\n      swap3\n      swap2\n      pop\n      pop\n      jump\t// out\n        /* \"--CODEGEN--\":3134:3483   */\n    tag_85:\n      0x00\n        /* \"--CODEGEN--\":3297:3299   */\n      0x40\n        /* \"--CODEGEN--\":3286:3295   */\n      dup3\n        /* \"--CODEGEN--\":3282:3300   */\n      add\n        /* \"--CODEGEN--\":3274:3300   */\n      swap1\n      pop\n        /* \"--CODEGEN--\":3311:3390   */\n      tag_148\n        /* \"--CODEGEN--\":3387:3388   */\n      0x00\n        /* \"--CODEGEN--\":3376:3385   */\n      dup4\n        /* \"--CODEGEN--\":3372:3389   */\n      add\n        /* \"--CODEGEN--\":3363:3369   */\n      dup6\n        /* \"--CODEGEN--\":3311:3390   */\n      tag_121\n      jump\t// in\n    tag_148:\n        /* \"--CODEGEN--\":3401:3473   */\n      tag_149\n        /* \"--CODEGEN--\":3469:3471   */\n      0x20\n        /* \"--CODEGEN--\":3458:3467   */\n      dup4\n        /* \"--CODEGEN--\":3454:3472   */\n      add\n        /* \"--CODEGEN--\":3445:3451   */\n      dup5\n        /* \"--CODEGEN--\":3401:3473   */\n      tag_139\n      jump\t// in\n    tag_149:\n        /* \"--CODEGEN--\":3268:3483   */\n      swap4\n      swap3\n      pop\n      pop\n      pop\n      jump\t// out\n        /* \"--CODEGEN--\":3490:3906   */\n    tag_48:\n      0x00\n        /* \"--CODEGEN--\":3690:3692   */\n      0x20\n        /* \"--CODEGEN--\":3679:3688   */\n      dup3\n        /* \"--CODEGEN--\":3675:3693   */\n      add\n        /* \"--CODEGEN--\":3667:3693   */\n      swap1\n      pop\n        /* \"--CODEGEN--\":3740:3749   */\n      dup2\n        /* \"--CODEGEN--\":3734:3738   */\n      dup2\n        /* \"--CODEGEN--\":3730:3750   */\n      sub\n        /* \"--CODEGEN--\":3726:3727   */\n      0x00\n        /* \"--CODEGEN--\":3715:3724   */\n      dup4\n        /* \"--CODEGEN--\":3711:3728   */\n      add\n        /* \"--CODEGEN--\":3704:3751   */\n      mstore\n        /* \"--CODEGEN--\":3765:3896   */\n      tag_151\n        /* \"--CODEGEN--\":3891:3895   */\n      dup2\n        /* \"--CODEGEN--\":3765:3896   */\n      tag_129\n      jump\t// in\n    tag_151:\n        /* \"--CODEGEN--\":3757:3896   */\n      swap1\n      pop\n        /* \"--CODEGEN--\":3661:3906   */\n      swap2\n      swap1\n      pop\n      jump\t// out\n        /* \"--CODEGEN--\":3913:4329   */\n    tag_73:\n      0x00\n        /* \"--CODEGEN--\":4113:4115   */\n      0x20\n        /* \"--CODEGEN--\":4102:4111   */\n      dup3\n        /* \"--CODEGEN--\":4098:4116   */\n      add\n        /* \"--CODEGEN--\":4090:4116   */\n      swap1\n      pop\n        /* \"--CODEGEN--\":4163:4172   */\n      dup2\n        /* \"--CODEGEN--\":4157:4161   */\n      dup2\n        /* \"--CODEGEN--\":4153:4173   */\n      sub\n        /* \"--CODEGEN--\":4149:4150   */\n      0x00\n        /* \"--CODEGEN--\":4138:4147   */\n      dup4\n        /* \"--CODEGEN--\":4134:4151   */\n      add\n        /* \"--CODEGEN--\":4127:4174   */\n      mstore\n        /* \"--CODEGEN--\":4188:4319   */\n      tag_153\n        /* \"--CODEGEN--\":4314:4318   */\n      dup2\n        /* \"--CODEGEN--\":4188:4319   */\n      tag_133\n      jump\t// in\n    tag_153:\n        /* \"--CODEGEN--\":4180:4319   */\n      swap1\n      pop\n        /* \"--CODEGEN--\":4084:4329   */\n      swap2\n      swap1\n      pop\n      jump\t// out\n        /* \"--CODEGEN--\":4336:4752   */\n    tag_81:\n      0x00\n        /* \"--CODEGEN--\":4536:4538   */\n      0x20\n        /* \"--CODEGEN--\":4525:4534   */\n      dup3\n        /* \"--CODEGEN--\":4521:4539   */\n      add\n        /* \"--CODEGEN--\":4513:4539   */\n      swap1\n      pop\n        /* \"--CODEGEN--\":4586:4595   */\n      dup2\n        /* \"--CODEGEN--\":4580:4584   */\n      dup2\n        /* \"--CODEGEN--\":4576:4596   */\n      sub\n        /* \"--CODEGEN--\":4572:4573   */\n      0x00\n        /* \"--CODEGEN--\":4561:4570   */\n      dup4\n        /* \"--CODEGEN--\":4557:4574   */\n      add\n        /* \"--CODEGEN--\":4550:4597   */\n      mstore\n        /* \"--CODEGEN--\":4611:4742   */\n      tag_155\n        /* \"--CODEGEN--\":4737:4741   */\n      dup2\n        /* \"--CODEGEN--\":4611:4742   */\n      tag_136\n      jump\t// in\n    tag_155:\n        /* \"--CODEGEN--\":4603:4742   */\n      swap1\n      pop\n        /* \"--CODEGEN--\":4507:4752   */\n      swap2\n      swap1\n      pop\n      jump\t// out\n        /* \"--CODEGEN--\":4759:4981   */\n    tag_20:\n      0x00\n        /* \"--CODEGEN--\":4886:4888   */\n      0x20\n        /* \"--CODEGEN--\":4875:4884   */\n      dup3\n        /* \"--CODEGEN--\":4871:4889   */\n      add\n        /* \"--CODEGEN--\":4863:4889   */\n      swap1\n      pop\n        /* \"--CODEGEN--\":4900:4971   */\n      tag_157\n        /* \"--CODEGEN--\":4968:4969   */\n      0x00\n        /* \"--CODEGEN--\":4957:4966   */\n      dup4\n        /* \"--CODEGEN--\":4953:4970   */\n      add\n        /* \"--CODEGEN--\":4944:4950   */\n      dup5\n        /* \"--CODEGEN--\":4900:4971   */\n      tag_139\n      jump\t// in\n    tag_157:\n        /* \"--CODEGEN--\":4857:4981   */\n      swap3\n      swap2\n      pop\n      pop\n      jump\t// out\n        /* \"--CODEGEN--\":4988:5337   */\n    tag_92:\n      0x00\n        /* \"--CODEGEN--\":5151:5153   */\n      0x40\n        /* \"--CODEGEN--\":5140:5149   */\n      dup3\n        /* \"--CODEGEN--\":5136:5154   */\n      add\n        /* \"--CODEGEN--\":5128:5154   */\n      swap1\n      pop\n        /* \"--CODEGEN--\":5165:5236   */\n      tag_159\n        /* \"--CODEGEN--\":5233:5234   */\n      0x00\n        /* \"--CODEGEN--\":5222:5231   */\n      dup4\n        /* \"--CODEGEN--\":5218:5235   */\n      add\n        /* \"--CODEGEN--\":5209:5215   */\n      dup6\n        /* \"--CODEGEN--\":5165:5236   */\n      tag_139\n      jump\t// in\n    tag_159:\n        /* \"--CODEGEN--\":5247:5327   */\n      tag_160\n        /* \"--CODEGEN--\":5323:5325   */\n      0x20\n        /* \"--CODEGEN--\":5312:5321   */\n      dup4\n        /* \"--CODEGEN--\":5308:5326   */\n      add\n        /* \"--CODEGEN--\":5299:5305   */\n      dup5\n        /* \"--CODEGEN--\":5247:5327   */\n      tag_121\n      jump\t// in\n    tag_160:\n        /* \"--CODEGEN--\":5122:5337   */\n      swap4\n      swap3\n      pop\n      pop\n      pop\n      jump\t// out\n        /* \"--CODEGEN--\":5345:5508   */\n    tag_132:\n      0x00\n        /* \"--CODEGEN--\":5460:5466   */\n      dup3\n        /* \"--CODEGEN--\":5455:5458   */\n      dup3\n        /* \"--CODEGEN--\":5448:5467   */\n      mstore\n        /* \"--CODEGEN--\":5497:5501   */\n      0x20\n        /* \"--CODEGEN--\":5492:5495   */\n      dup3\n        /* \"--CODEGEN--\":5488:5502   */\n      add\n        /* \"--CODEGEN--\":5473:5502   */\n      swap1\n      pop\n        /* \"--CODEGEN--\":5441:5508   */\n      swap3\n      swap2\n      pop\n      pop\n      jump\t// out\n        /* \"--CODEGEN--\":5516:5607   */\n    tag_128:\n      0x00\n        /* \"--CODEGEN--\":5578:5602   */\n      tag_163\n        /* \"--CODEGEN--\":5596:5601   */\n      dup3\n        /* \"--CODEGEN--\":5578:5602   */\n      tag_164\n      jump\t// in\n    tag_163:\n        /* \"--CODEGEN--\":5567:5602   */\n      swap1\n      pop\n        /* \"--CODEGEN--\":5561:5607   */\n      swap2\n      swap1\n      pop\n      jump\t// out\n        /* \"--CODEGEN--\":5614:5699   */\n    tag_165:\n      0x00\n        /* \"--CODEGEN--\":5687:5692   */\n      dup2\n        /* \"--CODEGEN--\":5680:5693   */\n      iszero\n        /* \"--CODEGEN--\":5673:5694   */\n      iszero\n        /* \"--CODEGEN--\":5662:5694   */\n      swap1\n      pop\n        /* \"--CODEGEN--\":5656:5699   */\n      swap2\n      swap1\n      pop\n      jump\t// out\n        /* \"--CODEGEN--\":5706:5827   */\n    tag_164:\n      0x00\n        /* \"--CODEGEN--\":5779:5821   */\n      0xffffffffffffffffffffffffffffffffffffffff\n        /* \"--CODEGEN--\":5772:5777   */\n      dup3\n        /* \"--CODEGEN--\":5768:5822   */\n      and\n        /* \"--CODEGEN--\":5757:5822   */\n      swap1\n      pop\n        /* \"--CODEGEN--\":5751:5827   */\n      swap2\n      swap1\n      pop\n      jump\t// out\n        /* \"--CODEGEN--\":5834:5906   */\n    tag_142:\n      0x00\n        /* \"--CODEGEN--\":5896:5901   */\n      dup2\n        /* \"--CODEGEN--\":5885:5901   */\n      swap1\n      pop\n        /* \"--CODEGEN--\":5879:5906   */\n      swap2\n      swap1\n      pop\n      jump\t// out\n        /* \"--CODEGEN--\":5913:6042   */\n    tag_124:\n      0x00\n        /* \"--CODEGEN--\":6000:6037   */\n      tag_170\n        /* \"--CODEGEN--\":6031:6036   */\n      dup3\n        /* \"--CODEGEN--\":6000:6037   */\n      tag_171\n      jump\t// in\n    tag_170:\n        /* \"--CODEGEN--\":5987:6037   */\n      swap1\n      pop\n        /* \"--CODEGEN--\":5981:6042   */\n      swap2\n      swap1\n      pop\n      jump\t// out\n        /* \"--CODEGEN--\":6049:6170   */\n    tag_171:\n      0x00\n        /* \"--CODEGEN--\":6128:6165   */\n      tag_173\n        /* \"--CODEGEN--\":6159:6164   */\n      dup3\n        /* \"--CODEGEN--\":6128:6165   */\n      tag_174\n      jump\t// in\n    tag_173:\n        /* \"--CODEGEN--\":6115:6165   */\n      swap1\n      pop\n        /* \"--CODEGEN--\":6109:6170   */\n      swap2\n      swap1\n      pop\n      jump\t// out\n        /* \"--CODEGEN--\":6177:6285   */\n    tag_174:\n      0x00\n        /* \"--CODEGEN--\":6256:6280   */\n      tag_176\n        /* \"--CODEGEN--\":6274:6279   */\n      dup3\n        /* \"--CODEGEN--\":6256:6280   */\n      tag_164\n      jump\t// in\n    tag_176:\n        /* \"--CODEGEN--\":6243:6280   */\n      swap1\n      pop\n        /* \"--CODEGEN--\":6237:6285   */\n      swap2\n      swap1\n      pop\n      jump\t// out\n        /* \"--CODEGEN--\":6292:6403   */\n    tag_104:\n        /* \"--CODEGEN--\":6358:6379   */\n      tag_178\n        /* \"--CODEGEN--\":6373:6378   */\n      dup2\n        /* \"--CODEGEN--\":6358:6379   */\n      tag_165\n      jump\t// in\n    tag_178:\n        /* \"--CODEGEN--\":6351:6356   */\n      dup2\n        /* \"--CODEGEN--\":6348:6380   */\n      eq\n        /* \"--CODEGEN--\":6338:6340   */\n      tag_179\n      jumpi\n        /* \"--CODEGEN--\":6394:6395   */\n      0x00\n        /* \"--CODEGEN--\":6391:6392   */\n      dup1\n        /* \"--CODEGEN--\":6384:6396   */\n      revert\n        /* \"--CODEGEN--\":6338:6340   */\n    tag_179:\n        /* \"--CODEGEN--\":6332:6403   */\n      pop\n      jump\t// out\n        /* \"--CODEGEN--\":6410:6527   */\n    tag_108:\n        /* \"--CODEGEN--\":6479:6503   */\n      tag_181\n        /* \"--CODEGEN--\":6497:6502   */\n      dup2\n        /* \"--CODEGEN--\":6479:6503   */\n      tag_142\n      jump\t// in\n    tag_181:\n        /* \"--CODEGEN--\":6472:6477   */\n      dup2\n        /* \"--CODEGEN--\":6469:6504   */\n      eq\n        /* \"--CODEGEN--\":6459:6461   */\n      tag_182\n      jumpi\n        /* \"--CODEGEN--\":6518:6519   */\n      0x00\n        /* \"--CODEGEN--\":6515:6516   */\n      dup1\n        /* \"--CODEGEN--\":6508:6520   */\n      revert\n        /* \"--CODEGEN--\":6459:6461   */\n    tag_182:\n        /* \"--CODEGEN--\":6453:6527   */\n      pop\n      jump\t// out\n\n    auxdata: 0xa26469706673582212209e726e858d4ae919be9af11e61f5e73490d7cb41052dd3a39d94e07c28e6ccdc64736f6c634300060c0033\n}\n\nsub_1: assembly {\n        /* \"Loteria/ERC20.sol\":1469:3780  contract ERC20Basic is IERC20 {\r... */\n      mstore(0x40, 0x80)\n        /* \"Loteria/ERC20.sol\":1813:1949  constructor (uint256 initialSupply) public {\r... */\n      callvalue\n      dup1\n      iszero\n      tag_1\n      jumpi\n      0x00\n      dup1\n      revert\n    tag_1:\n      pop\n      mload(0x40)\n      sub(codesize, bytecodeSize)\n      dup1\n      bytecodeSize\n      dup4\n      codecopy\n      dup2\n      dup2\n      add\n      0x40\n      mstore\n      dup2\n      add\n      swap1\n      tag_2\n      swap2\n      swap1\n      tag_3\n      jump\t// in\n    tag_2:\n        /* \"Loteria/ERC20.sol\":1882:1895  initialSupply */\n      dup1\n        /* \"Loteria/ERC20.sol\":1867:1879  totalSupply_ */\n      0x02\n        /* \"Loteria/ERC20.sol\":1867:1895  totalSupply_ = initialSupply */\n      dup2\n      swap1\n      sstore\n      pop\n        /* \"Loteria/ERC20.sol\":1929:1941  totalSupply_ */\n      sload(0x02)\n        /* \"Loteria/ERC20.sol\":1906:1914  balances */\n      0x00\n        /* \"Loteria/ERC20.sol\":1906:1926  balances[msg.sender] */\n      dup1\n        /* \"Loteria/ERC20.sol\":1915:1925  msg.sender */\n      caller\n        /* \"Loteria/ERC20.sol\":1906:1926  balances[msg.sender] */\n      0xffffffffffffffffffffffffffffffffffffffff\n      and\n      0xffffffffffffffffffffffffffffffffffffffff\n      and\n      dup2\n      mstore\n      0x20\n      add\n      swap1\n      dup2\n      mstore\n      0x20\n      add\n      0x00\n      keccak256\n        /* \"Loteria/ERC20.sol\":1906:1941  balances[msg.sender] = totalSupply_ */\n      dup2\n      swap1\n      sstore\n      pop\n        /* \"Loteria/ERC20.sol\":1813:1949  constructor (uint256 initialSupply) public {\r... */\n      pop\n        /* \"Loteria/ERC20.sol\":1469:3780  contract ERC20Basic is IERC20 {\r... */\n      jump(tag_6)\n        /* \"--CODEGEN--\":5:139   */\n    tag_8:\n      0x00\n        /* \"--CODEGEN--\":89:95   */\n      dup2\n        /* \"--CODEGEN--\":83:96   */\n      mload\n        /* \"--CODEGEN--\":74:96   */\n      swap1\n      pop\n        /* \"--CODEGEN--\":101:134   */\n      tag_10\n        /* \"--CODEGEN--\":128:133   */\n      dup2\n        /* \"--CODEGEN--\":101:134   */\n      tag_11\n      jump\t// in\n    tag_10:\n        /* \"--CODEGEN--\":68:139   */\n      swap3\n      swap2\n      pop\n      pop\n      jump\t// out\n        /* \"--CODEGEN--\":146:409   */\n    tag_3:\n      0x00\n        /* \"--CODEGEN--\":261:263   */\n      0x20\n        /* \"--CODEGEN--\":249:258   */\n      dup3\n        /* \"--CODEGEN--\":240:247   */\n      dup5\n        /* \"--CODEGEN--\":236:259   */\n      sub\n        /* \"--CODEGEN--\":232:264   */\n      slt\n        /* \"--CODEGEN--\":229:231   */\n      iszero\n      tag_13\n      jumpi\n        /* \"--CODEGEN--\":277:278   */\n      0x00\n        /* \"--CODEGEN--\":274:275   */\n      dup1\n        /* \"--CODEGEN--\":267:279   */\n      revert\n        /* \"--CODEGEN--\":229:231   */\n    tag_13:\n        /* \"--CODEGEN--\":312:313   */\n      0x00\n        /* \"--CODEGEN--\":329:393   */\n      tag_14\n        /* \"--CODEGEN--\":385:392   */\n      dup5\n        /* \"--CODEGEN--\":376:382   */\n      dup3\n        /* \"--CODEGEN--\":365:374   */\n      dup6\n        /* \"--CODEGEN--\":361:383   */\n      add\n        /* \"--CODEGEN--\":329:393   */\n      tag_8\n      jump\t// in\n    tag_14:\n        /* \"--CODEGEN--\":319:393   */\n      swap2\n      pop\n        /* \"--CODEGEN--\":291:399   */\n      pop\n        /* \"--CODEGEN--\":223:409   */\n      swap3\n      swap2\n      pop\n      pop\n      jump\t// out\n        /* \"--CODEGEN--\":416:488   */\n    tag_15:\n      0x00\n        /* \"--CODEGEN--\":478:483   */\n      dup2\n        /* \"--CODEGEN--\":467:483   */\n      swap1\n      pop\n        /* \"--CODEGEN--\":461:488   */\n      swap2\n      swap1\n      pop\n      jump\t// out\n        /* \"--CODEGEN--\":495:612   */\n    tag_11:\n        /* \"--CODEGEN--\":564:588   */\n      tag_18\n        /* \"--CODEGEN--\":582:587   */\n      dup2\n        /* \"--CODEGEN--\":564:588   */\n      tag_15\n      jump\t// in\n    tag_18:\n        /* \"--CODEGEN--\":557:562   */\n      dup2\n        /* \"--CODEGEN--\":554:589   */\n      eq\n        /* \"--CODEGEN--\":544:546   */\n      tag_19\n      jumpi\n        /* \"--CODEGEN--\":603:604   */\n      0x00\n        /* \"--CODEGEN--\":600:601   */\n      dup1\n        /* \"--CODEGEN--\":593:605   */\n      revert\n        /* \"--CODEGEN--\":544:546   */\n    tag_19:\n        /* \"--CODEGEN--\":538:612   */\n      pop\n      jump\t// out\n        /* \"Loteria/ERC20.sol\":1469:3780  contract ERC20Basic is IERC20 {\r... */\n    tag_6:\n      dataSize(sub_0)\n      dup1\n      dataOffset(sub_0)\n      0x00\n      codecopy\n      0x00\n      return\n    stop\n\n    sub_0: assembly {\n            /* \"Loteria/ERC20.sol\":1469:3780  contract ERC20Basic is IERC20 {\r... */\n          mstore(0x40, 0x80)\n          callvalue\n          dup1\n          iszero\n          tag_1\n          jumpi\n          0x00\n          dup1\n          revert\n        tag_1:\n          pop\n          jumpi(tag_2, lt(calldatasize, 0x04))\n          shr(0xe0, calldataload(0x00))\n          dup1\n          0x313ce567\n          gt\n          tag_13\n          jumpi\n          dup1\n          0x313ce567\n          eq\n          tag_8\n          jumpi\n          dup1\n          0x70a08231\n          eq\n          tag_9\n          jumpi\n          dup1\n          0x95d89b41\n          eq\n          tag_10\n          jumpi\n          dup1\n          0xa9059cbb\n          eq\n          tag_11\n          jumpi\n          dup1\n          0xdd62ed3e\n          eq\n          tag_12\n          jumpi\n          jump(tag_2)\n        tag_13:\n          dup1\n          0x06fdde03\n          eq\n          tag_3\n          jumpi\n          dup1\n          0x095ea7b3\n          eq\n          tag_4\n          jumpi\n          dup1\n          0x18160ddd\n          eq\n          tag_5\n          jumpi\n          dup1\n          0x1d43cc98\n          eq\n          tag_6\n          jumpi\n          dup1\n          0x23b872dd\n          eq\n          tag_7\n          jumpi\n        tag_2:\n          0x00\n          dup1\n          revert\n            /* \"Loteria/ERC20.sol\":1543:1587  string public constant name = \"ERC20AKALugo\" */\n        tag_3:\n          tag_14\n          tag_15\n          jump\t// in\n        tag_14:\n          mload(0x40)\n          tag_16\n          swap2\n          swap1\n          tag_17\n          jump\t// in\n        tag_16:\n          mload(0x40)\n          dup1\n          swap2\n          sub\n          swap1\n          return\n            /* \"Loteria/ERC20.sol\":3047:3276  function approve(address spender, uint numTokens) public override returns(bool) {\r... */\n        tag_4:\n          tag_18\n          0x04\n          dup1\n          calldatasize\n          sub\n          dup2\n          add\n          swap1\n          tag_19\n          swap2\n          swap1\n          tag_20\n          jump\t// in\n        tag_19:\n          tag_21\n          jump\t// in\n        tag_18:\n          mload(0x40)\n          tag_22\n          swap2\n          swap1\n          tag_23\n          jump\t// in\n        tag_22:\n          mload(0x40)\n          dup1\n          swap2\n          sub\n          swap1\n          return\n            /* \"Loteria/ERC20.sol\":2122:2221  function totalSupply() public override view returns(uint256) {\r... */\n        tag_5:\n          tag_24\n          tag_25\n          jump\t// in\n        tag_24:\n          mload(0x40)\n          tag_26\n          swap2\n          swap1\n          tag_27\n          jump\t// in\n        tag_26:\n          mload(0x40)\n          dup1\n          swap2\n          sub\n          swap1\n          return\n            /* \"Loteria/ERC20.sol\":2229:2387  function increaseTotalSupply(uint newTokensAmount) public {\r... */\n        tag_6:\n          tag_28\n          0x04\n          dup1\n          calldatasize\n          sub\n          dup2\n          add\n          swap1\n          tag_29\n          swap2\n          swap1\n          tag_30\n          jump\t// in\n        tag_29:\n          tag_31\n          jump\t// in\n        tag_28:\n          stop\n            /* \"Loteria/ERC20.sol\":3284:3777  function transferFrom(address owner, address buyer, uint256 numTokens) public override returns(bool) {\r... */\n        tag_7:\n          tag_32\n          0x04\n          dup1\n          calldatasize\n          sub\n          dup2\n          add\n          swap1\n          tag_33\n          swap2\n          swap1\n          tag_34\n          jump\t// in\n        tag_33:\n          tag_35\n          jump\t// in\n        tag_32:\n          mload(0x40)\n          tag_36\n          swap2\n          swap1\n          tag_23\n          jump\t// in\n        tag_36:\n          mload(0x40)\n          dup1\n          swap2\n          sub\n          swap1\n          return\n            /* \"Loteria/ERC20.sol\":1638:1673  uint8 public constant decimals = 18 */\n        tag_8:\n          tag_37\n          tag_38\n          jump\t// in\n        tag_37:\n          mload(0x40)\n          tag_39\n          swap2\n          swap1\n          tag_40\n          jump\t// in\n        tag_39:\n          mload(0x40)\n          dup1\n          swap2\n          sub\n          swap1\n          return\n            /* \"Loteria/ERC20.sol\":2395:2513  function balanceOf(address account) public override view returns (uint256) {\r... */\n        tag_9:\n          tag_41\n          0x04\n          dup1\n          calldatasize\n          sub\n          dup2\n          add\n          swap1\n          tag_42\n          swap2\n          swap1\n          tag_43\n          jump\t// in\n        tag_42:\n          tag_44\n          jump\t// in\n        tag_41:\n          mload(0x40)\n          tag_45\n          swap2\n          swap1\n          tag_27\n          jump\t// in\n        tag_45:\n          mload(0x40)\n          dup1\n          swap2\n          sub\n          swap1\n          return\n            /* \"Loteria/ERC20.sol\":1594:1631  string public constant symbol = \"AKA\" */\n        tag_10:\n          tag_46\n          tag_47\n          jump\t// in\n        tag_46:\n          mload(0x40)\n          tag_48\n          swap2\n          swap1\n          tag_17\n          jump\t// in\n        tag_48:\n          mload(0x40)\n          dup1\n          swap2\n          sub\n          swap1\n          return\n            /* \"Loteria/ERC20.sol\":2668:3039  function transfer(address recipient, uint256 numTokens) public override returns(bool) {\r... */\n        tag_11:\n          tag_49\n          0x04\n          dup1\n          calldatasize\n          sub\n          dup2\n          add\n          swap1\n          tag_50\n          swap2\n          swap1\n          tag_20\n          jump\t// in\n        tag_50:\n          tag_51\n          jump\t// in\n        tag_49:\n          mload(0x40)\n          tag_52\n          swap2\n          swap1\n          tag_23\n          jump\t// in\n        tag_52:\n          mload(0x40)\n          dup1\n          swap2\n          sub\n          swap1\n          return\n            /* \"Loteria/ERC20.sol\":2521:2660  function allowance(address owner, address spender) public override view returns (uint256) {\r... */\n        tag_12:\n          tag_53\n          0x04\n          dup1\n          calldatasize\n          sub\n          dup2\n          add\n          swap1\n          tag_54\n          swap2\n          swap1\n          tag_55\n          jump\t// in\n        tag_54:\n          tag_56\n          jump\t// in\n        tag_53:\n          mload(0x40)\n          tag_57\n          swap2\n          swap1\n          tag_27\n          jump\t// in\n        tag_57:\n          mload(0x40)\n          dup1\n          swap2\n          sub\n          swap1\n          return\n            /* \"Loteria/ERC20.sol\":1543:1587  string public constant name = \"ERC20AKALugo\" */\n        tag_15:\n          mload(0x40)\n          dup1\n          0x40\n          add\n          0x40\n          mstore\n          dup1\n          0x0c\n          dup2\n          mstore\n          0x20\n          add\n          0x4552433230414b414c75676f0000000000000000000000000000000000000000\n          dup2\n          mstore\n          pop\n          dup2\n          jump\t// out\n            /* \"Loteria/ERC20.sol\":3047:3276  function approve(address spender, uint numTokens) public override returns(bool) {\r... */\n        tag_21:\n            /* \"Loteria/ERC20.sol\":3121:3125  bool */\n          0x00\n            /* \"Loteria/ERC20.sol\":3179:3188  numTokens */\n          dup2\n            /* \"Loteria/ERC20.sol\":3148:3155  allowed */\n          0x01\n            /* \"Loteria/ERC20.sol\":3148:3167  allowed[msg.sender] */\n          0x00\n            /* \"Loteria/ERC20.sol\":3156:3166  msg.sender */\n          caller\n            /* \"Loteria/ERC20.sol\":3148:3167  allowed[msg.sender] */\n          0xffffffffffffffffffffffffffffffffffffffff\n          and\n          0xffffffffffffffffffffffffffffffffffffffff\n          and\n          dup2\n          mstore\n          0x20\n          add\n          swap1\n          dup2\n          mstore\n          0x20\n          add\n          0x00\n          keccak256\n            /* \"Loteria/ERC20.sol\":3148:3176  allowed[msg.sender][spender] */\n          0x00\n            /* \"Loteria/ERC20.sol\":3168:3175  spender */\n          dup6\n            /* \"Loteria/ERC20.sol\":3148:3176  allowed[msg.sender][spender] */\n          0xffffffffffffffffffffffffffffffffffffffff\n          and\n          0xffffffffffffffffffffffffffffffffffffffff\n          and\n          dup2\n          mstore\n          0x20\n          add\n          swap1\n          dup2\n          mstore\n          0x20\n          add\n          0x00\n          keccak256\n            /* \"Loteria/ERC20.sol\":3148:3188  allowed[msg.sender][spender] = numTokens */\n          dup2\n          swap1\n          sstore\n          pop\n            /* \"Loteria/ERC20.sol\":3225:3232  spender */\n          dup3\n            /* \"Loteria/ERC20.sol\":3204:3244  Approval(msg.sender, spender, numTokens) */\n          0xffffffffffffffffffffffffffffffffffffffff\n          and\n            /* \"Loteria/ERC20.sol\":3213:3223  msg.sender */\n          caller\n            /* \"Loteria/ERC20.sol\":3204:3244  Approval(msg.sender, spender, numTokens) */\n          0xffffffffffffffffffffffffffffffffffffffff\n          and\n          0x8c5be1e5ebec7d5bd14f71427d1e84f3dd0314c0f7b2291e5b200ac8c7c3b925\n            /* \"Loteria/ERC20.sol\":3234:3243  numTokens */\n          dup5\n            /* \"Loteria/ERC20.sol\":3204:3244  Approval(msg.sender, spender, numTokens) */\n          mload(0x40)\n          tag_59\n          swap2\n          swap1\n          tag_27\n          jump\t// in\n        tag_59:\n          mload(0x40)\n          dup1\n          swap2\n          sub\n          swap1\n          log3\n            /* \"Loteria/ERC20.sol\":3264:3268  true */\n          0x01\n            /* \"Loteria/ERC20.sol\":3257:3268  return true */\n          swap1\n          pop\n            /* \"Loteria/ERC20.sol\":3047:3276  function approve(address spender, uint numTokens) public override returns(bool) {\r... */\n          swap3\n          swap2\n          pop\n          pop\n          jump\t// out\n            /* \"Loteria/ERC20.sol\":2122:2221  function totalSupply() public override view returns(uint256) {\r... */\n        tag_25:\n            /* \"Loteria/ERC20.sol\":2174:2181  uint256 */\n          0x00\n            /* \"Loteria/ERC20.sol\":2201:2213  totalSupply_ */\n          sload(0x02)\n            /* \"Loteria/ERC20.sol\":2194:2213  return totalSupply_ */\n          swap1\n          pop\n            /* \"Loteria/ERC20.sol\":2122:2221  function totalSupply() public override view returns(uint256) {\r... */\n          swap1\n          jump\t// out\n            /* \"Loteria/ERC20.sol\":2229:2387  function increaseTotalSupply(uint newTokensAmount) public {\r... */\n        tag_31:\n            /* \"Loteria/ERC20.sol\":2314:2329  newTokensAmount */\n          dup1\n            /* \"Loteria/ERC20.sol\":2298:2310  totalSupply_ */\n          0x02\n          0x00\n            /* \"Loteria/ERC20.sol\":2298:2329  totalSupply_ += newTokensAmount */\n          dup3\n          dup3\n          sload\n          add\n          swap3\n          pop\n          pop\n          dup2\n          swap1\n          sstore\n          pop\n            /* \"Loteria/ERC20.sol\":2364:2379  newTokensAmount */\n          dup1\n            /* \"Loteria/ERC20.sol\":2340:2348  balances */\n          0x00\n            /* \"Loteria/ERC20.sol\":2340:2360  balances[msg.sender] */\n          dup1\n            /* \"Loteria/ERC20.sol\":2349:2359  msg.sender */\n          caller\n            /* \"Loteria/ERC20.sol\":2340:2360  balances[msg.sender] */\n          0xffffffffffffffffffffffffffffffffffffffff\n          and\n          0xffffffffffffffffffffffffffffffffffffffff\n          and\n          dup2\n          mstore\n          0x20\n          add\n          swap1\n          dup2\n          mstore\n          0x20\n          add\n          0x00\n          keccak256\n          0x00\n            /* \"Loteria/ERC20.sol\":2340:2379  balances[msg.sender] += newTokensAmount */\n          dup3\n          dup3\n          sload\n          add\n          swap3\n          pop\n          pop\n          dup2\n          swap1\n          sstore\n          pop\n            /* \"Loteria/ERC20.sol\":2229:2387  function increaseTotalSupply(uint newTokensAmount) public {\r... */\n          pop\n          jump\t// out\n            /* \"Loteria/ERC20.sol\":3284:3777  function transferFrom(address owner, address buyer, uint256 numTokens) public override returns(bool) {\r... */\n        tag_35:\n            /* \"Loteria/ERC20.sol\":3379:3383  bool */\n          0x00\n            /* \"Loteria/ERC20.sol\":3424:3433  numTokens */\n          dup2\n            /* \"Loteria/ERC20.sol\":3405:3413  balances */\n          0x00\n            /* \"Loteria/ERC20.sol\":3405:3420  balances[owner] */\n          dup1\n            /* \"Loteria/ERC20.sol\":3414:3419  owner */\n          dup7\n            /* \"Loteria/ERC20.sol\":3405:3420  balances[owner] */\n          0xffffffffffffffffffffffffffffffffffffffff\n          and\n          0xffffffffffffffffffffffffffffffffffffffff\n          and\n          dup2\n          mstore\n          0x20\n          add\n          swap1\n          dup2\n          mstore\n          0x20\n          add\n          0x00\n          keccak256\n          sload\n            /* \"Loteria/ERC20.sol\":3405:3433  balances[owner] >= numTokens */\n          lt\n          iszero\n            /* \"Loteria/ERC20.sol\":3396:3434  require (balances[owner] >= numTokens) */\n          tag_63\n          jumpi\n          0x00\n          dup1\n          revert\n        tag_63:\n            /* \"Loteria/ERC20.sol\":3484:3493  numTokens */\n          dup2\n            /* \"Loteria/ERC20.sol\":3454:3461  allowed */\n          0x01\n            /* \"Loteria/ERC20.sol\":3454:3468  allowed[owner] */\n          0x00\n            /* \"Loteria/ERC20.sol\":3462:3467  owner */\n          dup7\n            /* \"Loteria/ERC20.sol\":3454:3468  allowed[owner] */\n          0xffffffffffffffffffffffffffffffffffffffff\n          and\n          0xffffffffffffffffffffffffffffffffffffffff\n          and\n          dup2\n          mstore\n          0x20\n          add\n          swap1\n          dup2\n          mstore\n          0x20\n          add\n          0x00\n          keccak256\n            /* \"Loteria/ERC20.sol\":3454:3480  allowed[owner][msg.sender] */\n          0x00\n            /* \"Loteria/ERC20.sol\":3469:3479  msg.sender */\n          caller\n            /* \"Loteria/ERC20.sol\":3454:3480  allowed[owner][msg.sender] */\n          0xffffffffffffffffffffffffffffffffffffffff\n          and\n          0xffffffffffffffffffffffffffffffffffffffff\n          and\n          dup2\n          mstore\n          0x20\n          add\n          swap1\n          dup2\n          mstore\n          0x20\n          add\n          0x00\n          keccak256\n          sload\n            /* \"Loteria/ERC20.sol\":3454:3493  allowed[owner][msg.sender] >= numTokens */\n          lt\n          iszero\n            /* \"Loteria/ERC20.sol\":3445:3494  require (allowed[owner][msg.sender] >= numTokens) */\n          tag_64\n          jumpi\n          0x00\n          dup1\n          revert\n        tag_64:\n            /* \"Loteria/ERC20.sol\":3525:3555  balances[owner].sub(numTokens) */\n          tag_65\n            /* \"Loteria/ERC20.sol\":3545:3554  numTokens */\n          dup3\n            /* \"Loteria/ERC20.sol\":3525:3533  balances */\n          0x00\n            /* \"Loteria/ERC20.sol\":3525:3540  balances[owner] */\n          dup1\n            /* \"Loteria/ERC20.sol\":3534:3539  owner */\n          dup8\n            /* \"Loteria/ERC20.sol\":3525:3540  balances[owner] */\n          0xffffffffffffffffffffffffffffffffffffffff\n          and\n          0xffffffffffffffffffffffffffffffffffffffff\n          and\n          dup2\n          mstore\n          0x20\n          add\n          swap1\n          dup2\n          mstore\n          0x20\n          add\n          0x00\n          keccak256\n          sload\n            /* \"Loteria/ERC20.sol\":3525:3544  balances[owner].sub */\n          tag_66\n          swap1\n            /* \"Loteria/ERC20.sol\":3525:3555  balances[owner].sub(numTokens) */\n          swap2\n          swap1\n          0xffffffff\n          and\n          jump\t// in\n        tag_65:\n            /* \"Loteria/ERC20.sol\":3507:3515  balances */\n          0x00\n            /* \"Loteria/ERC20.sol\":3507:3522  balances[owner] */\n          dup1\n            /* \"Loteria/ERC20.sol\":3516:3521  owner */\n          dup7\n            /* \"Loteria/ERC20.sol\":3507:3522  balances[owner] */\n          0xffffffffffffffffffffffffffffffffffffffff\n          and\n          0xffffffffffffffffffffffffffffffffffffffff\n          and\n          dup2\n          mstore\n          0x20\n          add\n          swap1\n          dup2\n          mstore\n          0x20\n          add\n          0x00\n          keccak256\n            /* \"Loteria/ERC20.sol\":3507:3555  balances[owner] = balances[owner].sub(numTokens) */\n          dup2\n          swap1\n          sstore\n          pop\n            /* \"Loteria/ERC20.sol\":3595:3636  allowed[owner][msg.sender].sub(numTokens) */\n          tag_67\n            /* \"Loteria/ERC20.sol\":3626:3635  numTokens */\n          dup3\n            /* \"Loteria/ERC20.sol\":3595:3602  allowed */\n          0x01\n            /* \"Loteria/ERC20.sol\":3595:3609  allowed[owner] */\n          0x00\n            /* \"Loteria/ERC20.sol\":3603:3608  owner */\n          dup8\n            /* \"Loteria/ERC20.sol\":3595:3609  allowed[owner] */\n          0xffffffffffffffffffffffffffffffffffffffff\n          and\n          0xffffffffffffffffffffffffffffffffffffffff\n          and\n          dup2\n          mstore\n          0x20\n          add\n          swap1\n          dup2\n          mstore\n          0x20\n          add\n          0x00\n          keccak256\n            /* \"Loteria/ERC20.sol\":3595:3621  allowed[owner][msg.sender] */\n          0x00\n            /* \"Loteria/ERC20.sol\":3610:3620  msg.sender */\n          caller\n            /* \"Loteria/ERC20.sol\":3595:3621  allowed[owner][msg.sender] */\n          0xffffffffffffffffffffffffffffffffffffffff\n          and\n          0xffffffffffffffffffffffffffffffffffffffff\n          and\n          dup2\n          mstore\n          0x20\n          add\n          swap1\n          dup2\n          mstore\n          0x20\n          add\n          0x00\n          keccak256\n          sload\n            /* \"Loteria/ERC20.sol\":3595:3625  allowed[owner][msg.sender].sub */\n          tag_66\n          swap1\n            /* \"Loteria/ERC20.sol\":3595:3636  allowed[owner][msg.sender].sub(numTokens) */\n          swap2\n          swap1\n          0xffffffff\n          and\n          jump\t// in\n        tag_67:\n            /* \"Loteria/ERC20.sol\":3566:3573  allowed */\n          0x01\n            /* \"Loteria/ERC20.sol\":3566:3580  allowed[owner] */\n          0x00\n            /* \"Loteria/ERC20.sol\":3574:3579  owner */\n          dup7\n            /* \"Loteria/ERC20.sol\":3566:3580  allowed[owner] */\n          0xffffffffffffffffffffffffffffffffffffffff\n          and\n          0xffffffffffffffffffffffffffffffffffffffff\n          and\n          dup2\n          mstore\n          0x20\n          add\n          swap1\n          dup2\n          mstore\n          0x20\n          add\n          0x00\n          keccak256\n            /* \"Loteria/ERC20.sol\":3566:3592  allowed[owner][msg.sender] */\n          0x00\n            /* \"Loteria/ERC20.sol\":3581:3591  msg.sender */\n          caller\n            /* \"Loteria/ERC20.sol\":3566:3592  allowed[owner][msg.sender] */\n          0xffffffffffffffffffffffffffffffffffffffff\n          and\n          0xffffffffffffffffffffffffffffffffffffffff\n          and\n          dup2\n          mstore\n          0x20\n          add\n          swap1\n          dup2\n          mstore\n          0x20\n          add\n          0x00\n          keccak256\n            /* \"Loteria/ERC20.sol\":3566:3636  allowed[owner][msg.sender] = allowed[owner][msg.sender].sub(numTokens) */\n          dup2\n          swap1\n          sstore\n          pop\n            /* \"Loteria/ERC20.sol\":3665:3695  balances[buyer].add(numTokens) */\n          tag_68\n            /* \"Loteria/ERC20.sol\":3685:3694  numTokens */\n          dup3\n            /* \"Loteria/ERC20.sol\":3665:3673  balances */\n          0x00\n            /* \"Loteria/ERC20.sol\":3665:3680  balances[buyer] */\n          dup1\n            /* \"Loteria/ERC20.sol\":3674:3679  buyer */\n          dup7\n            /* \"Loteria/ERC20.sol\":3665:3680  balances[buyer] */\n          0xffffffffffffffffffffffffffffffffffffffff\n          and\n          0xffffffffffffffffffffffffffffffffffffffff\n          and\n          dup2\n          mstore\n          0x20\n          add\n          swap1\n          dup2\n          mstore\n          0x20\n          add\n          0x00\n          keccak256\n          sload\n            /* \"Loteria/ERC20.sol\":3665:3684  balances[buyer].add */\n          tag_69\n          swap1\n            /* \"Loteria/ERC20.sol\":3665:3695  balances[buyer].add(numTokens) */\n          swap2\n          swap1\n          0xffffffff\n          and\n          jump\t// in\n        tag_68:\n            /* \"Loteria/ERC20.sol\":3647:3655  balances */\n          0x00\n            /* \"Loteria/ERC20.sol\":3647:3662  balances[buyer] */\n          dup1\n            /* \"Loteria/ERC20.sol\":3656:3661  buyer */\n          dup6\n            /* \"Loteria/ERC20.sol\":3647:3662  balances[buyer] */\n          0xffffffffffffffffffffffffffffffffffffffff\n          and\n          0xffffffffffffffffffffffffffffffffffffffff\n          and\n          dup2\n          mstore\n          0x20\n          add\n          swap1\n          dup2\n          mstore\n          0x20\n          add\n          0x00\n          keccak256\n            /* \"Loteria/ERC20.sol\":3647:3695  balances[buyer] = balances[buyer].add(numTokens) */\n          dup2\n          swap1\n          sstore\n          pop\n            /* \"Loteria/ERC20.sol\":3729:3734  buyer */\n          dup3\n            /* \"Loteria/ERC20.sol\":3713:3746  Transfer(owner, buyer, numTokens) */\n          0xffffffffffffffffffffffffffffffffffffffff\n          and\n            /* \"Loteria/ERC20.sol\":3722:3727  owner */\n          dup5\n            /* \"Loteria/ERC20.sol\":3713:3746  Transfer(owner, buyer, numTokens) */\n          0xffffffffffffffffffffffffffffffffffffffff\n          and\n          0xddf252ad1be2c89b69c2b068fc378daa952ba7f163c4a11628f55a4df523b3ef\n            /* \"Loteria/ERC20.sol\":3736:3745  numTokens */\n          dup5\n            /* \"Loteria/ERC20.sol\":3713:3746  Transfer(owner, buyer, numTokens) */\n          mload(0x40)\n          tag_70\n          swap2\n          swap1\n          tag_27\n          jump\t// in\n        tag_70:\n          mload(0x40)\n          dup1\n          swap2\n          sub\n          swap1\n          log3\n            /* \"Loteria/ERC20.sol\":3765:3769  true */\n          0x01\n            /* \"Loteria/ERC20.sol\":3758:3769  return true */\n          swap1\n          pop\n            /* \"Loteria/ERC20.sol\":3284:3777  function transferFrom(address owner, address buyer, uint256 numTokens) public override returns(bool) {\r... */\n          swap4\n          swap3\n          pop\n          pop\n          pop\n          jump\t// out\n            /* \"Loteria/ERC20.sol\":1638:1673  uint8 public constant decimals = 18 */\n        tag_38:\n            /* \"Loteria/ERC20.sol\":1671:1673  18 */\n          0x12\n            /* \"Loteria/ERC20.sol\":1638:1673  uint8 public constant decimals = 18 */\n          dup2\n          jump\t// out\n            /* \"Loteria/ERC20.sol\":2395:2513  function balanceOf(address account) public override view returns (uint256) {\r... */\n        tag_44:\n            /* \"Loteria/ERC20.sol\":2461:2468  uint256 */\n          0x00\n            /* \"Loteria/ERC20.sol\":2488:2496  balances */\n          dup1\n            /* \"Loteria/ERC20.sol\":2488:2505  balances[account] */\n          0x00\n            /* \"Loteria/ERC20.sol\":2497:2504  account */\n          dup4\n            /* \"Loteria/ERC20.sol\":2488:2505  balances[account] */\n          0xffffffffffffffffffffffffffffffffffffffff\n          and\n          0xffffffffffffffffffffffffffffffffffffffff\n          and\n          dup2\n          mstore\n          0x20\n          add\n          swap1\n          dup2\n          mstore\n          0x20\n          add\n          0x00\n          keccak256\n          sload\n            /* \"Loteria/ERC20.sol\":2481:2505  return balances[account] */\n          swap1\n          pop\n            /* \"Loteria/ERC20.sol\":2395:2513  function balanceOf(address account) public override view returns (uint256) {\r... */\n          swap2\n          swap1\n          pop\n          jump\t// out\n            /* \"Loteria/ERC20.sol\":1594:1631  string public constant symbol = \"AKA\" */\n        tag_47:\n          mload(0x40)\n          dup1\n          0x40\n          add\n          0x40\n          mstore\n          dup1\n          0x03\n          dup2\n          mstore\n          0x20\n          add\n          0x414b410000000000000000000000000000000000000000000000000000000000\n          dup2\n          mstore\n          pop\n          dup2\n          jump\t// out\n            /* \"Loteria/ERC20.sol\":2668:3039  function transfer(address recipient, uint256 numTokens) public override returns(bool) {\r... */\n        tag_51:\n            /* \"Loteria/ERC20.sol\":2748:2752  bool */\n          0x00\n            /* \"Loteria/ERC20.sol\":2787:2795  balances */\n          dup1\n            /* \"Loteria/ERC20.sol\":2787:2807  balances[msg.sender] */\n          0x00\n            /* \"Loteria/ERC20.sol\":2796:2806  msg.sender */\n          caller\n            /* \"Loteria/ERC20.sol\":2787:2807  balances[msg.sender] */\n          0xffffffffffffffffffffffffffffffffffffffff\n          and\n          0xffffffffffffffffffffffffffffffffffffffff\n          and\n          dup2\n          mstore\n          0x20\n          add\n          swap1\n          dup2\n          mstore\n          0x20\n          add\n          0x00\n          keccak256\n          sload\n            /* \"Loteria/ERC20.sol\":2774:2783  numTokens */\n          dup3\n            /* \"Loteria/ERC20.sol\":2774:2807  numTokens <= balances[msg.sender] */\n          gt\n          iszero\n            /* \"Loteria/ERC20.sol\":2765:2808  require (numTokens <= balances[msg.sender]) */\n          tag_73\n          jumpi\n          0x00\n          dup1\n          revert\n        tag_73:\n            /* \"Loteria/ERC20.sol\":2844:2879  balances[msg.sender].sub(numTokens) */\n          tag_74\n            /* \"Loteria/ERC20.sol\":2869:2878  numTokens */\n          dup3\n            /* \"Loteria/ERC20.sol\":2844:2852  balances */\n          0x00\n            /* \"Loteria/ERC20.sol\":2844:2864  balances[msg.sender] */\n          dup1\n            /* \"Loteria/ERC20.sol\":2853:2863  msg.sender */\n          caller\n            /* \"Loteria/ERC20.sol\":2844:2864  balances[msg.sender] */\n          0xffffffffffffffffffffffffffffffffffffffff\n          and\n          0xffffffffffffffffffffffffffffffffffffffff\n          and\n          dup2\n          mstore\n          0x20\n          add\n          swap1\n          dup2\n          mstore\n          0x20\n          add\n          0x00\n          keccak256\n          sload\n            /* \"Loteria/ERC20.sol\":2844:2868  balances[msg.sender].sub */\n          tag_66\n          swap1\n            /* \"Loteria/ERC20.sol\":2844:2879  balances[msg.sender].sub(numTokens) */\n          swap2\n          swap1\n          0xffffffff\n          and\n          jump\t// in\n        tag_74:\n            /* \"Loteria/ERC20.sol\":2821:2829  balances */\n          0x00\n            /* \"Loteria/ERC20.sol\":2821:2841  balances[msg.sender] */\n          dup1\n            /* \"Loteria/ERC20.sol\":2830:2840  msg.sender */\n          caller\n            /* \"Loteria/ERC20.sol\":2821:2841  balances[msg.sender] */\n          0xffffffffffffffffffffffffffffffffffffffff\n          and\n          0xffffffffffffffffffffffffffffffffffffffff\n          and\n          dup2\n          mstore\n          0x20\n          add\n          swap1\n          dup2\n          mstore\n          0x20\n          add\n          0x00\n          keccak256\n            /* \"Loteria/ERC20.sol\":2821:2879  balances[msg.sender] = balances[msg.sender].sub(numTokens) */\n          dup2\n          swap1\n          sstore\n          pop\n            /* \"Loteria/ERC20.sol\":2913:2947  balances[recipient].add(numTokens) */\n          tag_75\n            /* \"Loteria/ERC20.sol\":2937:2946  numTokens */\n          dup3\n            /* \"Loteria/ERC20.sol\":2913:2921  balances */\n          0x00\n            /* \"Loteria/ERC20.sol\":2913:2932  balances[recipient] */\n          dup1\n            /* \"Loteria/ERC20.sol\":2922:2931  recipient */\n          dup7\n            /* \"Loteria/ERC20.sol\":2913:2932  balances[recipient] */\n          0xffffffffffffffffffffffffffffffffffffffff\n          and\n          0xffffffffffffffffffffffffffffffffffffffff\n          and\n          dup2\n          mstore\n          0x20\n          add\n          swap1\n          dup2\n          mstore\n          0x20\n          add\n          0x00\n          keccak256\n          sload\n            /* \"Loteria/ERC20.sol\":2913:2936  balances[recipient].add */\n          tag_69\n          swap1\n            /* \"Loteria/ERC20.sol\":2913:2947  balances[recipient].add(numTokens) */\n          swap2\n          swap1\n          0xffffffff\n          and\n          jump\t// in\n        tag_75:\n            /* \"Loteria/ERC20.sol\":2891:2899  balances */\n          0x00\n            /* \"Loteria/ERC20.sol\":2891:2910  balances[recipient] */\n          dup1\n            /* \"Loteria/ERC20.sol\":2900:2909  recipient */\n          dup6\n            /* \"Loteria/ERC20.sol\":2891:2910  balances[recipient] */\n          0xffffffffffffffffffffffffffffffffffffffff\n          and\n          0xffffffffffffffffffffffffffffffffffffffff\n          and\n          dup2\n          mstore\n          0x20\n          add\n          swap1\n          dup2\n          mstore\n          0x20\n          add\n          0x00\n          keccak256\n            /* \"Loteria/ERC20.sol\":2891:2947  balances[recipient] = balances[recipient].add(numTokens) */\n          dup2\n          swap1\n          sstore\n          pop\n            /* \"Loteria/ERC20.sol\":2986:2995  recipient */\n          dup3\n            /* \"Loteria/ERC20.sol\":2965:3007  Transfer(msg.sender, recipient, numTokens) */\n          0xffffffffffffffffffffffffffffffffffffffff\n          and\n            /* \"Loteria/ERC20.sol\":2974:2984  msg.sender */\n          caller\n            /* \"Loteria/ERC20.sol\":2965:3007  Transfer(msg.sender, recipient, numTokens) */\n          0xffffffffffffffffffffffffffffffffffffffff\n          and\n          0xddf252ad1be2c89b69c2b068fc378daa952ba7f163c4a11628f55a4df523b3ef\n            /* \"Loteria/ERC20.sol\":2997:3006  numTokens */\n          dup5\n            /* \"Loteria/ERC20.sol\":2965:3007  Transfer(msg.sender, recipient, numTokens) */\n          mload(0x40)\n          tag_76\n          swap2\n          swap1\n          tag_27\n          jump\t// in\n        tag_76:\n          mload(0x40)\n          dup1\n          swap2\n          sub\n          swap1\n          log3\n            /* \"Loteria/ERC20.sol\":3027:3031  true */\n          0x01\n            /* \"Loteria/ERC20.sol\":3020:3031  return true */\n          swap1\n          pop\n            /* \"Loteria/ERC20.sol\":2668:3039  function transfer(address recipient, uint256 numTokens) public override returns(bool) {\r... */\n          swap3\n          swap2\n          pop\n          pop\n          jump\t// out\n            /* \"Loteria/ERC20.sol\":2521:2660  function allowance(address owner, address spender) public override view returns (uint256) {\r... */\n        tag_56:\n            /* \"Loteria/ERC20.sol\":2602:2609  uint256 */\n          0x00\n            /* \"Loteria/ERC20.sol\":2629:2636  allowed */\n          0x01\n            /* \"Loteria/ERC20.sol\":2629:2643  allowed[owner] */\n          0x00\n            /* \"Loteria/ERC20.sol\":2637:2642  owner */\n          dup5\n            /* \"Loteria/ERC20.sol\":2629:2643  allowed[owner] */\n          0xffffffffffffffffffffffffffffffffffffffff\n          and\n          0xffffffffffffffffffffffffffffffffffffffff\n          and\n          dup2\n          mstore\n          0x20\n          add\n          swap1\n          dup2\n          mstore\n          0x20\n          add\n          0x00\n          keccak256\n            /* \"Loteria/ERC20.sol\":2629:2652  allowed[owner][spender] */\n          0x00\n            /* \"Loteria/ERC20.sol\":2644:2651  spender */\n          dup4\n            /* \"Loteria/ERC20.sol\":2629:2652  allowed[owner][spender] */\n          0xffffffffffffffffffffffffffffffffffffffff\n          and\n          0xffffffffffffffffffffffffffffffffffffffff\n          and\n          dup2\n          mstore\n          0x20\n          add\n          swap1\n          dup2\n          mstore\n          0x20\n          add\n          0x00\n          keccak256\n          sload\n            /* \"Loteria/ERC20.sol\":2622:2652  return allowed[owner][spender] */\n          swap1\n          pop\n            /* \"Loteria/ERC20.sol\":2521:2660  function allowance(address owner, address spender) public override view returns (uint256) {\r... */\n          swap3\n          swap2\n          pop\n          pop\n          jump\t// out\n            /* \"Loteria/SafeMath.sol\":318:437  function sub(uint256 a, uint256 b) internal pure returns (uint256) {\r... */\n        tag_66:\n            /* \"Loteria/SafeMath.sol\":376:383  uint256 */\n          0x00\n            /* \"Loteria/SafeMath.sol\":406:407  a */\n          dup3\n            /* \"Loteria/SafeMath.sol\":401:402  b */\n          dup3\n            /* \"Loteria/SafeMath.sol\":401:407  b <= a */\n          gt\n          iszero\n            /* \"Loteria/SafeMath.sol\":394:408  assert(b <= a) */\n          tag_79\n          jumpi\n          invalid\n        tag_79:\n            /* \"Loteria/SafeMath.sol\":428:429  b */\n          dup2\n            /* \"Loteria/SafeMath.sol\":424:425  a */\n          dup4\n            /* \"Loteria/SafeMath.sol\":424:429  a - b */\n          sub\n            /* \"Loteria/SafeMath.sol\":417:429  return a - b */\n          swap1\n          pop\n            /* \"Loteria/SafeMath.sol\":318:437  function sub(uint256 a, uint256 b) internal pure returns (uint256) {\r... */\n          swap3\n          swap2\n          pop\n          pop\n          jump\t// out\n            /* \"Loteria/SafeMath.sol\":463:604  function add(uint256 a, uint256 b) internal pure returns (uint256) {\r... */\n        tag_69:\n            /* \"Loteria/SafeMath.sol\":521:528  uint256 */\n          0x00\n            /* \"Loteria/SafeMath.sol\":539:548  uint256 c */\n          dup1\n            /* \"Loteria/SafeMath.sol\":555:556  b */\n          dup3\n            /* \"Loteria/SafeMath.sol\":551:552  a */\n          dup5\n            /* \"Loteria/SafeMath.sol\":551:556  a + b */\n          add\n            /* \"Loteria/SafeMath.sol\":539:556  uint256 c = a + b */\n          swap1\n          pop\n            /* \"Loteria/SafeMath.sol\":577:578  a */\n          dup4\n            /* \"Loteria/SafeMath.sol\":572:573  c */\n          dup2\n            /* \"Loteria/SafeMath.sol\":572:578  c >= a */\n          lt\n          iszero\n            /* \"Loteria/SafeMath.sol\":565:579  assert(c >= a) */\n          tag_81\n          jumpi\n          invalid\n        tag_81:\n            /* \"Loteria/SafeMath.sol\":595:596  c */\n          dup1\n            /* \"Loteria/SafeMath.sol\":588:596  return c */\n          swap2\n          pop\n          pop\n            /* \"Loteria/SafeMath.sol\":463:604  function add(uint256 a, uint256 b) internal pure returns (uint256) {\r... */\n          swap3\n          swap2\n          pop\n          pop\n          jump\t// out\n            /* \"--CODEGEN--\":5:135   */\n        tag_83:\n          0x00\n            /* \"--CODEGEN--\":85:91   */\n          dup2\n            /* \"--CODEGEN--\":72:92   */\n          calldataload\n            /* \"--CODEGEN--\":63:92   */\n          swap1\n          pop\n            /* \"--CODEGEN--\":97:130   */\n          tag_85\n            /* \"--CODEGEN--\":124:129   */\n          dup2\n            /* \"--CODEGEN--\":97:130   */\n          tag_86\n          jump\t// in\n        tag_85:\n            /* \"--CODEGEN--\":57:135   */\n          swap3\n          swap2\n          pop\n          pop\n          jump\t// out\n            /* \"--CODEGEN--\":142:272   */\n        tag_87:\n          0x00\n            /* \"--CODEGEN--\":222:228   */\n          dup2\n            /* \"--CODEGEN--\":209:229   */\n          calldataload\n            /* \"--CODEGEN--\":200:229   */\n          swap1\n          pop\n            /* \"--CODEGEN--\":234:267   */\n          tag_89\n            /* \"--CODEGEN--\":261:266   */\n          dup2\n            /* \"--CODEGEN--\":234:267   */\n          tag_90\n          jump\t// in\n        tag_89:\n            /* \"--CODEGEN--\":194:272   */\n          swap3\n          swap2\n          pop\n          pop\n          jump\t// out\n            /* \"--CODEGEN--\":279:520   */\n        tag_43:\n          0x00\n            /* \"--CODEGEN--\":383:385   */\n          0x20\n            /* \"--CODEGEN--\":371:380   */\n          dup3\n            /* \"--CODEGEN--\":362:369   */\n          dup5\n            /* \"--CODEGEN--\":358:381   */\n          sub\n            /* \"--CODEGEN--\":354:386   */\n          slt\n            /* \"--CODEGEN--\":351:353   */\n          iszero\n          tag_92\n          jumpi\n            /* \"--CODEGEN--\":399:400   */\n          0x00\n            /* \"--CODEGEN--\":396:397   */\n          dup1\n            /* \"--CODEGEN--\":389:401   */\n          revert\n            /* \"--CODEGEN--\":351:353   */\n        tag_92:\n            /* \"--CODEGEN--\":434:435   */\n          0x00\n            /* \"--CODEGEN--\":451:504   */\n          tag_93\n            /* \"--CODEGEN--\":496:503   */\n          dup5\n            /* \"--CODEGEN--\":487:493   */\n          dup3\n            /* \"--CODEGEN--\":476:485   */\n          dup6\n            /* \"--CODEGEN--\":472:494   */\n          add\n            /* \"--CODEGEN--\":451:504   */\n          tag_83\n          jump\t// in\n        tag_93:\n            /* \"--CODEGEN--\":441:504   */\n          swap2\n          pop\n            /* \"--CODEGEN--\":413:510   */\n          pop\n            /* \"--CODEGEN--\":345:520   */\n          swap3\n          swap2\n          pop\n          pop\n          jump\t// out\n            /* \"--CODEGEN--\":527:893   */\n        tag_55:\n          0x00\n          dup1\n            /* \"--CODEGEN--\":648:650   */\n          0x40\n            /* \"--CODEGEN--\":636:645   */\n          dup4\n            /* \"--CODEGEN--\":627:634   */\n          dup6\n            /* \"--CODEGEN--\":623:646   */\n          sub\n            /* \"--CODEGEN--\":619:651   */\n          slt\n            /* \"--CODEGEN--\":616:618   */\n          iszero\n          tag_95\n          jumpi\n            /* \"--CODEGEN--\":664:665   */\n          0x00\n            /* \"--CODEGEN--\":661:662   */\n          dup1\n            /* \"--CODEGEN--\":654:666   */\n          revert\n            /* \"--CODEGEN--\":616:618   */\n        tag_95:\n            /* \"--CODEGEN--\":699:700   */\n          0x00\n            /* \"--CODEGEN--\":716:769   */\n          tag_96\n            /* \"--CODEGEN--\":761:768   */\n          dup6\n            /* \"--CODEGEN--\":752:758   */\n          dup3\n            /* \"--CODEGEN--\":741:750   */\n          dup7\n            /* \"--CODEGEN--\":737:759   */\n          add\n            /* \"--CODEGEN--\":716:769   */\n          tag_83\n          jump\t// in\n        tag_96:\n            /* \"--CODEGEN--\":706:769   */\n          swap3\n          pop\n            /* \"--CODEGEN--\":678:775   */\n          pop\n            /* \"--CODEGEN--\":806:808   */\n          0x20\n            /* \"--CODEGEN--\":824:877   */\n          tag_97\n            /* \"--CODEGEN--\":869:876   */\n          dup6\n            /* \"--CODEGEN--\":860:866   */\n          dup3\n            /* \"--CODEGEN--\":849:858   */\n          dup7\n            /* \"--CODEGEN--\":845:867   */\n          add\n            /* \"--CODEGEN--\":824:877   */\n          tag_83\n          jump\t// in\n        tag_97:\n            /* \"--CODEGEN--\":814:877   */\n          swap2\n          pop\n            /* \"--CODEGEN--\":785:883   */\n          pop\n            /* \"--CODEGEN--\":610:893   */\n          swap3\n          pop\n          swap3\n          swap1\n          pop\n          jump\t// out\n            /* \"--CODEGEN--\":900:1391   */\n        tag_34:\n          0x00\n          dup1\n          0x00\n            /* \"--CODEGEN--\":1038:1040   */\n          0x60\n            /* \"--CODEGEN--\":1026:1035   */\n          dup5\n            /* \"--CODEGEN--\":1017:1024   */\n          dup7\n            /* \"--CODEGEN--\":1013:1036   */\n          sub\n            /* \"--CODEGEN--\":1009:1041   */\n          slt\n            /* \"--CODEGEN--\":1006:1008   */\n          iszero\n          tag_99\n          jumpi\n            /* \"--CODEGEN--\":1054:1055   */\n          0x00\n            /* \"--CODEGEN--\":1051:1052   */\n          dup1\n            /* \"--CODEGEN--\":1044:1056   */\n          revert\n            /* \"--CODEGEN--\":1006:1008   */\n        tag_99:\n            /* \"--CODEGEN--\":1089:1090   */\n          0x00\n            /* \"--CODEGEN--\":1106:1159   */\n          tag_100\n            /* \"--CODEGEN--\":1151:1158   */\n          dup7\n            /* \"--CODEGEN--\":1142:1148   */\n          dup3\n            /* \"--CODEGEN--\":1131:1140   */\n          dup8\n            /* \"--CODEGEN--\":1127:1149   */\n          add\n            /* \"--CODEGEN--\":1106:1159   */\n          tag_83\n          jump\t// in\n        tag_100:\n            /* \"--CODEGEN--\":1096:1159   */\n          swap4\n          pop\n            /* \"--CODEGEN--\":1068:1165   */\n          pop\n            /* \"--CODEGEN--\":1196:1198   */\n          0x20\n            /* \"--CODEGEN--\":1214:1267   */\n          tag_101\n            /* \"--CODEGEN--\":1259:1266   */\n          dup7\n            /* \"--CODEGEN--\":1250:1256   */\n          dup3\n            /* \"--CODEGEN--\":1239:1248   */\n          dup8\n            /* \"--CODEGEN--\":1235:1257   */\n          add\n            /* \"--CODEGEN--\":1214:1267   */\n          tag_83\n          jump\t// in\n        tag_101:\n            /* \"--CODEGEN--\":1204:1267   */\n          swap3\n          pop\n            /* \"--CODEGEN--\":1175:1273   */\n          pop\n            /* \"--CODEGEN--\":1304:1306   */\n          0x40\n            /* \"--CODEGEN--\":1322:1375   */\n          tag_102\n            /* \"--CODEGEN--\":1367:1374   */\n          dup7\n            /* \"--CODEGEN--\":1358:1364   */\n          dup3\n            /* \"--CODEGEN--\":1347:1356   */\n          dup8\n            /* \"--CODEGEN--\":1343:1365   */\n          add\n            /* \"--CODEGEN--\":1322:1375   */\n          tag_87\n          jump\t// in\n        tag_102:\n            /* \"--CODEGEN--\":1312:1375   */\n          swap2\n          pop\n            /* \"--CODEGEN--\":1283:1381   */\n          pop\n            /* \"--CODEGEN--\":1000:1391   */\n          swap3\n          pop\n          swap3\n          pop\n          swap3\n          jump\t// out\n            /* \"--CODEGEN--\":1398:1764   */\n        tag_20:\n          0x00\n          dup1\n            /* \"--CODEGEN--\":1519:1521   */\n          0x40\n            /* \"--CODEGEN--\":1507:1516   */\n          dup4\n            /* \"--CODEGEN--\":1498:1505   */\n          dup6\n            /* \"--CODEGEN--\":1494:1517   */\n          sub\n            /* \"--CODEGEN--\":1490:1522   */\n          slt\n            /* \"--CODEGEN--\":1487:1489   */\n          iszero\n          tag_104\n          jumpi\n            /* \"--CODEGEN--\":1535:1536   */\n          0x00\n            /* \"--CODEGEN--\":1532:1533   */\n          dup1\n            /* \"--CODEGEN--\":1525:1537   */\n          revert\n            /* \"--CODEGEN--\":1487:1489   */\n        tag_104:\n            /* \"--CODEGEN--\":1570:1571   */\n          0x00\n            /* \"--CODEGEN--\":1587:1640   */\n          tag_105\n            /* \"--CODEGEN--\":1632:1639   */\n          dup6\n            /* \"--CODEGEN--\":1623:1629   */\n          dup3\n            /* \"--CODEGEN--\":1612:1621   */\n          dup7\n            /* \"--CODEGEN--\":1608:1630   */\n          add\n            /* \"--CODEGEN--\":1587:1640   */\n          tag_83\n          jump\t// in\n        tag_105:\n            /* \"--CODEGEN--\":1577:1640   */\n          swap3\n          pop\n            /* \"--CODEGEN--\":1549:1646   */\n          pop\n            /* \"--CODEGEN--\":1677:1679   */\n          0x20\n            /* \"--CODEGEN--\":1695:1748   */\n          tag_106\n            /* \"--CODEGEN--\":1740:1747   */\n          dup6\n            /* \"--CODEGEN--\":1731:1737   */\n          dup3\n            /* \"--CODEGEN--\":1720:1729   */\n          dup7\n            /* \"--CODEGEN--\":1716:1738   */\n          add\n            /* \"--CODEGEN--\":1695:1748   */\n          tag_87\n          jump\t// in\n        tag_106:\n            /* \"--CODEGEN--\":1685:1748   */\n          swap2\n          pop\n            /* \"--CODEGEN--\":1656:1754   */\n          pop\n            /* \"--CODEGEN--\":1481:1764   */\n          swap3\n          pop\n          swap3\n          swap1\n          pop\n          jump\t// out\n            /* \"--CODEGEN--\":1771:2012   */\n        tag_30:\n          0x00\n            /* \"--CODEGEN--\":1875:1877   */\n          0x20\n            /* \"--CODEGEN--\":1863:1872   */\n          dup3\n            /* \"--CODEGEN--\":1854:1861   */\n          dup5\n            /* \"--CODEGEN--\":1850:1873   */\n          sub\n            /* \"--CODEGEN--\":1846:1878   */\n          slt\n            /* \"--CODEGEN--\":1843:1845   */\n          iszero\n          tag_108\n          jumpi\n            /* \"--CODEGEN--\":1891:1892   */\n          0x00\n            /* \"--CODEGEN--\":1888:1889   */\n          dup1\n            /* \"--CODEGEN--\":1881:1893   */\n          revert\n            /* \"--CODEGEN--\":1843:1845   */\n        tag_108:\n            /* \"--CODEGEN--\":1926:1927   */\n          0x00\n            /* \"--CODEGEN--\":1943:1996   */\n          tag_109\n            /* \"--CODEGEN--\":1988:1995   */\n          dup5\n            /* \"--CODEGEN--\":1979:1985   */\n          dup3\n            /* \"--CODEGEN--\":1968:1977   */\n          dup6\n            /* \"--CODEGEN--\":1964:1986   */\n          add\n            /* \"--CODEGEN--\":1943:1996   */\n          tag_87\n          jump\t// in\n        tag_109:\n            /* \"--CODEGEN--\":1933:1996   */\n          swap2\n          pop\n            /* \"--CODEGEN--\":1905:2002   */\n          pop\n            /* \"--CODEGEN--\":1837:2012   */\n          swap3\n          swap2\n          pop\n          pop\n          jump\t// out\n            /* \"--CODEGEN--\":2019:2123   */\n        tag_110:\n            /* \"--CODEGEN--\":2096:2117   */\n          tag_112\n            /* \"--CODEGEN--\":2111:2116   */\n          dup2\n            /* \"--CODEGEN--\":2096:2117   */\n          tag_113\n          jump\t// in\n        tag_112:\n            /* \"--CODEGEN--\":2091:2094   */\n          dup3\n            /* \"--CODEGEN--\":2084:2118   */\n          mstore\n            /* \"--CODEGEN--\":2078:2123   */\n          pop\n          pop\n          jump\t// out\n            /* \"--CODEGEN--\":2130:2477   */\n        tag_114:\n          0x00\n            /* \"--CODEGEN--\":2242:2281   */\n          tag_116\n            /* \"--CODEGEN--\":2275:2280   */\n          dup3\n            /* \"--CODEGEN--\":2242:2281   */\n          tag_117\n          jump\t// in\n        tag_116:\n            /* \"--CODEGEN--\":2293:2364   */\n          tag_118\n            /* \"--CODEGEN--\":2357:2363   */\n          dup2\n            /* \"--CODEGEN--\":2352:2355   */\n          dup6\n            /* \"--CODEGEN--\":2293:2364   */\n          tag_119\n          jump\t// in\n        tag_118:\n            /* \"--CODEGEN--\":2286:2364   */\n          swap4\n          pop\n            /* \"--CODEGEN--\":2369:2421   */\n          tag_120\n            /* \"--CODEGEN--\":2414:2420   */\n          dup2\n            /* \"--CODEGEN--\":2409:2412   */\n          dup6\n            /* \"--CODEGEN--\":2402:2406   */\n          0x20\n            /* \"--CODEGEN--\":2395:2400   */\n          dup7\n            /* \"--CODEGEN--\":2391:2407   */\n          add\n            /* \"--CODEGEN--\":2369:2421   */\n          tag_121\n          jump\t// in\n        tag_120:\n            /* \"--CODEGEN--\":2442:2471   */\n          tag_122\n            /* \"--CODEGEN--\":2464:2470   */\n          dup2\n            /* \"--CODEGEN--\":2442:2471   */\n          tag_123\n          jump\t// in\n        tag_122:\n            /* \"--CODEGEN--\":2437:2440   */\n          dup5\n            /* \"--CODEGEN--\":2433:2472   */\n          add\n            /* \"--CODEGEN--\":2426:2472   */\n          swap2\n          pop\n            /* \"--CODEGEN--\":2222:2477   */\n          pop\n          swap3\n          swap2\n          pop\n          pop\n          jump\t// out\n            /* \"--CODEGEN--\":2484:2597   */\n        tag_124:\n            /* \"--CODEGEN--\":2567:2591   */\n          tag_126\n            /* \"--CODEGEN--\":2585:2590   */\n          dup2\n            /* \"--CODEGEN--\":2567:2591   */\n          tag_127\n          jump\t// in\n        tag_126:\n            /* \"--CODEGEN--\":2562:2565   */\n          dup3\n            /* \"--CODEGEN--\":2555:2592   */\n          mstore\n            /* \"--CODEGEN--\":2549:2597   */\n          pop\n          pop\n          jump\t// out\n            /* \"--CODEGEN--\":2604:2711   */\n        tag_128:\n            /* \"--CODEGEN--\":2683:2705   */\n          tag_130\n            /* \"--CODEGEN--\":2699:2704   */\n          dup2\n            /* \"--CODEGEN--\":2683:2705   */\n          tag_131\n          jump\t// in\n        tag_130:\n            /* \"--CODEGEN--\":2678:2681   */\n          dup3\n            /* \"--CODEGEN--\":2671:2706   */\n          mstore\n            /* \"--CODEGEN--\":2665:2711   */\n          pop\n          pop\n          jump\t// out\n            /* \"--CODEGEN--\":2718:2928   */\n        tag_23:\n          0x00\n            /* \"--CODEGEN--\":2839:2841   */\n          0x20\n            /* \"--CODEGEN--\":2828:2837   */\n          dup3\n            /* \"--CODEGEN--\":2824:2842   */\n          add\n            /* \"--CODEGEN--\":2816:2842   */\n          swap1\n          pop\n            /* \"--CODEGEN--\":2853:2918   */\n          tag_133\n            /* \"--CODEGEN--\":2915:2916   */\n          0x00\n            /* \"--CODEGEN--\":2904:2913   */\n          dup4\n            /* \"--CODEGEN--\":2900:2917   */\n          add\n            /* \"--CODEGEN--\":2891:2897   */\n          dup5\n            /* \"--CODEGEN--\":2853:2918   */\n          tag_110\n          jump\t// in\n        tag_133:\n            /* \"--CODEGEN--\":2810:2928   */\n          swap3\n          swap2\n          pop\n          pop\n          jump\t// out\n            /* \"--CODEGEN--\":2935:3245   */\n        tag_17:\n          0x00\n            /* \"--CODEGEN--\":3082:3084   */\n          0x20\n            /* \"--CODEGEN--\":3071:3080   */\n          dup3\n            /* \"--CODEGEN--\":3067:3085   */\n          add\n            /* \"--CODEGEN--\":3059:3085   */\n          swap1\n          pop\n            /* \"--CODEGEN--\":3132:3141   */\n          dup2\n            /* \"--CODEGEN--\":3126:3130   */\n          dup2\n            /* \"--CODEGEN--\":3122:3142   */\n          sub\n            /* \"--CODEGEN--\":3118:3119   */\n          0x00\n            /* \"--CODEGEN--\":3107:3116   */\n          dup4\n            /* \"--CODEGEN--\":3103:3120   */\n          add\n            /* \"--CODEGEN--\":3096:3143   */\n          mstore\n            /* \"--CODEGEN--\":3157:3235   */\n          tag_135\n            /* \"--CODEGEN--\":3230:3234   */\n          dup2\n            /* \"--CODEGEN--\":3221:3227   */\n          dup5\n            /* \"--CODEGEN--\":3157:3235   */\n          tag_114\n          jump\t// in\n        tag_135:\n            /* \"--CODEGEN--\":3149:3235   */\n          swap1\n          pop\n            /* \"--CODEGEN--\":3053:3245   */\n          swap3\n          swap2\n          pop\n          pop\n          jump\t// out\n            /* \"--CODEGEN--\":3252:3474   */\n        tag_27:\n          0x00\n            /* \"--CODEGEN--\":3379:3381   */\n          0x20\n            /* \"--CODEGEN--\":3368:3377   */\n          dup3\n            /* \"--CODEGEN--\":3364:3382   */\n          add\n            /* \"--CODEGEN--\":3356:3382   */\n          swap1\n          pop\n            /* \"--CODEGEN--\":3393:3464   */\n          tag_137\n            /* \"--CODEGEN--\":3461:3462   */\n          0x00\n            /* \"--CODEGEN--\":3450:3459   */\n          dup4\n            /* \"--CODEGEN--\":3446:3463   */\n          add\n            /* \"--CODEGEN--\":3437:3443   */\n          dup5\n            /* \"--CODEGEN--\":3393:3464   */\n          tag_124\n          jump\t// in\n        tag_137:\n            /* \"--CODEGEN--\":3350:3474   */\n          swap3\n          swap2\n          pop\n          pop\n          jump\t// out\n            /* \"--CODEGEN--\":3481:3695   */\n        tag_40:\n          0x00\n            /* \"--CODEGEN--\":3604:3606   */\n          0x20\n            /* \"--CODEGEN--\":3593:3602   */\n          dup3\n            /* \"--CODEGEN--\":3589:3607   */\n          add\n            /* \"--CODEGEN--\":3581:3607   */\n          swap1\n          pop\n            /* \"--CODEGEN--\":3618:3685   */\n          tag_139\n            /* \"--CODEGEN--\":3682:3683   */\n          0x00\n            /* \"--CODEGEN--\":3671:3680   */\n          dup4\n            /* \"--CODEGEN--\":3667:3684   */\n          add\n            /* \"--CODEGEN--\":3658:3664   */\n          dup5\n            /* \"--CODEGEN--\":3618:3685   */\n          tag_128\n          jump\t// in\n        tag_139:\n            /* \"--CODEGEN--\":3575:3695   */\n          swap3\n          swap2\n          pop\n          pop\n          jump\t// out\n            /* \"--CODEGEN--\":3702:3824   */\n        tag_117:\n          0x00\n            /* \"--CODEGEN--\":3796:3801   */\n          dup2\n            /* \"--CODEGEN--\":3790:3802   */\n          mload\n            /* \"--CODEGEN--\":3780:3802   */\n          swap1\n          pop\n            /* \"--CODEGEN--\":3761:3824   */\n          swap2\n          swap1\n          pop\n          jump\t// out\n            /* \"--CODEGEN--\":3832:3995   */\n        tag_119:\n          0x00\n            /* \"--CODEGEN--\":3947:3953   */\n          dup3\n            /* \"--CODEGEN--\":3942:3945   */\n          dup3\n            /* \"--CODEGEN--\":3935:3954   */\n          mstore\n            /* \"--CODEGEN--\":3984:3988   */\n          0x20\n            /* \"--CODEGEN--\":3979:3982   */\n          dup3\n            /* \"--CODEGEN--\":3975:3989   */\n          add\n            /* \"--CODEGEN--\":3960:3989   */\n          swap1\n          pop\n            /* \"--CODEGEN--\":3928:3995   */\n          swap3\n          swap2\n          pop\n          pop\n          jump\t// out\n            /* \"--CODEGEN--\":4003:4094   */\n        tag_142:\n          0x00\n            /* \"--CODEGEN--\":4065:4089   */\n          tag_144\n            /* \"--CODEGEN--\":4083:4088   */\n          dup3\n            /* \"--CODEGEN--\":4065:4089   */\n          tag_145\n          jump\t// in\n        tag_144:\n            /* \"--CODEGEN--\":4054:4089   */\n          swap1\n          pop\n            /* \"--CODEGEN--\":4048:4094   */\n          swap2\n          swap1\n          pop\n          jump\t// out\n            /* \"--CODEGEN--\":4101:4186   */\n        tag_113:\n          0x00\n            /* \"--CODEGEN--\":4174:4179   */\n          dup2\n            /* \"--CODEGEN--\":4167:4180   */\n          iszero\n            /* \"--CODEGEN--\":4160:4181   */\n          iszero\n            /* \"--CODEGEN--\":4149:4181   */\n          swap1\n          pop\n            /* \"--CODEGEN--\":4143:4186   */\n          swap2\n          swap1\n          pop\n          jump\t// out\n            /* \"--CODEGEN--\":4193:4314   */\n        tag_145:\n          0x00\n            /* \"--CODEGEN--\":4266:4308   */\n          0xffffffffffffffffffffffffffffffffffffffff\n            /* \"--CODEGEN--\":4259:4264   */\n          dup3\n            /* \"--CODEGEN--\":4255:4309   */\n          and\n            /* \"--CODEGEN--\":4244:4309   */\n          swap1\n          pop\n            /* \"--CODEGEN--\":4238:4314   */\n          swap2\n          swap1\n          pop\n          jump\t// out\n            /* \"--CODEGEN--\":4321:4393   */\n        tag_127:\n          0x00\n            /* \"--CODEGEN--\":4383:4388   */\n          dup2\n            /* \"--CODEGEN--\":4372:4388   */\n          swap1\n          pop\n            /* \"--CODEGEN--\":4366:4393   */\n          swap2\n          swap1\n          pop\n          jump\t// out\n            /* \"--CODEGEN--\":4400:4481   */\n        tag_131:\n          0x00\n            /* \"--CODEGEN--\":4471:4475   */\n          0xff\n            /* \"--CODEGEN--\":4464:4469   */\n          dup3\n            /* \"--CODEGEN--\":4460:4476   */\n          and\n            /* \"--CODEGEN--\":4449:4476   */\n          swap1\n          pop\n            /* \"--CODEGEN--\":4443:4481   */\n          swap2\n          swap1\n          pop\n          jump\t// out\n            /* \"--CODEGEN--\":4489:4757   */\n        tag_121:\n            /* \"--CODEGEN--\":4554:4555   */\n          0x00\n            /* \"--CODEGEN--\":4561:4662   */\n        tag_151:\n            /* \"--CODEGEN--\":4575:4581   */\n          dup4\n            /* \"--CODEGEN--\":4572:4573   */\n          dup2\n            /* \"--CODEGEN--\":4569:4582   */\n          lt\n            /* \"--CODEGEN--\":4561:4662   */\n          iszero\n          tag_153\n          jumpi\n            /* \"--CODEGEN--\":4651:4652   */\n          dup1\n            /* \"--CODEGEN--\":4646:4649   */\n          dup3\n            /* \"--CODEGEN--\":4642:4653   */\n          add\n            /* \"--CODEGEN--\":4636:4654   */\n          mload\n            /* \"--CODEGEN--\":4632:4633   */\n          dup2\n            /* \"--CODEGEN--\":4627:4630   */\n          dup5\n            /* \"--CODEGEN--\":4623:4634   */\n          add\n            /* \"--CODEGEN--\":4616:4655   */\n          mstore\n            /* \"--CODEGEN--\":4597:4599   */\n          0x20\n            /* \"--CODEGEN--\":4594:4595   */\n          dup2\n            /* \"--CODEGEN--\":4590:4600   */\n          add\n            /* \"--CODEGEN--\":4585:4600   */\n          swap1\n          pop\n            /* \"--CODEGEN--\":4561:4662   */\n          jump(tag_151)\n        tag_153:\n            /* \"--CODEGEN--\":4677:4683   */\n          dup4\n            /* \"--CODEGEN--\":4674:4675   */\n          dup2\n            /* \"--CODEGEN--\":4671:4684   */\n          gt\n            /* \"--CODEGEN--\":4668:4670   */\n          iszero\n          tag_154\n          jumpi\n            /* \"--CODEGEN--\":4742:4743   */\n          0x00\n            /* \"--CODEGEN--\":4733:4739   */\n          dup5\n            /* \"--CODEGEN--\":4728:4731   */\n          dup5\n            /* \"--CODEGEN--\":4724:4740   */\n          add\n            /* \"--CODEGEN--\":4717:4744   */\n          mstore\n            /* \"--CODEGEN--\":4668:4670   */\n        tag_154:\n            /* \"--CODEGEN--\":4538:4757   */\n          pop\n          pop\n          pop\n          pop\n          jump\t// out\n            /* \"--CODEGEN--\":4765:4862   */\n        tag_123:\n          0x00\n            /* \"--CODEGEN--\":4853:4855   */\n          0x1f\n            /* \"--CODEGEN--\":4849:4856   */\n          not\n            /* \"--CODEGEN--\":4844:4846   */\n          0x1f\n            /* \"--CODEGEN--\":4837:4842   */\n          dup4\n            /* \"--CODEGEN--\":4833:4847   */\n          add\n            /* \"--CODEGEN--\":4829:4857   */\n          and\n            /* \"--CODEGEN--\":4819:4857   */\n          swap1\n          pop\n            /* \"--CODEGEN--\":4813:4862   */\n          swap2\n          swap1\n          pop\n          jump\t// out\n            /* \"--CODEGEN--\":4870:4987   */\n        tag_86:\n            /* \"--CODEGEN--\":4939:4963   */\n          tag_157\n            /* \"--CODEGEN--\":4957:4962   */\n          dup2\n            /* \"--CODEGEN--\":4939:4963   */\n          tag_142\n          jump\t// in\n        tag_157:\n            /* \"--CODEGEN--\":4932:4937   */\n          dup2\n            /* \"--CODEGEN--\":4929:4964   */\n          eq\n            /* \"--CODEGEN--\":4919:4921   */\n          tag_158\n          jumpi\n            /* \"--CODEGEN--\":4978:4979   */\n          0x00\n            /* \"--CODEGEN--\":4975:4976   */\n          dup1\n            /* \"--CODEGEN--\":4968:4980   */\n          revert\n            /* \"--CODEGEN--\":4919:4921   */\n        tag_158:\n            /* \"--CODEGEN--\":4913:4987   */\n          pop\n          jump\t// out\n            /* \"--CODEGEN--\":4994:5111   */\n        tag_90:\n            /* \"--CODEGEN--\":5063:5087   */\n          tag_160\n            /* \"--CODEGEN--\":5081:5086   */\n          dup2\n            /* \"--CODEGEN--\":5063:5087   */\n          tag_127\n          jump\t// in\n        tag_160:\n            /* \"--CODEGEN--\":5056:5061   */\n          dup2\n            /* \"--CODEGEN--\":5053:5088   */\n          eq\n            /* \"--CODEGEN--\":5043:5045   */\n          tag_161\n          jumpi\n            /* \"--CODEGEN--\":5102:5103   */\n          0x00\n            /* \"--CODEGEN--\":5099:5100   */\n          dup1\n            /* \"--CODEGEN--\":5092:5104   */\n          revert\n            /* \"--CODEGEN--\":5043:5045   */\n        tag_161:\n            /* \"--CODEGEN--\":5037:5111   */\n          pop\n          jump\t// out\n\n        auxdata: 0xa264697066735822122046ec6afbb8042c69e3e7e1a9de97ed81b657147762d1b683bc51c1c0f7c43e8a64736f6c634300060c0033\n    }\n}\n",
				"bytecode": {
					"linkReferences": {},
					"object": "60806040526005600355600060065534801561001a57600080fd5b5061271060405161002a90610117565b6100349190610133565b604051809103906000f080158015610050573d6000803e3d6000fd5b506000806101000a81548173ffffffffffffffffffffffffffffffffffffffff021916908373ffffffffffffffffffffffffffffffffffffffff16021790555033600160006101000a81548173ffffffffffffffffffffffffffffffffffffffff021916908373ffffffffffffffffffffffffffffffffffffffff16021790555030600260006101000a81548173ffffffffffffffffffffffffffffffffffffffff021916908373ffffffffffffffffffffffffffffffffffffffff16021790555061016a565b610e7f80610d4f83390190565b61012d81610158565b82525050565b60006020820190506101486000830184610124565b92915050565b6000819050919050565b60006101638261014e565b9050919050565b610bd6806101796000396000f3fe60806040526004361061007b5760003560e01c8063e1a01e671161004e578063e1a01e671461012a578063e33f34a014610155578063f777409114610180578063fd889ff51461019c5761007b565b80631246f6e21461008057806327909f27146100a957806374189861146100d45780638da5cb5b146100ff575b600080fd5b34801561008c57600080fd5b506100a760048036038101906100a2919061087b565b6101c7565b005b3480156100b557600080fd5b506100be6102e7565b6040516100cb9190610a9f565b60405180910390f35b3480156100e057600080fd5b506100e96102ed565b6040516100f69190610a9f565b60405180910390f35b34801561010b57600080fd5b506101146103c0565b60405161012191906109e0565b60405180910390f35b34801561013657600080fd5b5061013f6103e6565b60405161014c91906109e0565b60405180910390f35b34801561016157600080fd5b5061016a61040c565b6040516101779190610a9f565b60405180910390f35b61019a6004803603810190610195919061087b565b6104bd565b005b3480156101a857600080fd5b506101b161074e565b6040516101be9190610a9f565b60405180910390f35b33600160009054906101000a900473ffffffffffffffffffffffffffffffffffffffff1673ffffffffffffffffffffffffffffffffffffffff168173ffffffffffffffffffffffffffffffffffffffff1614610258576040517f08c379a000000000000000000000000000000000000000000000000000000000815260040161024f90610a3f565b60405180910390fd5b60008054906101000a900473ffffffffffffffffffffffffffffffffffffffff1673ffffffffffffffffffffffffffffffffffffffff16631d43cc98836040518263ffffffff1660e01b81526004016102b19190610a9f565b600060405180830381600087803b1580156102cb57600080fd5b505af11580156102df573d6000803e3d6000fd5b505050505050565b60035481565b60008060009054906101000a900473ffffffffffffffffffffffffffffffffffffffff1673ffffffffffffffffffffffffffffffffffffffff166370a08231600160009054906101000a900473ffffffffffffffffffffffffffffffffffffffff166040518263ffffffff1660e01b815260040161036b91906109e0565b60206040518083038186803b15801561038357600080fd5b505afa158015610397573d6000803e3d6000fd5b505050506040513d601f19601f820116820180604052508101906103bb91906108a4565b905090565b600160009054906101000a900473ffffffffffffffffffffffffffffffffffffffff1681565b600260009054906101000a900473ffffffffffffffffffffffffffffffffffffffff1681565b60008060009054906101000a900473ffffffffffffffffffffffffffffffffffffffff1673ffffffffffffffffffffffffffffffffffffffff166370a08231336040518263ffffffff1660e01b815260040161046891906109fb565b60206040518083038186803b15801561048057600080fd5b505afa158015610494573d6000803e3d6000fd5b505050506040513d601f19601f820116820180604052508101906104b891906108a4565b905090565b60006104c8826107ff565b90508034101561050d576040517f08c379a000000000000000000000000000000000000000000000000000000000815260040161050490610a5f565b60405180910390fd5b60008054906101000a900473ffffffffffffffffffffffffffffffffffffffff1673ffffffffffffffffffffffffffffffffffffffff166370a08231600260009054906101000a900473ffffffffffffffffffffffffffffffffffffffff166040518263ffffffff1660e01b815260040161058891906109e0565b60206040518083038186803b1580156105a057600080fd5b505afa1580156105b4573d6000803e3d6000fd5b505050506040513d601f19601f820116820180604052508101906105d891906108a4565b82111561061a576040517f08c379a000000000000000000000000000000000000000000000000000000000815260040161061190610a7f565b60405180910390fd5b3373ffffffffffffffffffffffffffffffffffffffff166108fc8234039081150290604051600060405180830381858888f19350505050158015610662573d6000803e3d6000fd5b5060008054906101000a900473ffffffffffffffffffffffffffffffffffffffff1673ffffffffffffffffffffffffffffffffffffffff1663a9059cbb33846040518363ffffffff1660e01b81526004016106be929190610a16565b602060405180830381600087803b1580156106d857600080fd5b505af11580156106ec573d6000803e3d6000fd5b505050506040513d601f19601f820116820180604052508101906107109190610852565b507f1912293d843fe20a997ecedfe6ab8b44b26fc0ed0d7d2e152158ffd021c9ace38233604051610742929190610aba565b60405180910390a15050565b60008060009054906101000a900473ffffffffffffffffffffffffffffffffffffffff1673ffffffffffffffffffffffffffffffffffffffff166370a08231306040518263ffffffff1660e01b81526004016107aa91906109e0565b60206040518083038186803b1580156107c257600080fd5b505afa1580156107d6573d6000803e3d6000fd5b505050506040513d601f19601f820116820180604052508101906107fa91906108a4565b905090565b6000670de0b6b3a764000082029050919050565b60008151905061082281610b72565b92915050565b60008135905061083781610b89565b92915050565b60008151905061084c81610b89565b92915050565b60006020828403121561086457600080fd5b600061087284828501610813565b91505092915050565b60006020828403121561088d57600080fd5b600061089b84828501610828565b91505092915050565b6000602082840312156108b657600080fd5b60006108c48482850161083d565b91505092915050565b6108d681610b3c565b82525050565b6108e581610af4565b82525050565b60006108f8602d83610ae3565b91507f4e6f207469656e6573207065726d69736f73207061726120656a65637574617260008301527f20657374612066756e63696f6e000000000000000000000000000000000000006020830152604082019050919050565b600061095e601e83610ae3565b91507f43616e746964616420646520657468657220696e737566696369656e746500006000830152602082019050919050565b600061099e602083610ae3565b91507f43616e746964616420646520746f6b656e7320696e737566696369656e7465736000830152602082019050919050565b6109da81610b32565b82525050565b60006020820190506109f560008301846108dc565b92915050565b6000602082019050610a1060008301846108cd565b92915050565b6000604082019050610a2b60008301856108cd565b610a3860208301846109d1565b9392505050565b60006020820190508181036000830152610a58816108eb565b9050919050565b60006020820190508181036000830152610a7881610951565b9050919050565b60006020820190508181036000830152610a9881610991565b9050919050565b6000602082019050610ab460008301846109d1565b92915050565b6000604082019050610acf60008301856109d1565b610adc60208301846108cd565b9392505050565b600082825260208201905092915050565b6000610aff82610b12565b9050919050565b60008115159050919050565b600073ffffffffffffffffffffffffffffffffffffffff82169050919050565b6000819050919050565b6000610b4782610b4e565b9050919050565b6000610b5982610b60565b9050919050565b6000610b6b82610b12565b9050919050565b610b7b81610b06565b8114610b8657600080fd5b50565b610b9281610b32565b8114610b9d57600080fd5b5056fea26469706673582212209e726e858d4ae919be9af11e61f5e73490d7cb41052dd3a39d94e07c28e6ccdc64736f6c634300060c0033608060405234801561001057600080fd5b50604051610e7f380380610e7f83398181016040528101906100329190610099565b806002819055506002546000803373ffffffffffffffffffffffffffffffffffffffff1673ffffffffffffffffffffffffffffffffffffffff16815260200190815260200160002081905550506100e3565b600081519050610093816100cc565b92915050565b6000602082840312156100ab57600080fd5b60006100b984828501610084565b91505092915050565b6000819050919050565b6100d5816100c2565b81146100e057600080fd5b50565b610d8d806100f26000396000f3fe608060405234801561001057600080fd5b506004361061009e5760003560e01c8063313ce56711610066578063313ce5671461015b57806370a082311461017957806395d89b41146101a9578063a9059cbb146101c7578063dd62ed3e146101f75761009e565b806306fdde03146100a3578063095ea7b3146100c157806318160ddd146100f15780631d43cc981461010f57806323b872dd1461012b575b600080fd5b6100ab610227565b6040516100b89190610c1c565b60405180910390f35b6100db60048036038101906100d69190610b36565b610260565b6040516100e89190610c01565b60405180910390f35b6100f9610352565b6040516101069190610c3e565b60405180910390f35b61012960048036038101906101249190610b72565b61035c565b005b61014560048036038101906101409190610ae7565b6103bb565b6040516101529190610c01565b60405180910390f35b610163610736565b6040516101709190610c59565b60405180910390f35b610193600480360381019061018e9190610a82565b61073b565b6040516101a09190610c3e565b60405180910390f35b6101b1610783565b6040516101be9190610c1c565b60405180910390f35b6101e160048036038101906101dc9190610b36565b6107bc565b6040516101ee9190610c01565b60405180910390f35b610211600480360381019061020c9190610aab565b61099e565b60405161021e9190610c3e565b60405180910390f35b6040518060400160405280600c81526020017f4552433230414b414c75676f000000000000000000000000000000000000000081525081565b600081600160003373ffffffffffffffffffffffffffffffffffffffff1673ffffffffffffffffffffffffffffffffffffffff16815260200190815260200160002060008573ffffffffffffffffffffffffffffffffffffffff1673ffffffffffffffffffffffffffffffffffffffff168152602001908152602001600020819055508273ffffffffffffffffffffffffffffffffffffffff163373ffffffffffffffffffffffffffffffffffffffff167f8c5be1e5ebec7d5bd14f71427d1e84f3dd0314c0f7b2291e5b200ac8c7c3b925846040516103409190610c3e565b60405180910390a36001905092915050565b6000600254905090565b80600260008282540192505081905550806000803373ffffffffffffffffffffffffffffffffffffffff1673ffffffffffffffffffffffffffffffffffffffff1681526020019081526020016000206000828254019250508190555050565b6000816000808673ffffffffffffffffffffffffffffffffffffffff1673ffffffffffffffffffffffffffffffffffffffff16815260200190815260200160002054101561040857600080fd5b81600160008673ffffffffffffffffffffffffffffffffffffffff1673ffffffffffffffffffffffffffffffffffffffff16815260200190815260200160002060003373ffffffffffffffffffffffffffffffffffffffff1673ffffffffffffffffffffffffffffffffffffffff16815260200190815260200160002054101561049157600080fd5b6104e2826000808773ffffffffffffffffffffffffffffffffffffffff1673ffffffffffffffffffffffffffffffffffffffff16815260200190815260200160002054610a2590919063ffffffff16565b6000808673ffffffffffffffffffffffffffffffffffffffff1673ffffffffffffffffffffffffffffffffffffffff168152602001908152602001600020819055506105b382600160008773ffffffffffffffffffffffffffffffffffffffff1673ffffffffffffffffffffffffffffffffffffffff16815260200190815260200160002060003373ffffffffffffffffffffffffffffffffffffffff1673ffffffffffffffffffffffffffffffffffffffff16815260200190815260200160002054610a2590919063ffffffff16565b600160008673ffffffffffffffffffffffffffffffffffffffff1673ffffffffffffffffffffffffffffffffffffffff16815260200190815260200160002060003373ffffffffffffffffffffffffffffffffffffffff1673ffffffffffffffffffffffffffffffffffffffff16815260200190815260200160002081905550610684826000808673ffffffffffffffffffffffffffffffffffffffff1673ffffffffffffffffffffffffffffffffffffffff16815260200190815260200160002054610a3c90919063ffffffff16565b6000808573ffffffffffffffffffffffffffffffffffffffff1673ffffffffffffffffffffffffffffffffffffffff168152602001908152602001600020819055508273ffffffffffffffffffffffffffffffffffffffff168473ffffffffffffffffffffffffffffffffffffffff167fddf252ad1be2c89b69c2b068fc378daa952ba7f163c4a11628f55a4df523b3ef846040516107239190610c3e565b60405180910390a3600190509392505050565b601281565b60008060008373ffffffffffffffffffffffffffffffffffffffff1673ffffffffffffffffffffffffffffffffffffffff168152602001908152602001600020549050919050565b6040518060400160405280600381526020017f414b41000000000000000000000000000000000000000000000000000000000081525081565b60008060003373ffffffffffffffffffffffffffffffffffffffff1673ffffffffffffffffffffffffffffffffffffffff1681526020019081526020016000205482111561080957600080fd5b61085a826000803373ffffffffffffffffffffffffffffffffffffffff1673ffffffffffffffffffffffffffffffffffffffff16815260200190815260200160002054610a2590919063ffffffff16565b6000803373ffffffffffffffffffffffffffffffffffffffff1673ffffffffffffffffffffffffffffffffffffffff168152602001908152602001600020819055506108ed826000808673ffffffffffffffffffffffffffffffffffffffff1673ffffffffffffffffffffffffffffffffffffffff16815260200190815260200160002054610a3c90919063ffffffff16565b6000808573ffffffffffffffffffffffffffffffffffffffff1673ffffffffffffffffffffffffffffffffffffffff168152602001908152602001600020819055508273ffffffffffffffffffffffffffffffffffffffff163373ffffffffffffffffffffffffffffffffffffffff167fddf252ad1be2c89b69c2b068fc378daa952ba7f163c4a11628f55a4df523b3ef8460405161098c9190610c3e565b60405180910390a36001905092915050565b6000600160008473ffffffffffffffffffffffffffffffffffffffff1673ffffffffffffffffffffffffffffffffffffffff16815260200190815260200160002060008373ffffffffffffffffffffffffffffffffffffffff1673ffffffffffffffffffffffffffffffffffffffff16815260200190815260200160002054905092915050565b600082821115610a3157fe5b818303905092915050565b600080828401905083811015610a4e57fe5b8091505092915050565b600081359050610a6781610d29565b92915050565b600081359050610a7c81610d40565b92915050565b600060208284031215610a9457600080fd5b6000610aa284828501610a58565b91505092915050565b60008060408385031215610abe57600080fd5b6000610acc85828601610a58565b9250506020610add85828601610a58565b9150509250929050565b600080600060608486031215610afc57600080fd5b6000610b0a86828701610a58565b9350506020610b1b86828701610a58565b9250506040610b2c86828701610a6d565b9150509250925092565b60008060408385031215610b4957600080fd5b6000610b5785828601610a58565b9250506020610b6885828601610a6d565b9150509250929050565b600060208284031215610b8457600080fd5b6000610b9284828501610a6d565b91505092915050565b610ba481610ca2565b82525050565b6000610bb582610c74565b610bbf8185610c7f565b9350610bcf818560208601610ce5565b610bd881610d18565b840191505092915050565b610bec81610cce565b82525050565b610bfb81610cd8565b82525050565b6000602082019050610c166000830184610b9b565b92915050565b60006020820190508181036000830152610c368184610baa565b905092915050565b6000602082019050610c536000830184610be3565b92915050565b6000602082019050610c6e6000830184610bf2565b92915050565b600081519050919050565b600082825260208201905092915050565b6000610c9b82610cae565b9050919050565b60008115159050919050565b600073ffffffffffffffffffffffffffffffffffffffff82169050919050565b6000819050919050565b600060ff82169050919050565b60005b83811015610d03578082015181840152602081019050610ce8565b83811115610d12576000848401525b50505050565b6000601f19601f8301169050919050565b610d3281610c90565b8114610d3d57600080fd5b50565b610d4981610cce565b8114610d5457600080fd5b5056fea264697066735822122046ec6afbb8042c69e3e7e1a9de97ed81b657147762d1b683bc51c1c0f7c43e8a64736f6c634300060c0033",
					"opcodes": "PUSH1 0x80 PUSH1 0x40 MSTORE PUSH1 0x5 PUSH1 0x3 SSTORE PUSH1 0x0 PUSH1 0x6 SSTORE CALLVALUE DUP1 ISZERO PUSH2 0x1A JUMPI PUSH1 0x0 DUP1 REVERT JUMPDEST POP PUSH2 0x2710 PUSH1 0x40 MLOAD PUSH2 0x2A SWAP1 PUSH2 0x117 JUMP JUMPDEST PUSH2 0x34 SWAP2 SWAP1 PUSH2 0x133 JUMP JUMPDEST PUSH1 0x40 MLOAD DUP1 SWAP2 SUB SWAP1 PUSH1 0x0 CREATE DUP1 ISZERO DUP1 ISZERO PUSH2 0x50 JUMPI RETURNDATASIZE PUSH1 0x0 DUP1 RETURNDATACOPY RETURNDATASIZE PUSH1 0x0 REVERT JUMPDEST POP PUSH1 0x0 DUP1 PUSH2 0x100 EXP DUP2 SLOAD DUP2 PUSH20 0xFFFFFFFFFFFFFFFFFFFFFFFFFFFFFFFFFFFFFFFF MUL NOT AND SWAP1 DUP4 PUSH20 0xFFFFFFFFFFFFFFFFFFFFFFFFFFFFFFFFFFFFFFFF AND MUL OR SWAP1 SSTORE POP CALLER PUSH1 0x1 PUSH1 0x0 PUSH2 0x100 EXP DUP2 SLOAD DUP2 PUSH20 0xFFFFFFFFFFFFFFFFFFFFFFFFFFFFFFFFFFFFFFFF MUL NOT AND SWAP1 DUP4 PUSH20 0xFFFFFFFFFFFFFFFFFFFFFFFFFFFFFFFFFFFFFFFF AND MUL OR SWAP1 SSTORE POP ADDRESS PUSH1 0x2 PUSH1 0x0 PUSH2 0x100 EXP DUP2 SLOAD DUP2 PUSH20 0xFFFFFFFFFFFFFFFFFFFFFFFFFFFFFFFFFFFFFFFF MUL NOT AND SWAP1 DUP4 PUSH20 0xFFFFFFFFFFFFFFFFFFFFFFFFFFFFFFFFFFFFFFFF AND MUL OR SWAP1 SSTORE POP PUSH2 0x16A JUMP JUMPDEST PUSH2 0xE7F DUP1 PUSH2 0xD4F DUP4 CODECOPY ADD SWAP1 JUMP JUMPDEST PUSH2 0x12D DUP2 PUSH2 0x158 JUMP JUMPDEST DUP3 MSTORE POP POP JUMP JUMPDEST PUSH1 0x0 PUSH1 0x20 DUP3 ADD SWAP1 POP PUSH2 0x148 PUSH1 0x0 DUP4 ADD DUP5 PUSH2 0x124 JUMP JUMPDEST SWAP3 SWAP2 POP POP JUMP JUMPDEST PUSH1 0x0 DUP2 SWAP1 POP SWAP2 SWAP1 POP JUMP JUMPDEST PUSH1 0x0 PUSH2 0x163 DUP3 PUSH2 0x14E JUMP JUMPDEST SWAP1 POP SWAP2 SWAP1 POP JUMP JUMPDEST PUSH2 0xBD6 DUP1 PUSH2 0x179 PUSH1 0x0 CODECOPY PUSH1 0x0 RETURN INVALID PUSH1 0x80 PUSH1 0x40 MSTORE PUSH1 0x4 CALLDATASIZE LT PUSH2 0x7B JUMPI PUSH1 0x0 CALLDATALOAD PUSH1 0xE0 SHR DUP1 PUSH4 0xE1A01E67 GT PUSH2 0x4E JUMPI DUP1 PUSH4 0xE1A01E67 EQ PUSH2 0x12A JUMPI DUP1 PUSH4 0xE33F34A0 EQ PUSH2 0x155 JUMPI DUP1 PUSH4 0xF7774091 EQ PUSH2 0x180 JUMPI DUP1 PUSH4 0xFD889FF5 EQ PUSH2 0x19C JUMPI PUSH2 0x7B JUMP JUMPDEST DUP1 PUSH4 0x1246F6E2 EQ PUSH2 0x80 JUMPI DUP1 PUSH4 0x27909F27 EQ PUSH2 0xA9 JUMPI DUP1 PUSH4 0x74189861 EQ PUSH2 0xD4 JUMPI DUP1 PUSH4 0x8DA5CB5B EQ PUSH2 0xFF JUMPI JUMPDEST PUSH1 0x0 DUP1 REVERT JUMPDEST CALLVALUE DUP1 ISZERO PUSH2 0x8C JUMPI PUSH1 0x0 DUP1 REVERT JUMPDEST POP PUSH2 0xA7 PUSH1 0x4 DUP1 CALLDATASIZE SUB DUP2 ADD SWAP1 PUSH2 0xA2 SWAP2 SWAP1 PUSH2 0x87B JUMP JUMPDEST PUSH2 0x1C7 JUMP JUMPDEST STOP JUMPDEST CALLVALUE DUP1 ISZERO PUSH2 0xB5 JUMPI PUSH1 0x0 DUP1 REVERT JUMPDEST POP PUSH2 0xBE PUSH2 0x2E7 JUMP JUMPDEST PUSH1 0x40 MLOAD PUSH2 0xCB SWAP2 SWAP1 PUSH2 0xA9F JUMP JUMPDEST PUSH1 0x40 MLOAD DUP1 SWAP2 SUB SWAP1 RETURN JUMPDEST CALLVALUE DUP1 ISZERO PUSH2 0xE0 JUMPI PUSH1 0x0 DUP1 REVERT JUMPDEST POP PUSH2 0xE9 PUSH2 0x2ED JUMP JUMPDEST PUSH1 0x40 MLOAD PUSH2 0xF6 SWAP2 SWAP1 PUSH2 0xA9F JUMP JUMPDEST PUSH1 0x40 MLOAD DUP1 SWAP2 SUB SWAP1 RETURN JUMPDEST CALLVALUE DUP1 ISZERO PUSH2 0x10B JUMPI PUSH1 0x0 DUP1 REVERT JUMPDEST POP PUSH2 0x114 PUSH2 0x3C0 JUMP JUMPDEST PUSH1 0x40 MLOAD PUSH2 0x121 SWAP2 SWAP1 PUSH2 0x9E0 JUMP JUMPDEST PUSH1 0x40 MLOAD DUP1 SWAP2 SUB SWAP1 RETURN JUMPDEST CALLVALUE DUP1 ISZERO PUSH2 0x136 JUMPI PUSH1 0x0 DUP1 REVERT JUMPDEST POP PUSH2 0x13F PUSH2 0x3E6 JUMP JUMPDEST PUSH1 0x40 MLOAD PUSH2 0x14C SWAP2 SWAP1 PUSH2 0x9E0 JUMP JUMPDEST PUSH1 0x40 MLOAD DUP1 SWAP2 SUB SWAP1 RETURN JUMPDEST CALLVALUE DUP1 ISZERO PUSH2 0x161 JUMPI PUSH1 0x0 DUP1 REVERT JUMPDEST POP PUSH2 0x16A PUSH2 0x40C JUMP JUMPDEST PUSH1 0x40 MLOAD PUSH2 0x177 SWAP2 SWAP1 PUSH2 0xA9F JUMP JUMPDEST PUSH1 0x40 MLOAD DUP1 SWAP2 SUB SWAP1 RETURN JUMPDEST PUSH2 0x19A PUSH1 0x4 DUP1 CALLDATASIZE SUB DUP2 ADD SWAP1 PUSH2 0x195 SWAP2 SWAP1 PUSH2 0x87B JUMP JUMPDEST PUSH2 0x4BD JUMP JUMPDEST STOP JUMPDEST CALLVALUE DUP1 ISZERO PUSH2 0x1A8 JUMPI PUSH1 0x0 DUP1 REVERT JUMPDEST POP PUSH2 0x1B1 PUSH2 0x74E JUMP JUMPDEST PUSH1 0x40 MLOAD PUSH2 0x1BE SWAP2 SWAP1 PUSH2 0xA9F JUMP JUMPDEST PUSH1 0x40 MLOAD DUP1 SWAP2 SUB SWAP1 RETURN JUMPDEST CALLER PUSH1 0x1 PUSH1 0x0 SWAP1 SLOAD SWAP1 PUSH2 0x100 EXP SWAP1 DIV PUSH20 0xFFFFFFFFFFFFFFFFFFFFFFFFFFFFFFFFFFFFFFFF AND PUSH20 0xFFFFFFFFFFFFFFFFFFFFFFFFFFFFFFFFFFFFFFFF AND DUP2 PUSH20 0xFFFFFFFFFFFFFFFFFFFFFFFFFFFFFFFFFFFFFFFF AND EQ PUSH2 0x258 JUMPI PUSH1 0x40 MLOAD PUSH32 0x8C379A000000000000000000000000000000000000000000000000000000000 DUP2 MSTORE PUSH1 0x4 ADD PUSH2 0x24F SWAP1 PUSH2 0xA3F JUMP JUMPDEST PUSH1 0x40 MLOAD DUP1 SWAP2 SUB SWAP1 REVERT JUMPDEST PUSH1 0x0 DUP1 SLOAD SWAP1 PUSH2 0x100 EXP SWAP1 DIV PUSH20 0xFFFFFFFFFFFFFFFFFFFFFFFFFFFFFFFFFFFFFFFF AND PUSH20 0xFFFFFFFFFFFFFFFFFFFFFFFFFFFFFFFFFFFFFFFF AND PUSH4 0x1D43CC98 DUP4 PUSH1 0x40 MLOAD DUP3 PUSH4 0xFFFFFFFF AND PUSH1 0xE0 SHL DUP2 MSTORE PUSH1 0x4 ADD PUSH2 0x2B1 SWAP2 SWAP1 PUSH2 0xA9F JUMP JUMPDEST PUSH1 0x0 PUSH1 0x40 MLOAD DUP1 DUP4 SUB DUP2 PUSH1 0x0 DUP8 DUP1 EXTCODESIZE ISZERO DUP1 ISZERO PUSH2 0x2CB JUMPI PUSH1 0x0 DUP1 REVERT JUMPDEST POP GAS CALL ISZERO DUP1 ISZERO PUSH2 0x2DF JUMPI RETURNDATASIZE PUSH1 0x0 DUP1 RETURNDATACOPY RETURNDATASIZE PUSH1 0x0 REVERT JUMPDEST POP POP POP POP POP POP JUMP JUMPDEST PUSH1 0x3 SLOAD DUP2 JUMP JUMPDEST PUSH1 0x0 DUP1 PUSH1 0x0 SWAP1 SLOAD SWAP1 PUSH2 0x100 EXP SWAP1 DIV PUSH20 0xFFFFFFFFFFFFFFFFFFFFFFFFFFFFFFFFFFFFFFFF AND PUSH20 0xFFFFFFFFFFFFFFFFFFFFFFFFFFFFFFFFFFFFFFFF AND PUSH4 0x70A08231 PUSH1 0x1 PUSH1 0x0 SWAP1 SLOAD SWAP1 PUSH2 0x100 EXP SWAP1 DIV PUSH20 0xFFFFFFFFFFFFFFFFFFFFFFFFFFFFFFFFFFFFFFFF AND PUSH1 0x40 MLOAD DUP3 PUSH4 0xFFFFFFFF AND PUSH1 0xE0 SHL DUP2 MSTORE PUSH1 0x4 ADD PUSH2 0x36B SWAP2 SWAP1 PUSH2 0x9E0 JUMP JUMPDEST PUSH1 0x20 PUSH1 0x40 MLOAD DUP1 DUP4 SUB DUP2 DUP7 DUP1 EXTCODESIZE ISZERO DUP1 ISZERO PUSH2 0x383 JUMPI PUSH1 0x0 DUP1 REVERT JUMPDEST POP GAS STATICCALL ISZERO DUP1 ISZERO PUSH2 0x397 JUMPI RETURNDATASIZE PUSH1 0x0 DUP1 RETURNDATACOPY RETURNDATASIZE PUSH1 0x0 REVERT JUMPDEST POP POP POP POP PUSH1 0x40 MLOAD RETURNDATASIZE PUSH1 0x1F NOT PUSH1 0x1F DUP3 ADD AND DUP3 ADD DUP1 PUSH1 0x40 MSTORE POP DUP2 ADD SWAP1 PUSH2 0x3BB SWAP2 SWAP1 PUSH2 0x8A4 JUMP JUMPDEST SWAP1 POP SWAP1 JUMP JUMPDEST PUSH1 0x1 PUSH1 0x0 SWAP1 SLOAD SWAP1 PUSH2 0x100 EXP SWAP1 DIV PUSH20 0xFFFFFFFFFFFFFFFFFFFFFFFFFFFFFFFFFFFFFFFF AND DUP2 JUMP JUMPDEST PUSH1 0x2 PUSH1 0x0 SWAP1 SLOAD SWAP1 PUSH2 0x100 EXP SWAP1 DIV PUSH20 0xFFFFFFFFFFFFFFFFFFFFFFFFFFFFFFFFFFFFFFFF AND DUP2 JUMP JUMPDEST PUSH1 0x0 DUP1 PUSH1 0x0 SWAP1 SLOAD SWAP1 PUSH2 0x100 EXP SWAP1 DIV PUSH20 0xFFFFFFFFFFFFFFFFFFFFFFFFFFFFFFFFFFFFFFFF AND PUSH20 0xFFFFFFFFFFFFFFFFFFFFFFFFFFFFFFFFFFFFFFFF AND PUSH4 0x70A08231 CALLER PUSH1 0x40 MLOAD DUP3 PUSH4 0xFFFFFFFF AND PUSH1 0xE0 SHL DUP2 MSTORE PUSH1 0x4 ADD PUSH2 0x468 SWAP2 SWAP1 PUSH2 0x9FB JUMP JUMPDEST PUSH1 0x20 PUSH1 0x40 MLOAD DUP1 DUP4 SUB DUP2 DUP7 DUP1 EXTCODESIZE ISZERO DUP1 ISZERO PUSH2 0x480 JUMPI PUSH1 0x0 DUP1 REVERT JUMPDEST POP GAS STATICCALL ISZERO DUP1 ISZERO PUSH2 0x494 JUMPI RETURNDATASIZE PUSH1 0x0 DUP1 RETURNDATACOPY RETURNDATASIZE PUSH1 0x0 REVERT JUMPDEST POP POP POP POP PUSH1 0x40 MLOAD RETURNDATASIZE PUSH1 0x1F NOT PUSH1 0x1F DUP3 ADD AND DUP3 ADD DUP1 PUSH1 0x40 MSTORE POP DUP2 ADD SWAP1 PUSH2 0x4B8 SWAP2 SWAP1 PUSH2 0x8A4 JUMP JUMPDEST SWAP1 POP SWAP1 JUMP JUMPDEST PUSH1 0x0 PUSH2 0x4C8 DUP3 PUSH2 0x7FF JUMP JUMPDEST SWAP1 POP DUP1 CALLVALUE LT ISZERO PUSH2 0x50D JUMPI PUSH1 0x40 MLOAD PUSH32 0x8C379A000000000000000000000000000000000000000000000000000000000 DUP2 MSTORE PUSH1 0x4 ADD PUSH2 0x504 SWAP1 PUSH2 0xA5F JUMP JUMPDEST PUSH1 0x40 MLOAD DUP1 SWAP2 SUB SWAP1 REVERT JUMPDEST PUSH1 0x0 DUP1 SLOAD SWAP1 PUSH2 0x100 EXP SWAP1 DIV PUSH20 0xFFFFFFFFFFFFFFFFFFFFFFFFFFFFFFFFFFFFFFFF AND PUSH20 0xFFFFFFFFFFFFFFFFFFFFFFFFFFFFFFFFFFFFFFFF AND PUSH4 0x70A08231 PUSH1 0x2 PUSH1 0x0 SWAP1 SLOAD SWAP1 PUSH2 0x100 EXP SWAP1 DIV PUSH20 0xFFFFFFFFFFFFFFFFFFFFFFFFFFFFFFFFFFFFFFFF AND PUSH1 0x40 MLOAD DUP3 PUSH4 0xFFFFFFFF AND PUSH1 0xE0 SHL DUP2 MSTORE PUSH1 0x4 ADD PUSH2 0x588 SWAP2 SWAP1 PUSH2 0x9E0 JUMP JUMPDEST PUSH1 0x20 PUSH1 0x40 MLOAD DUP1 DUP4 SUB DUP2 DUP7 DUP1 EXTCODESIZE ISZERO DUP1 ISZERO PUSH2 0x5A0 JUMPI PUSH1 0x0 DUP1 REVERT JUMPDEST POP GAS STATICCALL ISZERO DUP1 ISZERO PUSH2 0x5B4 JUMPI RETURNDATASIZE PUSH1 0x0 DUP1 RETURNDATACOPY RETURNDATASIZE PUSH1 0x0 REVERT JUMPDEST POP POP POP POP PUSH1 0x40 MLOAD RETURNDATASIZE PUSH1 0x1F NOT PUSH1 0x1F DUP3 ADD AND DUP3 ADD DUP1 PUSH1 0x40 MSTORE POP DUP2 ADD SWAP1 PUSH2 0x5D8 SWAP2 SWAP1 PUSH2 0x8A4 JUMP JUMPDEST DUP3 GT ISZERO PUSH2 0x61A JUMPI PUSH1 0x40 MLOAD PUSH32 0x8C379A000000000000000000000000000000000000000000000000000000000 DUP2 MSTORE PUSH1 0x4 ADD PUSH2 0x611 SWAP1 PUSH2 0xA7F JUMP JUMPDEST PUSH1 0x40 MLOAD DUP1 SWAP2 SUB SWAP1 REVERT JUMPDEST CALLER PUSH20 0xFFFFFFFFFFFFFFFFFFFFFFFFFFFFFFFFFFFFFFFF AND PUSH2 0x8FC DUP3 CALLVALUE SUB SWAP1 DUP2 ISZERO MUL SWAP1 PUSH1 0x40 MLOAD PUSH1 0x0 PUSH1 0x40 MLOAD DUP1 DUP4 SUB DUP2 DUP6 DUP9 DUP9 CALL SWAP4 POP POP POP POP ISZERO DUP1 ISZERO PUSH2 0x662 JUMPI RETURNDATASIZE PUSH1 0x0 DUP1 RETURNDATACOPY RETURNDATASIZE PUSH1 0x0 REVERT JUMPDEST POP PUSH1 0x0 DUP1 SLOAD SWAP1 PUSH2 0x100 EXP SWAP1 DIV PUSH20 0xFFFFFFFFFFFFFFFFFFFFFFFFFFFFFFFFFFFFFFFF AND PUSH20 0xFFFFFFFFFFFFFFFFFFFFFFFFFFFFFFFFFFFFFFFF AND PUSH4 0xA9059CBB CALLER DUP5 PUSH1 0x40 MLOAD DUP4 PUSH4 0xFFFFFFFF AND PUSH1 0xE0 SHL DUP2 MSTORE PUSH1 0x4 ADD PUSH2 0x6BE SWAP3 SWAP2 SWAP1 PUSH2 0xA16 JUMP JUMPDEST PUSH1 0x20 PUSH1 0x40 MLOAD DUP1 DUP4 SUB DUP2 PUSH1 0x0 DUP8 DUP1 EXTCODESIZE ISZERO DUP1 ISZERO PUSH2 0x6D8 JUMPI PUSH1 0x0 DUP1 REVERT JUMPDEST POP GAS CALL ISZERO DUP1 ISZERO PUSH2 0x6EC JUMPI RETURNDATASIZE PUSH1 0x0 DUP1 RETURNDATACOPY RETURNDATASIZE PUSH1 0x0 REVERT JUMPDEST POP POP POP POP PUSH1 0x40 MLOAD RETURNDATASIZE PUSH1 0x1F NOT PUSH1 0x1F DUP3 ADD AND DUP3 ADD DUP1 PUSH1 0x40 MSTORE POP DUP2 ADD SWAP1 PUSH2 0x710 SWAP2 SWAP1 PUSH2 0x852 JUMP JUMPDEST POP PUSH32 0x1912293D843FE20A997ECEDFE6AB8B44B26FC0ED0D7D2E152158FFD021C9ACE3 DUP3 CALLER PUSH1 0x40 MLOAD PUSH2 0x742 SWAP3 SWAP2 SWAP1 PUSH2 0xABA JUMP JUMPDEST PUSH1 0x40 MLOAD DUP1 SWAP2 SUB SWAP1 LOG1 POP POP JUMP JUMPDEST PUSH1 0x0 DUP1 PUSH1 0x0 SWAP1 SLOAD SWAP1 PUSH2 0x100 EXP SWAP1 DIV PUSH20 0xFFFFFFFFFFFFFFFFFFFFFFFFFFFFFFFFFFFFFFFF AND PUSH20 0xFFFFFFFFFFFFFFFFFFFFFFFFFFFFFFFFFFFFFFFF AND PUSH4 0x70A08231 ADDRESS PUSH1 0x40 MLOAD DUP3 PUSH4 0xFFFFFFFF AND PUSH1 0xE0 SHL DUP2 MSTORE PUSH1 0x4 ADD PUSH2 0x7AA SWAP2 SWAP1 PUSH2 0x9E0 JUMP JUMPDEST PUSH1 0x20 PUSH1 0x40 MLOAD DUP1 DUP4 SUB DUP2 DUP7 DUP1 EXTCODESIZE ISZERO DUP1 ISZERO PUSH2 0x7C2 JUMPI PUSH1 0x0 DUP1 REVERT JUMPDEST POP GAS STATICCALL ISZERO DUP1 ISZERO PUSH2 0x7D6 JUMPI RETURNDATASIZE PUSH1 0x0 DUP1 RETURNDATACOPY RETURNDATASIZE PUSH1 0x0 REVERT JUMPDEST POP POP POP POP PUSH1 0x40 MLOAD RETURNDATASIZE PUSH1 0x1F NOT PUSH1 0x1F DUP3 ADD AND DUP3 ADD DUP1 PUSH1 0x40 MSTORE POP DUP2 ADD SWAP1 PUSH2 0x7FA SWAP2 SWAP1 PUSH2 0x8A4 JUMP JUMPDEST SWAP1 POP SWAP1 JUMP JUMPDEST PUSH1 0x0 PUSH8 0xDE0B6B3A7640000 DUP3 MUL SWAP1 POP SWAP2 SWAP1 POP JUMP JUMPDEST PUSH1 0x0 DUP2 MLOAD SWAP1 POP PUSH2 0x822 DUP2 PUSH2 0xB72 JUMP JUMPDEST SWAP3 SWAP2 POP POP JUMP JUMPDEST PUSH1 0x0 DUP2 CALLDATALOAD SWAP1 POP PUSH2 0x837 DUP2 PUSH2 0xB89 JUMP JUMPDEST SWAP3 SWAP2 POP POP JUMP JUMPDEST PUSH1 0x0 DUP2 MLOAD SWAP1 POP PUSH2 0x84C DUP2 PUSH2 0xB89 JUMP JUMPDEST SWAP3 SWAP2 POP POP JUMP JUMPDEST PUSH1 0x0 PUSH1 0x20 DUP3 DUP5 SUB SLT ISZERO PUSH2 0x864 JUMPI PUSH1 0x0 DUP1 REVERT JUMPDEST PUSH1 0x0 PUSH2 0x872 DUP5 DUP3 DUP6 ADD PUSH2 0x813 JUMP JUMPDEST SWAP2 POP POP SWAP3 SWAP2 POP POP JUMP JUMPDEST PUSH1 0x0 PUSH1 0x20 DUP3 DUP5 SUB SLT ISZERO PUSH2 0x88D JUMPI PUSH1 0x0 DUP1 REVERT JUMPDEST PUSH1 0x0 PUSH2 0x89B DUP5 DUP3 DUP6 ADD PUSH2 0x828 JUMP JUMPDEST SWAP2 POP POP SWAP3 SWAP2 POP POP JUMP JUMPDEST PUSH1 0x0 PUSH1 0x20 DUP3 DUP5 SUB SLT ISZERO PUSH2 0x8B6 JUMPI PUSH1 0x0 DUP1 REVERT JUMPDEST PUSH1 0x0 PUSH2 0x8C4 DUP5 DUP3 DUP6 ADD PUSH2 0x83D JUMP JUMPDEST SWAP2 POP POP SWAP3 SWAP2 POP POP JUMP JUMPDEST PUSH2 0x8D6 DUP2 PUSH2 0xB3C JUMP JUMPDEST DUP3 MSTORE POP POP JUMP JUMPDEST PUSH2 0x8E5 DUP2 PUSH2 0xAF4 JUMP JUMPDEST DUP3 MSTORE POP POP JUMP JUMPDEST PUSH1 0x0 PUSH2 0x8F8 PUSH1 0x2D DUP4 PUSH2 0xAE3 JUMP JUMPDEST SWAP2 POP PUSH32 0x4E6F207469656E6573207065726D69736F73207061726120656A656375746172 PUSH1 0x0 DUP4 ADD MSTORE PUSH32 0x20657374612066756E63696F6E00000000000000000000000000000000000000 PUSH1 0x20 DUP4 ADD MSTORE PUSH1 0x40 DUP3 ADD SWAP1 POP SWAP2 SWAP1 POP JUMP JUMPDEST PUSH1 0x0 PUSH2 0x95E PUSH1 0x1E DUP4 PUSH2 0xAE3 JUMP JUMPDEST SWAP2 POP PUSH32 0x43616E746964616420646520657468657220696E737566696369656E74650000 PUSH1 0x0 DUP4 ADD MSTORE PUSH1 0x20 DUP3 ADD SWAP1 POP SWAP2 SWAP1 POP JUMP JUMPDEST PUSH1 0x0 PUSH2 0x99E PUSH1 0x20 DUP4 PUSH2 0xAE3 JUMP JUMPDEST SWAP2 POP PUSH32 0x43616E746964616420646520746F6B656E7320696E737566696369656E746573 PUSH1 0x0 DUP4 ADD MSTORE PUSH1 0x20 DUP3 ADD SWAP1 POP SWAP2 SWAP1 POP JUMP JUMPDEST PUSH2 0x9DA DUP2 PUSH2 0xB32 JUMP JUMPDEST DUP3 MSTORE POP POP JUMP JUMPDEST PUSH1 0x0 PUSH1 0x20 DUP3 ADD SWAP1 POP PUSH2 0x9F5 PUSH1 0x0 DUP4 ADD DUP5 PUSH2 0x8DC JUMP JUMPDEST SWAP3 SWAP2 POP POP JUMP JUMPDEST PUSH1 0x0 PUSH1 0x20 DUP3 ADD SWAP1 POP PUSH2 0xA10 PUSH1 0x0 DUP4 ADD DUP5 PUSH2 0x8CD JUMP JUMPDEST SWAP3 SWAP2 POP POP JUMP JUMPDEST PUSH1 0x0 PUSH1 0x40 DUP3 ADD SWAP1 POP PUSH2 0xA2B PUSH1 0x0 DUP4 ADD DUP6 PUSH2 0x8CD JUMP JUMPDEST PUSH2 0xA38 PUSH1 0x20 DUP4 ADD DUP5 PUSH2 0x9D1 JUMP JUMPDEST SWAP4 SWAP3 POP POP POP JUMP JUMPDEST PUSH1 0x0 PUSH1 0x20 DUP3 ADD SWAP1 POP DUP2 DUP2 SUB PUSH1 0x0 DUP4 ADD MSTORE PUSH2 0xA58 DUP2 PUSH2 0x8EB JUMP JUMPDEST SWAP1 POP SWAP2 SWAP1 POP JUMP JUMPDEST PUSH1 0x0 PUSH1 0x20 DUP3 ADD SWAP1 POP DUP2 DUP2 SUB PUSH1 0x0 DUP4 ADD MSTORE PUSH2 0xA78 DUP2 PUSH2 0x951 JUMP JUMPDEST SWAP1 POP SWAP2 SWAP1 POP JUMP JUMPDEST PUSH1 0x0 PUSH1 0x20 DUP3 ADD SWAP1 POP DUP2 DUP2 SUB PUSH1 0x0 DUP4 ADD MSTORE PUSH2 0xA98 DUP2 PUSH2 0x991 JUMP JUMPDEST SWAP1 POP SWAP2 SWAP1 POP JUMP JUMPDEST PUSH1 0x0 PUSH1 0x20 DUP3 ADD SWAP1 POP PUSH2 0xAB4 PUSH1 0x0 DUP4 ADD DUP5 PUSH2 0x9D1 JUMP JUMPDEST SWAP3 SWAP2 POP POP JUMP JUMPDEST PUSH1 0x0 PUSH1 0x40 DUP3 ADD SWAP1 POP PUSH2 0xACF PUSH1 0x0 DUP4 ADD DUP6 PUSH2 0x9D1 JUMP JUMPDEST PUSH2 0xADC PUSH1 0x20 DUP4 ADD DUP5 PUSH2 0x8CD JUMP JUMPDEST SWAP4 SWAP3 POP POP POP JUMP JUMPDEST PUSH1 0x0 DUP3 DUP3 MSTORE PUSH1 0x20 DUP3 ADD SWAP1 POP SWAP3 SWAP2 POP POP JUMP JUMPDEST PUSH1 0x0 PUSH2 0xAFF DUP3 PUSH2 0xB12 JUMP JUMPDEST SWAP1 POP SWAP2 SWAP1 POP JUMP JUMPDEST PUSH1 0x0 DUP2 ISZERO ISZERO SWAP1 POP SWAP2 SWAP1 POP JUMP JUMPDEST PUSH1 0x0 PUSH20 0xFFFFFFFFFFFFFFFFFFFFFFFFFFFFFFFFFFFFFFFF DUP3 AND SWAP1 POP SWAP2 SWAP1 POP JUMP JUMPDEST PUSH1 0x0 DUP2 SWAP1 POP SWAP2 SWAP1 POP JUMP JUMPDEST PUSH1 0x0 PUSH2 0xB47 DUP3 PUSH2 0xB4E JUMP JUMPDEST SWAP1 POP SWAP2 SWAP1 POP JUMP JUMPDEST PUSH1 0x0 PUSH2 0xB59 DUP3 PUSH2 0xB60 JUMP JUMPDEST SWAP1 POP SWAP2 SWAP1 POP JUMP JUMPDEST PUSH1 0x0 PUSH2 0xB6B DUP3 PUSH2 0xB12 JUMP JUMPDEST SWAP1 POP SWAP2 SWAP1 POP JUMP JUMPDEST PUSH2 0xB7B DUP2 PUSH2 0xB06 JUMP JUMPDEST DUP2 EQ PUSH2 0xB86 JUMPI PUSH1 0x0 DUP1 REVERT JUMPDEST POP JUMP JUMPDEST PUSH2 0xB92 DUP2 PUSH2 0xB32 JUMP JUMPDEST DUP2 EQ PUSH2 0xB9D JUMPI PUSH1 0x0 DUP1 REVERT JUMPDEST POP JUMP INVALID LOG2 PUSH5 0x6970667358 0x22 SLT KECCAK256 SWAP15 PUSH19 0x6E858D4AE919BE9AF11E61F5E73490D7CB4105 0x2D 0xD3 LOG3 SWAP14 SWAP5 0xE0 PUSH29 0x28E6CCDC64736F6C634300060C00336080604052348015610010576000 DUP1 REVERT JUMPDEST POP PUSH1 0x40 MLOAD PUSH2 0xE7F CODESIZE SUB DUP1 PUSH2 0xE7F DUP4 CODECOPY DUP2 DUP2 ADD PUSH1 0x40 MSTORE DUP2 ADD SWAP1 PUSH2 0x32 SWAP2 SWAP1 PUSH2 0x99 JUMP JUMPDEST DUP1 PUSH1 0x2 DUP2 SWAP1 SSTORE POP PUSH1 0x2 SLOAD PUSH1 0x0 DUP1 CALLER PUSH20 0xFFFFFFFFFFFFFFFFFFFFFFFFFFFFFFFFFFFFFFFF AND PUSH20 0xFFFFFFFFFFFFFFFFFFFFFFFFFFFFFFFFFFFFFFFF AND DUP2 MSTORE PUSH1 0x20 ADD SWAP1 DUP2 MSTORE PUSH1 0x20 ADD PUSH1 0x0 KECCAK256 DUP2 SWAP1 SSTORE POP POP PUSH2 0xE3 JUMP JUMPDEST PUSH1 0x0 DUP2 MLOAD SWAP1 POP PUSH2 0x93 DUP2 PUSH2 0xCC JUMP JUMPDEST SWAP3 SWAP2 POP POP JUMP JUMPDEST PUSH1 0x0 PUSH1 0x20 DUP3 DUP5 SUB SLT ISZERO PUSH2 0xAB JUMPI PUSH1 0x0 DUP1 REVERT JUMPDEST PUSH1 0x0 PUSH2 0xB9 DUP5 DUP3 DUP6 ADD PUSH2 0x84 JUMP JUMPDEST SWAP2 POP POP SWAP3 SWAP2 POP POP JUMP JUMPDEST PUSH1 0x0 DUP2 SWAP1 POP SWAP2 SWAP1 POP JUMP JUMPDEST PUSH2 0xD5 DUP2 PUSH2 0xC2 JUMP JUMPDEST DUP2 EQ PUSH2 0xE0 JUMPI PUSH1 0x0 DUP1 REVERT JUMPDEST POP JUMP JUMPDEST PUSH2 0xD8D DUP1 PUSH2 0xF2 PUSH1 0x0 CODECOPY PUSH1 0x0 RETURN INVALID PUSH1 0x80 PUSH1 0x40 MSTORE CALLVALUE DUP1 ISZERO PUSH2 0x10 JUMPI PUSH1 0x0 DUP1 REVERT JUMPDEST POP PUSH1 0x4 CALLDATASIZE LT PUSH2 0x9E JUMPI PUSH1 0x0 CALLDATALOAD PUSH1 0xE0 SHR DUP1 PUSH4 0x313CE567 GT PUSH2 0x66 JUMPI DUP1 PUSH4 0x313CE567 EQ PUSH2 0x15B JUMPI DUP1 PUSH4 0x70A08231 EQ PUSH2 0x179 JUMPI DUP1 PUSH4 0x95D89B41 EQ PUSH2 0x1A9 JUMPI DUP1 PUSH4 0xA9059CBB EQ PUSH2 0x1C7 JUMPI DUP1 PUSH4 0xDD62ED3E EQ PUSH2 0x1F7 JUMPI PUSH2 0x9E JUMP JUMPDEST DUP1 PUSH4 0x6FDDE03 EQ PUSH2 0xA3 JUMPI DUP1 PUSH4 0x95EA7B3 EQ PUSH2 0xC1 JUMPI DUP1 PUSH4 0x18160DDD EQ PUSH2 0xF1 JUMPI DUP1 PUSH4 0x1D43CC98 EQ PUSH2 0x10F JUMPI DUP1 PUSH4 0x23B872DD EQ PUSH2 0x12B JUMPI JUMPDEST PUSH1 0x0 DUP1 REVERT JUMPDEST PUSH2 0xAB PUSH2 0x227 JUMP JUMPDEST PUSH1 0x40 MLOAD PUSH2 0xB8 SWAP2 SWAP1 PUSH2 0xC1C JUMP JUMPDEST PUSH1 0x40 MLOAD DUP1 SWAP2 SUB SWAP1 RETURN JUMPDEST PUSH2 0xDB PUSH1 0x4 DUP1 CALLDATASIZE SUB DUP2 ADD SWAP1 PUSH2 0xD6 SWAP2 SWAP1 PUSH2 0xB36 JUMP JUMPDEST PUSH2 0x260 JUMP JUMPDEST PUSH1 0x40 MLOAD PUSH2 0xE8 SWAP2 SWAP1 PUSH2 0xC01 JUMP JUMPDEST PUSH1 0x40 MLOAD DUP1 SWAP2 SUB SWAP1 RETURN JUMPDEST PUSH2 0xF9 PUSH2 0x352 JUMP JUMPDEST PUSH1 0x40 MLOAD PUSH2 0x106 SWAP2 SWAP1 PUSH2 0xC3E JUMP JUMPDEST PUSH1 0x40 MLOAD DUP1 SWAP2 SUB SWAP1 RETURN JUMPDEST PUSH2 0x129 PUSH1 0x4 DUP1 CALLDATASIZE SUB DUP2 ADD SWAP1 PUSH2 0x124 SWAP2 SWAP1 PUSH2 0xB72 JUMP JUMPDEST PUSH2 0x35C JUMP JUMPDEST STOP JUMPDEST PUSH2 0x145 PUSH1 0x4 DUP1 CALLDATASIZE SUB DUP2 ADD SWAP1 PUSH2 0x140 SWAP2 SWAP1 PUSH2 0xAE7 JUMP JUMPDEST PUSH2 0x3BB JUMP JUMPDEST PUSH1 0x40 MLOAD PUSH2 0x152 SWAP2 SWAP1 PUSH2 0xC01 JUMP JUMPDEST PUSH1 0x40 MLOAD DUP1 SWAP2 SUB SWAP1 RETURN JUMPDEST PUSH2 0x163 PUSH2 0x736 JUMP JUMPDEST PUSH1 0x40 MLOAD PUSH2 0x170 SWAP2 SWAP1 PUSH2 0xC59 JUMP JUMPDEST PUSH1 0x40 MLOAD DUP1 SWAP2 SUB SWAP1 RETURN JUMPDEST PUSH2 0x193 PUSH1 0x4 DUP1 CALLDATASIZE SUB DUP2 ADD SWAP1 PUSH2 0x18E SWAP2 SWAP1 PUSH2 0xA82 JUMP JUMPDEST PUSH2 0x73B JUMP JUMPDEST PUSH1 0x40 MLOAD PUSH2 0x1A0 SWAP2 SWAP1 PUSH2 0xC3E JUMP JUMPDEST PUSH1 0x40 MLOAD DUP1 SWAP2 SUB SWAP1 RETURN JUMPDEST PUSH2 0x1B1 PUSH2 0x783 JUMP JUMPDEST PUSH1 0x40 MLOAD PUSH2 0x1BE SWAP2 SWAP1 PUSH2 0xC1C JUMP JUMPDEST PUSH1 0x40 MLOAD DUP1 SWAP2 SUB SWAP1 RETURN JUMPDEST PUSH2 0x1E1 PUSH1 0x4 DUP1 CALLDATASIZE SUB DUP2 ADD SWAP1 PUSH2 0x1DC SWAP2 SWAP1 PUSH2 0xB36 JUMP JUMPDEST PUSH2 0x7BC JUMP JUMPDEST PUSH1 0x40 MLOAD PUSH2 0x1EE SWAP2 SWAP1 PUSH2 0xC01 JUMP JUMPDEST PUSH1 0x40 MLOAD DUP1 SWAP2 SUB SWAP1 RETURN JUMPDEST PUSH2 0x211 PUSH1 0x4 DUP1 CALLDATASIZE SUB DUP2 ADD SWAP1 PUSH2 0x20C SWAP2 SWAP1 PUSH2 0xAAB JUMP JUMPDEST PUSH2 0x99E JUMP JUMPDEST PUSH1 0x40 MLOAD PUSH2 0x21E SWAP2 SWAP1 PUSH2 0xC3E JUMP JUMPDEST PUSH1 0x40 MLOAD DUP1 SWAP2 SUB SWAP1 RETURN JUMPDEST PUSH1 0x40 MLOAD DUP1 PUSH1 0x40 ADD PUSH1 0x40 MSTORE DUP1 PUSH1 0xC DUP2 MSTORE PUSH1 0x20 ADD PUSH32 0x4552433230414B414C75676F0000000000000000000000000000000000000000 DUP2 MSTORE POP DUP2 JUMP JUMPDEST PUSH1 0x0 DUP2 PUSH1 0x1 PUSH1 0x0 CALLER PUSH20 0xFFFFFFFFFFFFFFFFFFFFFFFFFFFFFFFFFFFFFFFF AND PUSH20 0xFFFFFFFFFFFFFFFFFFFFFFFFFFFFFFFFFFFFFFFF AND DUP2 MSTORE PUSH1 0x20 ADD SWAP1 DUP2 MSTORE PUSH1 0x20 ADD PUSH1 0x0 KECCAK256 PUSH1 0x0 DUP6 PUSH20 0xFFFFFFFFFFFFFFFFFFFFFFFFFFFFFFFFFFFFFFFF AND PUSH20 0xFFFFFFFFFFFFFFFFFFFFFFFFFFFFFFFFFFFFFFFF AND DUP2 MSTORE PUSH1 0x20 ADD SWAP1 DUP2 MSTORE PUSH1 0x20 ADD PUSH1 0x0 KECCAK256 DUP2 SWAP1 SSTORE POP DUP3 PUSH20 0xFFFFFFFFFFFFFFFFFFFFFFFFFFFFFFFFFFFFFFFF AND CALLER PUSH20 0xFFFFFFFFFFFFFFFFFFFFFFFFFFFFFFFFFFFFFFFF AND PUSH32 0x8C5BE1E5EBEC7D5BD14F71427D1E84F3DD0314C0F7B2291E5B200AC8C7C3B925 DUP5 PUSH1 0x40 MLOAD PUSH2 0x340 SWAP2 SWAP1 PUSH2 0xC3E JUMP JUMPDEST PUSH1 0x40 MLOAD DUP1 SWAP2 SUB SWAP1 LOG3 PUSH1 0x1 SWAP1 POP SWAP3 SWAP2 POP POP JUMP JUMPDEST PUSH1 0x0 PUSH1 0x2 SLOAD SWAP1 POP SWAP1 JUMP JUMPDEST DUP1 PUSH1 0x2 PUSH1 0x0 DUP3 DUP3 SLOAD ADD SWAP3 POP POP DUP2 SWAP1 SSTORE POP DUP1 PUSH1 0x0 DUP1 CALLER PUSH20 0xFFFFFFFFFFFFFFFFFFFFFFFFFFFFFFFFFFFFFFFF AND PUSH20 0xFFFFFFFFFFFFFFFFFFFFFFFFFFFFFFFFFFFFFFFF AND DUP2 MSTORE PUSH1 0x20 ADD SWAP1 DUP2 MSTORE PUSH1 0x20 ADD PUSH1 0x0 KECCAK256 PUSH1 0x0 DUP3 DUP3 SLOAD ADD SWAP3 POP POP DUP2 SWAP1 SSTORE POP POP JUMP JUMPDEST PUSH1 0x0 DUP2 PUSH1 0x0 DUP1 DUP7 PUSH20 0xFFFFFFFFFFFFFFFFFFFFFFFFFFFFFFFFFFFFFFFF AND PUSH20 0xFFFFFFFFFFFFFFFFFFFFFFFFFFFFFFFFFFFFFFFF AND DUP2 MSTORE PUSH1 0x20 ADD SWAP1 DUP2 MSTORE PUSH1 0x20 ADD PUSH1 0x0 KECCAK256 SLOAD LT ISZERO PUSH2 0x408 JUMPI PUSH1 0x0 DUP1 REVERT JUMPDEST DUP2 PUSH1 0x1 PUSH1 0x0 DUP7 PUSH20 0xFFFFFFFFFFFFFFFFFFFFFFFFFFFFFFFFFFFFFFFF AND PUSH20 0xFFFFFFFFFFFFFFFFFFFFFFFFFFFFFFFFFFFFFFFF AND DUP2 MSTORE PUSH1 0x20 ADD SWAP1 DUP2 MSTORE PUSH1 0x20 ADD PUSH1 0x0 KECCAK256 PUSH1 0x0 CALLER PUSH20 0xFFFFFFFFFFFFFFFFFFFFFFFFFFFFFFFFFFFFFFFF AND PUSH20 0xFFFFFFFFFFFFFFFFFFFFFFFFFFFFFFFFFFFFFFFF AND DUP2 MSTORE PUSH1 0x20 ADD SWAP1 DUP2 MSTORE PUSH1 0x20 ADD PUSH1 0x0 KECCAK256 SLOAD LT ISZERO PUSH2 0x491 JUMPI PUSH1 0x0 DUP1 REVERT JUMPDEST PUSH2 0x4E2 DUP3 PUSH1 0x0 DUP1 DUP8 PUSH20 0xFFFFFFFFFFFFFFFFFFFFFFFFFFFFFFFFFFFFFFFF AND PUSH20 0xFFFFFFFFFFFFFFFFFFFFFFFFFFFFFFFFFFFFFFFF AND DUP2 MSTORE PUSH1 0x20 ADD SWAP1 DUP2 MSTORE PUSH1 0x20 ADD PUSH1 0x0 KECCAK256 SLOAD PUSH2 0xA25 SWAP1 SWAP2 SWAP1 PUSH4 0xFFFFFFFF AND JUMP JUMPDEST PUSH1 0x0 DUP1 DUP7 PUSH20 0xFFFFFFFFFFFFFFFFFFFFFFFFFFFFFFFFFFFFFFFF AND PUSH20 0xFFFFFFFFFFFFFFFFFFFFFFFFFFFFFFFFFFFFFFFF AND DUP2 MSTORE PUSH1 0x20 ADD SWAP1 DUP2 MSTORE PUSH1 0x20 ADD PUSH1 0x0 KECCAK256 DUP2 SWAP1 SSTORE POP PUSH2 0x5B3 DUP3 PUSH1 0x1 PUSH1 0x0 DUP8 PUSH20 0xFFFFFFFFFFFFFFFFFFFFFFFFFFFFFFFFFFFFFFFF AND PUSH20 0xFFFFFFFFFFFFFFFFFFFFFFFFFFFFFFFFFFFFFFFF AND DUP2 MSTORE PUSH1 0x20 ADD SWAP1 DUP2 MSTORE PUSH1 0x20 ADD PUSH1 0x0 KECCAK256 PUSH1 0x0 CALLER PUSH20 0xFFFFFFFFFFFFFFFFFFFFFFFFFFFFFFFFFFFFFFFF AND PUSH20 0xFFFFFFFFFFFFFFFFFFFFFFFFFFFFFFFFFFFFFFFF AND DUP2 MSTORE PUSH1 0x20 ADD SWAP1 DUP2 MSTORE PUSH1 0x20 ADD PUSH1 0x0 KECCAK256 SLOAD PUSH2 0xA25 SWAP1 SWAP2 SWAP1 PUSH4 0xFFFFFFFF AND JUMP JUMPDEST PUSH1 0x1 PUSH1 0x0 DUP7 PUSH20 0xFFFFFFFFFFFFFFFFFFFFFFFFFFFFFFFFFFFFFFFF AND PUSH20 0xFFFFFFFFFFFFFFFFFFFFFFFFFFFFFFFFFFFFFFFF AND DUP2 MSTORE PUSH1 0x20 ADD SWAP1 DUP2 MSTORE PUSH1 0x20 ADD PUSH1 0x0 KECCAK256 PUSH1 0x0 CALLER PUSH20 0xFFFFFFFFFFFFFFFFFFFFFFFFFFFFFFFFFFFFFFFF AND PUSH20 0xFFFFFFFFFFFFFFFFFFFFFFFFFFFFFFFFFFFFFFFF AND DUP2 MSTORE PUSH1 0x20 ADD SWAP1 DUP2 MSTORE PUSH1 0x20 ADD PUSH1 0x0 KECCAK256 DUP2 SWAP1 SSTORE POP PUSH2 0x684 DUP3 PUSH1 0x0 DUP1 DUP7 PUSH20 0xFFFFFFFFFFFFFFFFFFFFFFFFFFFFFFFFFFFFFFFF AND PUSH20 0xFFFFFFFFFFFFFFFFFFFFFFFFFFFFFFFFFFFFFFFF AND DUP2 MSTORE PUSH1 0x20 ADD SWAP1 DUP2 MSTORE PUSH1 0x20 ADD PUSH1 0x0 KECCAK256 SLOAD PUSH2 0xA3C SWAP1 SWAP2 SWAP1 PUSH4 0xFFFFFFFF AND JUMP JUMPDEST PUSH1 0x0 DUP1 DUP6 PUSH20 0xFFFFFFFFFFFFFFFFFFFFFFFFFFFFFFFFFFFFFFFF AND PUSH20 0xFFFFFFFFFFFFFFFFFFFFFFFFFFFFFFFFFFFFFFFF AND DUP2 MSTORE PUSH1 0x20 ADD SWAP1 DUP2 MSTORE PUSH1 0x20 ADD PUSH1 0x0 KECCAK256 DUP2 SWAP1 SSTORE POP DUP3 PUSH20 0xFFFFFFFFFFFFFFFFFFFFFFFFFFFFFFFFFFFFFFFF AND DUP5 PUSH20 0xFFFFFFFFFFFFFFFFFFFFFFFFFFFFFFFFFFFFFFFF AND PUSH32 0xDDF252AD1BE2C89B69C2B068FC378DAA952BA7F163C4A11628F55A4DF523B3EF DUP5 PUSH1 0x40 MLOAD PUSH2 0x723 SWAP2 SWAP1 PUSH2 0xC3E JUMP JUMPDEST PUSH1 0x40 MLOAD DUP1 SWAP2 SUB SWAP1 LOG3 PUSH1 0x1 SWAP1 POP SWAP4 SWAP3 POP POP POP JUMP JUMPDEST PUSH1 0x12 DUP2 JUMP JUMPDEST PUSH1 0x0 DUP1 PUSH1 0x0 DUP4 PUSH20 0xFFFFFFFFFFFFFFFFFFFFFFFFFFFFFFFFFFFFFFFF AND PUSH20 0xFFFFFFFFFFFFFFFFFFFFFFFFFFFFFFFFFFFFFFFF AND DUP2 MSTORE PUSH1 0x20 ADD SWAP1 DUP2 MSTORE PUSH1 0x20 ADD PUSH1 0x0 KECCAK256 SLOAD SWAP1 POP SWAP2 SWAP1 POP JUMP JUMPDEST PUSH1 0x40 MLOAD DUP1 PUSH1 0x40 ADD PUSH1 0x40 MSTORE DUP1 PUSH1 0x3 DUP2 MSTORE PUSH1 0x20 ADD PUSH32 0x414B410000000000000000000000000000000000000000000000000000000000 DUP2 MSTORE POP DUP2 JUMP JUMPDEST PUSH1 0x0 DUP1 PUSH1 0x0 CALLER PUSH20 0xFFFFFFFFFFFFFFFFFFFFFFFFFFFFFFFFFFFFFFFF AND PUSH20 0xFFFFFFFFFFFFFFFFFFFFFFFFFFFFFFFFFFFFFFFF AND DUP2 MSTORE PUSH1 0x20 ADD SWAP1 DUP2 MSTORE PUSH1 0x20 ADD PUSH1 0x0 KECCAK256 SLOAD DUP3 GT ISZERO PUSH2 0x809 JUMPI PUSH1 0x0 DUP1 REVERT JUMPDEST PUSH2 0x85A DUP3 PUSH1 0x0 DUP1 CALLER PUSH20 0xFFFFFFFFFFFFFFFFFFFFFFFFFFFFFFFFFFFFFFFF AND PUSH20 0xFFFFFFFFFFFFFFFFFFFFFFFFFFFFFFFFFFFFFFFF AND DUP2 MSTORE PUSH1 0x20 ADD SWAP1 DUP2 MSTORE PUSH1 0x20 ADD PUSH1 0x0 KECCAK256 SLOAD PUSH2 0xA25 SWAP1 SWAP2 SWAP1 PUSH4 0xFFFFFFFF AND JUMP JUMPDEST PUSH1 0x0 DUP1 CALLER PUSH20 0xFFFFFFFFFFFFFFFFFFFFFFFFFFFFFFFFFFFFFFFF AND PUSH20 0xFFFFFFFFFFFFFFFFFFFFFFFFFFFFFFFFFFFFFFFF AND DUP2 MSTORE PUSH1 0x20 ADD SWAP1 DUP2 MSTORE PUSH1 0x20 ADD PUSH1 0x0 KECCAK256 DUP2 SWAP1 SSTORE POP PUSH2 0x8ED DUP3 PUSH1 0x0 DUP1 DUP7 PUSH20 0xFFFFFFFFFFFFFFFFFFFFFFFFFFFFFFFFFFFFFFFF AND PUSH20 0xFFFFFFFFFFFFFFFFFFFFFFFFFFFFFFFFFFFFFFFF AND DUP2 MSTORE PUSH1 0x20 ADD SWAP1 DUP2 MSTORE PUSH1 0x20 ADD PUSH1 0x0 KECCAK256 SLOAD PUSH2 0xA3C SWAP1 SWAP2 SWAP1 PUSH4 0xFFFFFFFF AND JUMP JUMPDEST PUSH1 0x0 DUP1 DUP6 PUSH20 0xFFFFFFFFFFFFFFFFFFFFFFFFFFFFFFFFFFFFFFFF AND PUSH20 0xFFFFFFFFFFFFFFFFFFFFFFFFFFFFFFFFFFFFFFFF AND DUP2 MSTORE PUSH1 0x20 ADD SWAP1 DUP2 MSTORE PUSH1 0x20 ADD PUSH1 0x0 KECCAK256 DUP2 SWAP1 SSTORE POP DUP3 PUSH20 0xFFFFFFFFFFFFFFFFFFFFFFFFFFFFFFFFFFFFFFFF AND CALLER PUSH20 0xFFFFFFFFFFFFFFFFFFFFFFFFFFFFFFFFFFFFFFFF AND PUSH32 0xDDF252AD1BE2C89B69C2B068FC378DAA952BA7F163C4A11628F55A4DF523B3EF DUP5 PUSH1 0x40 MLOAD PUSH2 0x98C SWAP2 SWAP1 PUSH2 0xC3E JUMP JUMPDEST PUSH1 0x40 MLOAD DUP1 SWAP2 SUB SWAP1 LOG3 PUSH1 0x1 SWAP1 POP SWAP3 SWAP2 POP POP JUMP JUMPDEST PUSH1 0x0 PUSH1 0x1 PUSH1 0x0 DUP5 PUSH20 0xFFFFFFFFFFFFFFFFFFFFFFFFFFFFFFFFFFFFFFFF AND PUSH20 0xFFFFFFFFFFFFFFFFFFFFFFFFFFFFFFFFFFFFFFFF AND DUP2 MSTORE PUSH1 0x20 ADD SWAP1 DUP2 MSTORE PUSH1 0x20 ADD PUSH1 0x0 KECCAK256 PUSH1 0x0 DUP4 PUSH20 0xFFFFFFFFFFFFFFFFFFFFFFFFFFFFFFFFFFFFFFFF AND PUSH20 0xFFFFFFFFFFFFFFFFFFFFFFFFFFFFFFFFFFFFFFFF AND DUP2 MSTORE PUSH1 0x20 ADD SWAP1 DUP2 MSTORE PUSH1 0x20 ADD PUSH1 0x0 KECCAK256 SLOAD SWAP1 POP SWAP3 SWAP2 POP POP JUMP JUMPDEST PUSH1 0x0 DUP3 DUP3 GT ISZERO PUSH2 0xA31 JUMPI INVALID JUMPDEST DUP2 DUP4 SUB SWAP1 POP SWAP3 SWAP2 POP POP JUMP JUMPDEST PUSH1 0x0 DUP1 DUP3 DUP5 ADD SWAP1 POP DUP4 DUP2 LT ISZERO PUSH2 0xA4E JUMPI INVALID JUMPDEST DUP1 SWAP2 POP POP SWAP3 SWAP2 POP POP JUMP JUMPDEST PUSH1 0x0 DUP2 CALLDATALOAD SWAP1 POP PUSH2 0xA67 DUP2 PUSH2 0xD29 JUMP JUMPDEST SWAP3 SWAP2 POP POP JUMP JUMPDEST PUSH1 0x0 DUP2 CALLDATALOAD SWAP1 POP PUSH2 0xA7C DUP2 PUSH2 0xD40 JUMP JUMPDEST SWAP3 SWAP2 POP POP JUMP JUMPDEST PUSH1 0x0 PUSH1 0x20 DUP3 DUP5 SUB SLT ISZERO PUSH2 0xA94 JUMPI PUSH1 0x0 DUP1 REVERT JUMPDEST PUSH1 0x0 PUSH2 0xAA2 DUP5 DUP3 DUP6 ADD PUSH2 0xA58 JUMP JUMPDEST SWAP2 POP POP SWAP3 SWAP2 POP POP JUMP JUMPDEST PUSH1 0x0 DUP1 PUSH1 0x40 DUP4 DUP6 SUB SLT ISZERO PUSH2 0xABE JUMPI PUSH1 0x0 DUP1 REVERT JUMPDEST PUSH1 0x0 PUSH2 0xACC DUP6 DUP3 DUP7 ADD PUSH2 0xA58 JUMP JUMPDEST SWAP3 POP POP PUSH1 0x20 PUSH2 0xADD DUP6 DUP3 DUP7 ADD PUSH2 0xA58 JUMP JUMPDEST SWAP2 POP POP SWAP3 POP SWAP3 SWAP1 POP JUMP JUMPDEST PUSH1 0x0 DUP1 PUSH1 0x0 PUSH1 0x60 DUP5 DUP7 SUB SLT ISZERO PUSH2 0xAFC JUMPI PUSH1 0x0 DUP1 REVERT JUMPDEST PUSH1 0x0 PUSH2 0xB0A DUP7 DUP3 DUP8 ADD PUSH2 0xA58 JUMP JUMPDEST SWAP4 POP POP PUSH1 0x20 PUSH2 0xB1B DUP7 DUP3 DUP8 ADD PUSH2 0xA58 JUMP JUMPDEST SWAP3 POP POP PUSH1 0x40 PUSH2 0xB2C DUP7 DUP3 DUP8 ADD PUSH2 0xA6D JUMP JUMPDEST SWAP2 POP POP SWAP3 POP SWAP3 POP SWAP3 JUMP JUMPDEST PUSH1 0x0 DUP1 PUSH1 0x40 DUP4 DUP6 SUB SLT ISZERO PUSH2 0xB49 JUMPI PUSH1 0x0 DUP1 REVERT JUMPDEST PUSH1 0x0 PUSH2 0xB57 DUP6 DUP3 DUP7 ADD PUSH2 0xA58 JUMP JUMPDEST SWAP3 POP POP PUSH1 0x20 PUSH2 0xB68 DUP6 DUP3 DUP7 ADD PUSH2 0xA6D JUMP JUMPDEST SWAP2 POP POP SWAP3 POP SWAP3 SWAP1 POP JUMP JUMPDEST PUSH1 0x0 PUSH1 0x20 DUP3 DUP5 SUB SLT ISZERO PUSH2 0xB84 JUMPI PUSH1 0x0 DUP1 REVERT JUMPDEST PUSH1 0x0 PUSH2 0xB92 DUP5 DUP3 DUP6 ADD PUSH2 0xA6D JUMP JUMPDEST SWAP2 POP POP SWAP3 SWAP2 POP POP JUMP JUMPDEST PUSH2 0xBA4 DUP2 PUSH2 0xCA2 JUMP JUMPDEST DUP3 MSTORE POP POP JUMP JUMPDEST PUSH1 0x0 PUSH2 0xBB5 DUP3 PUSH2 0xC74 JUMP JUMPDEST PUSH2 0xBBF DUP2 DUP6 PUSH2 0xC7F JUMP JUMPDEST SWAP4 POP PUSH2 0xBCF DUP2 DUP6 PUSH1 0x20 DUP7 ADD PUSH2 0xCE5 JUMP JUMPDEST PUSH2 0xBD8 DUP2 PUSH2 0xD18 JUMP JUMPDEST DUP5 ADD SWAP2 POP POP SWAP3 SWAP2 POP POP JUMP JUMPDEST PUSH2 0xBEC DUP2 PUSH2 0xCCE JUMP JUMPDEST DUP3 MSTORE POP POP JUMP JUMPDEST PUSH2 0xBFB DUP2 PUSH2 0xCD8 JUMP JUMPDEST DUP3 MSTORE POP POP JUMP JUMPDEST PUSH1 0x0 PUSH1 0x20 DUP3 ADD SWAP1 POP PUSH2 0xC16 PUSH1 0x0 DUP4 ADD DUP5 PUSH2 0xB9B JUMP JUMPDEST SWAP3 SWAP2 POP POP JUMP JUMPDEST PUSH1 0x0 PUSH1 0x20 DUP3 ADD SWAP1 POP DUP2 DUP2 SUB PUSH1 0x0 DUP4 ADD MSTORE PUSH2 0xC36 DUP2 DUP5 PUSH2 0xBAA JUMP JUMPDEST SWAP1 POP SWAP3 SWAP2 POP POP JUMP JUMPDEST PUSH1 0x0 PUSH1 0x20 DUP3 ADD SWAP1 POP PUSH2 0xC53 PUSH1 0x0 DUP4 ADD DUP5 PUSH2 0xBE3 JUMP JUMPDEST SWAP3 SWAP2 POP POP JUMP JUMPDEST PUSH1 0x0 PUSH1 0x20 DUP3 ADD SWAP1 POP PUSH2 0xC6E PUSH1 0x0 DUP4 ADD DUP5 PUSH2 0xBF2 JUMP JUMPDEST SWAP3 SWAP2 POP POP JUMP JUMPDEST PUSH1 0x0 DUP2 MLOAD SWAP1 POP SWAP2 SWAP1 POP JUMP JUMPDEST PUSH1 0x0 DUP3 DUP3 MSTORE PUSH1 0x20 DUP3 ADD SWAP1 POP SWAP3 SWAP2 POP POP JUMP JUMPDEST PUSH1 0x0 PUSH2 0xC9B DUP3 PUSH2 0xCAE JUMP JUMPDEST SWAP1 POP SWAP2 SWAP1 POP JUMP JUMPDEST PUSH1 0x0 DUP2 ISZERO ISZERO SWAP1 POP SWAP2 SWAP1 POP JUMP JUMPDEST PUSH1 0x0 PUSH20 0xFFFFFFFFFFFFFFFFFFFFFFFFFFFFFFFFFFFFFFFF DUP3 AND SWAP1 POP SWAP2 SWAP1 POP JUMP JUMPDEST PUSH1 0x0 DUP2 SWAP1 POP SWAP2 SWAP1 POP JUMP JUMPDEST PUSH1 0x0 PUSH1 0xFF DUP3 AND SWAP1 POP SWAP2 SWAP1 POP JUMP JUMPDEST PUSH1 0x0 JUMPDEST DUP4 DUP2 LT ISZERO PUSH2 0xD03 JUMPI DUP1 DUP3 ADD MLOAD DUP2 DUP5 ADD MSTORE PUSH1 0x20 DUP2 ADD SWAP1 POP PUSH2 0xCE8 JUMP JUMPDEST DUP4 DUP2 GT ISZERO PUSH2 0xD12 JUMPI PUSH1 0x0 DUP5 DUP5 ADD MSTORE JUMPDEST POP POP POP POP JUMP JUMPDEST PUSH1 0x0 PUSH1 0x1F NOT PUSH1 0x1F DUP4 ADD AND SWAP1 POP SWAP2 SWAP1 POP JUMP JUMPDEST PUSH2 0xD32 DUP2 PUSH2 0xC90 JUMP JUMPDEST DUP2 EQ PUSH2 0xD3D JUMPI PUSH1 0x0 DUP1 REVERT JUMPDEST POP JUMP JUMPDEST PUSH2 0xD49 DUP2 PUSH2 0xCCE JUMP JUMPDEST DUP2 EQ PUSH2 0xD54 JUMPI PUSH1 0x0 DUP1 REVERT JUMPDEST POP JUMP INVALID LOG2 PUSH5 0x6970667358 0x22 SLT KECCAK256 CHAINID 0xEC PUSH11 0xFBB8042C69E3E7E1A9DE97 0xED DUP2 0xB6 JUMPI EQ PUSH24 0x62D1B683BC51C1C0F7C43E8A64736F6C634300060C003300 "
				},
				"gasEstimates": {
					"creation": {
						"codeDepositCost": "606000",
						"executionCost": "infinite",
						"totalCost": "infinite"
					},
					"external": {
						"Bote()": "infinite",
						"CompraTokens(uint256)": "infinite",
						"GeneraTokens(uint256)": "infinite",
						"MisTokens()": "infinite",
						"PrecioBoleto()": "1152",
						"TokensDisponibles()": "infinite",
						"contrato()": "1214",
						"owner()": "1281"
					},
					"internal": {
						"PrecioTokens(uint256)": "36"
					}
				},
				"methodIdentifiers": {
					"Bote()": "74189861",
					"CompraTokens(uint256)": "f7774091",
					"GeneraTokens(uint256)": "1246f6e2",
					"MisTokens()": "e33f34a0",
					"PrecioBoleto()": "27909f27",
					"TokensDisponibles()": "fd889ff5",
					"contrato()": "e1a01e67",
					"owner()": "8da5cb5b"
				}
			},
			"storageLayout": {
				"storage": [
					{
						"astId": 435,
						"contract": "Loteria/loteria.sol:Loteria",
						"label": "token",
						"offset": 0,
						"slot": "0",
						"type": "t_contract(ERC20Basic)347"
					},
					{
						"astId": 437,
						"contract": "Loteria/loteria.sol:Loteria",
						"label": "owner",
						"offset": 0,
						"slot": "1",
						"type": "t_address"
					},
					{
						"astId": 439,
						"contract": "Loteria/loteria.sol:Loteria",
						"label": "contrato",
						"offset": 0,
						"slot": "2",
						"type": "t_address"
					},
					{
						"astId": 605,
						"contract": "Loteria/loteria.sol:Loteria",
						"label": "PrecioBoleto",
						"offset": 0,
						"slot": "3",
						"type": "t_uint256"
					},
					{
						"astId": 610,
						"contract": "Loteria/loteria.sol:Loteria",
						"label": "idPersona_boletos",
						"offset": 0,
						"slot": "4",
						"type": "t_mapping(t_address,t_array(t_uint256)dyn_storage)"
					},
					{
						"astId": 614,
						"contract": "Loteria/loteria.sol:Loteria",
						"label": "ADN_boleto",
						"offset": 0,
						"slot": "5",
						"type": "t_mapping(t_uint256,t_address)"
					},
					{
						"astId": 617,
						"contract": "Loteria/loteria.sol:Loteria",
						"label": "randNonce",
						"offset": 0,
						"slot": "6",
						"type": "t_uint256"
					},
					{
						"astId": 620,
						"contract": "Loteria/loteria.sol:Loteria",
						"label": "boletos_comprados",
						"offset": 0,
						"slot": "7",
						"type": "t_array(t_uint256)dyn_storage"
					}
				],
				"types": {
					"t_address": {
						"encoding": "inplace",
						"label": "address",
						"numberOfBytes": "20"
					},
					"t_array(t_uint256)dyn_storage": {
						"base": "t_uint256",
						"encoding": "dynamic_array",
						"label": "uint256[]",
						"numberOfBytes": "32"
					},
					"t_contract(ERC20Basic)347": {
						"encoding": "inplace",
						"label": "contract ERC20Basic",
						"numberOfBytes": "20"
					},
					"t_mapping(t_address,t_array(t_uint256)dyn_storage)": {
						"encoding": "mapping",
						"key": "t_address",
						"label": "mapping(address => uint256[])",
						"numberOfBytes": "32",
						"value": "t_array(t_uint256)dyn_storage"
					},
					"t_mapping(t_uint256,t_address)": {
						"encoding": "mapping",
						"key": "t_uint256",
						"label": "mapping(uint256 => address)",
						"numberOfBytes": "32",
						"value": "t_address"
					},
					"t_uint256": {
						"encoding": "inplace",
						"label": "uint256",
						"numberOfBytes": "32"
					}
				}
			},
			"userdoc": {
				"kind": "user",
				"methods": {},
				"version": 1
			}
		}
	}
}