{
	"Loteria/loteria.sol": {
		"Loteria": {
			"abi": [
				{
					"inputs": [],
					"stateMutability": "nonpayable",
					"type": "constructor"
				},
				{
					"anonymous": false,
					"inputs": [
						{
							"indexed": false,
							"internalType": "uint256",
							"name": "",
							"type": "uint256"
						},
						{
							"indexed": false,
							"internalType": "address",
							"name": "",
							"type": "address"
						}
					],
					"name": "ComprarTokens",
					"type": "event"
				},
				{
					"anonymous": false,
					"inputs": [
						{
							"indexed": false,
							"internalType": "uint256",
							"name": "",
							"type": "uint256"
						}
					],
					"name": "boleto_comprado",
					"type": "event"
				},
				{
					"anonymous": false,
					"inputs": [
						{
							"indexed": false,
							"internalType": "uint256",
							"name": "",
							"type": "uint256"
						}
					],
					"name": "boleto_ganador",
					"type": "event"
				},
				{
					"inputs": [],
					"name": "Bote",
					"outputs": [
						{
							"internalType": "uint256",
							"name": "",
							"type": "uint256"
						}
					],
					"stateMutability": "view",
					"type": "function"
				},
				{
					"inputs": [
						{
							"internalType": "uint256",
							"name": "_numTokens",
							"type": "uint256"
						}
					],
					"name": "CompraTokens",
					"outputs": [],
					"stateMutability": "payable",
					"type": "function"
				},
				{
					"inputs": [
						{
							"internalType": "uint256",
							"name": "_boletos",
							"type": "uint256"
						}
					],
					"name": "ComprarBoleto",
					"outputs": [],
					"stateMutability": "nonpayable",
					"type": "function"
				},
				{
					"inputs": [
						{
							"internalType": "uint256",
							"name": "_numTokens",
							"type": "uint256"
						}
					],
					"name": "DevolverTokens",
					"outputs": [],
					"stateMutability": "payable",
					"type": "function"
				},
				{
					"inputs": [
						{
							"internalType": "uint256",
							"name": "_numTokens",
							"type": "uint256"
						}
					],
					"name": "GeneraTokens",
					"outputs": [],
					"stateMutability": "nonpayable",
					"type": "function"
				},
				{
					"inputs": [],
					"name": "GenerarGanador",
					"outputs": [],
					"stateMutability": "nonpayable",
					"type": "function"
				},
				{
					"inputs": [],
					"name": "MisBoletos",
					"outputs": [
						{
							"internalType": "uint256[]",
							"name": "",
							"type": "uint256[]"
						}
					],
					"stateMutability": "view",
					"type": "function"
				},
				{
					"inputs": [],
					"name": "MisTokens",
					"outputs": [
						{
							"internalType": "uint256",
							"name": "",
							"type": "uint256"
						}
					],
					"stateMutability": "view",
					"type": "function"
				},
				{
					"inputs": [],
					"name": "PrecioBoleto",
					"outputs": [
						{
							"internalType": "uint256",
							"name": "",
							"type": "uint256"
						}
					],
					"stateMutability": "view",
					"type": "function"
				},
				{
					"inputs": [],
					"name": "TokensDisponibles",
					"outputs": [
						{
							"internalType": "uint256",
							"name": "",
							"type": "uint256"
						}
					],
					"stateMutability": "view",
					"type": "function"
				},
				{
					"inputs": [],
					"name": "contrato",
					"outputs": [
						{
							"internalType": "address",
							"name": "",
							"type": "address"
						}
					],
					"stateMutability": "view",
					"type": "function"
				},
				{
					"inputs": [],
					"name": "owner",
					"outputs": [
						{
							"internalType": "address",
							"name": "",
							"type": "address"
						}
					],
					"stateMutability": "view",
					"type": "function"
				}
			],
			"devdoc": {
				"kind": "dev",
				"methods": {},
				"version": 1
			},
			"evm": {
				"assembly": "    /* \"Loteria/loteria.sol\":131:5505  contract Loteria {\r... */\n  mstore(0x40, 0x80)\n    /* \"Loteria/loteria.sol\":2600:2601  1 */\n  0x01\n    /* \"Loteria/loteria.sol\":2573:2601  uint public PrecioBoleto = 1 */\n  0x03\n  sstore\n    /* \"Loteria/loteria.sol\":2877:2878  0 */\n  0x00\n    /* \"Loteria/loteria.sol\":2860:2878  uint randNonce = 0 */\n  0x06\n  sstore\n    /* \"Loteria/loteria.sol\":301:434  constructor() public {\r... */\n  callvalue\n  dup1\n  iszero\n  tag_1\n  jumpi\n  0x00\n  dup1\n  revert\ntag_1:\n  pop\n    /* \"Loteria/loteria.sol\":356:361  10000 */\n  0x2710\n    /* \"Loteria/loteria.sol\":341:362  new ERC20Basic(10000) */\n  mload(0x40)\n  tag_4\n  swap1\n  tag_5\n  jump\t// in\ntag_4:\n  tag_6\n  swap2\n  swap1\n  tag_7\n  jump\t// in\ntag_6:\n  mload(0x40)\n  dup1\n  swap2\n  sub\n  swap1\n  0x00\n  create\n  dup1\n  iszero\n  dup1\n  iszero\n  tag_8\n  jumpi\n  returndatasize\n  0x00\n  dup1\n  returndatacopy\n  revert(0x00, returndatasize)\ntag_8:\n  pop\n    /* \"Loteria/loteria.sol\":333:338  token */\n  0x00\n  dup1\n    /* \"Loteria/loteria.sol\":333:362  token = new ERC20Basic(10000) */\n  0x0100\n  exp\n  dup2\n  sload\n  dup2\n  0xffffffffffffffffffffffffffffffffffffffff\n  mul\n  not\n  and\n  swap1\n  dup4\n  0xffffffffffffffffffffffffffffffffffffffff\n  and\n  mul\n  or\n  swap1\n  sstore\n  pop\n    /* \"Loteria/loteria.sol\":381:391  msg.sender */\n  caller\n    /* \"Loteria/loteria.sol\":373:378  owner */\n  0x01\n  0x00\n    /* \"Loteria/loteria.sol\":373:391  owner = msg.sender */\n  0x0100\n  exp\n  dup2\n  sload\n  dup2\n  0xffffffffffffffffffffffffffffffffffffffff\n  mul\n  not\n  and\n  swap1\n  dup4\n  0xffffffffffffffffffffffffffffffffffffffff\n  and\n  mul\n  or\n  swap1\n  sstore\n  pop\n    /* \"Loteria/loteria.sol\":421:425  this */\n  address\n    /* \"Loteria/loteria.sol\":402:410  contrato */\n  0x02\n  0x00\n    /* \"Loteria/loteria.sol\":402:426  contrato = address(this) */\n  0x0100\n  exp\n  dup2\n  sload\n  dup2\n  0xffffffffffffffffffffffffffffffffffffffff\n  mul\n  not\n  and\n  swap1\n  dup4\n  0xffffffffffffffffffffffffffffffffffffffff\n  and\n  mul\n  or\n  swap1\n  sstore\n  pop\n    /* \"Loteria/loteria.sol\":131:5505  contract Loteria {\r... */\n  jump(tag_9)\ntag_5:\n  dataSize(sub_1)\n  dup1\n  dataOffset(sub_1)\n  dup4\n  codecopy\n  add\n  swap1\n  jump\t// out\n    /* \"--CODEGEN--\":5:155   */\ntag_11:\n    /* \"--CODEGEN--\":100:149   */\n  tag_13\n    /* \"--CODEGEN--\":143:148   */\n  dup2\n    /* \"--CODEGEN--\":100:149   */\n  tag_14\n  jump\t// in\ntag_13:\n    /* \"--CODEGEN--\":95:98   */\n  dup3\n    /* \"--CODEGEN--\":88:150   */\n  mstore\n    /* \"--CODEGEN--\":82:155   */\n  pop\n  pop\n  jump\t// out\n    /* \"--CODEGEN--\":162:408   */\ntag_7:\n  0x00\n    /* \"--CODEGEN--\":301:303   */\n  0x20\n    /* \"--CODEGEN--\":290:299   */\n  dup3\n    /* \"--CODEGEN--\":286:304   */\n  add\n    /* \"--CODEGEN--\":278:304   */\n  swap1\n  pop\n    /* \"--CODEGEN--\":315:398   */\n  tag_16\n    /* \"--CODEGEN--\":395:396   */\n  0x00\n    /* \"--CODEGEN--\":384:393   */\n  dup4\n    /* \"--CODEGEN--\":380:397   */\n  add\n    /* \"--CODEGEN--\":371:377   */\n  dup5\n    /* \"--CODEGEN--\":315:398   */\n  tag_11\n  jump\t// in\ntag_16:\n    /* \"--CODEGEN--\":272:408   */\n  swap3\n  swap2\n  pop\n  pop\n  jump\t// out\n    /* \"--CODEGEN--\":415:487   */\ntag_17:\n  0x00\n    /* \"--CODEGEN--\":477:482   */\n  dup2\n    /* \"--CODEGEN--\":466:482   */\n  swap1\n  pop\n    /* \"--CODEGEN--\":460:487   */\n  swap2\n  swap1\n  pop\n  jump\t// out\n    /* \"--CODEGEN--\":494:614   */\ntag_14:\n  0x00\n    /* \"--CODEGEN--\":585:609   */\n  tag_20\n    /* \"--CODEGEN--\":603:608   */\n  dup3\n    /* \"--CODEGEN--\":585:609   */\n  tag_17\n  jump\t// in\ntag_20:\n    /* \"--CODEGEN--\":572:609   */\n  swap1\n  pop\n    /* \"--CODEGEN--\":566:614   */\n  swap2\n  swap1\n  pop\n  jump\t// out\n    /* \"Loteria/loteria.sol\":131:5505  contract Loteria {\r... */\ntag_9:\n  dataSize(sub_0)\n  dup1\n  dataOffset(sub_0)\n  0x00\n  codecopy\n  0x00\n  return\nstop\n\nsub_0: assembly {\n        /* \"Loteria/loteria.sol\":131:5505  contract Loteria {\r... */\n      mstore(0x40, 0x80)\n      jumpi(tag_1, lt(calldatasize, 0x04))\n      shr(0xe0, calldataload(0x00))\n      dup1\n      0x7cd15f44\n      gt\n      tag_14\n      jumpi\n      dup1\n      0x7cd15f44\n      eq\n      tag_8\n      jumpi\n      dup1\n      0x8da5cb5b\n      eq\n      tag_9\n      jumpi\n      dup1\n      0xe1a01e67\n      eq\n      tag_10\n      jumpi\n      dup1\n      0xe33f34a0\n      eq\n      tag_11\n      jumpi\n      dup1\n      0xf7774091\n      eq\n      tag_12\n      jumpi\n      dup1\n      0xfd889ff5\n      eq\n      tag_13\n      jumpi\n      jump(tag_1)\n    tag_14:\n      dup1\n      0x1246f6e2\n      eq\n      tag_2\n      jumpi\n      dup1\n      0x1890154c\n      eq\n      tag_3\n      jumpi\n      dup1\n      0x27909f27\n      eq\n      tag_4\n      jumpi\n      dup1\n      0x5332eee5\n      eq\n      tag_5\n      jumpi\n      dup1\n      0x74189861\n      eq\n      tag_6\n      jumpi\n      dup1\n      0x79face26\n      eq\n      tag_7\n      jumpi\n    tag_1:\n      0x00\n      dup1\n      revert\n        /* \"Loteria/loteria.sol\":1035:1160  function GeneraTokens(uint _numTokens) public Unicamente(msg.sender) {\r... */\n    tag_2:\n      callvalue\n      dup1\n      iszero\n      tag_15\n      jumpi\n      0x00\n      dup1\n      revert\n    tag_15:\n      pop\n      tag_16\n      0x04\n      dup1\n      calldatasize\n      sub\n      dup2\n      add\n      swap1\n      tag_17\n      swap2\n      swap1\n      tag_18\n      jump\t// in\n    tag_17:\n      tag_19\n      jump\t// in\n    tag_16:\n      stop\n        /* \"Loteria/loteria.sol\":5176:5502  function DevolverTokens(uint _numTokens) public payable {\r... */\n    tag_3:\n      tag_20\n      0x04\n      dup1\n      calldatasize\n      sub\n      dup2\n      add\n      swap1\n      tag_21\n      swap2\n      swap1\n      tag_18\n      jump\t// in\n    tag_21:\n      tag_22\n      jump\t// in\n    tag_20:\n      stop\n        /* \"Loteria/loteria.sol\":2573:2601  uint public PrecioBoleto = 1 */\n    tag_4:\n      callvalue\n      dup1\n      iszero\n      tag_23\n      jumpi\n      0x00\n      dup1\n      revert\n    tag_23:\n      pop\n      tag_24\n      tag_25\n      jump\t// in\n    tag_24:\n      mload(0x40)\n      tag_26\n      swap2\n      swap1\n      tag_27\n      jump\t// in\n    tag_26:\n      mload(0x40)\n      dup1\n      swap2\n      sub\n      swap1\n      return\n        /* \"Loteria/loteria.sol\":4561:5139  function GenerarGanador() public Unicamente(msg.sender) {\r... */\n    tag_5:\n      callvalue\n      dup1\n      iszero\n      tag_28\n      jumpi\n      0x00\n      dup1\n      revert\n    tag_28:\n      pop\n      tag_29\n      tag_30\n      jump\t// in\n    tag_29:\n      stop\n        /* \"Loteria/loteria.sol\":2171:2261  function Bote() public view returns(uint) {\r... */\n    tag_6:\n      callvalue\n      dup1\n      iszero\n      tag_31\n      jumpi\n      0x00\n      dup1\n      revert\n    tag_31:\n      pop\n      tag_32\n      tag_33\n      jump\t// in\n    tag_32:\n      mload(0x40)\n      tag_34\n      swap2\n      swap1\n      tag_27\n      jump\t// in\n    tag_34:\n      mload(0x40)\n      dup1\n      swap2\n      sub\n      swap1\n      return\n        /* \"Loteria/loteria.sol\":4377:4489  function MisBoletos() public view returns(uint[] memory) {\r... */\n    tag_7:\n      callvalue\n      dup1\n      iszero\n      tag_35\n      jumpi\n      0x00\n      dup1\n      revert\n    tag_35:\n      pop\n      tag_36\n      tag_37\n      jump\t// in\n    tag_36:\n      mload(0x40)\n      tag_38\n      swap2\n      swap1\n      tag_39\n      jump\t// in\n    tag_38:\n      mload(0x40)\n      dup1\n      swap2\n      sub\n      swap1\n      return\n        /* \"Loteria/loteria.sol\":3075:4324  function ComprarBoleto(uint _boletos) public {\r... */\n    tag_8:\n      callvalue\n      dup1\n      iszero\n      tag_40\n      jumpi\n      0x00\n      dup1\n      revert\n    tag_40:\n      pop\n      tag_41\n      0x04\n      dup1\n      calldatasize\n      sub\n      dup2\n      add\n      swap1\n      tag_42\n      swap2\n      swap1\n      tag_18\n      jump\t// in\n    tag_42:\n      tag_43\n      jump\t// in\n    tag_41:\n      stop\n        /* \"Loteria/loteria.sol\":242:262  address public owner */\n    tag_9:\n      callvalue\n      dup1\n      iszero\n      tag_44\n      jumpi\n      0x00\n      dup1\n      revert\n    tag_44:\n      pop\n      tag_45\n      tag_46\n      jump\t// in\n    tag_45:\n      mload(0x40)\n      tag_47\n      swap2\n      swap1\n      tag_48\n      jump\t// in\n    tag_47:\n      mload(0x40)\n      dup1\n      swap2\n      sub\n      swap1\n      return\n        /* \"Loteria/loteria.sol\":269:292  address public contrato */\n    tag_10:\n      callvalue\n      dup1\n      iszero\n      tag_49\n      jumpi\n      0x00\n      dup1\n      revert\n    tag_49:\n      pop\n      tag_50\n      tag_51\n      jump\t// in\n    tag_50:\n      mload(0x40)\n      tag_52\n      swap2\n      swap1\n      tag_48\n      jump\t// in\n    tag_52:\n      mload(0x40)\n      dup1\n      swap2\n      sub\n      swap1\n      return\n        /* \"Loteria/loteria.sol\":2299:2400  function MisTokens() public view returns (uint) {\r... */\n    tag_11:\n      callvalue\n      dup1\n      iszero\n      tag_53\n      jumpi\n      0x00\n      dup1\n      revert\n    tag_53:\n      pop\n      tag_54\n      tag_55\n      jump\t// in\n    tag_54:\n      mload(0x40)\n      tag_56\n      swap2\n      swap1\n      tag_27\n      jump\t// in\n    tag_56:\n      mload(0x40)\n      dup1\n      swap2\n      sub\n      swap1\n      return\n        /* \"Loteria/loteria.sol\":1191:1945  function CompraTokens(uint _numTokens) public payable {\r... */\n    tag_12:\n      tag_57\n      0x04\n      dup1\n      calldatasize\n      sub\n      dup2\n      add\n      swap1\n      tag_58\n      swap2\n      swap1\n      tag_18\n      jump\t// in\n    tag_58:\n      tag_59\n      jump\t// in\n    tag_57:\n      stop\n        /* \"Loteria/loteria.sol\":1996:2107  function TokensDisponibles() public view returns(uint) {\r... */\n    tag_13:\n      callvalue\n      dup1\n      iszero\n      tag_60\n      jumpi\n      0x00\n      dup1\n      revert\n    tag_60:\n      pop\n      tag_61\n      tag_62\n      jump\t// in\n    tag_61:\n      mload(0x40)\n      tag_63\n      swap2\n      swap1\n      tag_27\n      jump\t// in\n    tag_63:\n      mload(0x40)\n      dup1\n      swap2\n      sub\n      swap1\n      return\n        /* \"Loteria/loteria.sol\":1035:1160  function GeneraTokens(uint _numTokens) public Unicamente(msg.sender) {\r... */\n    tag_19:\n        /* \"Loteria/loteria.sol\":1092:1102  msg.sender */\n      caller\n        /* \"Loteria/loteria.sol\":731:736  owner */\n      0x01\n      0x00\n      swap1\n      sload\n      swap1\n      0x0100\n      exp\n      swap1\n      div\n      0xffffffffffffffffffffffffffffffffffffffff\n      and\n        /* \"Loteria/loteria.sol\":716:736  propietario == owner */\n      0xffffffffffffffffffffffffffffffffffffffff\n      and\n        /* \"Loteria/loteria.sol\":716:727  propietario */\n      dup2\n        /* \"Loteria/loteria.sol\":716:736  propietario == owner */\n      0xffffffffffffffffffffffffffffffffffffffff\n      and\n      eq\n        /* \"Loteria/loteria.sol\":708:786  require(propietario == owner, \"No tienes permisos para ejecutar esta funcion\") */\n      tag_65\n      jumpi\n      mload(0x40)\n      0x08c379a000000000000000000000000000000000000000000000000000000000\n      dup2\n      mstore\n      0x04\n      add\n      tag_66\n      swap1\n      tag_67\n      jump\t// in\n    tag_66:\n      mload(0x40)\n      dup1\n      swap2\n      sub\n      swap1\n      revert\n    tag_65:\n        /* \"Loteria/loteria.sol\":1115:1120  token */\n      0x00\n      dup1\n      sload\n      swap1\n      0x0100\n      exp\n      swap1\n      div\n      0xffffffffffffffffffffffffffffffffffffffff\n      and\n        /* \"Loteria/loteria.sol\":1115:1140  token.increaseTotalSupply */\n      0xffffffffffffffffffffffffffffffffffffffff\n      and\n      0x1d43cc98\n        /* \"Loteria/loteria.sol\":1141:1151  _numTokens */\n      dup4\n        /* \"Loteria/loteria.sol\":1115:1152  token.increaseTotalSupply(_numTokens) */\n      mload(0x40)\n      dup3\n      0xffffffff\n      and\n      0xe0\n      shl\n      dup2\n      mstore\n      0x04\n      add\n      tag_69\n      swap2\n      swap1\n      tag_27\n      jump\t// in\n    tag_69:\n      0x00\n      mload(0x40)\n      dup1\n      dup4\n      sub\n      dup2\n      0x00\n      dup8\n      dup1\n      extcodesize\n      iszero\n      dup1\n      iszero\n      tag_70\n      jumpi\n      0x00\n      dup1\n      revert\n    tag_70:\n      pop\n      gas\n      call\n      iszero\n      dup1\n      iszero\n      tag_72\n      jumpi\n      returndatasize\n      0x00\n      dup1\n      returndatacopy\n      revert(0x00, returndatasize)\n    tag_72:\n      pop\n      pop\n      pop\n      pop\n        /* \"Loteria/loteria.sol\":1035:1160  function GeneraTokens(uint _numTokens) public Unicamente(msg.sender) {\r... */\n      pop\n      pop\n      jump\t// out\n        /* \"Loteria/loteria.sol\":5176:5502  function DevolverTokens(uint _numTokens) public payable {\r... */\n    tag_22:\n        /* \"Loteria/loteria.sol\":5331:5342  MisTokens() */\n      tag_74\n        /* \"Loteria/loteria.sol\":5331:5340  MisTokens */\n      tag_55\n        /* \"Loteria/loteria.sol\":5331:5342  MisTokens() */\n      jump\t// in\n    tag_74:\n        /* \"Loteria/loteria.sol\":5317:5327  _numTokens */\n      dup2\n        /* \"Loteria/loteria.sol\":5317:5342  _numTokens <= MisTokens() */\n      gt\n      iszero\n        /* \"Loteria/loteria.sol\":5308:5367  require (_numTokens <= MisTokens(), \"Tokens insuficientes\") */\n      tag_75\n      jumpi\n      mload(0x40)\n      0x08c379a000000000000000000000000000000000000000000000000000000000\n      dup2\n      mstore\n      0x04\n      add\n      tag_76\n      swap1\n      tag_77\n      jump\t// in\n    tag_76:\n      mload(0x40)\n      dup1\n      swap2\n      sub\n      swap1\n      revert\n    tag_75:\n        /* \"Loteria/loteria.sol\":5378:5383  token */\n      0x00\n      dup1\n      sload\n      swap1\n      0x0100\n      exp\n      swap1\n      div\n      0xffffffffffffffffffffffffffffffffffffffff\n      and\n        /* \"Loteria/loteria.sol\":5378:5399  token.transferLoteria */\n      0xffffffffffffffffffffffffffffffffffffffff\n      and\n      0x5c79febb\n        /* \"Loteria/loteria.sol\":5400:5410  msg.sender */\n      caller\n        /* \"Loteria/loteria.sol\":5420:5424  this */\n      address\n        /* \"Loteria/loteria.sol\":5427:5437  _numTokens */\n      dup5\n        /* \"Loteria/loteria.sol\":5378:5438  token.transferLoteria(msg.sender, address(this), _numTokens) */\n      mload(0x40)\n      dup5\n      0xffffffff\n      and\n      0xe0\n      shl\n      dup2\n      mstore\n      0x04\n      add\n      tag_78\n      swap4\n      swap3\n      swap2\n      swap1\n      tag_79\n      jump\t// in\n    tag_78:\n      0x20\n      mload(0x40)\n      dup1\n      dup4\n      sub\n      dup2\n      0x00\n      dup8\n      dup1\n      extcodesize\n      iszero\n      dup1\n      iszero\n      tag_80\n      jumpi\n      0x00\n      dup1\n      revert\n    tag_80:\n      pop\n      gas\n      call\n      iszero\n      dup1\n      iszero\n      tag_82\n      jumpi\n      returndatasize\n      0x00\n      dup1\n      returndatacopy\n      revert(0x00, returndatasize)\n    tag_82:\n      pop\n      pop\n      pop\n      pop\n      mload(0x40)\n      returndatasize\n      not(0x1f)\n      0x1f\n      dup3\n      add\n      and\n      dup3\n      add\n      dup1\n      0x40\n      mstore\n      pop\n      dup2\n      add\n      swap1\n      tag_83\n      swap2\n      swap1\n      tag_84\n      jump\t// in\n    tag_83:\n      pop\n        /* \"Loteria/loteria.sol\":5449:5459  msg.sender */\n      caller\n        /* \"Loteria/loteria.sol\":5449:5468  msg.sender.transfer */\n      0xffffffffffffffffffffffffffffffffffffffff\n      and\n        /* \"Loteria/loteria.sol\":5449:5494  msg.sender.transfer(PrecioTokens(_numTokens)) */\n      0x08fc\n        /* \"Loteria/loteria.sol\":5469:5493  PrecioTokens(_numTokens) */\n      tag_85\n        /* \"Loteria/loteria.sol\":5482:5492  _numTokens */\n      dup4\n        /* \"Loteria/loteria.sol\":5469:5481  PrecioTokens */\n      tag_86\n        /* \"Loteria/loteria.sol\":5469:5493  PrecioTokens(_numTokens) */\n      jump\t// in\n    tag_85:\n        /* \"Loteria/loteria.sol\":5449:5494  msg.sender.transfer(PrecioTokens(_numTokens)) */\n      swap1\n      dup2\n      iszero\n      mul\n      swap1\n      mload(0x40)\n      0x00\n      mload(0x40)\n      dup1\n      dup4\n      sub\n      dup2\n      dup6\n      dup9\n      dup9\n      call\n      swap4\n      pop\n      pop\n      pop\n      pop\n      iszero\n      dup1\n      iszero\n      tag_88\n      jumpi\n      returndatasize\n      0x00\n      dup1\n      returndatacopy\n      revert(0x00, returndatasize)\n    tag_88:\n      pop\n        /* \"Loteria/loteria.sol\":5176:5502  function DevolverTokens(uint _numTokens) public payable {\r... */\n      pop\n      jump\t// out\n        /* \"Loteria/loteria.sol\":2573:2601  uint public PrecioBoleto = 1 */\n    tag_25:\n      sload(0x03)\n      dup2\n      jump\t// out\n        /* \"Loteria/loteria.sol\":4561:5139  function GenerarGanador() public Unicamente(msg.sender) {\r... */\n    tag_30:\n        /* \"Loteria/loteria.sol\":4605:4615  msg.sender */\n      caller\n        /* \"Loteria/loteria.sol\":731:736  owner */\n      0x01\n      0x00\n      swap1\n      sload\n      swap1\n      0x0100\n      exp\n      swap1\n      div\n      0xffffffffffffffffffffffffffffffffffffffff\n      and\n        /* \"Loteria/loteria.sol\":716:736  propietario == owner */\n      0xffffffffffffffffffffffffffffffffffffffff\n      and\n        /* \"Loteria/loteria.sol\":716:727  propietario */\n      dup2\n        /* \"Loteria/loteria.sol\":716:736  propietario == owner */\n      0xffffffffffffffffffffffffffffffffffffffff\n      and\n      eq\n        /* \"Loteria/loteria.sol\":708:786  require(propietario == owner, \"No tienes permisos para ejecutar esta funcion\") */\n      tag_90\n      jumpi\n      mload(0x40)\n      0x08c379a000000000000000000000000000000000000000000000000000000000\n      dup2\n      mstore\n      0x04\n      add\n      tag_91\n      swap1\n      tag_67\n      jump\t// in\n    tag_91:\n      mload(0x40)\n      dup1\n      swap2\n      sub\n      swap1\n      revert\n    tag_90:\n        /* \"Loteria/loteria.sol\":4728:4729  0 */\n      0x00\n        /* \"Loteria/loteria.sol\":4701:4718  boletos_comprados */\n      0x07\n        /* \"Loteria/loteria.sol\":4701:4725  boletos_comprados.length */\n      dup1\n      sload\n      swap1\n      pop\n        /* \"Loteria/loteria.sol\":4701:4729  boletos_comprados.length > 0 */\n      gt\n        /* \"Loteria/loteria.sol\":4693:4774  require(boletos_comprados.length > 0, \"No se ha vendido ningún boleto todavía\") */\n      tag_93\n      jumpi\n      mload(0x40)\n      0x08c379a000000000000000000000000000000000000000000000000000000000\n      dup2\n      mstore\n      0x04\n      add\n      tag_94\n      swap1\n      tag_95\n      jump\t// in\n    tag_94:\n      mload(0x40)\n      dup1\n      swap2\n      sub\n      swap1\n      revert\n    tag_93:\n        /* \"Loteria/loteria.sol\":4870:4882  uint ganador */\n      0x00\n        /* \"Loteria/loteria.sol\":4885:4902  boletos_comprados */\n      0x07\n        /* \"Loteria/loteria.sol\":4944:4961  boletos_comprados */\n      dup1\n        /* \"Loteria/loteria.sol\":4944:4968  boletos_comprados.length */\n      dup1\n      sload\n      swap1\n      pop\n        /* \"Loteria/loteria.sol\":4935:4938  now */\n      timestamp\n        /* \"Loteria/loteria.sol\":4918:4939  abi.encodePacked(now) */\n      add(0x20, mload(0x40))\n      tag_96\n      swap2\n      swap1\n      tag_97\n      jump\t// in\n    tag_96:\n      mload(0x40)\n      0x20\n      dup2\n      dup4\n      sub\n      sub\n      dup2\n      mstore\n      swap1\n      0x40\n      mstore\n        /* \"Loteria/loteria.sol\":4908:4940  keccak256(abi.encodePacked(now)) */\n      dup1\n      mload\n      swap1\n      0x20\n      add\n      keccak256\n        /* \"Loteria/loteria.sol\":4903:4941  uint(keccak256(abi.encodePacked(now))) */\n      0x00\n      shr\n        /* \"Loteria/loteria.sol\":4903:4968  uint(keccak256(abi.encodePacked(now))) % boletos_comprados.length */\n      dup2\n      tag_98\n      jumpi\n      invalid\n    tag_98:\n      mod\n        /* \"Loteria/loteria.sol\":4885:4969  boletos_comprados[uint(keccak256(abi.encodePacked(now))) % boletos_comprados.length] */\n      dup2\n      sload\n      dup2\n      lt\n      tag_99\n      jumpi\n      invalid\n    tag_99:\n      swap1\n      0x00\n      mstore\n      keccak256(0x00, 0x20)\n      add\n      sload\n        /* \"Loteria/loteria.sol\":4870:4969  uint ganador = boletos_comprados[uint(keccak256(abi.encodePacked(now))) % boletos_comprados.length] */\n      swap1\n      pop\n        /* \"Loteria/loteria.sol\":4987:5010  boleto_ganador(ganador) */\n      0x7ae8aa8a76009e9379a432b67d892b6006479447de6892c862ce780785a2387d\n        /* \"Loteria/loteria.sol\":5002:5009  ganador */\n      dup2\n        /* \"Loteria/loteria.sol\":4987:5010  boleto_ganador(ganador) */\n      mload(0x40)\n      tag_101\n      swap2\n      swap1\n      tag_27\n      jump\t// in\n    tag_101:\n      mload(0x40)\n      dup1\n      swap2\n      sub\n      swap1\n      log1\n        /* \"Loteria/loteria.sol\":5074:5079  token */\n      0x00\n      dup1\n      sload\n      swap1\n      0x0100\n      exp\n      swap1\n      div\n      0xffffffffffffffffffffffffffffffffffffffff\n      and\n        /* \"Loteria/loteria.sol\":5074:5095  token.transferLoteria */\n      0xffffffffffffffffffffffffffffffffffffffff\n      and\n      0x5c79febb\n        /* \"Loteria/loteria.sol\":5096:5101  owner */\n      0x01\n      0x00\n      swap1\n      sload\n      swap1\n      0x0100\n      exp\n      swap1\n      div\n      0xffffffffffffffffffffffffffffffffffffffff\n      and\n        /* \"Loteria/loteria.sol\":5103:5113  ADN_boleto */\n      0x05\n        /* \"Loteria/loteria.sol\":5103:5122  ADN_boleto[ganador] */\n      0x00\n        /* \"Loteria/loteria.sol\":5114:5121  ganador */\n      dup6\n        /* \"Loteria/loteria.sol\":5103:5122  ADN_boleto[ganador] */\n      dup2\n      mstore\n      0x20\n      add\n      swap1\n      dup2\n      mstore\n      0x20\n      add\n      0x00\n      keccak256\n      0x00\n      swap1\n      sload\n      swap1\n      0x0100\n      exp\n      swap1\n      div\n      0xffffffffffffffffffffffffffffffffffffffff\n      and\n        /* \"Loteria/loteria.sol\":5124:5130  Bote() */\n      tag_102\n        /* \"Loteria/loteria.sol\":5124:5128  Bote */\n      tag_33\n        /* \"Loteria/loteria.sol\":5124:5130  Bote() */\n      jump\t// in\n    tag_102:\n        /* \"Loteria/loteria.sol\":5074:5131  token.transferLoteria(owner, ADN_boleto[ganador], Bote()) */\n      mload(0x40)\n      dup5\n      0xffffffff\n      and\n      0xe0\n      shl\n      dup2\n      mstore\n      0x04\n      add\n      tag_103\n      swap4\n      swap3\n      swap2\n      swap1\n      tag_104\n      jump\t// in\n    tag_103:\n      0x20\n      mload(0x40)\n      dup1\n      dup4\n      sub\n      dup2\n      0x00\n      dup8\n      dup1\n      extcodesize\n      iszero\n      dup1\n      iszero\n      tag_105\n      jumpi\n      0x00\n      dup1\n      revert\n    tag_105:\n      pop\n      gas\n      call\n      iszero\n      dup1\n      iszero\n      tag_107\n      jumpi\n      returndatasize\n      0x00\n      dup1\n      returndatacopy\n      revert(0x00, returndatasize)\n    tag_107:\n      pop\n      pop\n      pop\n      pop\n      mload(0x40)\n      returndatasize\n      not(0x1f)\n      0x1f\n      dup3\n      add\n      and\n      dup3\n      add\n      dup1\n      0x40\n      mstore\n      pop\n      dup2\n      add\n      swap1\n      tag_108\n      swap2\n      swap1\n      tag_84\n      jump\t// in\n    tag_108:\n      pop\n        /* \"Loteria/loteria.sol\":797:798  _ */\n      pop\n        /* \"Loteria/loteria.sol\":4561:5139  function GenerarGanador() public Unicamente(msg.sender) {\r... */\n      pop\n      jump\t// out\n        /* \"Loteria/loteria.sol\":2171:2261  function Bote() public view returns(uint) {\r... */\n    tag_33:\n        /* \"Loteria/loteria.sol\":2207:2211  uint */\n      0x00\n        /* \"Loteria/loteria.sol\":2231:2236  token */\n      dup1\n      0x00\n      swap1\n      sload\n      swap1\n      0x0100\n      exp\n      swap1\n      div\n      0xffffffffffffffffffffffffffffffffffffffff\n      and\n        /* \"Loteria/loteria.sol\":2231:2246  token.balanceOf */\n      0xffffffffffffffffffffffffffffffffffffffff\n      and\n      0x70a08231\n        /* \"Loteria/loteria.sol\":2247:2252  owner */\n      0x01\n      0x00\n      swap1\n      sload\n      swap1\n      0x0100\n      exp\n      swap1\n      div\n      0xffffffffffffffffffffffffffffffffffffffff\n      and\n        /* \"Loteria/loteria.sol\":2231:2253  token.balanceOf(owner) */\n      mload(0x40)\n      dup3\n      0xffffffff\n      and\n      0xe0\n      shl\n      dup2\n      mstore\n      0x04\n      add\n      tag_110\n      swap2\n      swap1\n      tag_48\n      jump\t// in\n    tag_110:\n      0x20\n      mload(0x40)\n      dup1\n      dup4\n      sub\n      dup2\n      dup7\n      dup1\n      extcodesize\n      iszero\n      dup1\n      iszero\n      tag_111\n      jumpi\n      0x00\n      dup1\n      revert\n    tag_111:\n      pop\n      gas\n      staticcall\n      iszero\n      dup1\n      iszero\n      tag_113\n      jumpi\n      returndatasize\n      0x00\n      dup1\n      returndatacopy\n      revert(0x00, returndatasize)\n    tag_113:\n      pop\n      pop\n      pop\n      pop\n      mload(0x40)\n      returndatasize\n      not(0x1f)\n      0x1f\n      dup3\n      add\n      and\n      dup3\n      add\n      dup1\n      0x40\n      mstore\n      pop\n      dup2\n      add\n      swap1\n      tag_114\n      swap2\n      swap1\n      tag_115\n      jump\t// in\n    tag_114:\n        /* \"Loteria/loteria.sol\":2224:2253  return token.balanceOf(owner) */\n      swap1\n      pop\n        /* \"Loteria/loteria.sol\":2171:2261  function Bote() public view returns(uint) {\r... */\n      swap1\n      jump\t// out\n        /* \"Loteria/loteria.sol\":4377:4489  function MisBoletos() public view returns(uint[] memory) {\r... */\n    tag_37:\n        /* \"Loteria/loteria.sol\":4419:4432  uint[] memory */\n      0x60\n        /* \"Loteria/loteria.sol\":4452:4469  idPersona_boletos */\n      0x04\n        /* \"Loteria/loteria.sol\":4452:4481  idPersona_boletos[msg.sender] */\n      0x00\n        /* \"Loteria/loteria.sol\":4470:4480  msg.sender */\n      caller\n        /* \"Loteria/loteria.sol\":4452:4481  idPersona_boletos[msg.sender] */\n      0xffffffffffffffffffffffffffffffffffffffff\n      and\n      0xffffffffffffffffffffffffffffffffffffffff\n      and\n      dup2\n      mstore\n      0x20\n      add\n      swap1\n      dup2\n      mstore\n      0x20\n      add\n      0x00\n      keccak256\n        /* \"Loteria/loteria.sol\":4445:4481  return idPersona_boletos[msg.sender] */\n      dup1\n      sload\n      dup1\n      0x20\n      mul\n      0x20\n      add\n      mload(0x40)\n      swap1\n      dup2\n      add\n      0x40\n      mstore\n      dup1\n      swap3\n      swap2\n      swap1\n      dup2\n      dup2\n      mstore\n      0x20\n      add\n      dup3\n      dup1\n      sload\n      dup1\n      iszero\n      tag_117\n      jumpi\n      0x20\n      mul\n      dup3\n      add\n      swap2\n      swap1\n      0x00\n      mstore\n      keccak256(0x00, 0x20)\n      swap1\n    tag_118:\n      dup2\n      sload\n      dup2\n      mstore\n      0x20\n      add\n      swap1\n      0x01\n      add\n      swap1\n      dup1\n      dup4\n      gt\n      tag_118\n      jumpi\n    tag_117:\n      pop\n      pop\n      pop\n      pop\n      pop\n      swap1\n      pop\n        /* \"Loteria/loteria.sol\":4377:4489  function MisBoletos() public view returns(uint[] memory) {\r... */\n      swap1\n      jump\t// out\n        /* \"Loteria/loteria.sol\":3075:4324  function ComprarBoleto(uint _boletos) public {\r... */\n    tag_43:\n        /* \"Loteria/loteria.sol\":3195:3212  uint precio_total */\n      0x00\n        /* \"Loteria/loteria.sol\":3226:3238  PrecioBoleto */\n      sload(0x03)\n        /* \"Loteria/loteria.sol\":3215:3223  _boletos */\n      dup3\n        /* \"Loteria/loteria.sol\":3215:3238  _boletos * PrecioBoleto */\n      mul\n        /* \"Loteria/loteria.sol\":3195:3238  uint precio_total = _boletos * PrecioBoleto */\n      swap1\n      pop\n        /* \"Loteria/loteria.sol\":3339:3350  MisTokens() */\n      tag_120\n        /* \"Loteria/loteria.sol\":3339:3348  MisTokens */\n      tag_55\n        /* \"Loteria/loteria.sol\":3339:3350  MisTokens() */\n      jump\t// in\n    tag_120:\n        /* \"Loteria/loteria.sol\":3323:3335  precio_total */\n      dup2\n        /* \"Loteria/loteria.sol\":3323:3350  precio_total <= MisTokens() */\n      gt\n      iszero\n        /* \"Loteria/loteria.sol\":3314:3386  require (precio_total <= MisTokens(), \"Cantidad de tokens insuficiente\") */\n      tag_121\n      jumpi\n      mload(0x40)\n      0x08c379a000000000000000000000000000000000000000000000000000000000\n      dup2\n      mstore\n      0x04\n      add\n      tag_122\n      swap1\n      tag_123\n      jump\t// in\n    tag_122:\n      mload(0x40)\n      dup1\n      swap2\n      sub\n      swap1\n      revert\n    tag_121:\n        /* \"Loteria/loteria.sol\":3457:3462  token */\n      0x00\n      dup1\n      sload\n      swap1\n      0x0100\n      exp\n      swap1\n      div\n      0xffffffffffffffffffffffffffffffffffffffff\n      and\n        /* \"Loteria/loteria.sol\":3457:3478  token.transferLoteria */\n      0xffffffffffffffffffffffffffffffffffffffff\n      and\n      0x5c79febb\n        /* \"Loteria/loteria.sol\":3479:3489  msg.sender */\n      caller\n        /* \"Loteria/loteria.sol\":3491:3496  owner */\n      0x01\n      0x00\n      swap1\n      sload\n      swap1\n      0x0100\n      exp\n      swap1\n      div\n      0xffffffffffffffffffffffffffffffffffffffff\n      and\n        /* \"Loteria/loteria.sol\":3498:3510  precio_total */\n      dup5\n        /* \"Loteria/loteria.sol\":3457:3511  token.transferLoteria(msg.sender, owner, precio_total) */\n      mload(0x40)\n      dup5\n      0xffffffff\n      and\n      0xe0\n      shl\n      dup2\n      mstore\n      0x04\n      add\n      tag_124\n      swap4\n      swap3\n      swap2\n      swap1\n      tag_79\n      jump\t// in\n    tag_124:\n      0x20\n      mload(0x40)\n      dup1\n      dup4\n      sub\n      dup2\n      0x00\n      dup8\n      dup1\n      extcodesize\n      iszero\n      dup1\n      iszero\n      tag_125\n      jumpi\n      0x00\n      dup1\n      revert\n    tag_125:\n      pop\n      gas\n      call\n      iszero\n      dup1\n      iszero\n      tag_127\n      jumpi\n      returndatasize\n      0x00\n      dup1\n      returndatacopy\n      revert(0x00, returndatasize)\n    tag_127:\n      pop\n      pop\n      pop\n      pop\n      mload(0x40)\n      returndatasize\n      not(0x1f)\n      0x1f\n      dup3\n      add\n      and\n      dup3\n      add\n      dup1\n      0x40\n      mstore\n      pop\n      dup2\n      add\n      swap1\n      tag_128\n      swap2\n      swap1\n      tag_84\n      jump\t// in\n    tag_128:\n      pop\n        /* \"Loteria/loteria.sol\":3572:3578  uint i */\n      0x00\n        /* \"Loteria/loteria.sol\":3567:4317  for (uint i = 0; i < _boletos; i++) {\r... */\n    tag_129:\n        /* \"Loteria/loteria.sol\":3588:3596  _boletos */\n      dup3\n        /* \"Loteria/loteria.sol\":3584:3585  i */\n      dup2\n        /* \"Loteria/loteria.sol\":3584:3596  i < _boletos */\n      lt\n        /* \"Loteria/loteria.sol\":3567:4317  for (uint i = 0; i < _boletos; i++) {\r... */\n      iszero\n      tag_130\n      jumpi\n        /* \"Loteria/loteria.sol\":3824:3835  uint random */\n      0x00\n        /* \"Loteria/loteria.sol\":3902:3904  10 */\n      0x0a\n        /* \"Loteria/loteria.sol\":3870:3873  now */\n      timestamp\n        /* \"Loteria/loteria.sol\":3875:3885  msg.sender */\n      caller\n        /* \"Loteria/loteria.sol\":3887:3896  randNonce */\n      sload(0x06)\n        /* \"Loteria/loteria.sol\":3853:3897  abi.encodePacked(now, msg.sender, randNonce) */\n      add(0x20, mload(0x40))\n      tag_132\n      swap4\n      swap3\n      swap2\n      swap1\n      tag_133\n      jump\t// in\n    tag_132:\n      mload(0x40)\n      0x20\n      dup2\n      dup4\n      sub\n      sub\n      dup2\n      mstore\n      swap1\n      0x40\n      mstore\n        /* \"Loteria/loteria.sol\":3843:3898  keccak256(abi.encodePacked(now, msg.sender, randNonce)) */\n      dup1\n      mload\n      swap1\n      0x20\n      add\n      keccak256\n        /* \"Loteria/loteria.sol\":3838:3899  uint(keccak256(abi.encodePacked(now, msg.sender, randNonce))) */\n      0x00\n      shr\n        /* \"Loteria/loteria.sol\":3838:3904  uint(keccak256(abi.encodePacked(now, msg.sender, randNonce))) % 10 */\n      dup2\n      tag_134\n      jumpi\n      invalid\n    tag_134:\n      mod\n        /* \"Loteria/loteria.sol\":3824:3904  uint random = uint(keccak256(abi.encodePacked(now, msg.sender, randNonce))) % 10 */\n      swap1\n      pop\n        /* \"Loteria/loteria.sol\":3919:3928  randNonce */\n      0x06\n      0x00\n        /* \"Loteria/loteria.sol\":3919:3931  randNonce ++ */\n      dup2\n      sload\n      dup1\n      swap3\n      swap2\n      swap1\n      0x01\n      add\n      swap2\n      swap1\n      pop\n      sstore\n      pop\n        /* \"Loteria/loteria.sol\":3994:4011  idPersona_boletos */\n      0x04\n        /* \"Loteria/loteria.sol\":3994:4023  idPersona_boletos[msg.sender] */\n      0x00\n        /* \"Loteria/loteria.sol\":4012:4022  msg.sender */\n      caller\n        /* \"Loteria/loteria.sol\":3994:4023  idPersona_boletos[msg.sender] */\n      0xffffffffffffffffffffffffffffffffffffffff\n      and\n      0xffffffffffffffffffffffffffffffffffffffff\n      and\n      dup2\n      mstore\n      0x20\n      add\n      swap1\n      dup2\n      mstore\n      0x20\n      add\n      0x00\n      keccak256\n        /* \"Loteria/loteria.sol\":4029:4035  random */\n      dup2\n        /* \"Loteria/loteria.sol\":3994:4036  idPersona_boletos[msg.sender].push(random) */\n      swap1\n      dup1\n      0x01\n      dup2\n      sload\n      add\n      dup1\n      dup3\n      sstore\n      dup1\n      swap2\n      pop\n      pop\n      0x01\n      swap1\n      sub\n      swap1\n      0x00\n      mstore\n      keccak256(0x00, 0x20)\n      add\n      0x00\n      swap1\n      swap2\n      swap1\n      swap2\n      swap1\n      swap2\n      pop\n      sstore\n        /* \"Loteria/loteria.sol\":4135:4152  boletos_comprados */\n      0x07\n        /* \"Loteria/loteria.sol\":4158:4164  random */\n      dup2\n        /* \"Loteria/loteria.sol\":4135:4165  boletos_comprados.push(random) */\n      swap1\n      dup1\n      0x01\n      dup2\n      sload\n      add\n      dup1\n      dup3\n      sstore\n      dup1\n      swap2\n      pop\n      pop\n      0x01\n      swap1\n      sub\n      swap1\n      0x00\n      mstore\n      keccak256(0x00, 0x20)\n      add\n      0x00\n      swap1\n      swap2\n      swap1\n      swap2\n      swap1\n      swap2\n      pop\n      sstore\n        /* \"Loteria/loteria.sol\":4250:4260  msg.sender */\n      caller\n        /* \"Loteria/loteria.sol\":4229:4239  ADN_boleto */\n      0x05\n        /* \"Loteria/loteria.sol\":4229:4247  ADN_boleto[random] */\n      0x00\n        /* \"Loteria/loteria.sol\":4240:4246  random */\n      dup4\n        /* \"Loteria/loteria.sol\":4229:4247  ADN_boleto[random] */\n      dup2\n      mstore\n      0x20\n      add\n      swap1\n      dup2\n      mstore\n      0x20\n      add\n      0x00\n      keccak256\n      0x00\n        /* \"Loteria/loteria.sol\":4229:4260  ADN_boleto[random] = msg.sender */\n      0x0100\n      exp\n      dup2\n      sload\n      dup2\n      0xffffffffffffffffffffffffffffffffffffffff\n      mul\n      not\n      and\n      swap1\n      dup4\n      0xffffffffffffffffffffffffffffffffffffffff\n      and\n      mul\n      or\n      swap1\n      sstore\n      pop\n        /* \"Loteria/loteria.sol\":4282:4305  boleto_comprado(random) */\n      0xa69929cb3af1145490f7129170489946bf07bc6cd7474fc4172efc5ec3f060e3\n        /* \"Loteria/loteria.sol\":4298:4304  random */\n      dup2\n        /* \"Loteria/loteria.sol\":4282:4305  boleto_comprado(random) */\n      mload(0x40)\n      tag_137\n      swap2\n      swap1\n      tag_27\n      jump\t// in\n    tag_137:\n      mload(0x40)\n      dup1\n      swap2\n      sub\n      swap1\n      log1\n        /* \"Loteria/loteria.sol\":3567:4317  for (uint i = 0; i < _boletos; i++) {\r... */\n      pop\n        /* \"Loteria/loteria.sol\":3598:3601  i++ */\n      dup1\n      dup1\n      0x01\n      add\n      swap2\n      pop\n      pop\n        /* \"Loteria/loteria.sol\":3567:4317  for (uint i = 0; i < _boletos; i++) {\r... */\n      jump(tag_129)\n    tag_130:\n      pop\n        /* \"Loteria/loteria.sol\":3075:4324  function ComprarBoleto(uint _boletos) public {\r... */\n      pop\n      pop\n      jump\t// out\n        /* \"Loteria/loteria.sol\":242:262  address public owner */\n    tag_46:\n      0x01\n      0x00\n      swap1\n      sload\n      swap1\n      0x0100\n      exp\n      swap1\n      div\n      0xffffffffffffffffffffffffffffffffffffffff\n      and\n      dup2\n      jump\t// out\n        /* \"Loteria/loteria.sol\":269:292  address public contrato */\n    tag_51:\n      0x02\n      0x00\n      swap1\n      sload\n      swap1\n      0x0100\n      exp\n      swap1\n      div\n      0xffffffffffffffffffffffffffffffffffffffff\n      and\n      dup2\n      jump\t// out\n        /* \"Loteria/loteria.sol\":2299:2400  function MisTokens() public view returns (uint) {\r... */\n    tag_55:\n        /* \"Loteria/loteria.sol\":2341:2345  uint */\n      0x00\n        /* \"Loteria/loteria.sol\":2365:2370  token */\n      dup1\n      0x00\n      swap1\n      sload\n      swap1\n      0x0100\n      exp\n      swap1\n      div\n      0xffffffffffffffffffffffffffffffffffffffff\n      and\n        /* \"Loteria/loteria.sol\":2365:2380  token.balanceOf */\n      0xffffffffffffffffffffffffffffffffffffffff\n      and\n      0x70a08231\n        /* \"Loteria/loteria.sol\":2381:2391  msg.sender */\n      caller\n        /* \"Loteria/loteria.sol\":2365:2392  token.balanceOf(msg.sender) */\n      mload(0x40)\n      dup3\n      0xffffffff\n      and\n      0xe0\n      shl\n      dup2\n      mstore\n      0x04\n      add\n      tag_139\n      swap2\n      swap1\n      tag_140\n      jump\t// in\n    tag_139:\n      0x20\n      mload(0x40)\n      dup1\n      dup4\n      sub\n      dup2\n      dup7\n      dup1\n      extcodesize\n      iszero\n      dup1\n      iszero\n      tag_141\n      jumpi\n      0x00\n      dup1\n      revert\n    tag_141:\n      pop\n      gas\n      staticcall\n      iszero\n      dup1\n      iszero\n      tag_143\n      jumpi\n      returndatasize\n      0x00\n      dup1\n      returndatacopy\n      revert(0x00, returndatasize)\n    tag_143:\n      pop\n      pop\n      pop\n      pop\n      mload(0x40)\n      returndatasize\n      not(0x1f)\n      0x1f\n      dup3\n      add\n      and\n      dup3\n      add\n      dup1\n      0x40\n      mstore\n      pop\n      dup2\n      add\n      swap1\n      tag_144\n      swap2\n      swap1\n      tag_115\n      jump\t// in\n    tag_144:\n        /* \"Loteria/loteria.sol\":2358:2392  return token.balanceOf(msg.sender) */\n      swap1\n      pop\n        /* \"Loteria/loteria.sol\":2299:2400  function MisTokens() public view returns (uint) {\r... */\n      swap1\n      jump\t// out\n        /* \"Loteria/loteria.sol\":1191:1945  function CompraTokens(uint _numTokens) public payable {\r... */\n    tag_59:\n        /* \"Loteria/loteria.sol\":1303:1313  uint coste */\n      0x00\n        /* \"Loteria/loteria.sol\":1316:1340  PrecioTokens(_numTokens) */\n      tag_146\n        /* \"Loteria/loteria.sol\":1329:1339  _numTokens */\n      dup3\n        /* \"Loteria/loteria.sol\":1316:1328  PrecioTokens */\n      tag_86\n        /* \"Loteria/loteria.sol\":1316:1340  PrecioTokens(_numTokens) */\n      jump\t// in\n    tag_146:\n        /* \"Loteria/loteria.sol\":1303:1340  uint coste = PrecioTokens(_numTokens) */\n      swap1\n      pop\n        /* \"Loteria/loteria.sol\":1425:1430  coste */\n      dup1\n        /* \"Loteria/loteria.sol\":1412:1421  msg.value */\n      callvalue\n        /* \"Loteria/loteria.sol\":1412:1430  msg.value >= coste */\n      lt\n      iszero\n        /* \"Loteria/loteria.sol\":1403:1465  require (msg.value >= coste, \"Cantidad de ether insuficiente\") */\n      tag_147\n      jumpi\n      mload(0x40)\n      0x08c379a000000000000000000000000000000000000000000000000000000000\n      dup2\n      mstore\n      0x04\n      add\n      tag_148\n      swap1\n      tag_149\n      jump\t// in\n    tag_148:\n      mload(0x40)\n      dup1\n      swap2\n      sub\n      swap1\n      revert\n    tag_147:\n        /* \"Loteria/loteria.sol\":1566:1571  token */\n      0x00\n      dup1\n      sload\n      swap1\n      0x0100\n      exp\n      swap1\n      div\n      0xffffffffffffffffffffffffffffffffffffffff\n      and\n        /* \"Loteria/loteria.sol\":1566:1581  token.balanceOf */\n      0xffffffffffffffffffffffffffffffffffffffff\n      and\n      0x70a08231\n        /* \"Loteria/loteria.sol\":1582:1590  contrato */\n      0x02\n      0x00\n      swap1\n      sload\n      swap1\n      0x0100\n      exp\n      swap1\n      div\n      0xffffffffffffffffffffffffffffffffffffffff\n      and\n        /* \"Loteria/loteria.sol\":1566:1591  token.balanceOf(contrato) */\n      mload(0x40)\n      dup3\n      0xffffffff\n      and\n      0xe0\n      shl\n      dup2\n      mstore\n      0x04\n      add\n      tag_150\n      swap2\n      swap1\n      tag_48\n      jump\t// in\n    tag_150:\n      0x20\n      mload(0x40)\n      dup1\n      dup4\n      sub\n      dup2\n      dup7\n      dup1\n      extcodesize\n      iszero\n      dup1\n      iszero\n      tag_151\n      jumpi\n      0x00\n      dup1\n      revert\n    tag_151:\n      pop\n      gas\n      staticcall\n      iszero\n      dup1\n      iszero\n      tag_153\n      jumpi\n      returndatasize\n      0x00\n      dup1\n      returndatacopy\n      revert(0x00, returndatasize)\n    tag_153:\n      pop\n      pop\n      pop\n      pop\n      mload(0x40)\n      returndatasize\n      not(0x1f)\n      0x1f\n      dup3\n      add\n      and\n      dup3\n      add\n      dup1\n      0x40\n      mstore\n      pop\n      dup2\n      add\n      swap1\n      tag_154\n      swap2\n      swap1\n      tag_115\n      jump\t// in\n    tag_154:\n        /* \"Loteria/loteria.sol\":1552:1562  _numTokens */\n      dup3\n        /* \"Loteria/loteria.sol\":1552:1591  _numTokens <= token.balanceOf(contrato) */\n      gt\n      iszero\n        /* \"Loteria/loteria.sol\":1543:1628  require (_numTokens <= token.balanceOf(contrato), \"Cantidad de tokens insuficientes\") */\n      tag_155\n      jumpi\n      mload(0x40)\n      0x08c379a000000000000000000000000000000000000000000000000000000000\n      dup2\n      mstore\n      0x04\n      add\n      tag_156\n      swap1\n      tag_157\n      jump\t// in\n    tag_156:\n      mload(0x40)\n      dup1\n      swap2\n      sub\n      swap1\n      revert\n    tag_155:\n        /* \"Loteria/loteria.sol\":1714:1724  msg.sender */\n      caller\n        /* \"Loteria/loteria.sol\":1714:1733  msg.sender.transfer */\n      0xffffffffffffffffffffffffffffffffffffffff\n      and\n        /* \"Loteria/loteria.sol\":1714:1752  msg.sender.transfer(msg.value - coste) */\n      0x08fc\n        /* \"Loteria/loteria.sol\":1746:1751  coste */\n      dup3\n        /* \"Loteria/loteria.sol\":1734:1743  msg.value */\n      callvalue\n        /* \"Loteria/loteria.sol\":1734:1751  msg.value - coste */\n      sub\n        /* \"Loteria/loteria.sol\":1714:1752  msg.sender.transfer(msg.value - coste) */\n      swap1\n      dup2\n      iszero\n      mul\n      swap1\n      mload(0x40)\n      0x00\n      mload(0x40)\n      dup1\n      dup4\n      sub\n      dup2\n      dup6\n      dup9\n      dup9\n      call\n      swap4\n      pop\n      pop\n      pop\n      pop\n      iszero\n      dup1\n      iszero\n      tag_159\n      jumpi\n      returndatasize\n      0x00\n      dup1\n      returndatacopy\n      revert(0x00, returndatasize)\n    tag_159:\n      pop\n        /* \"Loteria/loteria.sol\":1813:1818  token */\n      0x00\n      dup1\n      sload\n      swap1\n      0x0100\n      exp\n      swap1\n      div\n      0xffffffffffffffffffffffffffffffffffffffff\n      and\n        /* \"Loteria/loteria.sol\":1813:1827  token.transfer */\n      0xffffffffffffffffffffffffffffffffffffffff\n      and\n      0xa9059cbb\n        /* \"Loteria/loteria.sol\":1828:1838  msg.sender */\n      caller\n        /* \"Loteria/loteria.sol\":1840:1850  _numTokens */\n      dup5\n        /* \"Loteria/loteria.sol\":1813:1851  token.transfer(msg.sender, _numTokens) */\n      mload(0x40)\n      dup4\n      0xffffffff\n      and\n      0xe0\n      shl\n      dup2\n      mstore\n      0x04\n      add\n      tag_160\n      swap3\n      swap2\n      swap1\n      tag_161\n      jump\t// in\n    tag_160:\n      0x20\n      mload(0x40)\n      dup1\n      dup4\n      sub\n      dup2\n      0x00\n      dup8\n      dup1\n      extcodesize\n      iszero\n      dup1\n      iszero\n      tag_162\n      jumpi\n      0x00\n      dup1\n      revert\n    tag_162:\n      pop\n      gas\n      call\n      iszero\n      dup1\n      iszero\n      tag_164\n      jumpi\n      returndatasize\n      0x00\n      dup1\n      returndatacopy\n      revert(0x00, returndatasize)\n    tag_164:\n      pop\n      pop\n      pop\n      pop\n      mload(0x40)\n      returndatasize\n      not(0x1f)\n      0x1f\n      dup3\n      add\n      and\n      dup3\n      add\n      dup1\n      0x40\n      mstore\n      pop\n      dup2\n      add\n      swap1\n      tag_165\n      swap2\n      swap1\n      tag_84\n      jump\t// in\n    tag_165:\n      pop\n        /* \"Loteria/loteria.sol\":1900:1937  ComprarTokens(_numTokens, msg.sender) */\n      0x1912293d843fe20a997ecedfe6ab8b44b26fc0ed0d7d2e152158ffd021c9ace3\n        /* \"Loteria/loteria.sol\":1914:1924  _numTokens */\n      dup3\n        /* \"Loteria/loteria.sol\":1926:1936  msg.sender */\n      caller\n        /* \"Loteria/loteria.sol\":1900:1937  ComprarTokens(_numTokens, msg.sender) */\n      mload(0x40)\n      tag_166\n      swap3\n      swap2\n      swap1\n      tag_167\n      jump\t// in\n    tag_166:\n      mload(0x40)\n      dup1\n      swap2\n      sub\n      swap1\n      log1\n        /* \"Loteria/loteria.sol\":1191:1945  function CompraTokens(uint _numTokens) public payable {\r... */\n      pop\n      pop\n      jump\t// out\n        /* \"Loteria/loteria.sol\":1996:2107  function TokensDisponibles() public view returns(uint) {\r... */\n    tag_62:\n        /* \"Loteria/loteria.sol\":2045:2049  uint */\n      0x00\n        /* \"Loteria/loteria.sol\":2069:2074  token */\n      dup1\n      0x00\n      swap1\n      sload\n      swap1\n      0x0100\n      exp\n      swap1\n      div\n      0xffffffffffffffffffffffffffffffffffffffff\n      and\n        /* \"Loteria/loteria.sol\":2069:2084  token.balanceOf */\n      0xffffffffffffffffffffffffffffffffffffffff\n      and\n      0x70a08231\n        /* \"Loteria/loteria.sol\":2093:2097  this */\n      address\n        /* \"Loteria/loteria.sol\":2069:2099  token.balanceOf(address(this)) */\n      mload(0x40)\n      dup3\n      0xffffffff\n      and\n      0xe0\n      shl\n      dup2\n      mstore\n      0x04\n      add\n      tag_169\n      swap2\n      swap1\n      tag_48\n      jump\t// in\n    tag_169:\n      0x20\n      mload(0x40)\n      dup1\n      dup4\n      sub\n      dup2\n      dup7\n      dup1\n      extcodesize\n      iszero\n      dup1\n      iszero\n      tag_170\n      jumpi\n      0x00\n      dup1\n      revert\n    tag_170:\n      pop\n      gas\n      staticcall\n      iszero\n      dup1\n      iszero\n      tag_172\n      jumpi\n      returndatasize\n      0x00\n      dup1\n      returndatacopy\n      revert(0x00, returndatasize)\n    tag_172:\n      pop\n      pop\n      pop\n      pop\n      mload(0x40)\n      returndatasize\n      not(0x1f)\n      0x1f\n      dup3\n      add\n      and\n      dup3\n      add\n      dup1\n      0x40\n      mstore\n      pop\n      dup2\n      add\n      swap1\n      tag_173\n      swap2\n      swap1\n      tag_115\n      jump\t// in\n    tag_173:\n        /* \"Loteria/loteria.sol\":2062:2099  return token.balanceOf(address(this)) */\n      swap1\n      pop\n        /* \"Loteria/loteria.sol\":1996:2107  function TokensDisponibles() public view returns(uint) {\r... */\n      swap1\n      jump\t// out\n        /* \"Loteria/loteria.sol\":884:999  function PrecioTokens(uint _numTokens) internal pure returns(uint) {\r... */\n    tag_86:\n        /* \"Loteria/loteria.sol\":945:949  uint */\n      0x00\n        /* \"Loteria/loteria.sol\":983:990  1 ether */\n      0x0de0b6b3a7640000\n        /* \"Loteria/loteria.sol\":969:979  _numTokens */\n      dup3\n        /* \"Loteria/loteria.sol\":969:991  _numTokens * (1 ether) */\n      mul\n        /* \"Loteria/loteria.sol\":962:991  return _numTokens * (1 ether) */\n      swap1\n      pop\n        /* \"Loteria/loteria.sol\":884:999  function PrecioTokens(uint _numTokens) internal pure returns(uint) {\r... */\n      swap2\n      swap1\n      pop\n      jump\t// out\n        /* \"--CODEGEN--\":5:133   */\n    tag_176:\n      0x00\n        /* \"--CODEGEN--\":86:92   */\n      dup2\n        /* \"--CODEGEN--\":80:93   */\n      mload\n        /* \"--CODEGEN--\":71:93   */\n      swap1\n      pop\n        /* \"--CODEGEN--\":98:128   */\n      tag_178\n        /* \"--CODEGEN--\":122:127   */\n      dup2\n        /* \"--CODEGEN--\":98:128   */\n      tag_179\n      jump\t// in\n    tag_178:\n        /* \"--CODEGEN--\":65:133   */\n      swap3\n      swap2\n      pop\n      pop\n      jump\t// out\n        /* \"--CODEGEN--\":140:270   */\n    tag_180:\n      0x00\n        /* \"--CODEGEN--\":220:226   */\n      dup2\n        /* \"--CODEGEN--\":207:227   */\n      calldataload\n        /* \"--CODEGEN--\":198:227   */\n      swap1\n      pop\n        /* \"--CODEGEN--\":232:265   */\n      tag_182\n        /* \"--CODEGEN--\":259:264   */\n      dup2\n        /* \"--CODEGEN--\":232:265   */\n      tag_183\n      jump\t// in\n    tag_182:\n        /* \"--CODEGEN--\":192:270   */\n      swap3\n      swap2\n      pop\n      pop\n      jump\t// out\n        /* \"--CODEGEN--\":277:411   */\n    tag_184:\n      0x00\n        /* \"--CODEGEN--\":361:367   */\n      dup2\n        /* \"--CODEGEN--\":355:368   */\n      mload\n        /* \"--CODEGEN--\":346:368   */\n      swap1\n      pop\n        /* \"--CODEGEN--\":373:406   */\n      tag_186\n        /* \"--CODEGEN--\":400:405   */\n      dup2\n        /* \"--CODEGEN--\":373:406   */\n      tag_183\n      jump\t// in\n    tag_186:\n        /* \"--CODEGEN--\":340:411   */\n      swap3\n      swap2\n      pop\n      pop\n      jump\t// out\n        /* \"--CODEGEN--\":418:675   */\n    tag_84:\n      0x00\n        /* \"--CODEGEN--\":530:532   */\n      0x20\n        /* \"--CODEGEN--\":518:527   */\n      dup3\n        /* \"--CODEGEN--\":509:516   */\n      dup5\n        /* \"--CODEGEN--\":505:528   */\n      sub\n        /* \"--CODEGEN--\":501:533   */\n      slt\n        /* \"--CODEGEN--\":498:500   */\n      iszero\n      tag_188\n      jumpi\n        /* \"--CODEGEN--\":546:547   */\n      0x00\n        /* \"--CODEGEN--\":543:544   */\n      dup1\n        /* \"--CODEGEN--\":536:548   */\n      revert\n        /* \"--CODEGEN--\":498:500   */\n    tag_188:\n        /* \"--CODEGEN--\":581:582   */\n      0x00\n        /* \"--CODEGEN--\":598:659   */\n      tag_189\n        /* \"--CODEGEN--\":651:658   */\n      dup5\n        /* \"--CODEGEN--\":642:648   */\n      dup3\n        /* \"--CODEGEN--\":631:640   */\n      dup6\n        /* \"--CODEGEN--\":627:649   */\n      add\n        /* \"--CODEGEN--\":598:659   */\n      tag_176\n      jump\t// in\n    tag_189:\n        /* \"--CODEGEN--\":588:659   */\n      swap2\n      pop\n        /* \"--CODEGEN--\":560:665   */\n      pop\n        /* \"--CODEGEN--\":492:675   */\n      swap3\n      swap2\n      pop\n      pop\n      jump\t// out\n        /* \"--CODEGEN--\":682:923   */\n    tag_18:\n      0x00\n        /* \"--CODEGEN--\":786:788   */\n      0x20\n        /* \"--CODEGEN--\":774:783   */\n      dup3\n        /* \"--CODEGEN--\":765:772   */\n      dup5\n        /* \"--CODEGEN--\":761:784   */\n      sub\n        /* \"--CODEGEN--\":757:789   */\n      slt\n        /* \"--CODEGEN--\":754:756   */\n      iszero\n      tag_191\n      jumpi\n        /* \"--CODEGEN--\":802:803   */\n      0x00\n        /* \"--CODEGEN--\":799:800   */\n      dup1\n        /* \"--CODEGEN--\":792:804   */\n      revert\n        /* \"--CODEGEN--\":754:756   */\n    tag_191:\n        /* \"--CODEGEN--\":837:838   */\n      0x00\n        /* \"--CODEGEN--\":854:907   */\n      tag_192\n        /* \"--CODEGEN--\":899:906   */\n      dup5\n        /* \"--CODEGEN--\":890:896   */\n      dup3\n        /* \"--CODEGEN--\":879:888   */\n      dup6\n        /* \"--CODEGEN--\":875:897   */\n      add\n        /* \"--CODEGEN--\":854:907   */\n      tag_180\n      jump\t// in\n    tag_192:\n        /* \"--CODEGEN--\":844:907   */\n      swap2\n      pop\n        /* \"--CODEGEN--\":816:913   */\n      pop\n        /* \"--CODEGEN--\":748:923   */\n      swap3\n      swap2\n      pop\n      pop\n      jump\t// out\n        /* \"--CODEGEN--\":930:1193   */\n    tag_115:\n      0x00\n        /* \"--CODEGEN--\":1045:1047   */\n      0x20\n        /* \"--CODEGEN--\":1033:1042   */\n      dup3\n        /* \"--CODEGEN--\":1024:1031   */\n      dup5\n        /* \"--CODEGEN--\":1020:1043   */\n      sub\n        /* \"--CODEGEN--\":1016:1048   */\n      slt\n        /* \"--CODEGEN--\":1013:1015   */\n      iszero\n      tag_194\n      jumpi\n        /* \"--CODEGEN--\":1061:1062   */\n      0x00\n        /* \"--CODEGEN--\":1058:1059   */\n      dup1\n        /* \"--CODEGEN--\":1051:1063   */\n      revert\n        /* \"--CODEGEN--\":1013:1015   */\n    tag_194:\n        /* \"--CODEGEN--\":1096:1097   */\n      0x00\n        /* \"--CODEGEN--\":1113:1177   */\n      tag_195\n        /* \"--CODEGEN--\":1169:1176   */\n      dup5\n        /* \"--CODEGEN--\":1160:1166   */\n      dup3\n        /* \"--CODEGEN--\":1149:1158   */\n      dup6\n        /* \"--CODEGEN--\":1145:1167   */\n      add\n        /* \"--CODEGEN--\":1113:1177   */\n      tag_184\n      jump\t// in\n    tag_195:\n        /* \"--CODEGEN--\":1103:1177   */\n      swap2\n      pop\n        /* \"--CODEGEN--\":1075:1183   */\n      pop\n        /* \"--CODEGEN--\":1007:1193   */\n      swap3\n      swap2\n      pop\n      pop\n      jump\t// out\n        /* \"--CODEGEN--\":1201:1374   */\n    tag_196:\n      0x00\n        /* \"--CODEGEN--\":1288:1334   */\n      tag_198\n        /* \"--CODEGEN--\":1330:1333   */\n      dup4\n        /* \"--CODEGEN--\":1322:1328   */\n      dup4\n        /* \"--CODEGEN--\":1288:1334   */\n      tag_199\n      jump\t// in\n    tag_198:\n        /* \"--CODEGEN--\":1363:1367   */\n      0x20\n        /* \"--CODEGEN--\":1358:1361   */\n      dup4\n        /* \"--CODEGEN--\":1354:1368   */\n      add\n        /* \"--CODEGEN--\":1340:1368   */\n      swap1\n      pop\n        /* \"--CODEGEN--\":1281:1374   */\n      swap3\n      swap2\n      pop\n      pop\n      jump\t// out\n        /* \"--CODEGEN--\":1382:1524   */\n    tag_200:\n        /* \"--CODEGEN--\":1473:1518   */\n      tag_202\n        /* \"--CODEGEN--\":1512:1517   */\n      dup2\n        /* \"--CODEGEN--\":1473:1518   */\n      tag_203\n      jump\t// in\n    tag_202:\n        /* \"--CODEGEN--\":1468:1471   */\n      dup3\n        /* \"--CODEGEN--\":1461:1519   */\n      mstore\n        /* \"--CODEGEN--\":1455:1524   */\n      pop\n      pop\n      jump\t// out\n        /* \"--CODEGEN--\":1531:1715   */\n    tag_204:\n        /* \"--CODEGEN--\":1648:1709   */\n      tag_206\n        /* \"--CODEGEN--\":1676:1708   */\n      tag_207\n        /* \"--CODEGEN--\":1702:1707   */\n      dup3\n        /* \"--CODEGEN--\":1676:1708   */\n      tag_208\n      jump\t// in\n    tag_207:\n        /* \"--CODEGEN--\":1648:1709   */\n      tag_209\n      jump\t// in\n    tag_206:\n        /* \"--CODEGEN--\":1643:1646   */\n      dup3\n        /* \"--CODEGEN--\":1636:1710   */\n      mstore\n        /* \"--CODEGEN--\":1630:1715   */\n      pop\n      pop\n      jump\t// out\n        /* \"--CODEGEN--\":1722:1835   */\n    tag_210:\n        /* \"--CODEGEN--\":1805:1829   */\n      tag_212\n        /* \"--CODEGEN--\":1823:1828   */\n      dup2\n        /* \"--CODEGEN--\":1805:1829   */\n      tag_213\n      jump\t// in\n    tag_212:\n        /* \"--CODEGEN--\":1800:1803   */\n      dup3\n        /* \"--CODEGEN--\":1793:1830   */\n      mstore\n        /* \"--CODEGEN--\":1787:1835   */\n      pop\n      pop\n      jump\t// out\n        /* \"--CODEGEN--\":1873:2563   */\n    tag_214:\n      0x00\n        /* \"--CODEGEN--\":2018:2072   */\n      tag_216\n        /* \"--CODEGEN--\":2066:2071   */\n      dup3\n        /* \"--CODEGEN--\":2018:2072   */\n      tag_217\n      jump\t// in\n    tag_216:\n        /* \"--CODEGEN--\":2085:2171   */\n      tag_218\n        /* \"--CODEGEN--\":2164:2170   */\n      dup2\n        /* \"--CODEGEN--\":2159:2162   */\n      dup6\n        /* \"--CODEGEN--\":2085:2171   */\n      tag_219\n      jump\t// in\n    tag_218:\n        /* \"--CODEGEN--\":2078:2171   */\n      swap4\n      pop\n        /* \"--CODEGEN--\":2192:2248   */\n      tag_220\n        /* \"--CODEGEN--\":2242:2247   */\n      dup4\n        /* \"--CODEGEN--\":2192:2248   */\n      tag_221\n      jump\t// in\n    tag_220:\n        /* \"--CODEGEN--\":2268:2275   */\n      dup1\n        /* \"--CODEGEN--\":2296:2297   */\n      0x00\n        /* \"--CODEGEN--\":2281:2541   */\n    tag_222:\n        /* \"--CODEGEN--\":2306:2312   */\n      dup4\n        /* \"--CODEGEN--\":2303:2304   */\n      dup2\n        /* \"--CODEGEN--\":2300:2313   */\n      lt\n        /* \"--CODEGEN--\":2281:2541   */\n      iszero\n      tag_224\n      jumpi\n        /* \"--CODEGEN--\":2373:2379   */\n      dup2\n        /* \"--CODEGEN--\":2367:2380   */\n      mload\n        /* \"--CODEGEN--\":2394:2457   */\n      tag_225\n        /* \"--CODEGEN--\":2453:2456   */\n      dup9\n        /* \"--CODEGEN--\":2438:2451   */\n      dup3\n        /* \"--CODEGEN--\":2394:2457   */\n      tag_196\n      jump\t// in\n    tag_225:\n        /* \"--CODEGEN--\":2387:2457   */\n      swap8\n      pop\n        /* \"--CODEGEN--\":2474:2534   */\n      tag_226\n        /* \"--CODEGEN--\":2527:2533   */\n      dup4\n        /* \"--CODEGEN--\":2474:2534   */\n      tag_227\n      jump\t// in\n    tag_226:\n        /* \"--CODEGEN--\":2464:2534   */\n      swap3\n      pop\n        /* \"--CODEGEN--\":2338:2541   */\n      pop\n        /* \"--CODEGEN--\":2328:2329   */\n      0x01\n        /* \"--CODEGEN--\":2325:2326   */\n      dup2\n        /* \"--CODEGEN--\":2321:2330   */\n      add\n        /* \"--CODEGEN--\":2316:2330   */\n      swap1\n      pop\n        /* \"--CODEGEN--\":2281:2541   */\n      jump(tag_222)\n    tag_224:\n        /* \"--CODEGEN--\":2285:2299   */\n      pop\n        /* \"--CODEGEN--\":2554:2557   */\n      dup6\n        /* \"--CODEGEN--\":2547:2557   */\n      swap4\n      pop\n        /* \"--CODEGEN--\":1997:2563   */\n      pop\n      pop\n      pop\n      swap3\n      swap2\n      pop\n      pop\n      jump\t// out\n        /* \"--CODEGEN--\":2572:2892   */\n    tag_228:\n      0x00\n        /* \"--CODEGEN--\":2732:2799   */\n      tag_230\n        /* \"--CODEGEN--\":2796:2798   */\n      0x14\n        /* \"--CODEGEN--\":2791:2794   */\n      dup4\n        /* \"--CODEGEN--\":2732:2799   */\n      tag_231\n      jump\t// in\n    tag_230:\n        /* \"--CODEGEN--\":2725:2799   */\n      swap2\n      pop\n        /* \"--CODEGEN--\":2832:2854   */\n      0x546f6b656e7320696e737566696369656e746573000000000000000000000000\n        /* \"--CODEGEN--\":2828:2829   */\n      0x00\n        /* \"--CODEGEN--\":2823:2826   */\n      dup4\n        /* \"--CODEGEN--\":2819:2830   */\n      add\n        /* \"--CODEGEN--\":2812:2855   */\n      mstore\n        /* \"--CODEGEN--\":2883:2885   */\n      0x20\n        /* \"--CODEGEN--\":2878:2881   */\n      dup3\n        /* \"--CODEGEN--\":2874:2886   */\n      add\n        /* \"--CODEGEN--\":2867:2886   */\n      swap1\n      pop\n        /* \"--CODEGEN--\":2718:2892   */\n      swap2\n      swap1\n      pop\n      jump\t// out\n        /* \"--CODEGEN--\":2901:3232   */\n    tag_232:\n      0x00\n        /* \"--CODEGEN--\":3061:3128   */\n      tag_234\n        /* \"--CODEGEN--\":3125:3127   */\n      0x1f\n        /* \"--CODEGEN--\":3120:3123   */\n      dup4\n        /* \"--CODEGEN--\":3061:3128   */\n      tag_231\n      jump\t// in\n    tag_234:\n        /* \"--CODEGEN--\":3054:3128   */\n      swap2\n      pop\n        /* \"--CODEGEN--\":3161:3194   */\n      0x43616e746964616420646520746f6b656e7320696e737566696369656e746500\n        /* \"--CODEGEN--\":3157:3158   */\n      0x00\n        /* \"--CODEGEN--\":3152:3155   */\n      dup4\n        /* \"--CODEGEN--\":3148:3159   */\n      add\n        /* \"--CODEGEN--\":3141:3195   */\n      mstore\n        /* \"--CODEGEN--\":3223:3225   */\n      0x20\n        /* \"--CODEGEN--\":3218:3221   */\n      dup3\n        /* \"--CODEGEN--\":3214:3226   */\n      add\n        /* \"--CODEGEN--\":3207:3226   */\n      swap1\n      pop\n        /* \"--CODEGEN--\":3047:3232   */\n      swap2\n      swap1\n      pop\n      jump\t// out\n        /* \"--CODEGEN--\":3241:3623   */\n    tag_235:\n      0x00\n        /* \"--CODEGEN--\":3401:3468   */\n      tag_237\n        /* \"--CODEGEN--\":3465:3467   */\n      0x2d\n        /* \"--CODEGEN--\":3460:3463   */\n      dup4\n        /* \"--CODEGEN--\":3401:3468   */\n      tag_231\n      jump\t// in\n    tag_237:\n        /* \"--CODEGEN--\":3394:3468   */\n      swap2\n      pop\n        /* \"--CODEGEN--\":3501:3535   */\n      0x4e6f207469656e6573207065726d69736f73207061726120656a656375746172\n        /* \"--CODEGEN--\":3497:3498   */\n      0x00\n        /* \"--CODEGEN--\":3492:3495   */\n      dup4\n        /* \"--CODEGEN--\":3488:3499   */\n      add\n        /* \"--CODEGEN--\":3481:3536   */\n      mstore\n        /* \"--CODEGEN--\":3570:3585   */\n      0x20657374612066756e63696f6e00000000000000000000000000000000000000\n        /* \"--CODEGEN--\":3565:3567   */\n      0x20\n        /* \"--CODEGEN--\":3560:3563   */\n      dup4\n        /* \"--CODEGEN--\":3556:3568   */\n      add\n        /* \"--CODEGEN--\":3549:3586   */\n      mstore\n        /* \"--CODEGEN--\":3614:3616   */\n      0x40\n        /* \"--CODEGEN--\":3609:3612   */\n      dup3\n        /* \"--CODEGEN--\":3605:3617   */\n      add\n        /* \"--CODEGEN--\":3598:3617   */\n      swap1\n      pop\n        /* \"--CODEGEN--\":3387:3623   */\n      swap2\n      swap1\n      pop\n      jump\t// out\n        /* \"--CODEGEN--\":3632:3962   */\n    tag_238:\n      0x00\n        /* \"--CODEGEN--\":3792:3859   */\n      tag_240\n        /* \"--CODEGEN--\":3856:3858   */\n      0x1e\n        /* \"--CODEGEN--\":3851:3854   */\n      dup4\n        /* \"--CODEGEN--\":3792:3859   */\n      tag_231\n      jump\t// in\n    tag_240:\n        /* \"--CODEGEN--\":3785:3859   */\n      swap2\n      pop\n        /* \"--CODEGEN--\":3892:3924   */\n      0x43616e746964616420646520657468657220696e737566696369656e74650000\n        /* \"--CODEGEN--\":3888:3889   */\n      0x00\n        /* \"--CODEGEN--\":3883:3886   */\n      dup4\n        /* \"--CODEGEN--\":3879:3890   */\n      add\n        /* \"--CODEGEN--\":3872:3925   */\n      mstore\n        /* \"--CODEGEN--\":3953:3955   */\n      0x20\n        /* \"--CODEGEN--\":3948:3951   */\n      dup3\n        /* \"--CODEGEN--\":3944:3956   */\n      add\n        /* \"--CODEGEN--\":3937:3956   */\n      swap1\n      pop\n        /* \"--CODEGEN--\":3778:3962   */\n      swap2\n      swap1\n      pop\n      jump\t// out\n        /* \"--CODEGEN--\":3971:4303   */\n    tag_241:\n      0x00\n        /* \"--CODEGEN--\":4131:4198   */\n      tag_243\n        /* \"--CODEGEN--\":4195:4197   */\n      0x20\n        /* \"--CODEGEN--\":4190:4193   */\n      dup4\n        /* \"--CODEGEN--\":4131:4198   */\n      tag_231\n      jump\t// in\n    tag_243:\n        /* \"--CODEGEN--\":4124:4198   */\n      swap2\n      pop\n        /* \"--CODEGEN--\":4231:4265   */\n      0x43616e746964616420646520746f6b656e7320696e737566696369656e746573\n        /* \"--CODEGEN--\":4227:4228   */\n      0x00\n        /* \"--CODEGEN--\":4222:4225   */\n      dup4\n        /* \"--CODEGEN--\":4218:4229   */\n      add\n        /* \"--CODEGEN--\":4211:4266   */\n      mstore\n        /* \"--CODEGEN--\":4294:4296   */\n      0x20\n        /* \"--CODEGEN--\":4289:4292   */\n      dup3\n        /* \"--CODEGEN--\":4285:4297   */\n      add\n        /* \"--CODEGEN--\":4278:4297   */\n      swap1\n      pop\n        /* \"--CODEGEN--\":4117:4303   */\n      swap2\n      swap1\n      pop\n      jump\t// out\n        /* \"--CODEGEN--\":4312:4777   */\n    tag_244:\n      0x00\n        /* \"--CODEGEN--\":4472:4539   */\n      tag_246\n        /* \"--CODEGEN--\":4536:4538   */\n      0x28\n        /* \"--CODEGEN--\":4531:4534   */\n      dup4\n        /* \"--CODEGEN--\":4472:4539   */\n      tag_231\n      jump\t// in\n    tag_246:\n        /* \"--CODEGEN--\":4465:4539   */\n      swap2\n      pop\n        /* \"--CODEGEN--\":4572:4638   */\n      0x4e6f2073652068612076656e6469646f206e696e67c3ba6e20626f6c65746f20\n        /* \"--CODEGEN--\":4568:4569   */\n      0x00\n        /* \"--CODEGEN--\":4563:4566   */\n      dup4\n        /* \"--CODEGEN--\":4559:4570   */\n      add\n        /* \"--CODEGEN--\":4552:4639   */\n      mstore\n        /* \"--CODEGEN--\":4673:4739   */\n      0x746f646176c3ad61000000000000000000000000000000000000000000000000\n        /* \"--CODEGEN--\":4668:4670   */\n      0x20\n        /* \"--CODEGEN--\":4663:4666   */\n      dup4\n        /* \"--CODEGEN--\":4659:4671   */\n      add\n        /* \"--CODEGEN--\":4652:4740   */\n      mstore\n        /* \"--CODEGEN--\":4768:4770   */\n      0x40\n        /* \"--CODEGEN--\":4763:4766   */\n      dup3\n        /* \"--CODEGEN--\":4759:4771   */\n      add\n        /* \"--CODEGEN--\":4752:4771   */\n      swap1\n      pop\n        /* \"--CODEGEN--\":4458:4777   */\n      swap2\n      swap1\n      pop\n      jump\t// out\n        /* \"--CODEGEN--\":4785:4888   */\n    tag_199:\n        /* \"--CODEGEN--\":4858:4882   */\n      tag_248\n        /* \"--CODEGEN--\":4876:4881   */\n      dup2\n        /* \"--CODEGEN--\":4858:4882   */\n      tag_249\n      jump\t// in\n    tag_248:\n        /* \"--CODEGEN--\":4853:4856   */\n      dup3\n        /* \"--CODEGEN--\":4846:4883   */\n      mstore\n        /* \"--CODEGEN--\":4840:4888   */\n      pop\n      pop\n      jump\t// out\n        /* \"--CODEGEN--\":4895:5008   */\n    tag_250:\n        /* \"--CODEGEN--\":4978:5002   */\n      tag_252\n        /* \"--CODEGEN--\":4996:5001   */\n      dup2\n        /* \"--CODEGEN--\":4978:5002   */\n      tag_249\n      jump\t// in\n    tag_252:\n        /* \"--CODEGEN--\":4973:4976   */\n      dup3\n        /* \"--CODEGEN--\":4966:5003   */\n      mstore\n        /* \"--CODEGEN--\":4960:5008   */\n      pop\n      pop\n      jump\t// out\n        /* \"--CODEGEN--\":5015:5167   */\n    tag_253:\n        /* \"--CODEGEN--\":5116:5161   */\n      tag_255\n        /* \"--CODEGEN--\":5136:5160   */\n      tag_256\n        /* \"--CODEGEN--\":5154:5159   */\n      dup3\n        /* \"--CODEGEN--\":5136:5160   */\n      tag_249\n      jump\t// in\n    tag_256:\n        /* \"--CODEGEN--\":5116:5161   */\n      tag_257\n      jump\t// in\n    tag_255:\n        /* \"--CODEGEN--\":5111:5114   */\n      dup3\n        /* \"--CODEGEN--\":5104:5162   */\n      mstore\n        /* \"--CODEGEN--\":5098:5167   */\n      pop\n      pop\n      jump\t// out\n        /* \"--CODEGEN--\":5174:5427   */\n    tag_97:\n      0x00\n        /* \"--CODEGEN--\":5302:5377   */\n      tag_259\n        /* \"--CODEGEN--\":5373:5376   */\n      dup3\n        /* \"--CODEGEN--\":5364:5370   */\n      dup5\n        /* \"--CODEGEN--\":5302:5377   */\n      tag_253\n      jump\t// in\n    tag_259:\n        /* \"--CODEGEN--\":5399:5401   */\n      0x20\n        /* \"--CODEGEN--\":5394:5397   */\n      dup3\n        /* \"--CODEGEN--\":5390:5402   */\n      add\n        /* \"--CODEGEN--\":5383:5402   */\n      swap2\n      pop\n        /* \"--CODEGEN--\":5419:5422   */\n      dup2\n        /* \"--CODEGEN--\":5412:5422   */\n      swap1\n      pop\n        /* \"--CODEGEN--\":5290:5427   */\n      swap3\n      swap2\n      pop\n      pop\n      jump\t// out\n        /* \"--CODEGEN--\":5434:5997   */\n    tag_133:\n      0x00\n        /* \"--CODEGEN--\":5634:5709   */\n      tag_261\n        /* \"--CODEGEN--\":5705:5708   */\n      dup3\n        /* \"--CODEGEN--\":5696:5702   */\n      dup7\n        /* \"--CODEGEN--\":5634:5709   */\n      tag_253\n      jump\t// in\n    tag_261:\n        /* \"--CODEGEN--\":5731:5733   */\n      0x20\n        /* \"--CODEGEN--\":5726:5729   */\n      dup3\n        /* \"--CODEGEN--\":5722:5734   */\n      add\n        /* \"--CODEGEN--\":5715:5734   */\n      swap2\n      pop\n        /* \"--CODEGEN--\":5745:5836   */\n      tag_262\n        /* \"--CODEGEN--\":5832:5835   */\n      dup3\n        /* \"--CODEGEN--\":5823:5829   */\n      dup6\n        /* \"--CODEGEN--\":5745:5836   */\n      tag_204\n      jump\t// in\n    tag_262:\n        /* \"--CODEGEN--\":5858:5860   */\n      0x14\n        /* \"--CODEGEN--\":5853:5856   */\n      dup3\n        /* \"--CODEGEN--\":5849:5861   */\n      add\n        /* \"--CODEGEN--\":5842:5861   */\n      swap2\n      pop\n        /* \"--CODEGEN--\":5872:5947   */\n      tag_263\n        /* \"--CODEGEN--\":5943:5946   */\n      dup3\n        /* \"--CODEGEN--\":5934:5940   */\n      dup5\n        /* \"--CODEGEN--\":5872:5947   */\n      tag_253\n      jump\t// in\n    tag_263:\n        /* \"--CODEGEN--\":5969:5971   */\n      0x20\n        /* \"--CODEGEN--\":5964:5967   */\n      dup3\n        /* \"--CODEGEN--\":5960:5972   */\n      add\n        /* \"--CODEGEN--\":5953:5972   */\n      swap2\n      pop\n        /* \"--CODEGEN--\":5989:5992   */\n      dup2\n        /* \"--CODEGEN--\":5982:5992   */\n      swap1\n      pop\n        /* \"--CODEGEN--\":5622:5997   */\n      swap5\n      swap4\n      pop\n      pop\n      pop\n      pop\n      jump\t// out\n        /* \"--CODEGEN--\":6004:6226   */\n    tag_48:\n      0x00\n        /* \"--CODEGEN--\":6131:6133   */\n      0x20\n        /* \"--CODEGEN--\":6120:6129   */\n      dup3\n        /* \"--CODEGEN--\":6116:6134   */\n      add\n        /* \"--CODEGEN--\":6108:6134   */\n      swap1\n      pop\n        /* \"--CODEGEN--\":6145:6216   */\n      tag_265\n        /* \"--CODEGEN--\":6213:6214   */\n      0x00\n        /* \"--CODEGEN--\":6202:6211   */\n      dup4\n        /* \"--CODEGEN--\":6198:6215   */\n      add\n        /* \"--CODEGEN--\":6189:6195   */\n      dup5\n        /* \"--CODEGEN--\":6145:6216   */\n      tag_210\n      jump\t// in\n    tag_265:\n        /* \"--CODEGEN--\":6102:6226   */\n      swap3\n      swap2\n      pop\n      pop\n      jump\t// out\n        /* \"--CODEGEN--\":6233:6471   */\n    tag_140:\n      0x00\n        /* \"--CODEGEN--\":6368:6370   */\n      0x20\n        /* \"--CODEGEN--\":6357:6366   */\n      dup3\n        /* \"--CODEGEN--\":6353:6371   */\n      add\n        /* \"--CODEGEN--\":6345:6371   */\n      swap1\n      pop\n        /* \"--CODEGEN--\":6382:6461   */\n      tag_267\n        /* \"--CODEGEN--\":6458:6459   */\n      0x00\n        /* \"--CODEGEN--\":6447:6456   */\n      dup4\n        /* \"--CODEGEN--\":6443:6460   */\n      add\n        /* \"--CODEGEN--\":6434:6440   */\n      dup5\n        /* \"--CODEGEN--\":6382:6461   */\n      tag_200\n      jump\t// in\n    tag_267:\n        /* \"--CODEGEN--\":6339:6471   */\n      swap3\n      swap2\n      pop\n      pop\n      jump\t// out\n        /* \"--CODEGEN--\":6478:6938   */\n    tag_79:\n      0x00\n        /* \"--CODEGEN--\":6669:6671   */\n      0x60\n        /* \"--CODEGEN--\":6658:6667   */\n      dup3\n        /* \"--CODEGEN--\":6654:6672   */\n      add\n        /* \"--CODEGEN--\":6646:6672   */\n      swap1\n      pop\n        /* \"--CODEGEN--\":6683:6762   */\n      tag_269\n        /* \"--CODEGEN--\":6759:6760   */\n      0x00\n        /* \"--CODEGEN--\":6748:6757   */\n      dup4\n        /* \"--CODEGEN--\":6744:6761   */\n      add\n        /* \"--CODEGEN--\":6735:6741   */\n      dup7\n        /* \"--CODEGEN--\":6683:6762   */\n      tag_200\n      jump\t// in\n    tag_269:\n        /* \"--CODEGEN--\":6773:6845   */\n      tag_270\n        /* \"--CODEGEN--\":6841:6843   */\n      0x20\n        /* \"--CODEGEN--\":6830:6839   */\n      dup4\n        /* \"--CODEGEN--\":6826:6844   */\n      add\n        /* \"--CODEGEN--\":6817:6823   */\n      dup6\n        /* \"--CODEGEN--\":6773:6845   */\n      tag_210\n      jump\t// in\n    tag_270:\n        /* \"--CODEGEN--\":6856:6928   */\n      tag_271\n        /* \"--CODEGEN--\":6924:6926   */\n      0x40\n        /* \"--CODEGEN--\":6913:6922   */\n      dup4\n        /* \"--CODEGEN--\":6909:6927   */\n      add\n        /* \"--CODEGEN--\":6900:6906   */\n      dup5\n        /* \"--CODEGEN--\":6856:6928   */\n      tag_250\n      jump\t// in\n    tag_271:\n        /* \"--CODEGEN--\":6640:6938   */\n      swap5\n      swap4\n      pop\n      pop\n      pop\n      pop\n      jump\t// out\n        /* \"--CODEGEN--\":6945:7294   */\n    tag_161:\n      0x00\n        /* \"--CODEGEN--\":7108:7110   */\n      0x40\n        /* \"--CODEGEN--\":7097:7106   */\n      dup3\n        /* \"--CODEGEN--\":7093:7111   */\n      add\n        /* \"--CODEGEN--\":7085:7111   */\n      swap1\n      pop\n        /* \"--CODEGEN--\":7122:7201   */\n      tag_273\n        /* \"--CODEGEN--\":7198:7199   */\n      0x00\n        /* \"--CODEGEN--\":7187:7196   */\n      dup4\n        /* \"--CODEGEN--\":7183:7200   */\n      add\n        /* \"--CODEGEN--\":7174:7180   */\n      dup6\n        /* \"--CODEGEN--\":7122:7201   */\n      tag_200\n      jump\t// in\n    tag_273:\n        /* \"--CODEGEN--\":7212:7284   */\n      tag_274\n        /* \"--CODEGEN--\":7280:7282   */\n      0x20\n        /* \"--CODEGEN--\":7269:7278   */\n      dup4\n        /* \"--CODEGEN--\":7265:7283   */\n      add\n        /* \"--CODEGEN--\":7256:7262   */\n      dup5\n        /* \"--CODEGEN--\":7212:7284   */\n      tag_250\n      jump\t// in\n    tag_274:\n        /* \"--CODEGEN--\":7079:7294   */\n      swap4\n      swap3\n      pop\n      pop\n      pop\n      jump\t// out\n        /* \"--CODEGEN--\":7301:7745   */\n    tag_104:\n      0x00\n        /* \"--CODEGEN--\":7484:7486   */\n      0x60\n        /* \"--CODEGEN--\":7473:7482   */\n      dup3\n        /* \"--CODEGEN--\":7469:7487   */\n      add\n        /* \"--CODEGEN--\":7461:7487   */\n      swap1\n      pop\n        /* \"--CODEGEN--\":7498:7569   */\n      tag_276\n        /* \"--CODEGEN--\":7566:7567   */\n      0x00\n        /* \"--CODEGEN--\":7555:7564   */\n      dup4\n        /* \"--CODEGEN--\":7551:7568   */\n      add\n        /* \"--CODEGEN--\":7542:7548   */\n      dup7\n        /* \"--CODEGEN--\":7498:7569   */\n      tag_210\n      jump\t// in\n    tag_276:\n        /* \"--CODEGEN--\":7580:7652   */\n      tag_277\n        /* \"--CODEGEN--\":7648:7650   */\n      0x20\n        /* \"--CODEGEN--\":7637:7646   */\n      dup4\n        /* \"--CODEGEN--\":7633:7651   */\n      add\n        /* \"--CODEGEN--\":7624:7630   */\n      dup6\n        /* \"--CODEGEN--\":7580:7652   */\n      tag_210\n      jump\t// in\n    tag_277:\n        /* \"--CODEGEN--\":7663:7735   */\n      tag_278\n        /* \"--CODEGEN--\":7731:7733   */\n      0x40\n        /* \"--CODEGEN--\":7720:7729   */\n      dup4\n        /* \"--CODEGEN--\":7716:7734   */\n      add\n        /* \"--CODEGEN--\":7707:7713   */\n      dup5\n        /* \"--CODEGEN--\":7663:7735   */\n      tag_250\n      jump\t// in\n    tag_278:\n        /* \"--CODEGEN--\":7455:7745   */\n      swap5\n      swap4\n      pop\n      pop\n      pop\n      pop\n      jump\t// out\n        /* \"--CODEGEN--\":7752:8122   */\n    tag_39:\n      0x00\n        /* \"--CODEGEN--\":7929:7931   */\n      0x20\n        /* \"--CODEGEN--\":7918:7927   */\n      dup3\n        /* \"--CODEGEN--\":7914:7932   */\n      add\n        /* \"--CODEGEN--\":7906:7932   */\n      swap1\n      pop\n        /* \"--CODEGEN--\":7979:7988   */\n      dup2\n        /* \"--CODEGEN--\":7973:7977   */\n      dup2\n        /* \"--CODEGEN--\":7969:7989   */\n      sub\n        /* \"--CODEGEN--\":7965:7966   */\n      0x00\n        /* \"--CODEGEN--\":7954:7963   */\n      dup4\n        /* \"--CODEGEN--\":7950:7967   */\n      add\n        /* \"--CODEGEN--\":7943:7990   */\n      mstore\n        /* \"--CODEGEN--\":8004:8112   */\n      tag_280\n        /* \"--CODEGEN--\":8107:8111   */\n      dup2\n        /* \"--CODEGEN--\":8098:8104   */\n      dup5\n        /* \"--CODEGEN--\":8004:8112   */\n      tag_214\n      jump\t// in\n    tag_280:\n        /* \"--CODEGEN--\":7996:8112   */\n      swap1\n      pop\n        /* \"--CODEGEN--\":7900:8122   */\n      swap3\n      swap2\n      pop\n      pop\n      jump\t// out\n        /* \"--CODEGEN--\":8129:8545   */\n    tag_77:\n      0x00\n        /* \"--CODEGEN--\":8329:8331   */\n      0x20\n        /* \"--CODEGEN--\":8318:8327   */\n      dup3\n        /* \"--CODEGEN--\":8314:8332   */\n      add\n        /* \"--CODEGEN--\":8306:8332   */\n      swap1\n      pop\n        /* \"--CODEGEN--\":8379:8388   */\n      dup2\n        /* \"--CODEGEN--\":8373:8377   */\n      dup2\n        /* \"--CODEGEN--\":8369:8389   */\n      sub\n        /* \"--CODEGEN--\":8365:8366   */\n      0x00\n        /* \"--CODEGEN--\":8354:8363   */\n      dup4\n        /* \"--CODEGEN--\":8350:8367   */\n      add\n        /* \"--CODEGEN--\":8343:8390   */\n      mstore\n        /* \"--CODEGEN--\":8404:8535   */\n      tag_282\n        /* \"--CODEGEN--\":8530:8534   */\n      dup2\n        /* \"--CODEGEN--\":8404:8535   */\n      tag_228\n      jump\t// in\n    tag_282:\n        /* \"--CODEGEN--\":8396:8535   */\n      swap1\n      pop\n        /* \"--CODEGEN--\":8300:8545   */\n      swap2\n      swap1\n      pop\n      jump\t// out\n        /* \"--CODEGEN--\":8552:8968   */\n    tag_123:\n      0x00\n        /* \"--CODEGEN--\":8752:8754   */\n      0x20\n        /* \"--CODEGEN--\":8741:8750   */\n      dup3\n        /* \"--CODEGEN--\":8737:8755   */\n      add\n        /* \"--CODEGEN--\":8729:8755   */\n      swap1\n      pop\n        /* \"--CODEGEN--\":8802:8811   */\n      dup2\n        /* \"--CODEGEN--\":8796:8800   */\n      dup2\n        /* \"--CODEGEN--\":8792:8812   */\n      sub\n        /* \"--CODEGEN--\":8788:8789   */\n      0x00\n        /* \"--CODEGEN--\":8777:8786   */\n      dup4\n        /* \"--CODEGEN--\":8773:8790   */\n      add\n        /* \"--CODEGEN--\":8766:8813   */\n      mstore\n        /* \"--CODEGEN--\":8827:8958   */\n      tag_284\n        /* \"--CODEGEN--\":8953:8957   */\n      dup2\n        /* \"--CODEGEN--\":8827:8958   */\n      tag_232\n      jump\t// in\n    tag_284:\n        /* \"--CODEGEN--\":8819:8958   */\n      swap1\n      pop\n        /* \"--CODEGEN--\":8723:8968   */\n      swap2\n      swap1\n      pop\n      jump\t// out\n        /* \"--CODEGEN--\":8975:9391   */\n    tag_67:\n      0x00\n        /* \"--CODEGEN--\":9175:9177   */\n      0x20\n        /* \"--CODEGEN--\":9164:9173   */\n      dup3\n        /* \"--CODEGEN--\":9160:9178   */\n      add\n        /* \"--CODEGEN--\":9152:9178   */\n      swap1\n      pop\n        /* \"--CODEGEN--\":9225:9234   */\n      dup2\n        /* \"--CODEGEN--\":9219:9223   */\n      dup2\n        /* \"--CODEGEN--\":9215:9235   */\n      sub\n        /* \"--CODEGEN--\":9211:9212   */\n      0x00\n        /* \"--CODEGEN--\":9200:9209   */\n      dup4\n        /* \"--CODEGEN--\":9196:9213   */\n      add\n        /* \"--CODEGEN--\":9189:9236   */\n      mstore\n        /* \"--CODEGEN--\":9250:9381   */\n      tag_286\n        /* \"--CODEGEN--\":9376:9380   */\n      dup2\n        /* \"--CODEGEN--\":9250:9381   */\n      tag_235\n      jump\t// in\n    tag_286:\n        /* \"--CODEGEN--\":9242:9381   */\n      swap1\n      pop\n        /* \"--CODEGEN--\":9146:9391   */\n      swap2\n      swap1\n      pop\n      jump\t// out\n        /* \"--CODEGEN--\":9398:9814   */\n    tag_149:\n      0x00\n        /* \"--CODEGEN--\":9598:9600   */\n      0x20\n        /* \"--CODEGEN--\":9587:9596   */\n      dup3\n        /* \"--CODEGEN--\":9583:9601   */\n      add\n        /* \"--CODEGEN--\":9575:9601   */\n      swap1\n      pop\n        /* \"--CODEGEN--\":9648:9657   */\n      dup2\n        /* \"--CODEGEN--\":9642:9646   */\n      dup2\n        /* \"--CODEGEN--\":9638:9658   */\n      sub\n        /* \"--CODEGEN--\":9634:9635   */\n      0x00\n        /* \"--CODEGEN--\":9623:9632   */\n      dup4\n        /* \"--CODEGEN--\":9619:9636   */\n      add\n        /* \"--CODEGEN--\":9612:9659   */\n      mstore\n        /* \"--CODEGEN--\":9673:9804   */\n      tag_288\n        /* \"--CODEGEN--\":9799:9803   */\n      dup2\n        /* \"--CODEGEN--\":9673:9804   */\n      tag_238\n      jump\t// in\n    tag_288:\n        /* \"--CODEGEN--\":9665:9804   */\n      swap1\n      pop\n        /* \"--CODEGEN--\":9569:9814   */\n      swap2\n      swap1\n      pop\n      jump\t// out\n        /* \"--CODEGEN--\":9821:10237   */\n    tag_157:\n      0x00\n        /* \"--CODEGEN--\":10021:10023   */\n      0x20\n        /* \"--CODEGEN--\":10010:10019   */\n      dup3\n        /* \"--CODEGEN--\":10006:10024   */\n      add\n        /* \"--CODEGEN--\":9998:10024   */\n      swap1\n      pop\n        /* \"--CODEGEN--\":10071:10080   */\n      dup2\n        /* \"--CODEGEN--\":10065:10069   */\n      dup2\n        /* \"--CODEGEN--\":10061:10081   */\n      sub\n        /* \"--CODEGEN--\":10057:10058   */\n      0x00\n        /* \"--CODEGEN--\":10046:10055   */\n      dup4\n        /* \"--CODEGEN--\":10042:10059   */\n      add\n        /* \"--CODEGEN--\":10035:10082   */\n      mstore\n        /* \"--CODEGEN--\":10096:10227   */\n      tag_290\n        /* \"--CODEGEN--\":10222:10226   */\n      dup2\n        /* \"--CODEGEN--\":10096:10227   */\n      tag_241\n      jump\t// in\n    tag_290:\n        /* \"--CODEGEN--\":10088:10227   */\n      swap1\n      pop\n        /* \"--CODEGEN--\":9992:10237   */\n      swap2\n      swap1\n      pop\n      jump\t// out\n        /* \"--CODEGEN--\":10244:10660   */\n    tag_95:\n      0x00\n        /* \"--CODEGEN--\":10444:10446   */\n      0x20\n        /* \"--CODEGEN--\":10433:10442   */\n      dup3\n        /* \"--CODEGEN--\":10429:10447   */\n      add\n        /* \"--CODEGEN--\":10421:10447   */\n      swap1\n      pop\n        /* \"--CODEGEN--\":10494:10503   */\n      dup2\n        /* \"--CODEGEN--\":10488:10492   */\n      dup2\n        /* \"--CODEGEN--\":10484:10504   */\n      sub\n        /* \"--CODEGEN--\":10480:10481   */\n      0x00\n        /* \"--CODEGEN--\":10469:10478   */\n      dup4\n        /* \"--CODEGEN--\":10465:10482   */\n      add\n        /* \"--CODEGEN--\":10458:10505   */\n      mstore\n        /* \"--CODEGEN--\":10519:10650   */\n      tag_292\n        /* \"--CODEGEN--\":10645:10649   */\n      dup2\n        /* \"--CODEGEN--\":10519:10650   */\n      tag_244\n      jump\t// in\n    tag_292:\n        /* \"--CODEGEN--\":10511:10650   */\n      swap1\n      pop\n        /* \"--CODEGEN--\":10415:10660   */\n      swap2\n      swap1\n      pop\n      jump\t// out\n        /* \"--CODEGEN--\":10667:10889   */\n    tag_27:\n      0x00\n        /* \"--CODEGEN--\":10794:10796   */\n      0x20\n        /* \"--CODEGEN--\":10783:10792   */\n      dup3\n        /* \"--CODEGEN--\":10779:10797   */\n      add\n        /* \"--CODEGEN--\":10771:10797   */\n      swap1\n      pop\n        /* \"--CODEGEN--\":10808:10879   */\n      tag_294\n        /* \"--CODEGEN--\":10876:10877   */\n      0x00\n        /* \"--CODEGEN--\":10865:10874   */\n      dup4\n        /* \"--CODEGEN--\":10861:10878   */\n      add\n        /* \"--CODEGEN--\":10852:10858   */\n      dup5\n        /* \"--CODEGEN--\":10808:10879   */\n      tag_250\n      jump\t// in\n    tag_294:\n        /* \"--CODEGEN--\":10765:10889   */\n      swap3\n      swap2\n      pop\n      pop\n      jump\t// out\n        /* \"--CODEGEN--\":10896:11245   */\n    tag_167:\n      0x00\n        /* \"--CODEGEN--\":11059:11061   */\n      0x40\n        /* \"--CODEGEN--\":11048:11057   */\n      dup3\n        /* \"--CODEGEN--\":11044:11062   */\n      add\n        /* \"--CODEGEN--\":11036:11062   */\n      swap1\n      pop\n        /* \"--CODEGEN--\":11073:11144   */\n      tag_296\n        /* \"--CODEGEN--\":11141:11142   */\n      0x00\n        /* \"--CODEGEN--\":11130:11139   */\n      dup4\n        /* \"--CODEGEN--\":11126:11143   */\n      add\n        /* \"--CODEGEN--\":11117:11123   */\n      dup6\n        /* \"--CODEGEN--\":11073:11144   */\n      tag_250\n      jump\t// in\n    tag_296:\n        /* \"--CODEGEN--\":11155:11235   */\n      tag_297\n        /* \"--CODEGEN--\":11231:11233   */\n      0x20\n        /* \"--CODEGEN--\":11220:11229   */\n      dup4\n        /* \"--CODEGEN--\":11216:11234   */\n      add\n        /* \"--CODEGEN--\":11207:11213   */\n      dup5\n        /* \"--CODEGEN--\":11155:11235   */\n      tag_200\n      jump\t// in\n    tag_297:\n        /* \"--CODEGEN--\":11030:11245   */\n      swap4\n      swap3\n      pop\n      pop\n      pop\n      jump\t// out\n        /* \"--CODEGEN--\":11252:11403   */\n    tag_221:\n      0x00\n        /* \"--CODEGEN--\":11338:11341   */\n      dup2\n        /* \"--CODEGEN--\":11330:11341   */\n      swap1\n      pop\n        /* \"--CODEGEN--\":11376:11380   */\n      0x20\n        /* \"--CODEGEN--\":11371:11374   */\n      dup3\n        /* \"--CODEGEN--\":11367:11381   */\n      add\n        /* \"--CODEGEN--\":11359:11381   */\n      swap1\n      pop\n        /* \"--CODEGEN--\":11324:11403   */\n      swap2\n      swap1\n      pop\n      jump\t// out\n        /* \"--CODEGEN--\":11410:11547   */\n    tag_217:\n      0x00\n        /* \"--CODEGEN--\":11519:11524   */\n      dup2\n        /* \"--CODEGEN--\":11513:11525   */\n      mload\n        /* \"--CODEGEN--\":11503:11525   */\n      swap1\n      pop\n        /* \"--CODEGEN--\":11484:11547   */\n      swap2\n      swap1\n      pop\n      jump\t// out\n        /* \"--CODEGEN--\":11554:11662   */\n    tag_227:\n      0x00\n        /* \"--CODEGEN--\":11652:11656   */\n      0x20\n        /* \"--CODEGEN--\":11647:11650   */\n      dup3\n        /* \"--CODEGEN--\":11643:11657   */\n      add\n        /* \"--CODEGEN--\":11635:11657   */\n      swap1\n      pop\n        /* \"--CODEGEN--\":11629:11662   */\n      swap2\n      swap1\n      pop\n      jump\t// out\n        /* \"--CODEGEN--\":11670:11848   */\n    tag_219:\n      0x00\n        /* \"--CODEGEN--\":11800:11806   */\n      dup3\n        /* \"--CODEGEN--\":11795:11798   */\n      dup3\n        /* \"--CODEGEN--\":11788:11807   */\n      mstore\n        /* \"--CODEGEN--\":11837:11841   */\n      0x20\n        /* \"--CODEGEN--\":11832:11835   */\n      dup3\n        /* \"--CODEGEN--\":11828:11842   */\n      add\n        /* \"--CODEGEN--\":11813:11842   */\n      swap1\n      pop\n        /* \"--CODEGEN--\":11781:11848   */\n      swap3\n      swap2\n      pop\n      pop\n      jump\t// out\n        /* \"--CODEGEN--\":11857:12020   */\n    tag_231:\n      0x00\n        /* \"--CODEGEN--\":11972:11978   */\n      dup3\n        /* \"--CODEGEN--\":11967:11970   */\n      dup3\n        /* \"--CODEGEN--\":11960:11979   */\n      mstore\n        /* \"--CODEGEN--\":12009:12013   */\n      0x20\n        /* \"--CODEGEN--\":12004:12007   */\n      dup3\n        /* \"--CODEGEN--\":12000:12014   */\n      add\n        /* \"--CODEGEN--\":11985:12014   */\n      swap1\n      pop\n        /* \"--CODEGEN--\":11953:12020   */\n      swap3\n      swap2\n      pop\n      pop\n      jump\t// out\n        /* \"--CODEGEN--\":12028:12119   */\n    tag_213:\n      0x00\n        /* \"--CODEGEN--\":12090:12114   */\n      tag_304\n        /* \"--CODEGEN--\":12108:12113   */\n      dup3\n        /* \"--CODEGEN--\":12090:12114   */\n      tag_305\n      jump\t// in\n    tag_304:\n        /* \"--CODEGEN--\":12079:12114   */\n      swap1\n      pop\n        /* \"--CODEGEN--\":12073:12119   */\n      swap2\n      swap1\n      pop\n      jump\t// out\n        /* \"--CODEGEN--\":12126:12225   */\n    tag_208:\n      0x00\n        /* \"--CODEGEN--\":12196:12220   */\n      tag_307\n        /* \"--CODEGEN--\":12214:12219   */\n      dup3\n        /* \"--CODEGEN--\":12196:12220   */\n      tag_305\n      jump\t// in\n    tag_307:\n        /* \"--CODEGEN--\":12185:12220   */\n      swap1\n      pop\n        /* \"--CODEGEN--\":12179:12225   */\n      swap2\n      swap1\n      pop\n      jump\t// out\n        /* \"--CODEGEN--\":12232:12317   */\n    tag_308:\n      0x00\n        /* \"--CODEGEN--\":12305:12310   */\n      dup2\n        /* \"--CODEGEN--\":12298:12311   */\n      iszero\n        /* \"--CODEGEN--\":12291:12312   */\n      iszero\n        /* \"--CODEGEN--\":12280:12312   */\n      swap1\n      pop\n        /* \"--CODEGEN--\":12274:12317   */\n      swap2\n      swap1\n      pop\n      jump\t// out\n        /* \"--CODEGEN--\":12324:12445   */\n    tag_305:\n      0x00\n        /* \"--CODEGEN--\":12397:12439   */\n      0xffffffffffffffffffffffffffffffffffffffff\n        /* \"--CODEGEN--\":12390:12395   */\n      dup3\n        /* \"--CODEGEN--\":12386:12440   */\n      and\n        /* \"--CODEGEN--\":12375:12440   */\n      swap1\n      pop\n        /* \"--CODEGEN--\":12369:12445   */\n      swap2\n      swap1\n      pop\n      jump\t// out\n        /* \"--CODEGEN--\":12452:12524   */\n    tag_249:\n      0x00\n        /* \"--CODEGEN--\":12514:12519   */\n      dup2\n        /* \"--CODEGEN--\":12503:12519   */\n      swap1\n      pop\n        /* \"--CODEGEN--\":12497:12524   */\n      swap2\n      swap1\n      pop\n      jump\t// out\n        /* \"--CODEGEN--\":12531:12660   */\n    tag_203:\n      0x00\n        /* \"--CODEGEN--\":12618:12655   */\n      tag_313\n        /* \"--CODEGEN--\":12649:12654   */\n      dup3\n        /* \"--CODEGEN--\":12618:12655   */\n      tag_314\n      jump\t// in\n    tag_313:\n        /* \"--CODEGEN--\":12605:12655   */\n      swap1\n      pop\n        /* \"--CODEGEN--\":12599:12660   */\n      swap2\n      swap1\n      pop\n      jump\t// out\n        /* \"--CODEGEN--\":12667:12788   */\n    tag_314:\n      0x00\n        /* \"--CODEGEN--\":12746:12783   */\n      tag_316\n        /* \"--CODEGEN--\":12777:12782   */\n      dup3\n        /* \"--CODEGEN--\":12746:12783   */\n      tag_317\n      jump\t// in\n    tag_316:\n        /* \"--CODEGEN--\":12733:12783   */\n      swap1\n      pop\n        /* \"--CODEGEN--\":12727:12788   */\n      swap2\n      swap1\n      pop\n      jump\t// out\n        /* \"--CODEGEN--\":12795:12903   */\n    tag_317:\n      0x00\n        /* \"--CODEGEN--\":12874:12898   */\n      tag_319\n        /* \"--CODEGEN--\":12892:12897   */\n      dup3\n        /* \"--CODEGEN--\":12874:12898   */\n      tag_305\n      jump\t// in\n    tag_319:\n        /* \"--CODEGEN--\":12861:12898   */\n      swap1\n      pop\n        /* \"--CODEGEN--\":12855:12903   */\n      swap2\n      swap1\n      pop\n      jump\t// out\n        /* \"--CODEGEN--\":12910:13013   */\n    tag_209:\n      0x00\n        /* \"--CODEGEN--\":12982:13008   */\n      tag_321\n        /* \"--CODEGEN--\":13002:13007   */\n      dup3\n        /* \"--CODEGEN--\":12982:13008   */\n      tag_322\n      jump\t// in\n    tag_321:\n        /* \"--CODEGEN--\":12971:13008   */\n      swap1\n      pop\n        /* \"--CODEGEN--\":12965:13013   */\n      swap2\n      swap1\n      pop\n      jump\t// out\n        /* \"--CODEGEN--\":13020:13109   */\n    tag_322:\n      0x00\n        /* \"--CODEGEN--\":13084:13104   */\n      tag_324\n        /* \"--CODEGEN--\":13098:13103   */\n      dup3\n        /* \"--CODEGEN--\":13084:13104   */\n      tag_325\n      jump\t// in\n    tag_324:\n        /* \"--CODEGEN--\":13073:13104   */\n      swap1\n      pop\n        /* \"--CODEGEN--\":13067:13109   */\n      swap2\n      swap1\n      pop\n      jump\t// out\n        /* \"--CODEGEN--\":13116:13190   */\n    tag_257:\n      0x00\n        /* \"--CODEGEN--\":13180:13185   */\n      dup2\n        /* \"--CODEGEN--\":13169:13185   */\n      swap1\n      pop\n        /* \"--CODEGEN--\":13163:13190   */\n      swap2\n      swap1\n      pop\n      jump\t// out\n        /* \"--CODEGEN--\":13197:13291   */\n    tag_325:\n      0x00\n        /* \"--CODEGEN--\":13275:13280   */\n      dup2\n        /* \"--CODEGEN--\":13271:13273   */\n      0x60\n        /* \"--CODEGEN--\":13267:13281   */\n      shl\n        /* \"--CODEGEN--\":13245:13281   */\n      swap1\n      pop\n        /* \"--CODEGEN--\":13239:13291   */\n      swap2\n      swap1\n      pop\n      jump\t// out\n        /* \"--CODEGEN--\":13299:13410   */\n    tag_179:\n        /* \"--CODEGEN--\":13365:13386   */\n      tag_329\n        /* \"--CODEGEN--\":13380:13385   */\n      dup2\n        /* \"--CODEGEN--\":13365:13386   */\n      tag_308\n      jump\t// in\n    tag_329:\n        /* \"--CODEGEN--\":13358:13363   */\n      dup2\n        /* \"--CODEGEN--\":13355:13387   */\n      eq\n        /* \"--CODEGEN--\":13345:13347   */\n      tag_330\n      jumpi\n        /* \"--CODEGEN--\":13401:13402   */\n      0x00\n        /* \"--CODEGEN--\":13398:13399   */\n      dup1\n        /* \"--CODEGEN--\":13391:13403   */\n      revert\n        /* \"--CODEGEN--\":13345:13347   */\n    tag_330:\n        /* \"--CODEGEN--\":13339:13410   */\n      pop\n      jump\t// out\n        /* \"--CODEGEN--\":13417:13534   */\n    tag_183:\n        /* \"--CODEGEN--\":13486:13510   */\n      tag_332\n        /* \"--CODEGEN--\":13504:13509   */\n      dup2\n        /* \"--CODEGEN--\":13486:13510   */\n      tag_249\n      jump\t// in\n    tag_332:\n        /* \"--CODEGEN--\":13479:13484   */\n      dup2\n        /* \"--CODEGEN--\":13476:13511   */\n      eq\n        /* \"--CODEGEN--\":13466:13468   */\n      tag_333\n      jumpi\n        /* \"--CODEGEN--\":13525:13526   */\n      0x00\n        /* \"--CODEGEN--\":13522:13523   */\n      dup1\n        /* \"--CODEGEN--\":13515:13527   */\n      revert\n        /* \"--CODEGEN--\":13466:13468   */\n    tag_333:\n        /* \"--CODEGEN--\":13460:13534   */\n      pop\n      jump\t// out\n\n    auxdata: 0xa264697066735822122073bd6b1a911abda99656014ede2d923bcc3eb560eb32ac4cf876c9e095ebd13e64736f6c634300060c0033\n}\n\nsub_1: assembly {\n        /* \"Loteria/ERC20Loteria.sol\":1638:4335  contract ERC20Basic is IERC20 {\r... */\n      mstore(0x40, 0x80)\n        /* \"Loteria/ERC20Loteria.sol\":1982:2118  constructor (uint256 initialSupply) public {\r... */\n      callvalue\n      dup1\n      iszero\n      tag_1\n      jumpi\n      0x00\n      dup1\n      revert\n    tag_1:\n      pop\n      mload(0x40)\n      sub(codesize, bytecodeSize)\n      dup1\n      bytecodeSize\n      dup4\n      codecopy\n      dup2\n      dup2\n      add\n      0x40\n      mstore\n      dup2\n      add\n      swap1\n      tag_2\n      swap2\n      swap1\n      tag_3\n      jump\t// in\n    tag_2:\n        /* \"Loteria/ERC20Loteria.sol\":2051:2064  initialSupply */\n      dup1\n        /* \"Loteria/ERC20Loteria.sol\":2036:2048  totalSupply_ */\n      0x02\n        /* \"Loteria/ERC20Loteria.sol\":2036:2064  totalSupply_ = initialSupply */\n      dup2\n      swap1\n      sstore\n      pop\n        /* \"Loteria/ERC20Loteria.sol\":2098:2110  totalSupply_ */\n      sload(0x02)\n        /* \"Loteria/ERC20Loteria.sol\":2075:2083  balances */\n      0x00\n        /* \"Loteria/ERC20Loteria.sol\":2075:2095  balances[msg.sender] */\n      dup1\n        /* \"Loteria/ERC20Loteria.sol\":2084:2094  msg.sender */\n      caller\n        /* \"Loteria/ERC20Loteria.sol\":2075:2095  balances[msg.sender] */\n      0xffffffffffffffffffffffffffffffffffffffff\n      and\n      0xffffffffffffffffffffffffffffffffffffffff\n      and\n      dup2\n      mstore\n      0x20\n      add\n      swap1\n      dup2\n      mstore\n      0x20\n      add\n      0x00\n      keccak256\n        /* \"Loteria/ERC20Loteria.sol\":2075:2110  balances[msg.sender] = totalSupply_ */\n      dup2\n      swap1\n      sstore\n      pop\n        /* \"Loteria/ERC20Loteria.sol\":1982:2118  constructor (uint256 initialSupply) public {\r... */\n      pop\n        /* \"Loteria/ERC20Loteria.sol\":1638:4335  contract ERC20Basic is IERC20 {\r... */\n      jump(tag_6)\n        /* \"--CODEGEN--\":5:139   */\n    tag_8:\n      0x00\n        /* \"--CODEGEN--\":89:95   */\n      dup2\n        /* \"--CODEGEN--\":83:96   */\n      mload\n        /* \"--CODEGEN--\":74:96   */\n      swap1\n      pop\n        /* \"--CODEGEN--\":101:134   */\n      tag_10\n        /* \"--CODEGEN--\":128:133   */\n      dup2\n        /* \"--CODEGEN--\":101:134   */\n      tag_11\n      jump\t// in\n    tag_10:\n        /* \"--CODEGEN--\":68:139   */\n      swap3\n      swap2\n      pop\n      pop\n      jump\t// out\n        /* \"--CODEGEN--\":146:409   */\n    tag_3:\n      0x00\n        /* \"--CODEGEN--\":261:263   */\n      0x20\n        /* \"--CODEGEN--\":249:258   */\n      dup3\n        /* \"--CODEGEN--\":240:247   */\n      dup5\n        /* \"--CODEGEN--\":236:259   */\n      sub\n        /* \"--CODEGEN--\":232:264   */\n      slt\n        /* \"--CODEGEN--\":229:231   */\n      iszero\n      tag_13\n      jumpi\n        /* \"--CODEGEN--\":277:278   */\n      0x00\n        /* \"--CODEGEN--\":274:275   */\n      dup1\n        /* \"--CODEGEN--\":267:279   */\n      revert\n        /* \"--CODEGEN--\":229:231   */\n    tag_13:\n        /* \"--CODEGEN--\":312:313   */\n      0x00\n        /* \"--CODEGEN--\":329:393   */\n      tag_14\n        /* \"--CODEGEN--\":385:392   */\n      dup5\n        /* \"--CODEGEN--\":376:382   */\n      dup3\n        /* \"--CODEGEN--\":365:374   */\n      dup6\n        /* \"--CODEGEN--\":361:383   */\n      add\n        /* \"--CODEGEN--\":329:393   */\n      tag_8\n      jump\t// in\n    tag_14:\n        /* \"--CODEGEN--\":319:393   */\n      swap2\n      pop\n        /* \"--CODEGEN--\":291:399   */\n      pop\n        /* \"--CODEGEN--\":223:409   */\n      swap3\n      swap2\n      pop\n      pop\n      jump\t// out\n        /* \"--CODEGEN--\":416:488   */\n    tag_15:\n      0x00\n        /* \"--CODEGEN--\":478:483   */\n      dup2\n        /* \"--CODEGEN--\":467:483   */\n      swap1\n      pop\n        /* \"--CODEGEN--\":461:488   */\n      swap2\n      swap1\n      pop\n      jump\t// out\n        /* \"--CODEGEN--\":495:612   */\n    tag_11:\n        /* \"--CODEGEN--\":564:588   */\n      tag_18\n        /* \"--CODEGEN--\":582:587   */\n      dup2\n        /* \"--CODEGEN--\":564:588   */\n      tag_15\n      jump\t// in\n    tag_18:\n        /* \"--CODEGEN--\":557:562   */\n      dup2\n        /* \"--CODEGEN--\":554:589   */\n      eq\n        /* \"--CODEGEN--\":544:546   */\n      tag_19\n      jumpi\n        /* \"--CODEGEN--\":603:604   */\n      0x00\n        /* \"--CODEGEN--\":600:601   */\n      dup1\n        /* \"--CODEGEN--\":593:605   */\n      revert\n        /* \"--CODEGEN--\":544:546   */\n    tag_19:\n        /* \"--CODEGEN--\":538:612   */\n      pop\n      jump\t// out\n        /* \"Loteria/ERC20Loteria.sol\":1638:4335  contract ERC20Basic is IERC20 {\r... */\n    tag_6:\n      dataSize(sub_0)\n      dup1\n      dataOffset(sub_0)\n      0x00\n      codecopy\n      0x00\n      return\n    stop\n\n    sub_0: assembly {\n            /* \"Loteria/ERC20Loteria.sol\":1638:4335  contract ERC20Basic is IERC20 {\r... */\n          mstore(0x40, 0x80)\n          callvalue\n          dup1\n          iszero\n          tag_1\n          jumpi\n          0x00\n          dup1\n          revert\n        tag_1:\n          pop\n          jumpi(tag_2, lt(calldatasize, 0x04))\n          shr(0xe0, calldataload(0x00))\n          dup1\n          0x313ce567\n          gt\n          tag_14\n          jumpi\n          dup1\n          0x313ce567\n          eq\n          tag_8\n          jumpi\n          dup1\n          0x5c79febb\n          eq\n          tag_9\n          jumpi\n          dup1\n          0x70a08231\n          eq\n          tag_10\n          jumpi\n          dup1\n          0x95d89b41\n          eq\n          tag_11\n          jumpi\n          dup1\n          0xa9059cbb\n          eq\n          tag_12\n          jumpi\n          dup1\n          0xdd62ed3e\n          eq\n          tag_13\n          jumpi\n          jump(tag_2)\n        tag_14:\n          dup1\n          0x06fdde03\n          eq\n          tag_3\n          jumpi\n          dup1\n          0x095ea7b3\n          eq\n          tag_4\n          jumpi\n          dup1\n          0x18160ddd\n          eq\n          tag_5\n          jumpi\n          dup1\n          0x1d43cc98\n          eq\n          tag_6\n          jumpi\n          dup1\n          0x23b872dd\n          eq\n          tag_7\n          jumpi\n        tag_2:\n          0x00\n          dup1\n          revert\n            /* \"Loteria/ERC20Loteria.sol\":1712:1756  string public constant name = \"ERC20AKALugo\" */\n        tag_3:\n          tag_15\n          tag_16\n          jump\t// in\n        tag_15:\n          mload(0x40)\n          tag_17\n          swap2\n          swap1\n          tag_18\n          jump\t// in\n        tag_17:\n          mload(0x40)\n          dup1\n          swap2\n          sub\n          swap1\n          return\n            /* \"Loteria/ERC20Loteria.sol\":3602:3831  function approve(address spender, uint numTokens) public override returns(bool) {\r... */\n        tag_4:\n          tag_19\n          0x04\n          dup1\n          calldatasize\n          sub\n          dup2\n          add\n          swap1\n          tag_20\n          swap2\n          swap1\n          tag_21\n          jump\t// in\n        tag_20:\n          tag_22\n          jump\t// in\n        tag_19:\n          mload(0x40)\n          tag_23\n          swap2\n          swap1\n          tag_24\n          jump\t// in\n        tag_23:\n          mload(0x40)\n          dup1\n          swap2\n          sub\n          swap1\n          return\n            /* \"Loteria/ERC20Loteria.sol\":2291:2390  function totalSupply() public override view returns(uint256) {\r... */\n        tag_5:\n          tag_25\n          tag_26\n          jump\t// in\n        tag_25:\n          mload(0x40)\n          tag_27\n          swap2\n          swap1\n          tag_28\n          jump\t// in\n        tag_27:\n          mload(0x40)\n          dup1\n          swap2\n          sub\n          swap1\n          return\n            /* \"Loteria/ERC20Loteria.sol\":2398:2556  function increaseTotalSupply(uint newTokensAmount) public {\r... */\n        tag_6:\n          tag_29\n          0x04\n          dup1\n          calldatasize\n          sub\n          dup2\n          add\n          swap1\n          tag_30\n          swap2\n          swap1\n          tag_31\n          jump\t// in\n        tag_30:\n          tag_32\n          jump\t// in\n        tag_29:\n          stop\n            /* \"Loteria/ERC20Loteria.sol\":3839:4332  function transferFrom(address owner, address buyer, uint256 numTokens) public override returns(bool) {\r... */\n        tag_7:\n          tag_33\n          0x04\n          dup1\n          calldatasize\n          sub\n          dup2\n          add\n          swap1\n          tag_34\n          swap2\n          swap1\n          tag_35\n          jump\t// in\n        tag_34:\n          tag_36\n          jump\t// in\n        tag_33:\n          mload(0x40)\n          tag_37\n          swap2\n          swap1\n          tag_24\n          jump\t// in\n        tag_37:\n          mload(0x40)\n          dup1\n          swap2\n          sub\n          swap1\n          return\n            /* \"Loteria/ERC20Loteria.sol\":1807:1842  uint8 public constant decimals = 18 */\n        tag_8:\n          tag_38\n          tag_39\n          jump\t// in\n        tag_38:\n          mload(0x40)\n          tag_40\n          swap2\n          swap1\n          tag_41\n          jump\t// in\n        tag_40:\n          mload(0x40)\n          dup1\n          swap2\n          sub\n          swap1\n          return\n            /* \"Loteria/ERC20Loteria.sol\":3216:3594  function transferLoteria(address emiter, address recipient, uint256 numTokens) public override returns(bool) {\r... */\n        tag_9:\n          tag_42\n          0x04\n          dup1\n          calldatasize\n          sub\n          dup2\n          add\n          swap1\n          tag_43\n          swap2\n          swap1\n          tag_35\n          jump\t// in\n        tag_43:\n          tag_44\n          jump\t// in\n        tag_42:\n          mload(0x40)\n          tag_45\n          swap2\n          swap1\n          tag_24\n          jump\t// in\n        tag_45:\n          mload(0x40)\n          dup1\n          swap2\n          sub\n          swap1\n          return\n            /* \"Loteria/ERC20Loteria.sol\":2564:2682  function balanceOf(address account) public override view returns (uint256) {\r... */\n        tag_10:\n          tag_46\n          0x04\n          dup1\n          calldatasize\n          sub\n          dup2\n          add\n          swap1\n          tag_47\n          swap2\n          swap1\n          tag_48\n          jump\t// in\n        tag_47:\n          tag_49\n          jump\t// in\n        tag_46:\n          mload(0x40)\n          tag_50\n          swap2\n          swap1\n          tag_28\n          jump\t// in\n        tag_50:\n          mload(0x40)\n          dup1\n          swap2\n          sub\n          swap1\n          return\n            /* \"Loteria/ERC20Loteria.sol\":1763:1800  string public constant symbol = \"AKA\" */\n        tag_11:\n          tag_51\n          tag_52\n          jump\t// in\n        tag_51:\n          mload(0x40)\n          tag_53\n          swap2\n          swap1\n          tag_18\n          jump\t// in\n        tag_53:\n          mload(0x40)\n          dup1\n          swap2\n          sub\n          swap1\n          return\n            /* \"Loteria/ERC20Loteria.sol\":2837:3208  function transfer(address recipient, uint256 numTokens) public override returns(bool) {\r... */\n        tag_12:\n          tag_54\n          0x04\n          dup1\n          calldatasize\n          sub\n          dup2\n          add\n          swap1\n          tag_55\n          swap2\n          swap1\n          tag_21\n          jump\t// in\n        tag_55:\n          tag_56\n          jump\t// in\n        tag_54:\n          mload(0x40)\n          tag_57\n          swap2\n          swap1\n          tag_24\n          jump\t// in\n        tag_57:\n          mload(0x40)\n          dup1\n          swap2\n          sub\n          swap1\n          return\n            /* \"Loteria/ERC20Loteria.sol\":2690:2829  function allowance(address owner, address spender) public override view returns (uint256) {\r... */\n        tag_13:\n          tag_58\n          0x04\n          dup1\n          calldatasize\n          sub\n          dup2\n          add\n          swap1\n          tag_59\n          swap2\n          swap1\n          tag_60\n          jump\t// in\n        tag_59:\n          tag_61\n          jump\t// in\n        tag_58:\n          mload(0x40)\n          tag_62\n          swap2\n          swap1\n          tag_28\n          jump\t// in\n        tag_62:\n          mload(0x40)\n          dup1\n          swap2\n          sub\n          swap1\n          return\n            /* \"Loteria/ERC20Loteria.sol\":1712:1756  string public constant name = \"ERC20AKALugo\" */\n        tag_16:\n          mload(0x40)\n          dup1\n          0x40\n          add\n          0x40\n          mstore\n          dup1\n          0x0c\n          dup2\n          mstore\n          0x20\n          add\n          0x4552433230414b414c75676f0000000000000000000000000000000000000000\n          dup2\n          mstore\n          pop\n          dup2\n          jump\t// out\n            /* \"Loteria/ERC20Loteria.sol\":3602:3831  function approve(address spender, uint numTokens) public override returns(bool) {\r... */\n        tag_22:\n            /* \"Loteria/ERC20Loteria.sol\":3676:3680  bool */\n          0x00\n            /* \"Loteria/ERC20Loteria.sol\":3734:3743  numTokens */\n          dup2\n            /* \"Loteria/ERC20Loteria.sol\":3703:3710  allowed */\n          0x01\n            /* \"Loteria/ERC20Loteria.sol\":3703:3722  allowed[msg.sender] */\n          0x00\n            /* \"Loteria/ERC20Loteria.sol\":3711:3721  msg.sender */\n          caller\n            /* \"Loteria/ERC20Loteria.sol\":3703:3722  allowed[msg.sender] */\n          0xffffffffffffffffffffffffffffffffffffffff\n          and\n          0xffffffffffffffffffffffffffffffffffffffff\n          and\n          dup2\n          mstore\n          0x20\n          add\n          swap1\n          dup2\n          mstore\n          0x20\n          add\n          0x00\n          keccak256\n            /* \"Loteria/ERC20Loteria.sol\":3703:3731  allowed[msg.sender][spender] */\n          0x00\n            /* \"Loteria/ERC20Loteria.sol\":3723:3730  spender */\n          dup6\n            /* \"Loteria/ERC20Loteria.sol\":3703:3731  allowed[msg.sender][spender] */\n          0xffffffffffffffffffffffffffffffffffffffff\n          and\n          0xffffffffffffffffffffffffffffffffffffffff\n          and\n          dup2\n          mstore\n          0x20\n          add\n          swap1\n          dup2\n          mstore\n          0x20\n          add\n          0x00\n          keccak256\n            /* \"Loteria/ERC20Loteria.sol\":3703:3743  allowed[msg.sender][spender] = numTokens */\n          dup2\n          swap1\n          sstore\n          pop\n            /* \"Loteria/ERC20Loteria.sol\":3780:3787  spender */\n          dup3\n            /* \"Loteria/ERC20Loteria.sol\":3759:3799  Approval(msg.sender, spender, numTokens) */\n          0xffffffffffffffffffffffffffffffffffffffff\n          and\n            /* \"Loteria/ERC20Loteria.sol\":3768:3778  msg.sender */\n          caller\n            /* \"Loteria/ERC20Loteria.sol\":3759:3799  Approval(msg.sender, spender, numTokens) */\n          0xffffffffffffffffffffffffffffffffffffffff\n          and\n          0x8c5be1e5ebec7d5bd14f71427d1e84f3dd0314c0f7b2291e5b200ac8c7c3b925\n            /* \"Loteria/ERC20Loteria.sol\":3789:3798  numTokens */\n          dup5\n            /* \"Loteria/ERC20Loteria.sol\":3759:3799  Approval(msg.sender, spender, numTokens) */\n          mload(0x40)\n          tag_64\n          swap2\n          swap1\n          tag_28\n          jump\t// in\n        tag_64:\n          mload(0x40)\n          dup1\n          swap2\n          sub\n          swap1\n          log3\n            /* \"Loteria/ERC20Loteria.sol\":3819:3823  true */\n          0x01\n            /* \"Loteria/ERC20Loteria.sol\":3812:3823  return true */\n          swap1\n          pop\n            /* \"Loteria/ERC20Loteria.sol\":3602:3831  function approve(address spender, uint numTokens) public override returns(bool) {\r... */\n          swap3\n          swap2\n          pop\n          pop\n          jump\t// out\n            /* \"Loteria/ERC20Loteria.sol\":2291:2390  function totalSupply() public override view returns(uint256) {\r... */\n        tag_26:\n            /* \"Loteria/ERC20Loteria.sol\":2343:2350  uint256 */\n          0x00\n            /* \"Loteria/ERC20Loteria.sol\":2370:2382  totalSupply_ */\n          sload(0x02)\n            /* \"Loteria/ERC20Loteria.sol\":2363:2382  return totalSupply_ */\n          swap1\n          pop\n            /* \"Loteria/ERC20Loteria.sol\":2291:2390  function totalSupply() public override view returns(uint256) {\r... */\n          swap1\n          jump\t// out\n            /* \"Loteria/ERC20Loteria.sol\":2398:2556  function increaseTotalSupply(uint newTokensAmount) public {\r... */\n        tag_32:\n            /* \"Loteria/ERC20Loteria.sol\":2483:2498  newTokensAmount */\n          dup1\n            /* \"Loteria/ERC20Loteria.sol\":2467:2479  totalSupply_ */\n          0x02\n          0x00\n            /* \"Loteria/ERC20Loteria.sol\":2467:2498  totalSupply_ += newTokensAmount */\n          dup3\n          dup3\n          sload\n          add\n          swap3\n          pop\n          pop\n          dup2\n          swap1\n          sstore\n          pop\n            /* \"Loteria/ERC20Loteria.sol\":2533:2548  newTokensAmount */\n          dup1\n            /* \"Loteria/ERC20Loteria.sol\":2509:2517  balances */\n          0x00\n            /* \"Loteria/ERC20Loteria.sol\":2509:2529  balances[msg.sender] */\n          dup1\n            /* \"Loteria/ERC20Loteria.sol\":2518:2528  msg.sender */\n          caller\n            /* \"Loteria/ERC20Loteria.sol\":2509:2529  balances[msg.sender] */\n          0xffffffffffffffffffffffffffffffffffffffff\n          and\n          0xffffffffffffffffffffffffffffffffffffffff\n          and\n          dup2\n          mstore\n          0x20\n          add\n          swap1\n          dup2\n          mstore\n          0x20\n          add\n          0x00\n          keccak256\n          0x00\n            /* \"Loteria/ERC20Loteria.sol\":2509:2548  balances[msg.sender] += newTokensAmount */\n          dup3\n          dup3\n          sload\n          add\n          swap3\n          pop\n          pop\n          dup2\n          swap1\n          sstore\n          pop\n            /* \"Loteria/ERC20Loteria.sol\":2398:2556  function increaseTotalSupply(uint newTokensAmount) public {\r... */\n          pop\n          jump\t// out\n            /* \"Loteria/ERC20Loteria.sol\":3839:4332  function transferFrom(address owner, address buyer, uint256 numTokens) public override returns(bool) {\r... */\n        tag_36:\n            /* \"Loteria/ERC20Loteria.sol\":3934:3938  bool */\n          0x00\n            /* \"Loteria/ERC20Loteria.sol\":3979:3988  numTokens */\n          dup2\n            /* \"Loteria/ERC20Loteria.sol\":3960:3968  balances */\n          0x00\n            /* \"Loteria/ERC20Loteria.sol\":3960:3975  balances[owner] */\n          dup1\n            /* \"Loteria/ERC20Loteria.sol\":3969:3974  owner */\n          dup7\n            /* \"Loteria/ERC20Loteria.sol\":3960:3975  balances[owner] */\n          0xffffffffffffffffffffffffffffffffffffffff\n          and\n          0xffffffffffffffffffffffffffffffffffffffff\n          and\n          dup2\n          mstore\n          0x20\n          add\n          swap1\n          dup2\n          mstore\n          0x20\n          add\n          0x00\n          keccak256\n          sload\n            /* \"Loteria/ERC20Loteria.sol\":3960:3988  balances[owner] >= numTokens */\n          lt\n          iszero\n            /* \"Loteria/ERC20Loteria.sol\":3951:3989  require (balances[owner] >= numTokens) */\n          tag_68\n          jumpi\n          0x00\n          dup1\n          revert\n        tag_68:\n            /* \"Loteria/ERC20Loteria.sol\":4039:4048  numTokens */\n          dup2\n            /* \"Loteria/ERC20Loteria.sol\":4009:4016  allowed */\n          0x01\n            /* \"Loteria/ERC20Loteria.sol\":4009:4023  allowed[owner] */\n          0x00\n            /* \"Loteria/ERC20Loteria.sol\":4017:4022  owner */\n          dup7\n            /* \"Loteria/ERC20Loteria.sol\":4009:4023  allowed[owner] */\n          0xffffffffffffffffffffffffffffffffffffffff\n          and\n          0xffffffffffffffffffffffffffffffffffffffff\n          and\n          dup2\n          mstore\n          0x20\n          add\n          swap1\n          dup2\n          mstore\n          0x20\n          add\n          0x00\n          keccak256\n            /* \"Loteria/ERC20Loteria.sol\":4009:4035  allowed[owner][msg.sender] */\n          0x00\n            /* \"Loteria/ERC20Loteria.sol\":4024:4034  msg.sender */\n          caller\n            /* \"Loteria/ERC20Loteria.sol\":4009:4035  allowed[owner][msg.sender] */\n          0xffffffffffffffffffffffffffffffffffffffff\n          and\n          0xffffffffffffffffffffffffffffffffffffffff\n          and\n          dup2\n          mstore\n          0x20\n          add\n          swap1\n          dup2\n          mstore\n          0x20\n          add\n          0x00\n          keccak256\n          sload\n            /* \"Loteria/ERC20Loteria.sol\":4009:4048  allowed[owner][msg.sender] >= numTokens */\n          lt\n          iszero\n            /* \"Loteria/ERC20Loteria.sol\":4000:4049  require (allowed[owner][msg.sender] >= numTokens) */\n          tag_69\n          jumpi\n          0x00\n          dup1\n          revert\n        tag_69:\n            /* \"Loteria/ERC20Loteria.sol\":4080:4110  balances[owner].sub(numTokens) */\n          tag_70\n            /* \"Loteria/ERC20Loteria.sol\":4100:4109  numTokens */\n          dup3\n            /* \"Loteria/ERC20Loteria.sol\":4080:4088  balances */\n          0x00\n            /* \"Loteria/ERC20Loteria.sol\":4080:4095  balances[owner] */\n          dup1\n            /* \"Loteria/ERC20Loteria.sol\":4089:4094  owner */\n          dup8\n            /* \"Loteria/ERC20Loteria.sol\":4080:4095  balances[owner] */\n          0xffffffffffffffffffffffffffffffffffffffff\n          and\n          0xffffffffffffffffffffffffffffffffffffffff\n          and\n          dup2\n          mstore\n          0x20\n          add\n          swap1\n          dup2\n          mstore\n          0x20\n          add\n          0x00\n          keccak256\n          sload\n            /* \"Loteria/ERC20Loteria.sol\":4080:4099  balances[owner].sub */\n          tag_71\n          swap1\n            /* \"Loteria/ERC20Loteria.sol\":4080:4110  balances[owner].sub(numTokens) */\n          swap2\n          swap1\n          0xffffffff\n          and\n          jump\t// in\n        tag_70:\n            /* \"Loteria/ERC20Loteria.sol\":4062:4070  balances */\n          0x00\n            /* \"Loteria/ERC20Loteria.sol\":4062:4077  balances[owner] */\n          dup1\n            /* \"Loteria/ERC20Loteria.sol\":4071:4076  owner */\n          dup7\n            /* \"Loteria/ERC20Loteria.sol\":4062:4077  balances[owner] */\n          0xffffffffffffffffffffffffffffffffffffffff\n          and\n          0xffffffffffffffffffffffffffffffffffffffff\n          and\n          dup2\n          mstore\n          0x20\n          add\n          swap1\n          dup2\n          mstore\n          0x20\n          add\n          0x00\n          keccak256\n            /* \"Loteria/ERC20Loteria.sol\":4062:4110  balances[owner] = balances[owner].sub(numTokens) */\n          dup2\n          swap1\n          sstore\n          pop\n            /* \"Loteria/ERC20Loteria.sol\":4150:4191  allowed[owner][msg.sender].sub(numTokens) */\n          tag_72\n            /* \"Loteria/ERC20Loteria.sol\":4181:4190  numTokens */\n          dup3\n            /* \"Loteria/ERC20Loteria.sol\":4150:4157  allowed */\n          0x01\n            /* \"Loteria/ERC20Loteria.sol\":4150:4164  allowed[owner] */\n          0x00\n            /* \"Loteria/ERC20Loteria.sol\":4158:4163  owner */\n          dup8\n            /* \"Loteria/ERC20Loteria.sol\":4150:4164  allowed[owner] */\n          0xffffffffffffffffffffffffffffffffffffffff\n          and\n          0xffffffffffffffffffffffffffffffffffffffff\n          and\n          dup2\n          mstore\n          0x20\n          add\n          swap1\n          dup2\n          mstore\n          0x20\n          add\n          0x00\n          keccak256\n            /* \"Loteria/ERC20Loteria.sol\":4150:4176  allowed[owner][msg.sender] */\n          0x00\n            /* \"Loteria/ERC20Loteria.sol\":4165:4175  msg.sender */\n          caller\n            /* \"Loteria/ERC20Loteria.sol\":4150:4176  allowed[owner][msg.sender] */\n          0xffffffffffffffffffffffffffffffffffffffff\n          and\n          0xffffffffffffffffffffffffffffffffffffffff\n          and\n          dup2\n          mstore\n          0x20\n          add\n          swap1\n          dup2\n          mstore\n          0x20\n          add\n          0x00\n          keccak256\n          sload\n            /* \"Loteria/ERC20Loteria.sol\":4150:4180  allowed[owner][msg.sender].sub */\n          tag_71\n          swap1\n            /* \"Loteria/ERC20Loteria.sol\":4150:4191  allowed[owner][msg.sender].sub(numTokens) */\n          swap2\n          swap1\n          0xffffffff\n          and\n          jump\t// in\n        tag_72:\n            /* \"Loteria/ERC20Loteria.sol\":4121:4128  allowed */\n          0x01\n            /* \"Loteria/ERC20Loteria.sol\":4121:4135  allowed[owner] */\n          0x00\n            /* \"Loteria/ERC20Loteria.sol\":4129:4134  owner */\n          dup7\n            /* \"Loteria/ERC20Loteria.sol\":4121:4135  allowed[owner] */\n          0xffffffffffffffffffffffffffffffffffffffff\n          and\n          0xffffffffffffffffffffffffffffffffffffffff\n          and\n          dup2\n          mstore\n          0x20\n          add\n          swap1\n          dup2\n          mstore\n          0x20\n          add\n          0x00\n          keccak256\n            /* \"Loteria/ERC20Loteria.sol\":4121:4147  allowed[owner][msg.sender] */\n          0x00\n            /* \"Loteria/ERC20Loteria.sol\":4136:4146  msg.sender */\n          caller\n            /* \"Loteria/ERC20Loteria.sol\":4121:4147  allowed[owner][msg.sender] */\n          0xffffffffffffffffffffffffffffffffffffffff\n          and\n          0xffffffffffffffffffffffffffffffffffffffff\n          and\n          dup2\n          mstore\n          0x20\n          add\n          swap1\n          dup2\n          mstore\n          0x20\n          add\n          0x00\n          keccak256\n            /* \"Loteria/ERC20Loteria.sol\":4121:4191  allowed[owner][msg.sender] = allowed[owner][msg.sender].sub(numTokens) */\n          dup2\n          swap1\n          sstore\n          pop\n            /* \"Loteria/ERC20Loteria.sol\":4220:4250  balances[buyer].add(numTokens) */\n          tag_73\n            /* \"Loteria/ERC20Loteria.sol\":4240:4249  numTokens */\n          dup3\n            /* \"Loteria/ERC20Loteria.sol\":4220:4228  balances */\n          0x00\n            /* \"Loteria/ERC20Loteria.sol\":4220:4235  balances[buyer] */\n          dup1\n            /* \"Loteria/ERC20Loteria.sol\":4229:4234  buyer */\n          dup7\n            /* \"Loteria/ERC20Loteria.sol\":4220:4235  balances[buyer] */\n          0xffffffffffffffffffffffffffffffffffffffff\n          and\n          0xffffffffffffffffffffffffffffffffffffffff\n          and\n          dup2\n          mstore\n          0x20\n          add\n          swap1\n          dup2\n          mstore\n          0x20\n          add\n          0x00\n          keccak256\n          sload\n            /* \"Loteria/ERC20Loteria.sol\":4220:4239  balances[buyer].add */\n          tag_74\n          swap1\n            /* \"Loteria/ERC20Loteria.sol\":4220:4250  balances[buyer].add(numTokens) */\n          swap2\n          swap1\n          0xffffffff\n          and\n          jump\t// in\n        tag_73:\n            /* \"Loteria/ERC20Loteria.sol\":4202:4210  balances */\n          0x00\n            /* \"Loteria/ERC20Loteria.sol\":4202:4217  balances[buyer] */\n          dup1\n            /* \"Loteria/ERC20Loteria.sol\":4211:4216  buyer */\n          dup6\n            /* \"Loteria/ERC20Loteria.sol\":4202:4217  balances[buyer] */\n          0xffffffffffffffffffffffffffffffffffffffff\n          and\n          0xffffffffffffffffffffffffffffffffffffffff\n          and\n          dup2\n          mstore\n          0x20\n          add\n          swap1\n          dup2\n          mstore\n          0x20\n          add\n          0x00\n          keccak256\n            /* \"Loteria/ERC20Loteria.sol\":4202:4250  balances[buyer] = balances[buyer].add(numTokens) */\n          dup2\n          swap1\n          sstore\n          pop\n            /* \"Loteria/ERC20Loteria.sol\":4284:4289  buyer */\n          dup3\n            /* \"Loteria/ERC20Loteria.sol\":4268:4301  Transfer(owner, buyer, numTokens) */\n          0xffffffffffffffffffffffffffffffffffffffff\n          and\n            /* \"Loteria/ERC20Loteria.sol\":4277:4282  owner */\n          dup5\n            /* \"Loteria/ERC20Loteria.sol\":4268:4301  Transfer(owner, buyer, numTokens) */\n          0xffffffffffffffffffffffffffffffffffffffff\n          and\n          0xddf252ad1be2c89b69c2b068fc378daa952ba7f163c4a11628f55a4df523b3ef\n            /* \"Loteria/ERC20Loteria.sol\":4291:4300  numTokens */\n          dup5\n            /* \"Loteria/ERC20Loteria.sol\":4268:4301  Transfer(owner, buyer, numTokens) */\n          mload(0x40)\n          tag_75\n          swap2\n          swap1\n          tag_28\n          jump\t// in\n        tag_75:\n          mload(0x40)\n          dup1\n          swap2\n          sub\n          swap1\n          log3\n            /* \"Loteria/ERC20Loteria.sol\":4320:4324  true */\n          0x01\n            /* \"Loteria/ERC20Loteria.sol\":4313:4324  return true */\n          swap1\n          pop\n            /* \"Loteria/ERC20Loteria.sol\":3839:4332  function transferFrom(address owner, address buyer, uint256 numTokens) public override returns(bool) {\r... */\n          swap4\n          swap3\n          pop\n          pop\n          pop\n          jump\t// out\n            /* \"Loteria/ERC20Loteria.sol\":1807:1842  uint8 public constant decimals = 18 */\n        tag_39:\n            /* \"Loteria/ERC20Loteria.sol\":1840:1842  18 */\n          0x12\n            /* \"Loteria/ERC20Loteria.sol\":1807:1842  uint8 public constant decimals = 18 */\n          dup2\n          jump\t// out\n            /* \"Loteria/ERC20Loteria.sol\":3216:3594  function transferLoteria(address emiter, address recipient, uint256 numTokens) public override returns(bool) {\r... */\n        tag_44:\n            /* \"Loteria/ERC20Loteria.sol\":3319:3323  bool */\n          0x00\n            /* \"Loteria/ERC20Loteria.sol\":3358:3366  balances */\n          dup1\n            /* \"Loteria/ERC20Loteria.sol\":3358:3374  balances[emiter] */\n          0x00\n            /* \"Loteria/ERC20Loteria.sol\":3367:3373  emiter */\n          dup6\n            /* \"Loteria/ERC20Loteria.sol\":3358:3374  balances[emiter] */\n          0xffffffffffffffffffffffffffffffffffffffff\n          and\n          0xffffffffffffffffffffffffffffffffffffffff\n          and\n          dup2\n          mstore\n          0x20\n          add\n          swap1\n          dup2\n          mstore\n          0x20\n          add\n          0x00\n          keccak256\n          sload\n            /* \"Loteria/ERC20Loteria.sol\":3345:3354  numTokens */\n          dup3\n            /* \"Loteria/ERC20Loteria.sol\":3345:3374  numTokens <= balances[emiter] */\n          gt\n          iszero\n            /* \"Loteria/ERC20Loteria.sol\":3336:3375  require (numTokens <= balances[emiter]) */\n          tag_77\n          jumpi\n          0x00\n          dup1\n          revert\n        tag_77:\n            /* \"Loteria/ERC20Loteria.sol\":3407:3438  balances[emiter].sub(numTokens) */\n          tag_78\n            /* \"Loteria/ERC20Loteria.sol\":3428:3437  numTokens */\n          dup3\n            /* \"Loteria/ERC20Loteria.sol\":3407:3415  balances */\n          0x00\n            /* \"Loteria/ERC20Loteria.sol\":3407:3423  balances[emiter] */\n          dup1\n            /* \"Loteria/ERC20Loteria.sol\":3416:3422  emiter */\n          dup8\n            /* \"Loteria/ERC20Loteria.sol\":3407:3423  balances[emiter] */\n          0xffffffffffffffffffffffffffffffffffffffff\n          and\n          0xffffffffffffffffffffffffffffffffffffffff\n          and\n          dup2\n          mstore\n          0x20\n          add\n          swap1\n          dup2\n          mstore\n          0x20\n          add\n          0x00\n          keccak256\n          sload\n            /* \"Loteria/ERC20Loteria.sol\":3407:3427  balances[emiter].sub */\n          tag_71\n          swap1\n            /* \"Loteria/ERC20Loteria.sol\":3407:3438  balances[emiter].sub(numTokens) */\n          swap2\n          swap1\n          0xffffffff\n          and\n          jump\t// in\n        tag_78:\n            /* \"Loteria/ERC20Loteria.sol\":3388:3396  balances */\n          0x00\n            /* \"Loteria/ERC20Loteria.sol\":3388:3404  balances[emiter] */\n          dup1\n            /* \"Loteria/ERC20Loteria.sol\":3397:3403  emiter */\n          dup7\n            /* \"Loteria/ERC20Loteria.sol\":3388:3404  balances[emiter] */\n          0xffffffffffffffffffffffffffffffffffffffff\n          and\n          0xffffffffffffffffffffffffffffffffffffffff\n          and\n          dup2\n          mstore\n          0x20\n          add\n          swap1\n          dup2\n          mstore\n          0x20\n          add\n          0x00\n          keccak256\n            /* \"Loteria/ERC20Loteria.sol\":3388:3438  balances[emiter] = balances[emiter].sub(numTokens) */\n          dup2\n          swap1\n          sstore\n          pop\n            /* \"Loteria/ERC20Loteria.sol\":3472:3506  balances[recipient].add(numTokens) */\n          tag_79\n            /* \"Loteria/ERC20Loteria.sol\":3496:3505  numTokens */\n          dup3\n            /* \"Loteria/ERC20Loteria.sol\":3472:3480  balances */\n          0x00\n            /* \"Loteria/ERC20Loteria.sol\":3472:3491  balances[recipient] */\n          dup1\n            /* \"Loteria/ERC20Loteria.sol\":3481:3490  recipient */\n          dup7\n            /* \"Loteria/ERC20Loteria.sol\":3472:3491  balances[recipient] */\n          0xffffffffffffffffffffffffffffffffffffffff\n          and\n          0xffffffffffffffffffffffffffffffffffffffff\n          and\n          dup2\n          mstore\n          0x20\n          add\n          swap1\n          dup2\n          mstore\n          0x20\n          add\n          0x00\n          keccak256\n          sload\n            /* \"Loteria/ERC20Loteria.sol\":3472:3495  balances[recipient].add */\n          tag_74\n          swap1\n            /* \"Loteria/ERC20Loteria.sol\":3472:3506  balances[recipient].add(numTokens) */\n          swap2\n          swap1\n          0xffffffff\n          and\n          jump\t// in\n        tag_79:\n            /* \"Loteria/ERC20Loteria.sol\":3450:3458  balances */\n          0x00\n            /* \"Loteria/ERC20Loteria.sol\":3450:3469  balances[recipient] */\n          dup1\n            /* \"Loteria/ERC20Loteria.sol\":3459:3468  recipient */\n          dup6\n            /* \"Loteria/ERC20Loteria.sol\":3450:3469  balances[recipient] */\n          0xffffffffffffffffffffffffffffffffffffffff\n          and\n          0xffffffffffffffffffffffffffffffffffffffff\n          and\n          dup2\n          mstore\n          0x20\n          add\n          swap1\n          dup2\n          mstore\n          0x20\n          add\n          0x00\n          keccak256\n            /* \"Loteria/ERC20Loteria.sol\":3450:3506  balances[recipient] = balances[recipient].add(numTokens) */\n          dup2\n          swap1\n          sstore\n          pop\n            /* \"Loteria/ERC20Loteria.sol\":3541:3550  recipient */\n          dup3\n            /* \"Loteria/ERC20Loteria.sol\":3524:3562  Transfer(emiter, recipient, numTokens) */\n          0xffffffffffffffffffffffffffffffffffffffff\n          and\n            /* \"Loteria/ERC20Loteria.sol\":3533:3539  emiter */\n          dup5\n            /* \"Loteria/ERC20Loteria.sol\":3524:3562  Transfer(emiter, recipient, numTokens) */\n          0xffffffffffffffffffffffffffffffffffffffff\n          and\n          0xddf252ad1be2c89b69c2b068fc378daa952ba7f163c4a11628f55a4df523b3ef\n            /* \"Loteria/ERC20Loteria.sol\":3552:3561  numTokens */\n          dup5\n            /* \"Loteria/ERC20Loteria.sol\":3524:3562  Transfer(emiter, recipient, numTokens) */\n          mload(0x40)\n          tag_80\n          swap2\n          swap1\n          tag_28\n          jump\t// in\n        tag_80:\n          mload(0x40)\n          dup1\n          swap2\n          sub\n          swap1\n          log3\n            /* \"Loteria/ERC20Loteria.sol\":3582:3586  true */\n          0x01\n            /* \"Loteria/ERC20Loteria.sol\":3575:3586  return true */\n          swap1\n          pop\n            /* \"Loteria/ERC20Loteria.sol\":3216:3594  function transferLoteria(address emiter, address recipient, uint256 numTokens) public override returns(bool) {\r... */\n          swap4\n          swap3\n          pop\n          pop\n          pop\n          jump\t// out\n            /* \"Loteria/ERC20Loteria.sol\":2564:2682  function balanceOf(address account) public override view returns (uint256) {\r... */\n        tag_49:\n            /* \"Loteria/ERC20Loteria.sol\":2630:2637  uint256 */\n          0x00\n            /* \"Loteria/ERC20Loteria.sol\":2657:2665  balances */\n          dup1\n            /* \"Loteria/ERC20Loteria.sol\":2657:2674  balances[account] */\n          0x00\n            /* \"Loteria/ERC20Loteria.sol\":2666:2673  account */\n          dup4\n            /* \"Loteria/ERC20Loteria.sol\":2657:2674  balances[account] */\n          0xffffffffffffffffffffffffffffffffffffffff\n          and\n          0xffffffffffffffffffffffffffffffffffffffff\n          and\n          dup2\n          mstore\n          0x20\n          add\n          swap1\n          dup2\n          mstore\n          0x20\n          add\n          0x00\n          keccak256\n          sload\n            /* \"Loteria/ERC20Loteria.sol\":2650:2674  return balances[account] */\n          swap1\n          pop\n            /* \"Loteria/ERC20Loteria.sol\":2564:2682  function balanceOf(address account) public override view returns (uint256) {\r... */\n          swap2\n          swap1\n          pop\n          jump\t// out\n            /* \"Loteria/ERC20Loteria.sol\":1763:1800  string public constant symbol = \"AKA\" */\n        tag_52:\n          mload(0x40)\n          dup1\n          0x40\n          add\n          0x40\n          mstore\n          dup1\n          0x03\n          dup2\n          mstore\n          0x20\n          add\n          0x414b410000000000000000000000000000000000000000000000000000000000\n          dup2\n          mstore\n          pop\n          dup2\n          jump\t// out\n            /* \"Loteria/ERC20Loteria.sol\":2837:3208  function transfer(address recipient, uint256 numTokens) public override returns(bool) {\r... */\n        tag_56:\n            /* \"Loteria/ERC20Loteria.sol\":2917:2921  bool */\n          0x00\n            /* \"Loteria/ERC20Loteria.sol\":2956:2964  balances */\n          dup1\n            /* \"Loteria/ERC20Loteria.sol\":2956:2976  balances[msg.sender] */\n          0x00\n            /* \"Loteria/ERC20Loteria.sol\":2965:2975  msg.sender */\n          caller\n            /* \"Loteria/ERC20Loteria.sol\":2956:2976  balances[msg.sender] */\n          0xffffffffffffffffffffffffffffffffffffffff\n          and\n          0xffffffffffffffffffffffffffffffffffffffff\n          and\n          dup2\n          mstore\n          0x20\n          add\n          swap1\n          dup2\n          mstore\n          0x20\n          add\n          0x00\n          keccak256\n          sload\n            /* \"Loteria/ERC20Loteria.sol\":2943:2952  numTokens */\n          dup3\n            /* \"Loteria/ERC20Loteria.sol\":2943:2976  numTokens <= balances[msg.sender] */\n          gt\n          iszero\n            /* \"Loteria/ERC20Loteria.sol\":2934:2977  require (numTokens <= balances[msg.sender]) */\n          tag_83\n          jumpi\n          0x00\n          dup1\n          revert\n        tag_83:\n            /* \"Loteria/ERC20Loteria.sol\":3013:3048  balances[msg.sender].sub(numTokens) */\n          tag_84\n            /* \"Loteria/ERC20Loteria.sol\":3038:3047  numTokens */\n          dup3\n            /* \"Loteria/ERC20Loteria.sol\":3013:3021  balances */\n          0x00\n            /* \"Loteria/ERC20Loteria.sol\":3013:3033  balances[msg.sender] */\n          dup1\n            /* \"Loteria/ERC20Loteria.sol\":3022:3032  msg.sender */\n          caller\n            /* \"Loteria/ERC20Loteria.sol\":3013:3033  balances[msg.sender] */\n          0xffffffffffffffffffffffffffffffffffffffff\n          and\n          0xffffffffffffffffffffffffffffffffffffffff\n          and\n          dup2\n          mstore\n          0x20\n          add\n          swap1\n          dup2\n          mstore\n          0x20\n          add\n          0x00\n          keccak256\n          sload\n            /* \"Loteria/ERC20Loteria.sol\":3013:3037  balances[msg.sender].sub */\n          tag_71\n          swap1\n            /* \"Loteria/ERC20Loteria.sol\":3013:3048  balances[msg.sender].sub(numTokens) */\n          swap2\n          swap1\n          0xffffffff\n          and\n          jump\t// in\n        tag_84:\n            /* \"Loteria/ERC20Loteria.sol\":2990:2998  balances */\n          0x00\n            /* \"Loteria/ERC20Loteria.sol\":2990:3010  balances[msg.sender] */\n          dup1\n            /* \"Loteria/ERC20Loteria.sol\":2999:3009  msg.sender */\n          caller\n            /* \"Loteria/ERC20Loteria.sol\":2990:3010  balances[msg.sender] */\n          0xffffffffffffffffffffffffffffffffffffffff\n          and\n          0xffffffffffffffffffffffffffffffffffffffff\n          and\n          dup2\n          mstore\n          0x20\n          add\n          swap1\n          dup2\n          mstore\n          0x20\n          add\n          0x00\n          keccak256\n            /* \"Loteria/ERC20Loteria.sol\":2990:3048  balances[msg.sender] = balances[msg.sender].sub(numTokens) */\n          dup2\n          swap1\n          sstore\n          pop\n            /* \"Loteria/ERC20Loteria.sol\":3082:3116  balances[recipient].add(numTokens) */\n          tag_85\n            /* \"Loteria/ERC20Loteria.sol\":3106:3115  numTokens */\n          dup3\n            /* \"Loteria/ERC20Loteria.sol\":3082:3090  balances */\n          0x00\n            /* \"Loteria/ERC20Loteria.sol\":3082:3101  balances[recipient] */\n          dup1\n            /* \"Loteria/ERC20Loteria.sol\":3091:3100  recipient */\n          dup7\n            /* \"Loteria/ERC20Loteria.sol\":3082:3101  balances[recipient] */\n          0xffffffffffffffffffffffffffffffffffffffff\n          and\n          0xffffffffffffffffffffffffffffffffffffffff\n          and\n          dup2\n          mstore\n          0x20\n          add\n          swap1\n          dup2\n          mstore\n          0x20\n          add\n          0x00\n          keccak256\n          sload\n            /* \"Loteria/ERC20Loteria.sol\":3082:3105  balances[recipient].add */\n          tag_74\n          swap1\n            /* \"Loteria/ERC20Loteria.sol\":3082:3116  balances[recipient].add(numTokens) */\n          swap2\n          swap1\n          0xffffffff\n          and\n          jump\t// in\n        tag_85:\n            /* \"Loteria/ERC20Loteria.sol\":3060:3068  balances */\n          0x00\n            /* \"Loteria/ERC20Loteria.sol\":3060:3079  balances[recipient] */\n          dup1\n            /* \"Loteria/ERC20Loteria.sol\":3069:3078  recipient */\n          dup6\n            /* \"Loteria/ERC20Loteria.sol\":3060:3079  balances[recipient] */\n          0xffffffffffffffffffffffffffffffffffffffff\n          and\n          0xffffffffffffffffffffffffffffffffffffffff\n          and\n          dup2\n          mstore\n          0x20\n          add\n          swap1\n          dup2\n          mstore\n          0x20\n          add\n          0x00\n          keccak256\n            /* \"Loteria/ERC20Loteria.sol\":3060:3116  balances[recipient] = balances[recipient].add(numTokens) */\n          dup2\n          swap1\n          sstore\n          pop\n            /* \"Loteria/ERC20Loteria.sol\":3155:3164  recipient */\n          dup3\n            /* \"Loteria/ERC20Loteria.sol\":3134:3176  Transfer(msg.sender, recipient, numTokens) */\n          0xffffffffffffffffffffffffffffffffffffffff\n          and\n            /* \"Loteria/ERC20Loteria.sol\":3143:3153  msg.sender */\n          caller\n            /* \"Loteria/ERC20Loteria.sol\":3134:3176  Transfer(msg.sender, recipient, numTokens) */\n          0xffffffffffffffffffffffffffffffffffffffff\n          and\n          0xddf252ad1be2c89b69c2b068fc378daa952ba7f163c4a11628f55a4df523b3ef\n            /* \"Loteria/ERC20Loteria.sol\":3166:3175  numTokens */\n          dup5\n            /* \"Loteria/ERC20Loteria.sol\":3134:3176  Transfer(msg.sender, recipient, numTokens) */\n          mload(0x40)\n          tag_86\n          swap2\n          swap1\n          tag_28\n          jump\t// in\n        tag_86:\n          mload(0x40)\n          dup1\n          swap2\n          sub\n          swap1\n          log3\n            /* \"Loteria/ERC20Loteria.sol\":3196:3200  true */\n          0x01\n            /* \"Loteria/ERC20Loteria.sol\":3189:3200  return true */\n          swap1\n          pop\n            /* \"Loteria/ERC20Loteria.sol\":2837:3208  function transfer(address recipient, uint256 numTokens) public override returns(bool) {\r... */\n          swap3\n          swap2\n          pop\n          pop\n          jump\t// out\n            /* \"Loteria/ERC20Loteria.sol\":2690:2829  function allowance(address owner, address spender) public override view returns (uint256) {\r... */\n        tag_61:\n            /* \"Loteria/ERC20Loteria.sol\":2771:2778  uint256 */\n          0x00\n            /* \"Loteria/ERC20Loteria.sol\":2798:2805  allowed */\n          0x01\n            /* \"Loteria/ERC20Loteria.sol\":2798:2812  allowed[owner] */\n          0x00\n            /* \"Loteria/ERC20Loteria.sol\":2806:2811  owner */\n          dup5\n            /* \"Loteria/ERC20Loteria.sol\":2798:2812  allowed[owner] */\n          0xffffffffffffffffffffffffffffffffffffffff\n          and\n          0xffffffffffffffffffffffffffffffffffffffff\n          and\n          dup2\n          mstore\n          0x20\n          add\n          swap1\n          dup2\n          mstore\n          0x20\n          add\n          0x00\n          keccak256\n            /* \"Loteria/ERC20Loteria.sol\":2798:2821  allowed[owner][spender] */\n          0x00\n            /* \"Loteria/ERC20Loteria.sol\":2813:2820  spender */\n          dup4\n            /* \"Loteria/ERC20Loteria.sol\":2798:2821  allowed[owner][spender] */\n          0xffffffffffffffffffffffffffffffffffffffff\n          and\n          0xffffffffffffffffffffffffffffffffffffffff\n          and\n          dup2\n          mstore\n          0x20\n          add\n          swap1\n          dup2\n          mstore\n          0x20\n          add\n          0x00\n          keccak256\n          sload\n            /* \"Loteria/ERC20Loteria.sol\":2791:2821  return allowed[owner][spender] */\n          swap1\n          pop\n            /* \"Loteria/ERC20Loteria.sol\":2690:2829  function allowance(address owner, address spender) public override view returns (uint256) {\r... */\n          swap3\n          swap2\n          pop\n          pop\n          jump\t// out\n            /* \"Loteria/SafeMath.sol\":318:437  function sub(uint256 a, uint256 b) internal pure returns (uint256) {\r... */\n        tag_71:\n            /* \"Loteria/SafeMath.sol\":376:383  uint256 */\n          0x00\n            /* \"Loteria/SafeMath.sol\":406:407  a */\n          dup3\n            /* \"Loteria/SafeMath.sol\":401:402  b */\n          dup3\n            /* \"Loteria/SafeMath.sol\":401:407  b <= a */\n          gt\n          iszero\n            /* \"Loteria/SafeMath.sol\":394:408  assert(b <= a) */\n          tag_89\n          jumpi\n          invalid\n        tag_89:\n            /* \"Loteria/SafeMath.sol\":428:429  b */\n          dup2\n            /* \"Loteria/SafeMath.sol\":424:425  a */\n          dup4\n            /* \"Loteria/SafeMath.sol\":424:429  a - b */\n          sub\n            /* \"Loteria/SafeMath.sol\":417:429  return a - b */\n          swap1\n          pop\n            /* \"Loteria/SafeMath.sol\":318:437  function sub(uint256 a, uint256 b) internal pure returns (uint256) {\r... */\n          swap3\n          swap2\n          pop\n          pop\n          jump\t// out\n            /* \"Loteria/SafeMath.sol\":463:604  function add(uint256 a, uint256 b) internal pure returns (uint256) {\r... */\n        tag_74:\n            /* \"Loteria/SafeMath.sol\":521:528  uint256 */\n          0x00\n            /* \"Loteria/SafeMath.sol\":539:548  uint256 c */\n          dup1\n            /* \"Loteria/SafeMath.sol\":555:556  b */\n          dup3\n            /* \"Loteria/SafeMath.sol\":551:552  a */\n          dup5\n            /* \"Loteria/SafeMath.sol\":551:556  a + b */\n          add\n            /* \"Loteria/SafeMath.sol\":539:556  uint256 c = a + b */\n          swap1\n          pop\n            /* \"Loteria/SafeMath.sol\":577:578  a */\n          dup4\n            /* \"Loteria/SafeMath.sol\":572:573  c */\n          dup2\n            /* \"Loteria/SafeMath.sol\":572:578  c >= a */\n          lt\n          iszero\n            /* \"Loteria/SafeMath.sol\":565:579  assert(c >= a) */\n          tag_91\n          jumpi\n          invalid\n        tag_91:\n            /* \"Loteria/SafeMath.sol\":595:596  c */\n          dup1\n            /* \"Loteria/SafeMath.sol\":588:596  return c */\n          swap2\n          pop\n          pop\n            /* \"Loteria/SafeMath.sol\":463:604  function add(uint256 a, uint256 b) internal pure returns (uint256) {\r... */\n          swap3\n          swap2\n          pop\n          pop\n          jump\t// out\n            /* \"--CODEGEN--\":5:135   */\n        tag_93:\n          0x00\n            /* \"--CODEGEN--\":85:91   */\n          dup2\n            /* \"--CODEGEN--\":72:92   */\n          calldataload\n            /* \"--CODEGEN--\":63:92   */\n          swap1\n          pop\n            /* \"--CODEGEN--\":97:130   */\n          tag_95\n            /* \"--CODEGEN--\":124:129   */\n          dup2\n            /* \"--CODEGEN--\":97:130   */\n          tag_96\n          jump\t// in\n        tag_95:\n            /* \"--CODEGEN--\":57:135   */\n          swap3\n          swap2\n          pop\n          pop\n          jump\t// out\n            /* \"--CODEGEN--\":142:272   */\n        tag_97:\n          0x00\n            /* \"--CODEGEN--\":222:228   */\n          dup2\n            /* \"--CODEGEN--\":209:229   */\n          calldataload\n            /* \"--CODEGEN--\":200:229   */\n          swap1\n          pop\n            /* \"--CODEGEN--\":234:267   */\n          tag_99\n            /* \"--CODEGEN--\":261:266   */\n          dup2\n            /* \"--CODEGEN--\":234:267   */\n          tag_100\n          jump\t// in\n        tag_99:\n            /* \"--CODEGEN--\":194:272   */\n          swap3\n          swap2\n          pop\n          pop\n          jump\t// out\n            /* \"--CODEGEN--\":279:520   */\n        tag_48:\n          0x00\n            /* \"--CODEGEN--\":383:385   */\n          0x20\n            /* \"--CODEGEN--\":371:380   */\n          dup3\n            /* \"--CODEGEN--\":362:369   */\n          dup5\n            /* \"--CODEGEN--\":358:381   */\n          sub\n            /* \"--CODEGEN--\":354:386   */\n          slt\n            /* \"--CODEGEN--\":351:353   */\n          iszero\n          tag_102\n          jumpi\n            /* \"--CODEGEN--\":399:400   */\n          0x00\n            /* \"--CODEGEN--\":396:397   */\n          dup1\n            /* \"--CODEGEN--\":389:401   */\n          revert\n            /* \"--CODEGEN--\":351:353   */\n        tag_102:\n            /* \"--CODEGEN--\":434:435   */\n          0x00\n            /* \"--CODEGEN--\":451:504   */\n          tag_103\n            /* \"--CODEGEN--\":496:503   */\n          dup5\n            /* \"--CODEGEN--\":487:493   */\n          dup3\n            /* \"--CODEGEN--\":476:485   */\n          dup6\n            /* \"--CODEGEN--\":472:494   */\n          add\n            /* \"--CODEGEN--\":451:504   */\n          tag_93\n          jump\t// in\n        tag_103:\n            /* \"--CODEGEN--\":441:504   */\n          swap2\n          pop\n            /* \"--CODEGEN--\":413:510   */\n          pop\n            /* \"--CODEGEN--\":345:520   */\n          swap3\n          swap2\n          pop\n          pop\n          jump\t// out\n            /* \"--CODEGEN--\":527:893   */\n        tag_60:\n          0x00\n          dup1\n            /* \"--CODEGEN--\":648:650   */\n          0x40\n            /* \"--CODEGEN--\":636:645   */\n          dup4\n            /* \"--CODEGEN--\":627:634   */\n          dup6\n            /* \"--CODEGEN--\":623:646   */\n          sub\n            /* \"--CODEGEN--\":619:651   */\n          slt\n            /* \"--CODEGEN--\":616:618   */\n          iszero\n          tag_105\n          jumpi\n            /* \"--CODEGEN--\":664:665   */\n          0x00\n            /* \"--CODEGEN--\":661:662   */\n          dup1\n            /* \"--CODEGEN--\":654:666   */\n          revert\n            /* \"--CODEGEN--\":616:618   */\n        tag_105:\n            /* \"--CODEGEN--\":699:700   */\n          0x00\n            /* \"--CODEGEN--\":716:769   */\n          tag_106\n            /* \"--CODEGEN--\":761:768   */\n          dup6\n            /* \"--CODEGEN--\":752:758   */\n          dup3\n            /* \"--CODEGEN--\":741:750   */\n          dup7\n            /* \"--CODEGEN--\":737:759   */\n          add\n            /* \"--CODEGEN--\":716:769   */\n          tag_93\n          jump\t// in\n        tag_106:\n            /* \"--CODEGEN--\":706:769   */\n          swap3\n          pop\n            /* \"--CODEGEN--\":678:775   */\n          pop\n            /* \"--CODEGEN--\":806:808   */\n          0x20\n            /* \"--CODEGEN--\":824:877   */\n          tag_107\n            /* \"--CODEGEN--\":869:876   */\n          dup6\n            /* \"--CODEGEN--\":860:866   */\n          dup3\n            /* \"--CODEGEN--\":849:858   */\n          dup7\n            /* \"--CODEGEN--\":845:867   */\n          add\n            /* \"--CODEGEN--\":824:877   */\n          tag_93\n          jump\t// in\n        tag_107:\n            /* \"--CODEGEN--\":814:877   */\n          swap2\n          pop\n            /* \"--CODEGEN--\":785:883   */\n          pop\n            /* \"--CODEGEN--\":610:893   */\n          swap3\n          pop\n          swap3\n          swap1\n          pop\n          jump\t// out\n            /* \"--CODEGEN--\":900:1391   */\n        tag_35:\n          0x00\n          dup1\n          0x00\n            /* \"--CODEGEN--\":1038:1040   */\n          0x60\n            /* \"--CODEGEN--\":1026:1035   */\n          dup5\n            /* \"--CODEGEN--\":1017:1024   */\n          dup7\n            /* \"--CODEGEN--\":1013:1036   */\n          sub\n            /* \"--CODEGEN--\":1009:1041   */\n          slt\n            /* \"--CODEGEN--\":1006:1008   */\n          iszero\n          tag_109\n          jumpi\n            /* \"--CODEGEN--\":1054:1055   */\n          0x00\n            /* \"--CODEGEN--\":1051:1052   */\n          dup1\n            /* \"--CODEGEN--\":1044:1056   */\n          revert\n            /* \"--CODEGEN--\":1006:1008   */\n        tag_109:\n            /* \"--CODEGEN--\":1089:1090   */\n          0x00\n            /* \"--CODEGEN--\":1106:1159   */\n          tag_110\n            /* \"--CODEGEN--\":1151:1158   */\n          dup7\n            /* \"--CODEGEN--\":1142:1148   */\n          dup3\n            /* \"--CODEGEN--\":1131:1140   */\n          dup8\n            /* \"--CODEGEN--\":1127:1149   */\n          add\n            /* \"--CODEGEN--\":1106:1159   */\n          tag_93\n          jump\t// in\n        tag_110:\n            /* \"--CODEGEN--\":1096:1159   */\n          swap4\n          pop\n            /* \"--CODEGEN--\":1068:1165   */\n          pop\n            /* \"--CODEGEN--\":1196:1198   */\n          0x20\n            /* \"--CODEGEN--\":1214:1267   */\n          tag_111\n            /* \"--CODEGEN--\":1259:1266   */\n          dup7\n            /* \"--CODEGEN--\":1250:1256   */\n          dup3\n            /* \"--CODEGEN--\":1239:1248   */\n          dup8\n            /* \"--CODEGEN--\":1235:1257   */\n          add\n            /* \"--CODEGEN--\":1214:1267   */\n          tag_93\n          jump\t// in\n        tag_111:\n            /* \"--CODEGEN--\":1204:1267   */\n          swap3\n          pop\n            /* \"--CODEGEN--\":1175:1273   */\n          pop\n            /* \"--CODEGEN--\":1304:1306   */\n          0x40\n            /* \"--CODEGEN--\":1322:1375   */\n          tag_112\n            /* \"--CODEGEN--\":1367:1374   */\n          dup7\n            /* \"--CODEGEN--\":1358:1364   */\n          dup3\n            /* \"--CODEGEN--\":1347:1356   */\n          dup8\n            /* \"--CODEGEN--\":1343:1365   */\n          add\n            /* \"--CODEGEN--\":1322:1375   */\n          tag_97\n          jump\t// in\n        tag_112:\n            /* \"--CODEGEN--\":1312:1375   */\n          swap2\n          pop\n            /* \"--CODEGEN--\":1283:1381   */\n          pop\n            /* \"--CODEGEN--\":1000:1391   */\n          swap3\n          pop\n          swap3\n          pop\n          swap3\n          jump\t// out\n            /* \"--CODEGEN--\":1398:1764   */\n        tag_21:\n          0x00\n          dup1\n            /* \"--CODEGEN--\":1519:1521   */\n          0x40\n            /* \"--CODEGEN--\":1507:1516   */\n          dup4\n            /* \"--CODEGEN--\":1498:1505   */\n          dup6\n            /* \"--CODEGEN--\":1494:1517   */\n          sub\n            /* \"--CODEGEN--\":1490:1522   */\n          slt\n            /* \"--CODEGEN--\":1487:1489   */\n          iszero\n          tag_114\n          jumpi\n            /* \"--CODEGEN--\":1535:1536   */\n          0x00\n            /* \"--CODEGEN--\":1532:1533   */\n          dup1\n            /* \"--CODEGEN--\":1525:1537   */\n          revert\n            /* \"--CODEGEN--\":1487:1489   */\n        tag_114:\n            /* \"--CODEGEN--\":1570:1571   */\n          0x00\n            /* \"--CODEGEN--\":1587:1640   */\n          tag_115\n            /* \"--CODEGEN--\":1632:1639   */\n          dup6\n            /* \"--CODEGEN--\":1623:1629   */\n          dup3\n            /* \"--CODEGEN--\":1612:1621   */\n          dup7\n            /* \"--CODEGEN--\":1608:1630   */\n          add\n            /* \"--CODEGEN--\":1587:1640   */\n          tag_93\n          jump\t// in\n        tag_115:\n            /* \"--CODEGEN--\":1577:1640   */\n          swap3\n          pop\n            /* \"--CODEGEN--\":1549:1646   */\n          pop\n            /* \"--CODEGEN--\":1677:1679   */\n          0x20\n            /* \"--CODEGEN--\":1695:1748   */\n          tag_116\n            /* \"--CODEGEN--\":1740:1747   */\n          dup6\n            /* \"--CODEGEN--\":1731:1737   */\n          dup3\n            /* \"--CODEGEN--\":1720:1729   */\n          dup7\n            /* \"--CODEGEN--\":1716:1738   */\n          add\n            /* \"--CODEGEN--\":1695:1748   */\n          tag_97\n          jump\t// in\n        tag_116:\n            /* \"--CODEGEN--\":1685:1748   */\n          swap2\n          pop\n            /* \"--CODEGEN--\":1656:1754   */\n          pop\n            /* \"--CODEGEN--\":1481:1764   */\n          swap3\n          pop\n          swap3\n          swap1\n          pop\n          jump\t// out\n            /* \"--CODEGEN--\":1771:2012   */\n        tag_31:\n          0x00\n            /* \"--CODEGEN--\":1875:1877   */\n          0x20\n            /* \"--CODEGEN--\":1863:1872   */\n          dup3\n            /* \"--CODEGEN--\":1854:1861   */\n          dup5\n            /* \"--CODEGEN--\":1850:1873   */\n          sub\n            /* \"--CODEGEN--\":1846:1878   */\n          slt\n            /* \"--CODEGEN--\":1843:1845   */\n          iszero\n          tag_118\n          jumpi\n            /* \"--CODEGEN--\":1891:1892   */\n          0x00\n            /* \"--CODEGEN--\":1888:1889   */\n          dup1\n            /* \"--CODEGEN--\":1881:1893   */\n          revert\n            /* \"--CODEGEN--\":1843:1845   */\n        tag_118:\n            /* \"--CODEGEN--\":1926:1927   */\n          0x00\n            /* \"--CODEGEN--\":1943:1996   */\n          tag_119\n            /* \"--CODEGEN--\":1988:1995   */\n          dup5\n            /* \"--CODEGEN--\":1979:1985   */\n          dup3\n            /* \"--CODEGEN--\":1968:1977   */\n          dup6\n            /* \"--CODEGEN--\":1964:1986   */\n          add\n            /* \"--CODEGEN--\":1943:1996   */\n          tag_97\n          jump\t// in\n        tag_119:\n            /* \"--CODEGEN--\":1933:1996   */\n          swap2\n          pop\n            /* \"--CODEGEN--\":1905:2002   */\n          pop\n            /* \"--CODEGEN--\":1837:2012   */\n          swap3\n          swap2\n          pop\n          pop\n          jump\t// out\n            /* \"--CODEGEN--\":2019:2123   */\n        tag_120:\n            /* \"--CODEGEN--\":2096:2117   */\n          tag_122\n            /* \"--CODEGEN--\":2111:2116   */\n          dup2\n            /* \"--CODEGEN--\":2096:2117   */\n          tag_123\n          jump\t// in\n        tag_122:\n            /* \"--CODEGEN--\":2091:2094   */\n          dup3\n            /* \"--CODEGEN--\":2084:2118   */\n          mstore\n            /* \"--CODEGEN--\":2078:2123   */\n          pop\n          pop\n          jump\t// out\n            /* \"--CODEGEN--\":2130:2477   */\n        tag_124:\n          0x00\n            /* \"--CODEGEN--\":2242:2281   */\n          tag_126\n            /* \"--CODEGEN--\":2275:2280   */\n          dup3\n            /* \"--CODEGEN--\":2242:2281   */\n          tag_127\n          jump\t// in\n        tag_126:\n            /* \"--CODEGEN--\":2293:2364   */\n          tag_128\n            /* \"--CODEGEN--\":2357:2363   */\n          dup2\n            /* \"--CODEGEN--\":2352:2355   */\n          dup6\n            /* \"--CODEGEN--\":2293:2364   */\n          tag_129\n          jump\t// in\n        tag_128:\n            /* \"--CODEGEN--\":2286:2364   */\n          swap4\n          pop\n            /* \"--CODEGEN--\":2369:2421   */\n          tag_130\n            /* \"--CODEGEN--\":2414:2420   */\n          dup2\n            /* \"--CODEGEN--\":2409:2412   */\n          dup6\n            /* \"--CODEGEN--\":2402:2406   */\n          0x20\n            /* \"--CODEGEN--\":2395:2400   */\n          dup7\n            /* \"--CODEGEN--\":2391:2407   */\n          add\n            /* \"--CODEGEN--\":2369:2421   */\n          tag_131\n          jump\t// in\n        tag_130:\n            /* \"--CODEGEN--\":2442:2471   */\n          tag_132\n            /* \"--CODEGEN--\":2464:2470   */\n          dup2\n            /* \"--CODEGEN--\":2442:2471   */\n          tag_133\n          jump\t// in\n        tag_132:\n            /* \"--CODEGEN--\":2437:2440   */\n          dup5\n            /* \"--CODEGEN--\":2433:2472   */\n          add\n            /* \"--CODEGEN--\":2426:2472   */\n          swap2\n          pop\n            /* \"--CODEGEN--\":2222:2477   */\n          pop\n          swap3\n          swap2\n          pop\n          pop\n          jump\t// out\n            /* \"--CODEGEN--\":2484:2597   */\n        tag_134:\n            /* \"--CODEGEN--\":2567:2591   */\n          tag_136\n            /* \"--CODEGEN--\":2585:2590   */\n          dup2\n            /* \"--CODEGEN--\":2567:2591   */\n          tag_137\n          jump\t// in\n        tag_136:\n            /* \"--CODEGEN--\":2562:2565   */\n          dup3\n            /* \"--CODEGEN--\":2555:2592   */\n          mstore\n            /* \"--CODEGEN--\":2549:2597   */\n          pop\n          pop\n          jump\t// out\n            /* \"--CODEGEN--\":2604:2711   */\n        tag_138:\n            /* \"--CODEGEN--\":2683:2705   */\n          tag_140\n            /* \"--CODEGEN--\":2699:2704   */\n          dup2\n            /* \"--CODEGEN--\":2683:2705   */\n          tag_141\n          jump\t// in\n        tag_140:\n            /* \"--CODEGEN--\":2678:2681   */\n          dup3\n            /* \"--CODEGEN--\":2671:2706   */\n          mstore\n            /* \"--CODEGEN--\":2665:2711   */\n          pop\n          pop\n          jump\t// out\n            /* \"--CODEGEN--\":2718:2928   */\n        tag_24:\n          0x00\n            /* \"--CODEGEN--\":2839:2841   */\n          0x20\n            /* \"--CODEGEN--\":2828:2837   */\n          dup3\n            /* \"--CODEGEN--\":2824:2842   */\n          add\n            /* \"--CODEGEN--\":2816:2842   */\n          swap1\n          pop\n            /* \"--CODEGEN--\":2853:2918   */\n          tag_143\n            /* \"--CODEGEN--\":2915:2916   */\n          0x00\n            /* \"--CODEGEN--\":2904:2913   */\n          dup4\n            /* \"--CODEGEN--\":2900:2917   */\n          add\n            /* \"--CODEGEN--\":2891:2897   */\n          dup5\n            /* \"--CODEGEN--\":2853:2918   */\n          tag_120\n          jump\t// in\n        tag_143:\n            /* \"--CODEGEN--\":2810:2928   */\n          swap3\n          swap2\n          pop\n          pop\n          jump\t// out\n            /* \"--CODEGEN--\":2935:3245   */\n        tag_18:\n          0x00\n            /* \"--CODEGEN--\":3082:3084   */\n          0x20\n            /* \"--CODEGEN--\":3071:3080   */\n          dup3\n            /* \"--CODEGEN--\":3067:3085   */\n          add\n            /* \"--CODEGEN--\":3059:3085   */\n          swap1\n          pop\n            /* \"--CODEGEN--\":3132:3141   */\n          dup2\n            /* \"--CODEGEN--\":3126:3130   */\n          dup2\n            /* \"--CODEGEN--\":3122:3142   */\n          sub\n            /* \"--CODEGEN--\":3118:3119   */\n          0x00\n            /* \"--CODEGEN--\":3107:3116   */\n          dup4\n            /* \"--CODEGEN--\":3103:3120   */\n          add\n            /* \"--CODEGEN--\":3096:3143   */\n          mstore\n            /* \"--CODEGEN--\":3157:3235   */\n          tag_145\n            /* \"--CODEGEN--\":3230:3234   */\n          dup2\n            /* \"--CODEGEN--\":3221:3227   */\n          dup5\n            /* \"--CODEGEN--\":3157:3235   */\n          tag_124\n          jump\t// in\n        tag_145:\n            /* \"--CODEGEN--\":3149:3235   */\n          swap1\n          pop\n            /* \"--CODEGEN--\":3053:3245   */\n          swap3\n          swap2\n          pop\n          pop\n          jump\t// out\n            /* \"--CODEGEN--\":3252:3474   */\n        tag_28:\n          0x00\n            /* \"--CODEGEN--\":3379:3381   */\n          0x20\n            /* \"--CODEGEN--\":3368:3377   */\n          dup3\n            /* \"--CODEGEN--\":3364:3382   */\n          add\n            /* \"--CODEGEN--\":3356:3382   */\n          swap1\n          pop\n            /* \"--CODEGEN--\":3393:3464   */\n          tag_147\n            /* \"--CODEGEN--\":3461:3462   */\n          0x00\n            /* \"--CODEGEN--\":3450:3459   */\n          dup4\n            /* \"--CODEGEN--\":3446:3463   */\n          add\n            /* \"--CODEGEN--\":3437:3443   */\n          dup5\n            /* \"--CODEGEN--\":3393:3464   */\n          tag_134\n          jump\t// in\n        tag_147:\n            /* \"--CODEGEN--\":3350:3474   */\n          swap3\n          swap2\n          pop\n          pop\n          jump\t// out\n            /* \"--CODEGEN--\":3481:3695   */\n        tag_41:\n          0x00\n            /* \"--CODEGEN--\":3604:3606   */\n          0x20\n            /* \"--CODEGEN--\":3593:3602   */\n          dup3\n            /* \"--CODEGEN--\":3589:3607   */\n          add\n            /* \"--CODEGEN--\":3581:3607   */\n          swap1\n          pop\n            /* \"--CODEGEN--\":3618:3685   */\n          tag_149\n            /* \"--CODEGEN--\":3682:3683   */\n          0x00\n            /* \"--CODEGEN--\":3671:3680   */\n          dup4\n            /* \"--CODEGEN--\":3667:3684   */\n          add\n            /* \"--CODEGEN--\":3658:3664   */\n          dup5\n            /* \"--CODEGEN--\":3618:3685   */\n          tag_138\n          jump\t// in\n        tag_149:\n            /* \"--CODEGEN--\":3575:3695   */\n          swap3\n          swap2\n          pop\n          pop\n          jump\t// out\n            /* \"--CODEGEN--\":3702:3824   */\n        tag_127:\n          0x00\n            /* \"--CODEGEN--\":3796:3801   */\n          dup2\n            /* \"--CODEGEN--\":3790:3802   */\n          mload\n            /* \"--CODEGEN--\":3780:3802   */\n          swap1\n          pop\n            /* \"--CODEGEN--\":3761:3824   */\n          swap2\n          swap1\n          pop\n          jump\t// out\n            /* \"--CODEGEN--\":3832:3995   */\n        tag_129:\n          0x00\n            /* \"--CODEGEN--\":3947:3953   */\n          dup3\n            /* \"--CODEGEN--\":3942:3945   */\n          dup3\n            /* \"--CODEGEN--\":3935:3954   */\n          mstore\n            /* \"--CODEGEN--\":3984:3988   */\n          0x20\n            /* \"--CODEGEN--\":3979:3982   */\n          dup3\n            /* \"--CODEGEN--\":3975:3989   */\n          add\n            /* \"--CODEGEN--\":3960:3989   */\n          swap1\n          pop\n            /* \"--CODEGEN--\":3928:3995   */\n          swap3\n          swap2\n          pop\n          pop\n          jump\t// out\n            /* \"--CODEGEN--\":4003:4094   */\n        tag_152:\n          0x00\n            /* \"--CODEGEN--\":4065:4089   */\n          tag_154\n            /* \"--CODEGEN--\":4083:4088   */\n          dup3\n            /* \"--CODEGEN--\":4065:4089   */\n          tag_155\n          jump\t// in\n        tag_154:\n            /* \"--CODEGEN--\":4054:4089   */\n          swap1\n          pop\n            /* \"--CODEGEN--\":4048:4094   */\n          swap2\n          swap1\n          pop\n          jump\t// out\n            /* \"--CODEGEN--\":4101:4186   */\n        tag_123:\n          0x00\n            /* \"--CODEGEN--\":4174:4179   */\n          dup2\n            /* \"--CODEGEN--\":4167:4180   */\n          iszero\n            /* \"--CODEGEN--\":4160:4181   */\n          iszero\n            /* \"--CODEGEN--\":4149:4181   */\n          swap1\n          pop\n            /* \"--CODEGEN--\":4143:4186   */\n          swap2\n          swap1\n          pop\n          jump\t// out\n            /* \"--CODEGEN--\":4193:4314   */\n        tag_155:\n          0x00\n            /* \"--CODEGEN--\":4266:4308   */\n          0xffffffffffffffffffffffffffffffffffffffff\n            /* \"--CODEGEN--\":4259:4264   */\n          dup3\n            /* \"--CODEGEN--\":4255:4309   */\n          and\n            /* \"--CODEGEN--\":4244:4309   */\n          swap1\n          pop\n            /* \"--CODEGEN--\":4238:4314   */\n          swap2\n          swap1\n          pop\n          jump\t// out\n            /* \"--CODEGEN--\":4321:4393   */\n        tag_137:\n          0x00\n            /* \"--CODEGEN--\":4383:4388   */\n          dup2\n            /* \"--CODEGEN--\":4372:4388   */\n          swap1\n          pop\n            /* \"--CODEGEN--\":4366:4393   */\n          swap2\n          swap1\n          pop\n          jump\t// out\n            /* \"--CODEGEN--\":4400:4481   */\n        tag_141:\n          0x00\n            /* \"--CODEGEN--\":4471:4475   */\n          0xff\n            /* \"--CODEGEN--\":4464:4469   */\n          dup3\n            /* \"--CODEGEN--\":4460:4476   */\n          and\n            /* \"--CODEGEN--\":4449:4476   */\n          swap1\n          pop\n            /* \"--CODEGEN--\":4443:4481   */\n          swap2\n          swap1\n          pop\n          jump\t// out\n            /* \"--CODEGEN--\":4489:4757   */\n        tag_131:\n            /* \"--CODEGEN--\":4554:4555   */\n          0x00\n            /* \"--CODEGEN--\":4561:4662   */\n        tag_161:\n            /* \"--CODEGEN--\":4575:4581   */\n          dup4\n            /* \"--CODEGEN--\":4572:4573   */\n          dup2\n            /* \"--CODEGEN--\":4569:4582   */\n          lt\n            /* \"--CODEGEN--\":4561:4662   */\n          iszero\n          tag_163\n          jumpi\n            /* \"--CODEGEN--\":4651:4652   */\n          dup1\n            /* \"--CODEGEN--\":4646:4649   */\n          dup3\n            /* \"--CODEGEN--\":4642:4653   */\n          add\n            /* \"--CODEGEN--\":4636:4654   */\n          mload\n            /* \"--CODEGEN--\":4632:4633   */\n          dup2\n            /* \"--CODEGEN--\":4627:4630   */\n          dup5\n            /* \"--CODEGEN--\":4623:4634   */\n          add\n            /* \"--CODEGEN--\":4616:4655   */\n          mstore\n            /* \"--CODEGEN--\":4597:4599   */\n          0x20\n            /* \"--CODEGEN--\":4594:4595   */\n          dup2\n            /* \"--CODEGEN--\":4590:4600   */\n          add\n            /* \"--CODEGEN--\":4585:4600   */\n          swap1\n          pop\n            /* \"--CODEGEN--\":4561:4662   */\n          jump(tag_161)\n        tag_163:\n            /* \"--CODEGEN--\":4677:4683   */\n          dup4\n            /* \"--CODEGEN--\":4674:4675   */\n          dup2\n            /* \"--CODEGEN--\":4671:4684   */\n          gt\n            /* \"--CODEGEN--\":4668:4670   */\n          iszero\n          tag_164\n          jumpi\n            /* \"--CODEGEN--\":4742:4743   */\n          0x00\n            /* \"--CODEGEN--\":4733:4739   */\n          dup5\n            /* \"--CODEGEN--\":4728:4731   */\n          dup5\n            /* \"--CODEGEN--\":4724:4740   */\n          add\n            /* \"--CODEGEN--\":4717:4744   */\n          mstore\n            /* \"--CODEGEN--\":4668:4670   */\n        tag_164:\n            /* \"--CODEGEN--\":4538:4757   */\n          pop\n          pop\n          pop\n          pop\n          jump\t// out\n            /* \"--CODEGEN--\":4765:4862   */\n        tag_133:\n          0x00\n            /* \"--CODEGEN--\":4853:4855   */\n          0x1f\n            /* \"--CODEGEN--\":4849:4856   */\n          not\n            /* \"--CODEGEN--\":4844:4846   */\n          0x1f\n            /* \"--CODEGEN--\":4837:4842   */\n          dup4\n            /* \"--CODEGEN--\":4833:4847   */\n          add\n            /* \"--CODEGEN--\":4829:4857   */\n          and\n            /* \"--CODEGEN--\":4819:4857   */\n          swap1\n          pop\n            /* \"--CODEGEN--\":4813:4862   */\n          swap2\n          swap1\n          pop\n          jump\t// out\n            /* \"--CODEGEN--\":4870:4987   */\n        tag_96:\n            /* \"--CODEGEN--\":4939:4963   */\n          tag_167\n            /* \"--CODEGEN--\":4957:4962   */\n          dup2\n            /* \"--CODEGEN--\":4939:4963   */\n          tag_152\n          jump\t// in\n        tag_167:\n            /* \"--CODEGEN--\":4932:4937   */\n          dup2\n            /* \"--CODEGEN--\":4929:4964   */\n          eq\n            /* \"--CODEGEN--\":4919:4921   */\n          tag_168\n          jumpi\n            /* \"--CODEGEN--\":4978:4979   */\n          0x00\n            /* \"--CODEGEN--\":4975:4976   */\n          dup1\n            /* \"--CODEGEN--\":4968:4980   */\n          revert\n            /* \"--CODEGEN--\":4919:4921   */\n        tag_168:\n            /* \"--CODEGEN--\":4913:4987   */\n          pop\n          jump\t// out\n            /* \"--CODEGEN--\":4994:5111   */\n        tag_100:\n            /* \"--CODEGEN--\":5063:5087   */\n          tag_170\n            /* \"--CODEGEN--\":5081:5086   */\n          dup2\n            /* \"--CODEGEN--\":5063:5087   */\n          tag_137\n          jump\t// in\n        tag_170:\n            /* \"--CODEGEN--\":5056:5061   */\n          dup2\n            /* \"--CODEGEN--\":5053:5088   */\n          eq\n            /* \"--CODEGEN--\":5043:5045   */\n          tag_171\n          jumpi\n            /* \"--CODEGEN--\":5102:5103   */\n          0x00\n            /* \"--CODEGEN--\":5099:5100   */\n          dup1\n            /* \"--CODEGEN--\":5092:5104   */\n          revert\n            /* \"--CODEGEN--\":5043:5045   */\n        tag_171:\n            /* \"--CODEGEN--\":5037:5111   */\n          pop\n          jump\t// out\n\n        auxdata: 0xa264697066735822122041924e75c6a689f4e76b488c772248149581615c89d36359b2203d117f5c45a064736f6c634300060c0033\n    }\n}\n",
				"bytecode": {
					"linkReferences": {},
					"object": "6080604052600160035560006006553480156200001b57600080fd5b506127106040516200002d906200011e565b6200003991906200013d565b604051809103906000f08015801562000056573d6000803e3d6000fd5b506000806101000a81548173ffffffffffffffffffffffffffffffffffffffff021916908373ffffffffffffffffffffffffffffffffffffffff16021790555033600160006101000a81548173ffffffffffffffffffffffffffffffffffffffff021916908373ffffffffffffffffffffffffffffffffffffffff16021790555030600260006101000a81548173ffffffffffffffffffffffffffffffffffffffff021916908373ffffffffffffffffffffffffffffffffffffffff16021790555062000178565b61109d806200187683390190565b620001378162000164565b82525050565b60006020820190506200015460008301846200012c565b92915050565b6000819050919050565b600062000171826200015a565b9050919050565b6116ee80620001886000396000f3fe6080604052600436106100a75760003560e01c80637cd15f44116100645780637cd15f44146101895780638da5cb5b146101b2578063e1a01e67146101dd578063e33f34a014610208578063f777409114610233578063fd889ff51461024f576100a7565b80631246f6e2146100ac5780631890154c146100d557806327909f27146100f15780635332eee51461011c578063741898611461013357806379face261461015e575b600080fd5b3480156100b857600080fd5b506100d360048036038101906100ce919061102c565b61027a565b005b6100ef60048036038101906100ea919061102c565b61039a565b005b3480156100fd57600080fd5b506101066104e6565b6040516101139190611531565b60405180910390f35b34801561012857600080fd5b506101316104ec565b005b34801561013f57600080fd5b5061014861075e565b6040516101559190611531565b60405180910390f35b34801561016a57600080fd5b50610173610831565b604051610180919061144f565b60405180910390f35b34801561019557600080fd5b506101b060048036038101906101ab919061102c565b6108c6565b005b3480156101be57600080fd5b506101c7610b71565b6040516101d49190611382565b60405180910390f35b3480156101e957600080fd5b506101f2610b97565b6040516101ff9190611382565b60405180910390f35b34801561021457600080fd5b5061021d610bbd565b60405161022a9190611531565b60405180910390f35b61024d6004803603810190610248919061102c565b610c6e565b005b34801561025b57600080fd5b50610264610eff565b6040516102719190611531565b60405180910390f35b33600160009054906101000a900473ffffffffffffffffffffffffffffffffffffffff1673ffffffffffffffffffffffffffffffffffffffff168173ffffffffffffffffffffffffffffffffffffffff161461030b576040517f08c379a0000000000000000000000000000000000000000000000000000000008152600401610302906114b1565b60405180910390fd5b60008054906101000a900473ffffffffffffffffffffffffffffffffffffffff1673ffffffffffffffffffffffffffffffffffffffff16631d43cc98836040518263ffffffff1660e01b81526004016103649190611531565b600060405180830381600087803b15801561037e57600080fd5b505af1158015610392573d6000803e3d6000fd5b505050505050565b6103a2610bbd565b8111156103e4576040517f08c379a00000000000000000000000000000000000000000000000000000000081526004016103db90611471565b60405180910390fd5b60008054906101000a900473ffffffffffffffffffffffffffffffffffffffff1673ffffffffffffffffffffffffffffffffffffffff16635c79febb3330846040518463ffffffff1660e01b8152600401610441939291906113b8565b602060405180830381600087803b15801561045b57600080fd5b505af115801561046f573d6000803e3d6000fd5b505050506040513d601f19601f820116820180604052508101906104939190611003565b503373ffffffffffffffffffffffffffffffffffffffff166108fc6104b783610fb0565b9081150290604051600060405180830381858888f193505050501580156104e2573d6000803e3d6000fd5b5050565b60035481565b33600160009054906101000a900473ffffffffffffffffffffffffffffffffffffffff1673ffffffffffffffffffffffffffffffffffffffff168173ffffffffffffffffffffffffffffffffffffffff161461057d576040517f08c379a0000000000000000000000000000000000000000000000000000000008152600401610574906114b1565b60405180910390fd5b6000600780549050116105c5576040517f08c379a00000000000000000000000000000000000000000000000000000000081526004016105bc90611511565b60405180910390fd5b600060078080549050426040516020016105df919061132a565b6040516020818303038152906040528051906020012060001c816105ff57fe5b068154811061060a57fe5b906000526020600020015490507f7ae8aa8a76009e9379a432b67d892b6006479447de6892c862ce780785a2387d816040516106469190611531565b60405180910390a160008054906101000a900473ffffffffffffffffffffffffffffffffffffffff1673ffffffffffffffffffffffffffffffffffffffff16635c79febb600160009054906101000a900473ffffffffffffffffffffffffffffffffffffffff166005600085815260200190815260200160002060009054906101000a900473ffffffffffffffffffffffffffffffffffffffff166106e961075e565b6040518463ffffffff1660e01b815260040161070793929190611418565b602060405180830381600087803b15801561072157600080fd5b505af1158015610735573d6000803e3d6000fd5b505050506040513d601f19601f820116820180604052508101906107599190611003565b505050565b60008060009054906101000a900473ffffffffffffffffffffffffffffffffffffffff1673ffffffffffffffffffffffffffffffffffffffff166370a08231600160009054906101000a900473ffffffffffffffffffffffffffffffffffffffff166040518263ffffffff1660e01b81526004016107dc9190611382565b60206040518083038186803b1580156107f457600080fd5b505afa158015610808573d6000803e3d6000fd5b505050506040513d601f19601f8201168201806040525081019061082c9190611055565b905090565b6060600460003373ffffffffffffffffffffffffffffffffffffffff1673ffffffffffffffffffffffffffffffffffffffff1681526020019081526020016000208054806020026020016040519081016040528092919081815260200182805480156108bc57602002820191906000526020600020905b8154815260200190600101908083116108a8575b5050505050905090565b6000600354820290506108d7610bbd565b811115610919576040517f08c379a000000000000000000000000000000000000000000000000000000000815260040161091090611491565b60405180910390fd5b60008054906101000a900473ffffffffffffffffffffffffffffffffffffffff1673ffffffffffffffffffffffffffffffffffffffff16635c79febb33600160009054906101000a900473ffffffffffffffffffffffffffffffffffffffff16846040518463ffffffff1660e01b8152600401610998939291906113b8565b602060405180830381600087803b1580156109b257600080fd5b505af11580156109c6573d6000803e3d6000fd5b505050506040513d601f19601f820116820180604052508101906109ea9190611003565b5060005b82811015610b6c576000600a4233600654604051602001610a1193929190611345565b6040516020818303038152906040528051906020012060001c81610a3157fe5b069050600660008154809291906001019190505550600460003373ffffffffffffffffffffffffffffffffffffffff1673ffffffffffffffffffffffffffffffffffffffff1681526020019081526020016000208190806001815401808255809150506001900390600052602060002001600090919091909150556007819080600181540180825580915050600190039060005260206000200160009091909190915055336005600083815260200190815260200160002060006101000a81548173ffffffffffffffffffffffffffffffffffffffff021916908373ffffffffffffffffffffffffffffffffffffffff1602179055507fa69929cb3af1145490f7129170489946bf07bc6cd7474fc4172efc5ec3f060e381604051610b569190611531565b60405180910390a15080806001019150506109ee565b505050565b600160009054906101000a900473ffffffffffffffffffffffffffffffffffffffff1681565b600260009054906101000a900473ffffffffffffffffffffffffffffffffffffffff1681565b60008060009054906101000a900473ffffffffffffffffffffffffffffffffffffffff1673ffffffffffffffffffffffffffffffffffffffff166370a08231336040518263ffffffff1660e01b8152600401610c19919061139d565b60206040518083038186803b158015610c3157600080fd5b505afa158015610c45573d6000803e3d6000fd5b505050506040513d601f19601f82011682018060405250810190610c699190611055565b905090565b6000610c7982610fb0565b905080341015610cbe576040517f08c379a0000000000000000000000000000000000000000000000000000000008152600401610cb5906114d1565b60405180910390fd5b60008054906101000a900473ffffffffffffffffffffffffffffffffffffffff1673ffffffffffffffffffffffffffffffffffffffff166370a08231600260009054906101000a900473ffffffffffffffffffffffffffffffffffffffff166040518263ffffffff1660e01b8152600401610d399190611382565b60206040518083038186803b158015610d5157600080fd5b505afa158015610d65573d6000803e3d6000fd5b505050506040513d601f19601f82011682018060405250810190610d899190611055565b821115610dcb576040517f08c379a0000000000000000000000000000000000000000000000000000000008152600401610dc2906114f1565b60405180910390fd5b3373ffffffffffffffffffffffffffffffffffffffff166108fc8234039081150290604051600060405180830381858888f19350505050158015610e13573d6000803e3d6000fd5b5060008054906101000a900473ffffffffffffffffffffffffffffffffffffffff1673ffffffffffffffffffffffffffffffffffffffff1663a9059cbb33846040518363ffffffff1660e01b8152600401610e6f9291906113ef565b602060405180830381600087803b158015610e8957600080fd5b505af1158015610e9d573d6000803e3d6000fd5b505050506040513d601f19601f82011682018060405250810190610ec19190611003565b507f1912293d843fe20a997ecedfe6ab8b44b26fc0ed0d7d2e152158ffd021c9ace38233604051610ef392919061154c565b60405180910390a15050565b60008060009054906101000a900473ffffffffffffffffffffffffffffffffffffffff1673ffffffffffffffffffffffffffffffffffffffff166370a08231306040518263ffffffff1660e01b8152600401610f5b9190611382565b60206040518083038186803b158015610f7357600080fd5b505afa158015610f87573d6000803e3d6000fd5b505050506040513d601f19601f82011682018060405250810190610fab9190611055565b905090565b6000670de0b6b3a764000082029050919050565b600081519050610fd38161168a565b92915050565b600081359050610fe8816116a1565b92915050565b600081519050610ffd816116a1565b92915050565b60006020828403121561101557600080fd5b600061102384828501610fc4565b91505092915050565b60006020828403121561103e57600080fd5b600061104c84828501610fd9565b91505092915050565b60006020828403121561106757600080fd5b600061107584828501610fee565b91505092915050565b600061108a83836112f5565b60208301905092915050565b61109f81611619565b82525050565b6110b66110b1826115d1565b61164f565b82525050565b6110c5816115bf565b82525050565b60006110d682611585565b6110e0818561159d565b93506110eb83611575565b8060005b8381101561111c578151611103888261107e565b975061110e83611590565b9250506001810190506110ef565b5085935050505092915050565b60006111366014836115ae565b91507f546f6b656e7320696e737566696369656e7465730000000000000000000000006000830152602082019050919050565b6000611176601f836115ae565b91507f43616e746964616420646520746f6b656e7320696e737566696369656e7465006000830152602082019050919050565b60006111b6602d836115ae565b91507f4e6f207469656e6573207065726d69736f73207061726120656a65637574617260008301527f20657374612066756e63696f6e000000000000000000000000000000000000006020830152604082019050919050565b600061121c601e836115ae565b91507f43616e746964616420646520657468657220696e737566696369656e746500006000830152602082019050919050565b600061125c6020836115ae565b91507f43616e746964616420646520746f6b656e7320696e737566696369656e7465736000830152602082019050919050565b600061129c6028836115ae565b91507f4e6f2073652068612076656e6469646f206e696e67c3ba6e20626f6c65746f2060008301527f746f646176c3ad610000000000000000000000000000000000000000000000006020830152604082019050919050565b6112fe8161160f565b82525050565b61130d8161160f565b82525050565b61132461131f8261160f565b611673565b82525050565b60006113368284611313565b60208201915081905092915050565b60006113518286611313565b60208201915061136182856110a5565b6014820191506113718284611313565b602082019150819050949350505050565b600060208201905061139760008301846110bc565b92915050565b60006020820190506113b26000830184611096565b92915050565b60006060820190506113cd6000830186611096565b6113da60208301856110bc565b6113e76040830184611304565b949350505050565b60006040820190506114046000830185611096565b6114116020830184611304565b9392505050565b600060608201905061142d60008301866110bc565b61143a60208301856110bc565b6114476040830184611304565b949350505050565b6000602082019050818103600083015261146981846110cb565b905092915050565b6000602082019050818103600083015261148a81611129565b9050919050565b600060208201905081810360008301526114aa81611169565b9050919050565b600060208201905081810360008301526114ca816111a9565b9050919050565b600060208201905081810360008301526114ea8161120f565b9050919050565b6000602082019050818103600083015261150a8161124f565b9050919050565b6000602082019050818103600083015261152a8161128f565b9050919050565b60006020820190506115466000830184611304565b92915050565b60006040820190506115616000830185611304565b61156e6020830184611096565b9392505050565b6000819050602082019050919050565b600081519050919050565b6000602082019050919050565b600082825260208201905092915050565b600082825260208201905092915050565b60006115ca826115ef565b9050919050565b60006115dc826115ef565b9050919050565b60008115159050919050565b600073ffffffffffffffffffffffffffffffffffffffff82169050919050565b6000819050919050565b60006116248261162b565b9050919050565b60006116368261163d565b9050919050565b6000611648826115ef565b9050919050565b600061165a82611661565b9050919050565b600061166c8261167d565b9050919050565b6000819050919050565b60008160601b9050919050565b611693816115e3565b811461169e57600080fd5b50565b6116aa8161160f565b81146116b557600080fd5b5056fea264697066735822122073bd6b1a911abda99656014ede2d923bcc3eb560eb32ac4cf876c9e095ebd13e64736f6c634300060c0033608060405234801561001057600080fd5b5060405161109d38038061109d83398181016040528101906100329190610099565b806002819055506002546000803373ffffffffffffffffffffffffffffffffffffffff1673ffffffffffffffffffffffffffffffffffffffff16815260200190815260200160002081905550506100e3565b600081519050610093816100cc565b92915050565b6000602082840312156100ab57600080fd5b60006100b984828501610084565b91505092915050565b6000819050919050565b6100d5816100c2565b81146100e057600080fd5b50565b610fab806100f26000396000f3fe608060405234801561001057600080fd5b50600436106100a95760003560e01c8063313ce56711610071578063313ce567146101665780635c79febb1461018457806370a08231146101b457806395d89b41146101e4578063a9059cbb14610202578063dd62ed3e14610232576100a9565b806306fdde03146100ae578063095ea7b3146100cc57806318160ddd146100fc5780631d43cc981461011a57806323b872dd14610136575b600080fd5b6100b6610262565b6040516100c39190610e3a565b60405180910390f35b6100e660048036038101906100e19190610d54565b61029b565b6040516100f39190610e1f565b60405180910390f35b61010461038d565b6040516101119190610e5c565b60405180910390f35b610134600480360381019061012f9190610d90565b610397565b005b610150600480360381019061014b9190610d05565b6103f6565b60405161015d9190610e1f565b60405180910390f35b61016e610771565b60405161017b9190610e77565b60405180910390f35b61019e60048036038101906101999190610d05565b610776565b6040516101ab9190610e1f565b60405180910390f35b6101ce60048036038101906101c99190610ca0565b610959565b6040516101db9190610e5c565b60405180910390f35b6101ec6109a1565b6040516101f99190610e3a565b60405180910390f35b61021c60048036038101906102179190610d54565b6109da565b6040516102299190610e1f565b60405180910390f35b61024c60048036038101906102479190610cc9565b610bbc565b6040516102599190610e5c565b60405180910390f35b6040518060400160405280600c81526020017f4552433230414b414c75676f000000000000000000000000000000000000000081525081565b600081600160003373ffffffffffffffffffffffffffffffffffffffff1673ffffffffffffffffffffffffffffffffffffffff16815260200190815260200160002060008573ffffffffffffffffffffffffffffffffffffffff1673ffffffffffffffffffffffffffffffffffffffff168152602001908152602001600020819055508273ffffffffffffffffffffffffffffffffffffffff163373ffffffffffffffffffffffffffffffffffffffff167f8c5be1e5ebec7d5bd14f71427d1e84f3dd0314c0f7b2291e5b200ac8c7c3b9258460405161037b9190610e5c565b60405180910390a36001905092915050565b6000600254905090565b80600260008282540192505081905550806000803373ffffffffffffffffffffffffffffffffffffffff1673ffffffffffffffffffffffffffffffffffffffff1681526020019081526020016000206000828254019250508190555050565b6000816000808673ffffffffffffffffffffffffffffffffffffffff1673ffffffffffffffffffffffffffffffffffffffff16815260200190815260200160002054101561044357600080fd5b81600160008673ffffffffffffffffffffffffffffffffffffffff1673ffffffffffffffffffffffffffffffffffffffff16815260200190815260200160002060003373ffffffffffffffffffffffffffffffffffffffff1673ffffffffffffffffffffffffffffffffffffffff1681526020019081526020016000205410156104cc57600080fd5b61051d826000808773ffffffffffffffffffffffffffffffffffffffff1673ffffffffffffffffffffffffffffffffffffffff16815260200190815260200160002054610c4390919063ffffffff16565b6000808673ffffffffffffffffffffffffffffffffffffffff1673ffffffffffffffffffffffffffffffffffffffff168152602001908152602001600020819055506105ee82600160008773ffffffffffffffffffffffffffffffffffffffff1673ffffffffffffffffffffffffffffffffffffffff16815260200190815260200160002060003373ffffffffffffffffffffffffffffffffffffffff1673ffffffffffffffffffffffffffffffffffffffff16815260200190815260200160002054610c4390919063ffffffff16565b600160008673ffffffffffffffffffffffffffffffffffffffff1673ffffffffffffffffffffffffffffffffffffffff16815260200190815260200160002060003373ffffffffffffffffffffffffffffffffffffffff1673ffffffffffffffffffffffffffffffffffffffff168152602001908152602001600020819055506106bf826000808673ffffffffffffffffffffffffffffffffffffffff1673ffffffffffffffffffffffffffffffffffffffff16815260200190815260200160002054610c5a90919063ffffffff16565b6000808573ffffffffffffffffffffffffffffffffffffffff1673ffffffffffffffffffffffffffffffffffffffff168152602001908152602001600020819055508273ffffffffffffffffffffffffffffffffffffffff168473ffffffffffffffffffffffffffffffffffffffff167fddf252ad1be2c89b69c2b068fc378daa952ba7f163c4a11628f55a4df523b3ef8460405161075e9190610e5c565b60405180910390a3600190509392505050565b601281565b60008060008573ffffffffffffffffffffffffffffffffffffffff1673ffffffffffffffffffffffffffffffffffffffff168152602001908152602001600020548211156107c357600080fd5b610814826000808773ffffffffffffffffffffffffffffffffffffffff1673ffffffffffffffffffffffffffffffffffffffff16815260200190815260200160002054610c4390919063ffffffff16565b6000808673ffffffffffffffffffffffffffffffffffffffff1673ffffffffffffffffffffffffffffffffffffffff168152602001908152602001600020819055506108a7826000808673ffffffffffffffffffffffffffffffffffffffff1673ffffffffffffffffffffffffffffffffffffffff16815260200190815260200160002054610c5a90919063ffffffff16565b6000808573ffffffffffffffffffffffffffffffffffffffff1673ffffffffffffffffffffffffffffffffffffffff168152602001908152602001600020819055508273ffffffffffffffffffffffffffffffffffffffff168473ffffffffffffffffffffffffffffffffffffffff167fddf252ad1be2c89b69c2b068fc378daa952ba7f163c4a11628f55a4df523b3ef846040516109469190610e5c565b60405180910390a3600190509392505050565b60008060008373ffffffffffffffffffffffffffffffffffffffff1673ffffffffffffffffffffffffffffffffffffffff168152602001908152602001600020549050919050565b6040518060400160405280600381526020017f414b41000000000000000000000000000000000000000000000000000000000081525081565b60008060003373ffffffffffffffffffffffffffffffffffffffff1673ffffffffffffffffffffffffffffffffffffffff16815260200190815260200160002054821115610a2757600080fd5b610a78826000803373ffffffffffffffffffffffffffffffffffffffff1673ffffffffffffffffffffffffffffffffffffffff16815260200190815260200160002054610c4390919063ffffffff16565b6000803373ffffffffffffffffffffffffffffffffffffffff1673ffffffffffffffffffffffffffffffffffffffff16815260200190815260200160002081905550610b0b826000808673ffffffffffffffffffffffffffffffffffffffff1673ffffffffffffffffffffffffffffffffffffffff16815260200190815260200160002054610c5a90919063ffffffff16565b6000808573ffffffffffffffffffffffffffffffffffffffff1673ffffffffffffffffffffffffffffffffffffffff168152602001908152602001600020819055508273ffffffffffffffffffffffffffffffffffffffff163373ffffffffffffffffffffffffffffffffffffffff167fddf252ad1be2c89b69c2b068fc378daa952ba7f163c4a11628f55a4df523b3ef84604051610baa9190610e5c565b60405180910390a36001905092915050565b6000600160008473ffffffffffffffffffffffffffffffffffffffff1673ffffffffffffffffffffffffffffffffffffffff16815260200190815260200160002060008373ffffffffffffffffffffffffffffffffffffffff1673ffffffffffffffffffffffffffffffffffffffff16815260200190815260200160002054905092915050565b600082821115610c4f57fe5b818303905092915050565b600080828401905083811015610c6c57fe5b8091505092915050565b600081359050610c8581610f47565b92915050565b600081359050610c9a81610f5e565b92915050565b600060208284031215610cb257600080fd5b6000610cc084828501610c76565b91505092915050565b60008060408385031215610cdc57600080fd5b6000610cea85828601610c76565b9250506020610cfb85828601610c76565b9150509250929050565b600080600060608486031215610d1a57600080fd5b6000610d2886828701610c76565b9350506020610d3986828701610c76565b9250506040610d4a86828701610c8b565b9150509250925092565b60008060408385031215610d6757600080fd5b6000610d7585828601610c76565b9250506020610d8685828601610c8b565b9150509250929050565b600060208284031215610da257600080fd5b6000610db084828501610c8b565b91505092915050565b610dc281610ec0565b82525050565b6000610dd382610e92565b610ddd8185610e9d565b9350610ded818560208601610f03565b610df681610f36565b840191505092915050565b610e0a81610eec565b82525050565b610e1981610ef6565b82525050565b6000602082019050610e346000830184610db9565b92915050565b60006020820190508181036000830152610e548184610dc8565b905092915050565b6000602082019050610e716000830184610e01565b92915050565b6000602082019050610e8c6000830184610e10565b92915050565b600081519050919050565b600082825260208201905092915050565b6000610eb982610ecc565b9050919050565b60008115159050919050565b600073ffffffffffffffffffffffffffffffffffffffff82169050919050565b6000819050919050565b600060ff82169050919050565b60005b83811015610f21578082015181840152602081019050610f06565b83811115610f30576000848401525b50505050565b6000601f19601f8301169050919050565b610f5081610eae565b8114610f5b57600080fd5b50565b610f6781610eec565b8114610f7257600080fd5b5056fea264697066735822122041924e75c6a689f4e76b488c772248149581615c89d36359b2203d117f5c45a064736f6c634300060c0033",
					"opcodes": "PUSH1 0x80 PUSH1 0x40 MSTORE PUSH1 0x1 PUSH1 0x3 SSTORE PUSH1 0x0 PUSH1 0x6 SSTORE CALLVALUE DUP1 ISZERO PUSH3 0x1B JUMPI PUSH1 0x0 DUP1 REVERT JUMPDEST POP PUSH2 0x2710 PUSH1 0x40 MLOAD PUSH3 0x2D SWAP1 PUSH3 0x11E JUMP JUMPDEST PUSH3 0x39 SWAP2 SWAP1 PUSH3 0x13D JUMP JUMPDEST PUSH1 0x40 MLOAD DUP1 SWAP2 SUB SWAP1 PUSH1 0x0 CREATE DUP1 ISZERO DUP1 ISZERO PUSH3 0x56 JUMPI RETURNDATASIZE PUSH1 0x0 DUP1 RETURNDATACOPY RETURNDATASIZE PUSH1 0x0 REVERT JUMPDEST POP PUSH1 0x0 DUP1 PUSH2 0x100 EXP DUP2 SLOAD DUP2 PUSH20 0xFFFFFFFFFFFFFFFFFFFFFFFFFFFFFFFFFFFFFFFF MUL NOT AND SWAP1 DUP4 PUSH20 0xFFFFFFFFFFFFFFFFFFFFFFFFFFFFFFFFFFFFFFFF AND MUL OR SWAP1 SSTORE POP CALLER PUSH1 0x1 PUSH1 0x0 PUSH2 0x100 EXP DUP2 SLOAD DUP2 PUSH20 0xFFFFFFFFFFFFFFFFFFFFFFFFFFFFFFFFFFFFFFFF MUL NOT AND SWAP1 DUP4 PUSH20 0xFFFFFFFFFFFFFFFFFFFFFFFFFFFFFFFFFFFFFFFF AND MUL OR SWAP1 SSTORE POP ADDRESS PUSH1 0x2 PUSH1 0x0 PUSH2 0x100 EXP DUP2 SLOAD DUP2 PUSH20 0xFFFFFFFFFFFFFFFFFFFFFFFFFFFFFFFFFFFFFFFF MUL NOT AND SWAP1 DUP4 PUSH20 0xFFFFFFFFFFFFFFFFFFFFFFFFFFFFFFFFFFFFFFFF AND MUL OR SWAP1 SSTORE POP PUSH3 0x178 JUMP JUMPDEST PUSH2 0x109D DUP1 PUSH3 0x1876 DUP4 CODECOPY ADD SWAP1 JUMP JUMPDEST PUSH3 0x137 DUP2 PUSH3 0x164 JUMP JUMPDEST DUP3 MSTORE POP POP JUMP JUMPDEST PUSH1 0x0 PUSH1 0x20 DUP3 ADD SWAP1 POP PUSH3 0x154 PUSH1 0x0 DUP4 ADD DUP5 PUSH3 0x12C JUMP JUMPDEST SWAP3 SWAP2 POP POP JUMP JUMPDEST PUSH1 0x0 DUP2 SWAP1 POP SWAP2 SWAP1 POP JUMP JUMPDEST PUSH1 0x0 PUSH3 0x171 DUP3 PUSH3 0x15A JUMP JUMPDEST SWAP1 POP SWAP2 SWAP1 POP JUMP JUMPDEST PUSH2 0x16EE DUP1 PUSH3 0x188 PUSH1 0x0 CODECOPY PUSH1 0x0 RETURN INVALID PUSH1 0x80 PUSH1 0x40 MSTORE PUSH1 0x4 CALLDATASIZE LT PUSH2 0xA7 JUMPI PUSH1 0x0 CALLDATALOAD PUSH1 0xE0 SHR DUP1 PUSH4 0x7CD15F44 GT PUSH2 0x64 JUMPI DUP1 PUSH4 0x7CD15F44 EQ PUSH2 0x189 JUMPI DUP1 PUSH4 0x8DA5CB5B EQ PUSH2 0x1B2 JUMPI DUP1 PUSH4 0xE1A01E67 EQ PUSH2 0x1DD JUMPI DUP1 PUSH4 0xE33F34A0 EQ PUSH2 0x208 JUMPI DUP1 PUSH4 0xF7774091 EQ PUSH2 0x233 JUMPI DUP1 PUSH4 0xFD889FF5 EQ PUSH2 0x24F JUMPI PUSH2 0xA7 JUMP JUMPDEST DUP1 PUSH4 0x1246F6E2 EQ PUSH2 0xAC JUMPI DUP1 PUSH4 0x1890154C EQ PUSH2 0xD5 JUMPI DUP1 PUSH4 0x27909F27 EQ PUSH2 0xF1 JUMPI DUP1 PUSH4 0x5332EEE5 EQ PUSH2 0x11C JUMPI DUP1 PUSH4 0x74189861 EQ PUSH2 0x133 JUMPI DUP1 PUSH4 0x79FACE26 EQ PUSH2 0x15E JUMPI JUMPDEST PUSH1 0x0 DUP1 REVERT JUMPDEST CALLVALUE DUP1 ISZERO PUSH2 0xB8 JUMPI PUSH1 0x0 DUP1 REVERT JUMPDEST POP PUSH2 0xD3 PUSH1 0x4 DUP1 CALLDATASIZE SUB DUP2 ADD SWAP1 PUSH2 0xCE SWAP2 SWAP1 PUSH2 0x102C JUMP JUMPDEST PUSH2 0x27A JUMP JUMPDEST STOP JUMPDEST PUSH2 0xEF PUSH1 0x4 DUP1 CALLDATASIZE SUB DUP2 ADD SWAP1 PUSH2 0xEA SWAP2 SWAP1 PUSH2 0x102C JUMP JUMPDEST PUSH2 0x39A JUMP JUMPDEST STOP JUMPDEST CALLVALUE DUP1 ISZERO PUSH2 0xFD JUMPI PUSH1 0x0 DUP1 REVERT JUMPDEST POP PUSH2 0x106 PUSH2 0x4E6 JUMP JUMPDEST PUSH1 0x40 MLOAD PUSH2 0x113 SWAP2 SWAP1 PUSH2 0x1531 JUMP JUMPDEST PUSH1 0x40 MLOAD DUP1 SWAP2 SUB SWAP1 RETURN JUMPDEST CALLVALUE DUP1 ISZERO PUSH2 0x128 JUMPI PUSH1 0x0 DUP1 REVERT JUMPDEST POP PUSH2 0x131 PUSH2 0x4EC JUMP JUMPDEST STOP JUMPDEST CALLVALUE DUP1 ISZERO PUSH2 0x13F JUMPI PUSH1 0x0 DUP1 REVERT JUMPDEST POP PUSH2 0x148 PUSH2 0x75E JUMP JUMPDEST PUSH1 0x40 MLOAD PUSH2 0x155 SWAP2 SWAP1 PUSH2 0x1531 JUMP JUMPDEST PUSH1 0x40 MLOAD DUP1 SWAP2 SUB SWAP1 RETURN JUMPDEST CALLVALUE DUP1 ISZERO PUSH2 0x16A JUMPI PUSH1 0x0 DUP1 REVERT JUMPDEST POP PUSH2 0x173 PUSH2 0x831 JUMP JUMPDEST PUSH1 0x40 MLOAD PUSH2 0x180 SWAP2 SWAP1 PUSH2 0x144F JUMP JUMPDEST PUSH1 0x40 MLOAD DUP1 SWAP2 SUB SWAP1 RETURN JUMPDEST CALLVALUE DUP1 ISZERO PUSH2 0x195 JUMPI PUSH1 0x0 DUP1 REVERT JUMPDEST POP PUSH2 0x1B0 PUSH1 0x4 DUP1 CALLDATASIZE SUB DUP2 ADD SWAP1 PUSH2 0x1AB SWAP2 SWAP1 PUSH2 0x102C JUMP JUMPDEST PUSH2 0x8C6 JUMP JUMPDEST STOP JUMPDEST CALLVALUE DUP1 ISZERO PUSH2 0x1BE JUMPI PUSH1 0x0 DUP1 REVERT JUMPDEST POP PUSH2 0x1C7 PUSH2 0xB71 JUMP JUMPDEST PUSH1 0x40 MLOAD PUSH2 0x1D4 SWAP2 SWAP1 PUSH2 0x1382 JUMP JUMPDEST PUSH1 0x40 MLOAD DUP1 SWAP2 SUB SWAP1 RETURN JUMPDEST CALLVALUE DUP1 ISZERO PUSH2 0x1E9 JUMPI PUSH1 0x0 DUP1 REVERT JUMPDEST POP PUSH2 0x1F2 PUSH2 0xB97 JUMP JUMPDEST PUSH1 0x40 MLOAD PUSH2 0x1FF SWAP2 SWAP1 PUSH2 0x1382 JUMP JUMPDEST PUSH1 0x40 MLOAD DUP1 SWAP2 SUB SWAP1 RETURN JUMPDEST CALLVALUE DUP1 ISZERO PUSH2 0x214 JUMPI PUSH1 0x0 DUP1 REVERT JUMPDEST POP PUSH2 0x21D PUSH2 0xBBD JUMP JUMPDEST PUSH1 0x40 MLOAD PUSH2 0x22A SWAP2 SWAP1 PUSH2 0x1531 JUMP JUMPDEST PUSH1 0x40 MLOAD DUP1 SWAP2 SUB SWAP1 RETURN JUMPDEST PUSH2 0x24D PUSH1 0x4 DUP1 CALLDATASIZE SUB DUP2 ADD SWAP1 PUSH2 0x248 SWAP2 SWAP1 PUSH2 0x102C JUMP JUMPDEST PUSH2 0xC6E JUMP JUMPDEST STOP JUMPDEST CALLVALUE DUP1 ISZERO PUSH2 0x25B JUMPI PUSH1 0x0 DUP1 REVERT JUMPDEST POP PUSH2 0x264 PUSH2 0xEFF JUMP JUMPDEST PUSH1 0x40 MLOAD PUSH2 0x271 SWAP2 SWAP1 PUSH2 0x1531 JUMP JUMPDEST PUSH1 0x40 MLOAD DUP1 SWAP2 SUB SWAP1 RETURN JUMPDEST CALLER PUSH1 0x1 PUSH1 0x0 SWAP1 SLOAD SWAP1 PUSH2 0x100 EXP SWAP1 DIV PUSH20 0xFFFFFFFFFFFFFFFFFFFFFFFFFFFFFFFFFFFFFFFF AND PUSH20 0xFFFFFFFFFFFFFFFFFFFFFFFFFFFFFFFFFFFFFFFF AND DUP2 PUSH20 0xFFFFFFFFFFFFFFFFFFFFFFFFFFFFFFFFFFFFFFFF AND EQ PUSH2 0x30B JUMPI PUSH1 0x40 MLOAD PUSH32 0x8C379A000000000000000000000000000000000000000000000000000000000 DUP2 MSTORE PUSH1 0x4 ADD PUSH2 0x302 SWAP1 PUSH2 0x14B1 JUMP JUMPDEST PUSH1 0x40 MLOAD DUP1 SWAP2 SUB SWAP1 REVERT JUMPDEST PUSH1 0x0 DUP1 SLOAD SWAP1 PUSH2 0x100 EXP SWAP1 DIV PUSH20 0xFFFFFFFFFFFFFFFFFFFFFFFFFFFFFFFFFFFFFFFF AND PUSH20 0xFFFFFFFFFFFFFFFFFFFFFFFFFFFFFFFFFFFFFFFF AND PUSH4 0x1D43CC98 DUP4 PUSH1 0x40 MLOAD DUP3 PUSH4 0xFFFFFFFF AND PUSH1 0xE0 SHL DUP2 MSTORE PUSH1 0x4 ADD PUSH2 0x364 SWAP2 SWAP1 PUSH2 0x1531 JUMP JUMPDEST PUSH1 0x0 PUSH1 0x40 MLOAD DUP1 DUP4 SUB DUP2 PUSH1 0x0 DUP8 DUP1 EXTCODESIZE ISZERO DUP1 ISZERO PUSH2 0x37E JUMPI PUSH1 0x0 DUP1 REVERT JUMPDEST POP GAS CALL ISZERO DUP1 ISZERO PUSH2 0x392 JUMPI RETURNDATASIZE PUSH1 0x0 DUP1 RETURNDATACOPY RETURNDATASIZE PUSH1 0x0 REVERT JUMPDEST POP POP POP POP POP POP JUMP JUMPDEST PUSH2 0x3A2 PUSH2 0xBBD JUMP JUMPDEST DUP2 GT ISZERO PUSH2 0x3E4 JUMPI PUSH1 0x40 MLOAD PUSH32 0x8C379A000000000000000000000000000000000000000000000000000000000 DUP2 MSTORE PUSH1 0x4 ADD PUSH2 0x3DB SWAP1 PUSH2 0x1471 JUMP JUMPDEST PUSH1 0x40 MLOAD DUP1 SWAP2 SUB SWAP1 REVERT JUMPDEST PUSH1 0x0 DUP1 SLOAD SWAP1 PUSH2 0x100 EXP SWAP1 DIV PUSH20 0xFFFFFFFFFFFFFFFFFFFFFFFFFFFFFFFFFFFFFFFF AND PUSH20 0xFFFFFFFFFFFFFFFFFFFFFFFFFFFFFFFFFFFFFFFF AND PUSH4 0x5C79FEBB CALLER ADDRESS DUP5 PUSH1 0x40 MLOAD DUP5 PUSH4 0xFFFFFFFF AND PUSH1 0xE0 SHL DUP2 MSTORE PUSH1 0x4 ADD PUSH2 0x441 SWAP4 SWAP3 SWAP2 SWAP1 PUSH2 0x13B8 JUMP JUMPDEST PUSH1 0x20 PUSH1 0x40 MLOAD DUP1 DUP4 SUB DUP2 PUSH1 0x0 DUP8 DUP1 EXTCODESIZE ISZERO DUP1 ISZERO PUSH2 0x45B JUMPI PUSH1 0x0 DUP1 REVERT JUMPDEST POP GAS CALL ISZERO DUP1 ISZERO PUSH2 0x46F JUMPI RETURNDATASIZE PUSH1 0x0 DUP1 RETURNDATACOPY RETURNDATASIZE PUSH1 0x0 REVERT JUMPDEST POP POP POP POP PUSH1 0x40 MLOAD RETURNDATASIZE PUSH1 0x1F NOT PUSH1 0x1F DUP3 ADD AND DUP3 ADD DUP1 PUSH1 0x40 MSTORE POP DUP2 ADD SWAP1 PUSH2 0x493 SWAP2 SWAP1 PUSH2 0x1003 JUMP JUMPDEST POP CALLER PUSH20 0xFFFFFFFFFFFFFFFFFFFFFFFFFFFFFFFFFFFFFFFF AND PUSH2 0x8FC PUSH2 0x4B7 DUP4 PUSH2 0xFB0 JUMP JUMPDEST SWAP1 DUP2 ISZERO MUL SWAP1 PUSH1 0x40 MLOAD PUSH1 0x0 PUSH1 0x40 MLOAD DUP1 DUP4 SUB DUP2 DUP6 DUP9 DUP9 CALL SWAP4 POP POP POP POP ISZERO DUP1 ISZERO PUSH2 0x4E2 JUMPI RETURNDATASIZE PUSH1 0x0 DUP1 RETURNDATACOPY RETURNDATASIZE PUSH1 0x0 REVERT JUMPDEST POP POP JUMP JUMPDEST PUSH1 0x3 SLOAD DUP2 JUMP JUMPDEST CALLER PUSH1 0x1 PUSH1 0x0 SWAP1 SLOAD SWAP1 PUSH2 0x100 EXP SWAP1 DIV PUSH20 0xFFFFFFFFFFFFFFFFFFFFFFFFFFFFFFFFFFFFFFFF AND PUSH20 0xFFFFFFFFFFFFFFFFFFFFFFFFFFFFFFFFFFFFFFFF AND DUP2 PUSH20 0xFFFFFFFFFFFFFFFFFFFFFFFFFFFFFFFFFFFFFFFF AND EQ PUSH2 0x57D JUMPI PUSH1 0x40 MLOAD PUSH32 0x8C379A000000000000000000000000000000000000000000000000000000000 DUP2 MSTORE PUSH1 0x4 ADD PUSH2 0x574 SWAP1 PUSH2 0x14B1 JUMP JUMPDEST PUSH1 0x40 MLOAD DUP1 SWAP2 SUB SWAP1 REVERT JUMPDEST PUSH1 0x0 PUSH1 0x7 DUP1 SLOAD SWAP1 POP GT PUSH2 0x5C5 JUMPI PUSH1 0x40 MLOAD PUSH32 0x8C379A000000000000000000000000000000000000000000000000000000000 DUP2 MSTORE PUSH1 0x4 ADD PUSH2 0x5BC SWAP1 PUSH2 0x1511 JUMP JUMPDEST PUSH1 0x40 MLOAD DUP1 SWAP2 SUB SWAP1 REVERT JUMPDEST PUSH1 0x0 PUSH1 0x7 DUP1 DUP1 SLOAD SWAP1 POP TIMESTAMP PUSH1 0x40 MLOAD PUSH1 0x20 ADD PUSH2 0x5DF SWAP2 SWAP1 PUSH2 0x132A JUMP JUMPDEST PUSH1 0x40 MLOAD PUSH1 0x20 DUP2 DUP4 SUB SUB DUP2 MSTORE SWAP1 PUSH1 0x40 MSTORE DUP1 MLOAD SWAP1 PUSH1 0x20 ADD KECCAK256 PUSH1 0x0 SHR DUP2 PUSH2 0x5FF JUMPI INVALID JUMPDEST MOD DUP2 SLOAD DUP2 LT PUSH2 0x60A JUMPI INVALID JUMPDEST SWAP1 PUSH1 0x0 MSTORE PUSH1 0x20 PUSH1 0x0 KECCAK256 ADD SLOAD SWAP1 POP PUSH32 0x7AE8AA8A76009E9379A432B67D892B6006479447DE6892C862CE780785A2387D DUP2 PUSH1 0x40 MLOAD PUSH2 0x646 SWAP2 SWAP1 PUSH2 0x1531 JUMP JUMPDEST PUSH1 0x40 MLOAD DUP1 SWAP2 SUB SWAP1 LOG1 PUSH1 0x0 DUP1 SLOAD SWAP1 PUSH2 0x100 EXP SWAP1 DIV PUSH20 0xFFFFFFFFFFFFFFFFFFFFFFFFFFFFFFFFFFFFFFFF AND PUSH20 0xFFFFFFFFFFFFFFFFFFFFFFFFFFFFFFFFFFFFFFFF AND PUSH4 0x5C79FEBB PUSH1 0x1 PUSH1 0x0 SWAP1 SLOAD SWAP1 PUSH2 0x100 EXP SWAP1 DIV PUSH20 0xFFFFFFFFFFFFFFFFFFFFFFFFFFFFFFFFFFFFFFFF AND PUSH1 0x5 PUSH1 0x0 DUP6 DUP2 MSTORE PUSH1 0x20 ADD SWAP1 DUP2 MSTORE PUSH1 0x20 ADD PUSH1 0x0 KECCAK256 PUSH1 0x0 SWAP1 SLOAD SWAP1 PUSH2 0x100 EXP SWAP1 DIV PUSH20 0xFFFFFFFFFFFFFFFFFFFFFFFFFFFFFFFFFFFFFFFF AND PUSH2 0x6E9 PUSH2 0x75E JUMP JUMPDEST PUSH1 0x40 MLOAD DUP5 PUSH4 0xFFFFFFFF AND PUSH1 0xE0 SHL DUP2 MSTORE PUSH1 0x4 ADD PUSH2 0x707 SWAP4 SWAP3 SWAP2 SWAP1 PUSH2 0x1418 JUMP JUMPDEST PUSH1 0x20 PUSH1 0x40 MLOAD DUP1 DUP4 SUB DUP2 PUSH1 0x0 DUP8 DUP1 EXTCODESIZE ISZERO DUP1 ISZERO PUSH2 0x721 JUMPI PUSH1 0x0 DUP1 REVERT JUMPDEST POP GAS CALL ISZERO DUP1 ISZERO PUSH2 0x735 JUMPI RETURNDATASIZE PUSH1 0x0 DUP1 RETURNDATACOPY RETURNDATASIZE PUSH1 0x0 REVERT JUMPDEST POP POP POP POP PUSH1 0x40 MLOAD RETURNDATASIZE PUSH1 0x1F NOT PUSH1 0x1F DUP3 ADD AND DUP3 ADD DUP1 PUSH1 0x40 MSTORE POP DUP2 ADD SWAP1 PUSH2 0x759 SWAP2 SWAP1 PUSH2 0x1003 JUMP JUMPDEST POP POP POP JUMP JUMPDEST PUSH1 0x0 DUP1 PUSH1 0x0 SWAP1 SLOAD SWAP1 PUSH2 0x100 EXP SWAP1 DIV PUSH20 0xFFFFFFFFFFFFFFFFFFFFFFFFFFFFFFFFFFFFFFFF AND PUSH20 0xFFFFFFFFFFFFFFFFFFFFFFFFFFFFFFFFFFFFFFFF AND PUSH4 0x70A08231 PUSH1 0x1 PUSH1 0x0 SWAP1 SLOAD SWAP1 PUSH2 0x100 EXP SWAP1 DIV PUSH20 0xFFFFFFFFFFFFFFFFFFFFFFFFFFFFFFFFFFFFFFFF AND PUSH1 0x40 MLOAD DUP3 PUSH4 0xFFFFFFFF AND PUSH1 0xE0 SHL DUP2 MSTORE PUSH1 0x4 ADD PUSH2 0x7DC SWAP2 SWAP1 PUSH2 0x1382 JUMP JUMPDEST PUSH1 0x20 PUSH1 0x40 MLOAD DUP1 DUP4 SUB DUP2 DUP7 DUP1 EXTCODESIZE ISZERO DUP1 ISZERO PUSH2 0x7F4 JUMPI PUSH1 0x0 DUP1 REVERT JUMPDEST POP GAS STATICCALL ISZERO DUP1 ISZERO PUSH2 0x808 JUMPI RETURNDATASIZE PUSH1 0x0 DUP1 RETURNDATACOPY RETURNDATASIZE PUSH1 0x0 REVERT JUMPDEST POP POP POP POP PUSH1 0x40 MLOAD RETURNDATASIZE PUSH1 0x1F NOT PUSH1 0x1F DUP3 ADD AND DUP3 ADD DUP1 PUSH1 0x40 MSTORE POP DUP2 ADD SWAP1 PUSH2 0x82C SWAP2 SWAP1 PUSH2 0x1055 JUMP JUMPDEST SWAP1 POP SWAP1 JUMP JUMPDEST PUSH1 0x60 PUSH1 0x4 PUSH1 0x0 CALLER PUSH20 0xFFFFFFFFFFFFFFFFFFFFFFFFFFFFFFFFFFFFFFFF AND PUSH20 0xFFFFFFFFFFFFFFFFFFFFFFFFFFFFFFFFFFFFFFFF AND DUP2 MSTORE PUSH1 0x20 ADD SWAP1 DUP2 MSTORE PUSH1 0x20 ADD PUSH1 0x0 KECCAK256 DUP1 SLOAD DUP1 PUSH1 0x20 MUL PUSH1 0x20 ADD PUSH1 0x40 MLOAD SWAP1 DUP2 ADD PUSH1 0x40 MSTORE DUP1 SWAP3 SWAP2 SWAP1 DUP2 DUP2 MSTORE PUSH1 0x20 ADD DUP3 DUP1 SLOAD DUP1 ISZERO PUSH2 0x8BC JUMPI PUSH1 0x20 MUL DUP3 ADD SWAP2 SWAP1 PUSH1 0x0 MSTORE PUSH1 0x20 PUSH1 0x0 KECCAK256 SWAP1 JUMPDEST DUP2 SLOAD DUP2 MSTORE PUSH1 0x20 ADD SWAP1 PUSH1 0x1 ADD SWAP1 DUP1 DUP4 GT PUSH2 0x8A8 JUMPI JUMPDEST POP POP POP POP POP SWAP1 POP SWAP1 JUMP JUMPDEST PUSH1 0x0 PUSH1 0x3 SLOAD DUP3 MUL SWAP1 POP PUSH2 0x8D7 PUSH2 0xBBD JUMP JUMPDEST DUP2 GT ISZERO PUSH2 0x919 JUMPI PUSH1 0x40 MLOAD PUSH32 0x8C379A000000000000000000000000000000000000000000000000000000000 DUP2 MSTORE PUSH1 0x4 ADD PUSH2 0x910 SWAP1 PUSH2 0x1491 JUMP JUMPDEST PUSH1 0x40 MLOAD DUP1 SWAP2 SUB SWAP1 REVERT JUMPDEST PUSH1 0x0 DUP1 SLOAD SWAP1 PUSH2 0x100 EXP SWAP1 DIV PUSH20 0xFFFFFFFFFFFFFFFFFFFFFFFFFFFFFFFFFFFFFFFF AND PUSH20 0xFFFFFFFFFFFFFFFFFFFFFFFFFFFFFFFFFFFFFFFF AND PUSH4 0x5C79FEBB CALLER PUSH1 0x1 PUSH1 0x0 SWAP1 SLOAD SWAP1 PUSH2 0x100 EXP SWAP1 DIV PUSH20 0xFFFFFFFFFFFFFFFFFFFFFFFFFFFFFFFFFFFFFFFF AND DUP5 PUSH1 0x40 MLOAD DUP5 PUSH4 0xFFFFFFFF AND PUSH1 0xE0 SHL DUP2 MSTORE PUSH1 0x4 ADD PUSH2 0x998 SWAP4 SWAP3 SWAP2 SWAP1 PUSH2 0x13B8 JUMP JUMPDEST PUSH1 0x20 PUSH1 0x40 MLOAD DUP1 DUP4 SUB DUP2 PUSH1 0x0 DUP8 DUP1 EXTCODESIZE ISZERO DUP1 ISZERO PUSH2 0x9B2 JUMPI PUSH1 0x0 DUP1 REVERT JUMPDEST POP GAS CALL ISZERO DUP1 ISZERO PUSH2 0x9C6 JUMPI RETURNDATASIZE PUSH1 0x0 DUP1 RETURNDATACOPY RETURNDATASIZE PUSH1 0x0 REVERT JUMPDEST POP POP POP POP PUSH1 0x40 MLOAD RETURNDATASIZE PUSH1 0x1F NOT PUSH1 0x1F DUP3 ADD AND DUP3 ADD DUP1 PUSH1 0x40 MSTORE POP DUP2 ADD SWAP1 PUSH2 0x9EA SWAP2 SWAP1 PUSH2 0x1003 JUMP JUMPDEST POP PUSH1 0x0 JUMPDEST DUP3 DUP2 LT ISZERO PUSH2 0xB6C JUMPI PUSH1 0x0 PUSH1 0xA TIMESTAMP CALLER PUSH1 0x6 SLOAD PUSH1 0x40 MLOAD PUSH1 0x20 ADD PUSH2 0xA11 SWAP4 SWAP3 SWAP2 SWAP1 PUSH2 0x1345 JUMP JUMPDEST PUSH1 0x40 MLOAD PUSH1 0x20 DUP2 DUP4 SUB SUB DUP2 MSTORE SWAP1 PUSH1 0x40 MSTORE DUP1 MLOAD SWAP1 PUSH1 0x20 ADD KECCAK256 PUSH1 0x0 SHR DUP2 PUSH2 0xA31 JUMPI INVALID JUMPDEST MOD SWAP1 POP PUSH1 0x6 PUSH1 0x0 DUP2 SLOAD DUP1 SWAP3 SWAP2 SWAP1 PUSH1 0x1 ADD SWAP2 SWAP1 POP SSTORE POP PUSH1 0x4 PUSH1 0x0 CALLER PUSH20 0xFFFFFFFFFFFFFFFFFFFFFFFFFFFFFFFFFFFFFFFF AND PUSH20 0xFFFFFFFFFFFFFFFFFFFFFFFFFFFFFFFFFFFFFFFF AND DUP2 MSTORE PUSH1 0x20 ADD SWAP1 DUP2 MSTORE PUSH1 0x20 ADD PUSH1 0x0 KECCAK256 DUP2 SWAP1 DUP1 PUSH1 0x1 DUP2 SLOAD ADD DUP1 DUP3 SSTORE DUP1 SWAP2 POP POP PUSH1 0x1 SWAP1 SUB SWAP1 PUSH1 0x0 MSTORE PUSH1 0x20 PUSH1 0x0 KECCAK256 ADD PUSH1 0x0 SWAP1 SWAP2 SWAP1 SWAP2 SWAP1 SWAP2 POP SSTORE PUSH1 0x7 DUP2 SWAP1 DUP1 PUSH1 0x1 DUP2 SLOAD ADD DUP1 DUP3 SSTORE DUP1 SWAP2 POP POP PUSH1 0x1 SWAP1 SUB SWAP1 PUSH1 0x0 MSTORE PUSH1 0x20 PUSH1 0x0 KECCAK256 ADD PUSH1 0x0 SWAP1 SWAP2 SWAP1 SWAP2 SWAP1 SWAP2 POP SSTORE CALLER PUSH1 0x5 PUSH1 0x0 DUP4 DUP2 MSTORE PUSH1 0x20 ADD SWAP1 DUP2 MSTORE PUSH1 0x20 ADD PUSH1 0x0 KECCAK256 PUSH1 0x0 PUSH2 0x100 EXP DUP2 SLOAD DUP2 PUSH20 0xFFFFFFFFFFFFFFFFFFFFFFFFFFFFFFFFFFFFFFFF MUL NOT AND SWAP1 DUP4 PUSH20 0xFFFFFFFFFFFFFFFFFFFFFFFFFFFFFFFFFFFFFFFF AND MUL OR SWAP1 SSTORE POP PUSH32 0xA69929CB3AF1145490F7129170489946BF07BC6CD7474FC4172EFC5EC3F060E3 DUP2 PUSH1 0x40 MLOAD PUSH2 0xB56 SWAP2 SWAP1 PUSH2 0x1531 JUMP JUMPDEST PUSH1 0x40 MLOAD DUP1 SWAP2 SUB SWAP1 LOG1 POP DUP1 DUP1 PUSH1 0x1 ADD SWAP2 POP POP PUSH2 0x9EE JUMP JUMPDEST POP POP POP JUMP JUMPDEST PUSH1 0x1 PUSH1 0x0 SWAP1 SLOAD SWAP1 PUSH2 0x100 EXP SWAP1 DIV PUSH20 0xFFFFFFFFFFFFFFFFFFFFFFFFFFFFFFFFFFFFFFFF AND DUP2 JUMP JUMPDEST PUSH1 0x2 PUSH1 0x0 SWAP1 SLOAD SWAP1 PUSH2 0x100 EXP SWAP1 DIV PUSH20 0xFFFFFFFFFFFFFFFFFFFFFFFFFFFFFFFFFFFFFFFF AND DUP2 JUMP JUMPDEST PUSH1 0x0 DUP1 PUSH1 0x0 SWAP1 SLOAD SWAP1 PUSH2 0x100 EXP SWAP1 DIV PUSH20 0xFFFFFFFFFFFFFFFFFFFFFFFFFFFFFFFFFFFFFFFF AND PUSH20 0xFFFFFFFFFFFFFFFFFFFFFFFFFFFFFFFFFFFFFFFF AND PUSH4 0x70A08231 CALLER PUSH1 0x40 MLOAD DUP3 PUSH4 0xFFFFFFFF AND PUSH1 0xE0 SHL DUP2 MSTORE PUSH1 0x4 ADD PUSH2 0xC19 SWAP2 SWAP1 PUSH2 0x139D JUMP JUMPDEST PUSH1 0x20 PUSH1 0x40 MLOAD DUP1 DUP4 SUB DUP2 DUP7 DUP1 EXTCODESIZE ISZERO DUP1 ISZERO PUSH2 0xC31 JUMPI PUSH1 0x0 DUP1 REVERT JUMPDEST POP GAS STATICCALL ISZERO DUP1 ISZERO PUSH2 0xC45 JUMPI RETURNDATASIZE PUSH1 0x0 DUP1 RETURNDATACOPY RETURNDATASIZE PUSH1 0x0 REVERT JUMPDEST POP POP POP POP PUSH1 0x40 MLOAD RETURNDATASIZE PUSH1 0x1F NOT PUSH1 0x1F DUP3 ADD AND DUP3 ADD DUP1 PUSH1 0x40 MSTORE POP DUP2 ADD SWAP1 PUSH2 0xC69 SWAP2 SWAP1 PUSH2 0x1055 JUMP JUMPDEST SWAP1 POP SWAP1 JUMP JUMPDEST PUSH1 0x0 PUSH2 0xC79 DUP3 PUSH2 0xFB0 JUMP JUMPDEST SWAP1 POP DUP1 CALLVALUE LT ISZERO PUSH2 0xCBE JUMPI PUSH1 0x40 MLOAD PUSH32 0x8C379A000000000000000000000000000000000000000000000000000000000 DUP2 MSTORE PUSH1 0x4 ADD PUSH2 0xCB5 SWAP1 PUSH2 0x14D1 JUMP JUMPDEST PUSH1 0x40 MLOAD DUP1 SWAP2 SUB SWAP1 REVERT JUMPDEST PUSH1 0x0 DUP1 SLOAD SWAP1 PUSH2 0x100 EXP SWAP1 DIV PUSH20 0xFFFFFFFFFFFFFFFFFFFFFFFFFFFFFFFFFFFFFFFF AND PUSH20 0xFFFFFFFFFFFFFFFFFFFFFFFFFFFFFFFFFFFFFFFF AND PUSH4 0x70A08231 PUSH1 0x2 PUSH1 0x0 SWAP1 SLOAD SWAP1 PUSH2 0x100 EXP SWAP1 DIV PUSH20 0xFFFFFFFFFFFFFFFFFFFFFFFFFFFFFFFFFFFFFFFF AND PUSH1 0x40 MLOAD DUP3 PUSH4 0xFFFFFFFF AND PUSH1 0xE0 SHL DUP2 MSTORE PUSH1 0x4 ADD PUSH2 0xD39 SWAP2 SWAP1 PUSH2 0x1382 JUMP JUMPDEST PUSH1 0x20 PUSH1 0x40 MLOAD DUP1 DUP4 SUB DUP2 DUP7 DUP1 EXTCODESIZE ISZERO DUP1 ISZERO PUSH2 0xD51 JUMPI PUSH1 0x0 DUP1 REVERT JUMPDEST POP GAS STATICCALL ISZERO DUP1 ISZERO PUSH2 0xD65 JUMPI RETURNDATASIZE PUSH1 0x0 DUP1 RETURNDATACOPY RETURNDATASIZE PUSH1 0x0 REVERT JUMPDEST POP POP POP POP PUSH1 0x40 MLOAD RETURNDATASIZE PUSH1 0x1F NOT PUSH1 0x1F DUP3 ADD AND DUP3 ADD DUP1 PUSH1 0x40 MSTORE POP DUP2 ADD SWAP1 PUSH2 0xD89 SWAP2 SWAP1 PUSH2 0x1055 JUMP JUMPDEST DUP3 GT ISZERO PUSH2 0xDCB JUMPI PUSH1 0x40 MLOAD PUSH32 0x8C379A000000000000000000000000000000000000000000000000000000000 DUP2 MSTORE PUSH1 0x4 ADD PUSH2 0xDC2 SWAP1 PUSH2 0x14F1 JUMP JUMPDEST PUSH1 0x40 MLOAD DUP1 SWAP2 SUB SWAP1 REVERT JUMPDEST CALLER PUSH20 0xFFFFFFFFFFFFFFFFFFFFFFFFFFFFFFFFFFFFFFFF AND PUSH2 0x8FC DUP3 CALLVALUE SUB SWAP1 DUP2 ISZERO MUL SWAP1 PUSH1 0x40 MLOAD PUSH1 0x0 PUSH1 0x40 MLOAD DUP1 DUP4 SUB DUP2 DUP6 DUP9 DUP9 CALL SWAP4 POP POP POP POP ISZERO DUP1 ISZERO PUSH2 0xE13 JUMPI RETURNDATASIZE PUSH1 0x0 DUP1 RETURNDATACOPY RETURNDATASIZE PUSH1 0x0 REVERT JUMPDEST POP PUSH1 0x0 DUP1 SLOAD SWAP1 PUSH2 0x100 EXP SWAP1 DIV PUSH20 0xFFFFFFFFFFFFFFFFFFFFFFFFFFFFFFFFFFFFFFFF AND PUSH20 0xFFFFFFFFFFFFFFFFFFFFFFFFFFFFFFFFFFFFFFFF AND PUSH4 0xA9059CBB CALLER DUP5 PUSH1 0x40 MLOAD DUP4 PUSH4 0xFFFFFFFF AND PUSH1 0xE0 SHL DUP2 MSTORE PUSH1 0x4 ADD PUSH2 0xE6F SWAP3 SWAP2 SWAP1 PUSH2 0x13EF JUMP JUMPDEST PUSH1 0x20 PUSH1 0x40 MLOAD DUP1 DUP4 SUB DUP2 PUSH1 0x0 DUP8 DUP1 EXTCODESIZE ISZERO DUP1 ISZERO PUSH2 0xE89 JUMPI PUSH1 0x0 DUP1 REVERT JUMPDEST POP GAS CALL ISZERO DUP1 ISZERO PUSH2 0xE9D JUMPI RETURNDATASIZE PUSH1 0x0 DUP1 RETURNDATACOPY RETURNDATASIZE PUSH1 0x0 REVERT JUMPDEST POP POP POP POP PUSH1 0x40 MLOAD RETURNDATASIZE PUSH1 0x1F NOT PUSH1 0x1F DUP3 ADD AND DUP3 ADD DUP1 PUSH1 0x40 MSTORE POP DUP2 ADD SWAP1 PUSH2 0xEC1 SWAP2 SWAP1 PUSH2 0x1003 JUMP JUMPDEST POP PUSH32 0x1912293D843FE20A997ECEDFE6AB8B44B26FC0ED0D7D2E152158FFD021C9ACE3 DUP3 CALLER PUSH1 0x40 MLOAD PUSH2 0xEF3 SWAP3 SWAP2 SWAP1 PUSH2 0x154C JUMP JUMPDEST PUSH1 0x40 MLOAD DUP1 SWAP2 SUB SWAP1 LOG1 POP POP JUMP JUMPDEST PUSH1 0x0 DUP1 PUSH1 0x0 SWAP1 SLOAD SWAP1 PUSH2 0x100 EXP SWAP1 DIV PUSH20 0xFFFFFFFFFFFFFFFFFFFFFFFFFFFFFFFFFFFFFFFF AND PUSH20 0xFFFFFFFFFFFFFFFFFFFFFFFFFFFFFFFFFFFFFFFF AND PUSH4 0x70A08231 ADDRESS PUSH1 0x40 MLOAD DUP3 PUSH4 0xFFFFFFFF AND PUSH1 0xE0 SHL DUP2 MSTORE PUSH1 0x4 ADD PUSH2 0xF5B SWAP2 SWAP1 PUSH2 0x1382 JUMP JUMPDEST PUSH1 0x20 PUSH1 0x40 MLOAD DUP1 DUP4 SUB DUP2 DUP7 DUP1 EXTCODESIZE ISZERO DUP1 ISZERO PUSH2 0xF73 JUMPI PUSH1 0x0 DUP1 REVERT JUMPDEST POP GAS STATICCALL ISZERO DUP1 ISZERO PUSH2 0xF87 JUMPI RETURNDATASIZE PUSH1 0x0 DUP1 RETURNDATACOPY RETURNDATASIZE PUSH1 0x0 REVERT JUMPDEST POP POP POP POP PUSH1 0x40 MLOAD RETURNDATASIZE PUSH1 0x1F NOT PUSH1 0x1F DUP3 ADD AND DUP3 ADD DUP1 PUSH1 0x40 MSTORE POP DUP2 ADD SWAP1 PUSH2 0xFAB SWAP2 SWAP1 PUSH2 0x1055 JUMP JUMPDEST SWAP1 POP SWAP1 JUMP JUMPDEST PUSH1 0x0 PUSH8 0xDE0B6B3A7640000 DUP3 MUL SWAP1 POP SWAP2 SWAP1 POP JUMP JUMPDEST PUSH1 0x0 DUP2 MLOAD SWAP1 POP PUSH2 0xFD3 DUP2 PUSH2 0x168A JUMP JUMPDEST SWAP3 SWAP2 POP POP JUMP JUMPDEST PUSH1 0x0 DUP2 CALLDATALOAD SWAP1 POP PUSH2 0xFE8 DUP2 PUSH2 0x16A1 JUMP JUMPDEST SWAP3 SWAP2 POP POP JUMP JUMPDEST PUSH1 0x0 DUP2 MLOAD SWAP1 POP PUSH2 0xFFD DUP2 PUSH2 0x16A1 JUMP JUMPDEST SWAP3 SWAP2 POP POP JUMP JUMPDEST PUSH1 0x0 PUSH1 0x20 DUP3 DUP5 SUB SLT ISZERO PUSH2 0x1015 JUMPI PUSH1 0x0 DUP1 REVERT JUMPDEST PUSH1 0x0 PUSH2 0x1023 DUP5 DUP3 DUP6 ADD PUSH2 0xFC4 JUMP JUMPDEST SWAP2 POP POP SWAP3 SWAP2 POP POP JUMP JUMPDEST PUSH1 0x0 PUSH1 0x20 DUP3 DUP5 SUB SLT ISZERO PUSH2 0x103E JUMPI PUSH1 0x0 DUP1 REVERT JUMPDEST PUSH1 0x0 PUSH2 0x104C DUP5 DUP3 DUP6 ADD PUSH2 0xFD9 JUMP JUMPDEST SWAP2 POP POP SWAP3 SWAP2 POP POP JUMP JUMPDEST PUSH1 0x0 PUSH1 0x20 DUP3 DUP5 SUB SLT ISZERO PUSH2 0x1067 JUMPI PUSH1 0x0 DUP1 REVERT JUMPDEST PUSH1 0x0 PUSH2 0x1075 DUP5 DUP3 DUP6 ADD PUSH2 0xFEE JUMP JUMPDEST SWAP2 POP POP SWAP3 SWAP2 POP POP JUMP JUMPDEST PUSH1 0x0 PUSH2 0x108A DUP4 DUP4 PUSH2 0x12F5 JUMP JUMPDEST PUSH1 0x20 DUP4 ADD SWAP1 POP SWAP3 SWAP2 POP POP JUMP JUMPDEST PUSH2 0x109F DUP2 PUSH2 0x1619 JUMP JUMPDEST DUP3 MSTORE POP POP JUMP JUMPDEST PUSH2 0x10B6 PUSH2 0x10B1 DUP3 PUSH2 0x15D1 JUMP JUMPDEST PUSH2 0x164F JUMP JUMPDEST DUP3 MSTORE POP POP JUMP JUMPDEST PUSH2 0x10C5 DUP2 PUSH2 0x15BF JUMP JUMPDEST DUP3 MSTORE POP POP JUMP JUMPDEST PUSH1 0x0 PUSH2 0x10D6 DUP3 PUSH2 0x1585 JUMP JUMPDEST PUSH2 0x10E0 DUP2 DUP6 PUSH2 0x159D JUMP JUMPDEST SWAP4 POP PUSH2 0x10EB DUP4 PUSH2 0x1575 JUMP JUMPDEST DUP1 PUSH1 0x0 JUMPDEST DUP4 DUP2 LT ISZERO PUSH2 0x111C JUMPI DUP2 MLOAD PUSH2 0x1103 DUP9 DUP3 PUSH2 0x107E JUMP JUMPDEST SWAP8 POP PUSH2 0x110E DUP4 PUSH2 0x1590 JUMP JUMPDEST SWAP3 POP POP PUSH1 0x1 DUP2 ADD SWAP1 POP PUSH2 0x10EF JUMP JUMPDEST POP DUP6 SWAP4 POP POP POP POP SWAP3 SWAP2 POP POP JUMP JUMPDEST PUSH1 0x0 PUSH2 0x1136 PUSH1 0x14 DUP4 PUSH2 0x15AE JUMP JUMPDEST SWAP2 POP PUSH32 0x546F6B656E7320696E737566696369656E746573000000000000000000000000 PUSH1 0x0 DUP4 ADD MSTORE PUSH1 0x20 DUP3 ADD SWAP1 POP SWAP2 SWAP1 POP JUMP JUMPDEST PUSH1 0x0 PUSH2 0x1176 PUSH1 0x1F DUP4 PUSH2 0x15AE JUMP JUMPDEST SWAP2 POP PUSH32 0x43616E746964616420646520746F6B656E7320696E737566696369656E746500 PUSH1 0x0 DUP4 ADD MSTORE PUSH1 0x20 DUP3 ADD SWAP1 POP SWAP2 SWAP1 POP JUMP JUMPDEST PUSH1 0x0 PUSH2 0x11B6 PUSH1 0x2D DUP4 PUSH2 0x15AE JUMP JUMPDEST SWAP2 POP PUSH32 0x4E6F207469656E6573207065726D69736F73207061726120656A656375746172 PUSH1 0x0 DUP4 ADD MSTORE PUSH32 0x20657374612066756E63696F6E00000000000000000000000000000000000000 PUSH1 0x20 DUP4 ADD MSTORE PUSH1 0x40 DUP3 ADD SWAP1 POP SWAP2 SWAP1 POP JUMP JUMPDEST PUSH1 0x0 PUSH2 0x121C PUSH1 0x1E DUP4 PUSH2 0x15AE JUMP JUMPDEST SWAP2 POP PUSH32 0x43616E746964616420646520657468657220696E737566696369656E74650000 PUSH1 0x0 DUP4 ADD MSTORE PUSH1 0x20 DUP3 ADD SWAP1 POP SWAP2 SWAP1 POP JUMP JUMPDEST PUSH1 0x0 PUSH2 0x125C PUSH1 0x20 DUP4 PUSH2 0x15AE JUMP JUMPDEST SWAP2 POP PUSH32 0x43616E746964616420646520746F6B656E7320696E737566696369656E746573 PUSH1 0x0 DUP4 ADD MSTORE PUSH1 0x20 DUP3 ADD SWAP1 POP SWAP2 SWAP1 POP JUMP JUMPDEST PUSH1 0x0 PUSH2 0x129C PUSH1 0x28 DUP4 PUSH2 0x15AE JUMP JUMPDEST SWAP2 POP PUSH32 0x4E6F2073652068612076656E6469646F206E696E67C3BA6E20626F6C65746F20 PUSH1 0x0 DUP4 ADD MSTORE PUSH32 0x746F646176C3AD61000000000000000000000000000000000000000000000000 PUSH1 0x20 DUP4 ADD MSTORE PUSH1 0x40 DUP3 ADD SWAP1 POP SWAP2 SWAP1 POP JUMP JUMPDEST PUSH2 0x12FE DUP2 PUSH2 0x160F JUMP JUMPDEST DUP3 MSTORE POP POP JUMP JUMPDEST PUSH2 0x130D DUP2 PUSH2 0x160F JUMP JUMPDEST DUP3 MSTORE POP POP JUMP JUMPDEST PUSH2 0x1324 PUSH2 0x131F DUP3 PUSH2 0x160F JUMP JUMPDEST PUSH2 0x1673 JUMP JUMPDEST DUP3 MSTORE POP POP JUMP JUMPDEST PUSH1 0x0 PUSH2 0x1336 DUP3 DUP5 PUSH2 0x1313 JUMP JUMPDEST PUSH1 0x20 DUP3 ADD SWAP2 POP DUP2 SWAP1 POP SWAP3 SWAP2 POP POP JUMP JUMPDEST PUSH1 0x0 PUSH2 0x1351 DUP3 DUP7 PUSH2 0x1313 JUMP JUMPDEST PUSH1 0x20 DUP3 ADD SWAP2 POP PUSH2 0x1361 DUP3 DUP6 PUSH2 0x10A5 JUMP JUMPDEST PUSH1 0x14 DUP3 ADD SWAP2 POP PUSH2 0x1371 DUP3 DUP5 PUSH2 0x1313 JUMP JUMPDEST PUSH1 0x20 DUP3 ADD SWAP2 POP DUP2 SWAP1 POP SWAP5 SWAP4 POP POP POP POP JUMP JUMPDEST PUSH1 0x0 PUSH1 0x20 DUP3 ADD SWAP1 POP PUSH2 0x1397 PUSH1 0x0 DUP4 ADD DUP5 PUSH2 0x10BC JUMP JUMPDEST SWAP3 SWAP2 POP POP JUMP JUMPDEST PUSH1 0x0 PUSH1 0x20 DUP3 ADD SWAP1 POP PUSH2 0x13B2 PUSH1 0x0 DUP4 ADD DUP5 PUSH2 0x1096 JUMP JUMPDEST SWAP3 SWAP2 POP POP JUMP JUMPDEST PUSH1 0x0 PUSH1 0x60 DUP3 ADD SWAP1 POP PUSH2 0x13CD PUSH1 0x0 DUP4 ADD DUP7 PUSH2 0x1096 JUMP JUMPDEST PUSH2 0x13DA PUSH1 0x20 DUP4 ADD DUP6 PUSH2 0x10BC JUMP JUMPDEST PUSH2 0x13E7 PUSH1 0x40 DUP4 ADD DUP5 PUSH2 0x1304 JUMP JUMPDEST SWAP5 SWAP4 POP POP POP POP JUMP JUMPDEST PUSH1 0x0 PUSH1 0x40 DUP3 ADD SWAP1 POP PUSH2 0x1404 PUSH1 0x0 DUP4 ADD DUP6 PUSH2 0x1096 JUMP JUMPDEST PUSH2 0x1411 PUSH1 0x20 DUP4 ADD DUP5 PUSH2 0x1304 JUMP JUMPDEST SWAP4 SWAP3 POP POP POP JUMP JUMPDEST PUSH1 0x0 PUSH1 0x60 DUP3 ADD SWAP1 POP PUSH2 0x142D PUSH1 0x0 DUP4 ADD DUP7 PUSH2 0x10BC JUMP JUMPDEST PUSH2 0x143A PUSH1 0x20 DUP4 ADD DUP6 PUSH2 0x10BC JUMP JUMPDEST PUSH2 0x1447 PUSH1 0x40 DUP4 ADD DUP5 PUSH2 0x1304 JUMP JUMPDEST SWAP5 SWAP4 POP POP POP POP JUMP JUMPDEST PUSH1 0x0 PUSH1 0x20 DUP3 ADD SWAP1 POP DUP2 DUP2 SUB PUSH1 0x0 DUP4 ADD MSTORE PUSH2 0x1469 DUP2 DUP5 PUSH2 0x10CB JUMP JUMPDEST SWAP1 POP SWAP3 SWAP2 POP POP JUMP JUMPDEST PUSH1 0x0 PUSH1 0x20 DUP3 ADD SWAP1 POP DUP2 DUP2 SUB PUSH1 0x0 DUP4 ADD MSTORE PUSH2 0x148A DUP2 PUSH2 0x1129 JUMP JUMPDEST SWAP1 POP SWAP2 SWAP1 POP JUMP JUMPDEST PUSH1 0x0 PUSH1 0x20 DUP3 ADD SWAP1 POP DUP2 DUP2 SUB PUSH1 0x0 DUP4 ADD MSTORE PUSH2 0x14AA DUP2 PUSH2 0x1169 JUMP JUMPDEST SWAP1 POP SWAP2 SWAP1 POP JUMP JUMPDEST PUSH1 0x0 PUSH1 0x20 DUP3 ADD SWAP1 POP DUP2 DUP2 SUB PUSH1 0x0 DUP4 ADD MSTORE PUSH2 0x14CA DUP2 PUSH2 0x11A9 JUMP JUMPDEST SWAP1 POP SWAP2 SWAP1 POP JUMP JUMPDEST PUSH1 0x0 PUSH1 0x20 DUP3 ADD SWAP1 POP DUP2 DUP2 SUB PUSH1 0x0 DUP4 ADD MSTORE PUSH2 0x14EA DUP2 PUSH2 0x120F JUMP JUMPDEST SWAP1 POP SWAP2 SWAP1 POP JUMP JUMPDEST PUSH1 0x0 PUSH1 0x20 DUP3 ADD SWAP1 POP DUP2 DUP2 SUB PUSH1 0x0 DUP4 ADD MSTORE PUSH2 0x150A DUP2 PUSH2 0x124F JUMP JUMPDEST SWAP1 POP SWAP2 SWAP1 POP JUMP JUMPDEST PUSH1 0x0 PUSH1 0x20 DUP3 ADD SWAP1 POP DUP2 DUP2 SUB PUSH1 0x0 DUP4 ADD MSTORE PUSH2 0x152A DUP2 PUSH2 0x128F JUMP JUMPDEST SWAP1 POP SWAP2 SWAP1 POP JUMP JUMPDEST PUSH1 0x0 PUSH1 0x20 DUP3 ADD SWAP1 POP PUSH2 0x1546 PUSH1 0x0 DUP4 ADD DUP5 PUSH2 0x1304 JUMP JUMPDEST SWAP3 SWAP2 POP POP JUMP JUMPDEST PUSH1 0x0 PUSH1 0x40 DUP3 ADD SWAP1 POP PUSH2 0x1561 PUSH1 0x0 DUP4 ADD DUP6 PUSH2 0x1304 JUMP JUMPDEST PUSH2 0x156E PUSH1 0x20 DUP4 ADD DUP5 PUSH2 0x1096 JUMP JUMPDEST SWAP4 SWAP3 POP POP POP JUMP JUMPDEST PUSH1 0x0 DUP2 SWAP1 POP PUSH1 0x20 DUP3 ADD SWAP1 POP SWAP2 SWAP1 POP JUMP JUMPDEST PUSH1 0x0 DUP2 MLOAD SWAP1 POP SWAP2 SWAP1 POP JUMP JUMPDEST PUSH1 0x0 PUSH1 0x20 DUP3 ADD SWAP1 POP SWAP2 SWAP1 POP JUMP JUMPDEST PUSH1 0x0 DUP3 DUP3 MSTORE PUSH1 0x20 DUP3 ADD SWAP1 POP SWAP3 SWAP2 POP POP JUMP JUMPDEST PUSH1 0x0 DUP3 DUP3 MSTORE PUSH1 0x20 DUP3 ADD SWAP1 POP SWAP3 SWAP2 POP POP JUMP JUMPDEST PUSH1 0x0 PUSH2 0x15CA DUP3 PUSH2 0x15EF JUMP JUMPDEST SWAP1 POP SWAP2 SWAP1 POP JUMP JUMPDEST PUSH1 0x0 PUSH2 0x15DC DUP3 PUSH2 0x15EF JUMP JUMPDEST SWAP1 POP SWAP2 SWAP1 POP JUMP JUMPDEST PUSH1 0x0 DUP2 ISZERO ISZERO SWAP1 POP SWAP2 SWAP1 POP JUMP JUMPDEST PUSH1 0x0 PUSH20 0xFFFFFFFFFFFFFFFFFFFFFFFFFFFFFFFFFFFFFFFF DUP3 AND SWAP1 POP SWAP2 SWAP1 POP JUMP JUMPDEST PUSH1 0x0 DUP2 SWAP1 POP SWAP2 SWAP1 POP JUMP JUMPDEST PUSH1 0x0 PUSH2 0x1624 DUP3 PUSH2 0x162B JUMP JUMPDEST SWAP1 POP SWAP2 SWAP1 POP JUMP JUMPDEST PUSH1 0x0 PUSH2 0x1636 DUP3 PUSH2 0x163D JUMP JUMPDEST SWAP1 POP SWAP2 SWAP1 POP JUMP JUMPDEST PUSH1 0x0 PUSH2 0x1648 DUP3 PUSH2 0x15EF JUMP JUMPDEST SWAP1 POP SWAP2 SWAP1 POP JUMP JUMPDEST PUSH1 0x0 PUSH2 0x165A DUP3 PUSH2 0x1661 JUMP JUMPDEST SWAP1 POP SWAP2 SWAP1 POP JUMP JUMPDEST PUSH1 0x0 PUSH2 0x166C DUP3 PUSH2 0x167D JUMP JUMPDEST SWAP1 POP SWAP2 SWAP1 POP JUMP JUMPDEST PUSH1 0x0 DUP2 SWAP1 POP SWAP2 SWAP1 POP JUMP JUMPDEST PUSH1 0x0 DUP2 PUSH1 0x60 SHL SWAP1 POP SWAP2 SWAP1 POP JUMP JUMPDEST PUSH2 0x1693 DUP2 PUSH2 0x15E3 JUMP JUMPDEST DUP2 EQ PUSH2 0x169E JUMPI PUSH1 0x0 DUP1 REVERT JUMPDEST POP JUMP JUMPDEST PUSH2 0x16AA DUP2 PUSH2 0x160F JUMP JUMPDEST DUP2 EQ PUSH2 0x16B5 JUMPI PUSH1 0x0 DUP1 REVERT JUMPDEST POP JUMP INVALID LOG2 PUSH5 0x6970667358 0x22 SLT KECCAK256 PUSH20 0xBD6B1A911ABDA99656014EDE2D923BCC3EB560EB ORIGIN 0xAC 0x4C 0xF8 PUSH23 0xC9E095EBD13E64736F6C634300060C0033608060405234 DUP1 ISZERO PUSH2 0x10 JUMPI PUSH1 0x0 DUP1 REVERT JUMPDEST POP PUSH1 0x40 MLOAD PUSH2 0x109D CODESIZE SUB DUP1 PUSH2 0x109D DUP4 CODECOPY DUP2 DUP2 ADD PUSH1 0x40 MSTORE DUP2 ADD SWAP1 PUSH2 0x32 SWAP2 SWAP1 PUSH2 0x99 JUMP JUMPDEST DUP1 PUSH1 0x2 DUP2 SWAP1 SSTORE POP PUSH1 0x2 SLOAD PUSH1 0x0 DUP1 CALLER PUSH20 0xFFFFFFFFFFFFFFFFFFFFFFFFFFFFFFFFFFFFFFFF AND PUSH20 0xFFFFFFFFFFFFFFFFFFFFFFFFFFFFFFFFFFFFFFFF AND DUP2 MSTORE PUSH1 0x20 ADD SWAP1 DUP2 MSTORE PUSH1 0x20 ADD PUSH1 0x0 KECCAK256 DUP2 SWAP1 SSTORE POP POP PUSH2 0xE3 JUMP JUMPDEST PUSH1 0x0 DUP2 MLOAD SWAP1 POP PUSH2 0x93 DUP2 PUSH2 0xCC JUMP JUMPDEST SWAP3 SWAP2 POP POP JUMP JUMPDEST PUSH1 0x0 PUSH1 0x20 DUP3 DUP5 SUB SLT ISZERO PUSH2 0xAB JUMPI PUSH1 0x0 DUP1 REVERT JUMPDEST PUSH1 0x0 PUSH2 0xB9 DUP5 DUP3 DUP6 ADD PUSH2 0x84 JUMP JUMPDEST SWAP2 POP POP SWAP3 SWAP2 POP POP JUMP JUMPDEST PUSH1 0x0 DUP2 SWAP1 POP SWAP2 SWAP1 POP JUMP JUMPDEST PUSH2 0xD5 DUP2 PUSH2 0xC2 JUMP JUMPDEST DUP2 EQ PUSH2 0xE0 JUMPI PUSH1 0x0 DUP1 REVERT JUMPDEST POP JUMP JUMPDEST PUSH2 0xFAB DUP1 PUSH2 0xF2 PUSH1 0x0 CODECOPY PUSH1 0x0 RETURN INVALID PUSH1 0x80 PUSH1 0x40 MSTORE CALLVALUE DUP1 ISZERO PUSH2 0x10 JUMPI PUSH1 0x0 DUP1 REVERT JUMPDEST POP PUSH1 0x4 CALLDATASIZE LT PUSH2 0xA9 JUMPI PUSH1 0x0 CALLDATALOAD PUSH1 0xE0 SHR DUP1 PUSH4 0x313CE567 GT PUSH2 0x71 JUMPI DUP1 PUSH4 0x313CE567 EQ PUSH2 0x166 JUMPI DUP1 PUSH4 0x5C79FEBB EQ PUSH2 0x184 JUMPI DUP1 PUSH4 0x70A08231 EQ PUSH2 0x1B4 JUMPI DUP1 PUSH4 0x95D89B41 EQ PUSH2 0x1E4 JUMPI DUP1 PUSH4 0xA9059CBB EQ PUSH2 0x202 JUMPI DUP1 PUSH4 0xDD62ED3E EQ PUSH2 0x232 JUMPI PUSH2 0xA9 JUMP JUMPDEST DUP1 PUSH4 0x6FDDE03 EQ PUSH2 0xAE JUMPI DUP1 PUSH4 0x95EA7B3 EQ PUSH2 0xCC JUMPI DUP1 PUSH4 0x18160DDD EQ PUSH2 0xFC JUMPI DUP1 PUSH4 0x1D43CC98 EQ PUSH2 0x11A JUMPI DUP1 PUSH4 0x23B872DD EQ PUSH2 0x136 JUMPI JUMPDEST PUSH1 0x0 DUP1 REVERT JUMPDEST PUSH2 0xB6 PUSH2 0x262 JUMP JUMPDEST PUSH1 0x40 MLOAD PUSH2 0xC3 SWAP2 SWAP1 PUSH2 0xE3A JUMP JUMPDEST PUSH1 0x40 MLOAD DUP1 SWAP2 SUB SWAP1 RETURN JUMPDEST PUSH2 0xE6 PUSH1 0x4 DUP1 CALLDATASIZE SUB DUP2 ADD SWAP1 PUSH2 0xE1 SWAP2 SWAP1 PUSH2 0xD54 JUMP JUMPDEST PUSH2 0x29B JUMP JUMPDEST PUSH1 0x40 MLOAD PUSH2 0xF3 SWAP2 SWAP1 PUSH2 0xE1F JUMP JUMPDEST PUSH1 0x40 MLOAD DUP1 SWAP2 SUB SWAP1 RETURN JUMPDEST PUSH2 0x104 PUSH2 0x38D JUMP JUMPDEST PUSH1 0x40 MLOAD PUSH2 0x111 SWAP2 SWAP1 PUSH2 0xE5C JUMP JUMPDEST PUSH1 0x40 MLOAD DUP1 SWAP2 SUB SWAP1 RETURN JUMPDEST PUSH2 0x134 PUSH1 0x4 DUP1 CALLDATASIZE SUB DUP2 ADD SWAP1 PUSH2 0x12F SWAP2 SWAP1 PUSH2 0xD90 JUMP JUMPDEST PUSH2 0x397 JUMP JUMPDEST STOP JUMPDEST PUSH2 0x150 PUSH1 0x4 DUP1 CALLDATASIZE SUB DUP2 ADD SWAP1 PUSH2 0x14B SWAP2 SWAP1 PUSH2 0xD05 JUMP JUMPDEST PUSH2 0x3F6 JUMP JUMPDEST PUSH1 0x40 MLOAD PUSH2 0x15D SWAP2 SWAP1 PUSH2 0xE1F JUMP JUMPDEST PUSH1 0x40 MLOAD DUP1 SWAP2 SUB SWAP1 RETURN JUMPDEST PUSH2 0x16E PUSH2 0x771 JUMP JUMPDEST PUSH1 0x40 MLOAD PUSH2 0x17B SWAP2 SWAP1 PUSH2 0xE77 JUMP JUMPDEST PUSH1 0x40 MLOAD DUP1 SWAP2 SUB SWAP1 RETURN JUMPDEST PUSH2 0x19E PUSH1 0x4 DUP1 CALLDATASIZE SUB DUP2 ADD SWAP1 PUSH2 0x199 SWAP2 SWAP1 PUSH2 0xD05 JUMP JUMPDEST PUSH2 0x776 JUMP JUMPDEST PUSH1 0x40 MLOAD PUSH2 0x1AB SWAP2 SWAP1 PUSH2 0xE1F JUMP JUMPDEST PUSH1 0x40 MLOAD DUP1 SWAP2 SUB SWAP1 RETURN JUMPDEST PUSH2 0x1CE PUSH1 0x4 DUP1 CALLDATASIZE SUB DUP2 ADD SWAP1 PUSH2 0x1C9 SWAP2 SWAP1 PUSH2 0xCA0 JUMP JUMPDEST PUSH2 0x959 JUMP JUMPDEST PUSH1 0x40 MLOAD PUSH2 0x1DB SWAP2 SWAP1 PUSH2 0xE5C JUMP JUMPDEST PUSH1 0x40 MLOAD DUP1 SWAP2 SUB SWAP1 RETURN JUMPDEST PUSH2 0x1EC PUSH2 0x9A1 JUMP JUMPDEST PUSH1 0x40 MLOAD PUSH2 0x1F9 SWAP2 SWAP1 PUSH2 0xE3A JUMP JUMPDEST PUSH1 0x40 MLOAD DUP1 SWAP2 SUB SWAP1 RETURN JUMPDEST PUSH2 0x21C PUSH1 0x4 DUP1 CALLDATASIZE SUB DUP2 ADD SWAP1 PUSH2 0x217 SWAP2 SWAP1 PUSH2 0xD54 JUMP JUMPDEST PUSH2 0x9DA JUMP JUMPDEST PUSH1 0x40 MLOAD PUSH2 0x229 SWAP2 SWAP1 PUSH2 0xE1F JUMP JUMPDEST PUSH1 0x40 MLOAD DUP1 SWAP2 SUB SWAP1 RETURN JUMPDEST PUSH2 0x24C PUSH1 0x4 DUP1 CALLDATASIZE SUB DUP2 ADD SWAP1 PUSH2 0x247 SWAP2 SWAP1 PUSH2 0xCC9 JUMP JUMPDEST PUSH2 0xBBC JUMP JUMPDEST PUSH1 0x40 MLOAD PUSH2 0x259 SWAP2 SWAP1 PUSH2 0xE5C JUMP JUMPDEST PUSH1 0x40 MLOAD DUP1 SWAP2 SUB SWAP1 RETURN JUMPDEST PUSH1 0x40 MLOAD DUP1 PUSH1 0x40 ADD PUSH1 0x40 MSTORE DUP1 PUSH1 0xC DUP2 MSTORE PUSH1 0x20 ADD PUSH32 0x4552433230414B414C75676F0000000000000000000000000000000000000000 DUP2 MSTORE POP DUP2 JUMP JUMPDEST PUSH1 0x0 DUP2 PUSH1 0x1 PUSH1 0x0 CALLER PUSH20 0xFFFFFFFFFFFFFFFFFFFFFFFFFFFFFFFFFFFFFFFF AND PUSH20 0xFFFFFFFFFFFFFFFFFFFFFFFFFFFFFFFFFFFFFFFF AND DUP2 MSTORE PUSH1 0x20 ADD SWAP1 DUP2 MSTORE PUSH1 0x20 ADD PUSH1 0x0 KECCAK256 PUSH1 0x0 DUP6 PUSH20 0xFFFFFFFFFFFFFFFFFFFFFFFFFFFFFFFFFFFFFFFF AND PUSH20 0xFFFFFFFFFFFFFFFFFFFFFFFFFFFFFFFFFFFFFFFF AND DUP2 MSTORE PUSH1 0x20 ADD SWAP1 DUP2 MSTORE PUSH1 0x20 ADD PUSH1 0x0 KECCAK256 DUP2 SWAP1 SSTORE POP DUP3 PUSH20 0xFFFFFFFFFFFFFFFFFFFFFFFFFFFFFFFFFFFFFFFF AND CALLER PUSH20 0xFFFFFFFFFFFFFFFFFFFFFFFFFFFFFFFFFFFFFFFF AND PUSH32 0x8C5BE1E5EBEC7D5BD14F71427D1E84F3DD0314C0F7B2291E5B200AC8C7C3B925 DUP5 PUSH1 0x40 MLOAD PUSH2 0x37B SWAP2 SWAP1 PUSH2 0xE5C JUMP JUMPDEST PUSH1 0x40 MLOAD DUP1 SWAP2 SUB SWAP1 LOG3 PUSH1 0x1 SWAP1 POP SWAP3 SWAP2 POP POP JUMP JUMPDEST PUSH1 0x0 PUSH1 0x2 SLOAD SWAP1 POP SWAP1 JUMP JUMPDEST DUP1 PUSH1 0x2 PUSH1 0x0 DUP3 DUP3 SLOAD ADD SWAP3 POP POP DUP2 SWAP1 SSTORE POP DUP1 PUSH1 0x0 DUP1 CALLER PUSH20 0xFFFFFFFFFFFFFFFFFFFFFFFFFFFFFFFFFFFFFFFF AND PUSH20 0xFFFFFFFFFFFFFFFFFFFFFFFFFFFFFFFFFFFFFFFF AND DUP2 MSTORE PUSH1 0x20 ADD SWAP1 DUP2 MSTORE PUSH1 0x20 ADD PUSH1 0x0 KECCAK256 PUSH1 0x0 DUP3 DUP3 SLOAD ADD SWAP3 POP POP DUP2 SWAP1 SSTORE POP POP JUMP JUMPDEST PUSH1 0x0 DUP2 PUSH1 0x0 DUP1 DUP7 PUSH20 0xFFFFFFFFFFFFFFFFFFFFFFFFFFFFFFFFFFFFFFFF AND PUSH20 0xFFFFFFFFFFFFFFFFFFFFFFFFFFFFFFFFFFFFFFFF AND DUP2 MSTORE PUSH1 0x20 ADD SWAP1 DUP2 MSTORE PUSH1 0x20 ADD PUSH1 0x0 KECCAK256 SLOAD LT ISZERO PUSH2 0x443 JUMPI PUSH1 0x0 DUP1 REVERT JUMPDEST DUP2 PUSH1 0x1 PUSH1 0x0 DUP7 PUSH20 0xFFFFFFFFFFFFFFFFFFFFFFFFFFFFFFFFFFFFFFFF AND PUSH20 0xFFFFFFFFFFFFFFFFFFFFFFFFFFFFFFFFFFFFFFFF AND DUP2 MSTORE PUSH1 0x20 ADD SWAP1 DUP2 MSTORE PUSH1 0x20 ADD PUSH1 0x0 KECCAK256 PUSH1 0x0 CALLER PUSH20 0xFFFFFFFFFFFFFFFFFFFFFFFFFFFFFFFFFFFFFFFF AND PUSH20 0xFFFFFFFFFFFFFFFFFFFFFFFFFFFFFFFFFFFFFFFF AND DUP2 MSTORE PUSH1 0x20 ADD SWAP1 DUP2 MSTORE PUSH1 0x20 ADD PUSH1 0x0 KECCAK256 SLOAD LT ISZERO PUSH2 0x4CC JUMPI PUSH1 0x0 DUP1 REVERT JUMPDEST PUSH2 0x51D DUP3 PUSH1 0x0 DUP1 DUP8 PUSH20 0xFFFFFFFFFFFFFFFFFFFFFFFFFFFFFFFFFFFFFFFF AND PUSH20 0xFFFFFFFFFFFFFFFFFFFFFFFFFFFFFFFFFFFFFFFF AND DUP2 MSTORE PUSH1 0x20 ADD SWAP1 DUP2 MSTORE PUSH1 0x20 ADD PUSH1 0x0 KECCAK256 SLOAD PUSH2 0xC43 SWAP1 SWAP2 SWAP1 PUSH4 0xFFFFFFFF AND JUMP JUMPDEST PUSH1 0x0 DUP1 DUP7 PUSH20 0xFFFFFFFFFFFFFFFFFFFFFFFFFFFFFFFFFFFFFFFF AND PUSH20 0xFFFFFFFFFFFFFFFFFFFFFFFFFFFFFFFFFFFFFFFF AND DUP2 MSTORE PUSH1 0x20 ADD SWAP1 DUP2 MSTORE PUSH1 0x20 ADD PUSH1 0x0 KECCAK256 DUP2 SWAP1 SSTORE POP PUSH2 0x5EE DUP3 PUSH1 0x1 PUSH1 0x0 DUP8 PUSH20 0xFFFFFFFFFFFFFFFFFFFFFFFFFFFFFFFFFFFFFFFF AND PUSH20 0xFFFFFFFFFFFFFFFFFFFFFFFFFFFFFFFFFFFFFFFF AND DUP2 MSTORE PUSH1 0x20 ADD SWAP1 DUP2 MSTORE PUSH1 0x20 ADD PUSH1 0x0 KECCAK256 PUSH1 0x0 CALLER PUSH20 0xFFFFFFFFFFFFFFFFFFFFFFFFFFFFFFFFFFFFFFFF AND PUSH20 0xFFFFFFFFFFFFFFFFFFFFFFFFFFFFFFFFFFFFFFFF AND DUP2 MSTORE PUSH1 0x20 ADD SWAP1 DUP2 MSTORE PUSH1 0x20 ADD PUSH1 0x0 KECCAK256 SLOAD PUSH2 0xC43 SWAP1 SWAP2 SWAP1 PUSH4 0xFFFFFFFF AND JUMP JUMPDEST PUSH1 0x1 PUSH1 0x0 DUP7 PUSH20 0xFFFFFFFFFFFFFFFFFFFFFFFFFFFFFFFFFFFFFFFF AND PUSH20 0xFFFFFFFFFFFFFFFFFFFFFFFFFFFFFFFFFFFFFFFF AND DUP2 MSTORE PUSH1 0x20 ADD SWAP1 DUP2 MSTORE PUSH1 0x20 ADD PUSH1 0x0 KECCAK256 PUSH1 0x0 CALLER PUSH20 0xFFFFFFFFFFFFFFFFFFFFFFFFFFFFFFFFFFFFFFFF AND PUSH20 0xFFFFFFFFFFFFFFFFFFFFFFFFFFFFFFFFFFFFFFFF AND DUP2 MSTORE PUSH1 0x20 ADD SWAP1 DUP2 MSTORE PUSH1 0x20 ADD PUSH1 0x0 KECCAK256 DUP2 SWAP1 SSTORE POP PUSH2 0x6BF DUP3 PUSH1 0x0 DUP1 DUP7 PUSH20 0xFFFFFFFFFFFFFFFFFFFFFFFFFFFFFFFFFFFFFFFF AND PUSH20 0xFFFFFFFFFFFFFFFFFFFFFFFFFFFFFFFFFFFFFFFF AND DUP2 MSTORE PUSH1 0x20 ADD SWAP1 DUP2 MSTORE PUSH1 0x20 ADD PUSH1 0x0 KECCAK256 SLOAD PUSH2 0xC5A SWAP1 SWAP2 SWAP1 PUSH4 0xFFFFFFFF AND JUMP JUMPDEST PUSH1 0x0 DUP1 DUP6 PUSH20 0xFFFFFFFFFFFFFFFFFFFFFFFFFFFFFFFFFFFFFFFF AND PUSH20 0xFFFFFFFFFFFFFFFFFFFFFFFFFFFFFFFFFFFFFFFF AND DUP2 MSTORE PUSH1 0x20 ADD SWAP1 DUP2 MSTORE PUSH1 0x20 ADD PUSH1 0x0 KECCAK256 DUP2 SWAP1 SSTORE POP DUP3 PUSH20 0xFFFFFFFFFFFFFFFFFFFFFFFFFFFFFFFFFFFFFFFF AND DUP5 PUSH20 0xFFFFFFFFFFFFFFFFFFFFFFFFFFFFFFFFFFFFFFFF AND PUSH32 0xDDF252AD1BE2C89B69C2B068FC378DAA952BA7F163C4A11628F55A4DF523B3EF DUP5 PUSH1 0x40 MLOAD PUSH2 0x75E SWAP2 SWAP1 PUSH2 0xE5C JUMP JUMPDEST PUSH1 0x40 MLOAD DUP1 SWAP2 SUB SWAP1 LOG3 PUSH1 0x1 SWAP1 POP SWAP4 SWAP3 POP POP POP JUMP JUMPDEST PUSH1 0x12 DUP2 JUMP JUMPDEST PUSH1 0x0 DUP1 PUSH1 0x0 DUP6 PUSH20 0xFFFFFFFFFFFFFFFFFFFFFFFFFFFFFFFFFFFFFFFF AND PUSH20 0xFFFFFFFFFFFFFFFFFFFFFFFFFFFFFFFFFFFFFFFF AND DUP2 MSTORE PUSH1 0x20 ADD SWAP1 DUP2 MSTORE PUSH1 0x20 ADD PUSH1 0x0 KECCAK256 SLOAD DUP3 GT ISZERO PUSH2 0x7C3 JUMPI PUSH1 0x0 DUP1 REVERT JUMPDEST PUSH2 0x814 DUP3 PUSH1 0x0 DUP1 DUP8 PUSH20 0xFFFFFFFFFFFFFFFFFFFFFFFFFFFFFFFFFFFFFFFF AND PUSH20 0xFFFFFFFFFFFFFFFFFFFFFFFFFFFFFFFFFFFFFFFF AND DUP2 MSTORE PUSH1 0x20 ADD SWAP1 DUP2 MSTORE PUSH1 0x20 ADD PUSH1 0x0 KECCAK256 SLOAD PUSH2 0xC43 SWAP1 SWAP2 SWAP1 PUSH4 0xFFFFFFFF AND JUMP JUMPDEST PUSH1 0x0 DUP1 DUP7 PUSH20 0xFFFFFFFFFFFFFFFFFFFFFFFFFFFFFFFFFFFFFFFF AND PUSH20 0xFFFFFFFFFFFFFFFFFFFFFFFFFFFFFFFFFFFFFFFF AND DUP2 MSTORE PUSH1 0x20 ADD SWAP1 DUP2 MSTORE PUSH1 0x20 ADD PUSH1 0x0 KECCAK256 DUP2 SWAP1 SSTORE POP PUSH2 0x8A7 DUP3 PUSH1 0x0 DUP1 DUP7 PUSH20 0xFFFFFFFFFFFFFFFFFFFFFFFFFFFFFFFFFFFFFFFF AND PUSH20 0xFFFFFFFFFFFFFFFFFFFFFFFFFFFFFFFFFFFFFFFF AND DUP2 MSTORE PUSH1 0x20 ADD SWAP1 DUP2 MSTORE PUSH1 0x20 ADD PUSH1 0x0 KECCAK256 SLOAD PUSH2 0xC5A SWAP1 SWAP2 SWAP1 PUSH4 0xFFFFFFFF AND JUMP JUMPDEST PUSH1 0x0 DUP1 DUP6 PUSH20 0xFFFFFFFFFFFFFFFFFFFFFFFFFFFFFFFFFFFFFFFF AND PUSH20 0xFFFFFFFFFFFFFFFFFFFFFFFFFFFFFFFFFFFFFFFF AND DUP2 MSTORE PUSH1 0x20 ADD SWAP1 DUP2 MSTORE PUSH1 0x20 ADD PUSH1 0x0 KECCAK256 DUP2 SWAP1 SSTORE POP DUP3 PUSH20 0xFFFFFFFFFFFFFFFFFFFFFFFFFFFFFFFFFFFFFFFF AND DUP5 PUSH20 0xFFFFFFFFFFFFFFFFFFFFFFFFFFFFFFFFFFFFFFFF AND PUSH32 0xDDF252AD1BE2C89B69C2B068FC378DAA952BA7F163C4A11628F55A4DF523B3EF DUP5 PUSH1 0x40 MLOAD PUSH2 0x946 SWAP2 SWAP1 PUSH2 0xE5C JUMP JUMPDEST PUSH1 0x40 MLOAD DUP1 SWAP2 SUB SWAP1 LOG3 PUSH1 0x1 SWAP1 POP SWAP4 SWAP3 POP POP POP JUMP JUMPDEST PUSH1 0x0 DUP1 PUSH1 0x0 DUP4 PUSH20 0xFFFFFFFFFFFFFFFFFFFFFFFFFFFFFFFFFFFFFFFF AND PUSH20 0xFFFFFFFFFFFFFFFFFFFFFFFFFFFFFFFFFFFFFFFF AND DUP2 MSTORE PUSH1 0x20 ADD SWAP1 DUP2 MSTORE PUSH1 0x20 ADD PUSH1 0x0 KECCAK256 SLOAD SWAP1 POP SWAP2 SWAP1 POP JUMP JUMPDEST PUSH1 0x40 MLOAD DUP1 PUSH1 0x40 ADD PUSH1 0x40 MSTORE DUP1 PUSH1 0x3 DUP2 MSTORE PUSH1 0x20 ADD PUSH32 0x414B410000000000000000000000000000000000000000000000000000000000 DUP2 MSTORE POP DUP2 JUMP JUMPDEST PUSH1 0x0 DUP1 PUSH1 0x0 CALLER PUSH20 0xFFFFFFFFFFFFFFFFFFFFFFFFFFFFFFFFFFFFFFFF AND PUSH20 0xFFFFFFFFFFFFFFFFFFFFFFFFFFFFFFFFFFFFFFFF AND DUP2 MSTORE PUSH1 0x20 ADD SWAP1 DUP2 MSTORE PUSH1 0x20 ADD PUSH1 0x0 KECCAK256 SLOAD DUP3 GT ISZERO PUSH2 0xA27 JUMPI PUSH1 0x0 DUP1 REVERT JUMPDEST PUSH2 0xA78 DUP3 PUSH1 0x0 DUP1 CALLER PUSH20 0xFFFFFFFFFFFFFFFFFFFFFFFFFFFFFFFFFFFFFFFF AND PUSH20 0xFFFFFFFFFFFFFFFFFFFFFFFFFFFFFFFFFFFFFFFF AND DUP2 MSTORE PUSH1 0x20 ADD SWAP1 DUP2 MSTORE PUSH1 0x20 ADD PUSH1 0x0 KECCAK256 SLOAD PUSH2 0xC43 SWAP1 SWAP2 SWAP1 PUSH4 0xFFFFFFFF AND JUMP JUMPDEST PUSH1 0x0 DUP1 CALLER PUSH20 0xFFFFFFFFFFFFFFFFFFFFFFFFFFFFFFFFFFFFFFFF AND PUSH20 0xFFFFFFFFFFFFFFFFFFFFFFFFFFFFFFFFFFFFFFFF AND DUP2 MSTORE PUSH1 0x20 ADD SWAP1 DUP2 MSTORE PUSH1 0x20 ADD PUSH1 0x0 KECCAK256 DUP2 SWAP1 SSTORE POP PUSH2 0xB0B DUP3 PUSH1 0x0 DUP1 DUP7 PUSH20 0xFFFFFFFFFFFFFFFFFFFFFFFFFFFFFFFFFFFFFFFF AND PUSH20 0xFFFFFFFFFFFFFFFFFFFFFFFFFFFFFFFFFFFFFFFF AND DUP2 MSTORE PUSH1 0x20 ADD SWAP1 DUP2 MSTORE PUSH1 0x20 ADD PUSH1 0x0 KECCAK256 SLOAD PUSH2 0xC5A SWAP1 SWAP2 SWAP1 PUSH4 0xFFFFFFFF AND JUMP JUMPDEST PUSH1 0x0 DUP1 DUP6 PUSH20 0xFFFFFFFFFFFFFFFFFFFFFFFFFFFFFFFFFFFFFFFF AND PUSH20 0xFFFFFFFFFFFFFFFFFFFFFFFFFFFFFFFFFFFFFFFF AND DUP2 MSTORE PUSH1 0x20 ADD SWAP1 DUP2 MSTORE PUSH1 0x20 ADD PUSH1 0x0 KECCAK256 DUP2 SWAP1 SSTORE POP DUP3 PUSH20 0xFFFFFFFFFFFFFFFFFFFFFFFFFFFFFFFFFFFFFFFF AND CALLER PUSH20 0xFFFFFFFFFFFFFFFFFFFFFFFFFFFFFFFFFFFFFFFF AND PUSH32 0xDDF252AD1BE2C89B69C2B068FC378DAA952BA7F163C4A11628F55A4DF523B3EF DUP5 PUSH1 0x40 MLOAD PUSH2 0xBAA SWAP2 SWAP1 PUSH2 0xE5C JUMP JUMPDEST PUSH1 0x40 MLOAD DUP1 SWAP2 SUB SWAP1 LOG3 PUSH1 0x1 SWAP1 POP SWAP3 SWAP2 POP POP JUMP JUMPDEST PUSH1 0x0 PUSH1 0x1 PUSH1 0x0 DUP5 PUSH20 0xFFFFFFFFFFFFFFFFFFFFFFFFFFFFFFFFFFFFFFFF AND PUSH20 0xFFFFFFFFFFFFFFFFFFFFFFFFFFFFFFFFFFFFFFFF AND DUP2 MSTORE PUSH1 0x20 ADD SWAP1 DUP2 MSTORE PUSH1 0x20 ADD PUSH1 0x0 KECCAK256 PUSH1 0x0 DUP4 PUSH20 0xFFFFFFFFFFFFFFFFFFFFFFFFFFFFFFFFFFFFFFFF AND PUSH20 0xFFFFFFFFFFFFFFFFFFFFFFFFFFFFFFFFFFFFFFFF AND DUP2 MSTORE PUSH1 0x20 ADD SWAP1 DUP2 MSTORE PUSH1 0x20 ADD PUSH1 0x0 KECCAK256 SLOAD SWAP1 POP SWAP3 SWAP2 POP POP JUMP JUMPDEST PUSH1 0x0 DUP3 DUP3 GT ISZERO PUSH2 0xC4F JUMPI INVALID JUMPDEST DUP2 DUP4 SUB SWAP1 POP SWAP3 SWAP2 POP POP JUMP JUMPDEST PUSH1 0x0 DUP1 DUP3 DUP5 ADD SWAP1 POP DUP4 DUP2 LT ISZERO PUSH2 0xC6C JUMPI INVALID JUMPDEST DUP1 SWAP2 POP POP SWAP3 SWAP2 POP POP JUMP JUMPDEST PUSH1 0x0 DUP2 CALLDATALOAD SWAP1 POP PUSH2 0xC85 DUP2 PUSH2 0xF47 JUMP JUMPDEST SWAP3 SWAP2 POP POP JUMP JUMPDEST PUSH1 0x0 DUP2 CALLDATALOAD SWAP1 POP PUSH2 0xC9A DUP2 PUSH2 0xF5E JUMP JUMPDEST SWAP3 SWAP2 POP POP JUMP JUMPDEST PUSH1 0x0 PUSH1 0x20 DUP3 DUP5 SUB SLT ISZERO PUSH2 0xCB2 JUMPI PUSH1 0x0 DUP1 REVERT JUMPDEST PUSH1 0x0 PUSH2 0xCC0 DUP5 DUP3 DUP6 ADD PUSH2 0xC76 JUMP JUMPDEST SWAP2 POP POP SWAP3 SWAP2 POP POP JUMP JUMPDEST PUSH1 0x0 DUP1 PUSH1 0x40 DUP4 DUP6 SUB SLT ISZERO PUSH2 0xCDC JUMPI PUSH1 0x0 DUP1 REVERT JUMPDEST PUSH1 0x0 PUSH2 0xCEA DUP6 DUP3 DUP7 ADD PUSH2 0xC76 JUMP JUMPDEST SWAP3 POP POP PUSH1 0x20 PUSH2 0xCFB DUP6 DUP3 DUP7 ADD PUSH2 0xC76 JUMP JUMPDEST SWAP2 POP POP SWAP3 POP SWAP3 SWAP1 POP JUMP JUMPDEST PUSH1 0x0 DUP1 PUSH1 0x0 PUSH1 0x60 DUP5 DUP7 SUB SLT ISZERO PUSH2 0xD1A JUMPI PUSH1 0x0 DUP1 REVERT JUMPDEST PUSH1 0x0 PUSH2 0xD28 DUP7 DUP3 DUP8 ADD PUSH2 0xC76 JUMP JUMPDEST SWAP4 POP POP PUSH1 0x20 PUSH2 0xD39 DUP7 DUP3 DUP8 ADD PUSH2 0xC76 JUMP JUMPDEST SWAP3 POP POP PUSH1 0x40 PUSH2 0xD4A DUP7 DUP3 DUP8 ADD PUSH2 0xC8B JUMP JUMPDEST SWAP2 POP POP SWAP3 POP SWAP3 POP SWAP3 JUMP JUMPDEST PUSH1 0x0 DUP1 PUSH1 0x40 DUP4 DUP6 SUB SLT ISZERO PUSH2 0xD67 JUMPI PUSH1 0x0 DUP1 REVERT JUMPDEST PUSH1 0x0 PUSH2 0xD75 DUP6 DUP3 DUP7 ADD PUSH2 0xC76 JUMP JUMPDEST SWAP3 POP POP PUSH1 0x20 PUSH2 0xD86 DUP6 DUP3 DUP7 ADD PUSH2 0xC8B JUMP JUMPDEST SWAP2 POP POP SWAP3 POP SWAP3 SWAP1 POP JUMP JUMPDEST PUSH1 0x0 PUSH1 0x20 DUP3 DUP5 SUB SLT ISZERO PUSH2 0xDA2 JUMPI PUSH1 0x0 DUP1 REVERT JUMPDEST PUSH1 0x0 PUSH2 0xDB0 DUP5 DUP3 DUP6 ADD PUSH2 0xC8B JUMP JUMPDEST SWAP2 POP POP SWAP3 SWAP2 POP POP JUMP JUMPDEST PUSH2 0xDC2 DUP2 PUSH2 0xEC0 JUMP JUMPDEST DUP3 MSTORE POP POP JUMP JUMPDEST PUSH1 0x0 PUSH2 0xDD3 DUP3 PUSH2 0xE92 JUMP JUMPDEST PUSH2 0xDDD DUP2 DUP6 PUSH2 0xE9D JUMP JUMPDEST SWAP4 POP PUSH2 0xDED DUP2 DUP6 PUSH1 0x20 DUP7 ADD PUSH2 0xF03 JUMP JUMPDEST PUSH2 0xDF6 DUP2 PUSH2 0xF36 JUMP JUMPDEST DUP5 ADD SWAP2 POP POP SWAP3 SWAP2 POP POP JUMP JUMPDEST PUSH2 0xE0A DUP2 PUSH2 0xEEC JUMP JUMPDEST DUP3 MSTORE POP POP JUMP JUMPDEST PUSH2 0xE19 DUP2 PUSH2 0xEF6 JUMP JUMPDEST DUP3 MSTORE POP POP JUMP JUMPDEST PUSH1 0x0 PUSH1 0x20 DUP3 ADD SWAP1 POP PUSH2 0xE34 PUSH1 0x0 DUP4 ADD DUP5 PUSH2 0xDB9 JUMP JUMPDEST SWAP3 SWAP2 POP POP JUMP JUMPDEST PUSH1 0x0 PUSH1 0x20 DUP3 ADD SWAP1 POP DUP2 DUP2 SUB PUSH1 0x0 DUP4 ADD MSTORE PUSH2 0xE54 DUP2 DUP5 PUSH2 0xDC8 JUMP JUMPDEST SWAP1 POP SWAP3 SWAP2 POP POP JUMP JUMPDEST PUSH1 0x0 PUSH1 0x20 DUP3 ADD SWAP1 POP PUSH2 0xE71 PUSH1 0x0 DUP4 ADD DUP5 PUSH2 0xE01 JUMP JUMPDEST SWAP3 SWAP2 POP POP JUMP JUMPDEST PUSH1 0x0 PUSH1 0x20 DUP3 ADD SWAP1 POP PUSH2 0xE8C PUSH1 0x0 DUP4 ADD DUP5 PUSH2 0xE10 JUMP JUMPDEST SWAP3 SWAP2 POP POP JUMP JUMPDEST PUSH1 0x0 DUP2 MLOAD SWAP1 POP SWAP2 SWAP1 POP JUMP JUMPDEST PUSH1 0x0 DUP3 DUP3 MSTORE PUSH1 0x20 DUP3 ADD SWAP1 POP SWAP3 SWAP2 POP POP JUMP JUMPDEST PUSH1 0x0 PUSH2 0xEB9 DUP3 PUSH2 0xECC JUMP JUMPDEST SWAP1 POP SWAP2 SWAP1 POP JUMP JUMPDEST PUSH1 0x0 DUP2 ISZERO ISZERO SWAP1 POP SWAP2 SWAP1 POP JUMP JUMPDEST PUSH1 0x0 PUSH20 0xFFFFFFFFFFFFFFFFFFFFFFFFFFFFFFFFFFFFFFFF DUP3 AND SWAP1 POP SWAP2 SWAP1 POP JUMP JUMPDEST PUSH1 0x0 DUP2 SWAP1 POP SWAP2 SWAP1 POP JUMP JUMPDEST PUSH1 0x0 PUSH1 0xFF DUP3 AND SWAP1 POP SWAP2 SWAP1 POP JUMP JUMPDEST PUSH1 0x0 JUMPDEST DUP4 DUP2 LT ISZERO PUSH2 0xF21 JUMPI DUP1 DUP3 ADD MLOAD DUP2 DUP5 ADD MSTORE PUSH1 0x20 DUP2 ADD SWAP1 POP PUSH2 0xF06 JUMP JUMPDEST DUP4 DUP2 GT ISZERO PUSH2 0xF30 JUMPI PUSH1 0x0 DUP5 DUP5 ADD MSTORE JUMPDEST POP POP POP POP JUMP JUMPDEST PUSH1 0x0 PUSH1 0x1F NOT PUSH1 0x1F DUP4 ADD AND SWAP1 POP SWAP2 SWAP1 POP JUMP JUMPDEST PUSH2 0xF50 DUP2 PUSH2 0xEAE JUMP JUMPDEST DUP2 EQ PUSH2 0xF5B JUMPI PUSH1 0x0 DUP1 REVERT JUMPDEST POP JUMP JUMPDEST PUSH2 0xF67 DUP2 PUSH2 0xEEC JUMP JUMPDEST DUP2 EQ PUSH2 0xF72 JUMPI PUSH1 0x0 DUP1 REVERT JUMPDEST POP JUMP INVALID LOG2 PUSH5 0x6970667358 0x22 SLT KECCAK256 COINBASE SWAP3 0x4E PUSH22 0xC6A689F4E76B488C772248149581615C89D36359B220 RETURNDATASIZE GT PUSH32 0x5C45A064736F6C634300060C0033000000000000000000000000000000000000 "
				},
				"gasEstimates": {
					"creation": {
						"codeDepositCost": "1174000",
						"executionCost": "infinite",
						"totalCost": "infinite"
					},
					"external": {
						"Bote()": "infinite",
						"CompraTokens(uint256)": "infinite",
						"ComprarBoleto(uint256)": "infinite",
						"DevolverTokens(uint256)": "infinite",
						"GeneraTokens(uint256)": "infinite",
						"GenerarGanador()": "infinite",
						"MisBoletos()": "infinite",
						"MisTokens()": "infinite",
						"PrecioBoleto()": "1174",
						"TokensDisponibles()": "infinite",
						"contrato()": "1258",
						"owner()": "1236"
					},
					"internal": {
						"PrecioTokens(uint256)": "36"
					}
				},
				"methodIdentifiers": {
					"Bote()": "74189861",
					"CompraTokens(uint256)": "f7774091",
					"ComprarBoleto(uint256)": "7cd15f44",
					"DevolverTokens(uint256)": "1890154c",
					"GeneraTokens(uint256)": "1246f6e2",
					"GenerarGanador()": "5332eee5",
					"MisBoletos()": "79face26",
					"MisTokens()": "e33f34a0",
					"PrecioBoleto()": "27909f27",
					"TokensDisponibles()": "fd889ff5",
					"contrato()": "e1a01e67",
					"owner()": "8da5cb5b"
				}
			},
			"storageLayout": {
				"storage": [
					{
						"astId": 497,
						"contract": "Loteria/loteria.sol:Loteria",
						"label": "token",
						"offset": 0,
						"slot": "0",
						"type": "t_contract(ERC20Basic)409"
					},
					{
						"astId": 499,
						"contract": "Loteria/loteria.sol:Loteria",
						"label": "owner",
						"offset": 0,
						"slot": "1",
						"type": "t_address"
					},
					{
						"astId": 501,
						"contract": "Loteria/loteria.sol:Loteria",
						"label": "contrato",
						"offset": 0,
						"slot": "2",
						"type": "t_address"
					},
					{
						"astId": 667,
						"contract": "Loteria/loteria.sol:Loteria",
						"label": "PrecioBoleto",
						"offset": 0,
						"slot": "3",
						"type": "t_uint256"
					},
					{
						"astId": 672,
						"contract": "Loteria/loteria.sol:Loteria",
						"label": "idPersona_boletos",
						"offset": 0,
						"slot": "4",
						"type": "t_mapping(t_address,t_array(t_uint256)dyn_storage)"
					},
					{
						"astId": 676,
						"contract": "Loteria/loteria.sol:Loteria",
						"label": "ADN_boleto",
						"offset": 0,
						"slot": "5",
						"type": "t_mapping(t_uint256,t_address)"
					},
					{
						"astId": 679,
						"contract": "Loteria/loteria.sol:Loteria",
						"label": "randNonce",
						"offset": 0,
						"slot": "6",
						"type": "t_uint256"
					},
					{
						"astId": 682,
						"contract": "Loteria/loteria.sol:Loteria",
						"label": "boletos_comprados",
						"offset": 0,
						"slot": "7",
						"type": "t_array(t_uint256)dyn_storage"
					}
				],
				"types": {
					"t_address": {
						"encoding": "inplace",
						"label": "address",
						"numberOfBytes": "20"
					},
					"t_array(t_uint256)dyn_storage": {
						"base": "t_uint256",
						"encoding": "dynamic_array",
						"label": "uint256[]",
						"numberOfBytes": "32"
					},
					"t_contract(ERC20Basic)409": {
						"encoding": "inplace",
						"label": "contract ERC20Basic",
						"numberOfBytes": "20"
					},
					"t_mapping(t_address,t_array(t_uint256)dyn_storage)": {
						"encoding": "mapping",
						"key": "t_address",
						"label": "mapping(address => uint256[])",
						"numberOfBytes": "32",
						"value": "t_array(t_uint256)dyn_storage"
					},
					"t_mapping(t_uint256,t_address)": {
						"encoding": "mapping",
						"key": "t_uint256",
						"label": "mapping(uint256 => address)",
						"numberOfBytes": "32",
						"value": "t_address"
					},
					"t_uint256": {
						"encoding": "inplace",
						"label": "uint256",
						"numberOfBytes": "32"
					}
				}
			},
			"userdoc": {
				"kind": "user",
				"methods": {},
				"version": 1
			}
		}
	}
}