{
	"Loteria/loteria.sol": {
		"Loteria": {
			"abi": [
				{
					"inputs": [],
					"stateMutability": "nonpayable",
					"type": "constructor"
				},
				{
					"anonymous": false,
					"inputs": [
						{
							"indexed": false,
							"internalType": "uint256",
							"name": "",
							"type": "uint256"
						},
						{
							"indexed": false,
							"internalType": "address",
							"name": "",
							"type": "address"
						}
					],
					"name": "ComprarTokens",
					"type": "event"
				},
				{
					"anonymous": false,
					"inputs": [
						{
							"indexed": false,
							"internalType": "uint256",
							"name": "",
							"type": "uint256"
						}
					],
					"name": "boleto_comprado",
					"type": "event"
				},
				{
					"anonymous": false,
					"inputs": [
						{
							"indexed": false,
							"internalType": "uint256",
							"name": "",
							"type": "uint256"
						}
					],
					"name": "boleto_ganador",
					"type": "event"
				},
				{
					"inputs": [],
					"name": "Bote",
					"outputs": [
						{
							"internalType": "uint256",
							"name": "",
							"type": "uint256"
						}
					],
					"stateMutability": "view",
					"type": "function"
				},
				{
					"inputs": [
						{
							"internalType": "uint256",
							"name": "_numTokens",
							"type": "uint256"
						}
					],
					"name": "CompraTokens",
					"outputs": [],
					"stateMutability": "payable",
					"type": "function"
				},
				{
					"inputs": [
						{
							"internalType": "uint256",
							"name": "_boletos",
							"type": "uint256"
						}
					],
					"name": "ComprarBoleto",
					"outputs": [],
					"stateMutability": "nonpayable",
					"type": "function"
				},
				{
					"inputs": [
						{
							"internalType": "uint256",
							"name": "_numTokens",
							"type": "uint256"
						}
					],
					"name": "GeneraTokens",
					"outputs": [],
					"stateMutability": "nonpayable",
					"type": "function"
				},
				{
					"inputs": [],
					"name": "MisTokens",
					"outputs": [
						{
							"internalType": "uint256",
							"name": "",
							"type": "uint256"
						}
					],
					"stateMutability": "view",
					"type": "function"
				},
				{
					"inputs": [],
					"name": "PrecioBoleto",
					"outputs": [
						{
							"internalType": "uint256",
							"name": "",
							"type": "uint256"
						}
					],
					"stateMutability": "view",
					"type": "function"
				},
				{
					"inputs": [],
					"name": "TokensDisponibles",
					"outputs": [
						{
							"internalType": "uint256",
							"name": "",
							"type": "uint256"
						}
					],
					"stateMutability": "view",
					"type": "function"
				},
				{
					"inputs": [],
					"name": "contrato",
					"outputs": [
						{
							"internalType": "address",
							"name": "",
							"type": "address"
						}
					],
					"stateMutability": "view",
					"type": "function"
				},
				{
					"inputs": [],
					"name": "owner",
					"outputs": [
						{
							"internalType": "address",
							"name": "",
							"type": "address"
						}
					],
					"stateMutability": "view",
					"type": "function"
				}
			],
			"devdoc": {
				"kind": "dev",
				"methods": {},
				"version": 1
			},
			"evm": {
				"assembly": "    /* \"Loteria/loteria.sol\":131:3871  contract Loteria {\r... */\n  mstore(0x40, 0x80)\n    /* \"Loteria/loteria.sol\":2564:2565  5 */\n  0x05\n    /* \"Loteria/loteria.sol\":2537:2565  uint public PrecioBoleto = 5 */\n  0x03\n  sstore\n    /* \"Loteria/loteria.sol\":2841:2842  0 */\n  0x00\n    /* \"Loteria/loteria.sol\":2824:2842  uint randNonce = 0 */\n  0x06\n  sstore\n    /* \"Loteria/loteria.sol\":301:434  constructor() public {\r... */\n  callvalue\n  dup1\n  iszero\n  tag_1\n  jumpi\n  0x00\n  dup1\n  revert\ntag_1:\n  pop\n    /* \"Loteria/loteria.sol\":356:361  10000 */\n  0x2710\n    /* \"Loteria/loteria.sol\":341:362  new ERC20Basic(10000) */\n  mload(0x40)\n  tag_4\n  swap1\n  tag_5\n  jump\t// in\ntag_4:\n  tag_6\n  swap2\n  swap1\n  tag_7\n  jump\t// in\ntag_6:\n  mload(0x40)\n  dup1\n  swap2\n  sub\n  swap1\n  0x00\n  create\n  dup1\n  iszero\n  dup1\n  iszero\n  tag_8\n  jumpi\n  returndatasize\n  0x00\n  dup1\n  returndatacopy\n  revert(0x00, returndatasize)\ntag_8:\n  pop\n    /* \"Loteria/loteria.sol\":333:338  token */\n  0x00\n  dup1\n    /* \"Loteria/loteria.sol\":333:362  token = new ERC20Basic(10000) */\n  0x0100\n  exp\n  dup2\n  sload\n  dup2\n  0xffffffffffffffffffffffffffffffffffffffff\n  mul\n  not\n  and\n  swap1\n  dup4\n  0xffffffffffffffffffffffffffffffffffffffff\n  and\n  mul\n  or\n  swap1\n  sstore\n  pop\n    /* \"Loteria/loteria.sol\":381:391  msg.sender */\n  caller\n    /* \"Loteria/loteria.sol\":373:378  owner */\n  0x01\n  0x00\n    /* \"Loteria/loteria.sol\":373:391  owner = msg.sender */\n  0x0100\n  exp\n  dup2\n  sload\n  dup2\n  0xffffffffffffffffffffffffffffffffffffffff\n  mul\n  not\n  and\n  swap1\n  dup4\n  0xffffffffffffffffffffffffffffffffffffffff\n  and\n  mul\n  or\n  swap1\n  sstore\n  pop\n    /* \"Loteria/loteria.sol\":421:425  this */\n  address\n    /* \"Loteria/loteria.sol\":402:410  contrato */\n  0x02\n  0x00\n    /* \"Loteria/loteria.sol\":402:426  contrato = address(this) */\n  0x0100\n  exp\n  dup2\n  sload\n  dup2\n  0xffffffffffffffffffffffffffffffffffffffff\n  mul\n  not\n  and\n  swap1\n  dup4\n  0xffffffffffffffffffffffffffffffffffffffff\n  and\n  mul\n  or\n  swap1\n  sstore\n  pop\n    /* \"Loteria/loteria.sol\":131:3871  contract Loteria {\r... */\n  jump(tag_9)\ntag_5:\n  dataSize(sub_1)\n  dup1\n  dataOffset(sub_1)\n  dup4\n  codecopy\n  add\n  swap1\n  jump\t// out\n    /* \"--CODEGEN--\":5:155   */\ntag_11:\n    /* \"--CODEGEN--\":100:149   */\n  tag_13\n    /* \"--CODEGEN--\":143:148   */\n  dup2\n    /* \"--CODEGEN--\":100:149   */\n  tag_14\n  jump\t// in\ntag_13:\n    /* \"--CODEGEN--\":95:98   */\n  dup3\n    /* \"--CODEGEN--\":88:150   */\n  mstore\n    /* \"--CODEGEN--\":82:155   */\n  pop\n  pop\n  jump\t// out\n    /* \"--CODEGEN--\":162:408   */\ntag_7:\n  0x00\n    /* \"--CODEGEN--\":301:303   */\n  0x20\n    /* \"--CODEGEN--\":290:299   */\n  dup3\n    /* \"--CODEGEN--\":286:304   */\n  add\n    /* \"--CODEGEN--\":278:304   */\n  swap1\n  pop\n    /* \"--CODEGEN--\":315:398   */\n  tag_16\n    /* \"--CODEGEN--\":395:396   */\n  0x00\n    /* \"--CODEGEN--\":384:393   */\n  dup4\n    /* \"--CODEGEN--\":380:397   */\n  add\n    /* \"--CODEGEN--\":371:377   */\n  dup5\n    /* \"--CODEGEN--\":315:398   */\n  tag_11\n  jump\t// in\ntag_16:\n    /* \"--CODEGEN--\":272:408   */\n  swap3\n  swap2\n  pop\n  pop\n  jump\t// out\n    /* \"--CODEGEN--\":415:487   */\ntag_17:\n  0x00\n    /* \"--CODEGEN--\":477:482   */\n  dup2\n    /* \"--CODEGEN--\":466:482   */\n  swap1\n  pop\n    /* \"--CODEGEN--\":460:487   */\n  swap2\n  swap1\n  pop\n  jump\t// out\n    /* \"--CODEGEN--\":494:614   */\ntag_14:\n  0x00\n    /* \"--CODEGEN--\":585:609   */\n  tag_20\n    /* \"--CODEGEN--\":603:608   */\n  dup3\n    /* \"--CODEGEN--\":585:609   */\n  tag_17\n  jump\t// in\ntag_20:\n    /* \"--CODEGEN--\":572:609   */\n  swap1\n  pop\n    /* \"--CODEGEN--\":566:614   */\n  swap2\n  swap1\n  pop\n  jump\t// out\n    /* \"Loteria/loteria.sol\":131:3871  contract Loteria {\r... */\ntag_9:\n  dataSize(sub_0)\n  dup1\n  dataOffset(sub_0)\n  0x00\n  codecopy\n  0x00\n  return\nstop\n\nsub_0: assembly {\n        /* \"Loteria/loteria.sol\":131:3871  contract Loteria {\r... */\n      mstore(0x40, 0x80)\n      jumpi(tag_1, lt(calldatasize, 0x04))\n      shr(0xe0, calldataload(0x00))\n      dup1\n      0x8da5cb5b\n      gt\n      tag_11\n      jumpi\n      dup1\n      0x8da5cb5b\n      eq\n      tag_6\n      jumpi\n      dup1\n      0xe1a01e67\n      eq\n      tag_7\n      jumpi\n      dup1\n      0xe33f34a0\n      eq\n      tag_8\n      jumpi\n      dup1\n      0xf7774091\n      eq\n      tag_9\n      jumpi\n      dup1\n      0xfd889ff5\n      eq\n      tag_10\n      jumpi\n      jump(tag_1)\n    tag_11:\n      dup1\n      0x1246f6e2\n      eq\n      tag_2\n      jumpi\n      dup1\n      0x27909f27\n      eq\n      tag_3\n      jumpi\n      dup1\n      0x74189861\n      eq\n      tag_4\n      jumpi\n      dup1\n      0x7cd15f44\n      eq\n      tag_5\n      jumpi\n    tag_1:\n      0x00\n      dup1\n      revert\n        /* \"Loteria/loteria.sol\":1035:1160  function GeneraTokens(uint _numTokens) public Unicamente(msg.sender) {\r... */\n    tag_2:\n      callvalue\n      dup1\n      iszero\n      tag_12\n      jumpi\n      0x00\n      dup1\n      revert\n    tag_12:\n      pop\n      tag_13\n      0x04\n      dup1\n      calldatasize\n      sub\n      dup2\n      add\n      swap1\n      tag_14\n      swap2\n      swap1\n      tag_15\n      jump\t// in\n    tag_14:\n      tag_16\n      jump\t// in\n    tag_13:\n      stop\n        /* \"Loteria/loteria.sol\":2537:2565  uint public PrecioBoleto = 5 */\n    tag_3:\n      callvalue\n      dup1\n      iszero\n      tag_17\n      jumpi\n      0x00\n      dup1\n      revert\n    tag_17:\n      pop\n      tag_18\n      tag_19\n      jump\t// in\n    tag_18:\n      mload(0x40)\n      tag_20\n      swap2\n      swap1\n      tag_21\n      jump\t// in\n    tag_20:\n      mload(0x40)\n      dup1\n      swap2\n      sub\n      swap1\n      return\n        /* \"Loteria/loteria.sol\":2171:2261  function Bote() public view returns(uint) {\r... */\n    tag_4:\n      callvalue\n      dup1\n      iszero\n      tag_22\n      jumpi\n      0x00\n      dup1\n      revert\n    tag_22:\n      pop\n      tag_23\n      tag_24\n      jump\t// in\n    tag_23:\n      mload(0x40)\n      tag_25\n      swap2\n      swap1\n      tag_21\n      jump\t// in\n    tag_25:\n      mload(0x40)\n      dup1\n      swap2\n      sub\n      swap1\n      return\n        /* \"Loteria/loteria.sol\":3039:3866  function ComprarBoleto(uint _boletos) public {\r... */\n    tag_5:\n      callvalue\n      dup1\n      iszero\n      tag_26\n      jumpi\n      0x00\n      dup1\n      revert\n    tag_26:\n      pop\n      tag_27\n      0x04\n      dup1\n      calldatasize\n      sub\n      dup2\n      add\n      swap1\n      tag_28\n      swap2\n      swap1\n      tag_15\n      jump\t// in\n    tag_28:\n      tag_29\n      jump\t// in\n    tag_27:\n      stop\n        /* \"Loteria/loteria.sol\":242:262  address public owner */\n    tag_6:\n      callvalue\n      dup1\n      iszero\n      tag_30\n      jumpi\n      0x00\n      dup1\n      revert\n    tag_30:\n      pop\n      tag_31\n      tag_32\n      jump\t// in\n    tag_31:\n      mload(0x40)\n      tag_33\n      swap2\n      swap1\n      tag_34\n      jump\t// in\n    tag_33:\n      mload(0x40)\n      dup1\n      swap2\n      sub\n      swap1\n      return\n        /* \"Loteria/loteria.sol\":269:292  address public contrato */\n    tag_7:\n      callvalue\n      dup1\n      iszero\n      tag_35\n      jumpi\n      0x00\n      dup1\n      revert\n    tag_35:\n      pop\n      tag_36\n      tag_37\n      jump\t// in\n    tag_36:\n      mload(0x40)\n      tag_38\n      swap2\n      swap1\n      tag_34\n      jump\t// in\n    tag_38:\n      mload(0x40)\n      dup1\n      swap2\n      sub\n      swap1\n      return\n        /* \"Loteria/loteria.sol\":2299:2400  function MisTokens() public view returns (uint) {\r... */\n    tag_8:\n      callvalue\n      dup1\n      iszero\n      tag_39\n      jumpi\n      0x00\n      dup1\n      revert\n    tag_39:\n      pop\n      tag_40\n      tag_41\n      jump\t// in\n    tag_40:\n      mload(0x40)\n      tag_42\n      swap2\n      swap1\n      tag_21\n      jump\t// in\n    tag_42:\n      mload(0x40)\n      dup1\n      swap2\n      sub\n      swap1\n      return\n        /* \"Loteria/loteria.sol\":1191:1945  function CompraTokens(uint _numTokens) public payable {\r... */\n    tag_9:\n      tag_43\n      0x04\n      dup1\n      calldatasize\n      sub\n      dup2\n      add\n      swap1\n      tag_44\n      swap2\n      swap1\n      tag_15\n      jump\t// in\n    tag_44:\n      tag_45\n      jump\t// in\n    tag_43:\n      stop\n        /* \"Loteria/loteria.sol\":1996:2107  function TokensDisponibles() public view returns(uint) {\r... */\n    tag_10:\n      callvalue\n      dup1\n      iszero\n      tag_46\n      jumpi\n      0x00\n      dup1\n      revert\n    tag_46:\n      pop\n      tag_47\n      tag_48\n      jump\t// in\n    tag_47:\n      mload(0x40)\n      tag_49\n      swap2\n      swap1\n      tag_21\n      jump\t// in\n    tag_49:\n      mload(0x40)\n      dup1\n      swap2\n      sub\n      swap1\n      return\n        /* \"Loteria/loteria.sol\":1035:1160  function GeneraTokens(uint _numTokens) public Unicamente(msg.sender) {\r... */\n    tag_16:\n        /* \"Loteria/loteria.sol\":1092:1102  msg.sender */\n      caller\n        /* \"Loteria/loteria.sol\":731:736  owner */\n      0x01\n      0x00\n      swap1\n      sload\n      swap1\n      0x0100\n      exp\n      swap1\n      div\n      0xffffffffffffffffffffffffffffffffffffffff\n      and\n        /* \"Loteria/loteria.sol\":716:736  propietario == owner */\n      0xffffffffffffffffffffffffffffffffffffffff\n      and\n        /* \"Loteria/loteria.sol\":716:727  propietario */\n      dup2\n        /* \"Loteria/loteria.sol\":716:736  propietario == owner */\n      0xffffffffffffffffffffffffffffffffffffffff\n      and\n      eq\n        /* \"Loteria/loteria.sol\":708:786  require(propietario == owner, \"No tienes permisos para ejecutar esta funcion\") */\n      tag_51\n      jumpi\n      mload(0x40)\n      0x08c379a000000000000000000000000000000000000000000000000000000000\n      dup2\n      mstore\n      0x04\n      add\n      tag_52\n      swap1\n      tag_53\n      jump\t// in\n    tag_52:\n      mload(0x40)\n      dup1\n      swap2\n      sub\n      swap1\n      revert\n    tag_51:\n        /* \"Loteria/loteria.sol\":1115:1120  token */\n      0x00\n      dup1\n      sload\n      swap1\n      0x0100\n      exp\n      swap1\n      div\n      0xffffffffffffffffffffffffffffffffffffffff\n      and\n        /* \"Loteria/loteria.sol\":1115:1140  token.increaseTotalSupply */\n      0xffffffffffffffffffffffffffffffffffffffff\n      and\n      0x1d43cc98\n        /* \"Loteria/loteria.sol\":1141:1151  _numTokens */\n      dup4\n        /* \"Loteria/loteria.sol\":1115:1152  token.increaseTotalSupply(_numTokens) */\n      mload(0x40)\n      dup3\n      0xffffffff\n      and\n      0xe0\n      shl\n      dup2\n      mstore\n      0x04\n      add\n      tag_55\n      swap2\n      swap1\n      tag_21\n      jump\t// in\n    tag_55:\n      0x00\n      mload(0x40)\n      dup1\n      dup4\n      sub\n      dup2\n      0x00\n      dup8\n      dup1\n      extcodesize\n      iszero\n      dup1\n      iszero\n      tag_56\n      jumpi\n      0x00\n      dup1\n      revert\n    tag_56:\n      pop\n      gas\n      call\n      iszero\n      dup1\n      iszero\n      tag_58\n      jumpi\n      returndatasize\n      0x00\n      dup1\n      returndatacopy\n      revert(0x00, returndatasize)\n    tag_58:\n      pop\n      pop\n      pop\n      pop\n        /* \"Loteria/loteria.sol\":1035:1160  function GeneraTokens(uint _numTokens) public Unicamente(msg.sender) {\r... */\n      pop\n      pop\n      jump\t// out\n        /* \"Loteria/loteria.sol\":2537:2565  uint public PrecioBoleto = 5 */\n    tag_19:\n      sload(0x03)\n      dup2\n      jump\t// out\n        /* \"Loteria/loteria.sol\":2171:2261  function Bote() public view returns(uint) {\r... */\n    tag_24:\n        /* \"Loteria/loteria.sol\":2207:2211  uint */\n      0x00\n        /* \"Loteria/loteria.sol\":2231:2236  token */\n      dup1\n      0x00\n      swap1\n      sload\n      swap1\n      0x0100\n      exp\n      swap1\n      div\n      0xffffffffffffffffffffffffffffffffffffffff\n      and\n        /* \"Loteria/loteria.sol\":2231:2246  token.balanceOf */\n      0xffffffffffffffffffffffffffffffffffffffff\n      and\n      0x70a08231\n        /* \"Loteria/loteria.sol\":2247:2252  owner */\n      0x01\n      0x00\n      swap1\n      sload\n      swap1\n      0x0100\n      exp\n      swap1\n      div\n      0xffffffffffffffffffffffffffffffffffffffff\n      and\n        /* \"Loteria/loteria.sol\":2231:2253  token.balanceOf(owner) */\n      mload(0x40)\n      dup3\n      0xffffffff\n      and\n      0xe0\n      shl\n      dup2\n      mstore\n      0x04\n      add\n      tag_60\n      swap2\n      swap1\n      tag_34\n      jump\t// in\n    tag_60:\n      0x20\n      mload(0x40)\n      dup1\n      dup4\n      sub\n      dup2\n      dup7\n      dup1\n      extcodesize\n      iszero\n      dup1\n      iszero\n      tag_61\n      jumpi\n      0x00\n      dup1\n      revert\n    tag_61:\n      pop\n      gas\n      staticcall\n      iszero\n      dup1\n      iszero\n      tag_63\n      jumpi\n      returndatasize\n      0x00\n      dup1\n      returndatacopy\n      revert(0x00, returndatasize)\n    tag_63:\n      pop\n      pop\n      pop\n      pop\n      mload(0x40)\n      returndatasize\n      not(0x1f)\n      0x1f\n      dup3\n      add\n      and\n      dup3\n      add\n      dup1\n      0x40\n      mstore\n      pop\n      dup2\n      add\n      swap1\n      tag_64\n      swap2\n      swap1\n      tag_65\n      jump\t// in\n    tag_64:\n        /* \"Loteria/loteria.sol\":2224:2253  return token.balanceOf(owner) */\n      swap1\n      pop\n        /* \"Loteria/loteria.sol\":2171:2261  function Bote() public view returns(uint) {\r... */\n      swap1\n      jump\t// out\n        /* \"Loteria/loteria.sol\":3039:3866  function ComprarBoleto(uint _boletos) public {\r... */\n    tag_29:\n        /* \"Loteria/loteria.sol\":3159:3176  uint precio_total */\n      0x00\n        /* \"Loteria/loteria.sol\":3190:3202  PrecioBoleto */\n      sload(0x03)\n        /* \"Loteria/loteria.sol\":3179:3187  _boletos */\n      dup3\n        /* \"Loteria/loteria.sol\":3179:3202  _boletos * PrecioBoleto */\n      mul\n        /* \"Loteria/loteria.sol\":3159:3202  uint precio_total = _boletos * PrecioBoleto */\n      swap1\n      pop\n        /* \"Loteria/loteria.sol\":3303:3314  MisTokens() */\n      tag_67\n        /* \"Loteria/loteria.sol\":3303:3312  MisTokens */\n      tag_41\n        /* \"Loteria/loteria.sol\":3303:3314  MisTokens() */\n      jump\t// in\n    tag_67:\n        /* \"Loteria/loteria.sol\":3287:3299  precio_total */\n      dup2\n        /* \"Loteria/loteria.sol\":3287:3314  precio_total <= MisTokens() */\n      gt\n      iszero\n        /* \"Loteria/loteria.sol\":3278:3350  require (precio_total <= MisTokens(), \"Cantidad de tokens insuficiente\") */\n      tag_68\n      jumpi\n      mload(0x40)\n      0x08c379a000000000000000000000000000000000000000000000000000000000\n      dup2\n      mstore\n      0x04\n      add\n      tag_69\n      swap1\n      tag_70\n      jump\t// in\n    tag_69:\n      mload(0x40)\n      dup1\n      swap2\n      sub\n      swap1\n      revert\n    tag_68:\n        /* \"Loteria/loteria.sol\":3421:3426  token */\n      0x00\n      dup1\n      sload\n      swap1\n      0x0100\n      exp\n      swap1\n      div\n      0xffffffffffffffffffffffffffffffffffffffff\n      and\n        /* \"Loteria/loteria.sol\":3421:3442  token.transferLoteria */\n      0xffffffffffffffffffffffffffffffffffffffff\n      and\n      0x5c79febb\n        /* \"Loteria/loteria.sol\":3443:3453  msg.sender */\n      caller\n        /* \"Loteria/loteria.sol\":3455:3460  owner */\n      0x01\n      0x00\n      swap1\n      sload\n      swap1\n      0x0100\n      exp\n      swap1\n      div\n      0xffffffffffffffffffffffffffffffffffffffff\n      and\n        /* \"Loteria/loteria.sol\":3462:3474  precio_total */\n      dup5\n        /* \"Loteria/loteria.sol\":3421:3475  token.transferLoteria(msg.sender, owner, precio_total) */\n      mload(0x40)\n      dup5\n      0xffffffff\n      and\n      0xe0\n      shl\n      dup2\n      mstore\n      0x04\n      add\n      tag_71\n      swap4\n      swap3\n      swap2\n      swap1\n      tag_72\n      jump\t// in\n    tag_71:\n      0x20\n      mload(0x40)\n      dup1\n      dup4\n      sub\n      dup2\n      0x00\n      dup8\n      dup1\n      extcodesize\n      iszero\n      dup1\n      iszero\n      tag_73\n      jumpi\n      0x00\n      dup1\n      revert\n    tag_73:\n      pop\n      gas\n      call\n      iszero\n      dup1\n      iszero\n      tag_75\n      jumpi\n      returndatasize\n      0x00\n      dup1\n      returndatacopy\n      revert(0x00, returndatasize)\n    tag_75:\n      pop\n      pop\n      pop\n      pop\n      mload(0x40)\n      returndatasize\n      not(0x1f)\n      0x1f\n      dup3\n      add\n      and\n      dup3\n      add\n      dup1\n      0x40\n      mstore\n      pop\n      dup2\n      add\n      swap1\n      tag_76\n      swap2\n      swap1\n      tag_77\n      jump\t// in\n    tag_76:\n      pop\n        /* \"Loteria/loteria.sol\":3536:3542  uint i */\n      0x00\n        /* \"Loteria/loteria.sol\":3531:3859  for (uint i = 0; i < _boletos; i++) {\r... */\n    tag_78:\n        /* \"Loteria/loteria.sol\":3552:3560  _boletos */\n      dup3\n        /* \"Loteria/loteria.sol\":3548:3549  i */\n      dup2\n        /* \"Loteria/loteria.sol\":3548:3560  i < _boletos */\n      lt\n        /* \"Loteria/loteria.sol\":3531:3859  for (uint i = 0; i < _boletos; i++) {\r... */\n      iszero\n      tag_79\n      jumpi\n        /* \"Loteria/loteria.sol\":3764:3775  uint random */\n      0x00\n        /* \"Loteria/loteria.sol\":3842:3847  10000 */\n      0x2710\n        /* \"Loteria/loteria.sol\":3810:3813  now */\n      timestamp\n        /* \"Loteria/loteria.sol\":3815:3825  msg.sender */\n      caller\n        /* \"Loteria/loteria.sol\":3827:3836  randNonce */\n      sload(0x06)\n        /* \"Loteria/loteria.sol\":3793:3837  abi.encodePacked(now, msg.sender, randNonce) */\n      add(0x20, mload(0x40))\n      tag_81\n      swap4\n      swap3\n      swap2\n      swap1\n      tag_82\n      jump\t// in\n    tag_81:\n      mload(0x40)\n      0x20\n      dup2\n      dup4\n      sub\n      sub\n      dup2\n      mstore\n      swap1\n      0x40\n      mstore\n        /* \"Loteria/loteria.sol\":3783:3838  keccak256(abi.encodePacked(now, msg.sender, randNonce)) */\n      dup1\n      mload\n      swap1\n      0x20\n      add\n      keccak256\n        /* \"Loteria/loteria.sol\":3778:3839  uint(keccak256(abi.encodePacked(now, msg.sender, randNonce))) */\n      0x00\n      shr\n        /* \"Loteria/loteria.sol\":3778:3847  uint(keccak256(abi.encodePacked(now, msg.sender, randNonce))) % 10000 */\n      dup2\n      tag_83\n      jumpi\n      invalid\n    tag_83:\n      mod\n        /* \"Loteria/loteria.sol\":3764:3847  uint random = uint(keccak256(abi.encodePacked(now, msg.sender, randNonce))) % 10000 */\n      swap1\n      pop\n        /* \"Loteria/loteria.sol\":3531:3859  for (uint i = 0; i < _boletos; i++) {\r... */\n      pop\n        /* \"Loteria/loteria.sol\":3562:3565  i++ */\n      dup1\n      dup1\n      0x01\n      add\n      swap2\n      pop\n      pop\n        /* \"Loteria/loteria.sol\":3531:3859  for (uint i = 0; i < _boletos; i++) {\r... */\n      jump(tag_78)\n    tag_79:\n      pop\n        /* \"Loteria/loteria.sol\":3039:3866  function ComprarBoleto(uint _boletos) public {\r... */\n      pop\n      pop\n      jump\t// out\n        /* \"Loteria/loteria.sol\":242:262  address public owner */\n    tag_32:\n      0x01\n      0x00\n      swap1\n      sload\n      swap1\n      0x0100\n      exp\n      swap1\n      div\n      0xffffffffffffffffffffffffffffffffffffffff\n      and\n      dup2\n      jump\t// out\n        /* \"Loteria/loteria.sol\":269:292  address public contrato */\n    tag_37:\n      0x02\n      0x00\n      swap1\n      sload\n      swap1\n      0x0100\n      exp\n      swap1\n      div\n      0xffffffffffffffffffffffffffffffffffffffff\n      and\n      dup2\n      jump\t// out\n        /* \"Loteria/loteria.sol\":2299:2400  function MisTokens() public view returns (uint) {\r... */\n    tag_41:\n        /* \"Loteria/loteria.sol\":2341:2345  uint */\n      0x00\n        /* \"Loteria/loteria.sol\":2365:2370  token */\n      dup1\n      0x00\n      swap1\n      sload\n      swap1\n      0x0100\n      exp\n      swap1\n      div\n      0xffffffffffffffffffffffffffffffffffffffff\n      and\n        /* \"Loteria/loteria.sol\":2365:2380  token.balanceOf */\n      0xffffffffffffffffffffffffffffffffffffffff\n      and\n      0x70a08231\n        /* \"Loteria/loteria.sol\":2381:2391  msg.sender */\n      caller\n        /* \"Loteria/loteria.sol\":2365:2392  token.balanceOf(msg.sender) */\n      mload(0x40)\n      dup3\n      0xffffffff\n      and\n      0xe0\n      shl\n      dup2\n      mstore\n      0x04\n      add\n      tag_85\n      swap2\n      swap1\n      tag_86\n      jump\t// in\n    tag_85:\n      0x20\n      mload(0x40)\n      dup1\n      dup4\n      sub\n      dup2\n      dup7\n      dup1\n      extcodesize\n      iszero\n      dup1\n      iszero\n      tag_87\n      jumpi\n      0x00\n      dup1\n      revert\n    tag_87:\n      pop\n      gas\n      staticcall\n      iszero\n      dup1\n      iszero\n      tag_89\n      jumpi\n      returndatasize\n      0x00\n      dup1\n      returndatacopy\n      revert(0x00, returndatasize)\n    tag_89:\n      pop\n      pop\n      pop\n      pop\n      mload(0x40)\n      returndatasize\n      not(0x1f)\n      0x1f\n      dup3\n      add\n      and\n      dup3\n      add\n      dup1\n      0x40\n      mstore\n      pop\n      dup2\n      add\n      swap1\n      tag_90\n      swap2\n      swap1\n      tag_65\n      jump\t// in\n    tag_90:\n        /* \"Loteria/loteria.sol\":2358:2392  return token.balanceOf(msg.sender) */\n      swap1\n      pop\n        /* \"Loteria/loteria.sol\":2299:2400  function MisTokens() public view returns (uint) {\r... */\n      swap1\n      jump\t// out\n        /* \"Loteria/loteria.sol\":1191:1945  function CompraTokens(uint _numTokens) public payable {\r... */\n    tag_45:\n        /* \"Loteria/loteria.sol\":1303:1313  uint coste */\n      0x00\n        /* \"Loteria/loteria.sol\":1316:1340  PrecioTokens(_numTokens) */\n      tag_92\n        /* \"Loteria/loteria.sol\":1329:1339  _numTokens */\n      dup3\n        /* \"Loteria/loteria.sol\":1316:1328  PrecioTokens */\n      tag_93\n        /* \"Loteria/loteria.sol\":1316:1340  PrecioTokens(_numTokens) */\n      jump\t// in\n    tag_92:\n        /* \"Loteria/loteria.sol\":1303:1340  uint coste = PrecioTokens(_numTokens) */\n      swap1\n      pop\n        /* \"Loteria/loteria.sol\":1425:1430  coste */\n      dup1\n        /* \"Loteria/loteria.sol\":1412:1421  msg.value */\n      callvalue\n        /* \"Loteria/loteria.sol\":1412:1430  msg.value >= coste */\n      lt\n      iszero\n        /* \"Loteria/loteria.sol\":1403:1465  require (msg.value >= coste, \"Cantidad de ether insuficiente\") */\n      tag_94\n      jumpi\n      mload(0x40)\n      0x08c379a000000000000000000000000000000000000000000000000000000000\n      dup2\n      mstore\n      0x04\n      add\n      tag_95\n      swap1\n      tag_96\n      jump\t// in\n    tag_95:\n      mload(0x40)\n      dup1\n      swap2\n      sub\n      swap1\n      revert\n    tag_94:\n        /* \"Loteria/loteria.sol\":1566:1571  token */\n      0x00\n      dup1\n      sload\n      swap1\n      0x0100\n      exp\n      swap1\n      div\n      0xffffffffffffffffffffffffffffffffffffffff\n      and\n        /* \"Loteria/loteria.sol\":1566:1581  token.balanceOf */\n      0xffffffffffffffffffffffffffffffffffffffff\n      and\n      0x70a08231\n        /* \"Loteria/loteria.sol\":1582:1590  contrato */\n      0x02\n      0x00\n      swap1\n      sload\n      swap1\n      0x0100\n      exp\n      swap1\n      div\n      0xffffffffffffffffffffffffffffffffffffffff\n      and\n        /* \"Loteria/loteria.sol\":1566:1591  token.balanceOf(contrato) */\n      mload(0x40)\n      dup3\n      0xffffffff\n      and\n      0xe0\n      shl\n      dup2\n      mstore\n      0x04\n      add\n      tag_97\n      swap2\n      swap1\n      tag_34\n      jump\t// in\n    tag_97:\n      0x20\n      mload(0x40)\n      dup1\n      dup4\n      sub\n      dup2\n      dup7\n      dup1\n      extcodesize\n      iszero\n      dup1\n      iszero\n      tag_98\n      jumpi\n      0x00\n      dup1\n      revert\n    tag_98:\n      pop\n      gas\n      staticcall\n      iszero\n      dup1\n      iszero\n      tag_100\n      jumpi\n      returndatasize\n      0x00\n      dup1\n      returndatacopy\n      revert(0x00, returndatasize)\n    tag_100:\n      pop\n      pop\n      pop\n      pop\n      mload(0x40)\n      returndatasize\n      not(0x1f)\n      0x1f\n      dup3\n      add\n      and\n      dup3\n      add\n      dup1\n      0x40\n      mstore\n      pop\n      dup2\n      add\n      swap1\n      tag_101\n      swap2\n      swap1\n      tag_65\n      jump\t// in\n    tag_101:\n        /* \"Loteria/loteria.sol\":1552:1562  _numTokens */\n      dup3\n        /* \"Loteria/loteria.sol\":1552:1591  _numTokens <= token.balanceOf(contrato) */\n      gt\n      iszero\n        /* \"Loteria/loteria.sol\":1543:1628  require (_numTokens <= token.balanceOf(contrato), \"Cantidad de tokens insuficientes\") */\n      tag_102\n      jumpi\n      mload(0x40)\n      0x08c379a000000000000000000000000000000000000000000000000000000000\n      dup2\n      mstore\n      0x04\n      add\n      tag_103\n      swap1\n      tag_104\n      jump\t// in\n    tag_103:\n      mload(0x40)\n      dup1\n      swap2\n      sub\n      swap1\n      revert\n    tag_102:\n        /* \"Loteria/loteria.sol\":1714:1724  msg.sender */\n      caller\n        /* \"Loteria/loteria.sol\":1714:1733  msg.sender.transfer */\n      0xffffffffffffffffffffffffffffffffffffffff\n      and\n        /* \"Loteria/loteria.sol\":1714:1752  msg.sender.transfer(msg.value - coste) */\n      0x08fc\n        /* \"Loteria/loteria.sol\":1746:1751  coste */\n      dup3\n        /* \"Loteria/loteria.sol\":1734:1743  msg.value */\n      callvalue\n        /* \"Loteria/loteria.sol\":1734:1751  msg.value - coste */\n      sub\n        /* \"Loteria/loteria.sol\":1714:1752  msg.sender.transfer(msg.value - coste) */\n      swap1\n      dup2\n      iszero\n      mul\n      swap1\n      mload(0x40)\n      0x00\n      mload(0x40)\n      dup1\n      dup4\n      sub\n      dup2\n      dup6\n      dup9\n      dup9\n      call\n      swap4\n      pop\n      pop\n      pop\n      pop\n      iszero\n      dup1\n      iszero\n      tag_106\n      jumpi\n      returndatasize\n      0x00\n      dup1\n      returndatacopy\n      revert(0x00, returndatasize)\n    tag_106:\n      pop\n        /* \"Loteria/loteria.sol\":1813:1818  token */\n      0x00\n      dup1\n      sload\n      swap1\n      0x0100\n      exp\n      swap1\n      div\n      0xffffffffffffffffffffffffffffffffffffffff\n      and\n        /* \"Loteria/loteria.sol\":1813:1827  token.transfer */\n      0xffffffffffffffffffffffffffffffffffffffff\n      and\n      0xa9059cbb\n        /* \"Loteria/loteria.sol\":1828:1838  msg.sender */\n      caller\n        /* \"Loteria/loteria.sol\":1840:1850  _numTokens */\n      dup5\n        /* \"Loteria/loteria.sol\":1813:1851  token.transfer(msg.sender, _numTokens) */\n      mload(0x40)\n      dup4\n      0xffffffff\n      and\n      0xe0\n      shl\n      dup2\n      mstore\n      0x04\n      add\n      tag_107\n      swap3\n      swap2\n      swap1\n      tag_108\n      jump\t// in\n    tag_107:\n      0x20\n      mload(0x40)\n      dup1\n      dup4\n      sub\n      dup2\n      0x00\n      dup8\n      dup1\n      extcodesize\n      iszero\n      dup1\n      iszero\n      tag_109\n      jumpi\n      0x00\n      dup1\n      revert\n    tag_109:\n      pop\n      gas\n      call\n      iszero\n      dup1\n      iszero\n      tag_111\n      jumpi\n      returndatasize\n      0x00\n      dup1\n      returndatacopy\n      revert(0x00, returndatasize)\n    tag_111:\n      pop\n      pop\n      pop\n      pop\n      mload(0x40)\n      returndatasize\n      not(0x1f)\n      0x1f\n      dup3\n      add\n      and\n      dup3\n      add\n      dup1\n      0x40\n      mstore\n      pop\n      dup2\n      add\n      swap1\n      tag_112\n      swap2\n      swap1\n      tag_77\n      jump\t// in\n    tag_112:\n      pop\n        /* \"Loteria/loteria.sol\":1900:1937  ComprarTokens(_numTokens, msg.sender) */\n      0x1912293d843fe20a997ecedfe6ab8b44b26fc0ed0d7d2e152158ffd021c9ace3\n        /* \"Loteria/loteria.sol\":1914:1924  _numTokens */\n      dup3\n        /* \"Loteria/loteria.sol\":1926:1936  msg.sender */\n      caller\n        /* \"Loteria/loteria.sol\":1900:1937  ComprarTokens(_numTokens, msg.sender) */\n      mload(0x40)\n      tag_113\n      swap3\n      swap2\n      swap1\n      tag_114\n      jump\t// in\n    tag_113:\n      mload(0x40)\n      dup1\n      swap2\n      sub\n      swap1\n      log1\n        /* \"Loteria/loteria.sol\":1191:1945  function CompraTokens(uint _numTokens) public payable {\r... */\n      pop\n      pop\n      jump\t// out\n        /* \"Loteria/loteria.sol\":1996:2107  function TokensDisponibles() public view returns(uint) {\r... */\n    tag_48:\n        /* \"Loteria/loteria.sol\":2045:2049  uint */\n      0x00\n        /* \"Loteria/loteria.sol\":2069:2074  token */\n      dup1\n      0x00\n      swap1\n      sload\n      swap1\n      0x0100\n      exp\n      swap1\n      div\n      0xffffffffffffffffffffffffffffffffffffffff\n      and\n        /* \"Loteria/loteria.sol\":2069:2084  token.balanceOf */\n      0xffffffffffffffffffffffffffffffffffffffff\n      and\n      0x70a08231\n        /* \"Loteria/loteria.sol\":2093:2097  this */\n      address\n        /* \"Loteria/loteria.sol\":2069:2099  token.balanceOf(address(this)) */\n      mload(0x40)\n      dup3\n      0xffffffff\n      and\n      0xe0\n      shl\n      dup2\n      mstore\n      0x04\n      add\n      tag_116\n      swap2\n      swap1\n      tag_34\n      jump\t// in\n    tag_116:\n      0x20\n      mload(0x40)\n      dup1\n      dup4\n      sub\n      dup2\n      dup7\n      dup1\n      extcodesize\n      iszero\n      dup1\n      iszero\n      tag_117\n      jumpi\n      0x00\n      dup1\n      revert\n    tag_117:\n      pop\n      gas\n      staticcall\n      iszero\n      dup1\n      iszero\n      tag_119\n      jumpi\n      returndatasize\n      0x00\n      dup1\n      returndatacopy\n      revert(0x00, returndatasize)\n    tag_119:\n      pop\n      pop\n      pop\n      pop\n      mload(0x40)\n      returndatasize\n      not(0x1f)\n      0x1f\n      dup3\n      add\n      and\n      dup3\n      add\n      dup1\n      0x40\n      mstore\n      pop\n      dup2\n      add\n      swap1\n      tag_120\n      swap2\n      swap1\n      tag_65\n      jump\t// in\n    tag_120:\n        /* \"Loteria/loteria.sol\":2062:2099  return token.balanceOf(address(this)) */\n      swap1\n      pop\n        /* \"Loteria/loteria.sol\":1996:2107  function TokensDisponibles() public view returns(uint) {\r... */\n      swap1\n      jump\t// out\n        /* \"Loteria/loteria.sol\":884:999  function PrecioTokens(uint _numTokens) internal pure returns(uint) {\r... */\n    tag_93:\n        /* \"Loteria/loteria.sol\":945:949  uint */\n      0x00\n        /* \"Loteria/loteria.sol\":983:990  1 ether */\n      0x0de0b6b3a7640000\n        /* \"Loteria/loteria.sol\":969:979  _numTokens */\n      dup3\n        /* \"Loteria/loteria.sol\":969:991  _numTokens * (1 ether) */\n      mul\n        /* \"Loteria/loteria.sol\":962:991  return _numTokens * (1 ether) */\n      swap1\n      pop\n        /* \"Loteria/loteria.sol\":884:999  function PrecioTokens(uint _numTokens) internal pure returns(uint) {\r... */\n      swap2\n      swap1\n      pop\n      jump\t// out\n        /* \"--CODEGEN--\":5:133   */\n    tag_123:\n      0x00\n        /* \"--CODEGEN--\":86:92   */\n      dup2\n        /* \"--CODEGEN--\":80:93   */\n      mload\n        /* \"--CODEGEN--\":71:93   */\n      swap1\n      pop\n        /* \"--CODEGEN--\":98:128   */\n      tag_125\n        /* \"--CODEGEN--\":122:127   */\n      dup2\n        /* \"--CODEGEN--\":98:128   */\n      tag_126\n      jump\t// in\n    tag_125:\n        /* \"--CODEGEN--\":65:133   */\n      swap3\n      swap2\n      pop\n      pop\n      jump\t// out\n        /* \"--CODEGEN--\":140:270   */\n    tag_127:\n      0x00\n        /* \"--CODEGEN--\":220:226   */\n      dup2\n        /* \"--CODEGEN--\":207:227   */\n      calldataload\n        /* \"--CODEGEN--\":198:227   */\n      swap1\n      pop\n        /* \"--CODEGEN--\":232:265   */\n      tag_129\n        /* \"--CODEGEN--\":259:264   */\n      dup2\n        /* \"--CODEGEN--\":232:265   */\n      tag_130\n      jump\t// in\n    tag_129:\n        /* \"--CODEGEN--\":192:270   */\n      swap3\n      swap2\n      pop\n      pop\n      jump\t// out\n        /* \"--CODEGEN--\":277:411   */\n    tag_131:\n      0x00\n        /* \"--CODEGEN--\":361:367   */\n      dup2\n        /* \"--CODEGEN--\":355:368   */\n      mload\n        /* \"--CODEGEN--\":346:368   */\n      swap1\n      pop\n        /* \"--CODEGEN--\":373:406   */\n      tag_133\n        /* \"--CODEGEN--\":400:405   */\n      dup2\n        /* \"--CODEGEN--\":373:406   */\n      tag_130\n      jump\t// in\n    tag_133:\n        /* \"--CODEGEN--\":340:411   */\n      swap3\n      swap2\n      pop\n      pop\n      jump\t// out\n        /* \"--CODEGEN--\":418:675   */\n    tag_77:\n      0x00\n        /* \"--CODEGEN--\":530:532   */\n      0x20\n        /* \"--CODEGEN--\":518:527   */\n      dup3\n        /* \"--CODEGEN--\":509:516   */\n      dup5\n        /* \"--CODEGEN--\":505:528   */\n      sub\n        /* \"--CODEGEN--\":501:533   */\n      slt\n        /* \"--CODEGEN--\":498:500   */\n      iszero\n      tag_135\n      jumpi\n        /* \"--CODEGEN--\":546:547   */\n      0x00\n        /* \"--CODEGEN--\":543:544   */\n      dup1\n        /* \"--CODEGEN--\":536:548   */\n      revert\n        /* \"--CODEGEN--\":498:500   */\n    tag_135:\n        /* \"--CODEGEN--\":581:582   */\n      0x00\n        /* \"--CODEGEN--\":598:659   */\n      tag_136\n        /* \"--CODEGEN--\":651:658   */\n      dup5\n        /* \"--CODEGEN--\":642:648   */\n      dup3\n        /* \"--CODEGEN--\":631:640   */\n      dup6\n        /* \"--CODEGEN--\":627:649   */\n      add\n        /* \"--CODEGEN--\":598:659   */\n      tag_123\n      jump\t// in\n    tag_136:\n        /* \"--CODEGEN--\":588:659   */\n      swap2\n      pop\n        /* \"--CODEGEN--\":560:665   */\n      pop\n        /* \"--CODEGEN--\":492:675   */\n      swap3\n      swap2\n      pop\n      pop\n      jump\t// out\n        /* \"--CODEGEN--\":682:923   */\n    tag_15:\n      0x00\n        /* \"--CODEGEN--\":786:788   */\n      0x20\n        /* \"--CODEGEN--\":774:783   */\n      dup3\n        /* \"--CODEGEN--\":765:772   */\n      dup5\n        /* \"--CODEGEN--\":761:784   */\n      sub\n        /* \"--CODEGEN--\":757:789   */\n      slt\n        /* \"--CODEGEN--\":754:756   */\n      iszero\n      tag_138\n      jumpi\n        /* \"--CODEGEN--\":802:803   */\n      0x00\n        /* \"--CODEGEN--\":799:800   */\n      dup1\n        /* \"--CODEGEN--\":792:804   */\n      revert\n        /* \"--CODEGEN--\":754:756   */\n    tag_138:\n        /* \"--CODEGEN--\":837:838   */\n      0x00\n        /* \"--CODEGEN--\":854:907   */\n      tag_139\n        /* \"--CODEGEN--\":899:906   */\n      dup5\n        /* \"--CODEGEN--\":890:896   */\n      dup3\n        /* \"--CODEGEN--\":879:888   */\n      dup6\n        /* \"--CODEGEN--\":875:897   */\n      add\n        /* \"--CODEGEN--\":854:907   */\n      tag_127\n      jump\t// in\n    tag_139:\n        /* \"--CODEGEN--\":844:907   */\n      swap2\n      pop\n        /* \"--CODEGEN--\":816:913   */\n      pop\n        /* \"--CODEGEN--\":748:923   */\n      swap3\n      swap2\n      pop\n      pop\n      jump\t// out\n        /* \"--CODEGEN--\":930:1193   */\n    tag_65:\n      0x00\n        /* \"--CODEGEN--\":1045:1047   */\n      0x20\n        /* \"--CODEGEN--\":1033:1042   */\n      dup3\n        /* \"--CODEGEN--\":1024:1031   */\n      dup5\n        /* \"--CODEGEN--\":1020:1043   */\n      sub\n        /* \"--CODEGEN--\":1016:1048   */\n      slt\n        /* \"--CODEGEN--\":1013:1015   */\n      iszero\n      tag_141\n      jumpi\n        /* \"--CODEGEN--\":1061:1062   */\n      0x00\n        /* \"--CODEGEN--\":1058:1059   */\n      dup1\n        /* \"--CODEGEN--\":1051:1063   */\n      revert\n        /* \"--CODEGEN--\":1013:1015   */\n    tag_141:\n        /* \"--CODEGEN--\":1096:1097   */\n      0x00\n        /* \"--CODEGEN--\":1113:1177   */\n      tag_142\n        /* \"--CODEGEN--\":1169:1176   */\n      dup5\n        /* \"--CODEGEN--\":1160:1166   */\n      dup3\n        /* \"--CODEGEN--\":1149:1158   */\n      dup6\n        /* \"--CODEGEN--\":1145:1167   */\n      add\n        /* \"--CODEGEN--\":1113:1177   */\n      tag_131\n      jump\t// in\n    tag_142:\n        /* \"--CODEGEN--\":1103:1177   */\n      swap2\n      pop\n        /* \"--CODEGEN--\":1075:1183   */\n      pop\n        /* \"--CODEGEN--\":1007:1193   */\n      swap3\n      swap2\n      pop\n      pop\n      jump\t// out\n        /* \"--CODEGEN--\":1200:1342   */\n    tag_143:\n        /* \"--CODEGEN--\":1291:1336   */\n      tag_145\n        /* \"--CODEGEN--\":1330:1335   */\n      dup2\n        /* \"--CODEGEN--\":1291:1336   */\n      tag_146\n      jump\t// in\n    tag_145:\n        /* \"--CODEGEN--\":1286:1289   */\n      dup3\n        /* \"--CODEGEN--\":1279:1337   */\n      mstore\n        /* \"--CODEGEN--\":1273:1342   */\n      pop\n      pop\n      jump\t// out\n        /* \"--CODEGEN--\":1349:1533   */\n    tag_147:\n        /* \"--CODEGEN--\":1466:1527   */\n      tag_149\n        /* \"--CODEGEN--\":1494:1526   */\n      tag_150\n        /* \"--CODEGEN--\":1520:1525   */\n      dup3\n        /* \"--CODEGEN--\":1494:1526   */\n      tag_151\n      jump\t// in\n    tag_150:\n        /* \"--CODEGEN--\":1466:1527   */\n      tag_152\n      jump\t// in\n    tag_149:\n        /* \"--CODEGEN--\":1461:1464   */\n      dup3\n        /* \"--CODEGEN--\":1454:1528   */\n      mstore\n        /* \"--CODEGEN--\":1448:1533   */\n      pop\n      pop\n      jump\t// out\n        /* \"--CODEGEN--\":1540:1653   */\n    tag_153:\n        /* \"--CODEGEN--\":1623:1647   */\n      tag_155\n        /* \"--CODEGEN--\":1641:1646   */\n      dup2\n        /* \"--CODEGEN--\":1623:1647   */\n      tag_156\n      jump\t// in\n    tag_155:\n        /* \"--CODEGEN--\":1618:1621   */\n      dup3\n        /* \"--CODEGEN--\":1611:1648   */\n      mstore\n        /* \"--CODEGEN--\":1605:1653   */\n      pop\n      pop\n      jump\t// out\n        /* \"--CODEGEN--\":1661:1992   */\n    tag_157:\n      0x00\n        /* \"--CODEGEN--\":1821:1888   */\n      tag_159\n        /* \"--CODEGEN--\":1885:1887   */\n      0x1f\n        /* \"--CODEGEN--\":1880:1883   */\n      dup4\n        /* \"--CODEGEN--\":1821:1888   */\n      tag_160\n      jump\t// in\n    tag_159:\n        /* \"--CODEGEN--\":1814:1888   */\n      swap2\n      pop\n        /* \"--CODEGEN--\":1921:1954   */\n      0x43616e746964616420646520746f6b656e7320696e737566696369656e746500\n        /* \"--CODEGEN--\":1917:1918   */\n      0x00\n        /* \"--CODEGEN--\":1912:1915   */\n      dup4\n        /* \"--CODEGEN--\":1908:1919   */\n      add\n        /* \"--CODEGEN--\":1901:1955   */\n      mstore\n        /* \"--CODEGEN--\":1983:1985   */\n      0x20\n        /* \"--CODEGEN--\":1978:1981   */\n      dup3\n        /* \"--CODEGEN--\":1974:1986   */\n      add\n        /* \"--CODEGEN--\":1967:1986   */\n      swap1\n      pop\n        /* \"--CODEGEN--\":1807:1992   */\n      swap2\n      swap1\n      pop\n      jump\t// out\n        /* \"--CODEGEN--\":2001:2383   */\n    tag_161:\n      0x00\n        /* \"--CODEGEN--\":2161:2228   */\n      tag_163\n        /* \"--CODEGEN--\":2225:2227   */\n      0x2d\n        /* \"--CODEGEN--\":2220:2223   */\n      dup4\n        /* \"--CODEGEN--\":2161:2228   */\n      tag_160\n      jump\t// in\n    tag_163:\n        /* \"--CODEGEN--\":2154:2228   */\n      swap2\n      pop\n        /* \"--CODEGEN--\":2261:2295   */\n      0x4e6f207469656e6573207065726d69736f73207061726120656a656375746172\n        /* \"--CODEGEN--\":2257:2258   */\n      0x00\n        /* \"--CODEGEN--\":2252:2255   */\n      dup4\n        /* \"--CODEGEN--\":2248:2259   */\n      add\n        /* \"--CODEGEN--\":2241:2296   */\n      mstore\n        /* \"--CODEGEN--\":2330:2345   */\n      0x20657374612066756e63696f6e00000000000000000000000000000000000000\n        /* \"--CODEGEN--\":2325:2327   */\n      0x20\n        /* \"--CODEGEN--\":2320:2323   */\n      dup4\n        /* \"--CODEGEN--\":2316:2328   */\n      add\n        /* \"--CODEGEN--\":2309:2346   */\n      mstore\n        /* \"--CODEGEN--\":2374:2376   */\n      0x40\n        /* \"--CODEGEN--\":2369:2372   */\n      dup3\n        /* \"--CODEGEN--\":2365:2377   */\n      add\n        /* \"--CODEGEN--\":2358:2377   */\n      swap1\n      pop\n        /* \"--CODEGEN--\":2147:2383   */\n      swap2\n      swap1\n      pop\n      jump\t// out\n        /* \"--CODEGEN--\":2392:2722   */\n    tag_164:\n      0x00\n        /* \"--CODEGEN--\":2552:2619   */\n      tag_166\n        /* \"--CODEGEN--\":2616:2618   */\n      0x1e\n        /* \"--CODEGEN--\":2611:2614   */\n      dup4\n        /* \"--CODEGEN--\":2552:2619   */\n      tag_160\n      jump\t// in\n    tag_166:\n        /* \"--CODEGEN--\":2545:2619   */\n      swap2\n      pop\n        /* \"--CODEGEN--\":2652:2684   */\n      0x43616e746964616420646520657468657220696e737566696369656e74650000\n        /* \"--CODEGEN--\":2648:2649   */\n      0x00\n        /* \"--CODEGEN--\":2643:2646   */\n      dup4\n        /* \"--CODEGEN--\":2639:2650   */\n      add\n        /* \"--CODEGEN--\":2632:2685   */\n      mstore\n        /* \"--CODEGEN--\":2713:2715   */\n      0x20\n        /* \"--CODEGEN--\":2708:2711   */\n      dup3\n        /* \"--CODEGEN--\":2704:2716   */\n      add\n        /* \"--CODEGEN--\":2697:2716   */\n      swap1\n      pop\n        /* \"--CODEGEN--\":2538:2722   */\n      swap2\n      swap1\n      pop\n      jump\t// out\n        /* \"--CODEGEN--\":2731:3063   */\n    tag_167:\n      0x00\n        /* \"--CODEGEN--\":2891:2958   */\n      tag_169\n        /* \"--CODEGEN--\":2955:2957   */\n      0x20\n        /* \"--CODEGEN--\":2950:2953   */\n      dup4\n        /* \"--CODEGEN--\":2891:2958   */\n      tag_160\n      jump\t// in\n    tag_169:\n        /* \"--CODEGEN--\":2884:2958   */\n      swap2\n      pop\n        /* \"--CODEGEN--\":2991:3025   */\n      0x43616e746964616420646520746f6b656e7320696e737566696369656e746573\n        /* \"--CODEGEN--\":2987:2988   */\n      0x00\n        /* \"--CODEGEN--\":2982:2985   */\n      dup4\n        /* \"--CODEGEN--\":2978:2989   */\n      add\n        /* \"--CODEGEN--\":2971:3026   */\n      mstore\n        /* \"--CODEGEN--\":3054:3056   */\n      0x20\n        /* \"--CODEGEN--\":3049:3052   */\n      dup3\n        /* \"--CODEGEN--\":3045:3057   */\n      add\n        /* \"--CODEGEN--\":3038:3057   */\n      swap1\n      pop\n        /* \"--CODEGEN--\":2877:3063   */\n      swap2\n      swap1\n      pop\n      jump\t// out\n        /* \"--CODEGEN--\":3071:3184   */\n    tag_170:\n        /* \"--CODEGEN--\":3154:3178   */\n      tag_172\n        /* \"--CODEGEN--\":3172:3177   */\n      dup2\n        /* \"--CODEGEN--\":3154:3178   */\n      tag_173\n      jump\t// in\n    tag_172:\n        /* \"--CODEGEN--\":3149:3152   */\n      dup3\n        /* \"--CODEGEN--\":3142:3179   */\n      mstore\n        /* \"--CODEGEN--\":3136:3184   */\n      pop\n      pop\n      jump\t// out\n        /* \"--CODEGEN--\":3191:3343   */\n    tag_174:\n        /* \"--CODEGEN--\":3292:3337   */\n      tag_176\n        /* \"--CODEGEN--\":3312:3336   */\n      tag_177\n        /* \"--CODEGEN--\":3330:3335   */\n      dup3\n        /* \"--CODEGEN--\":3312:3336   */\n      tag_173\n      jump\t// in\n    tag_177:\n        /* \"--CODEGEN--\":3292:3337   */\n      tag_178\n      jump\t// in\n    tag_176:\n        /* \"--CODEGEN--\":3287:3290   */\n      dup3\n        /* \"--CODEGEN--\":3280:3338   */\n      mstore\n        /* \"--CODEGEN--\":3274:3343   */\n      pop\n      pop\n      jump\t// out\n        /* \"--CODEGEN--\":3350:3913   */\n    tag_82:\n      0x00\n        /* \"--CODEGEN--\":3550:3625   */\n      tag_180\n        /* \"--CODEGEN--\":3621:3624   */\n      dup3\n        /* \"--CODEGEN--\":3612:3618   */\n      dup7\n        /* \"--CODEGEN--\":3550:3625   */\n      tag_174\n      jump\t// in\n    tag_180:\n        /* \"--CODEGEN--\":3647:3649   */\n      0x20\n        /* \"--CODEGEN--\":3642:3645   */\n      dup3\n        /* \"--CODEGEN--\":3638:3650   */\n      add\n        /* \"--CODEGEN--\":3631:3650   */\n      swap2\n      pop\n        /* \"--CODEGEN--\":3661:3752   */\n      tag_181\n        /* \"--CODEGEN--\":3748:3751   */\n      dup3\n        /* \"--CODEGEN--\":3739:3745   */\n      dup6\n        /* \"--CODEGEN--\":3661:3752   */\n      tag_147\n      jump\t// in\n    tag_181:\n        /* \"--CODEGEN--\":3774:3776   */\n      0x14\n        /* \"--CODEGEN--\":3769:3772   */\n      dup3\n        /* \"--CODEGEN--\":3765:3777   */\n      add\n        /* \"--CODEGEN--\":3758:3777   */\n      swap2\n      pop\n        /* \"--CODEGEN--\":3788:3863   */\n      tag_182\n        /* \"--CODEGEN--\":3859:3862   */\n      dup3\n        /* \"--CODEGEN--\":3850:3856   */\n      dup5\n        /* \"--CODEGEN--\":3788:3863   */\n      tag_174\n      jump\t// in\n    tag_182:\n        /* \"--CODEGEN--\":3885:3887   */\n      0x20\n        /* \"--CODEGEN--\":3880:3883   */\n      dup3\n        /* \"--CODEGEN--\":3876:3888   */\n      add\n        /* \"--CODEGEN--\":3869:3888   */\n      swap2\n      pop\n        /* \"--CODEGEN--\":3905:3908   */\n      dup2\n        /* \"--CODEGEN--\":3898:3908   */\n      swap1\n      pop\n        /* \"--CODEGEN--\":3538:3913   */\n      swap5\n      swap4\n      pop\n      pop\n      pop\n      pop\n      jump\t// out\n        /* \"--CODEGEN--\":3920:4142   */\n    tag_34:\n      0x00\n        /* \"--CODEGEN--\":4047:4049   */\n      0x20\n        /* \"--CODEGEN--\":4036:4045   */\n      dup3\n        /* \"--CODEGEN--\":4032:4050   */\n      add\n        /* \"--CODEGEN--\":4024:4050   */\n      swap1\n      pop\n        /* \"--CODEGEN--\":4061:4132   */\n      tag_184\n        /* \"--CODEGEN--\":4129:4130   */\n      0x00\n        /* \"--CODEGEN--\":4118:4127   */\n      dup4\n        /* \"--CODEGEN--\":4114:4131   */\n      add\n        /* \"--CODEGEN--\":4105:4111   */\n      dup5\n        /* \"--CODEGEN--\":4061:4132   */\n      tag_153\n      jump\t// in\n    tag_184:\n        /* \"--CODEGEN--\":4018:4142   */\n      swap3\n      swap2\n      pop\n      pop\n      jump\t// out\n        /* \"--CODEGEN--\":4149:4387   */\n    tag_86:\n      0x00\n        /* \"--CODEGEN--\":4284:4286   */\n      0x20\n        /* \"--CODEGEN--\":4273:4282   */\n      dup3\n        /* \"--CODEGEN--\":4269:4287   */\n      add\n        /* \"--CODEGEN--\":4261:4287   */\n      swap1\n      pop\n        /* \"--CODEGEN--\":4298:4377   */\n      tag_186\n        /* \"--CODEGEN--\":4374:4375   */\n      0x00\n        /* \"--CODEGEN--\":4363:4372   */\n      dup4\n        /* \"--CODEGEN--\":4359:4376   */\n      add\n        /* \"--CODEGEN--\":4350:4356   */\n      dup5\n        /* \"--CODEGEN--\":4298:4377   */\n      tag_143\n      jump\t// in\n    tag_186:\n        /* \"--CODEGEN--\":4255:4387   */\n      swap3\n      swap2\n      pop\n      pop\n      jump\t// out\n        /* \"--CODEGEN--\":4394:4854   */\n    tag_72:\n      0x00\n        /* \"--CODEGEN--\":4585:4587   */\n      0x60\n        /* \"--CODEGEN--\":4574:4583   */\n      dup3\n        /* \"--CODEGEN--\":4570:4588   */\n      add\n        /* \"--CODEGEN--\":4562:4588   */\n      swap1\n      pop\n        /* \"--CODEGEN--\":4599:4678   */\n      tag_188\n        /* \"--CODEGEN--\":4675:4676   */\n      0x00\n        /* \"--CODEGEN--\":4664:4673   */\n      dup4\n        /* \"--CODEGEN--\":4660:4677   */\n      add\n        /* \"--CODEGEN--\":4651:4657   */\n      dup7\n        /* \"--CODEGEN--\":4599:4678   */\n      tag_143\n      jump\t// in\n    tag_188:\n        /* \"--CODEGEN--\":4689:4761   */\n      tag_189\n        /* \"--CODEGEN--\":4757:4759   */\n      0x20\n        /* \"--CODEGEN--\":4746:4755   */\n      dup4\n        /* \"--CODEGEN--\":4742:4760   */\n      add\n        /* \"--CODEGEN--\":4733:4739   */\n      dup6\n        /* \"--CODEGEN--\":4689:4761   */\n      tag_153\n      jump\t// in\n    tag_189:\n        /* \"--CODEGEN--\":4772:4844   */\n      tag_190\n        /* \"--CODEGEN--\":4840:4842   */\n      0x40\n        /* \"--CODEGEN--\":4829:4838   */\n      dup4\n        /* \"--CODEGEN--\":4825:4843   */\n      add\n        /* \"--CODEGEN--\":4816:4822   */\n      dup5\n        /* \"--CODEGEN--\":4772:4844   */\n      tag_170\n      jump\t// in\n    tag_190:\n        /* \"--CODEGEN--\":4556:4854   */\n      swap5\n      swap4\n      pop\n      pop\n      pop\n      pop\n      jump\t// out\n        /* \"--CODEGEN--\":4861:5210   */\n    tag_108:\n      0x00\n        /* \"--CODEGEN--\":5024:5026   */\n      0x40\n        /* \"--CODEGEN--\":5013:5022   */\n      dup3\n        /* \"--CODEGEN--\":5009:5027   */\n      add\n        /* \"--CODEGEN--\":5001:5027   */\n      swap1\n      pop\n        /* \"--CODEGEN--\":5038:5117   */\n      tag_192\n        /* \"--CODEGEN--\":5114:5115   */\n      0x00\n        /* \"--CODEGEN--\":5103:5112   */\n      dup4\n        /* \"--CODEGEN--\":5099:5116   */\n      add\n        /* \"--CODEGEN--\":5090:5096   */\n      dup6\n        /* \"--CODEGEN--\":5038:5117   */\n      tag_143\n      jump\t// in\n    tag_192:\n        /* \"--CODEGEN--\":5128:5200   */\n      tag_193\n        /* \"--CODEGEN--\":5196:5198   */\n      0x20\n        /* \"--CODEGEN--\":5185:5194   */\n      dup4\n        /* \"--CODEGEN--\":5181:5199   */\n      add\n        /* \"--CODEGEN--\":5172:5178   */\n      dup5\n        /* \"--CODEGEN--\":5128:5200   */\n      tag_170\n      jump\t// in\n    tag_193:\n        /* \"--CODEGEN--\":4995:5210   */\n      swap4\n      swap3\n      pop\n      pop\n      pop\n      jump\t// out\n        /* \"--CODEGEN--\":5217:5633   */\n    tag_70:\n      0x00\n        /* \"--CODEGEN--\":5417:5419   */\n      0x20\n        /* \"--CODEGEN--\":5406:5415   */\n      dup3\n        /* \"--CODEGEN--\":5402:5420   */\n      add\n        /* \"--CODEGEN--\":5394:5420   */\n      swap1\n      pop\n        /* \"--CODEGEN--\":5467:5476   */\n      dup2\n        /* \"--CODEGEN--\":5461:5465   */\n      dup2\n        /* \"--CODEGEN--\":5457:5477   */\n      sub\n        /* \"--CODEGEN--\":5453:5454   */\n      0x00\n        /* \"--CODEGEN--\":5442:5451   */\n      dup4\n        /* \"--CODEGEN--\":5438:5455   */\n      add\n        /* \"--CODEGEN--\":5431:5478   */\n      mstore\n        /* \"--CODEGEN--\":5492:5623   */\n      tag_195\n        /* \"--CODEGEN--\":5618:5622   */\n      dup2\n        /* \"--CODEGEN--\":5492:5623   */\n      tag_157\n      jump\t// in\n    tag_195:\n        /* \"--CODEGEN--\":5484:5623   */\n      swap1\n      pop\n        /* \"--CODEGEN--\":5388:5633   */\n      swap2\n      swap1\n      pop\n      jump\t// out\n        /* \"--CODEGEN--\":5640:6056   */\n    tag_53:\n      0x00\n        /* \"--CODEGEN--\":5840:5842   */\n      0x20\n        /* \"--CODEGEN--\":5829:5838   */\n      dup3\n        /* \"--CODEGEN--\":5825:5843   */\n      add\n        /* \"--CODEGEN--\":5817:5843   */\n      swap1\n      pop\n        /* \"--CODEGEN--\":5890:5899   */\n      dup2\n        /* \"--CODEGEN--\":5884:5888   */\n      dup2\n        /* \"--CODEGEN--\":5880:5900   */\n      sub\n        /* \"--CODEGEN--\":5876:5877   */\n      0x00\n        /* \"--CODEGEN--\":5865:5874   */\n      dup4\n        /* \"--CODEGEN--\":5861:5878   */\n      add\n        /* \"--CODEGEN--\":5854:5901   */\n      mstore\n        /* \"--CODEGEN--\":5915:6046   */\n      tag_197\n        /* \"--CODEGEN--\":6041:6045   */\n      dup2\n        /* \"--CODEGEN--\":5915:6046   */\n      tag_161\n      jump\t// in\n    tag_197:\n        /* \"--CODEGEN--\":5907:6046   */\n      swap1\n      pop\n        /* \"--CODEGEN--\":5811:6056   */\n      swap2\n      swap1\n      pop\n      jump\t// out\n        /* \"--CODEGEN--\":6063:6479   */\n    tag_96:\n      0x00\n        /* \"--CODEGEN--\":6263:6265   */\n      0x20\n        /* \"--CODEGEN--\":6252:6261   */\n      dup3\n        /* \"--CODEGEN--\":6248:6266   */\n      add\n        /* \"--CODEGEN--\":6240:6266   */\n      swap1\n      pop\n        /* \"--CODEGEN--\":6313:6322   */\n      dup2\n        /* \"--CODEGEN--\":6307:6311   */\n      dup2\n        /* \"--CODEGEN--\":6303:6323   */\n      sub\n        /* \"--CODEGEN--\":6299:6300   */\n      0x00\n        /* \"--CODEGEN--\":6288:6297   */\n      dup4\n        /* \"--CODEGEN--\":6284:6301   */\n      add\n        /* \"--CODEGEN--\":6277:6324   */\n      mstore\n        /* \"--CODEGEN--\":6338:6469   */\n      tag_199\n        /* \"--CODEGEN--\":6464:6468   */\n      dup2\n        /* \"--CODEGEN--\":6338:6469   */\n      tag_164\n      jump\t// in\n    tag_199:\n        /* \"--CODEGEN--\":6330:6469   */\n      swap1\n      pop\n        /* \"--CODEGEN--\":6234:6479   */\n      swap2\n      swap1\n      pop\n      jump\t// out\n        /* \"--CODEGEN--\":6486:6902   */\n    tag_104:\n      0x00\n        /* \"--CODEGEN--\":6686:6688   */\n      0x20\n        /* \"--CODEGEN--\":6675:6684   */\n      dup3\n        /* \"--CODEGEN--\":6671:6689   */\n      add\n        /* \"--CODEGEN--\":6663:6689   */\n      swap1\n      pop\n        /* \"--CODEGEN--\":6736:6745   */\n      dup2\n        /* \"--CODEGEN--\":6730:6734   */\n      dup2\n        /* \"--CODEGEN--\":6726:6746   */\n      sub\n        /* \"--CODEGEN--\":6722:6723   */\n      0x00\n        /* \"--CODEGEN--\":6711:6720   */\n      dup4\n        /* \"--CODEGEN--\":6707:6724   */\n      add\n        /* \"--CODEGEN--\":6700:6747   */\n      mstore\n        /* \"--CODEGEN--\":6761:6892   */\n      tag_201\n        /* \"--CODEGEN--\":6887:6891   */\n      dup2\n        /* \"--CODEGEN--\":6761:6892   */\n      tag_167\n      jump\t// in\n    tag_201:\n        /* \"--CODEGEN--\":6753:6892   */\n      swap1\n      pop\n        /* \"--CODEGEN--\":6657:6902   */\n      swap2\n      swap1\n      pop\n      jump\t// out\n        /* \"--CODEGEN--\":6909:7131   */\n    tag_21:\n      0x00\n        /* \"--CODEGEN--\":7036:7038   */\n      0x20\n        /* \"--CODEGEN--\":7025:7034   */\n      dup3\n        /* \"--CODEGEN--\":7021:7039   */\n      add\n        /* \"--CODEGEN--\":7013:7039   */\n      swap1\n      pop\n        /* \"--CODEGEN--\":7050:7121   */\n      tag_203\n        /* \"--CODEGEN--\":7118:7119   */\n      0x00\n        /* \"--CODEGEN--\":7107:7116   */\n      dup4\n        /* \"--CODEGEN--\":7103:7120   */\n      add\n        /* \"--CODEGEN--\":7094:7100   */\n      dup5\n        /* \"--CODEGEN--\":7050:7121   */\n      tag_170\n      jump\t// in\n    tag_203:\n        /* \"--CODEGEN--\":7007:7131   */\n      swap3\n      swap2\n      pop\n      pop\n      jump\t// out\n        /* \"--CODEGEN--\":7138:7487   */\n    tag_114:\n      0x00\n        /* \"--CODEGEN--\":7301:7303   */\n      0x40\n        /* \"--CODEGEN--\":7290:7299   */\n      dup3\n        /* \"--CODEGEN--\":7286:7304   */\n      add\n        /* \"--CODEGEN--\":7278:7304   */\n      swap1\n      pop\n        /* \"--CODEGEN--\":7315:7386   */\n      tag_205\n        /* \"--CODEGEN--\":7383:7384   */\n      0x00\n        /* \"--CODEGEN--\":7372:7381   */\n      dup4\n        /* \"--CODEGEN--\":7368:7385   */\n      add\n        /* \"--CODEGEN--\":7359:7365   */\n      dup6\n        /* \"--CODEGEN--\":7315:7386   */\n      tag_170\n      jump\t// in\n    tag_205:\n        /* \"--CODEGEN--\":7397:7477   */\n      tag_206\n        /* \"--CODEGEN--\":7473:7475   */\n      0x20\n        /* \"--CODEGEN--\":7462:7471   */\n      dup4\n        /* \"--CODEGEN--\":7458:7476   */\n      add\n        /* \"--CODEGEN--\":7449:7455   */\n      dup5\n        /* \"--CODEGEN--\":7397:7477   */\n      tag_143\n      jump\t// in\n    tag_206:\n        /* \"--CODEGEN--\":7272:7487   */\n      swap4\n      swap3\n      pop\n      pop\n      pop\n      jump\t// out\n        /* \"--CODEGEN--\":7495:7658   */\n    tag_160:\n      0x00\n        /* \"--CODEGEN--\":7610:7616   */\n      dup3\n        /* \"--CODEGEN--\":7605:7608   */\n      dup3\n        /* \"--CODEGEN--\":7598:7617   */\n      mstore\n        /* \"--CODEGEN--\":7647:7651   */\n      0x20\n        /* \"--CODEGEN--\":7642:7645   */\n      dup3\n        /* \"--CODEGEN--\":7638:7652   */\n      add\n        /* \"--CODEGEN--\":7623:7652   */\n      swap1\n      pop\n        /* \"--CODEGEN--\":7591:7658   */\n      swap3\n      swap2\n      pop\n      pop\n      jump\t// out\n        /* \"--CODEGEN--\":7666:7757   */\n    tag_156:\n      0x00\n        /* \"--CODEGEN--\":7728:7752   */\n      tag_209\n        /* \"--CODEGEN--\":7746:7751   */\n      dup3\n        /* \"--CODEGEN--\":7728:7752   */\n      tag_210\n      jump\t// in\n    tag_209:\n        /* \"--CODEGEN--\":7717:7752   */\n      swap1\n      pop\n        /* \"--CODEGEN--\":7711:7757   */\n      swap2\n      swap1\n      pop\n      jump\t// out\n        /* \"--CODEGEN--\":7764:7863   */\n    tag_151:\n      0x00\n        /* \"--CODEGEN--\":7834:7858   */\n      tag_212\n        /* \"--CODEGEN--\":7852:7857   */\n      dup3\n        /* \"--CODEGEN--\":7834:7858   */\n      tag_210\n      jump\t// in\n    tag_212:\n        /* \"--CODEGEN--\":7823:7858   */\n      swap1\n      pop\n        /* \"--CODEGEN--\":7817:7863   */\n      swap2\n      swap1\n      pop\n      jump\t// out\n        /* \"--CODEGEN--\":7870:7955   */\n    tag_213:\n      0x00\n        /* \"--CODEGEN--\":7943:7948   */\n      dup2\n        /* \"--CODEGEN--\":7936:7949   */\n      iszero\n        /* \"--CODEGEN--\":7929:7950   */\n      iszero\n        /* \"--CODEGEN--\":7918:7950   */\n      swap1\n      pop\n        /* \"--CODEGEN--\":7912:7955   */\n      swap2\n      swap1\n      pop\n      jump\t// out\n        /* \"--CODEGEN--\":7962:8083   */\n    tag_210:\n      0x00\n        /* \"--CODEGEN--\":8035:8077   */\n      0xffffffffffffffffffffffffffffffffffffffff\n        /* \"--CODEGEN--\":8028:8033   */\n      dup3\n        /* \"--CODEGEN--\":8024:8078   */\n      and\n        /* \"--CODEGEN--\":8013:8078   */\n      swap1\n      pop\n        /* \"--CODEGEN--\":8007:8083   */\n      swap2\n      swap1\n      pop\n      jump\t// out\n        /* \"--CODEGEN--\":8090:8162   */\n    tag_173:\n      0x00\n        /* \"--CODEGEN--\":8152:8157   */\n      dup2\n        /* \"--CODEGEN--\":8141:8157   */\n      swap1\n      pop\n        /* \"--CODEGEN--\":8135:8162   */\n      swap2\n      swap1\n      pop\n      jump\t// out\n        /* \"--CODEGEN--\":8169:8298   */\n    tag_146:\n      0x00\n        /* \"--CODEGEN--\":8256:8293   */\n      tag_218\n        /* \"--CODEGEN--\":8287:8292   */\n      dup3\n        /* \"--CODEGEN--\":8256:8293   */\n      tag_219\n      jump\t// in\n    tag_218:\n        /* \"--CODEGEN--\":8243:8293   */\n      swap1\n      pop\n        /* \"--CODEGEN--\":8237:8298   */\n      swap2\n      swap1\n      pop\n      jump\t// out\n        /* \"--CODEGEN--\":8305:8426   */\n    tag_219:\n      0x00\n        /* \"--CODEGEN--\":8384:8421   */\n      tag_221\n        /* \"--CODEGEN--\":8415:8420   */\n      dup3\n        /* \"--CODEGEN--\":8384:8421   */\n      tag_222\n      jump\t// in\n    tag_221:\n        /* \"--CODEGEN--\":8371:8421   */\n      swap1\n      pop\n        /* \"--CODEGEN--\":8365:8426   */\n      swap2\n      swap1\n      pop\n      jump\t// out\n        /* \"--CODEGEN--\":8433:8541   */\n    tag_222:\n      0x00\n        /* \"--CODEGEN--\":8512:8536   */\n      tag_224\n        /* \"--CODEGEN--\":8530:8535   */\n      dup3\n        /* \"--CODEGEN--\":8512:8536   */\n      tag_210\n      jump\t// in\n    tag_224:\n        /* \"--CODEGEN--\":8499:8536   */\n      swap1\n      pop\n        /* \"--CODEGEN--\":8493:8541   */\n      swap2\n      swap1\n      pop\n      jump\t// out\n        /* \"--CODEGEN--\":8548:8651   */\n    tag_152:\n      0x00\n        /* \"--CODEGEN--\":8620:8646   */\n      tag_226\n        /* \"--CODEGEN--\":8640:8645   */\n      dup3\n        /* \"--CODEGEN--\":8620:8646   */\n      tag_227\n      jump\t// in\n    tag_226:\n        /* \"--CODEGEN--\":8609:8646   */\n      swap1\n      pop\n        /* \"--CODEGEN--\":8603:8651   */\n      swap2\n      swap1\n      pop\n      jump\t// out\n        /* \"--CODEGEN--\":8658:8747   */\n    tag_227:\n      0x00\n        /* \"--CODEGEN--\":8722:8742   */\n      tag_229\n        /* \"--CODEGEN--\":8736:8741   */\n      dup3\n        /* \"--CODEGEN--\":8722:8742   */\n      tag_230\n      jump\t// in\n    tag_229:\n        /* \"--CODEGEN--\":8711:8742   */\n      swap1\n      pop\n        /* \"--CODEGEN--\":8705:8747   */\n      swap2\n      swap1\n      pop\n      jump\t// out\n        /* \"--CODEGEN--\":8754:8828   */\n    tag_178:\n      0x00\n        /* \"--CODEGEN--\":8818:8823   */\n      dup2\n        /* \"--CODEGEN--\":8807:8823   */\n      swap1\n      pop\n        /* \"--CODEGEN--\":8801:8828   */\n      swap2\n      swap1\n      pop\n      jump\t// out\n        /* \"--CODEGEN--\":8835:8929   */\n    tag_230:\n      0x00\n        /* \"--CODEGEN--\":8913:8918   */\n      dup2\n        /* \"--CODEGEN--\":8909:8911   */\n      0x60\n        /* \"--CODEGEN--\":8905:8919   */\n      shl\n        /* \"--CODEGEN--\":8883:8919   */\n      swap1\n      pop\n        /* \"--CODEGEN--\":8877:8929   */\n      swap2\n      swap1\n      pop\n      jump\t// out\n        /* \"--CODEGEN--\":8937:9048   */\n    tag_126:\n        /* \"--CODEGEN--\":9003:9024   */\n      tag_234\n        /* \"--CODEGEN--\":9018:9023   */\n      dup2\n        /* \"--CODEGEN--\":9003:9024   */\n      tag_213\n      jump\t// in\n    tag_234:\n        /* \"--CODEGEN--\":8996:9001   */\n      dup2\n        /* \"--CODEGEN--\":8993:9025   */\n      eq\n        /* \"--CODEGEN--\":8983:8985   */\n      tag_235\n      jumpi\n        /* \"--CODEGEN--\":9039:9040   */\n      0x00\n        /* \"--CODEGEN--\":9036:9037   */\n      dup1\n        /* \"--CODEGEN--\":9029:9041   */\n      revert\n        /* \"--CODEGEN--\":8983:8985   */\n    tag_235:\n        /* \"--CODEGEN--\":8977:9048   */\n      pop\n      jump\t// out\n        /* \"--CODEGEN--\":9055:9172   */\n    tag_130:\n        /* \"--CODEGEN--\":9124:9148   */\n      tag_237\n        /* \"--CODEGEN--\":9142:9147   */\n      dup2\n        /* \"--CODEGEN--\":9124:9148   */\n      tag_173\n      jump\t// in\n    tag_237:\n        /* \"--CODEGEN--\":9117:9122   */\n      dup2\n        /* \"--CODEGEN--\":9114:9149   */\n      eq\n        /* \"--CODEGEN--\":9104:9106   */\n      tag_238\n      jumpi\n        /* \"--CODEGEN--\":9163:9164   */\n      0x00\n        /* \"--CODEGEN--\":9160:9161   */\n      dup1\n        /* \"--CODEGEN--\":9153:9165   */\n      revert\n        /* \"--CODEGEN--\":9104:9106   */\n    tag_238:\n        /* \"--CODEGEN--\":9098:9172   */\n      pop\n      jump\t// out\n\n    auxdata: 0xa2646970667358221220d3dab304b6b613b8a689dd0670e8e27be6d91a74b230b3f05c5f9ca4df85d0d664736f6c634300060c0033\n}\n\nsub_1: assembly {\n        /* \"Loteria/ERC20Loteria.sol\":1638:4335  contract ERC20Basic is IERC20 {\r... */\n      mstore(0x40, 0x80)\n        /* \"Loteria/ERC20Loteria.sol\":1982:2118  constructor (uint256 initialSupply) public {\r... */\n      callvalue\n      dup1\n      iszero\n      tag_1\n      jumpi\n      0x00\n      dup1\n      revert\n    tag_1:\n      pop\n      mload(0x40)\n      sub(codesize, bytecodeSize)\n      dup1\n      bytecodeSize\n      dup4\n      codecopy\n      dup2\n      dup2\n      add\n      0x40\n      mstore\n      dup2\n      add\n      swap1\n      tag_2\n      swap2\n      swap1\n      tag_3\n      jump\t// in\n    tag_2:\n        /* \"Loteria/ERC20Loteria.sol\":2051:2064  initialSupply */\n      dup1\n        /* \"Loteria/ERC20Loteria.sol\":2036:2048  totalSupply_ */\n      0x02\n        /* \"Loteria/ERC20Loteria.sol\":2036:2064  totalSupply_ = initialSupply */\n      dup2\n      swap1\n      sstore\n      pop\n        /* \"Loteria/ERC20Loteria.sol\":2098:2110  totalSupply_ */\n      sload(0x02)\n        /* \"Loteria/ERC20Loteria.sol\":2075:2083  balances */\n      0x00\n        /* \"Loteria/ERC20Loteria.sol\":2075:2095  balances[msg.sender] */\n      dup1\n        /* \"Loteria/ERC20Loteria.sol\":2084:2094  msg.sender */\n      caller\n        /* \"Loteria/ERC20Loteria.sol\":2075:2095  balances[msg.sender] */\n      0xffffffffffffffffffffffffffffffffffffffff\n      and\n      0xffffffffffffffffffffffffffffffffffffffff\n      and\n      dup2\n      mstore\n      0x20\n      add\n      swap1\n      dup2\n      mstore\n      0x20\n      add\n      0x00\n      keccak256\n        /* \"Loteria/ERC20Loteria.sol\":2075:2110  balances[msg.sender] = totalSupply_ */\n      dup2\n      swap1\n      sstore\n      pop\n        /* \"Loteria/ERC20Loteria.sol\":1982:2118  constructor (uint256 initialSupply) public {\r... */\n      pop\n        /* \"Loteria/ERC20Loteria.sol\":1638:4335  contract ERC20Basic is IERC20 {\r... */\n      jump(tag_6)\n        /* \"--CODEGEN--\":5:139   */\n    tag_8:\n      0x00\n        /* \"--CODEGEN--\":89:95   */\n      dup2\n        /* \"--CODEGEN--\":83:96   */\n      mload\n        /* \"--CODEGEN--\":74:96   */\n      swap1\n      pop\n        /* \"--CODEGEN--\":101:134   */\n      tag_10\n        /* \"--CODEGEN--\":128:133   */\n      dup2\n        /* \"--CODEGEN--\":101:134   */\n      tag_11\n      jump\t// in\n    tag_10:\n        /* \"--CODEGEN--\":68:139   */\n      swap3\n      swap2\n      pop\n      pop\n      jump\t// out\n        /* \"--CODEGEN--\":146:409   */\n    tag_3:\n      0x00\n        /* \"--CODEGEN--\":261:263   */\n      0x20\n        /* \"--CODEGEN--\":249:258   */\n      dup3\n        /* \"--CODEGEN--\":240:247   */\n      dup5\n        /* \"--CODEGEN--\":236:259   */\n      sub\n        /* \"--CODEGEN--\":232:264   */\n      slt\n        /* \"--CODEGEN--\":229:231   */\n      iszero\n      tag_13\n      jumpi\n        /* \"--CODEGEN--\":277:278   */\n      0x00\n        /* \"--CODEGEN--\":274:275   */\n      dup1\n        /* \"--CODEGEN--\":267:279   */\n      revert\n        /* \"--CODEGEN--\":229:231   */\n    tag_13:\n        /* \"--CODEGEN--\":312:313   */\n      0x00\n        /* \"--CODEGEN--\":329:393   */\n      tag_14\n        /* \"--CODEGEN--\":385:392   */\n      dup5\n        /* \"--CODEGEN--\":376:382   */\n      dup3\n        /* \"--CODEGEN--\":365:374   */\n      dup6\n        /* \"--CODEGEN--\":361:383   */\n      add\n        /* \"--CODEGEN--\":329:393   */\n      tag_8\n      jump\t// in\n    tag_14:\n        /* \"--CODEGEN--\":319:393   */\n      swap2\n      pop\n        /* \"--CODEGEN--\":291:399   */\n      pop\n        /* \"--CODEGEN--\":223:409   */\n      swap3\n      swap2\n      pop\n      pop\n      jump\t// out\n        /* \"--CODEGEN--\":416:488   */\n    tag_15:\n      0x00\n        /* \"--CODEGEN--\":478:483   */\n      dup2\n        /* \"--CODEGEN--\":467:483   */\n      swap1\n      pop\n        /* \"--CODEGEN--\":461:488   */\n      swap2\n      swap1\n      pop\n      jump\t// out\n        /* \"--CODEGEN--\":495:612   */\n    tag_11:\n        /* \"--CODEGEN--\":564:588   */\n      tag_18\n        /* \"--CODEGEN--\":582:587   */\n      dup2\n        /* \"--CODEGEN--\":564:588   */\n      tag_15\n      jump\t// in\n    tag_18:\n        /* \"--CODEGEN--\":557:562   */\n      dup2\n        /* \"--CODEGEN--\":554:589   */\n      eq\n        /* \"--CODEGEN--\":544:546   */\n      tag_19\n      jumpi\n        /* \"--CODEGEN--\":603:604   */\n      0x00\n        /* \"--CODEGEN--\":600:601   */\n      dup1\n        /* \"--CODEGEN--\":593:605   */\n      revert\n        /* \"--CODEGEN--\":544:546   */\n    tag_19:\n        /* \"--CODEGEN--\":538:612   */\n      pop\n      jump\t// out\n        /* \"Loteria/ERC20Loteria.sol\":1638:4335  contract ERC20Basic is IERC20 {\r... */\n    tag_6:\n      dataSize(sub_0)\n      dup1\n      dataOffset(sub_0)\n      0x00\n      codecopy\n      0x00\n      return\n    stop\n\n    sub_0: assembly {\n            /* \"Loteria/ERC20Loteria.sol\":1638:4335  contract ERC20Basic is IERC20 {\r... */\n          mstore(0x40, 0x80)\n          callvalue\n          dup1\n          iszero\n          tag_1\n          jumpi\n          0x00\n          dup1\n          revert\n        tag_1:\n          pop\n          jumpi(tag_2, lt(calldatasize, 0x04))\n          shr(0xe0, calldataload(0x00))\n          dup1\n          0x313ce567\n          gt\n          tag_14\n          jumpi\n          dup1\n          0x313ce567\n          eq\n          tag_8\n          jumpi\n          dup1\n          0x5c79febb\n          eq\n          tag_9\n          jumpi\n          dup1\n          0x70a08231\n          eq\n          tag_10\n          jumpi\n          dup1\n          0x95d89b41\n          eq\n          tag_11\n          jumpi\n          dup1\n          0xa9059cbb\n          eq\n          tag_12\n          jumpi\n          dup1\n          0xdd62ed3e\n          eq\n          tag_13\n          jumpi\n          jump(tag_2)\n        tag_14:\n          dup1\n          0x06fdde03\n          eq\n          tag_3\n          jumpi\n          dup1\n          0x095ea7b3\n          eq\n          tag_4\n          jumpi\n          dup1\n          0x18160ddd\n          eq\n          tag_5\n          jumpi\n          dup1\n          0x1d43cc98\n          eq\n          tag_6\n          jumpi\n          dup1\n          0x23b872dd\n          eq\n          tag_7\n          jumpi\n        tag_2:\n          0x00\n          dup1\n          revert\n            /* \"Loteria/ERC20Loteria.sol\":1712:1756  string public constant name = \"ERC20AKALugo\" */\n        tag_3:\n          tag_15\n          tag_16\n          jump\t// in\n        tag_15:\n          mload(0x40)\n          tag_17\n          swap2\n          swap1\n          tag_18\n          jump\t// in\n        tag_17:\n          mload(0x40)\n          dup1\n          swap2\n          sub\n          swap1\n          return\n            /* \"Loteria/ERC20Loteria.sol\":3602:3831  function approve(address spender, uint numTokens) public override returns(bool) {\r... */\n        tag_4:\n          tag_19\n          0x04\n          dup1\n          calldatasize\n          sub\n          dup2\n          add\n          swap1\n          tag_20\n          swap2\n          swap1\n          tag_21\n          jump\t// in\n        tag_20:\n          tag_22\n          jump\t// in\n        tag_19:\n          mload(0x40)\n          tag_23\n          swap2\n          swap1\n          tag_24\n          jump\t// in\n        tag_23:\n          mload(0x40)\n          dup1\n          swap2\n          sub\n          swap1\n          return\n            /* \"Loteria/ERC20Loteria.sol\":2291:2390  function totalSupply() public override view returns(uint256) {\r... */\n        tag_5:\n          tag_25\n          tag_26\n          jump\t// in\n        tag_25:\n          mload(0x40)\n          tag_27\n          swap2\n          swap1\n          tag_28\n          jump\t// in\n        tag_27:\n          mload(0x40)\n          dup1\n          swap2\n          sub\n          swap1\n          return\n            /* \"Loteria/ERC20Loteria.sol\":2398:2556  function increaseTotalSupply(uint newTokensAmount) public {\r... */\n        tag_6:\n          tag_29\n          0x04\n          dup1\n          calldatasize\n          sub\n          dup2\n          add\n          swap1\n          tag_30\n          swap2\n          swap1\n          tag_31\n          jump\t// in\n        tag_30:\n          tag_32\n          jump\t// in\n        tag_29:\n          stop\n            /* \"Loteria/ERC20Loteria.sol\":3839:4332  function transferFrom(address owner, address buyer, uint256 numTokens) public override returns(bool) {\r... */\n        tag_7:\n          tag_33\n          0x04\n          dup1\n          calldatasize\n          sub\n          dup2\n          add\n          swap1\n          tag_34\n          swap2\n          swap1\n          tag_35\n          jump\t// in\n        tag_34:\n          tag_36\n          jump\t// in\n        tag_33:\n          mload(0x40)\n          tag_37\n          swap2\n          swap1\n          tag_24\n          jump\t// in\n        tag_37:\n          mload(0x40)\n          dup1\n          swap2\n          sub\n          swap1\n          return\n            /* \"Loteria/ERC20Loteria.sol\":1807:1842  uint8 public constant decimals = 18 */\n        tag_8:\n          tag_38\n          tag_39\n          jump\t// in\n        tag_38:\n          mload(0x40)\n          tag_40\n          swap2\n          swap1\n          tag_41\n          jump\t// in\n        tag_40:\n          mload(0x40)\n          dup1\n          swap2\n          sub\n          swap1\n          return\n            /* \"Loteria/ERC20Loteria.sol\":3216:3594  function transferLoteria(address emiter, address recipient, uint256 numTokens) public override returns(bool) {\r... */\n        tag_9:\n          tag_42\n          0x04\n          dup1\n          calldatasize\n          sub\n          dup2\n          add\n          swap1\n          tag_43\n          swap2\n          swap1\n          tag_35\n          jump\t// in\n        tag_43:\n          tag_44\n          jump\t// in\n        tag_42:\n          mload(0x40)\n          tag_45\n          swap2\n          swap1\n          tag_24\n          jump\t// in\n        tag_45:\n          mload(0x40)\n          dup1\n          swap2\n          sub\n          swap1\n          return\n            /* \"Loteria/ERC20Loteria.sol\":2564:2682  function balanceOf(address account) public override view returns (uint256) {\r... */\n        tag_10:\n          tag_46\n          0x04\n          dup1\n          calldatasize\n          sub\n          dup2\n          add\n          swap1\n          tag_47\n          swap2\n          swap1\n          tag_48\n          jump\t// in\n        tag_47:\n          tag_49\n          jump\t// in\n        tag_46:\n          mload(0x40)\n          tag_50\n          swap2\n          swap1\n          tag_28\n          jump\t// in\n        tag_50:\n          mload(0x40)\n          dup1\n          swap2\n          sub\n          swap1\n          return\n            /* \"Loteria/ERC20Loteria.sol\":1763:1800  string public constant symbol = \"AKA\" */\n        tag_11:\n          tag_51\n          tag_52\n          jump\t// in\n        tag_51:\n          mload(0x40)\n          tag_53\n          swap2\n          swap1\n          tag_18\n          jump\t// in\n        tag_53:\n          mload(0x40)\n          dup1\n          swap2\n          sub\n          swap1\n          return\n            /* \"Loteria/ERC20Loteria.sol\":2837:3208  function transfer(address recipient, uint256 numTokens) public override returns(bool) {\r... */\n        tag_12:\n          tag_54\n          0x04\n          dup1\n          calldatasize\n          sub\n          dup2\n          add\n          swap1\n          tag_55\n          swap2\n          swap1\n          tag_21\n          jump\t// in\n        tag_55:\n          tag_56\n          jump\t// in\n        tag_54:\n          mload(0x40)\n          tag_57\n          swap2\n          swap1\n          tag_24\n          jump\t// in\n        tag_57:\n          mload(0x40)\n          dup1\n          swap2\n          sub\n          swap1\n          return\n            /* \"Loteria/ERC20Loteria.sol\":2690:2829  function allowance(address owner, address spender) public override view returns (uint256) {\r... */\n        tag_13:\n          tag_58\n          0x04\n          dup1\n          calldatasize\n          sub\n          dup2\n          add\n          swap1\n          tag_59\n          swap2\n          swap1\n          tag_60\n          jump\t// in\n        tag_59:\n          tag_61\n          jump\t// in\n        tag_58:\n          mload(0x40)\n          tag_62\n          swap2\n          swap1\n          tag_28\n          jump\t// in\n        tag_62:\n          mload(0x40)\n          dup1\n          swap2\n          sub\n          swap1\n          return\n            /* \"Loteria/ERC20Loteria.sol\":1712:1756  string public constant name = \"ERC20AKALugo\" */\n        tag_16:\n          mload(0x40)\n          dup1\n          0x40\n          add\n          0x40\n          mstore\n          dup1\n          0x0c\n          dup2\n          mstore\n          0x20\n          add\n          0x4552433230414b414c75676f0000000000000000000000000000000000000000\n          dup2\n          mstore\n          pop\n          dup2\n          jump\t// out\n            /* \"Loteria/ERC20Loteria.sol\":3602:3831  function approve(address spender, uint numTokens) public override returns(bool) {\r... */\n        tag_22:\n            /* \"Loteria/ERC20Loteria.sol\":3676:3680  bool */\n          0x00\n            /* \"Loteria/ERC20Loteria.sol\":3734:3743  numTokens */\n          dup2\n            /* \"Loteria/ERC20Loteria.sol\":3703:3710  allowed */\n          0x01\n            /* \"Loteria/ERC20Loteria.sol\":3703:3722  allowed[msg.sender] */\n          0x00\n            /* \"Loteria/ERC20Loteria.sol\":3711:3721  msg.sender */\n          caller\n            /* \"Loteria/ERC20Loteria.sol\":3703:3722  allowed[msg.sender] */\n          0xffffffffffffffffffffffffffffffffffffffff\n          and\n          0xffffffffffffffffffffffffffffffffffffffff\n          and\n          dup2\n          mstore\n          0x20\n          add\n          swap1\n          dup2\n          mstore\n          0x20\n          add\n          0x00\n          keccak256\n            /* \"Loteria/ERC20Loteria.sol\":3703:3731  allowed[msg.sender][spender] */\n          0x00\n            /* \"Loteria/ERC20Loteria.sol\":3723:3730  spender */\n          dup6\n            /* \"Loteria/ERC20Loteria.sol\":3703:3731  allowed[msg.sender][spender] */\n          0xffffffffffffffffffffffffffffffffffffffff\n          and\n          0xffffffffffffffffffffffffffffffffffffffff\n          and\n          dup2\n          mstore\n          0x20\n          add\n          swap1\n          dup2\n          mstore\n          0x20\n          add\n          0x00\n          keccak256\n            /* \"Loteria/ERC20Loteria.sol\":3703:3743  allowed[msg.sender][spender] = numTokens */\n          dup2\n          swap1\n          sstore\n          pop\n            /* \"Loteria/ERC20Loteria.sol\":3780:3787  spender */\n          dup3\n            /* \"Loteria/ERC20Loteria.sol\":3759:3799  Approval(msg.sender, spender, numTokens) */\n          0xffffffffffffffffffffffffffffffffffffffff\n          and\n            /* \"Loteria/ERC20Loteria.sol\":3768:3778  msg.sender */\n          caller\n            /* \"Loteria/ERC20Loteria.sol\":3759:3799  Approval(msg.sender, spender, numTokens) */\n          0xffffffffffffffffffffffffffffffffffffffff\n          and\n          0x8c5be1e5ebec7d5bd14f71427d1e84f3dd0314c0f7b2291e5b200ac8c7c3b925\n            /* \"Loteria/ERC20Loteria.sol\":3789:3798  numTokens */\n          dup5\n            /* \"Loteria/ERC20Loteria.sol\":3759:3799  Approval(msg.sender, spender, numTokens) */\n          mload(0x40)\n          tag_64\n          swap2\n          swap1\n          tag_28\n          jump\t// in\n        tag_64:\n          mload(0x40)\n          dup1\n          swap2\n          sub\n          swap1\n          log3\n            /* \"Loteria/ERC20Loteria.sol\":3819:3823  true */\n          0x01\n            /* \"Loteria/ERC20Loteria.sol\":3812:3823  return true */\n          swap1\n          pop\n            /* \"Loteria/ERC20Loteria.sol\":3602:3831  function approve(address spender, uint numTokens) public override returns(bool) {\r... */\n          swap3\n          swap2\n          pop\n          pop\n          jump\t// out\n            /* \"Loteria/ERC20Loteria.sol\":2291:2390  function totalSupply() public override view returns(uint256) {\r... */\n        tag_26:\n            /* \"Loteria/ERC20Loteria.sol\":2343:2350  uint256 */\n          0x00\n            /* \"Loteria/ERC20Loteria.sol\":2370:2382  totalSupply_ */\n          sload(0x02)\n            /* \"Loteria/ERC20Loteria.sol\":2363:2382  return totalSupply_ */\n          swap1\n          pop\n            /* \"Loteria/ERC20Loteria.sol\":2291:2390  function totalSupply() public override view returns(uint256) {\r... */\n          swap1\n          jump\t// out\n            /* \"Loteria/ERC20Loteria.sol\":2398:2556  function increaseTotalSupply(uint newTokensAmount) public {\r... */\n        tag_32:\n            /* \"Loteria/ERC20Loteria.sol\":2483:2498  newTokensAmount */\n          dup1\n            /* \"Loteria/ERC20Loteria.sol\":2467:2479  totalSupply_ */\n          0x02\n          0x00\n            /* \"Loteria/ERC20Loteria.sol\":2467:2498  totalSupply_ += newTokensAmount */\n          dup3\n          dup3\n          sload\n          add\n          swap3\n          pop\n          pop\n          dup2\n          swap1\n          sstore\n          pop\n            /* \"Loteria/ERC20Loteria.sol\":2533:2548  newTokensAmount */\n          dup1\n            /* \"Loteria/ERC20Loteria.sol\":2509:2517  balances */\n          0x00\n            /* \"Loteria/ERC20Loteria.sol\":2509:2529  balances[msg.sender] */\n          dup1\n            /* \"Loteria/ERC20Loteria.sol\":2518:2528  msg.sender */\n          caller\n            /* \"Loteria/ERC20Loteria.sol\":2509:2529  balances[msg.sender] */\n          0xffffffffffffffffffffffffffffffffffffffff\n          and\n          0xffffffffffffffffffffffffffffffffffffffff\n          and\n          dup2\n          mstore\n          0x20\n          add\n          swap1\n          dup2\n          mstore\n          0x20\n          add\n          0x00\n          keccak256\n          0x00\n            /* \"Loteria/ERC20Loteria.sol\":2509:2548  balances[msg.sender] += newTokensAmount */\n          dup3\n          dup3\n          sload\n          add\n          swap3\n          pop\n          pop\n          dup2\n          swap1\n          sstore\n          pop\n            /* \"Loteria/ERC20Loteria.sol\":2398:2556  function increaseTotalSupply(uint newTokensAmount) public {\r... */\n          pop\n          jump\t// out\n            /* \"Loteria/ERC20Loteria.sol\":3839:4332  function transferFrom(address owner, address buyer, uint256 numTokens) public override returns(bool) {\r... */\n        tag_36:\n            /* \"Loteria/ERC20Loteria.sol\":3934:3938  bool */\n          0x00\n            /* \"Loteria/ERC20Loteria.sol\":3979:3988  numTokens */\n          dup2\n            /* \"Loteria/ERC20Loteria.sol\":3960:3968  balances */\n          0x00\n            /* \"Loteria/ERC20Loteria.sol\":3960:3975  balances[owner] */\n          dup1\n            /* \"Loteria/ERC20Loteria.sol\":3969:3974  owner */\n          dup7\n            /* \"Loteria/ERC20Loteria.sol\":3960:3975  balances[owner] */\n          0xffffffffffffffffffffffffffffffffffffffff\n          and\n          0xffffffffffffffffffffffffffffffffffffffff\n          and\n          dup2\n          mstore\n          0x20\n          add\n          swap1\n          dup2\n          mstore\n          0x20\n          add\n          0x00\n          keccak256\n          sload\n            /* \"Loteria/ERC20Loteria.sol\":3960:3988  balances[owner] >= numTokens */\n          lt\n          iszero\n            /* \"Loteria/ERC20Loteria.sol\":3951:3989  require (balances[owner] >= numTokens) */\n          tag_68\n          jumpi\n          0x00\n          dup1\n          revert\n        tag_68:\n            /* \"Loteria/ERC20Loteria.sol\":4039:4048  numTokens */\n          dup2\n            /* \"Loteria/ERC20Loteria.sol\":4009:4016  allowed */\n          0x01\n            /* \"Loteria/ERC20Loteria.sol\":4009:4023  allowed[owner] */\n          0x00\n            /* \"Loteria/ERC20Loteria.sol\":4017:4022  owner */\n          dup7\n            /* \"Loteria/ERC20Loteria.sol\":4009:4023  allowed[owner] */\n          0xffffffffffffffffffffffffffffffffffffffff\n          and\n          0xffffffffffffffffffffffffffffffffffffffff\n          and\n          dup2\n          mstore\n          0x20\n          add\n          swap1\n          dup2\n          mstore\n          0x20\n          add\n          0x00\n          keccak256\n            /* \"Loteria/ERC20Loteria.sol\":4009:4035  allowed[owner][msg.sender] */\n          0x00\n            /* \"Loteria/ERC20Loteria.sol\":4024:4034  msg.sender */\n          caller\n            /* \"Loteria/ERC20Loteria.sol\":4009:4035  allowed[owner][msg.sender] */\n          0xffffffffffffffffffffffffffffffffffffffff\n          and\n          0xffffffffffffffffffffffffffffffffffffffff\n          and\n          dup2\n          mstore\n          0x20\n          add\n          swap1\n          dup2\n          mstore\n          0x20\n          add\n          0x00\n          keccak256\n          sload\n            /* \"Loteria/ERC20Loteria.sol\":4009:4048  allowed[owner][msg.sender] >= numTokens */\n          lt\n          iszero\n            /* \"Loteria/ERC20Loteria.sol\":4000:4049  require (allowed[owner][msg.sender] >= numTokens) */\n          tag_69\n          jumpi\n          0x00\n          dup1\n          revert\n        tag_69:\n            /* \"Loteria/ERC20Loteria.sol\":4080:4110  balances[owner].sub(numTokens) */\n          tag_70\n            /* \"Loteria/ERC20Loteria.sol\":4100:4109  numTokens */\n          dup3\n            /* \"Loteria/ERC20Loteria.sol\":4080:4088  balances */\n          0x00\n            /* \"Loteria/ERC20Loteria.sol\":4080:4095  balances[owner] */\n          dup1\n            /* \"Loteria/ERC20Loteria.sol\":4089:4094  owner */\n          dup8\n            /* \"Loteria/ERC20Loteria.sol\":4080:4095  balances[owner] */\n          0xffffffffffffffffffffffffffffffffffffffff\n          and\n          0xffffffffffffffffffffffffffffffffffffffff\n          and\n          dup2\n          mstore\n          0x20\n          add\n          swap1\n          dup2\n          mstore\n          0x20\n          add\n          0x00\n          keccak256\n          sload\n            /* \"Loteria/ERC20Loteria.sol\":4080:4099  balances[owner].sub */\n          tag_71\n          swap1\n            /* \"Loteria/ERC20Loteria.sol\":4080:4110  balances[owner].sub(numTokens) */\n          swap2\n          swap1\n          0xffffffff\n          and\n          jump\t// in\n        tag_70:\n            /* \"Loteria/ERC20Loteria.sol\":4062:4070  balances */\n          0x00\n            /* \"Loteria/ERC20Loteria.sol\":4062:4077  balances[owner] */\n          dup1\n            /* \"Loteria/ERC20Loteria.sol\":4071:4076  owner */\n          dup7\n            /* \"Loteria/ERC20Loteria.sol\":4062:4077  balances[owner] */\n          0xffffffffffffffffffffffffffffffffffffffff\n          and\n          0xffffffffffffffffffffffffffffffffffffffff\n          and\n          dup2\n          mstore\n          0x20\n          add\n          swap1\n          dup2\n          mstore\n          0x20\n          add\n          0x00\n          keccak256\n            /* \"Loteria/ERC20Loteria.sol\":4062:4110  balances[owner] = balances[owner].sub(numTokens) */\n          dup2\n          swap1\n          sstore\n          pop\n            /* \"Loteria/ERC20Loteria.sol\":4150:4191  allowed[owner][msg.sender].sub(numTokens) */\n          tag_72\n            /* \"Loteria/ERC20Loteria.sol\":4181:4190  numTokens */\n          dup3\n            /* \"Loteria/ERC20Loteria.sol\":4150:4157  allowed */\n          0x01\n            /* \"Loteria/ERC20Loteria.sol\":4150:4164  allowed[owner] */\n          0x00\n            /* \"Loteria/ERC20Loteria.sol\":4158:4163  owner */\n          dup8\n            /* \"Loteria/ERC20Loteria.sol\":4150:4164  allowed[owner] */\n          0xffffffffffffffffffffffffffffffffffffffff\n          and\n          0xffffffffffffffffffffffffffffffffffffffff\n          and\n          dup2\n          mstore\n          0x20\n          add\n          swap1\n          dup2\n          mstore\n          0x20\n          add\n          0x00\n          keccak256\n            /* \"Loteria/ERC20Loteria.sol\":4150:4176  allowed[owner][msg.sender] */\n          0x00\n            /* \"Loteria/ERC20Loteria.sol\":4165:4175  msg.sender */\n          caller\n            /* \"Loteria/ERC20Loteria.sol\":4150:4176  allowed[owner][msg.sender] */\n          0xffffffffffffffffffffffffffffffffffffffff\n          and\n          0xffffffffffffffffffffffffffffffffffffffff\n          and\n          dup2\n          mstore\n          0x20\n          add\n          swap1\n          dup2\n          mstore\n          0x20\n          add\n          0x00\n          keccak256\n          sload\n            /* \"Loteria/ERC20Loteria.sol\":4150:4180  allowed[owner][msg.sender].sub */\n          tag_71\n          swap1\n            /* \"Loteria/ERC20Loteria.sol\":4150:4191  allowed[owner][msg.sender].sub(numTokens) */\n          swap2\n          swap1\n          0xffffffff\n          and\n          jump\t// in\n        tag_72:\n            /* \"Loteria/ERC20Loteria.sol\":4121:4128  allowed */\n          0x01\n            /* \"Loteria/ERC20Loteria.sol\":4121:4135  allowed[owner] */\n          0x00\n            /* \"Loteria/ERC20Loteria.sol\":4129:4134  owner */\n          dup7\n            /* \"Loteria/ERC20Loteria.sol\":4121:4135  allowed[owner] */\n          0xffffffffffffffffffffffffffffffffffffffff\n          and\n          0xffffffffffffffffffffffffffffffffffffffff\n          and\n          dup2\n          mstore\n          0x20\n          add\n          swap1\n          dup2\n          mstore\n          0x20\n          add\n          0x00\n          keccak256\n            /* \"Loteria/ERC20Loteria.sol\":4121:4147  allowed[owner][msg.sender] */\n          0x00\n            /* \"Loteria/ERC20Loteria.sol\":4136:4146  msg.sender */\n          caller\n            /* \"Loteria/ERC20Loteria.sol\":4121:4147  allowed[owner][msg.sender] */\n          0xffffffffffffffffffffffffffffffffffffffff\n          and\n          0xffffffffffffffffffffffffffffffffffffffff\n          and\n          dup2\n          mstore\n          0x20\n          add\n          swap1\n          dup2\n          mstore\n          0x20\n          add\n          0x00\n          keccak256\n            /* \"Loteria/ERC20Loteria.sol\":4121:4191  allowed[owner][msg.sender] = allowed[owner][msg.sender].sub(numTokens) */\n          dup2\n          swap1\n          sstore\n          pop\n            /* \"Loteria/ERC20Loteria.sol\":4220:4250  balances[buyer].add(numTokens) */\n          tag_73\n            /* \"Loteria/ERC20Loteria.sol\":4240:4249  numTokens */\n          dup3\n            /* \"Loteria/ERC20Loteria.sol\":4220:4228  balances */\n          0x00\n            /* \"Loteria/ERC20Loteria.sol\":4220:4235  balances[buyer] */\n          dup1\n            /* \"Loteria/ERC20Loteria.sol\":4229:4234  buyer */\n          dup7\n            /* \"Loteria/ERC20Loteria.sol\":4220:4235  balances[buyer] */\n          0xffffffffffffffffffffffffffffffffffffffff\n          and\n          0xffffffffffffffffffffffffffffffffffffffff\n          and\n          dup2\n          mstore\n          0x20\n          add\n          swap1\n          dup2\n          mstore\n          0x20\n          add\n          0x00\n          keccak256\n          sload\n            /* \"Loteria/ERC20Loteria.sol\":4220:4239  balances[buyer].add */\n          tag_74\n          swap1\n            /* \"Loteria/ERC20Loteria.sol\":4220:4250  balances[buyer].add(numTokens) */\n          swap2\n          swap1\n          0xffffffff\n          and\n          jump\t// in\n        tag_73:\n            /* \"Loteria/ERC20Loteria.sol\":4202:4210  balances */\n          0x00\n            /* \"Loteria/ERC20Loteria.sol\":4202:4217  balances[buyer] */\n          dup1\n            /* \"Loteria/ERC20Loteria.sol\":4211:4216  buyer */\n          dup6\n            /* \"Loteria/ERC20Loteria.sol\":4202:4217  balances[buyer] */\n          0xffffffffffffffffffffffffffffffffffffffff\n          and\n          0xffffffffffffffffffffffffffffffffffffffff\n          and\n          dup2\n          mstore\n          0x20\n          add\n          swap1\n          dup2\n          mstore\n          0x20\n          add\n          0x00\n          keccak256\n            /* \"Loteria/ERC20Loteria.sol\":4202:4250  balances[buyer] = balances[buyer].add(numTokens) */\n          dup2\n          swap1\n          sstore\n          pop\n            /* \"Loteria/ERC20Loteria.sol\":4284:4289  buyer */\n          dup3\n            /* \"Loteria/ERC20Loteria.sol\":4268:4301  Transfer(owner, buyer, numTokens) */\n          0xffffffffffffffffffffffffffffffffffffffff\n          and\n            /* \"Loteria/ERC20Loteria.sol\":4277:4282  owner */\n          dup5\n            /* \"Loteria/ERC20Loteria.sol\":4268:4301  Transfer(owner, buyer, numTokens) */\n          0xffffffffffffffffffffffffffffffffffffffff\n          and\n          0xddf252ad1be2c89b69c2b068fc378daa952ba7f163c4a11628f55a4df523b3ef\n            /* \"Loteria/ERC20Loteria.sol\":4291:4300  numTokens */\n          dup5\n            /* \"Loteria/ERC20Loteria.sol\":4268:4301  Transfer(owner, buyer, numTokens) */\n          mload(0x40)\n          tag_75\n          swap2\n          swap1\n          tag_28\n          jump\t// in\n        tag_75:\n          mload(0x40)\n          dup1\n          swap2\n          sub\n          swap1\n          log3\n            /* \"Loteria/ERC20Loteria.sol\":4320:4324  true */\n          0x01\n            /* \"Loteria/ERC20Loteria.sol\":4313:4324  return true */\n          swap1\n          pop\n            /* \"Loteria/ERC20Loteria.sol\":3839:4332  function transferFrom(address owner, address buyer, uint256 numTokens) public override returns(bool) {\r... */\n          swap4\n          swap3\n          pop\n          pop\n          pop\n          jump\t// out\n            /* \"Loteria/ERC20Loteria.sol\":1807:1842  uint8 public constant decimals = 18 */\n        tag_39:\n            /* \"Loteria/ERC20Loteria.sol\":1840:1842  18 */\n          0x12\n            /* \"Loteria/ERC20Loteria.sol\":1807:1842  uint8 public constant decimals = 18 */\n          dup2\n          jump\t// out\n            /* \"Loteria/ERC20Loteria.sol\":3216:3594  function transferLoteria(address emiter, address recipient, uint256 numTokens) public override returns(bool) {\r... */\n        tag_44:\n            /* \"Loteria/ERC20Loteria.sol\":3319:3323  bool */\n          0x00\n            /* \"Loteria/ERC20Loteria.sol\":3358:3366  balances */\n          dup1\n            /* \"Loteria/ERC20Loteria.sol\":3358:3374  balances[emiter] */\n          0x00\n            /* \"Loteria/ERC20Loteria.sol\":3367:3373  emiter */\n          dup6\n            /* \"Loteria/ERC20Loteria.sol\":3358:3374  balances[emiter] */\n          0xffffffffffffffffffffffffffffffffffffffff\n          and\n          0xffffffffffffffffffffffffffffffffffffffff\n          and\n          dup2\n          mstore\n          0x20\n          add\n          swap1\n          dup2\n          mstore\n          0x20\n          add\n          0x00\n          keccak256\n          sload\n            /* \"Loteria/ERC20Loteria.sol\":3345:3354  numTokens */\n          dup3\n            /* \"Loteria/ERC20Loteria.sol\":3345:3374  numTokens <= balances[emiter] */\n          gt\n          iszero\n            /* \"Loteria/ERC20Loteria.sol\":3336:3375  require (numTokens <= balances[emiter]) */\n          tag_77\n          jumpi\n          0x00\n          dup1\n          revert\n        tag_77:\n            /* \"Loteria/ERC20Loteria.sol\":3407:3438  balances[emiter].sub(numTokens) */\n          tag_78\n            /* \"Loteria/ERC20Loteria.sol\":3428:3437  numTokens */\n          dup3\n            /* \"Loteria/ERC20Loteria.sol\":3407:3415  balances */\n          0x00\n            /* \"Loteria/ERC20Loteria.sol\":3407:3423  balances[emiter] */\n          dup1\n            /* \"Loteria/ERC20Loteria.sol\":3416:3422  emiter */\n          dup8\n            /* \"Loteria/ERC20Loteria.sol\":3407:3423  balances[emiter] */\n          0xffffffffffffffffffffffffffffffffffffffff\n          and\n          0xffffffffffffffffffffffffffffffffffffffff\n          and\n          dup2\n          mstore\n          0x20\n          add\n          swap1\n          dup2\n          mstore\n          0x20\n          add\n          0x00\n          keccak256\n          sload\n            /* \"Loteria/ERC20Loteria.sol\":3407:3427  balances[emiter].sub */\n          tag_71\n          swap1\n            /* \"Loteria/ERC20Loteria.sol\":3407:3438  balances[emiter].sub(numTokens) */\n          swap2\n          swap1\n          0xffffffff\n          and\n          jump\t// in\n        tag_78:\n            /* \"Loteria/ERC20Loteria.sol\":3388:3396  balances */\n          0x00\n            /* \"Loteria/ERC20Loteria.sol\":3388:3404  balances[emiter] */\n          dup1\n            /* \"Loteria/ERC20Loteria.sol\":3397:3403  emiter */\n          dup7\n            /* \"Loteria/ERC20Loteria.sol\":3388:3404  balances[emiter] */\n          0xffffffffffffffffffffffffffffffffffffffff\n          and\n          0xffffffffffffffffffffffffffffffffffffffff\n          and\n          dup2\n          mstore\n          0x20\n          add\n          swap1\n          dup2\n          mstore\n          0x20\n          add\n          0x00\n          keccak256\n            /* \"Loteria/ERC20Loteria.sol\":3388:3438  balances[emiter] = balances[emiter].sub(numTokens) */\n          dup2\n          swap1\n          sstore\n          pop\n            /* \"Loteria/ERC20Loteria.sol\":3472:3506  balances[recipient].add(numTokens) */\n          tag_79\n            /* \"Loteria/ERC20Loteria.sol\":3496:3505  numTokens */\n          dup3\n            /* \"Loteria/ERC20Loteria.sol\":3472:3480  balances */\n          0x00\n            /* \"Loteria/ERC20Loteria.sol\":3472:3491  balances[recipient] */\n          dup1\n            /* \"Loteria/ERC20Loteria.sol\":3481:3490  recipient */\n          dup7\n            /* \"Loteria/ERC20Loteria.sol\":3472:3491  balances[recipient] */\n          0xffffffffffffffffffffffffffffffffffffffff\n          and\n          0xffffffffffffffffffffffffffffffffffffffff\n          and\n          dup2\n          mstore\n          0x20\n          add\n          swap1\n          dup2\n          mstore\n          0x20\n          add\n          0x00\n          keccak256\n          sload\n            /* \"Loteria/ERC20Loteria.sol\":3472:3495  balances[recipient].add */\n          tag_74\n          swap1\n            /* \"Loteria/ERC20Loteria.sol\":3472:3506  balances[recipient].add(numTokens) */\n          swap2\n          swap1\n          0xffffffff\n          and\n          jump\t// in\n        tag_79:\n            /* \"Loteria/ERC20Loteria.sol\":3450:3458  balances */\n          0x00\n            /* \"Loteria/ERC20Loteria.sol\":3450:3469  balances[recipient] */\n          dup1\n            /* \"Loteria/ERC20Loteria.sol\":3459:3468  recipient */\n          dup6\n            /* \"Loteria/ERC20Loteria.sol\":3450:3469  balances[recipient] */\n          0xffffffffffffffffffffffffffffffffffffffff\n          and\n          0xffffffffffffffffffffffffffffffffffffffff\n          and\n          dup2\n          mstore\n          0x20\n          add\n          swap1\n          dup2\n          mstore\n          0x20\n          add\n          0x00\n          keccak256\n            /* \"Loteria/ERC20Loteria.sol\":3450:3506  balances[recipient] = balances[recipient].add(numTokens) */\n          dup2\n          swap1\n          sstore\n          pop\n            /* \"Loteria/ERC20Loteria.sol\":3541:3550  recipient */\n          dup3\n            /* \"Loteria/ERC20Loteria.sol\":3524:3562  Transfer(emiter, recipient, numTokens) */\n          0xffffffffffffffffffffffffffffffffffffffff\n          and\n            /* \"Loteria/ERC20Loteria.sol\":3533:3539  emiter */\n          dup5\n            /* \"Loteria/ERC20Loteria.sol\":3524:3562  Transfer(emiter, recipient, numTokens) */\n          0xffffffffffffffffffffffffffffffffffffffff\n          and\n          0xddf252ad1be2c89b69c2b068fc378daa952ba7f163c4a11628f55a4df523b3ef\n            /* \"Loteria/ERC20Loteria.sol\":3552:3561  numTokens */\n          dup5\n            /* \"Loteria/ERC20Loteria.sol\":3524:3562  Transfer(emiter, recipient, numTokens) */\n          mload(0x40)\n          tag_80\n          swap2\n          swap1\n          tag_28\n          jump\t// in\n        tag_80:\n          mload(0x40)\n          dup1\n          swap2\n          sub\n          swap1\n          log3\n            /* \"Loteria/ERC20Loteria.sol\":3582:3586  true */\n          0x01\n            /* \"Loteria/ERC20Loteria.sol\":3575:3586  return true */\n          swap1\n          pop\n            /* \"Loteria/ERC20Loteria.sol\":3216:3594  function transferLoteria(address emiter, address recipient, uint256 numTokens) public override returns(bool) {\r... */\n          swap4\n          swap3\n          pop\n          pop\n          pop\n          jump\t// out\n            /* \"Loteria/ERC20Loteria.sol\":2564:2682  function balanceOf(address account) public override view returns (uint256) {\r... */\n        tag_49:\n            /* \"Loteria/ERC20Loteria.sol\":2630:2637  uint256 */\n          0x00\n            /* \"Loteria/ERC20Loteria.sol\":2657:2665  balances */\n          dup1\n            /* \"Loteria/ERC20Loteria.sol\":2657:2674  balances[account] */\n          0x00\n            /* \"Loteria/ERC20Loteria.sol\":2666:2673  account */\n          dup4\n            /* \"Loteria/ERC20Loteria.sol\":2657:2674  balances[account] */\n          0xffffffffffffffffffffffffffffffffffffffff\n          and\n          0xffffffffffffffffffffffffffffffffffffffff\n          and\n          dup2\n          mstore\n          0x20\n          add\n          swap1\n          dup2\n          mstore\n          0x20\n          add\n          0x00\n          keccak256\n          sload\n            /* \"Loteria/ERC20Loteria.sol\":2650:2674  return balances[account] */\n          swap1\n          pop\n            /* \"Loteria/ERC20Loteria.sol\":2564:2682  function balanceOf(address account) public override view returns (uint256) {\r... */\n          swap2\n          swap1\n          pop\n          jump\t// out\n            /* \"Loteria/ERC20Loteria.sol\":1763:1800  string public constant symbol = \"AKA\" */\n        tag_52:\n          mload(0x40)\n          dup1\n          0x40\n          add\n          0x40\n          mstore\n          dup1\n          0x03\n          dup2\n          mstore\n          0x20\n          add\n          0x414b410000000000000000000000000000000000000000000000000000000000\n          dup2\n          mstore\n          pop\n          dup2\n          jump\t// out\n            /* \"Loteria/ERC20Loteria.sol\":2837:3208  function transfer(address recipient, uint256 numTokens) public override returns(bool) {\r... */\n        tag_56:\n            /* \"Loteria/ERC20Loteria.sol\":2917:2921  bool */\n          0x00\n            /* \"Loteria/ERC20Loteria.sol\":2956:2964  balances */\n          dup1\n            /* \"Loteria/ERC20Loteria.sol\":2956:2976  balances[msg.sender] */\n          0x00\n            /* \"Loteria/ERC20Loteria.sol\":2965:2975  msg.sender */\n          caller\n            /* \"Loteria/ERC20Loteria.sol\":2956:2976  balances[msg.sender] */\n          0xffffffffffffffffffffffffffffffffffffffff\n          and\n          0xffffffffffffffffffffffffffffffffffffffff\n          and\n          dup2\n          mstore\n          0x20\n          add\n          swap1\n          dup2\n          mstore\n          0x20\n          add\n          0x00\n          keccak256\n          sload\n            /* \"Loteria/ERC20Loteria.sol\":2943:2952  numTokens */\n          dup3\n            /* \"Loteria/ERC20Loteria.sol\":2943:2976  numTokens <= balances[msg.sender] */\n          gt\n          iszero\n            /* \"Loteria/ERC20Loteria.sol\":2934:2977  require (numTokens <= balances[msg.sender]) */\n          tag_83\n          jumpi\n          0x00\n          dup1\n          revert\n        tag_83:\n            /* \"Loteria/ERC20Loteria.sol\":3013:3048  balances[msg.sender].sub(numTokens) */\n          tag_84\n            /* \"Loteria/ERC20Loteria.sol\":3038:3047  numTokens */\n          dup3\n            /* \"Loteria/ERC20Loteria.sol\":3013:3021  balances */\n          0x00\n            /* \"Loteria/ERC20Loteria.sol\":3013:3033  balances[msg.sender] */\n          dup1\n            /* \"Loteria/ERC20Loteria.sol\":3022:3032  msg.sender */\n          caller\n            /* \"Loteria/ERC20Loteria.sol\":3013:3033  balances[msg.sender] */\n          0xffffffffffffffffffffffffffffffffffffffff\n          and\n          0xffffffffffffffffffffffffffffffffffffffff\n          and\n          dup2\n          mstore\n          0x20\n          add\n          swap1\n          dup2\n          mstore\n          0x20\n          add\n          0x00\n          keccak256\n          sload\n            /* \"Loteria/ERC20Loteria.sol\":3013:3037  balances[msg.sender].sub */\n          tag_71\n          swap1\n            /* \"Loteria/ERC20Loteria.sol\":3013:3048  balances[msg.sender].sub(numTokens) */\n          swap2\n          swap1\n          0xffffffff\n          and\n          jump\t// in\n        tag_84:\n            /* \"Loteria/ERC20Loteria.sol\":2990:2998  balances */\n          0x00\n            /* \"Loteria/ERC20Loteria.sol\":2990:3010  balances[msg.sender] */\n          dup1\n            /* \"Loteria/ERC20Loteria.sol\":2999:3009  msg.sender */\n          caller\n            /* \"Loteria/ERC20Loteria.sol\":2990:3010  balances[msg.sender] */\n          0xffffffffffffffffffffffffffffffffffffffff\n          and\n          0xffffffffffffffffffffffffffffffffffffffff\n          and\n          dup2\n          mstore\n          0x20\n          add\n          swap1\n          dup2\n          mstore\n          0x20\n          add\n          0x00\n          keccak256\n            /* \"Loteria/ERC20Loteria.sol\":2990:3048  balances[msg.sender] = balances[msg.sender].sub(numTokens) */\n          dup2\n          swap1\n          sstore\n          pop\n            /* \"Loteria/ERC20Loteria.sol\":3082:3116  balances[recipient].add(numTokens) */\n          tag_85\n            /* \"Loteria/ERC20Loteria.sol\":3106:3115  numTokens */\n          dup3\n            /* \"Loteria/ERC20Loteria.sol\":3082:3090  balances */\n          0x00\n            /* \"Loteria/ERC20Loteria.sol\":3082:3101  balances[recipient] */\n          dup1\n            /* \"Loteria/ERC20Loteria.sol\":3091:3100  recipient */\n          dup7\n            /* \"Loteria/ERC20Loteria.sol\":3082:3101  balances[recipient] */\n          0xffffffffffffffffffffffffffffffffffffffff\n          and\n          0xffffffffffffffffffffffffffffffffffffffff\n          and\n          dup2\n          mstore\n          0x20\n          add\n          swap1\n          dup2\n          mstore\n          0x20\n          add\n          0x00\n          keccak256\n          sload\n            /* \"Loteria/ERC20Loteria.sol\":3082:3105  balances[recipient].add */\n          tag_74\n          swap1\n            /* \"Loteria/ERC20Loteria.sol\":3082:3116  balances[recipient].add(numTokens) */\n          swap2\n          swap1\n          0xffffffff\n          and\n          jump\t// in\n        tag_85:\n            /* \"Loteria/ERC20Loteria.sol\":3060:3068  balances */\n          0x00\n            /* \"Loteria/ERC20Loteria.sol\":3060:3079  balances[recipient] */\n          dup1\n            /* \"Loteria/ERC20Loteria.sol\":3069:3078  recipient */\n          dup6\n            /* \"Loteria/ERC20Loteria.sol\":3060:3079  balances[recipient] */\n          0xffffffffffffffffffffffffffffffffffffffff\n          and\n          0xffffffffffffffffffffffffffffffffffffffff\n          and\n          dup2\n          mstore\n          0x20\n          add\n          swap1\n          dup2\n          mstore\n          0x20\n          add\n          0x00\n          keccak256\n            /* \"Loteria/ERC20Loteria.sol\":3060:3116  balances[recipient] = balances[recipient].add(numTokens) */\n          dup2\n          swap1\n          sstore\n          pop\n            /* \"Loteria/ERC20Loteria.sol\":3155:3164  recipient */\n          dup3\n            /* \"Loteria/ERC20Loteria.sol\":3134:3176  Transfer(msg.sender, recipient, numTokens) */\n          0xffffffffffffffffffffffffffffffffffffffff\n          and\n            /* \"Loteria/ERC20Loteria.sol\":3143:3153  msg.sender */\n          caller\n            /* \"Loteria/ERC20Loteria.sol\":3134:3176  Transfer(msg.sender, recipient, numTokens) */\n          0xffffffffffffffffffffffffffffffffffffffff\n          and\n          0xddf252ad1be2c89b69c2b068fc378daa952ba7f163c4a11628f55a4df523b3ef\n            /* \"Loteria/ERC20Loteria.sol\":3166:3175  numTokens */\n          dup5\n            /* \"Loteria/ERC20Loteria.sol\":3134:3176  Transfer(msg.sender, recipient, numTokens) */\n          mload(0x40)\n          tag_86\n          swap2\n          swap1\n          tag_28\n          jump\t// in\n        tag_86:\n          mload(0x40)\n          dup1\n          swap2\n          sub\n          swap1\n          log3\n            /* \"Loteria/ERC20Loteria.sol\":3196:3200  true */\n          0x01\n            /* \"Loteria/ERC20Loteria.sol\":3189:3200  return true */\n          swap1\n          pop\n            /* \"Loteria/ERC20Loteria.sol\":2837:3208  function transfer(address recipient, uint256 numTokens) public override returns(bool) {\r... */\n          swap3\n          swap2\n          pop\n          pop\n          jump\t// out\n            /* \"Loteria/ERC20Loteria.sol\":2690:2829  function allowance(address owner, address spender) public override view returns (uint256) {\r... */\n        tag_61:\n            /* \"Loteria/ERC20Loteria.sol\":2771:2778  uint256 */\n          0x00\n            /* \"Loteria/ERC20Loteria.sol\":2798:2805  allowed */\n          0x01\n            /* \"Loteria/ERC20Loteria.sol\":2798:2812  allowed[owner] */\n          0x00\n            /* \"Loteria/ERC20Loteria.sol\":2806:2811  owner */\n          dup5\n            /* \"Loteria/ERC20Loteria.sol\":2798:2812  allowed[owner] */\n          0xffffffffffffffffffffffffffffffffffffffff\n          and\n          0xffffffffffffffffffffffffffffffffffffffff\n          and\n          dup2\n          mstore\n          0x20\n          add\n          swap1\n          dup2\n          mstore\n          0x20\n          add\n          0x00\n          keccak256\n            /* \"Loteria/ERC20Loteria.sol\":2798:2821  allowed[owner][spender] */\n          0x00\n            /* \"Loteria/ERC20Loteria.sol\":2813:2820  spender */\n          dup4\n            /* \"Loteria/ERC20Loteria.sol\":2798:2821  allowed[owner][spender] */\n          0xffffffffffffffffffffffffffffffffffffffff\n          and\n          0xffffffffffffffffffffffffffffffffffffffff\n          and\n          dup2\n          mstore\n          0x20\n          add\n          swap1\n          dup2\n          mstore\n          0x20\n          add\n          0x00\n          keccak256\n          sload\n            /* \"Loteria/ERC20Loteria.sol\":2791:2821  return allowed[owner][spender] */\n          swap1\n          pop\n            /* \"Loteria/ERC20Loteria.sol\":2690:2829  function allowance(address owner, address spender) public override view returns (uint256) {\r... */\n          swap3\n          swap2\n          pop\n          pop\n          jump\t// out\n            /* \"Loteria/SafeMath.sol\":318:437  function sub(uint256 a, uint256 b) internal pure returns (uint256) {\r... */\n        tag_71:\n            /* \"Loteria/SafeMath.sol\":376:383  uint256 */\n          0x00\n            /* \"Loteria/SafeMath.sol\":406:407  a */\n          dup3\n            /* \"Loteria/SafeMath.sol\":401:402  b */\n          dup3\n            /* \"Loteria/SafeMath.sol\":401:407  b <= a */\n          gt\n          iszero\n            /* \"Loteria/SafeMath.sol\":394:408  assert(b <= a) */\n          tag_89\n          jumpi\n          invalid\n        tag_89:\n            /* \"Loteria/SafeMath.sol\":428:429  b */\n          dup2\n            /* \"Loteria/SafeMath.sol\":424:425  a */\n          dup4\n            /* \"Loteria/SafeMath.sol\":424:429  a - b */\n          sub\n            /* \"Loteria/SafeMath.sol\":417:429  return a - b */\n          swap1\n          pop\n            /* \"Loteria/SafeMath.sol\":318:437  function sub(uint256 a, uint256 b) internal pure returns (uint256) {\r... */\n          swap3\n          swap2\n          pop\n          pop\n          jump\t// out\n            /* \"Loteria/SafeMath.sol\":463:604  function add(uint256 a, uint256 b) internal pure returns (uint256) {\r... */\n        tag_74:\n            /* \"Loteria/SafeMath.sol\":521:528  uint256 */\n          0x00\n            /* \"Loteria/SafeMath.sol\":539:548  uint256 c */\n          dup1\n            /* \"Loteria/SafeMath.sol\":555:556  b */\n          dup3\n            /* \"Loteria/SafeMath.sol\":551:552  a */\n          dup5\n            /* \"Loteria/SafeMath.sol\":551:556  a + b */\n          add\n            /* \"Loteria/SafeMath.sol\":539:556  uint256 c = a + b */\n          swap1\n          pop\n            /* \"Loteria/SafeMath.sol\":577:578  a */\n          dup4\n            /* \"Loteria/SafeMath.sol\":572:573  c */\n          dup2\n            /* \"Loteria/SafeMath.sol\":572:578  c >= a */\n          lt\n          iszero\n            /* \"Loteria/SafeMath.sol\":565:579  assert(c >= a) */\n          tag_91\n          jumpi\n          invalid\n        tag_91:\n            /* \"Loteria/SafeMath.sol\":595:596  c */\n          dup1\n            /* \"Loteria/SafeMath.sol\":588:596  return c */\n          swap2\n          pop\n          pop\n            /* \"Loteria/SafeMath.sol\":463:604  function add(uint256 a, uint256 b) internal pure returns (uint256) {\r... */\n          swap3\n          swap2\n          pop\n          pop\n          jump\t// out\n            /* \"--CODEGEN--\":5:135   */\n        tag_93:\n          0x00\n            /* \"--CODEGEN--\":85:91   */\n          dup2\n            /* \"--CODEGEN--\":72:92   */\n          calldataload\n            /* \"--CODEGEN--\":63:92   */\n          swap1\n          pop\n            /* \"--CODEGEN--\":97:130   */\n          tag_95\n            /* \"--CODEGEN--\":124:129   */\n          dup2\n            /* \"--CODEGEN--\":97:130   */\n          tag_96\n          jump\t// in\n        tag_95:\n            /* \"--CODEGEN--\":57:135   */\n          swap3\n          swap2\n          pop\n          pop\n          jump\t// out\n            /* \"--CODEGEN--\":142:272   */\n        tag_97:\n          0x00\n            /* \"--CODEGEN--\":222:228   */\n          dup2\n            /* \"--CODEGEN--\":209:229   */\n          calldataload\n            /* \"--CODEGEN--\":200:229   */\n          swap1\n          pop\n            /* \"--CODEGEN--\":234:267   */\n          tag_99\n            /* \"--CODEGEN--\":261:266   */\n          dup2\n            /* \"--CODEGEN--\":234:267   */\n          tag_100\n          jump\t// in\n        tag_99:\n            /* \"--CODEGEN--\":194:272   */\n          swap3\n          swap2\n          pop\n          pop\n          jump\t// out\n            /* \"--CODEGEN--\":279:520   */\n        tag_48:\n          0x00\n            /* \"--CODEGEN--\":383:385   */\n          0x20\n            /* \"--CODEGEN--\":371:380   */\n          dup3\n            /* \"--CODEGEN--\":362:369   */\n          dup5\n            /* \"--CODEGEN--\":358:381   */\n          sub\n            /* \"--CODEGEN--\":354:386   */\n          slt\n            /* \"--CODEGEN--\":351:353   */\n          iszero\n          tag_102\n          jumpi\n            /* \"--CODEGEN--\":399:400   */\n          0x00\n            /* \"--CODEGEN--\":396:397   */\n          dup1\n            /* \"--CODEGEN--\":389:401   */\n          revert\n            /* \"--CODEGEN--\":351:353   */\n        tag_102:\n            /* \"--CODEGEN--\":434:435   */\n          0x00\n            /* \"--CODEGEN--\":451:504   */\n          tag_103\n            /* \"--CODEGEN--\":496:503   */\n          dup5\n            /* \"--CODEGEN--\":487:493   */\n          dup3\n            /* \"--CODEGEN--\":476:485   */\n          dup6\n            /* \"--CODEGEN--\":472:494   */\n          add\n            /* \"--CODEGEN--\":451:504   */\n          tag_93\n          jump\t// in\n        tag_103:\n            /* \"--CODEGEN--\":441:504   */\n          swap2\n          pop\n            /* \"--CODEGEN--\":413:510   */\n          pop\n            /* \"--CODEGEN--\":345:520   */\n          swap3\n          swap2\n          pop\n          pop\n          jump\t// out\n            /* \"--CODEGEN--\":527:893   */\n        tag_60:\n          0x00\n          dup1\n            /* \"--CODEGEN--\":648:650   */\n          0x40\n            /* \"--CODEGEN--\":636:645   */\n          dup4\n            /* \"--CODEGEN--\":627:634   */\n          dup6\n            /* \"--CODEGEN--\":623:646   */\n          sub\n            /* \"--CODEGEN--\":619:651   */\n          slt\n            /* \"--CODEGEN--\":616:618   */\n          iszero\n          tag_105\n          jumpi\n            /* \"--CODEGEN--\":664:665   */\n          0x00\n            /* \"--CODEGEN--\":661:662   */\n          dup1\n            /* \"--CODEGEN--\":654:666   */\n          revert\n            /* \"--CODEGEN--\":616:618   */\n        tag_105:\n            /* \"--CODEGEN--\":699:700   */\n          0x00\n            /* \"--CODEGEN--\":716:769   */\n          tag_106\n            /* \"--CODEGEN--\":761:768   */\n          dup6\n            /* \"--CODEGEN--\":752:758   */\n          dup3\n            /* \"--CODEGEN--\":741:750   */\n          dup7\n            /* \"--CODEGEN--\":737:759   */\n          add\n            /* \"--CODEGEN--\":716:769   */\n          tag_93\n          jump\t// in\n        tag_106:\n            /* \"--CODEGEN--\":706:769   */\n          swap3\n          pop\n            /* \"--CODEGEN--\":678:775   */\n          pop\n            /* \"--CODEGEN--\":806:808   */\n          0x20\n            /* \"--CODEGEN--\":824:877   */\n          tag_107\n            /* \"--CODEGEN--\":869:876   */\n          dup6\n            /* \"--CODEGEN--\":860:866   */\n          dup3\n            /* \"--CODEGEN--\":849:858   */\n          dup7\n            /* \"--CODEGEN--\":845:867   */\n          add\n            /* \"--CODEGEN--\":824:877   */\n          tag_93\n          jump\t// in\n        tag_107:\n            /* \"--CODEGEN--\":814:877   */\n          swap2\n          pop\n            /* \"--CODEGEN--\":785:883   */\n          pop\n            /* \"--CODEGEN--\":610:893   */\n          swap3\n          pop\n          swap3\n          swap1\n          pop\n          jump\t// out\n            /* \"--CODEGEN--\":900:1391   */\n        tag_35:\n          0x00\n          dup1\n          0x00\n            /* \"--CODEGEN--\":1038:1040   */\n          0x60\n            /* \"--CODEGEN--\":1026:1035   */\n          dup5\n            /* \"--CODEGEN--\":1017:1024   */\n          dup7\n            /* \"--CODEGEN--\":1013:1036   */\n          sub\n            /* \"--CODEGEN--\":1009:1041   */\n          slt\n            /* \"--CODEGEN--\":1006:1008   */\n          iszero\n          tag_109\n          jumpi\n            /* \"--CODEGEN--\":1054:1055   */\n          0x00\n            /* \"--CODEGEN--\":1051:1052   */\n          dup1\n            /* \"--CODEGEN--\":1044:1056   */\n          revert\n            /* \"--CODEGEN--\":1006:1008   */\n        tag_109:\n            /* \"--CODEGEN--\":1089:1090   */\n          0x00\n            /* \"--CODEGEN--\":1106:1159   */\n          tag_110\n            /* \"--CODEGEN--\":1151:1158   */\n          dup7\n            /* \"--CODEGEN--\":1142:1148   */\n          dup3\n            /* \"--CODEGEN--\":1131:1140   */\n          dup8\n            /* \"--CODEGEN--\":1127:1149   */\n          add\n            /* \"--CODEGEN--\":1106:1159   */\n          tag_93\n          jump\t// in\n        tag_110:\n            /* \"--CODEGEN--\":1096:1159   */\n          swap4\n          pop\n            /* \"--CODEGEN--\":1068:1165   */\n          pop\n            /* \"--CODEGEN--\":1196:1198   */\n          0x20\n            /* \"--CODEGEN--\":1214:1267   */\n          tag_111\n            /* \"--CODEGEN--\":1259:1266   */\n          dup7\n            /* \"--CODEGEN--\":1250:1256   */\n          dup3\n            /* \"--CODEGEN--\":1239:1248   */\n          dup8\n            /* \"--CODEGEN--\":1235:1257   */\n          add\n            /* \"--CODEGEN--\":1214:1267   */\n          tag_93\n          jump\t// in\n        tag_111:\n            /* \"--CODEGEN--\":1204:1267   */\n          swap3\n          pop\n            /* \"--CODEGEN--\":1175:1273   */\n          pop\n            /* \"--CODEGEN--\":1304:1306   */\n          0x40\n            /* \"--CODEGEN--\":1322:1375   */\n          tag_112\n            /* \"--CODEGEN--\":1367:1374   */\n          dup7\n            /* \"--CODEGEN--\":1358:1364   */\n          dup3\n            /* \"--CODEGEN--\":1347:1356   */\n          dup8\n            /* \"--CODEGEN--\":1343:1365   */\n          add\n            /* \"--CODEGEN--\":1322:1375   */\n          tag_97\n          jump\t// in\n        tag_112:\n            /* \"--CODEGEN--\":1312:1375   */\n          swap2\n          pop\n            /* \"--CODEGEN--\":1283:1381   */\n          pop\n            /* \"--CODEGEN--\":1000:1391   */\n          swap3\n          pop\n          swap3\n          pop\n          swap3\n          jump\t// out\n            /* \"--CODEGEN--\":1398:1764   */\n        tag_21:\n          0x00\n          dup1\n            /* \"--CODEGEN--\":1519:1521   */\n          0x40\n            /* \"--CODEGEN--\":1507:1516   */\n          dup4\n            /* \"--CODEGEN--\":1498:1505   */\n          dup6\n            /* \"--CODEGEN--\":1494:1517   */\n          sub\n            /* \"--CODEGEN--\":1490:1522   */\n          slt\n            /* \"--CODEGEN--\":1487:1489   */\n          iszero\n          tag_114\n          jumpi\n            /* \"--CODEGEN--\":1535:1536   */\n          0x00\n            /* \"--CODEGEN--\":1532:1533   */\n          dup1\n            /* \"--CODEGEN--\":1525:1537   */\n          revert\n            /* \"--CODEGEN--\":1487:1489   */\n        tag_114:\n            /* \"--CODEGEN--\":1570:1571   */\n          0x00\n            /* \"--CODEGEN--\":1587:1640   */\n          tag_115\n            /* \"--CODEGEN--\":1632:1639   */\n          dup6\n            /* \"--CODEGEN--\":1623:1629   */\n          dup3\n            /* \"--CODEGEN--\":1612:1621   */\n          dup7\n            /* \"--CODEGEN--\":1608:1630   */\n          add\n            /* \"--CODEGEN--\":1587:1640   */\n          tag_93\n          jump\t// in\n        tag_115:\n            /* \"--CODEGEN--\":1577:1640   */\n          swap3\n          pop\n            /* \"--CODEGEN--\":1549:1646   */\n          pop\n            /* \"--CODEGEN--\":1677:1679   */\n          0x20\n            /* \"--CODEGEN--\":1695:1748   */\n          tag_116\n            /* \"--CODEGEN--\":1740:1747   */\n          dup6\n            /* \"--CODEGEN--\":1731:1737   */\n          dup3\n            /* \"--CODEGEN--\":1720:1729   */\n          dup7\n            /* \"--CODEGEN--\":1716:1738   */\n          add\n            /* \"--CODEGEN--\":1695:1748   */\n          tag_97\n          jump\t// in\n        tag_116:\n            /* \"--CODEGEN--\":1685:1748   */\n          swap2\n          pop\n            /* \"--CODEGEN--\":1656:1754   */\n          pop\n            /* \"--CODEGEN--\":1481:1764   */\n          swap3\n          pop\n          swap3\n          swap1\n          pop\n          jump\t// out\n            /* \"--CODEGEN--\":1771:2012   */\n        tag_31:\n          0x00\n            /* \"--CODEGEN--\":1875:1877   */\n          0x20\n            /* \"--CODEGEN--\":1863:1872   */\n          dup3\n            /* \"--CODEGEN--\":1854:1861   */\n          dup5\n            /* \"--CODEGEN--\":1850:1873   */\n          sub\n            /* \"--CODEGEN--\":1846:1878   */\n          slt\n            /* \"--CODEGEN--\":1843:1845   */\n          iszero\n          tag_118\n          jumpi\n            /* \"--CODEGEN--\":1891:1892   */\n          0x00\n            /* \"--CODEGEN--\":1888:1889   */\n          dup1\n            /* \"--CODEGEN--\":1881:1893   */\n          revert\n            /* \"--CODEGEN--\":1843:1845   */\n        tag_118:\n            /* \"--CODEGEN--\":1926:1927   */\n          0x00\n            /* \"--CODEGEN--\":1943:1996   */\n          tag_119\n            /* \"--CODEGEN--\":1988:1995   */\n          dup5\n            /* \"--CODEGEN--\":1979:1985   */\n          dup3\n            /* \"--CODEGEN--\":1968:1977   */\n          dup6\n            /* \"--CODEGEN--\":1964:1986   */\n          add\n            /* \"--CODEGEN--\":1943:1996   */\n          tag_97\n          jump\t// in\n        tag_119:\n            /* \"--CODEGEN--\":1933:1996   */\n          swap2\n          pop\n            /* \"--CODEGEN--\":1905:2002   */\n          pop\n            /* \"--CODEGEN--\":1837:2012   */\n          swap3\n          swap2\n          pop\n          pop\n          jump\t// out\n            /* \"--CODEGEN--\":2019:2123   */\n        tag_120:\n            /* \"--CODEGEN--\":2096:2117   */\n          tag_122\n            /* \"--CODEGEN--\":2111:2116   */\n          dup2\n            /* \"--CODEGEN--\":2096:2117   */\n          tag_123\n          jump\t// in\n        tag_122:\n            /* \"--CODEGEN--\":2091:2094   */\n          dup3\n            /* \"--CODEGEN--\":2084:2118   */\n          mstore\n            /* \"--CODEGEN--\":2078:2123   */\n          pop\n          pop\n          jump\t// out\n            /* \"--CODEGEN--\":2130:2477   */\n        tag_124:\n          0x00\n            /* \"--CODEGEN--\":2242:2281   */\n          tag_126\n            /* \"--CODEGEN--\":2275:2280   */\n          dup3\n            /* \"--CODEGEN--\":2242:2281   */\n          tag_127\n          jump\t// in\n        tag_126:\n            /* \"--CODEGEN--\":2293:2364   */\n          tag_128\n            /* \"--CODEGEN--\":2357:2363   */\n          dup2\n            /* \"--CODEGEN--\":2352:2355   */\n          dup6\n            /* \"--CODEGEN--\":2293:2364   */\n          tag_129\n          jump\t// in\n        tag_128:\n            /* \"--CODEGEN--\":2286:2364   */\n          swap4\n          pop\n            /* \"--CODEGEN--\":2369:2421   */\n          tag_130\n            /* \"--CODEGEN--\":2414:2420   */\n          dup2\n            /* \"--CODEGEN--\":2409:2412   */\n          dup6\n            /* \"--CODEGEN--\":2402:2406   */\n          0x20\n            /* \"--CODEGEN--\":2395:2400   */\n          dup7\n            /* \"--CODEGEN--\":2391:2407   */\n          add\n            /* \"--CODEGEN--\":2369:2421   */\n          tag_131\n          jump\t// in\n        tag_130:\n            /* \"--CODEGEN--\":2442:2471   */\n          tag_132\n            /* \"--CODEGEN--\":2464:2470   */\n          dup2\n            /* \"--CODEGEN--\":2442:2471   */\n          tag_133\n          jump\t// in\n        tag_132:\n            /* \"--CODEGEN--\":2437:2440   */\n          dup5\n            /* \"--CODEGEN--\":2433:2472   */\n          add\n            /* \"--CODEGEN--\":2426:2472   */\n          swap2\n          pop\n            /* \"--CODEGEN--\":2222:2477   */\n          pop\n          swap3\n          swap2\n          pop\n          pop\n          jump\t// out\n            /* \"--CODEGEN--\":2484:2597   */\n        tag_134:\n            /* \"--CODEGEN--\":2567:2591   */\n          tag_136\n            /* \"--CODEGEN--\":2585:2590   */\n          dup2\n            /* \"--CODEGEN--\":2567:2591   */\n          tag_137\n          jump\t// in\n        tag_136:\n            /* \"--CODEGEN--\":2562:2565   */\n          dup3\n            /* \"--CODEGEN--\":2555:2592   */\n          mstore\n            /* \"--CODEGEN--\":2549:2597   */\n          pop\n          pop\n          jump\t// out\n            /* \"--CODEGEN--\":2604:2711   */\n        tag_138:\n            /* \"--CODEGEN--\":2683:2705   */\n          tag_140\n            /* \"--CODEGEN--\":2699:2704   */\n          dup2\n            /* \"--CODEGEN--\":2683:2705   */\n          tag_141\n          jump\t// in\n        tag_140:\n            /* \"--CODEGEN--\":2678:2681   */\n          dup3\n            /* \"--CODEGEN--\":2671:2706   */\n          mstore\n            /* \"--CODEGEN--\":2665:2711   */\n          pop\n          pop\n          jump\t// out\n            /* \"--CODEGEN--\":2718:2928   */\n        tag_24:\n          0x00\n            /* \"--CODEGEN--\":2839:2841   */\n          0x20\n            /* \"--CODEGEN--\":2828:2837   */\n          dup3\n            /* \"--CODEGEN--\":2824:2842   */\n          add\n            /* \"--CODEGEN--\":2816:2842   */\n          swap1\n          pop\n            /* \"--CODEGEN--\":2853:2918   */\n          tag_143\n            /* \"--CODEGEN--\":2915:2916   */\n          0x00\n            /* \"--CODEGEN--\":2904:2913   */\n          dup4\n            /* \"--CODEGEN--\":2900:2917   */\n          add\n            /* \"--CODEGEN--\":2891:2897   */\n          dup5\n            /* \"--CODEGEN--\":2853:2918   */\n          tag_120\n          jump\t// in\n        tag_143:\n            /* \"--CODEGEN--\":2810:2928   */\n          swap3\n          swap2\n          pop\n          pop\n          jump\t// out\n            /* \"--CODEGEN--\":2935:3245   */\n        tag_18:\n          0x00\n            /* \"--CODEGEN--\":3082:3084   */\n          0x20\n            /* \"--CODEGEN--\":3071:3080   */\n          dup3\n            /* \"--CODEGEN--\":3067:3085   */\n          add\n            /* \"--CODEGEN--\":3059:3085   */\n          swap1\n          pop\n            /* \"--CODEGEN--\":3132:3141   */\n          dup2\n            /* \"--CODEGEN--\":3126:3130   */\n          dup2\n            /* \"--CODEGEN--\":3122:3142   */\n          sub\n            /* \"--CODEGEN--\":3118:3119   */\n          0x00\n            /* \"--CODEGEN--\":3107:3116   */\n          dup4\n            /* \"--CODEGEN--\":3103:3120   */\n          add\n            /* \"--CODEGEN--\":3096:3143   */\n          mstore\n            /* \"--CODEGEN--\":3157:3235   */\n          tag_145\n            /* \"--CODEGEN--\":3230:3234   */\n          dup2\n            /* \"--CODEGEN--\":3221:3227   */\n          dup5\n            /* \"--CODEGEN--\":3157:3235   */\n          tag_124\n          jump\t// in\n        tag_145:\n            /* \"--CODEGEN--\":3149:3235   */\n          swap1\n          pop\n            /* \"--CODEGEN--\":3053:3245   */\n          swap3\n          swap2\n          pop\n          pop\n          jump\t// out\n            /* \"--CODEGEN--\":3252:3474   */\n        tag_28:\n          0x00\n            /* \"--CODEGEN--\":3379:3381   */\n          0x20\n            /* \"--CODEGEN--\":3368:3377   */\n          dup3\n            /* \"--CODEGEN--\":3364:3382   */\n          add\n            /* \"--CODEGEN--\":3356:3382   */\n          swap1\n          pop\n            /* \"--CODEGEN--\":3393:3464   */\n          tag_147\n            /* \"--CODEGEN--\":3461:3462   */\n          0x00\n            /* \"--CODEGEN--\":3450:3459   */\n          dup4\n            /* \"--CODEGEN--\":3446:3463   */\n          add\n            /* \"--CODEGEN--\":3437:3443   */\n          dup5\n            /* \"--CODEGEN--\":3393:3464   */\n          tag_134\n          jump\t// in\n        tag_147:\n            /* \"--CODEGEN--\":3350:3474   */\n          swap3\n          swap2\n          pop\n          pop\n          jump\t// out\n            /* \"--CODEGEN--\":3481:3695   */\n        tag_41:\n          0x00\n            /* \"--CODEGEN--\":3604:3606   */\n          0x20\n            /* \"--CODEGEN--\":3593:3602   */\n          dup3\n            /* \"--CODEGEN--\":3589:3607   */\n          add\n            /* \"--CODEGEN--\":3581:3607   */\n          swap1\n          pop\n            /* \"--CODEGEN--\":3618:3685   */\n          tag_149\n            /* \"--CODEGEN--\":3682:3683   */\n          0x00\n            /* \"--CODEGEN--\":3671:3680   */\n          dup4\n            /* \"--CODEGEN--\":3667:3684   */\n          add\n            /* \"--CODEGEN--\":3658:3664   */\n          dup5\n            /* \"--CODEGEN--\":3618:3685   */\n          tag_138\n          jump\t// in\n        tag_149:\n            /* \"--CODEGEN--\":3575:3695   */\n          swap3\n          swap2\n          pop\n          pop\n          jump\t// out\n            /* \"--CODEGEN--\":3702:3824   */\n        tag_127:\n          0x00\n            /* \"--CODEGEN--\":3796:3801   */\n          dup2\n            /* \"--CODEGEN--\":3790:3802   */\n          mload\n            /* \"--CODEGEN--\":3780:3802   */\n          swap1\n          pop\n            /* \"--CODEGEN--\":3761:3824   */\n          swap2\n          swap1\n          pop\n          jump\t// out\n            /* \"--CODEGEN--\":3832:3995   */\n        tag_129:\n          0x00\n            /* \"--CODEGEN--\":3947:3953   */\n          dup3\n            /* \"--CODEGEN--\":3942:3945   */\n          dup3\n            /* \"--CODEGEN--\":3935:3954   */\n          mstore\n            /* \"--CODEGEN--\":3984:3988   */\n          0x20\n            /* \"--CODEGEN--\":3979:3982   */\n          dup3\n            /* \"--CODEGEN--\":3975:3989   */\n          add\n            /* \"--CODEGEN--\":3960:3989   */\n          swap1\n          pop\n            /* \"--CODEGEN--\":3928:3995   */\n          swap3\n          swap2\n          pop\n          pop\n          jump\t// out\n            /* \"--CODEGEN--\":4003:4094   */\n        tag_152:\n          0x00\n            /* \"--CODEGEN--\":4065:4089   */\n          tag_154\n            /* \"--CODEGEN--\":4083:4088   */\n          dup3\n            /* \"--CODEGEN--\":4065:4089   */\n          tag_155\n          jump\t// in\n        tag_154:\n            /* \"--CODEGEN--\":4054:4089   */\n          swap1\n          pop\n            /* \"--CODEGEN--\":4048:4094   */\n          swap2\n          swap1\n          pop\n          jump\t// out\n            /* \"--CODEGEN--\":4101:4186   */\n        tag_123:\n          0x00\n            /* \"--CODEGEN--\":4174:4179   */\n          dup2\n            /* \"--CODEGEN--\":4167:4180   */\n          iszero\n            /* \"--CODEGEN--\":4160:4181   */\n          iszero\n            /* \"--CODEGEN--\":4149:4181   */\n          swap1\n          pop\n            /* \"--CODEGEN--\":4143:4186   */\n          swap2\n          swap1\n          pop\n          jump\t// out\n            /* \"--CODEGEN--\":4193:4314   */\n        tag_155:\n          0x00\n            /* \"--CODEGEN--\":4266:4308   */\n          0xffffffffffffffffffffffffffffffffffffffff\n            /* \"--CODEGEN--\":4259:4264   */\n          dup3\n            /* \"--CODEGEN--\":4255:4309   */\n          and\n            /* \"--CODEGEN--\":4244:4309   */\n          swap1\n          pop\n            /* \"--CODEGEN--\":4238:4314   */\n          swap2\n          swap1\n          pop\n          jump\t// out\n            /* \"--CODEGEN--\":4321:4393   */\n        tag_137:\n          0x00\n            /* \"--CODEGEN--\":4383:4388   */\n          dup2\n            /* \"--CODEGEN--\":4372:4388   */\n          swap1\n          pop\n            /* \"--CODEGEN--\":4366:4393   */\n          swap2\n          swap1\n          pop\n          jump\t// out\n            /* \"--CODEGEN--\":4400:4481   */\n        tag_141:\n          0x00\n            /* \"--CODEGEN--\":4471:4475   */\n          0xff\n            /* \"--CODEGEN--\":4464:4469   */\n          dup3\n            /* \"--CODEGEN--\":4460:4476   */\n          and\n            /* \"--CODEGEN--\":4449:4476   */\n          swap1\n          pop\n            /* \"--CODEGEN--\":4443:4481   */\n          swap2\n          swap1\n          pop\n          jump\t// out\n            /* \"--CODEGEN--\":4489:4757   */\n        tag_131:\n            /* \"--CODEGEN--\":4554:4555   */\n          0x00\n            /* \"--CODEGEN--\":4561:4662   */\n        tag_161:\n            /* \"--CODEGEN--\":4575:4581   */\n          dup4\n            /* \"--CODEGEN--\":4572:4573   */\n          dup2\n            /* \"--CODEGEN--\":4569:4582   */\n          lt\n            /* \"--CODEGEN--\":4561:4662   */\n          iszero\n          tag_163\n          jumpi\n            /* \"--CODEGEN--\":4651:4652   */\n          dup1\n            /* \"--CODEGEN--\":4646:4649   */\n          dup3\n            /* \"--CODEGEN--\":4642:4653   */\n          add\n            /* \"--CODEGEN--\":4636:4654   */\n          mload\n            /* \"--CODEGEN--\":4632:4633   */\n          dup2\n            /* \"--CODEGEN--\":4627:4630   */\n          dup5\n            /* \"--CODEGEN--\":4623:4634   */\n          add\n            /* \"--CODEGEN--\":4616:4655   */\n          mstore\n            /* \"--CODEGEN--\":4597:4599   */\n          0x20\n            /* \"--CODEGEN--\":4594:4595   */\n          dup2\n            /* \"--CODEGEN--\":4590:4600   */\n          add\n            /* \"--CODEGEN--\":4585:4600   */\n          swap1\n          pop\n            /* \"--CODEGEN--\":4561:4662   */\n          jump(tag_161)\n        tag_163:\n            /* \"--CODEGEN--\":4677:4683   */\n          dup4\n            /* \"--CODEGEN--\":4674:4675   */\n          dup2\n            /* \"--CODEGEN--\":4671:4684   */\n          gt\n            /* \"--CODEGEN--\":4668:4670   */\n          iszero\n          tag_164\n          jumpi\n            /* \"--CODEGEN--\":4742:4743   */\n          0x00\n            /* \"--CODEGEN--\":4733:4739   */\n          dup5\n            /* \"--CODEGEN--\":4728:4731   */\n          dup5\n            /* \"--CODEGEN--\":4724:4740   */\n          add\n            /* \"--CODEGEN--\":4717:4744   */\n          mstore\n            /* \"--CODEGEN--\":4668:4670   */\n        tag_164:\n            /* \"--CODEGEN--\":4538:4757   */\n          pop\n          pop\n          pop\n          pop\n          jump\t// out\n            /* \"--CODEGEN--\":4765:4862   */\n        tag_133:\n          0x00\n            /* \"--CODEGEN--\":4853:4855   */\n          0x1f\n            /* \"--CODEGEN--\":4849:4856   */\n          not\n            /* \"--CODEGEN--\":4844:4846   */\n          0x1f\n            /* \"--CODEGEN--\":4837:4842   */\n          dup4\n            /* \"--CODEGEN--\":4833:4847   */\n          add\n            /* \"--CODEGEN--\":4829:4857   */\n          and\n            /* \"--CODEGEN--\":4819:4857   */\n          swap1\n          pop\n            /* \"--CODEGEN--\":4813:4862   */\n          swap2\n          swap1\n          pop\n          jump\t// out\n            /* \"--CODEGEN--\":4870:4987   */\n        tag_96:\n            /* \"--CODEGEN--\":4939:4963   */\n          tag_167\n            /* \"--CODEGEN--\":4957:4962   */\n          dup2\n            /* \"--CODEGEN--\":4939:4963   */\n          tag_152\n          jump\t// in\n        tag_167:\n            /* \"--CODEGEN--\":4932:4937   */\n          dup2\n            /* \"--CODEGEN--\":4929:4964   */\n          eq\n            /* \"--CODEGEN--\":4919:4921   */\n          tag_168\n          jumpi\n            /* \"--CODEGEN--\":4978:4979   */\n          0x00\n            /* \"--CODEGEN--\":4975:4976   */\n          dup1\n            /* \"--CODEGEN--\":4968:4980   */\n          revert\n            /* \"--CODEGEN--\":4919:4921   */\n        tag_168:\n            /* \"--CODEGEN--\":4913:4987   */\n          pop\n          jump\t// out\n            /* \"--CODEGEN--\":4994:5111   */\n        tag_100:\n            /* \"--CODEGEN--\":5063:5087   */\n          tag_170\n            /* \"--CODEGEN--\":5081:5086   */\n          dup2\n            /* \"--CODEGEN--\":5063:5087   */\n          tag_137\n          jump\t// in\n        tag_170:\n            /* \"--CODEGEN--\":5056:5061   */\n          dup2\n            /* \"--CODEGEN--\":5053:5088   */\n          eq\n            /* \"--CODEGEN--\":5043:5045   */\n          tag_171\n          jumpi\n            /* \"--CODEGEN--\":5102:5103   */\n          0x00\n            /* \"--CODEGEN--\":5099:5100   */\n          dup1\n            /* \"--CODEGEN--\":5092:5104   */\n          revert\n            /* \"--CODEGEN--\":5043:5045   */\n        tag_171:\n            /* \"--CODEGEN--\":5037:5111   */\n          pop\n          jump\t// out\n\n        auxdata: 0xa264697066735822122041924e75c6a689f4e76b488c772248149581615c89d36359b2203d117f5c45a064736f6c634300060c0033\n    }\n}\n",
				"bytecode": {
					"linkReferences": {},
					"object": "60806040526005600355600060065534801561001a57600080fd5b5061271060405161002a90610117565b6100349190610133565b604051809103906000f080158015610050573d6000803e3d6000fd5b506000806101000a81548173ffffffffffffffffffffffffffffffffffffffff021916908373ffffffffffffffffffffffffffffffffffffffff16021790555033600160006101000a81548173ffffffffffffffffffffffffffffffffffffffff021916908373ffffffffffffffffffffffffffffffffffffffff16021790555030600260006101000a81548173ffffffffffffffffffffffffffffffffffffffff021916908373ffffffffffffffffffffffffffffffffffffffff16021790555061016a565b61109d8061105483390190565b61012d81610158565b82525050565b60006020820190506101486000830184610124565b92915050565b6000819050919050565b60006101638261014e565b9050919050565b610edb806101796000396000f3fe6080604052600436106100865760003560e01c80638da5cb5b116100595780638da5cb5b14610133578063e1a01e671461015e578063e33f34a014610189578063f7774091146101b4578063fd889ff5146101d057610086565b80631246f6e21461008b57806327909f27146100b457806374189861146100df5780637cd15f441461010a575b600080fd5b34801561009757600080fd5b506100b260048036038101906100ad9190610a31565b6101fb565b005b3480156100c057600080fd5b506100c961031b565b6040516100d69190610d57565b60405180910390f35b3480156100eb57600080fd5b506100f4610321565b6040516101019190610d57565b60405180910390f35b34801561011657600080fd5b50610131600480360381019061012c9190610a31565b6103f4565b005b34801561013f57600080fd5b50610148610576565b6040516101559190610c41565b60405180910390f35b34801561016a57600080fd5b5061017361059c565b6040516101809190610c41565b60405180910390f35b34801561019557600080fd5b5061019e6105c2565b6040516101ab9190610d57565b60405180910390f35b6101ce60048036038101906101c99190610a31565b610673565b005b3480156101dc57600080fd5b506101e5610904565b6040516101f29190610d57565b60405180910390f35b33600160009054906101000a900473ffffffffffffffffffffffffffffffffffffffff1673ffffffffffffffffffffffffffffffffffffffff168173ffffffffffffffffffffffffffffffffffffffff161461028c576040517f08c379a000000000000000000000000000000000000000000000000000000000815260040161028390610cf7565b60405180910390fd5b60008054906101000a900473ffffffffffffffffffffffffffffffffffffffff1673ffffffffffffffffffffffffffffffffffffffff16631d43cc98836040518263ffffffff1660e01b81526004016102e59190610d57565b600060405180830381600087803b1580156102ff57600080fd5b505af1158015610313573d6000803e3d6000fd5b505050505050565b60035481565b60008060009054906101000a900473ffffffffffffffffffffffffffffffffffffffff1673ffffffffffffffffffffffffffffffffffffffff166370a08231600160009054906101000a900473ffffffffffffffffffffffffffffffffffffffff166040518263ffffffff1660e01b815260040161039f9190610c41565b60206040518083038186803b1580156103b757600080fd5b505afa1580156103cb573d6000803e3d6000fd5b505050506040513d601f19601f820116820180604052508101906103ef9190610a5a565b905090565b6000600354820290506104056105c2565b811115610447576040517f08c379a000000000000000000000000000000000000000000000000000000000815260040161043e90610cd7565b60405180910390fd5b60008054906101000a900473ffffffffffffffffffffffffffffffffffffffff1673ffffffffffffffffffffffffffffffffffffffff16635c79febb33600160009054906101000a900473ffffffffffffffffffffffffffffffffffffffff16846040518463ffffffff1660e01b81526004016104c693929190610c77565b602060405180830381600087803b1580156104e057600080fd5b505af11580156104f4573d6000803e3d6000fd5b505050506040513d601f19601f820116820180604052508101906105189190610a08565b5060005b82811015610571576000612710423360065460405160200161054093929190610c04565b6040516020818303038152906040528051906020012060001c8161056057fe5b06905050808060010191505061051c565b505050565b600160009054906101000a900473ffffffffffffffffffffffffffffffffffffffff1681565b600260009054906101000a900473ffffffffffffffffffffffffffffffffffffffff1681565b60008060009054906101000a900473ffffffffffffffffffffffffffffffffffffffff1673ffffffffffffffffffffffffffffffffffffffff166370a08231336040518263ffffffff1660e01b815260040161061e9190610c5c565b60206040518083038186803b15801561063657600080fd5b505afa15801561064a573d6000803e3d6000fd5b505050506040513d601f19601f8201168201806040525081019061066e9190610a5a565b905090565b600061067e826109b5565b9050803410156106c3576040517f08c379a00000000000000000000000000000000000000000000000000000000081526004016106ba90610d17565b60405180910390fd5b60008054906101000a900473ffffffffffffffffffffffffffffffffffffffff1673ffffffffffffffffffffffffffffffffffffffff166370a08231600260009054906101000a900473ffffffffffffffffffffffffffffffffffffffff166040518263ffffffff1660e01b815260040161073e9190610c41565b60206040518083038186803b15801561075657600080fd5b505afa15801561076a573d6000803e3d6000fd5b505050506040513d601f19601f8201168201806040525081019061078e9190610a5a565b8211156107d0576040517f08c379a00000000000000000000000000000000000000000000000000000000081526004016107c790610d37565b60405180910390fd5b3373ffffffffffffffffffffffffffffffffffffffff166108fc8234039081150290604051600060405180830381858888f19350505050158015610818573d6000803e3d6000fd5b5060008054906101000a900473ffffffffffffffffffffffffffffffffffffffff1673ffffffffffffffffffffffffffffffffffffffff1663a9059cbb33846040518363ffffffff1660e01b8152600401610874929190610cae565b602060405180830381600087803b15801561088e57600080fd5b505af11580156108a2573d6000803e3d6000fd5b505050506040513d601f19601f820116820180604052508101906108c69190610a08565b507f1912293d843fe20a997ecedfe6ab8b44b26fc0ed0d7d2e152158ffd021c9ace382336040516108f8929190610d72565b60405180910390a15050565b60008060009054906101000a900473ffffffffffffffffffffffffffffffffffffffff1673ffffffffffffffffffffffffffffffffffffffff166370a08231306040518263ffffffff1660e01b81526004016109609190610c41565b60206040518083038186803b15801561097857600080fd5b505afa15801561098c573d6000803e3d6000fd5b505050506040513d601f19601f820116820180604052508101906109b09190610a5a565b905090565b6000670de0b6b3a764000082029050919050565b6000815190506109d881610e77565b92915050565b6000813590506109ed81610e8e565b92915050565b600081519050610a0281610e8e565b92915050565b600060208284031215610a1a57600080fd5b6000610a28848285016109c9565b91505092915050565b600060208284031215610a4357600080fd5b6000610a51848285016109de565b91505092915050565b600060208284031215610a6c57600080fd5b6000610a7a848285016109f3565b91505092915050565b610a8c81610e06565b82525050565b610aa3610a9e82610dbe565b610e3c565b82525050565b610ab281610dac565b82525050565b6000610ac5601f83610d9b565b91507f43616e746964616420646520746f6b656e7320696e737566696369656e7465006000830152602082019050919050565b6000610b05602d83610d9b565b91507f4e6f207469656e6573207065726d69736f73207061726120656a65637574617260008301527f20657374612066756e63696f6e000000000000000000000000000000000000006020830152604082019050919050565b6000610b6b601e83610d9b565b91507f43616e746964616420646520657468657220696e737566696369656e746500006000830152602082019050919050565b6000610bab602083610d9b565b91507f43616e746964616420646520746f6b656e7320696e737566696369656e7465736000830152602082019050919050565b610be781610dfc565b82525050565b610bfe610bf982610dfc565b610e60565b82525050565b6000610c108286610bed565b602082019150610c208285610a92565b601482019150610c308284610bed565b602082019150819050949350505050565b6000602082019050610c566000830184610aa9565b92915050565b6000602082019050610c716000830184610a83565b92915050565b6000606082019050610c8c6000830186610a83565b610c996020830185610aa9565b610ca66040830184610bde565b949350505050565b6000604082019050610cc36000830185610a83565b610cd06020830184610bde565b9392505050565b60006020820190508181036000830152610cf081610ab8565b9050919050565b60006020820190508181036000830152610d1081610af8565b9050919050565b60006020820190508181036000830152610d3081610b5e565b9050919050565b60006020820190508181036000830152610d5081610b9e565b9050919050565b6000602082019050610d6c6000830184610bde565b92915050565b6000604082019050610d876000830185610bde565b610d946020830184610a83565b9392505050565b600082825260208201905092915050565b6000610db782610ddc565b9050919050565b6000610dc982610ddc565b9050919050565b60008115159050919050565b600073ffffffffffffffffffffffffffffffffffffffff82169050919050565b6000819050919050565b6000610e1182610e18565b9050919050565b6000610e2382610e2a565b9050919050565b6000610e3582610ddc565b9050919050565b6000610e4782610e4e565b9050919050565b6000610e5982610e6a565b9050919050565b6000819050919050565b60008160601b9050919050565b610e8081610dd0565b8114610e8b57600080fd5b50565b610e9781610dfc565b8114610ea257600080fd5b5056fea2646970667358221220d3dab304b6b613b8a689dd0670e8e27be6d91a74b230b3f05c5f9ca4df85d0d664736f6c634300060c0033608060405234801561001057600080fd5b5060405161109d38038061109d83398181016040528101906100329190610099565b806002819055506002546000803373ffffffffffffffffffffffffffffffffffffffff1673ffffffffffffffffffffffffffffffffffffffff16815260200190815260200160002081905550506100e3565b600081519050610093816100cc565b92915050565b6000602082840312156100ab57600080fd5b60006100b984828501610084565b91505092915050565b6000819050919050565b6100d5816100c2565b81146100e057600080fd5b50565b610fab806100f26000396000f3fe608060405234801561001057600080fd5b50600436106100a95760003560e01c8063313ce56711610071578063313ce567146101665780635c79febb1461018457806370a08231146101b457806395d89b41146101e4578063a9059cbb14610202578063dd62ed3e14610232576100a9565b806306fdde03146100ae578063095ea7b3146100cc57806318160ddd146100fc5780631d43cc981461011a57806323b872dd14610136575b600080fd5b6100b6610262565b6040516100c39190610e3a565b60405180910390f35b6100e660048036038101906100e19190610d54565b61029b565b6040516100f39190610e1f565b60405180910390f35b61010461038d565b6040516101119190610e5c565b60405180910390f35b610134600480360381019061012f9190610d90565b610397565b005b610150600480360381019061014b9190610d05565b6103f6565b60405161015d9190610e1f565b60405180910390f35b61016e610771565b60405161017b9190610e77565b60405180910390f35b61019e60048036038101906101999190610d05565b610776565b6040516101ab9190610e1f565b60405180910390f35b6101ce60048036038101906101c99190610ca0565b610959565b6040516101db9190610e5c565b60405180910390f35b6101ec6109a1565b6040516101f99190610e3a565b60405180910390f35b61021c60048036038101906102179190610d54565b6109da565b6040516102299190610e1f565b60405180910390f35b61024c60048036038101906102479190610cc9565b610bbc565b6040516102599190610e5c565b60405180910390f35b6040518060400160405280600c81526020017f4552433230414b414c75676f000000000000000000000000000000000000000081525081565b600081600160003373ffffffffffffffffffffffffffffffffffffffff1673ffffffffffffffffffffffffffffffffffffffff16815260200190815260200160002060008573ffffffffffffffffffffffffffffffffffffffff1673ffffffffffffffffffffffffffffffffffffffff168152602001908152602001600020819055508273ffffffffffffffffffffffffffffffffffffffff163373ffffffffffffffffffffffffffffffffffffffff167f8c5be1e5ebec7d5bd14f71427d1e84f3dd0314c0f7b2291e5b200ac8c7c3b9258460405161037b9190610e5c565b60405180910390a36001905092915050565b6000600254905090565b80600260008282540192505081905550806000803373ffffffffffffffffffffffffffffffffffffffff1673ffffffffffffffffffffffffffffffffffffffff1681526020019081526020016000206000828254019250508190555050565b6000816000808673ffffffffffffffffffffffffffffffffffffffff1673ffffffffffffffffffffffffffffffffffffffff16815260200190815260200160002054101561044357600080fd5b81600160008673ffffffffffffffffffffffffffffffffffffffff1673ffffffffffffffffffffffffffffffffffffffff16815260200190815260200160002060003373ffffffffffffffffffffffffffffffffffffffff1673ffffffffffffffffffffffffffffffffffffffff1681526020019081526020016000205410156104cc57600080fd5b61051d826000808773ffffffffffffffffffffffffffffffffffffffff1673ffffffffffffffffffffffffffffffffffffffff16815260200190815260200160002054610c4390919063ffffffff16565b6000808673ffffffffffffffffffffffffffffffffffffffff1673ffffffffffffffffffffffffffffffffffffffff168152602001908152602001600020819055506105ee82600160008773ffffffffffffffffffffffffffffffffffffffff1673ffffffffffffffffffffffffffffffffffffffff16815260200190815260200160002060003373ffffffffffffffffffffffffffffffffffffffff1673ffffffffffffffffffffffffffffffffffffffff16815260200190815260200160002054610c4390919063ffffffff16565b600160008673ffffffffffffffffffffffffffffffffffffffff1673ffffffffffffffffffffffffffffffffffffffff16815260200190815260200160002060003373ffffffffffffffffffffffffffffffffffffffff1673ffffffffffffffffffffffffffffffffffffffff168152602001908152602001600020819055506106bf826000808673ffffffffffffffffffffffffffffffffffffffff1673ffffffffffffffffffffffffffffffffffffffff16815260200190815260200160002054610c5a90919063ffffffff16565b6000808573ffffffffffffffffffffffffffffffffffffffff1673ffffffffffffffffffffffffffffffffffffffff168152602001908152602001600020819055508273ffffffffffffffffffffffffffffffffffffffff168473ffffffffffffffffffffffffffffffffffffffff167fddf252ad1be2c89b69c2b068fc378daa952ba7f163c4a11628f55a4df523b3ef8460405161075e9190610e5c565b60405180910390a3600190509392505050565b601281565b60008060008573ffffffffffffffffffffffffffffffffffffffff1673ffffffffffffffffffffffffffffffffffffffff168152602001908152602001600020548211156107c357600080fd5b610814826000808773ffffffffffffffffffffffffffffffffffffffff1673ffffffffffffffffffffffffffffffffffffffff16815260200190815260200160002054610c4390919063ffffffff16565b6000808673ffffffffffffffffffffffffffffffffffffffff1673ffffffffffffffffffffffffffffffffffffffff168152602001908152602001600020819055506108a7826000808673ffffffffffffffffffffffffffffffffffffffff1673ffffffffffffffffffffffffffffffffffffffff16815260200190815260200160002054610c5a90919063ffffffff16565b6000808573ffffffffffffffffffffffffffffffffffffffff1673ffffffffffffffffffffffffffffffffffffffff168152602001908152602001600020819055508273ffffffffffffffffffffffffffffffffffffffff168473ffffffffffffffffffffffffffffffffffffffff167fddf252ad1be2c89b69c2b068fc378daa952ba7f163c4a11628f55a4df523b3ef846040516109469190610e5c565b60405180910390a3600190509392505050565b60008060008373ffffffffffffffffffffffffffffffffffffffff1673ffffffffffffffffffffffffffffffffffffffff168152602001908152602001600020549050919050565b6040518060400160405280600381526020017f414b41000000000000000000000000000000000000000000000000000000000081525081565b60008060003373ffffffffffffffffffffffffffffffffffffffff1673ffffffffffffffffffffffffffffffffffffffff16815260200190815260200160002054821115610a2757600080fd5b610a78826000803373ffffffffffffffffffffffffffffffffffffffff1673ffffffffffffffffffffffffffffffffffffffff16815260200190815260200160002054610c4390919063ffffffff16565b6000803373ffffffffffffffffffffffffffffffffffffffff1673ffffffffffffffffffffffffffffffffffffffff16815260200190815260200160002081905550610b0b826000808673ffffffffffffffffffffffffffffffffffffffff1673ffffffffffffffffffffffffffffffffffffffff16815260200190815260200160002054610c5a90919063ffffffff16565b6000808573ffffffffffffffffffffffffffffffffffffffff1673ffffffffffffffffffffffffffffffffffffffff168152602001908152602001600020819055508273ffffffffffffffffffffffffffffffffffffffff163373ffffffffffffffffffffffffffffffffffffffff167fddf252ad1be2c89b69c2b068fc378daa952ba7f163c4a11628f55a4df523b3ef84604051610baa9190610e5c565b60405180910390a36001905092915050565b6000600160008473ffffffffffffffffffffffffffffffffffffffff1673ffffffffffffffffffffffffffffffffffffffff16815260200190815260200160002060008373ffffffffffffffffffffffffffffffffffffffff1673ffffffffffffffffffffffffffffffffffffffff16815260200190815260200160002054905092915050565b600082821115610c4f57fe5b818303905092915050565b600080828401905083811015610c6c57fe5b8091505092915050565b600081359050610c8581610f47565b92915050565b600081359050610c9a81610f5e565b92915050565b600060208284031215610cb257600080fd5b6000610cc084828501610c76565b91505092915050565b60008060408385031215610cdc57600080fd5b6000610cea85828601610c76565b9250506020610cfb85828601610c76565b9150509250929050565b600080600060608486031215610d1a57600080fd5b6000610d2886828701610c76565b9350506020610d3986828701610c76565b9250506040610d4a86828701610c8b565b9150509250925092565b60008060408385031215610d6757600080fd5b6000610d7585828601610c76565b9250506020610d8685828601610c8b565b9150509250929050565b600060208284031215610da257600080fd5b6000610db084828501610c8b565b91505092915050565b610dc281610ec0565b82525050565b6000610dd382610e92565b610ddd8185610e9d565b9350610ded818560208601610f03565b610df681610f36565b840191505092915050565b610e0a81610eec565b82525050565b610e1981610ef6565b82525050565b6000602082019050610e346000830184610db9565b92915050565b60006020820190508181036000830152610e548184610dc8565b905092915050565b6000602082019050610e716000830184610e01565b92915050565b6000602082019050610e8c6000830184610e10565b92915050565b600081519050919050565b600082825260208201905092915050565b6000610eb982610ecc565b9050919050565b60008115159050919050565b600073ffffffffffffffffffffffffffffffffffffffff82169050919050565b6000819050919050565b600060ff82169050919050565b60005b83811015610f21578082015181840152602081019050610f06565b83811115610f30576000848401525b50505050565b6000601f19601f8301169050919050565b610f5081610eae565b8114610f5b57600080fd5b50565b610f6781610eec565b8114610f7257600080fd5b5056fea264697066735822122041924e75c6a689f4e76b488c772248149581615c89d36359b2203d117f5c45a064736f6c634300060c0033",
					"opcodes": "PUSH1 0x80 PUSH1 0x40 MSTORE PUSH1 0x5 PUSH1 0x3 SSTORE PUSH1 0x0 PUSH1 0x6 SSTORE CALLVALUE DUP1 ISZERO PUSH2 0x1A JUMPI PUSH1 0x0 DUP1 REVERT JUMPDEST POP PUSH2 0x2710 PUSH1 0x40 MLOAD PUSH2 0x2A SWAP1 PUSH2 0x117 JUMP JUMPDEST PUSH2 0x34 SWAP2 SWAP1 PUSH2 0x133 JUMP JUMPDEST PUSH1 0x40 MLOAD DUP1 SWAP2 SUB SWAP1 PUSH1 0x0 CREATE DUP1 ISZERO DUP1 ISZERO PUSH2 0x50 JUMPI RETURNDATASIZE PUSH1 0x0 DUP1 RETURNDATACOPY RETURNDATASIZE PUSH1 0x0 REVERT JUMPDEST POP PUSH1 0x0 DUP1 PUSH2 0x100 EXP DUP2 SLOAD DUP2 PUSH20 0xFFFFFFFFFFFFFFFFFFFFFFFFFFFFFFFFFFFFFFFF MUL NOT AND SWAP1 DUP4 PUSH20 0xFFFFFFFFFFFFFFFFFFFFFFFFFFFFFFFFFFFFFFFF AND MUL OR SWAP1 SSTORE POP CALLER PUSH1 0x1 PUSH1 0x0 PUSH2 0x100 EXP DUP2 SLOAD DUP2 PUSH20 0xFFFFFFFFFFFFFFFFFFFFFFFFFFFFFFFFFFFFFFFF MUL NOT AND SWAP1 DUP4 PUSH20 0xFFFFFFFFFFFFFFFFFFFFFFFFFFFFFFFFFFFFFFFF AND MUL OR SWAP1 SSTORE POP ADDRESS PUSH1 0x2 PUSH1 0x0 PUSH2 0x100 EXP DUP2 SLOAD DUP2 PUSH20 0xFFFFFFFFFFFFFFFFFFFFFFFFFFFFFFFFFFFFFFFF MUL NOT AND SWAP1 DUP4 PUSH20 0xFFFFFFFFFFFFFFFFFFFFFFFFFFFFFFFFFFFFFFFF AND MUL OR SWAP1 SSTORE POP PUSH2 0x16A JUMP JUMPDEST PUSH2 0x109D DUP1 PUSH2 0x1054 DUP4 CODECOPY ADD SWAP1 JUMP JUMPDEST PUSH2 0x12D DUP2 PUSH2 0x158 JUMP JUMPDEST DUP3 MSTORE POP POP JUMP JUMPDEST PUSH1 0x0 PUSH1 0x20 DUP3 ADD SWAP1 POP PUSH2 0x148 PUSH1 0x0 DUP4 ADD DUP5 PUSH2 0x124 JUMP JUMPDEST SWAP3 SWAP2 POP POP JUMP JUMPDEST PUSH1 0x0 DUP2 SWAP1 POP SWAP2 SWAP1 POP JUMP JUMPDEST PUSH1 0x0 PUSH2 0x163 DUP3 PUSH2 0x14E JUMP JUMPDEST SWAP1 POP SWAP2 SWAP1 POP JUMP JUMPDEST PUSH2 0xEDB DUP1 PUSH2 0x179 PUSH1 0x0 CODECOPY PUSH1 0x0 RETURN INVALID PUSH1 0x80 PUSH1 0x40 MSTORE PUSH1 0x4 CALLDATASIZE LT PUSH2 0x86 JUMPI PUSH1 0x0 CALLDATALOAD PUSH1 0xE0 SHR DUP1 PUSH4 0x8DA5CB5B GT PUSH2 0x59 JUMPI DUP1 PUSH4 0x8DA5CB5B EQ PUSH2 0x133 JUMPI DUP1 PUSH4 0xE1A01E67 EQ PUSH2 0x15E JUMPI DUP1 PUSH4 0xE33F34A0 EQ PUSH2 0x189 JUMPI DUP1 PUSH4 0xF7774091 EQ PUSH2 0x1B4 JUMPI DUP1 PUSH4 0xFD889FF5 EQ PUSH2 0x1D0 JUMPI PUSH2 0x86 JUMP JUMPDEST DUP1 PUSH4 0x1246F6E2 EQ PUSH2 0x8B JUMPI DUP1 PUSH4 0x27909F27 EQ PUSH2 0xB4 JUMPI DUP1 PUSH4 0x74189861 EQ PUSH2 0xDF JUMPI DUP1 PUSH4 0x7CD15F44 EQ PUSH2 0x10A JUMPI JUMPDEST PUSH1 0x0 DUP1 REVERT JUMPDEST CALLVALUE DUP1 ISZERO PUSH2 0x97 JUMPI PUSH1 0x0 DUP1 REVERT JUMPDEST POP PUSH2 0xB2 PUSH1 0x4 DUP1 CALLDATASIZE SUB DUP2 ADD SWAP1 PUSH2 0xAD SWAP2 SWAP1 PUSH2 0xA31 JUMP JUMPDEST PUSH2 0x1FB JUMP JUMPDEST STOP JUMPDEST CALLVALUE DUP1 ISZERO PUSH2 0xC0 JUMPI PUSH1 0x0 DUP1 REVERT JUMPDEST POP PUSH2 0xC9 PUSH2 0x31B JUMP JUMPDEST PUSH1 0x40 MLOAD PUSH2 0xD6 SWAP2 SWAP1 PUSH2 0xD57 JUMP JUMPDEST PUSH1 0x40 MLOAD DUP1 SWAP2 SUB SWAP1 RETURN JUMPDEST CALLVALUE DUP1 ISZERO PUSH2 0xEB JUMPI PUSH1 0x0 DUP1 REVERT JUMPDEST POP PUSH2 0xF4 PUSH2 0x321 JUMP JUMPDEST PUSH1 0x40 MLOAD PUSH2 0x101 SWAP2 SWAP1 PUSH2 0xD57 JUMP JUMPDEST PUSH1 0x40 MLOAD DUP1 SWAP2 SUB SWAP1 RETURN JUMPDEST CALLVALUE DUP1 ISZERO PUSH2 0x116 JUMPI PUSH1 0x0 DUP1 REVERT JUMPDEST POP PUSH2 0x131 PUSH1 0x4 DUP1 CALLDATASIZE SUB DUP2 ADD SWAP1 PUSH2 0x12C SWAP2 SWAP1 PUSH2 0xA31 JUMP JUMPDEST PUSH2 0x3F4 JUMP JUMPDEST STOP JUMPDEST CALLVALUE DUP1 ISZERO PUSH2 0x13F JUMPI PUSH1 0x0 DUP1 REVERT JUMPDEST POP PUSH2 0x148 PUSH2 0x576 JUMP JUMPDEST PUSH1 0x40 MLOAD PUSH2 0x155 SWAP2 SWAP1 PUSH2 0xC41 JUMP JUMPDEST PUSH1 0x40 MLOAD DUP1 SWAP2 SUB SWAP1 RETURN JUMPDEST CALLVALUE DUP1 ISZERO PUSH2 0x16A JUMPI PUSH1 0x0 DUP1 REVERT JUMPDEST POP PUSH2 0x173 PUSH2 0x59C JUMP JUMPDEST PUSH1 0x40 MLOAD PUSH2 0x180 SWAP2 SWAP1 PUSH2 0xC41 JUMP JUMPDEST PUSH1 0x40 MLOAD DUP1 SWAP2 SUB SWAP1 RETURN JUMPDEST CALLVALUE DUP1 ISZERO PUSH2 0x195 JUMPI PUSH1 0x0 DUP1 REVERT JUMPDEST POP PUSH2 0x19E PUSH2 0x5C2 JUMP JUMPDEST PUSH1 0x40 MLOAD PUSH2 0x1AB SWAP2 SWAP1 PUSH2 0xD57 JUMP JUMPDEST PUSH1 0x40 MLOAD DUP1 SWAP2 SUB SWAP1 RETURN JUMPDEST PUSH2 0x1CE PUSH1 0x4 DUP1 CALLDATASIZE SUB DUP2 ADD SWAP1 PUSH2 0x1C9 SWAP2 SWAP1 PUSH2 0xA31 JUMP JUMPDEST PUSH2 0x673 JUMP JUMPDEST STOP JUMPDEST CALLVALUE DUP1 ISZERO PUSH2 0x1DC JUMPI PUSH1 0x0 DUP1 REVERT JUMPDEST POP PUSH2 0x1E5 PUSH2 0x904 JUMP JUMPDEST PUSH1 0x40 MLOAD PUSH2 0x1F2 SWAP2 SWAP1 PUSH2 0xD57 JUMP JUMPDEST PUSH1 0x40 MLOAD DUP1 SWAP2 SUB SWAP1 RETURN JUMPDEST CALLER PUSH1 0x1 PUSH1 0x0 SWAP1 SLOAD SWAP1 PUSH2 0x100 EXP SWAP1 DIV PUSH20 0xFFFFFFFFFFFFFFFFFFFFFFFFFFFFFFFFFFFFFFFF AND PUSH20 0xFFFFFFFFFFFFFFFFFFFFFFFFFFFFFFFFFFFFFFFF AND DUP2 PUSH20 0xFFFFFFFFFFFFFFFFFFFFFFFFFFFFFFFFFFFFFFFF AND EQ PUSH2 0x28C JUMPI PUSH1 0x40 MLOAD PUSH32 0x8C379A000000000000000000000000000000000000000000000000000000000 DUP2 MSTORE PUSH1 0x4 ADD PUSH2 0x283 SWAP1 PUSH2 0xCF7 JUMP JUMPDEST PUSH1 0x40 MLOAD DUP1 SWAP2 SUB SWAP1 REVERT JUMPDEST PUSH1 0x0 DUP1 SLOAD SWAP1 PUSH2 0x100 EXP SWAP1 DIV PUSH20 0xFFFFFFFFFFFFFFFFFFFFFFFFFFFFFFFFFFFFFFFF AND PUSH20 0xFFFFFFFFFFFFFFFFFFFFFFFFFFFFFFFFFFFFFFFF AND PUSH4 0x1D43CC98 DUP4 PUSH1 0x40 MLOAD DUP3 PUSH4 0xFFFFFFFF AND PUSH1 0xE0 SHL DUP2 MSTORE PUSH1 0x4 ADD PUSH2 0x2E5 SWAP2 SWAP1 PUSH2 0xD57 JUMP JUMPDEST PUSH1 0x0 PUSH1 0x40 MLOAD DUP1 DUP4 SUB DUP2 PUSH1 0x0 DUP8 DUP1 EXTCODESIZE ISZERO DUP1 ISZERO PUSH2 0x2FF JUMPI PUSH1 0x0 DUP1 REVERT JUMPDEST POP GAS CALL ISZERO DUP1 ISZERO PUSH2 0x313 JUMPI RETURNDATASIZE PUSH1 0x0 DUP1 RETURNDATACOPY RETURNDATASIZE PUSH1 0x0 REVERT JUMPDEST POP POP POP POP POP POP JUMP JUMPDEST PUSH1 0x3 SLOAD DUP2 JUMP JUMPDEST PUSH1 0x0 DUP1 PUSH1 0x0 SWAP1 SLOAD SWAP1 PUSH2 0x100 EXP SWAP1 DIV PUSH20 0xFFFFFFFFFFFFFFFFFFFFFFFFFFFFFFFFFFFFFFFF AND PUSH20 0xFFFFFFFFFFFFFFFFFFFFFFFFFFFFFFFFFFFFFFFF AND PUSH4 0x70A08231 PUSH1 0x1 PUSH1 0x0 SWAP1 SLOAD SWAP1 PUSH2 0x100 EXP SWAP1 DIV PUSH20 0xFFFFFFFFFFFFFFFFFFFFFFFFFFFFFFFFFFFFFFFF AND PUSH1 0x40 MLOAD DUP3 PUSH4 0xFFFFFFFF AND PUSH1 0xE0 SHL DUP2 MSTORE PUSH1 0x4 ADD PUSH2 0x39F SWAP2 SWAP1 PUSH2 0xC41 JUMP JUMPDEST PUSH1 0x20 PUSH1 0x40 MLOAD DUP1 DUP4 SUB DUP2 DUP7 DUP1 EXTCODESIZE ISZERO DUP1 ISZERO PUSH2 0x3B7 JUMPI PUSH1 0x0 DUP1 REVERT JUMPDEST POP GAS STATICCALL ISZERO DUP1 ISZERO PUSH2 0x3CB JUMPI RETURNDATASIZE PUSH1 0x0 DUP1 RETURNDATACOPY RETURNDATASIZE PUSH1 0x0 REVERT JUMPDEST POP POP POP POP PUSH1 0x40 MLOAD RETURNDATASIZE PUSH1 0x1F NOT PUSH1 0x1F DUP3 ADD AND DUP3 ADD DUP1 PUSH1 0x40 MSTORE POP DUP2 ADD SWAP1 PUSH2 0x3EF SWAP2 SWAP1 PUSH2 0xA5A JUMP JUMPDEST SWAP1 POP SWAP1 JUMP JUMPDEST PUSH1 0x0 PUSH1 0x3 SLOAD DUP3 MUL SWAP1 POP PUSH2 0x405 PUSH2 0x5C2 JUMP JUMPDEST DUP2 GT ISZERO PUSH2 0x447 JUMPI PUSH1 0x40 MLOAD PUSH32 0x8C379A000000000000000000000000000000000000000000000000000000000 DUP2 MSTORE PUSH1 0x4 ADD PUSH2 0x43E SWAP1 PUSH2 0xCD7 JUMP JUMPDEST PUSH1 0x40 MLOAD DUP1 SWAP2 SUB SWAP1 REVERT JUMPDEST PUSH1 0x0 DUP1 SLOAD SWAP1 PUSH2 0x100 EXP SWAP1 DIV PUSH20 0xFFFFFFFFFFFFFFFFFFFFFFFFFFFFFFFFFFFFFFFF AND PUSH20 0xFFFFFFFFFFFFFFFFFFFFFFFFFFFFFFFFFFFFFFFF AND PUSH4 0x5C79FEBB CALLER PUSH1 0x1 PUSH1 0x0 SWAP1 SLOAD SWAP1 PUSH2 0x100 EXP SWAP1 DIV PUSH20 0xFFFFFFFFFFFFFFFFFFFFFFFFFFFFFFFFFFFFFFFF AND DUP5 PUSH1 0x40 MLOAD DUP5 PUSH4 0xFFFFFFFF AND PUSH1 0xE0 SHL DUP2 MSTORE PUSH1 0x4 ADD PUSH2 0x4C6 SWAP4 SWAP3 SWAP2 SWAP1 PUSH2 0xC77 JUMP JUMPDEST PUSH1 0x20 PUSH1 0x40 MLOAD DUP1 DUP4 SUB DUP2 PUSH1 0x0 DUP8 DUP1 EXTCODESIZE ISZERO DUP1 ISZERO PUSH2 0x4E0 JUMPI PUSH1 0x0 DUP1 REVERT JUMPDEST POP GAS CALL ISZERO DUP1 ISZERO PUSH2 0x4F4 JUMPI RETURNDATASIZE PUSH1 0x0 DUP1 RETURNDATACOPY RETURNDATASIZE PUSH1 0x0 REVERT JUMPDEST POP POP POP POP PUSH1 0x40 MLOAD RETURNDATASIZE PUSH1 0x1F NOT PUSH1 0x1F DUP3 ADD AND DUP3 ADD DUP1 PUSH1 0x40 MSTORE POP DUP2 ADD SWAP1 PUSH2 0x518 SWAP2 SWAP1 PUSH2 0xA08 JUMP JUMPDEST POP PUSH1 0x0 JUMPDEST DUP3 DUP2 LT ISZERO PUSH2 0x571 JUMPI PUSH1 0x0 PUSH2 0x2710 TIMESTAMP CALLER PUSH1 0x6 SLOAD PUSH1 0x40 MLOAD PUSH1 0x20 ADD PUSH2 0x540 SWAP4 SWAP3 SWAP2 SWAP1 PUSH2 0xC04 JUMP JUMPDEST PUSH1 0x40 MLOAD PUSH1 0x20 DUP2 DUP4 SUB SUB DUP2 MSTORE SWAP1 PUSH1 0x40 MSTORE DUP1 MLOAD SWAP1 PUSH1 0x20 ADD KECCAK256 PUSH1 0x0 SHR DUP2 PUSH2 0x560 JUMPI INVALID JUMPDEST MOD SWAP1 POP POP DUP1 DUP1 PUSH1 0x1 ADD SWAP2 POP POP PUSH2 0x51C JUMP JUMPDEST POP POP POP JUMP JUMPDEST PUSH1 0x1 PUSH1 0x0 SWAP1 SLOAD SWAP1 PUSH2 0x100 EXP SWAP1 DIV PUSH20 0xFFFFFFFFFFFFFFFFFFFFFFFFFFFFFFFFFFFFFFFF AND DUP2 JUMP JUMPDEST PUSH1 0x2 PUSH1 0x0 SWAP1 SLOAD SWAP1 PUSH2 0x100 EXP SWAP1 DIV PUSH20 0xFFFFFFFFFFFFFFFFFFFFFFFFFFFFFFFFFFFFFFFF AND DUP2 JUMP JUMPDEST PUSH1 0x0 DUP1 PUSH1 0x0 SWAP1 SLOAD SWAP1 PUSH2 0x100 EXP SWAP1 DIV PUSH20 0xFFFFFFFFFFFFFFFFFFFFFFFFFFFFFFFFFFFFFFFF AND PUSH20 0xFFFFFFFFFFFFFFFFFFFFFFFFFFFFFFFFFFFFFFFF AND PUSH4 0x70A08231 CALLER PUSH1 0x40 MLOAD DUP3 PUSH4 0xFFFFFFFF AND PUSH1 0xE0 SHL DUP2 MSTORE PUSH1 0x4 ADD PUSH2 0x61E SWAP2 SWAP1 PUSH2 0xC5C JUMP JUMPDEST PUSH1 0x20 PUSH1 0x40 MLOAD DUP1 DUP4 SUB DUP2 DUP7 DUP1 EXTCODESIZE ISZERO DUP1 ISZERO PUSH2 0x636 JUMPI PUSH1 0x0 DUP1 REVERT JUMPDEST POP GAS STATICCALL ISZERO DUP1 ISZERO PUSH2 0x64A JUMPI RETURNDATASIZE PUSH1 0x0 DUP1 RETURNDATACOPY RETURNDATASIZE PUSH1 0x0 REVERT JUMPDEST POP POP POP POP PUSH1 0x40 MLOAD RETURNDATASIZE PUSH1 0x1F NOT PUSH1 0x1F DUP3 ADD AND DUP3 ADD DUP1 PUSH1 0x40 MSTORE POP DUP2 ADD SWAP1 PUSH2 0x66E SWAP2 SWAP1 PUSH2 0xA5A JUMP JUMPDEST SWAP1 POP SWAP1 JUMP JUMPDEST PUSH1 0x0 PUSH2 0x67E DUP3 PUSH2 0x9B5 JUMP JUMPDEST SWAP1 POP DUP1 CALLVALUE LT ISZERO PUSH2 0x6C3 JUMPI PUSH1 0x40 MLOAD PUSH32 0x8C379A000000000000000000000000000000000000000000000000000000000 DUP2 MSTORE PUSH1 0x4 ADD PUSH2 0x6BA SWAP1 PUSH2 0xD17 JUMP JUMPDEST PUSH1 0x40 MLOAD DUP1 SWAP2 SUB SWAP1 REVERT JUMPDEST PUSH1 0x0 DUP1 SLOAD SWAP1 PUSH2 0x100 EXP SWAP1 DIV PUSH20 0xFFFFFFFFFFFFFFFFFFFFFFFFFFFFFFFFFFFFFFFF AND PUSH20 0xFFFFFFFFFFFFFFFFFFFFFFFFFFFFFFFFFFFFFFFF AND PUSH4 0x70A08231 PUSH1 0x2 PUSH1 0x0 SWAP1 SLOAD SWAP1 PUSH2 0x100 EXP SWAP1 DIV PUSH20 0xFFFFFFFFFFFFFFFFFFFFFFFFFFFFFFFFFFFFFFFF AND PUSH1 0x40 MLOAD DUP3 PUSH4 0xFFFFFFFF AND PUSH1 0xE0 SHL DUP2 MSTORE PUSH1 0x4 ADD PUSH2 0x73E SWAP2 SWAP1 PUSH2 0xC41 JUMP JUMPDEST PUSH1 0x20 PUSH1 0x40 MLOAD DUP1 DUP4 SUB DUP2 DUP7 DUP1 EXTCODESIZE ISZERO DUP1 ISZERO PUSH2 0x756 JUMPI PUSH1 0x0 DUP1 REVERT JUMPDEST POP GAS STATICCALL ISZERO DUP1 ISZERO PUSH2 0x76A JUMPI RETURNDATASIZE PUSH1 0x0 DUP1 RETURNDATACOPY RETURNDATASIZE PUSH1 0x0 REVERT JUMPDEST POP POP POP POP PUSH1 0x40 MLOAD RETURNDATASIZE PUSH1 0x1F NOT PUSH1 0x1F DUP3 ADD AND DUP3 ADD DUP1 PUSH1 0x40 MSTORE POP DUP2 ADD SWAP1 PUSH2 0x78E SWAP2 SWAP1 PUSH2 0xA5A JUMP JUMPDEST DUP3 GT ISZERO PUSH2 0x7D0 JUMPI PUSH1 0x40 MLOAD PUSH32 0x8C379A000000000000000000000000000000000000000000000000000000000 DUP2 MSTORE PUSH1 0x4 ADD PUSH2 0x7C7 SWAP1 PUSH2 0xD37 JUMP JUMPDEST PUSH1 0x40 MLOAD DUP1 SWAP2 SUB SWAP1 REVERT JUMPDEST CALLER PUSH20 0xFFFFFFFFFFFFFFFFFFFFFFFFFFFFFFFFFFFFFFFF AND PUSH2 0x8FC DUP3 CALLVALUE SUB SWAP1 DUP2 ISZERO MUL SWAP1 PUSH1 0x40 MLOAD PUSH1 0x0 PUSH1 0x40 MLOAD DUP1 DUP4 SUB DUP2 DUP6 DUP9 DUP9 CALL SWAP4 POP POP POP POP ISZERO DUP1 ISZERO PUSH2 0x818 JUMPI RETURNDATASIZE PUSH1 0x0 DUP1 RETURNDATACOPY RETURNDATASIZE PUSH1 0x0 REVERT JUMPDEST POP PUSH1 0x0 DUP1 SLOAD SWAP1 PUSH2 0x100 EXP SWAP1 DIV PUSH20 0xFFFFFFFFFFFFFFFFFFFFFFFFFFFFFFFFFFFFFFFF AND PUSH20 0xFFFFFFFFFFFFFFFFFFFFFFFFFFFFFFFFFFFFFFFF AND PUSH4 0xA9059CBB CALLER DUP5 PUSH1 0x40 MLOAD DUP4 PUSH4 0xFFFFFFFF AND PUSH1 0xE0 SHL DUP2 MSTORE PUSH1 0x4 ADD PUSH2 0x874 SWAP3 SWAP2 SWAP1 PUSH2 0xCAE JUMP JUMPDEST PUSH1 0x20 PUSH1 0x40 MLOAD DUP1 DUP4 SUB DUP2 PUSH1 0x0 DUP8 DUP1 EXTCODESIZE ISZERO DUP1 ISZERO PUSH2 0x88E JUMPI PUSH1 0x0 DUP1 REVERT JUMPDEST POP GAS CALL ISZERO DUP1 ISZERO PUSH2 0x8A2 JUMPI RETURNDATASIZE PUSH1 0x0 DUP1 RETURNDATACOPY RETURNDATASIZE PUSH1 0x0 REVERT JUMPDEST POP POP POP POP PUSH1 0x40 MLOAD RETURNDATASIZE PUSH1 0x1F NOT PUSH1 0x1F DUP3 ADD AND DUP3 ADD DUP1 PUSH1 0x40 MSTORE POP DUP2 ADD SWAP1 PUSH2 0x8C6 SWAP2 SWAP1 PUSH2 0xA08 JUMP JUMPDEST POP PUSH32 0x1912293D843FE20A997ECEDFE6AB8B44B26FC0ED0D7D2E152158FFD021C9ACE3 DUP3 CALLER PUSH1 0x40 MLOAD PUSH2 0x8F8 SWAP3 SWAP2 SWAP1 PUSH2 0xD72 JUMP JUMPDEST PUSH1 0x40 MLOAD DUP1 SWAP2 SUB SWAP1 LOG1 POP POP JUMP JUMPDEST PUSH1 0x0 DUP1 PUSH1 0x0 SWAP1 SLOAD SWAP1 PUSH2 0x100 EXP SWAP1 DIV PUSH20 0xFFFFFFFFFFFFFFFFFFFFFFFFFFFFFFFFFFFFFFFF AND PUSH20 0xFFFFFFFFFFFFFFFFFFFFFFFFFFFFFFFFFFFFFFFF AND PUSH4 0x70A08231 ADDRESS PUSH1 0x40 MLOAD DUP3 PUSH4 0xFFFFFFFF AND PUSH1 0xE0 SHL DUP2 MSTORE PUSH1 0x4 ADD PUSH2 0x960 SWAP2 SWAP1 PUSH2 0xC41 JUMP JUMPDEST PUSH1 0x20 PUSH1 0x40 MLOAD DUP1 DUP4 SUB DUP2 DUP7 DUP1 EXTCODESIZE ISZERO DUP1 ISZERO PUSH2 0x978 JUMPI PUSH1 0x0 DUP1 REVERT JUMPDEST POP GAS STATICCALL ISZERO DUP1 ISZERO PUSH2 0x98C JUMPI RETURNDATASIZE PUSH1 0x0 DUP1 RETURNDATACOPY RETURNDATASIZE PUSH1 0x0 REVERT JUMPDEST POP POP POP POP PUSH1 0x40 MLOAD RETURNDATASIZE PUSH1 0x1F NOT PUSH1 0x1F DUP3 ADD AND DUP3 ADD DUP1 PUSH1 0x40 MSTORE POP DUP2 ADD SWAP1 PUSH2 0x9B0 SWAP2 SWAP1 PUSH2 0xA5A JUMP JUMPDEST SWAP1 POP SWAP1 JUMP JUMPDEST PUSH1 0x0 PUSH8 0xDE0B6B3A7640000 DUP3 MUL SWAP1 POP SWAP2 SWAP1 POP JUMP JUMPDEST PUSH1 0x0 DUP2 MLOAD SWAP1 POP PUSH2 0x9D8 DUP2 PUSH2 0xE77 JUMP JUMPDEST SWAP3 SWAP2 POP POP JUMP JUMPDEST PUSH1 0x0 DUP2 CALLDATALOAD SWAP1 POP PUSH2 0x9ED DUP2 PUSH2 0xE8E JUMP JUMPDEST SWAP3 SWAP2 POP POP JUMP JUMPDEST PUSH1 0x0 DUP2 MLOAD SWAP1 POP PUSH2 0xA02 DUP2 PUSH2 0xE8E JUMP JUMPDEST SWAP3 SWAP2 POP POP JUMP JUMPDEST PUSH1 0x0 PUSH1 0x20 DUP3 DUP5 SUB SLT ISZERO PUSH2 0xA1A JUMPI PUSH1 0x0 DUP1 REVERT JUMPDEST PUSH1 0x0 PUSH2 0xA28 DUP5 DUP3 DUP6 ADD PUSH2 0x9C9 JUMP JUMPDEST SWAP2 POP POP SWAP3 SWAP2 POP POP JUMP JUMPDEST PUSH1 0x0 PUSH1 0x20 DUP3 DUP5 SUB SLT ISZERO PUSH2 0xA43 JUMPI PUSH1 0x0 DUP1 REVERT JUMPDEST PUSH1 0x0 PUSH2 0xA51 DUP5 DUP3 DUP6 ADD PUSH2 0x9DE JUMP JUMPDEST SWAP2 POP POP SWAP3 SWAP2 POP POP JUMP JUMPDEST PUSH1 0x0 PUSH1 0x20 DUP3 DUP5 SUB SLT ISZERO PUSH2 0xA6C JUMPI PUSH1 0x0 DUP1 REVERT JUMPDEST PUSH1 0x0 PUSH2 0xA7A DUP5 DUP3 DUP6 ADD PUSH2 0x9F3 JUMP JUMPDEST SWAP2 POP POP SWAP3 SWAP2 POP POP JUMP JUMPDEST PUSH2 0xA8C DUP2 PUSH2 0xE06 JUMP JUMPDEST DUP3 MSTORE POP POP JUMP JUMPDEST PUSH2 0xAA3 PUSH2 0xA9E DUP3 PUSH2 0xDBE JUMP JUMPDEST PUSH2 0xE3C JUMP JUMPDEST DUP3 MSTORE POP POP JUMP JUMPDEST PUSH2 0xAB2 DUP2 PUSH2 0xDAC JUMP JUMPDEST DUP3 MSTORE POP POP JUMP JUMPDEST PUSH1 0x0 PUSH2 0xAC5 PUSH1 0x1F DUP4 PUSH2 0xD9B JUMP JUMPDEST SWAP2 POP PUSH32 0x43616E746964616420646520746F6B656E7320696E737566696369656E746500 PUSH1 0x0 DUP4 ADD MSTORE PUSH1 0x20 DUP3 ADD SWAP1 POP SWAP2 SWAP1 POP JUMP JUMPDEST PUSH1 0x0 PUSH2 0xB05 PUSH1 0x2D DUP4 PUSH2 0xD9B JUMP JUMPDEST SWAP2 POP PUSH32 0x4E6F207469656E6573207065726D69736F73207061726120656A656375746172 PUSH1 0x0 DUP4 ADD MSTORE PUSH32 0x20657374612066756E63696F6E00000000000000000000000000000000000000 PUSH1 0x20 DUP4 ADD MSTORE PUSH1 0x40 DUP3 ADD SWAP1 POP SWAP2 SWAP1 POP JUMP JUMPDEST PUSH1 0x0 PUSH2 0xB6B PUSH1 0x1E DUP4 PUSH2 0xD9B JUMP JUMPDEST SWAP2 POP PUSH32 0x43616E746964616420646520657468657220696E737566696369656E74650000 PUSH1 0x0 DUP4 ADD MSTORE PUSH1 0x20 DUP3 ADD SWAP1 POP SWAP2 SWAP1 POP JUMP JUMPDEST PUSH1 0x0 PUSH2 0xBAB PUSH1 0x20 DUP4 PUSH2 0xD9B JUMP JUMPDEST SWAP2 POP PUSH32 0x43616E746964616420646520746F6B656E7320696E737566696369656E746573 PUSH1 0x0 DUP4 ADD MSTORE PUSH1 0x20 DUP3 ADD SWAP1 POP SWAP2 SWAP1 POP JUMP JUMPDEST PUSH2 0xBE7 DUP2 PUSH2 0xDFC JUMP JUMPDEST DUP3 MSTORE POP POP JUMP JUMPDEST PUSH2 0xBFE PUSH2 0xBF9 DUP3 PUSH2 0xDFC JUMP JUMPDEST PUSH2 0xE60 JUMP JUMPDEST DUP3 MSTORE POP POP JUMP JUMPDEST PUSH1 0x0 PUSH2 0xC10 DUP3 DUP7 PUSH2 0xBED JUMP JUMPDEST PUSH1 0x20 DUP3 ADD SWAP2 POP PUSH2 0xC20 DUP3 DUP6 PUSH2 0xA92 JUMP JUMPDEST PUSH1 0x14 DUP3 ADD SWAP2 POP PUSH2 0xC30 DUP3 DUP5 PUSH2 0xBED JUMP JUMPDEST PUSH1 0x20 DUP3 ADD SWAP2 POP DUP2 SWAP1 POP SWAP5 SWAP4 POP POP POP POP JUMP JUMPDEST PUSH1 0x0 PUSH1 0x20 DUP3 ADD SWAP1 POP PUSH2 0xC56 PUSH1 0x0 DUP4 ADD DUP5 PUSH2 0xAA9 JUMP JUMPDEST SWAP3 SWAP2 POP POP JUMP JUMPDEST PUSH1 0x0 PUSH1 0x20 DUP3 ADD SWAP1 POP PUSH2 0xC71 PUSH1 0x0 DUP4 ADD DUP5 PUSH2 0xA83 JUMP JUMPDEST SWAP3 SWAP2 POP POP JUMP JUMPDEST PUSH1 0x0 PUSH1 0x60 DUP3 ADD SWAP1 POP PUSH2 0xC8C PUSH1 0x0 DUP4 ADD DUP7 PUSH2 0xA83 JUMP JUMPDEST PUSH2 0xC99 PUSH1 0x20 DUP4 ADD DUP6 PUSH2 0xAA9 JUMP JUMPDEST PUSH2 0xCA6 PUSH1 0x40 DUP4 ADD DUP5 PUSH2 0xBDE JUMP JUMPDEST SWAP5 SWAP4 POP POP POP POP JUMP JUMPDEST PUSH1 0x0 PUSH1 0x40 DUP3 ADD SWAP1 POP PUSH2 0xCC3 PUSH1 0x0 DUP4 ADD DUP6 PUSH2 0xA83 JUMP JUMPDEST PUSH2 0xCD0 PUSH1 0x20 DUP4 ADD DUP5 PUSH2 0xBDE JUMP JUMPDEST SWAP4 SWAP3 POP POP POP JUMP JUMPDEST PUSH1 0x0 PUSH1 0x20 DUP3 ADD SWAP1 POP DUP2 DUP2 SUB PUSH1 0x0 DUP4 ADD MSTORE PUSH2 0xCF0 DUP2 PUSH2 0xAB8 JUMP JUMPDEST SWAP1 POP SWAP2 SWAP1 POP JUMP JUMPDEST PUSH1 0x0 PUSH1 0x20 DUP3 ADD SWAP1 POP DUP2 DUP2 SUB PUSH1 0x0 DUP4 ADD MSTORE PUSH2 0xD10 DUP2 PUSH2 0xAF8 JUMP JUMPDEST SWAP1 POP SWAP2 SWAP1 POP JUMP JUMPDEST PUSH1 0x0 PUSH1 0x20 DUP3 ADD SWAP1 POP DUP2 DUP2 SUB PUSH1 0x0 DUP4 ADD MSTORE PUSH2 0xD30 DUP2 PUSH2 0xB5E JUMP JUMPDEST SWAP1 POP SWAP2 SWAP1 POP JUMP JUMPDEST PUSH1 0x0 PUSH1 0x20 DUP3 ADD SWAP1 POP DUP2 DUP2 SUB PUSH1 0x0 DUP4 ADD MSTORE PUSH2 0xD50 DUP2 PUSH2 0xB9E JUMP JUMPDEST SWAP1 POP SWAP2 SWAP1 POP JUMP JUMPDEST PUSH1 0x0 PUSH1 0x20 DUP3 ADD SWAP1 POP PUSH2 0xD6C PUSH1 0x0 DUP4 ADD DUP5 PUSH2 0xBDE JUMP JUMPDEST SWAP3 SWAP2 POP POP JUMP JUMPDEST PUSH1 0x0 PUSH1 0x40 DUP3 ADD SWAP1 POP PUSH2 0xD87 PUSH1 0x0 DUP4 ADD DUP6 PUSH2 0xBDE JUMP JUMPDEST PUSH2 0xD94 PUSH1 0x20 DUP4 ADD DUP5 PUSH2 0xA83 JUMP JUMPDEST SWAP4 SWAP3 POP POP POP JUMP JUMPDEST PUSH1 0x0 DUP3 DUP3 MSTORE PUSH1 0x20 DUP3 ADD SWAP1 POP SWAP3 SWAP2 POP POP JUMP JUMPDEST PUSH1 0x0 PUSH2 0xDB7 DUP3 PUSH2 0xDDC JUMP JUMPDEST SWAP1 POP SWAP2 SWAP1 POP JUMP JUMPDEST PUSH1 0x0 PUSH2 0xDC9 DUP3 PUSH2 0xDDC JUMP JUMPDEST SWAP1 POP SWAP2 SWAP1 POP JUMP JUMPDEST PUSH1 0x0 DUP2 ISZERO ISZERO SWAP1 POP SWAP2 SWAP1 POP JUMP JUMPDEST PUSH1 0x0 PUSH20 0xFFFFFFFFFFFFFFFFFFFFFFFFFFFFFFFFFFFFFFFF DUP3 AND SWAP1 POP SWAP2 SWAP1 POP JUMP JUMPDEST PUSH1 0x0 DUP2 SWAP1 POP SWAP2 SWAP1 POP JUMP JUMPDEST PUSH1 0x0 PUSH2 0xE11 DUP3 PUSH2 0xE18 JUMP JUMPDEST SWAP1 POP SWAP2 SWAP1 POP JUMP JUMPDEST PUSH1 0x0 PUSH2 0xE23 DUP3 PUSH2 0xE2A JUMP JUMPDEST SWAP1 POP SWAP2 SWAP1 POP JUMP JUMPDEST PUSH1 0x0 PUSH2 0xE35 DUP3 PUSH2 0xDDC JUMP JUMPDEST SWAP1 POP SWAP2 SWAP1 POP JUMP JUMPDEST PUSH1 0x0 PUSH2 0xE47 DUP3 PUSH2 0xE4E JUMP JUMPDEST SWAP1 POP SWAP2 SWAP1 POP JUMP JUMPDEST PUSH1 0x0 PUSH2 0xE59 DUP3 PUSH2 0xE6A JUMP JUMPDEST SWAP1 POP SWAP2 SWAP1 POP JUMP JUMPDEST PUSH1 0x0 DUP2 SWAP1 POP SWAP2 SWAP1 POP JUMP JUMPDEST PUSH1 0x0 DUP2 PUSH1 0x60 SHL SWAP1 POP SWAP2 SWAP1 POP JUMP JUMPDEST PUSH2 0xE80 DUP2 PUSH2 0xDD0 JUMP JUMPDEST DUP2 EQ PUSH2 0xE8B JUMPI PUSH1 0x0 DUP1 REVERT JUMPDEST POP JUMP JUMPDEST PUSH2 0xE97 DUP2 PUSH2 0xDFC JUMP JUMPDEST DUP2 EQ PUSH2 0xEA2 JUMPI PUSH1 0x0 DUP1 REVERT JUMPDEST POP JUMP INVALID LOG2 PUSH5 0x6970667358 0x22 SLT KECCAK256 0xD3 0xDA 0xB3 DIV 0xB6 0xB6 SGT 0xB8 0xA6 DUP10 0xDD MOD PUSH17 0xE8E27BE6D91A74B230B3F05C5F9CA4DF85 0xD0 0xD6 PUSH5 0x736F6C6343 STOP MOD 0xC STOP CALLER PUSH1 0x80 PUSH1 0x40 MSTORE CALLVALUE DUP1 ISZERO PUSH2 0x10 JUMPI PUSH1 0x0 DUP1 REVERT JUMPDEST POP PUSH1 0x40 MLOAD PUSH2 0x109D CODESIZE SUB DUP1 PUSH2 0x109D DUP4 CODECOPY DUP2 DUP2 ADD PUSH1 0x40 MSTORE DUP2 ADD SWAP1 PUSH2 0x32 SWAP2 SWAP1 PUSH2 0x99 JUMP JUMPDEST DUP1 PUSH1 0x2 DUP2 SWAP1 SSTORE POP PUSH1 0x2 SLOAD PUSH1 0x0 DUP1 CALLER PUSH20 0xFFFFFFFFFFFFFFFFFFFFFFFFFFFFFFFFFFFFFFFF AND PUSH20 0xFFFFFFFFFFFFFFFFFFFFFFFFFFFFFFFFFFFFFFFF AND DUP2 MSTORE PUSH1 0x20 ADD SWAP1 DUP2 MSTORE PUSH1 0x20 ADD PUSH1 0x0 KECCAK256 DUP2 SWAP1 SSTORE POP POP PUSH2 0xE3 JUMP JUMPDEST PUSH1 0x0 DUP2 MLOAD SWAP1 POP PUSH2 0x93 DUP2 PUSH2 0xCC JUMP JUMPDEST SWAP3 SWAP2 POP POP JUMP JUMPDEST PUSH1 0x0 PUSH1 0x20 DUP3 DUP5 SUB SLT ISZERO PUSH2 0xAB JUMPI PUSH1 0x0 DUP1 REVERT JUMPDEST PUSH1 0x0 PUSH2 0xB9 DUP5 DUP3 DUP6 ADD PUSH2 0x84 JUMP JUMPDEST SWAP2 POP POP SWAP3 SWAP2 POP POP JUMP JUMPDEST PUSH1 0x0 DUP2 SWAP1 POP SWAP2 SWAP1 POP JUMP JUMPDEST PUSH2 0xD5 DUP2 PUSH2 0xC2 JUMP JUMPDEST DUP2 EQ PUSH2 0xE0 JUMPI PUSH1 0x0 DUP1 REVERT JUMPDEST POP JUMP JUMPDEST PUSH2 0xFAB DUP1 PUSH2 0xF2 PUSH1 0x0 CODECOPY PUSH1 0x0 RETURN INVALID PUSH1 0x80 PUSH1 0x40 MSTORE CALLVALUE DUP1 ISZERO PUSH2 0x10 JUMPI PUSH1 0x0 DUP1 REVERT JUMPDEST POP PUSH1 0x4 CALLDATASIZE LT PUSH2 0xA9 JUMPI PUSH1 0x0 CALLDATALOAD PUSH1 0xE0 SHR DUP1 PUSH4 0x313CE567 GT PUSH2 0x71 JUMPI DUP1 PUSH4 0x313CE567 EQ PUSH2 0x166 JUMPI DUP1 PUSH4 0x5C79FEBB EQ PUSH2 0x184 JUMPI DUP1 PUSH4 0x70A08231 EQ PUSH2 0x1B4 JUMPI DUP1 PUSH4 0x95D89B41 EQ PUSH2 0x1E4 JUMPI DUP1 PUSH4 0xA9059CBB EQ PUSH2 0x202 JUMPI DUP1 PUSH4 0xDD62ED3E EQ PUSH2 0x232 JUMPI PUSH2 0xA9 JUMP JUMPDEST DUP1 PUSH4 0x6FDDE03 EQ PUSH2 0xAE JUMPI DUP1 PUSH4 0x95EA7B3 EQ PUSH2 0xCC JUMPI DUP1 PUSH4 0x18160DDD EQ PUSH2 0xFC JUMPI DUP1 PUSH4 0x1D43CC98 EQ PUSH2 0x11A JUMPI DUP1 PUSH4 0x23B872DD EQ PUSH2 0x136 JUMPI JUMPDEST PUSH1 0x0 DUP1 REVERT JUMPDEST PUSH2 0xB6 PUSH2 0x262 JUMP JUMPDEST PUSH1 0x40 MLOAD PUSH2 0xC3 SWAP2 SWAP1 PUSH2 0xE3A JUMP JUMPDEST PUSH1 0x40 MLOAD DUP1 SWAP2 SUB SWAP1 RETURN JUMPDEST PUSH2 0xE6 PUSH1 0x4 DUP1 CALLDATASIZE SUB DUP2 ADD SWAP1 PUSH2 0xE1 SWAP2 SWAP1 PUSH2 0xD54 JUMP JUMPDEST PUSH2 0x29B JUMP JUMPDEST PUSH1 0x40 MLOAD PUSH2 0xF3 SWAP2 SWAP1 PUSH2 0xE1F JUMP JUMPDEST PUSH1 0x40 MLOAD DUP1 SWAP2 SUB SWAP1 RETURN JUMPDEST PUSH2 0x104 PUSH2 0x38D JUMP JUMPDEST PUSH1 0x40 MLOAD PUSH2 0x111 SWAP2 SWAP1 PUSH2 0xE5C JUMP JUMPDEST PUSH1 0x40 MLOAD DUP1 SWAP2 SUB SWAP1 RETURN JUMPDEST PUSH2 0x134 PUSH1 0x4 DUP1 CALLDATASIZE SUB DUP2 ADD SWAP1 PUSH2 0x12F SWAP2 SWAP1 PUSH2 0xD90 JUMP JUMPDEST PUSH2 0x397 JUMP JUMPDEST STOP JUMPDEST PUSH2 0x150 PUSH1 0x4 DUP1 CALLDATASIZE SUB DUP2 ADD SWAP1 PUSH2 0x14B SWAP2 SWAP1 PUSH2 0xD05 JUMP JUMPDEST PUSH2 0x3F6 JUMP JUMPDEST PUSH1 0x40 MLOAD PUSH2 0x15D SWAP2 SWAP1 PUSH2 0xE1F JUMP JUMPDEST PUSH1 0x40 MLOAD DUP1 SWAP2 SUB SWAP1 RETURN JUMPDEST PUSH2 0x16E PUSH2 0x771 JUMP JUMPDEST PUSH1 0x40 MLOAD PUSH2 0x17B SWAP2 SWAP1 PUSH2 0xE77 JUMP JUMPDEST PUSH1 0x40 MLOAD DUP1 SWAP2 SUB SWAP1 RETURN JUMPDEST PUSH2 0x19E PUSH1 0x4 DUP1 CALLDATASIZE SUB DUP2 ADD SWAP1 PUSH2 0x199 SWAP2 SWAP1 PUSH2 0xD05 JUMP JUMPDEST PUSH2 0x776 JUMP JUMPDEST PUSH1 0x40 MLOAD PUSH2 0x1AB SWAP2 SWAP1 PUSH2 0xE1F JUMP JUMPDEST PUSH1 0x40 MLOAD DUP1 SWAP2 SUB SWAP1 RETURN JUMPDEST PUSH2 0x1CE PUSH1 0x4 DUP1 CALLDATASIZE SUB DUP2 ADD SWAP1 PUSH2 0x1C9 SWAP2 SWAP1 PUSH2 0xCA0 JUMP JUMPDEST PUSH2 0x959 JUMP JUMPDEST PUSH1 0x40 MLOAD PUSH2 0x1DB SWAP2 SWAP1 PUSH2 0xE5C JUMP JUMPDEST PUSH1 0x40 MLOAD DUP1 SWAP2 SUB SWAP1 RETURN JUMPDEST PUSH2 0x1EC PUSH2 0x9A1 JUMP JUMPDEST PUSH1 0x40 MLOAD PUSH2 0x1F9 SWAP2 SWAP1 PUSH2 0xE3A JUMP JUMPDEST PUSH1 0x40 MLOAD DUP1 SWAP2 SUB SWAP1 RETURN JUMPDEST PUSH2 0x21C PUSH1 0x4 DUP1 CALLDATASIZE SUB DUP2 ADD SWAP1 PUSH2 0x217 SWAP2 SWAP1 PUSH2 0xD54 JUMP JUMPDEST PUSH2 0x9DA JUMP JUMPDEST PUSH1 0x40 MLOAD PUSH2 0x229 SWAP2 SWAP1 PUSH2 0xE1F JUMP JUMPDEST PUSH1 0x40 MLOAD DUP1 SWAP2 SUB SWAP1 RETURN JUMPDEST PUSH2 0x24C PUSH1 0x4 DUP1 CALLDATASIZE SUB DUP2 ADD SWAP1 PUSH2 0x247 SWAP2 SWAP1 PUSH2 0xCC9 JUMP JUMPDEST PUSH2 0xBBC JUMP JUMPDEST PUSH1 0x40 MLOAD PUSH2 0x259 SWAP2 SWAP1 PUSH2 0xE5C JUMP JUMPDEST PUSH1 0x40 MLOAD DUP1 SWAP2 SUB SWAP1 RETURN JUMPDEST PUSH1 0x40 MLOAD DUP1 PUSH1 0x40 ADD PUSH1 0x40 MSTORE DUP1 PUSH1 0xC DUP2 MSTORE PUSH1 0x20 ADD PUSH32 0x4552433230414B414C75676F0000000000000000000000000000000000000000 DUP2 MSTORE POP DUP2 JUMP JUMPDEST PUSH1 0x0 DUP2 PUSH1 0x1 PUSH1 0x0 CALLER PUSH20 0xFFFFFFFFFFFFFFFFFFFFFFFFFFFFFFFFFFFFFFFF AND PUSH20 0xFFFFFFFFFFFFFFFFFFFFFFFFFFFFFFFFFFFFFFFF AND DUP2 MSTORE PUSH1 0x20 ADD SWAP1 DUP2 MSTORE PUSH1 0x20 ADD PUSH1 0x0 KECCAK256 PUSH1 0x0 DUP6 PUSH20 0xFFFFFFFFFFFFFFFFFFFFFFFFFFFFFFFFFFFFFFFF AND PUSH20 0xFFFFFFFFFFFFFFFFFFFFFFFFFFFFFFFFFFFFFFFF AND DUP2 MSTORE PUSH1 0x20 ADD SWAP1 DUP2 MSTORE PUSH1 0x20 ADD PUSH1 0x0 KECCAK256 DUP2 SWAP1 SSTORE POP DUP3 PUSH20 0xFFFFFFFFFFFFFFFFFFFFFFFFFFFFFFFFFFFFFFFF AND CALLER PUSH20 0xFFFFFFFFFFFFFFFFFFFFFFFFFFFFFFFFFFFFFFFF AND PUSH32 0x8C5BE1E5EBEC7D5BD14F71427D1E84F3DD0314C0F7B2291E5B200AC8C7C3B925 DUP5 PUSH1 0x40 MLOAD PUSH2 0x37B SWAP2 SWAP1 PUSH2 0xE5C JUMP JUMPDEST PUSH1 0x40 MLOAD DUP1 SWAP2 SUB SWAP1 LOG3 PUSH1 0x1 SWAP1 POP SWAP3 SWAP2 POP POP JUMP JUMPDEST PUSH1 0x0 PUSH1 0x2 SLOAD SWAP1 POP SWAP1 JUMP JUMPDEST DUP1 PUSH1 0x2 PUSH1 0x0 DUP3 DUP3 SLOAD ADD SWAP3 POP POP DUP2 SWAP1 SSTORE POP DUP1 PUSH1 0x0 DUP1 CALLER PUSH20 0xFFFFFFFFFFFFFFFFFFFFFFFFFFFFFFFFFFFFFFFF AND PUSH20 0xFFFFFFFFFFFFFFFFFFFFFFFFFFFFFFFFFFFFFFFF AND DUP2 MSTORE PUSH1 0x20 ADD SWAP1 DUP2 MSTORE PUSH1 0x20 ADD PUSH1 0x0 KECCAK256 PUSH1 0x0 DUP3 DUP3 SLOAD ADD SWAP3 POP POP DUP2 SWAP1 SSTORE POP POP JUMP JUMPDEST PUSH1 0x0 DUP2 PUSH1 0x0 DUP1 DUP7 PUSH20 0xFFFFFFFFFFFFFFFFFFFFFFFFFFFFFFFFFFFFFFFF AND PUSH20 0xFFFFFFFFFFFFFFFFFFFFFFFFFFFFFFFFFFFFFFFF AND DUP2 MSTORE PUSH1 0x20 ADD SWAP1 DUP2 MSTORE PUSH1 0x20 ADD PUSH1 0x0 KECCAK256 SLOAD LT ISZERO PUSH2 0x443 JUMPI PUSH1 0x0 DUP1 REVERT JUMPDEST DUP2 PUSH1 0x1 PUSH1 0x0 DUP7 PUSH20 0xFFFFFFFFFFFFFFFFFFFFFFFFFFFFFFFFFFFFFFFF AND PUSH20 0xFFFFFFFFFFFFFFFFFFFFFFFFFFFFFFFFFFFFFFFF AND DUP2 MSTORE PUSH1 0x20 ADD SWAP1 DUP2 MSTORE PUSH1 0x20 ADD PUSH1 0x0 KECCAK256 PUSH1 0x0 CALLER PUSH20 0xFFFFFFFFFFFFFFFFFFFFFFFFFFFFFFFFFFFFFFFF AND PUSH20 0xFFFFFFFFFFFFFFFFFFFFFFFFFFFFFFFFFFFFFFFF AND DUP2 MSTORE PUSH1 0x20 ADD SWAP1 DUP2 MSTORE PUSH1 0x20 ADD PUSH1 0x0 KECCAK256 SLOAD LT ISZERO PUSH2 0x4CC JUMPI PUSH1 0x0 DUP1 REVERT JUMPDEST PUSH2 0x51D DUP3 PUSH1 0x0 DUP1 DUP8 PUSH20 0xFFFFFFFFFFFFFFFFFFFFFFFFFFFFFFFFFFFFFFFF AND PUSH20 0xFFFFFFFFFFFFFFFFFFFFFFFFFFFFFFFFFFFFFFFF AND DUP2 MSTORE PUSH1 0x20 ADD SWAP1 DUP2 MSTORE PUSH1 0x20 ADD PUSH1 0x0 KECCAK256 SLOAD PUSH2 0xC43 SWAP1 SWAP2 SWAP1 PUSH4 0xFFFFFFFF AND JUMP JUMPDEST PUSH1 0x0 DUP1 DUP7 PUSH20 0xFFFFFFFFFFFFFFFFFFFFFFFFFFFFFFFFFFFFFFFF AND PUSH20 0xFFFFFFFFFFFFFFFFFFFFFFFFFFFFFFFFFFFFFFFF AND DUP2 MSTORE PUSH1 0x20 ADD SWAP1 DUP2 MSTORE PUSH1 0x20 ADD PUSH1 0x0 KECCAK256 DUP2 SWAP1 SSTORE POP PUSH2 0x5EE DUP3 PUSH1 0x1 PUSH1 0x0 DUP8 PUSH20 0xFFFFFFFFFFFFFFFFFFFFFFFFFFFFFFFFFFFFFFFF AND PUSH20 0xFFFFFFFFFFFFFFFFFFFFFFFFFFFFFFFFFFFFFFFF AND DUP2 MSTORE PUSH1 0x20 ADD SWAP1 DUP2 MSTORE PUSH1 0x20 ADD PUSH1 0x0 KECCAK256 PUSH1 0x0 CALLER PUSH20 0xFFFFFFFFFFFFFFFFFFFFFFFFFFFFFFFFFFFFFFFF AND PUSH20 0xFFFFFFFFFFFFFFFFFFFFFFFFFFFFFFFFFFFFFFFF AND DUP2 MSTORE PUSH1 0x20 ADD SWAP1 DUP2 MSTORE PUSH1 0x20 ADD PUSH1 0x0 KECCAK256 SLOAD PUSH2 0xC43 SWAP1 SWAP2 SWAP1 PUSH4 0xFFFFFFFF AND JUMP JUMPDEST PUSH1 0x1 PUSH1 0x0 DUP7 PUSH20 0xFFFFFFFFFFFFFFFFFFFFFFFFFFFFFFFFFFFFFFFF AND PUSH20 0xFFFFFFFFFFFFFFFFFFFFFFFFFFFFFFFFFFFFFFFF AND DUP2 MSTORE PUSH1 0x20 ADD SWAP1 DUP2 MSTORE PUSH1 0x20 ADD PUSH1 0x0 KECCAK256 PUSH1 0x0 CALLER PUSH20 0xFFFFFFFFFFFFFFFFFFFFFFFFFFFFFFFFFFFFFFFF AND PUSH20 0xFFFFFFFFFFFFFFFFFFFFFFFFFFFFFFFFFFFFFFFF AND DUP2 MSTORE PUSH1 0x20 ADD SWAP1 DUP2 MSTORE PUSH1 0x20 ADD PUSH1 0x0 KECCAK256 DUP2 SWAP1 SSTORE POP PUSH2 0x6BF DUP3 PUSH1 0x0 DUP1 DUP7 PUSH20 0xFFFFFFFFFFFFFFFFFFFFFFFFFFFFFFFFFFFFFFFF AND PUSH20 0xFFFFFFFFFFFFFFFFFFFFFFFFFFFFFFFFFFFFFFFF AND DUP2 MSTORE PUSH1 0x20 ADD SWAP1 DUP2 MSTORE PUSH1 0x20 ADD PUSH1 0x0 KECCAK256 SLOAD PUSH2 0xC5A SWAP1 SWAP2 SWAP1 PUSH4 0xFFFFFFFF AND JUMP JUMPDEST PUSH1 0x0 DUP1 DUP6 PUSH20 0xFFFFFFFFFFFFFFFFFFFFFFFFFFFFFFFFFFFFFFFF AND PUSH20 0xFFFFFFFFFFFFFFFFFFFFFFFFFFFFFFFFFFFFFFFF AND DUP2 MSTORE PUSH1 0x20 ADD SWAP1 DUP2 MSTORE PUSH1 0x20 ADD PUSH1 0x0 KECCAK256 DUP2 SWAP1 SSTORE POP DUP3 PUSH20 0xFFFFFFFFFFFFFFFFFFFFFFFFFFFFFFFFFFFFFFFF AND DUP5 PUSH20 0xFFFFFFFFFFFFFFFFFFFFFFFFFFFFFFFFFFFFFFFF AND PUSH32 0xDDF252AD1BE2C89B69C2B068FC378DAA952BA7F163C4A11628F55A4DF523B3EF DUP5 PUSH1 0x40 MLOAD PUSH2 0x75E SWAP2 SWAP1 PUSH2 0xE5C JUMP JUMPDEST PUSH1 0x40 MLOAD DUP1 SWAP2 SUB SWAP1 LOG3 PUSH1 0x1 SWAP1 POP SWAP4 SWAP3 POP POP POP JUMP JUMPDEST PUSH1 0x12 DUP2 JUMP JUMPDEST PUSH1 0x0 DUP1 PUSH1 0x0 DUP6 PUSH20 0xFFFFFFFFFFFFFFFFFFFFFFFFFFFFFFFFFFFFFFFF AND PUSH20 0xFFFFFFFFFFFFFFFFFFFFFFFFFFFFFFFFFFFFFFFF AND DUP2 MSTORE PUSH1 0x20 ADD SWAP1 DUP2 MSTORE PUSH1 0x20 ADD PUSH1 0x0 KECCAK256 SLOAD DUP3 GT ISZERO PUSH2 0x7C3 JUMPI PUSH1 0x0 DUP1 REVERT JUMPDEST PUSH2 0x814 DUP3 PUSH1 0x0 DUP1 DUP8 PUSH20 0xFFFFFFFFFFFFFFFFFFFFFFFFFFFFFFFFFFFFFFFF AND PUSH20 0xFFFFFFFFFFFFFFFFFFFFFFFFFFFFFFFFFFFFFFFF AND DUP2 MSTORE PUSH1 0x20 ADD SWAP1 DUP2 MSTORE PUSH1 0x20 ADD PUSH1 0x0 KECCAK256 SLOAD PUSH2 0xC43 SWAP1 SWAP2 SWAP1 PUSH4 0xFFFFFFFF AND JUMP JUMPDEST PUSH1 0x0 DUP1 DUP7 PUSH20 0xFFFFFFFFFFFFFFFFFFFFFFFFFFFFFFFFFFFFFFFF AND PUSH20 0xFFFFFFFFFFFFFFFFFFFFFFFFFFFFFFFFFFFFFFFF AND DUP2 MSTORE PUSH1 0x20 ADD SWAP1 DUP2 MSTORE PUSH1 0x20 ADD PUSH1 0x0 KECCAK256 DUP2 SWAP1 SSTORE POP PUSH2 0x8A7 DUP3 PUSH1 0x0 DUP1 DUP7 PUSH20 0xFFFFFFFFFFFFFFFFFFFFFFFFFFFFFFFFFFFFFFFF AND PUSH20 0xFFFFFFFFFFFFFFFFFFFFFFFFFFFFFFFFFFFFFFFF AND DUP2 MSTORE PUSH1 0x20 ADD SWAP1 DUP2 MSTORE PUSH1 0x20 ADD PUSH1 0x0 KECCAK256 SLOAD PUSH2 0xC5A SWAP1 SWAP2 SWAP1 PUSH4 0xFFFFFFFF AND JUMP JUMPDEST PUSH1 0x0 DUP1 DUP6 PUSH20 0xFFFFFFFFFFFFFFFFFFFFFFFFFFFFFFFFFFFFFFFF AND PUSH20 0xFFFFFFFFFFFFFFFFFFFFFFFFFFFFFFFFFFFFFFFF AND DUP2 MSTORE PUSH1 0x20 ADD SWAP1 DUP2 MSTORE PUSH1 0x20 ADD PUSH1 0x0 KECCAK256 DUP2 SWAP1 SSTORE POP DUP3 PUSH20 0xFFFFFFFFFFFFFFFFFFFFFFFFFFFFFFFFFFFFFFFF AND DUP5 PUSH20 0xFFFFFFFFFFFFFFFFFFFFFFFFFFFFFFFFFFFFFFFF AND PUSH32 0xDDF252AD1BE2C89B69C2B068FC378DAA952BA7F163C4A11628F55A4DF523B3EF DUP5 PUSH1 0x40 MLOAD PUSH2 0x946 SWAP2 SWAP1 PUSH2 0xE5C JUMP JUMPDEST PUSH1 0x40 MLOAD DUP1 SWAP2 SUB SWAP1 LOG3 PUSH1 0x1 SWAP1 POP SWAP4 SWAP3 POP POP POP JUMP JUMPDEST PUSH1 0x0 DUP1 PUSH1 0x0 DUP4 PUSH20 0xFFFFFFFFFFFFFFFFFFFFFFFFFFFFFFFFFFFFFFFF AND PUSH20 0xFFFFFFFFFFFFFFFFFFFFFFFFFFFFFFFFFFFFFFFF AND DUP2 MSTORE PUSH1 0x20 ADD SWAP1 DUP2 MSTORE PUSH1 0x20 ADD PUSH1 0x0 KECCAK256 SLOAD SWAP1 POP SWAP2 SWAP1 POP JUMP JUMPDEST PUSH1 0x40 MLOAD DUP1 PUSH1 0x40 ADD PUSH1 0x40 MSTORE DUP1 PUSH1 0x3 DUP2 MSTORE PUSH1 0x20 ADD PUSH32 0x414B410000000000000000000000000000000000000000000000000000000000 DUP2 MSTORE POP DUP2 JUMP JUMPDEST PUSH1 0x0 DUP1 PUSH1 0x0 CALLER PUSH20 0xFFFFFFFFFFFFFFFFFFFFFFFFFFFFFFFFFFFFFFFF AND PUSH20 0xFFFFFFFFFFFFFFFFFFFFFFFFFFFFFFFFFFFFFFFF AND DUP2 MSTORE PUSH1 0x20 ADD SWAP1 DUP2 MSTORE PUSH1 0x20 ADD PUSH1 0x0 KECCAK256 SLOAD DUP3 GT ISZERO PUSH2 0xA27 JUMPI PUSH1 0x0 DUP1 REVERT JUMPDEST PUSH2 0xA78 DUP3 PUSH1 0x0 DUP1 CALLER PUSH20 0xFFFFFFFFFFFFFFFFFFFFFFFFFFFFFFFFFFFFFFFF AND PUSH20 0xFFFFFFFFFFFFFFFFFFFFFFFFFFFFFFFFFFFFFFFF AND DUP2 MSTORE PUSH1 0x20 ADD SWAP1 DUP2 MSTORE PUSH1 0x20 ADD PUSH1 0x0 KECCAK256 SLOAD PUSH2 0xC43 SWAP1 SWAP2 SWAP1 PUSH4 0xFFFFFFFF AND JUMP JUMPDEST PUSH1 0x0 DUP1 CALLER PUSH20 0xFFFFFFFFFFFFFFFFFFFFFFFFFFFFFFFFFFFFFFFF AND PUSH20 0xFFFFFFFFFFFFFFFFFFFFFFFFFFFFFFFFFFFFFFFF AND DUP2 MSTORE PUSH1 0x20 ADD SWAP1 DUP2 MSTORE PUSH1 0x20 ADD PUSH1 0x0 KECCAK256 DUP2 SWAP1 SSTORE POP PUSH2 0xB0B DUP3 PUSH1 0x0 DUP1 DUP7 PUSH20 0xFFFFFFFFFFFFFFFFFFFFFFFFFFFFFFFFFFFFFFFF AND PUSH20 0xFFFFFFFFFFFFFFFFFFFFFFFFFFFFFFFFFFFFFFFF AND DUP2 MSTORE PUSH1 0x20 ADD SWAP1 DUP2 MSTORE PUSH1 0x20 ADD PUSH1 0x0 KECCAK256 SLOAD PUSH2 0xC5A SWAP1 SWAP2 SWAP1 PUSH4 0xFFFFFFFF AND JUMP JUMPDEST PUSH1 0x0 DUP1 DUP6 PUSH20 0xFFFFFFFFFFFFFFFFFFFFFFFFFFFFFFFFFFFFFFFF AND PUSH20 0xFFFFFFFFFFFFFFFFFFFFFFFFFFFFFFFFFFFFFFFF AND DUP2 MSTORE PUSH1 0x20 ADD SWAP1 DUP2 MSTORE PUSH1 0x20 ADD PUSH1 0x0 KECCAK256 DUP2 SWAP1 SSTORE POP DUP3 PUSH20 0xFFFFFFFFFFFFFFFFFFFFFFFFFFFFFFFFFFFFFFFF AND CALLER PUSH20 0xFFFFFFFFFFFFFFFFFFFFFFFFFFFFFFFFFFFFFFFF AND PUSH32 0xDDF252AD1BE2C89B69C2B068FC378DAA952BA7F163C4A11628F55A4DF523B3EF DUP5 PUSH1 0x40 MLOAD PUSH2 0xBAA SWAP2 SWAP1 PUSH2 0xE5C JUMP JUMPDEST PUSH1 0x40 MLOAD DUP1 SWAP2 SUB SWAP1 LOG3 PUSH1 0x1 SWAP1 POP SWAP3 SWAP2 POP POP JUMP JUMPDEST PUSH1 0x0 PUSH1 0x1 PUSH1 0x0 DUP5 PUSH20 0xFFFFFFFFFFFFFFFFFFFFFFFFFFFFFFFFFFFFFFFF AND PUSH20 0xFFFFFFFFFFFFFFFFFFFFFFFFFFFFFFFFFFFFFFFF AND DUP2 MSTORE PUSH1 0x20 ADD SWAP1 DUP2 MSTORE PUSH1 0x20 ADD PUSH1 0x0 KECCAK256 PUSH1 0x0 DUP4 PUSH20 0xFFFFFFFFFFFFFFFFFFFFFFFFFFFFFFFFFFFFFFFF AND PUSH20 0xFFFFFFFFFFFFFFFFFFFFFFFFFFFFFFFFFFFFFFFF AND DUP2 MSTORE PUSH1 0x20 ADD SWAP1 DUP2 MSTORE PUSH1 0x20 ADD PUSH1 0x0 KECCAK256 SLOAD SWAP1 POP SWAP3 SWAP2 POP POP JUMP JUMPDEST PUSH1 0x0 DUP3 DUP3 GT ISZERO PUSH2 0xC4F JUMPI INVALID JUMPDEST DUP2 DUP4 SUB SWAP1 POP SWAP3 SWAP2 POP POP JUMP JUMPDEST PUSH1 0x0 DUP1 DUP3 DUP5 ADD SWAP1 POP DUP4 DUP2 LT ISZERO PUSH2 0xC6C JUMPI INVALID JUMPDEST DUP1 SWAP2 POP POP SWAP3 SWAP2 POP POP JUMP JUMPDEST PUSH1 0x0 DUP2 CALLDATALOAD SWAP1 POP PUSH2 0xC85 DUP2 PUSH2 0xF47 JUMP JUMPDEST SWAP3 SWAP2 POP POP JUMP JUMPDEST PUSH1 0x0 DUP2 CALLDATALOAD SWAP1 POP PUSH2 0xC9A DUP2 PUSH2 0xF5E JUMP JUMPDEST SWAP3 SWAP2 POP POP JUMP JUMPDEST PUSH1 0x0 PUSH1 0x20 DUP3 DUP5 SUB SLT ISZERO PUSH2 0xCB2 JUMPI PUSH1 0x0 DUP1 REVERT JUMPDEST PUSH1 0x0 PUSH2 0xCC0 DUP5 DUP3 DUP6 ADD PUSH2 0xC76 JUMP JUMPDEST SWAP2 POP POP SWAP3 SWAP2 POP POP JUMP JUMPDEST PUSH1 0x0 DUP1 PUSH1 0x40 DUP4 DUP6 SUB SLT ISZERO PUSH2 0xCDC JUMPI PUSH1 0x0 DUP1 REVERT JUMPDEST PUSH1 0x0 PUSH2 0xCEA DUP6 DUP3 DUP7 ADD PUSH2 0xC76 JUMP JUMPDEST SWAP3 POP POP PUSH1 0x20 PUSH2 0xCFB DUP6 DUP3 DUP7 ADD PUSH2 0xC76 JUMP JUMPDEST SWAP2 POP POP SWAP3 POP SWAP3 SWAP1 POP JUMP JUMPDEST PUSH1 0x0 DUP1 PUSH1 0x0 PUSH1 0x60 DUP5 DUP7 SUB SLT ISZERO PUSH2 0xD1A JUMPI PUSH1 0x0 DUP1 REVERT JUMPDEST PUSH1 0x0 PUSH2 0xD28 DUP7 DUP3 DUP8 ADD PUSH2 0xC76 JUMP JUMPDEST SWAP4 POP POP PUSH1 0x20 PUSH2 0xD39 DUP7 DUP3 DUP8 ADD PUSH2 0xC76 JUMP JUMPDEST SWAP3 POP POP PUSH1 0x40 PUSH2 0xD4A DUP7 DUP3 DUP8 ADD PUSH2 0xC8B JUMP JUMPDEST SWAP2 POP POP SWAP3 POP SWAP3 POP SWAP3 JUMP JUMPDEST PUSH1 0x0 DUP1 PUSH1 0x40 DUP4 DUP6 SUB SLT ISZERO PUSH2 0xD67 JUMPI PUSH1 0x0 DUP1 REVERT JUMPDEST PUSH1 0x0 PUSH2 0xD75 DUP6 DUP3 DUP7 ADD PUSH2 0xC76 JUMP JUMPDEST SWAP3 POP POP PUSH1 0x20 PUSH2 0xD86 DUP6 DUP3 DUP7 ADD PUSH2 0xC8B JUMP JUMPDEST SWAP2 POP POP SWAP3 POP SWAP3 SWAP1 POP JUMP JUMPDEST PUSH1 0x0 PUSH1 0x20 DUP3 DUP5 SUB SLT ISZERO PUSH2 0xDA2 JUMPI PUSH1 0x0 DUP1 REVERT JUMPDEST PUSH1 0x0 PUSH2 0xDB0 DUP5 DUP3 DUP6 ADD PUSH2 0xC8B JUMP JUMPDEST SWAP2 POP POP SWAP3 SWAP2 POP POP JUMP JUMPDEST PUSH2 0xDC2 DUP2 PUSH2 0xEC0 JUMP JUMPDEST DUP3 MSTORE POP POP JUMP JUMPDEST PUSH1 0x0 PUSH2 0xDD3 DUP3 PUSH2 0xE92 JUMP JUMPDEST PUSH2 0xDDD DUP2 DUP6 PUSH2 0xE9D JUMP JUMPDEST SWAP4 POP PUSH2 0xDED DUP2 DUP6 PUSH1 0x20 DUP7 ADD PUSH2 0xF03 JUMP JUMPDEST PUSH2 0xDF6 DUP2 PUSH2 0xF36 JUMP JUMPDEST DUP5 ADD SWAP2 POP POP SWAP3 SWAP2 POP POP JUMP JUMPDEST PUSH2 0xE0A DUP2 PUSH2 0xEEC JUMP JUMPDEST DUP3 MSTORE POP POP JUMP JUMPDEST PUSH2 0xE19 DUP2 PUSH2 0xEF6 JUMP JUMPDEST DUP3 MSTORE POP POP JUMP JUMPDEST PUSH1 0x0 PUSH1 0x20 DUP3 ADD SWAP1 POP PUSH2 0xE34 PUSH1 0x0 DUP4 ADD DUP5 PUSH2 0xDB9 JUMP JUMPDEST SWAP3 SWAP2 POP POP JUMP JUMPDEST PUSH1 0x0 PUSH1 0x20 DUP3 ADD SWAP1 POP DUP2 DUP2 SUB PUSH1 0x0 DUP4 ADD MSTORE PUSH2 0xE54 DUP2 DUP5 PUSH2 0xDC8 JUMP JUMPDEST SWAP1 POP SWAP3 SWAP2 POP POP JUMP JUMPDEST PUSH1 0x0 PUSH1 0x20 DUP3 ADD SWAP1 POP PUSH2 0xE71 PUSH1 0x0 DUP4 ADD DUP5 PUSH2 0xE01 JUMP JUMPDEST SWAP3 SWAP2 POP POP JUMP JUMPDEST PUSH1 0x0 PUSH1 0x20 DUP3 ADD SWAP1 POP PUSH2 0xE8C PUSH1 0x0 DUP4 ADD DUP5 PUSH2 0xE10 JUMP JUMPDEST SWAP3 SWAP2 POP POP JUMP JUMPDEST PUSH1 0x0 DUP2 MLOAD SWAP1 POP SWAP2 SWAP1 POP JUMP JUMPDEST PUSH1 0x0 DUP3 DUP3 MSTORE PUSH1 0x20 DUP3 ADD SWAP1 POP SWAP3 SWAP2 POP POP JUMP JUMPDEST PUSH1 0x0 PUSH2 0xEB9 DUP3 PUSH2 0xECC JUMP JUMPDEST SWAP1 POP SWAP2 SWAP1 POP JUMP JUMPDEST PUSH1 0x0 DUP2 ISZERO ISZERO SWAP1 POP SWAP2 SWAP1 POP JUMP JUMPDEST PUSH1 0x0 PUSH20 0xFFFFFFFFFFFFFFFFFFFFFFFFFFFFFFFFFFFFFFFF DUP3 AND SWAP1 POP SWAP2 SWAP1 POP JUMP JUMPDEST PUSH1 0x0 DUP2 SWAP1 POP SWAP2 SWAP1 POP JUMP JUMPDEST PUSH1 0x0 PUSH1 0xFF DUP3 AND SWAP1 POP SWAP2 SWAP1 POP JUMP JUMPDEST PUSH1 0x0 JUMPDEST DUP4 DUP2 LT ISZERO PUSH2 0xF21 JUMPI DUP1 DUP3 ADD MLOAD DUP2 DUP5 ADD MSTORE PUSH1 0x20 DUP2 ADD SWAP1 POP PUSH2 0xF06 JUMP JUMPDEST DUP4 DUP2 GT ISZERO PUSH2 0xF30 JUMPI PUSH1 0x0 DUP5 DUP5 ADD MSTORE JUMPDEST POP POP POP POP JUMP JUMPDEST PUSH1 0x0 PUSH1 0x1F NOT PUSH1 0x1F DUP4 ADD AND SWAP1 POP SWAP2 SWAP1 POP JUMP JUMPDEST PUSH2 0xF50 DUP2 PUSH2 0xEAE JUMP JUMPDEST DUP2 EQ PUSH2 0xF5B JUMPI PUSH1 0x0 DUP1 REVERT JUMPDEST POP JUMP JUMPDEST PUSH2 0xF67 DUP2 PUSH2 0xEEC JUMP JUMPDEST DUP2 EQ PUSH2 0xF72 JUMPI PUSH1 0x0 DUP1 REVERT JUMPDEST POP JUMP INVALID LOG2 PUSH5 0x6970667358 0x22 SLT KECCAK256 COINBASE SWAP3 0x4E PUSH22 0xC6A689F4E76B488C772248149581615C89D36359B220 RETURNDATASIZE GT PUSH32 0x5C45A064736F6C634300060C0033000000000000000000000000000000000000 "
				},
				"gasEstimates": {
					"creation": {
						"codeDepositCost": "760600",
						"executionCost": "infinite",
						"totalCost": "infinite"
					},
					"external": {
						"Bote()": "infinite",
						"CompraTokens(uint256)": "infinite",
						"ComprarBoleto(uint256)": "infinite",
						"GeneraTokens(uint256)": "infinite",
						"MisTokens()": "infinite",
						"PrecioBoleto()": "1152",
						"TokensDisponibles()": "infinite",
						"contrato()": "1236",
						"owner()": "1214"
					},
					"internal": {
						"PrecioTokens(uint256)": "36"
					}
				},
				"methodIdentifiers": {
					"Bote()": "74189861",
					"CompraTokens(uint256)": "f7774091",
					"ComprarBoleto(uint256)": "7cd15f44",
					"GeneraTokens(uint256)": "1246f6e2",
					"MisTokens()": "e33f34a0",
					"PrecioBoleto()": "27909f27",
					"TokensDisponibles()": "fd889ff5",
					"contrato()": "e1a01e67",
					"owner()": "8da5cb5b"
				}
			},
			"storageLayout": {
				"storage": [
					{
						"astId": 497,
						"contract": "Loteria/loteria.sol:Loteria",
						"label": "token",
						"offset": 0,
						"slot": "0",
						"type": "t_contract(ERC20Basic)409"
					},
					{
						"astId": 499,
						"contract": "Loteria/loteria.sol:Loteria",
						"label": "owner",
						"offset": 0,
						"slot": "1",
						"type": "t_address"
					},
					{
						"astId": 501,
						"contract": "Loteria/loteria.sol:Loteria",
						"label": "contrato",
						"offset": 0,
						"slot": "2",
						"type": "t_address"
					},
					{
						"astId": 667,
						"contract": "Loteria/loteria.sol:Loteria",
						"label": "PrecioBoleto",
						"offset": 0,
						"slot": "3",
						"type": "t_uint256"
					},
					{
						"astId": 672,
						"contract": "Loteria/loteria.sol:Loteria",
						"label": "idPersona_boletos",
						"offset": 0,
						"slot": "4",
						"type": "t_mapping(t_address,t_array(t_uint256)dyn_storage)"
					},
					{
						"astId": 676,
						"contract": "Loteria/loteria.sol:Loteria",
						"label": "ADN_boleto",
						"offset": 0,
						"slot": "5",
						"type": "t_mapping(t_uint256,t_address)"
					},
					{
						"astId": 679,
						"contract": "Loteria/loteria.sol:Loteria",
						"label": "randNonce",
						"offset": 0,
						"slot": "6",
						"type": "t_uint256"
					},
					{
						"astId": 682,
						"contract": "Loteria/loteria.sol:Loteria",
						"label": "boletos_comprados",
						"offset": 0,
						"slot": "7",
						"type": "t_array(t_uint256)dyn_storage"
					}
				],
				"types": {
					"t_address": {
						"encoding": "inplace",
						"label": "address",
						"numberOfBytes": "20"
					},
					"t_array(t_uint256)dyn_storage": {
						"base": "t_uint256",
						"encoding": "dynamic_array",
						"label": "uint256[]",
						"numberOfBytes": "32"
					},
					"t_contract(ERC20Basic)409": {
						"encoding": "inplace",
						"label": "contract ERC20Basic",
						"numberOfBytes": "20"
					},
					"t_mapping(t_address,t_array(t_uint256)dyn_storage)": {
						"encoding": "mapping",
						"key": "t_address",
						"label": "mapping(address => uint256[])",
						"numberOfBytes": "32",
						"value": "t_array(t_uint256)dyn_storage"
					},
					"t_mapping(t_uint256,t_address)": {
						"encoding": "mapping",
						"key": "t_uint256",
						"label": "mapping(uint256 => address)",
						"numberOfBytes": "32",
						"value": "t_address"
					},
					"t_uint256": {
						"encoding": "inplace",
						"label": "uint256",
						"numberOfBytes": "32"
					}
				}
			},
			"userdoc": {
				"kind": "user",
				"methods": {},
				"version": 1
			}
		}
	}
}